{"abi":[{"inputs":[{"internalType":"address","name":"_ownerAddress","type":"address"}],"stateMutability":"nonpayable","type":"constructor"},{"anonymous":false,"inputs":[{"indexed":true,"internalType":"uint256","name":"_index","type":"uint256"}],"name":"AddBook","type":"event"},{"anonymous":false,"inputs":[{"indexed":true,"internalType":"uint256","name":"_index","type":"uint256"}],"name":"ModifyBook","type":"event"},{"inputs":[{"internalType":"string","name":"_bookId","type":"string"},{"internalType":"string","name":"_title","type":"string"},{"internalType":"uint256","name":"_price","type":"uint256"},{"internalType":"address","name":"_authorAddress","type":"address"}],"name":"addBook","outputs":[],"stateMutability":"nonpayable","type":"function"},{"inputs":[{"internalType":"uint256","name":"","type":"uint256"}],"name":"bookInformations","outputs":[{"internalType":"string","name":"bookId","type":"string"},{"internalType":"string","name":"title","type":"string"},{"internalType":"uint256","name":"price","type":"uint256"},{"internalType":"uint256","name":"numToken","type":"uint256"},{"internalType":"address","name":"authorAddress","type":"address"}],"stateMutability":"view","type":"function"},{"inputs":[{"internalType":"uint256","name":"_bookIndex","type":"uint256"}],"name":"getBookInformation","outputs":[{"internalType":"string","name":"","type":"string"},{"internalType":"string","name":"","type":"string"},{"internalType":"uint256","name":"","type":"uint256"},{"internalType":"uint256","name":"","type":"uint256"},{"internalType":"address","name":"","type":"address"}],"stateMutability":"view","type":"function"},{"inputs":[{"internalType":"uint256","name":"_bookIndex","type":"uint256"}],"name":"getBookPrice","outputs":[{"internalType":"uint256","name":"","type":"uint256"}],"stateMutability":"view","type":"function"},{"inputs":[{"internalType":"string","name":"_bookId","type":"string"}],"name":"getIsStoredBook","outputs":[{"internalType":"bool","name":"","type":"bool"}],"stateMutability":"view","type":"function"},{"inputs":[{"internalType":"string","name":"","type":"string"}],"name":"isStoredBook","outputs":[{"internalType":"bool","name":"","type":"bool"}],"stateMutability":"view","type":"function"},{"inputs":[{"internalType":"uint256","name":"_bookIndex","type":"uint256"},{"internalType":"string","name":"_bookid","type":"string"},{"internalType":"string","name":"_title","type":"string"},{"internalType":"uint256","name":"_price","type":"uint256"},{"internalType":"address","name":"_authorAddress","type":"address"}],"name":"modifyBook","outputs":[],"stateMutability":"nonpayable","type":"function"},{"inputs":[],"name":"numBook","outputs":[{"internalType":"uint256","name":"","type":"uint256"}],"stateMutability":"view","type":"function"},{"inputs":[],"name":"owner","outputs":[{"internalType":"address","name":"","type":"address"}],"stateMutability":"view","type":"function"},{"inputs":[{"internalType":"uint256","name":"_bookIndex","type":"uint256"}],"name":"tokenCreated","outputs":[],"stateMutability":"nonpayable","type":"function"}],"devdoc":{"kind":"dev","methods":{},"version":1},"evm":{"assembly":"    /* \"devs/BookManager.sol\":706:3015   */\n  mstore(0x40, 0x80)\n    /* \"devs/BookManager.sol\":1081:1192   */\n  callvalue\n  dup1\n  iszero\n  tag_1\n  jumpi\n  0x00\n  dup1\n  revert\ntag_1:\n  pop\n  mload(0x40)\n  sub(codesize, bytecodeSize)\n  dup1\n  bytecodeSize\n  dup4\n  codecopy\n  dup2\n  dup2\n  add\n  0x40\n  mstore\n  dup2\n  add\n  swap1\n  tag_2\n  swap2\n  swap1\n  tag_3\n  jump\t// in\ntag_2:\n    /* \"devs/BookManager.sol\":1134:1147   */\n  dup1\n    /* \"devs/BookManager.sol\":1126:1131   */\n  0x00\n  dup1\n    /* \"devs/BookManager.sol\":1126:1147   */\n  0x0100\n  exp\n  dup2\n  sload\n  dup2\n  0xffffffffffffffffffffffffffffffffffffffff\n  mul\n  not\n  and\n  swap1\n  dup4\n  0xffffffffffffffffffffffffffffffffffffffff\n  and\n  mul\n  or\n  swap1\n  sstore\n  pop\n    /* \"devs/BookManager.sol\":1175:1185   */\n  caller\n    /* \"devs/BookManager.sol\":1157:1172   */\n  0x01\n  0x00\n    /* \"devs/BookManager.sol\":1157:1185   */\n  0x0100\n  exp\n  dup2\n  sload\n  dup2\n  0xffffffffffffffffffffffffffffffffffffffff\n  mul\n  not\n  and\n  swap1\n  dup4\n  0xffffffffffffffffffffffffffffffffffffffff\n  and\n  mul\n  or\n  swap1\n  sstore\n  pop\n    /* \"devs/BookManager.sol\":1081:1192   */\n  pop\n    /* \"devs/BookManager.sol\":706:3015   */\n  jump(tag_6)\n    /* \"#utility.yul\":88:205   */\ntag_8:\n    /* \"#utility.yul\":197:198   */\n  0x00\n    /* \"#utility.yul\":194:195   */\n  dup1\n    /* \"#utility.yul\":187:199   */\n  revert\n    /* \"#utility.yul\":334:460   */\ntag_10:\n    /* \"#utility.yul\":371:378   */\n  0x00\n    /* \"#utility.yul\":411:453   */\n  0xffffffffffffffffffffffffffffffffffffffff\n    /* \"#utility.yul\":404:409   */\n  dup3\n    /* \"#utility.yul\":400:454   */\n  and\n    /* \"#utility.yul\":389:454   */\n  swap1\n  pop\n    /* \"#utility.yul\":334:460   */\n  swap2\n  swap1\n  pop\n  jump\t// out\n    /* \"#utility.yul\":466:562   */\ntag_11:\n    /* \"#utility.yul\":503:510   */\n  0x00\n    /* \"#utility.yul\":532:556   */\n  tag_20\n    /* \"#utility.yul\":550:555   */\n  dup3\n    /* \"#utility.yul\":532:556   */\n  tag_10\n  jump\t// in\ntag_20:\n    /* \"#utility.yul\":521:556   */\n  swap1\n  pop\n    /* \"#utility.yul\":466:562   */\n  swap2\n  swap1\n  pop\n  jump\t// out\n    /* \"#utility.yul\":568:690   */\ntag_12:\n    /* \"#utility.yul\":641:665   */\n  tag_22\n    /* \"#utility.yul\":659:664   */\n  dup2\n    /* \"#utility.yul\":641:665   */\n  tag_11\n  jump\t// in\ntag_22:\n    /* \"#utility.yul\":634:639   */\n  dup2\n    /* \"#utility.yul\":631:666   */\n  eq\n    /* \"#utility.yul\":621:684   */\n  tag_23\n  jumpi\n    /* \"#utility.yul\":680:681   */\n  0x00\n    /* \"#utility.yul\":677:678   */\n  dup1\n    /* \"#utility.yul\":670:682   */\n  revert\n    /* \"#utility.yul\":621:684   */\ntag_23:\n    /* \"#utility.yul\":568:690   */\n  pop\n  jump\t// out\n    /* \"#utility.yul\":696:839   */\ntag_13:\n    /* \"#utility.yul\":753:758   */\n  0x00\n    /* \"#utility.yul\":784:790   */\n  dup2\n    /* \"#utility.yul\":778:791   */\n  mload\n    /* \"#utility.yul\":769:791   */\n  swap1\n  pop\n    /* \"#utility.yul\":800:833   */\n  tag_25\n    /* \"#utility.yul\":827:832   */\n  dup2\n    /* \"#utility.yul\":800:833   */\n  tag_12\n  jump\t// in\ntag_25:\n    /* \"#utility.yul\":696:839   */\n  swap3\n  swap2\n  pop\n  pop\n  jump\t// out\n    /* \"#utility.yul\":845:1196   */\ntag_3:\n    /* \"#utility.yul\":915:921   */\n  0x00\n    /* \"#utility.yul\":964:966   */\n  0x20\n    /* \"#utility.yul\":952:961   */\n  dup3\n    /* \"#utility.yul\":943:950   */\n  dup5\n    /* \"#utility.yul\":939:962   */\n  sub\n    /* \"#utility.yul\":935:967   */\n  slt\n    /* \"#utility.yul\":932:1051   */\n  iszero\n  tag_27\n  jumpi\n    /* \"#utility.yul\":970:1049   */\n  tag_28\n  tag_8\n  jump\t// in\ntag_28:\n    /* \"#utility.yul\":932:1051   */\ntag_27:\n    /* \"#utility.yul\":1090:1091   */\n  0x00\n    /* \"#utility.yul\":1115:1179   */\n  tag_29\n    /* \"#utility.yul\":1171:1178   */\n  dup5\n    /* \"#utility.yul\":1162:1168   */\n  dup3\n    /* \"#utility.yul\":1151:1160   */\n  dup6\n    /* \"#utility.yul\":1147:1169   */\n  add\n    /* \"#utility.yul\":1115:1179   */\n  tag_13\n  jump\t// in\ntag_29:\n    /* \"#utility.yul\":1105:1179   */\n  swap2\n  pop\n    /* \"#utility.yul\":1061:1189   */\n  pop\n    /* \"#utility.yul\":845:1196   */\n  swap3\n  swap2\n  pop\n  pop\n  jump\t// out\n    /* \"devs/BookManager.sol\":706:3015   */\ntag_6:\n  dataSize(sub_0)\n  dup1\n  dataOffset(sub_0)\n  0x00\n  codecopy\n  0x00\n  return\nstop\n\nsub_0: assembly {\n        /* \"devs/BookManager.sol\":706:3015   */\n      mstore(0x40, 0x80)\n      callvalue\n      dup1\n      iszero\n      tag_1\n      jumpi\n      0x00\n      dup1\n      revert\n    tag_1:\n      pop\n      jumpi(tag_2, lt(calldatasize, 0x04))\n      shr(0xe0, calldataload(0x00))\n      dup1\n      0x98fbce79\n      gt\n      tag_13\n      jumpi\n      dup1\n      0x98fbce79\n      eq\n      tag_8\n      jumpi\n      dup1\n      0xd2c07e20\n      eq\n      tag_9\n      jumpi\n      dup1\n      0xd9ff0cf1\n      eq\n      tag_10\n      jumpi\n      dup1\n      0xe71448a9\n      eq\n      tag_11\n      jumpi\n      dup1\n      0xf76ebe1c\n      eq\n      tag_12\n      jumpi\n      jump(tag_2)\n    tag_13:\n      dup1\n      0x0a6b2a25\n      eq\n      tag_3\n      jumpi\n      dup1\n      0x1cb71ed5\n      eq\n      tag_4\n      jumpi\n      dup1\n      0x687564ae\n      eq\n      tag_5\n      jumpi\n      dup1\n      0x6c230eef\n      eq\n      tag_6\n      jumpi\n      dup1\n      0x8da5cb5b\n      eq\n      tag_7\n      jumpi\n    tag_2:\n      0x00\n      dup1\n      revert\n        /* \"devs/BookManager.sol\":2842:3013   */\n    tag_3:\n      tag_14\n      0x04\n      dup1\n      calldatasize\n      sub\n      dup2\n      add\n      swap1\n      tag_15\n      swap2\n      swap1\n      tag_16\n      jump\t// in\n    tag_15:\n      tag_17\n      jump\t// in\n    tag_14:\n      stop\n        /* \"devs/BookManager.sol\":938:981   */\n    tag_4:\n      tag_18\n      0x04\n      dup1\n      calldatasize\n      sub\n      dup2\n      add\n      swap1\n      tag_19\n      swap2\n      swap1\n      tag_20\n      jump\t// in\n    tag_19:\n      tag_21\n      jump\t// in\n    tag_18:\n      mload(0x40)\n      tag_22\n      swap2\n      swap1\n      tag_23\n      jump\t// in\n    tag_22:\n      mload(0x40)\n      dup1\n      swap2\n      sub\n      swap1\n      return\n        /* \"devs/BookManager.sol\":1198:1600   */\n    tag_5:\n      tag_24\n      0x04\n      dup1\n      calldatasize\n      sub\n      dup2\n      add\n      swap1\n      tag_25\n      swap2\n      swap1\n      tag_26\n      jump\t// in\n    tag_25:\n      tag_27\n      jump\t// in\n    tag_24:\n      stop\n        /* \"devs/BookManager.sol\":2056:2246   */\n    tag_6:\n      tag_28\n      0x04\n      dup1\n      calldatasize\n      sub\n      dup2\n      add\n      swap1\n      tag_29\n      swap2\n      swap1\n      tag_16\n      jump\t// in\n    tag_29:\n      tag_30\n      jump\t// in\n    tag_28:\n      mload(0x40)\n      tag_31\n      swap2\n      swap1\n      tag_32\n      jump\t// in\n    tag_31:\n      mload(0x40)\n      dup1\n      swap2\n      sub\n      swap1\n      return\n        /* \"devs/BookManager.sol\":757:777   */\n    tag_7:\n      tag_33\n      tag_34\n      jump\t// in\n    tag_33:\n      mload(0x40)\n      tag_35\n      swap2\n      swap1\n      tag_36\n      jump\t// in\n    tag_35:\n      mload(0x40)\n      dup1\n      swap2\n      sub\n      swap1\n      return\n        /* \"devs/BookManager.sol\":2252:2710   */\n    tag_8:\n      tag_37\n      0x04\n      dup1\n      calldatasize\n      sub\n      dup2\n      add\n      swap1\n      tag_38\n      swap2\n      swap1\n      tag_16\n      jump\t// in\n    tag_38:\n      tag_39\n      jump\t// in\n    tag_37:\n      mload(0x40)\n      tag_40\n      swap6\n      swap5\n      swap4\n      swap3\n      swap2\n      swap1\n      tag_41\n      jump\t// in\n    tag_40:\n      mload(0x40)\n      dup1\n      swap2\n      sub\n      swap1\n      return\n        /* \"devs/BookManager.sol\":1606:2024   */\n    tag_9:\n      tag_42\n      0x04\n      dup1\n      calldatasize\n      sub\n      dup2\n      add\n      swap1\n      tag_43\n      swap2\n      swap1\n      tag_44\n      jump\t// in\n    tag_43:\n      tag_45\n      jump\t// in\n    tag_42:\n      stop\n        /* \"devs/BookManager.sol\":846:902   */\n    tag_10:\n      tag_46\n      0x04\n      dup1\n      calldatasize\n      sub\n      dup2\n      add\n      swap1\n      tag_47\n      swap2\n      swap1\n      tag_16\n      jump\t// in\n    tag_47:\n      tag_48\n      jump\t// in\n    tag_46:\n      mload(0x40)\n      tag_49\n      swap6\n      swap5\n      swap4\n      swap3\n      swap2\n      swap1\n      tag_41\n      jump\t// in\n    tag_49:\n      mload(0x40)\n      dup1\n      swap2\n      sub\n      swap1\n      return\n        /* \"devs/BookManager.sol\":2716:2836   */\n    tag_11:\n      tag_50\n      0x04\n      dup1\n      calldatasize\n      sub\n      dup2\n      add\n      swap1\n      tag_51\n      swap2\n      swap1\n      tag_20\n      jump\t// in\n    tag_51:\n      tag_52\n      jump\t// in\n    tag_50:\n      mload(0x40)\n      tag_53\n      swap2\n      swap1\n      tag_23\n      jump\t// in\n    tag_53:\n      mload(0x40)\n      dup1\n      swap2\n      sub\n      swap1\n      return\n        /* \"devs/BookManager.sol\":821:840   */\n    tag_12:\n      tag_54\n      tag_55\n      jump\t// in\n    tag_54:\n      mload(0x40)\n      tag_56\n      swap2\n      swap1\n      tag_32\n      jump\t// in\n    tag_56:\n      mload(0x40)\n      dup1\n      swap2\n      sub\n      swap1\n      return\n        /* \"devs/BookManager.sol\":2842:3013   */\n    tag_17:\n        /* \"devs/BookManager.sol\":2900:2939   */\n      0x00\n        /* \"devs/BookManager.sol\":2942:2958   */\n      0x03\n        /* \"devs/BookManager.sol\":2942:2970   */\n      0x00\n        /* \"devs/BookManager.sol\":2959:2969   */\n      dup4\n        /* \"devs/BookManager.sol\":2942:2970   */\n      dup2\n      mstore\n      0x20\n      add\n      swap1\n      dup2\n      mstore\n      0x20\n      add\n      0x00\n      keccak256\n        /* \"devs/BookManager.sol\":2900:2970   */\n      swap1\n      pop\n        /* \"devs/BookManager.sol\":2980:2995   */\n      dup1\n        /* \"devs/BookManager.sol\":2980:3004   */\n      0x03\n      add\n      0x00\n        /* \"devs/BookManager.sol\":2980:3006   */\n      dup2\n      sload\n      dup1\n      swap3\n      swap2\n      swap1\n      tag_58\n      swap1\n      tag_59\n      jump\t// in\n    tag_58:\n      swap2\n      swap1\n      pop\n      sstore\n      pop\n        /* \"devs/BookManager.sol\":2890:3013   */\n      pop\n        /* \"devs/BookManager.sol\":2842:3013   */\n      pop\n      jump\t// out\n        /* \"devs/BookManager.sol\":938:981   */\n    tag_21:\n      0x04\n      dup2\n      dup1\n      mload\n      0x20\n      dup2\n      add\n      dup3\n      add\n      dup1\n      mload\n      dup5\n      dup3\n      mstore\n      0x20\n      dup4\n      add\n      0x20\n      dup6\n      add\n      keccak256\n      dup2\n      dup4\n      mstore\n      dup1\n      swap6\n      pop\n      pop\n      pop\n      pop\n      pop\n      pop\n      0x00\n      swap2\n      pop\n      sload\n      swap1\n      0x0100\n      exp\n      swap1\n      div\n      0xff\n      and\n      dup2\n      jump\t// out\n        /* \"devs/BookManager.sol\":1198:1600   */\n    tag_27:\n        /* \"devs/BookManager.sol\":1046:1056   */\n      caller\n        /* \"devs/BookManager.sol\":1027:1056   */\n      0xffffffffffffffffffffffffffffffffffffffff\n      and\n        /* \"devs/BookManager.sol\":1027:1042   */\n      0x01\n      0x00\n      swap1\n      sload\n      swap1\n      0x0100\n      exp\n      swap1\n      div\n      0xffffffffffffffffffffffffffffffffffffffff\n      and\n        /* \"devs/BookManager.sol\":1027:1056   */\n      0xffffffffffffffffffffffffffffffffffffffff\n      and\n      eq\n        /* \"devs/BookManager.sol\":1019:1057   */\n      tag_61\n      jumpi\n      0x00\n      dup1\n      revert\n    tag_61:\n        /* \"devs/BookManager.sol\":1335:1363   */\n      0x00\n        /* \"devs/BookManager.sol\":1366:1382   */\n      0x03\n        /* \"devs/BookManager.sol\":1366:1393   */\n      0x00\n        /* \"devs/BookManager.sol\":1383:1390   */\n      0x02\n      0x00\n        /* \"devs/BookManager.sol\":1383:1392   */\n      dup2\n      sload\n      dup1\n      swap3\n      swap2\n      swap1\n      tag_63\n      swap1\n      tag_59\n      jump\t// in\n    tag_63:\n      swap2\n      swap1\n      pop\n      sstore\n        /* \"devs/BookManager.sol\":1366:1393   */\n      dup2\n      mstore\n      0x20\n      add\n      swap1\n      dup2\n      mstore\n      0x20\n      add\n      0x00\n      keccak256\n        /* \"devs/BookManager.sol\":1335:1393   */\n      swap1\n      pop\n        /* \"devs/BookManager.sol\":1417:1424   */\n      dup5\n        /* \"devs/BookManager.sol\":1403:1407   */\n      dup2\n        /* \"devs/BookManager.sol\":1403:1414   */\n      0x00\n      add\n        /* \"devs/BookManager.sol\":1403:1424   */\n      swap1\n      dup1\n      mload\n      swap1\n      0x20\n      add\n      swap1\n      tag_64\n      swap3\n      swap2\n      swap1\n      tag_65\n      jump\t// in\n    tag_64:\n      pop\n        /* \"devs/BookManager.sol\":1447:1453   */\n      dup4\n        /* \"devs/BookManager.sol\":1434:1438   */\n      dup2\n        /* \"devs/BookManager.sol\":1434:1444   */\n      0x01\n      add\n        /* \"devs/BookManager.sol\":1434:1453   */\n      swap1\n      dup1\n      mload\n      swap1\n      0x20\n      add\n      swap1\n      tag_66\n      swap3\n      swap2\n      swap1\n      tag_65\n      jump\t// in\n    tag_66:\n      pop\n        /* \"devs/BookManager.sol\":1476:1482   */\n      dup3\n        /* \"devs/BookManager.sol\":1463:1467   */\n      dup2\n        /* \"devs/BookManager.sol\":1463:1473   */\n      0x02\n      add\n        /* \"devs/BookManager.sol\":1463:1482   */\n      dup2\n      swap1\n      sstore\n      pop\n        /* \"devs/BookManager.sol\":1508:1509   */\n      0x00\n        /* \"devs/BookManager.sol\":1492:1496   */\n      dup2\n        /* \"devs/BookManager.sol\":1492:1505   */\n      0x03\n      add\n        /* \"devs/BookManager.sol\":1492:1509   */\n      dup2\n      swap1\n      sstore\n      pop\n        /* \"devs/BookManager.sol\":1540:1554   */\n      dup2\n        /* \"devs/BookManager.sol\":1519:1523   */\n      dup2\n        /* \"devs/BookManager.sol\":1519:1537   */\n      0x04\n      add\n      0x00\n        /* \"devs/BookManager.sol\":1519:1554   */\n      0x0100\n      exp\n      dup2\n      sload\n      dup2\n      0xffffffffffffffffffffffffffffffffffffffff\n      mul\n      not\n      and\n      swap1\n      dup4\n      0xffffffffffffffffffffffffffffffffffffffff\n      and\n      mul\n      or\n      swap1\n      sstore\n      pop\n        /* \"devs/BookManager.sol\":1589:1593   */\n      0x01\n        /* \"devs/BookManager.sol\":1565:1577   */\n      0x04\n        /* \"devs/BookManager.sol\":1578:1585   */\n      dup7\n        /* \"devs/BookManager.sol\":1565:1586   */\n      mload(0x40)\n      tag_67\n      swap2\n      swap1\n      tag_68\n      jump\t// in\n    tag_67:\n      swap1\n      dup2\n      mstore\n      0x20\n      add\n      mload(0x40)\n      dup1\n      swap2\n      sub\n      swap1\n      keccak256\n      0x00\n        /* \"devs/BookManager.sol\":1565:1593   */\n      0x0100\n      exp\n      dup2\n      sload\n      dup2\n      0xff\n      mul\n      not\n      and\n      swap1\n      dup4\n      iszero\n      iszero\n      mul\n      or\n      swap1\n      sstore\n      pop\n        /* \"devs/BookManager.sol\":1325:1600   */\n      pop\n        /* \"devs/BookManager.sol\":1198:1600   */\n      pop\n      pop\n      pop\n      pop\n      jump\t// out\n        /* \"devs/BookManager.sol\":2056:2246   */\n    tag_30:\n        /* \"devs/BookManager.sol\":2117:2121   */\n      0x00\n        /* \"devs/BookManager.sol\":2132:2170   */\n      dup1\n        /* \"devs/BookManager.sol\":2173:2189   */\n      0x03\n        /* \"devs/BookManager.sol\":2173:2201   */\n      0x00\n        /* \"devs/BookManager.sol\":2190:2200   */\n      dup5\n        /* \"devs/BookManager.sol\":2173:2201   */\n      dup2\n      mstore\n      0x20\n      add\n      swap1\n      dup2\n      mstore\n      0x20\n      add\n      0x00\n      keccak256\n        /* \"devs/BookManager.sol\":2132:2201   */\n      mload(0x40)\n      dup1\n      0xa0\n      add\n      0x40\n      mstore\n      swap1\n      dup2\n      0x00\n      dup3\n      add\n      dup1\n      sload\n      tag_70\n      swap1\n      tag_71\n      jump\t// in\n    tag_70:\n      dup1\n      0x1f\n      add\n      0x20\n      dup1\n      swap2\n      div\n      mul\n      0x20\n      add\n      mload(0x40)\n      swap1\n      dup2\n      add\n      0x40\n      mstore\n      dup1\n      swap3\n      swap2\n      swap1\n      dup2\n      dup2\n      mstore\n      0x20\n      add\n      dup3\n      dup1\n      sload\n      tag_72\n      swap1\n      tag_71\n      jump\t// in\n    tag_72:\n      dup1\n      iszero\n      tag_73\n      jumpi\n      dup1\n      0x1f\n      lt\n      tag_74\n      jumpi\n      0x0100\n      dup1\n      dup4\n      sload\n      div\n      mul\n      dup4\n      mstore\n      swap2\n      0x20\n      add\n      swap2\n      jump(tag_73)\n    tag_74:\n      dup3\n      add\n      swap2\n      swap1\n      0x00\n      mstore\n      keccak256(0x00, 0x20)\n      swap1\n    tag_75:\n      dup2\n      sload\n      dup2\n      mstore\n      swap1\n      0x01\n      add\n      swap1\n      0x20\n      add\n      dup1\n      dup4\n      gt\n      tag_75\n      jumpi\n      dup3\n      swap1\n      sub\n      0x1f\n      and\n      dup3\n      add\n      swap2\n    tag_73:\n      pop\n      pop\n      pop\n      pop\n      pop\n      dup2\n      mstore\n      0x20\n      add\n      0x01\n      dup3\n      add\n      dup1\n      sload\n      tag_76\n      swap1\n      tag_71\n      jump\t// in\n    tag_76:\n      dup1\n      0x1f\n      add\n      0x20\n      dup1\n      swap2\n      div\n      mul\n      0x20\n      add\n      mload(0x40)\n      swap1\n      dup2\n      add\n      0x40\n      mstore\n      dup1\n      swap3\n      swap2\n      swap1\n      dup2\n      dup2\n      mstore\n      0x20\n      add\n      dup3\n      dup1\n      sload\n      tag_77\n      swap1\n      tag_71\n      jump\t// in\n    tag_77:\n      dup1\n      iszero\n      tag_78\n      jumpi\n      dup1\n      0x1f\n      lt\n      tag_79\n      jumpi\n      0x0100\n      dup1\n      dup4\n      sload\n      div\n      mul\n      dup4\n      mstore\n      swap2\n      0x20\n      add\n      swap2\n      jump(tag_78)\n    tag_79:\n      dup3\n      add\n      swap2\n      swap1\n      0x00\n      mstore\n      keccak256(0x00, 0x20)\n      swap1\n    tag_80:\n      dup2\n      sload\n      dup2\n      mstore\n      swap1\n      0x01\n      add\n      swap1\n      0x20\n      add\n      dup1\n      dup4\n      gt\n      tag_80\n      jumpi\n      dup3\n      swap1\n      sub\n      0x1f\n      and\n      dup3\n      add\n      swap2\n    tag_78:\n      pop\n      pop\n      pop\n      pop\n      pop\n      dup2\n      mstore\n      0x20\n      add\n      0x02\n      dup3\n      add\n      sload\n      dup2\n      mstore\n      0x20\n      add\n      0x03\n      dup3\n      add\n      sload\n      dup2\n      mstore\n      0x20\n      add\n      0x04\n      dup3\n      add\n      0x00\n      swap1\n      sload\n      swap1\n      0x0100\n      exp\n      swap1\n      div\n      0xffffffffffffffffffffffffffffffffffffffff\n      and\n      0xffffffffffffffffffffffffffffffffffffffff\n      and\n      0xffffffffffffffffffffffffffffffffffffffff\n      and\n      dup2\n      mstore\n      pop\n      pop\n      swap1\n      pop\n        /* \"devs/BookManager.sol\":2218:2233   */\n      dup1\n        /* \"devs/BookManager.sol\":2218:2239   */\n      0x40\n      add\n      mload\n        /* \"devs/BookManager.sol\":2211:2239   */\n      swap2\n      pop\n      pop\n        /* \"devs/BookManager.sol\":2056:2246   */\n      swap2\n      swap1\n      pop\n      jump\t// out\n        /* \"devs/BookManager.sol\":757:777   */\n    tag_34:\n      0x00\n      dup1\n      sload\n      swap1\n      0x0100\n      exp\n      swap1\n      div\n      0xffffffffffffffffffffffffffffffffffffffff\n      and\n      dup2\n      jump\t// out\n        /* \"devs/BookManager.sol\":2252:2710   */\n    tag_39:\n        /* \"devs/BookManager.sol\":2328:2341   */\n      0x60\n        /* \"devs/BookManager.sol\":2343:2356   */\n      dup1\n        /* \"devs/BookManager.sol\":2358:2362   */\n      0x00\n        /* \"devs/BookManager.sol\":2364:2368   */\n      dup1\n        /* \"devs/BookManager.sol\":2370:2377   */\n      0x00\n        /* \"devs/BookManager.sol\":2392:2430   */\n      dup1\n        /* \"devs/BookManager.sol\":2433:2449   */\n      0x03\n        /* \"devs/BookManager.sol\":2433:2461   */\n      0x00\n        /* \"devs/BookManager.sol\":2450:2460   */\n      dup9\n        /* \"devs/BookManager.sol\":2433:2461   */\n      dup2\n      mstore\n      0x20\n      add\n      swap1\n      dup2\n      mstore\n      0x20\n      add\n      0x00\n      keccak256\n        /* \"devs/BookManager.sol\":2392:2461   */\n      mload(0x40)\n      dup1\n      0xa0\n      add\n      0x40\n      mstore\n      swap1\n      dup2\n      0x00\n      dup3\n      add\n      dup1\n      sload\n      tag_82\n      swap1\n      tag_71\n      jump\t// in\n    tag_82:\n      dup1\n      0x1f\n      add\n      0x20\n      dup1\n      swap2\n      div\n      mul\n      0x20\n      add\n      mload(0x40)\n      swap1\n      dup2\n      add\n      0x40\n      mstore\n      dup1\n      swap3\n      swap2\n      swap1\n      dup2\n      dup2\n      mstore\n      0x20\n      add\n      dup3\n      dup1\n      sload\n      tag_83\n      swap1\n      tag_71\n      jump\t// in\n    tag_83:\n      dup1\n      iszero\n      tag_84\n      jumpi\n      dup1\n      0x1f\n      lt\n      tag_85\n      jumpi\n      0x0100\n      dup1\n      dup4\n      sload\n      div\n      mul\n      dup4\n      mstore\n      swap2\n      0x20\n      add\n      swap2\n      jump(tag_84)\n    tag_85:\n      dup3\n      add\n      swap2\n      swap1\n      0x00\n      mstore\n      keccak256(0x00, 0x20)\n      swap1\n    tag_86:\n      dup2\n      sload\n      dup2\n      mstore\n      swap1\n      0x01\n      add\n      swap1\n      0x20\n      add\n      dup1\n      dup4\n      gt\n      tag_86\n      jumpi\n      dup3\n      swap1\n      sub\n      0x1f\n      and\n      dup3\n      add\n      swap2\n    tag_84:\n      pop\n      pop\n      pop\n      pop\n      pop\n      dup2\n      mstore\n      0x20\n      add\n      0x01\n      dup3\n      add\n      dup1\n      sload\n      tag_87\n      swap1\n      tag_71\n      jump\t// in\n    tag_87:\n      dup1\n      0x1f\n      add\n      0x20\n      dup1\n      swap2\n      div\n      mul\n      0x20\n      add\n      mload(0x40)\n      swap1\n      dup2\n      add\n      0x40\n      mstore\n      dup1\n      swap3\n      swap2\n      swap1\n      dup2\n      dup2\n      mstore\n      0x20\n      add\n      dup3\n      dup1\n      sload\n      tag_88\n      swap1\n      tag_71\n      jump\t// in\n    tag_88:\n      dup1\n      iszero\n      tag_89\n      jumpi\n      dup1\n      0x1f\n      lt\n      tag_90\n      jumpi\n      0x0100\n      dup1\n      dup4\n      sload\n      div\n      mul\n      dup4\n      mstore\n      swap2\n      0x20\n      add\n      swap2\n      jump(tag_89)\n    tag_90:\n      dup3\n      add\n      swap2\n      swap1\n      0x00\n      mstore\n      keccak256(0x00, 0x20)\n      swap1\n    tag_91:\n      dup2\n      sload\n      dup2\n      mstore\n      swap1\n      0x01\n      add\n      swap1\n      0x20\n      add\n      dup1\n      dup4\n      gt\n      tag_91\n      jumpi\n      dup3\n      swap1\n      sub\n      0x1f\n      and\n      dup3\n      add\n      swap2\n    tag_89:\n      pop\n      pop\n      pop\n      pop\n      pop\n      dup2\n      mstore\n      0x20\n      add\n      0x02\n      dup3\n      add\n      sload\n      dup2\n      mstore\n      0x20\n      add\n      0x03\n      dup3\n      add\n      sload\n      dup2\n      mstore\n      0x20\n      add\n      0x04\n      dup3\n      add\n      0x00\n      swap1\n      sload\n      swap1\n      0x0100\n      exp\n      swap1\n      div\n      0xffffffffffffffffffffffffffffffffffffffff\n      and\n      0xffffffffffffffffffffffffffffffffffffffff\n      and\n      0xffffffffffffffffffffffffffffffffffffffff\n      and\n      dup2\n      mstore\n      pop\n      pop\n      swap1\n      pop\n        /* \"devs/BookManager.sol\":2500:2515   */\n      dup1\n        /* \"devs/BookManager.sol\":2500:2522   */\n      0x00\n      add\n      mload\n        /* \"devs/BookManager.sol\":2540:2555   */\n      dup2\n        /* \"devs/BookManager.sol\":2540:2561   */\n      0x20\n      add\n      mload\n        /* \"devs/BookManager.sol\":2579:2594   */\n      dup3\n        /* \"devs/BookManager.sol\":2579:2600   */\n      0x40\n      add\n      mload\n        /* \"devs/BookManager.sol\":2618:2633   */\n      dup4\n        /* \"devs/BookManager.sol\":2618:2642   */\n      0x60\n      add\n      mload\n        /* \"devs/BookManager.sol\":2660:2675   */\n      dup5\n        /* \"devs/BookManager.sol\":2660:2689   */\n      0x80\n      add\n      mload\n        /* \"devs/BookManager.sol\":2475:2703   */\n      swap6\n      pop\n      swap6\n      pop\n      swap6\n      pop\n      swap6\n      pop\n      swap6\n      pop\n      pop\n        /* \"devs/BookManager.sol\":2252:2710   */\n      swap2\n      swap4\n      swap6\n      swap1\n      swap3\n      swap5\n      pop\n      jump\t// out\n        /* \"devs/BookManager.sol\":1606:2024   */\n    tag_45:\n        /* \"devs/BookManager.sol\":1046:1056   */\n      caller\n        /* \"devs/BookManager.sol\":1027:1056   */\n      0xffffffffffffffffffffffffffffffffffffffff\n      and\n        /* \"devs/BookManager.sol\":1027:1042   */\n      0x01\n      0x00\n      swap1\n      sload\n      swap1\n      0x0100\n      exp\n      swap1\n      div\n      0xffffffffffffffffffffffffffffffffffffffff\n      and\n        /* \"devs/BookManager.sol\":1027:1056   */\n      0xffffffffffffffffffffffffffffffffffffffff\n      and\n      eq\n        /* \"devs/BookManager.sol\":1019:1057   */\n      tag_93\n      jumpi\n      0x00\n      dup1\n      revert\n    tag_93:\n        /* \"devs/BookManager.sol\":1797:1825   */\n      0x00\n        /* \"devs/BookManager.sol\":1828:1844   */\n      0x03\n        /* \"devs/BookManager.sol\":1828:1856   */\n      0x00\n        /* \"devs/BookManager.sol\":1845:1855   */\n      dup8\n        /* \"devs/BookManager.sol\":1828:1856   */\n      dup2\n      mstore\n      0x20\n      add\n      swap1\n      dup2\n      mstore\n      0x20\n      add\n      0x00\n      keccak256\n        /* \"devs/BookManager.sol\":1797:1856   */\n      swap1\n      pop\n        /* \"devs/BookManager.sol\":1880:1887   */\n      dup5\n        /* \"devs/BookManager.sol\":1866:1870   */\n      dup2\n        /* \"devs/BookManager.sol\":1866:1877   */\n      0x00\n      add\n        /* \"devs/BookManager.sol\":1866:1887   */\n      swap1\n      dup1\n      mload\n      swap1\n      0x20\n      add\n      swap1\n      tag_95\n      swap3\n      swap2\n      swap1\n      tag_65\n      jump\t// in\n    tag_95:\n      pop\n        /* \"devs/BookManager.sol\":1910:1916   */\n      dup4\n        /* \"devs/BookManager.sol\":1897:1901   */\n      dup2\n        /* \"devs/BookManager.sol\":1897:1907   */\n      0x01\n      add\n        /* \"devs/BookManager.sol\":1897:1916   */\n      swap1\n      dup1\n      mload\n      swap1\n      0x20\n      add\n      swap1\n      tag_96\n      swap3\n      swap2\n      swap1\n      tag_65\n      jump\t// in\n    tag_96:\n      pop\n        /* \"devs/BookManager.sol\":1939:1945   */\n      dup3\n        /* \"devs/BookManager.sol\":1926:1930   */\n      dup2\n        /* \"devs/BookManager.sol\":1926:1936   */\n      0x02\n      add\n        /* \"devs/BookManager.sol\":1926:1945   */\n      dup2\n      swap1\n      sstore\n      pop\n        /* \"devs/BookManager.sol\":1971:1972   */\n      0x00\n        /* \"devs/BookManager.sol\":1955:1959   */\n      dup2\n        /* \"devs/BookManager.sol\":1955:1968   */\n      0x03\n      add\n        /* \"devs/BookManager.sol\":1955:1972   */\n      dup2\n      swap1\n      sstore\n      pop\n        /* \"devs/BookManager.sol\":2003:2017   */\n      dup2\n        /* \"devs/BookManager.sol\":1982:1986   */\n      dup2\n        /* \"devs/BookManager.sol\":1982:2000   */\n      0x04\n      add\n      0x00\n        /* \"devs/BookManager.sol\":1982:2017   */\n      0x0100\n      exp\n      dup2\n      sload\n      dup2\n      0xffffffffffffffffffffffffffffffffffffffff\n      mul\n      not\n      and\n      swap1\n      dup4\n      0xffffffffffffffffffffffffffffffffffffffff\n      and\n      mul\n      or\n      swap1\n      sstore\n      pop\n        /* \"devs/BookManager.sol\":1752:2024   */\n      pop\n        /* \"devs/BookManager.sol\":1606:2024   */\n      pop\n      pop\n      pop\n      pop\n      pop\n      jump\t// out\n        /* \"devs/BookManager.sol\":846:902   */\n    tag_48:\n      mstore(0x20, 0x03)\n      dup1\n      0x00\n      mstore\n      keccak256(0x00, 0x40)\n      0x00\n      swap2\n      pop\n      swap1\n      pop\n      dup1\n      0x00\n      add\n      dup1\n      sload\n      tag_97\n      swap1\n      tag_71\n      jump\t// in\n    tag_97:\n      dup1\n      0x1f\n      add\n      0x20\n      dup1\n      swap2\n      div\n      mul\n      0x20\n      add\n      mload(0x40)\n      swap1\n      dup2\n      add\n      0x40\n      mstore\n      dup1\n      swap3\n      swap2\n      swap1\n      dup2\n      dup2\n      mstore\n      0x20\n      add\n      dup3\n      dup1\n      sload\n      tag_98\n      swap1\n      tag_71\n      jump\t// in\n    tag_98:\n      dup1\n      iszero\n      tag_99\n      jumpi\n      dup1\n      0x1f\n      lt\n      tag_100\n      jumpi\n      0x0100\n      dup1\n      dup4\n      sload\n      div\n      mul\n      dup4\n      mstore\n      swap2\n      0x20\n      add\n      swap2\n      jump(tag_99)\n    tag_100:\n      dup3\n      add\n      swap2\n      swap1\n      0x00\n      mstore\n      keccak256(0x00, 0x20)\n      swap1\n    tag_101:\n      dup2\n      sload\n      dup2\n      mstore\n      swap1\n      0x01\n      add\n      swap1\n      0x20\n      add\n      dup1\n      dup4\n      gt\n      tag_101\n      jumpi\n      dup3\n      swap1\n      sub\n      0x1f\n      and\n      dup3\n      add\n      swap2\n    tag_99:\n      pop\n      pop\n      pop\n      pop\n      pop\n      swap1\n      dup1\n      0x01\n      add\n      dup1\n      sload\n      tag_102\n      swap1\n      tag_71\n      jump\t// in\n    tag_102:\n      dup1\n      0x1f\n      add\n      0x20\n      dup1\n      swap2\n      div\n      mul\n      0x20\n      add\n      mload(0x40)\n      swap1\n      dup2\n      add\n      0x40\n      mstore\n      dup1\n      swap3\n      swap2\n      swap1\n      dup2\n      dup2\n      mstore\n      0x20\n      add\n      dup3\n      dup1\n      sload\n      tag_103\n      swap1\n      tag_71\n      jump\t// in\n    tag_103:\n      dup1\n      iszero\n      tag_104\n      jumpi\n      dup1\n      0x1f\n      lt\n      tag_105\n      jumpi\n      0x0100\n      dup1\n      dup4\n      sload\n      div\n      mul\n      dup4\n      mstore\n      swap2\n      0x20\n      add\n      swap2\n      jump(tag_104)\n    tag_105:\n      dup3\n      add\n      swap2\n      swap1\n      0x00\n      mstore\n      keccak256(0x00, 0x20)\n      swap1\n    tag_106:\n      dup2\n      sload\n      dup2\n      mstore\n      swap1\n      0x01\n      add\n      swap1\n      0x20\n      add\n      dup1\n      dup4\n      gt\n      tag_106\n      jumpi\n      dup3\n      swap1\n      sub\n      0x1f\n      and\n      dup3\n      add\n      swap2\n    tag_104:\n      pop\n      pop\n      pop\n      pop\n      pop\n      swap1\n      dup1\n      0x02\n      add\n      sload\n      swap1\n      dup1\n      0x03\n      add\n      sload\n      swap1\n      dup1\n      0x04\n      add\n      0x00\n      swap1\n      sload\n      swap1\n      0x0100\n      exp\n      swap1\n      div\n      0xffffffffffffffffffffffffffffffffffffffff\n      and\n      swap1\n      pop\n      dup6\n      jump\t// out\n        /* \"devs/BookManager.sol\":2716:2836   */\n    tag_52:\n        /* \"devs/BookManager.sol\":2786:2790   */\n      0x00\n        /* \"devs/BookManager.sol\":2808:2820   */\n      0x04\n        /* \"devs/BookManager.sol\":2821:2828   */\n      dup3\n        /* \"devs/BookManager.sol\":2808:2829   */\n      mload(0x40)\n      tag_108\n      swap2\n      swap1\n      tag_68\n      jump\t// in\n    tag_108:\n      swap1\n      dup2\n      mstore\n      0x20\n      add\n      mload(0x40)\n      dup1\n      swap2\n      sub\n      swap1\n      keccak256\n      0x00\n      swap1\n      sload\n      swap1\n      0x0100\n      exp\n      swap1\n      div\n      0xff\n      and\n        /* \"devs/BookManager.sol\":2801:2829   */\n      swap1\n      pop\n        /* \"devs/BookManager.sol\":2716:2836   */\n      swap2\n      swap1\n      pop\n      jump\t// out\n        /* \"devs/BookManager.sol\":821:840   */\n    tag_55:\n      sload(0x02)\n      dup2\n      jump\t// out\n    tag_65:\n      dup3\n      dup1\n      sload\n      tag_109\n      swap1\n      tag_71\n      jump\t// in\n    tag_109:\n      swap1\n      0x00\n      mstore\n      keccak256(0x00, 0x20)\n      swap1\n      0x1f\n      add\n      0x20\n      swap1\n      div\n      dup2\n      add\n      swap3\n      dup3\n      tag_111\n      jumpi\n      0x00\n      dup6\n      sstore\n      jump(tag_110)\n    tag_111:\n      dup3\n      0x1f\n      lt\n      tag_112\n      jumpi\n      dup1\n      mload\n      not(0xff)\n      and\n      dup4\n      dup1\n      add\n      or\n      dup6\n      sstore\n      jump(tag_110)\n    tag_112:\n      dup3\n      dup1\n      add\n      0x01\n      add\n      dup6\n      sstore\n      dup3\n      iszero\n      tag_110\n      jumpi\n      swap2\n      dup3\n      add\n    tag_113:\n      dup3\n      dup2\n      gt\n      iszero\n      tag_114\n      jumpi\n      dup3\n      mload\n      dup3\n      sstore\n      swap2\n      0x20\n      add\n      swap2\n      swap1\n      0x01\n      add\n      swap1\n      jump(tag_113)\n    tag_114:\n    tag_110:\n      pop\n      swap1\n      pop\n      tag_115\n      swap2\n      swap1\n      tag_116\n      jump\t// in\n    tag_115:\n      pop\n      swap1\n      jump\t// out\n    tag_116:\n    tag_117:\n      dup1\n      dup3\n      gt\n      iszero\n      tag_118\n      jumpi\n      0x00\n      dup2\n      0x00\n      swap1\n      sstore\n      pop\n      0x01\n      add\n      jump(tag_117)\n    tag_118:\n      pop\n      swap1\n      jump\t// out\n        /* \"#utility.yul\":7:82   */\n    tag_119:\n        /* \"#utility.yul\":40:46   */\n      0x00\n        /* \"#utility.yul\":73:75   */\n      0x40\n        /* \"#utility.yul\":67:76   */\n      mload\n        /* \"#utility.yul\":57:76   */\n      swap1\n      pop\n        /* \"#utility.yul\":7:82   */\n      swap1\n      jump\t// out\n        /* \"#utility.yul\":88:205   */\n    tag_120:\n        /* \"#utility.yul\":197:198   */\n      0x00\n        /* \"#utility.yul\":194:195   */\n      dup1\n        /* \"#utility.yul\":187:199   */\n      revert\n        /* \"#utility.yul\":211:328   */\n    tag_121:\n        /* \"#utility.yul\":320:321   */\n      0x00\n        /* \"#utility.yul\":317:318   */\n      dup1\n        /* \"#utility.yul\":310:322   */\n      revert\n        /* \"#utility.yul\":334:411   */\n    tag_122:\n        /* \"#utility.yul\":371:378   */\n      0x00\n        /* \"#utility.yul\":400:405   */\n      dup2\n        /* \"#utility.yul\":389:405   */\n      swap1\n      pop\n        /* \"#utility.yul\":334:411   */\n      swap2\n      swap1\n      pop\n      jump\t// out\n        /* \"#utility.yul\":417:539   */\n    tag_123:\n        /* \"#utility.yul\":490:514   */\n      tag_157\n        /* \"#utility.yul\":508:513   */\n      dup2\n        /* \"#utility.yul\":490:514   */\n      tag_122\n      jump\t// in\n    tag_157:\n        /* \"#utility.yul\":483:488   */\n      dup2\n        /* \"#utility.yul\":480:515   */\n      eq\n        /* \"#utility.yul\":470:533   */\n      tag_158\n      jumpi\n        /* \"#utility.yul\":529:530   */\n      0x00\n        /* \"#utility.yul\":526:527   */\n      dup1\n        /* \"#utility.yul\":519:531   */\n      revert\n        /* \"#utility.yul\":470:533   */\n    tag_158:\n        /* \"#utility.yul\":417:539   */\n      pop\n      jump\t// out\n        /* \"#utility.yul\":545:684   */\n    tag_124:\n        /* \"#utility.yul\":591:596   */\n      0x00\n        /* \"#utility.yul\":629:635   */\n      dup2\n        /* \"#utility.yul\":616:636   */\n      calldataload\n        /* \"#utility.yul\":607:636   */\n      swap1\n      pop\n        /* \"#utility.yul\":645:678   */\n      tag_160\n        /* \"#utility.yul\":672:677   */\n      dup2\n        /* \"#utility.yul\":645:678   */\n      tag_123\n      jump\t// in\n    tag_160:\n        /* \"#utility.yul\":545:684   */\n      swap3\n      swap2\n      pop\n      pop\n      jump\t// out\n        /* \"#utility.yul\":690:1019   */\n    tag_16:\n        /* \"#utility.yul\":749:755   */\n      0x00\n        /* \"#utility.yul\":798:800   */\n      0x20\n        /* \"#utility.yul\":786:795   */\n      dup3\n        /* \"#utility.yul\":777:784   */\n      dup5\n        /* \"#utility.yul\":773:796   */\n      sub\n        /* \"#utility.yul\":769:801   */\n      slt\n        /* \"#utility.yul\":766:885   */\n      iszero\n      tag_162\n      jumpi\n        /* \"#utility.yul\":804:883   */\n      tag_163\n      tag_120\n      jump\t// in\n    tag_163:\n        /* \"#utility.yul\":766:885   */\n    tag_162:\n        /* \"#utility.yul\":924:925   */\n      0x00\n        /* \"#utility.yul\":949:1002   */\n      tag_164\n        /* \"#utility.yul\":994:1001   */\n      dup5\n        /* \"#utility.yul\":985:991   */\n      dup3\n        /* \"#utility.yul\":974:983   */\n      dup6\n        /* \"#utility.yul\":970:992   */\n      add\n        /* \"#utility.yul\":949:1002   */\n      tag_124\n      jump\t// in\n    tag_164:\n        /* \"#utility.yul\":939:1002   */\n      swap2\n      pop\n        /* \"#utility.yul\":895:1012   */\n      pop\n        /* \"#utility.yul\":690:1019   */\n      swap3\n      swap2\n      pop\n      pop\n      jump\t// out\n        /* \"#utility.yul\":1025:1142   */\n    tag_125:\n        /* \"#utility.yul\":1134:1135   */\n      0x00\n        /* \"#utility.yul\":1131:1132   */\n      dup1\n        /* \"#utility.yul\":1124:1136   */\n      revert\n        /* \"#utility.yul\":1148:1265   */\n    tag_126:\n        /* \"#utility.yul\":1257:1258   */\n      0x00\n        /* \"#utility.yul\":1254:1255   */\n      dup1\n        /* \"#utility.yul\":1247:1259   */\n      revert\n        /* \"#utility.yul\":1271:1373   */\n    tag_127:\n        /* \"#utility.yul\":1312:1318   */\n      0x00\n        /* \"#utility.yul\":1363:1365   */\n      0x1f\n        /* \"#utility.yul\":1359:1366   */\n      not\n        /* \"#utility.yul\":1354:1356   */\n      0x1f\n        /* \"#utility.yul\":1347:1352   */\n      dup4\n        /* \"#utility.yul\":1343:1357   */\n      add\n        /* \"#utility.yul\":1339:1367   */\n      and\n        /* \"#utility.yul\":1329:1367   */\n      swap1\n      pop\n        /* \"#utility.yul\":1271:1373   */\n      swap2\n      swap1\n      pop\n      jump\t// out\n        /* \"#utility.yul\":1379:1559   */\n    tag_128:\n        /* \"#utility.yul\":1427:1504   */\n      0x4e487b7100000000000000000000000000000000000000000000000000000000\n        /* \"#utility.yul\":1424:1425   */\n      0x00\n        /* \"#utility.yul\":1417:1505   */\n      mstore\n        /* \"#utility.yul\":1524:1528   */\n      0x41\n        /* \"#utility.yul\":1521:1522   */\n      0x04\n        /* \"#utility.yul\":1514:1529   */\n      mstore\n        /* \"#utility.yul\":1548:1552   */\n      0x24\n        /* \"#utility.yul\":1545:1546   */\n      0x00\n        /* \"#utility.yul\":1538:1553   */\n      revert\n        /* \"#utility.yul\":1565:1846   */\n    tag_129:\n        /* \"#utility.yul\":1648:1675   */\n      tag_170\n        /* \"#utility.yul\":1670:1674   */\n      dup3\n        /* \"#utility.yul\":1648:1675   */\n      tag_127\n      jump\t// in\n    tag_170:\n        /* \"#utility.yul\":1640:1646   */\n      dup2\n        /* \"#utility.yul\":1636:1676   */\n      add\n        /* \"#utility.yul\":1778:1784   */\n      dup2\n        /* \"#utility.yul\":1766:1776   */\n      dup2\n        /* \"#utility.yul\":1763:1785   */\n      lt\n        /* \"#utility.yul\":1742:1760   */\n      0xffffffffffffffff\n        /* \"#utility.yul\":1730:1740   */\n      dup3\n        /* \"#utility.yul\":1727:1761   */\n      gt\n        /* \"#utility.yul\":1724:1786   */\n      or\n        /* \"#utility.yul\":1721:1809   */\n      iszero\n      tag_171\n      jumpi\n        /* \"#utility.yul\":1789:1807   */\n      tag_172\n      tag_128\n      jump\t// in\n    tag_172:\n        /* \"#utility.yul\":1721:1809   */\n    tag_171:\n        /* \"#utility.yul\":1829:1839   */\n      dup1\n        /* \"#utility.yul\":1825:1827   */\n      0x40\n        /* \"#utility.yul\":1818:1840   */\n      mstore\n        /* \"#utility.yul\":1608:1846   */\n      pop\n        /* \"#utility.yul\":1565:1846   */\n      pop\n      pop\n      jump\t// out\n        /* \"#utility.yul\":1852:1981   */\n    tag_130:\n        /* \"#utility.yul\":1886:1892   */\n      0x00\n        /* \"#utility.yul\":1913:1933   */\n      tag_174\n      tag_119\n      jump\t// in\n    tag_174:\n        /* \"#utility.yul\":1903:1933   */\n      swap1\n      pop\n        /* \"#utility.yul\":1942:1975   */\n      tag_175\n        /* \"#utility.yul\":1970:1974   */\n      dup3\n        /* \"#utility.yul\":1962:1968   */\n      dup3\n        /* \"#utility.yul\":1942:1975   */\n      tag_129\n      jump\t// in\n    tag_175:\n        /* \"#utility.yul\":1852:1981   */\n      swap2\n      swap1\n      pop\n      jump\t// out\n        /* \"#utility.yul\":1987:2295   */\n    tag_131:\n        /* \"#utility.yul\":2049:2053   */\n      0x00\n        /* \"#utility.yul\":2139:2157   */\n      0xffffffffffffffff\n        /* \"#utility.yul\":2131:2137   */\n      dup3\n        /* \"#utility.yul\":2128:2158   */\n      gt\n        /* \"#utility.yul\":2125:2181   */\n      iszero\n      tag_177\n      jumpi\n        /* \"#utility.yul\":2161:2179   */\n      tag_178\n      tag_128\n      jump\t// in\n    tag_178:\n        /* \"#utility.yul\":2125:2181   */\n    tag_177:\n        /* \"#utility.yul\":2199:2228   */\n      tag_179\n        /* \"#utility.yul\":2221:2227   */\n      dup3\n        /* \"#utility.yul\":2199:2228   */\n      tag_127\n      jump\t// in\n    tag_179:\n        /* \"#utility.yul\":2191:2228   */\n      swap1\n      pop\n        /* \"#utility.yul\":2283:2287   */\n      0x20\n        /* \"#utility.yul\":2277:2281   */\n      dup2\n        /* \"#utility.yul\":2273:2288   */\n      add\n        /* \"#utility.yul\":2265:2288   */\n      swap1\n      pop\n        /* \"#utility.yul\":1987:2295   */\n      swap2\n      swap1\n      pop\n      jump\t// out\n        /* \"#utility.yul\":2301:2455   */\n    tag_132:\n        /* \"#utility.yul\":2385:2391   */\n      dup3\n        /* \"#utility.yul\":2380:2383   */\n      dup2\n        /* \"#utility.yul\":2375:2378   */\n      dup4\n        /* \"#utility.yul\":2362:2392   */\n      calldatacopy\n        /* \"#utility.yul\":2447:2448   */\n      0x00\n        /* \"#utility.yul\":2438:2444   */\n      dup4\n        /* \"#utility.yul\":2433:2436   */\n      dup4\n        /* \"#utility.yul\":2429:2445   */\n      add\n        /* \"#utility.yul\":2422:2449   */\n      mstore\n        /* \"#utility.yul\":2301:2455   */\n      pop\n      pop\n      pop\n      jump\t// out\n        /* \"#utility.yul\":2461:2873   */\n    tag_133:\n        /* \"#utility.yul\":2539:2544   */\n      0x00\n        /* \"#utility.yul\":2564:2630   */\n      tag_182\n        /* \"#utility.yul\":2580:2629   */\n      tag_183\n        /* \"#utility.yul\":2622:2628   */\n      dup5\n        /* \"#utility.yul\":2580:2629   */\n      tag_131\n      jump\t// in\n    tag_183:\n        /* \"#utility.yul\":2564:2630   */\n      tag_130\n      jump\t// in\n    tag_182:\n        /* \"#utility.yul\":2555:2630   */\n      swap1\n      pop\n        /* \"#utility.yul\":2653:2659   */\n      dup3\n        /* \"#utility.yul\":2646:2651   */\n      dup2\n        /* \"#utility.yul\":2639:2660   */\n      mstore\n        /* \"#utility.yul\":2691:2695   */\n      0x20\n        /* \"#utility.yul\":2684:2689   */\n      dup2\n        /* \"#utility.yul\":2680:2696   */\n      add\n        /* \"#utility.yul\":2729:2732   */\n      dup5\n        /* \"#utility.yul\":2720:2726   */\n      dup5\n        /* \"#utility.yul\":2715:2718   */\n      dup5\n        /* \"#utility.yul\":2711:2727   */\n      add\n        /* \"#utility.yul\":2708:2733   */\n      gt\n        /* \"#utility.yul\":2705:2817   */\n      iszero\n      tag_184\n      jumpi\n        /* \"#utility.yul\":2736:2815   */\n      tag_185\n      tag_126\n      jump\t// in\n    tag_185:\n        /* \"#utility.yul\":2705:2817   */\n    tag_184:\n        /* \"#utility.yul\":2826:2867   */\n      tag_186\n        /* \"#utility.yul\":2860:2866   */\n      dup5\n        /* \"#utility.yul\":2855:2858   */\n      dup3\n        /* \"#utility.yul\":2850:2853   */\n      dup6\n        /* \"#utility.yul\":2826:2867   */\n      tag_132\n      jump\t// in\n    tag_186:\n        /* \"#utility.yul\":2545:2873   */\n      pop\n        /* \"#utility.yul\":2461:2873   */\n      swap4\n      swap3\n      pop\n      pop\n      pop\n      jump\t// out\n        /* \"#utility.yul\":2893:3233   */\n    tag_134:\n        /* \"#utility.yul\":2949:2954   */\n      0x00\n        /* \"#utility.yul\":2998:3001   */\n      dup3\n        /* \"#utility.yul\":2991:2995   */\n      0x1f\n        /* \"#utility.yul\":2983:2989   */\n      dup4\n        /* \"#utility.yul\":2979:2996   */\n      add\n        /* \"#utility.yul\":2975:3002   */\n      slt\n        /* \"#utility.yul\":2965:3087   */\n      tag_188\n      jumpi\n        /* \"#utility.yul\":3006:3085   */\n      tag_189\n      tag_125\n      jump\t// in\n    tag_189:\n        /* \"#utility.yul\":2965:3087   */\n    tag_188:\n        /* \"#utility.yul\":3123:3129   */\n      dup2\n        /* \"#utility.yul\":3110:3130   */\n      calldataload\n        /* \"#utility.yul\":3148:3227   */\n      tag_190\n        /* \"#utility.yul\":3223:3226   */\n      dup5\n        /* \"#utility.yul\":3215:3221   */\n      dup3\n        /* \"#utility.yul\":3208:3212   */\n      0x20\n        /* \"#utility.yul\":3200:3206   */\n      dup7\n        /* \"#utility.yul\":3196:3213   */\n      add\n        /* \"#utility.yul\":3148:3227   */\n      tag_133\n      jump\t// in\n    tag_190:\n        /* \"#utility.yul\":3139:3227   */\n      swap2\n      pop\n        /* \"#utility.yul\":2955:3233   */\n      pop\n        /* \"#utility.yul\":2893:3233   */\n      swap3\n      swap2\n      pop\n      pop\n      jump\t// out\n        /* \"#utility.yul\":3239:3748   */\n    tag_20:\n        /* \"#utility.yul\":3308:3314   */\n      0x00\n        /* \"#utility.yul\":3357:3359   */\n      0x20\n        /* \"#utility.yul\":3345:3354   */\n      dup3\n        /* \"#utility.yul\":3336:3343   */\n      dup5\n        /* \"#utility.yul\":3332:3355   */\n      sub\n        /* \"#utility.yul\":3328:3360   */\n      slt\n        /* \"#utility.yul\":3325:3444   */\n      iszero\n      tag_192\n      jumpi\n        /* \"#utility.yul\":3363:3442   */\n      tag_193\n      tag_120\n      jump\t// in\n    tag_193:\n        /* \"#utility.yul\":3325:3444   */\n    tag_192:\n        /* \"#utility.yul\":3511:3512   */\n      0x00\n        /* \"#utility.yul\":3500:3509   */\n      dup3\n        /* \"#utility.yul\":3496:3513   */\n      add\n        /* \"#utility.yul\":3483:3514   */\n      calldataload\n        /* \"#utility.yul\":3541:3559   */\n      0xffffffffffffffff\n        /* \"#utility.yul\":3533:3539   */\n      dup2\n        /* \"#utility.yul\":3530:3560   */\n      gt\n        /* \"#utility.yul\":3527:3644   */\n      iszero\n      tag_194\n      jumpi\n        /* \"#utility.yul\":3563:3642   */\n      tag_195\n      tag_121\n      jump\t// in\n    tag_195:\n        /* \"#utility.yul\":3527:3644   */\n    tag_194:\n        /* \"#utility.yul\":3668:3731   */\n      tag_196\n        /* \"#utility.yul\":3723:3730   */\n      dup5\n        /* \"#utility.yul\":3714:3720   */\n      dup3\n        /* \"#utility.yul\":3703:3712   */\n      dup6\n        /* \"#utility.yul\":3699:3721   */\n      add\n        /* \"#utility.yul\":3668:3731   */\n      tag_134\n      jump\t// in\n    tag_196:\n        /* \"#utility.yul\":3658:3731   */\n      swap2\n      pop\n        /* \"#utility.yul\":3454:3741   */\n      pop\n        /* \"#utility.yul\":3239:3748   */\n      swap3\n      swap2\n      pop\n      pop\n      jump\t// out\n        /* \"#utility.yul\":3754:3844   */\n    tag_135:\n        /* \"#utility.yul\":3788:3795   */\n      0x00\n        /* \"#utility.yul\":3831:3836   */\n      dup2\n        /* \"#utility.yul\":3824:3837   */\n      iszero\n        /* \"#utility.yul\":3817:3838   */\n      iszero\n        /* \"#utility.yul\":3806:3838   */\n      swap1\n      pop\n        /* \"#utility.yul\":3754:3844   */\n      swap2\n      swap1\n      pop\n      jump\t// out\n        /* \"#utility.yul\":3850:3959   */\n    tag_136:\n        /* \"#utility.yul\":3931:3952   */\n      tag_199\n        /* \"#utility.yul\":3946:3951   */\n      dup2\n        /* \"#utility.yul\":3931:3952   */\n      tag_135\n      jump\t// in\n    tag_199:\n        /* \"#utility.yul\":3926:3929   */\n      dup3\n        /* \"#utility.yul\":3919:3953   */\n      mstore\n        /* \"#utility.yul\":3850:3959   */\n      pop\n      pop\n      jump\t// out\n        /* \"#utility.yul\":3965:4175   */\n    tag_23:\n        /* \"#utility.yul\":4052:4056   */\n      0x00\n        /* \"#utility.yul\":4090:4092   */\n      0x20\n        /* \"#utility.yul\":4079:4088   */\n      dup3\n        /* \"#utility.yul\":4075:4093   */\n      add\n        /* \"#utility.yul\":4067:4093   */\n      swap1\n      pop\n        /* \"#utility.yul\":4103:4168   */\n      tag_201\n        /* \"#utility.yul\":4165:4166   */\n      0x00\n        /* \"#utility.yul\":4154:4163   */\n      dup4\n        /* \"#utility.yul\":4150:4167   */\n      add\n        /* \"#utility.yul\":4141:4147   */\n      dup5\n        /* \"#utility.yul\":4103:4168   */\n      tag_136\n      jump\t// in\n    tag_201:\n        /* \"#utility.yul\":3965:4175   */\n      swap3\n      swap2\n      pop\n      pop\n      jump\t// out\n        /* \"#utility.yul\":4181:4307   */\n    tag_137:\n        /* \"#utility.yul\":4218:4225   */\n      0x00\n        /* \"#utility.yul\":4258:4300   */\n      0xffffffffffffffffffffffffffffffffffffffff\n        /* \"#utility.yul\":4251:4256   */\n      dup3\n        /* \"#utility.yul\":4247:4301   */\n      and\n        /* \"#utility.yul\":4236:4301   */\n      swap1\n      pop\n        /* \"#utility.yul\":4181:4307   */\n      swap2\n      swap1\n      pop\n      jump\t// out\n        /* \"#utility.yul\":4313:4409   */\n    tag_138:\n        /* \"#utility.yul\":4350:4357   */\n      0x00\n        /* \"#utility.yul\":4379:4403   */\n      tag_204\n        /* \"#utility.yul\":4397:4402   */\n      dup3\n        /* \"#utility.yul\":4379:4403   */\n      tag_137\n      jump\t// in\n    tag_204:\n        /* \"#utility.yul\":4368:4403   */\n      swap1\n      pop\n        /* \"#utility.yul\":4313:4409   */\n      swap2\n      swap1\n      pop\n      jump\t// out\n        /* \"#utility.yul\":4415:4537   */\n    tag_139:\n        /* \"#utility.yul\":4488:4512   */\n      tag_206\n        /* \"#utility.yul\":4506:4511   */\n      dup2\n        /* \"#utility.yul\":4488:4512   */\n      tag_138\n      jump\t// in\n    tag_206:\n        /* \"#utility.yul\":4481:4486   */\n      dup2\n        /* \"#utility.yul\":4478:4513   */\n      eq\n        /* \"#utility.yul\":4468:4531   */\n      tag_207\n      jumpi\n        /* \"#utility.yul\":4527:4528   */\n      0x00\n        /* \"#utility.yul\":4524:4525   */\n      dup1\n        /* \"#utility.yul\":4517:4529   */\n      revert\n        /* \"#utility.yul\":4468:4531   */\n    tag_207:\n        /* \"#utility.yul\":4415:4537   */\n      pop\n      jump\t// out\n        /* \"#utility.yul\":4543:4682   */\n    tag_140:\n        /* \"#utility.yul\":4589:4594   */\n      0x00\n        /* \"#utility.yul\":4627:4633   */\n      dup2\n        /* \"#utility.yul\":4614:4634   */\n      calldataload\n        /* \"#utility.yul\":4605:4634   */\n      swap1\n      pop\n        /* \"#utility.yul\":4643:4676   */\n      tag_209\n        /* \"#utility.yul\":4670:4675   */\n      dup2\n        /* \"#utility.yul\":4643:4676   */\n      tag_139\n      jump\t// in\n    tag_209:\n        /* \"#utility.yul\":4543:4682   */\n      swap3\n      swap2\n      pop\n      pop\n      jump\t// out\n        /* \"#utility.yul\":4688:5813   */\n    tag_26:\n        /* \"#utility.yul\":4794:4800   */\n      0x00\n        /* \"#utility.yul\":4802:4808   */\n      dup1\n        /* \"#utility.yul\":4810:4816   */\n      0x00\n        /* \"#utility.yul\":4818:4824   */\n      dup1\n        /* \"#utility.yul\":4867:4870   */\n      0x80\n        /* \"#utility.yul\":4855:4864   */\n      dup6\n        /* \"#utility.yul\":4846:4853   */\n      dup8\n        /* \"#utility.yul\":4842:4865   */\n      sub\n        /* \"#utility.yul\":4838:4871   */\n      slt\n        /* \"#utility.yul\":4835:4955   */\n      iszero\n      tag_211\n      jumpi\n        /* \"#utility.yul\":4874:4953   */\n      tag_212\n      tag_120\n      jump\t// in\n    tag_212:\n        /* \"#utility.yul\":4835:4955   */\n    tag_211:\n        /* \"#utility.yul\":5022:5023   */\n      0x00\n        /* \"#utility.yul\":5011:5020   */\n      dup6\n        /* \"#utility.yul\":5007:5024   */\n      add\n        /* \"#utility.yul\":4994:5025   */\n      calldataload\n        /* \"#utility.yul\":5052:5070   */\n      0xffffffffffffffff\n        /* \"#utility.yul\":5044:5050   */\n      dup2\n        /* \"#utility.yul\":5041:5071   */\n      gt\n        /* \"#utility.yul\":5038:5155   */\n      iszero\n      tag_213\n      jumpi\n        /* \"#utility.yul\":5074:5153   */\n      tag_214\n      tag_121\n      jump\t// in\n    tag_214:\n        /* \"#utility.yul\":5038:5155   */\n    tag_213:\n        /* \"#utility.yul\":5179:5242   */\n      tag_215\n        /* \"#utility.yul\":5234:5241   */\n      dup8\n        /* \"#utility.yul\":5225:5231   */\n      dup3\n        /* \"#utility.yul\":5214:5223   */\n      dup9\n        /* \"#utility.yul\":5210:5232   */\n      add\n        /* \"#utility.yul\":5179:5242   */\n      tag_134\n      jump\t// in\n    tag_215:\n        /* \"#utility.yul\":5169:5242   */\n      swap5\n      pop\n        /* \"#utility.yul\":4965:5252   */\n      pop\n        /* \"#utility.yul\":5319:5321   */\n      0x20\n        /* \"#utility.yul\":5308:5317   */\n      dup6\n        /* \"#utility.yul\":5304:5322   */\n      add\n        /* \"#utility.yul\":5291:5323   */\n      calldataload\n        /* \"#utility.yul\":5350:5368   */\n      0xffffffffffffffff\n        /* \"#utility.yul\":5342:5348   */\n      dup2\n        /* \"#utility.yul\":5339:5369   */\n      gt\n        /* \"#utility.yul\":5336:5453   */\n      iszero\n      tag_216\n      jumpi\n        /* \"#utility.yul\":5372:5451   */\n      tag_217\n      tag_121\n      jump\t// in\n    tag_217:\n        /* \"#utility.yul\":5336:5453   */\n    tag_216:\n        /* \"#utility.yul\":5477:5540   */\n      tag_218\n        /* \"#utility.yul\":5532:5539   */\n      dup8\n        /* \"#utility.yul\":5523:5529   */\n      dup3\n        /* \"#utility.yul\":5512:5521   */\n      dup9\n        /* \"#utility.yul\":5508:5530   */\n      add\n        /* \"#utility.yul\":5477:5540   */\n      tag_134\n      jump\t// in\n    tag_218:\n        /* \"#utility.yul\":5467:5540   */\n      swap4\n      pop\n        /* \"#utility.yul\":5262:5550   */\n      pop\n        /* \"#utility.yul\":5589:5591   */\n      0x40\n        /* \"#utility.yul\":5615:5668   */\n      tag_219\n        /* \"#utility.yul\":5660:5667   */\n      dup8\n        /* \"#utility.yul\":5651:5657   */\n      dup3\n        /* \"#utility.yul\":5640:5649   */\n      dup9\n        /* \"#utility.yul\":5636:5658   */\n      add\n        /* \"#utility.yul\":5615:5668   */\n      tag_124\n      jump\t// in\n    tag_219:\n        /* \"#utility.yul\":5605:5668   */\n      swap3\n      pop\n        /* \"#utility.yul\":5560:5678   */\n      pop\n        /* \"#utility.yul\":5717:5719   */\n      0x60\n        /* \"#utility.yul\":5743:5796   */\n      tag_220\n        /* \"#utility.yul\":5788:5795   */\n      dup8\n        /* \"#utility.yul\":5779:5785   */\n      dup3\n        /* \"#utility.yul\":5768:5777   */\n      dup9\n        /* \"#utility.yul\":5764:5786   */\n      add\n        /* \"#utility.yul\":5743:5796   */\n      tag_140\n      jump\t// in\n    tag_220:\n        /* \"#utility.yul\":5733:5796   */\n      swap2\n      pop\n        /* \"#utility.yul\":5688:5806   */\n      pop\n        /* \"#utility.yul\":4688:5813   */\n      swap3\n      swap6\n      swap2\n      swap5\n      pop\n      swap3\n      pop\n      jump\t// out\n        /* \"#utility.yul\":5819:5937   */\n    tag_141:\n        /* \"#utility.yul\":5906:5930   */\n      tag_222\n        /* \"#utility.yul\":5924:5929   */\n      dup2\n        /* \"#utility.yul\":5906:5930   */\n      tag_122\n      jump\t// in\n    tag_222:\n        /* \"#utility.yul\":5901:5904   */\n      dup3\n        /* \"#utility.yul\":5894:5931   */\n      mstore\n        /* \"#utility.yul\":5819:5937   */\n      pop\n      pop\n      jump\t// out\n        /* \"#utility.yul\":5943:6165   */\n    tag_32:\n        /* \"#utility.yul\":6036:6040   */\n      0x00\n        /* \"#utility.yul\":6074:6076   */\n      0x20\n        /* \"#utility.yul\":6063:6072   */\n      dup3\n        /* \"#utility.yul\":6059:6077   */\n      add\n        /* \"#utility.yul\":6051:6077   */\n      swap1\n      pop\n        /* \"#utility.yul\":6087:6158   */\n      tag_224\n        /* \"#utility.yul\":6155:6156   */\n      0x00\n        /* \"#utility.yul\":6144:6153   */\n      dup4\n        /* \"#utility.yul\":6140:6157   */\n      add\n        /* \"#utility.yul\":6131:6137   */\n      dup5\n        /* \"#utility.yul\":6087:6158   */\n      tag_141\n      jump\t// in\n    tag_224:\n        /* \"#utility.yul\":5943:6165   */\n      swap3\n      swap2\n      pop\n      pop\n      jump\t// out\n        /* \"#utility.yul\":6171:6289   */\n    tag_142:\n        /* \"#utility.yul\":6258:6282   */\n      tag_226\n        /* \"#utility.yul\":6276:6281   */\n      dup2\n        /* \"#utility.yul\":6258:6282   */\n      tag_138\n      jump\t// in\n    tag_226:\n        /* \"#utility.yul\":6253:6256   */\n      dup3\n        /* \"#utility.yul\":6246:6283   */\n      mstore\n        /* \"#utility.yul\":6171:6289   */\n      pop\n      pop\n      jump\t// out\n        /* \"#utility.yul\":6295:6517   */\n    tag_36:\n        /* \"#utility.yul\":6388:6392   */\n      0x00\n        /* \"#utility.yul\":6426:6428   */\n      0x20\n        /* \"#utility.yul\":6415:6424   */\n      dup3\n        /* \"#utility.yul\":6411:6429   */\n      add\n        /* \"#utility.yul\":6403:6429   */\n      swap1\n      pop\n        /* \"#utility.yul\":6439:6510   */\n      tag_228\n        /* \"#utility.yul\":6507:6508   */\n      0x00\n        /* \"#utility.yul\":6496:6505   */\n      dup4\n        /* \"#utility.yul\":6492:6509   */\n      add\n        /* \"#utility.yul\":6483:6489   */\n      dup5\n        /* \"#utility.yul\":6439:6510   */\n      tag_142\n      jump\t// in\n    tag_228:\n        /* \"#utility.yul\":6295:6517   */\n      swap3\n      swap2\n      pop\n      pop\n      jump\t// out\n        /* \"#utility.yul\":6523:6622   */\n    tag_143:\n        /* \"#utility.yul\":6575:6581   */\n      0x00\n        /* \"#utility.yul\":6609:6614   */\n      dup2\n        /* \"#utility.yul\":6603:6615   */\n      mload\n        /* \"#utility.yul\":6593:6615   */\n      swap1\n      pop\n        /* \"#utility.yul\":6523:6622   */\n      swap2\n      swap1\n      pop\n      jump\t// out\n        /* \"#utility.yul\":6628:6797   */\n    tag_144:\n        /* \"#utility.yul\":6712:6723   */\n      0x00\n        /* \"#utility.yul\":6746:6752   */\n      dup3\n        /* \"#utility.yul\":6741:6744   */\n      dup3\n        /* \"#utility.yul\":6734:6753   */\n      mstore\n        /* \"#utility.yul\":6786:6790   */\n      0x20\n        /* \"#utility.yul\":6781:6784   */\n      dup3\n        /* \"#utility.yul\":6777:6791   */\n      add\n        /* \"#utility.yul\":6762:6791   */\n      swap1\n      pop\n        /* \"#utility.yul\":6628:6797   */\n      swap3\n      swap2\n      pop\n      pop\n      jump\t// out\n        /* \"#utility.yul\":6803:7110   */\n    tag_145:\n        /* \"#utility.yul\":6871:6872   */\n      0x00\n        /* \"#utility.yul\":6881:6994   */\n    tag_232:\n        /* \"#utility.yul\":6895:6901   */\n      dup4\n        /* \"#utility.yul\":6892:6893   */\n      dup2\n        /* \"#utility.yul\":6889:6902   */\n      lt\n        /* \"#utility.yul\":6881:6994   */\n      iszero\n      tag_234\n      jumpi\n        /* \"#utility.yul\":6980:6981   */\n      dup1\n        /* \"#utility.yul\":6975:6978   */\n      dup3\n        /* \"#utility.yul\":6971:6982   */\n      add\n        /* \"#utility.yul\":6965:6983   */\n      mload\n        /* \"#utility.yul\":6961:6962   */\n      dup2\n        /* \"#utility.yul\":6956:6959   */\n      dup5\n        /* \"#utility.yul\":6952:6963   */\n      add\n        /* \"#utility.yul\":6945:6984   */\n      mstore\n        /* \"#utility.yul\":6917:6919   */\n      0x20\n        /* \"#utility.yul\":6914:6915   */\n      dup2\n        /* \"#utility.yul\":6910:6920   */\n      add\n        /* \"#utility.yul\":6905:6920   */\n      swap1\n      pop\n        /* \"#utility.yul\":6881:6994   */\n      jump(tag_232)\n    tag_234:\n        /* \"#utility.yul\":7012:7018   */\n      dup4\n        /* \"#utility.yul\":7009:7010   */\n      dup2\n        /* \"#utility.yul\":7006:7019   */\n      gt\n        /* \"#utility.yul\":7003:7104   */\n      iszero\n      tag_235\n      jumpi\n        /* \"#utility.yul\":7092:7093   */\n      0x00\n        /* \"#utility.yul\":7083:7089   */\n      dup5\n        /* \"#utility.yul\":7078:7081   */\n      dup5\n        /* \"#utility.yul\":7074:7090   */\n      add\n        /* \"#utility.yul\":7067:7094   */\n      mstore\n        /* \"#utility.yul\":7003:7104   */\n    tag_235:\n        /* \"#utility.yul\":6852:7110   */\n      pop\n        /* \"#utility.yul\":6803:7110   */\n      pop\n      pop\n      pop\n      jump\t// out\n        /* \"#utility.yul\":7116:7480   */\n    tag_146:\n        /* \"#utility.yul\":7204:7207   */\n      0x00\n        /* \"#utility.yul\":7232:7271   */\n      tag_237\n        /* \"#utility.yul\":7265:7270   */\n      dup3\n        /* \"#utility.yul\":7232:7271   */\n      tag_143\n      jump\t// in\n    tag_237:\n        /* \"#utility.yul\":7287:7358   */\n      tag_238\n        /* \"#utility.yul\":7351:7357   */\n      dup2\n        /* \"#utility.yul\":7346:7349   */\n      dup6\n        /* \"#utility.yul\":7287:7358   */\n      tag_144\n      jump\t// in\n    tag_238:\n        /* \"#utility.yul\":7280:7358   */\n      swap4\n      pop\n        /* \"#utility.yul\":7367:7419   */\n      tag_239\n        /* \"#utility.yul\":7412:7418   */\n      dup2\n        /* \"#utility.yul\":7407:7410   */\n      dup6\n        /* \"#utility.yul\":7400:7404   */\n      0x20\n        /* \"#utility.yul\":7393:7398   */\n      dup7\n        /* \"#utility.yul\":7389:7405   */\n      add\n        /* \"#utility.yul\":7367:7419   */\n      tag_145\n      jump\t// in\n    tag_239:\n        /* \"#utility.yul\":7444:7473   */\n      tag_240\n        /* \"#utility.yul\":7466:7472   */\n      dup2\n        /* \"#utility.yul\":7444:7473   */\n      tag_127\n      jump\t// in\n    tag_240:\n        /* \"#utility.yul\":7439:7442   */\n      dup5\n        /* \"#utility.yul\":7435:7474   */\n      add\n        /* \"#utility.yul\":7428:7474   */\n      swap2\n      pop\n        /* \"#utility.yul\":7208:7480   */\n      pop\n        /* \"#utility.yul\":7116:7480   */\n      swap3\n      swap2\n      pop\n      pop\n      jump\t// out\n        /* \"#utility.yul\":7486:8332   */\n    tag_41:\n        /* \"#utility.yul\":7731:7735   */\n      0x00\n        /* \"#utility.yul\":7769:7772   */\n      0xa0\n        /* \"#utility.yul\":7758:7767   */\n      dup3\n        /* \"#utility.yul\":7754:7773   */\n      add\n        /* \"#utility.yul\":7746:7773   */\n      swap1\n      pop\n        /* \"#utility.yul\":7819:7828   */\n      dup2\n        /* \"#utility.yul\":7813:7817   */\n      dup2\n        /* \"#utility.yul\":7809:7829   */\n      sub\n        /* \"#utility.yul\":7805:7806   */\n      0x00\n        /* \"#utility.yul\":7794:7803   */\n      dup4\n        /* \"#utility.yul\":7790:7807   */\n      add\n        /* \"#utility.yul\":7783:7830   */\n      mstore\n        /* \"#utility.yul\":7847:7925   */\n      tag_242\n        /* \"#utility.yul\":7920:7924   */\n      dup2\n        /* \"#utility.yul\":7911:7917   */\n      dup9\n        /* \"#utility.yul\":7847:7925   */\n      tag_146\n      jump\t// in\n    tag_242:\n        /* \"#utility.yul\":7839:7925   */\n      swap1\n      pop\n        /* \"#utility.yul\":7972:7981   */\n      dup2\n        /* \"#utility.yul\":7966:7970   */\n      dup2\n        /* \"#utility.yul\":7962:7982   */\n      sub\n        /* \"#utility.yul\":7957:7959   */\n      0x20\n        /* \"#utility.yul\":7946:7955   */\n      dup4\n        /* \"#utility.yul\":7942:7960   */\n      add\n        /* \"#utility.yul\":7935:7983   */\n      mstore\n        /* \"#utility.yul\":8000:8078   */\n      tag_243\n        /* \"#utility.yul\":8073:8077   */\n      dup2\n        /* \"#utility.yul\":8064:8070   */\n      dup8\n        /* \"#utility.yul\":8000:8078   */\n      tag_146\n      jump\t// in\n    tag_243:\n        /* \"#utility.yul\":7992:8078   */\n      swap1\n      pop\n        /* \"#utility.yul\":8088:8160   */\n      tag_244\n        /* \"#utility.yul\":8156:8158   */\n      0x40\n        /* \"#utility.yul\":8145:8154   */\n      dup4\n        /* \"#utility.yul\":8141:8159   */\n      add\n        /* \"#utility.yul\":8132:8138   */\n      dup7\n        /* \"#utility.yul\":8088:8160   */\n      tag_141\n      jump\t// in\n    tag_244:\n        /* \"#utility.yul\":8170:8242   */\n      tag_245\n        /* \"#utility.yul\":8238:8240   */\n      0x60\n        /* \"#utility.yul\":8227:8236   */\n      dup4\n        /* \"#utility.yul\":8223:8241   */\n      add\n        /* \"#utility.yul\":8214:8220   */\n      dup6\n        /* \"#utility.yul\":8170:8242   */\n      tag_141\n      jump\t// in\n    tag_245:\n        /* \"#utility.yul\":8252:8325   */\n      tag_246\n        /* \"#utility.yul\":8320:8323   */\n      0x80\n        /* \"#utility.yul\":8309:8318   */\n      dup4\n        /* \"#utility.yul\":8305:8324   */\n      add\n        /* \"#utility.yul\":8296:8302   */\n      dup5\n        /* \"#utility.yul\":8252:8325   */\n      tag_142\n      jump\t// in\n    tag_246:\n        /* \"#utility.yul\":7486:8332   */\n      swap7\n      swap6\n      pop\n      pop\n      pop\n      pop\n      pop\n      pop\n      jump\t// out\n        /* \"#utility.yul\":8338:9609   */\n    tag_44:\n        /* \"#utility.yul\":8453:8459   */\n      0x00\n        /* \"#utility.yul\":8461:8467   */\n      dup1\n        /* \"#utility.yul\":8469:8475   */\n      0x00\n        /* \"#utility.yul\":8477:8483   */\n      dup1\n        /* \"#utility.yul\":8485:8491   */\n      0x00\n        /* \"#utility.yul\":8534:8537   */\n      0xa0\n        /* \"#utility.yul\":8522:8531   */\n      dup7\n        /* \"#utility.yul\":8513:8520   */\n      dup9\n        /* \"#utility.yul\":8509:8532   */\n      sub\n        /* \"#utility.yul\":8505:8538   */\n      slt\n        /* \"#utility.yul\":8502:8622   */\n      iszero\n      tag_248\n      jumpi\n        /* \"#utility.yul\":8541:8620   */\n      tag_249\n      tag_120\n      jump\t// in\n    tag_249:\n        /* \"#utility.yul\":8502:8622   */\n    tag_248:\n        /* \"#utility.yul\":8661:8662   */\n      0x00\n        /* \"#utility.yul\":8686:8739   */\n      tag_250\n        /* \"#utility.yul\":8731:8738   */\n      dup9\n        /* \"#utility.yul\":8722:8728   */\n      dup3\n        /* \"#utility.yul\":8711:8720   */\n      dup10\n        /* \"#utility.yul\":8707:8729   */\n      add\n        /* \"#utility.yul\":8686:8739   */\n      tag_124\n      jump\t// in\n    tag_250:\n        /* \"#utility.yul\":8676:8739   */\n      swap6\n      pop\n        /* \"#utility.yul\":8632:8749   */\n      pop\n        /* \"#utility.yul\":8816:8818   */\n      0x20\n        /* \"#utility.yul\":8805:8814   */\n      dup7\n        /* \"#utility.yul\":8801:8819   */\n      add\n        /* \"#utility.yul\":8788:8820   */\n      calldataload\n        /* \"#utility.yul\":8847:8865   */\n      0xffffffffffffffff\n        /* \"#utility.yul\":8839:8845   */\n      dup2\n        /* \"#utility.yul\":8836:8866   */\n      gt\n        /* \"#utility.yul\":8833:8950   */\n      iszero\n      tag_251\n      jumpi\n        /* \"#utility.yul\":8869:8948   */\n      tag_252\n      tag_121\n      jump\t// in\n    tag_252:\n        /* \"#utility.yul\":8833:8950   */\n    tag_251:\n        /* \"#utility.yul\":8974:9037   */\n      tag_253\n        /* \"#utility.yul\":9029:9036   */\n      dup9\n        /* \"#utility.yul\":9020:9026   */\n      dup3\n        /* \"#utility.yul\":9009:9018   */\n      dup10\n        /* \"#utility.yul\":9005:9027   */\n      add\n        /* \"#utility.yul\":8974:9037   */\n      tag_134\n      jump\t// in\n    tag_253:\n        /* \"#utility.yul\":8964:9037   */\n      swap5\n      pop\n        /* \"#utility.yul\":8759:9047   */\n      pop\n        /* \"#utility.yul\":9114:9116   */\n      0x40\n        /* \"#utility.yul\":9103:9112   */\n      dup7\n        /* \"#utility.yul\":9099:9117   */\n      add\n        /* \"#utility.yul\":9086:9118   */\n      calldataload\n        /* \"#utility.yul\":9145:9163   */\n      0xffffffffffffffff\n        /* \"#utility.yul\":9137:9143   */\n      dup2\n        /* \"#utility.yul\":9134:9164   */\n      gt\n        /* \"#utility.yul\":9131:9248   */\n      iszero\n      tag_254\n      jumpi\n        /* \"#utility.yul\":9167:9246   */\n      tag_255\n      tag_121\n      jump\t// in\n    tag_255:\n        /* \"#utility.yul\":9131:9248   */\n    tag_254:\n        /* \"#utility.yul\":9272:9335   */\n      tag_256\n        /* \"#utility.yul\":9327:9334   */\n      dup9\n        /* \"#utility.yul\":9318:9324   */\n      dup3\n        /* \"#utility.yul\":9307:9316   */\n      dup10\n        /* \"#utility.yul\":9303:9325   */\n      add\n        /* \"#utility.yul\":9272:9335   */\n      tag_134\n      jump\t// in\n    tag_256:\n        /* \"#utility.yul\":9262:9335   */\n      swap4\n      pop\n        /* \"#utility.yul\":9057:9345   */\n      pop\n        /* \"#utility.yul\":9384:9386   */\n      0x60\n        /* \"#utility.yul\":9410:9463   */\n      tag_257\n        /* \"#utility.yul\":9455:9462   */\n      dup9\n        /* \"#utility.yul\":9446:9452   */\n      dup3\n        /* \"#utility.yul\":9435:9444   */\n      dup10\n        /* \"#utility.yul\":9431:9453   */\n      add\n        /* \"#utility.yul\":9410:9463   */\n      tag_124\n      jump\t// in\n    tag_257:\n        /* \"#utility.yul\":9400:9463   */\n      swap3\n      pop\n        /* \"#utility.yul\":9355:9473   */\n      pop\n        /* \"#utility.yul\":9512:9515   */\n      0x80\n        /* \"#utility.yul\":9539:9592   */\n      tag_258\n        /* \"#utility.yul\":9584:9591   */\n      dup9\n        /* \"#utility.yul\":9575:9581   */\n      dup3\n        /* \"#utility.yul\":9564:9573   */\n      dup10\n        /* \"#utility.yul\":9560:9582   */\n      add\n        /* \"#utility.yul\":9539:9592   */\n      tag_140\n      jump\t// in\n    tag_258:\n        /* \"#utility.yul\":9529:9592   */\n      swap2\n      pop\n        /* \"#utility.yul\":9483:9602   */\n      pop\n        /* \"#utility.yul\":8338:9609   */\n      swap3\n      swap6\n      pop\n      swap3\n      swap6\n      swap1\n      swap4\n      pop\n      jump\t// out\n        /* \"#utility.yul\":9615:9795   */\n    tag_147:\n        /* \"#utility.yul\":9663:9740   */\n      0x4e487b7100000000000000000000000000000000000000000000000000000000\n        /* \"#utility.yul\":9660:9661   */\n      0x00\n        /* \"#utility.yul\":9653:9741   */\n      mstore\n        /* \"#utility.yul\":9760:9764   */\n      0x11\n        /* \"#utility.yul\":9757:9758   */\n      0x04\n        /* \"#utility.yul\":9750:9765   */\n      mstore\n        /* \"#utility.yul\":9784:9788   */\n      0x24\n        /* \"#utility.yul\":9781:9782   */\n      0x00\n        /* \"#utility.yul\":9774:9789   */\n      revert\n        /* \"#utility.yul\":9801:10034   */\n    tag_59:\n        /* \"#utility.yul\":9840:9843   */\n      0x00\n        /* \"#utility.yul\":9863:9887   */\n      tag_261\n        /* \"#utility.yul\":9881:9886   */\n      dup3\n        /* \"#utility.yul\":9863:9887   */\n      tag_122\n      jump\t// in\n    tag_261:\n        /* \"#utility.yul\":9854:9887   */\n      swap2\n      pop\n        /* \"#utility.yul\":9909:9975   */\n      0xffffffffffffffffffffffffffffffffffffffffffffffffffffffffffffffff\n        /* \"#utility.yul\":9902:9907   */\n      dup3\n        /* \"#utility.yul\":9899:9976   */\n      eq\n        /* \"#utility.yul\":9896:9999   */\n      iszero\n      tag_262\n      jumpi\n        /* \"#utility.yul\":9979:9997   */\n      tag_263\n      tag_147\n      jump\t// in\n    tag_263:\n        /* \"#utility.yul\":9896:9999   */\n    tag_262:\n        /* \"#utility.yul\":10026:10027   */\n      0x01\n        /* \"#utility.yul\":10019:10024   */\n      dup3\n        /* \"#utility.yul\":10015:10028   */\n      add\n        /* \"#utility.yul\":10008:10028   */\n      swap1\n      pop\n        /* \"#utility.yul\":9801:10034   */\n      swap2\n      swap1\n      pop\n      jump\t// out\n        /* \"#utility.yul\":10040:10188   */\n    tag_148:\n        /* \"#utility.yul\":10142:10153   */\n      0x00\n        /* \"#utility.yul\":10179:10182   */\n      dup2\n        /* \"#utility.yul\":10164:10182   */\n      swap1\n      pop\n        /* \"#utility.yul\":10040:10188   */\n      swap3\n      swap2\n      pop\n      pop\n      jump\t// out\n        /* \"#utility.yul\":10194:10571   */\n    tag_149:\n        /* \"#utility.yul\":10300:10303   */\n      0x00\n        /* \"#utility.yul\":10328:10367   */\n      tag_266\n        /* \"#utility.yul\":10361:10366   */\n      dup3\n        /* \"#utility.yul\":10328:10367   */\n      tag_143\n      jump\t// in\n    tag_266:\n        /* \"#utility.yul\":10383:10472   */\n      tag_267\n        /* \"#utility.yul\":10465:10471   */\n      dup2\n        /* \"#utility.yul\":10460:10463   */\n      dup6\n        /* \"#utility.yul\":10383:10472   */\n      tag_148\n      jump\t// in\n    tag_267:\n        /* \"#utility.yul\":10376:10472   */\n      swap4\n      pop\n        /* \"#utility.yul\":10481:10533   */\n      tag_268\n        /* \"#utility.yul\":10526:10532   */\n      dup2\n        /* \"#utility.yul\":10521:10524   */\n      dup6\n        /* \"#utility.yul\":10514:10518   */\n      0x20\n        /* \"#utility.yul\":10507:10512   */\n      dup7\n        /* \"#utility.yul\":10503:10519   */\n      add\n        /* \"#utility.yul\":10481:10533   */\n      tag_145\n      jump\t// in\n    tag_268:\n        /* \"#utility.yul\":10558:10564   */\n      dup1\n        /* \"#utility.yul\":10553:10556   */\n      dup5\n        /* \"#utility.yul\":10549:10565   */\n      add\n        /* \"#utility.yul\":10542:10565   */\n      swap2\n      pop\n        /* \"#utility.yul\":10304:10571   */\n      pop\n        /* \"#utility.yul\":10194:10571   */\n      swap3\n      swap2\n      pop\n      pop\n      jump\t// out\n        /* \"#utility.yul\":10577:10852   */\n    tag_68:\n        /* \"#utility.yul\":10709:10712   */\n      0x00\n        /* \"#utility.yul\":10731:10826   */\n      tag_270\n        /* \"#utility.yul\":10822:10825   */\n      dup3\n        /* \"#utility.yul\":10813:10819   */\n      dup5\n        /* \"#utility.yul\":10731:10826   */\n      tag_149\n      jump\t// in\n    tag_270:\n        /* \"#utility.yul\":10724:10826   */\n      swap2\n      pop\n        /* \"#utility.yul\":10843:10846   */\n      dup2\n        /* \"#utility.yul\":10836:10846   */\n      swap1\n      pop\n        /* \"#utility.yul\":10577:10852   */\n      swap3\n      swap2\n      pop\n      pop\n      jump\t// out\n        /* \"#utility.yul\":10858:11038   */\n    tag_150:\n        /* \"#utility.yul\":10906:10983   */\n      0x4e487b7100000000000000000000000000000000000000000000000000000000\n        /* \"#utility.yul\":10903:10904   */\n      0x00\n        /* \"#utility.yul\":10896:10984   */\n      mstore\n        /* \"#utility.yul\":11003:11007   */\n      0x22\n        /* \"#utility.yul\":11000:11001   */\n      0x04\n        /* \"#utility.yul\":10993:11008   */\n      mstore\n        /* \"#utility.yul\":11027:11031   */\n      0x24\n        /* \"#utility.yul\":11024:11025   */\n      0x00\n        /* \"#utility.yul\":11017:11032   */\n      revert\n        /* \"#utility.yul\":11044:11364   */\n    tag_71:\n        /* \"#utility.yul\":11088:11094   */\n      0x00\n        /* \"#utility.yul\":11125:11126   */\n      0x02\n        /* \"#utility.yul\":11119:11123   */\n      dup3\n        /* \"#utility.yul\":11115:11127   */\n      div\n        /* \"#utility.yul\":11105:11127   */\n      swap1\n      pop\n        /* \"#utility.yul\":11172:11173   */\n      0x01\n        /* \"#utility.yul\":11166:11170   */\n      dup3\n        /* \"#utility.yul\":11162:11174   */\n      and\n        /* \"#utility.yul\":11193:11211   */\n      dup1\n        /* \"#utility.yul\":11183:11264   */\n      tag_273\n      jumpi\n        /* \"#utility.yul\":11249:11253   */\n      0x7f\n        /* \"#utility.yul\":11241:11247   */\n      dup3\n        /* \"#utility.yul\":11237:11254   */\n      and\n        /* \"#utility.yul\":11227:11254   */\n      swap2\n      pop\n        /* \"#utility.yul\":11183:11264   */\n    tag_273:\n        /* \"#utility.yul\":11311:11313   */\n      0x20\n        /* \"#utility.yul\":11303:11309   */\n      dup3\n        /* \"#utility.yul\":11300:11314   */\n      lt\n        /* \"#utility.yul\":11280:11298   */\n      dup2\n        /* \"#utility.yul\":11277:11315   */\n      eq\n        /* \"#utility.yul\":11274:11358   */\n      iszero\n      tag_274\n      jumpi\n        /* \"#utility.yul\":11330:11348   */\n      tag_275\n      tag_150\n      jump\t// in\n    tag_275:\n        /* \"#utility.yul\":11274:11358   */\n    tag_274:\n        /* \"#utility.yul\":11095:11364   */\n      pop\n        /* \"#utility.yul\":11044:11364   */\n      swap2\n      swap1\n      pop\n      jump\t// out\n\n    auxdata: 0xa264697066735822122060397ee0588d0b47d7a31ecf97f70613583ee1a3f04694a366944803c34d196464736f6c634300080a0033\n}\n","bytecode":{"linkReferences":{},"object":"60806040523480156200001157600080fd5b50604051620012e4380380620012e4833981810160405281019062000037919062000129565b806000806101000a81548173ffffffffffffffffffffffffffffffffffffffff021916908373ffffffffffffffffffffffffffffffffffffffff16021790555033600160006101000a81548173ffffffffffffffffffffffffffffffffffffffff021916908373ffffffffffffffffffffffffffffffffffffffff160217905550506200015b565b600080fd5b600073ffffffffffffffffffffffffffffffffffffffff82169050919050565b6000620000f182620000c4565b9050919050565b6200010381620000e4565b81146200010f57600080fd5b50565b6000815190506200012381620000f8565b92915050565b600060208284031215620001425762000141620000bf565b5b6000620001528482850162000112565b91505092915050565b611179806200016b6000396000f3fe608060405234801561001057600080fd5b506004361061009e5760003560e01c806398fbce791161006657806398fbce7914610159578063d2c07e201461018d578063d9ff0cf1146101a9578063e71448a9146101dd578063f76ebe1c1461020d5761009e565b80630a6b2a25146100a35780631cb71ed5146100bf578063687564ae146100ef5780636c230eef1461010b5780638da5cb5b1461013b575b600080fd5b6100bd60048036038101906100b89190610b38565b61022b565b005b6100d960048036038101906100d49190610cab565b610260565b6040516100e69190610d0f565b60405180910390f35b61010960048036038101906101049190610d88565b610296565b005b61012560048036038101906101209190610b38565b6103e3565b6040516101329190610e36565b60405180910390f35b6101436105a1565b6040516101509190610e60565b60405180910390f35b610173600480360381019061016e9190610b38565b6105c5565b604051610184959493929190610f03565b60405180910390f35b6101a760048036038101906101a29190610f64565b6107a9565b005b6101c360048036038101906101be9190610b38565b6108aa565b6040516101d4959493929190610f03565b60405180910390f35b6101f760048036038101906101f29190610cab565b610a10565b6040516102049190610d0f565b60405180910390f35b610215610a45565b6040516102229190610e36565b60405180910390f35b600060036000838152602001908152602001600020905080600301600081548092919061025790611046565b91905055505050565b6004818051602081018201805184825260208301602085012081835280955050505050506000915054906101000a900460ff1681565b3373ffffffffffffffffffffffffffffffffffffffff16600160009054906101000a900473ffffffffffffffffffffffffffffffffffffffff1673ffffffffffffffffffffffffffffffffffffffff16146102f057600080fd5b6000600360006002600081548092919061030990611046565b919050558152602001908152602001600020905084816000019080519060200190610335929190610a4b565b508381600101908051906020019061034e929190610a4b565b5082816002018190555060008160030181905550818160040160006101000a81548173ffffffffffffffffffffffffffffffffffffffff021916908373ffffffffffffffffffffffffffffffffffffffff16021790555060016004866040516103b791906110cb565b908152602001604051809103902060006101000a81548160ff0219169083151502179055505050505050565b600080600360008481526020019081526020016000206040518060a001604052908160008201805461041490611111565b80601f016020809104026020016040519081016040528092919081815260200182805461044090611111565b801561048d5780601f106104625761010080835404028352916020019161048d565b820191906000526020600020905b81548152906001019060200180831161047057829003601f168201915b505050505081526020016001820180546104a690611111565b80601f01602080910402602001604051908101604052809291908181526020018280546104d290611111565b801561051f5780601f106104f45761010080835404028352916020019161051f565b820191906000526020600020905b81548152906001019060200180831161050257829003601f168201915b5050505050815260200160028201548152602001600382015481526020016004820160009054906101000a900473ffffffffffffffffffffffffffffffffffffffff1673ffffffffffffffffffffffffffffffffffffffff1673ffffffffffffffffffffffffffffffffffffffff168152505090508060400151915050919050565b60008054906101000a900473ffffffffffffffffffffffffffffffffffffffff1681565b606080600080600080600360008881526020019081526020016000206040518060a00160405290816000820180546105fc90611111565b80601f016020809104026020016040519081016040528092919081815260200182805461062890611111565b80156106755780601f1061064a57610100808354040283529160200191610675565b820191906000526020600020905b81548152906001019060200180831161065857829003601f168201915b5050505050815260200160018201805461068e90611111565b80601f01602080910402602001604051908101604052809291908181526020018280546106ba90611111565b80156107075780601f106106dc57610100808354040283529160200191610707565b820191906000526020600020905b8154815290600101906020018083116106ea57829003601f168201915b5050505050815260200160028201548152602001600382015481526020016004820160009054906101000a900473ffffffffffffffffffffffffffffffffffffffff1673ffffffffffffffffffffffffffffffffffffffff1673ffffffffffffffffffffffffffffffffffffffff1681525050905080600001518160200151826040015183606001518460800151955095509550955095505091939590929450565b3373ffffffffffffffffffffffffffffffffffffffff16600160009054906101000a900473ffffffffffffffffffffffffffffffffffffffff1673ffffffffffffffffffffffffffffffffffffffff161461080357600080fd5b600060036000878152602001908152602001600020905084816000019080519060200190610832929190610a4b565b508381600101908051906020019061084b929190610a4b565b5082816002018190555060008160030181905550818160040160006101000a81548173ffffffffffffffffffffffffffffffffffffffff021916908373ffffffffffffffffffffffffffffffffffffffff160217905550505050505050565b60036020528060005260406000206000915090508060000180546108cd90611111565b80601f01602080910402602001604051908101604052809291908181526020018280546108f990611111565b80156109465780601f1061091b57610100808354040283529160200191610946565b820191906000526020600020905b81548152906001019060200180831161092957829003601f168201915b50505050509080600101805461095b90611111565b80601f016020809104026020016040519081016040528092919081815260200182805461098790611111565b80156109d45780601f106109a9576101008083540402835291602001916109d4565b820191906000526020600020905b8154815290600101906020018083116109b757829003601f168201915b5050505050908060020154908060030154908060040160009054906101000a900473ffffffffffffffffffffffffffffffffffffffff16905085565b6000600482604051610a2291906110cb565b908152602001604051809103902060009054906101000a900460ff169050919050565b60025481565b828054610a5790611111565b90600052602060002090601f016020900481019282610a795760008555610ac0565b82601f10610a9257805160ff1916838001178555610ac0565b82800160010185558215610ac0579182015b82811115610abf578251825591602001919060010190610aa4565b5b509050610acd9190610ad1565b5090565b5b80821115610aea576000816000905550600101610ad2565b5090565b6000604051905090565b600080fd5b600080fd5b6000819050919050565b610b1581610b02565b8114610b2057600080fd5b50565b600081359050610b3281610b0c565b92915050565b600060208284031215610b4e57610b4d610af8565b5b6000610b5c84828501610b23565b91505092915050565b600080fd5b600080fd5b6000601f19601f8301169050919050565b7f4e487b7100000000000000000000000000000000000000000000000000000000600052604160045260246000fd5b610bb882610b6f565b810181811067ffffffffffffffff82111715610bd757610bd6610b80565b5b80604052505050565b6000610bea610aee565b9050610bf68282610baf565b919050565b600067ffffffffffffffff821115610c1657610c15610b80565b5b610c1f82610b6f565b9050602081019050919050565b82818337600083830152505050565b6000610c4e610c4984610bfb565b610be0565b905082815260208101848484011115610c6a57610c69610b6a565b5b610c75848285610c2c565b509392505050565b600082601f830112610c9257610c91610b65565b5b8135610ca2848260208601610c3b565b91505092915050565b600060208284031215610cc157610cc0610af8565b5b600082013567ffffffffffffffff811115610cdf57610cde610afd565b5b610ceb84828501610c7d565b91505092915050565b60008115159050919050565b610d0981610cf4565b82525050565b6000602082019050610d246000830184610d00565b92915050565b600073ffffffffffffffffffffffffffffffffffffffff82169050919050565b6000610d5582610d2a565b9050919050565b610d6581610d4a565b8114610d7057600080fd5b50565b600081359050610d8281610d5c565b92915050565b60008060008060808587031215610da257610da1610af8565b5b600085013567ffffffffffffffff811115610dc057610dbf610afd565b5b610dcc87828801610c7d565b945050602085013567ffffffffffffffff811115610ded57610dec610afd565b5b610df987828801610c7d565b9350506040610e0a87828801610b23565b9250506060610e1b87828801610d73565b91505092959194509250565b610e3081610b02565b82525050565b6000602082019050610e4b6000830184610e27565b92915050565b610e5a81610d4a565b82525050565b6000602082019050610e756000830184610e51565b92915050565b600081519050919050565b600082825260208201905092915050565b60005b83811015610eb5578082015181840152602081019050610e9a565b83811115610ec4576000848401525b50505050565b6000610ed582610e7b565b610edf8185610e86565b9350610eef818560208601610e97565b610ef881610b6f565b840191505092915050565b600060a0820190508181036000830152610f1d8188610eca565b90508181036020830152610f318187610eca565b9050610f406040830186610e27565b610f4d6060830185610e27565b610f5a6080830184610e51565b9695505050505050565b600080600080600060a08688031215610f8057610f7f610af8565b5b6000610f8e88828901610b23565b955050602086013567ffffffffffffffff811115610faf57610fae610afd565b5b610fbb88828901610c7d565b945050604086013567ffffffffffffffff811115610fdc57610fdb610afd565b5b610fe888828901610c7d565b9350506060610ff988828901610b23565b925050608061100a88828901610d73565b9150509295509295909350565b7f4e487b7100000000000000000000000000000000000000000000000000000000600052601160045260246000fd5b600061105182610b02565b91507fffffffffffffffffffffffffffffffffffffffffffffffffffffffffffffffff82141561108457611083611017565b5b600182019050919050565b600081905092915050565b60006110a582610e7b565b6110af818561108f565b93506110bf818560208601610e97565b80840191505092915050565b60006110d7828461109a565b915081905092915050565b7f4e487b7100000000000000000000000000000000000000000000000000000000600052602260045260246000fd5b6000600282049050600182168061112957607f821691505b6020821081141561113d5761113c6110e2565b5b5091905056fea264697066735822122060397ee0588d0b47d7a31ecf97f70613583ee1a3f04694a366944803c34d196464736f6c634300080a0033","opcodes":"PUSH1 0x80 PUSH1 0x40 MSTORE CALLVALUE DUP1 ISZERO PUSH3 0x11 JUMPI PUSH1 0x0 DUP1 REVERT JUMPDEST POP PUSH1 0x40 MLOAD PUSH3 0x12E4 CODESIZE SUB DUP1 PUSH3 0x12E4 DUP4 CODECOPY DUP2 DUP2 ADD PUSH1 0x40 MSTORE DUP2 ADD SWAP1 PUSH3 0x37 SWAP2 SWAP1 PUSH3 0x129 JUMP JUMPDEST DUP1 PUSH1 0x0 DUP1 PUSH2 0x100 EXP DUP2 SLOAD DUP2 PUSH20 0xFFFFFFFFFFFFFFFFFFFFFFFFFFFFFFFFFFFFFFFF MUL NOT AND SWAP1 DUP4 PUSH20 0xFFFFFFFFFFFFFFFFFFFFFFFFFFFFFFFFFFFFFFFF AND MUL OR SWAP1 SSTORE POP CALLER PUSH1 0x1 PUSH1 0x0 PUSH2 0x100 EXP DUP2 SLOAD DUP2 PUSH20 0xFFFFFFFFFFFFFFFFFFFFFFFFFFFFFFFFFFFFFFFF MUL NOT AND SWAP1 DUP4 PUSH20 0xFFFFFFFFFFFFFFFFFFFFFFFFFFFFFFFFFFFFFFFF AND MUL OR SWAP1 SSTORE POP POP PUSH3 0x15B JUMP JUMPDEST PUSH1 0x0 DUP1 REVERT JUMPDEST PUSH1 0x0 PUSH20 0xFFFFFFFFFFFFFFFFFFFFFFFFFFFFFFFFFFFFFFFF DUP3 AND SWAP1 POP SWAP2 SWAP1 POP JUMP JUMPDEST PUSH1 0x0 PUSH3 0xF1 DUP3 PUSH3 0xC4 JUMP JUMPDEST SWAP1 POP SWAP2 SWAP1 POP JUMP JUMPDEST PUSH3 0x103 DUP2 PUSH3 0xE4 JUMP JUMPDEST DUP2 EQ PUSH3 0x10F JUMPI PUSH1 0x0 DUP1 REVERT JUMPDEST POP JUMP JUMPDEST PUSH1 0x0 DUP2 MLOAD SWAP1 POP PUSH3 0x123 DUP2 PUSH3 0xF8 JUMP JUMPDEST SWAP3 SWAP2 POP POP JUMP JUMPDEST PUSH1 0x0 PUSH1 0x20 DUP3 DUP5 SUB SLT ISZERO PUSH3 0x142 JUMPI PUSH3 0x141 PUSH3 0xBF JUMP JUMPDEST JUMPDEST PUSH1 0x0 PUSH3 0x152 DUP5 DUP3 DUP6 ADD PUSH3 0x112 JUMP JUMPDEST SWAP2 POP POP SWAP3 SWAP2 POP POP JUMP JUMPDEST PUSH2 0x1179 DUP1 PUSH3 0x16B PUSH1 0x0 CODECOPY PUSH1 0x0 RETURN INVALID PUSH1 0x80 PUSH1 0x40 MSTORE CALLVALUE DUP1 ISZERO PUSH2 0x10 JUMPI PUSH1 0x0 DUP1 REVERT JUMPDEST POP PUSH1 0x4 CALLDATASIZE LT PUSH2 0x9E JUMPI PUSH1 0x0 CALLDATALOAD PUSH1 0xE0 SHR DUP1 PUSH4 0x98FBCE79 GT PUSH2 0x66 JUMPI DUP1 PUSH4 0x98FBCE79 EQ PUSH2 0x159 JUMPI DUP1 PUSH4 0xD2C07E20 EQ PUSH2 0x18D JUMPI DUP1 PUSH4 0xD9FF0CF1 EQ PUSH2 0x1A9 JUMPI DUP1 PUSH4 0xE71448A9 EQ PUSH2 0x1DD JUMPI DUP1 PUSH4 0xF76EBE1C EQ PUSH2 0x20D JUMPI PUSH2 0x9E JUMP JUMPDEST DUP1 PUSH4 0xA6B2A25 EQ PUSH2 0xA3 JUMPI DUP1 PUSH4 0x1CB71ED5 EQ PUSH2 0xBF JUMPI DUP1 PUSH4 0x687564AE EQ PUSH2 0xEF JUMPI DUP1 PUSH4 0x6C230EEF EQ PUSH2 0x10B JUMPI DUP1 PUSH4 0x8DA5CB5B EQ PUSH2 0x13B JUMPI JUMPDEST PUSH1 0x0 DUP1 REVERT JUMPDEST PUSH2 0xBD PUSH1 0x4 DUP1 CALLDATASIZE SUB DUP2 ADD SWAP1 PUSH2 0xB8 SWAP2 SWAP1 PUSH2 0xB38 JUMP JUMPDEST PUSH2 0x22B JUMP JUMPDEST STOP JUMPDEST PUSH2 0xD9 PUSH1 0x4 DUP1 CALLDATASIZE SUB DUP2 ADD SWAP1 PUSH2 0xD4 SWAP2 SWAP1 PUSH2 0xCAB JUMP JUMPDEST PUSH2 0x260 JUMP JUMPDEST PUSH1 0x40 MLOAD PUSH2 0xE6 SWAP2 SWAP1 PUSH2 0xD0F JUMP JUMPDEST PUSH1 0x40 MLOAD DUP1 SWAP2 SUB SWAP1 RETURN JUMPDEST PUSH2 0x109 PUSH1 0x4 DUP1 CALLDATASIZE SUB DUP2 ADD SWAP1 PUSH2 0x104 SWAP2 SWAP1 PUSH2 0xD88 JUMP JUMPDEST PUSH2 0x296 JUMP JUMPDEST STOP JUMPDEST PUSH2 0x125 PUSH1 0x4 DUP1 CALLDATASIZE SUB DUP2 ADD SWAP1 PUSH2 0x120 SWAP2 SWAP1 PUSH2 0xB38 JUMP JUMPDEST PUSH2 0x3E3 JUMP JUMPDEST PUSH1 0x40 MLOAD PUSH2 0x132 SWAP2 SWAP1 PUSH2 0xE36 JUMP JUMPDEST PUSH1 0x40 MLOAD DUP1 SWAP2 SUB SWAP1 RETURN JUMPDEST PUSH2 0x143 PUSH2 0x5A1 JUMP JUMPDEST PUSH1 0x40 MLOAD PUSH2 0x150 SWAP2 SWAP1 PUSH2 0xE60 JUMP JUMPDEST PUSH1 0x40 MLOAD DUP1 SWAP2 SUB SWAP1 RETURN JUMPDEST PUSH2 0x173 PUSH1 0x4 DUP1 CALLDATASIZE SUB DUP2 ADD SWAP1 PUSH2 0x16E SWAP2 SWAP1 PUSH2 0xB38 JUMP JUMPDEST PUSH2 0x5C5 JUMP JUMPDEST PUSH1 0x40 MLOAD PUSH2 0x184 SWAP6 SWAP5 SWAP4 SWAP3 SWAP2 SWAP1 PUSH2 0xF03 JUMP JUMPDEST PUSH1 0x40 MLOAD DUP1 SWAP2 SUB SWAP1 RETURN JUMPDEST PUSH2 0x1A7 PUSH1 0x4 DUP1 CALLDATASIZE SUB DUP2 ADD SWAP1 PUSH2 0x1A2 SWAP2 SWAP1 PUSH2 0xF64 JUMP JUMPDEST PUSH2 0x7A9 JUMP JUMPDEST STOP JUMPDEST PUSH2 0x1C3 PUSH1 0x4 DUP1 CALLDATASIZE SUB DUP2 ADD SWAP1 PUSH2 0x1BE SWAP2 SWAP1 PUSH2 0xB38 JUMP JUMPDEST PUSH2 0x8AA JUMP JUMPDEST PUSH1 0x40 MLOAD PUSH2 0x1D4 SWAP6 SWAP5 SWAP4 SWAP3 SWAP2 SWAP1 PUSH2 0xF03 JUMP JUMPDEST PUSH1 0x40 MLOAD DUP1 SWAP2 SUB SWAP1 RETURN JUMPDEST PUSH2 0x1F7 PUSH1 0x4 DUP1 CALLDATASIZE SUB DUP2 ADD SWAP1 PUSH2 0x1F2 SWAP2 SWAP1 PUSH2 0xCAB JUMP JUMPDEST PUSH2 0xA10 JUMP JUMPDEST PUSH1 0x40 MLOAD PUSH2 0x204 SWAP2 SWAP1 PUSH2 0xD0F JUMP JUMPDEST PUSH1 0x40 MLOAD DUP1 SWAP2 SUB SWAP1 RETURN JUMPDEST PUSH2 0x215 PUSH2 0xA45 JUMP JUMPDEST PUSH1 0x40 MLOAD PUSH2 0x222 SWAP2 SWAP1 PUSH2 0xE36 JUMP JUMPDEST PUSH1 0x40 MLOAD DUP1 SWAP2 SUB SWAP1 RETURN JUMPDEST PUSH1 0x0 PUSH1 0x3 PUSH1 0x0 DUP4 DUP2 MSTORE PUSH1 0x20 ADD SWAP1 DUP2 MSTORE PUSH1 0x20 ADD PUSH1 0x0 KECCAK256 SWAP1 POP DUP1 PUSH1 0x3 ADD PUSH1 0x0 DUP2 SLOAD DUP1 SWAP3 SWAP2 SWAP1 PUSH2 0x257 SWAP1 PUSH2 0x1046 JUMP JUMPDEST SWAP2 SWAP1 POP SSTORE POP POP POP JUMP JUMPDEST PUSH1 0x4 DUP2 DUP1 MLOAD PUSH1 0x20 DUP2 ADD DUP3 ADD DUP1 MLOAD DUP5 DUP3 MSTORE PUSH1 0x20 DUP4 ADD PUSH1 0x20 DUP6 ADD KECCAK256 DUP2 DUP4 MSTORE DUP1 SWAP6 POP POP POP POP POP POP PUSH1 0x0 SWAP2 POP SLOAD SWAP1 PUSH2 0x100 EXP SWAP1 DIV PUSH1 0xFF AND DUP2 JUMP JUMPDEST CALLER PUSH20 0xFFFFFFFFFFFFFFFFFFFFFFFFFFFFFFFFFFFFFFFF AND PUSH1 0x1 PUSH1 0x0 SWAP1 SLOAD SWAP1 PUSH2 0x100 EXP SWAP1 DIV PUSH20 0xFFFFFFFFFFFFFFFFFFFFFFFFFFFFFFFFFFFFFFFF AND PUSH20 0xFFFFFFFFFFFFFFFFFFFFFFFFFFFFFFFFFFFFFFFF AND EQ PUSH2 0x2F0 JUMPI PUSH1 0x0 DUP1 REVERT JUMPDEST PUSH1 0x0 PUSH1 0x3 PUSH1 0x0 PUSH1 0x2 PUSH1 0x0 DUP2 SLOAD DUP1 SWAP3 SWAP2 SWAP1 PUSH2 0x309 SWAP1 PUSH2 0x1046 JUMP JUMPDEST SWAP2 SWAP1 POP SSTORE DUP2 MSTORE PUSH1 0x20 ADD SWAP1 DUP2 MSTORE PUSH1 0x20 ADD PUSH1 0x0 KECCAK256 SWAP1 POP DUP5 DUP2 PUSH1 0x0 ADD SWAP1 DUP1 MLOAD SWAP1 PUSH1 0x20 ADD SWAP1 PUSH2 0x335 SWAP3 SWAP2 SWAP1 PUSH2 0xA4B JUMP JUMPDEST POP DUP4 DUP2 PUSH1 0x1 ADD SWAP1 DUP1 MLOAD SWAP1 PUSH1 0x20 ADD SWAP1 PUSH2 0x34E SWAP3 SWAP2 SWAP1 PUSH2 0xA4B JUMP JUMPDEST POP DUP3 DUP2 PUSH1 0x2 ADD DUP2 SWAP1 SSTORE POP PUSH1 0x0 DUP2 PUSH1 0x3 ADD DUP2 SWAP1 SSTORE POP DUP2 DUP2 PUSH1 0x4 ADD PUSH1 0x0 PUSH2 0x100 EXP DUP2 SLOAD DUP2 PUSH20 0xFFFFFFFFFFFFFFFFFFFFFFFFFFFFFFFFFFFFFFFF MUL NOT AND SWAP1 DUP4 PUSH20 0xFFFFFFFFFFFFFFFFFFFFFFFFFFFFFFFFFFFFFFFF AND MUL OR SWAP1 SSTORE POP PUSH1 0x1 PUSH1 0x4 DUP7 PUSH1 0x40 MLOAD PUSH2 0x3B7 SWAP2 SWAP1 PUSH2 0x10CB JUMP JUMPDEST SWAP1 DUP2 MSTORE PUSH1 0x20 ADD PUSH1 0x40 MLOAD DUP1 SWAP2 SUB SWAP1 KECCAK256 PUSH1 0x0 PUSH2 0x100 EXP DUP2 SLOAD DUP2 PUSH1 0xFF MUL NOT AND SWAP1 DUP4 ISZERO ISZERO MUL OR SWAP1 SSTORE POP POP POP POP POP POP JUMP JUMPDEST PUSH1 0x0 DUP1 PUSH1 0x3 PUSH1 0x0 DUP5 DUP2 MSTORE PUSH1 0x20 ADD SWAP1 DUP2 MSTORE PUSH1 0x20 ADD PUSH1 0x0 KECCAK256 PUSH1 0x40 MLOAD DUP1 PUSH1 0xA0 ADD PUSH1 0x40 MSTORE SWAP1 DUP2 PUSH1 0x0 DUP3 ADD DUP1 SLOAD PUSH2 0x414 SWAP1 PUSH2 0x1111 JUMP JUMPDEST DUP1 PUSH1 0x1F ADD PUSH1 0x20 DUP1 SWAP2 DIV MUL PUSH1 0x20 ADD PUSH1 0x40 MLOAD SWAP1 DUP2 ADD PUSH1 0x40 MSTORE DUP1 SWAP3 SWAP2 SWAP1 DUP2 DUP2 MSTORE PUSH1 0x20 ADD DUP3 DUP1 SLOAD PUSH2 0x440 SWAP1 PUSH2 0x1111 JUMP JUMPDEST DUP1 ISZERO PUSH2 0x48D JUMPI DUP1 PUSH1 0x1F LT PUSH2 0x462 JUMPI PUSH2 0x100 DUP1 DUP4 SLOAD DIV MUL DUP4 MSTORE SWAP2 PUSH1 0x20 ADD SWAP2 PUSH2 0x48D JUMP JUMPDEST DUP3 ADD SWAP2 SWAP1 PUSH1 0x0 MSTORE PUSH1 0x20 PUSH1 0x0 KECCAK256 SWAP1 JUMPDEST DUP2 SLOAD DUP2 MSTORE SWAP1 PUSH1 0x1 ADD SWAP1 PUSH1 0x20 ADD DUP1 DUP4 GT PUSH2 0x470 JUMPI DUP3 SWAP1 SUB PUSH1 0x1F AND DUP3 ADD SWAP2 JUMPDEST POP POP POP POP POP DUP2 MSTORE PUSH1 0x20 ADD PUSH1 0x1 DUP3 ADD DUP1 SLOAD PUSH2 0x4A6 SWAP1 PUSH2 0x1111 JUMP JUMPDEST DUP1 PUSH1 0x1F ADD PUSH1 0x20 DUP1 SWAP2 DIV MUL PUSH1 0x20 ADD PUSH1 0x40 MLOAD SWAP1 DUP2 ADD PUSH1 0x40 MSTORE DUP1 SWAP3 SWAP2 SWAP1 DUP2 DUP2 MSTORE PUSH1 0x20 ADD DUP3 DUP1 SLOAD PUSH2 0x4D2 SWAP1 PUSH2 0x1111 JUMP JUMPDEST DUP1 ISZERO PUSH2 0x51F JUMPI DUP1 PUSH1 0x1F LT PUSH2 0x4F4 JUMPI PUSH2 0x100 DUP1 DUP4 SLOAD DIV MUL DUP4 MSTORE SWAP2 PUSH1 0x20 ADD SWAP2 PUSH2 0x51F JUMP JUMPDEST DUP3 ADD SWAP2 SWAP1 PUSH1 0x0 MSTORE PUSH1 0x20 PUSH1 0x0 KECCAK256 SWAP1 JUMPDEST DUP2 SLOAD DUP2 MSTORE SWAP1 PUSH1 0x1 ADD SWAP1 PUSH1 0x20 ADD DUP1 DUP4 GT PUSH2 0x502 JUMPI DUP3 SWAP1 SUB PUSH1 0x1F AND DUP3 ADD SWAP2 JUMPDEST POP POP POP POP POP DUP2 MSTORE PUSH1 0x20 ADD PUSH1 0x2 DUP3 ADD SLOAD DUP2 MSTORE PUSH1 0x20 ADD PUSH1 0x3 DUP3 ADD SLOAD DUP2 MSTORE PUSH1 0x20 ADD PUSH1 0x4 DUP3 ADD PUSH1 0x0 SWAP1 SLOAD SWAP1 PUSH2 0x100 EXP SWAP1 DIV PUSH20 0xFFFFFFFFFFFFFFFFFFFFFFFFFFFFFFFFFFFFFFFF AND PUSH20 0xFFFFFFFFFFFFFFFFFFFFFFFFFFFFFFFFFFFFFFFF AND PUSH20 0xFFFFFFFFFFFFFFFFFFFFFFFFFFFFFFFFFFFFFFFF AND DUP2 MSTORE POP POP SWAP1 POP DUP1 PUSH1 0x40 ADD MLOAD SWAP2 POP POP SWAP2 SWAP1 POP JUMP JUMPDEST PUSH1 0x0 DUP1 SLOAD SWAP1 PUSH2 0x100 EXP SWAP1 DIV PUSH20 0xFFFFFFFFFFFFFFFFFFFFFFFFFFFFFFFFFFFFFFFF AND DUP2 JUMP JUMPDEST PUSH1 0x60 DUP1 PUSH1 0x0 DUP1 PUSH1 0x0 DUP1 PUSH1 0x3 PUSH1 0x0 DUP9 DUP2 MSTORE PUSH1 0x20 ADD SWAP1 DUP2 MSTORE PUSH1 0x20 ADD PUSH1 0x0 KECCAK256 PUSH1 0x40 MLOAD DUP1 PUSH1 0xA0 ADD PUSH1 0x40 MSTORE SWAP1 DUP2 PUSH1 0x0 DUP3 ADD DUP1 SLOAD PUSH2 0x5FC SWAP1 PUSH2 0x1111 JUMP JUMPDEST DUP1 PUSH1 0x1F ADD PUSH1 0x20 DUP1 SWAP2 DIV MUL PUSH1 0x20 ADD PUSH1 0x40 MLOAD SWAP1 DUP2 ADD PUSH1 0x40 MSTORE DUP1 SWAP3 SWAP2 SWAP1 DUP2 DUP2 MSTORE PUSH1 0x20 ADD DUP3 DUP1 SLOAD PUSH2 0x628 SWAP1 PUSH2 0x1111 JUMP JUMPDEST DUP1 ISZERO PUSH2 0x675 JUMPI DUP1 PUSH1 0x1F LT PUSH2 0x64A JUMPI PUSH2 0x100 DUP1 DUP4 SLOAD DIV MUL DUP4 MSTORE SWAP2 PUSH1 0x20 ADD SWAP2 PUSH2 0x675 JUMP JUMPDEST DUP3 ADD SWAP2 SWAP1 PUSH1 0x0 MSTORE PUSH1 0x20 PUSH1 0x0 KECCAK256 SWAP1 JUMPDEST DUP2 SLOAD DUP2 MSTORE SWAP1 PUSH1 0x1 ADD SWAP1 PUSH1 0x20 ADD DUP1 DUP4 GT PUSH2 0x658 JUMPI DUP3 SWAP1 SUB PUSH1 0x1F AND DUP3 ADD SWAP2 JUMPDEST POP POP POP POP POP DUP2 MSTORE PUSH1 0x20 ADD PUSH1 0x1 DUP3 ADD DUP1 SLOAD PUSH2 0x68E SWAP1 PUSH2 0x1111 JUMP JUMPDEST DUP1 PUSH1 0x1F ADD PUSH1 0x20 DUP1 SWAP2 DIV MUL PUSH1 0x20 ADD PUSH1 0x40 MLOAD SWAP1 DUP2 ADD PUSH1 0x40 MSTORE DUP1 SWAP3 SWAP2 SWAP1 DUP2 DUP2 MSTORE PUSH1 0x20 ADD DUP3 DUP1 SLOAD PUSH2 0x6BA SWAP1 PUSH2 0x1111 JUMP JUMPDEST DUP1 ISZERO PUSH2 0x707 JUMPI DUP1 PUSH1 0x1F LT PUSH2 0x6DC JUMPI PUSH2 0x100 DUP1 DUP4 SLOAD DIV MUL DUP4 MSTORE SWAP2 PUSH1 0x20 ADD SWAP2 PUSH2 0x707 JUMP JUMPDEST DUP3 ADD SWAP2 SWAP1 PUSH1 0x0 MSTORE PUSH1 0x20 PUSH1 0x0 KECCAK256 SWAP1 JUMPDEST DUP2 SLOAD DUP2 MSTORE SWAP1 PUSH1 0x1 ADD SWAP1 PUSH1 0x20 ADD DUP1 DUP4 GT PUSH2 0x6EA JUMPI DUP3 SWAP1 SUB PUSH1 0x1F AND DUP3 ADD SWAP2 JUMPDEST POP POP POP POP POP DUP2 MSTORE PUSH1 0x20 ADD PUSH1 0x2 DUP3 ADD SLOAD DUP2 MSTORE PUSH1 0x20 ADD PUSH1 0x3 DUP3 ADD SLOAD DUP2 MSTORE PUSH1 0x20 ADD PUSH1 0x4 DUP3 ADD PUSH1 0x0 SWAP1 SLOAD SWAP1 PUSH2 0x100 EXP SWAP1 DIV PUSH20 0xFFFFFFFFFFFFFFFFFFFFFFFFFFFFFFFFFFFFFFFF AND PUSH20 0xFFFFFFFFFFFFFFFFFFFFFFFFFFFFFFFFFFFFFFFF AND PUSH20 0xFFFFFFFFFFFFFFFFFFFFFFFFFFFFFFFFFFFFFFFF AND DUP2 MSTORE POP POP SWAP1 POP DUP1 PUSH1 0x0 ADD MLOAD DUP2 PUSH1 0x20 ADD MLOAD DUP3 PUSH1 0x40 ADD MLOAD DUP4 PUSH1 0x60 ADD MLOAD DUP5 PUSH1 0x80 ADD MLOAD SWAP6 POP SWAP6 POP SWAP6 POP SWAP6 POP SWAP6 POP POP SWAP2 SWAP4 SWAP6 SWAP1 SWAP3 SWAP5 POP JUMP JUMPDEST CALLER PUSH20 0xFFFFFFFFFFFFFFFFFFFFFFFFFFFFFFFFFFFFFFFF AND PUSH1 0x1 PUSH1 0x0 SWAP1 SLOAD SWAP1 PUSH2 0x100 EXP SWAP1 DIV PUSH20 0xFFFFFFFFFFFFFFFFFFFFFFFFFFFFFFFFFFFFFFFF AND PUSH20 0xFFFFFFFFFFFFFFFFFFFFFFFFFFFFFFFFFFFFFFFF AND EQ PUSH2 0x803 JUMPI PUSH1 0x0 DUP1 REVERT JUMPDEST PUSH1 0x0 PUSH1 0x3 PUSH1 0x0 DUP8 DUP2 MSTORE PUSH1 0x20 ADD SWAP1 DUP2 MSTORE PUSH1 0x20 ADD PUSH1 0x0 KECCAK256 SWAP1 POP DUP5 DUP2 PUSH1 0x0 ADD SWAP1 DUP1 MLOAD SWAP1 PUSH1 0x20 ADD SWAP1 PUSH2 0x832 SWAP3 SWAP2 SWAP1 PUSH2 0xA4B JUMP JUMPDEST POP DUP4 DUP2 PUSH1 0x1 ADD SWAP1 DUP1 MLOAD SWAP1 PUSH1 0x20 ADD SWAP1 PUSH2 0x84B SWAP3 SWAP2 SWAP1 PUSH2 0xA4B JUMP JUMPDEST POP DUP3 DUP2 PUSH1 0x2 ADD DUP2 SWAP1 SSTORE POP PUSH1 0x0 DUP2 PUSH1 0x3 ADD DUP2 SWAP1 SSTORE POP DUP2 DUP2 PUSH1 0x4 ADD PUSH1 0x0 PUSH2 0x100 EXP DUP2 SLOAD DUP2 PUSH20 0xFFFFFFFFFFFFFFFFFFFFFFFFFFFFFFFFFFFFFFFF MUL NOT AND SWAP1 DUP4 PUSH20 0xFFFFFFFFFFFFFFFFFFFFFFFFFFFFFFFFFFFFFFFF AND MUL OR SWAP1 SSTORE POP POP POP POP POP POP POP JUMP JUMPDEST PUSH1 0x3 PUSH1 0x20 MSTORE DUP1 PUSH1 0x0 MSTORE PUSH1 0x40 PUSH1 0x0 KECCAK256 PUSH1 0x0 SWAP2 POP SWAP1 POP DUP1 PUSH1 0x0 ADD DUP1 SLOAD PUSH2 0x8CD SWAP1 PUSH2 0x1111 JUMP JUMPDEST DUP1 PUSH1 0x1F ADD PUSH1 0x20 DUP1 SWAP2 DIV MUL PUSH1 0x20 ADD PUSH1 0x40 MLOAD SWAP1 DUP2 ADD PUSH1 0x40 MSTORE DUP1 SWAP3 SWAP2 SWAP1 DUP2 DUP2 MSTORE PUSH1 0x20 ADD DUP3 DUP1 SLOAD PUSH2 0x8F9 SWAP1 PUSH2 0x1111 JUMP JUMPDEST DUP1 ISZERO PUSH2 0x946 JUMPI DUP1 PUSH1 0x1F LT PUSH2 0x91B JUMPI PUSH2 0x100 DUP1 DUP4 SLOAD DIV MUL DUP4 MSTORE SWAP2 PUSH1 0x20 ADD SWAP2 PUSH2 0x946 JUMP JUMPDEST DUP3 ADD SWAP2 SWAP1 PUSH1 0x0 MSTORE PUSH1 0x20 PUSH1 0x0 KECCAK256 SWAP1 JUMPDEST DUP2 SLOAD DUP2 MSTORE SWAP1 PUSH1 0x1 ADD SWAP1 PUSH1 0x20 ADD DUP1 DUP4 GT PUSH2 0x929 JUMPI DUP3 SWAP1 SUB PUSH1 0x1F AND DUP3 ADD SWAP2 JUMPDEST POP POP POP POP POP SWAP1 DUP1 PUSH1 0x1 ADD DUP1 SLOAD PUSH2 0x95B SWAP1 PUSH2 0x1111 JUMP JUMPDEST DUP1 PUSH1 0x1F ADD PUSH1 0x20 DUP1 SWAP2 DIV MUL PUSH1 0x20 ADD PUSH1 0x40 MLOAD SWAP1 DUP2 ADD PUSH1 0x40 MSTORE DUP1 SWAP3 SWAP2 SWAP1 DUP2 DUP2 MSTORE PUSH1 0x20 ADD DUP3 DUP1 SLOAD PUSH2 0x987 SWAP1 PUSH2 0x1111 JUMP JUMPDEST DUP1 ISZERO PUSH2 0x9D4 JUMPI DUP1 PUSH1 0x1F LT PUSH2 0x9A9 JUMPI PUSH2 0x100 DUP1 DUP4 SLOAD DIV MUL DUP4 MSTORE SWAP2 PUSH1 0x20 ADD SWAP2 PUSH2 0x9D4 JUMP JUMPDEST DUP3 ADD SWAP2 SWAP1 PUSH1 0x0 MSTORE PUSH1 0x20 PUSH1 0x0 KECCAK256 SWAP1 JUMPDEST DUP2 SLOAD DUP2 MSTORE SWAP1 PUSH1 0x1 ADD SWAP1 PUSH1 0x20 ADD DUP1 DUP4 GT PUSH2 0x9B7 JUMPI DUP3 SWAP1 SUB PUSH1 0x1F AND DUP3 ADD SWAP2 JUMPDEST POP POP POP POP POP SWAP1 DUP1 PUSH1 0x2 ADD SLOAD SWAP1 DUP1 PUSH1 0x3 ADD SLOAD SWAP1 DUP1 PUSH1 0x4 ADD PUSH1 0x0 SWAP1 SLOAD SWAP1 PUSH2 0x100 EXP SWAP1 DIV PUSH20 0xFFFFFFFFFFFFFFFFFFFFFFFFFFFFFFFFFFFFFFFF AND SWAP1 POP DUP6 JUMP JUMPDEST PUSH1 0x0 PUSH1 0x4 DUP3 PUSH1 0x40 MLOAD PUSH2 0xA22 SWAP2 SWAP1 PUSH2 0x10CB JUMP JUMPDEST SWAP1 DUP2 MSTORE PUSH1 0x20 ADD PUSH1 0x40 MLOAD DUP1 SWAP2 SUB SWAP1 KECCAK256 PUSH1 0x0 SWAP1 SLOAD SWAP1 PUSH2 0x100 EXP SWAP1 DIV PUSH1 0xFF AND SWAP1 POP SWAP2 SWAP1 POP JUMP JUMPDEST PUSH1 0x2 SLOAD DUP2 JUMP JUMPDEST DUP3 DUP1 SLOAD PUSH2 0xA57 SWAP1 PUSH2 0x1111 JUMP JUMPDEST SWAP1 PUSH1 0x0 MSTORE PUSH1 0x20 PUSH1 0x0 KECCAK256 SWAP1 PUSH1 0x1F ADD PUSH1 0x20 SWAP1 DIV DUP2 ADD SWAP3 DUP3 PUSH2 0xA79 JUMPI PUSH1 0x0 DUP6 SSTORE PUSH2 0xAC0 JUMP JUMPDEST DUP3 PUSH1 0x1F LT PUSH2 0xA92 JUMPI DUP1 MLOAD PUSH1 0xFF NOT AND DUP4 DUP1 ADD OR DUP6 SSTORE PUSH2 0xAC0 JUMP JUMPDEST DUP3 DUP1 ADD PUSH1 0x1 ADD DUP6 SSTORE DUP3 ISZERO PUSH2 0xAC0 JUMPI SWAP2 DUP3 ADD JUMPDEST DUP3 DUP2 GT ISZERO PUSH2 0xABF JUMPI DUP3 MLOAD DUP3 SSTORE SWAP2 PUSH1 0x20 ADD SWAP2 SWAP1 PUSH1 0x1 ADD SWAP1 PUSH2 0xAA4 JUMP JUMPDEST JUMPDEST POP SWAP1 POP PUSH2 0xACD SWAP2 SWAP1 PUSH2 0xAD1 JUMP JUMPDEST POP SWAP1 JUMP JUMPDEST JUMPDEST DUP1 DUP3 GT ISZERO PUSH2 0xAEA JUMPI PUSH1 0x0 DUP2 PUSH1 0x0 SWAP1 SSTORE POP PUSH1 0x1 ADD PUSH2 0xAD2 JUMP JUMPDEST POP SWAP1 JUMP JUMPDEST PUSH1 0x0 PUSH1 0x40 MLOAD SWAP1 POP SWAP1 JUMP JUMPDEST PUSH1 0x0 DUP1 REVERT JUMPDEST PUSH1 0x0 DUP1 REVERT JUMPDEST PUSH1 0x0 DUP2 SWAP1 POP SWAP2 SWAP1 POP JUMP JUMPDEST PUSH2 0xB15 DUP2 PUSH2 0xB02 JUMP JUMPDEST DUP2 EQ PUSH2 0xB20 JUMPI PUSH1 0x0 DUP1 REVERT JUMPDEST POP JUMP JUMPDEST PUSH1 0x0 DUP2 CALLDATALOAD SWAP1 POP PUSH2 0xB32 DUP2 PUSH2 0xB0C JUMP JUMPDEST SWAP3 SWAP2 POP POP JUMP JUMPDEST PUSH1 0x0 PUSH1 0x20 DUP3 DUP5 SUB SLT ISZERO PUSH2 0xB4E JUMPI PUSH2 0xB4D PUSH2 0xAF8 JUMP JUMPDEST JUMPDEST PUSH1 0x0 PUSH2 0xB5C DUP5 DUP3 DUP6 ADD PUSH2 0xB23 JUMP JUMPDEST SWAP2 POP POP SWAP3 SWAP2 POP POP JUMP JUMPDEST PUSH1 0x0 DUP1 REVERT JUMPDEST PUSH1 0x0 DUP1 REVERT JUMPDEST PUSH1 0x0 PUSH1 0x1F NOT PUSH1 0x1F DUP4 ADD AND SWAP1 POP SWAP2 SWAP1 POP JUMP JUMPDEST PUSH32 0x4E487B7100000000000000000000000000000000000000000000000000000000 PUSH1 0x0 MSTORE PUSH1 0x41 PUSH1 0x4 MSTORE PUSH1 0x24 PUSH1 0x0 REVERT JUMPDEST PUSH2 0xBB8 DUP3 PUSH2 0xB6F JUMP JUMPDEST DUP2 ADD DUP2 DUP2 LT PUSH8 0xFFFFFFFFFFFFFFFF DUP3 GT OR ISZERO PUSH2 0xBD7 JUMPI PUSH2 0xBD6 PUSH2 0xB80 JUMP JUMPDEST JUMPDEST DUP1 PUSH1 0x40 MSTORE POP POP POP JUMP JUMPDEST PUSH1 0x0 PUSH2 0xBEA PUSH2 0xAEE JUMP JUMPDEST SWAP1 POP PUSH2 0xBF6 DUP3 DUP3 PUSH2 0xBAF JUMP JUMPDEST SWAP2 SWAP1 POP JUMP JUMPDEST PUSH1 0x0 PUSH8 0xFFFFFFFFFFFFFFFF DUP3 GT ISZERO PUSH2 0xC16 JUMPI PUSH2 0xC15 PUSH2 0xB80 JUMP JUMPDEST JUMPDEST PUSH2 0xC1F DUP3 PUSH2 0xB6F JUMP JUMPDEST SWAP1 POP PUSH1 0x20 DUP2 ADD SWAP1 POP SWAP2 SWAP1 POP JUMP JUMPDEST DUP3 DUP2 DUP4 CALLDATACOPY PUSH1 0x0 DUP4 DUP4 ADD MSTORE POP POP POP JUMP JUMPDEST PUSH1 0x0 PUSH2 0xC4E PUSH2 0xC49 DUP5 PUSH2 0xBFB JUMP JUMPDEST PUSH2 0xBE0 JUMP JUMPDEST SWAP1 POP DUP3 DUP2 MSTORE PUSH1 0x20 DUP2 ADD DUP5 DUP5 DUP5 ADD GT ISZERO PUSH2 0xC6A JUMPI PUSH2 0xC69 PUSH2 0xB6A JUMP JUMPDEST JUMPDEST PUSH2 0xC75 DUP5 DUP3 DUP6 PUSH2 0xC2C JUMP JUMPDEST POP SWAP4 SWAP3 POP POP POP JUMP JUMPDEST PUSH1 0x0 DUP3 PUSH1 0x1F DUP4 ADD SLT PUSH2 0xC92 JUMPI PUSH2 0xC91 PUSH2 0xB65 JUMP JUMPDEST JUMPDEST DUP2 CALLDATALOAD PUSH2 0xCA2 DUP5 DUP3 PUSH1 0x20 DUP7 ADD PUSH2 0xC3B JUMP JUMPDEST SWAP2 POP POP SWAP3 SWAP2 POP POP JUMP JUMPDEST PUSH1 0x0 PUSH1 0x20 DUP3 DUP5 SUB SLT ISZERO PUSH2 0xCC1 JUMPI PUSH2 0xCC0 PUSH2 0xAF8 JUMP JUMPDEST JUMPDEST PUSH1 0x0 DUP3 ADD CALLDATALOAD PUSH8 0xFFFFFFFFFFFFFFFF DUP2 GT ISZERO PUSH2 0xCDF JUMPI PUSH2 0xCDE PUSH2 0xAFD JUMP JUMPDEST JUMPDEST PUSH2 0xCEB DUP5 DUP3 DUP6 ADD PUSH2 0xC7D JUMP JUMPDEST SWAP2 POP POP SWAP3 SWAP2 POP POP JUMP JUMPDEST PUSH1 0x0 DUP2 ISZERO ISZERO SWAP1 POP SWAP2 SWAP1 POP JUMP JUMPDEST PUSH2 0xD09 DUP2 PUSH2 0xCF4 JUMP JUMPDEST DUP3 MSTORE POP POP JUMP JUMPDEST PUSH1 0x0 PUSH1 0x20 DUP3 ADD SWAP1 POP PUSH2 0xD24 PUSH1 0x0 DUP4 ADD DUP5 PUSH2 0xD00 JUMP JUMPDEST SWAP3 SWAP2 POP POP JUMP JUMPDEST PUSH1 0x0 PUSH20 0xFFFFFFFFFFFFFFFFFFFFFFFFFFFFFFFFFFFFFFFF DUP3 AND SWAP1 POP SWAP2 SWAP1 POP JUMP JUMPDEST PUSH1 0x0 PUSH2 0xD55 DUP3 PUSH2 0xD2A JUMP JUMPDEST SWAP1 POP SWAP2 SWAP1 POP JUMP JUMPDEST PUSH2 0xD65 DUP2 PUSH2 0xD4A JUMP JUMPDEST DUP2 EQ PUSH2 0xD70 JUMPI PUSH1 0x0 DUP1 REVERT JUMPDEST POP JUMP JUMPDEST PUSH1 0x0 DUP2 CALLDATALOAD SWAP1 POP PUSH2 0xD82 DUP2 PUSH2 0xD5C JUMP JUMPDEST SWAP3 SWAP2 POP POP JUMP JUMPDEST PUSH1 0x0 DUP1 PUSH1 0x0 DUP1 PUSH1 0x80 DUP6 DUP8 SUB SLT ISZERO PUSH2 0xDA2 JUMPI PUSH2 0xDA1 PUSH2 0xAF8 JUMP JUMPDEST JUMPDEST PUSH1 0x0 DUP6 ADD CALLDATALOAD PUSH8 0xFFFFFFFFFFFFFFFF DUP2 GT ISZERO PUSH2 0xDC0 JUMPI PUSH2 0xDBF PUSH2 0xAFD JUMP JUMPDEST JUMPDEST PUSH2 0xDCC DUP8 DUP3 DUP9 ADD PUSH2 0xC7D JUMP JUMPDEST SWAP5 POP POP PUSH1 0x20 DUP6 ADD CALLDATALOAD PUSH8 0xFFFFFFFFFFFFFFFF DUP2 GT ISZERO PUSH2 0xDED JUMPI PUSH2 0xDEC PUSH2 0xAFD JUMP JUMPDEST JUMPDEST PUSH2 0xDF9 DUP8 DUP3 DUP9 ADD PUSH2 0xC7D JUMP JUMPDEST SWAP4 POP POP PUSH1 0x40 PUSH2 0xE0A DUP8 DUP3 DUP9 ADD PUSH2 0xB23 JUMP JUMPDEST SWAP3 POP POP PUSH1 0x60 PUSH2 0xE1B DUP8 DUP3 DUP9 ADD PUSH2 0xD73 JUMP JUMPDEST SWAP2 POP POP SWAP3 SWAP6 SWAP2 SWAP5 POP SWAP3 POP JUMP JUMPDEST PUSH2 0xE30 DUP2 PUSH2 0xB02 JUMP JUMPDEST DUP3 MSTORE POP POP JUMP JUMPDEST PUSH1 0x0 PUSH1 0x20 DUP3 ADD SWAP1 POP PUSH2 0xE4B PUSH1 0x0 DUP4 ADD DUP5 PUSH2 0xE27 JUMP JUMPDEST SWAP3 SWAP2 POP POP JUMP JUMPDEST PUSH2 0xE5A DUP2 PUSH2 0xD4A JUMP JUMPDEST DUP3 MSTORE POP POP JUMP JUMPDEST PUSH1 0x0 PUSH1 0x20 DUP3 ADD SWAP1 POP PUSH2 0xE75 PUSH1 0x0 DUP4 ADD DUP5 PUSH2 0xE51 JUMP JUMPDEST SWAP3 SWAP2 POP POP JUMP JUMPDEST PUSH1 0x0 DUP2 MLOAD SWAP1 POP SWAP2 SWAP1 POP JUMP JUMPDEST PUSH1 0x0 DUP3 DUP3 MSTORE PUSH1 0x20 DUP3 ADD SWAP1 POP SWAP3 SWAP2 POP POP JUMP JUMPDEST PUSH1 0x0 JUMPDEST DUP4 DUP2 LT ISZERO PUSH2 0xEB5 JUMPI DUP1 DUP3 ADD MLOAD DUP2 DUP5 ADD MSTORE PUSH1 0x20 DUP2 ADD SWAP1 POP PUSH2 0xE9A JUMP JUMPDEST DUP4 DUP2 GT ISZERO PUSH2 0xEC4 JUMPI PUSH1 0x0 DUP5 DUP5 ADD MSTORE JUMPDEST POP POP POP POP JUMP JUMPDEST PUSH1 0x0 PUSH2 0xED5 DUP3 PUSH2 0xE7B JUMP JUMPDEST PUSH2 0xEDF DUP2 DUP6 PUSH2 0xE86 JUMP JUMPDEST SWAP4 POP PUSH2 0xEEF DUP2 DUP6 PUSH1 0x20 DUP7 ADD PUSH2 0xE97 JUMP JUMPDEST PUSH2 0xEF8 DUP2 PUSH2 0xB6F JUMP JUMPDEST DUP5 ADD SWAP2 POP POP SWAP3 SWAP2 POP POP JUMP JUMPDEST PUSH1 0x0 PUSH1 0xA0 DUP3 ADD SWAP1 POP DUP2 DUP2 SUB PUSH1 0x0 DUP4 ADD MSTORE PUSH2 0xF1D DUP2 DUP9 PUSH2 0xECA JUMP JUMPDEST SWAP1 POP DUP2 DUP2 SUB PUSH1 0x20 DUP4 ADD MSTORE PUSH2 0xF31 DUP2 DUP8 PUSH2 0xECA JUMP JUMPDEST SWAP1 POP PUSH2 0xF40 PUSH1 0x40 DUP4 ADD DUP7 PUSH2 0xE27 JUMP JUMPDEST PUSH2 0xF4D PUSH1 0x60 DUP4 ADD DUP6 PUSH2 0xE27 JUMP JUMPDEST PUSH2 0xF5A PUSH1 0x80 DUP4 ADD DUP5 PUSH2 0xE51 JUMP JUMPDEST SWAP7 SWAP6 POP POP POP POP POP POP JUMP JUMPDEST PUSH1 0x0 DUP1 PUSH1 0x0 DUP1 PUSH1 0x0 PUSH1 0xA0 DUP7 DUP9 SUB SLT ISZERO PUSH2 0xF80 JUMPI PUSH2 0xF7F PUSH2 0xAF8 JUMP JUMPDEST JUMPDEST PUSH1 0x0 PUSH2 0xF8E DUP9 DUP3 DUP10 ADD PUSH2 0xB23 JUMP JUMPDEST SWAP6 POP POP PUSH1 0x20 DUP7 ADD CALLDATALOAD PUSH8 0xFFFFFFFFFFFFFFFF DUP2 GT ISZERO PUSH2 0xFAF JUMPI PUSH2 0xFAE PUSH2 0xAFD JUMP JUMPDEST JUMPDEST PUSH2 0xFBB DUP9 DUP3 DUP10 ADD PUSH2 0xC7D JUMP JUMPDEST SWAP5 POP POP PUSH1 0x40 DUP7 ADD CALLDATALOAD PUSH8 0xFFFFFFFFFFFFFFFF DUP2 GT ISZERO PUSH2 0xFDC JUMPI PUSH2 0xFDB PUSH2 0xAFD JUMP JUMPDEST JUMPDEST PUSH2 0xFE8 DUP9 DUP3 DUP10 ADD PUSH2 0xC7D JUMP JUMPDEST SWAP4 POP POP PUSH1 0x60 PUSH2 0xFF9 DUP9 DUP3 DUP10 ADD PUSH2 0xB23 JUMP JUMPDEST SWAP3 POP POP PUSH1 0x80 PUSH2 0x100A DUP9 DUP3 DUP10 ADD PUSH2 0xD73 JUMP JUMPDEST SWAP2 POP POP SWAP3 SWAP6 POP SWAP3 SWAP6 SWAP1 SWAP4 POP JUMP JUMPDEST PUSH32 0x4E487B7100000000000000000000000000000000000000000000000000000000 PUSH1 0x0 MSTORE PUSH1 0x11 PUSH1 0x4 MSTORE PUSH1 0x24 PUSH1 0x0 REVERT JUMPDEST PUSH1 0x0 PUSH2 0x1051 DUP3 PUSH2 0xB02 JUMP JUMPDEST SWAP2 POP PUSH32 0xFFFFFFFFFFFFFFFFFFFFFFFFFFFFFFFFFFFFFFFFFFFFFFFFFFFFFFFFFFFFFFFF DUP3 EQ ISZERO PUSH2 0x1084 JUMPI PUSH2 0x1083 PUSH2 0x1017 JUMP JUMPDEST JUMPDEST PUSH1 0x1 DUP3 ADD SWAP1 POP SWAP2 SWAP1 POP JUMP JUMPDEST PUSH1 0x0 DUP2 SWAP1 POP SWAP3 SWAP2 POP POP JUMP JUMPDEST PUSH1 0x0 PUSH2 0x10A5 DUP3 PUSH2 0xE7B JUMP JUMPDEST PUSH2 0x10AF DUP2 DUP6 PUSH2 0x108F JUMP JUMPDEST SWAP4 POP PUSH2 0x10BF DUP2 DUP6 PUSH1 0x20 DUP7 ADD PUSH2 0xE97 JUMP JUMPDEST DUP1 DUP5 ADD SWAP2 POP POP SWAP3 SWAP2 POP POP JUMP JUMPDEST PUSH1 0x0 PUSH2 0x10D7 DUP3 DUP5 PUSH2 0x109A JUMP JUMPDEST SWAP2 POP DUP2 SWAP1 POP SWAP3 SWAP2 POP POP JUMP JUMPDEST PUSH32 0x4E487B7100000000000000000000000000000000000000000000000000000000 PUSH1 0x0 MSTORE PUSH1 0x22 PUSH1 0x4 MSTORE PUSH1 0x24 PUSH1 0x0 REVERT JUMPDEST PUSH1 0x0 PUSH1 0x2 DUP3 DIV SWAP1 POP PUSH1 0x1 DUP3 AND DUP1 PUSH2 0x1129 JUMPI PUSH1 0x7F DUP3 AND SWAP2 POP JUMPDEST PUSH1 0x20 DUP3 LT DUP2 EQ ISZERO PUSH2 0x113D JUMPI PUSH2 0x113C PUSH2 0x10E2 JUMP JUMPDEST JUMPDEST POP SWAP2 SWAP1 POP JUMP INVALID LOG2 PUSH5 0x6970667358 0x22 SLT KECCAK256 PUSH1 0x39 PUSH31 0xE0588D0B47D7A31ECF97F70613583EE1A3F04694A366944803C34D19646473 PUSH16 0x6C634300080A00330000000000000000 "},"gasEstimates":{"creation":{"codeDepositCost":"894600","executionCost":"infinite","totalCost":"infinite"},"external":{"addBook(string,string,uint256,address)":"infinite","bookInformations(uint256)":"infinite","getBookInformation(uint256)":"infinite","getBookPrice(uint256)":"infinite","getIsStoredBook(string)":"infinite","isStoredBook(string)":"infinite","modifyBook(uint256,string,string,uint256,address)":"infinite","numBook()":"2517","owner()":"2600","tokenCreated(uint256)":"infinite"}},"methodIdentifiers":{"addBook(string,string,uint256,address)":"687564ae","bookInformations(uint256)":"d9ff0cf1","getBookInformation(uint256)":"98fbce79","getBookPrice(uint256)":"6c230eef","getIsStoredBook(string)":"e71448a9","isStoredBook(string)":"1cb71ed5","modifyBook(uint256,string,string,uint256,address)":"d2c07e20","numBook()":"f76ebe1c","owner()":"8da5cb5b","tokenCreated(uint256)":"0a6b2a25"}},"storageLayout":{"storage":[{"astId":487,"contract":"devs/BookManager.sol:BookManager","label":"owner","offset":0,"slot":"0","type":"t_address"},{"astId":489,"contract":"devs/BookManager.sol:BookManager","label":"contractAddress","offset":0,"slot":"1","type":"t_address"},{"astId":491,"contract":"devs/BookManager.sol:BookManager","label":"numBook","offset":0,"slot":"2","type":"t_uint256"},{"astId":496,"contract":"devs/BookManager.sol:BookManager","label":"bookInformations","offset":0,"slot":"3","type":"t_mapping(t_uint256,t_struct(BookInformation)450_storage)"},{"astId":500,"contract":"devs/BookManager.sol:BookManager","label":"isStoredBook","offset":0,"slot":"4","type":"t_mapping(t_string_memory_ptr,t_bool)"}],"types":{"t_address":{"encoding":"inplace","label":"address","numberOfBytes":"20"},"t_bool":{"encoding":"inplace","label":"bool","numberOfBytes":"1"},"t_mapping(t_string_memory_ptr,t_bool)":{"encoding":"mapping","key":"t_string_memory_ptr","label":"mapping(string => bool)","numberOfBytes":"32","value":"t_bool"},"t_mapping(t_uint256,t_struct(BookInformation)450_storage)":{"encoding":"mapping","key":"t_uint256","label":"mapping(uint256 => struct BookManagerInterface.BookInformation)","numberOfBytes":"32","value":"t_struct(BookInformation)450_storage"},"t_string_memory_ptr":{"encoding":"bytes","label":"string","numberOfBytes":"32"},"t_string_storage":{"encoding":"bytes","label":"string","numberOfBytes":"32"},"t_struct(BookInformation)450_storage":{"encoding":"inplace","label":"struct BookManagerInterface.BookInformation","members":[{"astId":441,"contract":"devs/BookManager.sol:BookManager","label":"bookId","offset":0,"slot":"0","type":"t_string_storage"},{"astId":443,"contract":"devs/BookManager.sol:BookManager","label":"title","offset":0,"slot":"1","type":"t_string_storage"},{"astId":445,"contract":"devs/BookManager.sol:BookManager","label":"price","offset":0,"slot":"2","type":"t_uint256"},{"astId":447,"contract":"devs/BookManager.sol:BookManager","label":"numToken","offset":0,"slot":"3","type":"t_uint256"},{"astId":449,"contract":"devs/BookManager.sol:BookManager","label":"authorAddress","offset":0,"slot":"4","type":"t_address"}],"numberOfBytes":"160"},"t_uint256":{"encoding":"inplace","label":"uint256","numberOfBytes":"32"}}},"userdoc":{"kind":"user","methods":{},"version":1}}