{"abi":[{"inputs":[{"internalType":"address","name":"_ownerAddress","type":"address"}],"stateMutability":"nonpayable","type":"constructor"},{"anonymous":false,"inputs":[{"indexed":true,"internalType":"uint256","name":"_index","type":"uint256"}],"name":"AddBook","type":"event"},{"anonymous":false,"inputs":[{"indexed":true,"internalType":"uint256","name":"_index","type":"uint256"}],"name":"ModifyBook","type":"event"},{"inputs":[{"internalType":"string","name":"_bookId","type":"string"},{"internalType":"string","name":"_title","type":"string"},{"internalType":"uint256","name":"_price","type":"uint256"},{"internalType":"address","name":"_authorAddress","type":"address"}],"name":"addBook","outputs":[],"stateMutability":"nonpayable","type":"function"},{"inputs":[{"internalType":"uint256","name":"","type":"uint256"}],"name":"bookInformations","outputs":[{"internalType":"string","name":"bookId","type":"string"},{"internalType":"string","name":"title","type":"string"},{"internalType":"uint256","name":"price","type":"uint256"},{"internalType":"uint256","name":"numToken","type":"uint256"},{"internalType":"address","name":"authorAddress","type":"address"}],"stateMutability":"view","type":"function"},{"inputs":[{"internalType":"uint256","name":"_bookIndex","type":"uint256"},{"internalType":"address","name":"_authorAddress","type":"address"}],"name":"changeAuthorAddress","outputs":[],"stateMutability":"nonpayable","type":"function"},{"inputs":[{"internalType":"uint256","name":"_bookIndex","type":"uint256"}],"name":"getBookInformation","outputs":[{"internalType":"string","name":"","type":"string"},{"internalType":"string","name":"","type":"string"},{"internalType":"uint256","name":"","type":"uint256"},{"internalType":"uint256","name":"","type":"uint256"},{"internalType":"address","name":"","type":"address"}],"stateMutability":"view","type":"function"},{"inputs":[{"internalType":"uint256","name":"_bookIndex","type":"uint256"}],"name":"getBookPrice","outputs":[{"internalType":"uint256","name":"","type":"uint256"}],"stateMutability":"view","type":"function"},{"inputs":[{"internalType":"string","name":"_bookId","type":"string"}],"name":"getIsStoredBook","outputs":[{"internalType":"bool","name":"","type":"bool"}],"stateMutability":"view","type":"function"},{"inputs":[{"internalType":"string","name":"","type":"string"}],"name":"isStoredBook","outputs":[{"internalType":"bool","name":"","type":"bool"}],"stateMutability":"view","type":"function"},{"inputs":[{"internalType":"uint256","name":"_bookIndex","type":"uint256"},{"internalType":"string","name":"_bookid","type":"string"},{"internalType":"string","name":"_title","type":"string"},{"internalType":"uint256","name":"_price","type":"uint256"}],"name":"modifyBook","outputs":[],"stateMutability":"nonpayable","type":"function"},{"inputs":[],"name":"numBook","outputs":[{"internalType":"uint256","name":"","type":"uint256"}],"stateMutability":"view","type":"function"},{"inputs":[],"name":"owner","outputs":[{"internalType":"address","name":"","type":"address"}],"stateMutability":"view","type":"function"},{"inputs":[{"internalType":"uint256","name":"_bookIndex","type":"uint256"}],"name":"tokenCreated","outputs":[],"stateMutability":"nonpayable","type":"function"}],"devdoc":{"kind":"dev","methods":{},"version":1},"evm":{"assembly":"    /* \"devs/BookManager.sol\":768:3222   */\n  mstore(0x40, 0x80)\n    /* \"devs/BookManager.sol\":1143:1254   */\n  callvalue\n  dup1\n  iszero\n  tag_1\n  jumpi\n  0x00\n  dup1\n  revert\ntag_1:\n  pop\n  mload(0x40)\n  sub(codesize, bytecodeSize)\n  dup1\n  bytecodeSize\n  dup4\n  codecopy\n  dup2\n  dup2\n  add\n  0x40\n  mstore\n  dup2\n  add\n  swap1\n  tag_2\n  swap2\n  swap1\n  tag_3\n  jump\t// in\ntag_2:\n    /* \"devs/BookManager.sol\":1196:1209   */\n  dup1\n    /* \"devs/BookManager.sol\":1188:1193   */\n  0x00\n  dup1\n    /* \"devs/BookManager.sol\":1188:1209   */\n  0x0100\n  exp\n  dup2\n  sload\n  dup2\n  0xffffffffffffffffffffffffffffffffffffffff\n  mul\n  not\n  and\n  swap1\n  dup4\n  0xffffffffffffffffffffffffffffffffffffffff\n  and\n  mul\n  or\n  swap1\n  sstore\n  pop\n    /* \"devs/BookManager.sol\":1237:1247   */\n  caller\n    /* \"devs/BookManager.sol\":1219:1234   */\n  0x01\n  0x00\n    /* \"devs/BookManager.sol\":1219:1247   */\n  0x0100\n  exp\n  dup2\n  sload\n  dup2\n  0xffffffffffffffffffffffffffffffffffffffff\n  mul\n  not\n  and\n  swap1\n  dup4\n  0xffffffffffffffffffffffffffffffffffffffff\n  and\n  mul\n  or\n  swap1\n  sstore\n  pop\n    /* \"devs/BookManager.sol\":1143:1254   */\n  pop\n    /* \"devs/BookManager.sol\":768:3222   */\n  jump(tag_6)\n    /* \"#utility.yul\":88:205   */\ntag_8:\n    /* \"#utility.yul\":197:198   */\n  0x00\n    /* \"#utility.yul\":194:195   */\n  dup1\n    /* \"#utility.yul\":187:199   */\n  revert\n    /* \"#utility.yul\":334:460   */\ntag_10:\n    /* \"#utility.yul\":371:378   */\n  0x00\n    /* \"#utility.yul\":411:453   */\n  0xffffffffffffffffffffffffffffffffffffffff\n    /* \"#utility.yul\":404:409   */\n  dup3\n    /* \"#utility.yul\":400:454   */\n  and\n    /* \"#utility.yul\":389:454   */\n  swap1\n  pop\n    /* \"#utility.yul\":334:460   */\n  swap2\n  swap1\n  pop\n  jump\t// out\n    /* \"#utility.yul\":466:562   */\ntag_11:\n    /* \"#utility.yul\":503:510   */\n  0x00\n    /* \"#utility.yul\":532:556   */\n  tag_20\n    /* \"#utility.yul\":550:555   */\n  dup3\n    /* \"#utility.yul\":532:556   */\n  tag_10\n  jump\t// in\ntag_20:\n    /* \"#utility.yul\":521:556   */\n  swap1\n  pop\n    /* \"#utility.yul\":466:562   */\n  swap2\n  swap1\n  pop\n  jump\t// out\n    /* \"#utility.yul\":568:690   */\ntag_12:\n    /* \"#utility.yul\":641:665   */\n  tag_22\n    /* \"#utility.yul\":659:664   */\n  dup2\n    /* \"#utility.yul\":641:665   */\n  tag_11\n  jump\t// in\ntag_22:\n    /* \"#utility.yul\":634:639   */\n  dup2\n    /* \"#utility.yul\":631:666   */\n  eq\n    /* \"#utility.yul\":621:684   */\n  tag_23\n  jumpi\n    /* \"#utility.yul\":680:681   */\n  0x00\n    /* \"#utility.yul\":677:678   */\n  dup1\n    /* \"#utility.yul\":670:682   */\n  revert\n    /* \"#utility.yul\":621:684   */\ntag_23:\n    /* \"#utility.yul\":568:690   */\n  pop\n  jump\t// out\n    /* \"#utility.yul\":696:839   */\ntag_13:\n    /* \"#utility.yul\":753:758   */\n  0x00\n    /* \"#utility.yul\":784:790   */\n  dup2\n    /* \"#utility.yul\":778:791   */\n  mload\n    /* \"#utility.yul\":769:791   */\n  swap1\n  pop\n    /* \"#utility.yul\":800:833   */\n  tag_25\n    /* \"#utility.yul\":827:832   */\n  dup2\n    /* \"#utility.yul\":800:833   */\n  tag_12\n  jump\t// in\ntag_25:\n    /* \"#utility.yul\":696:839   */\n  swap3\n  swap2\n  pop\n  pop\n  jump\t// out\n    /* \"#utility.yul\":845:1196   */\ntag_3:\n    /* \"#utility.yul\":915:921   */\n  0x00\n    /* \"#utility.yul\":964:966   */\n  0x20\n    /* \"#utility.yul\":952:961   */\n  dup3\n    /* \"#utility.yul\":943:950   */\n  dup5\n    /* \"#utility.yul\":939:962   */\n  sub\n    /* \"#utility.yul\":935:967   */\n  slt\n    /* \"#utility.yul\":932:1051   */\n  iszero\n  tag_27\n  jumpi\n    /* \"#utility.yul\":970:1049   */\n  tag_28\n  tag_8\n  jump\t// in\ntag_28:\n    /* \"#utility.yul\":932:1051   */\ntag_27:\n    /* \"#utility.yul\":1090:1091   */\n  0x00\n    /* \"#utility.yul\":1115:1179   */\n  tag_29\n    /* \"#utility.yul\":1171:1178   */\n  dup5\n    /* \"#utility.yul\":1162:1168   */\n  dup3\n    /* \"#utility.yul\":1151:1160   */\n  dup6\n    /* \"#utility.yul\":1147:1169   */\n  add\n    /* \"#utility.yul\":1115:1179   */\n  tag_13\n  jump\t// in\ntag_29:\n    /* \"#utility.yul\":1105:1179   */\n  swap2\n  pop\n    /* \"#utility.yul\":1061:1189   */\n  pop\n    /* \"#utility.yul\":845:1196   */\n  swap3\n  swap2\n  pop\n  pop\n  jump\t// out\n    /* \"devs/BookManager.sol\":768:3222   */\ntag_6:\n  dataSize(sub_0)\n  dup1\n  dataOffset(sub_0)\n  0x00\n  codecopy\n  0x00\n  return\nstop\n\nsub_0: assembly {\n        /* \"devs/BookManager.sol\":768:3222   */\n      mstore(0x40, 0x80)\n      callvalue\n      dup1\n      iszero\n      tag_1\n      jumpi\n      0x00\n      dup1\n      revert\n    tag_1:\n      pop\n      jumpi(tag_2, lt(calldatasize, 0x04))\n      shr(0xe0, calldataload(0x00))\n      dup1\n      0x8da5cb5b\n      gt\n      tag_14\n      jumpi\n      dup1\n      0x8da5cb5b\n      eq\n      tag_8\n      jumpi\n      dup1\n      0x98fbce79\n      eq\n      tag_9\n      jumpi\n      dup1\n      0xa54925dd\n      eq\n      tag_10\n      jumpi\n      dup1\n      0xd9ff0cf1\n      eq\n      tag_11\n      jumpi\n      dup1\n      0xe71448a9\n      eq\n      tag_12\n      jumpi\n      dup1\n      0xf76ebe1c\n      eq\n      tag_13\n      jumpi\n      jump(tag_2)\n    tag_14:\n      dup1\n      0x0a6b2a25\n      eq\n      tag_3\n      jumpi\n      dup1\n      0x0cc21200\n      eq\n      tag_4\n      jumpi\n      dup1\n      0x1cb71ed5\n      eq\n      tag_5\n      jumpi\n      dup1\n      0x687564ae\n      eq\n      tag_6\n      jumpi\n      dup1\n      0x6c230eef\n      eq\n      tag_7\n      jumpi\n    tag_2:\n      0x00\n      dup1\n      revert\n        /* \"devs/BookManager.sol\":3049:3220   */\n    tag_3:\n      tag_15\n      0x04\n      dup1\n      calldatasize\n      sub\n      dup2\n      add\n      swap1\n      tag_16\n      swap2\n      swap1\n      tag_17\n      jump\t// in\n    tag_16:\n      tag_18\n      jump\t// in\n    tag_15:\n      stop\n        /* \"devs/BookManager.sol\":1668:2017   */\n    tag_4:\n      tag_19\n      0x04\n      dup1\n      calldatasize\n      sub\n      dup2\n      add\n      swap1\n      tag_20\n      swap2\n      swap1\n      tag_21\n      jump\t// in\n    tag_20:\n      tag_22\n      jump\t// in\n    tag_19:\n      stop\n        /* \"devs/BookManager.sol\":1000:1043   */\n    tag_5:\n      tag_23\n      0x04\n      dup1\n      calldatasize\n      sub\n      dup2\n      add\n      swap1\n      tag_24\n      swap2\n      swap1\n      tag_25\n      jump\t// in\n    tag_24:\n      tag_26\n      jump\t// in\n    tag_23:\n      mload(0x40)\n      tag_27\n      swap2\n      swap1\n      tag_28\n      jump\t// in\n    tag_27:\n      mload(0x40)\n      dup1\n      swap2\n      sub\n      swap1\n      return\n        /* \"devs/BookManager.sol\":1260:1662   */\n    tag_6:\n      tag_29\n      0x04\n      dup1\n      calldatasize\n      sub\n      dup2\n      add\n      swap1\n      tag_30\n      swap2\n      swap1\n      tag_31\n      jump\t// in\n    tag_30:\n      tag_32\n      jump\t// in\n    tag_29:\n      stop\n        /* \"devs/BookManager.sol\":2263:2453   */\n    tag_7:\n      tag_33\n      0x04\n      dup1\n      calldatasize\n      sub\n      dup2\n      add\n      swap1\n      tag_34\n      swap2\n      swap1\n      tag_17\n      jump\t// in\n    tag_34:\n      tag_35\n      jump\t// in\n    tag_33:\n      mload(0x40)\n      tag_36\n      swap2\n      swap1\n      tag_37\n      jump\t// in\n    tag_36:\n      mload(0x40)\n      dup1\n      swap2\n      sub\n      swap1\n      return\n        /* \"devs/BookManager.sol\":819:839   */\n    tag_8:\n      tag_38\n      tag_39\n      jump\t// in\n    tag_38:\n      mload(0x40)\n      tag_40\n      swap2\n      swap1\n      tag_41\n      jump\t// in\n    tag_40:\n      mload(0x40)\n      dup1\n      swap2\n      sub\n      swap1\n      return\n        /* \"devs/BookManager.sol\":2459:2917   */\n    tag_9:\n      tag_42\n      0x04\n      dup1\n      calldatasize\n      sub\n      dup2\n      add\n      swap1\n      tag_43\n      swap2\n      swap1\n      tag_17\n      jump\t// in\n    tag_43:\n      tag_44\n      jump\t// in\n    tag_42:\n      mload(0x40)\n      tag_45\n      swap6\n      swap5\n      swap4\n      swap3\n      swap2\n      swap1\n      tag_46\n      jump\t// in\n    tag_45:\n      mload(0x40)\n      dup1\n      swap2\n      sub\n      swap1\n      return\n        /* \"devs/BookManager.sol\":2023:2231   */\n    tag_10:\n      tag_47\n      0x04\n      dup1\n      calldatasize\n      sub\n      dup2\n      add\n      swap1\n      tag_48\n      swap2\n      swap1\n      tag_49\n      jump\t// in\n    tag_48:\n      tag_50\n      jump\t// in\n    tag_47:\n      stop\n        /* \"devs/BookManager.sol\":908:964   */\n    tag_11:\n      tag_51\n      0x04\n      dup1\n      calldatasize\n      sub\n      dup2\n      add\n      swap1\n      tag_52\n      swap2\n      swap1\n      tag_17\n      jump\t// in\n    tag_52:\n      tag_53\n      jump\t// in\n    tag_51:\n      mload(0x40)\n      tag_54\n      swap6\n      swap5\n      swap4\n      swap3\n      swap2\n      swap1\n      tag_46\n      jump\t// in\n    tag_54:\n      mload(0x40)\n      dup1\n      swap2\n      sub\n      swap1\n      return\n        /* \"devs/BookManager.sol\":2923:3043   */\n    tag_12:\n      tag_55\n      0x04\n      dup1\n      calldatasize\n      sub\n      dup2\n      add\n      swap1\n      tag_56\n      swap2\n      swap1\n      tag_25\n      jump\t// in\n    tag_56:\n      tag_57\n      jump\t// in\n    tag_55:\n      mload(0x40)\n      tag_58\n      swap2\n      swap1\n      tag_28\n      jump\t// in\n    tag_58:\n      mload(0x40)\n      dup1\n      swap2\n      sub\n      swap1\n      return\n        /* \"devs/BookManager.sol\":883:902   */\n    tag_13:\n      tag_59\n      tag_60\n      jump\t// in\n    tag_59:\n      mload(0x40)\n      tag_61\n      swap2\n      swap1\n      tag_37\n      jump\t// in\n    tag_61:\n      mload(0x40)\n      dup1\n      swap2\n      sub\n      swap1\n      return\n        /* \"devs/BookManager.sol\":3049:3220   */\n    tag_18:\n        /* \"devs/BookManager.sol\":3107:3146   */\n      0x00\n        /* \"devs/BookManager.sol\":3149:3165   */\n      0x03\n        /* \"devs/BookManager.sol\":3149:3177   */\n      0x00\n        /* \"devs/BookManager.sol\":3166:3176   */\n      dup4\n        /* \"devs/BookManager.sol\":3149:3177   */\n      dup2\n      mstore\n      0x20\n      add\n      swap1\n      dup2\n      mstore\n      0x20\n      add\n      0x00\n      keccak256\n        /* \"devs/BookManager.sol\":3107:3177   */\n      swap1\n      pop\n        /* \"devs/BookManager.sol\":3187:3202   */\n      dup1\n        /* \"devs/BookManager.sol\":3187:3211   */\n      0x03\n      add\n      0x00\n        /* \"devs/BookManager.sol\":3187:3213   */\n      dup2\n      sload\n      dup1\n      swap3\n      swap2\n      swap1\n      tag_63\n      swap1\n      tag_64\n      jump\t// in\n    tag_63:\n      swap2\n      swap1\n      pop\n      sstore\n      pop\n        /* \"devs/BookManager.sol\":3097:3220   */\n      pop\n        /* \"devs/BookManager.sol\":3049:3220   */\n      pop\n      jump\t// out\n        /* \"devs/BookManager.sol\":1668:2017   */\n    tag_22:\n        /* \"devs/BookManager.sol\":1108:1118   */\n      caller\n        /* \"devs/BookManager.sol\":1089:1118   */\n      0xffffffffffffffffffffffffffffffffffffffff\n      and\n        /* \"devs/BookManager.sol\":1089:1104   */\n      0x01\n      0x00\n      swap1\n      sload\n      swap1\n      0x0100\n      exp\n      swap1\n      div\n      0xffffffffffffffffffffffffffffffffffffffff\n      and\n        /* \"devs/BookManager.sol\":1089:1118   */\n      0xffffffffffffffffffffffffffffffffffffffff\n      and\n      eq\n        /* \"devs/BookManager.sol\":1081:1119   */\n      tag_66\n      jumpi\n      0x00\n      dup1\n      revert\n    tag_66:\n        /* \"devs/BookManager.sol\":1835:1863   */\n      0x00\n        /* \"devs/BookManager.sol\":1866:1882   */\n      0x03\n        /* \"devs/BookManager.sol\":1866:1894   */\n      0x00\n        /* \"devs/BookManager.sol\":1883:1893   */\n      dup7\n        /* \"devs/BookManager.sol\":1866:1894   */\n      dup2\n      mstore\n      0x20\n      add\n      swap1\n      dup2\n      mstore\n      0x20\n      add\n      0x00\n      keccak256\n        /* \"devs/BookManager.sol\":1835:1894   */\n      swap1\n      pop\n        /* \"devs/BookManager.sol\":1918:1925   */\n      dup4\n        /* \"devs/BookManager.sol\":1904:1908   */\n      dup2\n        /* \"devs/BookManager.sol\":1904:1915   */\n      0x00\n      add\n        /* \"devs/BookManager.sol\":1904:1925   */\n      swap1\n      dup1\n      mload\n      swap1\n      0x20\n      add\n      swap1\n      tag_68\n      swap3\n      swap2\n      swap1\n      tag_69\n      jump\t// in\n    tag_68:\n      pop\n        /* \"devs/BookManager.sol\":1948:1954   */\n      dup3\n        /* \"devs/BookManager.sol\":1935:1939   */\n      dup2\n        /* \"devs/BookManager.sol\":1935:1945   */\n      0x01\n      add\n        /* \"devs/BookManager.sol\":1935:1954   */\n      swap1\n      dup1\n      mload\n      swap1\n      0x20\n      add\n      swap1\n      tag_70\n      swap3\n      swap2\n      swap1\n      tag_69\n      jump\t// in\n    tag_70:\n      pop\n        /* \"devs/BookManager.sol\":1977:1983   */\n      dup2\n        /* \"devs/BookManager.sol\":1964:1968   */\n      dup2\n        /* \"devs/BookManager.sol\":1964:1974   */\n      0x02\n      add\n        /* \"devs/BookManager.sol\":1964:1983   */\n      dup2\n      swap1\n      sstore\n      pop\n        /* \"devs/BookManager.sol\":2009:2010   */\n      0x00\n        /* \"devs/BookManager.sol\":1993:1997   */\n      dup2\n        /* \"devs/BookManager.sol\":1993:2006   */\n      0x03\n      add\n        /* \"devs/BookManager.sol\":1993:2010   */\n      dup2\n      swap1\n      sstore\n      pop\n        /* \"devs/BookManager.sol\":1790:2017   */\n      pop\n        /* \"devs/BookManager.sol\":1668:2017   */\n      pop\n      pop\n      pop\n      pop\n      jump\t// out\n        /* \"devs/BookManager.sol\":1000:1043   */\n    tag_26:\n      0x04\n      dup2\n      dup1\n      mload\n      0x20\n      dup2\n      add\n      dup3\n      add\n      dup1\n      mload\n      dup5\n      dup3\n      mstore\n      0x20\n      dup4\n      add\n      0x20\n      dup6\n      add\n      keccak256\n      dup2\n      dup4\n      mstore\n      dup1\n      swap6\n      pop\n      pop\n      pop\n      pop\n      pop\n      pop\n      0x00\n      swap2\n      pop\n      sload\n      swap1\n      0x0100\n      exp\n      swap1\n      div\n      0xff\n      and\n      dup2\n      jump\t// out\n        /* \"devs/BookManager.sol\":1260:1662   */\n    tag_32:\n        /* \"devs/BookManager.sol\":1108:1118   */\n      caller\n        /* \"devs/BookManager.sol\":1089:1118   */\n      0xffffffffffffffffffffffffffffffffffffffff\n      and\n        /* \"devs/BookManager.sol\":1089:1104   */\n      0x01\n      0x00\n      swap1\n      sload\n      swap1\n      0x0100\n      exp\n      swap1\n      div\n      0xffffffffffffffffffffffffffffffffffffffff\n      and\n        /* \"devs/BookManager.sol\":1089:1118   */\n      0xffffffffffffffffffffffffffffffffffffffff\n      and\n      eq\n        /* \"devs/BookManager.sol\":1081:1119   */\n      tag_72\n      jumpi\n      0x00\n      dup1\n      revert\n    tag_72:\n        /* \"devs/BookManager.sol\":1397:1425   */\n      0x00\n        /* \"devs/BookManager.sol\":1428:1444   */\n      0x03\n        /* \"devs/BookManager.sol\":1428:1455   */\n      0x00\n        /* \"devs/BookManager.sol\":1445:1452   */\n      0x02\n      0x00\n        /* \"devs/BookManager.sol\":1445:1454   */\n      dup2\n      sload\n      dup1\n      swap3\n      swap2\n      swap1\n      tag_74\n      swap1\n      tag_64\n      jump\t// in\n    tag_74:\n      swap2\n      swap1\n      pop\n      sstore\n        /* \"devs/BookManager.sol\":1428:1455   */\n      dup2\n      mstore\n      0x20\n      add\n      swap1\n      dup2\n      mstore\n      0x20\n      add\n      0x00\n      keccak256\n        /* \"devs/BookManager.sol\":1397:1455   */\n      swap1\n      pop\n        /* \"devs/BookManager.sol\":1479:1486   */\n      dup5\n        /* \"devs/BookManager.sol\":1465:1469   */\n      dup2\n        /* \"devs/BookManager.sol\":1465:1476   */\n      0x00\n      add\n        /* \"devs/BookManager.sol\":1465:1486   */\n      swap1\n      dup1\n      mload\n      swap1\n      0x20\n      add\n      swap1\n      tag_75\n      swap3\n      swap2\n      swap1\n      tag_69\n      jump\t// in\n    tag_75:\n      pop\n        /* \"devs/BookManager.sol\":1509:1515   */\n      dup4\n        /* \"devs/BookManager.sol\":1496:1500   */\n      dup2\n        /* \"devs/BookManager.sol\":1496:1506   */\n      0x01\n      add\n        /* \"devs/BookManager.sol\":1496:1515   */\n      swap1\n      dup1\n      mload\n      swap1\n      0x20\n      add\n      swap1\n      tag_76\n      swap3\n      swap2\n      swap1\n      tag_69\n      jump\t// in\n    tag_76:\n      pop\n        /* \"devs/BookManager.sol\":1538:1544   */\n      dup3\n        /* \"devs/BookManager.sol\":1525:1529   */\n      dup2\n        /* \"devs/BookManager.sol\":1525:1535   */\n      0x02\n      add\n        /* \"devs/BookManager.sol\":1525:1544   */\n      dup2\n      swap1\n      sstore\n      pop\n        /* \"devs/BookManager.sol\":1570:1571   */\n      0x00\n        /* \"devs/BookManager.sol\":1554:1558   */\n      dup2\n        /* \"devs/BookManager.sol\":1554:1567   */\n      0x03\n      add\n        /* \"devs/BookManager.sol\":1554:1571   */\n      dup2\n      swap1\n      sstore\n      pop\n        /* \"devs/BookManager.sol\":1602:1616   */\n      dup2\n        /* \"devs/BookManager.sol\":1581:1585   */\n      dup2\n        /* \"devs/BookManager.sol\":1581:1599   */\n      0x04\n      add\n      0x00\n        /* \"devs/BookManager.sol\":1581:1616   */\n      0x0100\n      exp\n      dup2\n      sload\n      dup2\n      0xffffffffffffffffffffffffffffffffffffffff\n      mul\n      not\n      and\n      swap1\n      dup4\n      0xffffffffffffffffffffffffffffffffffffffff\n      and\n      mul\n      or\n      swap1\n      sstore\n      pop\n        /* \"devs/BookManager.sol\":1651:1655   */\n      0x01\n        /* \"devs/BookManager.sol\":1627:1639   */\n      0x04\n        /* \"devs/BookManager.sol\":1640:1647   */\n      dup7\n        /* \"devs/BookManager.sol\":1627:1648   */\n      mload(0x40)\n      tag_77\n      swap2\n      swap1\n      tag_78\n      jump\t// in\n    tag_77:\n      swap1\n      dup2\n      mstore\n      0x20\n      add\n      mload(0x40)\n      dup1\n      swap2\n      sub\n      swap1\n      keccak256\n      0x00\n        /* \"devs/BookManager.sol\":1627:1655   */\n      0x0100\n      exp\n      dup2\n      sload\n      dup2\n      0xff\n      mul\n      not\n      and\n      swap1\n      dup4\n      iszero\n      iszero\n      mul\n      or\n      swap1\n      sstore\n      pop\n        /* \"devs/BookManager.sol\":1387:1662   */\n      pop\n        /* \"devs/BookManager.sol\":1260:1662   */\n      pop\n      pop\n      pop\n      pop\n      jump\t// out\n        /* \"devs/BookManager.sol\":2263:2453   */\n    tag_35:\n        /* \"devs/BookManager.sol\":2324:2328   */\n      0x00\n        /* \"devs/BookManager.sol\":2339:2377   */\n      dup1\n        /* \"devs/BookManager.sol\":2380:2396   */\n      0x03\n        /* \"devs/BookManager.sol\":2380:2408   */\n      0x00\n        /* \"devs/BookManager.sol\":2397:2407   */\n      dup5\n        /* \"devs/BookManager.sol\":2380:2408   */\n      dup2\n      mstore\n      0x20\n      add\n      swap1\n      dup2\n      mstore\n      0x20\n      add\n      0x00\n      keccak256\n        /* \"devs/BookManager.sol\":2339:2408   */\n      mload(0x40)\n      dup1\n      0xa0\n      add\n      0x40\n      mstore\n      swap1\n      dup2\n      0x00\n      dup3\n      add\n      dup1\n      sload\n      tag_80\n      swap1\n      tag_81\n      jump\t// in\n    tag_80:\n      dup1\n      0x1f\n      add\n      0x20\n      dup1\n      swap2\n      div\n      mul\n      0x20\n      add\n      mload(0x40)\n      swap1\n      dup2\n      add\n      0x40\n      mstore\n      dup1\n      swap3\n      swap2\n      swap1\n      dup2\n      dup2\n      mstore\n      0x20\n      add\n      dup3\n      dup1\n      sload\n      tag_82\n      swap1\n      tag_81\n      jump\t// in\n    tag_82:\n      dup1\n      iszero\n      tag_83\n      jumpi\n      dup1\n      0x1f\n      lt\n      tag_84\n      jumpi\n      0x0100\n      dup1\n      dup4\n      sload\n      div\n      mul\n      dup4\n      mstore\n      swap2\n      0x20\n      add\n      swap2\n      jump(tag_83)\n    tag_84:\n      dup3\n      add\n      swap2\n      swap1\n      0x00\n      mstore\n      keccak256(0x00, 0x20)\n      swap1\n    tag_85:\n      dup2\n      sload\n      dup2\n      mstore\n      swap1\n      0x01\n      add\n      swap1\n      0x20\n      add\n      dup1\n      dup4\n      gt\n      tag_85\n      jumpi\n      dup3\n      swap1\n      sub\n      0x1f\n      and\n      dup3\n      add\n      swap2\n    tag_83:\n      pop\n      pop\n      pop\n      pop\n      pop\n      dup2\n      mstore\n      0x20\n      add\n      0x01\n      dup3\n      add\n      dup1\n      sload\n      tag_86\n      swap1\n      tag_81\n      jump\t// in\n    tag_86:\n      dup1\n      0x1f\n      add\n      0x20\n      dup1\n      swap2\n      div\n      mul\n      0x20\n      add\n      mload(0x40)\n      swap1\n      dup2\n      add\n      0x40\n      mstore\n      dup1\n      swap3\n      swap2\n      swap1\n      dup2\n      dup2\n      mstore\n      0x20\n      add\n      dup3\n      dup1\n      sload\n      tag_87\n      swap1\n      tag_81\n      jump\t// in\n    tag_87:\n      dup1\n      iszero\n      tag_88\n      jumpi\n      dup1\n      0x1f\n      lt\n      tag_89\n      jumpi\n      0x0100\n      dup1\n      dup4\n      sload\n      div\n      mul\n      dup4\n      mstore\n      swap2\n      0x20\n      add\n      swap2\n      jump(tag_88)\n    tag_89:\n      dup3\n      add\n      swap2\n      swap1\n      0x00\n      mstore\n      keccak256(0x00, 0x20)\n      swap1\n    tag_90:\n      dup2\n      sload\n      dup2\n      mstore\n      swap1\n      0x01\n      add\n      swap1\n      0x20\n      add\n      dup1\n      dup4\n      gt\n      tag_90\n      jumpi\n      dup3\n      swap1\n      sub\n      0x1f\n      and\n      dup3\n      add\n      swap2\n    tag_88:\n      pop\n      pop\n      pop\n      pop\n      pop\n      dup2\n      mstore\n      0x20\n      add\n      0x02\n      dup3\n      add\n      sload\n      dup2\n      mstore\n      0x20\n      add\n      0x03\n      dup3\n      add\n      sload\n      dup2\n      mstore\n      0x20\n      add\n      0x04\n      dup3\n      add\n      0x00\n      swap1\n      sload\n      swap1\n      0x0100\n      exp\n      swap1\n      div\n      0xffffffffffffffffffffffffffffffffffffffff\n      and\n      0xffffffffffffffffffffffffffffffffffffffff\n      and\n      0xffffffffffffffffffffffffffffffffffffffff\n      and\n      dup2\n      mstore\n      pop\n      pop\n      swap1\n      pop\n        /* \"devs/BookManager.sol\":2425:2440   */\n      dup1\n        /* \"devs/BookManager.sol\":2425:2446   */\n      0x40\n      add\n      mload\n        /* \"devs/BookManager.sol\":2418:2446   */\n      swap2\n      pop\n      pop\n        /* \"devs/BookManager.sol\":2263:2453   */\n      swap2\n      swap1\n      pop\n      jump\t// out\n        /* \"devs/BookManager.sol\":819:839   */\n    tag_39:\n      0x00\n      dup1\n      sload\n      swap1\n      0x0100\n      exp\n      swap1\n      div\n      0xffffffffffffffffffffffffffffffffffffffff\n      and\n      dup2\n      jump\t// out\n        /* \"devs/BookManager.sol\":2459:2917   */\n    tag_44:\n        /* \"devs/BookManager.sol\":2535:2548   */\n      0x60\n        /* \"devs/BookManager.sol\":2550:2563   */\n      dup1\n        /* \"devs/BookManager.sol\":2565:2569   */\n      0x00\n        /* \"devs/BookManager.sol\":2571:2575   */\n      dup1\n        /* \"devs/BookManager.sol\":2577:2584   */\n      0x00\n        /* \"devs/BookManager.sol\":2599:2637   */\n      dup1\n        /* \"devs/BookManager.sol\":2640:2656   */\n      0x03\n        /* \"devs/BookManager.sol\":2640:2668   */\n      0x00\n        /* \"devs/BookManager.sol\":2657:2667   */\n      dup9\n        /* \"devs/BookManager.sol\":2640:2668   */\n      dup2\n      mstore\n      0x20\n      add\n      swap1\n      dup2\n      mstore\n      0x20\n      add\n      0x00\n      keccak256\n        /* \"devs/BookManager.sol\":2599:2668   */\n      mload(0x40)\n      dup1\n      0xa0\n      add\n      0x40\n      mstore\n      swap1\n      dup2\n      0x00\n      dup3\n      add\n      dup1\n      sload\n      tag_92\n      swap1\n      tag_81\n      jump\t// in\n    tag_92:\n      dup1\n      0x1f\n      add\n      0x20\n      dup1\n      swap2\n      div\n      mul\n      0x20\n      add\n      mload(0x40)\n      swap1\n      dup2\n      add\n      0x40\n      mstore\n      dup1\n      swap3\n      swap2\n      swap1\n      dup2\n      dup2\n      mstore\n      0x20\n      add\n      dup3\n      dup1\n      sload\n      tag_93\n      swap1\n      tag_81\n      jump\t// in\n    tag_93:\n      dup1\n      iszero\n      tag_94\n      jumpi\n      dup1\n      0x1f\n      lt\n      tag_95\n      jumpi\n      0x0100\n      dup1\n      dup4\n      sload\n      div\n      mul\n      dup4\n      mstore\n      swap2\n      0x20\n      add\n      swap2\n      jump(tag_94)\n    tag_95:\n      dup3\n      add\n      swap2\n      swap1\n      0x00\n      mstore\n      keccak256(0x00, 0x20)\n      swap1\n    tag_96:\n      dup2\n      sload\n      dup2\n      mstore\n      swap1\n      0x01\n      add\n      swap1\n      0x20\n      add\n      dup1\n      dup4\n      gt\n      tag_96\n      jumpi\n      dup3\n      swap1\n      sub\n      0x1f\n      and\n      dup3\n      add\n      swap2\n    tag_94:\n      pop\n      pop\n      pop\n      pop\n      pop\n      dup2\n      mstore\n      0x20\n      add\n      0x01\n      dup3\n      add\n      dup1\n      sload\n      tag_97\n      swap1\n      tag_81\n      jump\t// in\n    tag_97:\n      dup1\n      0x1f\n      add\n      0x20\n      dup1\n      swap2\n      div\n      mul\n      0x20\n      add\n      mload(0x40)\n      swap1\n      dup2\n      add\n      0x40\n      mstore\n      dup1\n      swap3\n      swap2\n      swap1\n      dup2\n      dup2\n      mstore\n      0x20\n      add\n      dup3\n      dup1\n      sload\n      tag_98\n      swap1\n      tag_81\n      jump\t// in\n    tag_98:\n      dup1\n      iszero\n      tag_99\n      jumpi\n      dup1\n      0x1f\n      lt\n      tag_100\n      jumpi\n      0x0100\n      dup1\n      dup4\n      sload\n      div\n      mul\n      dup4\n      mstore\n      swap2\n      0x20\n      add\n      swap2\n      jump(tag_99)\n    tag_100:\n      dup3\n      add\n      swap2\n      swap1\n      0x00\n      mstore\n      keccak256(0x00, 0x20)\n      swap1\n    tag_101:\n      dup2\n      sload\n      dup2\n      mstore\n      swap1\n      0x01\n      add\n      swap1\n      0x20\n      add\n      dup1\n      dup4\n      gt\n      tag_101\n      jumpi\n      dup3\n      swap1\n      sub\n      0x1f\n      and\n      dup3\n      add\n      swap2\n    tag_99:\n      pop\n      pop\n      pop\n      pop\n      pop\n      dup2\n      mstore\n      0x20\n      add\n      0x02\n      dup3\n      add\n      sload\n      dup2\n      mstore\n      0x20\n      add\n      0x03\n      dup3\n      add\n      sload\n      dup2\n      mstore\n      0x20\n      add\n      0x04\n      dup3\n      add\n      0x00\n      swap1\n      sload\n      swap1\n      0x0100\n      exp\n      swap1\n      div\n      0xffffffffffffffffffffffffffffffffffffffff\n      and\n      0xffffffffffffffffffffffffffffffffffffffff\n      and\n      0xffffffffffffffffffffffffffffffffffffffff\n      and\n      dup2\n      mstore\n      pop\n      pop\n      swap1\n      pop\n        /* \"devs/BookManager.sol\":2707:2722   */\n      dup1\n        /* \"devs/BookManager.sol\":2707:2729   */\n      0x00\n      add\n      mload\n        /* \"devs/BookManager.sol\":2747:2762   */\n      dup2\n        /* \"devs/BookManager.sol\":2747:2768   */\n      0x20\n      add\n      mload\n        /* \"devs/BookManager.sol\":2786:2801   */\n      dup3\n        /* \"devs/BookManager.sol\":2786:2807   */\n      0x40\n      add\n      mload\n        /* \"devs/BookManager.sol\":2825:2840   */\n      dup4\n        /* \"devs/BookManager.sol\":2825:2849   */\n      0x60\n      add\n      mload\n        /* \"devs/BookManager.sol\":2867:2882   */\n      dup5\n        /* \"devs/BookManager.sol\":2867:2896   */\n      0x80\n      add\n      mload\n        /* \"devs/BookManager.sol\":2682:2910   */\n      swap6\n      pop\n      swap6\n      pop\n      swap6\n      pop\n      swap6\n      pop\n      swap6\n      pop\n      pop\n        /* \"devs/BookManager.sol\":2459:2917   */\n      swap2\n      swap4\n      swap6\n      swap1\n      swap3\n      swap5\n      pop\n      jump\t// out\n        /* \"devs/BookManager.sol\":2023:2231   */\n    tag_50:\n        /* \"devs/BookManager.sol\":1108:1118   */\n      caller\n        /* \"devs/BookManager.sol\":1089:1118   */\n      0xffffffffffffffffffffffffffffffffffffffff\n      and\n        /* \"devs/BookManager.sol\":1089:1104   */\n      0x01\n      0x00\n      swap1\n      sload\n      swap1\n      0x0100\n      exp\n      swap1\n      div\n      0xffffffffffffffffffffffffffffffffffffffff\n      and\n        /* \"devs/BookManager.sol\":1089:1118   */\n      0xffffffffffffffffffffffffffffffffffffffff\n      and\n      eq\n        /* \"devs/BookManager.sol\":1081:1119   */\n      tag_103\n      jumpi\n      0x00\n      dup1\n      revert\n    tag_103:\n        /* \"devs/BookManager.sol\":2120:2148   */\n      0x00\n        /* \"devs/BookManager.sol\":2151:2167   */\n      0x03\n        /* \"devs/BookManager.sol\":2151:2179   */\n      0x00\n        /* \"devs/BookManager.sol\":2168:2178   */\n      dup5\n        /* \"devs/BookManager.sol\":2151:2179   */\n      dup2\n      mstore\n      0x20\n      add\n      swap1\n      dup2\n      mstore\n      0x20\n      add\n      0x00\n      keccak256\n        /* \"devs/BookManager.sol\":2120:2179   */\n      swap1\n      pop\n        /* \"devs/BookManager.sol\":2210:2224   */\n      dup2\n        /* \"devs/BookManager.sol\":2189:2193   */\n      dup2\n        /* \"devs/BookManager.sol\":2189:2207   */\n      0x04\n      add\n      0x00\n        /* \"devs/BookManager.sol\":2189:2224   */\n      0x0100\n      exp\n      dup2\n      sload\n      dup2\n      0xffffffffffffffffffffffffffffffffffffffff\n      mul\n      not\n      and\n      swap1\n      dup4\n      0xffffffffffffffffffffffffffffffffffffffff\n      and\n      mul\n      or\n      swap1\n      sstore\n      pop\n        /* \"devs/BookManager.sol\":2110:2231   */\n      pop\n        /* \"devs/BookManager.sol\":2023:2231   */\n      pop\n      pop\n      jump\t// out\n        /* \"devs/BookManager.sol\":908:964   */\n    tag_53:\n      mstore(0x20, 0x03)\n      dup1\n      0x00\n      mstore\n      keccak256(0x00, 0x40)\n      0x00\n      swap2\n      pop\n      swap1\n      pop\n      dup1\n      0x00\n      add\n      dup1\n      sload\n      tag_105\n      swap1\n      tag_81\n      jump\t// in\n    tag_105:\n      dup1\n      0x1f\n      add\n      0x20\n      dup1\n      swap2\n      div\n      mul\n      0x20\n      add\n      mload(0x40)\n      swap1\n      dup2\n      add\n      0x40\n      mstore\n      dup1\n      swap3\n      swap2\n      swap1\n      dup2\n      dup2\n      mstore\n      0x20\n      add\n      dup3\n      dup1\n      sload\n      tag_106\n      swap1\n      tag_81\n      jump\t// in\n    tag_106:\n      dup1\n      iszero\n      tag_107\n      jumpi\n      dup1\n      0x1f\n      lt\n      tag_108\n      jumpi\n      0x0100\n      dup1\n      dup4\n      sload\n      div\n      mul\n      dup4\n      mstore\n      swap2\n      0x20\n      add\n      swap2\n      jump(tag_107)\n    tag_108:\n      dup3\n      add\n      swap2\n      swap1\n      0x00\n      mstore\n      keccak256(0x00, 0x20)\n      swap1\n    tag_109:\n      dup2\n      sload\n      dup2\n      mstore\n      swap1\n      0x01\n      add\n      swap1\n      0x20\n      add\n      dup1\n      dup4\n      gt\n      tag_109\n      jumpi\n      dup3\n      swap1\n      sub\n      0x1f\n      and\n      dup3\n      add\n      swap2\n    tag_107:\n      pop\n      pop\n      pop\n      pop\n      pop\n      swap1\n      dup1\n      0x01\n      add\n      dup1\n      sload\n      tag_110\n      swap1\n      tag_81\n      jump\t// in\n    tag_110:\n      dup1\n      0x1f\n      add\n      0x20\n      dup1\n      swap2\n      div\n      mul\n      0x20\n      add\n      mload(0x40)\n      swap1\n      dup2\n      add\n      0x40\n      mstore\n      dup1\n      swap3\n      swap2\n      swap1\n      dup2\n      dup2\n      mstore\n      0x20\n      add\n      dup3\n      dup1\n      sload\n      tag_111\n      swap1\n      tag_81\n      jump\t// in\n    tag_111:\n      dup1\n      iszero\n      tag_112\n      jumpi\n      dup1\n      0x1f\n      lt\n      tag_113\n      jumpi\n      0x0100\n      dup1\n      dup4\n      sload\n      div\n      mul\n      dup4\n      mstore\n      swap2\n      0x20\n      add\n      swap2\n      jump(tag_112)\n    tag_113:\n      dup3\n      add\n      swap2\n      swap1\n      0x00\n      mstore\n      keccak256(0x00, 0x20)\n      swap1\n    tag_114:\n      dup2\n      sload\n      dup2\n      mstore\n      swap1\n      0x01\n      add\n      swap1\n      0x20\n      add\n      dup1\n      dup4\n      gt\n      tag_114\n      jumpi\n      dup3\n      swap1\n      sub\n      0x1f\n      and\n      dup3\n      add\n      swap2\n    tag_112:\n      pop\n      pop\n      pop\n      pop\n      pop\n      swap1\n      dup1\n      0x02\n      add\n      sload\n      swap1\n      dup1\n      0x03\n      add\n      sload\n      swap1\n      dup1\n      0x04\n      add\n      0x00\n      swap1\n      sload\n      swap1\n      0x0100\n      exp\n      swap1\n      div\n      0xffffffffffffffffffffffffffffffffffffffff\n      and\n      swap1\n      pop\n      dup6\n      jump\t// out\n        /* \"devs/BookManager.sol\":2923:3043   */\n    tag_57:\n        /* \"devs/BookManager.sol\":2993:2997   */\n      0x00\n        /* \"devs/BookManager.sol\":3015:3027   */\n      0x04\n        /* \"devs/BookManager.sol\":3028:3035   */\n      dup3\n        /* \"devs/BookManager.sol\":3015:3036   */\n      mload(0x40)\n      tag_116\n      swap2\n      swap1\n      tag_78\n      jump\t// in\n    tag_116:\n      swap1\n      dup2\n      mstore\n      0x20\n      add\n      mload(0x40)\n      dup1\n      swap2\n      sub\n      swap1\n      keccak256\n      0x00\n      swap1\n      sload\n      swap1\n      0x0100\n      exp\n      swap1\n      div\n      0xff\n      and\n        /* \"devs/BookManager.sol\":3008:3036   */\n      swap1\n      pop\n        /* \"devs/BookManager.sol\":2923:3043   */\n      swap2\n      swap1\n      pop\n      jump\t// out\n        /* \"devs/BookManager.sol\":883:902   */\n    tag_60:\n      sload(0x02)\n      dup2\n      jump\t// out\n    tag_69:\n      dup3\n      dup1\n      sload\n      tag_117\n      swap1\n      tag_81\n      jump\t// in\n    tag_117:\n      swap1\n      0x00\n      mstore\n      keccak256(0x00, 0x20)\n      swap1\n      0x1f\n      add\n      0x20\n      swap1\n      div\n      dup2\n      add\n      swap3\n      dup3\n      tag_119\n      jumpi\n      0x00\n      dup6\n      sstore\n      jump(tag_118)\n    tag_119:\n      dup3\n      0x1f\n      lt\n      tag_120\n      jumpi\n      dup1\n      mload\n      not(0xff)\n      and\n      dup4\n      dup1\n      add\n      or\n      dup6\n      sstore\n      jump(tag_118)\n    tag_120:\n      dup3\n      dup1\n      add\n      0x01\n      add\n      dup6\n      sstore\n      dup3\n      iszero\n      tag_118\n      jumpi\n      swap2\n      dup3\n      add\n    tag_121:\n      dup3\n      dup2\n      gt\n      iszero\n      tag_122\n      jumpi\n      dup3\n      mload\n      dup3\n      sstore\n      swap2\n      0x20\n      add\n      swap2\n      swap1\n      0x01\n      add\n      swap1\n      jump(tag_121)\n    tag_122:\n    tag_118:\n      pop\n      swap1\n      pop\n      tag_123\n      swap2\n      swap1\n      tag_124\n      jump\t// in\n    tag_123:\n      pop\n      swap1\n      jump\t// out\n    tag_124:\n    tag_125:\n      dup1\n      dup3\n      gt\n      iszero\n      tag_126\n      jumpi\n      0x00\n      dup2\n      0x00\n      swap1\n      sstore\n      pop\n      0x01\n      add\n      jump(tag_125)\n    tag_126:\n      pop\n      swap1\n      jump\t// out\n        /* \"#utility.yul\":7:82   */\n    tag_127:\n        /* \"#utility.yul\":40:46   */\n      0x00\n        /* \"#utility.yul\":73:75   */\n      0x40\n        /* \"#utility.yul\":67:76   */\n      mload\n        /* \"#utility.yul\":57:76   */\n      swap1\n      pop\n        /* \"#utility.yul\":7:82   */\n      swap1\n      jump\t// out\n        /* \"#utility.yul\":88:205   */\n    tag_128:\n        /* \"#utility.yul\":197:198   */\n      0x00\n        /* \"#utility.yul\":194:195   */\n      dup1\n        /* \"#utility.yul\":187:199   */\n      revert\n        /* \"#utility.yul\":211:328   */\n    tag_129:\n        /* \"#utility.yul\":320:321   */\n      0x00\n        /* \"#utility.yul\":317:318   */\n      dup1\n        /* \"#utility.yul\":310:322   */\n      revert\n        /* \"#utility.yul\":334:411   */\n    tag_130:\n        /* \"#utility.yul\":371:378   */\n      0x00\n        /* \"#utility.yul\":400:405   */\n      dup2\n        /* \"#utility.yul\":389:405   */\n      swap1\n      pop\n        /* \"#utility.yul\":334:411   */\n      swap2\n      swap1\n      pop\n      jump\t// out\n        /* \"#utility.yul\":417:539   */\n    tag_131:\n        /* \"#utility.yul\":490:514   */\n      tag_165\n        /* \"#utility.yul\":508:513   */\n      dup2\n        /* \"#utility.yul\":490:514   */\n      tag_130\n      jump\t// in\n    tag_165:\n        /* \"#utility.yul\":483:488   */\n      dup2\n        /* \"#utility.yul\":480:515   */\n      eq\n        /* \"#utility.yul\":470:533   */\n      tag_166\n      jumpi\n        /* \"#utility.yul\":529:530   */\n      0x00\n        /* \"#utility.yul\":526:527   */\n      dup1\n        /* \"#utility.yul\":519:531   */\n      revert\n        /* \"#utility.yul\":470:533   */\n    tag_166:\n        /* \"#utility.yul\":417:539   */\n      pop\n      jump\t// out\n        /* \"#utility.yul\":545:684   */\n    tag_132:\n        /* \"#utility.yul\":591:596   */\n      0x00\n        /* \"#utility.yul\":629:635   */\n      dup2\n        /* \"#utility.yul\":616:636   */\n      calldataload\n        /* \"#utility.yul\":607:636   */\n      swap1\n      pop\n        /* \"#utility.yul\":645:678   */\n      tag_168\n        /* \"#utility.yul\":672:677   */\n      dup2\n        /* \"#utility.yul\":645:678   */\n      tag_131\n      jump\t// in\n    tag_168:\n        /* \"#utility.yul\":545:684   */\n      swap3\n      swap2\n      pop\n      pop\n      jump\t// out\n        /* \"#utility.yul\":690:1019   */\n    tag_17:\n        /* \"#utility.yul\":749:755   */\n      0x00\n        /* \"#utility.yul\":798:800   */\n      0x20\n        /* \"#utility.yul\":786:795   */\n      dup3\n        /* \"#utility.yul\":777:784   */\n      dup5\n        /* \"#utility.yul\":773:796   */\n      sub\n        /* \"#utility.yul\":769:801   */\n      slt\n        /* \"#utility.yul\":766:885   */\n      iszero\n      tag_170\n      jumpi\n        /* \"#utility.yul\":804:883   */\n      tag_171\n      tag_128\n      jump\t// in\n    tag_171:\n        /* \"#utility.yul\":766:885   */\n    tag_170:\n        /* \"#utility.yul\":924:925   */\n      0x00\n        /* \"#utility.yul\":949:1002   */\n      tag_172\n        /* \"#utility.yul\":994:1001   */\n      dup5\n        /* \"#utility.yul\":985:991   */\n      dup3\n        /* \"#utility.yul\":974:983   */\n      dup6\n        /* \"#utility.yul\":970:992   */\n      add\n        /* \"#utility.yul\":949:1002   */\n      tag_132\n      jump\t// in\n    tag_172:\n        /* \"#utility.yul\":939:1002   */\n      swap2\n      pop\n        /* \"#utility.yul\":895:1012   */\n      pop\n        /* \"#utility.yul\":690:1019   */\n      swap3\n      swap2\n      pop\n      pop\n      jump\t// out\n        /* \"#utility.yul\":1025:1142   */\n    tag_133:\n        /* \"#utility.yul\":1134:1135   */\n      0x00\n        /* \"#utility.yul\":1131:1132   */\n      dup1\n        /* \"#utility.yul\":1124:1136   */\n      revert\n        /* \"#utility.yul\":1148:1265   */\n    tag_134:\n        /* \"#utility.yul\":1257:1258   */\n      0x00\n        /* \"#utility.yul\":1254:1255   */\n      dup1\n        /* \"#utility.yul\":1247:1259   */\n      revert\n        /* \"#utility.yul\":1271:1373   */\n    tag_135:\n        /* \"#utility.yul\":1312:1318   */\n      0x00\n        /* \"#utility.yul\":1363:1365   */\n      0x1f\n        /* \"#utility.yul\":1359:1366   */\n      not\n        /* \"#utility.yul\":1354:1356   */\n      0x1f\n        /* \"#utility.yul\":1347:1352   */\n      dup4\n        /* \"#utility.yul\":1343:1357   */\n      add\n        /* \"#utility.yul\":1339:1367   */\n      and\n        /* \"#utility.yul\":1329:1367   */\n      swap1\n      pop\n        /* \"#utility.yul\":1271:1373   */\n      swap2\n      swap1\n      pop\n      jump\t// out\n        /* \"#utility.yul\":1379:1559   */\n    tag_136:\n        /* \"#utility.yul\":1427:1504   */\n      0x4e487b7100000000000000000000000000000000000000000000000000000000\n        /* \"#utility.yul\":1424:1425   */\n      0x00\n        /* \"#utility.yul\":1417:1505   */\n      mstore\n        /* \"#utility.yul\":1524:1528   */\n      0x41\n        /* \"#utility.yul\":1521:1522   */\n      0x04\n        /* \"#utility.yul\":1514:1529   */\n      mstore\n        /* \"#utility.yul\":1548:1552   */\n      0x24\n        /* \"#utility.yul\":1545:1546   */\n      0x00\n        /* \"#utility.yul\":1538:1553   */\n      revert\n        /* \"#utility.yul\":1565:1846   */\n    tag_137:\n        /* \"#utility.yul\":1648:1675   */\n      tag_178\n        /* \"#utility.yul\":1670:1674   */\n      dup3\n        /* \"#utility.yul\":1648:1675   */\n      tag_135\n      jump\t// in\n    tag_178:\n        /* \"#utility.yul\":1640:1646   */\n      dup2\n        /* \"#utility.yul\":1636:1676   */\n      add\n        /* \"#utility.yul\":1778:1784   */\n      dup2\n        /* \"#utility.yul\":1766:1776   */\n      dup2\n        /* \"#utility.yul\":1763:1785   */\n      lt\n        /* \"#utility.yul\":1742:1760   */\n      0xffffffffffffffff\n        /* \"#utility.yul\":1730:1740   */\n      dup3\n        /* \"#utility.yul\":1727:1761   */\n      gt\n        /* \"#utility.yul\":1724:1786   */\n      or\n        /* \"#utility.yul\":1721:1809   */\n      iszero\n      tag_179\n      jumpi\n        /* \"#utility.yul\":1789:1807   */\n      tag_180\n      tag_136\n      jump\t// in\n    tag_180:\n        /* \"#utility.yul\":1721:1809   */\n    tag_179:\n        /* \"#utility.yul\":1829:1839   */\n      dup1\n        /* \"#utility.yul\":1825:1827   */\n      0x40\n        /* \"#utility.yul\":1818:1840   */\n      mstore\n        /* \"#utility.yul\":1608:1846   */\n      pop\n        /* \"#utility.yul\":1565:1846   */\n      pop\n      pop\n      jump\t// out\n        /* \"#utility.yul\":1852:1981   */\n    tag_138:\n        /* \"#utility.yul\":1886:1892   */\n      0x00\n        /* \"#utility.yul\":1913:1933   */\n      tag_182\n      tag_127\n      jump\t// in\n    tag_182:\n        /* \"#utility.yul\":1903:1933   */\n      swap1\n      pop\n        /* \"#utility.yul\":1942:1975   */\n      tag_183\n        /* \"#utility.yul\":1970:1974   */\n      dup3\n        /* \"#utility.yul\":1962:1968   */\n      dup3\n        /* \"#utility.yul\":1942:1975   */\n      tag_137\n      jump\t// in\n    tag_183:\n        /* \"#utility.yul\":1852:1981   */\n      swap2\n      swap1\n      pop\n      jump\t// out\n        /* \"#utility.yul\":1987:2295   */\n    tag_139:\n        /* \"#utility.yul\":2049:2053   */\n      0x00\n        /* \"#utility.yul\":2139:2157   */\n      0xffffffffffffffff\n        /* \"#utility.yul\":2131:2137   */\n      dup3\n        /* \"#utility.yul\":2128:2158   */\n      gt\n        /* \"#utility.yul\":2125:2181   */\n      iszero\n      tag_185\n      jumpi\n        /* \"#utility.yul\":2161:2179   */\n      tag_186\n      tag_136\n      jump\t// in\n    tag_186:\n        /* \"#utility.yul\":2125:2181   */\n    tag_185:\n        /* \"#utility.yul\":2199:2228   */\n      tag_187\n        /* \"#utility.yul\":2221:2227   */\n      dup3\n        /* \"#utility.yul\":2199:2228   */\n      tag_135\n      jump\t// in\n    tag_187:\n        /* \"#utility.yul\":2191:2228   */\n      swap1\n      pop\n        /* \"#utility.yul\":2283:2287   */\n      0x20\n        /* \"#utility.yul\":2277:2281   */\n      dup2\n        /* \"#utility.yul\":2273:2288   */\n      add\n        /* \"#utility.yul\":2265:2288   */\n      swap1\n      pop\n        /* \"#utility.yul\":1987:2295   */\n      swap2\n      swap1\n      pop\n      jump\t// out\n        /* \"#utility.yul\":2301:2455   */\n    tag_140:\n        /* \"#utility.yul\":2385:2391   */\n      dup3\n        /* \"#utility.yul\":2380:2383   */\n      dup2\n        /* \"#utility.yul\":2375:2378   */\n      dup4\n        /* \"#utility.yul\":2362:2392   */\n      calldatacopy\n        /* \"#utility.yul\":2447:2448   */\n      0x00\n        /* \"#utility.yul\":2438:2444   */\n      dup4\n        /* \"#utility.yul\":2433:2436   */\n      dup4\n        /* \"#utility.yul\":2429:2445   */\n      add\n        /* \"#utility.yul\":2422:2449   */\n      mstore\n        /* \"#utility.yul\":2301:2455   */\n      pop\n      pop\n      pop\n      jump\t// out\n        /* \"#utility.yul\":2461:2873   */\n    tag_141:\n        /* \"#utility.yul\":2539:2544   */\n      0x00\n        /* \"#utility.yul\":2564:2630   */\n      tag_190\n        /* \"#utility.yul\":2580:2629   */\n      tag_191\n        /* \"#utility.yul\":2622:2628   */\n      dup5\n        /* \"#utility.yul\":2580:2629   */\n      tag_139\n      jump\t// in\n    tag_191:\n        /* \"#utility.yul\":2564:2630   */\n      tag_138\n      jump\t// in\n    tag_190:\n        /* \"#utility.yul\":2555:2630   */\n      swap1\n      pop\n        /* \"#utility.yul\":2653:2659   */\n      dup3\n        /* \"#utility.yul\":2646:2651   */\n      dup2\n        /* \"#utility.yul\":2639:2660   */\n      mstore\n        /* \"#utility.yul\":2691:2695   */\n      0x20\n        /* \"#utility.yul\":2684:2689   */\n      dup2\n        /* \"#utility.yul\":2680:2696   */\n      add\n        /* \"#utility.yul\":2729:2732   */\n      dup5\n        /* \"#utility.yul\":2720:2726   */\n      dup5\n        /* \"#utility.yul\":2715:2718   */\n      dup5\n        /* \"#utility.yul\":2711:2727   */\n      add\n        /* \"#utility.yul\":2708:2733   */\n      gt\n        /* \"#utility.yul\":2705:2817   */\n      iszero\n      tag_192\n      jumpi\n        /* \"#utility.yul\":2736:2815   */\n      tag_193\n      tag_134\n      jump\t// in\n    tag_193:\n        /* \"#utility.yul\":2705:2817   */\n    tag_192:\n        /* \"#utility.yul\":2826:2867   */\n      tag_194\n        /* \"#utility.yul\":2860:2866   */\n      dup5\n        /* \"#utility.yul\":2855:2858   */\n      dup3\n        /* \"#utility.yul\":2850:2853   */\n      dup6\n        /* \"#utility.yul\":2826:2867   */\n      tag_140\n      jump\t// in\n    tag_194:\n        /* \"#utility.yul\":2545:2873   */\n      pop\n        /* \"#utility.yul\":2461:2873   */\n      swap4\n      swap3\n      pop\n      pop\n      pop\n      jump\t// out\n        /* \"#utility.yul\":2893:3233   */\n    tag_142:\n        /* \"#utility.yul\":2949:2954   */\n      0x00\n        /* \"#utility.yul\":2998:3001   */\n      dup3\n        /* \"#utility.yul\":2991:2995   */\n      0x1f\n        /* \"#utility.yul\":2983:2989   */\n      dup4\n        /* \"#utility.yul\":2979:2996   */\n      add\n        /* \"#utility.yul\":2975:3002   */\n      slt\n        /* \"#utility.yul\":2965:3087   */\n      tag_196\n      jumpi\n        /* \"#utility.yul\":3006:3085   */\n      tag_197\n      tag_133\n      jump\t// in\n    tag_197:\n        /* \"#utility.yul\":2965:3087   */\n    tag_196:\n        /* \"#utility.yul\":3123:3129   */\n      dup2\n        /* \"#utility.yul\":3110:3130   */\n      calldataload\n        /* \"#utility.yul\":3148:3227   */\n      tag_198\n        /* \"#utility.yul\":3223:3226   */\n      dup5\n        /* \"#utility.yul\":3215:3221   */\n      dup3\n        /* \"#utility.yul\":3208:3212   */\n      0x20\n        /* \"#utility.yul\":3200:3206   */\n      dup7\n        /* \"#utility.yul\":3196:3213   */\n      add\n        /* \"#utility.yul\":3148:3227   */\n      tag_141\n      jump\t// in\n    tag_198:\n        /* \"#utility.yul\":3139:3227   */\n      swap2\n      pop\n        /* \"#utility.yul\":2955:3233   */\n      pop\n        /* \"#utility.yul\":2893:3233   */\n      swap3\n      swap2\n      pop\n      pop\n      jump\t// out\n        /* \"#utility.yul\":3239:4364   */\n    tag_21:\n        /* \"#utility.yul\":3345:3351   */\n      0x00\n        /* \"#utility.yul\":3353:3359   */\n      dup1\n        /* \"#utility.yul\":3361:3367   */\n      0x00\n        /* \"#utility.yul\":3369:3375   */\n      dup1\n        /* \"#utility.yul\":3418:3421   */\n      0x80\n        /* \"#utility.yul\":3406:3415   */\n      dup6\n        /* \"#utility.yul\":3397:3404   */\n      dup8\n        /* \"#utility.yul\":3393:3416   */\n      sub\n        /* \"#utility.yul\":3389:3422   */\n      slt\n        /* \"#utility.yul\":3386:3506   */\n      iszero\n      tag_200\n      jumpi\n        /* \"#utility.yul\":3425:3504   */\n      tag_201\n      tag_128\n      jump\t// in\n    tag_201:\n        /* \"#utility.yul\":3386:3506   */\n    tag_200:\n        /* \"#utility.yul\":3545:3546   */\n      0x00\n        /* \"#utility.yul\":3570:3623   */\n      tag_202\n        /* \"#utility.yul\":3615:3622   */\n      dup8\n        /* \"#utility.yul\":3606:3612   */\n      dup3\n        /* \"#utility.yul\":3595:3604   */\n      dup9\n        /* \"#utility.yul\":3591:3613   */\n      add\n        /* \"#utility.yul\":3570:3623   */\n      tag_132\n      jump\t// in\n    tag_202:\n        /* \"#utility.yul\":3560:3623   */\n      swap5\n      pop\n        /* \"#utility.yul\":3516:3633   */\n      pop\n        /* \"#utility.yul\":3700:3702   */\n      0x20\n        /* \"#utility.yul\":3689:3698   */\n      dup6\n        /* \"#utility.yul\":3685:3703   */\n      add\n        /* \"#utility.yul\":3672:3704   */\n      calldataload\n        /* \"#utility.yul\":3731:3749   */\n      0xffffffffffffffff\n        /* \"#utility.yul\":3723:3729   */\n      dup2\n        /* \"#utility.yul\":3720:3750   */\n      gt\n        /* \"#utility.yul\":3717:3834   */\n      iszero\n      tag_203\n      jumpi\n        /* \"#utility.yul\":3753:3832   */\n      tag_204\n      tag_129\n      jump\t// in\n    tag_204:\n        /* \"#utility.yul\":3717:3834   */\n    tag_203:\n        /* \"#utility.yul\":3858:3921   */\n      tag_205\n        /* \"#utility.yul\":3913:3920   */\n      dup8\n        /* \"#utility.yul\":3904:3910   */\n      dup3\n        /* \"#utility.yul\":3893:3902   */\n      dup9\n        /* \"#utility.yul\":3889:3911   */\n      add\n        /* \"#utility.yul\":3858:3921   */\n      tag_142\n      jump\t// in\n    tag_205:\n        /* \"#utility.yul\":3848:3921   */\n      swap4\n      pop\n        /* \"#utility.yul\":3643:3931   */\n      pop\n        /* \"#utility.yul\":3998:4000   */\n      0x40\n        /* \"#utility.yul\":3987:3996   */\n      dup6\n        /* \"#utility.yul\":3983:4001   */\n      add\n        /* \"#utility.yul\":3970:4002   */\n      calldataload\n        /* \"#utility.yul\":4029:4047   */\n      0xffffffffffffffff\n        /* \"#utility.yul\":4021:4027   */\n      dup2\n        /* \"#utility.yul\":4018:4048   */\n      gt\n        /* \"#utility.yul\":4015:4132   */\n      iszero\n      tag_206\n      jumpi\n        /* \"#utility.yul\":4051:4130   */\n      tag_207\n      tag_129\n      jump\t// in\n    tag_207:\n        /* \"#utility.yul\":4015:4132   */\n    tag_206:\n        /* \"#utility.yul\":4156:4219   */\n      tag_208\n        /* \"#utility.yul\":4211:4218   */\n      dup8\n        /* \"#utility.yul\":4202:4208   */\n      dup3\n        /* \"#utility.yul\":4191:4200   */\n      dup9\n        /* \"#utility.yul\":4187:4209   */\n      add\n        /* \"#utility.yul\":4156:4219   */\n      tag_142\n      jump\t// in\n    tag_208:\n        /* \"#utility.yul\":4146:4219   */\n      swap3\n      pop\n        /* \"#utility.yul\":3941:4229   */\n      pop\n        /* \"#utility.yul\":4268:4270   */\n      0x60\n        /* \"#utility.yul\":4294:4347   */\n      tag_209\n        /* \"#utility.yul\":4339:4346   */\n      dup8\n        /* \"#utility.yul\":4330:4336   */\n      dup3\n        /* \"#utility.yul\":4319:4328   */\n      dup9\n        /* \"#utility.yul\":4315:4337   */\n      add\n        /* \"#utility.yul\":4294:4347   */\n      tag_132\n      jump\t// in\n    tag_209:\n        /* \"#utility.yul\":4284:4347   */\n      swap2\n      pop\n        /* \"#utility.yul\":4239:4357   */\n      pop\n        /* \"#utility.yul\":3239:4364   */\n      swap3\n      swap6\n      swap2\n      swap5\n      pop\n      swap3\n      pop\n      jump\t// out\n        /* \"#utility.yul\":4370:4879   */\n    tag_25:\n        /* \"#utility.yul\":4439:4445   */\n      0x00\n        /* \"#utility.yul\":4488:4490   */\n      0x20\n        /* \"#utility.yul\":4476:4485   */\n      dup3\n        /* \"#utility.yul\":4467:4474   */\n      dup5\n        /* \"#utility.yul\":4463:4486   */\n      sub\n        /* \"#utility.yul\":4459:4491   */\n      slt\n        /* \"#utility.yul\":4456:4575   */\n      iszero\n      tag_211\n      jumpi\n        /* \"#utility.yul\":4494:4573   */\n      tag_212\n      tag_128\n      jump\t// in\n    tag_212:\n        /* \"#utility.yul\":4456:4575   */\n    tag_211:\n        /* \"#utility.yul\":4642:4643   */\n      0x00\n        /* \"#utility.yul\":4631:4640   */\n      dup3\n        /* \"#utility.yul\":4627:4644   */\n      add\n        /* \"#utility.yul\":4614:4645   */\n      calldataload\n        /* \"#utility.yul\":4672:4690   */\n      0xffffffffffffffff\n        /* \"#utility.yul\":4664:4670   */\n      dup2\n        /* \"#utility.yul\":4661:4691   */\n      gt\n        /* \"#utility.yul\":4658:4775   */\n      iszero\n      tag_213\n      jumpi\n        /* \"#utility.yul\":4694:4773   */\n      tag_214\n      tag_129\n      jump\t// in\n    tag_214:\n        /* \"#utility.yul\":4658:4775   */\n    tag_213:\n        /* \"#utility.yul\":4799:4862   */\n      tag_215\n        /* \"#utility.yul\":4854:4861   */\n      dup5\n        /* \"#utility.yul\":4845:4851   */\n      dup3\n        /* \"#utility.yul\":4834:4843   */\n      dup6\n        /* \"#utility.yul\":4830:4852   */\n      add\n        /* \"#utility.yul\":4799:4862   */\n      tag_142\n      jump\t// in\n    tag_215:\n        /* \"#utility.yul\":4789:4862   */\n      swap2\n      pop\n        /* \"#utility.yul\":4585:4872   */\n      pop\n        /* \"#utility.yul\":4370:4879   */\n      swap3\n      swap2\n      pop\n      pop\n      jump\t// out\n        /* \"#utility.yul\":4885:4975   */\n    tag_143:\n        /* \"#utility.yul\":4919:4926   */\n      0x00\n        /* \"#utility.yul\":4962:4967   */\n      dup2\n        /* \"#utility.yul\":4955:4968   */\n      iszero\n        /* \"#utility.yul\":4948:4969   */\n      iszero\n        /* \"#utility.yul\":4937:4969   */\n      swap1\n      pop\n        /* \"#utility.yul\":4885:4975   */\n      swap2\n      swap1\n      pop\n      jump\t// out\n        /* \"#utility.yul\":4981:5090   */\n    tag_144:\n        /* \"#utility.yul\":5062:5083   */\n      tag_218\n        /* \"#utility.yul\":5077:5082   */\n      dup2\n        /* \"#utility.yul\":5062:5083   */\n      tag_143\n      jump\t// in\n    tag_218:\n        /* \"#utility.yul\":5057:5060   */\n      dup3\n        /* \"#utility.yul\":5050:5084   */\n      mstore\n        /* \"#utility.yul\":4981:5090   */\n      pop\n      pop\n      jump\t// out\n        /* \"#utility.yul\":5096:5306   */\n    tag_28:\n        /* \"#utility.yul\":5183:5187   */\n      0x00\n        /* \"#utility.yul\":5221:5223   */\n      0x20\n        /* \"#utility.yul\":5210:5219   */\n      dup3\n        /* \"#utility.yul\":5206:5224   */\n      add\n        /* \"#utility.yul\":5198:5224   */\n      swap1\n      pop\n        /* \"#utility.yul\":5234:5299   */\n      tag_220\n        /* \"#utility.yul\":5296:5297   */\n      0x00\n        /* \"#utility.yul\":5285:5294   */\n      dup4\n        /* \"#utility.yul\":5281:5298   */\n      add\n        /* \"#utility.yul\":5272:5278   */\n      dup5\n        /* \"#utility.yul\":5234:5299   */\n      tag_144\n      jump\t// in\n    tag_220:\n        /* \"#utility.yul\":5096:5306   */\n      swap3\n      swap2\n      pop\n      pop\n      jump\t// out\n        /* \"#utility.yul\":5312:5438   */\n    tag_145:\n        /* \"#utility.yul\":5349:5356   */\n      0x00\n        /* \"#utility.yul\":5389:5431   */\n      0xffffffffffffffffffffffffffffffffffffffff\n        /* \"#utility.yul\":5382:5387   */\n      dup3\n        /* \"#utility.yul\":5378:5432   */\n      and\n        /* \"#utility.yul\":5367:5432   */\n      swap1\n      pop\n        /* \"#utility.yul\":5312:5438   */\n      swap2\n      swap1\n      pop\n      jump\t// out\n        /* \"#utility.yul\":5444:5540   */\n    tag_146:\n        /* \"#utility.yul\":5481:5488   */\n      0x00\n        /* \"#utility.yul\":5510:5534   */\n      tag_223\n        /* \"#utility.yul\":5528:5533   */\n      dup3\n        /* \"#utility.yul\":5510:5534   */\n      tag_145\n      jump\t// in\n    tag_223:\n        /* \"#utility.yul\":5499:5534   */\n      swap1\n      pop\n        /* \"#utility.yul\":5444:5540   */\n      swap2\n      swap1\n      pop\n      jump\t// out\n        /* \"#utility.yul\":5546:5668   */\n    tag_147:\n        /* \"#utility.yul\":5619:5643   */\n      tag_225\n        /* \"#utility.yul\":5637:5642   */\n      dup2\n        /* \"#utility.yul\":5619:5643   */\n      tag_146\n      jump\t// in\n    tag_225:\n        /* \"#utility.yul\":5612:5617   */\n      dup2\n        /* \"#utility.yul\":5609:5644   */\n      eq\n        /* \"#utility.yul\":5599:5662   */\n      tag_226\n      jumpi\n        /* \"#utility.yul\":5658:5659   */\n      0x00\n        /* \"#utility.yul\":5655:5656   */\n      dup1\n        /* \"#utility.yul\":5648:5660   */\n      revert\n        /* \"#utility.yul\":5599:5662   */\n    tag_226:\n        /* \"#utility.yul\":5546:5668   */\n      pop\n      jump\t// out\n        /* \"#utility.yul\":5674:5813   */\n    tag_148:\n        /* \"#utility.yul\":5720:5725   */\n      0x00\n        /* \"#utility.yul\":5758:5764   */\n      dup2\n        /* \"#utility.yul\":5745:5765   */\n      calldataload\n        /* \"#utility.yul\":5736:5765   */\n      swap1\n      pop\n        /* \"#utility.yul\":5774:5807   */\n      tag_228\n        /* \"#utility.yul\":5801:5806   */\n      dup2\n        /* \"#utility.yul\":5774:5807   */\n      tag_147\n      jump\t// in\n    tag_228:\n        /* \"#utility.yul\":5674:5813   */\n      swap3\n      swap2\n      pop\n      pop\n      jump\t// out\n        /* \"#utility.yul\":5819:6944   */\n    tag_31:\n        /* \"#utility.yul\":5925:5931   */\n      0x00\n        /* \"#utility.yul\":5933:5939   */\n      dup1\n        /* \"#utility.yul\":5941:5947   */\n      0x00\n        /* \"#utility.yul\":5949:5955   */\n      dup1\n        /* \"#utility.yul\":5998:6001   */\n      0x80\n        /* \"#utility.yul\":5986:5995   */\n      dup6\n        /* \"#utility.yul\":5977:5984   */\n      dup8\n        /* \"#utility.yul\":5973:5996   */\n      sub\n        /* \"#utility.yul\":5969:6002   */\n      slt\n        /* \"#utility.yul\":5966:6086   */\n      iszero\n      tag_230\n      jumpi\n        /* \"#utility.yul\":6005:6084   */\n      tag_231\n      tag_128\n      jump\t// in\n    tag_231:\n        /* \"#utility.yul\":5966:6086   */\n    tag_230:\n        /* \"#utility.yul\":6153:6154   */\n      0x00\n        /* \"#utility.yul\":6142:6151   */\n      dup6\n        /* \"#utility.yul\":6138:6155   */\n      add\n        /* \"#utility.yul\":6125:6156   */\n      calldataload\n        /* \"#utility.yul\":6183:6201   */\n      0xffffffffffffffff\n        /* \"#utility.yul\":6175:6181   */\n      dup2\n        /* \"#utility.yul\":6172:6202   */\n      gt\n        /* \"#utility.yul\":6169:6286   */\n      iszero\n      tag_232\n      jumpi\n        /* \"#utility.yul\":6205:6284   */\n      tag_233\n      tag_129\n      jump\t// in\n    tag_233:\n        /* \"#utility.yul\":6169:6286   */\n    tag_232:\n        /* \"#utility.yul\":6310:6373   */\n      tag_234\n        /* \"#utility.yul\":6365:6372   */\n      dup8\n        /* \"#utility.yul\":6356:6362   */\n      dup3\n        /* \"#utility.yul\":6345:6354   */\n      dup9\n        /* \"#utility.yul\":6341:6363   */\n      add\n        /* \"#utility.yul\":6310:6373   */\n      tag_142\n      jump\t// in\n    tag_234:\n        /* \"#utility.yul\":6300:6373   */\n      swap5\n      pop\n        /* \"#utility.yul\":6096:6383   */\n      pop\n        /* \"#utility.yul\":6450:6452   */\n      0x20\n        /* \"#utility.yul\":6439:6448   */\n      dup6\n        /* \"#utility.yul\":6435:6453   */\n      add\n        /* \"#utility.yul\":6422:6454   */\n      calldataload\n        /* \"#utility.yul\":6481:6499   */\n      0xffffffffffffffff\n        /* \"#utility.yul\":6473:6479   */\n      dup2\n        /* \"#utility.yul\":6470:6500   */\n      gt\n        /* \"#utility.yul\":6467:6584   */\n      iszero\n      tag_235\n      jumpi\n        /* \"#utility.yul\":6503:6582   */\n      tag_236\n      tag_129\n      jump\t// in\n    tag_236:\n        /* \"#utility.yul\":6467:6584   */\n    tag_235:\n        /* \"#utility.yul\":6608:6671   */\n      tag_237\n        /* \"#utility.yul\":6663:6670   */\n      dup8\n        /* \"#utility.yul\":6654:6660   */\n      dup3\n        /* \"#utility.yul\":6643:6652   */\n      dup9\n        /* \"#utility.yul\":6639:6661   */\n      add\n        /* \"#utility.yul\":6608:6671   */\n      tag_142\n      jump\t// in\n    tag_237:\n        /* \"#utility.yul\":6598:6671   */\n      swap4\n      pop\n        /* \"#utility.yul\":6393:6681   */\n      pop\n        /* \"#utility.yul\":6720:6722   */\n      0x40\n        /* \"#utility.yul\":6746:6799   */\n      tag_238\n        /* \"#utility.yul\":6791:6798   */\n      dup8\n        /* \"#utility.yul\":6782:6788   */\n      dup3\n        /* \"#utility.yul\":6771:6780   */\n      dup9\n        /* \"#utility.yul\":6767:6789   */\n      add\n        /* \"#utility.yul\":6746:6799   */\n      tag_132\n      jump\t// in\n    tag_238:\n        /* \"#utility.yul\":6736:6799   */\n      swap3\n      pop\n        /* \"#utility.yul\":6691:6809   */\n      pop\n        /* \"#utility.yul\":6848:6850   */\n      0x60\n        /* \"#utility.yul\":6874:6927   */\n      tag_239\n        /* \"#utility.yul\":6919:6926   */\n      dup8\n        /* \"#utility.yul\":6910:6916   */\n      dup3\n        /* \"#utility.yul\":6899:6908   */\n      dup9\n        /* \"#utility.yul\":6895:6917   */\n      add\n        /* \"#utility.yul\":6874:6927   */\n      tag_148\n      jump\t// in\n    tag_239:\n        /* \"#utility.yul\":6864:6927   */\n      swap2\n      pop\n        /* \"#utility.yul\":6819:6937   */\n      pop\n        /* \"#utility.yul\":5819:6944   */\n      swap3\n      swap6\n      swap2\n      swap5\n      pop\n      swap3\n      pop\n      jump\t// out\n        /* \"#utility.yul\":6950:7068   */\n    tag_149:\n        /* \"#utility.yul\":7037:7061   */\n      tag_241\n        /* \"#utility.yul\":7055:7060   */\n      dup2\n        /* \"#utility.yul\":7037:7061   */\n      tag_130\n      jump\t// in\n    tag_241:\n        /* \"#utility.yul\":7032:7035   */\n      dup3\n        /* \"#utility.yul\":7025:7062   */\n      mstore\n        /* \"#utility.yul\":6950:7068   */\n      pop\n      pop\n      jump\t// out\n        /* \"#utility.yul\":7074:7296   */\n    tag_37:\n        /* \"#utility.yul\":7167:7171   */\n      0x00\n        /* \"#utility.yul\":7205:7207   */\n      0x20\n        /* \"#utility.yul\":7194:7203   */\n      dup3\n        /* \"#utility.yul\":7190:7208   */\n      add\n        /* \"#utility.yul\":7182:7208   */\n      swap1\n      pop\n        /* \"#utility.yul\":7218:7289   */\n      tag_243\n        /* \"#utility.yul\":7286:7287   */\n      0x00\n        /* \"#utility.yul\":7275:7284   */\n      dup4\n        /* \"#utility.yul\":7271:7288   */\n      add\n        /* \"#utility.yul\":7262:7268   */\n      dup5\n        /* \"#utility.yul\":7218:7289   */\n      tag_149\n      jump\t// in\n    tag_243:\n        /* \"#utility.yul\":7074:7296   */\n      swap3\n      swap2\n      pop\n      pop\n      jump\t// out\n        /* \"#utility.yul\":7302:7420   */\n    tag_150:\n        /* \"#utility.yul\":7389:7413   */\n      tag_245\n        /* \"#utility.yul\":7407:7412   */\n      dup2\n        /* \"#utility.yul\":7389:7413   */\n      tag_146\n      jump\t// in\n    tag_245:\n        /* \"#utility.yul\":7384:7387   */\n      dup3\n        /* \"#utility.yul\":7377:7414   */\n      mstore\n        /* \"#utility.yul\":7302:7420   */\n      pop\n      pop\n      jump\t// out\n        /* \"#utility.yul\":7426:7648   */\n    tag_41:\n        /* \"#utility.yul\":7519:7523   */\n      0x00\n        /* \"#utility.yul\":7557:7559   */\n      0x20\n        /* \"#utility.yul\":7546:7555   */\n      dup3\n        /* \"#utility.yul\":7542:7560   */\n      add\n        /* \"#utility.yul\":7534:7560   */\n      swap1\n      pop\n        /* \"#utility.yul\":7570:7641   */\n      tag_247\n        /* \"#utility.yul\":7638:7639   */\n      0x00\n        /* \"#utility.yul\":7627:7636   */\n      dup4\n        /* \"#utility.yul\":7623:7640   */\n      add\n        /* \"#utility.yul\":7614:7620   */\n      dup5\n        /* \"#utility.yul\":7570:7641   */\n      tag_150\n      jump\t// in\n    tag_247:\n        /* \"#utility.yul\":7426:7648   */\n      swap3\n      swap2\n      pop\n      pop\n      jump\t// out\n        /* \"#utility.yul\":7654:7753   */\n    tag_151:\n        /* \"#utility.yul\":7706:7712   */\n      0x00\n        /* \"#utility.yul\":7740:7745   */\n      dup2\n        /* \"#utility.yul\":7734:7746   */\n      mload\n        /* \"#utility.yul\":7724:7746   */\n      swap1\n      pop\n        /* \"#utility.yul\":7654:7753   */\n      swap2\n      swap1\n      pop\n      jump\t// out\n        /* \"#utility.yul\":7759:7928   */\n    tag_152:\n        /* \"#utility.yul\":7843:7854   */\n      0x00\n        /* \"#utility.yul\":7877:7883   */\n      dup3\n        /* \"#utility.yul\":7872:7875   */\n      dup3\n        /* \"#utility.yul\":7865:7884   */\n      mstore\n        /* \"#utility.yul\":7917:7921   */\n      0x20\n        /* \"#utility.yul\":7912:7915   */\n      dup3\n        /* \"#utility.yul\":7908:7922   */\n      add\n        /* \"#utility.yul\":7893:7922   */\n      swap1\n      pop\n        /* \"#utility.yul\":7759:7928   */\n      swap3\n      swap2\n      pop\n      pop\n      jump\t// out\n        /* \"#utility.yul\":7934:8241   */\n    tag_153:\n        /* \"#utility.yul\":8002:8003   */\n      0x00\n        /* \"#utility.yul\":8012:8125   */\n    tag_251:\n        /* \"#utility.yul\":8026:8032   */\n      dup4\n        /* \"#utility.yul\":8023:8024   */\n      dup2\n        /* \"#utility.yul\":8020:8033   */\n      lt\n        /* \"#utility.yul\":8012:8125   */\n      iszero\n      tag_253\n      jumpi\n        /* \"#utility.yul\":8111:8112   */\n      dup1\n        /* \"#utility.yul\":8106:8109   */\n      dup3\n        /* \"#utility.yul\":8102:8113   */\n      add\n        /* \"#utility.yul\":8096:8114   */\n      mload\n        /* \"#utility.yul\":8092:8093   */\n      dup2\n        /* \"#utility.yul\":8087:8090   */\n      dup5\n        /* \"#utility.yul\":8083:8094   */\n      add\n        /* \"#utility.yul\":8076:8115   */\n      mstore\n        /* \"#utility.yul\":8048:8050   */\n      0x20\n        /* \"#utility.yul\":8045:8046   */\n      dup2\n        /* \"#utility.yul\":8041:8051   */\n      add\n        /* \"#utility.yul\":8036:8051   */\n      swap1\n      pop\n        /* \"#utility.yul\":8012:8125   */\n      jump(tag_251)\n    tag_253:\n        /* \"#utility.yul\":8143:8149   */\n      dup4\n        /* \"#utility.yul\":8140:8141   */\n      dup2\n        /* \"#utility.yul\":8137:8150   */\n      gt\n        /* \"#utility.yul\":8134:8235   */\n      iszero\n      tag_254\n      jumpi\n        /* \"#utility.yul\":8223:8224   */\n      0x00\n        /* \"#utility.yul\":8214:8220   */\n      dup5\n        /* \"#utility.yul\":8209:8212   */\n      dup5\n        /* \"#utility.yul\":8205:8221   */\n      add\n        /* \"#utility.yul\":8198:8225   */\n      mstore\n        /* \"#utility.yul\":8134:8235   */\n    tag_254:\n        /* \"#utility.yul\":7983:8241   */\n      pop\n        /* \"#utility.yul\":7934:8241   */\n      pop\n      pop\n      pop\n      jump\t// out\n        /* \"#utility.yul\":8247:8611   */\n    tag_154:\n        /* \"#utility.yul\":8335:8338   */\n      0x00\n        /* \"#utility.yul\":8363:8402   */\n      tag_256\n        /* \"#utility.yul\":8396:8401   */\n      dup3\n        /* \"#utility.yul\":8363:8402   */\n      tag_151\n      jump\t// in\n    tag_256:\n        /* \"#utility.yul\":8418:8489   */\n      tag_257\n        /* \"#utility.yul\":8482:8488   */\n      dup2\n        /* \"#utility.yul\":8477:8480   */\n      dup6\n        /* \"#utility.yul\":8418:8489   */\n      tag_152\n      jump\t// in\n    tag_257:\n        /* \"#utility.yul\":8411:8489   */\n      swap4\n      pop\n        /* \"#utility.yul\":8498:8550   */\n      tag_258\n        /* \"#utility.yul\":8543:8549   */\n      dup2\n        /* \"#utility.yul\":8538:8541   */\n      dup6\n        /* \"#utility.yul\":8531:8535   */\n      0x20\n        /* \"#utility.yul\":8524:8529   */\n      dup7\n        /* \"#utility.yul\":8520:8536   */\n      add\n        /* \"#utility.yul\":8498:8550   */\n      tag_153\n      jump\t// in\n    tag_258:\n        /* \"#utility.yul\":8575:8604   */\n      tag_259\n        /* \"#utility.yul\":8597:8603   */\n      dup2\n        /* \"#utility.yul\":8575:8604   */\n      tag_135\n      jump\t// in\n    tag_259:\n        /* \"#utility.yul\":8570:8573   */\n      dup5\n        /* \"#utility.yul\":8566:8605   */\n      add\n        /* \"#utility.yul\":8559:8605   */\n      swap2\n      pop\n        /* \"#utility.yul\":8339:8611   */\n      pop\n        /* \"#utility.yul\":8247:8611   */\n      swap3\n      swap2\n      pop\n      pop\n      jump\t// out\n        /* \"#utility.yul\":8617:9463   */\n    tag_46:\n        /* \"#utility.yul\":8862:8866   */\n      0x00\n        /* \"#utility.yul\":8900:8903   */\n      0xa0\n        /* \"#utility.yul\":8889:8898   */\n      dup3\n        /* \"#utility.yul\":8885:8904   */\n      add\n        /* \"#utility.yul\":8877:8904   */\n      swap1\n      pop\n        /* \"#utility.yul\":8950:8959   */\n      dup2\n        /* \"#utility.yul\":8944:8948   */\n      dup2\n        /* \"#utility.yul\":8940:8960   */\n      sub\n        /* \"#utility.yul\":8936:8937   */\n      0x00\n        /* \"#utility.yul\":8925:8934   */\n      dup4\n        /* \"#utility.yul\":8921:8938   */\n      add\n        /* \"#utility.yul\":8914:8961   */\n      mstore\n        /* \"#utility.yul\":8978:9056   */\n      tag_261\n        /* \"#utility.yul\":9051:9055   */\n      dup2\n        /* \"#utility.yul\":9042:9048   */\n      dup9\n        /* \"#utility.yul\":8978:9056   */\n      tag_154\n      jump\t// in\n    tag_261:\n        /* \"#utility.yul\":8970:9056   */\n      swap1\n      pop\n        /* \"#utility.yul\":9103:9112   */\n      dup2\n        /* \"#utility.yul\":9097:9101   */\n      dup2\n        /* \"#utility.yul\":9093:9113   */\n      sub\n        /* \"#utility.yul\":9088:9090   */\n      0x20\n        /* \"#utility.yul\":9077:9086   */\n      dup4\n        /* \"#utility.yul\":9073:9091   */\n      add\n        /* \"#utility.yul\":9066:9114   */\n      mstore\n        /* \"#utility.yul\":9131:9209   */\n      tag_262\n        /* \"#utility.yul\":9204:9208   */\n      dup2\n        /* \"#utility.yul\":9195:9201   */\n      dup8\n        /* \"#utility.yul\":9131:9209   */\n      tag_154\n      jump\t// in\n    tag_262:\n        /* \"#utility.yul\":9123:9209   */\n      swap1\n      pop\n        /* \"#utility.yul\":9219:9291   */\n      tag_263\n        /* \"#utility.yul\":9287:9289   */\n      0x40\n        /* \"#utility.yul\":9276:9285   */\n      dup4\n        /* \"#utility.yul\":9272:9290   */\n      add\n        /* \"#utility.yul\":9263:9269   */\n      dup7\n        /* \"#utility.yul\":9219:9291   */\n      tag_149\n      jump\t// in\n    tag_263:\n        /* \"#utility.yul\":9301:9373   */\n      tag_264\n        /* \"#utility.yul\":9369:9371   */\n      0x60\n        /* \"#utility.yul\":9358:9367   */\n      dup4\n        /* \"#utility.yul\":9354:9372   */\n      add\n        /* \"#utility.yul\":9345:9351   */\n      dup6\n        /* \"#utility.yul\":9301:9373   */\n      tag_149\n      jump\t// in\n    tag_264:\n        /* \"#utility.yul\":9383:9456   */\n      tag_265\n        /* \"#utility.yul\":9451:9454   */\n      0x80\n        /* \"#utility.yul\":9440:9449   */\n      dup4\n        /* \"#utility.yul\":9436:9455   */\n      add\n        /* \"#utility.yul\":9427:9433   */\n      dup5\n        /* \"#utility.yul\":9383:9456   */\n      tag_150\n      jump\t// in\n    tag_265:\n        /* \"#utility.yul\":8617:9463   */\n      swap7\n      swap6\n      pop\n      pop\n      pop\n      pop\n      pop\n      pop\n      jump\t// out\n        /* \"#utility.yul\":9469:9943   */\n    tag_49:\n        /* \"#utility.yul\":9537:9543   */\n      0x00\n        /* \"#utility.yul\":9545:9551   */\n      dup1\n        /* \"#utility.yul\":9594:9596   */\n      0x40\n        /* \"#utility.yul\":9582:9591   */\n      dup4\n        /* \"#utility.yul\":9573:9580   */\n      dup6\n        /* \"#utility.yul\":9569:9592   */\n      sub\n        /* \"#utility.yul\":9565:9597   */\n      slt\n        /* \"#utility.yul\":9562:9681   */\n      iszero\n      tag_267\n      jumpi\n        /* \"#utility.yul\":9600:9679   */\n      tag_268\n      tag_128\n      jump\t// in\n    tag_268:\n        /* \"#utility.yul\":9562:9681   */\n    tag_267:\n        /* \"#utility.yul\":9720:9721   */\n      0x00\n        /* \"#utility.yul\":9745:9798   */\n      tag_269\n        /* \"#utility.yul\":9790:9797   */\n      dup6\n        /* \"#utility.yul\":9781:9787   */\n      dup3\n        /* \"#utility.yul\":9770:9779   */\n      dup7\n        /* \"#utility.yul\":9766:9788   */\n      add\n        /* \"#utility.yul\":9745:9798   */\n      tag_132\n      jump\t// in\n    tag_269:\n        /* \"#utility.yul\":9735:9798   */\n      swap3\n      pop\n        /* \"#utility.yul\":9691:9808   */\n      pop\n        /* \"#utility.yul\":9847:9849   */\n      0x20\n        /* \"#utility.yul\":9873:9926   */\n      tag_270\n        /* \"#utility.yul\":9918:9925   */\n      dup6\n        /* \"#utility.yul\":9909:9915   */\n      dup3\n        /* \"#utility.yul\":9898:9907   */\n      dup7\n        /* \"#utility.yul\":9894:9916   */\n      add\n        /* \"#utility.yul\":9873:9926   */\n      tag_148\n      jump\t// in\n    tag_270:\n        /* \"#utility.yul\":9863:9926   */\n      swap2\n      pop\n        /* \"#utility.yul\":9818:9936   */\n      pop\n        /* \"#utility.yul\":9469:9943   */\n      swap3\n      pop\n      swap3\n      swap1\n      pop\n      jump\t// out\n        /* \"#utility.yul\":9949:10129   */\n    tag_155:\n        /* \"#utility.yul\":9997:10074   */\n      0x4e487b7100000000000000000000000000000000000000000000000000000000\n        /* \"#utility.yul\":9994:9995   */\n      0x00\n        /* \"#utility.yul\":9987:10075   */\n      mstore\n        /* \"#utility.yul\":10094:10098   */\n      0x11\n        /* \"#utility.yul\":10091:10092   */\n      0x04\n        /* \"#utility.yul\":10084:10099   */\n      mstore\n        /* \"#utility.yul\":10118:10122   */\n      0x24\n        /* \"#utility.yul\":10115:10116   */\n      0x00\n        /* \"#utility.yul\":10108:10123   */\n      revert\n        /* \"#utility.yul\":10135:10368   */\n    tag_64:\n        /* \"#utility.yul\":10174:10177   */\n      0x00\n        /* \"#utility.yul\":10197:10221   */\n      tag_273\n        /* \"#utility.yul\":10215:10220   */\n      dup3\n        /* \"#utility.yul\":10197:10221   */\n      tag_130\n      jump\t// in\n    tag_273:\n        /* \"#utility.yul\":10188:10221   */\n      swap2\n      pop\n        /* \"#utility.yul\":10243:10309   */\n      0xffffffffffffffffffffffffffffffffffffffffffffffffffffffffffffffff\n        /* \"#utility.yul\":10236:10241   */\n      dup3\n        /* \"#utility.yul\":10233:10310   */\n      eq\n        /* \"#utility.yul\":10230:10333   */\n      iszero\n      tag_274\n      jumpi\n        /* \"#utility.yul\":10313:10331   */\n      tag_275\n      tag_155\n      jump\t// in\n    tag_275:\n        /* \"#utility.yul\":10230:10333   */\n    tag_274:\n        /* \"#utility.yul\":10360:10361   */\n      0x01\n        /* \"#utility.yul\":10353:10358   */\n      dup3\n        /* \"#utility.yul\":10349:10362   */\n      add\n        /* \"#utility.yul\":10342:10362   */\n      swap1\n      pop\n        /* \"#utility.yul\":10135:10368   */\n      swap2\n      swap1\n      pop\n      jump\t// out\n        /* \"#utility.yul\":10374:10522   */\n    tag_156:\n        /* \"#utility.yul\":10476:10487   */\n      0x00\n        /* \"#utility.yul\":10513:10516   */\n      dup2\n        /* \"#utility.yul\":10498:10516   */\n      swap1\n      pop\n        /* \"#utility.yul\":10374:10522   */\n      swap3\n      swap2\n      pop\n      pop\n      jump\t// out\n        /* \"#utility.yul\":10528:10905   */\n    tag_157:\n        /* \"#utility.yul\":10634:10637   */\n      0x00\n        /* \"#utility.yul\":10662:10701   */\n      tag_278\n        /* \"#utility.yul\":10695:10700   */\n      dup3\n        /* \"#utility.yul\":10662:10701   */\n      tag_151\n      jump\t// in\n    tag_278:\n        /* \"#utility.yul\":10717:10806   */\n      tag_279\n        /* \"#utility.yul\":10799:10805   */\n      dup2\n        /* \"#utility.yul\":10794:10797   */\n      dup6\n        /* \"#utility.yul\":10717:10806   */\n      tag_156\n      jump\t// in\n    tag_279:\n        /* \"#utility.yul\":10710:10806   */\n      swap4\n      pop\n        /* \"#utility.yul\":10815:10867   */\n      tag_280\n        /* \"#utility.yul\":10860:10866   */\n      dup2\n        /* \"#utility.yul\":10855:10858   */\n      dup6\n        /* \"#utility.yul\":10848:10852   */\n      0x20\n        /* \"#utility.yul\":10841:10846   */\n      dup7\n        /* \"#utility.yul\":10837:10853   */\n      add\n        /* \"#utility.yul\":10815:10867   */\n      tag_153\n      jump\t// in\n    tag_280:\n        /* \"#utility.yul\":10892:10898   */\n      dup1\n        /* \"#utility.yul\":10887:10890   */\n      dup5\n        /* \"#utility.yul\":10883:10899   */\n      add\n        /* \"#utility.yul\":10876:10899   */\n      swap2\n      pop\n        /* \"#utility.yul\":10638:10905   */\n      pop\n        /* \"#utility.yul\":10528:10905   */\n      swap3\n      swap2\n      pop\n      pop\n      jump\t// out\n        /* \"#utility.yul\":10911:11186   */\n    tag_78:\n        /* \"#utility.yul\":11043:11046   */\n      0x00\n        /* \"#utility.yul\":11065:11160   */\n      tag_282\n        /* \"#utility.yul\":11156:11159   */\n      dup3\n        /* \"#utility.yul\":11147:11153   */\n      dup5\n        /* \"#utility.yul\":11065:11160   */\n      tag_157\n      jump\t// in\n    tag_282:\n        /* \"#utility.yul\":11058:11160   */\n      swap2\n      pop\n        /* \"#utility.yul\":11177:11180   */\n      dup2\n        /* \"#utility.yul\":11170:11180   */\n      swap1\n      pop\n        /* \"#utility.yul\":10911:11186   */\n      swap3\n      swap2\n      pop\n      pop\n      jump\t// out\n        /* \"#utility.yul\":11192:11372   */\n    tag_158:\n        /* \"#utility.yul\":11240:11317   */\n      0x4e487b7100000000000000000000000000000000000000000000000000000000\n        /* \"#utility.yul\":11237:11238   */\n      0x00\n        /* \"#utility.yul\":11230:11318   */\n      mstore\n        /* \"#utility.yul\":11337:11341   */\n      0x22\n        /* \"#utility.yul\":11334:11335   */\n      0x04\n        /* \"#utility.yul\":11327:11342   */\n      mstore\n        /* \"#utility.yul\":11361:11365   */\n      0x24\n        /* \"#utility.yul\":11358:11359   */\n      0x00\n        /* \"#utility.yul\":11351:11366   */\n      revert\n        /* \"#utility.yul\":11378:11698   */\n    tag_81:\n        /* \"#utility.yul\":11422:11428   */\n      0x00\n        /* \"#utility.yul\":11459:11460   */\n      0x02\n        /* \"#utility.yul\":11453:11457   */\n      dup3\n        /* \"#utility.yul\":11449:11461   */\n      div\n        /* \"#utility.yul\":11439:11461   */\n      swap1\n      pop\n        /* \"#utility.yul\":11506:11507   */\n      0x01\n        /* \"#utility.yul\":11500:11504   */\n      dup3\n        /* \"#utility.yul\":11496:11508   */\n      and\n        /* \"#utility.yul\":11527:11545   */\n      dup1\n        /* \"#utility.yul\":11517:11598   */\n      tag_285\n      jumpi\n        /* \"#utility.yul\":11583:11587   */\n      0x7f\n        /* \"#utility.yul\":11575:11581   */\n      dup3\n        /* \"#utility.yul\":11571:11588   */\n      and\n        /* \"#utility.yul\":11561:11588   */\n      swap2\n      pop\n        /* \"#utility.yul\":11517:11598   */\n    tag_285:\n        /* \"#utility.yul\":11645:11647   */\n      0x20\n        /* \"#utility.yul\":11637:11643   */\n      dup3\n        /* \"#utility.yul\":11634:11648   */\n      lt\n        /* \"#utility.yul\":11614:11632   */\n      dup2\n        /* \"#utility.yul\":11611:11649   */\n      eq\n        /* \"#utility.yul\":11608:11692   */\n      iszero\n      tag_286\n      jumpi\n        /* \"#utility.yul\":11664:11682   */\n      tag_287\n      tag_158\n      jump\t// in\n    tag_287:\n        /* \"#utility.yul\":11608:11692   */\n    tag_286:\n        /* \"#utility.yul\":11429:11698   */\n      pop\n        /* \"#utility.yul\":11378:11698   */\n      swap2\n      swap1\n      pop\n      jump\t// out\n\n    auxdata: 0xa26469706673582212207295d9df1302a08b413a7effeaee3ccc7ab05e3952e7a0275de23cac8fd9b81164736f6c634300080a0033\n}\n","bytecode":{"linkReferences":{},"object":"60806040523480156200001157600080fd5b50604051620013ac380380620013ac833981810160405281019062000037919062000129565b806000806101000a81548173ffffffffffffffffffffffffffffffffffffffff021916908373ffffffffffffffffffffffffffffffffffffffff16021790555033600160006101000a81548173ffffffffffffffffffffffffffffffffffffffff021916908373ffffffffffffffffffffffffffffffffffffffff160217905550506200015b565b600080fd5b600073ffffffffffffffffffffffffffffffffffffffff82169050919050565b6000620000f182620000c4565b9050919050565b6200010381620000e4565b81146200010f57600080fd5b50565b6000815190506200012381620000f8565b92915050565b600060208284031215620001425762000141620000bf565b5b6000620001528482850162000112565b91505092915050565b611241806200016b6000396000f3fe608060405234801561001057600080fd5b50600436106100a95760003560e01c80638da5cb5b116100715780638da5cb5b1461016257806398fbce7914610180578063a54925dd146101b4578063d9ff0cf1146101d0578063e71448a914610204578063f76ebe1c14610234576100a9565b80630a6b2a25146100ae5780630cc21200146100ca5780631cb71ed5146100e6578063687564ae146101165780636c230eef14610132575b600080fd5b6100c860048036038101906100c39190610bd4565b610252565b005b6100e460048036038101906100df9190610d47565b610287565b005b61010060048036038101906100fb9190610de6565b610344565b60405161010d9190610e4a565b60405180910390f35b610130600480360381019061012b9190610ec3565b61037a565b005b61014c60048036038101906101479190610bd4565b6104c7565b6040516101599190610f71565b60405180910390f35b61016a610685565b6040516101779190610f9b565b60405180910390f35b61019a60048036038101906101959190610bd4565b6106a9565b6040516101ab95949392919061103e565b60405180910390f35b6101ce60048036038101906101c9919061109f565b61088d565b005b6101ea60048036038101906101e59190610bd4565b610946565b6040516101fb95949392919061103e565b60405180910390f35b61021e60048036038101906102199190610de6565b610aac565b60405161022b9190610e4a565b60405180910390f35b61023c610ae1565b6040516102499190610f71565b60405180910390f35b600060036000838152602001908152602001600020905080600301600081548092919061027e9061110e565b91905055505050565b3373ffffffffffffffffffffffffffffffffffffffff16600160009054906101000a900473ffffffffffffffffffffffffffffffffffffffff1673ffffffffffffffffffffffffffffffffffffffff16146102e157600080fd5b600060036000868152602001908152602001600020905083816000019080519060200190610310929190610ae7565b5082816001019080519060200190610329929190610ae7565b50818160020181905550600081600301819055505050505050565b6004818051602081018201805184825260208301602085012081835280955050505050506000915054906101000a900460ff1681565b3373ffffffffffffffffffffffffffffffffffffffff16600160009054906101000a900473ffffffffffffffffffffffffffffffffffffffff1673ffffffffffffffffffffffffffffffffffffffff16146103d457600080fd5b600060036000600260008154809291906103ed9061110e565b919050558152602001908152602001600020905084816000019080519060200190610419929190610ae7565b5083816001019080519060200190610432929190610ae7565b5082816002018190555060008160030181905550818160040160006101000a81548173ffffffffffffffffffffffffffffffffffffffff021916908373ffffffffffffffffffffffffffffffffffffffff160217905550600160048660405161049b9190611193565b908152602001604051809103902060006101000a81548160ff0219169083151502179055505050505050565b600080600360008481526020019081526020016000206040518060a00160405290816000820180546104f8906111d9565b80601f0160208091040260200160405190810160405280929190818152602001828054610524906111d9565b80156105715780601f1061054657610100808354040283529160200191610571565b820191906000526020600020905b81548152906001019060200180831161055457829003601f168201915b5050505050815260200160018201805461058a906111d9565b80601f01602080910402602001604051908101604052809291908181526020018280546105b6906111d9565b80156106035780601f106105d857610100808354040283529160200191610603565b820191906000526020600020905b8154815290600101906020018083116105e657829003601f168201915b5050505050815260200160028201548152602001600382015481526020016004820160009054906101000a900473ffffffffffffffffffffffffffffffffffffffff1673ffffffffffffffffffffffffffffffffffffffff1673ffffffffffffffffffffffffffffffffffffffff168152505090508060400151915050919050565b60008054906101000a900473ffffffffffffffffffffffffffffffffffffffff1681565b606080600080600080600360008881526020019081526020016000206040518060a00160405290816000820180546106e0906111d9565b80601f016020809104026020016040519081016040528092919081815260200182805461070c906111d9565b80156107595780601f1061072e57610100808354040283529160200191610759565b820191906000526020600020905b81548152906001019060200180831161073c57829003601f168201915b50505050508152602001600182018054610772906111d9565b80601f016020809104026020016040519081016040528092919081815260200182805461079e906111d9565b80156107eb5780601f106107c0576101008083540402835291602001916107eb565b820191906000526020600020905b8154815290600101906020018083116107ce57829003601f168201915b5050505050815260200160028201548152602001600382015481526020016004820160009054906101000a900473ffffffffffffffffffffffffffffffffffffffff1673ffffffffffffffffffffffffffffffffffffffff1673ffffffffffffffffffffffffffffffffffffffff1681525050905080600001518160200151826040015183606001518460800151955095509550955095505091939590929450565b3373ffffffffffffffffffffffffffffffffffffffff16600160009054906101000a900473ffffffffffffffffffffffffffffffffffffffff1673ffffffffffffffffffffffffffffffffffffffff16146108e757600080fd5b6000600360008481526020019081526020016000209050818160040160006101000a81548173ffffffffffffffffffffffffffffffffffffffff021916908373ffffffffffffffffffffffffffffffffffffffff160217905550505050565b6003602052806000526040600020600091509050806000018054610969906111d9565b80601f0160208091040260200160405190810160405280929190818152602001828054610995906111d9565b80156109e25780601f106109b7576101008083540402835291602001916109e2565b820191906000526020600020905b8154815290600101906020018083116109c557829003601f168201915b5050505050908060010180546109f7906111d9565b80601f0160208091040260200160405190810160405280929190818152602001828054610a23906111d9565b8015610a705780601f10610a4557610100808354040283529160200191610a70565b820191906000526020600020905b815481529060010190602001808311610a5357829003601f168201915b5050505050908060020154908060030154908060040160009054906101000a900473ffffffffffffffffffffffffffffffffffffffff16905085565b6000600482604051610abe9190611193565b908152602001604051809103902060009054906101000a900460ff169050919050565b60025481565b828054610af3906111d9565b90600052602060002090601f016020900481019282610b155760008555610b5c565b82601f10610b2e57805160ff1916838001178555610b5c565b82800160010185558215610b5c579182015b82811115610b5b578251825591602001919060010190610b40565b5b509050610b699190610b6d565b5090565b5b80821115610b86576000816000905550600101610b6e565b5090565b6000604051905090565b600080fd5b600080fd5b6000819050919050565b610bb181610b9e565b8114610bbc57600080fd5b50565b600081359050610bce81610ba8565b92915050565b600060208284031215610bea57610be9610b94565b5b6000610bf884828501610bbf565b91505092915050565b600080fd5b600080fd5b6000601f19601f8301169050919050565b7f4e487b7100000000000000000000000000000000000000000000000000000000600052604160045260246000fd5b610c5482610c0b565b810181811067ffffffffffffffff82111715610c7357610c72610c1c565b5b80604052505050565b6000610c86610b8a565b9050610c928282610c4b565b919050565b600067ffffffffffffffff821115610cb257610cb1610c1c565b5b610cbb82610c0b565b9050602081019050919050565b82818337600083830152505050565b6000610cea610ce584610c97565b610c7c565b905082815260208101848484011115610d0657610d05610c06565b5b610d11848285610cc8565b509392505050565b600082601f830112610d2e57610d2d610c01565b5b8135610d3e848260208601610cd7565b91505092915050565b60008060008060808587031215610d6157610d60610b94565b5b6000610d6f87828801610bbf565b945050602085013567ffffffffffffffff811115610d9057610d8f610b99565b5b610d9c87828801610d19565b935050604085013567ffffffffffffffff811115610dbd57610dbc610b99565b5b610dc987828801610d19565b9250506060610dda87828801610bbf565b91505092959194509250565b600060208284031215610dfc57610dfb610b94565b5b600082013567ffffffffffffffff811115610e1a57610e19610b99565b5b610e2684828501610d19565b91505092915050565b60008115159050919050565b610e4481610e2f565b82525050565b6000602082019050610e5f6000830184610e3b565b92915050565b600073ffffffffffffffffffffffffffffffffffffffff82169050919050565b6000610e9082610e65565b9050919050565b610ea081610e85565b8114610eab57600080fd5b50565b600081359050610ebd81610e97565b92915050565b60008060008060808587031215610edd57610edc610b94565b5b600085013567ffffffffffffffff811115610efb57610efa610b99565b5b610f0787828801610d19565b945050602085013567ffffffffffffffff811115610f2857610f27610b99565b5b610f3487828801610d19565b9350506040610f4587828801610bbf565b9250506060610f5687828801610eae565b91505092959194509250565b610f6b81610b9e565b82525050565b6000602082019050610f866000830184610f62565b92915050565b610f9581610e85565b82525050565b6000602082019050610fb06000830184610f8c565b92915050565b600081519050919050565b600082825260208201905092915050565b60005b83811015610ff0578082015181840152602081019050610fd5565b83811115610fff576000848401525b50505050565b600061101082610fb6565b61101a8185610fc1565b935061102a818560208601610fd2565b61103381610c0b565b840191505092915050565b600060a08201905081810360008301526110588188611005565b9050818103602083015261106c8187611005565b905061107b6040830186610f62565b6110886060830185610f62565b6110956080830184610f8c565b9695505050505050565b600080604083850312156110b6576110b5610b94565b5b60006110c485828601610bbf565b92505060206110d585828601610eae565b9150509250929050565b7f4e487b7100000000000000000000000000000000000000000000000000000000600052601160045260246000fd5b600061111982610b9e565b91507fffffffffffffffffffffffffffffffffffffffffffffffffffffffffffffffff82141561114c5761114b6110df565b5b600182019050919050565b600081905092915050565b600061116d82610fb6565b6111778185611157565b9350611187818560208601610fd2565b80840191505092915050565b600061119f8284611162565b915081905092915050565b7f4e487b7100000000000000000000000000000000000000000000000000000000600052602260045260246000fd5b600060028204905060018216806111f157607f821691505b60208210811415611205576112046111aa565b5b5091905056fea26469706673582212207295d9df1302a08b413a7effeaee3ccc7ab05e3952e7a0275de23cac8fd9b81164736f6c634300080a0033","opcodes":"PUSH1 0x80 PUSH1 0x40 MSTORE CALLVALUE DUP1 ISZERO PUSH3 0x11 JUMPI PUSH1 0x0 DUP1 REVERT JUMPDEST POP PUSH1 0x40 MLOAD PUSH3 0x13AC CODESIZE SUB DUP1 PUSH3 0x13AC DUP4 CODECOPY DUP2 DUP2 ADD PUSH1 0x40 MSTORE DUP2 ADD SWAP1 PUSH3 0x37 SWAP2 SWAP1 PUSH3 0x129 JUMP JUMPDEST DUP1 PUSH1 0x0 DUP1 PUSH2 0x100 EXP DUP2 SLOAD DUP2 PUSH20 0xFFFFFFFFFFFFFFFFFFFFFFFFFFFFFFFFFFFFFFFF MUL NOT AND SWAP1 DUP4 PUSH20 0xFFFFFFFFFFFFFFFFFFFFFFFFFFFFFFFFFFFFFFFF AND MUL OR SWAP1 SSTORE POP CALLER PUSH1 0x1 PUSH1 0x0 PUSH2 0x100 EXP DUP2 SLOAD DUP2 PUSH20 0xFFFFFFFFFFFFFFFFFFFFFFFFFFFFFFFFFFFFFFFF MUL NOT AND SWAP1 DUP4 PUSH20 0xFFFFFFFFFFFFFFFFFFFFFFFFFFFFFFFFFFFFFFFF AND MUL OR SWAP1 SSTORE POP POP PUSH3 0x15B JUMP JUMPDEST PUSH1 0x0 DUP1 REVERT JUMPDEST PUSH1 0x0 PUSH20 0xFFFFFFFFFFFFFFFFFFFFFFFFFFFFFFFFFFFFFFFF DUP3 AND SWAP1 POP SWAP2 SWAP1 POP JUMP JUMPDEST PUSH1 0x0 PUSH3 0xF1 DUP3 PUSH3 0xC4 JUMP JUMPDEST SWAP1 POP SWAP2 SWAP1 POP JUMP JUMPDEST PUSH3 0x103 DUP2 PUSH3 0xE4 JUMP JUMPDEST DUP2 EQ PUSH3 0x10F JUMPI PUSH1 0x0 DUP1 REVERT JUMPDEST POP JUMP JUMPDEST PUSH1 0x0 DUP2 MLOAD SWAP1 POP PUSH3 0x123 DUP2 PUSH3 0xF8 JUMP JUMPDEST SWAP3 SWAP2 POP POP JUMP JUMPDEST PUSH1 0x0 PUSH1 0x20 DUP3 DUP5 SUB SLT ISZERO PUSH3 0x142 JUMPI PUSH3 0x141 PUSH3 0xBF JUMP JUMPDEST JUMPDEST PUSH1 0x0 PUSH3 0x152 DUP5 DUP3 DUP6 ADD PUSH3 0x112 JUMP JUMPDEST SWAP2 POP POP SWAP3 SWAP2 POP POP JUMP JUMPDEST PUSH2 0x1241 DUP1 PUSH3 0x16B PUSH1 0x0 CODECOPY PUSH1 0x0 RETURN INVALID PUSH1 0x80 PUSH1 0x40 MSTORE CALLVALUE DUP1 ISZERO PUSH2 0x10 JUMPI PUSH1 0x0 DUP1 REVERT JUMPDEST POP PUSH1 0x4 CALLDATASIZE LT PUSH2 0xA9 JUMPI PUSH1 0x0 CALLDATALOAD PUSH1 0xE0 SHR DUP1 PUSH4 0x8DA5CB5B GT PUSH2 0x71 JUMPI DUP1 PUSH4 0x8DA5CB5B EQ PUSH2 0x162 JUMPI DUP1 PUSH4 0x98FBCE79 EQ PUSH2 0x180 JUMPI DUP1 PUSH4 0xA54925DD EQ PUSH2 0x1B4 JUMPI DUP1 PUSH4 0xD9FF0CF1 EQ PUSH2 0x1D0 JUMPI DUP1 PUSH4 0xE71448A9 EQ PUSH2 0x204 JUMPI DUP1 PUSH4 0xF76EBE1C EQ PUSH2 0x234 JUMPI PUSH2 0xA9 JUMP JUMPDEST DUP1 PUSH4 0xA6B2A25 EQ PUSH2 0xAE JUMPI DUP1 PUSH4 0xCC21200 EQ PUSH2 0xCA JUMPI DUP1 PUSH4 0x1CB71ED5 EQ PUSH2 0xE6 JUMPI DUP1 PUSH4 0x687564AE EQ PUSH2 0x116 JUMPI DUP1 PUSH4 0x6C230EEF EQ PUSH2 0x132 JUMPI JUMPDEST PUSH1 0x0 DUP1 REVERT JUMPDEST PUSH2 0xC8 PUSH1 0x4 DUP1 CALLDATASIZE SUB DUP2 ADD SWAP1 PUSH2 0xC3 SWAP2 SWAP1 PUSH2 0xBD4 JUMP JUMPDEST PUSH2 0x252 JUMP JUMPDEST STOP JUMPDEST PUSH2 0xE4 PUSH1 0x4 DUP1 CALLDATASIZE SUB DUP2 ADD SWAP1 PUSH2 0xDF SWAP2 SWAP1 PUSH2 0xD47 JUMP JUMPDEST PUSH2 0x287 JUMP JUMPDEST STOP JUMPDEST PUSH2 0x100 PUSH1 0x4 DUP1 CALLDATASIZE SUB DUP2 ADD SWAP1 PUSH2 0xFB SWAP2 SWAP1 PUSH2 0xDE6 JUMP JUMPDEST PUSH2 0x344 JUMP JUMPDEST PUSH1 0x40 MLOAD PUSH2 0x10D SWAP2 SWAP1 PUSH2 0xE4A JUMP JUMPDEST PUSH1 0x40 MLOAD DUP1 SWAP2 SUB SWAP1 RETURN JUMPDEST PUSH2 0x130 PUSH1 0x4 DUP1 CALLDATASIZE SUB DUP2 ADD SWAP1 PUSH2 0x12B SWAP2 SWAP1 PUSH2 0xEC3 JUMP JUMPDEST PUSH2 0x37A JUMP JUMPDEST STOP JUMPDEST PUSH2 0x14C PUSH1 0x4 DUP1 CALLDATASIZE SUB DUP2 ADD SWAP1 PUSH2 0x147 SWAP2 SWAP1 PUSH2 0xBD4 JUMP JUMPDEST PUSH2 0x4C7 JUMP JUMPDEST PUSH1 0x40 MLOAD PUSH2 0x159 SWAP2 SWAP1 PUSH2 0xF71 JUMP JUMPDEST PUSH1 0x40 MLOAD DUP1 SWAP2 SUB SWAP1 RETURN JUMPDEST PUSH2 0x16A PUSH2 0x685 JUMP JUMPDEST PUSH1 0x40 MLOAD PUSH2 0x177 SWAP2 SWAP1 PUSH2 0xF9B JUMP JUMPDEST PUSH1 0x40 MLOAD DUP1 SWAP2 SUB SWAP1 RETURN JUMPDEST PUSH2 0x19A PUSH1 0x4 DUP1 CALLDATASIZE SUB DUP2 ADD SWAP1 PUSH2 0x195 SWAP2 SWAP1 PUSH2 0xBD4 JUMP JUMPDEST PUSH2 0x6A9 JUMP JUMPDEST PUSH1 0x40 MLOAD PUSH2 0x1AB SWAP6 SWAP5 SWAP4 SWAP3 SWAP2 SWAP1 PUSH2 0x103E JUMP JUMPDEST PUSH1 0x40 MLOAD DUP1 SWAP2 SUB SWAP1 RETURN JUMPDEST PUSH2 0x1CE PUSH1 0x4 DUP1 CALLDATASIZE SUB DUP2 ADD SWAP1 PUSH2 0x1C9 SWAP2 SWAP1 PUSH2 0x109F JUMP JUMPDEST PUSH2 0x88D JUMP JUMPDEST STOP JUMPDEST PUSH2 0x1EA PUSH1 0x4 DUP1 CALLDATASIZE SUB DUP2 ADD SWAP1 PUSH2 0x1E5 SWAP2 SWAP1 PUSH2 0xBD4 JUMP JUMPDEST PUSH2 0x946 JUMP JUMPDEST PUSH1 0x40 MLOAD PUSH2 0x1FB SWAP6 SWAP5 SWAP4 SWAP3 SWAP2 SWAP1 PUSH2 0x103E JUMP JUMPDEST PUSH1 0x40 MLOAD DUP1 SWAP2 SUB SWAP1 RETURN JUMPDEST PUSH2 0x21E PUSH1 0x4 DUP1 CALLDATASIZE SUB DUP2 ADD SWAP1 PUSH2 0x219 SWAP2 SWAP1 PUSH2 0xDE6 JUMP JUMPDEST PUSH2 0xAAC JUMP JUMPDEST PUSH1 0x40 MLOAD PUSH2 0x22B SWAP2 SWAP1 PUSH2 0xE4A JUMP JUMPDEST PUSH1 0x40 MLOAD DUP1 SWAP2 SUB SWAP1 RETURN JUMPDEST PUSH2 0x23C PUSH2 0xAE1 JUMP JUMPDEST PUSH1 0x40 MLOAD PUSH2 0x249 SWAP2 SWAP1 PUSH2 0xF71 JUMP JUMPDEST PUSH1 0x40 MLOAD DUP1 SWAP2 SUB SWAP1 RETURN JUMPDEST PUSH1 0x0 PUSH1 0x3 PUSH1 0x0 DUP4 DUP2 MSTORE PUSH1 0x20 ADD SWAP1 DUP2 MSTORE PUSH1 0x20 ADD PUSH1 0x0 KECCAK256 SWAP1 POP DUP1 PUSH1 0x3 ADD PUSH1 0x0 DUP2 SLOAD DUP1 SWAP3 SWAP2 SWAP1 PUSH2 0x27E SWAP1 PUSH2 0x110E JUMP JUMPDEST SWAP2 SWAP1 POP SSTORE POP POP POP JUMP JUMPDEST CALLER PUSH20 0xFFFFFFFFFFFFFFFFFFFFFFFFFFFFFFFFFFFFFFFF AND PUSH1 0x1 PUSH1 0x0 SWAP1 SLOAD SWAP1 PUSH2 0x100 EXP SWAP1 DIV PUSH20 0xFFFFFFFFFFFFFFFFFFFFFFFFFFFFFFFFFFFFFFFF AND PUSH20 0xFFFFFFFFFFFFFFFFFFFFFFFFFFFFFFFFFFFFFFFF AND EQ PUSH2 0x2E1 JUMPI PUSH1 0x0 DUP1 REVERT JUMPDEST PUSH1 0x0 PUSH1 0x3 PUSH1 0x0 DUP7 DUP2 MSTORE PUSH1 0x20 ADD SWAP1 DUP2 MSTORE PUSH1 0x20 ADD PUSH1 0x0 KECCAK256 SWAP1 POP DUP4 DUP2 PUSH1 0x0 ADD SWAP1 DUP1 MLOAD SWAP1 PUSH1 0x20 ADD SWAP1 PUSH2 0x310 SWAP3 SWAP2 SWAP1 PUSH2 0xAE7 JUMP JUMPDEST POP DUP3 DUP2 PUSH1 0x1 ADD SWAP1 DUP1 MLOAD SWAP1 PUSH1 0x20 ADD SWAP1 PUSH2 0x329 SWAP3 SWAP2 SWAP1 PUSH2 0xAE7 JUMP JUMPDEST POP DUP2 DUP2 PUSH1 0x2 ADD DUP2 SWAP1 SSTORE POP PUSH1 0x0 DUP2 PUSH1 0x3 ADD DUP2 SWAP1 SSTORE POP POP POP POP POP POP JUMP JUMPDEST PUSH1 0x4 DUP2 DUP1 MLOAD PUSH1 0x20 DUP2 ADD DUP3 ADD DUP1 MLOAD DUP5 DUP3 MSTORE PUSH1 0x20 DUP4 ADD PUSH1 0x20 DUP6 ADD KECCAK256 DUP2 DUP4 MSTORE DUP1 SWAP6 POP POP POP POP POP POP PUSH1 0x0 SWAP2 POP SLOAD SWAP1 PUSH2 0x100 EXP SWAP1 DIV PUSH1 0xFF AND DUP2 JUMP JUMPDEST CALLER PUSH20 0xFFFFFFFFFFFFFFFFFFFFFFFFFFFFFFFFFFFFFFFF AND PUSH1 0x1 PUSH1 0x0 SWAP1 SLOAD SWAP1 PUSH2 0x100 EXP SWAP1 DIV PUSH20 0xFFFFFFFFFFFFFFFFFFFFFFFFFFFFFFFFFFFFFFFF AND PUSH20 0xFFFFFFFFFFFFFFFFFFFFFFFFFFFFFFFFFFFFFFFF AND EQ PUSH2 0x3D4 JUMPI PUSH1 0x0 DUP1 REVERT JUMPDEST PUSH1 0x0 PUSH1 0x3 PUSH1 0x0 PUSH1 0x2 PUSH1 0x0 DUP2 SLOAD DUP1 SWAP3 SWAP2 SWAP1 PUSH2 0x3ED SWAP1 PUSH2 0x110E JUMP JUMPDEST SWAP2 SWAP1 POP SSTORE DUP2 MSTORE PUSH1 0x20 ADD SWAP1 DUP2 MSTORE PUSH1 0x20 ADD PUSH1 0x0 KECCAK256 SWAP1 POP DUP5 DUP2 PUSH1 0x0 ADD SWAP1 DUP1 MLOAD SWAP1 PUSH1 0x20 ADD SWAP1 PUSH2 0x419 SWAP3 SWAP2 SWAP1 PUSH2 0xAE7 JUMP JUMPDEST POP DUP4 DUP2 PUSH1 0x1 ADD SWAP1 DUP1 MLOAD SWAP1 PUSH1 0x20 ADD SWAP1 PUSH2 0x432 SWAP3 SWAP2 SWAP1 PUSH2 0xAE7 JUMP JUMPDEST POP DUP3 DUP2 PUSH1 0x2 ADD DUP2 SWAP1 SSTORE POP PUSH1 0x0 DUP2 PUSH1 0x3 ADD DUP2 SWAP1 SSTORE POP DUP2 DUP2 PUSH1 0x4 ADD PUSH1 0x0 PUSH2 0x100 EXP DUP2 SLOAD DUP2 PUSH20 0xFFFFFFFFFFFFFFFFFFFFFFFFFFFFFFFFFFFFFFFF MUL NOT AND SWAP1 DUP4 PUSH20 0xFFFFFFFFFFFFFFFFFFFFFFFFFFFFFFFFFFFFFFFF AND MUL OR SWAP1 SSTORE POP PUSH1 0x1 PUSH1 0x4 DUP7 PUSH1 0x40 MLOAD PUSH2 0x49B SWAP2 SWAP1 PUSH2 0x1193 JUMP JUMPDEST SWAP1 DUP2 MSTORE PUSH1 0x20 ADD PUSH1 0x40 MLOAD DUP1 SWAP2 SUB SWAP1 KECCAK256 PUSH1 0x0 PUSH2 0x100 EXP DUP2 SLOAD DUP2 PUSH1 0xFF MUL NOT AND SWAP1 DUP4 ISZERO ISZERO MUL OR SWAP1 SSTORE POP POP POP POP POP POP JUMP JUMPDEST PUSH1 0x0 DUP1 PUSH1 0x3 PUSH1 0x0 DUP5 DUP2 MSTORE PUSH1 0x20 ADD SWAP1 DUP2 MSTORE PUSH1 0x20 ADD PUSH1 0x0 KECCAK256 PUSH1 0x40 MLOAD DUP1 PUSH1 0xA0 ADD PUSH1 0x40 MSTORE SWAP1 DUP2 PUSH1 0x0 DUP3 ADD DUP1 SLOAD PUSH2 0x4F8 SWAP1 PUSH2 0x11D9 JUMP JUMPDEST DUP1 PUSH1 0x1F ADD PUSH1 0x20 DUP1 SWAP2 DIV MUL PUSH1 0x20 ADD PUSH1 0x40 MLOAD SWAP1 DUP2 ADD PUSH1 0x40 MSTORE DUP1 SWAP3 SWAP2 SWAP1 DUP2 DUP2 MSTORE PUSH1 0x20 ADD DUP3 DUP1 SLOAD PUSH2 0x524 SWAP1 PUSH2 0x11D9 JUMP JUMPDEST DUP1 ISZERO PUSH2 0x571 JUMPI DUP1 PUSH1 0x1F LT PUSH2 0x546 JUMPI PUSH2 0x100 DUP1 DUP4 SLOAD DIV MUL DUP4 MSTORE SWAP2 PUSH1 0x20 ADD SWAP2 PUSH2 0x571 JUMP JUMPDEST DUP3 ADD SWAP2 SWAP1 PUSH1 0x0 MSTORE PUSH1 0x20 PUSH1 0x0 KECCAK256 SWAP1 JUMPDEST DUP2 SLOAD DUP2 MSTORE SWAP1 PUSH1 0x1 ADD SWAP1 PUSH1 0x20 ADD DUP1 DUP4 GT PUSH2 0x554 JUMPI DUP3 SWAP1 SUB PUSH1 0x1F AND DUP3 ADD SWAP2 JUMPDEST POP POP POP POP POP DUP2 MSTORE PUSH1 0x20 ADD PUSH1 0x1 DUP3 ADD DUP1 SLOAD PUSH2 0x58A SWAP1 PUSH2 0x11D9 JUMP JUMPDEST DUP1 PUSH1 0x1F ADD PUSH1 0x20 DUP1 SWAP2 DIV MUL PUSH1 0x20 ADD PUSH1 0x40 MLOAD SWAP1 DUP2 ADD PUSH1 0x40 MSTORE DUP1 SWAP3 SWAP2 SWAP1 DUP2 DUP2 MSTORE PUSH1 0x20 ADD DUP3 DUP1 SLOAD PUSH2 0x5B6 SWAP1 PUSH2 0x11D9 JUMP JUMPDEST DUP1 ISZERO PUSH2 0x603 JUMPI DUP1 PUSH1 0x1F LT PUSH2 0x5D8 JUMPI PUSH2 0x100 DUP1 DUP4 SLOAD DIV MUL DUP4 MSTORE SWAP2 PUSH1 0x20 ADD SWAP2 PUSH2 0x603 JUMP JUMPDEST DUP3 ADD SWAP2 SWAP1 PUSH1 0x0 MSTORE PUSH1 0x20 PUSH1 0x0 KECCAK256 SWAP1 JUMPDEST DUP2 SLOAD DUP2 MSTORE SWAP1 PUSH1 0x1 ADD SWAP1 PUSH1 0x20 ADD DUP1 DUP4 GT PUSH2 0x5E6 JUMPI DUP3 SWAP1 SUB PUSH1 0x1F AND DUP3 ADD SWAP2 JUMPDEST POP POP POP POP POP DUP2 MSTORE PUSH1 0x20 ADD PUSH1 0x2 DUP3 ADD SLOAD DUP2 MSTORE PUSH1 0x20 ADD PUSH1 0x3 DUP3 ADD SLOAD DUP2 MSTORE PUSH1 0x20 ADD PUSH1 0x4 DUP3 ADD PUSH1 0x0 SWAP1 SLOAD SWAP1 PUSH2 0x100 EXP SWAP1 DIV PUSH20 0xFFFFFFFFFFFFFFFFFFFFFFFFFFFFFFFFFFFFFFFF AND PUSH20 0xFFFFFFFFFFFFFFFFFFFFFFFFFFFFFFFFFFFFFFFF AND PUSH20 0xFFFFFFFFFFFFFFFFFFFFFFFFFFFFFFFFFFFFFFFF AND DUP2 MSTORE POP POP SWAP1 POP DUP1 PUSH1 0x40 ADD MLOAD SWAP2 POP POP SWAP2 SWAP1 POP JUMP JUMPDEST PUSH1 0x0 DUP1 SLOAD SWAP1 PUSH2 0x100 EXP SWAP1 DIV PUSH20 0xFFFFFFFFFFFFFFFFFFFFFFFFFFFFFFFFFFFFFFFF AND DUP2 JUMP JUMPDEST PUSH1 0x60 DUP1 PUSH1 0x0 DUP1 PUSH1 0x0 DUP1 PUSH1 0x3 PUSH1 0x0 DUP9 DUP2 MSTORE PUSH1 0x20 ADD SWAP1 DUP2 MSTORE PUSH1 0x20 ADD PUSH1 0x0 KECCAK256 PUSH1 0x40 MLOAD DUP1 PUSH1 0xA0 ADD PUSH1 0x40 MSTORE SWAP1 DUP2 PUSH1 0x0 DUP3 ADD DUP1 SLOAD PUSH2 0x6E0 SWAP1 PUSH2 0x11D9 JUMP JUMPDEST DUP1 PUSH1 0x1F ADD PUSH1 0x20 DUP1 SWAP2 DIV MUL PUSH1 0x20 ADD PUSH1 0x40 MLOAD SWAP1 DUP2 ADD PUSH1 0x40 MSTORE DUP1 SWAP3 SWAP2 SWAP1 DUP2 DUP2 MSTORE PUSH1 0x20 ADD DUP3 DUP1 SLOAD PUSH2 0x70C SWAP1 PUSH2 0x11D9 JUMP JUMPDEST DUP1 ISZERO PUSH2 0x759 JUMPI DUP1 PUSH1 0x1F LT PUSH2 0x72E JUMPI PUSH2 0x100 DUP1 DUP4 SLOAD DIV MUL DUP4 MSTORE SWAP2 PUSH1 0x20 ADD SWAP2 PUSH2 0x759 JUMP JUMPDEST DUP3 ADD SWAP2 SWAP1 PUSH1 0x0 MSTORE PUSH1 0x20 PUSH1 0x0 KECCAK256 SWAP1 JUMPDEST DUP2 SLOAD DUP2 MSTORE SWAP1 PUSH1 0x1 ADD SWAP1 PUSH1 0x20 ADD DUP1 DUP4 GT PUSH2 0x73C JUMPI DUP3 SWAP1 SUB PUSH1 0x1F AND DUP3 ADD SWAP2 JUMPDEST POP POP POP POP POP DUP2 MSTORE PUSH1 0x20 ADD PUSH1 0x1 DUP3 ADD DUP1 SLOAD PUSH2 0x772 SWAP1 PUSH2 0x11D9 JUMP JUMPDEST DUP1 PUSH1 0x1F ADD PUSH1 0x20 DUP1 SWAP2 DIV MUL PUSH1 0x20 ADD PUSH1 0x40 MLOAD SWAP1 DUP2 ADD PUSH1 0x40 MSTORE DUP1 SWAP3 SWAP2 SWAP1 DUP2 DUP2 MSTORE PUSH1 0x20 ADD DUP3 DUP1 SLOAD PUSH2 0x79E SWAP1 PUSH2 0x11D9 JUMP JUMPDEST DUP1 ISZERO PUSH2 0x7EB JUMPI DUP1 PUSH1 0x1F LT PUSH2 0x7C0 JUMPI PUSH2 0x100 DUP1 DUP4 SLOAD DIV MUL DUP4 MSTORE SWAP2 PUSH1 0x20 ADD SWAP2 PUSH2 0x7EB JUMP JUMPDEST DUP3 ADD SWAP2 SWAP1 PUSH1 0x0 MSTORE PUSH1 0x20 PUSH1 0x0 KECCAK256 SWAP1 JUMPDEST DUP2 SLOAD DUP2 MSTORE SWAP1 PUSH1 0x1 ADD SWAP1 PUSH1 0x20 ADD DUP1 DUP4 GT PUSH2 0x7CE JUMPI DUP3 SWAP1 SUB PUSH1 0x1F AND DUP3 ADD SWAP2 JUMPDEST POP POP POP POP POP DUP2 MSTORE PUSH1 0x20 ADD PUSH1 0x2 DUP3 ADD SLOAD DUP2 MSTORE PUSH1 0x20 ADD PUSH1 0x3 DUP3 ADD SLOAD DUP2 MSTORE PUSH1 0x20 ADD PUSH1 0x4 DUP3 ADD PUSH1 0x0 SWAP1 SLOAD SWAP1 PUSH2 0x100 EXP SWAP1 DIV PUSH20 0xFFFFFFFFFFFFFFFFFFFFFFFFFFFFFFFFFFFFFFFF AND PUSH20 0xFFFFFFFFFFFFFFFFFFFFFFFFFFFFFFFFFFFFFFFF AND PUSH20 0xFFFFFFFFFFFFFFFFFFFFFFFFFFFFFFFFFFFFFFFF AND DUP2 MSTORE POP POP SWAP1 POP DUP1 PUSH1 0x0 ADD MLOAD DUP2 PUSH1 0x20 ADD MLOAD DUP3 PUSH1 0x40 ADD MLOAD DUP4 PUSH1 0x60 ADD MLOAD DUP5 PUSH1 0x80 ADD MLOAD SWAP6 POP SWAP6 POP SWAP6 POP SWAP6 POP SWAP6 POP POP SWAP2 SWAP4 SWAP6 SWAP1 SWAP3 SWAP5 POP JUMP JUMPDEST CALLER PUSH20 0xFFFFFFFFFFFFFFFFFFFFFFFFFFFFFFFFFFFFFFFF AND PUSH1 0x1 PUSH1 0x0 SWAP1 SLOAD SWAP1 PUSH2 0x100 EXP SWAP1 DIV PUSH20 0xFFFFFFFFFFFFFFFFFFFFFFFFFFFFFFFFFFFFFFFF AND PUSH20 0xFFFFFFFFFFFFFFFFFFFFFFFFFFFFFFFFFFFFFFFF AND EQ PUSH2 0x8E7 JUMPI PUSH1 0x0 DUP1 REVERT JUMPDEST PUSH1 0x0 PUSH1 0x3 PUSH1 0x0 DUP5 DUP2 MSTORE PUSH1 0x20 ADD SWAP1 DUP2 MSTORE PUSH1 0x20 ADD PUSH1 0x0 KECCAK256 SWAP1 POP DUP2 DUP2 PUSH1 0x4 ADD PUSH1 0x0 PUSH2 0x100 EXP DUP2 SLOAD DUP2 PUSH20 0xFFFFFFFFFFFFFFFFFFFFFFFFFFFFFFFFFFFFFFFF MUL NOT AND SWAP1 DUP4 PUSH20 0xFFFFFFFFFFFFFFFFFFFFFFFFFFFFFFFFFFFFFFFF AND MUL OR SWAP1 SSTORE POP POP POP POP JUMP JUMPDEST PUSH1 0x3 PUSH1 0x20 MSTORE DUP1 PUSH1 0x0 MSTORE PUSH1 0x40 PUSH1 0x0 KECCAK256 PUSH1 0x0 SWAP2 POP SWAP1 POP DUP1 PUSH1 0x0 ADD DUP1 SLOAD PUSH2 0x969 SWAP1 PUSH2 0x11D9 JUMP JUMPDEST DUP1 PUSH1 0x1F ADD PUSH1 0x20 DUP1 SWAP2 DIV MUL PUSH1 0x20 ADD PUSH1 0x40 MLOAD SWAP1 DUP2 ADD PUSH1 0x40 MSTORE DUP1 SWAP3 SWAP2 SWAP1 DUP2 DUP2 MSTORE PUSH1 0x20 ADD DUP3 DUP1 SLOAD PUSH2 0x995 SWAP1 PUSH2 0x11D9 JUMP JUMPDEST DUP1 ISZERO PUSH2 0x9E2 JUMPI DUP1 PUSH1 0x1F LT PUSH2 0x9B7 JUMPI PUSH2 0x100 DUP1 DUP4 SLOAD DIV MUL DUP4 MSTORE SWAP2 PUSH1 0x20 ADD SWAP2 PUSH2 0x9E2 JUMP JUMPDEST DUP3 ADD SWAP2 SWAP1 PUSH1 0x0 MSTORE PUSH1 0x20 PUSH1 0x0 KECCAK256 SWAP1 JUMPDEST DUP2 SLOAD DUP2 MSTORE SWAP1 PUSH1 0x1 ADD SWAP1 PUSH1 0x20 ADD DUP1 DUP4 GT PUSH2 0x9C5 JUMPI DUP3 SWAP1 SUB PUSH1 0x1F AND DUP3 ADD SWAP2 JUMPDEST POP POP POP POP POP SWAP1 DUP1 PUSH1 0x1 ADD DUP1 SLOAD PUSH2 0x9F7 SWAP1 PUSH2 0x11D9 JUMP JUMPDEST DUP1 PUSH1 0x1F ADD PUSH1 0x20 DUP1 SWAP2 DIV MUL PUSH1 0x20 ADD PUSH1 0x40 MLOAD SWAP1 DUP2 ADD PUSH1 0x40 MSTORE DUP1 SWAP3 SWAP2 SWAP1 DUP2 DUP2 MSTORE PUSH1 0x20 ADD DUP3 DUP1 SLOAD PUSH2 0xA23 SWAP1 PUSH2 0x11D9 JUMP JUMPDEST DUP1 ISZERO PUSH2 0xA70 JUMPI DUP1 PUSH1 0x1F LT PUSH2 0xA45 JUMPI PUSH2 0x100 DUP1 DUP4 SLOAD DIV MUL DUP4 MSTORE SWAP2 PUSH1 0x20 ADD SWAP2 PUSH2 0xA70 JUMP JUMPDEST DUP3 ADD SWAP2 SWAP1 PUSH1 0x0 MSTORE PUSH1 0x20 PUSH1 0x0 KECCAK256 SWAP1 JUMPDEST DUP2 SLOAD DUP2 MSTORE SWAP1 PUSH1 0x1 ADD SWAP1 PUSH1 0x20 ADD DUP1 DUP4 GT PUSH2 0xA53 JUMPI DUP3 SWAP1 SUB PUSH1 0x1F AND DUP3 ADD SWAP2 JUMPDEST POP POP POP POP POP SWAP1 DUP1 PUSH1 0x2 ADD SLOAD SWAP1 DUP1 PUSH1 0x3 ADD SLOAD SWAP1 DUP1 PUSH1 0x4 ADD PUSH1 0x0 SWAP1 SLOAD SWAP1 PUSH2 0x100 EXP SWAP1 DIV PUSH20 0xFFFFFFFFFFFFFFFFFFFFFFFFFFFFFFFFFFFFFFFF AND SWAP1 POP DUP6 JUMP JUMPDEST PUSH1 0x0 PUSH1 0x4 DUP3 PUSH1 0x40 MLOAD PUSH2 0xABE SWAP2 SWAP1 PUSH2 0x1193 JUMP JUMPDEST SWAP1 DUP2 MSTORE PUSH1 0x20 ADD PUSH1 0x40 MLOAD DUP1 SWAP2 SUB SWAP1 KECCAK256 PUSH1 0x0 SWAP1 SLOAD SWAP1 PUSH2 0x100 EXP SWAP1 DIV PUSH1 0xFF AND SWAP1 POP SWAP2 SWAP1 POP JUMP JUMPDEST PUSH1 0x2 SLOAD DUP2 JUMP JUMPDEST DUP3 DUP1 SLOAD PUSH2 0xAF3 SWAP1 PUSH2 0x11D9 JUMP JUMPDEST SWAP1 PUSH1 0x0 MSTORE PUSH1 0x20 PUSH1 0x0 KECCAK256 SWAP1 PUSH1 0x1F ADD PUSH1 0x20 SWAP1 DIV DUP2 ADD SWAP3 DUP3 PUSH2 0xB15 JUMPI PUSH1 0x0 DUP6 SSTORE PUSH2 0xB5C JUMP JUMPDEST DUP3 PUSH1 0x1F LT PUSH2 0xB2E JUMPI DUP1 MLOAD PUSH1 0xFF NOT AND DUP4 DUP1 ADD OR DUP6 SSTORE PUSH2 0xB5C JUMP JUMPDEST DUP3 DUP1 ADD PUSH1 0x1 ADD DUP6 SSTORE DUP3 ISZERO PUSH2 0xB5C JUMPI SWAP2 DUP3 ADD JUMPDEST DUP3 DUP2 GT ISZERO PUSH2 0xB5B JUMPI DUP3 MLOAD DUP3 SSTORE SWAP2 PUSH1 0x20 ADD SWAP2 SWAP1 PUSH1 0x1 ADD SWAP1 PUSH2 0xB40 JUMP JUMPDEST JUMPDEST POP SWAP1 POP PUSH2 0xB69 SWAP2 SWAP1 PUSH2 0xB6D JUMP JUMPDEST POP SWAP1 JUMP JUMPDEST JUMPDEST DUP1 DUP3 GT ISZERO PUSH2 0xB86 JUMPI PUSH1 0x0 DUP2 PUSH1 0x0 SWAP1 SSTORE POP PUSH1 0x1 ADD PUSH2 0xB6E JUMP JUMPDEST POP SWAP1 JUMP JUMPDEST PUSH1 0x0 PUSH1 0x40 MLOAD SWAP1 POP SWAP1 JUMP JUMPDEST PUSH1 0x0 DUP1 REVERT JUMPDEST PUSH1 0x0 DUP1 REVERT JUMPDEST PUSH1 0x0 DUP2 SWAP1 POP SWAP2 SWAP1 POP JUMP JUMPDEST PUSH2 0xBB1 DUP2 PUSH2 0xB9E JUMP JUMPDEST DUP2 EQ PUSH2 0xBBC JUMPI PUSH1 0x0 DUP1 REVERT JUMPDEST POP JUMP JUMPDEST PUSH1 0x0 DUP2 CALLDATALOAD SWAP1 POP PUSH2 0xBCE DUP2 PUSH2 0xBA8 JUMP JUMPDEST SWAP3 SWAP2 POP POP JUMP JUMPDEST PUSH1 0x0 PUSH1 0x20 DUP3 DUP5 SUB SLT ISZERO PUSH2 0xBEA JUMPI PUSH2 0xBE9 PUSH2 0xB94 JUMP JUMPDEST JUMPDEST PUSH1 0x0 PUSH2 0xBF8 DUP5 DUP3 DUP6 ADD PUSH2 0xBBF JUMP JUMPDEST SWAP2 POP POP SWAP3 SWAP2 POP POP JUMP JUMPDEST PUSH1 0x0 DUP1 REVERT JUMPDEST PUSH1 0x0 DUP1 REVERT JUMPDEST PUSH1 0x0 PUSH1 0x1F NOT PUSH1 0x1F DUP4 ADD AND SWAP1 POP SWAP2 SWAP1 POP JUMP JUMPDEST PUSH32 0x4E487B7100000000000000000000000000000000000000000000000000000000 PUSH1 0x0 MSTORE PUSH1 0x41 PUSH1 0x4 MSTORE PUSH1 0x24 PUSH1 0x0 REVERT JUMPDEST PUSH2 0xC54 DUP3 PUSH2 0xC0B JUMP JUMPDEST DUP2 ADD DUP2 DUP2 LT PUSH8 0xFFFFFFFFFFFFFFFF DUP3 GT OR ISZERO PUSH2 0xC73 JUMPI PUSH2 0xC72 PUSH2 0xC1C JUMP JUMPDEST JUMPDEST DUP1 PUSH1 0x40 MSTORE POP POP POP JUMP JUMPDEST PUSH1 0x0 PUSH2 0xC86 PUSH2 0xB8A JUMP JUMPDEST SWAP1 POP PUSH2 0xC92 DUP3 DUP3 PUSH2 0xC4B JUMP JUMPDEST SWAP2 SWAP1 POP JUMP JUMPDEST PUSH1 0x0 PUSH8 0xFFFFFFFFFFFFFFFF DUP3 GT ISZERO PUSH2 0xCB2 JUMPI PUSH2 0xCB1 PUSH2 0xC1C JUMP JUMPDEST JUMPDEST PUSH2 0xCBB DUP3 PUSH2 0xC0B JUMP JUMPDEST SWAP1 POP PUSH1 0x20 DUP2 ADD SWAP1 POP SWAP2 SWAP1 POP JUMP JUMPDEST DUP3 DUP2 DUP4 CALLDATACOPY PUSH1 0x0 DUP4 DUP4 ADD MSTORE POP POP POP JUMP JUMPDEST PUSH1 0x0 PUSH2 0xCEA PUSH2 0xCE5 DUP5 PUSH2 0xC97 JUMP JUMPDEST PUSH2 0xC7C JUMP JUMPDEST SWAP1 POP DUP3 DUP2 MSTORE PUSH1 0x20 DUP2 ADD DUP5 DUP5 DUP5 ADD GT ISZERO PUSH2 0xD06 JUMPI PUSH2 0xD05 PUSH2 0xC06 JUMP JUMPDEST JUMPDEST PUSH2 0xD11 DUP5 DUP3 DUP6 PUSH2 0xCC8 JUMP JUMPDEST POP SWAP4 SWAP3 POP POP POP JUMP JUMPDEST PUSH1 0x0 DUP3 PUSH1 0x1F DUP4 ADD SLT PUSH2 0xD2E JUMPI PUSH2 0xD2D PUSH2 0xC01 JUMP JUMPDEST JUMPDEST DUP2 CALLDATALOAD PUSH2 0xD3E DUP5 DUP3 PUSH1 0x20 DUP7 ADD PUSH2 0xCD7 JUMP JUMPDEST SWAP2 POP POP SWAP3 SWAP2 POP POP JUMP JUMPDEST PUSH1 0x0 DUP1 PUSH1 0x0 DUP1 PUSH1 0x80 DUP6 DUP8 SUB SLT ISZERO PUSH2 0xD61 JUMPI PUSH2 0xD60 PUSH2 0xB94 JUMP JUMPDEST JUMPDEST PUSH1 0x0 PUSH2 0xD6F DUP8 DUP3 DUP9 ADD PUSH2 0xBBF JUMP JUMPDEST SWAP5 POP POP PUSH1 0x20 DUP6 ADD CALLDATALOAD PUSH8 0xFFFFFFFFFFFFFFFF DUP2 GT ISZERO PUSH2 0xD90 JUMPI PUSH2 0xD8F PUSH2 0xB99 JUMP JUMPDEST JUMPDEST PUSH2 0xD9C DUP8 DUP3 DUP9 ADD PUSH2 0xD19 JUMP JUMPDEST SWAP4 POP POP PUSH1 0x40 DUP6 ADD CALLDATALOAD PUSH8 0xFFFFFFFFFFFFFFFF DUP2 GT ISZERO PUSH2 0xDBD JUMPI PUSH2 0xDBC PUSH2 0xB99 JUMP JUMPDEST JUMPDEST PUSH2 0xDC9 DUP8 DUP3 DUP9 ADD PUSH2 0xD19 JUMP JUMPDEST SWAP3 POP POP PUSH1 0x60 PUSH2 0xDDA DUP8 DUP3 DUP9 ADD PUSH2 0xBBF JUMP JUMPDEST SWAP2 POP POP SWAP3 SWAP6 SWAP2 SWAP5 POP SWAP3 POP JUMP JUMPDEST PUSH1 0x0 PUSH1 0x20 DUP3 DUP5 SUB SLT ISZERO PUSH2 0xDFC JUMPI PUSH2 0xDFB PUSH2 0xB94 JUMP JUMPDEST JUMPDEST PUSH1 0x0 DUP3 ADD CALLDATALOAD PUSH8 0xFFFFFFFFFFFFFFFF DUP2 GT ISZERO PUSH2 0xE1A JUMPI PUSH2 0xE19 PUSH2 0xB99 JUMP JUMPDEST JUMPDEST PUSH2 0xE26 DUP5 DUP3 DUP6 ADD PUSH2 0xD19 JUMP JUMPDEST SWAP2 POP POP SWAP3 SWAP2 POP POP JUMP JUMPDEST PUSH1 0x0 DUP2 ISZERO ISZERO SWAP1 POP SWAP2 SWAP1 POP JUMP JUMPDEST PUSH2 0xE44 DUP2 PUSH2 0xE2F JUMP JUMPDEST DUP3 MSTORE POP POP JUMP JUMPDEST PUSH1 0x0 PUSH1 0x20 DUP3 ADD SWAP1 POP PUSH2 0xE5F PUSH1 0x0 DUP4 ADD DUP5 PUSH2 0xE3B JUMP JUMPDEST SWAP3 SWAP2 POP POP JUMP JUMPDEST PUSH1 0x0 PUSH20 0xFFFFFFFFFFFFFFFFFFFFFFFFFFFFFFFFFFFFFFFF DUP3 AND SWAP1 POP SWAP2 SWAP1 POP JUMP JUMPDEST PUSH1 0x0 PUSH2 0xE90 DUP3 PUSH2 0xE65 JUMP JUMPDEST SWAP1 POP SWAP2 SWAP1 POP JUMP JUMPDEST PUSH2 0xEA0 DUP2 PUSH2 0xE85 JUMP JUMPDEST DUP2 EQ PUSH2 0xEAB JUMPI PUSH1 0x0 DUP1 REVERT JUMPDEST POP JUMP JUMPDEST PUSH1 0x0 DUP2 CALLDATALOAD SWAP1 POP PUSH2 0xEBD DUP2 PUSH2 0xE97 JUMP JUMPDEST SWAP3 SWAP2 POP POP JUMP JUMPDEST PUSH1 0x0 DUP1 PUSH1 0x0 DUP1 PUSH1 0x80 DUP6 DUP8 SUB SLT ISZERO PUSH2 0xEDD JUMPI PUSH2 0xEDC PUSH2 0xB94 JUMP JUMPDEST JUMPDEST PUSH1 0x0 DUP6 ADD CALLDATALOAD PUSH8 0xFFFFFFFFFFFFFFFF DUP2 GT ISZERO PUSH2 0xEFB JUMPI PUSH2 0xEFA PUSH2 0xB99 JUMP JUMPDEST JUMPDEST PUSH2 0xF07 DUP8 DUP3 DUP9 ADD PUSH2 0xD19 JUMP JUMPDEST SWAP5 POP POP PUSH1 0x20 DUP6 ADD CALLDATALOAD PUSH8 0xFFFFFFFFFFFFFFFF DUP2 GT ISZERO PUSH2 0xF28 JUMPI PUSH2 0xF27 PUSH2 0xB99 JUMP JUMPDEST JUMPDEST PUSH2 0xF34 DUP8 DUP3 DUP9 ADD PUSH2 0xD19 JUMP JUMPDEST SWAP4 POP POP PUSH1 0x40 PUSH2 0xF45 DUP8 DUP3 DUP9 ADD PUSH2 0xBBF JUMP JUMPDEST SWAP3 POP POP PUSH1 0x60 PUSH2 0xF56 DUP8 DUP3 DUP9 ADD PUSH2 0xEAE JUMP JUMPDEST SWAP2 POP POP SWAP3 SWAP6 SWAP2 SWAP5 POP SWAP3 POP JUMP JUMPDEST PUSH2 0xF6B DUP2 PUSH2 0xB9E JUMP JUMPDEST DUP3 MSTORE POP POP JUMP JUMPDEST PUSH1 0x0 PUSH1 0x20 DUP3 ADD SWAP1 POP PUSH2 0xF86 PUSH1 0x0 DUP4 ADD DUP5 PUSH2 0xF62 JUMP JUMPDEST SWAP3 SWAP2 POP POP JUMP JUMPDEST PUSH2 0xF95 DUP2 PUSH2 0xE85 JUMP JUMPDEST DUP3 MSTORE POP POP JUMP JUMPDEST PUSH1 0x0 PUSH1 0x20 DUP3 ADD SWAP1 POP PUSH2 0xFB0 PUSH1 0x0 DUP4 ADD DUP5 PUSH2 0xF8C JUMP JUMPDEST SWAP3 SWAP2 POP POP JUMP JUMPDEST PUSH1 0x0 DUP2 MLOAD SWAP1 POP SWAP2 SWAP1 POP JUMP JUMPDEST PUSH1 0x0 DUP3 DUP3 MSTORE PUSH1 0x20 DUP3 ADD SWAP1 POP SWAP3 SWAP2 POP POP JUMP JUMPDEST PUSH1 0x0 JUMPDEST DUP4 DUP2 LT ISZERO PUSH2 0xFF0 JUMPI DUP1 DUP3 ADD MLOAD DUP2 DUP5 ADD MSTORE PUSH1 0x20 DUP2 ADD SWAP1 POP PUSH2 0xFD5 JUMP JUMPDEST DUP4 DUP2 GT ISZERO PUSH2 0xFFF JUMPI PUSH1 0x0 DUP5 DUP5 ADD MSTORE JUMPDEST POP POP POP POP JUMP JUMPDEST PUSH1 0x0 PUSH2 0x1010 DUP3 PUSH2 0xFB6 JUMP JUMPDEST PUSH2 0x101A DUP2 DUP6 PUSH2 0xFC1 JUMP JUMPDEST SWAP4 POP PUSH2 0x102A DUP2 DUP6 PUSH1 0x20 DUP7 ADD PUSH2 0xFD2 JUMP JUMPDEST PUSH2 0x1033 DUP2 PUSH2 0xC0B JUMP JUMPDEST DUP5 ADD SWAP2 POP POP SWAP3 SWAP2 POP POP JUMP JUMPDEST PUSH1 0x0 PUSH1 0xA0 DUP3 ADD SWAP1 POP DUP2 DUP2 SUB PUSH1 0x0 DUP4 ADD MSTORE PUSH2 0x1058 DUP2 DUP9 PUSH2 0x1005 JUMP JUMPDEST SWAP1 POP DUP2 DUP2 SUB PUSH1 0x20 DUP4 ADD MSTORE PUSH2 0x106C DUP2 DUP8 PUSH2 0x1005 JUMP JUMPDEST SWAP1 POP PUSH2 0x107B PUSH1 0x40 DUP4 ADD DUP7 PUSH2 0xF62 JUMP JUMPDEST PUSH2 0x1088 PUSH1 0x60 DUP4 ADD DUP6 PUSH2 0xF62 JUMP JUMPDEST PUSH2 0x1095 PUSH1 0x80 DUP4 ADD DUP5 PUSH2 0xF8C JUMP JUMPDEST SWAP7 SWAP6 POP POP POP POP POP POP JUMP JUMPDEST PUSH1 0x0 DUP1 PUSH1 0x40 DUP4 DUP6 SUB SLT ISZERO PUSH2 0x10B6 JUMPI PUSH2 0x10B5 PUSH2 0xB94 JUMP JUMPDEST JUMPDEST PUSH1 0x0 PUSH2 0x10C4 DUP6 DUP3 DUP7 ADD PUSH2 0xBBF JUMP JUMPDEST SWAP3 POP POP PUSH1 0x20 PUSH2 0x10D5 DUP6 DUP3 DUP7 ADD PUSH2 0xEAE JUMP JUMPDEST SWAP2 POP POP SWAP3 POP SWAP3 SWAP1 POP JUMP JUMPDEST PUSH32 0x4E487B7100000000000000000000000000000000000000000000000000000000 PUSH1 0x0 MSTORE PUSH1 0x11 PUSH1 0x4 MSTORE PUSH1 0x24 PUSH1 0x0 REVERT JUMPDEST PUSH1 0x0 PUSH2 0x1119 DUP3 PUSH2 0xB9E JUMP JUMPDEST SWAP2 POP PUSH32 0xFFFFFFFFFFFFFFFFFFFFFFFFFFFFFFFFFFFFFFFFFFFFFFFFFFFFFFFFFFFFFFFF DUP3 EQ ISZERO PUSH2 0x114C JUMPI PUSH2 0x114B PUSH2 0x10DF JUMP JUMPDEST JUMPDEST PUSH1 0x1 DUP3 ADD SWAP1 POP SWAP2 SWAP1 POP JUMP JUMPDEST PUSH1 0x0 DUP2 SWAP1 POP SWAP3 SWAP2 POP POP JUMP JUMPDEST PUSH1 0x0 PUSH2 0x116D DUP3 PUSH2 0xFB6 JUMP JUMPDEST PUSH2 0x1177 DUP2 DUP6 PUSH2 0x1157 JUMP JUMPDEST SWAP4 POP PUSH2 0x1187 DUP2 DUP6 PUSH1 0x20 DUP7 ADD PUSH2 0xFD2 JUMP JUMPDEST DUP1 DUP5 ADD SWAP2 POP POP SWAP3 SWAP2 POP POP JUMP JUMPDEST PUSH1 0x0 PUSH2 0x119F DUP3 DUP5 PUSH2 0x1162 JUMP JUMPDEST SWAP2 POP DUP2 SWAP1 POP SWAP3 SWAP2 POP POP JUMP JUMPDEST PUSH32 0x4E487B7100000000000000000000000000000000000000000000000000000000 PUSH1 0x0 MSTORE PUSH1 0x22 PUSH1 0x4 MSTORE PUSH1 0x24 PUSH1 0x0 REVERT JUMPDEST PUSH1 0x0 PUSH1 0x2 DUP3 DIV SWAP1 POP PUSH1 0x1 DUP3 AND DUP1 PUSH2 0x11F1 JUMPI PUSH1 0x7F DUP3 AND SWAP2 POP JUMPDEST PUSH1 0x20 DUP3 LT DUP2 EQ ISZERO PUSH2 0x1205 JUMPI PUSH2 0x1204 PUSH2 0x11AA JUMP JUMPDEST JUMPDEST POP SWAP2 SWAP1 POP JUMP INVALID LOG2 PUSH5 0x6970667358 0x22 SLT KECCAK256 PUSH19 0x95D9DF1302A08B413A7EFFEAEE3CCC7AB05E39 MSTORE 0xE7 LOG0 0x27 0x5D 0xE2 EXTCODECOPY 0xAC DUP16 0xD9 0xB8 GT PUSH5 0x736F6C6343 STOP ADDMOD EXP STOP CALLER "},"gasEstimates":{"creation":{"codeDepositCost":"934600","executionCost":"infinite","totalCost":"infinite"},"external":{"addBook(string,string,uint256,address)":"infinite","bookInformations(uint256)":"infinite","changeAuthorAddress(uint256,address)":"27206","getBookInformation(uint256)":"infinite","getBookPrice(uint256)":"infinite","getIsStoredBook(string)":"infinite","isStoredBook(string)":"infinite","modifyBook(uint256,string,string,uint256)":"infinite","numBook()":"2539","owner()":"2511","tokenCreated(uint256)":"infinite"}},"methodIdentifiers":{"addBook(string,string,uint256,address)":"687564ae","bookInformations(uint256)":"d9ff0cf1","changeAuthorAddress(uint256,address)":"a54925dd","getBookInformation(uint256)":"98fbce79","getBookPrice(uint256)":"6c230eef","getIsStoredBook(string)":"e71448a9","isStoredBook(string)":"1cb71ed5","modifyBook(uint256,string,string,uint256)":"0cc21200","numBook()":"f76ebe1c","owner()":"8da5cb5b","tokenCreated(uint256)":"0a6b2a25"}},"storageLayout":{"storage":[{"astId":500,"contract":"devs/BookManager.sol:BookManager","label":"owner","offset":0,"slot":"0","type":"t_address"},{"astId":502,"contract":"devs/BookManager.sol:BookManager","label":"contractAddress","offset":0,"slot":"1","type":"t_address"},{"astId":504,"contract":"devs/BookManager.sol:BookManager","label":"numBook","offset":0,"slot":"2","type":"t_uint256"},{"astId":509,"contract":"devs/BookManager.sol:BookManager","label":"bookInformations","offset":0,"slot":"3","type":"t_mapping(t_uint256,t_struct(BookInformation)458_storage)"},{"astId":513,"contract":"devs/BookManager.sol:BookManager","label":"isStoredBook","offset":0,"slot":"4","type":"t_mapping(t_string_memory_ptr,t_bool)"}],"types":{"t_address":{"encoding":"inplace","label":"address","numberOfBytes":"20"},"t_bool":{"encoding":"inplace","label":"bool","numberOfBytes":"1"},"t_mapping(t_string_memory_ptr,t_bool)":{"encoding":"mapping","key":"t_string_memory_ptr","label":"mapping(string => bool)","numberOfBytes":"32","value":"t_bool"},"t_mapping(t_uint256,t_struct(BookInformation)458_storage)":{"encoding":"mapping","key":"t_uint256","label":"mapping(uint256 => struct BookManagerInterface.BookInformation)","numberOfBytes":"32","value":"t_struct(BookInformation)458_storage"},"t_string_memory_ptr":{"encoding":"bytes","label":"string","numberOfBytes":"32"},"t_string_storage":{"encoding":"bytes","label":"string","numberOfBytes":"32"},"t_struct(BookInformation)458_storage":{"encoding":"inplace","label":"struct BookManagerInterface.BookInformation","members":[{"astId":449,"contract":"devs/BookManager.sol:BookManager","label":"bookId","offset":0,"slot":"0","type":"t_string_storage"},{"astId":451,"contract":"devs/BookManager.sol:BookManager","label":"title","offset":0,"slot":"1","type":"t_string_storage"},{"astId":453,"contract":"devs/BookManager.sol:BookManager","label":"price","offset":0,"slot":"2","type":"t_uint256"},{"astId":455,"contract":"devs/BookManager.sol:BookManager","label":"numToken","offset":0,"slot":"3","type":"t_uint256"},{"astId":457,"contract":"devs/BookManager.sol:BookManager","label":"authorAddress","offset":0,"slot":"4","type":"t_address"}],"numberOfBytes":"160"},"t_uint256":{"encoding":"inplace","label":"uint256","numberOfBytes":"32"}}},"userdoc":{"kind":"user","methods":{},"version":1}}