{"abi":[{"inputs":[{"internalType":"uint256","name":"maxBorrowingNumber","type":"uint256"}],"stateMutability":"nonpayable","type":"constructor"},{"inputs":[{"internalType":"string","name":"title","type":"string"},{"internalType":"string","name":"id","type":"string"},{"internalType":"string","name":"period","type":"string"},{"internalType":"uint256","name":"price","type":"uint256"},{"internalType":"uint256","name":"stock","type":"uint256"}],"name":"addBook","outputs":[],"stateMutability":"nonpayable","type":"function"},{"inputs":[{"internalType":"uint256","name":"","type":"uint256"}],"name":"books","outputs":[{"internalType":"string","name":"title","type":"string"},{"internalType":"string","name":"id","type":"string"},{"internalType":"string","name":"lendingPeriod","type":"string"},{"internalType":"uint256","name":"price","type":"uint256"},{"internalType":"uint256","name":"stock","type":"uint256"},{"internalType":"uint256","name":"numBorrowed","type":"uint256"},{"internalType":"bool","name":"isFullBorrowed","type":"bool"}],"stateMutability":"view","type":"function"},{"inputs":[{"internalType":"uint256","name":"index","type":"uint256"}],"name":"borrowBook","outputs":[],"stateMutability":"nonpayable","type":"function"},{"inputs":[],"name":"countUser","outputs":[{"internalType":"uint256","name":"","type":"uint256"}],"stateMutability":"view","type":"function"},{"inputs":[{"internalType":"address","name":"staffAddress","type":"address"}],"name":"inviteStaff","outputs":[],"stateMutability":"nonpayable","type":"function"},{"inputs":[],"name":"manager","outputs":[{"internalType":"address","name":"","type":"address"}],"stateMutability":"view","type":"function"},{"inputs":[],"name":"maxBorrowing","outputs":[{"internalType":"uint256","name":"","type":"uint256"}],"stateMutability":"view","type":"function"},{"inputs":[{"internalType":"uint256","name":"index","type":"uint256"},{"internalType":"string","name":"title","type":"string"},{"internalType":"string","name":"id","type":"string"},{"internalType":"string","name":"period","type":"string"},{"internalType":"uint256","name":"price","type":"uint256"},{"internalType":"uint256","name":"stock","type":"uint256"}],"name":"modifyInformation","outputs":[],"stateMutability":"nonpayable","type":"function"},{"inputs":[],"name":"numBooks","outputs":[{"internalType":"uint256","name":"","type":"uint256"}],"stateMutability":"view","type":"function"},{"inputs":[],"name":"register","outputs":[],"stateMutability":"nonpayable","type":"function"},{"inputs":[{"internalType":"uint256","name":"index","type":"uint256"}],"name":"returnBook","outputs":[],"stateMutability":"nonpayable","type":"function"},{"inputs":[{"internalType":"address","name":"","type":"address"}],"name":"users","outputs":[{"internalType":"address","name":"userAddress","type":"address"},{"internalType":"uint256","name":"numBorrow","type":"uint256"}],"stateMutability":"view","type":"function"},{"inputs":[{"internalType":"address","name":"","type":"address"}],"name":"validUser","outputs":[{"internalType":"bool","name":"","type":"bool"}],"stateMutability":"view","type":"function"}],"devdoc":{"kind":"dev","methods":{},"version":1},"evm":{"assembly":"    /* \"Library.sol\":59:4038  contract Library {... */\n  mstore(0x40, 0x80)\n    /* \"Library.sol\":1025:1176  constructor(uint maxBorrowingNumber) {... */\n  callvalue\n  dup1\n  iszero\n  tag_1\n  jumpi\n  0x00\n  dup1\n  revert\ntag_1:\n  pop\n  mload(0x40)\n  sub(codesize, bytecodeSize)\n  dup1\n  bytecodeSize\n  dup4\n  codecopy\n  dup2\n  dup2\n  add\n  0x40\n  mstore\n  dup2\n  add\n  swap1\n  tag_2\n  swap2\n  swap1\n  tag_3\n  jump\t// in\ntag_2:\n    /* \"Library.sol\":1082:1092  msg.sender */\n  caller\n    /* \"Library.sol\":1072:1079  manager */\n  0x00\n  dup1\n    /* \"Library.sol\":1072:1092  manager = msg.sender */\n  0x0100\n  exp\n  dup2\n  sload\n  dup2\n  0xffffffffffffffffffffffffffffffffffffffff\n  mul\n  not\n  and\n  swap1\n  dup4\n  0xffffffffffffffffffffffffffffffffffffffff\n  and\n  mul\n  or\n  swap1\n  sstore\n  pop\n    /* \"Library.sol\":1117:1135  maxBorrowingNumber */\n  dup1\n    /* \"Library.sol\":1102:1114  maxBorrowing */\n  0x02\n    /* \"Library.sol\":1102:1135  maxBorrowing = maxBorrowingNumber */\n  dup2\n  swap1\n  sstore\n  pop\n    /* \"Library.sol\":1165:1169  true */\n  0x01\n    /* \"Library.sol\":1145:1150  staff */\n  0x05\n    /* \"Library.sol\":1145:1162  staff[msg.sender] */\n  0x00\n    /* \"Library.sol\":1151:1161  msg.sender */\n  caller\n    /* \"Library.sol\":1145:1162  staff[msg.sender] */\n  0xffffffffffffffffffffffffffffffffffffffff\n  and\n  0xffffffffffffffffffffffffffffffffffffffff\n  and\n  dup2\n  mstore\n  0x20\n  add\n  swap1\n  dup2\n  mstore\n  0x20\n  add\n  0x00\n  keccak256\n  0x00\n    /* \"Library.sol\":1145:1169  staff[msg.sender] = true */\n  0x0100\n  exp\n  dup2\n  sload\n  dup2\n  0xff\n  mul\n  not\n  and\n  swap1\n  dup4\n  iszero\n  iszero\n  mul\n  or\n  swap1\n  sstore\n  pop\n    /* \"Library.sol\":1025:1176  constructor(uint maxBorrowingNumber) {... */\n  pop\n    /* \"Library.sol\":59:4038  contract Library {... */\n  jump(tag_6)\n    /* \"#utility.yul\":88:205   */\ntag_8:\n    /* \"#utility.yul\":197:198   */\n  0x00\n    /* \"#utility.yul\":194:195   */\n  dup1\n    /* \"#utility.yul\":187:199   */\n  revert\n    /* \"#utility.yul\":334:411   */\ntag_10:\n    /* \"#utility.yul\":371:378   */\n  0x00\n    /* \"#utility.yul\":400:405   */\n  dup2\n    /* \"#utility.yul\":389:405   */\n  swap1\n  pop\n    /* \"#utility.yul\":334:411   */\n  swap2\n  swap1\n  pop\n  jump\t// out\n    /* \"#utility.yul\":417:539   */\ntag_11:\n    /* \"#utility.yul\":490:514   */\n  tag_19\n    /* \"#utility.yul\":508:513   */\n  dup2\n    /* \"#utility.yul\":490:514   */\n  tag_10\n  jump\t// in\ntag_19:\n    /* \"#utility.yul\":483:488   */\n  dup2\n    /* \"#utility.yul\":480:515   */\n  eq\n    /* \"#utility.yul\":470:533   */\n  tag_20\n  jumpi\n    /* \"#utility.yul\":529:530   */\n  0x00\n    /* \"#utility.yul\":526:527   */\n  dup1\n    /* \"#utility.yul\":519:531   */\n  revert\n    /* \"#utility.yul\":470:533   */\ntag_20:\n    /* \"#utility.yul\":417:539   */\n  pop\n  jump\t// out\n    /* \"#utility.yul\":545:688   */\ntag_12:\n    /* \"#utility.yul\":602:607   */\n  0x00\n    /* \"#utility.yul\":633:639   */\n  dup2\n    /* \"#utility.yul\":627:640   */\n  mload\n    /* \"#utility.yul\":618:640   */\n  swap1\n  pop\n    /* \"#utility.yul\":649:682   */\n  tag_22\n    /* \"#utility.yul\":676:681   */\n  dup2\n    /* \"#utility.yul\":649:682   */\n  tag_11\n  jump\t// in\ntag_22:\n    /* \"#utility.yul\":545:688   */\n  swap3\n  swap2\n  pop\n  pop\n  jump\t// out\n    /* \"#utility.yul\":694:1045   */\ntag_3:\n    /* \"#utility.yul\":764:770   */\n  0x00\n    /* \"#utility.yul\":813:815   */\n  0x20\n    /* \"#utility.yul\":801:810   */\n  dup3\n    /* \"#utility.yul\":792:799   */\n  dup5\n    /* \"#utility.yul\":788:811   */\n  sub\n    /* \"#utility.yul\":784:816   */\n  slt\n    /* \"#utility.yul\":781:900   */\n  iszero\n  tag_24\n  jumpi\n    /* \"#utility.yul\":819:898   */\n  tag_25\n  tag_8\n  jump\t// in\ntag_25:\n    /* \"#utility.yul\":781:900   */\ntag_24:\n    /* \"#utility.yul\":939:940   */\n  0x00\n    /* \"#utility.yul\":964:1028   */\n  tag_26\n    /* \"#utility.yul\":1020:1027   */\n  dup5\n    /* \"#utility.yul\":1011:1017   */\n  dup3\n    /* \"#utility.yul\":1000:1009   */\n  dup6\n    /* \"#utility.yul\":996:1018   */\n  add\n    /* \"#utility.yul\":964:1028   */\n  tag_12\n  jump\t// in\ntag_26:\n    /* \"#utility.yul\":954:1028   */\n  swap2\n  pop\n    /* \"#utility.yul\":910:1038   */\n  pop\n    /* \"#utility.yul\":694:1045   */\n  swap3\n  swap2\n  pop\n  pop\n  jump\t// out\n    /* \"Library.sol\":59:4038  contract Library {... */\ntag_6:\n  dataSize(sub_0)\n  dup1\n  dataOffset(sub_0)\n  0x00\n  codecopy\n  0x00\n  return\nstop\n\nsub_0: assembly {\n        /* \"Library.sol\":59:4038  contract Library {... */\n      mstore(0x40, 0x80)\n      callvalue\n      dup1\n      iszero\n      tag_1\n      jumpi\n      0x00\n      dup1\n      revert\n    tag_1:\n      pop\n      jumpi(tag_2, lt(calldatasize, 0x04))\n      shr(0xe0, calldataload(0x00))\n      dup1\n      0x7e490a9e\n      gt\n      tag_16\n      jumpi\n      dup1\n      0xca5140c9\n      gt\n      tag_17\n      jumpi\n      dup1\n      0xca5140c9\n      eq\n      tag_12\n      jumpi\n      dup1\n      0xe9617927\n      eq\n      tag_13\n      jumpi\n      dup1\n      0xebf98c27\n      eq\n      tag_14\n      jumpi\n      dup1\n      0xfe69494b\n      eq\n      tag_15\n      jumpi\n      jump(tag_2)\n    tag_17:\n      dup1\n      0x7e490a9e\n      eq\n      tag_9\n      jumpi\n      dup1\n      0x90272dff\n      eq\n      tag_10\n      jumpi\n      dup1\n      0xa87430ba\n      eq\n      tag_11\n      jumpi\n      jump(tag_2)\n    tag_16:\n      dup1\n      0x1aa3a008\n      eq\n      tag_3\n      jumpi\n      dup1\n      0x250caccc\n      eq\n      tag_4\n      jumpi\n      dup1\n      0x481c6a75\n      eq\n      tag_5\n      jumpi\n      dup1\n      0x68744046\n      eq\n      tag_6\n      jumpi\n      dup1\n      0x6fafa08a\n      eq\n      tag_7\n      jumpi\n      dup1\n      0x7d2cd4bf\n      eq\n      tag_8\n      jumpi\n    tag_2:\n      0x00\n      dup1\n      revert\n        /* \"Library.sol\":1205:1454  function register () public {... */\n    tag_3:\n      tag_18\n      tag_19\n      jump\t// in\n    tag_18:\n      stop\n        /* \"Library.sol\":784:804  uint public numBooks */\n    tag_4:\n      tag_20\n      tag_21\n      jump\t// in\n    tag_20:\n      mload(0x40)\n      tag_22\n      swap2\n      swap1\n      tag_23\n      jump\t// in\n    tag_22:\n      mload(0x40)\n      dup1\n      swap2\n      sub\n      swap1\n      return\n        /* \"Library.sol\":564:586  address public manager */\n    tag_5:\n      tag_24\n      tag_25\n      jump\t// in\n    tag_24:\n      mload(0x40)\n      tag_26\n      swap2\n      swap1\n      tag_27\n      jump\t// in\n    tag_26:\n      mload(0x40)\n      dup1\n      swap2\n      sub\n      swap1\n      return\n        /* \"Library.sol\":810:846  mapping( uint => Book ) public books */\n    tag_6:\n      tag_28\n      0x04\n      dup1\n      calldatasize\n      sub\n      dup2\n      add\n      swap1\n      tag_29\n      swap2\n      swap1\n      tag_30\n      jump\t// in\n    tag_29:\n      tag_31\n      jump\t// in\n    tag_28:\n      mload(0x40)\n      tag_32\n      swap8\n      swap7\n      swap6\n      swap5\n      swap4\n      swap3\n      swap2\n      swap1\n      tag_33\n      jump\t// in\n    tag_32:\n      mload(0x40)\n      dup1\n      swap2\n      sub\n      swap1\n      return\n        /* \"Library.sol\":592:613  uint public countUser */\n    tag_7:\n      tag_34\n      tag_35\n      jump\t// in\n    tag_34:\n      mload(0x40)\n      tag_36\n      swap2\n      swap1\n      tag_23\n      jump\t// in\n    tag_36:\n      mload(0x40)\n      dup1\n      swap2\n      sub\n      swap1\n      return\n        /* \"Library.sol\":2970:3454  function addBook(... */\n    tag_8:\n      tag_37\n      0x04\n      dup1\n      calldatasize\n      sub\n      dup2\n      add\n      swap1\n      tag_38\n      swap2\n      swap1\n      tag_39\n      jump\t// in\n    tag_38:\n      tag_40\n      jump\t// in\n    tag_37:\n      stop\n        /* \"Library.sol\":1479:2205  function borrowBook(uint index) public {... */\n    tag_9:\n      tag_41\n      0x04\n      dup1\n      calldatasize\n      sub\n      dup2\n      add\n      swap1\n      tag_42\n      swap2\n      swap1\n      tag_30\n      jump\t// in\n    tag_42:\n      tag_43\n      jump\t// in\n    tag_41:\n      stop\n        /* \"Library.sol\":619:643  uint public maxBorrowing */\n    tag_10:\n      tag_44\n      tag_45\n      jump\t// in\n    tag_44:\n      mload(0x40)\n      tag_46\n      swap2\n      swap1\n      tag_23\n      jump\t// in\n    tag_46:\n      mload(0x40)\n      dup1\n      swap2\n      sub\n      swap1\n      return\n        /* \"Library.sol\":649:686  mapping(address => User) public users */\n    tag_11:\n      tag_47\n      0x04\n      dup1\n      calldatasize\n      sub\n      dup2\n      add\n      swap1\n      tag_48\n      swap2\n      swap1\n      tag_49\n      jump\t// in\n    tag_48:\n      tag_50\n      jump\t// in\n    tag_47:\n      mload(0x40)\n      tag_51\n      swap3\n      swap2\n      swap1\n      tag_52\n      jump\t// in\n    tag_51:\n      mload(0x40)\n      dup1\n      swap2\n      sub\n      swap1\n      return\n        /* \"Library.sol\":2273:2814  function returnBook(uint index) public {... */\n    tag_12:\n      tag_53\n      0x04\n      dup1\n      calldatasize\n      sub\n      dup2\n      add\n      swap1\n      tag_54\n      swap2\n      swap1\n      tag_30\n      jump\t// in\n    tag_54:\n      tag_55\n      jump\t// in\n    tag_53:\n      stop\n        /* \"Library.sol\":692:733  mapping(address => bool) public validUser */\n    tag_13:\n      tag_56\n      0x04\n      dup1\n      calldatasize\n      sub\n      dup2\n      add\n      swap1\n      tag_57\n      swap2\n      swap1\n      tag_49\n      jump\t// in\n    tag_57:\n      tag_58\n      jump\t// in\n    tag_56:\n      mload(0x40)\n      tag_59\n      swap2\n      swap1\n      tag_60\n      jump\t// in\n    tag_59:\n      mload(0x40)\n      dup1\n      swap2\n      sub\n      swap1\n      return\n        /* \"Library.sol\":3479:4036  function modifyInformation(... */\n    tag_14:\n      tag_61\n      0x04\n      dup1\n      calldatasize\n      sub\n      dup2\n      add\n      swap1\n      tag_62\n      swap2\n      swap1\n      tag_63\n      jump\t// in\n    tag_62:\n      tag_64\n      jump\t// in\n    tag_61:\n      stop\n        /* \"Library.sol\":2840:2944  function inviteStaff(address staffAddress) public restricted {... */\n    tag_15:\n      tag_65\n      0x04\n      dup1\n      calldatasize\n      sub\n      dup2\n      add\n      swap1\n      tag_66\n      swap2\n      swap1\n      tag_49\n      jump\t// in\n    tag_66:\n      tag_67\n      jump\t// in\n    tag_65:\n      stop\n        /* \"Library.sol\":1205:1454  function register () public {... */\n    tag_19:\n        /* \"Library.sol\":1252:1261  validUser */\n      0x04\n        /* \"Library.sol\":1252:1273  validUser[msg.sender] */\n      0x00\n        /* \"Library.sol\":1262:1272  msg.sender */\n      caller\n        /* \"Library.sol\":1252:1273  validUser[msg.sender] */\n      0xffffffffffffffffffffffffffffffffffffffff\n      and\n      0xffffffffffffffffffffffffffffffffffffffff\n      and\n      dup2\n      mstore\n      0x20\n      add\n      swap1\n      dup2\n      mstore\n      0x20\n      add\n      0x00\n      keccak256\n      0x00\n      swap1\n      sload\n      swap1\n      0x0100\n      exp\n      swap1\n      div\n      0xff\n      and\n        /* \"Library.sol\":1251:1273  !validUser[msg.sender] */\n      iszero\n        /* \"Library.sol\":1243:1274  require(!validUser[msg.sender]) */\n      tag_69\n      jumpi\n      0x00\n      dup1\n      revert\n    tag_69:\n        /* \"Library.sol\":1308:1312  true */\n      0x01\n        /* \"Library.sol\":1284:1293  validUser */\n      0x04\n        /* \"Library.sol\":1284:1305  validUser[msg.sender] */\n      0x00\n        /* \"Library.sol\":1294:1304  msg.sender */\n      caller\n        /* \"Library.sol\":1284:1305  validUser[msg.sender] */\n      0xffffffffffffffffffffffffffffffffffffffff\n      and\n      0xffffffffffffffffffffffffffffffffffffffff\n      and\n      dup2\n      mstore\n      0x20\n      add\n      swap1\n      dup2\n      mstore\n      0x20\n      add\n      0x00\n      keccak256\n      0x00\n        /* \"Library.sol\":1284:1312  validUser[msg.sender] = true */\n      0x0100\n      exp\n      dup2\n      sload\n      dup2\n      0xff\n      mul\n      not\n      and\n      swap1\n      dup4\n      iszero\n      iszero\n      mul\n      or\n      swap1\n      sstore\n      pop\n        /* \"Library.sol\":1322:1339  User storage user */\n      0x00\n        /* \"Library.sol\":1342:1347  users */\n      0x03\n        /* \"Library.sol\":1342:1359  users[msg.sender] */\n      0x00\n        /* \"Library.sol\":1348:1358  msg.sender */\n      caller\n        /* \"Library.sol\":1342:1359  users[msg.sender] */\n      0xffffffffffffffffffffffffffffffffffffffff\n      and\n      0xffffffffffffffffffffffffffffffffffffffff\n      and\n      dup2\n      mstore\n      0x20\n      add\n      swap1\n      dup2\n      mstore\n      0x20\n      add\n      0x00\n      keccak256\n        /* \"Library.sol\":1322:1359  User storage user = users[msg.sender] */\n      swap1\n      pop\n        /* \"Library.sol\":1388:1398  msg.sender */\n      caller\n        /* \"Library.sol\":1369:1373  user */\n      dup2\n        /* \"Library.sol\":1369:1385  user.userAddress */\n      0x00\n      add\n      0x00\n        /* \"Library.sol\":1369:1398  user.userAddress = msg.sender */\n      0x0100\n      exp\n      dup2\n      sload\n      dup2\n      0xffffffffffffffffffffffffffffffffffffffff\n      mul\n      not\n      and\n      swap1\n      dup4\n      0xffffffffffffffffffffffffffffffffffffffff\n      and\n      mul\n      or\n      swap1\n      sstore\n      pop\n        /* \"Library.sol\":1425:1426  0 */\n      0x00\n        /* \"Library.sol\":1408:1412  user */\n      dup2\n        /* \"Library.sol\":1408:1422  user.numBorrow */\n      0x01\n      add\n        /* \"Library.sol\":1408:1426  user.numBorrow = 0 */\n      dup2\n      swap1\n      sstore\n      pop\n        /* \"Library.sol\":1436:1445  countUser */\n      0x01\n      0x00\n        /* \"Library.sol\":1436:1447  countUser++ */\n      dup2\n      sload\n      dup1\n      swap3\n      swap2\n      swap1\n      tag_70\n      swap1\n      tag_71\n      jump\t// in\n    tag_70:\n      swap2\n      swap1\n      pop\n      sstore\n      pop\n        /* \"Library.sol\":1233:1454  {... */\n      pop\n        /* \"Library.sol\":1205:1454  function register () public {... */\n      jump\t// out\n        /* \"Library.sol\":784:804  uint public numBooks */\n    tag_21:\n      sload(0x06)\n      dup2\n      jump\t// out\n        /* \"Library.sol\":564:586  address public manager */\n    tag_25:\n      0x00\n      dup1\n      sload\n      swap1\n      0x0100\n      exp\n      swap1\n      div\n      0xffffffffffffffffffffffffffffffffffffffff\n      and\n      dup2\n      jump\t// out\n        /* \"Library.sol\":810:846  mapping( uint => Book ) public books */\n    tag_31:\n      mstore(0x20, 0x07)\n      dup1\n      0x00\n      mstore\n      keccak256(0x00, 0x40)\n      0x00\n      swap2\n      pop\n      swap1\n      pop\n      dup1\n      0x00\n      add\n      dup1\n      sload\n      tag_72\n      swap1\n      tag_73\n      jump\t// in\n    tag_72:\n      dup1\n      0x1f\n      add\n      0x20\n      dup1\n      swap2\n      div\n      mul\n      0x20\n      add\n      mload(0x40)\n      swap1\n      dup2\n      add\n      0x40\n      mstore\n      dup1\n      swap3\n      swap2\n      swap1\n      dup2\n      dup2\n      mstore\n      0x20\n      add\n      dup3\n      dup1\n      sload\n      tag_74\n      swap1\n      tag_73\n      jump\t// in\n    tag_74:\n      dup1\n      iszero\n      tag_75\n      jumpi\n      dup1\n      0x1f\n      lt\n      tag_76\n      jumpi\n      0x0100\n      dup1\n      dup4\n      sload\n      div\n      mul\n      dup4\n      mstore\n      swap2\n      0x20\n      add\n      swap2\n      jump(tag_75)\n    tag_76:\n      dup3\n      add\n      swap2\n      swap1\n      0x00\n      mstore\n      keccak256(0x00, 0x20)\n      swap1\n    tag_77:\n      dup2\n      sload\n      dup2\n      mstore\n      swap1\n      0x01\n      add\n      swap1\n      0x20\n      add\n      dup1\n      dup4\n      gt\n      tag_77\n      jumpi\n      dup3\n      swap1\n      sub\n      0x1f\n      and\n      dup3\n      add\n      swap2\n    tag_75:\n      pop\n      pop\n      pop\n      pop\n      pop\n      swap1\n      dup1\n      0x01\n      add\n      dup1\n      sload\n      tag_78\n      swap1\n      tag_73\n      jump\t// in\n    tag_78:\n      dup1\n      0x1f\n      add\n      0x20\n      dup1\n      swap2\n      div\n      mul\n      0x20\n      add\n      mload(0x40)\n      swap1\n      dup2\n      add\n      0x40\n      mstore\n      dup1\n      swap3\n      swap2\n      swap1\n      dup2\n      dup2\n      mstore\n      0x20\n      add\n      dup3\n      dup1\n      sload\n      tag_79\n      swap1\n      tag_73\n      jump\t// in\n    tag_79:\n      dup1\n      iszero\n      tag_80\n      jumpi\n      dup1\n      0x1f\n      lt\n      tag_81\n      jumpi\n      0x0100\n      dup1\n      dup4\n      sload\n      div\n      mul\n      dup4\n      mstore\n      swap2\n      0x20\n      add\n      swap2\n      jump(tag_80)\n    tag_81:\n      dup3\n      add\n      swap2\n      swap1\n      0x00\n      mstore\n      keccak256(0x00, 0x20)\n      swap1\n    tag_82:\n      dup2\n      sload\n      dup2\n      mstore\n      swap1\n      0x01\n      add\n      swap1\n      0x20\n      add\n      dup1\n      dup4\n      gt\n      tag_82\n      jumpi\n      dup3\n      swap1\n      sub\n      0x1f\n      and\n      dup3\n      add\n      swap2\n    tag_80:\n      pop\n      pop\n      pop\n      pop\n      pop\n      swap1\n      dup1\n      0x02\n      add\n      dup1\n      sload\n      tag_83\n      swap1\n      tag_73\n      jump\t// in\n    tag_83:\n      dup1\n      0x1f\n      add\n      0x20\n      dup1\n      swap2\n      div\n      mul\n      0x20\n      add\n      mload(0x40)\n      swap1\n      dup2\n      add\n      0x40\n      mstore\n      dup1\n      swap3\n      swap2\n      swap1\n      dup2\n      dup2\n      mstore\n      0x20\n      add\n      dup3\n      dup1\n      sload\n      tag_84\n      swap1\n      tag_73\n      jump\t// in\n    tag_84:\n      dup1\n      iszero\n      tag_85\n      jumpi\n      dup1\n      0x1f\n      lt\n      tag_86\n      jumpi\n      0x0100\n      dup1\n      dup4\n      sload\n      div\n      mul\n      dup4\n      mstore\n      swap2\n      0x20\n      add\n      swap2\n      jump(tag_85)\n    tag_86:\n      dup3\n      add\n      swap2\n      swap1\n      0x00\n      mstore\n      keccak256(0x00, 0x20)\n      swap1\n    tag_87:\n      dup2\n      sload\n      dup2\n      mstore\n      swap1\n      0x01\n      add\n      swap1\n      0x20\n      add\n      dup1\n      dup4\n      gt\n      tag_87\n      jumpi\n      dup3\n      swap1\n      sub\n      0x1f\n      and\n      dup3\n      add\n      swap2\n    tag_85:\n      pop\n      pop\n      pop\n      pop\n      pop\n      swap1\n      dup1\n      0x03\n      add\n      sload\n      swap1\n      dup1\n      0x04\n      add\n      sload\n      swap1\n      dup1\n      0x05\n      add\n      sload\n      swap1\n      dup1\n      0x06\n      add\n      0x00\n      swap1\n      sload\n      swap1\n      0x0100\n      exp\n      swap1\n      div\n      0xff\n      and\n      swap1\n      pop\n      dup8\n      jump\t// out\n        /* \"Library.sol\":592:613  uint public countUser */\n    tag_35:\n      sload(0x01)\n      dup2\n      jump\t// out\n        /* \"Library.sol\":2970:3454  function addBook(... */\n    tag_40:\n        /* \"Library.sol\":907:914  manager */\n      0x00\n      dup1\n      sload\n      swap1\n      0x0100\n      exp\n      swap1\n      div\n      0xffffffffffffffffffffffffffffffffffffffff\n      and\n        /* \"Library.sol\":893:914  msg.sender == manager */\n      0xffffffffffffffffffffffffffffffffffffffff\n      and\n        /* \"Library.sol\":893:903  msg.sender */\n      caller\n        /* \"Library.sol\":893:914  msg.sender == manager */\n      0xffffffffffffffffffffffffffffffffffffffff\n      and\n      eq\n        /* \"Library.sol\":885:915  require(msg.sender == manager) */\n      tag_89\n      jumpi\n      0x00\n      dup1\n      revert\n    tag_89:\n        /* \"Library.sol\":3174:3191  Book storage book */\n      0x00\n        /* \"Library.sol\":3194:3199  books */\n      0x07\n        /* \"Library.sol\":3194:3211  books[numBooks++] */\n      0x00\n        /* \"Library.sol\":3200:3208  numBooks */\n      0x06\n      0x00\n        /* \"Library.sol\":3200:3210  numBooks++ */\n      dup2\n      sload\n      dup1\n      swap3\n      swap2\n      swap1\n      tag_91\n      swap1\n      tag_71\n      jump\t// in\n    tag_91:\n      swap2\n      swap1\n      pop\n      sstore\n        /* \"Library.sol\":3194:3211  books[numBooks++] */\n      dup2\n      mstore\n      0x20\n      add\n      swap1\n      dup2\n      mstore\n      0x20\n      add\n      0x00\n      keccak256\n        /* \"Library.sol\":3174:3211  Book storage book = books[numBooks++] */\n      swap1\n      pop\n        /* \"Library.sol\":3238:3243  title */\n      dup6\n        /* \"Library.sol\":3225:3229  book */\n      dup2\n        /* \"Library.sol\":3225:3235  book.title */\n      0x00\n      add\n        /* \"Library.sol\":3225:3243  book.title = title */\n      swap1\n      dup1\n      mload\n      swap1\n      0x20\n      add\n      swap1\n      tag_92\n      swap3\n      swap2\n      swap1\n      tag_93\n      jump\t// in\n    tag_92:\n      pop\n        /* \"Library.sol\":3265:3267  id */\n      dup5\n        /* \"Library.sol\":3257:3261  book */\n      dup2\n        /* \"Library.sol\":3257:3264  book.id */\n      0x01\n      add\n        /* \"Library.sol\":3257:3267  book.id=id */\n      swap1\n      dup1\n      mload\n      swap1\n      0x20\n      add\n      swap1\n      tag_94\n      swap3\n      swap2\n      swap1\n      tag_93\n      jump\t// in\n    tag_94:\n      pop\n        /* \"Library.sol\":3302:3308  period */\n      dup4\n        /* \"Library.sol\":3281:3285  book */\n      dup2\n        /* \"Library.sol\":3281:3299  book.lendingPeriod */\n      0x02\n      add\n        /* \"Library.sol\":3281:3308  book.lendingPeriod = period */\n      swap1\n      dup1\n      mload\n      swap1\n      0x20\n      add\n      swap1\n      tag_95\n      swap3\n      swap2\n      swap1\n      tag_93\n      jump\t// in\n    tag_95:\n      pop\n        /* \"Library.sol\":3335:3340  price */\n      dup3\n        /* \"Library.sol\":3322:3326  book */\n      dup2\n        /* \"Library.sol\":3322:3332  book.price */\n      0x03\n      add\n        /* \"Library.sol\":3322:3340  book.price = price */\n      dup2\n      swap1\n      sstore\n      pop\n        /* \"Library.sol\":3367:3372  stock */\n      dup2\n        /* \"Library.sol\":3354:3358  book */\n      dup2\n        /* \"Library.sol\":3354:3364  book.stock */\n      0x04\n      add\n        /* \"Library.sol\":3354:3372  book.stock = stock */\n      dup2\n      swap1\n      sstore\n      pop\n        /* \"Library.sol\":3405:3406  0 */\n      0x00\n        /* \"Library.sol\":3386:3390  book */\n      dup2\n        /* \"Library.sol\":3386:3402  book.numBorrowed */\n      0x05\n      add\n        /* \"Library.sol\":3386:3406  book.numBorrowed = 0 */\n      dup2\n      swap1\n      sstore\n      pop\n        /* \"Library.sol\":3442:3447  false */\n      0x00\n        /* \"Library.sol\":3420:3424  book */\n      dup2\n        /* \"Library.sol\":3420:3439  book.isFullBorrowed */\n      0x06\n      add\n      0x00\n        /* \"Library.sol\":3420:3447  book.isFullBorrowed = false */\n      0x0100\n      exp\n      dup2\n      sload\n      dup2\n      0xff\n      mul\n      not\n      and\n      swap1\n      dup4\n      iszero\n      iszero\n      mul\n      or\n      swap1\n      sstore\n      pop\n        /* \"Library.sol\":3160:3454  {... */\n      pop\n        /* \"Library.sol\":2970:3454  function addBook(... */\n      pop\n      pop\n      pop\n      pop\n      pop\n      jump\t// out\n        /* \"Library.sol\":1479:2205  function borrowBook(uint index) public {... */\n    tag_43:\n        /* \"Library.sol\":1536:1545  validUser */\n      0x04\n        /* \"Library.sol\":1536:1557  validUser[msg.sender] */\n      0x00\n        /* \"Library.sol\":1546:1556  msg.sender */\n      caller\n        /* \"Library.sol\":1536:1557  validUser[msg.sender] */\n      0xffffffffffffffffffffffffffffffffffffffff\n      and\n      0xffffffffffffffffffffffffffffffffffffffff\n      and\n      dup2\n      mstore\n      0x20\n      add\n      swap1\n      dup2\n      mstore\n      0x20\n      add\n      0x00\n      keccak256\n      0x00\n      swap1\n      sload\n      swap1\n      0x0100\n      exp\n      swap1\n      div\n      0xff\n      and\n        /* \"Library.sol\":1528:1558  require(validUser[msg.sender]) */\n      tag_97\n      jumpi\n      0x00\n      dup1\n      revert\n    tag_97:\n        /* \"Library.sol\":1593:1610  Book storage book */\n      0x00\n        /* \"Library.sol\":1613:1618  books */\n      0x07\n        /* \"Library.sol\":1613:1625  books[index] */\n      0x00\n        /* \"Library.sol\":1619:1624  index */\n      dup4\n        /* \"Library.sol\":1613:1625  books[index] */\n      dup2\n      mstore\n      0x20\n      add\n      swap1\n      dup2\n      mstore\n      0x20\n      add\n      0x00\n      keccak256\n        /* \"Library.sol\":1593:1625  Book storage book = books[index] */\n      swap1\n      pop\n        /* \"Library.sol\":1662:1666  book */\n      dup1\n        /* \"Library.sol\":1662:1672  book.stock */\n      0x04\n      add\n      sload\n        /* \"Library.sol\":1643:1647  book */\n      dup2\n        /* \"Library.sol\":1643:1659  book.numBorrowed */\n      0x05\n      add\n      sload\n        /* \"Library.sol\":1643:1672  book.numBorrowed < book.stock */\n      lt\n        /* \"Library.sol\":1635:1673  require(book.numBorrowed < book.stock) */\n      tag_98\n      jumpi\n      0x00\n      dup1\n      revert\n    tag_98:\n        /* \"Library.sol\":1692:1696  book */\n      dup1\n        /* \"Library.sol\":1692:1711  book.isFullBorrowed */\n      0x06\n      add\n      0x00\n      swap1\n      sload\n      swap1\n      0x0100\n      exp\n      swap1\n      div\n      0xff\n      and\n        /* \"Library.sol\":1691:1711  !book.isFullBorrowed */\n      iszero\n        /* \"Library.sol\":1683:1712  require(!book.isFullBorrowed) */\n      tag_99\n      jumpi\n      0x00\n      dup1\n      revert\n    tag_99:\n        /* \"Library.sol\":1731:1735  book */\n      dup1\n        /* \"Library.sol\":1731:1749  book.borrowerTable */\n      0x07\n      add\n        /* \"Library.sol\":1731:1761  book.borrowerTable[msg.sender] */\n      0x00\n        /* \"Library.sol\":1750:1760  msg.sender */\n      caller\n        /* \"Library.sol\":1731:1761  book.borrowerTable[msg.sender] */\n      0xffffffffffffffffffffffffffffffffffffffff\n      and\n      0xffffffffffffffffffffffffffffffffffffffff\n      and\n      dup2\n      mstore\n      0x20\n      add\n      swap1\n      dup2\n      mstore\n      0x20\n      add\n      0x00\n      keccak256\n      0x00\n      swap1\n      sload\n      swap1\n      0x0100\n      exp\n      swap1\n      div\n      0xff\n      and\n        /* \"Library.sol\":1730:1761  !book.borrowerTable[msg.sender] */\n      iszero\n        /* \"Library.sol\":1722:1762  require(!book.borrowerTable[msg.sender]) */\n      tag_100\n      jumpi\n      0x00\n      dup1\n      revert\n    tag_100:\n        /* \"Library.sol\":1773:1777  book */\n      dup1\n        /* \"Library.sol\":1773:1789  book.numBorrowed */\n      0x05\n      add\n      0x00\n        /* \"Library.sol\":1773:1791  book.numBorrowed++ */\n      dup2\n      sload\n      dup1\n      swap3\n      swap2\n      swap1\n      tag_101\n      swap1\n      tag_71\n      jump\t// in\n    tag_101:\n      swap2\n      swap1\n      pop\n      sstore\n      pop\n        /* \"Library.sol\":1824:1828  book */\n      dup1\n        /* \"Library.sol\":1824:1834  book.stock */\n      0x04\n      add\n      sload\n        /* \"Library.sol\":1804:1808  book */\n      dup2\n        /* \"Library.sol\":1804:1820  book.numBorrowed */\n      0x05\n      add\n      sload\n        /* \"Library.sol\":1804:1834  book.numBorrowed == book.stock */\n      eq\n        /* \"Library.sol\":1801:1886  if(book.numBorrowed == book.stock){... */\n      iszero\n      tag_102\n      jumpi\n        /* \"Library.sol\":1871:1875  true */\n      0x01\n        /* \"Library.sol\":1849:1853  book */\n      dup2\n        /* \"Library.sol\":1849:1868  book.isFullBorrowed */\n      0x06\n      add\n      0x00\n        /* \"Library.sol\":1849:1875  book.isFullBorrowed = true */\n      0x0100\n      exp\n      dup2\n      sload\n      dup2\n      0xff\n      mul\n      not\n      and\n      swap1\n      dup4\n      iszero\n      iszero\n      mul\n      or\n      swap1\n      sstore\n      pop\n        /* \"Library.sol\":1801:1886  if(book.numBorrowed == book.stock){... */\n    tag_102:\n        /* \"Library.sol\":1895:1899  book */\n      dup1\n        /* \"Library.sol\":1895:1908  book.borrower */\n      0x08\n      add\n        /* \"Library.sol\":1914:1924  msg.sender */\n      caller\n        /* \"Library.sol\":1895:1925  book.borrower.push(msg.sender) */\n      swap1\n      dup1\n      0x01\n      dup2\n      sload\n      add\n      dup1\n      dup3\n      sstore\n      dup1\n      swap2\n      pop\n      pop\n      0x01\n      swap1\n      sub\n      swap1\n      0x00\n      mstore\n      keccak256(0x00, 0x20)\n      add\n      0x00\n      swap1\n      swap2\n      swap1\n      swap2\n      swap1\n      swap2\n      0x0100\n      exp\n      dup2\n      sload\n      dup2\n      0xffffffffffffffffffffffffffffffffffffffff\n      mul\n      not\n      and\n      swap1\n      dup4\n      0xffffffffffffffffffffffffffffffffffffffff\n      and\n      mul\n      or\n      swap1\n      sstore\n      pop\n        /* \"Library.sol\":1968:1972  true */\n      0x01\n        /* \"Library.sol\":1935:1939  book */\n      dup2\n        /* \"Library.sol\":1935:1953  book.borrowerTable */\n      0x07\n      add\n        /* \"Library.sol\":1935:1965  book.borrowerTable[msg.sender] */\n      0x00\n        /* \"Library.sol\":1954:1964  msg.sender */\n      caller\n        /* \"Library.sol\":1935:1965  book.borrowerTable[msg.sender] */\n      0xffffffffffffffffffffffffffffffffffffffff\n      and\n      0xffffffffffffffffffffffffffffffffffffffff\n      and\n      dup2\n      mstore\n      0x20\n      add\n      swap1\n      dup2\n      mstore\n      0x20\n      add\n      0x00\n      keccak256\n      0x00\n        /* \"Library.sol\":1935:1972  book.borrowerTable[msg.sender] = true */\n      0x0100\n      exp\n      dup2\n      sload\n      dup2\n      0xff\n      mul\n      not\n      and\n      swap1\n      dup4\n      iszero\n      iszero\n      mul\n      or\n      swap1\n      sstore\n      pop\n        /* \"Library.sol\":2007:2024  User storage user */\n      0x00\n        /* \"Library.sol\":2027:2032  users */\n      0x03\n        /* \"Library.sol\":2027:2044  users[msg.sender] */\n      0x00\n        /* \"Library.sol\":2033:2043  msg.sender */\n      caller\n        /* \"Library.sol\":2027:2044  users[msg.sender] */\n      0xffffffffffffffffffffffffffffffffffffffff\n      and\n      0xffffffffffffffffffffffffffffffffffffffff\n      and\n      dup2\n      mstore\n      0x20\n      add\n      swap1\n      dup2\n      mstore\n      0x20\n      add\n      0x00\n      keccak256\n        /* \"Library.sol\":2007:2044  User storage user = users[msg.sender] */\n      swap1\n      pop\n        /* \"Library.sol\":2079:2091  maxBorrowing */\n      sload(0x02)\n        /* \"Library.sol\":2062:2066  user */\n      dup2\n        /* \"Library.sol\":2062:2076  user.numBorrow */\n      0x01\n      add\n      sload\n        /* \"Library.sol\":2062:2091  user.numBorrow < maxBorrowing */\n      lt\n        /* \"Library.sol\":2054:2092  require(user.numBorrow < maxBorrowing) */\n      tag_104\n      jumpi\n      0x00\n      dup1\n      revert\n    tag_104:\n        /* \"Library.sol\":2102:2106  user */\n      dup1\n        /* \"Library.sol\":2102:2120  user.borrowedBooks */\n      0x02\n      add\n        /* \"Library.sol\":2126:2131  index */\n      dup4\n        /* \"Library.sol\":2102:2132  user.borrowedBooks.push(index) */\n      swap1\n      dup1\n      0x01\n      dup2\n      sload\n      add\n      dup1\n      dup3\n      sstore\n      dup1\n      swap2\n      pop\n      pop\n      0x01\n      swap1\n      sub\n      swap1\n      0x00\n      mstore\n      keccak256(0x00, 0x20)\n      add\n      0x00\n      swap1\n      swap2\n      swap1\n      swap2\n      swap1\n      swap2\n      pop\n      sstore\n        /* \"Library.sol\":2168:2172  true */\n      0x01\n        /* \"Library.sol\":2142:2146  user */\n      dup2\n        /* \"Library.sol\":2142:2158  user.borrowTable */\n      0x03\n      add\n        /* \"Library.sol\":2142:2165  user.borrowTable[index] */\n      0x00\n        /* \"Library.sol\":2159:2164  index */\n      dup6\n        /* \"Library.sol\":2142:2165  user.borrowTable[index] */\n      dup2\n      mstore\n      0x20\n      add\n      swap1\n      dup2\n      mstore\n      0x20\n      add\n      0x00\n      keccak256\n      0x00\n        /* \"Library.sol\":2142:2172  user.borrowTable[index] = true */\n      0x0100\n      exp\n      dup2\n      sload\n      dup2\n      0xff\n      mul\n      not\n      and\n      swap1\n      dup4\n      iszero\n      iszero\n      mul\n      or\n      swap1\n      sstore\n      pop\n        /* \"Library.sol\":2182:2186  user */\n      dup1\n        /* \"Library.sol\":2182:2196  user.numBorrow */\n      0x01\n      add\n      0x00\n        /* \"Library.sol\":2182:2198  user.numBorrow++ */\n      dup2\n      sload\n      dup1\n      swap3\n      swap2\n      swap1\n      tag_106\n      swap1\n      tag_71\n      jump\t// in\n    tag_106:\n      swap2\n      swap1\n      pop\n      sstore\n      pop\n        /* \"Library.sol\":1518:2205  {... */\n      pop\n      pop\n        /* \"Library.sol\":1479:2205  function borrowBook(uint index) public {... */\n      pop\n      jump\t// out\n        /* \"Library.sol\":619:643  uint public maxBorrowing */\n    tag_45:\n      sload(0x02)\n      dup2\n      jump\t// out\n        /* \"Library.sol\":649:686  mapping(address => User) public users */\n    tag_50:\n      mstore(0x20, 0x03)\n      dup1\n      0x00\n      mstore\n      keccak256(0x00, 0x40)\n      0x00\n      swap2\n      pop\n      swap1\n      pop\n      dup1\n      0x00\n      add\n      0x00\n      swap1\n      sload\n      swap1\n      0x0100\n      exp\n      swap1\n      div\n      0xffffffffffffffffffffffffffffffffffffffff\n      and\n      swap1\n      dup1\n      0x01\n      add\n      sload\n      swap1\n      pop\n      dup3\n      jump\t// out\n        /* \"Library.sol\":2273:2814  function returnBook(uint index) public {... */\n    tag_55:\n        /* \"Library.sol\":2338:2346  numBooks */\n      sload(0x06)\n        /* \"Library.sol\":2330:2335  index */\n      dup2\n        /* \"Library.sol\":2330:2346  index < numBooks */\n      lt\n        /* \"Library.sol\":2322:2347  require(index < numBooks) */\n      tag_108\n      jumpi\n      0x00\n      dup1\n      revert\n    tag_108:\n        /* \"Library.sol\":2365:2374  validUser */\n      0x04\n        /* \"Library.sol\":2365:2386  validUser[msg.sender] */\n      0x00\n        /* \"Library.sol\":2375:2385  msg.sender */\n      caller\n        /* \"Library.sol\":2365:2386  validUser[msg.sender] */\n      0xffffffffffffffffffffffffffffffffffffffff\n      and\n      0xffffffffffffffffffffffffffffffffffffffff\n      and\n      dup2\n      mstore\n      0x20\n      add\n      swap1\n      dup2\n      mstore\n      0x20\n      add\n      0x00\n      keccak256\n      0x00\n      swap1\n      sload\n      swap1\n      0x0100\n      exp\n      swap1\n      div\n      0xff\n      and\n        /* \"Library.sol\":2357:2387  require(validUser[msg.sender]) */\n      tag_109\n      jumpi\n      0x00\n      dup1\n      revert\n    tag_109:\n        /* \"Library.sol\":2398:2415  Book storage book */\n      0x00\n        /* \"Library.sol\":2418:2423  books */\n      0x07\n        /* \"Library.sol\":2418:2430  books[index] */\n      0x00\n        /* \"Library.sol\":2424:2429  index */\n      dup4\n        /* \"Library.sol\":2418:2430  books[index] */\n      dup2\n      mstore\n      0x20\n      add\n      swap1\n      dup2\n      mstore\n      0x20\n      add\n      0x00\n      keccak256\n        /* \"Library.sol\":2398:2430  Book storage book = books[index] */\n      swap1\n      pop\n        /* \"Library.sol\":2440:2457  User storage user */\n      0x00\n        /* \"Library.sol\":2460:2465  users */\n      0x03\n        /* \"Library.sol\":2460:2477  users[msg.sender] */\n      0x00\n        /* \"Library.sol\":2466:2476  msg.sender */\n      caller\n        /* \"Library.sol\":2460:2477  users[msg.sender] */\n      0xffffffffffffffffffffffffffffffffffffffff\n      and\n      0xffffffffffffffffffffffffffffffffffffffff\n      and\n      dup2\n      mstore\n      0x20\n      add\n      swap1\n      dup2\n      mstore\n      0x20\n      add\n      0x00\n      keccak256\n        /* \"Library.sol\":2440:2477  User storage user = users[msg.sender] */\n      swap1\n      pop\n        /* \"Library.sol\":2496:2500  book */\n      dup2\n        /* \"Library.sol\":2496:2514  book.borrowerTable */\n      0x07\n      add\n        /* \"Library.sol\":2496:2526  book.borrowerTable[msg.sender] */\n      0x00\n        /* \"Library.sol\":2515:2525  msg.sender */\n      caller\n        /* \"Library.sol\":2496:2526  book.borrowerTable[msg.sender] */\n      0xffffffffffffffffffffffffffffffffffffffff\n      and\n      0xffffffffffffffffffffffffffffffffffffffff\n      and\n      dup2\n      mstore\n      0x20\n      add\n      swap1\n      dup2\n      mstore\n      0x20\n      add\n      0x00\n      keccak256\n      0x00\n      swap1\n      sload\n      swap1\n      0x0100\n      exp\n      swap1\n      div\n      0xff\n      and\n        /* \"Library.sol\":2488:2527  require(book.borrowerTable[msg.sender]) */\n      tag_110\n      jumpi\n      0x00\n      dup1\n      revert\n    tag_110:\n        /* \"Library.sol\":2545:2549  user */\n      dup1\n        /* \"Library.sol\":2545:2561  user.borrowTable */\n      0x03\n      add\n        /* \"Library.sol\":2545:2568  user.borrowTable[index] */\n      0x00\n        /* \"Library.sol\":2562:2567  index */\n      dup5\n        /* \"Library.sol\":2545:2568  user.borrowTable[index] */\n      dup2\n      mstore\n      0x20\n      add\n      swap1\n      dup2\n      mstore\n      0x20\n      add\n      0x00\n      keccak256\n      0x00\n      swap1\n      sload\n      swap1\n      0x0100\n      exp\n      swap1\n      div\n      0xff\n      and\n        /* \"Library.sol\":2537:2569  require(user.borrowTable[index]) */\n      tag_111\n      jumpi\n      0x00\n      dup1\n      revert\n    tag_111:\n        /* \"Library.sol\":2637:2642  false */\n      0x00\n        /* \"Library.sol\":2604:2608  book */\n      dup3\n        /* \"Library.sol\":2604:2622  book.borrowerTable */\n      0x07\n      add\n        /* \"Library.sol\":2604:2634  book.borrowerTable[msg.sender] */\n      0x00\n        /* \"Library.sol\":2623:2633  msg.sender */\n      caller\n        /* \"Library.sol\":2604:2634  book.borrowerTable[msg.sender] */\n      0xffffffffffffffffffffffffffffffffffffffff\n      and\n      0xffffffffffffffffffffffffffffffffffffffff\n      and\n      dup2\n      mstore\n      0x20\n      add\n      swap1\n      dup2\n      mstore\n      0x20\n      add\n      0x00\n      keccak256\n      0x00\n        /* \"Library.sol\":2604:2642  book.borrowerTable[msg.sender] = false */\n      0x0100\n      exp\n      dup2\n      sload\n      dup2\n      0xff\n      mul\n      not\n      and\n      swap1\n      dup4\n      iszero\n      iszero\n      mul\n      or\n      swap1\n      sstore\n      pop\n        /* \"Library.sol\":2652:2656  book */\n      dup2\n        /* \"Library.sol\":2652:2668  book.numBorrowed */\n      0x05\n      add\n      0x00\n        /* \"Library.sol\":2652:2670  book.numBorrowed-- */\n      dup2\n      sload\n      dup1\n      swap3\n      swap2\n      swap1\n      tag_112\n      swap1\n      tag_113\n      jump\t// in\n    tag_112:\n      swap2\n      swap1\n      pop\n      sstore\n      pop\n        /* \"Library.sol\":2702:2707  false */\n      0x00\n        /* \"Library.sol\":2680:2684  book */\n      dup3\n        /* \"Library.sol\":2680:2699  book.isFullBorrowed */\n      0x06\n      add\n      0x00\n        /* \"Library.sol\":2680:2707  book.isFullBorrowed = false */\n      0x0100\n      exp\n      dup2\n      sload\n      dup2\n      0xff\n      mul\n      not\n      and\n      swap1\n      dup4\n      iszero\n      iszero\n      mul\n      or\n      swap1\n      sstore\n      pop\n        /* \"Library.sol\":2776:2781  false */\n      0x00\n        /* \"Library.sol\":2750:2754  user */\n      dup2\n        /* \"Library.sol\":2750:2766  user.borrowTable */\n      0x03\n      add\n        /* \"Library.sol\":2750:2773  user.borrowTable[index] */\n      0x00\n        /* \"Library.sol\":2767:2772  index */\n      dup6\n        /* \"Library.sol\":2750:2773  user.borrowTable[index] */\n      dup2\n      mstore\n      0x20\n      add\n      swap1\n      dup2\n      mstore\n      0x20\n      add\n      0x00\n      keccak256\n      0x00\n        /* \"Library.sol\":2750:2781  user.borrowTable[index] = false */\n      0x0100\n      exp\n      dup2\n      sload\n      dup2\n      0xff\n      mul\n      not\n      and\n      swap1\n      dup4\n      iszero\n      iszero\n      mul\n      or\n      swap1\n      sstore\n      pop\n        /* \"Library.sol\":2791:2795  user */\n      dup1\n        /* \"Library.sol\":2791:2805  user.numBorrow */\n      0x01\n      add\n      0x00\n        /* \"Library.sol\":2791:2807  user.numBorrow-- */\n      dup2\n      sload\n      dup1\n      swap3\n      swap2\n      swap1\n      tag_114\n      swap1\n      tag_113\n      jump\t// in\n    tag_114:\n      swap2\n      swap1\n      pop\n      sstore\n      pop\n        /* \"Library.sol\":2312:2814  {... */\n      pop\n      pop\n        /* \"Library.sol\":2273:2814  function returnBook(uint index) public {... */\n      pop\n      jump\t// out\n        /* \"Library.sol\":692:733  mapping(address => bool) public validUser */\n    tag_58:\n      mstore(0x20, 0x04)\n      dup1\n      0x00\n      mstore\n      keccak256(0x00, 0x40)\n      0x00\n      swap2\n      pop\n      sload\n      swap1\n      0x0100\n      exp\n      swap1\n      div\n      0xff\n      and\n      dup2\n      jump\t// out\n        /* \"Library.sol\":3479:4036  function modifyInformation(... */\n    tag_64:\n        /* \"Library.sol\":983:988  staff */\n      0x05\n        /* \"Library.sol\":983:1000  staff[msg.sender] */\n      0x00\n        /* \"Library.sol\":989:999  msg.sender */\n      caller\n        /* \"Library.sol\":983:1000  staff[msg.sender] */\n      0xffffffffffffffffffffffffffffffffffffffff\n      and\n      0xffffffffffffffffffffffffffffffffffffffff\n      and\n      dup2\n      mstore\n      0x20\n      add\n      swap1\n      dup2\n      mstore\n      0x20\n      add\n      0x00\n      keccak256\n      0x00\n      swap1\n      sload\n      swap1\n      0x0100\n      exp\n      swap1\n      div\n      0xff\n      and\n        /* \"Library.sol\":975:1001  require(staff[msg.sender]) */\n      tag_116\n      jumpi\n      0x00\n      dup1\n      revert\n    tag_116:\n        /* \"Library.sol\":3704:3712  numBooks */\n      sload(0x06)\n        /* \"Library.sol\":3696:3701  index */\n      dup7\n        /* \"Library.sol\":3696:3712  index < numBooks */\n      lt\n        /* \"Library.sol\":3688:3713  require(index < numBooks) */\n      tag_118\n      jumpi\n      0x00\n      dup1\n      revert\n    tag_118:\n        /* \"Library.sol\":3723:3740  Book storage book */\n      0x00\n        /* \"Library.sol\":3743:3748  books */\n      0x07\n        /* \"Library.sol\":3743:3755  books[index] */\n      0x00\n        /* \"Library.sol\":3749:3754  index */\n      dup9\n        /* \"Library.sol\":3743:3755  books[index] */\n      dup2\n      mstore\n      0x20\n      add\n      swap1\n      dup2\n      mstore\n      0x20\n      add\n      0x00\n      keccak256\n        /* \"Library.sol\":3723:3755  Book storage book = books[index] */\n      swap1\n      pop\n        /* \"Library.sol\":3787:3792  stock */\n      dup2\n        /* \"Library.sol\":3773:3777  book */\n      dup2\n        /* \"Library.sol\":3773:3783  book.stock */\n      0x04\n      add\n      sload\n        /* \"Library.sol\":3773:3792  book.stock >= stock */\n      lt\n      iszero\n        /* \"Library.sol\":3765:3793  require(book.stock >= stock) */\n      tag_119\n      jumpi\n      0x00\n      dup1\n      revert\n    tag_119:\n        /* \"Library.sol\":3817:3822  title */\n      dup6\n        /* \"Library.sol\":3804:3808  book */\n      dup2\n        /* \"Library.sol\":3804:3814  book.title */\n      0x00\n      add\n        /* \"Library.sol\":3804:3822  book.title = title */\n      swap1\n      dup1\n      mload\n      swap1\n      0x20\n      add\n      swap1\n      tag_120\n      swap3\n      swap2\n      swap1\n      tag_93\n      jump\t// in\n    tag_120:\n      pop\n        /* \"Library.sol\":3840:3842  id */\n      dup5\n        /* \"Library.sol\":3832:3836  book */\n      dup2\n        /* \"Library.sol\":3832:3839  book.id */\n      0x01\n      add\n        /* \"Library.sol\":3832:3842  book.id=id */\n      swap1\n      dup1\n      mload\n      swap1\n      0x20\n      add\n      swap1\n      tag_121\n      swap3\n      swap2\n      swap1\n      tag_93\n      jump\t// in\n    tag_121:\n      pop\n        /* \"Library.sol\":3873:3879  period */\n      dup4\n        /* \"Library.sol\":3852:3856  book */\n      dup2\n        /* \"Library.sol\":3852:3870  book.lendingPeriod */\n      0x02\n      add\n        /* \"Library.sol\":3852:3879  book.lendingPeriod = period */\n      swap1\n      dup1\n      mload\n      swap1\n      0x20\n      add\n      swap1\n      tag_122\n      swap3\n      swap2\n      swap1\n      tag_93\n      jump\t// in\n    tag_122:\n      pop\n        /* \"Library.sol\":3902:3907  price */\n      dup3\n        /* \"Library.sol\":3889:3893  book */\n      dup2\n        /* \"Library.sol\":3889:3899  book.price */\n      0x03\n      add\n        /* \"Library.sol\":3889:3907  book.price = price */\n      dup2\n      swap1\n      sstore\n      pop\n        /* \"Library.sol\":3930:3935  stock */\n      dup2\n        /* \"Library.sol\":3917:3921  book */\n      dup2\n        /* \"Library.sol\":3917:3927  book.stock */\n      0x04\n      add\n        /* \"Library.sol\":3917:3935  book.stock = stock */\n      dup2\n      swap1\n      sstore\n      pop\n        /* \"Library.sol\":3962:3966  book */\n      dup1\n        /* \"Library.sol\":3962:3978  book.numBorrowed */\n      0x05\n      add\n      sload\n        /* \"Library.sol\":3948:3952  book */\n      dup2\n        /* \"Library.sol\":3948:3958  book.stock */\n      0x04\n      add\n      sload\n        /* \"Library.sol\":3948:3978  book.stock == book.numBorrowed */\n      eq\n        /* \"Library.sol\":3945:4030  if(book.stock == book.numBorrowed){... */\n      iszero\n      tag_123\n      jumpi\n        /* \"Library.sol\":4015:4019  true */\n      0x01\n        /* \"Library.sol\":3993:3997  book */\n      dup2\n        /* \"Library.sol\":3993:4012  book.isFullBorrowed */\n      0x06\n      add\n      0x00\n        /* \"Library.sol\":3993:4019  book.isFullBorrowed = true */\n      0x0100\n      exp\n      dup2\n      sload\n      dup2\n      0xff\n      mul\n      not\n      and\n      swap1\n      dup4\n      iszero\n      iszero\n      mul\n      or\n      swap1\n      sstore\n      pop\n        /* \"Library.sol\":3945:4030  if(book.stock == book.numBorrowed){... */\n    tag_123:\n        /* \"Library.sol\":3678:4036  {... */\n      pop\n        /* \"Library.sol\":3479:4036  function modifyInformation(... */\n      pop\n      pop\n      pop\n      pop\n      pop\n      pop\n      jump\t// out\n        /* \"Library.sol\":2840:2944  function inviteStaff(address staffAddress) public restricted {... */\n    tag_67:\n        /* \"Library.sol\":907:914  manager */\n      0x00\n      dup1\n      sload\n      swap1\n      0x0100\n      exp\n      swap1\n      div\n      0xffffffffffffffffffffffffffffffffffffffff\n      and\n        /* \"Library.sol\":893:914  msg.sender == manager */\n      0xffffffffffffffffffffffffffffffffffffffff\n      and\n        /* \"Library.sol\":893:903  msg.sender */\n      caller\n        /* \"Library.sol\":893:914  msg.sender == manager */\n      0xffffffffffffffffffffffffffffffffffffffff\n      and\n      eq\n        /* \"Library.sol\":885:915  require(msg.sender == manager) */\n      tag_125\n      jumpi\n      0x00\n      dup1\n      revert\n    tag_125:\n        /* \"Library.sol\":2933:2937  true */\n      0x01\n        /* \"Library.sol\":2911:2916  staff */\n      0x05\n        /* \"Library.sol\":2911:2930  staff[staffAddress] */\n      0x00\n        /* \"Library.sol\":2917:2929  staffAddress */\n      dup4\n        /* \"Library.sol\":2911:2930  staff[staffAddress] */\n      0xffffffffffffffffffffffffffffffffffffffff\n      and\n      0xffffffffffffffffffffffffffffffffffffffff\n      and\n      dup2\n      mstore\n      0x20\n      add\n      swap1\n      dup2\n      mstore\n      0x20\n      add\n      0x00\n      keccak256\n      0x00\n        /* \"Library.sol\":2911:2937  staff[staffAddress] = true */\n      0x0100\n      exp\n      dup2\n      sload\n      dup2\n      0xff\n      mul\n      not\n      and\n      swap1\n      dup4\n      iszero\n      iszero\n      mul\n      or\n      swap1\n      sstore\n      pop\n        /* \"Library.sol\":2840:2944  function inviteStaff(address staffAddress) public restricted {... */\n      pop\n      jump\t// out\n    tag_93:\n      dup3\n      dup1\n      sload\n      tag_127\n      swap1\n      tag_73\n      jump\t// in\n    tag_127:\n      swap1\n      0x00\n      mstore\n      keccak256(0x00, 0x20)\n      swap1\n      0x1f\n      add\n      0x20\n      swap1\n      div\n      dup2\n      add\n      swap3\n      dup3\n      tag_129\n      jumpi\n      0x00\n      dup6\n      sstore\n      jump(tag_128)\n    tag_129:\n      dup3\n      0x1f\n      lt\n      tag_130\n      jumpi\n      dup1\n      mload\n      not(0xff)\n      and\n      dup4\n      dup1\n      add\n      or\n      dup6\n      sstore\n      jump(tag_128)\n    tag_130:\n      dup3\n      dup1\n      add\n      0x01\n      add\n      dup6\n      sstore\n      dup3\n      iszero\n      tag_128\n      jumpi\n      swap2\n      dup3\n      add\n    tag_131:\n      dup3\n      dup2\n      gt\n      iszero\n      tag_132\n      jumpi\n      dup3\n      mload\n      dup3\n      sstore\n      swap2\n      0x20\n      add\n      swap2\n      swap1\n      0x01\n      add\n      swap1\n      jump(tag_131)\n    tag_132:\n    tag_128:\n      pop\n      swap1\n      pop\n      tag_133\n      swap2\n      swap1\n      tag_134\n      jump\t// in\n    tag_133:\n      pop\n      swap1\n      jump\t// out\n    tag_134:\n    tag_135:\n      dup1\n      dup3\n      gt\n      iszero\n      tag_136\n      jumpi\n      0x00\n      dup2\n      0x00\n      swap1\n      sstore\n      pop\n      0x01\n      add\n      jump(tag_135)\n    tag_136:\n      pop\n      swap1\n      jump\t// out\n        /* \"#utility.yul\":7:84   */\n    tag_137:\n        /* \"#utility.yul\":44:51   */\n      0x00\n        /* \"#utility.yul\":73:78   */\n      dup2\n        /* \"#utility.yul\":62:78   */\n      swap1\n      pop\n        /* \"#utility.yul\":7:84   */\n      swap2\n      swap1\n      pop\n      jump\t// out\n        /* \"#utility.yul\":90:208   */\n    tag_138:\n        /* \"#utility.yul\":177:201   */\n      tag_170\n        /* \"#utility.yul\":195:200   */\n      dup2\n        /* \"#utility.yul\":177:201   */\n      tag_137\n      jump\t// in\n    tag_170:\n        /* \"#utility.yul\":172:175   */\n      dup3\n        /* \"#utility.yul\":165:202   */\n      mstore\n        /* \"#utility.yul\":90:208   */\n      pop\n      pop\n      jump\t// out\n        /* \"#utility.yul\":214:436   */\n    tag_23:\n        /* \"#utility.yul\":307:311   */\n      0x00\n        /* \"#utility.yul\":345:347   */\n      0x20\n        /* \"#utility.yul\":334:343   */\n      dup3\n        /* \"#utility.yul\":330:348   */\n      add\n        /* \"#utility.yul\":322:348   */\n      swap1\n      pop\n        /* \"#utility.yul\":358:429   */\n      tag_172\n        /* \"#utility.yul\":426:427   */\n      0x00\n        /* \"#utility.yul\":415:424   */\n      dup4\n        /* \"#utility.yul\":411:428   */\n      add\n        /* \"#utility.yul\":402:408   */\n      dup5\n        /* \"#utility.yul\":358:429   */\n      tag_138\n      jump\t// in\n    tag_172:\n        /* \"#utility.yul\":214:436   */\n      swap3\n      swap2\n      pop\n      pop\n      jump\t// out\n        /* \"#utility.yul\":442:568   */\n    tag_139:\n        /* \"#utility.yul\":479:486   */\n      0x00\n        /* \"#utility.yul\":519:561   */\n      0xffffffffffffffffffffffffffffffffffffffff\n        /* \"#utility.yul\":512:517   */\n      dup3\n        /* \"#utility.yul\":508:562   */\n      and\n        /* \"#utility.yul\":497:562   */\n      swap1\n      pop\n        /* \"#utility.yul\":442:568   */\n      swap2\n      swap1\n      pop\n      jump\t// out\n        /* \"#utility.yul\":574:670   */\n    tag_140:\n        /* \"#utility.yul\":611:618   */\n      0x00\n        /* \"#utility.yul\":640:664   */\n      tag_175\n        /* \"#utility.yul\":658:663   */\n      dup3\n        /* \"#utility.yul\":640:664   */\n      tag_139\n      jump\t// in\n    tag_175:\n        /* \"#utility.yul\":629:664   */\n      swap1\n      pop\n        /* \"#utility.yul\":574:670   */\n      swap2\n      swap1\n      pop\n      jump\t// out\n        /* \"#utility.yul\":676:794   */\n    tag_141:\n        /* \"#utility.yul\":763:787   */\n      tag_177\n        /* \"#utility.yul\":781:786   */\n      dup2\n        /* \"#utility.yul\":763:787   */\n      tag_140\n      jump\t// in\n    tag_177:\n        /* \"#utility.yul\":758:761   */\n      dup3\n        /* \"#utility.yul\":751:788   */\n      mstore\n        /* \"#utility.yul\":676:794   */\n      pop\n      pop\n      jump\t// out\n        /* \"#utility.yul\":800:1022   */\n    tag_27:\n        /* \"#utility.yul\":893:897   */\n      0x00\n        /* \"#utility.yul\":931:933   */\n      0x20\n        /* \"#utility.yul\":920:929   */\n      dup3\n        /* \"#utility.yul\":916:934   */\n      add\n        /* \"#utility.yul\":908:934   */\n      swap1\n      pop\n        /* \"#utility.yul\":944:1015   */\n      tag_179\n        /* \"#utility.yul\":1012:1013   */\n      0x00\n        /* \"#utility.yul\":1001:1010   */\n      dup4\n        /* \"#utility.yul\":997:1014   */\n      add\n        /* \"#utility.yul\":988:994   */\n      dup5\n        /* \"#utility.yul\":944:1015   */\n      tag_141\n      jump\t// in\n    tag_179:\n        /* \"#utility.yul\":800:1022   */\n      swap3\n      swap2\n      pop\n      pop\n      jump\t// out\n        /* \"#utility.yul\":1028:1103   */\n    tag_142:\n        /* \"#utility.yul\":1061:1067   */\n      0x00\n        /* \"#utility.yul\":1094:1096   */\n      0x40\n        /* \"#utility.yul\":1088:1097   */\n      mload\n        /* \"#utility.yul\":1078:1097   */\n      swap1\n      pop\n        /* \"#utility.yul\":1028:1103   */\n      swap1\n      jump\t// out\n        /* \"#utility.yul\":1109:1226   */\n    tag_143:\n        /* \"#utility.yul\":1218:1219   */\n      0x00\n        /* \"#utility.yul\":1215:1216   */\n      dup1\n        /* \"#utility.yul\":1208:1220   */\n      revert\n        /* \"#utility.yul\":1232:1349   */\n    tag_144:\n        /* \"#utility.yul\":1341:1342   */\n      0x00\n        /* \"#utility.yul\":1338:1339   */\n      dup1\n        /* \"#utility.yul\":1331:1343   */\n      revert\n        /* \"#utility.yul\":1355:1477   */\n    tag_145:\n        /* \"#utility.yul\":1428:1452   */\n      tag_184\n        /* \"#utility.yul\":1446:1451   */\n      dup2\n        /* \"#utility.yul\":1428:1452   */\n      tag_137\n      jump\t// in\n    tag_184:\n        /* \"#utility.yul\":1421:1426   */\n      dup2\n        /* \"#utility.yul\":1418:1453   */\n      eq\n        /* \"#utility.yul\":1408:1471   */\n      tag_185\n      jumpi\n        /* \"#utility.yul\":1467:1468   */\n      0x00\n        /* \"#utility.yul\":1464:1465   */\n      dup1\n        /* \"#utility.yul\":1457:1469   */\n      revert\n        /* \"#utility.yul\":1408:1471   */\n    tag_185:\n        /* \"#utility.yul\":1355:1477   */\n      pop\n      jump\t// out\n        /* \"#utility.yul\":1483:1622   */\n    tag_146:\n        /* \"#utility.yul\":1529:1534   */\n      0x00\n        /* \"#utility.yul\":1567:1573   */\n      dup2\n        /* \"#utility.yul\":1554:1574   */\n      calldataload\n        /* \"#utility.yul\":1545:1574   */\n      swap1\n      pop\n        /* \"#utility.yul\":1583:1616   */\n      tag_187\n        /* \"#utility.yul\":1610:1615   */\n      dup2\n        /* \"#utility.yul\":1583:1616   */\n      tag_145\n      jump\t// in\n    tag_187:\n        /* \"#utility.yul\":1483:1622   */\n      swap3\n      swap2\n      pop\n      pop\n      jump\t// out\n        /* \"#utility.yul\":1628:1957   */\n    tag_30:\n        /* \"#utility.yul\":1687:1693   */\n      0x00\n        /* \"#utility.yul\":1736:1738   */\n      0x20\n        /* \"#utility.yul\":1724:1733   */\n      dup3\n        /* \"#utility.yul\":1715:1722   */\n      dup5\n        /* \"#utility.yul\":1711:1734   */\n      sub\n        /* \"#utility.yul\":1707:1739   */\n      slt\n        /* \"#utility.yul\":1704:1823   */\n      iszero\n      tag_189\n      jumpi\n        /* \"#utility.yul\":1742:1821   */\n      tag_190\n      tag_143\n      jump\t// in\n    tag_190:\n        /* \"#utility.yul\":1704:1823   */\n    tag_189:\n        /* \"#utility.yul\":1862:1863   */\n      0x00\n        /* \"#utility.yul\":1887:1940   */\n      tag_191\n        /* \"#utility.yul\":1932:1939   */\n      dup5\n        /* \"#utility.yul\":1923:1929   */\n      dup3\n        /* \"#utility.yul\":1912:1921   */\n      dup6\n        /* \"#utility.yul\":1908:1930   */\n      add\n        /* \"#utility.yul\":1887:1940   */\n      tag_146\n      jump\t// in\n    tag_191:\n        /* \"#utility.yul\":1877:1940   */\n      swap2\n      pop\n        /* \"#utility.yul\":1833:1950   */\n      pop\n        /* \"#utility.yul\":1628:1957   */\n      swap3\n      swap2\n      pop\n      pop\n      jump\t// out\n        /* \"#utility.yul\":1963:2062   */\n    tag_147:\n        /* \"#utility.yul\":2015:2021   */\n      0x00\n        /* \"#utility.yul\":2049:2054   */\n      dup2\n        /* \"#utility.yul\":2043:2055   */\n      mload\n        /* \"#utility.yul\":2033:2055   */\n      swap1\n      pop\n        /* \"#utility.yul\":1963:2062   */\n      swap2\n      swap1\n      pop\n      jump\t// out\n        /* \"#utility.yul\":2068:2237   */\n    tag_148:\n        /* \"#utility.yul\":2152:2163   */\n      0x00\n        /* \"#utility.yul\":2186:2192   */\n      dup3\n        /* \"#utility.yul\":2181:2184   */\n      dup3\n        /* \"#utility.yul\":2174:2193   */\n      mstore\n        /* \"#utility.yul\":2226:2230   */\n      0x20\n        /* \"#utility.yul\":2221:2224   */\n      dup3\n        /* \"#utility.yul\":2217:2231   */\n      add\n        /* \"#utility.yul\":2202:2231   */\n      swap1\n      pop\n        /* \"#utility.yul\":2068:2237   */\n      swap3\n      swap2\n      pop\n      pop\n      jump\t// out\n        /* \"#utility.yul\":2243:2550   */\n    tag_149:\n        /* \"#utility.yul\":2311:2312   */\n      0x00\n        /* \"#utility.yul\":2321:2434   */\n    tag_195:\n        /* \"#utility.yul\":2335:2341   */\n      dup4\n        /* \"#utility.yul\":2332:2333   */\n      dup2\n        /* \"#utility.yul\":2329:2342   */\n      lt\n        /* \"#utility.yul\":2321:2434   */\n      iszero\n      tag_197\n      jumpi\n        /* \"#utility.yul\":2420:2421   */\n      dup1\n        /* \"#utility.yul\":2415:2418   */\n      dup3\n        /* \"#utility.yul\":2411:2422   */\n      add\n        /* \"#utility.yul\":2405:2423   */\n      mload\n        /* \"#utility.yul\":2401:2402   */\n      dup2\n        /* \"#utility.yul\":2396:2399   */\n      dup5\n        /* \"#utility.yul\":2392:2403   */\n      add\n        /* \"#utility.yul\":2385:2424   */\n      mstore\n        /* \"#utility.yul\":2357:2359   */\n      0x20\n        /* \"#utility.yul\":2354:2355   */\n      dup2\n        /* \"#utility.yul\":2350:2360   */\n      add\n        /* \"#utility.yul\":2345:2360   */\n      swap1\n      pop\n        /* \"#utility.yul\":2321:2434   */\n      jump(tag_195)\n    tag_197:\n        /* \"#utility.yul\":2452:2458   */\n      dup4\n        /* \"#utility.yul\":2449:2450   */\n      dup2\n        /* \"#utility.yul\":2446:2459   */\n      gt\n        /* \"#utility.yul\":2443:2544   */\n      iszero\n      tag_198\n      jumpi\n        /* \"#utility.yul\":2532:2533   */\n      0x00\n        /* \"#utility.yul\":2523:2529   */\n      dup5\n        /* \"#utility.yul\":2518:2521   */\n      dup5\n        /* \"#utility.yul\":2514:2530   */\n      add\n        /* \"#utility.yul\":2507:2534   */\n      mstore\n        /* \"#utility.yul\":2443:2544   */\n    tag_198:\n        /* \"#utility.yul\":2292:2550   */\n      pop\n        /* \"#utility.yul\":2243:2550   */\n      pop\n      pop\n      pop\n      jump\t// out\n        /* \"#utility.yul\":2556:2658   */\n    tag_150:\n        /* \"#utility.yul\":2597:2603   */\n      0x00\n        /* \"#utility.yul\":2648:2650   */\n      0x1f\n        /* \"#utility.yul\":2644:2651   */\n      not\n        /* \"#utility.yul\":2639:2641   */\n      0x1f\n        /* \"#utility.yul\":2632:2637   */\n      dup4\n        /* \"#utility.yul\":2628:2642   */\n      add\n        /* \"#utility.yul\":2624:2652   */\n      and\n        /* \"#utility.yul\":2614:2652   */\n      swap1\n      pop\n        /* \"#utility.yul\":2556:2658   */\n      swap2\n      swap1\n      pop\n      jump\t// out\n        /* \"#utility.yul\":2664:3028   */\n    tag_151:\n        /* \"#utility.yul\":2752:2755   */\n      0x00\n        /* \"#utility.yul\":2780:2819   */\n      tag_201\n        /* \"#utility.yul\":2813:2818   */\n      dup3\n        /* \"#utility.yul\":2780:2819   */\n      tag_147\n      jump\t// in\n    tag_201:\n        /* \"#utility.yul\":2835:2906   */\n      tag_202\n        /* \"#utility.yul\":2899:2905   */\n      dup2\n        /* \"#utility.yul\":2894:2897   */\n      dup6\n        /* \"#utility.yul\":2835:2906   */\n      tag_148\n      jump\t// in\n    tag_202:\n        /* \"#utility.yul\":2828:2906   */\n      swap4\n      pop\n        /* \"#utility.yul\":2915:2967   */\n      tag_203\n        /* \"#utility.yul\":2960:2966   */\n      dup2\n        /* \"#utility.yul\":2955:2958   */\n      dup6\n        /* \"#utility.yul\":2948:2952   */\n      0x20\n        /* \"#utility.yul\":2941:2946   */\n      dup7\n        /* \"#utility.yul\":2937:2953   */\n      add\n        /* \"#utility.yul\":2915:2967   */\n      tag_149\n      jump\t// in\n    tag_203:\n        /* \"#utility.yul\":2992:3021   */\n      tag_204\n        /* \"#utility.yul\":3014:3020   */\n      dup2\n        /* \"#utility.yul\":2992:3021   */\n      tag_150\n      jump\t// in\n    tag_204:\n        /* \"#utility.yul\":2987:2990   */\n      dup5\n        /* \"#utility.yul\":2983:3022   */\n      add\n        /* \"#utility.yul\":2976:3022   */\n      swap2\n      pop\n        /* \"#utility.yul\":2756:3028   */\n      pop\n        /* \"#utility.yul\":2664:3028   */\n      swap3\n      swap2\n      pop\n      pop\n      jump\t// out\n        /* \"#utility.yul\":3034:3124   */\n    tag_152:\n        /* \"#utility.yul\":3068:3075   */\n      0x00\n        /* \"#utility.yul\":3111:3116   */\n      dup2\n        /* \"#utility.yul\":3104:3117   */\n      iszero\n        /* \"#utility.yul\":3097:3118   */\n      iszero\n        /* \"#utility.yul\":3086:3118   */\n      swap1\n      pop\n        /* \"#utility.yul\":3034:3124   */\n      swap2\n      swap1\n      pop\n      jump\t// out\n        /* \"#utility.yul\":3130:3239   */\n    tag_153:\n        /* \"#utility.yul\":3211:3232   */\n      tag_207\n        /* \"#utility.yul\":3226:3231   */\n      dup2\n        /* \"#utility.yul\":3211:3232   */\n      tag_152\n      jump\t// in\n    tag_207:\n        /* \"#utility.yul\":3206:3209   */\n      dup3\n        /* \"#utility.yul\":3199:3233   */\n      mstore\n        /* \"#utility.yul\":3130:3239   */\n      pop\n      pop\n      jump\t// out\n        /* \"#utility.yul\":3245:4392   */\n    tag_33:\n        /* \"#utility.yul\":3560:3564   */\n      0x00\n        /* \"#utility.yul\":3598:3601   */\n      0xe0\n        /* \"#utility.yul\":3587:3596   */\n      dup3\n        /* \"#utility.yul\":3583:3602   */\n      add\n        /* \"#utility.yul\":3575:3602   */\n      swap1\n      pop\n        /* \"#utility.yul\":3648:3657   */\n      dup2\n        /* \"#utility.yul\":3642:3646   */\n      dup2\n        /* \"#utility.yul\":3638:3658   */\n      sub\n        /* \"#utility.yul\":3634:3635   */\n      0x00\n        /* \"#utility.yul\":3623:3632   */\n      dup4\n        /* \"#utility.yul\":3619:3636   */\n      add\n        /* \"#utility.yul\":3612:3659   */\n      mstore\n        /* \"#utility.yul\":3676:3754   */\n      tag_209\n        /* \"#utility.yul\":3749:3753   */\n      dup2\n        /* \"#utility.yul\":3740:3746   */\n      dup11\n        /* \"#utility.yul\":3676:3754   */\n      tag_151\n      jump\t// in\n    tag_209:\n        /* \"#utility.yul\":3668:3754   */\n      swap1\n      pop\n        /* \"#utility.yul\":3801:3810   */\n      dup2\n        /* \"#utility.yul\":3795:3799   */\n      dup2\n        /* \"#utility.yul\":3791:3811   */\n      sub\n        /* \"#utility.yul\":3786:3788   */\n      0x20\n        /* \"#utility.yul\":3775:3784   */\n      dup4\n        /* \"#utility.yul\":3771:3789   */\n      add\n        /* \"#utility.yul\":3764:3812   */\n      mstore\n        /* \"#utility.yul\":3829:3907   */\n      tag_210\n        /* \"#utility.yul\":3902:3906   */\n      dup2\n        /* \"#utility.yul\":3893:3899   */\n      dup10\n        /* \"#utility.yul\":3829:3907   */\n      tag_151\n      jump\t// in\n    tag_210:\n        /* \"#utility.yul\":3821:3907   */\n      swap1\n      pop\n        /* \"#utility.yul\":3954:3963   */\n      dup2\n        /* \"#utility.yul\":3948:3952   */\n      dup2\n        /* \"#utility.yul\":3944:3964   */\n      sub\n        /* \"#utility.yul\":3939:3941   */\n      0x40\n        /* \"#utility.yul\":3928:3937   */\n      dup4\n        /* \"#utility.yul\":3924:3942   */\n      add\n        /* \"#utility.yul\":3917:3965   */\n      mstore\n        /* \"#utility.yul\":3982:4060   */\n      tag_211\n        /* \"#utility.yul\":4055:4059   */\n      dup2\n        /* \"#utility.yul\":4046:4052   */\n      dup9\n        /* \"#utility.yul\":3982:4060   */\n      tag_151\n      jump\t// in\n    tag_211:\n        /* \"#utility.yul\":3974:4060   */\n      swap1\n      pop\n        /* \"#utility.yul\":4070:4142   */\n      tag_212\n        /* \"#utility.yul\":4138:4140   */\n      0x60\n        /* \"#utility.yul\":4127:4136   */\n      dup4\n        /* \"#utility.yul\":4123:4141   */\n      add\n        /* \"#utility.yul\":4114:4120   */\n      dup8\n        /* \"#utility.yul\":4070:4142   */\n      tag_138\n      jump\t// in\n    tag_212:\n        /* \"#utility.yul\":4152:4225   */\n      tag_213\n        /* \"#utility.yul\":4220:4223   */\n      0x80\n        /* \"#utility.yul\":4209:4218   */\n      dup4\n        /* \"#utility.yul\":4205:4224   */\n      add\n        /* \"#utility.yul\":4196:4202   */\n      dup7\n        /* \"#utility.yul\":4152:4225   */\n      tag_138\n      jump\t// in\n    tag_213:\n        /* \"#utility.yul\":4235:4308   */\n      tag_214\n        /* \"#utility.yul\":4303:4306   */\n      0xa0\n        /* \"#utility.yul\":4292:4301   */\n      dup4\n        /* \"#utility.yul\":4288:4307   */\n      add\n        /* \"#utility.yul\":4279:4285   */\n      dup6\n        /* \"#utility.yul\":4235:4308   */\n      tag_138\n      jump\t// in\n    tag_214:\n        /* \"#utility.yul\":4318:4385   */\n      tag_215\n        /* \"#utility.yul\":4380:4383   */\n      0xc0\n        /* \"#utility.yul\":4369:4378   */\n      dup4\n        /* \"#utility.yul\":4365:4384   */\n      add\n        /* \"#utility.yul\":4356:4362   */\n      dup5\n        /* \"#utility.yul\":4318:4385   */\n      tag_153\n      jump\t// in\n    tag_215:\n        /* \"#utility.yul\":3245:4392   */\n      swap9\n      swap8\n      pop\n      pop\n      pop\n      pop\n      pop\n      pop\n      pop\n      pop\n      jump\t// out\n        /* \"#utility.yul\":4398:4515   */\n    tag_154:\n        /* \"#utility.yul\":4507:4508   */\n      0x00\n        /* \"#utility.yul\":4504:4505   */\n      dup1\n        /* \"#utility.yul\":4497:4509   */\n      revert\n        /* \"#utility.yul\":4521:4638   */\n    tag_155:\n        /* \"#utility.yul\":4630:4631   */\n      0x00\n        /* \"#utility.yul\":4627:4628   */\n      dup1\n        /* \"#utility.yul\":4620:4632   */\n      revert\n        /* \"#utility.yul\":4644:4824   */\n    tag_156:\n        /* \"#utility.yul\":4692:4769   */\n      0x4e487b7100000000000000000000000000000000000000000000000000000000\n        /* \"#utility.yul\":4689:4690   */\n      0x00\n        /* \"#utility.yul\":4682:4770   */\n      mstore\n        /* \"#utility.yul\":4789:4793   */\n      0x41\n        /* \"#utility.yul\":4786:4787   */\n      0x04\n        /* \"#utility.yul\":4779:4794   */\n      mstore\n        /* \"#utility.yul\":4813:4817   */\n      0x24\n        /* \"#utility.yul\":4810:4811   */\n      0x00\n        /* \"#utility.yul\":4803:4818   */\n      revert\n        /* \"#utility.yul\":4830:5111   */\n    tag_157:\n        /* \"#utility.yul\":4913:4940   */\n      tag_220\n        /* \"#utility.yul\":4935:4939   */\n      dup3\n        /* \"#utility.yul\":4913:4940   */\n      tag_150\n      jump\t// in\n    tag_220:\n        /* \"#utility.yul\":4905:4911   */\n      dup2\n        /* \"#utility.yul\":4901:4941   */\n      add\n        /* \"#utility.yul\":5043:5049   */\n      dup2\n        /* \"#utility.yul\":5031:5041   */\n      dup2\n        /* \"#utility.yul\":5028:5050   */\n      lt\n        /* \"#utility.yul\":5007:5025   */\n      0xffffffffffffffff\n        /* \"#utility.yul\":4995:5005   */\n      dup3\n        /* \"#utility.yul\":4992:5026   */\n      gt\n        /* \"#utility.yul\":4989:5051   */\n      or\n        /* \"#utility.yul\":4986:5074   */\n      iszero\n      tag_221\n      jumpi\n        /* \"#utility.yul\":5054:5072   */\n      tag_222\n      tag_156\n      jump\t// in\n    tag_222:\n        /* \"#utility.yul\":4986:5074   */\n    tag_221:\n        /* \"#utility.yul\":5094:5104   */\n      dup1\n        /* \"#utility.yul\":5090:5092   */\n      0x40\n        /* \"#utility.yul\":5083:5105   */\n      mstore\n        /* \"#utility.yul\":4873:5111   */\n      pop\n        /* \"#utility.yul\":4830:5111   */\n      pop\n      pop\n      jump\t// out\n        /* \"#utility.yul\":5117:5246   */\n    tag_158:\n        /* \"#utility.yul\":5151:5157   */\n      0x00\n        /* \"#utility.yul\":5178:5198   */\n      tag_224\n      tag_142\n      jump\t// in\n    tag_224:\n        /* \"#utility.yul\":5168:5198   */\n      swap1\n      pop\n        /* \"#utility.yul\":5207:5240   */\n      tag_225\n        /* \"#utility.yul\":5235:5239   */\n      dup3\n        /* \"#utility.yul\":5227:5233   */\n      dup3\n        /* \"#utility.yul\":5207:5240   */\n      tag_157\n      jump\t// in\n    tag_225:\n        /* \"#utility.yul\":5117:5246   */\n      swap2\n      swap1\n      pop\n      jump\t// out\n        /* \"#utility.yul\":5252:5560   */\n    tag_159:\n        /* \"#utility.yul\":5314:5318   */\n      0x00\n        /* \"#utility.yul\":5404:5422   */\n      0xffffffffffffffff\n        /* \"#utility.yul\":5396:5402   */\n      dup3\n        /* \"#utility.yul\":5393:5423   */\n      gt\n        /* \"#utility.yul\":5390:5446   */\n      iszero\n      tag_227\n      jumpi\n        /* \"#utility.yul\":5426:5444   */\n      tag_228\n      tag_156\n      jump\t// in\n    tag_228:\n        /* \"#utility.yul\":5390:5446   */\n    tag_227:\n        /* \"#utility.yul\":5464:5493   */\n      tag_229\n        /* \"#utility.yul\":5486:5492   */\n      dup3\n        /* \"#utility.yul\":5464:5493   */\n      tag_150\n      jump\t// in\n    tag_229:\n        /* \"#utility.yul\":5456:5493   */\n      swap1\n      pop\n        /* \"#utility.yul\":5548:5552   */\n      0x20\n        /* \"#utility.yul\":5542:5546   */\n      dup2\n        /* \"#utility.yul\":5538:5553   */\n      add\n        /* \"#utility.yul\":5530:5553   */\n      swap1\n      pop\n        /* \"#utility.yul\":5252:5560   */\n      swap2\n      swap1\n      pop\n      jump\t// out\n        /* \"#utility.yul\":5566:5720   */\n    tag_160:\n        /* \"#utility.yul\":5650:5656   */\n      dup3\n        /* \"#utility.yul\":5645:5648   */\n      dup2\n        /* \"#utility.yul\":5640:5643   */\n      dup4\n        /* \"#utility.yul\":5627:5657   */\n      calldatacopy\n        /* \"#utility.yul\":5712:5713   */\n      0x00\n        /* \"#utility.yul\":5703:5709   */\n      dup4\n        /* \"#utility.yul\":5698:5701   */\n      dup4\n        /* \"#utility.yul\":5694:5710   */\n      add\n        /* \"#utility.yul\":5687:5714   */\n      mstore\n        /* \"#utility.yul\":5566:5720   */\n      pop\n      pop\n      pop\n      jump\t// out\n        /* \"#utility.yul\":5726:6138   */\n    tag_161:\n        /* \"#utility.yul\":5804:5809   */\n      0x00\n        /* \"#utility.yul\":5829:5895   */\n      tag_232\n        /* \"#utility.yul\":5845:5894   */\n      tag_233\n        /* \"#utility.yul\":5887:5893   */\n      dup5\n        /* \"#utility.yul\":5845:5894   */\n      tag_159\n      jump\t// in\n    tag_233:\n        /* \"#utility.yul\":5829:5895   */\n      tag_158\n      jump\t// in\n    tag_232:\n        /* \"#utility.yul\":5820:5895   */\n      swap1\n      pop\n        /* \"#utility.yul\":5918:5924   */\n      dup3\n        /* \"#utility.yul\":5911:5916   */\n      dup2\n        /* \"#utility.yul\":5904:5925   */\n      mstore\n        /* \"#utility.yul\":5956:5960   */\n      0x20\n        /* \"#utility.yul\":5949:5954   */\n      dup2\n        /* \"#utility.yul\":5945:5961   */\n      add\n        /* \"#utility.yul\":5994:5997   */\n      dup5\n        /* \"#utility.yul\":5985:5991   */\n      dup5\n        /* \"#utility.yul\":5980:5983   */\n      dup5\n        /* \"#utility.yul\":5976:5992   */\n      add\n        /* \"#utility.yul\":5973:5998   */\n      gt\n        /* \"#utility.yul\":5970:6082   */\n      iszero\n      tag_234\n      jumpi\n        /* \"#utility.yul\":6001:6080   */\n      tag_235\n      tag_155\n      jump\t// in\n    tag_235:\n        /* \"#utility.yul\":5970:6082   */\n    tag_234:\n        /* \"#utility.yul\":6091:6132   */\n      tag_236\n        /* \"#utility.yul\":6125:6131   */\n      dup5\n        /* \"#utility.yul\":6120:6123   */\n      dup3\n        /* \"#utility.yul\":6115:6118   */\n      dup6\n        /* \"#utility.yul\":6091:6132   */\n      tag_160\n      jump\t// in\n    tag_236:\n        /* \"#utility.yul\":5810:6138   */\n      pop\n        /* \"#utility.yul\":5726:6138   */\n      swap4\n      swap3\n      pop\n      pop\n      pop\n      jump\t// out\n        /* \"#utility.yul\":6158:6498   */\n    tag_162:\n        /* \"#utility.yul\":6214:6219   */\n      0x00\n        /* \"#utility.yul\":6263:6266   */\n      dup3\n        /* \"#utility.yul\":6256:6260   */\n      0x1f\n        /* \"#utility.yul\":6248:6254   */\n      dup4\n        /* \"#utility.yul\":6244:6261   */\n      add\n        /* \"#utility.yul\":6240:6267   */\n      slt\n        /* \"#utility.yul\":6230:6352   */\n      tag_238\n      jumpi\n        /* \"#utility.yul\":6271:6350   */\n      tag_239\n      tag_154\n      jump\t// in\n    tag_239:\n        /* \"#utility.yul\":6230:6352   */\n    tag_238:\n        /* \"#utility.yul\":6388:6394   */\n      dup2\n        /* \"#utility.yul\":6375:6395   */\n      calldataload\n        /* \"#utility.yul\":6413:6492   */\n      tag_240\n        /* \"#utility.yul\":6488:6491   */\n      dup5\n        /* \"#utility.yul\":6480:6486   */\n      dup3\n        /* \"#utility.yul\":6473:6477   */\n      0x20\n        /* \"#utility.yul\":6465:6471   */\n      dup7\n        /* \"#utility.yul\":6461:6478   */\n      add\n        /* \"#utility.yul\":6413:6492   */\n      tag_161\n      jump\t// in\n    tag_240:\n        /* \"#utility.yul\":6404:6492   */\n      swap2\n      pop\n        /* \"#utility.yul\":6220:6498   */\n      pop\n        /* \"#utility.yul\":6158:6498   */\n      swap3\n      swap2\n      pop\n      pop\n      jump\t// out\n        /* \"#utility.yul\":6504:7955   */\n    tag_39:\n        /* \"#utility.yul\":6629:6635   */\n      0x00\n        /* \"#utility.yul\":6637:6643   */\n      dup1\n        /* \"#utility.yul\":6645:6651   */\n      0x00\n        /* \"#utility.yul\":6653:6659   */\n      dup1\n        /* \"#utility.yul\":6661:6667   */\n      0x00\n        /* \"#utility.yul\":6710:6713   */\n      0xa0\n        /* \"#utility.yul\":6698:6707   */\n      dup7\n        /* \"#utility.yul\":6689:6696   */\n      dup9\n        /* \"#utility.yul\":6685:6708   */\n      sub\n        /* \"#utility.yul\":6681:6714   */\n      slt\n        /* \"#utility.yul\":6678:6798   */\n      iszero\n      tag_242\n      jumpi\n        /* \"#utility.yul\":6717:6796   */\n      tag_243\n      tag_143\n      jump\t// in\n    tag_243:\n        /* \"#utility.yul\":6678:6798   */\n    tag_242:\n        /* \"#utility.yul\":6865:6866   */\n      0x00\n        /* \"#utility.yul\":6854:6863   */\n      dup7\n        /* \"#utility.yul\":6850:6867   */\n      add\n        /* \"#utility.yul\":6837:6868   */\n      calldataload\n        /* \"#utility.yul\":6895:6913   */\n      0xffffffffffffffff\n        /* \"#utility.yul\":6887:6893   */\n      dup2\n        /* \"#utility.yul\":6884:6914   */\n      gt\n        /* \"#utility.yul\":6881:6998   */\n      iszero\n      tag_244\n      jumpi\n        /* \"#utility.yul\":6917:6996   */\n      tag_245\n      tag_144\n      jump\t// in\n    tag_245:\n        /* \"#utility.yul\":6881:6998   */\n    tag_244:\n        /* \"#utility.yul\":7022:7085   */\n      tag_246\n        /* \"#utility.yul\":7077:7084   */\n      dup9\n        /* \"#utility.yul\":7068:7074   */\n      dup3\n        /* \"#utility.yul\":7057:7066   */\n      dup10\n        /* \"#utility.yul\":7053:7075   */\n      add\n        /* \"#utility.yul\":7022:7085   */\n      tag_162\n      jump\t// in\n    tag_246:\n        /* \"#utility.yul\":7012:7085   */\n      swap6\n      pop\n        /* \"#utility.yul\":6808:7095   */\n      pop\n        /* \"#utility.yul\":7162:7164   */\n      0x20\n        /* \"#utility.yul\":7151:7160   */\n      dup7\n        /* \"#utility.yul\":7147:7165   */\n      add\n        /* \"#utility.yul\":7134:7166   */\n      calldataload\n        /* \"#utility.yul\":7193:7211   */\n      0xffffffffffffffff\n        /* \"#utility.yul\":7185:7191   */\n      dup2\n        /* \"#utility.yul\":7182:7212   */\n      gt\n        /* \"#utility.yul\":7179:7296   */\n      iszero\n      tag_247\n      jumpi\n        /* \"#utility.yul\":7215:7294   */\n      tag_248\n      tag_144\n      jump\t// in\n    tag_248:\n        /* \"#utility.yul\":7179:7296   */\n    tag_247:\n        /* \"#utility.yul\":7320:7383   */\n      tag_249\n        /* \"#utility.yul\":7375:7382   */\n      dup9\n        /* \"#utility.yul\":7366:7372   */\n      dup3\n        /* \"#utility.yul\":7355:7364   */\n      dup10\n        /* \"#utility.yul\":7351:7373   */\n      add\n        /* \"#utility.yul\":7320:7383   */\n      tag_162\n      jump\t// in\n    tag_249:\n        /* \"#utility.yul\":7310:7383   */\n      swap5\n      pop\n        /* \"#utility.yul\":7105:7393   */\n      pop\n        /* \"#utility.yul\":7460:7462   */\n      0x40\n        /* \"#utility.yul\":7449:7458   */\n      dup7\n        /* \"#utility.yul\":7445:7463   */\n      add\n        /* \"#utility.yul\":7432:7464   */\n      calldataload\n        /* \"#utility.yul\":7491:7509   */\n      0xffffffffffffffff\n        /* \"#utility.yul\":7483:7489   */\n      dup2\n        /* \"#utility.yul\":7480:7510   */\n      gt\n        /* \"#utility.yul\":7477:7594   */\n      iszero\n      tag_250\n      jumpi\n        /* \"#utility.yul\":7513:7592   */\n      tag_251\n      tag_144\n      jump\t// in\n    tag_251:\n        /* \"#utility.yul\":7477:7594   */\n    tag_250:\n        /* \"#utility.yul\":7618:7681   */\n      tag_252\n        /* \"#utility.yul\":7673:7680   */\n      dup9\n        /* \"#utility.yul\":7664:7670   */\n      dup3\n        /* \"#utility.yul\":7653:7662   */\n      dup10\n        /* \"#utility.yul\":7649:7671   */\n      add\n        /* \"#utility.yul\":7618:7681   */\n      tag_162\n      jump\t// in\n    tag_252:\n        /* \"#utility.yul\":7608:7681   */\n      swap4\n      pop\n        /* \"#utility.yul\":7403:7691   */\n      pop\n        /* \"#utility.yul\":7730:7732   */\n      0x60\n        /* \"#utility.yul\":7756:7809   */\n      tag_253\n        /* \"#utility.yul\":7801:7808   */\n      dup9\n        /* \"#utility.yul\":7792:7798   */\n      dup3\n        /* \"#utility.yul\":7781:7790   */\n      dup10\n        /* \"#utility.yul\":7777:7799   */\n      add\n        /* \"#utility.yul\":7756:7809   */\n      tag_146\n      jump\t// in\n    tag_253:\n        /* \"#utility.yul\":7746:7809   */\n      swap3\n      pop\n        /* \"#utility.yul\":7701:7819   */\n      pop\n        /* \"#utility.yul\":7858:7861   */\n      0x80\n        /* \"#utility.yul\":7885:7938   */\n      tag_254\n        /* \"#utility.yul\":7930:7937   */\n      dup9\n        /* \"#utility.yul\":7921:7927   */\n      dup3\n        /* \"#utility.yul\":7910:7919   */\n      dup10\n        /* \"#utility.yul\":7906:7928   */\n      add\n        /* \"#utility.yul\":7885:7938   */\n      tag_146\n      jump\t// in\n    tag_254:\n        /* \"#utility.yul\":7875:7938   */\n      swap2\n      pop\n        /* \"#utility.yul\":7829:7948   */\n      pop\n        /* \"#utility.yul\":6504:7955   */\n      swap3\n      swap6\n      pop\n      swap3\n      swap6\n      swap1\n      swap4\n      pop\n      jump\t// out\n        /* \"#utility.yul\":7961:8083   */\n    tag_163:\n        /* \"#utility.yul\":8034:8058   */\n      tag_256\n        /* \"#utility.yul\":8052:8057   */\n      dup2\n        /* \"#utility.yul\":8034:8058   */\n      tag_140\n      jump\t// in\n    tag_256:\n        /* \"#utility.yul\":8027:8032   */\n      dup2\n        /* \"#utility.yul\":8024:8059   */\n      eq\n        /* \"#utility.yul\":8014:8077   */\n      tag_257\n      jumpi\n        /* \"#utility.yul\":8073:8074   */\n      0x00\n        /* \"#utility.yul\":8070:8071   */\n      dup1\n        /* \"#utility.yul\":8063:8075   */\n      revert\n        /* \"#utility.yul\":8014:8077   */\n    tag_257:\n        /* \"#utility.yul\":7961:8083   */\n      pop\n      jump\t// out\n        /* \"#utility.yul\":8089:8228   */\n    tag_164:\n        /* \"#utility.yul\":8135:8140   */\n      0x00\n        /* \"#utility.yul\":8173:8179   */\n      dup2\n        /* \"#utility.yul\":8160:8180   */\n      calldataload\n        /* \"#utility.yul\":8151:8180   */\n      swap1\n      pop\n        /* \"#utility.yul\":8189:8222   */\n      tag_259\n        /* \"#utility.yul\":8216:8221   */\n      dup2\n        /* \"#utility.yul\":8189:8222   */\n      tag_163\n      jump\t// in\n    tag_259:\n        /* \"#utility.yul\":8089:8228   */\n      swap3\n      swap2\n      pop\n      pop\n      jump\t// out\n        /* \"#utility.yul\":8234:8563   */\n    tag_49:\n        /* \"#utility.yul\":8293:8299   */\n      0x00\n        /* \"#utility.yul\":8342:8344   */\n      0x20\n        /* \"#utility.yul\":8330:8339   */\n      dup3\n        /* \"#utility.yul\":8321:8328   */\n      dup5\n        /* \"#utility.yul\":8317:8340   */\n      sub\n        /* \"#utility.yul\":8313:8345   */\n      slt\n        /* \"#utility.yul\":8310:8429   */\n      iszero\n      tag_261\n      jumpi\n        /* \"#utility.yul\":8348:8427   */\n      tag_262\n      tag_143\n      jump\t// in\n    tag_262:\n        /* \"#utility.yul\":8310:8429   */\n    tag_261:\n        /* \"#utility.yul\":8468:8469   */\n      0x00\n        /* \"#utility.yul\":8493:8546   */\n      tag_263\n        /* \"#utility.yul\":8538:8545   */\n      dup5\n        /* \"#utility.yul\":8529:8535   */\n      dup3\n        /* \"#utility.yul\":8518:8527   */\n      dup6\n        /* \"#utility.yul\":8514:8536   */\n      add\n        /* \"#utility.yul\":8493:8546   */\n      tag_164\n      jump\t// in\n    tag_263:\n        /* \"#utility.yul\":8483:8546   */\n      swap2\n      pop\n        /* \"#utility.yul\":8439:8556   */\n      pop\n        /* \"#utility.yul\":8234:8563   */\n      swap3\n      swap2\n      pop\n      pop\n      jump\t// out\n        /* \"#utility.yul\":8569:8901   */\n    tag_52:\n        /* \"#utility.yul\":8690:8694   */\n      0x00\n        /* \"#utility.yul\":8728:8730   */\n      0x40\n        /* \"#utility.yul\":8717:8726   */\n      dup3\n        /* \"#utility.yul\":8713:8731   */\n      add\n        /* \"#utility.yul\":8705:8731   */\n      swap1\n      pop\n        /* \"#utility.yul\":8741:8812   */\n      tag_265\n        /* \"#utility.yul\":8809:8810   */\n      0x00\n        /* \"#utility.yul\":8798:8807   */\n      dup4\n        /* \"#utility.yul\":8794:8811   */\n      add\n        /* \"#utility.yul\":8785:8791   */\n      dup6\n        /* \"#utility.yul\":8741:8812   */\n      tag_141\n      jump\t// in\n    tag_265:\n        /* \"#utility.yul\":8822:8894   */\n      tag_266\n        /* \"#utility.yul\":8890:8892   */\n      0x20\n        /* \"#utility.yul\":8879:8888   */\n      dup4\n        /* \"#utility.yul\":8875:8893   */\n      add\n        /* \"#utility.yul\":8866:8872   */\n      dup5\n        /* \"#utility.yul\":8822:8894   */\n      tag_138\n      jump\t// in\n    tag_266:\n        /* \"#utility.yul\":8569:8901   */\n      swap4\n      swap3\n      pop\n      pop\n      pop\n      jump\t// out\n        /* \"#utility.yul\":8907:9117   */\n    tag_60:\n        /* \"#utility.yul\":8994:8998   */\n      0x00\n        /* \"#utility.yul\":9032:9034   */\n      0x20\n        /* \"#utility.yul\":9021:9030   */\n      dup3\n        /* \"#utility.yul\":9017:9035   */\n      add\n        /* \"#utility.yul\":9009:9035   */\n      swap1\n      pop\n        /* \"#utility.yul\":9045:9110   */\n      tag_268\n        /* \"#utility.yul\":9107:9108   */\n      0x00\n        /* \"#utility.yul\":9096:9105   */\n      dup4\n        /* \"#utility.yul\":9092:9109   */\n      add\n        /* \"#utility.yul\":9083:9089   */\n      dup5\n        /* \"#utility.yul\":9045:9110   */\n      tag_153\n      jump\t// in\n    tag_268:\n        /* \"#utility.yul\":8907:9117   */\n      swap3\n      swap2\n      pop\n      pop\n      jump\t// out\n        /* \"#utility.yul\":9123:10720   */\n    tag_63:\n        /* \"#utility.yul\":9257:9263   */\n      0x00\n        /* \"#utility.yul\":9265:9271   */\n      dup1\n        /* \"#utility.yul\":9273:9279   */\n      0x00\n        /* \"#utility.yul\":9281:9287   */\n      dup1\n        /* \"#utility.yul\":9289:9295   */\n      0x00\n        /* \"#utility.yul\":9297:9303   */\n      dup1\n        /* \"#utility.yul\":9346:9349   */\n      0xc0\n        /* \"#utility.yul\":9334:9343   */\n      dup8\n        /* \"#utility.yul\":9325:9332   */\n      dup10\n        /* \"#utility.yul\":9321:9344   */\n      sub\n        /* \"#utility.yul\":9317:9350   */\n      slt\n        /* \"#utility.yul\":9314:9434   */\n      iszero\n      tag_270\n      jumpi\n        /* \"#utility.yul\":9353:9432   */\n      tag_271\n      tag_143\n      jump\t// in\n    tag_271:\n        /* \"#utility.yul\":9314:9434   */\n    tag_270:\n        /* \"#utility.yul\":9473:9474   */\n      0x00\n        /* \"#utility.yul\":9498:9551   */\n      tag_272\n        /* \"#utility.yul\":9543:9550   */\n      dup10\n        /* \"#utility.yul\":9534:9540   */\n      dup3\n        /* \"#utility.yul\":9523:9532   */\n      dup11\n        /* \"#utility.yul\":9519:9541   */\n      add\n        /* \"#utility.yul\":9498:9551   */\n      tag_146\n      jump\t// in\n    tag_272:\n        /* \"#utility.yul\":9488:9551   */\n      swap7\n      pop\n        /* \"#utility.yul\":9444:9561   */\n      pop\n        /* \"#utility.yul\":9628:9630   */\n      0x20\n        /* \"#utility.yul\":9617:9626   */\n      dup8\n        /* \"#utility.yul\":9613:9631   */\n      add\n        /* \"#utility.yul\":9600:9632   */\n      calldataload\n        /* \"#utility.yul\":9659:9677   */\n      0xffffffffffffffff\n        /* \"#utility.yul\":9651:9657   */\n      dup2\n        /* \"#utility.yul\":9648:9678   */\n      gt\n        /* \"#utility.yul\":9645:9762   */\n      iszero\n      tag_273\n      jumpi\n        /* \"#utility.yul\":9681:9760   */\n      tag_274\n      tag_144\n      jump\t// in\n    tag_274:\n        /* \"#utility.yul\":9645:9762   */\n    tag_273:\n        /* \"#utility.yul\":9786:9849   */\n      tag_275\n        /* \"#utility.yul\":9841:9848   */\n      dup10\n        /* \"#utility.yul\":9832:9838   */\n      dup3\n        /* \"#utility.yul\":9821:9830   */\n      dup11\n        /* \"#utility.yul\":9817:9839   */\n      add\n        /* \"#utility.yul\":9786:9849   */\n      tag_162\n      jump\t// in\n    tag_275:\n        /* \"#utility.yul\":9776:9849   */\n      swap6\n      pop\n        /* \"#utility.yul\":9571:9859   */\n      pop\n        /* \"#utility.yul\":9926:9928   */\n      0x40\n        /* \"#utility.yul\":9915:9924   */\n      dup8\n        /* \"#utility.yul\":9911:9929   */\n      add\n        /* \"#utility.yul\":9898:9930   */\n      calldataload\n        /* \"#utility.yul\":9957:9975   */\n      0xffffffffffffffff\n        /* \"#utility.yul\":9949:9955   */\n      dup2\n        /* \"#utility.yul\":9946:9976   */\n      gt\n        /* \"#utility.yul\":9943:10060   */\n      iszero\n      tag_276\n      jumpi\n        /* \"#utility.yul\":9979:10058   */\n      tag_277\n      tag_144\n      jump\t// in\n    tag_277:\n        /* \"#utility.yul\":9943:10060   */\n    tag_276:\n        /* \"#utility.yul\":10084:10147   */\n      tag_278\n        /* \"#utility.yul\":10139:10146   */\n      dup10\n        /* \"#utility.yul\":10130:10136   */\n      dup3\n        /* \"#utility.yul\":10119:10128   */\n      dup11\n        /* \"#utility.yul\":10115:10137   */\n      add\n        /* \"#utility.yul\":10084:10147   */\n      tag_162\n      jump\t// in\n    tag_278:\n        /* \"#utility.yul\":10074:10147   */\n      swap5\n      pop\n        /* \"#utility.yul\":9869:10157   */\n      pop\n        /* \"#utility.yul\":10224:10226   */\n      0x60\n        /* \"#utility.yul\":10213:10222   */\n      dup8\n        /* \"#utility.yul\":10209:10227   */\n      add\n        /* \"#utility.yul\":10196:10228   */\n      calldataload\n        /* \"#utility.yul\":10255:10273   */\n      0xffffffffffffffff\n        /* \"#utility.yul\":10247:10253   */\n      dup2\n        /* \"#utility.yul\":10244:10274   */\n      gt\n        /* \"#utility.yul\":10241:10358   */\n      iszero\n      tag_279\n      jumpi\n        /* \"#utility.yul\":10277:10356   */\n      tag_280\n      tag_144\n      jump\t// in\n    tag_280:\n        /* \"#utility.yul\":10241:10358   */\n    tag_279:\n        /* \"#utility.yul\":10382:10445   */\n      tag_281\n        /* \"#utility.yul\":10437:10444   */\n      dup10\n        /* \"#utility.yul\":10428:10434   */\n      dup3\n        /* \"#utility.yul\":10417:10426   */\n      dup11\n        /* \"#utility.yul\":10413:10435   */\n      add\n        /* \"#utility.yul\":10382:10445   */\n      tag_162\n      jump\t// in\n    tag_281:\n        /* \"#utility.yul\":10372:10445   */\n      swap4\n      pop\n        /* \"#utility.yul\":10167:10455   */\n      pop\n        /* \"#utility.yul\":10494:10497   */\n      0x80\n        /* \"#utility.yul\":10521:10574   */\n      tag_282\n        /* \"#utility.yul\":10566:10573   */\n      dup10\n        /* \"#utility.yul\":10557:10563   */\n      dup3\n        /* \"#utility.yul\":10546:10555   */\n      dup11\n        /* \"#utility.yul\":10542:10564   */\n      add\n        /* \"#utility.yul\":10521:10574   */\n      tag_146\n      jump\t// in\n    tag_282:\n        /* \"#utility.yul\":10511:10574   */\n      swap3\n      pop\n        /* \"#utility.yul\":10465:10584   */\n      pop\n        /* \"#utility.yul\":10623:10626   */\n      0xa0\n        /* \"#utility.yul\":10650:10703   */\n      tag_283\n        /* \"#utility.yul\":10695:10702   */\n      dup10\n        /* \"#utility.yul\":10686:10692   */\n      dup3\n        /* \"#utility.yul\":10675:10684   */\n      dup11\n        /* \"#utility.yul\":10671:10693   */\n      add\n        /* \"#utility.yul\":10650:10703   */\n      tag_146\n      jump\t// in\n    tag_283:\n        /* \"#utility.yul\":10640:10703   */\n      swap2\n      pop\n        /* \"#utility.yul\":10594:10713   */\n      pop\n        /* \"#utility.yul\":9123:10720   */\n      swap3\n      swap6\n      pop\n      swap3\n      swap6\n      pop\n      swap3\n      swap6\n      jump\t// out\n        /* \"#utility.yul\":10726:10906   */\n    tag_165:\n        /* \"#utility.yul\":10774:10851   */\n      0x4e487b7100000000000000000000000000000000000000000000000000000000\n        /* \"#utility.yul\":10771:10772   */\n      0x00\n        /* \"#utility.yul\":10764:10852   */\n      mstore\n        /* \"#utility.yul\":10871:10875   */\n      0x11\n        /* \"#utility.yul\":10868:10869   */\n      0x04\n        /* \"#utility.yul\":10861:10876   */\n      mstore\n        /* \"#utility.yul\":10895:10899   */\n      0x24\n        /* \"#utility.yul\":10892:10893   */\n      0x00\n        /* \"#utility.yul\":10885:10900   */\n      revert\n        /* \"#utility.yul\":10912:11145   */\n    tag_71:\n        /* \"#utility.yul\":10951:10954   */\n      0x00\n        /* \"#utility.yul\":10974:10998   */\n      tag_286\n        /* \"#utility.yul\":10992:10997   */\n      dup3\n        /* \"#utility.yul\":10974:10998   */\n      tag_137\n      jump\t// in\n    tag_286:\n        /* \"#utility.yul\":10965:10998   */\n      swap2\n      pop\n        /* \"#utility.yul\":11020:11086   */\n      0xffffffffffffffffffffffffffffffffffffffffffffffffffffffffffffffff\n        /* \"#utility.yul\":11013:11018   */\n      dup3\n        /* \"#utility.yul\":11010:11087   */\n      eq\n        /* \"#utility.yul\":11007:11110   */\n      iszero\n      tag_287\n      jumpi\n        /* \"#utility.yul\":11090:11108   */\n      tag_288\n      tag_165\n      jump\t// in\n    tag_288:\n        /* \"#utility.yul\":11007:11110   */\n    tag_287:\n        /* \"#utility.yul\":11137:11138   */\n      0x01\n        /* \"#utility.yul\":11130:11135   */\n      dup3\n        /* \"#utility.yul\":11126:11139   */\n      add\n        /* \"#utility.yul\":11119:11139   */\n      swap1\n      pop\n        /* \"#utility.yul\":10912:11145   */\n      swap2\n      swap1\n      pop\n      jump\t// out\n        /* \"#utility.yul\":11151:11331   */\n    tag_166:\n        /* \"#utility.yul\":11199:11276   */\n      0x4e487b7100000000000000000000000000000000000000000000000000000000\n        /* \"#utility.yul\":11196:11197   */\n      0x00\n        /* \"#utility.yul\":11189:11277   */\n      mstore\n        /* \"#utility.yul\":11296:11300   */\n      0x22\n        /* \"#utility.yul\":11293:11294   */\n      0x04\n        /* \"#utility.yul\":11286:11301   */\n      mstore\n        /* \"#utility.yul\":11320:11324   */\n      0x24\n        /* \"#utility.yul\":11317:11318   */\n      0x00\n        /* \"#utility.yul\":11310:11325   */\n      revert\n        /* \"#utility.yul\":11337:11657   */\n    tag_73:\n        /* \"#utility.yul\":11381:11387   */\n      0x00\n        /* \"#utility.yul\":11418:11419   */\n      0x02\n        /* \"#utility.yul\":11412:11416   */\n      dup3\n        /* \"#utility.yul\":11408:11420   */\n      div\n        /* \"#utility.yul\":11398:11420   */\n      swap1\n      pop\n        /* \"#utility.yul\":11465:11466   */\n      0x01\n        /* \"#utility.yul\":11459:11463   */\n      dup3\n        /* \"#utility.yul\":11455:11467   */\n      and\n        /* \"#utility.yul\":11486:11504   */\n      dup1\n        /* \"#utility.yul\":11476:11557   */\n      tag_291\n      jumpi\n        /* \"#utility.yul\":11542:11546   */\n      0x7f\n        /* \"#utility.yul\":11534:11540   */\n      dup3\n        /* \"#utility.yul\":11530:11547   */\n      and\n        /* \"#utility.yul\":11520:11547   */\n      swap2\n      pop\n        /* \"#utility.yul\":11476:11557   */\n    tag_291:\n        /* \"#utility.yul\":11604:11606   */\n      0x20\n        /* \"#utility.yul\":11596:11602   */\n      dup3\n        /* \"#utility.yul\":11593:11607   */\n      lt\n        /* \"#utility.yul\":11573:11591   */\n      dup2\n        /* \"#utility.yul\":11570:11608   */\n      eq\n        /* \"#utility.yul\":11567:11651   */\n      iszero\n      tag_292\n      jumpi\n        /* \"#utility.yul\":11623:11641   */\n      tag_293\n      tag_166\n      jump\t// in\n    tag_293:\n        /* \"#utility.yul\":11567:11651   */\n    tag_292:\n        /* \"#utility.yul\":11388:11657   */\n      pop\n        /* \"#utility.yul\":11337:11657   */\n      swap2\n      swap1\n      pop\n      jump\t// out\n        /* \"#utility.yul\":11663:11834   */\n    tag_113:\n        /* \"#utility.yul\":11702:11705   */\n      0x00\n        /* \"#utility.yul\":11725:11749   */\n      tag_295\n        /* \"#utility.yul\":11743:11748   */\n      dup3\n        /* \"#utility.yul\":11725:11749   */\n      tag_137\n      jump\t// in\n    tag_295:\n        /* \"#utility.yul\":11716:11749   */\n      swap2\n      pop\n        /* \"#utility.yul\":11771:11775   */\n      0x00\n        /* \"#utility.yul\":11764:11769   */\n      dup3\n        /* \"#utility.yul\":11761:11776   */\n      eq\n        /* \"#utility.yul\":11758:11799   */\n      iszero\n      tag_296\n      jumpi\n        /* \"#utility.yul\":11779:11797   */\n      tag_297\n      tag_165\n      jump\t// in\n    tag_297:\n        /* \"#utility.yul\":11758:11799   */\n    tag_296:\n        /* \"#utility.yul\":11826:11827   */\n      0x01\n        /* \"#utility.yul\":11819:11824   */\n      dup3\n        /* \"#utility.yul\":11815:11828   */\n      sub\n        /* \"#utility.yul\":11808:11828   */\n      swap1\n      pop\n        /* \"#utility.yul\":11663:11834   */\n      swap2\n      swap1\n      pop\n      jump\t// out\n\n    auxdata: 0xa2646970667358221220c6a43af08704503f23d49040f98d056899e238d5b20f3bea02c95f1f340d4cbb64736f6c634300080a0033\n}\n","bytecode":{"linkReferences":{},"object":"60806040523480156200001157600080fd5b50604051620017143803806200171483398181016040528101906200003791906200011d565b336000806101000a81548173ffffffffffffffffffffffffffffffffffffffff021916908373ffffffffffffffffffffffffffffffffffffffff160217905550806002819055506001600560003373ffffffffffffffffffffffffffffffffffffffff1673ffffffffffffffffffffffffffffffffffffffff16815260200190815260200160002060006101000a81548160ff021916908315150217905550506200014f565b600080fd5b6000819050919050565b620000f781620000e2565b81146200010357600080fd5b50565b6000815190506200011781620000ec565b92915050565b600060208284031215620001365762000135620000dd565b5b6000620001468482850162000106565b91505092915050565b6115b5806200015f6000396000f3fe608060405234801561001057600080fd5b50600436106100cf5760003560e01c80637e490a9e1161008c578063ca5140c911610066578063ca5140c9146101f5578063e961792714610211578063ebf98c2714610241578063fe69494b1461025d576100cf565b80637e490a9e1461018a57806390272dff146101a6578063a87430ba146101c4576100cf565b80631aa3a008146100d4578063250caccc146100de578063481c6a75146100fc578063687440461461011a5780636fafa08a146101505780637d2cd4bf1461016e575b600080fd5b6100dc610279565b005b6100e66103d3565b6040516100f39190610ede565b60405180910390f35b6101046103d9565b6040516101119190610f3a565b60405180910390f35b610134600480360381019061012f9190610f95565b6103fd565b6040516101479796959493929190611076565b60405180910390f35b6101586105e4565b6040516101659190610ede565b60405180910390f35b6101886004803603810190610183919061122f565b6105ea565b005b6101a4600480360381019061019f9190610f95565b6106fb565b005b6101ae6109c5565b6040516101bb9190610ede565b60405180910390f35b6101de60048036038101906101d9919061132a565b6109cb565b6040516101ec929190611357565b60405180910390f35b61020f600480360381019061020a9190610f95565b610a0f565b005b61022b6004803603810190610226919061132a565b610c2f565b6040516102389190611380565b60405180910390f35b61025b6004803603810190610256919061139b565b610c4f565b005b6102776004803603810190610272919061132a565b610d6f565b005b600460003373ffffffffffffffffffffffffffffffffffffffff1673ffffffffffffffffffffffffffffffffffffffff16815260200190815260200160002060009054906101000a900460ff16156102d057600080fd5b6001600460003373ffffffffffffffffffffffffffffffffffffffff1673ffffffffffffffffffffffffffffffffffffffff16815260200190815260200160002060006101000a81548160ff0219169083151502179055506000600360003373ffffffffffffffffffffffffffffffffffffffff1673ffffffffffffffffffffffffffffffffffffffff1681526020019081526020016000209050338160000160006101000a81548173ffffffffffffffffffffffffffffffffffffffff021916908373ffffffffffffffffffffffffffffffffffffffff16021790555060008160010181905550600160008154809291906103cb906114ab565b919050555050565b60065481565b60008054906101000a900473ffffffffffffffffffffffffffffffffffffffff1681565b600760205280600052604060002060009150905080600001805461042090611523565b80601f016020809104026020016040519081016040528092919081815260200182805461044c90611523565b80156104995780601f1061046e57610100808354040283529160200191610499565b820191906000526020600020905b81548152906001019060200180831161047c57829003601f168201915b5050505050908060010180546104ae90611523565b80601f01602080910402602001604051908101604052809291908181526020018280546104da90611523565b80156105275780601f106104fc57610100808354040283529160200191610527565b820191906000526020600020905b81548152906001019060200180831161050a57829003601f168201915b50505050509080600201805461053c90611523565b80601f016020809104026020016040519081016040528092919081815260200182805461056890611523565b80156105b55780601f1061058a576101008083540402835291602001916105b5565b820191906000526020600020905b81548152906001019060200180831161059857829003601f168201915b5050505050908060030154908060040154908060050154908060060160009054906101000a900460ff16905087565b60015481565b60008054906101000a900473ffffffffffffffffffffffffffffffffffffffff1673ffffffffffffffffffffffffffffffffffffffff163373ffffffffffffffffffffffffffffffffffffffff161461064257600080fd5b6000600760006006600081548092919061065b906114ab565b919050558152602001908152602001600020905085816000019080519060200190610687929190610e22565b50848160010190805190602001906106a0929190610e22565b50838160020190805190602001906106b9929190610e22565b508281600301819055508181600401819055506000816005018190555060008160060160006101000a81548160ff021916908315150217905550505050505050565b600460003373ffffffffffffffffffffffffffffffffffffffff1673ffffffffffffffffffffffffffffffffffffffff16815260200190815260200160002060009054906101000a900460ff1661075157600080fd5b6000600760008381526020019081526020016000209050806004015481600501541061077c57600080fd5b8060060160009054906101000a900460ff161561079857600080fd5b8060070160003373ffffffffffffffffffffffffffffffffffffffff1673ffffffffffffffffffffffffffffffffffffffff16815260200190815260200160002060009054906101000a900460ff16156107f157600080fd5b806005016000815480929190610806906114ab565b91905055508060040154816005015414156108395760018160060160006101000a81548160ff0219169083151502179055505b80600801339080600181540180825580915050600190039060005260206000200160009091909190916101000a81548173ffffffffffffffffffffffffffffffffffffffff021916908373ffffffffffffffffffffffffffffffffffffffff16021790555060018160070160003373ffffffffffffffffffffffffffffffffffffffff1673ffffffffffffffffffffffffffffffffffffffff16815260200190815260200160002060006101000a81548160ff0219169083151502179055506000600360003373ffffffffffffffffffffffffffffffffffffffff1673ffffffffffffffffffffffffffffffffffffffff168152602001908152602001600020905060025481600101541061094d57600080fd5b80600201839080600181540180825580915050600190039060005260206000200160009091909190915055600181600301600085815260200190815260200160002060006101000a81548160ff0219169083151502179055508060010160008154809291906109bb906114ab565b9190505550505050565b60025481565b60036020528060005260406000206000915090508060000160009054906101000a900473ffffffffffffffffffffffffffffffffffffffff16908060010154905082565b6006548110610a1d57600080fd5b600460003373ffffffffffffffffffffffffffffffffffffffff1673ffffffffffffffffffffffffffffffffffffffff16815260200190815260200160002060009054906101000a900460ff16610a7357600080fd5b60006007600083815260200190815260200160002090506000600360003373ffffffffffffffffffffffffffffffffffffffff1673ffffffffffffffffffffffffffffffffffffffff16815260200190815260200160002090508160070160003373ffffffffffffffffffffffffffffffffffffffff1673ffffffffffffffffffffffffffffffffffffffff16815260200190815260200160002060009054906101000a900460ff16610b2557600080fd5b80600301600084815260200190815260200160002060009054906101000a900460ff16610b5157600080fd5b60008260070160003373ffffffffffffffffffffffffffffffffffffffff1673ffffffffffffffffffffffffffffffffffffffff16815260200190815260200160002060006101000a81548160ff021916908315150217905550816005016000815480929190610bc090611555565b919050555060008260060160006101000a81548160ff021916908315150217905550600081600301600085815260200190815260200160002060006101000a81548160ff021916908315150217905550806001016000815480929190610c2590611555565b9190505550505050565b60046020528060005260406000206000915054906101000a900460ff1681565b600560003373ffffffffffffffffffffffffffffffffffffffff1673ffffffffffffffffffffffffffffffffffffffff16815260200190815260200160002060009054906101000a900460ff16610ca557600080fd5b6006548610610cb357600080fd5b60006007600088815260200190815260200160002090508181600401541015610cdb57600080fd5b85816000019080519060200190610cf3929190610e22565b5084816001019080519060200190610d0c929190610e22565b5083816002019080519060200190610d25929190610e22565b50828160030181905550818160040181905550806005015481600401541415610d665760018160060160006101000a81548160ff0219169083151502179055505b50505050505050565b60008054906101000a900473ffffffffffffffffffffffffffffffffffffffff1673ffffffffffffffffffffffffffffffffffffffff163373ffffffffffffffffffffffffffffffffffffffff1614610dc757600080fd5b6001600560008373ffffffffffffffffffffffffffffffffffffffff1673ffffffffffffffffffffffffffffffffffffffff16815260200190815260200160002060006101000a81548160ff02191690831515021790555050565b828054610e2e90611523565b90600052602060002090601f016020900481019282610e505760008555610e97565b82601f10610e6957805160ff1916838001178555610e97565b82800160010185558215610e97579182015b82811115610e96578251825591602001919060010190610e7b565b5b509050610ea49190610ea8565b5090565b5b80821115610ec1576000816000905550600101610ea9565b5090565b6000819050919050565b610ed881610ec5565b82525050565b6000602082019050610ef36000830184610ecf565b92915050565b600073ffffffffffffffffffffffffffffffffffffffff82169050919050565b6000610f2482610ef9565b9050919050565b610f3481610f19565b82525050565b6000602082019050610f4f6000830184610f2b565b92915050565b6000604051905090565b600080fd5b600080fd5b610f7281610ec5565b8114610f7d57600080fd5b50565b600081359050610f8f81610f69565b92915050565b600060208284031215610fab57610faa610f5f565b5b6000610fb984828501610f80565b91505092915050565b600081519050919050565b600082825260208201905092915050565b60005b83811015610ffc578082015181840152602081019050610fe1565b8381111561100b576000848401525b50505050565b6000601f19601f8301169050919050565b600061102d82610fc2565b6110378185610fcd565b9350611047818560208601610fde565b61105081611011565b840191505092915050565b60008115159050919050565b6110708161105b565b82525050565b600060e0820190508181036000830152611090818a611022565b905081810360208301526110a48189611022565b905081810360408301526110b88188611022565b90506110c76060830187610ecf565b6110d46080830186610ecf565b6110e160a0830185610ecf565b6110ee60c0830184611067565b98975050505050505050565b600080fd5b600080fd5b7f4e487b7100000000000000000000000000000000000000000000000000000000600052604160045260246000fd5b61113c82611011565b810181811067ffffffffffffffff8211171561115b5761115a611104565b5b80604052505050565b600061116e610f55565b905061117a8282611133565b919050565b600067ffffffffffffffff82111561119a57611199611104565b5b6111a382611011565b9050602081019050919050565b82818337600083830152505050565b60006111d26111cd8461117f565b611164565b9050828152602081018484840111156111ee576111ed6110ff565b5b6111f98482856111b0565b509392505050565b600082601f830112611216576112156110fa565b5b81356112268482602086016111bf565b91505092915050565b600080600080600060a0868803121561124b5761124a610f5f565b5b600086013567ffffffffffffffff81111561126957611268610f64565b5b61127588828901611201565b955050602086013567ffffffffffffffff81111561129657611295610f64565b5b6112a288828901611201565b945050604086013567ffffffffffffffff8111156112c3576112c2610f64565b5b6112cf88828901611201565b93505060606112e088828901610f80565b92505060806112f188828901610f80565b9150509295509295909350565b61130781610f19565b811461131257600080fd5b50565b600081359050611324816112fe565b92915050565b6000602082840312156113405761133f610f5f565b5b600061134e84828501611315565b91505092915050565b600060408201905061136c6000830185610f2b565b6113796020830184610ecf565b9392505050565b60006020820190506113956000830184611067565b92915050565b60008060008060008060c087890312156113b8576113b7610f5f565b5b60006113c689828a01610f80565b965050602087013567ffffffffffffffff8111156113e7576113e6610f64565b5b6113f389828a01611201565b955050604087013567ffffffffffffffff81111561141457611413610f64565b5b61142089828a01611201565b945050606087013567ffffffffffffffff81111561144157611440610f64565b5b61144d89828a01611201565b935050608061145e89828a01610f80565b92505060a061146f89828a01610f80565b9150509295509295509295565b7f4e487b7100000000000000000000000000000000000000000000000000000000600052601160045260246000fd5b60006114b682610ec5565b91507fffffffffffffffffffffffffffffffffffffffffffffffffffffffffffffffff8214156114e9576114e861147c565b5b600182019050919050565b7f4e487b7100000000000000000000000000000000000000000000000000000000600052602260045260246000fd5b6000600282049050600182168061153b57607f821691505b6020821081141561154f5761154e6114f4565b5b50919050565b600061156082610ec5565b915060008214156115745761157361147c565b5b60018203905091905056fea2646970667358221220c6a43af08704503f23d49040f98d056899e238d5b20f3bea02c95f1f340d4cbb64736f6c634300080a0033","opcodes":"PUSH1 0x80 PUSH1 0x40 MSTORE CALLVALUE DUP1 ISZERO PUSH3 0x11 JUMPI PUSH1 0x0 DUP1 REVERT JUMPDEST POP PUSH1 0x40 MLOAD PUSH3 0x1714 CODESIZE SUB DUP1 PUSH3 0x1714 DUP4 CODECOPY DUP2 DUP2 ADD PUSH1 0x40 MSTORE DUP2 ADD SWAP1 PUSH3 0x37 SWAP2 SWAP1 PUSH3 0x11D JUMP JUMPDEST CALLER PUSH1 0x0 DUP1 PUSH2 0x100 EXP DUP2 SLOAD DUP2 PUSH20 0xFFFFFFFFFFFFFFFFFFFFFFFFFFFFFFFFFFFFFFFF MUL NOT AND SWAP1 DUP4 PUSH20 0xFFFFFFFFFFFFFFFFFFFFFFFFFFFFFFFFFFFFFFFF AND MUL OR SWAP1 SSTORE POP DUP1 PUSH1 0x2 DUP2 SWAP1 SSTORE POP PUSH1 0x1 PUSH1 0x5 PUSH1 0x0 CALLER PUSH20 0xFFFFFFFFFFFFFFFFFFFFFFFFFFFFFFFFFFFFFFFF AND PUSH20 0xFFFFFFFFFFFFFFFFFFFFFFFFFFFFFFFFFFFFFFFF AND DUP2 MSTORE PUSH1 0x20 ADD SWAP1 DUP2 MSTORE PUSH1 0x20 ADD PUSH1 0x0 KECCAK256 PUSH1 0x0 PUSH2 0x100 EXP DUP2 SLOAD DUP2 PUSH1 0xFF MUL NOT AND SWAP1 DUP4 ISZERO ISZERO MUL OR SWAP1 SSTORE POP POP PUSH3 0x14F JUMP JUMPDEST PUSH1 0x0 DUP1 REVERT JUMPDEST PUSH1 0x0 DUP2 SWAP1 POP SWAP2 SWAP1 POP JUMP JUMPDEST PUSH3 0xF7 DUP2 PUSH3 0xE2 JUMP JUMPDEST DUP2 EQ PUSH3 0x103 JUMPI PUSH1 0x0 DUP1 REVERT JUMPDEST POP JUMP JUMPDEST PUSH1 0x0 DUP2 MLOAD SWAP1 POP PUSH3 0x117 DUP2 PUSH3 0xEC JUMP JUMPDEST SWAP3 SWAP2 POP POP JUMP JUMPDEST PUSH1 0x0 PUSH1 0x20 DUP3 DUP5 SUB SLT ISZERO PUSH3 0x136 JUMPI PUSH3 0x135 PUSH3 0xDD JUMP JUMPDEST JUMPDEST PUSH1 0x0 PUSH3 0x146 DUP5 DUP3 DUP6 ADD PUSH3 0x106 JUMP JUMPDEST SWAP2 POP POP SWAP3 SWAP2 POP POP JUMP JUMPDEST PUSH2 0x15B5 DUP1 PUSH3 0x15F PUSH1 0x0 CODECOPY PUSH1 0x0 RETURN INVALID PUSH1 0x80 PUSH1 0x40 MSTORE CALLVALUE DUP1 ISZERO PUSH2 0x10 JUMPI PUSH1 0x0 DUP1 REVERT JUMPDEST POP PUSH1 0x4 CALLDATASIZE LT PUSH2 0xCF JUMPI PUSH1 0x0 CALLDATALOAD PUSH1 0xE0 SHR DUP1 PUSH4 0x7E490A9E GT PUSH2 0x8C JUMPI DUP1 PUSH4 0xCA5140C9 GT PUSH2 0x66 JUMPI DUP1 PUSH4 0xCA5140C9 EQ PUSH2 0x1F5 JUMPI DUP1 PUSH4 0xE9617927 EQ PUSH2 0x211 JUMPI DUP1 PUSH4 0xEBF98C27 EQ PUSH2 0x241 JUMPI DUP1 PUSH4 0xFE69494B EQ PUSH2 0x25D JUMPI PUSH2 0xCF JUMP JUMPDEST DUP1 PUSH4 0x7E490A9E EQ PUSH2 0x18A JUMPI DUP1 PUSH4 0x90272DFF EQ PUSH2 0x1A6 JUMPI DUP1 PUSH4 0xA87430BA EQ PUSH2 0x1C4 JUMPI PUSH2 0xCF JUMP JUMPDEST DUP1 PUSH4 0x1AA3A008 EQ PUSH2 0xD4 JUMPI DUP1 PUSH4 0x250CACCC EQ PUSH2 0xDE JUMPI DUP1 PUSH4 0x481C6A75 EQ PUSH2 0xFC JUMPI DUP1 PUSH4 0x68744046 EQ PUSH2 0x11A JUMPI DUP1 PUSH4 0x6FAFA08A EQ PUSH2 0x150 JUMPI DUP1 PUSH4 0x7D2CD4BF EQ PUSH2 0x16E JUMPI JUMPDEST PUSH1 0x0 DUP1 REVERT JUMPDEST PUSH2 0xDC PUSH2 0x279 JUMP JUMPDEST STOP JUMPDEST PUSH2 0xE6 PUSH2 0x3D3 JUMP JUMPDEST PUSH1 0x40 MLOAD PUSH2 0xF3 SWAP2 SWAP1 PUSH2 0xEDE JUMP JUMPDEST PUSH1 0x40 MLOAD DUP1 SWAP2 SUB SWAP1 RETURN JUMPDEST PUSH2 0x104 PUSH2 0x3D9 JUMP JUMPDEST PUSH1 0x40 MLOAD PUSH2 0x111 SWAP2 SWAP1 PUSH2 0xF3A JUMP JUMPDEST PUSH1 0x40 MLOAD DUP1 SWAP2 SUB SWAP1 RETURN JUMPDEST PUSH2 0x134 PUSH1 0x4 DUP1 CALLDATASIZE SUB DUP2 ADD SWAP1 PUSH2 0x12F SWAP2 SWAP1 PUSH2 0xF95 JUMP JUMPDEST PUSH2 0x3FD JUMP JUMPDEST PUSH1 0x40 MLOAD PUSH2 0x147 SWAP8 SWAP7 SWAP6 SWAP5 SWAP4 SWAP3 SWAP2 SWAP1 PUSH2 0x1076 JUMP JUMPDEST PUSH1 0x40 MLOAD DUP1 SWAP2 SUB SWAP1 RETURN JUMPDEST PUSH2 0x158 PUSH2 0x5E4 JUMP JUMPDEST PUSH1 0x40 MLOAD PUSH2 0x165 SWAP2 SWAP1 PUSH2 0xEDE JUMP JUMPDEST PUSH1 0x40 MLOAD DUP1 SWAP2 SUB SWAP1 RETURN JUMPDEST PUSH2 0x188 PUSH1 0x4 DUP1 CALLDATASIZE SUB DUP2 ADD SWAP1 PUSH2 0x183 SWAP2 SWAP1 PUSH2 0x122F JUMP JUMPDEST PUSH2 0x5EA JUMP JUMPDEST STOP JUMPDEST PUSH2 0x1A4 PUSH1 0x4 DUP1 CALLDATASIZE SUB DUP2 ADD SWAP1 PUSH2 0x19F SWAP2 SWAP1 PUSH2 0xF95 JUMP JUMPDEST PUSH2 0x6FB JUMP JUMPDEST STOP JUMPDEST PUSH2 0x1AE PUSH2 0x9C5 JUMP JUMPDEST PUSH1 0x40 MLOAD PUSH2 0x1BB SWAP2 SWAP1 PUSH2 0xEDE JUMP JUMPDEST PUSH1 0x40 MLOAD DUP1 SWAP2 SUB SWAP1 RETURN JUMPDEST PUSH2 0x1DE PUSH1 0x4 DUP1 CALLDATASIZE SUB DUP2 ADD SWAP1 PUSH2 0x1D9 SWAP2 SWAP1 PUSH2 0x132A JUMP JUMPDEST PUSH2 0x9CB JUMP JUMPDEST PUSH1 0x40 MLOAD PUSH2 0x1EC SWAP3 SWAP2 SWAP1 PUSH2 0x1357 JUMP JUMPDEST PUSH1 0x40 MLOAD DUP1 SWAP2 SUB SWAP1 RETURN JUMPDEST PUSH2 0x20F PUSH1 0x4 DUP1 CALLDATASIZE SUB DUP2 ADD SWAP1 PUSH2 0x20A SWAP2 SWAP1 PUSH2 0xF95 JUMP JUMPDEST PUSH2 0xA0F JUMP JUMPDEST STOP JUMPDEST PUSH2 0x22B PUSH1 0x4 DUP1 CALLDATASIZE SUB DUP2 ADD SWAP1 PUSH2 0x226 SWAP2 SWAP1 PUSH2 0x132A JUMP JUMPDEST PUSH2 0xC2F JUMP JUMPDEST PUSH1 0x40 MLOAD PUSH2 0x238 SWAP2 SWAP1 PUSH2 0x1380 JUMP JUMPDEST PUSH1 0x40 MLOAD DUP1 SWAP2 SUB SWAP1 RETURN JUMPDEST PUSH2 0x25B PUSH1 0x4 DUP1 CALLDATASIZE SUB DUP2 ADD SWAP1 PUSH2 0x256 SWAP2 SWAP1 PUSH2 0x139B JUMP JUMPDEST PUSH2 0xC4F JUMP JUMPDEST STOP JUMPDEST PUSH2 0x277 PUSH1 0x4 DUP1 CALLDATASIZE SUB DUP2 ADD SWAP1 PUSH2 0x272 SWAP2 SWAP1 PUSH2 0x132A JUMP JUMPDEST PUSH2 0xD6F JUMP JUMPDEST STOP JUMPDEST PUSH1 0x4 PUSH1 0x0 CALLER PUSH20 0xFFFFFFFFFFFFFFFFFFFFFFFFFFFFFFFFFFFFFFFF AND PUSH20 0xFFFFFFFFFFFFFFFFFFFFFFFFFFFFFFFFFFFFFFFF AND DUP2 MSTORE PUSH1 0x20 ADD SWAP1 DUP2 MSTORE PUSH1 0x20 ADD PUSH1 0x0 KECCAK256 PUSH1 0x0 SWAP1 SLOAD SWAP1 PUSH2 0x100 EXP SWAP1 DIV PUSH1 0xFF AND ISZERO PUSH2 0x2D0 JUMPI PUSH1 0x0 DUP1 REVERT JUMPDEST PUSH1 0x1 PUSH1 0x4 PUSH1 0x0 CALLER PUSH20 0xFFFFFFFFFFFFFFFFFFFFFFFFFFFFFFFFFFFFFFFF AND PUSH20 0xFFFFFFFFFFFFFFFFFFFFFFFFFFFFFFFFFFFFFFFF AND DUP2 MSTORE PUSH1 0x20 ADD SWAP1 DUP2 MSTORE PUSH1 0x20 ADD PUSH1 0x0 KECCAK256 PUSH1 0x0 PUSH2 0x100 EXP DUP2 SLOAD DUP2 PUSH1 0xFF MUL NOT AND SWAP1 DUP4 ISZERO ISZERO MUL OR SWAP1 SSTORE POP PUSH1 0x0 PUSH1 0x3 PUSH1 0x0 CALLER PUSH20 0xFFFFFFFFFFFFFFFFFFFFFFFFFFFFFFFFFFFFFFFF AND PUSH20 0xFFFFFFFFFFFFFFFFFFFFFFFFFFFFFFFFFFFFFFFF AND DUP2 MSTORE PUSH1 0x20 ADD SWAP1 DUP2 MSTORE PUSH1 0x20 ADD PUSH1 0x0 KECCAK256 SWAP1 POP CALLER DUP2 PUSH1 0x0 ADD PUSH1 0x0 PUSH2 0x100 EXP DUP2 SLOAD DUP2 PUSH20 0xFFFFFFFFFFFFFFFFFFFFFFFFFFFFFFFFFFFFFFFF MUL NOT AND SWAP1 DUP4 PUSH20 0xFFFFFFFFFFFFFFFFFFFFFFFFFFFFFFFFFFFFFFFF AND MUL OR SWAP1 SSTORE POP PUSH1 0x0 DUP2 PUSH1 0x1 ADD DUP2 SWAP1 SSTORE POP PUSH1 0x1 PUSH1 0x0 DUP2 SLOAD DUP1 SWAP3 SWAP2 SWAP1 PUSH2 0x3CB SWAP1 PUSH2 0x14AB JUMP JUMPDEST SWAP2 SWAP1 POP SSTORE POP POP JUMP JUMPDEST PUSH1 0x6 SLOAD DUP2 JUMP JUMPDEST PUSH1 0x0 DUP1 SLOAD SWAP1 PUSH2 0x100 EXP SWAP1 DIV PUSH20 0xFFFFFFFFFFFFFFFFFFFFFFFFFFFFFFFFFFFFFFFF AND DUP2 JUMP JUMPDEST PUSH1 0x7 PUSH1 0x20 MSTORE DUP1 PUSH1 0x0 MSTORE PUSH1 0x40 PUSH1 0x0 KECCAK256 PUSH1 0x0 SWAP2 POP SWAP1 POP DUP1 PUSH1 0x0 ADD DUP1 SLOAD PUSH2 0x420 SWAP1 PUSH2 0x1523 JUMP JUMPDEST DUP1 PUSH1 0x1F ADD PUSH1 0x20 DUP1 SWAP2 DIV MUL PUSH1 0x20 ADD PUSH1 0x40 MLOAD SWAP1 DUP2 ADD PUSH1 0x40 MSTORE DUP1 SWAP3 SWAP2 SWAP1 DUP2 DUP2 MSTORE PUSH1 0x20 ADD DUP3 DUP1 SLOAD PUSH2 0x44C SWAP1 PUSH2 0x1523 JUMP JUMPDEST DUP1 ISZERO PUSH2 0x499 JUMPI DUP1 PUSH1 0x1F LT PUSH2 0x46E JUMPI PUSH2 0x100 DUP1 DUP4 SLOAD DIV MUL DUP4 MSTORE SWAP2 PUSH1 0x20 ADD SWAP2 PUSH2 0x499 JUMP JUMPDEST DUP3 ADD SWAP2 SWAP1 PUSH1 0x0 MSTORE PUSH1 0x20 PUSH1 0x0 KECCAK256 SWAP1 JUMPDEST DUP2 SLOAD DUP2 MSTORE SWAP1 PUSH1 0x1 ADD SWAP1 PUSH1 0x20 ADD DUP1 DUP4 GT PUSH2 0x47C JUMPI DUP3 SWAP1 SUB PUSH1 0x1F AND DUP3 ADD SWAP2 JUMPDEST POP POP POP POP POP SWAP1 DUP1 PUSH1 0x1 ADD DUP1 SLOAD PUSH2 0x4AE SWAP1 PUSH2 0x1523 JUMP JUMPDEST DUP1 PUSH1 0x1F ADD PUSH1 0x20 DUP1 SWAP2 DIV MUL PUSH1 0x20 ADD PUSH1 0x40 MLOAD SWAP1 DUP2 ADD PUSH1 0x40 MSTORE DUP1 SWAP3 SWAP2 SWAP1 DUP2 DUP2 MSTORE PUSH1 0x20 ADD DUP3 DUP1 SLOAD PUSH2 0x4DA SWAP1 PUSH2 0x1523 JUMP JUMPDEST DUP1 ISZERO PUSH2 0x527 JUMPI DUP1 PUSH1 0x1F LT PUSH2 0x4FC JUMPI PUSH2 0x100 DUP1 DUP4 SLOAD DIV MUL DUP4 MSTORE SWAP2 PUSH1 0x20 ADD SWAP2 PUSH2 0x527 JUMP JUMPDEST DUP3 ADD SWAP2 SWAP1 PUSH1 0x0 MSTORE PUSH1 0x20 PUSH1 0x0 KECCAK256 SWAP1 JUMPDEST DUP2 SLOAD DUP2 MSTORE SWAP1 PUSH1 0x1 ADD SWAP1 PUSH1 0x20 ADD DUP1 DUP4 GT PUSH2 0x50A JUMPI DUP3 SWAP1 SUB PUSH1 0x1F AND DUP3 ADD SWAP2 JUMPDEST POP POP POP POP POP SWAP1 DUP1 PUSH1 0x2 ADD DUP1 SLOAD PUSH2 0x53C SWAP1 PUSH2 0x1523 JUMP JUMPDEST DUP1 PUSH1 0x1F ADD PUSH1 0x20 DUP1 SWAP2 DIV MUL PUSH1 0x20 ADD PUSH1 0x40 MLOAD SWAP1 DUP2 ADD PUSH1 0x40 MSTORE DUP1 SWAP3 SWAP2 SWAP1 DUP2 DUP2 MSTORE PUSH1 0x20 ADD DUP3 DUP1 SLOAD PUSH2 0x568 SWAP1 PUSH2 0x1523 JUMP JUMPDEST DUP1 ISZERO PUSH2 0x5B5 JUMPI DUP1 PUSH1 0x1F LT PUSH2 0x58A JUMPI PUSH2 0x100 DUP1 DUP4 SLOAD DIV MUL DUP4 MSTORE SWAP2 PUSH1 0x20 ADD SWAP2 PUSH2 0x5B5 JUMP JUMPDEST DUP3 ADD SWAP2 SWAP1 PUSH1 0x0 MSTORE PUSH1 0x20 PUSH1 0x0 KECCAK256 SWAP1 JUMPDEST DUP2 SLOAD DUP2 MSTORE SWAP1 PUSH1 0x1 ADD SWAP1 PUSH1 0x20 ADD DUP1 DUP4 GT PUSH2 0x598 JUMPI DUP3 SWAP1 SUB PUSH1 0x1F AND DUP3 ADD SWAP2 JUMPDEST POP POP POP POP POP SWAP1 DUP1 PUSH1 0x3 ADD SLOAD SWAP1 DUP1 PUSH1 0x4 ADD SLOAD SWAP1 DUP1 PUSH1 0x5 ADD SLOAD SWAP1 DUP1 PUSH1 0x6 ADD PUSH1 0x0 SWAP1 SLOAD SWAP1 PUSH2 0x100 EXP SWAP1 DIV PUSH1 0xFF AND SWAP1 POP DUP8 JUMP JUMPDEST PUSH1 0x1 SLOAD DUP2 JUMP JUMPDEST PUSH1 0x0 DUP1 SLOAD SWAP1 PUSH2 0x100 EXP SWAP1 DIV PUSH20 0xFFFFFFFFFFFFFFFFFFFFFFFFFFFFFFFFFFFFFFFF AND PUSH20 0xFFFFFFFFFFFFFFFFFFFFFFFFFFFFFFFFFFFFFFFF AND CALLER PUSH20 0xFFFFFFFFFFFFFFFFFFFFFFFFFFFFFFFFFFFFFFFF AND EQ PUSH2 0x642 JUMPI PUSH1 0x0 DUP1 REVERT JUMPDEST PUSH1 0x0 PUSH1 0x7 PUSH1 0x0 PUSH1 0x6 PUSH1 0x0 DUP2 SLOAD DUP1 SWAP3 SWAP2 SWAP1 PUSH2 0x65B SWAP1 PUSH2 0x14AB JUMP JUMPDEST SWAP2 SWAP1 POP SSTORE DUP2 MSTORE PUSH1 0x20 ADD SWAP1 DUP2 MSTORE PUSH1 0x20 ADD PUSH1 0x0 KECCAK256 SWAP1 POP DUP6 DUP2 PUSH1 0x0 ADD SWAP1 DUP1 MLOAD SWAP1 PUSH1 0x20 ADD SWAP1 PUSH2 0x687 SWAP3 SWAP2 SWAP1 PUSH2 0xE22 JUMP JUMPDEST POP DUP5 DUP2 PUSH1 0x1 ADD SWAP1 DUP1 MLOAD SWAP1 PUSH1 0x20 ADD SWAP1 PUSH2 0x6A0 SWAP3 SWAP2 SWAP1 PUSH2 0xE22 JUMP JUMPDEST POP DUP4 DUP2 PUSH1 0x2 ADD SWAP1 DUP1 MLOAD SWAP1 PUSH1 0x20 ADD SWAP1 PUSH2 0x6B9 SWAP3 SWAP2 SWAP1 PUSH2 0xE22 JUMP JUMPDEST POP DUP3 DUP2 PUSH1 0x3 ADD DUP2 SWAP1 SSTORE POP DUP2 DUP2 PUSH1 0x4 ADD DUP2 SWAP1 SSTORE POP PUSH1 0x0 DUP2 PUSH1 0x5 ADD DUP2 SWAP1 SSTORE POP PUSH1 0x0 DUP2 PUSH1 0x6 ADD PUSH1 0x0 PUSH2 0x100 EXP DUP2 SLOAD DUP2 PUSH1 0xFF MUL NOT AND SWAP1 DUP4 ISZERO ISZERO MUL OR SWAP1 SSTORE POP POP POP POP POP POP POP JUMP JUMPDEST PUSH1 0x4 PUSH1 0x0 CALLER PUSH20 0xFFFFFFFFFFFFFFFFFFFFFFFFFFFFFFFFFFFFFFFF AND PUSH20 0xFFFFFFFFFFFFFFFFFFFFFFFFFFFFFFFFFFFFFFFF AND DUP2 MSTORE PUSH1 0x20 ADD SWAP1 DUP2 MSTORE PUSH1 0x20 ADD PUSH1 0x0 KECCAK256 PUSH1 0x0 SWAP1 SLOAD SWAP1 PUSH2 0x100 EXP SWAP1 DIV PUSH1 0xFF AND PUSH2 0x751 JUMPI PUSH1 0x0 DUP1 REVERT JUMPDEST PUSH1 0x0 PUSH1 0x7 PUSH1 0x0 DUP4 DUP2 MSTORE PUSH1 0x20 ADD SWAP1 DUP2 MSTORE PUSH1 0x20 ADD PUSH1 0x0 KECCAK256 SWAP1 POP DUP1 PUSH1 0x4 ADD SLOAD DUP2 PUSH1 0x5 ADD SLOAD LT PUSH2 0x77C JUMPI PUSH1 0x0 DUP1 REVERT JUMPDEST DUP1 PUSH1 0x6 ADD PUSH1 0x0 SWAP1 SLOAD SWAP1 PUSH2 0x100 EXP SWAP1 DIV PUSH1 0xFF AND ISZERO PUSH2 0x798 JUMPI PUSH1 0x0 DUP1 REVERT JUMPDEST DUP1 PUSH1 0x7 ADD PUSH1 0x0 CALLER PUSH20 0xFFFFFFFFFFFFFFFFFFFFFFFFFFFFFFFFFFFFFFFF AND PUSH20 0xFFFFFFFFFFFFFFFFFFFFFFFFFFFFFFFFFFFFFFFF AND DUP2 MSTORE PUSH1 0x20 ADD SWAP1 DUP2 MSTORE PUSH1 0x20 ADD PUSH1 0x0 KECCAK256 PUSH1 0x0 SWAP1 SLOAD SWAP1 PUSH2 0x100 EXP SWAP1 DIV PUSH1 0xFF AND ISZERO PUSH2 0x7F1 JUMPI PUSH1 0x0 DUP1 REVERT JUMPDEST DUP1 PUSH1 0x5 ADD PUSH1 0x0 DUP2 SLOAD DUP1 SWAP3 SWAP2 SWAP1 PUSH2 0x806 SWAP1 PUSH2 0x14AB JUMP JUMPDEST SWAP2 SWAP1 POP SSTORE POP DUP1 PUSH1 0x4 ADD SLOAD DUP2 PUSH1 0x5 ADD SLOAD EQ ISZERO PUSH2 0x839 JUMPI PUSH1 0x1 DUP2 PUSH1 0x6 ADD PUSH1 0x0 PUSH2 0x100 EXP DUP2 SLOAD DUP2 PUSH1 0xFF MUL NOT AND SWAP1 DUP4 ISZERO ISZERO MUL OR SWAP1 SSTORE POP JUMPDEST DUP1 PUSH1 0x8 ADD CALLER SWAP1 DUP1 PUSH1 0x1 DUP2 SLOAD ADD DUP1 DUP3 SSTORE DUP1 SWAP2 POP POP PUSH1 0x1 SWAP1 SUB SWAP1 PUSH1 0x0 MSTORE PUSH1 0x20 PUSH1 0x0 KECCAK256 ADD PUSH1 0x0 SWAP1 SWAP2 SWAP1 SWAP2 SWAP1 SWAP2 PUSH2 0x100 EXP DUP2 SLOAD DUP2 PUSH20 0xFFFFFFFFFFFFFFFFFFFFFFFFFFFFFFFFFFFFFFFF MUL NOT AND SWAP1 DUP4 PUSH20 0xFFFFFFFFFFFFFFFFFFFFFFFFFFFFFFFFFFFFFFFF AND MUL OR SWAP1 SSTORE POP PUSH1 0x1 DUP2 PUSH1 0x7 ADD PUSH1 0x0 CALLER PUSH20 0xFFFFFFFFFFFFFFFFFFFFFFFFFFFFFFFFFFFFFFFF AND PUSH20 0xFFFFFFFFFFFFFFFFFFFFFFFFFFFFFFFFFFFFFFFF AND DUP2 MSTORE PUSH1 0x20 ADD SWAP1 DUP2 MSTORE PUSH1 0x20 ADD PUSH1 0x0 KECCAK256 PUSH1 0x0 PUSH2 0x100 EXP DUP2 SLOAD DUP2 PUSH1 0xFF MUL NOT AND SWAP1 DUP4 ISZERO ISZERO MUL OR SWAP1 SSTORE POP PUSH1 0x0 PUSH1 0x3 PUSH1 0x0 CALLER PUSH20 0xFFFFFFFFFFFFFFFFFFFFFFFFFFFFFFFFFFFFFFFF AND PUSH20 0xFFFFFFFFFFFFFFFFFFFFFFFFFFFFFFFFFFFFFFFF AND DUP2 MSTORE PUSH1 0x20 ADD SWAP1 DUP2 MSTORE PUSH1 0x20 ADD PUSH1 0x0 KECCAK256 SWAP1 POP PUSH1 0x2 SLOAD DUP2 PUSH1 0x1 ADD SLOAD LT PUSH2 0x94D JUMPI PUSH1 0x0 DUP1 REVERT JUMPDEST DUP1 PUSH1 0x2 ADD DUP4 SWAP1 DUP1 PUSH1 0x1 DUP2 SLOAD ADD DUP1 DUP3 SSTORE DUP1 SWAP2 POP POP PUSH1 0x1 SWAP1 SUB SWAP1 PUSH1 0x0 MSTORE PUSH1 0x20 PUSH1 0x0 KECCAK256 ADD PUSH1 0x0 SWAP1 SWAP2 SWAP1 SWAP2 SWAP1 SWAP2 POP SSTORE PUSH1 0x1 DUP2 PUSH1 0x3 ADD PUSH1 0x0 DUP6 DUP2 MSTORE PUSH1 0x20 ADD SWAP1 DUP2 MSTORE PUSH1 0x20 ADD PUSH1 0x0 KECCAK256 PUSH1 0x0 PUSH2 0x100 EXP DUP2 SLOAD DUP2 PUSH1 0xFF MUL NOT AND SWAP1 DUP4 ISZERO ISZERO MUL OR SWAP1 SSTORE POP DUP1 PUSH1 0x1 ADD PUSH1 0x0 DUP2 SLOAD DUP1 SWAP3 SWAP2 SWAP1 PUSH2 0x9BB SWAP1 PUSH2 0x14AB JUMP JUMPDEST SWAP2 SWAP1 POP SSTORE POP POP POP POP JUMP JUMPDEST PUSH1 0x2 SLOAD DUP2 JUMP JUMPDEST PUSH1 0x3 PUSH1 0x20 MSTORE DUP1 PUSH1 0x0 MSTORE PUSH1 0x40 PUSH1 0x0 KECCAK256 PUSH1 0x0 SWAP2 POP SWAP1 POP DUP1 PUSH1 0x0 ADD PUSH1 0x0 SWAP1 SLOAD SWAP1 PUSH2 0x100 EXP SWAP1 DIV PUSH20 0xFFFFFFFFFFFFFFFFFFFFFFFFFFFFFFFFFFFFFFFF AND SWAP1 DUP1 PUSH1 0x1 ADD SLOAD SWAP1 POP DUP3 JUMP JUMPDEST PUSH1 0x6 SLOAD DUP2 LT PUSH2 0xA1D JUMPI PUSH1 0x0 DUP1 REVERT JUMPDEST PUSH1 0x4 PUSH1 0x0 CALLER PUSH20 0xFFFFFFFFFFFFFFFFFFFFFFFFFFFFFFFFFFFFFFFF AND PUSH20 0xFFFFFFFFFFFFFFFFFFFFFFFFFFFFFFFFFFFFFFFF AND DUP2 MSTORE PUSH1 0x20 ADD SWAP1 DUP2 MSTORE PUSH1 0x20 ADD PUSH1 0x0 KECCAK256 PUSH1 0x0 SWAP1 SLOAD SWAP1 PUSH2 0x100 EXP SWAP1 DIV PUSH1 0xFF AND PUSH2 0xA73 JUMPI PUSH1 0x0 DUP1 REVERT JUMPDEST PUSH1 0x0 PUSH1 0x7 PUSH1 0x0 DUP4 DUP2 MSTORE PUSH1 0x20 ADD SWAP1 DUP2 MSTORE PUSH1 0x20 ADD PUSH1 0x0 KECCAK256 SWAP1 POP PUSH1 0x0 PUSH1 0x3 PUSH1 0x0 CALLER PUSH20 0xFFFFFFFFFFFFFFFFFFFFFFFFFFFFFFFFFFFFFFFF AND PUSH20 0xFFFFFFFFFFFFFFFFFFFFFFFFFFFFFFFFFFFFFFFF AND DUP2 MSTORE PUSH1 0x20 ADD SWAP1 DUP2 MSTORE PUSH1 0x20 ADD PUSH1 0x0 KECCAK256 SWAP1 POP DUP2 PUSH1 0x7 ADD PUSH1 0x0 CALLER PUSH20 0xFFFFFFFFFFFFFFFFFFFFFFFFFFFFFFFFFFFFFFFF AND PUSH20 0xFFFFFFFFFFFFFFFFFFFFFFFFFFFFFFFFFFFFFFFF AND DUP2 MSTORE PUSH1 0x20 ADD SWAP1 DUP2 MSTORE PUSH1 0x20 ADD PUSH1 0x0 KECCAK256 PUSH1 0x0 SWAP1 SLOAD SWAP1 PUSH2 0x100 EXP SWAP1 DIV PUSH1 0xFF AND PUSH2 0xB25 JUMPI PUSH1 0x0 DUP1 REVERT JUMPDEST DUP1 PUSH1 0x3 ADD PUSH1 0x0 DUP5 DUP2 MSTORE PUSH1 0x20 ADD SWAP1 DUP2 MSTORE PUSH1 0x20 ADD PUSH1 0x0 KECCAK256 PUSH1 0x0 SWAP1 SLOAD SWAP1 PUSH2 0x100 EXP SWAP1 DIV PUSH1 0xFF AND PUSH2 0xB51 JUMPI PUSH1 0x0 DUP1 REVERT JUMPDEST PUSH1 0x0 DUP3 PUSH1 0x7 ADD PUSH1 0x0 CALLER PUSH20 0xFFFFFFFFFFFFFFFFFFFFFFFFFFFFFFFFFFFFFFFF AND PUSH20 0xFFFFFFFFFFFFFFFFFFFFFFFFFFFFFFFFFFFFFFFF AND DUP2 MSTORE PUSH1 0x20 ADD SWAP1 DUP2 MSTORE PUSH1 0x20 ADD PUSH1 0x0 KECCAK256 PUSH1 0x0 PUSH2 0x100 EXP DUP2 SLOAD DUP2 PUSH1 0xFF MUL NOT AND SWAP1 DUP4 ISZERO ISZERO MUL OR SWAP1 SSTORE POP DUP2 PUSH1 0x5 ADD PUSH1 0x0 DUP2 SLOAD DUP1 SWAP3 SWAP2 SWAP1 PUSH2 0xBC0 SWAP1 PUSH2 0x1555 JUMP JUMPDEST SWAP2 SWAP1 POP SSTORE POP PUSH1 0x0 DUP3 PUSH1 0x6 ADD PUSH1 0x0 PUSH2 0x100 EXP DUP2 SLOAD DUP2 PUSH1 0xFF MUL NOT AND SWAP1 DUP4 ISZERO ISZERO MUL OR SWAP1 SSTORE POP PUSH1 0x0 DUP2 PUSH1 0x3 ADD PUSH1 0x0 DUP6 DUP2 MSTORE PUSH1 0x20 ADD SWAP1 DUP2 MSTORE PUSH1 0x20 ADD PUSH1 0x0 KECCAK256 PUSH1 0x0 PUSH2 0x100 EXP DUP2 SLOAD DUP2 PUSH1 0xFF MUL NOT AND SWAP1 DUP4 ISZERO ISZERO MUL OR SWAP1 SSTORE POP DUP1 PUSH1 0x1 ADD PUSH1 0x0 DUP2 SLOAD DUP1 SWAP3 SWAP2 SWAP1 PUSH2 0xC25 SWAP1 PUSH2 0x1555 JUMP JUMPDEST SWAP2 SWAP1 POP SSTORE POP POP POP POP JUMP JUMPDEST PUSH1 0x4 PUSH1 0x20 MSTORE DUP1 PUSH1 0x0 MSTORE PUSH1 0x40 PUSH1 0x0 KECCAK256 PUSH1 0x0 SWAP2 POP SLOAD SWAP1 PUSH2 0x100 EXP SWAP1 DIV PUSH1 0xFF AND DUP2 JUMP JUMPDEST PUSH1 0x5 PUSH1 0x0 CALLER PUSH20 0xFFFFFFFFFFFFFFFFFFFFFFFFFFFFFFFFFFFFFFFF AND PUSH20 0xFFFFFFFFFFFFFFFFFFFFFFFFFFFFFFFFFFFFFFFF AND DUP2 MSTORE PUSH1 0x20 ADD SWAP1 DUP2 MSTORE PUSH1 0x20 ADD PUSH1 0x0 KECCAK256 PUSH1 0x0 SWAP1 SLOAD SWAP1 PUSH2 0x100 EXP SWAP1 DIV PUSH1 0xFF AND PUSH2 0xCA5 JUMPI PUSH1 0x0 DUP1 REVERT JUMPDEST PUSH1 0x6 SLOAD DUP7 LT PUSH2 0xCB3 JUMPI PUSH1 0x0 DUP1 REVERT JUMPDEST PUSH1 0x0 PUSH1 0x7 PUSH1 0x0 DUP9 DUP2 MSTORE PUSH1 0x20 ADD SWAP1 DUP2 MSTORE PUSH1 0x20 ADD PUSH1 0x0 KECCAK256 SWAP1 POP DUP2 DUP2 PUSH1 0x4 ADD SLOAD LT ISZERO PUSH2 0xCDB JUMPI PUSH1 0x0 DUP1 REVERT JUMPDEST DUP6 DUP2 PUSH1 0x0 ADD SWAP1 DUP1 MLOAD SWAP1 PUSH1 0x20 ADD SWAP1 PUSH2 0xCF3 SWAP3 SWAP2 SWAP1 PUSH2 0xE22 JUMP JUMPDEST POP DUP5 DUP2 PUSH1 0x1 ADD SWAP1 DUP1 MLOAD SWAP1 PUSH1 0x20 ADD SWAP1 PUSH2 0xD0C SWAP3 SWAP2 SWAP1 PUSH2 0xE22 JUMP JUMPDEST POP DUP4 DUP2 PUSH1 0x2 ADD SWAP1 DUP1 MLOAD SWAP1 PUSH1 0x20 ADD SWAP1 PUSH2 0xD25 SWAP3 SWAP2 SWAP1 PUSH2 0xE22 JUMP JUMPDEST POP DUP3 DUP2 PUSH1 0x3 ADD DUP2 SWAP1 SSTORE POP DUP2 DUP2 PUSH1 0x4 ADD DUP2 SWAP1 SSTORE POP DUP1 PUSH1 0x5 ADD SLOAD DUP2 PUSH1 0x4 ADD SLOAD EQ ISZERO PUSH2 0xD66 JUMPI PUSH1 0x1 DUP2 PUSH1 0x6 ADD PUSH1 0x0 PUSH2 0x100 EXP DUP2 SLOAD DUP2 PUSH1 0xFF MUL NOT AND SWAP1 DUP4 ISZERO ISZERO MUL OR SWAP1 SSTORE POP JUMPDEST POP POP POP POP POP POP POP JUMP JUMPDEST PUSH1 0x0 DUP1 SLOAD SWAP1 PUSH2 0x100 EXP SWAP1 DIV PUSH20 0xFFFFFFFFFFFFFFFFFFFFFFFFFFFFFFFFFFFFFFFF AND PUSH20 0xFFFFFFFFFFFFFFFFFFFFFFFFFFFFFFFFFFFFFFFF AND CALLER PUSH20 0xFFFFFFFFFFFFFFFFFFFFFFFFFFFFFFFFFFFFFFFF AND EQ PUSH2 0xDC7 JUMPI PUSH1 0x0 DUP1 REVERT JUMPDEST PUSH1 0x1 PUSH1 0x5 PUSH1 0x0 DUP4 PUSH20 0xFFFFFFFFFFFFFFFFFFFFFFFFFFFFFFFFFFFFFFFF AND PUSH20 0xFFFFFFFFFFFFFFFFFFFFFFFFFFFFFFFFFFFFFFFF AND DUP2 MSTORE PUSH1 0x20 ADD SWAP1 DUP2 MSTORE PUSH1 0x20 ADD PUSH1 0x0 KECCAK256 PUSH1 0x0 PUSH2 0x100 EXP DUP2 SLOAD DUP2 PUSH1 0xFF MUL NOT AND SWAP1 DUP4 ISZERO ISZERO MUL OR SWAP1 SSTORE POP POP JUMP JUMPDEST DUP3 DUP1 SLOAD PUSH2 0xE2E SWAP1 PUSH2 0x1523 JUMP JUMPDEST SWAP1 PUSH1 0x0 MSTORE PUSH1 0x20 PUSH1 0x0 KECCAK256 SWAP1 PUSH1 0x1F ADD PUSH1 0x20 SWAP1 DIV DUP2 ADD SWAP3 DUP3 PUSH2 0xE50 JUMPI PUSH1 0x0 DUP6 SSTORE PUSH2 0xE97 JUMP JUMPDEST DUP3 PUSH1 0x1F LT PUSH2 0xE69 JUMPI DUP1 MLOAD PUSH1 0xFF NOT AND DUP4 DUP1 ADD OR DUP6 SSTORE PUSH2 0xE97 JUMP JUMPDEST DUP3 DUP1 ADD PUSH1 0x1 ADD DUP6 SSTORE DUP3 ISZERO PUSH2 0xE97 JUMPI SWAP2 DUP3 ADD JUMPDEST DUP3 DUP2 GT ISZERO PUSH2 0xE96 JUMPI DUP3 MLOAD DUP3 SSTORE SWAP2 PUSH1 0x20 ADD SWAP2 SWAP1 PUSH1 0x1 ADD SWAP1 PUSH2 0xE7B JUMP JUMPDEST JUMPDEST POP SWAP1 POP PUSH2 0xEA4 SWAP2 SWAP1 PUSH2 0xEA8 JUMP JUMPDEST POP SWAP1 JUMP JUMPDEST JUMPDEST DUP1 DUP3 GT ISZERO PUSH2 0xEC1 JUMPI PUSH1 0x0 DUP2 PUSH1 0x0 SWAP1 SSTORE POP PUSH1 0x1 ADD PUSH2 0xEA9 JUMP JUMPDEST POP SWAP1 JUMP JUMPDEST PUSH1 0x0 DUP2 SWAP1 POP SWAP2 SWAP1 POP JUMP JUMPDEST PUSH2 0xED8 DUP2 PUSH2 0xEC5 JUMP JUMPDEST DUP3 MSTORE POP POP JUMP JUMPDEST PUSH1 0x0 PUSH1 0x20 DUP3 ADD SWAP1 POP PUSH2 0xEF3 PUSH1 0x0 DUP4 ADD DUP5 PUSH2 0xECF JUMP JUMPDEST SWAP3 SWAP2 POP POP JUMP JUMPDEST PUSH1 0x0 PUSH20 0xFFFFFFFFFFFFFFFFFFFFFFFFFFFFFFFFFFFFFFFF DUP3 AND SWAP1 POP SWAP2 SWAP1 POP JUMP JUMPDEST PUSH1 0x0 PUSH2 0xF24 DUP3 PUSH2 0xEF9 JUMP JUMPDEST SWAP1 POP SWAP2 SWAP1 POP JUMP JUMPDEST PUSH2 0xF34 DUP2 PUSH2 0xF19 JUMP JUMPDEST DUP3 MSTORE POP POP JUMP JUMPDEST PUSH1 0x0 PUSH1 0x20 DUP3 ADD SWAP1 POP PUSH2 0xF4F PUSH1 0x0 DUP4 ADD DUP5 PUSH2 0xF2B JUMP JUMPDEST SWAP3 SWAP2 POP POP JUMP JUMPDEST PUSH1 0x0 PUSH1 0x40 MLOAD SWAP1 POP SWAP1 JUMP JUMPDEST PUSH1 0x0 DUP1 REVERT JUMPDEST PUSH1 0x0 DUP1 REVERT JUMPDEST PUSH2 0xF72 DUP2 PUSH2 0xEC5 JUMP JUMPDEST DUP2 EQ PUSH2 0xF7D JUMPI PUSH1 0x0 DUP1 REVERT JUMPDEST POP JUMP JUMPDEST PUSH1 0x0 DUP2 CALLDATALOAD SWAP1 POP PUSH2 0xF8F DUP2 PUSH2 0xF69 JUMP JUMPDEST SWAP3 SWAP2 POP POP JUMP JUMPDEST PUSH1 0x0 PUSH1 0x20 DUP3 DUP5 SUB SLT ISZERO PUSH2 0xFAB JUMPI PUSH2 0xFAA PUSH2 0xF5F JUMP JUMPDEST JUMPDEST PUSH1 0x0 PUSH2 0xFB9 DUP5 DUP3 DUP6 ADD PUSH2 0xF80 JUMP JUMPDEST SWAP2 POP POP SWAP3 SWAP2 POP POP JUMP JUMPDEST PUSH1 0x0 DUP2 MLOAD SWAP1 POP SWAP2 SWAP1 POP JUMP JUMPDEST PUSH1 0x0 DUP3 DUP3 MSTORE PUSH1 0x20 DUP3 ADD SWAP1 POP SWAP3 SWAP2 POP POP JUMP JUMPDEST PUSH1 0x0 JUMPDEST DUP4 DUP2 LT ISZERO PUSH2 0xFFC JUMPI DUP1 DUP3 ADD MLOAD DUP2 DUP5 ADD MSTORE PUSH1 0x20 DUP2 ADD SWAP1 POP PUSH2 0xFE1 JUMP JUMPDEST DUP4 DUP2 GT ISZERO PUSH2 0x100B JUMPI PUSH1 0x0 DUP5 DUP5 ADD MSTORE JUMPDEST POP POP POP POP JUMP JUMPDEST PUSH1 0x0 PUSH1 0x1F NOT PUSH1 0x1F DUP4 ADD AND SWAP1 POP SWAP2 SWAP1 POP JUMP JUMPDEST PUSH1 0x0 PUSH2 0x102D DUP3 PUSH2 0xFC2 JUMP JUMPDEST PUSH2 0x1037 DUP2 DUP6 PUSH2 0xFCD JUMP JUMPDEST SWAP4 POP PUSH2 0x1047 DUP2 DUP6 PUSH1 0x20 DUP7 ADD PUSH2 0xFDE JUMP JUMPDEST PUSH2 0x1050 DUP2 PUSH2 0x1011 JUMP JUMPDEST DUP5 ADD SWAP2 POP POP SWAP3 SWAP2 POP POP JUMP JUMPDEST PUSH1 0x0 DUP2 ISZERO ISZERO SWAP1 POP SWAP2 SWAP1 POP JUMP JUMPDEST PUSH2 0x1070 DUP2 PUSH2 0x105B JUMP JUMPDEST DUP3 MSTORE POP POP JUMP JUMPDEST PUSH1 0x0 PUSH1 0xE0 DUP3 ADD SWAP1 POP DUP2 DUP2 SUB PUSH1 0x0 DUP4 ADD MSTORE PUSH2 0x1090 DUP2 DUP11 PUSH2 0x1022 JUMP JUMPDEST SWAP1 POP DUP2 DUP2 SUB PUSH1 0x20 DUP4 ADD MSTORE PUSH2 0x10A4 DUP2 DUP10 PUSH2 0x1022 JUMP JUMPDEST SWAP1 POP DUP2 DUP2 SUB PUSH1 0x40 DUP4 ADD MSTORE PUSH2 0x10B8 DUP2 DUP9 PUSH2 0x1022 JUMP JUMPDEST SWAP1 POP PUSH2 0x10C7 PUSH1 0x60 DUP4 ADD DUP8 PUSH2 0xECF JUMP JUMPDEST PUSH2 0x10D4 PUSH1 0x80 DUP4 ADD DUP7 PUSH2 0xECF JUMP JUMPDEST PUSH2 0x10E1 PUSH1 0xA0 DUP4 ADD DUP6 PUSH2 0xECF JUMP JUMPDEST PUSH2 0x10EE PUSH1 0xC0 DUP4 ADD DUP5 PUSH2 0x1067 JUMP JUMPDEST SWAP9 SWAP8 POP POP POP POP POP POP POP POP JUMP JUMPDEST PUSH1 0x0 DUP1 REVERT JUMPDEST PUSH1 0x0 DUP1 REVERT JUMPDEST PUSH32 0x4E487B7100000000000000000000000000000000000000000000000000000000 PUSH1 0x0 MSTORE PUSH1 0x41 PUSH1 0x4 MSTORE PUSH1 0x24 PUSH1 0x0 REVERT JUMPDEST PUSH2 0x113C DUP3 PUSH2 0x1011 JUMP JUMPDEST DUP2 ADD DUP2 DUP2 LT PUSH8 0xFFFFFFFFFFFFFFFF DUP3 GT OR ISZERO PUSH2 0x115B JUMPI PUSH2 0x115A PUSH2 0x1104 JUMP JUMPDEST JUMPDEST DUP1 PUSH1 0x40 MSTORE POP POP POP JUMP JUMPDEST PUSH1 0x0 PUSH2 0x116E PUSH2 0xF55 JUMP JUMPDEST SWAP1 POP PUSH2 0x117A DUP3 DUP3 PUSH2 0x1133 JUMP JUMPDEST SWAP2 SWAP1 POP JUMP JUMPDEST PUSH1 0x0 PUSH8 0xFFFFFFFFFFFFFFFF DUP3 GT ISZERO PUSH2 0x119A JUMPI PUSH2 0x1199 PUSH2 0x1104 JUMP JUMPDEST JUMPDEST PUSH2 0x11A3 DUP3 PUSH2 0x1011 JUMP JUMPDEST SWAP1 POP PUSH1 0x20 DUP2 ADD SWAP1 POP SWAP2 SWAP1 POP JUMP JUMPDEST DUP3 DUP2 DUP4 CALLDATACOPY PUSH1 0x0 DUP4 DUP4 ADD MSTORE POP POP POP JUMP JUMPDEST PUSH1 0x0 PUSH2 0x11D2 PUSH2 0x11CD DUP5 PUSH2 0x117F JUMP JUMPDEST PUSH2 0x1164 JUMP JUMPDEST SWAP1 POP DUP3 DUP2 MSTORE PUSH1 0x20 DUP2 ADD DUP5 DUP5 DUP5 ADD GT ISZERO PUSH2 0x11EE JUMPI PUSH2 0x11ED PUSH2 0x10FF JUMP JUMPDEST JUMPDEST PUSH2 0x11F9 DUP5 DUP3 DUP6 PUSH2 0x11B0 JUMP JUMPDEST POP SWAP4 SWAP3 POP POP POP JUMP JUMPDEST PUSH1 0x0 DUP3 PUSH1 0x1F DUP4 ADD SLT PUSH2 0x1216 JUMPI PUSH2 0x1215 PUSH2 0x10FA JUMP JUMPDEST JUMPDEST DUP2 CALLDATALOAD PUSH2 0x1226 DUP5 DUP3 PUSH1 0x20 DUP7 ADD PUSH2 0x11BF JUMP JUMPDEST SWAP2 POP POP SWAP3 SWAP2 POP POP JUMP JUMPDEST PUSH1 0x0 DUP1 PUSH1 0x0 DUP1 PUSH1 0x0 PUSH1 0xA0 DUP7 DUP9 SUB SLT ISZERO PUSH2 0x124B JUMPI PUSH2 0x124A PUSH2 0xF5F JUMP JUMPDEST JUMPDEST PUSH1 0x0 DUP7 ADD CALLDATALOAD PUSH8 0xFFFFFFFFFFFFFFFF DUP2 GT ISZERO PUSH2 0x1269 JUMPI PUSH2 0x1268 PUSH2 0xF64 JUMP JUMPDEST JUMPDEST PUSH2 0x1275 DUP9 DUP3 DUP10 ADD PUSH2 0x1201 JUMP JUMPDEST SWAP6 POP POP PUSH1 0x20 DUP7 ADD CALLDATALOAD PUSH8 0xFFFFFFFFFFFFFFFF DUP2 GT ISZERO PUSH2 0x1296 JUMPI PUSH2 0x1295 PUSH2 0xF64 JUMP JUMPDEST JUMPDEST PUSH2 0x12A2 DUP9 DUP3 DUP10 ADD PUSH2 0x1201 JUMP JUMPDEST SWAP5 POP POP PUSH1 0x40 DUP7 ADD CALLDATALOAD PUSH8 0xFFFFFFFFFFFFFFFF DUP2 GT ISZERO PUSH2 0x12C3 JUMPI PUSH2 0x12C2 PUSH2 0xF64 JUMP JUMPDEST JUMPDEST PUSH2 0x12CF DUP9 DUP3 DUP10 ADD PUSH2 0x1201 JUMP JUMPDEST SWAP4 POP POP PUSH1 0x60 PUSH2 0x12E0 DUP9 DUP3 DUP10 ADD PUSH2 0xF80 JUMP JUMPDEST SWAP3 POP POP PUSH1 0x80 PUSH2 0x12F1 DUP9 DUP3 DUP10 ADD PUSH2 0xF80 JUMP JUMPDEST SWAP2 POP POP SWAP3 SWAP6 POP SWAP3 SWAP6 SWAP1 SWAP4 POP JUMP JUMPDEST PUSH2 0x1307 DUP2 PUSH2 0xF19 JUMP JUMPDEST DUP2 EQ PUSH2 0x1312 JUMPI PUSH1 0x0 DUP1 REVERT JUMPDEST POP JUMP JUMPDEST PUSH1 0x0 DUP2 CALLDATALOAD SWAP1 POP PUSH2 0x1324 DUP2 PUSH2 0x12FE JUMP JUMPDEST SWAP3 SWAP2 POP POP JUMP JUMPDEST PUSH1 0x0 PUSH1 0x20 DUP3 DUP5 SUB SLT ISZERO PUSH2 0x1340 JUMPI PUSH2 0x133F PUSH2 0xF5F JUMP JUMPDEST JUMPDEST PUSH1 0x0 PUSH2 0x134E DUP5 DUP3 DUP6 ADD PUSH2 0x1315 JUMP JUMPDEST SWAP2 POP POP SWAP3 SWAP2 POP POP JUMP JUMPDEST PUSH1 0x0 PUSH1 0x40 DUP3 ADD SWAP1 POP PUSH2 0x136C PUSH1 0x0 DUP4 ADD DUP6 PUSH2 0xF2B JUMP JUMPDEST PUSH2 0x1379 PUSH1 0x20 DUP4 ADD DUP5 PUSH2 0xECF JUMP JUMPDEST SWAP4 SWAP3 POP POP POP JUMP JUMPDEST PUSH1 0x0 PUSH1 0x20 DUP3 ADD SWAP1 POP PUSH2 0x1395 PUSH1 0x0 DUP4 ADD DUP5 PUSH2 0x1067 JUMP JUMPDEST SWAP3 SWAP2 POP POP JUMP JUMPDEST PUSH1 0x0 DUP1 PUSH1 0x0 DUP1 PUSH1 0x0 DUP1 PUSH1 0xC0 DUP8 DUP10 SUB SLT ISZERO PUSH2 0x13B8 JUMPI PUSH2 0x13B7 PUSH2 0xF5F JUMP JUMPDEST JUMPDEST PUSH1 0x0 PUSH2 0x13C6 DUP10 DUP3 DUP11 ADD PUSH2 0xF80 JUMP JUMPDEST SWAP7 POP POP PUSH1 0x20 DUP8 ADD CALLDATALOAD PUSH8 0xFFFFFFFFFFFFFFFF DUP2 GT ISZERO PUSH2 0x13E7 JUMPI PUSH2 0x13E6 PUSH2 0xF64 JUMP JUMPDEST JUMPDEST PUSH2 0x13F3 DUP10 DUP3 DUP11 ADD PUSH2 0x1201 JUMP JUMPDEST SWAP6 POP POP PUSH1 0x40 DUP8 ADD CALLDATALOAD PUSH8 0xFFFFFFFFFFFFFFFF DUP2 GT ISZERO PUSH2 0x1414 JUMPI PUSH2 0x1413 PUSH2 0xF64 JUMP JUMPDEST JUMPDEST PUSH2 0x1420 DUP10 DUP3 DUP11 ADD PUSH2 0x1201 JUMP JUMPDEST SWAP5 POP POP PUSH1 0x60 DUP8 ADD CALLDATALOAD PUSH8 0xFFFFFFFFFFFFFFFF DUP2 GT ISZERO PUSH2 0x1441 JUMPI PUSH2 0x1440 PUSH2 0xF64 JUMP JUMPDEST JUMPDEST PUSH2 0x144D DUP10 DUP3 DUP11 ADD PUSH2 0x1201 JUMP JUMPDEST SWAP4 POP POP PUSH1 0x80 PUSH2 0x145E DUP10 DUP3 DUP11 ADD PUSH2 0xF80 JUMP JUMPDEST SWAP3 POP POP PUSH1 0xA0 PUSH2 0x146F DUP10 DUP3 DUP11 ADD PUSH2 0xF80 JUMP JUMPDEST SWAP2 POP POP SWAP3 SWAP6 POP SWAP3 SWAP6 POP SWAP3 SWAP6 JUMP JUMPDEST PUSH32 0x4E487B7100000000000000000000000000000000000000000000000000000000 PUSH1 0x0 MSTORE PUSH1 0x11 PUSH1 0x4 MSTORE PUSH1 0x24 PUSH1 0x0 REVERT JUMPDEST PUSH1 0x0 PUSH2 0x14B6 DUP3 PUSH2 0xEC5 JUMP JUMPDEST SWAP2 POP PUSH32 0xFFFFFFFFFFFFFFFFFFFFFFFFFFFFFFFFFFFFFFFFFFFFFFFFFFFFFFFFFFFFFFFF DUP3 EQ ISZERO PUSH2 0x14E9 JUMPI PUSH2 0x14E8 PUSH2 0x147C JUMP JUMPDEST JUMPDEST PUSH1 0x1 DUP3 ADD SWAP1 POP SWAP2 SWAP1 POP JUMP JUMPDEST PUSH32 0x4E487B7100000000000000000000000000000000000000000000000000000000 PUSH1 0x0 MSTORE PUSH1 0x22 PUSH1 0x4 MSTORE PUSH1 0x24 PUSH1 0x0 REVERT JUMPDEST PUSH1 0x0 PUSH1 0x2 DUP3 DIV SWAP1 POP PUSH1 0x1 DUP3 AND DUP1 PUSH2 0x153B JUMPI PUSH1 0x7F DUP3 AND SWAP2 POP JUMPDEST PUSH1 0x20 DUP3 LT DUP2 EQ ISZERO PUSH2 0x154F JUMPI PUSH2 0x154E PUSH2 0x14F4 JUMP JUMPDEST JUMPDEST POP SWAP2 SWAP1 POP JUMP JUMPDEST PUSH1 0x0 PUSH2 0x1560 DUP3 PUSH2 0xEC5 JUMP JUMPDEST SWAP2 POP PUSH1 0x0 DUP3 EQ ISZERO PUSH2 0x1574 JUMPI PUSH2 0x1573 PUSH2 0x147C JUMP JUMPDEST JUMPDEST PUSH1 0x1 DUP3 SUB SWAP1 POP SWAP2 SWAP1 POP JUMP INVALID LOG2 PUSH5 0x6970667358 0x22 SLT KECCAK256 0xC6 LOG4 GASPRICE CREATE DUP8 DIV POP EXTCODEHASH 0x23 0xD4 SWAP1 BLOCKHASH 0xF9 DUP14 SDIV PUSH9 0x99E238D5B20F3BEA02 0xC9 0x5F 0x1F CALLVALUE 0xD 0x4C 0xBB PUSH5 0x736F6C6343 STOP ADDMOD EXP STOP CALLER "},"gasEstimates":{"creation":{"codeDepositCost":"1111400","executionCost":"infinite","totalCost":"infinite"},"external":{"addBook(string,string,string,uint256,uint256)":"infinite","books(uint256)":"infinite","borrowBook(uint256)":"infinite","countUser()":"2518","inviteStaff(address)":"27067","manager()":"2556","maxBorrowing()":"2474","modifyInformation(uint256,string,string,string,uint256,uint256)":"infinite","numBooks()":"2452","register()":"80500","returnBook(uint256)":"infinite","users(address)":"infinite","validUser(address)":"2889"}},"methodIdentifiers":{"addBook(string,string,string,uint256,uint256)":"7d2cd4bf","books(uint256)":"68744046","borrowBook(uint256)":"7e490a9e","countUser()":"6fafa08a","inviteStaff(address)":"fe69494b","manager()":"481c6a75","maxBorrowing()":"90272dff","modifyInformation(uint256,string,string,string,uint256,uint256)":"ebf98c27","numBooks()":"250caccc","register()":"1aa3a008","returnBook(uint256)":"ca5140c9","users(address)":"a87430ba","validUser(address)":"e9617927"}},"storageLayout":{"storage":[{"astId":37,"contract":"Library.sol:Library","label":"manager","offset":0,"slot":"0","type":"t_address"},{"astId":39,"contract":"Library.sol:Library","label":"countUser","offset":0,"slot":"1","type":"t_uint256"},{"astId":41,"contract":"Library.sol:Library","label":"maxBorrowing","offset":0,"slot":"2","type":"t_uint256"},{"astId":46,"contract":"Library.sol:Library","label":"users","offset":0,"slot":"3","type":"t_mapping(t_address,t_struct(User)35_storage)"},{"astId":50,"contract":"Library.sol:Library","label":"validUser","offset":0,"slot":"4","type":"t_mapping(t_address,t_bool)"},{"astId":54,"contract":"Library.sol:Library","label":"staff","offset":0,"slot":"5","type":"t_mapping(t_address,t_bool)"},{"astId":56,"contract":"Library.sol:Library","label":"numBooks","offset":0,"slot":"6","type":"t_uint256"},{"astId":61,"contract":"Library.sol:Library","label":"books","offset":0,"slot":"7","type":"t_mapping(t_uint256,t_struct(Book)23_storage)"}],"types":{"t_address":{"encoding":"inplace","label":"address","numberOfBytes":"20"},"t_array(t_address)dyn_storage":{"base":"t_address","encoding":"dynamic_array","label":"address[]","numberOfBytes":"32"},"t_array(t_uint256)dyn_storage":{"base":"t_uint256","encoding":"dynamic_array","label":"uint256[]","numberOfBytes":"32"},"t_bool":{"encoding":"inplace","label":"bool","numberOfBytes":"1"},"t_mapping(t_address,t_bool)":{"encoding":"mapping","key":"t_address","label":"mapping(address => bool)","numberOfBytes":"32","value":"t_bool"},"t_mapping(t_address,t_struct(User)35_storage)":{"encoding":"mapping","key":"t_address","label":"mapping(address => struct Library.User)","numberOfBytes":"32","value":"t_struct(User)35_storage"},"t_mapping(t_uint256,t_bool)":{"encoding":"mapping","key":"t_uint256","label":"mapping(uint256 => bool)","numberOfBytes":"32","value":"t_bool"},"t_mapping(t_uint256,t_struct(Book)23_storage)":{"encoding":"mapping","key":"t_uint256","label":"mapping(uint256 => struct Library.Book)","numberOfBytes":"32","value":"t_struct(Book)23_storage"},"t_string_storage":{"encoding":"bytes","label":"string","numberOfBytes":"32"},"t_struct(Book)23_storage":{"encoding":"inplace","label":"struct Library.Book","members":[{"astId":3,"contract":"Library.sol:Library","label":"title","offset":0,"slot":"0","type":"t_string_storage"},{"astId":5,"contract":"Library.sol:Library","label":"id","offset":0,"slot":"1","type":"t_string_storage"},{"astId":7,"contract":"Library.sol:Library","label":"lendingPeriod","offset":0,"slot":"2","type":"t_string_storage"},{"astId":9,"contract":"Library.sol:Library","label":"price","offset":0,"slot":"3","type":"t_uint256"},{"astId":11,"contract":"Library.sol:Library","label":"stock","offset":0,"slot":"4","type":"t_uint256"},{"astId":13,"contract":"Library.sol:Library","label":"numBorrowed","offset":0,"slot":"5","type":"t_uint256"},{"astId":15,"contract":"Library.sol:Library","label":"isFullBorrowed","offset":0,"slot":"6","type":"t_bool"},{"astId":19,"contract":"Library.sol:Library","label":"borrowerTable","offset":0,"slot":"7","type":"t_mapping(t_address,t_bool)"},{"astId":22,"contract":"Library.sol:Library","label":"borrower","offset":0,"slot":"8","type":"t_array(t_address)dyn_storage"}],"numberOfBytes":"288"},"t_struct(User)35_storage":{"encoding":"inplace","label":"struct Library.User","members":[{"astId":25,"contract":"Library.sol:Library","label":"userAddress","offset":0,"slot":"0","type":"t_address"},{"astId":27,"contract":"Library.sol:Library","label":"numBorrow","offset":0,"slot":"1","type":"t_uint256"},{"astId":30,"contract":"Library.sol:Library","label":"borrowedBooks","offset":0,"slot":"2","type":"t_array(t_uint256)dyn_storage"},{"astId":34,"contract":"Library.sol:Library","label":"borrowTable","offset":0,"slot":"3","type":"t_mapping(t_uint256,t_bool)"}],"numberOfBytes":"128"},"t_uint256":{"encoding":"inplace","label":"uint256","numberOfBytes":"32"}}},"userdoc":{"kind":"user","methods":{},"version":1}}