{"abi":[{"inputs":[{"internalType":"uint256","name":"_maxBorrowing","type":"uint256"}],"name":"createLibrary","outputs":[],"stateMutability":"nonpayable","type":"function"},{"inputs":[{"internalType":"uint256","name":"","type":"uint256"}],"name":"deployedLibraries","outputs":[{"internalType":"address","name":"","type":"address"}],"stateMutability":"view","type":"function"},{"inputs":[],"name":"getDeployedLibraries","outputs":[{"internalType":"address[]","name":"","type":"address[]"}],"stateMutability":"view","type":"function"}],"devdoc":{"kind":"dev","methods":{},"version":1},"evm":{"assembly":"    /* \"Library.sol\":157:527  contract LibraryFactory {... */\n  mstore(0x40, 0x80)\n  callvalue\n  dup1\n  iszero\n  tag_1\n  jumpi\n  0x00\n  dup1\n  revert\ntag_1:\n  pop\n  dataSize(sub_0)\n  dup1\n  dataOffset(sub_0)\n  0x00\n  codecopy\n  0x00\n  return\nstop\n\nsub_0: assembly {\n        /* \"Library.sol\":157:527  contract LibraryFactory {... */\n      mstore(0x40, 0x80)\n      callvalue\n      dup1\n      iszero\n      tag_1\n      jumpi\n      0x00\n      dup1\n      revert\n    tag_1:\n      pop\n      jumpi(tag_2, lt(calldatasize, 0x04))\n      shr(0xe0, calldataload(0x00))\n      dup1\n      0x73b1be38\n      eq\n      tag_3\n      jumpi\n      dup1\n      0x98fe1356\n      eq\n      tag_4\n      jumpi\n      dup1\n      0xf4b2b9b0\n      eq\n      tag_5\n      jumpi\n    tag_2:\n      0x00\n      dup1\n      revert\n        /* \"Library.sol\":228:407  function createLibrary(uint _maxBorrowing) public {... */\n    tag_3:\n      tag_6\n      0x04\n      dup1\n      calldatasize\n      sub\n      dup2\n      add\n      swap1\n      tag_7\n      swap2\n      swap1\n      tag_8\n      jump\t// in\n    tag_7:\n      tag_9\n      jump\t// in\n    tag_6:\n      stop\n        /* \"Library.sol\":187:221  address[] public deployedLibraries */\n    tag_4:\n      tag_10\n      0x04\n      dup1\n      calldatasize\n      sub\n      dup2\n      add\n      swap1\n      tag_11\n      swap2\n      swap1\n      tag_8\n      jump\t// in\n    tag_11:\n      tag_12\n      jump\t// in\n    tag_10:\n      mload(0x40)\n      tag_13\n      swap2\n      swap1\n      tag_14\n      jump\t// in\n    tag_13:\n      mload(0x40)\n      dup1\n      swap2\n      sub\n      swap1\n      return\n        /* \"Library.sol\":413:525  function getDeployedLibraries() public view returns (address[] memory) {... */\n    tag_5:\n      tag_15\n      tag_16\n      jump\t// in\n    tag_15:\n      mload(0x40)\n      tag_17\n      swap2\n      swap1\n      tag_18\n      jump\t// in\n    tag_17:\n      mload(0x40)\n      dup1\n      swap2\n      sub\n      swap1\n      return\n        /* \"Library.sol\":228:407  function createLibrary(uint _maxBorrowing) public {... */\n    tag_9:\n        /* \"Library.sol\":288:306  Library newLibrary */\n      0x00\n        /* \"Library.sol\":321:334  _maxBorrowing */\n      dup2\n        /* \"Library.sol\":336:346  msg.sender */\n      caller\n        /* \"Library.sol\":309:347  new Library(_maxBorrowing, msg.sender) */\n      mload(0x40)\n      tag_20\n      swap1\n      tag_21\n      jump\t// in\n    tag_20:\n      tag_22\n      swap3\n      swap2\n      swap1\n      tag_23\n      jump\t// in\n    tag_22:\n      mload(0x40)\n      dup1\n      swap2\n      sub\n      swap1\n      0x00\n      create\n      dup1\n      iszero\n      dup1\n      iszero\n      tag_24\n      jumpi\n      returndatasize\n      0x00\n      dup1\n      returndatacopy\n      revert(0x00, returndatasize)\n    tag_24:\n      pop\n        /* \"Library.sol\":288:347  Library newLibrary = new Library(_maxBorrowing, msg.sender) */\n      swap1\n      pop\n        /* \"Library.sol\":357:374  deployedLibraries */\n      0x00\n        /* \"Library.sol\":388:398  newLibrary */\n      dup2\n        /* \"Library.sol\":357:400  deployedLibraries.push(address(newLibrary)) */\n      swap1\n      dup1\n      0x01\n      dup2\n      sload\n      add\n      dup1\n      dup3\n      sstore\n      dup1\n      swap2\n      pop\n      pop\n      0x01\n      swap1\n      sub\n      swap1\n      0x00\n      mstore\n      keccak256(0x00, 0x20)\n      add\n      0x00\n      swap1\n      swap2\n      swap1\n      swap2\n      swap1\n      swap2\n      0x0100\n      exp\n      dup2\n      sload\n      dup2\n      0xffffffffffffffffffffffffffffffffffffffff\n      mul\n      not\n      and\n      swap1\n      dup4\n      0xffffffffffffffffffffffffffffffffffffffff\n      and\n      mul\n      or\n      swap1\n      sstore\n      pop\n        /* \"Library.sol\":278:407  {... */\n      pop\n        /* \"Library.sol\":228:407  function createLibrary(uint _maxBorrowing) public {... */\n      pop\n      jump\t// out\n        /* \"Library.sol\":187:221  address[] public deployedLibraries */\n    tag_12:\n      0x00\n      dup2\n      dup2\n      sload\n      dup2\n      lt\n      tag_26\n      jumpi\n      0x00\n      dup1\n      revert\n    tag_26:\n      swap1\n      0x00\n      mstore\n      keccak256(0x00, 0x20)\n      add\n      0x00\n      swap2\n      pop\n      sload\n      swap1\n      0x0100\n      exp\n      swap1\n      div\n      0xffffffffffffffffffffffffffffffffffffffff\n      and\n      dup2\n      jump\t// out\n        /* \"Library.sol\":413:525  function getDeployedLibraries() public view returns (address[] memory) {... */\n    tag_16:\n        /* \"Library.sol\":466:482  address[] memory */\n      0x60\n        /* \"Library.sol\":501:518  deployedLibraries */\n      0x00\n        /* \"Library.sol\":494:518  return deployedLibraries */\n      dup1\n      sload\n      dup1\n      0x20\n      mul\n      0x20\n      add\n      mload(0x40)\n      swap1\n      dup2\n      add\n      0x40\n      mstore\n      dup1\n      swap3\n      swap2\n      swap1\n      dup2\n      dup2\n      mstore\n      0x20\n      add\n      dup3\n      dup1\n      sload\n      dup1\n      iszero\n      tag_29\n      jumpi\n      0x20\n      mul\n      dup3\n      add\n      swap2\n      swap1\n      0x00\n      mstore\n      keccak256(0x00, 0x20)\n      swap1\n    tag_30:\n      dup2\n      0x00\n      swap1\n      sload\n      swap1\n      0x0100\n      exp\n      swap1\n      div\n      0xffffffffffffffffffffffffffffffffffffffff\n      and\n      0xffffffffffffffffffffffffffffffffffffffff\n      and\n      dup2\n      mstore\n      0x20\n      add\n      swap1\n      0x01\n      add\n      swap1\n      dup1\n      dup4\n      gt\n      tag_30\n      jumpi\n    tag_29:\n      pop\n      pop\n      pop\n      pop\n      pop\n      swap1\n      pop\n        /* \"Library.sol\":413:525  function getDeployedLibraries() public view returns (address[] memory) {... */\n      swap1\n      jump\t// out\n    tag_21:\n      dataSize(sub_0)\n      dup1\n      dataOffset(sub_0)\n      dup4\n      codecopy\n      add\n      swap1\n      jump\t// out\n        /* \"#utility.yul\":88:205   */\n    tag_32:\n        /* \"#utility.yul\":197:198   */\n      0x00\n        /* \"#utility.yul\":194:195   */\n      dup1\n        /* \"#utility.yul\":187:199   */\n      revert\n        /* \"#utility.yul\":334:411   */\n    tag_34:\n        /* \"#utility.yul\":371:378   */\n      0x00\n        /* \"#utility.yul\":400:405   */\n      dup2\n        /* \"#utility.yul\":389:405   */\n      swap1\n      pop\n        /* \"#utility.yul\":334:411   */\n      swap2\n      swap1\n      pop\n      jump\t// out\n        /* \"#utility.yul\":417:539   */\n    tag_35:\n        /* \"#utility.yul\":490:514   */\n      tag_54\n        /* \"#utility.yul\":508:513   */\n      dup2\n        /* \"#utility.yul\":490:514   */\n      tag_34\n      jump\t// in\n    tag_54:\n        /* \"#utility.yul\":483:488   */\n      dup2\n        /* \"#utility.yul\":480:515   */\n      eq\n        /* \"#utility.yul\":470:533   */\n      tag_55\n      jumpi\n        /* \"#utility.yul\":529:530   */\n      0x00\n        /* \"#utility.yul\":526:527   */\n      dup1\n        /* \"#utility.yul\":519:531   */\n      revert\n        /* \"#utility.yul\":470:533   */\n    tag_55:\n        /* \"#utility.yul\":417:539   */\n      pop\n      jump\t// out\n        /* \"#utility.yul\":545:684   */\n    tag_36:\n        /* \"#utility.yul\":591:596   */\n      0x00\n        /* \"#utility.yul\":629:635   */\n      dup2\n        /* \"#utility.yul\":616:636   */\n      calldataload\n        /* \"#utility.yul\":607:636   */\n      swap1\n      pop\n        /* \"#utility.yul\":645:678   */\n      tag_57\n        /* \"#utility.yul\":672:677   */\n      dup2\n        /* \"#utility.yul\":645:678   */\n      tag_35\n      jump\t// in\n    tag_57:\n        /* \"#utility.yul\":545:684   */\n      swap3\n      swap2\n      pop\n      pop\n      jump\t// out\n        /* \"#utility.yul\":690:1019   */\n    tag_8:\n        /* \"#utility.yul\":749:755   */\n      0x00\n        /* \"#utility.yul\":798:800   */\n      0x20\n        /* \"#utility.yul\":786:795   */\n      dup3\n        /* \"#utility.yul\":777:784   */\n      dup5\n        /* \"#utility.yul\":773:796   */\n      sub\n        /* \"#utility.yul\":769:801   */\n      slt\n        /* \"#utility.yul\":766:885   */\n      iszero\n      tag_59\n      jumpi\n        /* \"#utility.yul\":804:883   */\n      tag_60\n      tag_32\n      jump\t// in\n    tag_60:\n        /* \"#utility.yul\":766:885   */\n    tag_59:\n        /* \"#utility.yul\":924:925   */\n      0x00\n        /* \"#utility.yul\":949:1002   */\n      tag_61\n        /* \"#utility.yul\":994:1001   */\n      dup5\n        /* \"#utility.yul\":985:991   */\n      dup3\n        /* \"#utility.yul\":974:983   */\n      dup6\n        /* \"#utility.yul\":970:992   */\n      add\n        /* \"#utility.yul\":949:1002   */\n      tag_36\n      jump\t// in\n    tag_61:\n        /* \"#utility.yul\":939:1002   */\n      swap2\n      pop\n        /* \"#utility.yul\":895:1012   */\n      pop\n        /* \"#utility.yul\":690:1019   */\n      swap3\n      swap2\n      pop\n      pop\n      jump\t// out\n        /* \"#utility.yul\":1025:1151   */\n    tag_37:\n        /* \"#utility.yul\":1062:1069   */\n      0x00\n        /* \"#utility.yul\":1102:1144   */\n      0xffffffffffffffffffffffffffffffffffffffff\n        /* \"#utility.yul\":1095:1100   */\n      dup3\n        /* \"#utility.yul\":1091:1145   */\n      and\n        /* \"#utility.yul\":1080:1145   */\n      swap1\n      pop\n        /* \"#utility.yul\":1025:1151   */\n      swap2\n      swap1\n      pop\n      jump\t// out\n        /* \"#utility.yul\":1157:1253   */\n    tag_38:\n        /* \"#utility.yul\":1194:1201   */\n      0x00\n        /* \"#utility.yul\":1223:1247   */\n      tag_64\n        /* \"#utility.yul\":1241:1246   */\n      dup3\n        /* \"#utility.yul\":1223:1247   */\n      tag_37\n      jump\t// in\n    tag_64:\n        /* \"#utility.yul\":1212:1247   */\n      swap1\n      pop\n        /* \"#utility.yul\":1157:1253   */\n      swap2\n      swap1\n      pop\n      jump\t// out\n        /* \"#utility.yul\":1259:1377   */\n    tag_39:\n        /* \"#utility.yul\":1346:1370   */\n      tag_66\n        /* \"#utility.yul\":1364:1369   */\n      dup2\n        /* \"#utility.yul\":1346:1370   */\n      tag_38\n      jump\t// in\n    tag_66:\n        /* \"#utility.yul\":1341:1344   */\n      dup3\n        /* \"#utility.yul\":1334:1371   */\n      mstore\n        /* \"#utility.yul\":1259:1377   */\n      pop\n      pop\n      jump\t// out\n        /* \"#utility.yul\":1383:1605   */\n    tag_14:\n        /* \"#utility.yul\":1476:1480   */\n      0x00\n        /* \"#utility.yul\":1514:1516   */\n      0x20\n        /* \"#utility.yul\":1503:1512   */\n      dup3\n        /* \"#utility.yul\":1499:1517   */\n      add\n        /* \"#utility.yul\":1491:1517   */\n      swap1\n      pop\n        /* \"#utility.yul\":1527:1598   */\n      tag_68\n        /* \"#utility.yul\":1595:1596   */\n      0x00\n        /* \"#utility.yul\":1584:1593   */\n      dup4\n        /* \"#utility.yul\":1580:1597   */\n      add\n        /* \"#utility.yul\":1571:1577   */\n      dup5\n        /* \"#utility.yul\":1527:1598   */\n      tag_39\n      jump\t// in\n    tag_68:\n        /* \"#utility.yul\":1383:1605   */\n      swap3\n      swap2\n      pop\n      pop\n      jump\t// out\n        /* \"#utility.yul\":1611:1725   */\n    tag_40:\n        /* \"#utility.yul\":1678:1684   */\n      0x00\n        /* \"#utility.yul\":1712:1717   */\n      dup2\n        /* \"#utility.yul\":1706:1718   */\n      mload\n        /* \"#utility.yul\":1696:1718   */\n      swap1\n      pop\n        /* \"#utility.yul\":1611:1725   */\n      swap2\n      swap1\n      pop\n      jump\t// out\n        /* \"#utility.yul\":1731:1915   */\n    tag_41:\n        /* \"#utility.yul\":1830:1841   */\n      0x00\n        /* \"#utility.yul\":1864:1870   */\n      dup3\n        /* \"#utility.yul\":1859:1862   */\n      dup3\n        /* \"#utility.yul\":1852:1871   */\n      mstore\n        /* \"#utility.yul\":1904:1908   */\n      0x20\n        /* \"#utility.yul\":1899:1902   */\n      dup3\n        /* \"#utility.yul\":1895:1909   */\n      add\n        /* \"#utility.yul\":1880:1909   */\n      swap1\n      pop\n        /* \"#utility.yul\":1731:1915   */\n      swap3\n      swap2\n      pop\n      pop\n      jump\t// out\n        /* \"#utility.yul\":1921:2053   */\n    tag_42:\n        /* \"#utility.yul\":1988:1992   */\n      0x00\n        /* \"#utility.yul\":2011:2014   */\n      dup2\n        /* \"#utility.yul\":2003:2014   */\n      swap1\n      pop\n        /* \"#utility.yul\":2041:2045   */\n      0x20\n        /* \"#utility.yul\":2036:2039   */\n      dup3\n        /* \"#utility.yul\":2032:2046   */\n      add\n        /* \"#utility.yul\":2024:2046   */\n      swap1\n      pop\n        /* \"#utility.yul\":1921:2053   */\n      swap2\n      swap1\n      pop\n      jump\t// out\n        /* \"#utility.yul\":2059:2167   */\n    tag_43:\n        /* \"#utility.yul\":2136:2160   */\n      tag_73\n        /* \"#utility.yul\":2154:2159   */\n      dup2\n        /* \"#utility.yul\":2136:2160   */\n      tag_38\n      jump\t// in\n    tag_73:\n        /* \"#utility.yul\":2131:2134   */\n      dup3\n        /* \"#utility.yul\":2124:2161   */\n      mstore\n        /* \"#utility.yul\":2059:2167   */\n      pop\n      pop\n      jump\t// out\n        /* \"#utility.yul\":2173:2352   */\n    tag_44:\n        /* \"#utility.yul\":2242:2252   */\n      0x00\n        /* \"#utility.yul\":2263:2309   */\n      tag_75\n        /* \"#utility.yul\":2305:2308   */\n      dup4\n        /* \"#utility.yul\":2297:2303   */\n      dup4\n        /* \"#utility.yul\":2263:2309   */\n      tag_43\n      jump\t// in\n    tag_75:\n        /* \"#utility.yul\":2341:2345   */\n      0x20\n        /* \"#utility.yul\":2336:2339   */\n      dup4\n        /* \"#utility.yul\":2332:2346   */\n      add\n        /* \"#utility.yul\":2318:2346   */\n      swap1\n      pop\n        /* \"#utility.yul\":2173:2352   */\n      swap3\n      swap2\n      pop\n      pop\n      jump\t// out\n        /* \"#utility.yul\":2358:2471   */\n    tag_45:\n        /* \"#utility.yul\":2428:2432   */\n      0x00\n        /* \"#utility.yul\":2460:2464   */\n      0x20\n        /* \"#utility.yul\":2455:2458   */\n      dup3\n        /* \"#utility.yul\":2451:2465   */\n      add\n        /* \"#utility.yul\":2443:2465   */\n      swap1\n      pop\n        /* \"#utility.yul\":2358:2471   */\n      swap2\n      swap1\n      pop\n      jump\t// out\n        /* \"#utility.yul\":2507:3239   */\n    tag_46:\n        /* \"#utility.yul\":2626:2629   */\n      0x00\n        /* \"#utility.yul\":2655:2709   */\n      tag_78\n        /* \"#utility.yul\":2703:2708   */\n      dup3\n        /* \"#utility.yul\":2655:2709   */\n      tag_40\n      jump\t// in\n    tag_78:\n        /* \"#utility.yul\":2725:2811   */\n      tag_79\n        /* \"#utility.yul\":2804:2810   */\n      dup2\n        /* \"#utility.yul\":2799:2802   */\n      dup6\n        /* \"#utility.yul\":2725:2811   */\n      tag_41\n      jump\t// in\n    tag_79:\n        /* \"#utility.yul\":2718:2811   */\n      swap4\n      pop\n        /* \"#utility.yul\":2835:2891   */\n      tag_80\n        /* \"#utility.yul\":2885:2890   */\n      dup4\n        /* \"#utility.yul\":2835:2891   */\n      tag_42\n      jump\t// in\n    tag_80:\n        /* \"#utility.yul\":2914:2921   */\n      dup1\n        /* \"#utility.yul\":2945:2946   */\n      0x00\n        /* \"#utility.yul\":2930:3214   */\n    tag_81:\n        /* \"#utility.yul\":2955:2961   */\n      dup4\n        /* \"#utility.yul\":2952:2953   */\n      dup2\n        /* \"#utility.yul\":2949:2962   */\n      lt\n        /* \"#utility.yul\":2930:3214   */\n      iszero\n      tag_83\n      jumpi\n        /* \"#utility.yul\":3031:3037   */\n      dup2\n        /* \"#utility.yul\":3025:3038   */\n      mload\n        /* \"#utility.yul\":3058:3121   */\n      tag_84\n        /* \"#utility.yul\":3117:3120   */\n      dup9\n        /* \"#utility.yul\":3102:3115   */\n      dup3\n        /* \"#utility.yul\":3058:3121   */\n      tag_44\n      jump\t// in\n    tag_84:\n        /* \"#utility.yul\":3051:3121   */\n      swap8\n      pop\n        /* \"#utility.yul\":3144:3204   */\n      tag_85\n        /* \"#utility.yul\":3197:3203   */\n      dup4\n        /* \"#utility.yul\":3144:3204   */\n      tag_45\n      jump\t// in\n    tag_85:\n        /* \"#utility.yul\":3134:3204   */\n      swap3\n      pop\n        /* \"#utility.yul\":2990:3214   */\n      pop\n        /* \"#utility.yul\":2977:2978   */\n      0x01\n        /* \"#utility.yul\":2974:2975   */\n      dup2\n        /* \"#utility.yul\":2970:2979   */\n      add\n        /* \"#utility.yul\":2965:2979   */\n      swap1\n      pop\n        /* \"#utility.yul\":2930:3214   */\n      jump(tag_81)\n    tag_83:\n        /* \"#utility.yul\":2934:2948   */\n      pop\n        /* \"#utility.yul\":3230:3233   */\n      dup6\n        /* \"#utility.yul\":3223:3233   */\n      swap4\n      pop\n        /* \"#utility.yul\":2631:3239   */\n      pop\n      pop\n      pop\n        /* \"#utility.yul\":2507:3239   */\n      swap3\n      swap2\n      pop\n      pop\n      jump\t// out\n        /* \"#utility.yul\":3245:3618   */\n    tag_18:\n        /* \"#utility.yul\":3388:3392   */\n      0x00\n        /* \"#utility.yul\":3426:3428   */\n      0x20\n        /* \"#utility.yul\":3415:3424   */\n      dup3\n        /* \"#utility.yul\":3411:3429   */\n      add\n        /* \"#utility.yul\":3403:3429   */\n      swap1\n      pop\n        /* \"#utility.yul\":3475:3484   */\n      dup2\n        /* \"#utility.yul\":3469:3473   */\n      dup2\n        /* \"#utility.yul\":3465:3485   */\n      sub\n        /* \"#utility.yul\":3461:3462   */\n      0x00\n        /* \"#utility.yul\":3450:3459   */\n      dup4\n        /* \"#utility.yul\":3446:3463   */\n      add\n        /* \"#utility.yul\":3439:3486   */\n      mstore\n        /* \"#utility.yul\":3503:3611   */\n      tag_87\n        /* \"#utility.yul\":3606:3610   */\n      dup2\n        /* \"#utility.yul\":3597:3603   */\n      dup5\n        /* \"#utility.yul\":3503:3611   */\n      tag_46\n      jump\t// in\n    tag_87:\n        /* \"#utility.yul\":3495:3611   */\n      swap1\n      pop\n        /* \"#utility.yul\":3245:3618   */\n      swap3\n      swap2\n      pop\n      pop\n      jump\t// out\n        /* \"#utility.yul\":3624:3742   */\n    tag_47:\n        /* \"#utility.yul\":3711:3735   */\n      tag_89\n        /* \"#utility.yul\":3729:3734   */\n      dup2\n        /* \"#utility.yul\":3711:3735   */\n      tag_34\n      jump\t// in\n    tag_89:\n        /* \"#utility.yul\":3706:3709   */\n      dup3\n        /* \"#utility.yul\":3699:3736   */\n      mstore\n        /* \"#utility.yul\":3624:3742   */\n      pop\n      pop\n      jump\t// out\n        /* \"#utility.yul\":3748:4080   */\n    tag_23:\n        /* \"#utility.yul\":3869:3873   */\n      0x00\n        /* \"#utility.yul\":3907:3909   */\n      0x40\n        /* \"#utility.yul\":3896:3905   */\n      dup3\n        /* \"#utility.yul\":3892:3910   */\n      add\n        /* \"#utility.yul\":3884:3910   */\n      swap1\n      pop\n        /* \"#utility.yul\":3920:3991   */\n      tag_91\n        /* \"#utility.yul\":3988:3989   */\n      0x00\n        /* \"#utility.yul\":3977:3986   */\n      dup4\n        /* \"#utility.yul\":3973:3990   */\n      add\n        /* \"#utility.yul\":3964:3970   */\n      dup6\n        /* \"#utility.yul\":3920:3991   */\n      tag_47\n      jump\t// in\n    tag_91:\n        /* \"#utility.yul\":4001:4073   */\n      tag_92\n        /* \"#utility.yul\":4069:4071   */\n      0x20\n        /* \"#utility.yul\":4058:4067   */\n      dup4\n        /* \"#utility.yul\":4054:4072   */\n      add\n        /* \"#utility.yul\":4045:4051   */\n      dup5\n        /* \"#utility.yul\":4001:4073   */\n      tag_39\n      jump\t// in\n    tag_92:\n        /* \"#utility.yul\":3748:4080   */\n      swap4\n      swap3\n      pop\n      pop\n      pop\n      jump\t// out\n    stop\n\n    sub_0: assembly {\n            /* \"Library.sol\":529:4040  contract Library {... */\n          mstore(0x40, 0x80)\n            /* \"Library.sol\":1051:1507  constructor (uint _maxBorrowing, address _creator) {... */\n          callvalue\n          dup1\n          iszero\n          tag_1\n          jumpi\n          0x00\n          dup1\n          revert\n        tag_1:\n          pop\n          mload(0x40)\n          sub(codesize, bytecodeSize)\n          dup1\n          bytecodeSize\n          dup4\n          codecopy\n          dup2\n          dup2\n          add\n          0x40\n          mstore\n          dup2\n          add\n          swap1\n          tag_2\n          swap2\n          swap1\n          tag_3\n          jump\t// in\n        tag_2:\n            /* \"Library.sol\":1120:1128  _creator */\n          dup1\n            /* \"Library.sol\":1112:1117  owner */\n          0x00\n          dup1\n            /* \"Library.sol\":1112:1128  owner = _creator */\n          0x0100\n          exp\n          dup2\n          sload\n          dup2\n          0xffffffffffffffffffffffffffffffffffffffff\n          mul\n          not\n          and\n          swap1\n          dup4\n          0xffffffffffffffffffffffffffffffffffffffff\n          and\n          mul\n          or\n          swap1\n          sstore\n          pop\n            /* \"Library.sol\":1168:1173  owner */\n          0x00\n          dup1\n          sload\n          swap1\n          0x0100\n          exp\n          swap1\n          div\n          0xffffffffffffffffffffffffffffffffffffffff\n          and\n            /* \"Library.sol\":1152:1174  new BookManager(owner) */\n          mload(0x40)\n          tag_6\n          swap1\n          tag_7\n          jump\t// in\n        tag_6:\n          tag_8\n          swap2\n          swap1\n          tag_9\n          jump\t// in\n        tag_8:\n          mload(0x40)\n          dup1\n          swap2\n          sub\n          swap1\n          0x00\n          create\n          dup1\n          iszero\n          dup1\n          iszero\n          tag_10\n          jumpi\n          returndatasize\n          0x00\n          dup1\n          returndatacopy\n          revert(0x00, returndatasize)\n        tag_10:\n          pop\n            /* \"Library.sol\":1138:1149  bookManager */\n          0x01\n          0x00\n            /* \"Library.sol\":1138:1174  bookManager = new BookManager(owner) */\n          0x0100\n          exp\n          dup2\n          sload\n          dup2\n          0xffffffffffffffffffffffffffffffffffffffff\n          mul\n          not\n          and\n          swap1\n          dup4\n          0xffffffffffffffffffffffffffffffffffffffff\n          and\n          mul\n          or\n          swap1\n          sstore\n          pop\n            /* \"Library.sol\":1214:1219  owner */\n          0x00\n          dup1\n          sload\n          swap1\n          0x0100\n          exp\n          swap1\n          div\n          0xffffffffffffffffffffffffffffffffffffffff\n          and\n            /* \"Library.sol\":1198:1220  new UserManager(owner) */\n          mload(0x40)\n          tag_11\n          swap1\n          tag_12\n          jump\t// in\n        tag_11:\n          tag_13\n          swap2\n          swap1\n          tag_9\n          jump\t// in\n        tag_13:\n          mload(0x40)\n          dup1\n          swap2\n          sub\n          swap1\n          0x00\n          create\n          dup1\n          iszero\n          dup1\n          iszero\n          tag_14\n          jumpi\n          returndatasize\n          0x00\n          dup1\n          returndatacopy\n          revert(0x00, returndatasize)\n        tag_14:\n          pop\n            /* \"Library.sol\":1184:1195  userManager */\n          0x02\n          0x00\n            /* \"Library.sol\":1184:1220  userManager = new UserManager(owner) */\n          0x0100\n          exp\n          dup2\n          sload\n          dup2\n          0xffffffffffffffffffffffffffffffffffffffff\n          mul\n          not\n          and\n          swap1\n          dup4\n          0xffffffffffffffffffffffffffffffffffffffff\n          and\n          mul\n          or\n          swap1\n          sstore\n          pop\n            /* \"Library.sol\":1262:1267  owner */\n          0x00\n          dup1\n          sload\n          swap1\n          0x0100\n          exp\n          swap1\n          div\n          0xffffffffffffffffffffffffffffffffffffffff\n          and\n            /* \"Library.sol\":1245:1268  new TokenManager(owner) */\n          mload(0x40)\n          tag_15\n          swap1\n          tag_16\n          jump\t// in\n        tag_15:\n          tag_17\n          swap2\n          swap1\n          tag_9\n          jump\t// in\n        tag_17:\n          mload(0x40)\n          dup1\n          swap2\n          sub\n          swap1\n          0x00\n          create\n          dup1\n          iszero\n          dup1\n          iszero\n          tag_18\n          jumpi\n          returndatasize\n          0x00\n          dup1\n          returndatacopy\n          revert(0x00, returndatasize)\n        tag_18:\n          pop\n            /* \"Library.sol\":1230:1242  tokenManager */\n          0x03\n          0x00\n            /* \"Library.sol\":1230:1268  tokenManager = new TokenManager(owner) */\n          0x0100\n          exp\n          dup2\n          sload\n          dup2\n          0xffffffffffffffffffffffffffffffffffffffff\n          mul\n          not\n          and\n          swap1\n          dup4\n          0xffffffffffffffffffffffffffffffffffffffff\n          and\n          mul\n          or\n          swap1\n          sstore\n          pop\n            /* \"Library.sol\":1278:1292  managerAddress */\n          0x04\n            /* \"Library.sol\":1306:1317  bookManager */\n          0x01\n          0x00\n          swap1\n          sload\n          swap1\n          0x0100\n          exp\n          swap1\n          div\n          0xffffffffffffffffffffffffffffffffffffffff\n          and\n            /* \"Library.sol\":1278:1319  managerAddress.push(address(bookManager)) */\n          swap1\n          dup1\n          0x01\n          dup2\n          sload\n          add\n          dup1\n          dup3\n          sstore\n          dup1\n          swap2\n          pop\n          pop\n          0x01\n          swap1\n          sub\n          swap1\n          0x00\n          mstore\n          keccak256(0x00, 0x20)\n          add\n          0x00\n          swap1\n          swap2\n          swap1\n          swap2\n          swap1\n          swap2\n          0x0100\n          exp\n          dup2\n          sload\n          dup2\n          0xffffffffffffffffffffffffffffffffffffffff\n          mul\n          not\n          and\n          swap1\n          dup4\n          0xffffffffffffffffffffffffffffffffffffffff\n          and\n          mul\n          or\n          swap1\n          sstore\n          pop\n            /* \"Library.sol\":1329:1343  managerAddress */\n          0x04\n            /* \"Library.sol\":1357:1368  userManager */\n          0x02\n          0x00\n          swap1\n          sload\n          swap1\n          0x0100\n          exp\n          swap1\n          div\n          0xffffffffffffffffffffffffffffffffffffffff\n          and\n            /* \"Library.sol\":1329:1370  managerAddress.push(address(userManager)) */\n          swap1\n          dup1\n          0x01\n          dup2\n          sload\n          add\n          dup1\n          dup3\n          sstore\n          dup1\n          swap2\n          pop\n          pop\n          0x01\n          swap1\n          sub\n          swap1\n          0x00\n          mstore\n          keccak256(0x00, 0x20)\n          add\n          0x00\n          swap1\n          swap2\n          swap1\n          swap2\n          swap1\n          swap2\n          0x0100\n          exp\n          dup2\n          sload\n          dup2\n          0xffffffffffffffffffffffffffffffffffffffff\n          mul\n          not\n          and\n          swap1\n          dup4\n          0xffffffffffffffffffffffffffffffffffffffff\n          and\n          mul\n          or\n          swap1\n          sstore\n          pop\n            /* \"Library.sol\":1380:1394  managerAddress */\n          0x04\n            /* \"Library.sol\":1408:1420  tokenManager */\n          0x03\n          0x00\n          swap1\n          sload\n          swap1\n          0x0100\n          exp\n          swap1\n          div\n          0xffffffffffffffffffffffffffffffffffffffff\n          and\n            /* \"Library.sol\":1380:1422  managerAddress.push(address(tokenManager)) */\n          swap1\n          dup1\n          0x01\n          dup2\n          sload\n          add\n          dup1\n          dup3\n          sstore\n          dup1\n          swap2\n          pop\n          pop\n          0x01\n          swap1\n          sub\n          swap1\n          0x00\n          mstore\n          keccak256(0x00, 0x20)\n          add\n          0x00\n          swap1\n          swap2\n          swap1\n          swap2\n          swap1\n          swap2\n          0x0100\n          exp\n          dup2\n          sload\n          dup2\n          0xffffffffffffffffffffffffffffffffffffffff\n          mul\n          not\n          and\n          swap1\n          dup4\n          0xffffffffffffffffffffffffffffffffffffffff\n          and\n          mul\n          or\n          swap1\n          sstore\n          pop\n            /* \"Library.sol\":1447:1460  _maxBorrowing */\n          dup2\n            /* \"Library.sol\":1432:1444  maxBorrowing */\n          0x05\n            /* \"Library.sol\":1432:1460  maxBorrowing = _maxBorrowing */\n          dup2\n          swap1\n          sstore\n          pop\n            /* \"Library.sol\":1470:1481  userManager */\n          0x02\n          0x00\n          swap1\n          sload\n          swap1\n          0x0100\n          exp\n          swap1\n          div\n          0xffffffffffffffffffffffffffffffffffffffff\n          and\n            /* \"Library.sol\":1470:1493  userManager.InviteStaff */\n          0xffffffffffffffffffffffffffffffffffffffff\n          and\n          0x7c4dd96d\n            /* \"Library.sol\":1494:1499  owner */\n          0x00\n          dup1\n          sload\n          swap1\n          0x0100\n          exp\n          swap1\n          div\n          0xffffffffffffffffffffffffffffffffffffffff\n          and\n            /* \"Library.sol\":1470:1500  userManager.InviteStaff(owner) */\n          mload(0x40)\n          dup3\n          0xffffffff\n          and\n          0xe0\n          shl\n          dup2\n          mstore\n          0x04\n          add\n          tag_22\n          swap2\n          swap1\n          tag_9\n          jump\t// in\n        tag_22:\n          0x00\n          mload(0x40)\n          dup1\n          dup4\n          sub\n          dup2\n          0x00\n          dup8\n          dup1\n          extcodesize\n          iszero\n          dup1\n          iszero\n          tag_23\n          jumpi\n          0x00\n          dup1\n          revert\n        tag_23:\n          pop\n          gas\n          call\n          iszero\n          dup1\n          iszero\n          tag_25\n          jumpi\n          returndatasize\n          0x00\n          dup1\n          returndatacopy\n          revert(0x00, returndatasize)\n        tag_25:\n          pop\n          pop\n          pop\n          pop\n            /* \"Library.sol\":1051:1507  constructor (uint _maxBorrowing, address _creator) {... */\n          pop\n          pop\n            /* \"Library.sol\":529:4040  contract Library {... */\n          jump(tag_26)\n        tag_7:\n          dataSize(sub_1)\n          dup1\n          dataOffset(sub_1)\n          dup4\n          codecopy\n          add\n          swap1\n          jump\t// out\n        tag_12:\n          dataSize(sub_2)\n          dup1\n          dataOffset(sub_2)\n          dup4\n          codecopy\n          add\n          swap1\n          jump\t// out\n        tag_16:\n          dataSize(sub_3)\n          dup1\n          dataOffset(sub_3)\n          dup4\n          codecopy\n          add\n          swap1\n          jump\t// out\n            /* \"#utility.yul\":88:205   */\n        tag_28:\n            /* \"#utility.yul\":197:198   */\n          0x00\n            /* \"#utility.yul\":194:195   */\n          dup1\n            /* \"#utility.yul\":187:199   */\n          revert\n            /* \"#utility.yul\":334:411   */\n        tag_30:\n            /* \"#utility.yul\":371:378   */\n          0x00\n            /* \"#utility.yul\":400:405   */\n          dup2\n            /* \"#utility.yul\":389:405   */\n          swap1\n          pop\n            /* \"#utility.yul\":334:411   */\n          swap2\n          swap1\n          pop\n          jump\t// out\n            /* \"#utility.yul\":417:539   */\n        tag_31:\n            /* \"#utility.yul\":490:514   */\n          tag_44\n            /* \"#utility.yul\":508:513   */\n          dup2\n            /* \"#utility.yul\":490:514   */\n          tag_30\n          jump\t// in\n        tag_44:\n            /* \"#utility.yul\":483:488   */\n          dup2\n            /* \"#utility.yul\":480:515   */\n          eq\n            /* \"#utility.yul\":470:533   */\n          tag_45\n          jumpi\n            /* \"#utility.yul\":529:530   */\n          0x00\n            /* \"#utility.yul\":526:527   */\n          dup1\n            /* \"#utility.yul\":519:531   */\n          revert\n            /* \"#utility.yul\":470:533   */\n        tag_45:\n            /* \"#utility.yul\":417:539   */\n          pop\n          jump\t// out\n            /* \"#utility.yul\":545:688   */\n        tag_32:\n            /* \"#utility.yul\":602:607   */\n          0x00\n            /* \"#utility.yul\":633:639   */\n          dup2\n            /* \"#utility.yul\":627:640   */\n          mload\n            /* \"#utility.yul\":618:640   */\n          swap1\n          pop\n            /* \"#utility.yul\":649:682   */\n          tag_47\n            /* \"#utility.yul\":676:681   */\n          dup2\n            /* \"#utility.yul\":649:682   */\n          tag_31\n          jump\t// in\n        tag_47:\n            /* \"#utility.yul\":545:688   */\n          swap3\n          swap2\n          pop\n          pop\n          jump\t// out\n            /* \"#utility.yul\":694:820   */\n        tag_33:\n            /* \"#utility.yul\":731:738   */\n          0x00\n            /* \"#utility.yul\":771:813   */\n          0xffffffffffffffffffffffffffffffffffffffff\n            /* \"#utility.yul\":764:769   */\n          dup3\n            /* \"#utility.yul\":760:814   */\n          and\n            /* \"#utility.yul\":749:814   */\n          swap1\n          pop\n            /* \"#utility.yul\":694:820   */\n          swap2\n          swap1\n          pop\n          jump\t// out\n            /* \"#utility.yul\":826:922   */\n        tag_34:\n            /* \"#utility.yul\":863:870   */\n          0x00\n            /* \"#utility.yul\":892:916   */\n          tag_50\n            /* \"#utility.yul\":910:915   */\n          dup3\n            /* \"#utility.yul\":892:916   */\n          tag_33\n          jump\t// in\n        tag_50:\n            /* \"#utility.yul\":881:916   */\n          swap1\n          pop\n            /* \"#utility.yul\":826:922   */\n          swap2\n          swap1\n          pop\n          jump\t// out\n            /* \"#utility.yul\":928:1050   */\n        tag_35:\n            /* \"#utility.yul\":1001:1025   */\n          tag_52\n            /* \"#utility.yul\":1019:1024   */\n          dup2\n            /* \"#utility.yul\":1001:1025   */\n          tag_34\n          jump\t// in\n        tag_52:\n            /* \"#utility.yul\":994:999   */\n          dup2\n            /* \"#utility.yul\":991:1026   */\n          eq\n            /* \"#utility.yul\":981:1044   */\n          tag_53\n          jumpi\n            /* \"#utility.yul\":1040:1041   */\n          0x00\n            /* \"#utility.yul\":1037:1038   */\n          dup1\n            /* \"#utility.yul\":1030:1042   */\n          revert\n            /* \"#utility.yul\":981:1044   */\n        tag_53:\n            /* \"#utility.yul\":928:1050   */\n          pop\n          jump\t// out\n            /* \"#utility.yul\":1056:1199   */\n        tag_36:\n            /* \"#utility.yul\":1113:1118   */\n          0x00\n            /* \"#utility.yul\":1144:1150   */\n          dup2\n            /* \"#utility.yul\":1138:1151   */\n          mload\n            /* \"#utility.yul\":1129:1151   */\n          swap1\n          pop\n            /* \"#utility.yul\":1160:1193   */\n          tag_55\n            /* \"#utility.yul\":1187:1192   */\n          dup2\n            /* \"#utility.yul\":1160:1193   */\n          tag_35\n          jump\t// in\n        tag_55:\n            /* \"#utility.yul\":1056:1199   */\n          swap3\n          swap2\n          pop\n          pop\n          jump\t// out\n            /* \"#utility.yul\":1205:1712   */\n        tag_3:\n            /* \"#utility.yul\":1284:1290   */\n          0x00\n            /* \"#utility.yul\":1292:1298   */\n          dup1\n            /* \"#utility.yul\":1341:1343   */\n          0x40\n            /* \"#utility.yul\":1329:1338   */\n          dup4\n            /* \"#utility.yul\":1320:1327   */\n          dup6\n            /* \"#utility.yul\":1316:1339   */\n          sub\n            /* \"#utility.yul\":1312:1344   */\n          slt\n            /* \"#utility.yul\":1309:1428   */\n          iszero\n          tag_57\n          jumpi\n            /* \"#utility.yul\":1347:1426   */\n          tag_58\n          tag_28\n          jump\t// in\n        tag_58:\n            /* \"#utility.yul\":1309:1428   */\n        tag_57:\n            /* \"#utility.yul\":1467:1468   */\n          0x00\n            /* \"#utility.yul\":1492:1556   */\n          tag_59\n            /* \"#utility.yul\":1548:1555   */\n          dup6\n            /* \"#utility.yul\":1539:1545   */\n          dup3\n            /* \"#utility.yul\":1528:1537   */\n          dup7\n            /* \"#utility.yul\":1524:1546   */\n          add\n            /* \"#utility.yul\":1492:1556   */\n          tag_32\n          jump\t// in\n        tag_59:\n            /* \"#utility.yul\":1482:1556   */\n          swap3\n          pop\n            /* \"#utility.yul\":1438:1566   */\n          pop\n            /* \"#utility.yul\":1605:1607   */\n          0x20\n            /* \"#utility.yul\":1631:1695   */\n          tag_60\n            /* \"#utility.yul\":1687:1694   */\n          dup6\n            /* \"#utility.yul\":1678:1684   */\n          dup3\n            /* \"#utility.yul\":1667:1676   */\n          dup7\n            /* \"#utility.yul\":1663:1685   */\n          add\n            /* \"#utility.yul\":1631:1695   */\n          tag_36\n          jump\t// in\n        tag_60:\n            /* \"#utility.yul\":1621:1695   */\n          swap2\n          pop\n            /* \"#utility.yul\":1576:1705   */\n          pop\n            /* \"#utility.yul\":1205:1712   */\n          swap3\n          pop\n          swap3\n          swap1\n          pop\n          jump\t// out\n            /* \"#utility.yul\":1718:1836   */\n        tag_37:\n            /* \"#utility.yul\":1805:1829   */\n          tag_62\n            /* \"#utility.yul\":1823:1828   */\n          dup2\n            /* \"#utility.yul\":1805:1829   */\n          tag_34\n          jump\t// in\n        tag_62:\n            /* \"#utility.yul\":1800:1803   */\n          dup3\n            /* \"#utility.yul\":1793:1830   */\n          mstore\n            /* \"#utility.yul\":1718:1836   */\n          pop\n          pop\n          jump\t// out\n            /* \"#utility.yul\":1842:2064   */\n        tag_9:\n            /* \"#utility.yul\":1935:1939   */\n          0x00\n            /* \"#utility.yul\":1973:1975   */\n          0x20\n            /* \"#utility.yul\":1962:1971   */\n          dup3\n            /* \"#utility.yul\":1958:1976   */\n          add\n            /* \"#utility.yul\":1950:1976   */\n          swap1\n          pop\n            /* \"#utility.yul\":1986:2057   */\n          tag_64\n            /* \"#utility.yul\":2054:2055   */\n          0x00\n            /* \"#utility.yul\":2043:2052   */\n          dup4\n            /* \"#utility.yul\":2039:2056   */\n          add\n            /* \"#utility.yul\":2030:2036   */\n          dup5\n            /* \"#utility.yul\":1986:2057   */\n          tag_37\n          jump\t// in\n        tag_64:\n            /* \"#utility.yul\":1842:2064   */\n          swap3\n          swap2\n          pop\n          pop\n          jump\t// out\n            /* \"Library.sol\":529:4040  contract Library {... */\n        tag_26:\n          dataSize(sub_0)\n          dup1\n          dataOffset(sub_0)\n          0x00\n          codecopy\n          0x00\n          return\n        stop\n\n        sub_0: assembly {\n                /* \"Library.sol\":529:4040  contract Library {... */\n              mstore(0x40, 0x80)\n              jumpi(tag_1, lt(calldatasize, 0x04))\n              shr(0xe0, calldataload(0x00))\n              dup1\n              0x8da5cb5b\n              gt\n              tag_14\n              jumpi\n              dup1\n              0x8da5cb5b\n              eq\n              tag_8\n              jumpi\n              dup1\n              0x90272dff\n              eq\n              tag_9\n              jumpi\n              dup1\n              0xa54925dd\n              eq\n              tag_10\n              jumpi\n              dup1\n              0xc162d7da\n              eq\n              tag_11\n              jumpi\n              dup1\n              0xca5140c9\n              eq\n              tag_12\n              jumpi\n              dup1\n              0xfe69494b\n              eq\n              tag_13\n              jumpi\n              jump(tag_1)\n            tag_14:\n              dup1\n              0x0cc21200\n              eq\n              tag_2\n              jumpi\n              dup1\n              0x1973db46\n              eq\n              tag_3\n              jumpi\n              dup1\n              0x1a8c3eec\n              eq\n              tag_4\n              jumpi\n              dup1\n              0x1aa3a008\n              eq\n              tag_5\n              jumpi\n              dup1\n              0x687564ae\n              eq\n              tag_6\n              jumpi\n              dup1\n              0x7e490a9e\n              eq\n              tag_7\n              jumpi\n            tag_1:\n              0x00\n              dup1\n              revert\n                /* \"Library.sol\":2049:2256  function modifyBook( uint _bookIndex, string memory _bookId, string memory _title, uint _price)... */\n            tag_2:\n              callvalue\n              dup1\n              iszero\n              tag_15\n              jumpi\n              0x00\n              dup1\n              revert\n            tag_15:\n              pop\n              tag_16\n              0x04\n              dup1\n              calldatasize\n              sub\n              dup2\n              add\n              swap1\n              tag_17\n              swap2\n              swap1\n              tag_18\n              jump\t// in\n            tag_17:\n              tag_19\n              jump\t// in\n            tag_16:\n              stop\n                /* \"Library.sol\":2458:2853  function createBookToken(uint _bookIndex, uint _period, uint _cost) public userRestricted payable {... */\n            tag_3:\n              tag_20\n              0x04\n              dup1\n              calldatasize\n              sub\n              dup2\n              add\n              swap1\n              tag_21\n              swap2\n              swap1\n              tag_22\n              jump\t// in\n            tag_21:\n              tag_23\n              jump\t// in\n            tag_20:\n              stop\n                /* \"Library.sol\":2919:3081  function allowTokenToContract(uint _tokenId, bool _status) public userRestricted payable {... */\n            tag_4:\n              tag_24\n              0x04\n              dup1\n              calldatasize\n              sub\n              dup2\n              add\n              swap1\n              tag_25\n              swap2\n              swap1\n              tag_26\n              jump\t// in\n            tag_25:\n              tag_27\n              jump\t// in\n            tag_24:\n              stop\n                /* \"Library.sol\":1676:1752  function register() public {... */\n            tag_5:\n              callvalue\n              dup1\n              iszero\n              tag_28\n              jumpi\n              0x00\n              dup1\n              revert\n            tag_28:\n              pop\n              tag_29\n              tag_30\n              jump\t// in\n            tag_29:\n              stop\n                /* \"Library.sol\":1774:2024  function addBook(string memory _bookId, string memory _title, uint _price, address _authorAddress) public restricted {... */\n            tag_6:\n              callvalue\n              dup1\n              iszero\n              tag_31\n              jumpi\n              0x00\n              dup1\n              revert\n            tag_31:\n              pop\n              tag_32\n              0x04\n              dup1\n              calldatasize\n              sub\n              dup2\n              add\n              swap1\n              tag_33\n              swap2\n              swap1\n              tag_34\n              jump\t// in\n            tag_33:\n              tag_35\n              jump\t// in\n            tag_32:\n              stop\n                /* \"Library.sol\":3106:3596  function borrowBook(uint _tokenId) public userRestricted payable {... */\n            tag_7:\n              tag_36\n              0x04\n              dup1\n              calldatasize\n              sub\n              dup2\n              add\n              swap1\n              tag_37\n              swap2\n              swap1\n              tag_38\n              jump\t// in\n            tag_37:\n              tag_39\n              jump\t// in\n            tag_36:\n              stop\n                /* \"Library.sol\":552:572  address public owner */\n            tag_8:\n              callvalue\n              dup1\n              iszero\n              tag_40\n              jumpi\n              0x00\n              dup1\n              revert\n            tag_40:\n              pop\n              tag_41\n              tag_42\n              jump\t// in\n            tag_41:\n              mload(0x40)\n              tag_43\n              swap2\n              swap1\n              tag_44\n              jump\t// in\n            tag_43:\n              mload(0x40)\n              dup1\n              swap2\n              sub\n              swap1\n              return\n                /* \"Library.sol\":727:751  uint public maxBorrowing */\n            tag_9:\n              callvalue\n              dup1\n              iszero\n              tag_45\n              jumpi\n              0x00\n              dup1\n              revert\n            tag_45:\n              pop\n              tag_46\n              tag_47\n              jump\t// in\n            tag_46:\n              mload(0x40)\n              tag_48\n              swap2\n              swap1\n              tag_49\n              jump\t// in\n            tag_48:\n              mload(0x40)\n              dup1\n              swap2\n              sub\n              swap1\n              return\n                /* \"Library.sol\":2262:2426  function changeAuthorAddress(uint _bookIndex, address _authorAddress) public restricted {... */\n            tag_10:\n              callvalue\n              dup1\n              iszero\n              tag_50\n              jumpi\n              0x00\n              dup1\n              revert\n            tag_50:\n              pop\n              tag_51\n              0x04\n              dup1\n              calldatasize\n              sub\n              dup2\n              add\n              swap1\n              tag_52\n              swap2\n              swap1\n              tag_53\n              jump\t// in\n            tag_52:\n              tag_54\n              jump\t// in\n            tag_51:\n              stop\n                /* \"Library.sol\":3921:4038  function getManagerAddress() external restricted view returns(address[] memory){... */\n            tag_11:\n              callvalue\n              dup1\n              iszero\n              tag_55\n              jumpi\n              0x00\n              dup1\n              revert\n            tag_55:\n              pop\n              tag_56\n              tag_57\n              jump\t// in\n            tag_56:\n              mload(0x40)\n              tag_58\n              swap2\n              swap1\n              tag_59\n              jump\t// in\n            tag_58:\n              mload(0x40)\n              dup1\n              swap2\n              sub\n              swap1\n              return\n                /* \"Library.sol\":3621:3883  function returnBook(uint _tokenId) public userRestricted {... */\n            tag_12:\n              callvalue\n              dup1\n              iszero\n              tag_60\n              jumpi\n              0x00\n              dup1\n              revert\n            tag_60:\n              pop\n              tag_61\n              0x04\n              dup1\n              calldatasize\n              sub\n              dup2\n              add\n              swap1\n              tag_62\n              swap2\n              swap1\n              tag_38\n              jump\t// in\n            tag_62:\n              tag_63\n              jump\t// in\n            tag_61:\n              stop\n                /* \"Library.sol\":1533:1649  function inviteStaff(address _staffAddress) public restricted{... */\n            tag_13:\n              callvalue\n              dup1\n              iszero\n              tag_64\n              jumpi\n              0x00\n              dup1\n              revert\n            tag_64:\n              pop\n              tag_65\n              0x04\n              dup1\n              calldatasize\n              sub\n              dup2\n              add\n              swap1\n              tag_66\n              swap2\n              swap1\n              tag_67\n              jump\t// in\n            tag_66:\n              tag_68\n              jump\t// in\n            tag_65:\n              stop\n                /* \"Library.sol\":2049:2256  function modifyBook( uint _bookIndex, string memory _bookId, string memory _title, uint _price)... */\n            tag_19:\n                /* \"Library.sol\":992:1003  userManager */\n              0x02\n              0x00\n              swap1\n              sload\n              swap1\n              0x0100\n              exp\n              swap1\n              div\n              0xffffffffffffffffffffffffffffffffffffffff\n              and\n                /* \"Library.sol\":992:1014  userManager.getIsStaff */\n              0xffffffffffffffffffffffffffffffffffffffff\n              and\n              0x4172fb89\n                /* \"Library.sol\":1015:1025  msg.sender */\n              caller\n                /* \"Library.sol\":992:1026  userManager.getIsStaff(msg.sender) */\n              mload(0x40)\n              dup3\n              0xffffffff\n              and\n              0xe0\n              shl\n              dup2\n              mstore\n              0x04\n              add\n              tag_70\n              swap2\n              swap1\n              tag_44\n              jump\t// in\n            tag_70:\n              0x20\n              mload(0x40)\n              dup1\n              dup4\n              sub\n              dup2\n              dup7\n              gas\n              staticcall\n              iszero\n              dup1\n              iszero\n              tag_72\n              jumpi\n              returndatasize\n              0x00\n              dup1\n              returndatacopy\n              revert(0x00, returndatasize)\n            tag_72:\n              pop\n              pop\n              pop\n              pop\n              mload(0x40)\n              returndatasize\n              not(0x1f)\n              0x1f\n              dup3\n              add\n              and\n              dup3\n              add\n              dup1\n              0x40\n              mstore\n              pop\n              dup2\n              add\n              swap1\n              tag_73\n              swap2\n              swap1\n              tag_74\n              jump\t// in\n            tag_73:\n                /* \"Library.sol\":984:1027  require(userManager.getIsStaff(msg.sender)) */\n              tag_75\n              jumpi\n              0x00\n              dup1\n              revert\n            tag_75:\n                /* \"Library.sol\":2190:2201  bookManager */\n              0x01\n              0x00\n              swap1\n              sload\n              swap1\n              0x0100\n              exp\n              swap1\n              div\n              0xffffffffffffffffffffffffffffffffffffffff\n              and\n                /* \"Library.sol\":2190:2212  bookManager.modifyBook */\n              0xffffffffffffffffffffffffffffffffffffffff\n              and\n              0x0cc21200\n                /* \"Library.sol\":2213:2223  _bookIndex */\n              dup6\n                /* \"Library.sol\":2225:2232  _bookId */\n              dup6\n                /* \"Library.sol\":2234:2240  _title */\n              dup6\n                /* \"Library.sol\":2242:2248  _price */\n              dup6\n                /* \"Library.sol\":2190:2249  bookManager.modifyBook(_bookIndex, _bookId, _title, _price) */\n              mload(0x40)\n              dup6\n              0xffffffff\n              and\n              0xe0\n              shl\n              dup2\n              mstore\n              0x04\n              add\n              tag_77\n              swap5\n              swap4\n              swap3\n              swap2\n              swap1\n              tag_78\n              jump\t// in\n            tag_77:\n              0x00\n              mload(0x40)\n              dup1\n              dup4\n              sub\n              dup2\n              0x00\n              dup8\n              dup1\n              extcodesize\n              iszero\n              dup1\n              iszero\n              tag_79\n              jumpi\n              0x00\n              dup1\n              revert\n            tag_79:\n              pop\n              gas\n              call\n              iszero\n              dup1\n              iszero\n              tag_81\n              jumpi\n              returndatasize\n              0x00\n              dup1\n              returndatacopy\n              revert(0x00, returndatasize)\n            tag_81:\n              pop\n              pop\n              pop\n              pop\n                /* \"Library.sol\":2049:2256  function modifyBook( uint _bookIndex, string memory _bookId, string memory _title, uint _price)... */\n              pop\n              pop\n              pop\n              pop\n              jump\t// out\n                /* \"Library.sol\":2458:2853  function createBookToken(uint _bookIndex, uint _period, uint _cost) public userRestricted payable {... */\n            tag_23:\n                /* \"Library.sol\":885:896  userManager */\n              0x02\n              0x00\n              swap1\n              sload\n              swap1\n              0x0100\n              exp\n              swap1\n              div\n              0xffffffffffffffffffffffffffffffffffffffff\n              and\n                /* \"Library.sol\":885:911  userManager.getIsValidUser */\n              0xffffffffffffffffffffffffffffffffffffffff\n              and\n              0xecded204\n                /* \"Library.sol\":912:922  msg.sender */\n              caller\n                /* \"Library.sol\":885:923  userManager.getIsValidUser(msg.sender) */\n              mload(0x40)\n              dup3\n              0xffffffff\n              and\n              0xe0\n              shl\n              dup2\n              mstore\n              0x04\n              add\n              tag_83\n              swap2\n              swap1\n              tag_44\n              jump\t// in\n            tag_83:\n              0x20\n              mload(0x40)\n              dup1\n              dup4\n              sub\n              dup2\n              dup7\n              gas\n              staticcall\n              iszero\n              dup1\n              iszero\n              tag_85\n              jumpi\n              returndatasize\n              0x00\n              dup1\n              returndatacopy\n              revert(0x00, returndatasize)\n            tag_85:\n              pop\n              pop\n              pop\n              pop\n              mload(0x40)\n              returndatasize\n              not(0x1f)\n              0x1f\n              dup3\n              add\n              and\n              dup3\n              add\n              dup1\n              0x40\n              mstore\n              pop\n              dup2\n              add\n              swap1\n              tag_86\n              swap2\n              swap1\n              tag_74\n              jump\t// in\n            tag_86:\n                /* \"Library.sol\":877:924  require(userManager.getIsValidUser(msg.sender)) */\n              tag_87\n              jumpi\n              0x00\n              dup1\n              revert\n            tag_87:\n                /* \"Library.sol\":2566:2576  uint price */\n              0x00\n                /* \"Library.sol\":2579:2590  bookManager */\n              0x01\n              0x00\n              swap1\n              sload\n              swap1\n              0x0100\n              exp\n              swap1\n              div\n              0xffffffffffffffffffffffffffffffffffffffff\n              and\n                /* \"Library.sol\":2579:2603  bookManager.getBookPrice */\n              0xffffffffffffffffffffffffffffffffffffffff\n              and\n              0x6c230eef\n                /* \"Library.sol\":2604:2614  _bookIndex */\n              dup6\n                /* \"Library.sol\":2579:2615  bookManager.getBookPrice(_bookIndex) */\n              mload(0x40)\n              dup3\n              0xffffffff\n              and\n              0xe0\n              shl\n              dup2\n              mstore\n              0x04\n              add\n              tag_89\n              swap2\n              swap1\n              tag_49\n              jump\t// in\n            tag_89:\n              0x20\n              mload(0x40)\n              dup1\n              dup4\n              sub\n              dup2\n              dup7\n              gas\n              staticcall\n              iszero\n              dup1\n              iszero\n              tag_91\n              jumpi\n              returndatasize\n              0x00\n              dup1\n              returndatacopy\n              revert(0x00, returndatasize)\n            tag_91:\n              pop\n              pop\n              pop\n              pop\n              mload(0x40)\n              returndatasize\n              not(0x1f)\n              0x1f\n              dup3\n              add\n              and\n              dup3\n              add\n              dup1\n              0x40\n              mstore\n              pop\n              dup2\n              add\n              swap1\n              tag_92\n              swap2\n              swap1\n              tag_93\n              jump\t// in\n            tag_92:\n                /* \"Library.sol\":2566:2615  uint price = bookManager.getBookPrice(_bookIndex) */\n              swap1\n              pop\n                /* \"Library.sol\":2642:2651  msg.value */\n              callvalue\n                /* \"Library.sol\":2633:2638  price */\n              dup2\n                /* \"Library.sol\":2633:2651  price == msg.value */\n              eq\n                /* \"Library.sol\":2625:2652  require(price == msg.value) */\n              tag_94\n              jumpi\n              0x00\n              dup1\n              revert\n            tag_94:\n                /* \"Library.sol\":2662:2674  uint tokenId */\n              0x00\n                /* \"Library.sol\":2677:2689  tokenManager */\n              0x03\n              0x00\n              swap1\n              sload\n              swap1\n              0x0100\n              exp\n              swap1\n              div\n              0xffffffffffffffffffffffffffffffffffffffff\n              and\n                /* \"Library.sol\":2677:2705  tokenManager.createBookToken */\n              0xffffffffffffffffffffffffffffffffffffffff\n              and\n              0xa46d8ac7\n                /* \"Library.sol\":2706:2716  msg.sender */\n              caller\n                /* \"Library.sol\":2718:2728  _bookIndex */\n              dup8\n                /* \"Library.sol\":2730:2737  _period */\n              dup8\n                /* \"Library.sol\":2739:2744  _cost */\n              dup8\n                /* \"Library.sol\":2677:2745  tokenManager.createBookToken(msg.sender, _bookIndex, _period, _cost) */\n              mload(0x40)\n              dup6\n              0xffffffff\n              and\n              0xe0\n              shl\n              dup2\n              mstore\n              0x04\n              add\n              tag_95\n              swap5\n              swap4\n              swap3\n              swap2\n              swap1\n              tag_96\n              jump\t// in\n            tag_95:\n              0x20\n              mload(0x40)\n              dup1\n              dup4\n              sub\n              dup2\n              0x00\n              dup8\n              gas\n              call\n              iszero\n              dup1\n              iszero\n              tag_98\n              jumpi\n              returndatasize\n              0x00\n              dup1\n              returndatacopy\n              revert(0x00, returndatasize)\n            tag_98:\n              pop\n              pop\n              pop\n              pop\n              mload(0x40)\n              returndatasize\n              not(0x1f)\n              0x1f\n              dup3\n              add\n              and\n              dup3\n              add\n              dup1\n              0x40\n              mstore\n              pop\n              dup2\n              add\n              swap1\n              tag_99\n              swap2\n              swap1\n              tag_93\n              jump\t// in\n            tag_99:\n                /* \"Library.sol\":2662:2745  uint tokenId = tokenManager.createBookToken(msg.sender, _bookIndex, _period, _cost) */\n              swap1\n              pop\n                /* \"Library.sol\":2755:2766  userManager */\n              0x02\n              0x00\n              swap1\n              sload\n              swap1\n              0x0100\n              exp\n              swap1\n              div\n              0xffffffffffffffffffffffffffffffffffffffff\n              and\n                /* \"Library.sol\":2755:2776  userManager.purchased */\n              0xffffffffffffffffffffffffffffffffffffffff\n              and\n              0xe597ef12\n                /* \"Library.sol\":2777:2787  msg.sender */\n              caller\n                /* \"Library.sol\":2789:2796  tokenId */\n              dup4\n                /* \"Library.sol\":2755:2797  userManager.purchased(msg.sender, tokenId) */\n              mload(0x40)\n              dup4\n              0xffffffff\n              and\n              0xe0\n              shl\n              dup2\n              mstore\n              0x04\n              add\n              tag_100\n              swap3\n              swap2\n              swap1\n              tag_101\n              jump\t// in\n            tag_100:\n              0x00\n              mload(0x40)\n              dup1\n              dup4\n              sub\n              dup2\n              0x00\n              dup8\n              dup1\n              extcodesize\n              iszero\n              dup1\n              iszero\n              tag_102\n              jumpi\n              0x00\n              dup1\n              revert\n            tag_102:\n              pop\n              gas\n              call\n              iszero\n              dup1\n              iszero\n              tag_104\n              jumpi\n              returndatasize\n              0x00\n              dup1\n              returndatacopy\n              revert(0x00, returndatasize)\n            tag_104:\n              pop\n              pop\n              pop\n              pop\n                /* \"Library.sol\":2807:2818  bookManager */\n              0x01\n              0x00\n              swap1\n              sload\n              swap1\n              0x0100\n              exp\n              swap1\n              div\n              0xffffffffffffffffffffffffffffffffffffffff\n              and\n                /* \"Library.sol\":2807:2831  bookManager.tokenCreated */\n              0xffffffffffffffffffffffffffffffffffffffff\n              and\n              0x0a6b2a25\n                /* \"Library.sol\":2832:2842  _bookIndex */\n              dup7\n                /* \"Library.sol\":2807:2843  bookManager.tokenCreated(_bookIndex) */\n              mload(0x40)\n              dup3\n              0xffffffff\n              and\n              0xe0\n              shl\n              dup2\n              mstore\n              0x04\n              add\n              tag_105\n              swap2\n              swap1\n              tag_49\n              jump\t// in\n            tag_105:\n              0x00\n              mload(0x40)\n              dup1\n              dup4\n              sub\n              dup2\n              0x00\n              dup8\n              dup1\n              extcodesize\n              iszero\n              dup1\n              iszero\n              tag_106\n              jumpi\n              0x00\n              dup1\n              revert\n            tag_106:\n              pop\n              gas\n              call\n              iszero\n              dup1\n              iszero\n              tag_108\n              jumpi\n              returndatasize\n              0x00\n              dup1\n              returndatacopy\n              revert(0x00, returndatasize)\n            tag_108:\n              pop\n              pop\n              pop\n              pop\n                /* \"Library.sol\":2556:2853  {... */\n              pop\n              pop\n                /* \"Library.sol\":2458:2853  function createBookToken(uint _bookIndex, uint _period, uint _cost) public userRestricted payable {... */\n              pop\n              pop\n              pop\n              jump\t// out\n                /* \"Library.sol\":2919:3081  function allowTokenToContract(uint _tokenId, bool _status) public userRestricted payable {... */\n            tag_27:\n                /* \"Library.sol\":885:896  userManager */\n              0x02\n              0x00\n              swap1\n              sload\n              swap1\n              0x0100\n              exp\n              swap1\n              div\n              0xffffffffffffffffffffffffffffffffffffffff\n              and\n                /* \"Library.sol\":885:911  userManager.getIsValidUser */\n              0xffffffffffffffffffffffffffffffffffffffff\n              and\n              0xecded204\n                /* \"Library.sol\":912:922  msg.sender */\n              caller\n                /* \"Library.sol\":885:923  userManager.getIsValidUser(msg.sender) */\n              mload(0x40)\n              dup3\n              0xffffffff\n              and\n              0xe0\n              shl\n              dup2\n              mstore\n              0x04\n              add\n              tag_110\n              swap2\n              swap1\n              tag_44\n              jump\t// in\n            tag_110:\n              0x20\n              mload(0x40)\n              dup1\n              dup4\n              sub\n              dup2\n              dup7\n              gas\n              staticcall\n              iszero\n              dup1\n              iszero\n              tag_112\n              jumpi\n              returndatasize\n              0x00\n              dup1\n              returndatacopy\n              revert(0x00, returndatasize)\n            tag_112:\n              pop\n              pop\n              pop\n              pop\n              mload(0x40)\n              returndatasize\n              not(0x1f)\n              0x1f\n              dup3\n              add\n              and\n              dup3\n              add\n              dup1\n              0x40\n              mstore\n              pop\n              dup2\n              add\n              swap1\n              tag_113\n              swap2\n              swap1\n              tag_74\n              jump\t// in\n            tag_113:\n                /* \"Library.sol\":877:924  require(userManager.getIsValidUser(msg.sender)) */\n              tag_114\n              jumpi\n              0x00\n              dup1\n              revert\n            tag_114:\n                /* \"Library.sol\":3018:3030  tokenManager */\n              0x03\n              0x00\n              swap1\n              sload\n              swap1\n              0x0100\n              exp\n              swap1\n              div\n              0xffffffffffffffffffffffffffffffffffffffff\n              and\n                /* \"Library.sol\":3018:3055  tokenManager.changeAllowabilityStatus */\n              0xffffffffffffffffffffffffffffffffffffffff\n              and\n              0xef228c92\n                /* \"Library.sol\":3056:3064  _tokenId */\n              dup4\n                /* \"Library.sol\":3066:3073  _status */\n              dup4\n                /* \"Library.sol\":3018:3074  tokenManager.changeAllowabilityStatus(_tokenId, _status) */\n              mload(0x40)\n              dup4\n              0xffffffff\n              and\n              0xe0\n              shl\n              dup2\n              mstore\n              0x04\n              add\n              tag_116\n              swap3\n              swap2\n              swap1\n              tag_117\n              jump\t// in\n            tag_116:\n              0x00\n              mload(0x40)\n              dup1\n              dup4\n              sub\n              dup2\n              0x00\n              dup8\n              dup1\n              extcodesize\n              iszero\n              dup1\n              iszero\n              tag_118\n              jumpi\n              0x00\n              dup1\n              revert\n            tag_118:\n              pop\n              gas\n              call\n              iszero\n              dup1\n              iszero\n              tag_120\n              jumpi\n              returndatasize\n              0x00\n              dup1\n              returndatacopy\n              revert(0x00, returndatasize)\n            tag_120:\n              pop\n              pop\n              pop\n              pop\n                /* \"Library.sol\":2919:3081  function allowTokenToContract(uint _tokenId, bool _status) public userRestricted payable {... */\n              pop\n              pop\n              jump\t// out\n                /* \"Library.sol\":1676:1752  function register() public {... */\n            tag_30:\n                /* \"Library.sol\":1713:1724  userManager */\n              0x02\n              0x00\n              swap1\n              sload\n              swap1\n              0x0100\n              exp\n              swap1\n              div\n              0xffffffffffffffffffffffffffffffffffffffff\n              and\n                /* \"Library.sol\":1713:1733  userManager.register */\n              0xffffffffffffffffffffffffffffffffffffffff\n              and\n              0x4420e486\n                /* \"Library.sol\":1734:1744  msg.sender */\n              caller\n                /* \"Library.sol\":1713:1745  userManager.register(msg.sender) */\n              mload(0x40)\n              dup3\n              0xffffffff\n              and\n              0xe0\n              shl\n              dup2\n              mstore\n              0x04\n              add\n              tag_122\n              swap2\n              swap1\n              tag_44\n              jump\t// in\n            tag_122:\n              0x00\n              mload(0x40)\n              dup1\n              dup4\n              sub\n              dup2\n              0x00\n              dup8\n              dup1\n              extcodesize\n              iszero\n              dup1\n              iszero\n              tag_123\n              jumpi\n              0x00\n              dup1\n              revert\n            tag_123:\n              pop\n              gas\n              call\n              iszero\n              dup1\n              iszero\n              tag_125\n              jumpi\n              returndatasize\n              0x00\n              dup1\n              returndatacopy\n              revert(0x00, returndatasize)\n            tag_125:\n              pop\n              pop\n              pop\n              pop\n                /* \"Library.sol\":1676:1752  function register() public {... */\n              jump\t// out\n                /* \"Library.sol\":1774:2024  function addBook(string memory _bookId, string memory _title, uint _price, address _authorAddress) public restricted {... */\n            tag_35:\n                /* \"Library.sol\":807:817  msg.sender */\n              caller\n                /* \"Library.sol\":798:817  owner == msg.sender */\n              0xffffffffffffffffffffffffffffffffffffffff\n              and\n                /* \"Library.sol\":798:803  owner */\n              0x00\n              dup1\n              sload\n              swap1\n              0x0100\n              exp\n              swap1\n              div\n              0xffffffffffffffffffffffffffffffffffffffff\n              and\n                /* \"Library.sol\":798:817  owner == msg.sender */\n              0xffffffffffffffffffffffffffffffffffffffff\n              and\n              eq\n                /* \"Library.sol\":790:818  require(owner == msg.sender) */\n              tag_127\n              jumpi\n              0x00\n              dup1\n              revert\n            tag_127:\n                /* \"Library.sol\":1910:1921  bookManager */\n              0x01\n              0x00\n              swap1\n              sload\n              swap1\n              0x0100\n              exp\n              swap1\n              div\n              0xffffffffffffffffffffffffffffffffffffffff\n              and\n                /* \"Library.sol\":1910:1937  bookManager.getIsStoredBook */\n              0xffffffffffffffffffffffffffffffffffffffff\n              and\n              0xe71448a9\n                /* \"Library.sol\":1938:1945  _bookId */\n              dup6\n                /* \"Library.sol\":1910:1946  bookManager.getIsStoredBook(_bookId) */\n              mload(0x40)\n              dup3\n              0xffffffff\n              and\n              0xe0\n              shl\n              dup2\n              mstore\n              0x04\n              add\n              tag_129\n              swap2\n              swap1\n              tag_130\n              jump\t// in\n            tag_129:\n              0x20\n              mload(0x40)\n              dup1\n              dup4\n              sub\n              dup2\n              dup7\n              gas\n              staticcall\n              iszero\n              dup1\n              iszero\n              tag_132\n              jumpi\n              returndatasize\n              0x00\n              dup1\n              returndatacopy\n              revert(0x00, returndatasize)\n            tag_132:\n              pop\n              pop\n              pop\n              pop\n              mload(0x40)\n              returndatasize\n              not(0x1f)\n              0x1f\n              dup3\n              add\n              and\n              dup3\n              add\n              dup1\n              0x40\n              mstore\n              pop\n              dup2\n              add\n              swap1\n              tag_133\n              swap2\n              swap1\n              tag_74\n              jump\t// in\n            tag_133:\n                /* \"Library.sol\":1909:1946  !bookManager.getIsStoredBook(_bookId) */\n              iszero\n                /* \"Library.sol\":1901:1947  require(!bookManager.getIsStoredBook(_bookId)) */\n              tag_134\n              jumpi\n              0x00\n              dup1\n              revert\n            tag_134:\n                /* \"Library.sol\":1957:1968  bookManager */\n              0x01\n              0x00\n              swap1\n              sload\n              swap1\n              0x0100\n              exp\n              swap1\n              div\n              0xffffffffffffffffffffffffffffffffffffffff\n              and\n                /* \"Library.sol\":1957:1976  bookManager.addBook */\n              0xffffffffffffffffffffffffffffffffffffffff\n              and\n              0x687564ae\n                /* \"Library.sol\":1977:1984  _bookId */\n              dup6\n                /* \"Library.sol\":1986:1992  _title */\n              dup6\n                /* \"Library.sol\":1994:2000  _price */\n              dup6\n                /* \"Library.sol\":2002:2016  _authorAddress */\n              dup6\n                /* \"Library.sol\":1957:2017  bookManager.addBook(_bookId, _title, _price, _authorAddress) */\n              mload(0x40)\n              dup6\n              0xffffffff\n              and\n              0xe0\n              shl\n              dup2\n              mstore\n              0x04\n              add\n              tag_135\n              swap5\n              swap4\n              swap3\n              swap2\n              swap1\n              tag_136\n              jump\t// in\n            tag_135:\n              0x00\n              mload(0x40)\n              dup1\n              dup4\n              sub\n              dup2\n              0x00\n              dup8\n              dup1\n              extcodesize\n              iszero\n              dup1\n              iszero\n              tag_137\n              jumpi\n              0x00\n              dup1\n              revert\n            tag_137:\n              pop\n              gas\n              call\n              iszero\n              dup1\n              iszero\n              tag_139\n              jumpi\n              returndatasize\n              0x00\n              dup1\n              returndatacopy\n              revert(0x00, returndatasize)\n            tag_139:\n              pop\n              pop\n              pop\n              pop\n                /* \"Library.sol\":1774:2024  function addBook(string memory _bookId, string memory _title, uint _price, address _authorAddress) public restricted {... */\n              pop\n              pop\n              pop\n              pop\n              jump\t// out\n                /* \"Library.sol\":3106:3596  function borrowBook(uint _tokenId) public userRestricted payable {... */\n            tag_39:\n                /* \"Library.sol\":885:896  userManager */\n              0x02\n              0x00\n              swap1\n              sload\n              swap1\n              0x0100\n              exp\n              swap1\n              div\n              0xffffffffffffffffffffffffffffffffffffffff\n              and\n                /* \"Library.sol\":885:911  userManager.getIsValidUser */\n              0xffffffffffffffffffffffffffffffffffffffff\n              and\n              0xecded204\n                /* \"Library.sol\":912:922  msg.sender */\n              caller\n                /* \"Library.sol\":885:923  userManager.getIsValidUser(msg.sender) */\n              mload(0x40)\n              dup3\n              0xffffffff\n              and\n              0xe0\n              shl\n              dup2\n              mstore\n              0x04\n              add\n              tag_141\n              swap2\n              swap1\n              tag_44\n              jump\t// in\n            tag_141:\n              0x20\n              mload(0x40)\n              dup1\n              dup4\n              sub\n              dup2\n              dup7\n              gas\n              staticcall\n              iszero\n              dup1\n              iszero\n              tag_143\n              jumpi\n              returndatasize\n              0x00\n              dup1\n              returndatacopy\n              revert(0x00, returndatasize)\n            tag_143:\n              pop\n              pop\n              pop\n              pop\n              mload(0x40)\n              returndatasize\n              not(0x1f)\n              0x1f\n              dup3\n              add\n              and\n              dup3\n              add\n              dup1\n              0x40\n              mstore\n              pop\n              dup2\n              add\n              swap1\n              tag_144\n              swap2\n              swap1\n              tag_74\n              jump\t// in\n            tag_144:\n                /* \"Library.sol\":877:924  require(userManager.getIsValidUser(msg.sender)) */\n              tag_145\n              jumpi\n              0x00\n              dup1\n              revert\n            tag_145:\n                /* \"Library.sol\":3181:3190  uint cost */\n              0x00\n                /* \"Library.sol\":3193:3205  tokenManager */\n              0x03\n              0x00\n              swap1\n              sload\n              swap1\n              0x0100\n              exp\n              swap1\n              div\n              0xffffffffffffffffffffffffffffffffffffffff\n              and\n                /* \"Library.sol\":3193:3218  tokenManager.getTokenCost */\n              0xffffffffffffffffffffffffffffffffffffffff\n              and\n              0x1ce06944\n                /* \"Library.sol\":3219:3227  _tokenId */\n              dup4\n                /* \"Library.sol\":3193:3228  tokenManager.getTokenCost(_tokenId) */\n              mload(0x40)\n              dup3\n              0xffffffff\n              and\n              0xe0\n              shl\n              dup2\n              mstore\n              0x04\n              add\n              tag_147\n              swap2\n              swap1\n              tag_49\n              jump\t// in\n            tag_147:\n              0x20\n              mload(0x40)\n              dup1\n              dup4\n              sub\n              dup2\n              dup7\n              gas\n              staticcall\n              iszero\n              dup1\n              iszero\n              tag_149\n              jumpi\n              returndatasize\n              0x00\n              dup1\n              returndatacopy\n              revert(0x00, returndatasize)\n            tag_149:\n              pop\n              pop\n              pop\n              pop\n              mload(0x40)\n              returndatasize\n              not(0x1f)\n              0x1f\n              dup3\n              add\n              and\n              dup3\n              add\n              dup1\n              0x40\n              mstore\n              pop\n              dup2\n              add\n              swap1\n              tag_150\n              swap2\n              swap1\n              tag_93\n              jump\t// in\n            tag_150:\n                /* \"Library.sol\":3181:3228  uint cost = tokenManager.getTokenCost(_tokenId) */\n              swap1\n              pop\n                /* \"Library.sol\":3238:3255  bool tokenIsAllow */\n              0x00\n                /* \"Library.sol\":3258:3270  tokenManager */\n              0x03\n              0x00\n              swap1\n              sload\n              swap1\n              0x0100\n              exp\n              swap1\n              div\n              0xffffffffffffffffffffffffffffffffffffffff\n              and\n                /* \"Library.sol\":3258:3288  tokenManager.getTokenIsAllowed */\n              0xffffffffffffffffffffffffffffffffffffffff\n              and\n              0x98af1f07\n                /* \"Library.sol\":3289:3297  _tokenId */\n              dup5\n                /* \"Library.sol\":3258:3298  tokenManager.getTokenIsAllowed(_tokenId) */\n              mload(0x40)\n              dup3\n              0xffffffff\n              and\n              0xe0\n              shl\n              dup2\n              mstore\n              0x04\n              add\n              tag_151\n              swap2\n              swap1\n              tag_49\n              jump\t// in\n            tag_151:\n              0x20\n              mload(0x40)\n              dup1\n              dup4\n              sub\n              dup2\n              dup7\n              gas\n              staticcall\n              iszero\n              dup1\n              iszero\n              tag_153\n              jumpi\n              returndatasize\n              0x00\n              dup1\n              returndatacopy\n              revert(0x00, returndatasize)\n            tag_153:\n              pop\n              pop\n              pop\n              pop\n              mload(0x40)\n              returndatasize\n              not(0x1f)\n              0x1f\n              dup3\n              add\n              and\n              dup3\n              add\n              dup1\n              0x40\n              mstore\n              pop\n              dup2\n              add\n              swap1\n              tag_154\n              swap2\n              swap1\n              tag_74\n              jump\t// in\n            tag_154:\n                /* \"Library.sol\":3238:3298  bool tokenIsAllow = tokenManager.getTokenIsAllowed(_tokenId) */\n              swap1\n              pop\n                /* \"Library.sol\":3308:3325  uint numBorrowing */\n              0x00\n                /* \"Library.sol\":3328:3339  userManager */\n              0x02\n              0x00\n              swap1\n              sload\n              swap1\n              0x0100\n              exp\n              swap1\n              div\n              0xffffffffffffffffffffffffffffffffffffffff\n              and\n                /* \"Library.sol\":3328:3355  userManager.getNumBorrowing */\n              0xffffffffffffffffffffffffffffffffffffffff\n              and\n              0x19aa98a3\n                /* \"Library.sol\":3356:3366  msg.sender */\n              caller\n                /* \"Library.sol\":3328:3367  userManager.getNumBorrowing(msg.sender) */\n              mload(0x40)\n              dup3\n              0xffffffff\n              and\n              0xe0\n              shl\n              dup2\n              mstore\n              0x04\n              add\n              tag_155\n              swap2\n              swap1\n              tag_44\n              jump\t// in\n            tag_155:\n              0x20\n              mload(0x40)\n              dup1\n              dup4\n              sub\n              dup2\n              dup7\n              gas\n              staticcall\n              iszero\n              dup1\n              iszero\n              tag_157\n              jumpi\n              returndatasize\n              0x00\n              dup1\n              returndatacopy\n              revert(0x00, returndatasize)\n            tag_157:\n              pop\n              pop\n              pop\n              pop\n              mload(0x40)\n              returndatasize\n              not(0x1f)\n              0x1f\n              dup3\n              add\n              and\n              dup3\n              add\n              dup1\n              0x40\n              mstore\n              pop\n              dup2\n              add\n              swap1\n              tag_158\n              swap2\n              swap1\n              tag_93\n              jump\t// in\n            tag_158:\n                /* \"Library.sol\":3308:3367  uint numBorrowing = userManager.getNumBorrowing(msg.sender) */\n              swap1\n              pop\n                /* \"Library.sol\":3385:3397  tokenIsAllow */\n              dup2\n                /* \"Library.sol\":3377:3398  require(tokenIsAllow) */\n              tag_159\n              jumpi\n              0x00\n              dup1\n              revert\n            tag_159:\n                /* \"Library.sol\":3431:3443  maxBorrowing */\n              sload(0x05)\n                /* \"Library.sol\":3416:3428  numBorrowing */\n              dup2\n                /* \"Library.sol\":3416:3443  numBorrowing < maxBorrowing */\n              lt\n                /* \"Library.sol\":3408:3444  require(numBorrowing < maxBorrowing) */\n              tag_160\n              jumpi\n              0x00\n              dup1\n              revert\n            tag_160:\n                /* \"Library.sol\":3470:3479  msg.value */\n              callvalue\n                /* \"Library.sol\":3462:3466  cost */\n              dup4\n                /* \"Library.sol\":3462:3479  cost == msg.value */\n              eq\n                /* \"Library.sol\":3454:3480  require(cost == msg.value) */\n              tag_161\n              jumpi\n              0x00\n              dup1\n              revert\n            tag_161:\n                /* \"Library.sol\":3490:3502  tokenManager */\n              0x03\n              0x00\n              swap1\n              sload\n              swap1\n              0x0100\n              exp\n              swap1\n              div\n              0xffffffffffffffffffffffffffffffffffffffff\n              and\n                /* \"Library.sol\":3490:3515  tokenManager.changeReader */\n              0xffffffffffffffffffffffffffffffffffffffff\n              and\n              0xab21a2be\n                /* \"Library.sol\":3516:3524  _tokenId */\n              dup6\n                /* \"Library.sol\":3526:3536  msg.sender */\n              caller\n                /* \"Library.sol\":3490:3537  tokenManager.changeReader(_tokenId, msg.sender) */\n              mload(0x40)\n              dup4\n              0xffffffff\n              and\n              0xe0\n              shl\n              dup2\n              mstore\n              0x04\n              add\n              tag_162\n              swap3\n              swap2\n              swap1\n              tag_163\n              jump\t// in\n            tag_162:\n              0x00\n              mload(0x40)\n              dup1\n              dup4\n              sub\n              dup2\n              0x00\n              dup8\n              dup1\n              extcodesize\n              iszero\n              dup1\n              iszero\n              tag_164\n              jumpi\n              0x00\n              dup1\n              revert\n            tag_164:\n              pop\n              gas\n              call\n              iszero\n              dup1\n              iszero\n              tag_166\n              jumpi\n              returndatasize\n              0x00\n              dup1\n              returndatacopy\n              revert(0x00, returndatasize)\n            tag_166:\n              pop\n              pop\n              pop\n              pop\n                /* \"Library.sol\":3547:3558  userManager */\n              0x02\n              0x00\n              swap1\n              sload\n              swap1\n              0x0100\n              exp\n              swap1\n              div\n              0xffffffffffffffffffffffffffffffffffffffff\n              and\n                /* \"Library.sol\":3547:3567  userManager.borrowed */\n              0xffffffffffffffffffffffffffffffffffffffff\n              and\n              0xa5a9c518\n                /* \"Library.sol\":3568:3578  msg.sender */\n              caller\n                /* \"Library.sol\":3580:3588  _tokenId */\n              dup7\n                /* \"Library.sol\":3547:3589  userManager.borrowed(msg.sender, _tokenId) */\n              mload(0x40)\n              dup4\n              0xffffffff\n              and\n              0xe0\n              shl\n              dup2\n              mstore\n              0x04\n              add\n              tag_167\n              swap3\n              swap2\n              swap1\n              tag_101\n              jump\t// in\n            tag_167:\n              0x00\n              mload(0x40)\n              dup1\n              dup4\n              sub\n              dup2\n              0x00\n              dup8\n              dup1\n              extcodesize\n              iszero\n              dup1\n              iszero\n              tag_168\n              jumpi\n              0x00\n              dup1\n              revert\n            tag_168:\n              pop\n              gas\n              call\n              iszero\n              dup1\n              iszero\n              tag_170\n              jumpi\n              returndatasize\n              0x00\n              dup1\n              returndatacopy\n              revert(0x00, returndatasize)\n            tag_170:\n              pop\n              pop\n              pop\n              pop\n                /* \"Library.sol\":3171:3596  {... */\n              pop\n              pop\n              pop\n                /* \"Library.sol\":3106:3596  function borrowBook(uint _tokenId) public userRestricted payable {... */\n              pop\n              jump\t// out\n                /* \"Library.sol\":552:572  address public owner */\n            tag_42:\n              0x00\n              dup1\n              sload\n              swap1\n              0x0100\n              exp\n              swap1\n              div\n              0xffffffffffffffffffffffffffffffffffffffff\n              and\n              dup2\n              jump\t// out\n                /* \"Library.sol\":727:751  uint public maxBorrowing */\n            tag_47:\n              sload(0x05)\n              dup2\n              jump\t// out\n                /* \"Library.sol\":2262:2426  function changeAuthorAddress(uint _bookIndex, address _authorAddress) public restricted {... */\n            tag_54:\n                /* \"Library.sol\":807:817  msg.sender */\n              caller\n                /* \"Library.sol\":798:817  owner == msg.sender */\n              0xffffffffffffffffffffffffffffffffffffffff\n              and\n                /* \"Library.sol\":798:803  owner */\n              0x00\n              dup1\n              sload\n              swap1\n              0x0100\n              exp\n              swap1\n              div\n              0xffffffffffffffffffffffffffffffffffffffff\n              and\n                /* \"Library.sol\":798:817  owner == msg.sender */\n              0xffffffffffffffffffffffffffffffffffffffff\n              and\n              eq\n                /* \"Library.sol\":790:818  require(owner == msg.sender) */\n              tag_172\n              jumpi\n              0x00\n              dup1\n              revert\n            tag_172:\n                /* \"Library.sol\":2360:2371  bookManager */\n              0x01\n              0x00\n              swap1\n              sload\n              swap1\n              0x0100\n              exp\n              swap1\n              div\n              0xffffffffffffffffffffffffffffffffffffffff\n              and\n                /* \"Library.sol\":2360:2391  bookManager.changeAuthorAddress */\n              0xffffffffffffffffffffffffffffffffffffffff\n              and\n              0xa54925dd\n                /* \"Library.sol\":2392:2402  _bookIndex */\n              dup4\n                /* \"Library.sol\":2404:2418  _authorAddress */\n              dup4\n                /* \"Library.sol\":2360:2419  bookManager.changeAuthorAddress(_bookIndex, _authorAddress) */\n              mload(0x40)\n              dup4\n              0xffffffff\n              and\n              0xe0\n              shl\n              dup2\n              mstore\n              0x04\n              add\n              tag_174\n              swap3\n              swap2\n              swap1\n              tag_163\n              jump\t// in\n            tag_174:\n              0x00\n              mload(0x40)\n              dup1\n              dup4\n              sub\n              dup2\n              0x00\n              dup8\n              dup1\n              extcodesize\n              iszero\n              dup1\n              iszero\n              tag_175\n              jumpi\n              0x00\n              dup1\n              revert\n            tag_175:\n              pop\n              gas\n              call\n              iszero\n              dup1\n              iszero\n              tag_177\n              jumpi\n              returndatasize\n              0x00\n              dup1\n              returndatacopy\n              revert(0x00, returndatasize)\n            tag_177:\n              pop\n              pop\n              pop\n              pop\n                /* \"Library.sol\":2262:2426  function changeAuthorAddress(uint _bookIndex, address _authorAddress) public restricted {... */\n              pop\n              pop\n              jump\t// out\n                /* \"Library.sol\":3921:4038  function getManagerAddress() external restricted view returns(address[] memory){... */\n            tag_57:\n                /* \"Library.sol\":3983:3999  address[] memory */\n              0x60\n                /* \"Library.sol\":807:817  msg.sender */\n              caller\n                /* \"Library.sol\":798:817  owner == msg.sender */\n              0xffffffffffffffffffffffffffffffffffffffff\n              and\n                /* \"Library.sol\":798:803  owner */\n              0x00\n              dup1\n              sload\n              swap1\n              0x0100\n              exp\n              swap1\n              div\n              0xffffffffffffffffffffffffffffffffffffffff\n              and\n                /* \"Library.sol\":798:817  owner == msg.sender */\n              0xffffffffffffffffffffffffffffffffffffffff\n              and\n              eq\n                /* \"Library.sol\":790:818  require(owner == msg.sender) */\n              tag_179\n              jumpi\n              0x00\n              dup1\n              revert\n            tag_179:\n                /* \"Library.sol\":4017:4031  managerAddress */\n              0x04\n                /* \"Library.sol\":4010:4031  return managerAddress */\n              dup1\n              sload\n              dup1\n              0x20\n              mul\n              0x20\n              add\n              mload(0x40)\n              swap1\n              dup2\n              add\n              0x40\n              mstore\n              dup1\n              swap3\n              swap2\n              swap1\n              dup2\n              dup2\n              mstore\n              0x20\n              add\n              dup3\n              dup1\n              sload\n              dup1\n              iszero\n              tag_181\n              jumpi\n              0x20\n              mul\n              dup3\n              add\n              swap2\n              swap1\n              0x00\n              mstore\n              keccak256(0x00, 0x20)\n              swap1\n            tag_182:\n              dup2\n              0x00\n              swap1\n              sload\n              swap1\n              0x0100\n              exp\n              swap1\n              div\n              0xffffffffffffffffffffffffffffffffffffffff\n              and\n              0xffffffffffffffffffffffffffffffffffffffff\n              and\n              dup2\n              mstore\n              0x20\n              add\n              swap1\n              0x01\n              add\n              swap1\n              dup1\n              dup4\n              gt\n              tag_182\n              jumpi\n            tag_181:\n              pop\n              pop\n              pop\n              pop\n              pop\n              swap1\n              pop\n                /* \"Library.sol\":3921:4038  function getManagerAddress() external restricted view returns(address[] memory){... */\n              swap1\n              jump\t// out\n                /* \"Library.sol\":3621:3883  function returnBook(uint _tokenId) public userRestricted {... */\n            tag_63:\n                /* \"Library.sol\":885:896  userManager */\n              0x02\n              0x00\n              swap1\n              sload\n              swap1\n              0x0100\n              exp\n              swap1\n              div\n              0xffffffffffffffffffffffffffffffffffffffff\n              and\n                /* \"Library.sol\":885:911  userManager.getIsValidUser */\n              0xffffffffffffffffffffffffffffffffffffffff\n              and\n              0xecded204\n                /* \"Library.sol\":912:922  msg.sender */\n              caller\n                /* \"Library.sol\":885:923  userManager.getIsValidUser(msg.sender) */\n              mload(0x40)\n              dup3\n              0xffffffff\n              and\n              0xe0\n              shl\n              dup2\n              mstore\n              0x04\n              add\n              tag_184\n              swap2\n              swap1\n              tag_44\n              jump\t// in\n            tag_184:\n              0x20\n              mload(0x40)\n              dup1\n              dup4\n              sub\n              dup2\n              dup7\n              gas\n              staticcall\n              iszero\n              dup1\n              iszero\n              tag_186\n              jumpi\n              returndatasize\n              0x00\n              dup1\n              returndatacopy\n              revert(0x00, returndatasize)\n            tag_186:\n              pop\n              pop\n              pop\n              pop\n              mload(0x40)\n              returndatasize\n              not(0x1f)\n              0x1f\n              dup3\n              add\n              and\n              dup3\n              add\n              dup1\n              0x40\n              mstore\n              pop\n              dup2\n              add\n              swap1\n              tag_187\n              swap2\n              swap1\n              tag_74\n              jump\t// in\n            tag_187:\n                /* \"Library.sol\":877:924  require(userManager.getIsValidUser(msg.sender)) */\n              tag_188\n              jumpi\n              0x00\n              dup1\n              revert\n            tag_188:\n                /* \"Library.sol\":3688:3702  address reader */\n              0x00\n                /* \"Library.sol\":3705:3717  tokenManager */\n              0x03\n              0x00\n              swap1\n              sload\n              swap1\n              0x0100\n              exp\n              swap1\n              div\n              0xffffffffffffffffffffffffffffffffffffffff\n              and\n                /* \"Library.sol\":3705:3732  tokenManager.getTokenReader */\n              0xffffffffffffffffffffffffffffffffffffffff\n              and\n              0x3b2f7118\n                /* \"Library.sol\":3733:3741  _tokenId */\n              dup4\n                /* \"Library.sol\":3705:3742  tokenManager.getTokenReader(_tokenId) */\n              mload(0x40)\n              dup3\n              0xffffffff\n              and\n              0xe0\n              shl\n              dup2\n              mstore\n              0x04\n              add\n              tag_190\n              swap2\n              swap1\n              tag_49\n              jump\t// in\n            tag_190:\n              0x20\n              mload(0x40)\n              dup1\n              dup4\n              sub\n              dup2\n              dup7\n              gas\n              staticcall\n              iszero\n              dup1\n              iszero\n              tag_192\n              jumpi\n              returndatasize\n              0x00\n              dup1\n              returndatacopy\n              revert(0x00, returndatasize)\n            tag_192:\n              pop\n              pop\n              pop\n              pop\n              mload(0x40)\n              returndatasize\n              not(0x1f)\n              0x1f\n              dup3\n              add\n              and\n              dup3\n              add\n              dup1\n              0x40\n              mstore\n              pop\n              dup2\n              add\n              swap1\n              tag_193\n              swap2\n              swap1\n              tag_194\n              jump\t// in\n            tag_193:\n                /* \"Library.sol\":3688:3742  address reader = tokenManager.getTokenReader(_tokenId) */\n              swap1\n              pop\n                /* \"Library.sol\":3770:3780  msg.sender */\n              caller\n                /* \"Library.sol\":3760:3780  reader == msg.sender */\n              0xffffffffffffffffffffffffffffffffffffffff\n              and\n                /* \"Library.sol\":3760:3766  reader */\n              dup2\n                /* \"Library.sol\":3760:3780  reader == msg.sender */\n              0xffffffffffffffffffffffffffffffffffffffff\n              and\n              eq\n                /* \"Library.sol\":3752:3781  require(reader == msg.sender) */\n              tag_195\n              jumpi\n              0x00\n              dup1\n              revert\n            tag_195:\n                /* \"Library.sol\":3791:3803  tokenManager */\n              0x03\n              0x00\n              swap1\n              sload\n              swap1\n              0x0100\n              exp\n              swap1\n              div\n              0xffffffffffffffffffffffffffffffffffffffff\n              and\n                /* \"Library.sol\":3791:3814  tokenManager.returnBook */\n              0xffffffffffffffffffffffffffffffffffffffff\n              and\n              0xca5140c9\n                /* \"Library.sol\":3815:3823  _tokenId */\n              dup4\n                /* \"Library.sol\":3791:3824  tokenManager.returnBook(_tokenId) */\n              mload(0x40)\n              dup3\n              0xffffffff\n              and\n              0xe0\n              shl\n              dup2\n              mstore\n              0x04\n              add\n              tag_196\n              swap2\n              swap1\n              tag_49\n              jump\t// in\n            tag_196:\n              0x00\n              mload(0x40)\n              dup1\n              dup4\n              sub\n              dup2\n              0x00\n              dup8\n              dup1\n              extcodesize\n              iszero\n              dup1\n              iszero\n              tag_197\n              jumpi\n              0x00\n              dup1\n              revert\n            tag_197:\n              pop\n              gas\n              call\n              iszero\n              dup1\n              iszero\n              tag_199\n              jumpi\n              returndatasize\n              0x00\n              dup1\n              returndatacopy\n              revert(0x00, returndatasize)\n            tag_199:\n              pop\n              pop\n              pop\n              pop\n                /* \"Library.sol\":3834:3845  userManager */\n              0x02\n              0x00\n              swap1\n              sload\n              swap1\n              0x0100\n              exp\n              swap1\n              div\n              0xffffffffffffffffffffffffffffffffffffffff\n              and\n                /* \"Library.sol\":3834:3854  userManager.returned */\n              0xffffffffffffffffffffffffffffffffffffffff\n              and\n              0x4a09db4f\n                /* \"Library.sol\":3855:3865  msg.sender */\n              caller\n                /* \"Library.sol\":3867:3875  _tokenId */\n              dup5\n                /* \"Library.sol\":3834:3876  userManager.returned(msg.sender, _tokenId) */\n              mload(0x40)\n              dup4\n              0xffffffff\n              and\n              0xe0\n              shl\n              dup2\n              mstore\n              0x04\n              add\n              tag_200\n              swap3\n              swap2\n              swap1\n              tag_101\n              jump\t// in\n            tag_200:\n              0x00\n              mload(0x40)\n              dup1\n              dup4\n              sub\n              dup2\n              0x00\n              dup8\n              dup1\n              extcodesize\n              iszero\n              dup1\n              iszero\n              tag_201\n              jumpi\n              0x00\n              dup1\n              revert\n            tag_201:\n              pop\n              gas\n              call\n              iszero\n              dup1\n              iszero\n              tag_203\n              jumpi\n              returndatasize\n              0x00\n              dup1\n              returndatacopy\n              revert(0x00, returndatasize)\n            tag_203:\n              pop\n              pop\n              pop\n              pop\n                /* \"Library.sol\":3678:3883  {... */\n              pop\n                /* \"Library.sol\":3621:3883  function returnBook(uint _tokenId) public userRestricted {... */\n              pop\n              jump\t// out\n                /* \"Library.sol\":1533:1649  function inviteStaff(address _staffAddress) public restricted{... */\n            tag_68:\n                /* \"Library.sol\":807:817  msg.sender */\n              caller\n                /* \"Library.sol\":798:817  owner == msg.sender */\n              0xffffffffffffffffffffffffffffffffffffffff\n              and\n                /* \"Library.sol\":798:803  owner */\n              0x00\n              dup1\n              sload\n              swap1\n              0x0100\n              exp\n              swap1\n              div\n              0xffffffffffffffffffffffffffffffffffffffff\n              and\n                /* \"Library.sol\":798:817  owner == msg.sender */\n              0xffffffffffffffffffffffffffffffffffffffff\n              and\n              eq\n                /* \"Library.sol\":790:818  require(owner == msg.sender) */\n              tag_205\n              jumpi\n              0x00\n              dup1\n              revert\n            tag_205:\n                /* \"Library.sol\":1604:1615  userManager */\n              0x02\n              0x00\n              swap1\n              sload\n              swap1\n              0x0100\n              exp\n              swap1\n              div\n              0xffffffffffffffffffffffffffffffffffffffff\n              and\n                /* \"Library.sol\":1604:1627  userManager.InviteStaff */\n              0xffffffffffffffffffffffffffffffffffffffff\n              and\n              0x7c4dd96d\n                /* \"Library.sol\":1628:1641  _staffAddress */\n              dup3\n                /* \"Library.sol\":1604:1642  userManager.InviteStaff(_staffAddress) */\n              mload(0x40)\n              dup3\n              0xffffffff\n              and\n              0xe0\n              shl\n              dup2\n              mstore\n              0x04\n              add\n              tag_207\n              swap2\n              swap1\n              tag_44\n              jump\t// in\n            tag_207:\n              0x00\n              mload(0x40)\n              dup1\n              dup4\n              sub\n              dup2\n              0x00\n              dup8\n              dup1\n              extcodesize\n              iszero\n              dup1\n              iszero\n              tag_208\n              jumpi\n              0x00\n              dup1\n              revert\n            tag_208:\n              pop\n              gas\n              call\n              iszero\n              dup1\n              iszero\n              tag_210\n              jumpi\n              returndatasize\n              0x00\n              dup1\n              returndatacopy\n              revert(0x00, returndatasize)\n            tag_210:\n              pop\n              pop\n              pop\n              pop\n                /* \"Library.sol\":1533:1649  function inviteStaff(address _staffAddress) public restricted{... */\n              pop\n              jump\t// out\n                /* \"#utility.yul\":7:82   */\n            tag_211:\n                /* \"#utility.yul\":40:46   */\n              0x00\n                /* \"#utility.yul\":73:75   */\n              0x40\n                /* \"#utility.yul\":67:76   */\n              mload\n                /* \"#utility.yul\":57:76   */\n              swap1\n              pop\n                /* \"#utility.yul\":7:82   */\n              swap1\n              jump\t// out\n                /* \"#utility.yul\":88:205   */\n            tag_212:\n                /* \"#utility.yul\":197:198   */\n              0x00\n                /* \"#utility.yul\":194:195   */\n              dup1\n                /* \"#utility.yul\":187:199   */\n              revert\n                /* \"#utility.yul\":211:328   */\n            tag_213:\n                /* \"#utility.yul\":320:321   */\n              0x00\n                /* \"#utility.yul\":317:318   */\n              dup1\n                /* \"#utility.yul\":310:322   */\n              revert\n                /* \"#utility.yul\":334:411   */\n            tag_214:\n                /* \"#utility.yul\":371:378   */\n              0x00\n                /* \"#utility.yul\":400:405   */\n              dup2\n                /* \"#utility.yul\":389:405   */\n              swap1\n              pop\n                /* \"#utility.yul\":334:411   */\n              swap2\n              swap1\n              pop\n              jump\t// out\n                /* \"#utility.yul\":417:539   */\n            tag_215:\n                /* \"#utility.yul\":490:514   */\n              tag_257\n                /* \"#utility.yul\":508:513   */\n              dup2\n                /* \"#utility.yul\":490:514   */\n              tag_214\n              jump\t// in\n            tag_257:\n                /* \"#utility.yul\":483:488   */\n              dup2\n                /* \"#utility.yul\":480:515   */\n              eq\n                /* \"#utility.yul\":470:533   */\n              tag_258\n              jumpi\n                /* \"#utility.yul\":529:530   */\n              0x00\n                /* \"#utility.yul\":526:527   */\n              dup1\n                /* \"#utility.yul\":519:531   */\n              revert\n                /* \"#utility.yul\":470:533   */\n            tag_258:\n                /* \"#utility.yul\":417:539   */\n              pop\n              jump\t// out\n                /* \"#utility.yul\":545:684   */\n            tag_216:\n                /* \"#utility.yul\":591:596   */\n              0x00\n                /* \"#utility.yul\":629:635   */\n              dup2\n                /* \"#utility.yul\":616:636   */\n              calldataload\n                /* \"#utility.yul\":607:636   */\n              swap1\n              pop\n                /* \"#utility.yul\":645:678   */\n              tag_260\n                /* \"#utility.yul\":672:677   */\n              dup2\n                /* \"#utility.yul\":645:678   */\n              tag_215\n              jump\t// in\n            tag_260:\n                /* \"#utility.yul\":545:684   */\n              swap3\n              swap2\n              pop\n              pop\n              jump\t// out\n                /* \"#utility.yul\":690:807   */\n            tag_217:\n                /* \"#utility.yul\":799:800   */\n              0x00\n                /* \"#utility.yul\":796:797   */\n              dup1\n                /* \"#utility.yul\":789:801   */\n              revert\n                /* \"#utility.yul\":813:930   */\n            tag_218:\n                /* \"#utility.yul\":922:923   */\n              0x00\n                /* \"#utility.yul\":919:920   */\n              dup1\n                /* \"#utility.yul\":912:924   */\n              revert\n                /* \"#utility.yul\":936:1038   */\n            tag_219:\n                /* \"#utility.yul\":977:983   */\n              0x00\n                /* \"#utility.yul\":1028:1030   */\n              0x1f\n                /* \"#utility.yul\":1024:1031   */\n              not\n                /* \"#utility.yul\":1019:1021   */\n              0x1f\n                /* \"#utility.yul\":1012:1017   */\n              dup4\n                /* \"#utility.yul\":1008:1022   */\n              add\n                /* \"#utility.yul\":1004:1032   */\n              and\n                /* \"#utility.yul\":994:1032   */\n              swap1\n              pop\n                /* \"#utility.yul\":936:1038   */\n              swap2\n              swap1\n              pop\n              jump\t// out\n                /* \"#utility.yul\":1044:1224   */\n            tag_220:\n                /* \"#utility.yul\":1092:1169   */\n              0x4e487b7100000000000000000000000000000000000000000000000000000000\n                /* \"#utility.yul\":1089:1090   */\n              0x00\n                /* \"#utility.yul\":1082:1170   */\n              mstore\n                /* \"#utility.yul\":1189:1193   */\n              0x41\n                /* \"#utility.yul\":1186:1187   */\n              0x04\n                /* \"#utility.yul\":1179:1194   */\n              mstore\n                /* \"#utility.yul\":1213:1217   */\n              0x24\n                /* \"#utility.yul\":1210:1211   */\n              0x00\n                /* \"#utility.yul\":1203:1218   */\n              revert\n                /* \"#utility.yul\":1230:1511   */\n            tag_221:\n                /* \"#utility.yul\":1313:1340   */\n              tag_266\n                /* \"#utility.yul\":1335:1339   */\n              dup3\n                /* \"#utility.yul\":1313:1340   */\n              tag_219\n              jump\t// in\n            tag_266:\n                /* \"#utility.yul\":1305:1311   */\n              dup2\n                /* \"#utility.yul\":1301:1341   */\n              add\n                /* \"#utility.yul\":1443:1449   */\n              dup2\n                /* \"#utility.yul\":1431:1441   */\n              dup2\n                /* \"#utility.yul\":1428:1450   */\n              lt\n                /* \"#utility.yul\":1407:1425   */\n              0xffffffffffffffff\n                /* \"#utility.yul\":1395:1405   */\n              dup3\n                /* \"#utility.yul\":1392:1426   */\n              gt\n                /* \"#utility.yul\":1389:1451   */\n              or\n                /* \"#utility.yul\":1386:1474   */\n              iszero\n              tag_267\n              jumpi\n                /* \"#utility.yul\":1454:1472   */\n              tag_268\n              tag_220\n              jump\t// in\n            tag_268:\n                /* \"#utility.yul\":1386:1474   */\n            tag_267:\n                /* \"#utility.yul\":1494:1504   */\n              dup1\n                /* \"#utility.yul\":1490:1492   */\n              0x40\n                /* \"#utility.yul\":1483:1505   */\n              mstore\n                /* \"#utility.yul\":1273:1511   */\n              pop\n                /* \"#utility.yul\":1230:1511   */\n              pop\n              pop\n              jump\t// out\n                /* \"#utility.yul\":1517:1646   */\n            tag_222:\n                /* \"#utility.yul\":1551:1557   */\n              0x00\n                /* \"#utility.yul\":1578:1598   */\n              tag_270\n              tag_211\n              jump\t// in\n            tag_270:\n                /* \"#utility.yul\":1568:1598   */\n              swap1\n              pop\n                /* \"#utility.yul\":1607:1640   */\n              tag_271\n                /* \"#utility.yul\":1635:1639   */\n              dup3\n                /* \"#utility.yul\":1627:1633   */\n              dup3\n                /* \"#utility.yul\":1607:1640   */\n              tag_221\n              jump\t// in\n            tag_271:\n                /* \"#utility.yul\":1517:1646   */\n              swap2\n              swap1\n              pop\n              jump\t// out\n                /* \"#utility.yul\":1652:1960   */\n            tag_223:\n                /* \"#utility.yul\":1714:1718   */\n              0x00\n                /* \"#utility.yul\":1804:1822   */\n              0xffffffffffffffff\n                /* \"#utility.yul\":1796:1802   */\n              dup3\n                /* \"#utility.yul\":1793:1823   */\n              gt\n                /* \"#utility.yul\":1790:1846   */\n              iszero\n              tag_273\n              jumpi\n                /* \"#utility.yul\":1826:1844   */\n              tag_274\n              tag_220\n              jump\t// in\n            tag_274:\n                /* \"#utility.yul\":1790:1846   */\n            tag_273:\n                /* \"#utility.yul\":1864:1893   */\n              tag_275\n                /* \"#utility.yul\":1886:1892   */\n              dup3\n                /* \"#utility.yul\":1864:1893   */\n              tag_219\n              jump\t// in\n            tag_275:\n                /* \"#utility.yul\":1856:1893   */\n              swap1\n              pop\n                /* \"#utility.yul\":1948:1952   */\n              0x20\n                /* \"#utility.yul\":1942:1946   */\n              dup2\n                /* \"#utility.yul\":1938:1953   */\n              add\n                /* \"#utility.yul\":1930:1953   */\n              swap1\n              pop\n                /* \"#utility.yul\":1652:1960   */\n              swap2\n              swap1\n              pop\n              jump\t// out\n                /* \"#utility.yul\":1966:2120   */\n            tag_224:\n                /* \"#utility.yul\":2050:2056   */\n              dup3\n                /* \"#utility.yul\":2045:2048   */\n              dup2\n                /* \"#utility.yul\":2040:2043   */\n              dup4\n                /* \"#utility.yul\":2027:2057   */\n              calldatacopy\n                /* \"#utility.yul\":2112:2113   */\n              0x00\n                /* \"#utility.yul\":2103:2109   */\n              dup4\n                /* \"#utility.yul\":2098:2101   */\n              dup4\n                /* \"#utility.yul\":2094:2110   */\n              add\n                /* \"#utility.yul\":2087:2114   */\n              mstore\n                /* \"#utility.yul\":1966:2120   */\n              pop\n              pop\n              pop\n              jump\t// out\n                /* \"#utility.yul\":2126:2538   */\n            tag_225:\n                /* \"#utility.yul\":2204:2209   */\n              0x00\n                /* \"#utility.yul\":2229:2295   */\n              tag_278\n                /* \"#utility.yul\":2245:2294   */\n              tag_279\n                /* \"#utility.yul\":2287:2293   */\n              dup5\n                /* \"#utility.yul\":2245:2294   */\n              tag_223\n              jump\t// in\n            tag_279:\n                /* \"#utility.yul\":2229:2295   */\n              tag_222\n              jump\t// in\n            tag_278:\n                /* \"#utility.yul\":2220:2295   */\n              swap1\n              pop\n                /* \"#utility.yul\":2318:2324   */\n              dup3\n                /* \"#utility.yul\":2311:2316   */\n              dup2\n                /* \"#utility.yul\":2304:2325   */\n              mstore\n                /* \"#utility.yul\":2356:2360   */\n              0x20\n                /* \"#utility.yul\":2349:2354   */\n              dup2\n                /* \"#utility.yul\":2345:2361   */\n              add\n                /* \"#utility.yul\":2394:2397   */\n              dup5\n                /* \"#utility.yul\":2385:2391   */\n              dup5\n                /* \"#utility.yul\":2380:2383   */\n              dup5\n                /* \"#utility.yul\":2376:2392   */\n              add\n                /* \"#utility.yul\":2373:2398   */\n              gt\n                /* \"#utility.yul\":2370:2482   */\n              iszero\n              tag_280\n              jumpi\n                /* \"#utility.yul\":2401:2480   */\n              tag_281\n              tag_218\n              jump\t// in\n            tag_281:\n                /* \"#utility.yul\":2370:2482   */\n            tag_280:\n                /* \"#utility.yul\":2491:2532   */\n              tag_282\n                /* \"#utility.yul\":2525:2531   */\n              dup5\n                /* \"#utility.yul\":2520:2523   */\n              dup3\n                /* \"#utility.yul\":2515:2518   */\n              dup6\n                /* \"#utility.yul\":2491:2532   */\n              tag_224\n              jump\t// in\n            tag_282:\n                /* \"#utility.yul\":2210:2538   */\n              pop\n                /* \"#utility.yul\":2126:2538   */\n              swap4\n              swap3\n              pop\n              pop\n              pop\n              jump\t// out\n                /* \"#utility.yul\":2558:2898   */\n            tag_226:\n                /* \"#utility.yul\":2614:2619   */\n              0x00\n                /* \"#utility.yul\":2663:2666   */\n              dup3\n                /* \"#utility.yul\":2656:2660   */\n              0x1f\n                /* \"#utility.yul\":2648:2654   */\n              dup4\n                /* \"#utility.yul\":2644:2661   */\n              add\n                /* \"#utility.yul\":2640:2667   */\n              slt\n                /* \"#utility.yul\":2630:2752   */\n              tag_284\n              jumpi\n                /* \"#utility.yul\":2671:2750   */\n              tag_285\n              tag_217\n              jump\t// in\n            tag_285:\n                /* \"#utility.yul\":2630:2752   */\n            tag_284:\n                /* \"#utility.yul\":2788:2794   */\n              dup2\n                /* \"#utility.yul\":2775:2795   */\n              calldataload\n                /* \"#utility.yul\":2813:2892   */\n              tag_286\n                /* \"#utility.yul\":2888:2891   */\n              dup5\n                /* \"#utility.yul\":2880:2886   */\n              dup3\n                /* \"#utility.yul\":2873:2877   */\n              0x20\n                /* \"#utility.yul\":2865:2871   */\n              dup7\n                /* \"#utility.yul\":2861:2878   */\n              add\n                /* \"#utility.yul\":2813:2892   */\n              tag_225\n              jump\t// in\n            tag_286:\n                /* \"#utility.yul\":2804:2892   */\n              swap2\n              pop\n                /* \"#utility.yul\":2620:2898   */\n              pop\n                /* \"#utility.yul\":2558:2898   */\n              swap3\n              swap2\n              pop\n              pop\n              jump\t// out\n                /* \"#utility.yul\":2904:4029   */\n            tag_18:\n                /* \"#utility.yul\":3010:3016   */\n              0x00\n                /* \"#utility.yul\":3018:3024   */\n              dup1\n                /* \"#utility.yul\":3026:3032   */\n              0x00\n                /* \"#utility.yul\":3034:3040   */\n              dup1\n                /* \"#utility.yul\":3083:3086   */\n              0x80\n                /* \"#utility.yul\":3071:3080   */\n              dup6\n                /* \"#utility.yul\":3062:3069   */\n              dup8\n                /* \"#utility.yul\":3058:3081   */\n              sub\n                /* \"#utility.yul\":3054:3087   */\n              slt\n                /* \"#utility.yul\":3051:3171   */\n              iszero\n              tag_288\n              jumpi\n                /* \"#utility.yul\":3090:3169   */\n              tag_289\n              tag_212\n              jump\t// in\n            tag_289:\n                /* \"#utility.yul\":3051:3171   */\n            tag_288:\n                /* \"#utility.yul\":3210:3211   */\n              0x00\n                /* \"#utility.yul\":3235:3288   */\n              tag_290\n                /* \"#utility.yul\":3280:3287   */\n              dup8\n                /* \"#utility.yul\":3271:3277   */\n              dup3\n                /* \"#utility.yul\":3260:3269   */\n              dup9\n                /* \"#utility.yul\":3256:3278   */\n              add\n                /* \"#utility.yul\":3235:3288   */\n              tag_216\n              jump\t// in\n            tag_290:\n                /* \"#utility.yul\":3225:3288   */\n              swap5\n              pop\n                /* \"#utility.yul\":3181:3298   */\n              pop\n                /* \"#utility.yul\":3365:3367   */\n              0x20\n                /* \"#utility.yul\":3354:3363   */\n              dup6\n                /* \"#utility.yul\":3350:3368   */\n              add\n                /* \"#utility.yul\":3337:3369   */\n              calldataload\n                /* \"#utility.yul\":3396:3414   */\n              0xffffffffffffffff\n                /* \"#utility.yul\":3388:3394   */\n              dup2\n                /* \"#utility.yul\":3385:3415   */\n              gt\n                /* \"#utility.yul\":3382:3499   */\n              iszero\n              tag_291\n              jumpi\n                /* \"#utility.yul\":3418:3497   */\n              tag_292\n              tag_213\n              jump\t// in\n            tag_292:\n                /* \"#utility.yul\":3382:3499   */\n            tag_291:\n                /* \"#utility.yul\":3523:3586   */\n              tag_293\n                /* \"#utility.yul\":3578:3585   */\n              dup8\n                /* \"#utility.yul\":3569:3575   */\n              dup3\n                /* \"#utility.yul\":3558:3567   */\n              dup9\n                /* \"#utility.yul\":3554:3576   */\n              add\n                /* \"#utility.yul\":3523:3586   */\n              tag_226\n              jump\t// in\n            tag_293:\n                /* \"#utility.yul\":3513:3586   */\n              swap4\n              pop\n                /* \"#utility.yul\":3308:3596   */\n              pop\n                /* \"#utility.yul\":3663:3665   */\n              0x40\n                /* \"#utility.yul\":3652:3661   */\n              dup6\n                /* \"#utility.yul\":3648:3666   */\n              add\n                /* \"#utility.yul\":3635:3667   */\n              calldataload\n                /* \"#utility.yul\":3694:3712   */\n              0xffffffffffffffff\n                /* \"#utility.yul\":3686:3692   */\n              dup2\n                /* \"#utility.yul\":3683:3713   */\n              gt\n                /* \"#utility.yul\":3680:3797   */\n              iszero\n              tag_294\n              jumpi\n                /* \"#utility.yul\":3716:3795   */\n              tag_295\n              tag_213\n              jump\t// in\n            tag_295:\n                /* \"#utility.yul\":3680:3797   */\n            tag_294:\n                /* \"#utility.yul\":3821:3884   */\n              tag_296\n                /* \"#utility.yul\":3876:3883   */\n              dup8\n                /* \"#utility.yul\":3867:3873   */\n              dup3\n                /* \"#utility.yul\":3856:3865   */\n              dup9\n                /* \"#utility.yul\":3852:3874   */\n              add\n                /* \"#utility.yul\":3821:3884   */\n              tag_226\n              jump\t// in\n            tag_296:\n                /* \"#utility.yul\":3811:3884   */\n              swap3\n              pop\n                /* \"#utility.yul\":3606:3894   */\n              pop\n                /* \"#utility.yul\":3933:3935   */\n              0x60\n                /* \"#utility.yul\":3959:4012   */\n              tag_297\n                /* \"#utility.yul\":4004:4011   */\n              dup8\n                /* \"#utility.yul\":3995:4001   */\n              dup3\n                /* \"#utility.yul\":3984:3993   */\n              dup9\n                /* \"#utility.yul\":3980:4002   */\n              add\n                /* \"#utility.yul\":3959:4012   */\n              tag_216\n              jump\t// in\n            tag_297:\n                /* \"#utility.yul\":3949:4012   */\n              swap2\n              pop\n                /* \"#utility.yul\":3904:4022   */\n              pop\n                /* \"#utility.yul\":2904:4029   */\n              swap3\n              swap6\n              swap2\n              swap5\n              pop\n              swap3\n              pop\n              jump\t// out\n                /* \"#utility.yul\":4035:4654   */\n            tag_22:\n                /* \"#utility.yul\":4112:4118   */\n              0x00\n                /* \"#utility.yul\":4120:4126   */\n              dup1\n                /* \"#utility.yul\":4128:4134   */\n              0x00\n                /* \"#utility.yul\":4177:4179   */\n              0x60\n                /* \"#utility.yul\":4165:4174   */\n              dup5\n                /* \"#utility.yul\":4156:4163   */\n              dup7\n                /* \"#utility.yul\":4152:4175   */\n              sub\n                /* \"#utility.yul\":4148:4180   */\n              slt\n                /* \"#utility.yul\":4145:4264   */\n              iszero\n              tag_299\n              jumpi\n                /* \"#utility.yul\":4183:4262   */\n              tag_300\n              tag_212\n              jump\t// in\n            tag_300:\n                /* \"#utility.yul\":4145:4264   */\n            tag_299:\n                /* \"#utility.yul\":4303:4304   */\n              0x00\n                /* \"#utility.yul\":4328:4381   */\n              tag_301\n                /* \"#utility.yul\":4373:4380   */\n              dup7\n                /* \"#utility.yul\":4364:4370   */\n              dup3\n                /* \"#utility.yul\":4353:4362   */\n              dup8\n                /* \"#utility.yul\":4349:4371   */\n              add\n                /* \"#utility.yul\":4328:4381   */\n              tag_216\n              jump\t// in\n            tag_301:\n                /* \"#utility.yul\":4318:4381   */\n              swap4\n              pop\n                /* \"#utility.yul\":4274:4391   */\n              pop\n                /* \"#utility.yul\":4430:4432   */\n              0x20\n                /* \"#utility.yul\":4456:4509   */\n              tag_302\n                /* \"#utility.yul\":4501:4508   */\n              dup7\n                /* \"#utility.yul\":4492:4498   */\n              dup3\n                /* \"#utility.yul\":4481:4490   */\n              dup8\n                /* \"#utility.yul\":4477:4499   */\n              add\n                /* \"#utility.yul\":4456:4509   */\n              tag_216\n              jump\t// in\n            tag_302:\n                /* \"#utility.yul\":4446:4509   */\n              swap3\n              pop\n                /* \"#utility.yul\":4401:4519   */\n              pop\n                /* \"#utility.yul\":4558:4560   */\n              0x40\n                /* \"#utility.yul\":4584:4637   */\n              tag_303\n                /* \"#utility.yul\":4629:4636   */\n              dup7\n                /* \"#utility.yul\":4620:4626   */\n              dup3\n                /* \"#utility.yul\":4609:4618   */\n              dup8\n                /* \"#utility.yul\":4605:4627   */\n              add\n                /* \"#utility.yul\":4584:4637   */\n              tag_216\n              jump\t// in\n            tag_303:\n                /* \"#utility.yul\":4574:4637   */\n              swap2\n              pop\n                /* \"#utility.yul\":4529:4647   */\n              pop\n                /* \"#utility.yul\":4035:4654   */\n              swap3\n              pop\n              swap3\n              pop\n              swap3\n              jump\t// out\n                /* \"#utility.yul\":4660:4750   */\n            tag_227:\n                /* \"#utility.yul\":4694:4701   */\n              0x00\n                /* \"#utility.yul\":4737:4742   */\n              dup2\n                /* \"#utility.yul\":4730:4743   */\n              iszero\n                /* \"#utility.yul\":4723:4744   */\n              iszero\n                /* \"#utility.yul\":4712:4744   */\n              swap1\n              pop\n                /* \"#utility.yul\":4660:4750   */\n              swap2\n              swap1\n              pop\n              jump\t// out\n                /* \"#utility.yul\":4756:4872   */\n            tag_228:\n                /* \"#utility.yul\":4826:4847   */\n              tag_306\n                /* \"#utility.yul\":4841:4846   */\n              dup2\n                /* \"#utility.yul\":4826:4847   */\n              tag_227\n              jump\t// in\n            tag_306:\n                /* \"#utility.yul\":4819:4824   */\n              dup2\n                /* \"#utility.yul\":4816:4848   */\n              eq\n                /* \"#utility.yul\":4806:4866   */\n              tag_307\n              jumpi\n                /* \"#utility.yul\":4862:4863   */\n              0x00\n                /* \"#utility.yul\":4859:4860   */\n              dup1\n                /* \"#utility.yul\":4852:4864   */\n              revert\n                /* \"#utility.yul\":4806:4866   */\n            tag_307:\n                /* \"#utility.yul\":4756:4872   */\n              pop\n              jump\t// out\n                /* \"#utility.yul\":4878:5011   */\n            tag_229:\n                /* \"#utility.yul\":4921:4926   */\n              0x00\n                /* \"#utility.yul\":4959:4965   */\n              dup2\n                /* \"#utility.yul\":4946:4966   */\n              calldataload\n                /* \"#utility.yul\":4937:4966   */\n              swap1\n              pop\n                /* \"#utility.yul\":4975:5005   */\n              tag_309\n                /* \"#utility.yul\":4999:5004   */\n              dup2\n                /* \"#utility.yul\":4975:5005   */\n              tag_228\n              jump\t// in\n            tag_309:\n                /* \"#utility.yul\":4878:5011   */\n              swap3\n              swap2\n              pop\n              pop\n              jump\t// out\n                /* \"#utility.yul\":5017:5485   */\n            tag_26:\n                /* \"#utility.yul\":5082:5088   */\n              0x00\n                /* \"#utility.yul\":5090:5096   */\n              dup1\n                /* \"#utility.yul\":5139:5141   */\n              0x40\n                /* \"#utility.yul\":5127:5136   */\n              dup4\n                /* \"#utility.yul\":5118:5125   */\n              dup6\n                /* \"#utility.yul\":5114:5137   */\n              sub\n                /* \"#utility.yul\":5110:5142   */\n              slt\n                /* \"#utility.yul\":5107:5226   */\n              iszero\n              tag_311\n              jumpi\n                /* \"#utility.yul\":5145:5224   */\n              tag_312\n              tag_212\n              jump\t// in\n            tag_312:\n                /* \"#utility.yul\":5107:5226   */\n            tag_311:\n                /* \"#utility.yul\":5265:5266   */\n              0x00\n                /* \"#utility.yul\":5290:5343   */\n              tag_313\n                /* \"#utility.yul\":5335:5342   */\n              dup6\n                /* \"#utility.yul\":5326:5332   */\n              dup3\n                /* \"#utility.yul\":5315:5324   */\n              dup7\n                /* \"#utility.yul\":5311:5333   */\n              add\n                /* \"#utility.yul\":5290:5343   */\n              tag_216\n              jump\t// in\n            tag_313:\n                /* \"#utility.yul\":5280:5343   */\n              swap3\n              pop\n                /* \"#utility.yul\":5236:5353   */\n              pop\n                /* \"#utility.yul\":5392:5394   */\n              0x20\n                /* \"#utility.yul\":5418:5468   */\n              tag_314\n                /* \"#utility.yul\":5460:5467   */\n              dup6\n                /* \"#utility.yul\":5451:5457   */\n              dup3\n                /* \"#utility.yul\":5440:5449   */\n              dup7\n                /* \"#utility.yul\":5436:5458   */\n              add\n                /* \"#utility.yul\":5418:5468   */\n              tag_229\n              jump\t// in\n            tag_314:\n                /* \"#utility.yul\":5408:5468   */\n              swap2\n              pop\n                /* \"#utility.yul\":5363:5478   */\n              pop\n                /* \"#utility.yul\":5017:5485   */\n              swap3\n              pop\n              swap3\n              swap1\n              pop\n              jump\t// out\n                /* \"#utility.yul\":5491:5617   */\n            tag_230:\n                /* \"#utility.yul\":5528:5535   */\n              0x00\n                /* \"#utility.yul\":5568:5610   */\n              0xffffffffffffffffffffffffffffffffffffffff\n                /* \"#utility.yul\":5561:5566   */\n              dup3\n                /* \"#utility.yul\":5557:5611   */\n              and\n                /* \"#utility.yul\":5546:5611   */\n              swap1\n              pop\n                /* \"#utility.yul\":5491:5617   */\n              swap2\n              swap1\n              pop\n              jump\t// out\n                /* \"#utility.yul\":5623:5719   */\n            tag_231:\n                /* \"#utility.yul\":5660:5667   */\n              0x00\n                /* \"#utility.yul\":5689:5713   */\n              tag_317\n                /* \"#utility.yul\":5707:5712   */\n              dup3\n                /* \"#utility.yul\":5689:5713   */\n              tag_230\n              jump\t// in\n            tag_317:\n                /* \"#utility.yul\":5678:5713   */\n              swap1\n              pop\n                /* \"#utility.yul\":5623:5719   */\n              swap2\n              swap1\n              pop\n              jump\t// out\n                /* \"#utility.yul\":5725:5847   */\n            tag_232:\n                /* \"#utility.yul\":5798:5822   */\n              tag_319\n                /* \"#utility.yul\":5816:5821   */\n              dup2\n                /* \"#utility.yul\":5798:5822   */\n              tag_231\n              jump\t// in\n            tag_319:\n                /* \"#utility.yul\":5791:5796   */\n              dup2\n                /* \"#utility.yul\":5788:5823   */\n              eq\n                /* \"#utility.yul\":5778:5841   */\n              tag_320\n              jumpi\n                /* \"#utility.yul\":5837:5838   */\n              0x00\n                /* \"#utility.yul\":5834:5835   */\n              dup1\n                /* \"#utility.yul\":5827:5839   */\n              revert\n                /* \"#utility.yul\":5778:5841   */\n            tag_320:\n                /* \"#utility.yul\":5725:5847   */\n              pop\n              jump\t// out\n                /* \"#utility.yul\":5853:5992   */\n            tag_233:\n                /* \"#utility.yul\":5899:5904   */\n              0x00\n                /* \"#utility.yul\":5937:5943   */\n              dup2\n                /* \"#utility.yul\":5924:5944   */\n              calldataload\n                /* \"#utility.yul\":5915:5944   */\n              swap1\n              pop\n                /* \"#utility.yul\":5953:5986   */\n              tag_322\n                /* \"#utility.yul\":5980:5985   */\n              dup2\n                /* \"#utility.yul\":5953:5986   */\n              tag_232\n              jump\t// in\n            tag_322:\n                /* \"#utility.yul\":5853:5992   */\n              swap3\n              swap2\n              pop\n              pop\n              jump\t// out\n                /* \"#utility.yul\":5998:7123   */\n            tag_34:\n                /* \"#utility.yul\":6104:6110   */\n              0x00\n                /* \"#utility.yul\":6112:6118   */\n              dup1\n                /* \"#utility.yul\":6120:6126   */\n              0x00\n                /* \"#utility.yul\":6128:6134   */\n              dup1\n                /* \"#utility.yul\":6177:6180   */\n              0x80\n                /* \"#utility.yul\":6165:6174   */\n              dup6\n                /* \"#utility.yul\":6156:6163   */\n              dup8\n                /* \"#utility.yul\":6152:6175   */\n              sub\n                /* \"#utility.yul\":6148:6181   */\n              slt\n                /* \"#utility.yul\":6145:6265   */\n              iszero\n              tag_324\n              jumpi\n                /* \"#utility.yul\":6184:6263   */\n              tag_325\n              tag_212\n              jump\t// in\n            tag_325:\n                /* \"#utility.yul\":6145:6265   */\n            tag_324:\n                /* \"#utility.yul\":6332:6333   */\n              0x00\n                /* \"#utility.yul\":6321:6330   */\n              dup6\n                /* \"#utility.yul\":6317:6334   */\n              add\n                /* \"#utility.yul\":6304:6335   */\n              calldataload\n                /* \"#utility.yul\":6362:6380   */\n              0xffffffffffffffff\n                /* \"#utility.yul\":6354:6360   */\n              dup2\n                /* \"#utility.yul\":6351:6381   */\n              gt\n                /* \"#utility.yul\":6348:6465   */\n              iszero\n              tag_326\n              jumpi\n                /* \"#utility.yul\":6384:6463   */\n              tag_327\n              tag_213\n              jump\t// in\n            tag_327:\n                /* \"#utility.yul\":6348:6465   */\n            tag_326:\n                /* \"#utility.yul\":6489:6552   */\n              tag_328\n                /* \"#utility.yul\":6544:6551   */\n              dup8\n                /* \"#utility.yul\":6535:6541   */\n              dup3\n                /* \"#utility.yul\":6524:6533   */\n              dup9\n                /* \"#utility.yul\":6520:6542   */\n              add\n                /* \"#utility.yul\":6489:6552   */\n              tag_226\n              jump\t// in\n            tag_328:\n                /* \"#utility.yul\":6479:6552   */\n              swap5\n              pop\n                /* \"#utility.yul\":6275:6562   */\n              pop\n                /* \"#utility.yul\":6629:6631   */\n              0x20\n                /* \"#utility.yul\":6618:6627   */\n              dup6\n                /* \"#utility.yul\":6614:6632   */\n              add\n                /* \"#utility.yul\":6601:6633   */\n              calldataload\n                /* \"#utility.yul\":6660:6678   */\n              0xffffffffffffffff\n                /* \"#utility.yul\":6652:6658   */\n              dup2\n                /* \"#utility.yul\":6649:6679   */\n              gt\n                /* \"#utility.yul\":6646:6763   */\n              iszero\n              tag_329\n              jumpi\n                /* \"#utility.yul\":6682:6761   */\n              tag_330\n              tag_213\n              jump\t// in\n            tag_330:\n                /* \"#utility.yul\":6646:6763   */\n            tag_329:\n                /* \"#utility.yul\":6787:6850   */\n              tag_331\n                /* \"#utility.yul\":6842:6849   */\n              dup8\n                /* \"#utility.yul\":6833:6839   */\n              dup3\n                /* \"#utility.yul\":6822:6831   */\n              dup9\n                /* \"#utility.yul\":6818:6840   */\n              add\n                /* \"#utility.yul\":6787:6850   */\n              tag_226\n              jump\t// in\n            tag_331:\n                /* \"#utility.yul\":6777:6850   */\n              swap4\n              pop\n                /* \"#utility.yul\":6572:6860   */\n              pop\n                /* \"#utility.yul\":6899:6901   */\n              0x40\n                /* \"#utility.yul\":6925:6978   */\n              tag_332\n                /* \"#utility.yul\":6970:6977   */\n              dup8\n                /* \"#utility.yul\":6961:6967   */\n              dup3\n                /* \"#utility.yul\":6950:6959   */\n              dup9\n                /* \"#utility.yul\":6946:6968   */\n              add\n                /* \"#utility.yul\":6925:6978   */\n              tag_216\n              jump\t// in\n            tag_332:\n                /* \"#utility.yul\":6915:6978   */\n              swap3\n              pop\n                /* \"#utility.yul\":6870:6988   */\n              pop\n                /* \"#utility.yul\":7027:7029   */\n              0x60\n                /* \"#utility.yul\":7053:7106   */\n              tag_333\n                /* \"#utility.yul\":7098:7105   */\n              dup8\n                /* \"#utility.yul\":7089:7095   */\n              dup3\n                /* \"#utility.yul\":7078:7087   */\n              dup9\n                /* \"#utility.yul\":7074:7096   */\n              add\n                /* \"#utility.yul\":7053:7106   */\n              tag_233\n              jump\t// in\n            tag_333:\n                /* \"#utility.yul\":7043:7106   */\n              swap2\n              pop\n                /* \"#utility.yul\":6998:7116   */\n              pop\n                /* \"#utility.yul\":5998:7123   */\n              swap3\n              swap6\n              swap2\n              swap5\n              pop\n              swap3\n              pop\n              jump\t// out\n                /* \"#utility.yul\":7129:7458   */\n            tag_38:\n                /* \"#utility.yul\":7188:7194   */\n              0x00\n                /* \"#utility.yul\":7237:7239   */\n              0x20\n                /* \"#utility.yul\":7225:7234   */\n              dup3\n                /* \"#utility.yul\":7216:7223   */\n              dup5\n                /* \"#utility.yul\":7212:7235   */\n              sub\n                /* \"#utility.yul\":7208:7240   */\n              slt\n                /* \"#utility.yul\":7205:7324   */\n              iszero\n              tag_335\n              jumpi\n                /* \"#utility.yul\":7243:7322   */\n              tag_336\n              tag_212\n              jump\t// in\n            tag_336:\n                /* \"#utility.yul\":7205:7324   */\n            tag_335:\n                /* \"#utility.yul\":7363:7364   */\n              0x00\n                /* \"#utility.yul\":7388:7441   */\n              tag_337\n                /* \"#utility.yul\":7433:7440   */\n              dup5\n                /* \"#utility.yul\":7424:7430   */\n              dup3\n                /* \"#utility.yul\":7413:7422   */\n              dup6\n                /* \"#utility.yul\":7409:7431   */\n              add\n                /* \"#utility.yul\":7388:7441   */\n              tag_216\n              jump\t// in\n            tag_337:\n                /* \"#utility.yul\":7378:7441   */\n              swap2\n              pop\n                /* \"#utility.yul\":7334:7451   */\n              pop\n                /* \"#utility.yul\":7129:7458   */\n              swap3\n              swap2\n              pop\n              pop\n              jump\t// out\n                /* \"#utility.yul\":7464:7582   */\n            tag_234:\n                /* \"#utility.yul\":7551:7575   */\n              tag_339\n                /* \"#utility.yul\":7569:7574   */\n              dup2\n                /* \"#utility.yul\":7551:7575   */\n              tag_231\n              jump\t// in\n            tag_339:\n                /* \"#utility.yul\":7546:7549   */\n              dup3\n                /* \"#utility.yul\":7539:7576   */\n              mstore\n                /* \"#utility.yul\":7464:7582   */\n              pop\n              pop\n              jump\t// out\n                /* \"#utility.yul\":7588:7810   */\n            tag_44:\n                /* \"#utility.yul\":7681:7685   */\n              0x00\n                /* \"#utility.yul\":7719:7721   */\n              0x20\n                /* \"#utility.yul\":7708:7717   */\n              dup3\n                /* \"#utility.yul\":7704:7722   */\n              add\n                /* \"#utility.yul\":7696:7722   */\n              swap1\n              pop\n                /* \"#utility.yul\":7732:7803   */\n              tag_341\n                /* \"#utility.yul\":7800:7801   */\n              0x00\n                /* \"#utility.yul\":7789:7798   */\n              dup4\n                /* \"#utility.yul\":7785:7802   */\n              add\n                /* \"#utility.yul\":7776:7782   */\n              dup5\n                /* \"#utility.yul\":7732:7803   */\n              tag_234\n              jump\t// in\n            tag_341:\n                /* \"#utility.yul\":7588:7810   */\n              swap3\n              swap2\n              pop\n              pop\n              jump\t// out\n                /* \"#utility.yul\":7816:7934   */\n            tag_235:\n                /* \"#utility.yul\":7903:7927   */\n              tag_343\n                /* \"#utility.yul\":7921:7926   */\n              dup2\n                /* \"#utility.yul\":7903:7927   */\n              tag_214\n              jump\t// in\n            tag_343:\n                /* \"#utility.yul\":7898:7901   */\n              dup3\n                /* \"#utility.yul\":7891:7928   */\n              mstore\n                /* \"#utility.yul\":7816:7934   */\n              pop\n              pop\n              jump\t// out\n                /* \"#utility.yul\":7940:8162   */\n            tag_49:\n                /* \"#utility.yul\":8033:8037   */\n              0x00\n                /* \"#utility.yul\":8071:8073   */\n              0x20\n                /* \"#utility.yul\":8060:8069   */\n              dup3\n                /* \"#utility.yul\":8056:8074   */\n              add\n                /* \"#utility.yul\":8048:8074   */\n              swap1\n              pop\n                /* \"#utility.yul\":8084:8155   */\n              tag_345\n                /* \"#utility.yul\":8152:8153   */\n              0x00\n                /* \"#utility.yul\":8141:8150   */\n              dup4\n                /* \"#utility.yul\":8137:8154   */\n              add\n                /* \"#utility.yul\":8128:8134   */\n              dup5\n                /* \"#utility.yul\":8084:8155   */\n              tag_235\n              jump\t// in\n            tag_345:\n                /* \"#utility.yul\":7940:8162   */\n              swap3\n              swap2\n              pop\n              pop\n              jump\t// out\n                /* \"#utility.yul\":8168:8642   */\n            tag_53:\n                /* \"#utility.yul\":8236:8242   */\n              0x00\n                /* \"#utility.yul\":8244:8250   */\n              dup1\n                /* \"#utility.yul\":8293:8295   */\n              0x40\n                /* \"#utility.yul\":8281:8290   */\n              dup4\n                /* \"#utility.yul\":8272:8279   */\n              dup6\n                /* \"#utility.yul\":8268:8291   */\n              sub\n                /* \"#utility.yul\":8264:8296   */\n              slt\n                /* \"#utility.yul\":8261:8380   */\n              iszero\n              tag_347\n              jumpi\n                /* \"#utility.yul\":8299:8378   */\n              tag_348\n              tag_212\n              jump\t// in\n            tag_348:\n                /* \"#utility.yul\":8261:8380   */\n            tag_347:\n                /* \"#utility.yul\":8419:8420   */\n              0x00\n                /* \"#utility.yul\":8444:8497   */\n              tag_349\n                /* \"#utility.yul\":8489:8496   */\n              dup6\n                /* \"#utility.yul\":8480:8486   */\n              dup3\n                /* \"#utility.yul\":8469:8478   */\n              dup7\n                /* \"#utility.yul\":8465:8487   */\n              add\n                /* \"#utility.yul\":8444:8497   */\n              tag_216\n              jump\t// in\n            tag_349:\n                /* \"#utility.yul\":8434:8497   */\n              swap3\n              pop\n                /* \"#utility.yul\":8390:8507   */\n              pop\n                /* \"#utility.yul\":8546:8548   */\n              0x20\n                /* \"#utility.yul\":8572:8625   */\n              tag_350\n                /* \"#utility.yul\":8617:8624   */\n              dup6\n                /* \"#utility.yul\":8608:8614   */\n              dup3\n                /* \"#utility.yul\":8597:8606   */\n              dup7\n                /* \"#utility.yul\":8593:8615   */\n              add\n                /* \"#utility.yul\":8572:8625   */\n              tag_233\n              jump\t// in\n            tag_350:\n                /* \"#utility.yul\":8562:8625   */\n              swap2\n              pop\n                /* \"#utility.yul\":8517:8635   */\n              pop\n                /* \"#utility.yul\":8168:8642   */\n              swap3\n              pop\n              swap3\n              swap1\n              pop\n              jump\t// out\n                /* \"#utility.yul\":8648:8762   */\n            tag_236:\n                /* \"#utility.yul\":8715:8721   */\n              0x00\n                /* \"#utility.yul\":8749:8754   */\n              dup2\n                /* \"#utility.yul\":8743:8755   */\n              mload\n                /* \"#utility.yul\":8733:8755   */\n              swap1\n              pop\n                /* \"#utility.yul\":8648:8762   */\n              swap2\n              swap1\n              pop\n              jump\t// out\n                /* \"#utility.yul\":8768:8952   */\n            tag_237:\n                /* \"#utility.yul\":8867:8878   */\n              0x00\n                /* \"#utility.yul\":8901:8907   */\n              dup3\n                /* \"#utility.yul\":8896:8899   */\n              dup3\n                /* \"#utility.yul\":8889:8908   */\n              mstore\n                /* \"#utility.yul\":8941:8945   */\n              0x20\n                /* \"#utility.yul\":8936:8939   */\n              dup3\n                /* \"#utility.yul\":8932:8946   */\n              add\n                /* \"#utility.yul\":8917:8946   */\n              swap1\n              pop\n                /* \"#utility.yul\":8768:8952   */\n              swap3\n              swap2\n              pop\n              pop\n              jump\t// out\n                /* \"#utility.yul\":8958:9090   */\n            tag_238:\n                /* \"#utility.yul\":9025:9029   */\n              0x00\n                /* \"#utility.yul\":9048:9051   */\n              dup2\n                /* \"#utility.yul\":9040:9051   */\n              swap1\n              pop\n                /* \"#utility.yul\":9078:9082   */\n              0x20\n                /* \"#utility.yul\":9073:9076   */\n              dup3\n                /* \"#utility.yul\":9069:9083   */\n              add\n                /* \"#utility.yul\":9061:9083   */\n              swap1\n              pop\n                /* \"#utility.yul\":8958:9090   */\n              swap2\n              swap1\n              pop\n              jump\t// out\n                /* \"#utility.yul\":9096:9204   */\n            tag_239:\n                /* \"#utility.yul\":9173:9197   */\n              tag_355\n                /* \"#utility.yul\":9191:9196   */\n              dup2\n                /* \"#utility.yul\":9173:9197   */\n              tag_231\n              jump\t// in\n            tag_355:\n                /* \"#utility.yul\":9168:9171   */\n              dup3\n                /* \"#utility.yul\":9161:9198   */\n              mstore\n                /* \"#utility.yul\":9096:9204   */\n              pop\n              pop\n              jump\t// out\n                /* \"#utility.yul\":9210:9389   */\n            tag_240:\n                /* \"#utility.yul\":9279:9289   */\n              0x00\n                /* \"#utility.yul\":9300:9346   */\n              tag_357\n                /* \"#utility.yul\":9342:9345   */\n              dup4\n                /* \"#utility.yul\":9334:9340   */\n              dup4\n                /* \"#utility.yul\":9300:9346   */\n              tag_239\n              jump\t// in\n            tag_357:\n                /* \"#utility.yul\":9378:9382   */\n              0x20\n                /* \"#utility.yul\":9373:9376   */\n              dup4\n                /* \"#utility.yul\":9369:9383   */\n              add\n                /* \"#utility.yul\":9355:9383   */\n              swap1\n              pop\n                /* \"#utility.yul\":9210:9389   */\n              swap3\n              swap2\n              pop\n              pop\n              jump\t// out\n                /* \"#utility.yul\":9395:9508   */\n            tag_241:\n                /* \"#utility.yul\":9465:9469   */\n              0x00\n                /* \"#utility.yul\":9497:9501   */\n              0x20\n                /* \"#utility.yul\":9492:9495   */\n              dup3\n                /* \"#utility.yul\":9488:9502   */\n              add\n                /* \"#utility.yul\":9480:9502   */\n              swap1\n              pop\n                /* \"#utility.yul\":9395:9508   */\n              swap2\n              swap1\n              pop\n              jump\t// out\n                /* \"#utility.yul\":9544:10276   */\n            tag_242:\n                /* \"#utility.yul\":9663:9666   */\n              0x00\n                /* \"#utility.yul\":9692:9746   */\n              tag_360\n                /* \"#utility.yul\":9740:9745   */\n              dup3\n                /* \"#utility.yul\":9692:9746   */\n              tag_236\n              jump\t// in\n            tag_360:\n                /* \"#utility.yul\":9762:9848   */\n              tag_361\n                /* \"#utility.yul\":9841:9847   */\n              dup2\n                /* \"#utility.yul\":9836:9839   */\n              dup6\n                /* \"#utility.yul\":9762:9848   */\n              tag_237\n              jump\t// in\n            tag_361:\n                /* \"#utility.yul\":9755:9848   */\n              swap4\n              pop\n                /* \"#utility.yul\":9872:9928   */\n              tag_362\n                /* \"#utility.yul\":9922:9927   */\n              dup4\n                /* \"#utility.yul\":9872:9928   */\n              tag_238\n              jump\t// in\n            tag_362:\n                /* \"#utility.yul\":9951:9958   */\n              dup1\n                /* \"#utility.yul\":9982:9983   */\n              0x00\n                /* \"#utility.yul\":9967:10251   */\n            tag_363:\n                /* \"#utility.yul\":9992:9998   */\n              dup4\n                /* \"#utility.yul\":9989:9990   */\n              dup2\n                /* \"#utility.yul\":9986:9999   */\n              lt\n                /* \"#utility.yul\":9967:10251   */\n              iszero\n              tag_365\n              jumpi\n                /* \"#utility.yul\":10068:10074   */\n              dup2\n                /* \"#utility.yul\":10062:10075   */\n              mload\n                /* \"#utility.yul\":10095:10158   */\n              tag_366\n                /* \"#utility.yul\":10154:10157   */\n              dup9\n                /* \"#utility.yul\":10139:10152   */\n              dup3\n                /* \"#utility.yul\":10095:10158   */\n              tag_240\n              jump\t// in\n            tag_366:\n                /* \"#utility.yul\":10088:10158   */\n              swap8\n              pop\n                /* \"#utility.yul\":10181:10241   */\n              tag_367\n                /* \"#utility.yul\":10234:10240   */\n              dup4\n                /* \"#utility.yul\":10181:10241   */\n              tag_241\n              jump\t// in\n            tag_367:\n                /* \"#utility.yul\":10171:10241   */\n              swap3\n              pop\n                /* \"#utility.yul\":10027:10251   */\n              pop\n                /* \"#utility.yul\":10014:10015   */\n              0x01\n                /* \"#utility.yul\":10011:10012   */\n              dup2\n                /* \"#utility.yul\":10007:10016   */\n              add\n                /* \"#utility.yul\":10002:10016   */\n              swap1\n              pop\n                /* \"#utility.yul\":9967:10251   */\n              jump(tag_363)\n            tag_365:\n                /* \"#utility.yul\":9971:9985   */\n              pop\n                /* \"#utility.yul\":10267:10270   */\n              dup6\n                /* \"#utility.yul\":10260:10270   */\n              swap4\n              pop\n                /* \"#utility.yul\":9668:10276   */\n              pop\n              pop\n              pop\n                /* \"#utility.yul\":9544:10276   */\n              swap3\n              swap2\n              pop\n              pop\n              jump\t// out\n                /* \"#utility.yul\":10282:10655   */\n            tag_59:\n                /* \"#utility.yul\":10425:10429   */\n              0x00\n                /* \"#utility.yul\":10463:10465   */\n              0x20\n                /* \"#utility.yul\":10452:10461   */\n              dup3\n                /* \"#utility.yul\":10448:10466   */\n              add\n                /* \"#utility.yul\":10440:10466   */\n              swap1\n              pop\n                /* \"#utility.yul\":10512:10521   */\n              dup2\n                /* \"#utility.yul\":10506:10510   */\n              dup2\n                /* \"#utility.yul\":10502:10522   */\n              sub\n                /* \"#utility.yul\":10498:10499   */\n              0x00\n                /* \"#utility.yul\":10487:10496   */\n              dup4\n                /* \"#utility.yul\":10483:10500   */\n              add\n                /* \"#utility.yul\":10476:10523   */\n              mstore\n                /* \"#utility.yul\":10540:10648   */\n              tag_369\n                /* \"#utility.yul\":10643:10647   */\n              dup2\n                /* \"#utility.yul\":10634:10640   */\n              dup5\n                /* \"#utility.yul\":10540:10648   */\n              tag_242\n              jump\t// in\n            tag_369:\n                /* \"#utility.yul\":10532:10648   */\n              swap1\n              pop\n                /* \"#utility.yul\":10282:10655   */\n              swap3\n              swap2\n              pop\n              pop\n              jump\t// out\n                /* \"#utility.yul\":10661:10990   */\n            tag_67:\n                /* \"#utility.yul\":10720:10726   */\n              0x00\n                /* \"#utility.yul\":10769:10771   */\n              0x20\n                /* \"#utility.yul\":10757:10766   */\n              dup3\n                /* \"#utility.yul\":10748:10755   */\n              dup5\n                /* \"#utility.yul\":10744:10767   */\n              sub\n                /* \"#utility.yul\":10740:10772   */\n              slt\n                /* \"#utility.yul\":10737:10856   */\n              iszero\n              tag_371\n              jumpi\n                /* \"#utility.yul\":10775:10854   */\n              tag_372\n              tag_212\n              jump\t// in\n            tag_372:\n                /* \"#utility.yul\":10737:10856   */\n            tag_371:\n                /* \"#utility.yul\":10895:10896   */\n              0x00\n                /* \"#utility.yul\":10920:10973   */\n              tag_373\n                /* \"#utility.yul\":10965:10972   */\n              dup5\n                /* \"#utility.yul\":10956:10962   */\n              dup3\n                /* \"#utility.yul\":10945:10954   */\n              dup6\n                /* \"#utility.yul\":10941:10963   */\n              add\n                /* \"#utility.yul\":10920:10973   */\n              tag_233\n              jump\t// in\n            tag_373:\n                /* \"#utility.yul\":10910:10973   */\n              swap2\n              pop\n                /* \"#utility.yul\":10866:10983   */\n              pop\n                /* \"#utility.yul\":10661:10990   */\n              swap3\n              swap2\n              pop\n              pop\n              jump\t// out\n                /* \"#utility.yul\":10996:11133   */\n            tag_243:\n                /* \"#utility.yul\":11050:11055   */\n              0x00\n                /* \"#utility.yul\":11081:11087   */\n              dup2\n                /* \"#utility.yul\":11075:11088   */\n              mload\n                /* \"#utility.yul\":11066:11088   */\n              swap1\n              pop\n                /* \"#utility.yul\":11097:11127   */\n              tag_375\n                /* \"#utility.yul\":11121:11126   */\n              dup2\n                /* \"#utility.yul\":11097:11127   */\n              tag_228\n              jump\t// in\n            tag_375:\n                /* \"#utility.yul\":10996:11133   */\n              swap3\n              swap2\n              pop\n              pop\n              jump\t// out\n                /* \"#utility.yul\":11139:11484   */\n            tag_74:\n                /* \"#utility.yul\":11206:11212   */\n              0x00\n                /* \"#utility.yul\":11255:11257   */\n              0x20\n                /* \"#utility.yul\":11243:11252   */\n              dup3\n                /* \"#utility.yul\":11234:11241   */\n              dup5\n                /* \"#utility.yul\":11230:11253   */\n              sub\n                /* \"#utility.yul\":11226:11258   */\n              slt\n                /* \"#utility.yul\":11223:11342   */\n              iszero\n              tag_377\n              jumpi\n                /* \"#utility.yul\":11261:11340   */\n              tag_378\n              tag_212\n              jump\t// in\n            tag_378:\n                /* \"#utility.yul\":11223:11342   */\n            tag_377:\n                /* \"#utility.yul\":11381:11382   */\n              0x00\n                /* \"#utility.yul\":11406:11467   */\n              tag_379\n                /* \"#utility.yul\":11459:11466   */\n              dup5\n                /* \"#utility.yul\":11450:11456   */\n              dup3\n                /* \"#utility.yul\":11439:11448   */\n              dup6\n                /* \"#utility.yul\":11435:11457   */\n              add\n                /* \"#utility.yul\":11406:11467   */\n              tag_243\n              jump\t// in\n            tag_379:\n                /* \"#utility.yul\":11396:11467   */\n              swap2\n              pop\n                /* \"#utility.yul\":11352:11477   */\n              pop\n                /* \"#utility.yul\":11139:11484   */\n              swap3\n              swap2\n              pop\n              pop\n              jump\t// out\n                /* \"#utility.yul\":11490:11589   */\n            tag_244:\n                /* \"#utility.yul\":11542:11548   */\n              0x00\n                /* \"#utility.yul\":11576:11581   */\n              dup2\n                /* \"#utility.yul\":11570:11582   */\n              mload\n                /* \"#utility.yul\":11560:11582   */\n              swap1\n              pop\n                /* \"#utility.yul\":11490:11589   */\n              swap2\n              swap1\n              pop\n              jump\t// out\n                /* \"#utility.yul\":11595:11764   */\n            tag_245:\n                /* \"#utility.yul\":11679:11690   */\n              0x00\n                /* \"#utility.yul\":11713:11719   */\n              dup3\n                /* \"#utility.yul\":11708:11711   */\n              dup3\n                /* \"#utility.yul\":11701:11720   */\n              mstore\n                /* \"#utility.yul\":11753:11757   */\n              0x20\n                /* \"#utility.yul\":11748:11751   */\n              dup3\n                /* \"#utility.yul\":11744:11758   */\n              add\n                /* \"#utility.yul\":11729:11758   */\n              swap1\n              pop\n                /* \"#utility.yul\":11595:11764   */\n              swap3\n              swap2\n              pop\n              pop\n              jump\t// out\n                /* \"#utility.yul\":11770:12077   */\n            tag_246:\n                /* \"#utility.yul\":11838:11839   */\n              0x00\n                /* \"#utility.yul\":11848:11961   */\n            tag_383:\n                /* \"#utility.yul\":11862:11868   */\n              dup4\n                /* \"#utility.yul\":11859:11860   */\n              dup2\n                /* \"#utility.yul\":11856:11869   */\n              lt\n                /* \"#utility.yul\":11848:11961   */\n              iszero\n              tag_385\n              jumpi\n                /* \"#utility.yul\":11947:11948   */\n              dup1\n                /* \"#utility.yul\":11942:11945   */\n              dup3\n                /* \"#utility.yul\":11938:11949   */\n              add\n                /* \"#utility.yul\":11932:11950   */\n              mload\n                /* \"#utility.yul\":11928:11929   */\n              dup2\n                /* \"#utility.yul\":11923:11926   */\n              dup5\n                /* \"#utility.yul\":11919:11930   */\n              add\n                /* \"#utility.yul\":11912:11951   */\n              mstore\n                /* \"#utility.yul\":11884:11886   */\n              0x20\n                /* \"#utility.yul\":11881:11882   */\n              dup2\n                /* \"#utility.yul\":11877:11887   */\n              add\n                /* \"#utility.yul\":11872:11887   */\n              swap1\n              pop\n                /* \"#utility.yul\":11848:11961   */\n              jump(tag_383)\n            tag_385:\n                /* \"#utility.yul\":11979:11985   */\n              dup4\n                /* \"#utility.yul\":11976:11977   */\n              dup2\n                /* \"#utility.yul\":11973:11986   */\n              gt\n                /* \"#utility.yul\":11970:12071   */\n              iszero\n              tag_386\n              jumpi\n                /* \"#utility.yul\":12059:12060   */\n              0x00\n                /* \"#utility.yul\":12050:12056   */\n              dup5\n                /* \"#utility.yul\":12045:12048   */\n              dup5\n                /* \"#utility.yul\":12041:12057   */\n              add\n                /* \"#utility.yul\":12034:12061   */\n              mstore\n                /* \"#utility.yul\":11970:12071   */\n            tag_386:\n                /* \"#utility.yul\":11819:12077   */\n              pop\n                /* \"#utility.yul\":11770:12077   */\n              pop\n              pop\n              pop\n              jump\t// out\n                /* \"#utility.yul\":12083:12447   */\n            tag_247:\n                /* \"#utility.yul\":12171:12174   */\n              0x00\n                /* \"#utility.yul\":12199:12238   */\n              tag_388\n                /* \"#utility.yul\":12232:12237   */\n              dup3\n                /* \"#utility.yul\":12199:12238   */\n              tag_244\n              jump\t// in\n            tag_388:\n                /* \"#utility.yul\":12254:12325   */\n              tag_389\n                /* \"#utility.yul\":12318:12324   */\n              dup2\n                /* \"#utility.yul\":12313:12316   */\n              dup6\n                /* \"#utility.yul\":12254:12325   */\n              tag_245\n              jump\t// in\n            tag_389:\n                /* \"#utility.yul\":12247:12325   */\n              swap4\n              pop\n                /* \"#utility.yul\":12334:12386   */\n              tag_390\n                /* \"#utility.yul\":12379:12385   */\n              dup2\n                /* \"#utility.yul\":12374:12377   */\n              dup6\n                /* \"#utility.yul\":12367:12371   */\n              0x20\n                /* \"#utility.yul\":12360:12365   */\n              dup7\n                /* \"#utility.yul\":12356:12372   */\n              add\n                /* \"#utility.yul\":12334:12386   */\n              tag_246\n              jump\t// in\n            tag_390:\n                /* \"#utility.yul\":12411:12440   */\n              tag_391\n                /* \"#utility.yul\":12433:12439   */\n              dup2\n                /* \"#utility.yul\":12411:12440   */\n              tag_219\n              jump\t// in\n            tag_391:\n                /* \"#utility.yul\":12406:12409   */\n              dup5\n                /* \"#utility.yul\":12402:12441   */\n              add\n                /* \"#utility.yul\":12395:12441   */\n              swap2\n              pop\n                /* \"#utility.yul\":12175:12447   */\n              pop\n                /* \"#utility.yul\":12083:12447   */\n              swap3\n              swap2\n              pop\n              pop\n              jump\t// out\n                /* \"#utility.yul\":12453:13188   */\n            tag_78:\n                /* \"#utility.yul\":12670:12674   */\n              0x00\n                /* \"#utility.yul\":12708:12711   */\n              0x80\n                /* \"#utility.yul\":12697:12706   */\n              dup3\n                /* \"#utility.yul\":12693:12712   */\n              add\n                /* \"#utility.yul\":12685:12712   */\n              swap1\n              pop\n                /* \"#utility.yul\":12722:12793   */\n              tag_393\n                /* \"#utility.yul\":12790:12791   */\n              0x00\n                /* \"#utility.yul\":12779:12788   */\n              dup4\n                /* \"#utility.yul\":12775:12792   */\n              add\n                /* \"#utility.yul\":12766:12772   */\n              dup8\n                /* \"#utility.yul\":12722:12793   */\n              tag_235\n              jump\t// in\n            tag_393:\n                /* \"#utility.yul\":12840:12849   */\n              dup2\n                /* \"#utility.yul\":12834:12838   */\n              dup2\n                /* \"#utility.yul\":12830:12850   */\n              sub\n                /* \"#utility.yul\":12825:12827   */\n              0x20\n                /* \"#utility.yul\":12814:12823   */\n              dup4\n                /* \"#utility.yul\":12810:12828   */\n              add\n                /* \"#utility.yul\":12803:12851   */\n              mstore\n                /* \"#utility.yul\":12868:12946   */\n              tag_394\n                /* \"#utility.yul\":12941:12945   */\n              dup2\n                /* \"#utility.yul\":12932:12938   */\n              dup7\n                /* \"#utility.yul\":12868:12946   */\n              tag_247\n              jump\t// in\n            tag_394:\n                /* \"#utility.yul\":12860:12946   */\n              swap1\n              pop\n                /* \"#utility.yul\":12993:13002   */\n              dup2\n                /* \"#utility.yul\":12987:12991   */\n              dup2\n                /* \"#utility.yul\":12983:13003   */\n              sub\n                /* \"#utility.yul\":12978:12980   */\n              0x40\n                /* \"#utility.yul\":12967:12976   */\n              dup4\n                /* \"#utility.yul\":12963:12981   */\n              add\n                /* \"#utility.yul\":12956:13004   */\n              mstore\n                /* \"#utility.yul\":13021:13099   */\n              tag_395\n                /* \"#utility.yul\":13094:13098   */\n              dup2\n                /* \"#utility.yul\":13085:13091   */\n              dup6\n                /* \"#utility.yul\":13021:13099   */\n              tag_247\n              jump\t// in\n            tag_395:\n                /* \"#utility.yul\":13013:13099   */\n              swap1\n              pop\n                /* \"#utility.yul\":13109:13181   */\n              tag_396\n                /* \"#utility.yul\":13177:13179   */\n              0x60\n                /* \"#utility.yul\":13166:13175   */\n              dup4\n                /* \"#utility.yul\":13162:13180   */\n              add\n                /* \"#utility.yul\":13153:13159   */\n              dup5\n                /* \"#utility.yul\":13109:13181   */\n              tag_235\n              jump\t// in\n            tag_396:\n                /* \"#utility.yul\":12453:13188   */\n              swap6\n              swap5\n              pop\n              pop\n              pop\n              pop\n              pop\n              jump\t// out\n                /* \"#utility.yul\":13194:13337   */\n            tag_248:\n                /* \"#utility.yul\":13251:13256   */\n              0x00\n                /* \"#utility.yul\":13282:13288   */\n              dup2\n                /* \"#utility.yul\":13276:13289   */\n              mload\n                /* \"#utility.yul\":13267:13289   */\n              swap1\n              pop\n                /* \"#utility.yul\":13298:13331   */\n              tag_398\n                /* \"#utility.yul\":13325:13330   */\n              dup2\n                /* \"#utility.yul\":13298:13331   */\n              tag_215\n              jump\t// in\n            tag_398:\n                /* \"#utility.yul\":13194:13337   */\n              swap3\n              swap2\n              pop\n              pop\n              jump\t// out\n                /* \"#utility.yul\":13343:13694   */\n            tag_93:\n                /* \"#utility.yul\":13413:13419   */\n              0x00\n                /* \"#utility.yul\":13462:13464   */\n              0x20\n                /* \"#utility.yul\":13450:13459   */\n              dup3\n                /* \"#utility.yul\":13441:13448   */\n              dup5\n                /* \"#utility.yul\":13437:13460   */\n              sub\n                /* \"#utility.yul\":13433:13465   */\n              slt\n                /* \"#utility.yul\":13430:13549   */\n              iszero\n              tag_400\n              jumpi\n                /* \"#utility.yul\":13468:13547   */\n              tag_401\n              tag_212\n              jump\t// in\n            tag_401:\n                /* \"#utility.yul\":13430:13549   */\n            tag_400:\n                /* \"#utility.yul\":13588:13589   */\n              0x00\n                /* \"#utility.yul\":13613:13677   */\n              tag_402\n                /* \"#utility.yul\":13669:13676   */\n              dup5\n                /* \"#utility.yul\":13660:13666   */\n              dup3\n                /* \"#utility.yul\":13649:13658   */\n              dup6\n                /* \"#utility.yul\":13645:13667   */\n              add\n                /* \"#utility.yul\":13613:13677   */\n              tag_248\n              jump\t// in\n            tag_402:\n                /* \"#utility.yul\":13603:13677   */\n              swap2\n              pop\n                /* \"#utility.yul\":13559:13687   */\n              pop\n                /* \"#utility.yul\":13343:13694   */\n              swap3\n              swap2\n              pop\n              pop\n              jump\t// out\n                /* \"#utility.yul\":13700:14253   */\n            tag_96:\n                /* \"#utility.yul\":13877:13881   */\n              0x00\n                /* \"#utility.yul\":13915:13918   */\n              0x80\n                /* \"#utility.yul\":13904:13913   */\n              dup3\n                /* \"#utility.yul\":13900:13919   */\n              add\n                /* \"#utility.yul\":13892:13919   */\n              swap1\n              pop\n                /* \"#utility.yul\":13929:14000   */\n              tag_404\n                /* \"#utility.yul\":13997:13998   */\n              0x00\n                /* \"#utility.yul\":13986:13995   */\n              dup4\n                /* \"#utility.yul\":13982:13999   */\n              add\n                /* \"#utility.yul\":13973:13979   */\n              dup8\n                /* \"#utility.yul\":13929:14000   */\n              tag_234\n              jump\t// in\n            tag_404:\n                /* \"#utility.yul\":14010:14082   */\n              tag_405\n                /* \"#utility.yul\":14078:14080   */\n              0x20\n                /* \"#utility.yul\":14067:14076   */\n              dup4\n                /* \"#utility.yul\":14063:14081   */\n              add\n                /* \"#utility.yul\":14054:14060   */\n              dup7\n                /* \"#utility.yul\":14010:14082   */\n              tag_235\n              jump\t// in\n            tag_405:\n                /* \"#utility.yul\":14092:14164   */\n              tag_406\n                /* \"#utility.yul\":14160:14162   */\n              0x40\n                /* \"#utility.yul\":14149:14158   */\n              dup4\n                /* \"#utility.yul\":14145:14163   */\n              add\n                /* \"#utility.yul\":14136:14142   */\n              dup6\n                /* \"#utility.yul\":14092:14164   */\n              tag_235\n              jump\t// in\n            tag_406:\n                /* \"#utility.yul\":14174:14246   */\n              tag_407\n                /* \"#utility.yul\":14242:14244   */\n              0x60\n                /* \"#utility.yul\":14231:14240   */\n              dup4\n                /* \"#utility.yul\":14227:14245   */\n              add\n                /* \"#utility.yul\":14218:14224   */\n              dup5\n                /* \"#utility.yul\":14174:14246   */\n              tag_235\n              jump\t// in\n            tag_407:\n                /* \"#utility.yul\":13700:14253   */\n              swap6\n              swap5\n              pop\n              pop\n              pop\n              pop\n              pop\n              jump\t// out\n                /* \"#utility.yul\":14259:14591   */\n            tag_101:\n                /* \"#utility.yul\":14380:14384   */\n              0x00\n                /* \"#utility.yul\":14418:14420   */\n              0x40\n                /* \"#utility.yul\":14407:14416   */\n              dup3\n                /* \"#utility.yul\":14403:14421   */\n              add\n                /* \"#utility.yul\":14395:14421   */\n              swap1\n              pop\n                /* \"#utility.yul\":14431:14502   */\n              tag_409\n                /* \"#utility.yul\":14499:14500   */\n              0x00\n                /* \"#utility.yul\":14488:14497   */\n              dup4\n                /* \"#utility.yul\":14484:14501   */\n              add\n                /* \"#utility.yul\":14475:14481   */\n              dup6\n                /* \"#utility.yul\":14431:14502   */\n              tag_234\n              jump\t// in\n            tag_409:\n                /* \"#utility.yul\":14512:14584   */\n              tag_410\n                /* \"#utility.yul\":14580:14582   */\n              0x20\n                /* \"#utility.yul\":14569:14578   */\n              dup4\n                /* \"#utility.yul\":14565:14583   */\n              add\n                /* \"#utility.yul\":14556:14562   */\n              dup5\n                /* \"#utility.yul\":14512:14584   */\n              tag_235\n              jump\t// in\n            tag_410:\n                /* \"#utility.yul\":14259:14591   */\n              swap4\n              swap3\n              pop\n              pop\n              pop\n              jump\t// out\n                /* \"#utility.yul\":14597:14706   */\n            tag_249:\n                /* \"#utility.yul\":14678:14699   */\n              tag_412\n                /* \"#utility.yul\":14693:14698   */\n              dup2\n                /* \"#utility.yul\":14678:14699   */\n              tag_227\n              jump\t// in\n            tag_412:\n                /* \"#utility.yul\":14673:14676   */\n              dup3\n                /* \"#utility.yul\":14666:14700   */\n              mstore\n                /* \"#utility.yul\":14597:14706   */\n              pop\n              pop\n              jump\t// out\n                /* \"#utility.yul\":14712:15032   */\n            tag_117:\n                /* \"#utility.yul\":14827:14831   */\n              0x00\n                /* \"#utility.yul\":14865:14867   */\n              0x40\n                /* \"#utility.yul\":14854:14863   */\n              dup3\n                /* \"#utility.yul\":14850:14868   */\n              add\n                /* \"#utility.yul\":14842:14868   */\n              swap1\n              pop\n                /* \"#utility.yul\":14878:14949   */\n              tag_414\n                /* \"#utility.yul\":14946:14947   */\n              0x00\n                /* \"#utility.yul\":14935:14944   */\n              dup4\n                /* \"#utility.yul\":14931:14948   */\n              add\n                /* \"#utility.yul\":14922:14928   */\n              dup6\n                /* \"#utility.yul\":14878:14949   */\n              tag_235\n              jump\t// in\n            tag_414:\n                /* \"#utility.yul\":14959:15025   */\n              tag_415\n                /* \"#utility.yul\":15021:15023   */\n              0x20\n                /* \"#utility.yul\":15010:15019   */\n              dup4\n                /* \"#utility.yul\":15006:15024   */\n              add\n                /* \"#utility.yul\":14997:15003   */\n              dup5\n                /* \"#utility.yul\":14959:15025   */\n              tag_249\n              jump\t// in\n            tag_415:\n                /* \"#utility.yul\":14712:15032   */\n              swap4\n              swap3\n              pop\n              pop\n              pop\n              jump\t// out\n                /* \"#utility.yul\":15038:15351   */\n            tag_130:\n                /* \"#utility.yul\":15151:15155   */\n              0x00\n                /* \"#utility.yul\":15189:15191   */\n              0x20\n                /* \"#utility.yul\":15178:15187   */\n              dup3\n                /* \"#utility.yul\":15174:15192   */\n              add\n                /* \"#utility.yul\":15166:15192   */\n              swap1\n              pop\n                /* \"#utility.yul\":15238:15247   */\n              dup2\n                /* \"#utility.yul\":15232:15236   */\n              dup2\n                /* \"#utility.yul\":15228:15248   */\n              sub\n                /* \"#utility.yul\":15224:15225   */\n              0x00\n                /* \"#utility.yul\":15213:15222   */\n              dup4\n                /* \"#utility.yul\":15209:15226   */\n              add\n                /* \"#utility.yul\":15202:15249   */\n              mstore\n                /* \"#utility.yul\":15266:15344   */\n              tag_417\n                /* \"#utility.yul\":15339:15343   */\n              dup2\n                /* \"#utility.yul\":15330:15336   */\n              dup5\n                /* \"#utility.yul\":15266:15344   */\n              tag_247\n              jump\t// in\n            tag_417:\n                /* \"#utility.yul\":15258:15344   */\n              swap1\n              pop\n                /* \"#utility.yul\":15038:15351   */\n              swap3\n              swap2\n              pop\n              pop\n              jump\t// out\n                /* \"#utility.yul\":15357:16092   */\n            tag_136:\n                /* \"#utility.yul\":15574:15578   */\n              0x00\n                /* \"#utility.yul\":15612:15615   */\n              0x80\n                /* \"#utility.yul\":15601:15610   */\n              dup3\n                /* \"#utility.yul\":15597:15616   */\n              add\n                /* \"#utility.yul\":15589:15616   */\n              swap1\n              pop\n                /* \"#utility.yul\":15662:15671   */\n              dup2\n                /* \"#utility.yul\":15656:15660   */\n              dup2\n                /* \"#utility.yul\":15652:15672   */\n              sub\n                /* \"#utility.yul\":15648:15649   */\n              0x00\n                /* \"#utility.yul\":15637:15646   */\n              dup4\n                /* \"#utility.yul\":15633:15650   */\n              add\n                /* \"#utility.yul\":15626:15673   */\n              mstore\n                /* \"#utility.yul\":15690:15768   */\n              tag_419\n                /* \"#utility.yul\":15763:15767   */\n              dup2\n                /* \"#utility.yul\":15754:15760   */\n              dup8\n                /* \"#utility.yul\":15690:15768   */\n              tag_247\n              jump\t// in\n            tag_419:\n                /* \"#utility.yul\":15682:15768   */\n              swap1\n              pop\n                /* \"#utility.yul\":15815:15824   */\n              dup2\n                /* \"#utility.yul\":15809:15813   */\n              dup2\n                /* \"#utility.yul\":15805:15825   */\n              sub\n                /* \"#utility.yul\":15800:15802   */\n              0x20\n                /* \"#utility.yul\":15789:15798   */\n              dup4\n                /* \"#utility.yul\":15785:15803   */\n              add\n                /* \"#utility.yul\":15778:15826   */\n              mstore\n                /* \"#utility.yul\":15843:15921   */\n              tag_420\n                /* \"#utility.yul\":15916:15920   */\n              dup2\n                /* \"#utility.yul\":15907:15913   */\n              dup7\n                /* \"#utility.yul\":15843:15921   */\n              tag_247\n              jump\t// in\n            tag_420:\n                /* \"#utility.yul\":15835:15921   */\n              swap1\n              pop\n                /* \"#utility.yul\":15931:16003   */\n              tag_421\n                /* \"#utility.yul\":15999:16001   */\n              0x40\n                /* \"#utility.yul\":15988:15997   */\n              dup4\n                /* \"#utility.yul\":15984:16002   */\n              add\n                /* \"#utility.yul\":15975:15981   */\n              dup6\n                /* \"#utility.yul\":15931:16003   */\n              tag_235\n              jump\t// in\n            tag_421:\n                /* \"#utility.yul\":16013:16085   */\n              tag_422\n                /* \"#utility.yul\":16081:16083   */\n              0x60\n                /* \"#utility.yul\":16070:16079   */\n              dup4\n                /* \"#utility.yul\":16066:16084   */\n              add\n                /* \"#utility.yul\":16057:16063   */\n              dup5\n                /* \"#utility.yul\":16013:16085   */\n              tag_234\n              jump\t// in\n            tag_422:\n                /* \"#utility.yul\":15357:16092   */\n              swap6\n              swap5\n              pop\n              pop\n              pop\n              pop\n              pop\n              jump\t// out\n                /* \"#utility.yul\":16098:16430   */\n            tag_163:\n                /* \"#utility.yul\":16219:16223   */\n              0x00\n                /* \"#utility.yul\":16257:16259   */\n              0x40\n                /* \"#utility.yul\":16246:16255   */\n              dup3\n                /* \"#utility.yul\":16242:16260   */\n              add\n                /* \"#utility.yul\":16234:16260   */\n              swap1\n              pop\n                /* \"#utility.yul\":16270:16341   */\n              tag_424\n                /* \"#utility.yul\":16338:16339   */\n              0x00\n                /* \"#utility.yul\":16327:16336   */\n              dup4\n                /* \"#utility.yul\":16323:16340   */\n              add\n                /* \"#utility.yul\":16314:16320   */\n              dup6\n                /* \"#utility.yul\":16270:16341   */\n              tag_235\n              jump\t// in\n            tag_424:\n                /* \"#utility.yul\":16351:16423   */\n              tag_425\n                /* \"#utility.yul\":16419:16421   */\n              0x20\n                /* \"#utility.yul\":16408:16417   */\n              dup4\n                /* \"#utility.yul\":16404:16422   */\n              add\n                /* \"#utility.yul\":16395:16401   */\n              dup5\n                /* \"#utility.yul\":16351:16423   */\n              tag_234\n              jump\t// in\n            tag_425:\n                /* \"#utility.yul\":16098:16430   */\n              swap4\n              swap3\n              pop\n              pop\n              pop\n              jump\t// out\n                /* \"#utility.yul\":16436:16579   */\n            tag_250:\n                /* \"#utility.yul\":16493:16498   */\n              0x00\n                /* \"#utility.yul\":16524:16530   */\n              dup2\n                /* \"#utility.yul\":16518:16531   */\n              mload\n                /* \"#utility.yul\":16509:16531   */\n              swap1\n              pop\n                /* \"#utility.yul\":16540:16573   */\n              tag_427\n                /* \"#utility.yul\":16567:16572   */\n              dup2\n                /* \"#utility.yul\":16540:16573   */\n              tag_232\n              jump\t// in\n            tag_427:\n                /* \"#utility.yul\":16436:16579   */\n              swap3\n              swap2\n              pop\n              pop\n              jump\t// out\n                /* \"#utility.yul\":16585:16936   */\n            tag_194:\n                /* \"#utility.yul\":16655:16661   */\n              0x00\n                /* \"#utility.yul\":16704:16706   */\n              0x20\n                /* \"#utility.yul\":16692:16701   */\n              dup3\n                /* \"#utility.yul\":16683:16690   */\n              dup5\n                /* \"#utility.yul\":16679:16702   */\n              sub\n                /* \"#utility.yul\":16675:16707   */\n              slt\n                /* \"#utility.yul\":16672:16791   */\n              iszero\n              tag_429\n              jumpi\n                /* \"#utility.yul\":16710:16789   */\n              tag_430\n              tag_212\n              jump\t// in\n            tag_430:\n                /* \"#utility.yul\":16672:16791   */\n            tag_429:\n                /* \"#utility.yul\":16830:16831   */\n              0x00\n                /* \"#utility.yul\":16855:16919   */\n              tag_431\n                /* \"#utility.yul\":16911:16918   */\n              dup5\n                /* \"#utility.yul\":16902:16908   */\n              dup3\n                /* \"#utility.yul\":16891:16900   */\n              dup6\n                /* \"#utility.yul\":16887:16909   */\n              add\n                /* \"#utility.yul\":16855:16919   */\n              tag_250\n              jump\t// in\n            tag_431:\n                /* \"#utility.yul\":16845:16919   */\n              swap2\n              pop\n                /* \"#utility.yul\":16801:16929   */\n              pop\n                /* \"#utility.yul\":16585:16936   */\n              swap3\n              swap2\n              pop\n              pop\n              jump\t// out\n\n            auxdata: 0xa26469706673582212201dd27e2d98e1d2a5039d624bd817b46adca32e85a8c19b70f5d5373e0c04c4f664736f6c634300080a0033\n        }\n\n        sub_1: assembly {\n                /* \"devs/BookManager.sol\":768:3222   */\n              mstore(0x40, 0x80)\n                /* \"devs/BookManager.sol\":1143:1254   */\n              callvalue\n              dup1\n              iszero\n              tag_1\n              jumpi\n              0x00\n              dup1\n              revert\n            tag_1:\n              pop\n              mload(0x40)\n              sub(codesize, bytecodeSize)\n              dup1\n              bytecodeSize\n              dup4\n              codecopy\n              dup2\n              dup2\n              add\n              0x40\n              mstore\n              dup2\n              add\n              swap1\n              tag_2\n              swap2\n              swap1\n              tag_3\n              jump\t// in\n            tag_2:\n                /* \"devs/BookManager.sol\":1196:1209   */\n              dup1\n                /* \"devs/BookManager.sol\":1188:1193   */\n              0x00\n              dup1\n                /* \"devs/BookManager.sol\":1188:1209   */\n              0x0100\n              exp\n              dup2\n              sload\n              dup2\n              0xffffffffffffffffffffffffffffffffffffffff\n              mul\n              not\n              and\n              swap1\n              dup4\n              0xffffffffffffffffffffffffffffffffffffffff\n              and\n              mul\n              or\n              swap1\n              sstore\n              pop\n                /* \"devs/BookManager.sol\":1237:1247   */\n              caller\n                /* \"devs/BookManager.sol\":1219:1234   */\n              0x01\n              0x00\n                /* \"devs/BookManager.sol\":1219:1247   */\n              0x0100\n              exp\n              dup2\n              sload\n              dup2\n              0xffffffffffffffffffffffffffffffffffffffff\n              mul\n              not\n              and\n              swap1\n              dup4\n              0xffffffffffffffffffffffffffffffffffffffff\n              and\n              mul\n              or\n              swap1\n              sstore\n              pop\n                /* \"devs/BookManager.sol\":1143:1254   */\n              pop\n                /* \"devs/BookManager.sol\":768:3222   */\n              jump(tag_6)\n                /* \"#utility.yul\":88:205   */\n            tag_8:\n                /* \"#utility.yul\":197:198   */\n              0x00\n                /* \"#utility.yul\":194:195   */\n              dup1\n                /* \"#utility.yul\":187:199   */\n              revert\n                /* \"#utility.yul\":334:460   */\n            tag_10:\n                /* \"#utility.yul\":371:378   */\n              0x00\n                /* \"#utility.yul\":411:453   */\n              0xffffffffffffffffffffffffffffffffffffffff\n                /* \"#utility.yul\":404:409   */\n              dup3\n                /* \"#utility.yul\":400:454   */\n              and\n                /* \"#utility.yul\":389:454   */\n              swap1\n              pop\n                /* \"#utility.yul\":334:460   */\n              swap2\n              swap1\n              pop\n              jump\t// out\n                /* \"#utility.yul\":466:562   */\n            tag_11:\n                /* \"#utility.yul\":503:510   */\n              0x00\n                /* \"#utility.yul\":532:556   */\n              tag_20\n                /* \"#utility.yul\":550:555   */\n              dup3\n                /* \"#utility.yul\":532:556   */\n              tag_10\n              jump\t// in\n            tag_20:\n                /* \"#utility.yul\":521:556   */\n              swap1\n              pop\n                /* \"#utility.yul\":466:562   */\n              swap2\n              swap1\n              pop\n              jump\t// out\n                /* \"#utility.yul\":568:690   */\n            tag_12:\n                /* \"#utility.yul\":641:665   */\n              tag_22\n                /* \"#utility.yul\":659:664   */\n              dup2\n                /* \"#utility.yul\":641:665   */\n              tag_11\n              jump\t// in\n            tag_22:\n                /* \"#utility.yul\":634:639   */\n              dup2\n                /* \"#utility.yul\":631:666   */\n              eq\n                /* \"#utility.yul\":621:684   */\n              tag_23\n              jumpi\n                /* \"#utility.yul\":680:681   */\n              0x00\n                /* \"#utility.yul\":677:678   */\n              dup1\n                /* \"#utility.yul\":670:682   */\n              revert\n                /* \"#utility.yul\":621:684   */\n            tag_23:\n                /* \"#utility.yul\":568:690   */\n              pop\n              jump\t// out\n                /* \"#utility.yul\":696:839   */\n            tag_13:\n                /* \"#utility.yul\":753:758   */\n              0x00\n                /* \"#utility.yul\":784:790   */\n              dup2\n                /* \"#utility.yul\":778:791   */\n              mload\n                /* \"#utility.yul\":769:791   */\n              swap1\n              pop\n                /* \"#utility.yul\":800:833   */\n              tag_25\n                /* \"#utility.yul\":827:832   */\n              dup2\n                /* \"#utility.yul\":800:833   */\n              tag_12\n              jump\t// in\n            tag_25:\n                /* \"#utility.yul\":696:839   */\n              swap3\n              swap2\n              pop\n              pop\n              jump\t// out\n                /* \"#utility.yul\":845:1196   */\n            tag_3:\n                /* \"#utility.yul\":915:921   */\n              0x00\n                /* \"#utility.yul\":964:966   */\n              0x20\n                /* \"#utility.yul\":952:961   */\n              dup3\n                /* \"#utility.yul\":943:950   */\n              dup5\n                /* \"#utility.yul\":939:962   */\n              sub\n                /* \"#utility.yul\":935:967   */\n              slt\n                /* \"#utility.yul\":932:1051   */\n              iszero\n              tag_27\n              jumpi\n                /* \"#utility.yul\":970:1049   */\n              tag_28\n              tag_8\n              jump\t// in\n            tag_28:\n                /* \"#utility.yul\":932:1051   */\n            tag_27:\n                /* \"#utility.yul\":1090:1091   */\n              0x00\n                /* \"#utility.yul\":1115:1179   */\n              tag_29\n                /* \"#utility.yul\":1171:1178   */\n              dup5\n                /* \"#utility.yul\":1162:1168   */\n              dup3\n                /* \"#utility.yul\":1151:1160   */\n              dup6\n                /* \"#utility.yul\":1147:1169   */\n              add\n                /* \"#utility.yul\":1115:1179   */\n              tag_13\n              jump\t// in\n            tag_29:\n                /* \"#utility.yul\":1105:1179   */\n              swap2\n              pop\n                /* \"#utility.yul\":1061:1189   */\n              pop\n                /* \"#utility.yul\":845:1196   */\n              swap3\n              swap2\n              pop\n              pop\n              jump\t// out\n                /* \"devs/BookManager.sol\":768:3222   */\n            tag_6:\n              dataSize(sub_0)\n              dup1\n              dataOffset(sub_0)\n              0x00\n              codecopy\n              0x00\n              return\n            stop\n\n            sub_0: assembly {\n                    /* \"devs/BookManager.sol\":768:3222   */\n                  mstore(0x40, 0x80)\n                  callvalue\n                  dup1\n                  iszero\n                  tag_1\n                  jumpi\n                  0x00\n                  dup1\n                  revert\n                tag_1:\n                  pop\n                  jumpi(tag_2, lt(calldatasize, 0x04))\n                  shr(0xe0, calldataload(0x00))\n                  dup1\n                  0x8da5cb5b\n                  gt\n                  tag_14\n                  jumpi\n                  dup1\n                  0x8da5cb5b\n                  eq\n                  tag_8\n                  jumpi\n                  dup1\n                  0x98fbce79\n                  eq\n                  tag_9\n                  jumpi\n                  dup1\n                  0xa54925dd\n                  eq\n                  tag_10\n                  jumpi\n                  dup1\n                  0xd9ff0cf1\n                  eq\n                  tag_11\n                  jumpi\n                  dup1\n                  0xe71448a9\n                  eq\n                  tag_12\n                  jumpi\n                  dup1\n                  0xf76ebe1c\n                  eq\n                  tag_13\n                  jumpi\n                  jump(tag_2)\n                tag_14:\n                  dup1\n                  0x0a6b2a25\n                  eq\n                  tag_3\n                  jumpi\n                  dup1\n                  0x0cc21200\n                  eq\n                  tag_4\n                  jumpi\n                  dup1\n                  0x1cb71ed5\n                  eq\n                  tag_5\n                  jumpi\n                  dup1\n                  0x687564ae\n                  eq\n                  tag_6\n                  jumpi\n                  dup1\n                  0x6c230eef\n                  eq\n                  tag_7\n                  jumpi\n                tag_2:\n                  0x00\n                  dup1\n                  revert\n                    /* \"devs/BookManager.sol\":3049:3220   */\n                tag_3:\n                  tag_15\n                  0x04\n                  dup1\n                  calldatasize\n                  sub\n                  dup2\n                  add\n                  swap1\n                  tag_16\n                  swap2\n                  swap1\n                  tag_17\n                  jump\t// in\n                tag_16:\n                  tag_18\n                  jump\t// in\n                tag_15:\n                  stop\n                    /* \"devs/BookManager.sol\":1668:2017   */\n                tag_4:\n                  tag_19\n                  0x04\n                  dup1\n                  calldatasize\n                  sub\n                  dup2\n                  add\n                  swap1\n                  tag_20\n                  swap2\n                  swap1\n                  tag_21\n                  jump\t// in\n                tag_20:\n                  tag_22\n                  jump\t// in\n                tag_19:\n                  stop\n                    /* \"devs/BookManager.sol\":1000:1043   */\n                tag_5:\n                  tag_23\n                  0x04\n                  dup1\n                  calldatasize\n                  sub\n                  dup2\n                  add\n                  swap1\n                  tag_24\n                  swap2\n                  swap1\n                  tag_25\n                  jump\t// in\n                tag_24:\n                  tag_26\n                  jump\t// in\n                tag_23:\n                  mload(0x40)\n                  tag_27\n                  swap2\n                  swap1\n                  tag_28\n                  jump\t// in\n                tag_27:\n                  mload(0x40)\n                  dup1\n                  swap2\n                  sub\n                  swap1\n                  return\n                    /* \"devs/BookManager.sol\":1260:1662   */\n                tag_6:\n                  tag_29\n                  0x04\n                  dup1\n                  calldatasize\n                  sub\n                  dup2\n                  add\n                  swap1\n                  tag_30\n                  swap2\n                  swap1\n                  tag_31\n                  jump\t// in\n                tag_30:\n                  tag_32\n                  jump\t// in\n                tag_29:\n                  stop\n                    /* \"devs/BookManager.sol\":2263:2453   */\n                tag_7:\n                  tag_33\n                  0x04\n                  dup1\n                  calldatasize\n                  sub\n                  dup2\n                  add\n                  swap1\n                  tag_34\n                  swap2\n                  swap1\n                  tag_17\n                  jump\t// in\n                tag_34:\n                  tag_35\n                  jump\t// in\n                tag_33:\n                  mload(0x40)\n                  tag_36\n                  swap2\n                  swap1\n                  tag_37\n                  jump\t// in\n                tag_36:\n                  mload(0x40)\n                  dup1\n                  swap2\n                  sub\n                  swap1\n                  return\n                    /* \"devs/BookManager.sol\":819:839   */\n                tag_8:\n                  tag_38\n                  tag_39\n                  jump\t// in\n                tag_38:\n                  mload(0x40)\n                  tag_40\n                  swap2\n                  swap1\n                  tag_41\n                  jump\t// in\n                tag_40:\n                  mload(0x40)\n                  dup1\n                  swap2\n                  sub\n                  swap1\n                  return\n                    /* \"devs/BookManager.sol\":2459:2917   */\n                tag_9:\n                  tag_42\n                  0x04\n                  dup1\n                  calldatasize\n                  sub\n                  dup2\n                  add\n                  swap1\n                  tag_43\n                  swap2\n                  swap1\n                  tag_17\n                  jump\t// in\n                tag_43:\n                  tag_44\n                  jump\t// in\n                tag_42:\n                  mload(0x40)\n                  tag_45\n                  swap6\n                  swap5\n                  swap4\n                  swap3\n                  swap2\n                  swap1\n                  tag_46\n                  jump\t// in\n                tag_45:\n                  mload(0x40)\n                  dup1\n                  swap2\n                  sub\n                  swap1\n                  return\n                    /* \"devs/BookManager.sol\":2023:2231   */\n                tag_10:\n                  tag_47\n                  0x04\n                  dup1\n                  calldatasize\n                  sub\n                  dup2\n                  add\n                  swap1\n                  tag_48\n                  swap2\n                  swap1\n                  tag_49\n                  jump\t// in\n                tag_48:\n                  tag_50\n                  jump\t// in\n                tag_47:\n                  stop\n                    /* \"devs/BookManager.sol\":908:964   */\n                tag_11:\n                  tag_51\n                  0x04\n                  dup1\n                  calldatasize\n                  sub\n                  dup2\n                  add\n                  swap1\n                  tag_52\n                  swap2\n                  swap1\n                  tag_17\n                  jump\t// in\n                tag_52:\n                  tag_53\n                  jump\t// in\n                tag_51:\n                  mload(0x40)\n                  tag_54\n                  swap6\n                  swap5\n                  swap4\n                  swap3\n                  swap2\n                  swap1\n                  tag_46\n                  jump\t// in\n                tag_54:\n                  mload(0x40)\n                  dup1\n                  swap2\n                  sub\n                  swap1\n                  return\n                    /* \"devs/BookManager.sol\":2923:3043   */\n                tag_12:\n                  tag_55\n                  0x04\n                  dup1\n                  calldatasize\n                  sub\n                  dup2\n                  add\n                  swap1\n                  tag_56\n                  swap2\n                  swap1\n                  tag_25\n                  jump\t// in\n                tag_56:\n                  tag_57\n                  jump\t// in\n                tag_55:\n                  mload(0x40)\n                  tag_58\n                  swap2\n                  swap1\n                  tag_28\n                  jump\t// in\n                tag_58:\n                  mload(0x40)\n                  dup1\n                  swap2\n                  sub\n                  swap1\n                  return\n                    /* \"devs/BookManager.sol\":883:902   */\n                tag_13:\n                  tag_59\n                  tag_60\n                  jump\t// in\n                tag_59:\n                  mload(0x40)\n                  tag_61\n                  swap2\n                  swap1\n                  tag_37\n                  jump\t// in\n                tag_61:\n                  mload(0x40)\n                  dup1\n                  swap2\n                  sub\n                  swap1\n                  return\n                    /* \"devs/BookManager.sol\":3049:3220   */\n                tag_18:\n                    /* \"devs/BookManager.sol\":3107:3146   */\n                  0x00\n                    /* \"devs/BookManager.sol\":3149:3165   */\n                  0x03\n                    /* \"devs/BookManager.sol\":3149:3177   */\n                  0x00\n                    /* \"devs/BookManager.sol\":3166:3176   */\n                  dup4\n                    /* \"devs/BookManager.sol\":3149:3177   */\n                  dup2\n                  mstore\n                  0x20\n                  add\n                  swap1\n                  dup2\n                  mstore\n                  0x20\n                  add\n                  0x00\n                  keccak256\n                    /* \"devs/BookManager.sol\":3107:3177   */\n                  swap1\n                  pop\n                    /* \"devs/BookManager.sol\":3187:3202   */\n                  dup1\n                    /* \"devs/BookManager.sol\":3187:3211   */\n                  0x03\n                  add\n                  0x00\n                    /* \"devs/BookManager.sol\":3187:3213   */\n                  dup2\n                  sload\n                  dup1\n                  swap3\n                  swap2\n                  swap1\n                  tag_63\n                  swap1\n                  tag_64\n                  jump\t// in\n                tag_63:\n                  swap2\n                  swap1\n                  pop\n                  sstore\n                  pop\n                    /* \"devs/BookManager.sol\":3097:3220   */\n                  pop\n                    /* \"devs/BookManager.sol\":3049:3220   */\n                  pop\n                  jump\t// out\n                    /* \"devs/BookManager.sol\":1668:2017   */\n                tag_22:\n                    /* \"devs/BookManager.sol\":1108:1118   */\n                  caller\n                    /* \"devs/BookManager.sol\":1089:1118   */\n                  0xffffffffffffffffffffffffffffffffffffffff\n                  and\n                    /* \"devs/BookManager.sol\":1089:1104   */\n                  0x01\n                  0x00\n                  swap1\n                  sload\n                  swap1\n                  0x0100\n                  exp\n                  swap1\n                  div\n                  0xffffffffffffffffffffffffffffffffffffffff\n                  and\n                    /* \"devs/BookManager.sol\":1089:1118   */\n                  0xffffffffffffffffffffffffffffffffffffffff\n                  and\n                  eq\n                    /* \"devs/BookManager.sol\":1081:1119   */\n                  tag_66\n                  jumpi\n                  0x00\n                  dup1\n                  revert\n                tag_66:\n                    /* \"devs/BookManager.sol\":1835:1863   */\n                  0x00\n                    /* \"devs/BookManager.sol\":1866:1882   */\n                  0x03\n                    /* \"devs/BookManager.sol\":1866:1894   */\n                  0x00\n                    /* \"devs/BookManager.sol\":1883:1893   */\n                  dup7\n                    /* \"devs/BookManager.sol\":1866:1894   */\n                  dup2\n                  mstore\n                  0x20\n                  add\n                  swap1\n                  dup2\n                  mstore\n                  0x20\n                  add\n                  0x00\n                  keccak256\n                    /* \"devs/BookManager.sol\":1835:1894   */\n                  swap1\n                  pop\n                    /* \"devs/BookManager.sol\":1918:1925   */\n                  dup4\n                    /* \"devs/BookManager.sol\":1904:1908   */\n                  dup2\n                    /* \"devs/BookManager.sol\":1904:1915   */\n                  0x00\n                  add\n                    /* \"devs/BookManager.sol\":1904:1925   */\n                  swap1\n                  dup1\n                  mload\n                  swap1\n                  0x20\n                  add\n                  swap1\n                  tag_68\n                  swap3\n                  swap2\n                  swap1\n                  tag_69\n                  jump\t// in\n                tag_68:\n                  pop\n                    /* \"devs/BookManager.sol\":1948:1954   */\n                  dup3\n                    /* \"devs/BookManager.sol\":1935:1939   */\n                  dup2\n                    /* \"devs/BookManager.sol\":1935:1945   */\n                  0x01\n                  add\n                    /* \"devs/BookManager.sol\":1935:1954   */\n                  swap1\n                  dup1\n                  mload\n                  swap1\n                  0x20\n                  add\n                  swap1\n                  tag_70\n                  swap3\n                  swap2\n                  swap1\n                  tag_69\n                  jump\t// in\n                tag_70:\n                  pop\n                    /* \"devs/BookManager.sol\":1977:1983   */\n                  dup2\n                    /* \"devs/BookManager.sol\":1964:1968   */\n                  dup2\n                    /* \"devs/BookManager.sol\":1964:1974   */\n                  0x02\n                  add\n                    /* \"devs/BookManager.sol\":1964:1983   */\n                  dup2\n                  swap1\n                  sstore\n                  pop\n                    /* \"devs/BookManager.sol\":2009:2010   */\n                  0x00\n                    /* \"devs/BookManager.sol\":1993:1997   */\n                  dup2\n                    /* \"devs/BookManager.sol\":1993:2006   */\n                  0x03\n                  add\n                    /* \"devs/BookManager.sol\":1993:2010   */\n                  dup2\n                  swap1\n                  sstore\n                  pop\n                    /* \"devs/BookManager.sol\":1790:2017   */\n                  pop\n                    /* \"devs/BookManager.sol\":1668:2017   */\n                  pop\n                  pop\n                  pop\n                  pop\n                  jump\t// out\n                    /* \"devs/BookManager.sol\":1000:1043   */\n                tag_26:\n                  0x04\n                  dup2\n                  dup1\n                  mload\n                  0x20\n                  dup2\n                  add\n                  dup3\n                  add\n                  dup1\n                  mload\n                  dup5\n                  dup3\n                  mstore\n                  0x20\n                  dup4\n                  add\n                  0x20\n                  dup6\n                  add\n                  keccak256\n                  dup2\n                  dup4\n                  mstore\n                  dup1\n                  swap6\n                  pop\n                  pop\n                  pop\n                  pop\n                  pop\n                  pop\n                  0x00\n                  swap2\n                  pop\n                  sload\n                  swap1\n                  0x0100\n                  exp\n                  swap1\n                  div\n                  0xff\n                  and\n                  dup2\n                  jump\t// out\n                    /* \"devs/BookManager.sol\":1260:1662   */\n                tag_32:\n                    /* \"devs/BookManager.sol\":1108:1118   */\n                  caller\n                    /* \"devs/BookManager.sol\":1089:1118   */\n                  0xffffffffffffffffffffffffffffffffffffffff\n                  and\n                    /* \"devs/BookManager.sol\":1089:1104   */\n                  0x01\n                  0x00\n                  swap1\n                  sload\n                  swap1\n                  0x0100\n                  exp\n                  swap1\n                  div\n                  0xffffffffffffffffffffffffffffffffffffffff\n                  and\n                    /* \"devs/BookManager.sol\":1089:1118   */\n                  0xffffffffffffffffffffffffffffffffffffffff\n                  and\n                  eq\n                    /* \"devs/BookManager.sol\":1081:1119   */\n                  tag_72\n                  jumpi\n                  0x00\n                  dup1\n                  revert\n                tag_72:\n                    /* \"devs/BookManager.sol\":1397:1425   */\n                  0x00\n                    /* \"devs/BookManager.sol\":1428:1444   */\n                  0x03\n                    /* \"devs/BookManager.sol\":1428:1455   */\n                  0x00\n                    /* \"devs/BookManager.sol\":1445:1452   */\n                  0x02\n                  0x00\n                    /* \"devs/BookManager.sol\":1445:1454   */\n                  dup2\n                  sload\n                  dup1\n                  swap3\n                  swap2\n                  swap1\n                  tag_74\n                  swap1\n                  tag_64\n                  jump\t// in\n                tag_74:\n                  swap2\n                  swap1\n                  pop\n                  sstore\n                    /* \"devs/BookManager.sol\":1428:1455   */\n                  dup2\n                  mstore\n                  0x20\n                  add\n                  swap1\n                  dup2\n                  mstore\n                  0x20\n                  add\n                  0x00\n                  keccak256\n                    /* \"devs/BookManager.sol\":1397:1455   */\n                  swap1\n                  pop\n                    /* \"devs/BookManager.sol\":1479:1486   */\n                  dup5\n                    /* \"devs/BookManager.sol\":1465:1469   */\n                  dup2\n                    /* \"devs/BookManager.sol\":1465:1476   */\n                  0x00\n                  add\n                    /* \"devs/BookManager.sol\":1465:1486   */\n                  swap1\n                  dup1\n                  mload\n                  swap1\n                  0x20\n                  add\n                  swap1\n                  tag_75\n                  swap3\n                  swap2\n                  swap1\n                  tag_69\n                  jump\t// in\n                tag_75:\n                  pop\n                    /* \"devs/BookManager.sol\":1509:1515   */\n                  dup4\n                    /* \"devs/BookManager.sol\":1496:1500   */\n                  dup2\n                    /* \"devs/BookManager.sol\":1496:1506   */\n                  0x01\n                  add\n                    /* \"devs/BookManager.sol\":1496:1515   */\n                  swap1\n                  dup1\n                  mload\n                  swap1\n                  0x20\n                  add\n                  swap1\n                  tag_76\n                  swap3\n                  swap2\n                  swap1\n                  tag_69\n                  jump\t// in\n                tag_76:\n                  pop\n                    /* \"devs/BookManager.sol\":1538:1544   */\n                  dup3\n                    /* \"devs/BookManager.sol\":1525:1529   */\n                  dup2\n                    /* \"devs/BookManager.sol\":1525:1535   */\n                  0x02\n                  add\n                    /* \"devs/BookManager.sol\":1525:1544   */\n                  dup2\n                  swap1\n                  sstore\n                  pop\n                    /* \"devs/BookManager.sol\":1570:1571   */\n                  0x00\n                    /* \"devs/BookManager.sol\":1554:1558   */\n                  dup2\n                    /* \"devs/BookManager.sol\":1554:1567   */\n                  0x03\n                  add\n                    /* \"devs/BookManager.sol\":1554:1571   */\n                  dup2\n                  swap1\n                  sstore\n                  pop\n                    /* \"devs/BookManager.sol\":1602:1616   */\n                  dup2\n                    /* \"devs/BookManager.sol\":1581:1585   */\n                  dup2\n                    /* \"devs/BookManager.sol\":1581:1599   */\n                  0x04\n                  add\n                  0x00\n                    /* \"devs/BookManager.sol\":1581:1616   */\n                  0x0100\n                  exp\n                  dup2\n                  sload\n                  dup2\n                  0xffffffffffffffffffffffffffffffffffffffff\n                  mul\n                  not\n                  and\n                  swap1\n                  dup4\n                  0xffffffffffffffffffffffffffffffffffffffff\n                  and\n                  mul\n                  or\n                  swap1\n                  sstore\n                  pop\n                    /* \"devs/BookManager.sol\":1651:1655   */\n                  0x01\n                    /* \"devs/BookManager.sol\":1627:1639   */\n                  0x04\n                    /* \"devs/BookManager.sol\":1640:1647   */\n                  dup7\n                    /* \"devs/BookManager.sol\":1627:1648   */\n                  mload(0x40)\n                  tag_77\n                  swap2\n                  swap1\n                  tag_78\n                  jump\t// in\n                tag_77:\n                  swap1\n                  dup2\n                  mstore\n                  0x20\n                  add\n                  mload(0x40)\n                  dup1\n                  swap2\n                  sub\n                  swap1\n                  keccak256\n                  0x00\n                    /* \"devs/BookManager.sol\":1627:1655   */\n                  0x0100\n                  exp\n                  dup2\n                  sload\n                  dup2\n                  0xff\n                  mul\n                  not\n                  and\n                  swap1\n                  dup4\n                  iszero\n                  iszero\n                  mul\n                  or\n                  swap1\n                  sstore\n                  pop\n                    /* \"devs/BookManager.sol\":1387:1662   */\n                  pop\n                    /* \"devs/BookManager.sol\":1260:1662   */\n                  pop\n                  pop\n                  pop\n                  pop\n                  jump\t// out\n                    /* \"devs/BookManager.sol\":2263:2453   */\n                tag_35:\n                    /* \"devs/BookManager.sol\":2324:2328   */\n                  0x00\n                    /* \"devs/BookManager.sol\":2339:2377   */\n                  dup1\n                    /* \"devs/BookManager.sol\":2380:2396   */\n                  0x03\n                    /* \"devs/BookManager.sol\":2380:2408   */\n                  0x00\n                    /* \"devs/BookManager.sol\":2397:2407   */\n                  dup5\n                    /* \"devs/BookManager.sol\":2380:2408   */\n                  dup2\n                  mstore\n                  0x20\n                  add\n                  swap1\n                  dup2\n                  mstore\n                  0x20\n                  add\n                  0x00\n                  keccak256\n                    /* \"devs/BookManager.sol\":2339:2408   */\n                  mload(0x40)\n                  dup1\n                  0xa0\n                  add\n                  0x40\n                  mstore\n                  swap1\n                  dup2\n                  0x00\n                  dup3\n                  add\n                  dup1\n                  sload\n                  tag_80\n                  swap1\n                  tag_81\n                  jump\t// in\n                tag_80:\n                  dup1\n                  0x1f\n                  add\n                  0x20\n                  dup1\n                  swap2\n                  div\n                  mul\n                  0x20\n                  add\n                  mload(0x40)\n                  swap1\n                  dup2\n                  add\n                  0x40\n                  mstore\n                  dup1\n                  swap3\n                  swap2\n                  swap1\n                  dup2\n                  dup2\n                  mstore\n                  0x20\n                  add\n                  dup3\n                  dup1\n                  sload\n                  tag_82\n                  swap1\n                  tag_81\n                  jump\t// in\n                tag_82:\n                  dup1\n                  iszero\n                  tag_83\n                  jumpi\n                  dup1\n                  0x1f\n                  lt\n                  tag_84\n                  jumpi\n                  0x0100\n                  dup1\n                  dup4\n                  sload\n                  div\n                  mul\n                  dup4\n                  mstore\n                  swap2\n                  0x20\n                  add\n                  swap2\n                  jump(tag_83)\n                tag_84:\n                  dup3\n                  add\n                  swap2\n                  swap1\n                  0x00\n                  mstore\n                  keccak256(0x00, 0x20)\n                  swap1\n                tag_85:\n                  dup2\n                  sload\n                  dup2\n                  mstore\n                  swap1\n                  0x01\n                  add\n                  swap1\n                  0x20\n                  add\n                  dup1\n                  dup4\n                  gt\n                  tag_85\n                  jumpi\n                  dup3\n                  swap1\n                  sub\n                  0x1f\n                  and\n                  dup3\n                  add\n                  swap2\n                tag_83:\n                  pop\n                  pop\n                  pop\n                  pop\n                  pop\n                  dup2\n                  mstore\n                  0x20\n                  add\n                  0x01\n                  dup3\n                  add\n                  dup1\n                  sload\n                  tag_86\n                  swap1\n                  tag_81\n                  jump\t// in\n                tag_86:\n                  dup1\n                  0x1f\n                  add\n                  0x20\n                  dup1\n                  swap2\n                  div\n                  mul\n                  0x20\n                  add\n                  mload(0x40)\n                  swap1\n                  dup2\n                  add\n                  0x40\n                  mstore\n                  dup1\n                  swap3\n                  swap2\n                  swap1\n                  dup2\n                  dup2\n                  mstore\n                  0x20\n                  add\n                  dup3\n                  dup1\n                  sload\n                  tag_87\n                  swap1\n                  tag_81\n                  jump\t// in\n                tag_87:\n                  dup1\n                  iszero\n                  tag_88\n                  jumpi\n                  dup1\n                  0x1f\n                  lt\n                  tag_89\n                  jumpi\n                  0x0100\n                  dup1\n                  dup4\n                  sload\n                  div\n                  mul\n                  dup4\n                  mstore\n                  swap2\n                  0x20\n                  add\n                  swap2\n                  jump(tag_88)\n                tag_89:\n                  dup3\n                  add\n                  swap2\n                  swap1\n                  0x00\n                  mstore\n                  keccak256(0x00, 0x20)\n                  swap1\n                tag_90:\n                  dup2\n                  sload\n                  dup2\n                  mstore\n                  swap1\n                  0x01\n                  add\n                  swap1\n                  0x20\n                  add\n                  dup1\n                  dup4\n                  gt\n                  tag_90\n                  jumpi\n                  dup3\n                  swap1\n                  sub\n                  0x1f\n                  and\n                  dup3\n                  add\n                  swap2\n                tag_88:\n                  pop\n                  pop\n                  pop\n                  pop\n                  pop\n                  dup2\n                  mstore\n                  0x20\n                  add\n                  0x02\n                  dup3\n                  add\n                  sload\n                  dup2\n                  mstore\n                  0x20\n                  add\n                  0x03\n                  dup3\n                  add\n                  sload\n                  dup2\n                  mstore\n                  0x20\n                  add\n                  0x04\n                  dup3\n                  add\n                  0x00\n                  swap1\n                  sload\n                  swap1\n                  0x0100\n                  exp\n                  swap1\n                  div\n                  0xffffffffffffffffffffffffffffffffffffffff\n                  and\n                  0xffffffffffffffffffffffffffffffffffffffff\n                  and\n                  0xffffffffffffffffffffffffffffffffffffffff\n                  and\n                  dup2\n                  mstore\n                  pop\n                  pop\n                  swap1\n                  pop\n                    /* \"devs/BookManager.sol\":2425:2440   */\n                  dup1\n                    /* \"devs/BookManager.sol\":2425:2446   */\n                  0x40\n                  add\n                  mload\n                    /* \"devs/BookManager.sol\":2418:2446   */\n                  swap2\n                  pop\n                  pop\n                    /* \"devs/BookManager.sol\":2263:2453   */\n                  swap2\n                  swap1\n                  pop\n                  jump\t// out\n                    /* \"devs/BookManager.sol\":819:839   */\n                tag_39:\n                  0x00\n                  dup1\n                  sload\n                  swap1\n                  0x0100\n                  exp\n                  swap1\n                  div\n                  0xffffffffffffffffffffffffffffffffffffffff\n                  and\n                  dup2\n                  jump\t// out\n                    /* \"devs/BookManager.sol\":2459:2917   */\n                tag_44:\n                    /* \"devs/BookManager.sol\":2535:2548   */\n                  0x60\n                    /* \"devs/BookManager.sol\":2550:2563   */\n                  dup1\n                    /* \"devs/BookManager.sol\":2565:2569   */\n                  0x00\n                    /* \"devs/BookManager.sol\":2571:2575   */\n                  dup1\n                    /* \"devs/BookManager.sol\":2577:2584   */\n                  0x00\n                    /* \"devs/BookManager.sol\":2599:2637   */\n                  dup1\n                    /* \"devs/BookManager.sol\":2640:2656   */\n                  0x03\n                    /* \"devs/BookManager.sol\":2640:2668   */\n                  0x00\n                    /* \"devs/BookManager.sol\":2657:2667   */\n                  dup9\n                    /* \"devs/BookManager.sol\":2640:2668   */\n                  dup2\n                  mstore\n                  0x20\n                  add\n                  swap1\n                  dup2\n                  mstore\n                  0x20\n                  add\n                  0x00\n                  keccak256\n                    /* \"devs/BookManager.sol\":2599:2668   */\n                  mload(0x40)\n                  dup1\n                  0xa0\n                  add\n                  0x40\n                  mstore\n                  swap1\n                  dup2\n                  0x00\n                  dup3\n                  add\n                  dup1\n                  sload\n                  tag_92\n                  swap1\n                  tag_81\n                  jump\t// in\n                tag_92:\n                  dup1\n                  0x1f\n                  add\n                  0x20\n                  dup1\n                  swap2\n                  div\n                  mul\n                  0x20\n                  add\n                  mload(0x40)\n                  swap1\n                  dup2\n                  add\n                  0x40\n                  mstore\n                  dup1\n                  swap3\n                  swap2\n                  swap1\n                  dup2\n                  dup2\n                  mstore\n                  0x20\n                  add\n                  dup3\n                  dup1\n                  sload\n                  tag_93\n                  swap1\n                  tag_81\n                  jump\t// in\n                tag_93:\n                  dup1\n                  iszero\n                  tag_94\n                  jumpi\n                  dup1\n                  0x1f\n                  lt\n                  tag_95\n                  jumpi\n                  0x0100\n                  dup1\n                  dup4\n                  sload\n                  div\n                  mul\n                  dup4\n                  mstore\n                  swap2\n                  0x20\n                  add\n                  swap2\n                  jump(tag_94)\n                tag_95:\n                  dup3\n                  add\n                  swap2\n                  swap1\n                  0x00\n                  mstore\n                  keccak256(0x00, 0x20)\n                  swap1\n                tag_96:\n                  dup2\n                  sload\n                  dup2\n                  mstore\n                  swap1\n                  0x01\n                  add\n                  swap1\n                  0x20\n                  add\n                  dup1\n                  dup4\n                  gt\n                  tag_96\n                  jumpi\n                  dup3\n                  swap1\n                  sub\n                  0x1f\n                  and\n                  dup3\n                  add\n                  swap2\n                tag_94:\n                  pop\n                  pop\n                  pop\n                  pop\n                  pop\n                  dup2\n                  mstore\n                  0x20\n                  add\n                  0x01\n                  dup3\n                  add\n                  dup1\n                  sload\n                  tag_97\n                  swap1\n                  tag_81\n                  jump\t// in\n                tag_97:\n                  dup1\n                  0x1f\n                  add\n                  0x20\n                  dup1\n                  swap2\n                  div\n                  mul\n                  0x20\n                  add\n                  mload(0x40)\n                  swap1\n                  dup2\n                  add\n                  0x40\n                  mstore\n                  dup1\n                  swap3\n                  swap2\n                  swap1\n                  dup2\n                  dup2\n                  mstore\n                  0x20\n                  add\n                  dup3\n                  dup1\n                  sload\n                  tag_98\n                  swap1\n                  tag_81\n                  jump\t// in\n                tag_98:\n                  dup1\n                  iszero\n                  tag_99\n                  jumpi\n                  dup1\n                  0x1f\n                  lt\n                  tag_100\n                  jumpi\n                  0x0100\n                  dup1\n                  dup4\n                  sload\n                  div\n                  mul\n                  dup4\n                  mstore\n                  swap2\n                  0x20\n                  add\n                  swap2\n                  jump(tag_99)\n                tag_100:\n                  dup3\n                  add\n                  swap2\n                  swap1\n                  0x00\n                  mstore\n                  keccak256(0x00, 0x20)\n                  swap1\n                tag_101:\n                  dup2\n                  sload\n                  dup2\n                  mstore\n                  swap1\n                  0x01\n                  add\n                  swap1\n                  0x20\n                  add\n                  dup1\n                  dup4\n                  gt\n                  tag_101\n                  jumpi\n                  dup3\n                  swap1\n                  sub\n                  0x1f\n                  and\n                  dup3\n                  add\n                  swap2\n                tag_99:\n                  pop\n                  pop\n                  pop\n                  pop\n                  pop\n                  dup2\n                  mstore\n                  0x20\n                  add\n                  0x02\n                  dup3\n                  add\n                  sload\n                  dup2\n                  mstore\n                  0x20\n                  add\n                  0x03\n                  dup3\n                  add\n                  sload\n                  dup2\n                  mstore\n                  0x20\n                  add\n                  0x04\n                  dup3\n                  add\n                  0x00\n                  swap1\n                  sload\n                  swap1\n                  0x0100\n                  exp\n                  swap1\n                  div\n                  0xffffffffffffffffffffffffffffffffffffffff\n                  and\n                  0xffffffffffffffffffffffffffffffffffffffff\n                  and\n                  0xffffffffffffffffffffffffffffffffffffffff\n                  and\n                  dup2\n                  mstore\n                  pop\n                  pop\n                  swap1\n                  pop\n                    /* \"devs/BookManager.sol\":2707:2722   */\n                  dup1\n                    /* \"devs/BookManager.sol\":2707:2729   */\n                  0x00\n                  add\n                  mload\n                    /* \"devs/BookManager.sol\":2747:2762   */\n                  dup2\n                    /* \"devs/BookManager.sol\":2747:2768   */\n                  0x20\n                  add\n                  mload\n                    /* \"devs/BookManager.sol\":2786:2801   */\n                  dup3\n                    /* \"devs/BookManager.sol\":2786:2807   */\n                  0x40\n                  add\n                  mload\n                    /* \"devs/BookManager.sol\":2825:2840   */\n                  dup4\n                    /* \"devs/BookManager.sol\":2825:2849   */\n                  0x60\n                  add\n                  mload\n                    /* \"devs/BookManager.sol\":2867:2882   */\n                  dup5\n                    /* \"devs/BookManager.sol\":2867:2896   */\n                  0x80\n                  add\n                  mload\n                    /* \"devs/BookManager.sol\":2682:2910   */\n                  swap6\n                  pop\n                  swap6\n                  pop\n                  swap6\n                  pop\n                  swap6\n                  pop\n                  swap6\n                  pop\n                  pop\n                    /* \"devs/BookManager.sol\":2459:2917   */\n                  swap2\n                  swap4\n                  swap6\n                  swap1\n                  swap3\n                  swap5\n                  pop\n                  jump\t// out\n                    /* \"devs/BookManager.sol\":2023:2231   */\n                tag_50:\n                    /* \"devs/BookManager.sol\":1108:1118   */\n                  caller\n                    /* \"devs/BookManager.sol\":1089:1118   */\n                  0xffffffffffffffffffffffffffffffffffffffff\n                  and\n                    /* \"devs/BookManager.sol\":1089:1104   */\n                  0x01\n                  0x00\n                  swap1\n                  sload\n                  swap1\n                  0x0100\n                  exp\n                  swap1\n                  div\n                  0xffffffffffffffffffffffffffffffffffffffff\n                  and\n                    /* \"devs/BookManager.sol\":1089:1118   */\n                  0xffffffffffffffffffffffffffffffffffffffff\n                  and\n                  eq\n                    /* \"devs/BookManager.sol\":1081:1119   */\n                  tag_103\n                  jumpi\n                  0x00\n                  dup1\n                  revert\n                tag_103:\n                    /* \"devs/BookManager.sol\":2120:2148   */\n                  0x00\n                    /* \"devs/BookManager.sol\":2151:2167   */\n                  0x03\n                    /* \"devs/BookManager.sol\":2151:2179   */\n                  0x00\n                    /* \"devs/BookManager.sol\":2168:2178   */\n                  dup5\n                    /* \"devs/BookManager.sol\":2151:2179   */\n                  dup2\n                  mstore\n                  0x20\n                  add\n                  swap1\n                  dup2\n                  mstore\n                  0x20\n                  add\n                  0x00\n                  keccak256\n                    /* \"devs/BookManager.sol\":2120:2179   */\n                  swap1\n                  pop\n                    /* \"devs/BookManager.sol\":2210:2224   */\n                  dup2\n                    /* \"devs/BookManager.sol\":2189:2193   */\n                  dup2\n                    /* \"devs/BookManager.sol\":2189:2207   */\n                  0x04\n                  add\n                  0x00\n                    /* \"devs/BookManager.sol\":2189:2224   */\n                  0x0100\n                  exp\n                  dup2\n                  sload\n                  dup2\n                  0xffffffffffffffffffffffffffffffffffffffff\n                  mul\n                  not\n                  and\n                  swap1\n                  dup4\n                  0xffffffffffffffffffffffffffffffffffffffff\n                  and\n                  mul\n                  or\n                  swap1\n                  sstore\n                  pop\n                    /* \"devs/BookManager.sol\":2110:2231   */\n                  pop\n                    /* \"devs/BookManager.sol\":2023:2231   */\n                  pop\n                  pop\n                  jump\t// out\n                    /* \"devs/BookManager.sol\":908:964   */\n                tag_53:\n                  mstore(0x20, 0x03)\n                  dup1\n                  0x00\n                  mstore\n                  keccak256(0x00, 0x40)\n                  0x00\n                  swap2\n                  pop\n                  swap1\n                  pop\n                  dup1\n                  0x00\n                  add\n                  dup1\n                  sload\n                  tag_105\n                  swap1\n                  tag_81\n                  jump\t// in\n                tag_105:\n                  dup1\n                  0x1f\n                  add\n                  0x20\n                  dup1\n                  swap2\n                  div\n                  mul\n                  0x20\n                  add\n                  mload(0x40)\n                  swap1\n                  dup2\n                  add\n                  0x40\n                  mstore\n                  dup1\n                  swap3\n                  swap2\n                  swap1\n                  dup2\n                  dup2\n                  mstore\n                  0x20\n                  add\n                  dup3\n                  dup1\n                  sload\n                  tag_106\n                  swap1\n                  tag_81\n                  jump\t// in\n                tag_106:\n                  dup1\n                  iszero\n                  tag_107\n                  jumpi\n                  dup1\n                  0x1f\n                  lt\n                  tag_108\n                  jumpi\n                  0x0100\n                  dup1\n                  dup4\n                  sload\n                  div\n                  mul\n                  dup4\n                  mstore\n                  swap2\n                  0x20\n                  add\n                  swap2\n                  jump(tag_107)\n                tag_108:\n                  dup3\n                  add\n                  swap2\n                  swap1\n                  0x00\n                  mstore\n                  keccak256(0x00, 0x20)\n                  swap1\n                tag_109:\n                  dup2\n                  sload\n                  dup2\n                  mstore\n                  swap1\n                  0x01\n                  add\n                  swap1\n                  0x20\n                  add\n                  dup1\n                  dup4\n                  gt\n                  tag_109\n                  jumpi\n                  dup3\n                  swap1\n                  sub\n                  0x1f\n                  and\n                  dup3\n                  add\n                  swap2\n                tag_107:\n                  pop\n                  pop\n                  pop\n                  pop\n                  pop\n                  swap1\n                  dup1\n                  0x01\n                  add\n                  dup1\n                  sload\n                  tag_110\n                  swap1\n                  tag_81\n                  jump\t// in\n                tag_110:\n                  dup1\n                  0x1f\n                  add\n                  0x20\n                  dup1\n                  swap2\n                  div\n                  mul\n                  0x20\n                  add\n                  mload(0x40)\n                  swap1\n                  dup2\n                  add\n                  0x40\n                  mstore\n                  dup1\n                  swap3\n                  swap2\n                  swap1\n                  dup2\n                  dup2\n                  mstore\n                  0x20\n                  add\n                  dup3\n                  dup1\n                  sload\n                  tag_111\n                  swap1\n                  tag_81\n                  jump\t// in\n                tag_111:\n                  dup1\n                  iszero\n                  tag_112\n                  jumpi\n                  dup1\n                  0x1f\n                  lt\n                  tag_113\n                  jumpi\n                  0x0100\n                  dup1\n                  dup4\n                  sload\n                  div\n                  mul\n                  dup4\n                  mstore\n                  swap2\n                  0x20\n                  add\n                  swap2\n                  jump(tag_112)\n                tag_113:\n                  dup3\n                  add\n                  swap2\n                  swap1\n                  0x00\n                  mstore\n                  keccak256(0x00, 0x20)\n                  swap1\n                tag_114:\n                  dup2\n                  sload\n                  dup2\n                  mstore\n                  swap1\n                  0x01\n                  add\n                  swap1\n                  0x20\n                  add\n                  dup1\n                  dup4\n                  gt\n                  tag_114\n                  jumpi\n                  dup3\n                  swap1\n                  sub\n                  0x1f\n                  and\n                  dup3\n                  add\n                  swap2\n                tag_112:\n                  pop\n                  pop\n                  pop\n                  pop\n                  pop\n                  swap1\n                  dup1\n                  0x02\n                  add\n                  sload\n                  swap1\n                  dup1\n                  0x03\n                  add\n                  sload\n                  swap1\n                  dup1\n                  0x04\n                  add\n                  0x00\n                  swap1\n                  sload\n                  swap1\n                  0x0100\n                  exp\n                  swap1\n                  div\n                  0xffffffffffffffffffffffffffffffffffffffff\n                  and\n                  swap1\n                  pop\n                  dup6\n                  jump\t// out\n                    /* \"devs/BookManager.sol\":2923:3043   */\n                tag_57:\n                    /* \"devs/BookManager.sol\":2993:2997   */\n                  0x00\n                    /* \"devs/BookManager.sol\":3015:3027   */\n                  0x04\n                    /* \"devs/BookManager.sol\":3028:3035   */\n                  dup3\n                    /* \"devs/BookManager.sol\":3015:3036   */\n                  mload(0x40)\n                  tag_116\n                  swap2\n                  swap1\n                  tag_78\n                  jump\t// in\n                tag_116:\n                  swap1\n                  dup2\n                  mstore\n                  0x20\n                  add\n                  mload(0x40)\n                  dup1\n                  swap2\n                  sub\n                  swap1\n                  keccak256\n                  0x00\n                  swap1\n                  sload\n                  swap1\n                  0x0100\n                  exp\n                  swap1\n                  div\n                  0xff\n                  and\n                    /* \"devs/BookManager.sol\":3008:3036   */\n                  swap1\n                  pop\n                    /* \"devs/BookManager.sol\":2923:3043   */\n                  swap2\n                  swap1\n                  pop\n                  jump\t// out\n                    /* \"devs/BookManager.sol\":883:902   */\n                tag_60:\n                  sload(0x02)\n                  dup2\n                  jump\t// out\n                tag_69:\n                  dup3\n                  dup1\n                  sload\n                  tag_117\n                  swap1\n                  tag_81\n                  jump\t// in\n                tag_117:\n                  swap1\n                  0x00\n                  mstore\n                  keccak256(0x00, 0x20)\n                  swap1\n                  0x1f\n                  add\n                  0x20\n                  swap1\n                  div\n                  dup2\n                  add\n                  swap3\n                  dup3\n                  tag_119\n                  jumpi\n                  0x00\n                  dup6\n                  sstore\n                  jump(tag_118)\n                tag_119:\n                  dup3\n                  0x1f\n                  lt\n                  tag_120\n                  jumpi\n                  dup1\n                  mload\n                  not(0xff)\n                  and\n                  dup4\n                  dup1\n                  add\n                  or\n                  dup6\n                  sstore\n                  jump(tag_118)\n                tag_120:\n                  dup3\n                  dup1\n                  add\n                  0x01\n                  add\n                  dup6\n                  sstore\n                  dup3\n                  iszero\n                  tag_118\n                  jumpi\n                  swap2\n                  dup3\n                  add\n                tag_121:\n                  dup3\n                  dup2\n                  gt\n                  iszero\n                  tag_122\n                  jumpi\n                  dup3\n                  mload\n                  dup3\n                  sstore\n                  swap2\n                  0x20\n                  add\n                  swap2\n                  swap1\n                  0x01\n                  add\n                  swap1\n                  jump(tag_121)\n                tag_122:\n                tag_118:\n                  pop\n                  swap1\n                  pop\n                  tag_123\n                  swap2\n                  swap1\n                  tag_124\n                  jump\t// in\n                tag_123:\n                  pop\n                  swap1\n                  jump\t// out\n                tag_124:\n                tag_125:\n                  dup1\n                  dup3\n                  gt\n                  iszero\n                  tag_126\n                  jumpi\n                  0x00\n                  dup2\n                  0x00\n                  swap1\n                  sstore\n                  pop\n                  0x01\n                  add\n                  jump(tag_125)\n                tag_126:\n                  pop\n                  swap1\n                  jump\t// out\n                    /* \"#utility.yul\":7:82   */\n                tag_127:\n                    /* \"#utility.yul\":40:46   */\n                  0x00\n                    /* \"#utility.yul\":73:75   */\n                  0x40\n                    /* \"#utility.yul\":67:76   */\n                  mload\n                    /* \"#utility.yul\":57:76   */\n                  swap1\n                  pop\n                    /* \"#utility.yul\":7:82   */\n                  swap1\n                  jump\t// out\n                    /* \"#utility.yul\":88:205   */\n                tag_128:\n                    /* \"#utility.yul\":197:198   */\n                  0x00\n                    /* \"#utility.yul\":194:195   */\n                  dup1\n                    /* \"#utility.yul\":187:199   */\n                  revert\n                    /* \"#utility.yul\":211:328   */\n                tag_129:\n                    /* \"#utility.yul\":320:321   */\n                  0x00\n                    /* \"#utility.yul\":317:318   */\n                  dup1\n                    /* \"#utility.yul\":310:322   */\n                  revert\n                    /* \"#utility.yul\":334:411   */\n                tag_130:\n                    /* \"#utility.yul\":371:378   */\n                  0x00\n                    /* \"#utility.yul\":400:405   */\n                  dup2\n                    /* \"#utility.yul\":389:405   */\n                  swap1\n                  pop\n                    /* \"#utility.yul\":334:411   */\n                  swap2\n                  swap1\n                  pop\n                  jump\t// out\n                    /* \"#utility.yul\":417:539   */\n                tag_131:\n                    /* \"#utility.yul\":490:514   */\n                  tag_165\n                    /* \"#utility.yul\":508:513   */\n                  dup2\n                    /* \"#utility.yul\":490:514   */\n                  tag_130\n                  jump\t// in\n                tag_165:\n                    /* \"#utility.yul\":483:488   */\n                  dup2\n                    /* \"#utility.yul\":480:515   */\n                  eq\n                    /* \"#utility.yul\":470:533   */\n                  tag_166\n                  jumpi\n                    /* \"#utility.yul\":529:530   */\n                  0x00\n                    /* \"#utility.yul\":526:527   */\n                  dup1\n                    /* \"#utility.yul\":519:531   */\n                  revert\n                    /* \"#utility.yul\":470:533   */\n                tag_166:\n                    /* \"#utility.yul\":417:539   */\n                  pop\n                  jump\t// out\n                    /* \"#utility.yul\":545:684   */\n                tag_132:\n                    /* \"#utility.yul\":591:596   */\n                  0x00\n                    /* \"#utility.yul\":629:635   */\n                  dup2\n                    /* \"#utility.yul\":616:636   */\n                  calldataload\n                    /* \"#utility.yul\":607:636   */\n                  swap1\n                  pop\n                    /* \"#utility.yul\":645:678   */\n                  tag_168\n                    /* \"#utility.yul\":672:677   */\n                  dup2\n                    /* \"#utility.yul\":645:678   */\n                  tag_131\n                  jump\t// in\n                tag_168:\n                    /* \"#utility.yul\":545:684   */\n                  swap3\n                  swap2\n                  pop\n                  pop\n                  jump\t// out\n                    /* \"#utility.yul\":690:1019   */\n                tag_17:\n                    /* \"#utility.yul\":749:755   */\n                  0x00\n                    /* \"#utility.yul\":798:800   */\n                  0x20\n                    /* \"#utility.yul\":786:795   */\n                  dup3\n                    /* \"#utility.yul\":777:784   */\n                  dup5\n                    /* \"#utility.yul\":773:796   */\n                  sub\n                    /* \"#utility.yul\":769:801   */\n                  slt\n                    /* \"#utility.yul\":766:885   */\n                  iszero\n                  tag_170\n                  jumpi\n                    /* \"#utility.yul\":804:883   */\n                  tag_171\n                  tag_128\n                  jump\t// in\n                tag_171:\n                    /* \"#utility.yul\":766:885   */\n                tag_170:\n                    /* \"#utility.yul\":924:925   */\n                  0x00\n                    /* \"#utility.yul\":949:1002   */\n                  tag_172\n                    /* \"#utility.yul\":994:1001   */\n                  dup5\n                    /* \"#utility.yul\":985:991   */\n                  dup3\n                    /* \"#utility.yul\":974:983   */\n                  dup6\n                    /* \"#utility.yul\":970:992   */\n                  add\n                    /* \"#utility.yul\":949:1002   */\n                  tag_132\n                  jump\t// in\n                tag_172:\n                    /* \"#utility.yul\":939:1002   */\n                  swap2\n                  pop\n                    /* \"#utility.yul\":895:1012   */\n                  pop\n                    /* \"#utility.yul\":690:1019   */\n                  swap3\n                  swap2\n                  pop\n                  pop\n                  jump\t// out\n                    /* \"#utility.yul\":1025:1142   */\n                tag_133:\n                    /* \"#utility.yul\":1134:1135   */\n                  0x00\n                    /* \"#utility.yul\":1131:1132   */\n                  dup1\n                    /* \"#utility.yul\":1124:1136   */\n                  revert\n                    /* \"#utility.yul\":1148:1265   */\n                tag_134:\n                    /* \"#utility.yul\":1257:1258   */\n                  0x00\n                    /* \"#utility.yul\":1254:1255   */\n                  dup1\n                    /* \"#utility.yul\":1247:1259   */\n                  revert\n                    /* \"#utility.yul\":1271:1373   */\n                tag_135:\n                    /* \"#utility.yul\":1312:1318   */\n                  0x00\n                    /* \"#utility.yul\":1363:1365   */\n                  0x1f\n                    /* \"#utility.yul\":1359:1366   */\n                  not\n                    /* \"#utility.yul\":1354:1356   */\n                  0x1f\n                    /* \"#utility.yul\":1347:1352   */\n                  dup4\n                    /* \"#utility.yul\":1343:1357   */\n                  add\n                    /* \"#utility.yul\":1339:1367   */\n                  and\n                    /* \"#utility.yul\":1329:1367   */\n                  swap1\n                  pop\n                    /* \"#utility.yul\":1271:1373   */\n                  swap2\n                  swap1\n                  pop\n                  jump\t// out\n                    /* \"#utility.yul\":1379:1559   */\n                tag_136:\n                    /* \"#utility.yul\":1427:1504   */\n                  0x4e487b7100000000000000000000000000000000000000000000000000000000\n                    /* \"#utility.yul\":1424:1425   */\n                  0x00\n                    /* \"#utility.yul\":1417:1505   */\n                  mstore\n                    /* \"#utility.yul\":1524:1528   */\n                  0x41\n                    /* \"#utility.yul\":1521:1522   */\n                  0x04\n                    /* \"#utility.yul\":1514:1529   */\n                  mstore\n                    /* \"#utility.yul\":1548:1552   */\n                  0x24\n                    /* \"#utility.yul\":1545:1546   */\n                  0x00\n                    /* \"#utility.yul\":1538:1553   */\n                  revert\n                    /* \"#utility.yul\":1565:1846   */\n                tag_137:\n                    /* \"#utility.yul\":1648:1675   */\n                  tag_178\n                    /* \"#utility.yul\":1670:1674   */\n                  dup3\n                    /* \"#utility.yul\":1648:1675   */\n                  tag_135\n                  jump\t// in\n                tag_178:\n                    /* \"#utility.yul\":1640:1646   */\n                  dup2\n                    /* \"#utility.yul\":1636:1676   */\n                  add\n                    /* \"#utility.yul\":1778:1784   */\n                  dup2\n                    /* \"#utility.yul\":1766:1776   */\n                  dup2\n                    /* \"#utility.yul\":1763:1785   */\n                  lt\n                    /* \"#utility.yul\":1742:1760   */\n                  0xffffffffffffffff\n                    /* \"#utility.yul\":1730:1740   */\n                  dup3\n                    /* \"#utility.yul\":1727:1761   */\n                  gt\n                    /* \"#utility.yul\":1724:1786   */\n                  or\n                    /* \"#utility.yul\":1721:1809   */\n                  iszero\n                  tag_179\n                  jumpi\n                    /* \"#utility.yul\":1789:1807   */\n                  tag_180\n                  tag_136\n                  jump\t// in\n                tag_180:\n                    /* \"#utility.yul\":1721:1809   */\n                tag_179:\n                    /* \"#utility.yul\":1829:1839   */\n                  dup1\n                    /* \"#utility.yul\":1825:1827   */\n                  0x40\n                    /* \"#utility.yul\":1818:1840   */\n                  mstore\n                    /* \"#utility.yul\":1608:1846   */\n                  pop\n                    /* \"#utility.yul\":1565:1846   */\n                  pop\n                  pop\n                  jump\t// out\n                    /* \"#utility.yul\":1852:1981   */\n                tag_138:\n                    /* \"#utility.yul\":1886:1892   */\n                  0x00\n                    /* \"#utility.yul\":1913:1933   */\n                  tag_182\n                  tag_127\n                  jump\t// in\n                tag_182:\n                    /* \"#utility.yul\":1903:1933   */\n                  swap1\n                  pop\n                    /* \"#utility.yul\":1942:1975   */\n                  tag_183\n                    /* \"#utility.yul\":1970:1974   */\n                  dup3\n                    /* \"#utility.yul\":1962:1968   */\n                  dup3\n                    /* \"#utility.yul\":1942:1975   */\n                  tag_137\n                  jump\t// in\n                tag_183:\n                    /* \"#utility.yul\":1852:1981   */\n                  swap2\n                  swap1\n                  pop\n                  jump\t// out\n                    /* \"#utility.yul\":1987:2295   */\n                tag_139:\n                    /* \"#utility.yul\":2049:2053   */\n                  0x00\n                    /* \"#utility.yul\":2139:2157   */\n                  0xffffffffffffffff\n                    /* \"#utility.yul\":2131:2137   */\n                  dup3\n                    /* \"#utility.yul\":2128:2158   */\n                  gt\n                    /* \"#utility.yul\":2125:2181   */\n                  iszero\n                  tag_185\n                  jumpi\n                    /* \"#utility.yul\":2161:2179   */\n                  tag_186\n                  tag_136\n                  jump\t// in\n                tag_186:\n                    /* \"#utility.yul\":2125:2181   */\n                tag_185:\n                    /* \"#utility.yul\":2199:2228   */\n                  tag_187\n                    /* \"#utility.yul\":2221:2227   */\n                  dup3\n                    /* \"#utility.yul\":2199:2228   */\n                  tag_135\n                  jump\t// in\n                tag_187:\n                    /* \"#utility.yul\":2191:2228   */\n                  swap1\n                  pop\n                    /* \"#utility.yul\":2283:2287   */\n                  0x20\n                    /* \"#utility.yul\":2277:2281   */\n                  dup2\n                    /* \"#utility.yul\":2273:2288   */\n                  add\n                    /* \"#utility.yul\":2265:2288   */\n                  swap1\n                  pop\n                    /* \"#utility.yul\":1987:2295   */\n                  swap2\n                  swap1\n                  pop\n                  jump\t// out\n                    /* \"#utility.yul\":2301:2455   */\n                tag_140:\n                    /* \"#utility.yul\":2385:2391   */\n                  dup3\n                    /* \"#utility.yul\":2380:2383   */\n                  dup2\n                    /* \"#utility.yul\":2375:2378   */\n                  dup4\n                    /* \"#utility.yul\":2362:2392   */\n                  calldatacopy\n                    /* \"#utility.yul\":2447:2448   */\n                  0x00\n                    /* \"#utility.yul\":2438:2444   */\n                  dup4\n                    /* \"#utility.yul\":2433:2436   */\n                  dup4\n                    /* \"#utility.yul\":2429:2445   */\n                  add\n                    /* \"#utility.yul\":2422:2449   */\n                  mstore\n                    /* \"#utility.yul\":2301:2455   */\n                  pop\n                  pop\n                  pop\n                  jump\t// out\n                    /* \"#utility.yul\":2461:2873   */\n                tag_141:\n                    /* \"#utility.yul\":2539:2544   */\n                  0x00\n                    /* \"#utility.yul\":2564:2630   */\n                  tag_190\n                    /* \"#utility.yul\":2580:2629   */\n                  tag_191\n                    /* \"#utility.yul\":2622:2628   */\n                  dup5\n                    /* \"#utility.yul\":2580:2629   */\n                  tag_139\n                  jump\t// in\n                tag_191:\n                    /* \"#utility.yul\":2564:2630   */\n                  tag_138\n                  jump\t// in\n                tag_190:\n                    /* \"#utility.yul\":2555:2630   */\n                  swap1\n                  pop\n                    /* \"#utility.yul\":2653:2659   */\n                  dup3\n                    /* \"#utility.yul\":2646:2651   */\n                  dup2\n                    /* \"#utility.yul\":2639:2660   */\n                  mstore\n                    /* \"#utility.yul\":2691:2695   */\n                  0x20\n                    /* \"#utility.yul\":2684:2689   */\n                  dup2\n                    /* \"#utility.yul\":2680:2696   */\n                  add\n                    /* \"#utility.yul\":2729:2732   */\n                  dup5\n                    /* \"#utility.yul\":2720:2726   */\n                  dup5\n                    /* \"#utility.yul\":2715:2718   */\n                  dup5\n                    /* \"#utility.yul\":2711:2727   */\n                  add\n                    /* \"#utility.yul\":2708:2733   */\n                  gt\n                    /* \"#utility.yul\":2705:2817   */\n                  iszero\n                  tag_192\n                  jumpi\n                    /* \"#utility.yul\":2736:2815   */\n                  tag_193\n                  tag_134\n                  jump\t// in\n                tag_193:\n                    /* \"#utility.yul\":2705:2817   */\n                tag_192:\n                    /* \"#utility.yul\":2826:2867   */\n                  tag_194\n                    /* \"#utility.yul\":2860:2866   */\n                  dup5\n                    /* \"#utility.yul\":2855:2858   */\n                  dup3\n                    /* \"#utility.yul\":2850:2853   */\n                  dup6\n                    /* \"#utility.yul\":2826:2867   */\n                  tag_140\n                  jump\t// in\n                tag_194:\n                    /* \"#utility.yul\":2545:2873   */\n                  pop\n                    /* \"#utility.yul\":2461:2873   */\n                  swap4\n                  swap3\n                  pop\n                  pop\n                  pop\n                  jump\t// out\n                    /* \"#utility.yul\":2893:3233   */\n                tag_142:\n                    /* \"#utility.yul\":2949:2954   */\n                  0x00\n                    /* \"#utility.yul\":2998:3001   */\n                  dup3\n                    /* \"#utility.yul\":2991:2995   */\n                  0x1f\n                    /* \"#utility.yul\":2983:2989   */\n                  dup4\n                    /* \"#utility.yul\":2979:2996   */\n                  add\n                    /* \"#utility.yul\":2975:3002   */\n                  slt\n                    /* \"#utility.yul\":2965:3087   */\n                  tag_196\n                  jumpi\n                    /* \"#utility.yul\":3006:3085   */\n                  tag_197\n                  tag_133\n                  jump\t// in\n                tag_197:\n                    /* \"#utility.yul\":2965:3087   */\n                tag_196:\n                    /* \"#utility.yul\":3123:3129   */\n                  dup2\n                    /* \"#utility.yul\":3110:3130   */\n                  calldataload\n                    /* \"#utility.yul\":3148:3227   */\n                  tag_198\n                    /* \"#utility.yul\":3223:3226   */\n                  dup5\n                    /* \"#utility.yul\":3215:3221   */\n                  dup3\n                    /* \"#utility.yul\":3208:3212   */\n                  0x20\n                    /* \"#utility.yul\":3200:3206   */\n                  dup7\n                    /* \"#utility.yul\":3196:3213   */\n                  add\n                    /* \"#utility.yul\":3148:3227   */\n                  tag_141\n                  jump\t// in\n                tag_198:\n                    /* \"#utility.yul\":3139:3227   */\n                  swap2\n                  pop\n                    /* \"#utility.yul\":2955:3233   */\n                  pop\n                    /* \"#utility.yul\":2893:3233   */\n                  swap3\n                  swap2\n                  pop\n                  pop\n                  jump\t// out\n                    /* \"#utility.yul\":3239:4364   */\n                tag_21:\n                    /* \"#utility.yul\":3345:3351   */\n                  0x00\n                    /* \"#utility.yul\":3353:3359   */\n                  dup1\n                    /* \"#utility.yul\":3361:3367   */\n                  0x00\n                    /* \"#utility.yul\":3369:3375   */\n                  dup1\n                    /* \"#utility.yul\":3418:3421   */\n                  0x80\n                    /* \"#utility.yul\":3406:3415   */\n                  dup6\n                    /* \"#utility.yul\":3397:3404   */\n                  dup8\n                    /* \"#utility.yul\":3393:3416   */\n                  sub\n                    /* \"#utility.yul\":3389:3422   */\n                  slt\n                    /* \"#utility.yul\":3386:3506   */\n                  iszero\n                  tag_200\n                  jumpi\n                    /* \"#utility.yul\":3425:3504   */\n                  tag_201\n                  tag_128\n                  jump\t// in\n                tag_201:\n                    /* \"#utility.yul\":3386:3506   */\n                tag_200:\n                    /* \"#utility.yul\":3545:3546   */\n                  0x00\n                    /* \"#utility.yul\":3570:3623   */\n                  tag_202\n                    /* \"#utility.yul\":3615:3622   */\n                  dup8\n                    /* \"#utility.yul\":3606:3612   */\n                  dup3\n                    /* \"#utility.yul\":3595:3604   */\n                  dup9\n                    /* \"#utility.yul\":3591:3613   */\n                  add\n                    /* \"#utility.yul\":3570:3623   */\n                  tag_132\n                  jump\t// in\n                tag_202:\n                    /* \"#utility.yul\":3560:3623   */\n                  swap5\n                  pop\n                    /* \"#utility.yul\":3516:3633   */\n                  pop\n                    /* \"#utility.yul\":3700:3702   */\n                  0x20\n                    /* \"#utility.yul\":3689:3698   */\n                  dup6\n                    /* \"#utility.yul\":3685:3703   */\n                  add\n                    /* \"#utility.yul\":3672:3704   */\n                  calldataload\n                    /* \"#utility.yul\":3731:3749   */\n                  0xffffffffffffffff\n                    /* \"#utility.yul\":3723:3729   */\n                  dup2\n                    /* \"#utility.yul\":3720:3750   */\n                  gt\n                    /* \"#utility.yul\":3717:3834   */\n                  iszero\n                  tag_203\n                  jumpi\n                    /* \"#utility.yul\":3753:3832   */\n                  tag_204\n                  tag_129\n                  jump\t// in\n                tag_204:\n                    /* \"#utility.yul\":3717:3834   */\n                tag_203:\n                    /* \"#utility.yul\":3858:3921   */\n                  tag_205\n                    /* \"#utility.yul\":3913:3920   */\n                  dup8\n                    /* \"#utility.yul\":3904:3910   */\n                  dup3\n                    /* \"#utility.yul\":3893:3902   */\n                  dup9\n                    /* \"#utility.yul\":3889:3911   */\n                  add\n                    /* \"#utility.yul\":3858:3921   */\n                  tag_142\n                  jump\t// in\n                tag_205:\n                    /* \"#utility.yul\":3848:3921   */\n                  swap4\n                  pop\n                    /* \"#utility.yul\":3643:3931   */\n                  pop\n                    /* \"#utility.yul\":3998:4000   */\n                  0x40\n                    /* \"#utility.yul\":3987:3996   */\n                  dup6\n                    /* \"#utility.yul\":3983:4001   */\n                  add\n                    /* \"#utility.yul\":3970:4002   */\n                  calldataload\n                    /* \"#utility.yul\":4029:4047   */\n                  0xffffffffffffffff\n                    /* \"#utility.yul\":4021:4027   */\n                  dup2\n                    /* \"#utility.yul\":4018:4048   */\n                  gt\n                    /* \"#utility.yul\":4015:4132   */\n                  iszero\n                  tag_206\n                  jumpi\n                    /* \"#utility.yul\":4051:4130   */\n                  tag_207\n                  tag_129\n                  jump\t// in\n                tag_207:\n                    /* \"#utility.yul\":4015:4132   */\n                tag_206:\n                    /* \"#utility.yul\":4156:4219   */\n                  tag_208\n                    /* \"#utility.yul\":4211:4218   */\n                  dup8\n                    /* \"#utility.yul\":4202:4208   */\n                  dup3\n                    /* \"#utility.yul\":4191:4200   */\n                  dup9\n                    /* \"#utility.yul\":4187:4209   */\n                  add\n                    /* \"#utility.yul\":4156:4219   */\n                  tag_142\n                  jump\t// in\n                tag_208:\n                    /* \"#utility.yul\":4146:4219   */\n                  swap3\n                  pop\n                    /* \"#utility.yul\":3941:4229   */\n                  pop\n                    /* \"#utility.yul\":4268:4270   */\n                  0x60\n                    /* \"#utility.yul\":4294:4347   */\n                  tag_209\n                    /* \"#utility.yul\":4339:4346   */\n                  dup8\n                    /* \"#utility.yul\":4330:4336   */\n                  dup3\n                    /* \"#utility.yul\":4319:4328   */\n                  dup9\n                    /* \"#utility.yul\":4315:4337   */\n                  add\n                    /* \"#utility.yul\":4294:4347   */\n                  tag_132\n                  jump\t// in\n                tag_209:\n                    /* \"#utility.yul\":4284:4347   */\n                  swap2\n                  pop\n                    /* \"#utility.yul\":4239:4357   */\n                  pop\n                    /* \"#utility.yul\":3239:4364   */\n                  swap3\n                  swap6\n                  swap2\n                  swap5\n                  pop\n                  swap3\n                  pop\n                  jump\t// out\n                    /* \"#utility.yul\":4370:4879   */\n                tag_25:\n                    /* \"#utility.yul\":4439:4445   */\n                  0x00\n                    /* \"#utility.yul\":4488:4490   */\n                  0x20\n                    /* \"#utility.yul\":4476:4485   */\n                  dup3\n                    /* \"#utility.yul\":4467:4474   */\n                  dup5\n                    /* \"#utility.yul\":4463:4486   */\n                  sub\n                    /* \"#utility.yul\":4459:4491   */\n                  slt\n                    /* \"#utility.yul\":4456:4575   */\n                  iszero\n                  tag_211\n                  jumpi\n                    /* \"#utility.yul\":4494:4573   */\n                  tag_212\n                  tag_128\n                  jump\t// in\n                tag_212:\n                    /* \"#utility.yul\":4456:4575   */\n                tag_211:\n                    /* \"#utility.yul\":4642:4643   */\n                  0x00\n                    /* \"#utility.yul\":4631:4640   */\n                  dup3\n                    /* \"#utility.yul\":4627:4644   */\n                  add\n                    /* \"#utility.yul\":4614:4645   */\n                  calldataload\n                    /* \"#utility.yul\":4672:4690   */\n                  0xffffffffffffffff\n                    /* \"#utility.yul\":4664:4670   */\n                  dup2\n                    /* \"#utility.yul\":4661:4691   */\n                  gt\n                    /* \"#utility.yul\":4658:4775   */\n                  iszero\n                  tag_213\n                  jumpi\n                    /* \"#utility.yul\":4694:4773   */\n                  tag_214\n                  tag_129\n                  jump\t// in\n                tag_214:\n                    /* \"#utility.yul\":4658:4775   */\n                tag_213:\n                    /* \"#utility.yul\":4799:4862   */\n                  tag_215\n                    /* \"#utility.yul\":4854:4861   */\n                  dup5\n                    /* \"#utility.yul\":4845:4851   */\n                  dup3\n                    /* \"#utility.yul\":4834:4843   */\n                  dup6\n                    /* \"#utility.yul\":4830:4852   */\n                  add\n                    /* \"#utility.yul\":4799:4862   */\n                  tag_142\n                  jump\t// in\n                tag_215:\n                    /* \"#utility.yul\":4789:4862   */\n                  swap2\n                  pop\n                    /* \"#utility.yul\":4585:4872   */\n                  pop\n                    /* \"#utility.yul\":4370:4879   */\n                  swap3\n                  swap2\n                  pop\n                  pop\n                  jump\t// out\n                    /* \"#utility.yul\":4885:4975   */\n                tag_143:\n                    /* \"#utility.yul\":4919:4926   */\n                  0x00\n                    /* \"#utility.yul\":4962:4967   */\n                  dup2\n                    /* \"#utility.yul\":4955:4968   */\n                  iszero\n                    /* \"#utility.yul\":4948:4969   */\n                  iszero\n                    /* \"#utility.yul\":4937:4969   */\n                  swap1\n                  pop\n                    /* \"#utility.yul\":4885:4975   */\n                  swap2\n                  swap1\n                  pop\n                  jump\t// out\n                    /* \"#utility.yul\":4981:5090   */\n                tag_144:\n                    /* \"#utility.yul\":5062:5083   */\n                  tag_218\n                    /* \"#utility.yul\":5077:5082   */\n                  dup2\n                    /* \"#utility.yul\":5062:5083   */\n                  tag_143\n                  jump\t// in\n                tag_218:\n                    /* \"#utility.yul\":5057:5060   */\n                  dup3\n                    /* \"#utility.yul\":5050:5084   */\n                  mstore\n                    /* \"#utility.yul\":4981:5090   */\n                  pop\n                  pop\n                  jump\t// out\n                    /* \"#utility.yul\":5096:5306   */\n                tag_28:\n                    /* \"#utility.yul\":5183:5187   */\n                  0x00\n                    /* \"#utility.yul\":5221:5223   */\n                  0x20\n                    /* \"#utility.yul\":5210:5219   */\n                  dup3\n                    /* \"#utility.yul\":5206:5224   */\n                  add\n                    /* \"#utility.yul\":5198:5224   */\n                  swap1\n                  pop\n                    /* \"#utility.yul\":5234:5299   */\n                  tag_220\n                    /* \"#utility.yul\":5296:5297   */\n                  0x00\n                    /* \"#utility.yul\":5285:5294   */\n                  dup4\n                    /* \"#utility.yul\":5281:5298   */\n                  add\n                    /* \"#utility.yul\":5272:5278   */\n                  dup5\n                    /* \"#utility.yul\":5234:5299   */\n                  tag_144\n                  jump\t// in\n                tag_220:\n                    /* \"#utility.yul\":5096:5306   */\n                  swap3\n                  swap2\n                  pop\n                  pop\n                  jump\t// out\n                    /* \"#utility.yul\":5312:5438   */\n                tag_145:\n                    /* \"#utility.yul\":5349:5356   */\n                  0x00\n                    /* \"#utility.yul\":5389:5431   */\n                  0xffffffffffffffffffffffffffffffffffffffff\n                    /* \"#utility.yul\":5382:5387   */\n                  dup3\n                    /* \"#utility.yul\":5378:5432   */\n                  and\n                    /* \"#utility.yul\":5367:5432   */\n                  swap1\n                  pop\n                    /* \"#utility.yul\":5312:5438   */\n                  swap2\n                  swap1\n                  pop\n                  jump\t// out\n                    /* \"#utility.yul\":5444:5540   */\n                tag_146:\n                    /* \"#utility.yul\":5481:5488   */\n                  0x00\n                    /* \"#utility.yul\":5510:5534   */\n                  tag_223\n                    /* \"#utility.yul\":5528:5533   */\n                  dup3\n                    /* \"#utility.yul\":5510:5534   */\n                  tag_145\n                  jump\t// in\n                tag_223:\n                    /* \"#utility.yul\":5499:5534   */\n                  swap1\n                  pop\n                    /* \"#utility.yul\":5444:5540   */\n                  swap2\n                  swap1\n                  pop\n                  jump\t// out\n                    /* \"#utility.yul\":5546:5668   */\n                tag_147:\n                    /* \"#utility.yul\":5619:5643   */\n                  tag_225\n                    /* \"#utility.yul\":5637:5642   */\n                  dup2\n                    /* \"#utility.yul\":5619:5643   */\n                  tag_146\n                  jump\t// in\n                tag_225:\n                    /* \"#utility.yul\":5612:5617   */\n                  dup2\n                    /* \"#utility.yul\":5609:5644   */\n                  eq\n                    /* \"#utility.yul\":5599:5662   */\n                  tag_226\n                  jumpi\n                    /* \"#utility.yul\":5658:5659   */\n                  0x00\n                    /* \"#utility.yul\":5655:5656   */\n                  dup1\n                    /* \"#utility.yul\":5648:5660   */\n                  revert\n                    /* \"#utility.yul\":5599:5662   */\n                tag_226:\n                    /* \"#utility.yul\":5546:5668   */\n                  pop\n                  jump\t// out\n                    /* \"#utility.yul\":5674:5813   */\n                tag_148:\n                    /* \"#utility.yul\":5720:5725   */\n                  0x00\n                    /* \"#utility.yul\":5758:5764   */\n                  dup2\n                    /* \"#utility.yul\":5745:5765   */\n                  calldataload\n                    /* \"#utility.yul\":5736:5765   */\n                  swap1\n                  pop\n                    /* \"#utility.yul\":5774:5807   */\n                  tag_228\n                    /* \"#utility.yul\":5801:5806   */\n                  dup2\n                    /* \"#utility.yul\":5774:5807   */\n                  tag_147\n                  jump\t// in\n                tag_228:\n                    /* \"#utility.yul\":5674:5813   */\n                  swap3\n                  swap2\n                  pop\n                  pop\n                  jump\t// out\n                    /* \"#utility.yul\":5819:6944   */\n                tag_31:\n                    /* \"#utility.yul\":5925:5931   */\n                  0x00\n                    /* \"#utility.yul\":5933:5939   */\n                  dup1\n                    /* \"#utility.yul\":5941:5947   */\n                  0x00\n                    /* \"#utility.yul\":5949:5955   */\n                  dup1\n                    /* \"#utility.yul\":5998:6001   */\n                  0x80\n                    /* \"#utility.yul\":5986:5995   */\n                  dup6\n                    /* \"#utility.yul\":5977:5984   */\n                  dup8\n                    /* \"#utility.yul\":5973:5996   */\n                  sub\n                    /* \"#utility.yul\":5969:6002   */\n                  slt\n                    /* \"#utility.yul\":5966:6086   */\n                  iszero\n                  tag_230\n                  jumpi\n                    /* \"#utility.yul\":6005:6084   */\n                  tag_231\n                  tag_128\n                  jump\t// in\n                tag_231:\n                    /* \"#utility.yul\":5966:6086   */\n                tag_230:\n                    /* \"#utility.yul\":6153:6154   */\n                  0x00\n                    /* \"#utility.yul\":6142:6151   */\n                  dup6\n                    /* \"#utility.yul\":6138:6155   */\n                  add\n                    /* \"#utility.yul\":6125:6156   */\n                  calldataload\n                    /* \"#utility.yul\":6183:6201   */\n                  0xffffffffffffffff\n                    /* \"#utility.yul\":6175:6181   */\n                  dup2\n                    /* \"#utility.yul\":6172:6202   */\n                  gt\n                    /* \"#utility.yul\":6169:6286   */\n                  iszero\n                  tag_232\n                  jumpi\n                    /* \"#utility.yul\":6205:6284   */\n                  tag_233\n                  tag_129\n                  jump\t// in\n                tag_233:\n                    /* \"#utility.yul\":6169:6286   */\n                tag_232:\n                    /* \"#utility.yul\":6310:6373   */\n                  tag_234\n                    /* \"#utility.yul\":6365:6372   */\n                  dup8\n                    /* \"#utility.yul\":6356:6362   */\n                  dup3\n                    /* \"#utility.yul\":6345:6354   */\n                  dup9\n                    /* \"#utility.yul\":6341:6363   */\n                  add\n                    /* \"#utility.yul\":6310:6373   */\n                  tag_142\n                  jump\t// in\n                tag_234:\n                    /* \"#utility.yul\":6300:6373   */\n                  swap5\n                  pop\n                    /* \"#utility.yul\":6096:6383   */\n                  pop\n                    /* \"#utility.yul\":6450:6452   */\n                  0x20\n                    /* \"#utility.yul\":6439:6448   */\n                  dup6\n                    /* \"#utility.yul\":6435:6453   */\n                  add\n                    /* \"#utility.yul\":6422:6454   */\n                  calldataload\n                    /* \"#utility.yul\":6481:6499   */\n                  0xffffffffffffffff\n                    /* \"#utility.yul\":6473:6479   */\n                  dup2\n                    /* \"#utility.yul\":6470:6500   */\n                  gt\n                    /* \"#utility.yul\":6467:6584   */\n                  iszero\n                  tag_235\n                  jumpi\n                    /* \"#utility.yul\":6503:6582   */\n                  tag_236\n                  tag_129\n                  jump\t// in\n                tag_236:\n                    /* \"#utility.yul\":6467:6584   */\n                tag_235:\n                    /* \"#utility.yul\":6608:6671   */\n                  tag_237\n                    /* \"#utility.yul\":6663:6670   */\n                  dup8\n                    /* \"#utility.yul\":6654:6660   */\n                  dup3\n                    /* \"#utility.yul\":6643:6652   */\n                  dup9\n                    /* \"#utility.yul\":6639:6661   */\n                  add\n                    /* \"#utility.yul\":6608:6671   */\n                  tag_142\n                  jump\t// in\n                tag_237:\n                    /* \"#utility.yul\":6598:6671   */\n                  swap4\n                  pop\n                    /* \"#utility.yul\":6393:6681   */\n                  pop\n                    /* \"#utility.yul\":6720:6722   */\n                  0x40\n                    /* \"#utility.yul\":6746:6799   */\n                  tag_238\n                    /* \"#utility.yul\":6791:6798   */\n                  dup8\n                    /* \"#utility.yul\":6782:6788   */\n                  dup3\n                    /* \"#utility.yul\":6771:6780   */\n                  dup9\n                    /* \"#utility.yul\":6767:6789   */\n                  add\n                    /* \"#utility.yul\":6746:6799   */\n                  tag_132\n                  jump\t// in\n                tag_238:\n                    /* \"#utility.yul\":6736:6799   */\n                  swap3\n                  pop\n                    /* \"#utility.yul\":6691:6809   */\n                  pop\n                    /* \"#utility.yul\":6848:6850   */\n                  0x60\n                    /* \"#utility.yul\":6874:6927   */\n                  tag_239\n                    /* \"#utility.yul\":6919:6926   */\n                  dup8\n                    /* \"#utility.yul\":6910:6916   */\n                  dup3\n                    /* \"#utility.yul\":6899:6908   */\n                  dup9\n                    /* \"#utility.yul\":6895:6917   */\n                  add\n                    /* \"#utility.yul\":6874:6927   */\n                  tag_148\n                  jump\t// in\n                tag_239:\n                    /* \"#utility.yul\":6864:6927   */\n                  swap2\n                  pop\n                    /* \"#utility.yul\":6819:6937   */\n                  pop\n                    /* \"#utility.yul\":5819:6944   */\n                  swap3\n                  swap6\n                  swap2\n                  swap5\n                  pop\n                  swap3\n                  pop\n                  jump\t// out\n                    /* \"#utility.yul\":6950:7068   */\n                tag_149:\n                    /* \"#utility.yul\":7037:7061   */\n                  tag_241\n                    /* \"#utility.yul\":7055:7060   */\n                  dup2\n                    /* \"#utility.yul\":7037:7061   */\n                  tag_130\n                  jump\t// in\n                tag_241:\n                    /* \"#utility.yul\":7032:7035   */\n                  dup3\n                    /* \"#utility.yul\":7025:7062   */\n                  mstore\n                    /* \"#utility.yul\":6950:7068   */\n                  pop\n                  pop\n                  jump\t// out\n                    /* \"#utility.yul\":7074:7296   */\n                tag_37:\n                    /* \"#utility.yul\":7167:7171   */\n                  0x00\n                    /* \"#utility.yul\":7205:7207   */\n                  0x20\n                    /* \"#utility.yul\":7194:7203   */\n                  dup3\n                    /* \"#utility.yul\":7190:7208   */\n                  add\n                    /* \"#utility.yul\":7182:7208   */\n                  swap1\n                  pop\n                    /* \"#utility.yul\":7218:7289   */\n                  tag_243\n                    /* \"#utility.yul\":7286:7287   */\n                  0x00\n                    /* \"#utility.yul\":7275:7284   */\n                  dup4\n                    /* \"#utility.yul\":7271:7288   */\n                  add\n                    /* \"#utility.yul\":7262:7268   */\n                  dup5\n                    /* \"#utility.yul\":7218:7289   */\n                  tag_149\n                  jump\t// in\n                tag_243:\n                    /* \"#utility.yul\":7074:7296   */\n                  swap3\n                  swap2\n                  pop\n                  pop\n                  jump\t// out\n                    /* \"#utility.yul\":7302:7420   */\n                tag_150:\n                    /* \"#utility.yul\":7389:7413   */\n                  tag_245\n                    /* \"#utility.yul\":7407:7412   */\n                  dup2\n                    /* \"#utility.yul\":7389:7413   */\n                  tag_146\n                  jump\t// in\n                tag_245:\n                    /* \"#utility.yul\":7384:7387   */\n                  dup3\n                    /* \"#utility.yul\":7377:7414   */\n                  mstore\n                    /* \"#utility.yul\":7302:7420   */\n                  pop\n                  pop\n                  jump\t// out\n                    /* \"#utility.yul\":7426:7648   */\n                tag_41:\n                    /* \"#utility.yul\":7519:7523   */\n                  0x00\n                    /* \"#utility.yul\":7557:7559   */\n                  0x20\n                    /* \"#utility.yul\":7546:7555   */\n                  dup3\n                    /* \"#utility.yul\":7542:7560   */\n                  add\n                    /* \"#utility.yul\":7534:7560   */\n                  swap1\n                  pop\n                    /* \"#utility.yul\":7570:7641   */\n                  tag_247\n                    /* \"#utility.yul\":7638:7639   */\n                  0x00\n                    /* \"#utility.yul\":7627:7636   */\n                  dup4\n                    /* \"#utility.yul\":7623:7640   */\n                  add\n                    /* \"#utility.yul\":7614:7620   */\n                  dup5\n                    /* \"#utility.yul\":7570:7641   */\n                  tag_150\n                  jump\t// in\n                tag_247:\n                    /* \"#utility.yul\":7426:7648   */\n                  swap3\n                  swap2\n                  pop\n                  pop\n                  jump\t// out\n                    /* \"#utility.yul\":7654:7753   */\n                tag_151:\n                    /* \"#utility.yul\":7706:7712   */\n                  0x00\n                    /* \"#utility.yul\":7740:7745   */\n                  dup2\n                    /* \"#utility.yul\":7734:7746   */\n                  mload\n                    /* \"#utility.yul\":7724:7746   */\n                  swap1\n                  pop\n                    /* \"#utility.yul\":7654:7753   */\n                  swap2\n                  swap1\n                  pop\n                  jump\t// out\n                    /* \"#utility.yul\":7759:7928   */\n                tag_152:\n                    /* \"#utility.yul\":7843:7854   */\n                  0x00\n                    /* \"#utility.yul\":7877:7883   */\n                  dup3\n                    /* \"#utility.yul\":7872:7875   */\n                  dup3\n                    /* \"#utility.yul\":7865:7884   */\n                  mstore\n                    /* \"#utility.yul\":7917:7921   */\n                  0x20\n                    /* \"#utility.yul\":7912:7915   */\n                  dup3\n                    /* \"#utility.yul\":7908:7922   */\n                  add\n                    /* \"#utility.yul\":7893:7922   */\n                  swap1\n                  pop\n                    /* \"#utility.yul\":7759:7928   */\n                  swap3\n                  swap2\n                  pop\n                  pop\n                  jump\t// out\n                    /* \"#utility.yul\":7934:8241   */\n                tag_153:\n                    /* \"#utility.yul\":8002:8003   */\n                  0x00\n                    /* \"#utility.yul\":8012:8125   */\n                tag_251:\n                    /* \"#utility.yul\":8026:8032   */\n                  dup4\n                    /* \"#utility.yul\":8023:8024   */\n                  dup2\n                    /* \"#utility.yul\":8020:8033   */\n                  lt\n                    /* \"#utility.yul\":8012:8125   */\n                  iszero\n                  tag_253\n                  jumpi\n                    /* \"#utility.yul\":8111:8112   */\n                  dup1\n                    /* \"#utility.yul\":8106:8109   */\n                  dup3\n                    /* \"#utility.yul\":8102:8113   */\n                  add\n                    /* \"#utility.yul\":8096:8114   */\n                  mload\n                    /* \"#utility.yul\":8092:8093   */\n                  dup2\n                    /* \"#utility.yul\":8087:8090   */\n                  dup5\n                    /* \"#utility.yul\":8083:8094   */\n                  add\n                    /* \"#utility.yul\":8076:8115   */\n                  mstore\n                    /* \"#utility.yul\":8048:8050   */\n                  0x20\n                    /* \"#utility.yul\":8045:8046   */\n                  dup2\n                    /* \"#utility.yul\":8041:8051   */\n                  add\n                    /* \"#utility.yul\":8036:8051   */\n                  swap1\n                  pop\n                    /* \"#utility.yul\":8012:8125   */\n                  jump(tag_251)\n                tag_253:\n                    /* \"#utility.yul\":8143:8149   */\n                  dup4\n                    /* \"#utility.yul\":8140:8141   */\n                  dup2\n                    /* \"#utility.yul\":8137:8150   */\n                  gt\n                    /* \"#utility.yul\":8134:8235   */\n                  iszero\n                  tag_254\n                  jumpi\n                    /* \"#utility.yul\":8223:8224   */\n                  0x00\n                    /* \"#utility.yul\":8214:8220   */\n                  dup5\n                    /* \"#utility.yul\":8209:8212   */\n                  dup5\n                    /* \"#utility.yul\":8205:8221   */\n                  add\n                    /* \"#utility.yul\":8198:8225   */\n                  mstore\n                    /* \"#utility.yul\":8134:8235   */\n                tag_254:\n                    /* \"#utility.yul\":7983:8241   */\n                  pop\n                    /* \"#utility.yul\":7934:8241   */\n                  pop\n                  pop\n                  pop\n                  jump\t// out\n                    /* \"#utility.yul\":8247:8611   */\n                tag_154:\n                    /* \"#utility.yul\":8335:8338   */\n                  0x00\n                    /* \"#utility.yul\":8363:8402   */\n                  tag_256\n                    /* \"#utility.yul\":8396:8401   */\n                  dup3\n                    /* \"#utility.yul\":8363:8402   */\n                  tag_151\n                  jump\t// in\n                tag_256:\n                    /* \"#utility.yul\":8418:8489   */\n                  tag_257\n                    /* \"#utility.yul\":8482:8488   */\n                  dup2\n                    /* \"#utility.yul\":8477:8480   */\n                  dup6\n                    /* \"#utility.yul\":8418:8489   */\n                  tag_152\n                  jump\t// in\n                tag_257:\n                    /* \"#utility.yul\":8411:8489   */\n                  swap4\n                  pop\n                    /* \"#utility.yul\":8498:8550   */\n                  tag_258\n                    /* \"#utility.yul\":8543:8549   */\n                  dup2\n                    /* \"#utility.yul\":8538:8541   */\n                  dup6\n                    /* \"#utility.yul\":8531:8535   */\n                  0x20\n                    /* \"#utility.yul\":8524:8529   */\n                  dup7\n                    /* \"#utility.yul\":8520:8536   */\n                  add\n                    /* \"#utility.yul\":8498:8550   */\n                  tag_153\n                  jump\t// in\n                tag_258:\n                    /* \"#utility.yul\":8575:8604   */\n                  tag_259\n                    /* \"#utility.yul\":8597:8603   */\n                  dup2\n                    /* \"#utility.yul\":8575:8604   */\n                  tag_135\n                  jump\t// in\n                tag_259:\n                    /* \"#utility.yul\":8570:8573   */\n                  dup5\n                    /* \"#utility.yul\":8566:8605   */\n                  add\n                    /* \"#utility.yul\":8559:8605   */\n                  swap2\n                  pop\n                    /* \"#utility.yul\":8339:8611   */\n                  pop\n                    /* \"#utility.yul\":8247:8611   */\n                  swap3\n                  swap2\n                  pop\n                  pop\n                  jump\t// out\n                    /* \"#utility.yul\":8617:9463   */\n                tag_46:\n                    /* \"#utility.yul\":8862:8866   */\n                  0x00\n                    /* \"#utility.yul\":8900:8903   */\n                  0xa0\n                    /* \"#utility.yul\":8889:8898   */\n                  dup3\n                    /* \"#utility.yul\":8885:8904   */\n                  add\n                    /* \"#utility.yul\":8877:8904   */\n                  swap1\n                  pop\n                    /* \"#utility.yul\":8950:8959   */\n                  dup2\n                    /* \"#utility.yul\":8944:8948   */\n                  dup2\n                    /* \"#utility.yul\":8940:8960   */\n                  sub\n                    /* \"#utility.yul\":8936:8937   */\n                  0x00\n                    /* \"#utility.yul\":8925:8934   */\n                  dup4\n                    /* \"#utility.yul\":8921:8938   */\n                  add\n                    /* \"#utility.yul\":8914:8961   */\n                  mstore\n                    /* \"#utility.yul\":8978:9056   */\n                  tag_261\n                    /* \"#utility.yul\":9051:9055   */\n                  dup2\n                    /* \"#utility.yul\":9042:9048   */\n                  dup9\n                    /* \"#utility.yul\":8978:9056   */\n                  tag_154\n                  jump\t// in\n                tag_261:\n                    /* \"#utility.yul\":8970:9056   */\n                  swap1\n                  pop\n                    /* \"#utility.yul\":9103:9112   */\n                  dup2\n                    /* \"#utility.yul\":9097:9101   */\n                  dup2\n                    /* \"#utility.yul\":9093:9113   */\n                  sub\n                    /* \"#utility.yul\":9088:9090   */\n                  0x20\n                    /* \"#utility.yul\":9077:9086   */\n                  dup4\n                    /* \"#utility.yul\":9073:9091   */\n                  add\n                    /* \"#utility.yul\":9066:9114   */\n                  mstore\n                    /* \"#utility.yul\":9131:9209   */\n                  tag_262\n                    /* \"#utility.yul\":9204:9208   */\n                  dup2\n                    /* \"#utility.yul\":9195:9201   */\n                  dup8\n                    /* \"#utility.yul\":9131:9209   */\n                  tag_154\n                  jump\t// in\n                tag_262:\n                    /* \"#utility.yul\":9123:9209   */\n                  swap1\n                  pop\n                    /* \"#utility.yul\":9219:9291   */\n                  tag_263\n                    /* \"#utility.yul\":9287:9289   */\n                  0x40\n                    /* \"#utility.yul\":9276:9285   */\n                  dup4\n                    /* \"#utility.yul\":9272:9290   */\n                  add\n                    /* \"#utility.yul\":9263:9269   */\n                  dup7\n                    /* \"#utility.yul\":9219:9291   */\n                  tag_149\n                  jump\t// in\n                tag_263:\n                    /* \"#utility.yul\":9301:9373   */\n                  tag_264\n                    /* \"#utility.yul\":9369:9371   */\n                  0x60\n                    /* \"#utility.yul\":9358:9367   */\n                  dup4\n                    /* \"#utility.yul\":9354:9372   */\n                  add\n                    /* \"#utility.yul\":9345:9351   */\n                  dup6\n                    /* \"#utility.yul\":9301:9373   */\n                  tag_149\n                  jump\t// in\n                tag_264:\n                    /* \"#utility.yul\":9383:9456   */\n                  tag_265\n                    /* \"#utility.yul\":9451:9454   */\n                  0x80\n                    /* \"#utility.yul\":9440:9449   */\n                  dup4\n                    /* \"#utility.yul\":9436:9455   */\n                  add\n                    /* \"#utility.yul\":9427:9433   */\n                  dup5\n                    /* \"#utility.yul\":9383:9456   */\n                  tag_150\n                  jump\t// in\n                tag_265:\n                    /* \"#utility.yul\":8617:9463   */\n                  swap7\n                  swap6\n                  pop\n                  pop\n                  pop\n                  pop\n                  pop\n                  pop\n                  jump\t// out\n                    /* \"#utility.yul\":9469:9943   */\n                tag_49:\n                    /* \"#utility.yul\":9537:9543   */\n                  0x00\n                    /* \"#utility.yul\":9545:9551   */\n                  dup1\n                    /* \"#utility.yul\":9594:9596   */\n                  0x40\n                    /* \"#utility.yul\":9582:9591   */\n                  dup4\n                    /* \"#utility.yul\":9573:9580   */\n                  dup6\n                    /* \"#utility.yul\":9569:9592   */\n                  sub\n                    /* \"#utility.yul\":9565:9597   */\n                  slt\n                    /* \"#utility.yul\":9562:9681   */\n                  iszero\n                  tag_267\n                  jumpi\n                    /* \"#utility.yul\":9600:9679   */\n                  tag_268\n                  tag_128\n                  jump\t// in\n                tag_268:\n                    /* \"#utility.yul\":9562:9681   */\n                tag_267:\n                    /* \"#utility.yul\":9720:9721   */\n                  0x00\n                    /* \"#utility.yul\":9745:9798   */\n                  tag_269\n                    /* \"#utility.yul\":9790:9797   */\n                  dup6\n                    /* \"#utility.yul\":9781:9787   */\n                  dup3\n                    /* \"#utility.yul\":9770:9779   */\n                  dup7\n                    /* \"#utility.yul\":9766:9788   */\n                  add\n                    /* \"#utility.yul\":9745:9798   */\n                  tag_132\n                  jump\t// in\n                tag_269:\n                    /* \"#utility.yul\":9735:9798   */\n                  swap3\n                  pop\n                    /* \"#utility.yul\":9691:9808   */\n                  pop\n                    /* \"#utility.yul\":9847:9849   */\n                  0x20\n                    /* \"#utility.yul\":9873:9926   */\n                  tag_270\n                    /* \"#utility.yul\":9918:9925   */\n                  dup6\n                    /* \"#utility.yul\":9909:9915   */\n                  dup3\n                    /* \"#utility.yul\":9898:9907   */\n                  dup7\n                    /* \"#utility.yul\":9894:9916   */\n                  add\n                    /* \"#utility.yul\":9873:9926   */\n                  tag_148\n                  jump\t// in\n                tag_270:\n                    /* \"#utility.yul\":9863:9926   */\n                  swap2\n                  pop\n                    /* \"#utility.yul\":9818:9936   */\n                  pop\n                    /* \"#utility.yul\":9469:9943   */\n                  swap3\n                  pop\n                  swap3\n                  swap1\n                  pop\n                  jump\t// out\n                    /* \"#utility.yul\":9949:10129   */\n                tag_155:\n                    /* \"#utility.yul\":9997:10074   */\n                  0x4e487b7100000000000000000000000000000000000000000000000000000000\n                    /* \"#utility.yul\":9994:9995   */\n                  0x00\n                    /* \"#utility.yul\":9987:10075   */\n                  mstore\n                    /* \"#utility.yul\":10094:10098   */\n                  0x11\n                    /* \"#utility.yul\":10091:10092   */\n                  0x04\n                    /* \"#utility.yul\":10084:10099   */\n                  mstore\n                    /* \"#utility.yul\":10118:10122   */\n                  0x24\n                    /* \"#utility.yul\":10115:10116   */\n                  0x00\n                    /* \"#utility.yul\":10108:10123   */\n                  revert\n                    /* \"#utility.yul\":10135:10368   */\n                tag_64:\n                    /* \"#utility.yul\":10174:10177   */\n                  0x00\n                    /* \"#utility.yul\":10197:10221   */\n                  tag_273\n                    /* \"#utility.yul\":10215:10220   */\n                  dup3\n                    /* \"#utility.yul\":10197:10221   */\n                  tag_130\n                  jump\t// in\n                tag_273:\n                    /* \"#utility.yul\":10188:10221   */\n                  swap2\n                  pop\n                    /* \"#utility.yul\":10243:10309   */\n                  0xffffffffffffffffffffffffffffffffffffffffffffffffffffffffffffffff\n                    /* \"#utility.yul\":10236:10241   */\n                  dup3\n                    /* \"#utility.yul\":10233:10310   */\n                  eq\n                    /* \"#utility.yul\":10230:10333   */\n                  iszero\n                  tag_274\n                  jumpi\n                    /* \"#utility.yul\":10313:10331   */\n                  tag_275\n                  tag_155\n                  jump\t// in\n                tag_275:\n                    /* \"#utility.yul\":10230:10333   */\n                tag_274:\n                    /* \"#utility.yul\":10360:10361   */\n                  0x01\n                    /* \"#utility.yul\":10353:10358   */\n                  dup3\n                    /* \"#utility.yul\":10349:10362   */\n                  add\n                    /* \"#utility.yul\":10342:10362   */\n                  swap1\n                  pop\n                    /* \"#utility.yul\":10135:10368   */\n                  swap2\n                  swap1\n                  pop\n                  jump\t// out\n                    /* \"#utility.yul\":10374:10522   */\n                tag_156:\n                    /* \"#utility.yul\":10476:10487   */\n                  0x00\n                    /* \"#utility.yul\":10513:10516   */\n                  dup2\n                    /* \"#utility.yul\":10498:10516   */\n                  swap1\n                  pop\n                    /* \"#utility.yul\":10374:10522   */\n                  swap3\n                  swap2\n                  pop\n                  pop\n                  jump\t// out\n                    /* \"#utility.yul\":10528:10905   */\n                tag_157:\n                    /* \"#utility.yul\":10634:10637   */\n                  0x00\n                    /* \"#utility.yul\":10662:10701   */\n                  tag_278\n                    /* \"#utility.yul\":10695:10700   */\n                  dup3\n                    /* \"#utility.yul\":10662:10701   */\n                  tag_151\n                  jump\t// in\n                tag_278:\n                    /* \"#utility.yul\":10717:10806   */\n                  tag_279\n                    /* \"#utility.yul\":10799:10805   */\n                  dup2\n                    /* \"#utility.yul\":10794:10797   */\n                  dup6\n                    /* \"#utility.yul\":10717:10806   */\n                  tag_156\n                  jump\t// in\n                tag_279:\n                    /* \"#utility.yul\":10710:10806   */\n                  swap4\n                  pop\n                    /* \"#utility.yul\":10815:10867   */\n                  tag_280\n                    /* \"#utility.yul\":10860:10866   */\n                  dup2\n                    /* \"#utility.yul\":10855:10858   */\n                  dup6\n                    /* \"#utility.yul\":10848:10852   */\n                  0x20\n                    /* \"#utility.yul\":10841:10846   */\n                  dup7\n                    /* \"#utility.yul\":10837:10853   */\n                  add\n                    /* \"#utility.yul\":10815:10867   */\n                  tag_153\n                  jump\t// in\n                tag_280:\n                    /* \"#utility.yul\":10892:10898   */\n                  dup1\n                    /* \"#utility.yul\":10887:10890   */\n                  dup5\n                    /* \"#utility.yul\":10883:10899   */\n                  add\n                    /* \"#utility.yul\":10876:10899   */\n                  swap2\n                  pop\n                    /* \"#utility.yul\":10638:10905   */\n                  pop\n                    /* \"#utility.yul\":10528:10905   */\n                  swap3\n                  swap2\n                  pop\n                  pop\n                  jump\t// out\n                    /* \"#utility.yul\":10911:11186   */\n                tag_78:\n                    /* \"#utility.yul\":11043:11046   */\n                  0x00\n                    /* \"#utility.yul\":11065:11160   */\n                  tag_282\n                    /* \"#utility.yul\":11156:11159   */\n                  dup3\n                    /* \"#utility.yul\":11147:11153   */\n                  dup5\n                    /* \"#utility.yul\":11065:11160   */\n                  tag_157\n                  jump\t// in\n                tag_282:\n                    /* \"#utility.yul\":11058:11160   */\n                  swap2\n                  pop\n                    /* \"#utility.yul\":11177:11180   */\n                  dup2\n                    /* \"#utility.yul\":11170:11180   */\n                  swap1\n                  pop\n                    /* \"#utility.yul\":10911:11186   */\n                  swap3\n                  swap2\n                  pop\n                  pop\n                  jump\t// out\n                    /* \"#utility.yul\":11192:11372   */\n                tag_158:\n                    /* \"#utility.yul\":11240:11317   */\n                  0x4e487b7100000000000000000000000000000000000000000000000000000000\n                    /* \"#utility.yul\":11237:11238   */\n                  0x00\n                    /* \"#utility.yul\":11230:11318   */\n                  mstore\n                    /* \"#utility.yul\":11337:11341   */\n                  0x22\n                    /* \"#utility.yul\":11334:11335   */\n                  0x04\n                    /* \"#utility.yul\":11327:11342   */\n                  mstore\n                    /* \"#utility.yul\":11361:11365   */\n                  0x24\n                    /* \"#utility.yul\":11358:11359   */\n                  0x00\n                    /* \"#utility.yul\":11351:11366   */\n                  revert\n                    /* \"#utility.yul\":11378:11698   */\n                tag_81:\n                    /* \"#utility.yul\":11422:11428   */\n                  0x00\n                    /* \"#utility.yul\":11459:11460   */\n                  0x02\n                    /* \"#utility.yul\":11453:11457   */\n                  dup3\n                    /* \"#utility.yul\":11449:11461   */\n                  div\n                    /* \"#utility.yul\":11439:11461   */\n                  swap1\n                  pop\n                    /* \"#utility.yul\":11506:11507   */\n                  0x01\n                    /* \"#utility.yul\":11500:11504   */\n                  dup3\n                    /* \"#utility.yul\":11496:11508   */\n                  and\n                    /* \"#utility.yul\":11527:11545   */\n                  dup1\n                    /* \"#utility.yul\":11517:11598   */\n                  tag_285\n                  jumpi\n                    /* \"#utility.yul\":11583:11587   */\n                  0x7f\n                    /* \"#utility.yul\":11575:11581   */\n                  dup3\n                    /* \"#utility.yul\":11571:11588   */\n                  and\n                    /* \"#utility.yul\":11561:11588   */\n                  swap2\n                  pop\n                    /* \"#utility.yul\":11517:11598   */\n                tag_285:\n                    /* \"#utility.yul\":11645:11647   */\n                  0x20\n                    /* \"#utility.yul\":11637:11643   */\n                  dup3\n                    /* \"#utility.yul\":11634:11648   */\n                  lt\n                    /* \"#utility.yul\":11614:11632   */\n                  dup2\n                    /* \"#utility.yul\":11611:11649   */\n                  eq\n                    /* \"#utility.yul\":11608:11692   */\n                  iszero\n                  tag_286\n                  jumpi\n                    /* \"#utility.yul\":11664:11682   */\n                  tag_287\n                  tag_158\n                  jump\t// in\n                tag_287:\n                    /* \"#utility.yul\":11608:11692   */\n                tag_286:\n                    /* \"#utility.yul\":11429:11698   */\n                  pop\n                    /* \"#utility.yul\":11378:11698   */\n                  swap2\n                  swap1\n                  pop\n                  jump\t// out\n\n                auxdata: 0xa26469706673582212207295d9df1302a08b413a7effeaee3ccc7ab05e3952e7a0275de23cac8fd9b81164736f6c634300080a0033\n            }\n        }\n\n        sub_2: assembly {\n                /* \"devs/UserManager.sol\":788:3649   */\n              mstore(0x40, 0x80)\n                /* \"devs/UserManager.sol\":1310:1421   */\n              callvalue\n              dup1\n              iszero\n              tag_1\n              jumpi\n              0x00\n              dup1\n              revert\n            tag_1:\n              pop\n              mload(0x40)\n              sub(codesize, bytecodeSize)\n              dup1\n              bytecodeSize\n              dup4\n              codecopy\n              dup2\n              dup2\n              add\n              0x40\n              mstore\n              dup2\n              add\n              swap1\n              tag_2\n              swap2\n              swap1\n              tag_3\n              jump\t// in\n            tag_2:\n                /* \"devs/UserManager.sol\":1363:1376   */\n              dup1\n                /* \"devs/UserManager.sol\":1355:1360   */\n              0x00\n              dup1\n                /* \"devs/UserManager.sol\":1355:1376   */\n              0x0100\n              exp\n              dup2\n              sload\n              dup2\n              0xffffffffffffffffffffffffffffffffffffffff\n              mul\n              not\n              and\n              swap1\n              dup4\n              0xffffffffffffffffffffffffffffffffffffffff\n              and\n              mul\n              or\n              swap1\n              sstore\n              pop\n                /* \"devs/UserManager.sol\":1404:1414   */\n              caller\n                /* \"devs/UserManager.sol\":1386:1401   */\n              0x01\n              0x00\n                /* \"devs/UserManager.sol\":1386:1414   */\n              0x0100\n              exp\n              dup2\n              sload\n              dup2\n              0xffffffffffffffffffffffffffffffffffffffff\n              mul\n              not\n              and\n              swap1\n              dup4\n              0xffffffffffffffffffffffffffffffffffffffff\n              and\n              mul\n              or\n              swap1\n              sstore\n              pop\n                /* \"devs/UserManager.sol\":1310:1421   */\n              pop\n                /* \"devs/UserManager.sol\":788:3649   */\n              jump(tag_6)\n                /* \"#utility.yul\":88:205   */\n            tag_8:\n                /* \"#utility.yul\":197:198   */\n              0x00\n                /* \"#utility.yul\":194:195   */\n              dup1\n                /* \"#utility.yul\":187:199   */\n              revert\n                /* \"#utility.yul\":334:460   */\n            tag_10:\n                /* \"#utility.yul\":371:378   */\n              0x00\n                /* \"#utility.yul\":411:453   */\n              0xffffffffffffffffffffffffffffffffffffffff\n                /* \"#utility.yul\":404:409   */\n              dup3\n                /* \"#utility.yul\":400:454   */\n              and\n                /* \"#utility.yul\":389:454   */\n              swap1\n              pop\n                /* \"#utility.yul\":334:460   */\n              swap2\n              swap1\n              pop\n              jump\t// out\n                /* \"#utility.yul\":466:562   */\n            tag_11:\n                /* \"#utility.yul\":503:510   */\n              0x00\n                /* \"#utility.yul\":532:556   */\n              tag_20\n                /* \"#utility.yul\":550:555   */\n              dup3\n                /* \"#utility.yul\":532:556   */\n              tag_10\n              jump\t// in\n            tag_20:\n                /* \"#utility.yul\":521:556   */\n              swap1\n              pop\n                /* \"#utility.yul\":466:562   */\n              swap2\n              swap1\n              pop\n              jump\t// out\n                /* \"#utility.yul\":568:690   */\n            tag_12:\n                /* \"#utility.yul\":641:665   */\n              tag_22\n                /* \"#utility.yul\":659:664   */\n              dup2\n                /* \"#utility.yul\":641:665   */\n              tag_11\n              jump\t// in\n            tag_22:\n                /* \"#utility.yul\":634:639   */\n              dup2\n                /* \"#utility.yul\":631:666   */\n              eq\n                /* \"#utility.yul\":621:684   */\n              tag_23\n              jumpi\n                /* \"#utility.yul\":680:681   */\n              0x00\n                /* \"#utility.yul\":677:678   */\n              dup1\n                /* \"#utility.yul\":670:682   */\n              revert\n                /* \"#utility.yul\":621:684   */\n            tag_23:\n                /* \"#utility.yul\":568:690   */\n              pop\n              jump\t// out\n                /* \"#utility.yul\":696:839   */\n            tag_13:\n                /* \"#utility.yul\":753:758   */\n              0x00\n                /* \"#utility.yul\":784:790   */\n              dup2\n                /* \"#utility.yul\":778:791   */\n              mload\n                /* \"#utility.yul\":769:791   */\n              swap1\n              pop\n                /* \"#utility.yul\":800:833   */\n              tag_25\n                /* \"#utility.yul\":827:832   */\n              dup2\n                /* \"#utility.yul\":800:833   */\n              tag_12\n              jump\t// in\n            tag_25:\n                /* \"#utility.yul\":696:839   */\n              swap3\n              swap2\n              pop\n              pop\n              jump\t// out\n                /* \"#utility.yul\":845:1196   */\n            tag_3:\n                /* \"#utility.yul\":915:921   */\n              0x00\n                /* \"#utility.yul\":964:966   */\n              0x20\n                /* \"#utility.yul\":952:961   */\n              dup3\n                /* \"#utility.yul\":943:950   */\n              dup5\n                /* \"#utility.yul\":939:962   */\n              sub\n                /* \"#utility.yul\":935:967   */\n              slt\n                /* \"#utility.yul\":932:1051   */\n              iszero\n              tag_27\n              jumpi\n                /* \"#utility.yul\":970:1049   */\n              tag_28\n              tag_8\n              jump\t// in\n            tag_28:\n                /* \"#utility.yul\":932:1051   */\n            tag_27:\n                /* \"#utility.yul\":1090:1091   */\n              0x00\n                /* \"#utility.yul\":1115:1179   */\n              tag_29\n                /* \"#utility.yul\":1171:1178   */\n              dup5\n                /* \"#utility.yul\":1162:1168   */\n              dup3\n                /* \"#utility.yul\":1151:1160   */\n              dup6\n                /* \"#utility.yul\":1147:1169   */\n              add\n                /* \"#utility.yul\":1115:1179   */\n              tag_13\n              jump\t// in\n            tag_29:\n                /* \"#utility.yul\":1105:1179   */\n              swap2\n              pop\n                /* \"#utility.yul\":1061:1189   */\n              pop\n                /* \"#utility.yul\":845:1196   */\n              swap3\n              swap2\n              pop\n              pop\n              jump\t// out\n                /* \"devs/UserManager.sol\":788:3649   */\n            tag_6:\n              dataSize(sub_0)\n              dup1\n              dataOffset(sub_0)\n              0x00\n              codecopy\n              0x00\n              return\n            stop\n\n            sub_0: assembly {\n                    /* \"devs/UserManager.sol\":788:3649   */\n                  mstore(0x40, 0x80)\n                  callvalue\n                  dup1\n                  iszero\n                  tag_1\n                  jumpi\n                  0x00\n                  dup1\n                  revert\n                tag_1:\n                  pop\n                  jumpi(tag_2, lt(calldatasize, 0x04))\n                  shr(0xe0, calldataload(0x00))\n                  dup1\n                  0xa1cb5cf2\n                  gt\n                  tag_19\n                  jumpi\n                  dup1\n                  0xe3e1f001\n                  gt\n                  tag_20\n                  jumpi\n                  dup1\n                  0xe3e1f001\n                  eq\n                  tag_15\n                  jumpi\n                  dup1\n                  0xe597ef12\n                  eq\n                  tag_16\n                  jumpi\n                  dup1\n                  0xecded204\n                  eq\n                  tag_17\n                  jumpi\n                  dup1\n                  0xf3c95c60\n                  eq\n                  tag_18\n                  jumpi\n                  jump(tag_2)\n                tag_20:\n                  dup1\n                  0xa1cb5cf2\n                  eq\n                  tag_11\n                  jumpi\n                  dup1\n                  0xa5a9c518\n                  eq\n                  tag_12\n                  jumpi\n                  dup1\n                  0xa87430ba\n                  eq\n                  tag_13\n                  jumpi\n                  dup1\n                  0xcbaf3186\n                  eq\n                  tag_14\n                  jumpi\n                  jump(tag_2)\n                tag_19:\n                  dup1\n                  0x4420e486\n                  gt\n                  tag_21\n                  jumpi\n                  dup1\n                  0x4420e486\n                  eq\n                  tag_7\n                  jumpi\n                  dup1\n                  0x4a09db4f\n                  eq\n                  tag_8\n                  jumpi\n                  dup1\n                  0x7c4dd96d\n                  eq\n                  tag_9\n                  jumpi\n                  dup1\n                  0x8da5cb5b\n                  eq\n                  tag_10\n                  jumpi\n                  jump(tag_2)\n                tag_21:\n                  dup1\n                  0x19aa98a3\n                  eq\n                  tag_3\n                  jumpi\n                  dup1\n                  0x371e91ca\n                  eq\n                  tag_4\n                  jumpi\n                  dup1\n                  0x3cbdec03\n                  eq\n                  tag_5\n                  jumpi\n                  dup1\n                  0x4172fb89\n                  eq\n                  tag_6\n                  jumpi\n                tag_2:\n                  0x00\n                  dup1\n                  revert\n                    /* \"devs/UserManager.sol\":3324:3488   */\n                tag_3:\n                  tag_22\n                  0x04\n                  dup1\n                  calldatasize\n                  sub\n                  dup2\n                  add\n                  swap1\n                  tag_23\n                  swap2\n                  swap1\n                  tag_24\n                  jump\t// in\n                tag_23:\n                  tag_25\n                  jump\t// in\n                tag_22:\n                  mload(0x40)\n                  tag_26\n                  swap2\n                  swap1\n                  tag_27\n                  jump\t// in\n                tag_26:\n                  mload(0x40)\n                  dup1\n                  swap2\n                  sub\n                  swap1\n                  return\n                    /* \"devs/UserManager.sol\":3494:3646   */\n                tag_4:\n                  tag_28\n                  0x04\n                  dup1\n                  calldatasize\n                  sub\n                  dup2\n                  add\n                  swap1\n                  tag_29\n                  swap2\n                  swap1\n                  tag_30\n                  jump\t// in\n                tag_29:\n                  tag_31\n                  jump\t// in\n                tag_28:\n                  mload(0x40)\n                  tag_32\n                  swap2\n                  swap1\n                  tag_33\n                  jump\t// in\n                tag_32:\n                  mload(0x40)\n                  dup1\n                  swap2\n                  sub\n                  swap1\n                  return\n                    /* \"devs/UserManager.sol\":1066:1131   */\n                tag_5:\n                  tag_34\n                  0x04\n                  dup1\n                  calldatasize\n                  sub\n                  dup2\n                  add\n                  swap1\n                  tag_35\n                  swap2\n                  swap1\n                  tag_30\n                  jump\t// in\n                tag_35:\n                  tag_36\n                  jump\t// in\n                tag_34:\n                  mload(0x40)\n                  tag_37\n                  swap2\n                  swap1\n                  tag_33\n                  jump\t// in\n                tag_37:\n                  mload(0x40)\n                  dup1\n                  swap2\n                  sub\n                  swap1\n                  return\n                    /* \"devs/UserManager.sol\":3110:3226   */\n                tag_6:\n                  tag_38\n                  0x04\n                  dup1\n                  calldatasize\n                  sub\n                  dup2\n                  add\n                  swap1\n                  tag_39\n                  swap2\n                  swap1\n                  tag_24\n                  jump\t// in\n                tag_39:\n                  tag_40\n                  jump\t// in\n                tag_38:\n                  mload(0x40)\n                  tag_41\n                  swap2\n                  swap1\n                  tag_33\n                  jump\t// in\n                tag_41:\n                  mload(0x40)\n                  dup1\n                  swap2\n                  sub\n                  swap1\n                  return\n                    /* \"devs/UserManager.sol\":1427:1737   */\n                tag_7:\n                  tag_42\n                  0x04\n                  dup1\n                  calldatasize\n                  sub\n                  dup2\n                  add\n                  swap1\n                  tag_43\n                  swap2\n                  swap1\n                  tag_24\n                  jump\t// in\n                tag_43:\n                  tag_44\n                  jump\t// in\n                tag_42:\n                  stop\n                    /* \"devs/UserManager.sol\":2402:2641   */\n                tag_8:\n                  tag_45\n                  0x04\n                  dup1\n                  calldatasize\n                  sub\n                  dup2\n                  add\n                  swap1\n                  tag_46\n                  swap2\n                  swap1\n                  tag_30\n                  jump\t// in\n                tag_46:\n                  tag_47\n                  jump\t// in\n                tag_45:\n                  stop\n                    /* \"devs/UserManager.sol\":1743:1906   */\n                tag_9:\n                  tag_48\n                  0x04\n                  dup1\n                  calldatasize\n                  sub\n                  dup2\n                  add\n                  swap1\n                  tag_49\n                  swap2\n                  swap1\n                  tag_24\n                  jump\t// in\n                tag_49:\n                  tag_50\n                  jump\t// in\n                tag_48:\n                  stop\n                    /* \"devs/UserManager.sol\":838:858   */\n                tag_10:\n                  tag_51\n                  tag_52\n                  jump\t// in\n                tag_51:\n                  mload(0x40)\n                  tag_53\n                  swap2\n                  swap1\n                  tag_54\n                  jump\t// in\n                tag_53:\n                  mload(0x40)\n                  dup1\n                  swap2\n                  sub\n                  swap1\n                  return\n                    /* \"devs/UserManager.sol\":3236:3318   */\n                tag_11:\n                  tag_55\n                  tag_56\n                  jump\t// in\n                tag_55:\n                  mload(0x40)\n                  tag_57\n                  swap2\n                  swap1\n                  tag_27\n                  jump\t// in\n                tag_57:\n                  mload(0x40)\n                  dup1\n                  swap2\n                  sub\n                  swap1\n                  return\n                    /* \"devs/UserManager.sol\":2129:2396   */\n                tag_12:\n                  tag_58\n                  0x04\n                  dup1\n                  calldatasize\n                  sub\n                  dup2\n                  add\n                  swap1\n                  tag_59\n                  swap2\n                  swap1\n                  tag_30\n                  jump\t// in\n                tag_59:\n                  tag_60\n                  jump\t// in\n                tag_58:\n                  stop\n                    /* \"devs/UserManager.sol\":927:964   */\n                tag_13:\n                  tag_61\n                  0x04\n                  dup1\n                  calldatasize\n                  sub\n                  dup2\n                  add\n                  swap1\n                  tag_62\n                  swap2\n                  swap1\n                  tag_24\n                  jump\t// in\n                tag_62:\n                  tag_63\n                  jump\t// in\n                tag_61:\n                  mload(0x40)\n                  tag_64\n                  swap6\n                  swap5\n                  swap4\n                  swap3\n                  swap2\n                  swap1\n                  tag_65\n                  jump\t// in\n                tag_64:\n                  mload(0x40)\n                  dup1\n                  swap2\n                  sub\n                  swap1\n                  return\n                    /* \"devs/UserManager.sol\":1912:2041   */\n                tag_14:\n                  tag_66\n                  0x04\n                  dup1\n                  calldatasize\n                  sub\n                  dup2\n                  add\n                  swap1\n                  tag_67\n                  swap2\n                  swap1\n                  tag_24\n                  jump\t// in\n                tag_67:\n                  tag_68\n                  jump\t// in\n                tag_66:\n                  stop\n                    /* \"devs/UserManager.sol\":902:921   */\n                tag_15:\n                  tag_69\n                  tag_70\n                  jump\t// in\n                tag_69:\n                  mload(0x40)\n                  tag_71\n                  swap2\n                  swap1\n                  tag_27\n                  jump\t// in\n                tag_71:\n                  mload(0x40)\n                  dup1\n                  swap2\n                  sub\n                  swap1\n                  return\n                    /* \"devs/UserManager.sol\":2647:2950   */\n                tag_16:\n                  tag_72\n                  0x04\n                  dup1\n                  calldatasize\n                  sub\n                  dup2\n                  add\n                  swap1\n                  tag_73\n                  swap2\n                  swap1\n                  tag_30\n                  jump\t// in\n                tag_73:\n                  tag_74\n                  jump\t// in\n                tag_72:\n                  stop\n                    /* \"devs/UserManager.sol\":2982:3104   */\n                tag_17:\n                  tag_75\n                  0x04\n                  dup1\n                  calldatasize\n                  sub\n                  dup2\n                  add\n                  swap1\n                  tag_76\n                  swap2\n                  swap1\n                  tag_24\n                  jump\t// in\n                tag_76:\n                  tag_77\n                  jump\t// in\n                tag_75:\n                  mload(0x40)\n                  tag_78\n                  swap2\n                  swap1\n                  tag_33\n                  jump\t// in\n                tag_78:\n                  mload(0x40)\n                  dup1\n                  swap2\n                  sub\n                  swap1\n                  return\n                    /* \"devs/UserManager.sol\":970:1013   */\n                tag_18:\n                  tag_79\n                  0x04\n                  dup1\n                  calldatasize\n                  sub\n                  dup2\n                  add\n                  swap1\n                  tag_80\n                  swap2\n                  swap1\n                  tag_24\n                  jump\t// in\n                tag_80:\n                  tag_81\n                  jump\t// in\n                tag_79:\n                  mload(0x40)\n                  tag_82\n                  swap2\n                  swap1\n                  tag_33\n                  jump\t// in\n                tag_82:\n                  mload(0x40)\n                  dup1\n                  swap2\n                  sub\n                  swap1\n                  return\n                    /* \"devs/UserManager.sol\":3324:3488   */\n                tag_25:\n                    /* \"devs/UserManager.sol\":3393:3397   */\n                  0x00\n                    /* \"devs/UserManager.sol\":3408:3425   */\n                  dup1\n                    /* \"devs/UserManager.sol\":3428:3433   */\n                  0x03\n                    /* \"devs/UserManager.sol\":3428:3447   */\n                  0x00\n                    /* \"devs/UserManager.sol\":3434:3446   */\n                  dup5\n                    /* \"devs/UserManager.sol\":3428:3447   */\n                  0xffffffffffffffffffffffffffffffffffffffff\n                  and\n                  0xffffffffffffffffffffffffffffffffffffffff\n                  and\n                  dup2\n                  mstore\n                  0x20\n                  add\n                  swap1\n                  dup2\n                  mstore\n                  0x20\n                  add\n                  0x00\n                  keccak256\n                    /* \"devs/UserManager.sol\":3408:3447   */\n                  swap1\n                  pop\n                    /* \"devs/UserManager.sol\":3464:3468   */\n                  dup1\n                    /* \"devs/UserManager.sol\":3464:3481   */\n                  0x02\n                  add\n                  sload\n                    /* \"devs/UserManager.sol\":3457:3481   */\n                  swap2\n                  pop\n                  pop\n                    /* \"devs/UserManager.sol\":3324:3488   */\n                  swap2\n                  swap1\n                  pop\n                  jump\t// out\n                    /* \"devs/UserManager.sol\":3494:3646   */\n                tag_31:\n                    /* \"devs/UserManager.sol\":3577:3581   */\n                  0x00\n                    /* \"devs/UserManager.sol\":3599:3615   */\n                  0x05\n                    /* \"devs/UserManager.sol\":3599:3629   */\n                  0x00\n                    /* \"devs/UserManager.sol\":3616:3628   */\n                  dup5\n                    /* \"devs/UserManager.sol\":3599:3629   */\n                  0xffffffffffffffffffffffffffffffffffffffff\n                  and\n                  0xffffffffffffffffffffffffffffffffffffffff\n                  and\n                  dup2\n                  mstore\n                  0x20\n                  add\n                  swap1\n                  dup2\n                  mstore\n                  0x20\n                  add\n                  0x00\n                  keccak256\n                    /* \"devs/UserManager.sol\":3599:3639   */\n                  0x00\n                    /* \"devs/UserManager.sol\":3630:3638   */\n                  dup4\n                    /* \"devs/UserManager.sol\":3599:3639   */\n                  dup2\n                  mstore\n                  0x20\n                  add\n                  swap1\n                  dup2\n                  mstore\n                  0x20\n                  add\n                  0x00\n                  keccak256\n                  0x00\n                  swap1\n                  sload\n                  swap1\n                  0x0100\n                  exp\n                  swap1\n                  div\n                  0xff\n                  and\n                    /* \"devs/UserManager.sol\":3592:3639   */\n                  swap1\n                  pop\n                    /* \"devs/UserManager.sol\":3494:3646   */\n                  swap3\n                  swap2\n                  pop\n                  pop\n                  jump\t// out\n                    /* \"devs/UserManager.sol\":1066:1131   */\n                tag_36:\n                  mstore(0x20, 0x05)\n                  dup2\n                  0x00\n                  mstore\n                  mstore(0x20, keccak256(0x00, 0x40))\n                  dup1\n                  0x00\n                  mstore\n                  keccak256(0x00, 0x40)\n                  0x00\n                  swap2\n                  pop\n                  swap2\n                  pop\n                  swap1\n                  sload\n                  swap1\n                  0x0100\n                  exp\n                  swap1\n                  div\n                  0xff\n                  and\n                  dup2\n                  jump\t// out\n                    /* \"devs/UserManager.sol\":3110:3226   */\n                tag_40:\n                    /* \"devs/UserManager.sol\":3175:3179   */\n                  0x00\n                    /* \"devs/UserManager.sol\":3197:3204   */\n                  0x07\n                    /* \"devs/UserManager.sol\":3197:3219   */\n                  0x00\n                    /* \"devs/UserManager.sol\":3205:3218   */\n                  dup4\n                    /* \"devs/UserManager.sol\":3197:3219   */\n                  0xffffffffffffffffffffffffffffffffffffffff\n                  and\n                  0xffffffffffffffffffffffffffffffffffffffff\n                  and\n                  dup2\n                  mstore\n                  0x20\n                  add\n                  swap1\n                  dup2\n                  mstore\n                  0x20\n                  add\n                  0x00\n                  keccak256\n                  0x00\n                  swap1\n                  sload\n                  swap1\n                  0x0100\n                  exp\n                  swap1\n                  div\n                  0xff\n                  and\n                    /* \"devs/UserManager.sol\":3190:3219   */\n                  swap1\n                  pop\n                    /* \"devs/UserManager.sol\":3110:3226   */\n                  swap2\n                  swap1\n                  pop\n                  jump\t// out\n                    /* \"devs/UserManager.sol\":1427:1737   */\n                tag_44:\n                    /* \"devs/UserManager.sol\":1275:1285   */\n                  caller\n                    /* \"devs/UserManager.sol\":1256:1285   */\n                  0xffffffffffffffffffffffffffffffffffffffff\n                  and\n                    /* \"devs/UserManager.sol\":1256:1271   */\n                  0x01\n                  0x00\n                  swap1\n                  sload\n                  swap1\n                  0x0100\n                  exp\n                  swap1\n                  div\n                  0xffffffffffffffffffffffffffffffffffffffff\n                  and\n                    /* \"devs/UserManager.sol\":1256:1285   */\n                  0xffffffffffffffffffffffffffffffffffffffff\n                  and\n                  eq\n                    /* \"devs/UserManager.sol\":1248:1286   */\n                  tag_87\n                  jumpi\n                  0x00\n                  dup1\n                  revert\n                tag_87:\n                    /* \"devs/UserManager.sol\":1499:1510   */\n                  0x04\n                    /* \"devs/UserManager.sol\":1499:1519   */\n                  0x00\n                    /* \"devs/UserManager.sol\":1511:1518   */\n                  dup3\n                    /* \"devs/UserManager.sol\":1499:1519   */\n                  0xffffffffffffffffffffffffffffffffffffffff\n                  and\n                  0xffffffffffffffffffffffffffffffffffffffff\n                  and\n                  dup2\n                  mstore\n                  0x20\n                  add\n                  swap1\n                  dup2\n                  mstore\n                  0x20\n                  add\n                  0x00\n                  keccak256\n                  0x00\n                  swap1\n                  sload\n                  swap1\n                  0x0100\n                  exp\n                  swap1\n                  div\n                  0xff\n                  and\n                    /* \"devs/UserManager.sol\":1498:1519   */\n                  iszero\n                    /* \"devs/UserManager.sol\":1490:1520   */\n                  tag_89\n                  jumpi\n                  0x00\n                  dup1\n                  revert\n                tag_89:\n                    /* \"devs/UserManager.sol\":1553:1557   */\n                  0x01\n                    /* \"devs/UserManager.sol\":1530:1541   */\n                  0x04\n                    /* \"devs/UserManager.sol\":1530:1550   */\n                  0x00\n                    /* \"devs/UserManager.sol\":1542:1549   */\n                  dup4\n                    /* \"devs/UserManager.sol\":1530:1550   */\n                  0xffffffffffffffffffffffffffffffffffffffff\n                  and\n                  0xffffffffffffffffffffffffffffffffffffffff\n                  and\n                  dup2\n                  mstore\n                  0x20\n                  add\n                  swap1\n                  dup2\n                  mstore\n                  0x20\n                  add\n                  0x00\n                  keccak256\n                  0x00\n                    /* \"devs/UserManager.sol\":1530:1557   */\n                  0x0100\n                  exp\n                  dup2\n                  sload\n                  dup2\n                  0xff\n                  mul\n                  not\n                  and\n                  swap1\n                  dup4\n                  iszero\n                  iszero\n                  mul\n                  or\n                  swap1\n                  sstore\n                  pop\n                    /* \"devs/UserManager.sol\":1567:1584   */\n                  0x00\n                    /* \"devs/UserManager.sol\":1587:1592   */\n                  0x03\n                    /* \"devs/UserManager.sol\":1587:1601   */\n                  0x00\n                    /* \"devs/UserManager.sol\":1593:1600   */\n                  dup4\n                    /* \"devs/UserManager.sol\":1587:1601   */\n                  0xffffffffffffffffffffffffffffffffffffffff\n                  and\n                  0xffffffffffffffffffffffffffffffffffffffff\n                  and\n                  dup2\n                  mstore\n                  0x20\n                  add\n                  swap1\n                  dup2\n                  mstore\n                  0x20\n                  add\n                  0x00\n                  keccak256\n                    /* \"devs/UserManager.sol\":1567:1601   */\n                  swap1\n                  pop\n                    /* \"devs/UserManager.sol\":1630:1637   */\n                  dup2\n                    /* \"devs/UserManager.sol\":1611:1615   */\n                  dup2\n                    /* \"devs/UserManager.sol\":1611:1627   */\n                  0x00\n                  add\n                  0x00\n                    /* \"devs/UserManager.sol\":1611:1637   */\n                  0x0100\n                  exp\n                  dup2\n                  sload\n                  dup2\n                  0xffffffffffffffffffffffffffffffffffffffff\n                  mul\n                  not\n                  and\n                  swap1\n                  dup4\n                  0xffffffffffffffffffffffffffffffffffffffff\n                  and\n                  mul\n                  or\n                  swap1\n                  sstore\n                  pop\n                    /* \"devs/UserManager.sol\":1667:1668   */\n                  0x00\n                    /* \"devs/UserManager.sol\":1647:1651   */\n                  dup2\n                    /* \"devs/UserManager.sol\":1647:1664   */\n                  0x02\n                  add\n                    /* \"devs/UserManager.sol\":1647:1668   */\n                  dup2\n                  swap1\n                  sstore\n                  pop\n                    /* \"devs/UserManager.sol\":1698:1699   */\n                  0x00\n                    /* \"devs/UserManager.sol\":1678:1682   */\n                  dup2\n                    /* \"devs/UserManager.sol\":1678:1694   */\n                  0x03\n                  add\n                    /* \"devs/UserManager.sol\":1678:1699   */\n                  dup2\n                  swap1\n                  sstore\n                  pop\n                    /* \"devs/UserManager.sol\":1729:1730   */\n                  0x00\n                    /* \"devs/UserManager.sol\":1709:1713   */\n                  dup2\n                    /* \"devs/UserManager.sol\":1709:1726   */\n                  0x05\n                  add\n                    /* \"devs/UserManager.sol\":1709:1730   */\n                  dup2\n                  swap1\n                  sstore\n                  pop\n                    /* \"devs/UserManager.sol\":1480:1737   */\n                  pop\n                    /* \"devs/UserManager.sol\":1427:1737   */\n                  pop\n                  jump\t// out\n                    /* \"devs/UserManager.sol\":2402:2641   */\n                tag_47:\n                    /* \"devs/UserManager.sol\":1275:1285   */\n                  caller\n                    /* \"devs/UserManager.sol\":1256:1285   */\n                  0xffffffffffffffffffffffffffffffffffffffff\n                  and\n                    /* \"devs/UserManager.sol\":1256:1271   */\n                  0x01\n                  0x00\n                  swap1\n                  sload\n                  swap1\n                  0x0100\n                  exp\n                  swap1\n                  div\n                  0xffffffffffffffffffffffffffffffffffffffff\n                  and\n                    /* \"devs/UserManager.sol\":1256:1285   */\n                  0xffffffffffffffffffffffffffffffffffffffff\n                  and\n                  eq\n                    /* \"devs/UserManager.sol\":1248:1286   */\n                  tag_91\n                  jumpi\n                  0x00\n                  dup1\n                  revert\n                tag_91:\n                    /* \"devs/UserManager.sol\":2487:2498   */\n                  0x04\n                    /* \"devs/UserManager.sol\":2487:2507   */\n                  0x00\n                    /* \"devs/UserManager.sol\":2499:2506   */\n                  dup4\n                    /* \"devs/UserManager.sol\":2487:2507   */\n                  0xffffffffffffffffffffffffffffffffffffffff\n                  and\n                  0xffffffffffffffffffffffffffffffffffffffff\n                  and\n                  dup2\n                  mstore\n                  0x20\n                  add\n                  swap1\n                  dup2\n                  mstore\n                  0x20\n                  add\n                  0x00\n                  keccak256\n                  0x00\n                  swap1\n                  sload\n                  swap1\n                  0x0100\n                  exp\n                  swap1\n                  div\n                  0xff\n                  and\n                    /* \"devs/UserManager.sol\":2479:2508   */\n                  tag_93\n                  jumpi\n                  0x00\n                  dup1\n                  revert\n                tag_93:\n                    /* \"devs/UserManager.sol\":2518:2535   */\n                  0x00\n                    /* \"devs/UserManager.sol\":2538:2543   */\n                  0x03\n                    /* \"devs/UserManager.sol\":2538:2552   */\n                  0x00\n                    /* \"devs/UserManager.sol\":2544:2551   */\n                  dup5\n                    /* \"devs/UserManager.sol\":2538:2552   */\n                  0xffffffffffffffffffffffffffffffffffffffff\n                  and\n                  0xffffffffffffffffffffffffffffffffffffffff\n                  and\n                  dup2\n                  mstore\n                  0x20\n                  add\n                  swap1\n                  dup2\n                  mstore\n                  0x20\n                  add\n                  0x00\n                  keccak256\n                    /* \"devs/UserManager.sol\":2518:2552   */\n                  swap1\n                  pop\n                    /* \"devs/UserManager.sol\":2600:2605   */\n                  0x00\n                    /* \"devs/UserManager.sol\":2562:2578   */\n                  0x05\n                    /* \"devs/UserManager.sol\":2562:2587   */\n                  0x00\n                    /* \"devs/UserManager.sol\":2579:2586   */\n                  dup6\n                    /* \"devs/UserManager.sol\":2562:2587   */\n                  0xffffffffffffffffffffffffffffffffffffffff\n                  and\n                  0xffffffffffffffffffffffffffffffffffffffff\n                  and\n                  dup2\n                  mstore\n                  0x20\n                  add\n                  swap1\n                  dup2\n                  mstore\n                  0x20\n                  add\n                  0x00\n                  keccak256\n                    /* \"devs/UserManager.sol\":2562:2597   */\n                  0x00\n                    /* \"devs/UserManager.sol\":2588:2596   */\n                  dup5\n                    /* \"devs/UserManager.sol\":2562:2597   */\n                  dup2\n                  mstore\n                  0x20\n                  add\n                  swap1\n                  dup2\n                  mstore\n                  0x20\n                  add\n                  0x00\n                  keccak256\n                  0x00\n                    /* \"devs/UserManager.sol\":2562:2605   */\n                  0x0100\n                  exp\n                  dup2\n                  sload\n                  dup2\n                  0xff\n                  mul\n                  not\n                  and\n                  swap1\n                  dup4\n                  iszero\n                  iszero\n                  mul\n                  or\n                  swap1\n                  sstore\n                  pop\n                    /* \"devs/UserManager.sol\":2615:2619   */\n                  dup1\n                    /* \"devs/UserManager.sol\":2615:2632   */\n                  0x02\n                  add\n                  0x00\n                    /* \"devs/UserManager.sol\":2615:2634   */\n                  dup2\n                  sload\n                  dup1\n                  swap3\n                  swap2\n                  swap1\n                  tag_94\n                  swap1\n                  tag_95\n                  jump\t// in\n                tag_94:\n                  swap2\n                  swap1\n                  pop\n                  sstore\n                  pop\n                    /* \"devs/UserManager.sol\":2469:2641   */\n                  pop\n                    /* \"devs/UserManager.sol\":2402:2641   */\n                  pop\n                  pop\n                  jump\t// out\n                    /* \"devs/UserManager.sol\":1743:1906   */\n                tag_50:\n                    /* \"devs/UserManager.sol\":1275:1285   */\n                  caller\n                    /* \"devs/UserManager.sol\":1256:1285   */\n                  0xffffffffffffffffffffffffffffffffffffffff\n                  and\n                    /* \"devs/UserManager.sol\":1256:1271   */\n                  0x01\n                  0x00\n                  swap1\n                  sload\n                  swap1\n                  0x0100\n                  exp\n                  swap1\n                  div\n                  0xffffffffffffffffffffffffffffffffffffffff\n                  and\n                    /* \"devs/UserManager.sol\":1256:1285   */\n                  0xffffffffffffffffffffffffffffffffffffffff\n                  and\n                  eq\n                    /* \"devs/UserManager.sol\":1248:1286   */\n                  tag_97\n                  jumpi\n                  0x00\n                  dup1\n                  revert\n                tag_97:\n                    /* \"devs/UserManager.sol\":1840:1844   */\n                  0x01\n                    /* \"devs/UserManager.sol\":1815:1822   */\n                  0x07\n                    /* \"devs/UserManager.sol\":1815:1837   */\n                  0x00\n                    /* \"devs/UserManager.sol\":1823:1836   */\n                  dup4\n                    /* \"devs/UserManager.sol\":1815:1837   */\n                  0xffffffffffffffffffffffffffffffffffffffff\n                  and\n                  0xffffffffffffffffffffffffffffffffffffffff\n                  and\n                  dup2\n                  mstore\n                  0x20\n                  add\n                  swap1\n                  dup2\n                  mstore\n                  0x20\n                  add\n                  0x00\n                  keccak256\n                  0x00\n                    /* \"devs/UserManager.sol\":1815:1844   */\n                  0x0100\n                  exp\n                  dup2\n                  sload\n                  dup2\n                  0xff\n                  mul\n                  not\n                  and\n                  swap1\n                  dup4\n                  iszero\n                  iszero\n                  mul\n                  or\n                  swap1\n                  sstore\n                  pop\n                    /* \"devs/UserManager.sol\":1854:1859   */\n                  0x08\n                    /* \"devs/UserManager.sol\":1865:1878   */\n                  dup2\n                    /* \"devs/UserManager.sol\":1854:1879   */\n                  swap1\n                  dup1\n                  0x01\n                  dup2\n                  sload\n                  add\n                  dup1\n                  dup3\n                  sstore\n                  dup1\n                  swap2\n                  pop\n                  pop\n                  0x01\n                  swap1\n                  sub\n                  swap1\n                  0x00\n                  mstore\n                  keccak256(0x00, 0x20)\n                  add\n                  0x00\n                  swap1\n                  swap2\n                  swap1\n                  swap2\n                  swap1\n                  swap2\n                  0x0100\n                  exp\n                  dup2\n                  sload\n                  dup2\n                  0xffffffffffffffffffffffffffffffffffffffff\n                  mul\n                  not\n                  and\n                  swap1\n                  dup4\n                  0xffffffffffffffffffffffffffffffffffffffff\n                  and\n                  mul\n                  or\n                  swap1\n                  sstore\n                  pop\n                    /* \"devs/UserManager.sol\":1889:1897   */\n                  0x06\n                  0x00\n                    /* \"devs/UserManager.sol\":1889:1899   */\n                  dup2\n                  sload\n                  dup1\n                  swap3\n                  swap2\n                  swap1\n                  tag_100\n                  swap1\n                  tag_101\n                  jump\t// in\n                tag_100:\n                  swap2\n                  swap1\n                  pop\n                  sstore\n                  pop\n                    /* \"devs/UserManager.sol\":1743:1906   */\n                  pop\n                  jump\t// out\n                    /* \"devs/UserManager.sol\":838:858   */\n                tag_52:\n                  0x00\n                  dup1\n                  sload\n                  swap1\n                  0x0100\n                  exp\n                  swap1\n                  div\n                  0xffffffffffffffffffffffffffffffffffffffff\n                  and\n                  dup2\n                  jump\t// out\n                    /* \"devs/UserManager.sol\":3236:3318   */\n                tag_56:\n                    /* \"devs/UserManager.sol\":3281:3285   */\n                  0x00\n                    /* \"devs/UserManager.sol\":3303:3311   */\n                  sload(0x06)\n                    /* \"devs/UserManager.sol\":3296:3311   */\n                  swap1\n                  pop\n                    /* \"devs/UserManager.sol\":3236:3318   */\n                  swap1\n                  jump\t// out\n                    /* \"devs/UserManager.sol\":2129:2396   */\n                tag_60:\n                    /* \"devs/UserManager.sol\":1275:1285   */\n                  caller\n                    /* \"devs/UserManager.sol\":1256:1285   */\n                  0xffffffffffffffffffffffffffffffffffffffff\n                  and\n                    /* \"devs/UserManager.sol\":1256:1271   */\n                  0x01\n                  0x00\n                  swap1\n                  sload\n                  swap1\n                  0x0100\n                  exp\n                  swap1\n                  div\n                  0xffffffffffffffffffffffffffffffffffffffff\n                  and\n                    /* \"devs/UserManager.sol\":1256:1285   */\n                  0xffffffffffffffffffffffffffffffffffffffff\n                  and\n                  eq\n                    /* \"devs/UserManager.sol\":1248:1286   */\n                  tag_104\n                  jumpi\n                  0x00\n                  dup1\n                  revert\n                tag_104:\n                    /* \"devs/UserManager.sol\":2214:2225   */\n                  0x04\n                    /* \"devs/UserManager.sol\":2214:2234   */\n                  0x00\n                    /* \"devs/UserManager.sol\":2226:2233   */\n                  dup4\n                    /* \"devs/UserManager.sol\":2214:2234   */\n                  0xffffffffffffffffffffffffffffffffffffffff\n                  and\n                  0xffffffffffffffffffffffffffffffffffffffff\n                  and\n                  dup2\n                  mstore\n                  0x20\n                  add\n                  swap1\n                  dup2\n                  mstore\n                  0x20\n                  add\n                  0x00\n                  keccak256\n                  0x00\n                  swap1\n                  sload\n                  swap1\n                  0x0100\n                  exp\n                  swap1\n                  div\n                  0xff\n                  and\n                    /* \"devs/UserManager.sol\":2206:2235   */\n                  tag_106\n                  jumpi\n                  0x00\n                  dup1\n                  revert\n                tag_106:\n                    /* \"devs/UserManager.sol\":2246:2263   */\n                  0x00\n                    /* \"devs/UserManager.sol\":2266:2271   */\n                  0x03\n                    /* \"devs/UserManager.sol\":2266:2280   */\n                  0x00\n                    /* \"devs/UserManager.sol\":2272:2279   */\n                  dup5\n                    /* \"devs/UserManager.sol\":2266:2280   */\n                  0xffffffffffffffffffffffffffffffffffffffff\n                  and\n                  0xffffffffffffffffffffffffffffffffffffffff\n                  and\n                  dup2\n                  mstore\n                  0x20\n                  add\n                  swap1\n                  dup2\n                  mstore\n                  0x20\n                  add\n                  0x00\n                  keccak256\n                    /* \"devs/UserManager.sol\":2246:2280   */\n                  swap1\n                  pop\n                    /* \"devs/UserManager.sol\":2328:2332   */\n                  0x01\n                    /* \"devs/UserManager.sol\":2290:2306   */\n                  0x05\n                    /* \"devs/UserManager.sol\":2290:2315   */\n                  0x00\n                    /* \"devs/UserManager.sol\":2307:2314   */\n                  dup6\n                    /* \"devs/UserManager.sol\":2290:2315   */\n                  0xffffffffffffffffffffffffffffffffffffffff\n                  and\n                  0xffffffffffffffffffffffffffffffffffffffff\n                  and\n                  dup2\n                  mstore\n                  0x20\n                  add\n                  swap1\n                  dup2\n                  mstore\n                  0x20\n                  add\n                  0x00\n                  keccak256\n                    /* \"devs/UserManager.sol\":2290:2325   */\n                  0x00\n                    /* \"devs/UserManager.sol\":2316:2324   */\n                  dup5\n                    /* \"devs/UserManager.sol\":2290:2325   */\n                  dup2\n                  mstore\n                  0x20\n                  add\n                  swap1\n                  dup2\n                  mstore\n                  0x20\n                  add\n                  0x00\n                  keccak256\n                  0x00\n                    /* \"devs/UserManager.sol\":2290:2332   */\n                  0x0100\n                  exp\n                  dup2\n                  sload\n                  dup2\n                  0xff\n                  mul\n                  not\n                  and\n                  swap1\n                  dup4\n                  iszero\n                  iszero\n                  mul\n                  or\n                  swap1\n                  sstore\n                  pop\n                    /* \"devs/UserManager.sol\":2342:2346   */\n                  dup1\n                    /* \"devs/UserManager.sol\":2342:2359   */\n                  0x02\n                  add\n                  0x00\n                    /* \"devs/UserManager.sol\":2342:2361   */\n                  dup2\n                  sload\n                  dup1\n                  swap3\n                  swap2\n                  swap1\n                  tag_107\n                  swap1\n                  tag_101\n                  jump\t// in\n                tag_107:\n                  swap2\n                  swap1\n                  pop\n                  sstore\n                  pop\n                    /* \"devs/UserManager.sol\":2371:2375   */\n                  dup1\n                    /* \"devs/UserManager.sol\":2371:2387   */\n                  0x03\n                  add\n                  0x00\n                    /* \"devs/UserManager.sol\":2371:2389   */\n                  dup2\n                  sload\n                  dup1\n                  swap3\n                  swap2\n                  swap1\n                  tag_108\n                  swap1\n                  tag_101\n                  jump\t// in\n                tag_108:\n                  swap2\n                  swap1\n                  pop\n                  sstore\n                  pop\n                    /* \"devs/UserManager.sol\":2196:2396   */\n                  pop\n                    /* \"devs/UserManager.sol\":2129:2396   */\n                  pop\n                  pop\n                  jump\t// out\n                    /* \"devs/UserManager.sol\":927:964   */\n                tag_63:\n                  mstore(0x20, 0x03)\n                  dup1\n                  0x00\n                  mstore\n                  keccak256(0x00, 0x40)\n                  0x00\n                  swap2\n                  pop\n                  swap1\n                  pop\n                  dup1\n                  0x00\n                  add\n                  0x00\n                  swap1\n                  sload\n                  swap1\n                  0x0100\n                  exp\n                  swap1\n                  div\n                  0xffffffffffffffffffffffffffffffffffffffff\n                  and\n                  swap1\n                  dup1\n                  0x01\n                  add\n                  sload\n                  swap1\n                  dup1\n                  0x02\n                  add\n                  sload\n                  swap1\n                  dup1\n                  0x03\n                  add\n                  sload\n                  swap1\n                  dup1\n                  0x05\n                  add\n                  sload\n                  swap1\n                  pop\n                  dup6\n                  jump\t// out\n                    /* \"devs/UserManager.sol\":1912:2041   */\n                tag_68:\n                    /* \"devs/UserManager.sol\":1275:1285   */\n                  caller\n                    /* \"devs/UserManager.sol\":1256:1285   */\n                  0xffffffffffffffffffffffffffffffffffffffff\n                  and\n                    /* \"devs/UserManager.sol\":1256:1271   */\n                  0x01\n                  0x00\n                  swap1\n                  sload\n                  swap1\n                  0x0100\n                  exp\n                  swap1\n                  div\n                  0xffffffffffffffffffffffffffffffffffffffff\n                  and\n                    /* \"devs/UserManager.sol\":1256:1285   */\n                  0xffffffffffffffffffffffffffffffffffffffff\n                  and\n                  eq\n                    /* \"devs/UserManager.sol\":1248:1286   */\n                  tag_110\n                  jumpi\n                  0x00\n                  dup1\n                  revert\n                tag_110:\n                    /* \"devs/UserManager.sol\":2009:2014   */\n                  0x00\n                    /* \"devs/UserManager.sol\":1984:1991   */\n                  0x07\n                    /* \"devs/UserManager.sol\":1984:2006   */\n                  0x00\n                    /* \"devs/UserManager.sol\":1992:2005   */\n                  dup4\n                    /* \"devs/UserManager.sol\":1984:2006   */\n                  0xffffffffffffffffffffffffffffffffffffffff\n                  and\n                  0xffffffffffffffffffffffffffffffffffffffff\n                  and\n                  dup2\n                  mstore\n                  0x20\n                  add\n                  swap1\n                  dup2\n                  mstore\n                  0x20\n                  add\n                  0x00\n                  keccak256\n                  0x00\n                    /* \"devs/UserManager.sol\":1984:2014   */\n                  0x0100\n                  exp\n                  dup2\n                  sload\n                  dup2\n                  0xff\n                  mul\n                  not\n                  and\n                  swap1\n                  dup4\n                  iszero\n                  iszero\n                  mul\n                  or\n                  swap1\n                  sstore\n                  pop\n                    /* \"devs/UserManager.sol\":2024:2032   */\n                  0x06\n                  0x00\n                    /* \"devs/UserManager.sol\":2024:2034   */\n                  dup2\n                  sload\n                  dup1\n                  swap3\n                  swap2\n                  swap1\n                  tag_112\n                  swap1\n                  tag_95\n                  jump\t// in\n                tag_112:\n                  swap2\n                  swap1\n                  pop\n                  sstore\n                  pop\n                    /* \"devs/UserManager.sol\":1912:2041   */\n                  pop\n                  jump\t// out\n                    /* \"devs/UserManager.sol\":902:921   */\n                tag_70:\n                  sload(0x02)\n                  dup2\n                  jump\t// out\n                    /* \"devs/UserManager.sol\":2647:2950   */\n                tag_74:\n                    /* \"devs/UserManager.sol\":1275:1285   */\n                  caller\n                    /* \"devs/UserManager.sol\":1256:1285   */\n                  0xffffffffffffffffffffffffffffffffffffffff\n                  and\n                    /* \"devs/UserManager.sol\":1256:1271   */\n                  0x01\n                  0x00\n                  swap1\n                  sload\n                  swap1\n                  0x0100\n                  exp\n                  swap1\n                  div\n                  0xffffffffffffffffffffffffffffffffffffffff\n                  and\n                    /* \"devs/UserManager.sol\":1256:1285   */\n                  0xffffffffffffffffffffffffffffffffffffffff\n                  and\n                  eq\n                    /* \"devs/UserManager.sol\":1248:1286   */\n                  tag_114\n                  jumpi\n                  0x00\n                  dup1\n                  revert\n                tag_114:\n                    /* \"devs/UserManager.sol\":2733:2744   */\n                  0x04\n                    /* \"devs/UserManager.sol\":2733:2753   */\n                  0x00\n                    /* \"devs/UserManager.sol\":2745:2752   */\n                  dup4\n                    /* \"devs/UserManager.sol\":2733:2753   */\n                  0xffffffffffffffffffffffffffffffffffffffff\n                  and\n                  0xffffffffffffffffffffffffffffffffffffffff\n                  and\n                  dup2\n                  mstore\n                  0x20\n                  add\n                  swap1\n                  dup2\n                  mstore\n                  0x20\n                  add\n                  0x00\n                  keccak256\n                  0x00\n                  swap1\n                  sload\n                  swap1\n                  0x0100\n                  exp\n                  swap1\n                  div\n                  0xff\n                  and\n                    /* \"devs/UserManager.sol\":2725:2754   */\n                  tag_116\n                  jumpi\n                  0x00\n                  dup1\n                  revert\n                tag_116:\n                    /* \"devs/UserManager.sol\":2765:2782   */\n                  0x00\n                    /* \"devs/UserManager.sol\":2785:2790   */\n                  0x03\n                    /* \"devs/UserManager.sol\":2785:2799   */\n                  0x00\n                    /* \"devs/UserManager.sol\":2791:2798   */\n                  dup5\n                    /* \"devs/UserManager.sol\":2785:2799   */\n                  0xffffffffffffffffffffffffffffffffffffffff\n                  and\n                  0xffffffffffffffffffffffffffffffffffffffff\n                  and\n                  dup2\n                  mstore\n                  0x20\n                  add\n                  swap1\n                  dup2\n                  mstore\n                  0x20\n                  add\n                  0x00\n                  keccak256\n                    /* \"devs/UserManager.sol\":2765:2799   */\n                  swap1\n                  pop\n                    /* \"devs/UserManager.sol\":2809:2813   */\n                  dup1\n                    /* \"devs/UserManager.sol\":2809:2830   */\n                  0x06\n                  add\n                    /* \"devs/UserManager.sol\":2836:2844   */\n                  dup3\n                    /* \"devs/UserManager.sol\":2809:2845   */\n                  swap1\n                  dup1\n                  0x01\n                  dup2\n                  sload\n                  add\n                  dup1\n                  dup3\n                  sstore\n                  dup1\n                  swap2\n                  pop\n                  pop\n                  0x01\n                  swap1\n                  sub\n                  swap1\n                  0x00\n                  mstore\n                  keccak256(0x00, 0x20)\n                  add\n                  0x00\n                  swap1\n                  swap2\n                  swap1\n                  swap2\n                  swap1\n                  swap2\n                  pop\n                  sstore\n                    /* \"devs/UserManager.sol\":2897:2901   */\n                  dup1\n                    /* \"devs/UserManager.sol\":2897:2914   */\n                  0x05\n                  add\n                  sload\n                    /* \"devs/UserManager.sol\":2855:2859   */\n                  dup2\n                    /* \"devs/UserManager.sol\":2855:2884   */\n                  0x07\n                  add\n                    /* \"devs/UserManager.sol\":2855:2894   */\n                  0x00\n                    /* \"devs/UserManager.sol\":2885:2893   */\n                  dup5\n                    /* \"devs/UserManager.sol\":2855:2894   */\n                  dup2\n                  mstore\n                  0x20\n                  add\n                  swap1\n                  dup2\n                  mstore\n                  0x20\n                  add\n                  0x00\n                  keccak256\n                    /* \"devs/UserManager.sol\":2855:2914   */\n                  dup2\n                  swap1\n                  sstore\n                  pop\n                    /* \"devs/UserManager.sol\":2924:2928   */\n                  dup1\n                    /* \"devs/UserManager.sol\":2924:2941   */\n                  0x05\n                  add\n                  0x00\n                    /* \"devs/UserManager.sol\":2924:2943   */\n                  dup2\n                  sload\n                  dup1\n                  swap3\n                  swap2\n                  swap1\n                  tag_118\n                  swap1\n                  tag_101\n                  jump\t// in\n                tag_118:\n                  swap2\n                  swap1\n                  pop\n                  sstore\n                  pop\n                    /* \"devs/UserManager.sol\":2715:2950   */\n                  pop\n                    /* \"devs/UserManager.sol\":2647:2950   */\n                  pop\n                  pop\n                  jump\t// out\n                    /* \"devs/UserManager.sol\":2982:3104   */\n                tag_77:\n                    /* \"devs/UserManager.sol\":3050:3054   */\n                  0x00\n                    /* \"devs/UserManager.sol\":3072:3083   */\n                  0x04\n                    /* \"devs/UserManager.sol\":3072:3097   */\n                  0x00\n                    /* \"devs/UserManager.sol\":3084:3096   */\n                  dup4\n                    /* \"devs/UserManager.sol\":3072:3097   */\n                  0xffffffffffffffffffffffffffffffffffffffff\n                  and\n                  0xffffffffffffffffffffffffffffffffffffffff\n                  and\n                  dup2\n                  mstore\n                  0x20\n                  add\n                  swap1\n                  dup2\n                  mstore\n                  0x20\n                  add\n                  0x00\n                  keccak256\n                  0x00\n                  swap1\n                  sload\n                  swap1\n                  0x0100\n                  exp\n                  swap1\n                  div\n                  0xff\n                  and\n                    /* \"devs/UserManager.sol\":3065:3097   */\n                  swap1\n                  pop\n                    /* \"devs/UserManager.sol\":2982:3104   */\n                  swap2\n                  swap1\n                  pop\n                  jump\t// out\n                    /* \"devs/UserManager.sol\":970:1013   */\n                tag_81:\n                  mstore(0x20, 0x04)\n                  dup1\n                  0x00\n                  mstore\n                  keccak256(0x00, 0x40)\n                  0x00\n                  swap2\n                  pop\n                  sload\n                  swap1\n                  0x0100\n                  exp\n                  swap1\n                  div\n                  0xff\n                  and\n                  dup2\n                  jump\t// out\n                    /* \"#utility.yul\":88:205   */\n                tag_121:\n                    /* \"#utility.yul\":197:198   */\n                  0x00\n                    /* \"#utility.yul\":194:195   */\n                  dup1\n                    /* \"#utility.yul\":187:199   */\n                  revert\n                    /* \"#utility.yul\":334:460   */\n                tag_123:\n                    /* \"#utility.yul\":371:378   */\n                  0x00\n                    /* \"#utility.yul\":411:453   */\n                  0xffffffffffffffffffffffffffffffffffffffff\n                    /* \"#utility.yul\":404:409   */\n                  dup3\n                    /* \"#utility.yul\":400:454   */\n                  and\n                    /* \"#utility.yul\":389:454   */\n                  swap1\n                  pop\n                    /* \"#utility.yul\":334:460   */\n                  swap2\n                  swap1\n                  pop\n                  jump\t// out\n                    /* \"#utility.yul\":466:562   */\n                tag_124:\n                    /* \"#utility.yul\":503:510   */\n                  0x00\n                    /* \"#utility.yul\":532:556   */\n                  tag_141\n                    /* \"#utility.yul\":550:555   */\n                  dup3\n                    /* \"#utility.yul\":532:556   */\n                  tag_123\n                  jump\t// in\n                tag_141:\n                    /* \"#utility.yul\":521:556   */\n                  swap1\n                  pop\n                    /* \"#utility.yul\":466:562   */\n                  swap2\n                  swap1\n                  pop\n                  jump\t// out\n                    /* \"#utility.yul\":568:690   */\n                tag_125:\n                    /* \"#utility.yul\":641:665   */\n                  tag_143\n                    /* \"#utility.yul\":659:664   */\n                  dup2\n                    /* \"#utility.yul\":641:665   */\n                  tag_124\n                  jump\t// in\n                tag_143:\n                    /* \"#utility.yul\":634:639   */\n                  dup2\n                    /* \"#utility.yul\":631:666   */\n                  eq\n                    /* \"#utility.yul\":621:684   */\n                  tag_144\n                  jumpi\n                    /* \"#utility.yul\":680:681   */\n                  0x00\n                    /* \"#utility.yul\":677:678   */\n                  dup1\n                    /* \"#utility.yul\":670:682   */\n                  revert\n                    /* \"#utility.yul\":621:684   */\n                tag_144:\n                    /* \"#utility.yul\":568:690   */\n                  pop\n                  jump\t// out\n                    /* \"#utility.yul\":696:835   */\n                tag_126:\n                    /* \"#utility.yul\":742:747   */\n                  0x00\n                    /* \"#utility.yul\":780:786   */\n                  dup2\n                    /* \"#utility.yul\":767:787   */\n                  calldataload\n                    /* \"#utility.yul\":758:787   */\n                  swap1\n                  pop\n                    /* \"#utility.yul\":796:829   */\n                  tag_146\n                    /* \"#utility.yul\":823:828   */\n                  dup2\n                    /* \"#utility.yul\":796:829   */\n                  tag_125\n                  jump\t// in\n                tag_146:\n                    /* \"#utility.yul\":696:835   */\n                  swap3\n                  swap2\n                  pop\n                  pop\n                  jump\t// out\n                    /* \"#utility.yul\":841:1170   */\n                tag_24:\n                    /* \"#utility.yul\":900:906   */\n                  0x00\n                    /* \"#utility.yul\":949:951   */\n                  0x20\n                    /* \"#utility.yul\":937:946   */\n                  dup3\n                    /* \"#utility.yul\":928:935   */\n                  dup5\n                    /* \"#utility.yul\":924:947   */\n                  sub\n                    /* \"#utility.yul\":920:952   */\n                  slt\n                    /* \"#utility.yul\":917:1036   */\n                  iszero\n                  tag_148\n                  jumpi\n                    /* \"#utility.yul\":955:1034   */\n                  tag_149\n                  tag_121\n                  jump\t// in\n                tag_149:\n                    /* \"#utility.yul\":917:1036   */\n                tag_148:\n                    /* \"#utility.yul\":1075:1076   */\n                  0x00\n                    /* \"#utility.yul\":1100:1153   */\n                  tag_150\n                    /* \"#utility.yul\":1145:1152   */\n                  dup5\n                    /* \"#utility.yul\":1136:1142   */\n                  dup3\n                    /* \"#utility.yul\":1125:1134   */\n                  dup6\n                    /* \"#utility.yul\":1121:1143   */\n                  add\n                    /* \"#utility.yul\":1100:1153   */\n                  tag_126\n                  jump\t// in\n                tag_150:\n                    /* \"#utility.yul\":1090:1153   */\n                  swap2\n                  pop\n                    /* \"#utility.yul\":1046:1163   */\n                  pop\n                    /* \"#utility.yul\":841:1170   */\n                  swap3\n                  swap2\n                  pop\n                  pop\n                  jump\t// out\n                    /* \"#utility.yul\":1176:1253   */\n                tag_127:\n                    /* \"#utility.yul\":1213:1220   */\n                  0x00\n                    /* \"#utility.yul\":1242:1247   */\n                  dup2\n                    /* \"#utility.yul\":1231:1247   */\n                  swap1\n                  pop\n                    /* \"#utility.yul\":1176:1253   */\n                  swap2\n                  swap1\n                  pop\n                  jump\t// out\n                    /* \"#utility.yul\":1259:1377   */\n                tag_128:\n                    /* \"#utility.yul\":1346:1370   */\n                  tag_153\n                    /* \"#utility.yul\":1364:1369   */\n                  dup2\n                    /* \"#utility.yul\":1346:1370   */\n                  tag_127\n                  jump\t// in\n                tag_153:\n                    /* \"#utility.yul\":1341:1344   */\n                  dup3\n                    /* \"#utility.yul\":1334:1371   */\n                  mstore\n                    /* \"#utility.yul\":1259:1377   */\n                  pop\n                  pop\n                  jump\t// out\n                    /* \"#utility.yul\":1383:1605   */\n                tag_27:\n                    /* \"#utility.yul\":1476:1480   */\n                  0x00\n                    /* \"#utility.yul\":1514:1516   */\n                  0x20\n                    /* \"#utility.yul\":1503:1512   */\n                  dup3\n                    /* \"#utility.yul\":1499:1517   */\n                  add\n                    /* \"#utility.yul\":1491:1517   */\n                  swap1\n                  pop\n                    /* \"#utility.yul\":1527:1598   */\n                  tag_155\n                    /* \"#utility.yul\":1595:1596   */\n                  0x00\n                    /* \"#utility.yul\":1584:1593   */\n                  dup4\n                    /* \"#utility.yul\":1580:1597   */\n                  add\n                    /* \"#utility.yul\":1571:1577   */\n                  dup5\n                    /* \"#utility.yul\":1527:1598   */\n                  tag_128\n                  jump\t// in\n                tag_155:\n                    /* \"#utility.yul\":1383:1605   */\n                  swap3\n                  swap2\n                  pop\n                  pop\n                  jump\t// out\n                    /* \"#utility.yul\":1611:1733   */\n                tag_129:\n                    /* \"#utility.yul\":1684:1708   */\n                  tag_157\n                    /* \"#utility.yul\":1702:1707   */\n                  dup2\n                    /* \"#utility.yul\":1684:1708   */\n                  tag_127\n                  jump\t// in\n                tag_157:\n                    /* \"#utility.yul\":1677:1682   */\n                  dup2\n                    /* \"#utility.yul\":1674:1709   */\n                  eq\n                    /* \"#utility.yul\":1664:1727   */\n                  tag_158\n                  jumpi\n                    /* \"#utility.yul\":1723:1724   */\n                  0x00\n                    /* \"#utility.yul\":1720:1721   */\n                  dup1\n                    /* \"#utility.yul\":1713:1725   */\n                  revert\n                    /* \"#utility.yul\":1664:1727   */\n                tag_158:\n                    /* \"#utility.yul\":1611:1733   */\n                  pop\n                  jump\t// out\n                    /* \"#utility.yul\":1739:1878   */\n                tag_130:\n                    /* \"#utility.yul\":1785:1790   */\n                  0x00\n                    /* \"#utility.yul\":1823:1829   */\n                  dup2\n                    /* \"#utility.yul\":1810:1830   */\n                  calldataload\n                    /* \"#utility.yul\":1801:1830   */\n                  swap1\n                  pop\n                    /* \"#utility.yul\":1839:1872   */\n                  tag_160\n                    /* \"#utility.yul\":1866:1871   */\n                  dup2\n                    /* \"#utility.yul\":1839:1872   */\n                  tag_129\n                  jump\t// in\n                tag_160:\n                    /* \"#utility.yul\":1739:1878   */\n                  swap3\n                  swap2\n                  pop\n                  pop\n                  jump\t// out\n                    /* \"#utility.yul\":1884:2358   */\n                tag_30:\n                    /* \"#utility.yul\":1952:1958   */\n                  0x00\n                    /* \"#utility.yul\":1960:1966   */\n                  dup1\n                    /* \"#utility.yul\":2009:2011   */\n                  0x40\n                    /* \"#utility.yul\":1997:2006   */\n                  dup4\n                    /* \"#utility.yul\":1988:1995   */\n                  dup6\n                    /* \"#utility.yul\":1984:2007   */\n                  sub\n                    /* \"#utility.yul\":1980:2012   */\n                  slt\n                    /* \"#utility.yul\":1977:2096   */\n                  iszero\n                  tag_162\n                  jumpi\n                    /* \"#utility.yul\":2015:2094   */\n                  tag_163\n                  tag_121\n                  jump\t// in\n                tag_163:\n                    /* \"#utility.yul\":1977:2096   */\n                tag_162:\n                    /* \"#utility.yul\":2135:2136   */\n                  0x00\n                    /* \"#utility.yul\":2160:2213   */\n                  tag_164\n                    /* \"#utility.yul\":2205:2212   */\n                  dup6\n                    /* \"#utility.yul\":2196:2202   */\n                  dup3\n                    /* \"#utility.yul\":2185:2194   */\n                  dup7\n                    /* \"#utility.yul\":2181:2203   */\n                  add\n                    /* \"#utility.yul\":2160:2213   */\n                  tag_126\n                  jump\t// in\n                tag_164:\n                    /* \"#utility.yul\":2150:2213   */\n                  swap3\n                  pop\n                    /* \"#utility.yul\":2106:2223   */\n                  pop\n                    /* \"#utility.yul\":2262:2264   */\n                  0x20\n                    /* \"#utility.yul\":2288:2341   */\n                  tag_165\n                    /* \"#utility.yul\":2333:2340   */\n                  dup6\n                    /* \"#utility.yul\":2324:2330   */\n                  dup3\n                    /* \"#utility.yul\":2313:2322   */\n                  dup7\n                    /* \"#utility.yul\":2309:2331   */\n                  add\n                    /* \"#utility.yul\":2288:2341   */\n                  tag_130\n                  jump\t// in\n                tag_165:\n                    /* \"#utility.yul\":2278:2341   */\n                  swap2\n                  pop\n                    /* \"#utility.yul\":2233:2351   */\n                  pop\n                    /* \"#utility.yul\":1884:2358   */\n                  swap3\n                  pop\n                  swap3\n                  swap1\n                  pop\n                  jump\t// out\n                    /* \"#utility.yul\":2364:2454   */\n                tag_131:\n                    /* \"#utility.yul\":2398:2405   */\n                  0x00\n                    /* \"#utility.yul\":2441:2446   */\n                  dup2\n                    /* \"#utility.yul\":2434:2447   */\n                  iszero\n                    /* \"#utility.yul\":2427:2448   */\n                  iszero\n                    /* \"#utility.yul\":2416:2448   */\n                  swap1\n                  pop\n                    /* \"#utility.yul\":2364:2454   */\n                  swap2\n                  swap1\n                  pop\n                  jump\t// out\n                    /* \"#utility.yul\":2460:2569   */\n                tag_132:\n                    /* \"#utility.yul\":2541:2562   */\n                  tag_168\n                    /* \"#utility.yul\":2556:2561   */\n                  dup2\n                    /* \"#utility.yul\":2541:2562   */\n                  tag_131\n                  jump\t// in\n                tag_168:\n                    /* \"#utility.yul\":2536:2539   */\n                  dup3\n                    /* \"#utility.yul\":2529:2563   */\n                  mstore\n                    /* \"#utility.yul\":2460:2569   */\n                  pop\n                  pop\n                  jump\t// out\n                    /* \"#utility.yul\":2575:2785   */\n                tag_33:\n                    /* \"#utility.yul\":2662:2666   */\n                  0x00\n                    /* \"#utility.yul\":2700:2702   */\n                  0x20\n                    /* \"#utility.yul\":2689:2698   */\n                  dup3\n                    /* \"#utility.yul\":2685:2703   */\n                  add\n                    /* \"#utility.yul\":2677:2703   */\n                  swap1\n                  pop\n                    /* \"#utility.yul\":2713:2778   */\n                  tag_170\n                    /* \"#utility.yul\":2775:2776   */\n                  0x00\n                    /* \"#utility.yul\":2764:2773   */\n                  dup4\n                    /* \"#utility.yul\":2760:2777   */\n                  add\n                    /* \"#utility.yul\":2751:2757   */\n                  dup5\n                    /* \"#utility.yul\":2713:2778   */\n                  tag_132\n                  jump\t// in\n                tag_170:\n                    /* \"#utility.yul\":2575:2785   */\n                  swap3\n                  swap2\n                  pop\n                  pop\n                  jump\t// out\n                    /* \"#utility.yul\":2791:2909   */\n                tag_133:\n                    /* \"#utility.yul\":2878:2902   */\n                  tag_172\n                    /* \"#utility.yul\":2896:2901   */\n                  dup2\n                    /* \"#utility.yul\":2878:2902   */\n                  tag_124\n                  jump\t// in\n                tag_172:\n                    /* \"#utility.yul\":2873:2876   */\n                  dup3\n                    /* \"#utility.yul\":2866:2903   */\n                  mstore\n                    /* \"#utility.yul\":2791:2909   */\n                  pop\n                  pop\n                  jump\t// out\n                    /* \"#utility.yul\":2915:3137   */\n                tag_54:\n                    /* \"#utility.yul\":3008:3012   */\n                  0x00\n                    /* \"#utility.yul\":3046:3048   */\n                  0x20\n                    /* \"#utility.yul\":3035:3044   */\n                  dup3\n                    /* \"#utility.yul\":3031:3049   */\n                  add\n                    /* \"#utility.yul\":3023:3049   */\n                  swap1\n                  pop\n                    /* \"#utility.yul\":3059:3130   */\n                  tag_174\n                    /* \"#utility.yul\":3127:3128   */\n                  0x00\n                    /* \"#utility.yul\":3116:3125   */\n                  dup4\n                    /* \"#utility.yul\":3112:3129   */\n                  add\n                    /* \"#utility.yul\":3103:3109   */\n                  dup5\n                    /* \"#utility.yul\":3059:3130   */\n                  tag_133\n                  jump\t// in\n                tag_174:\n                    /* \"#utility.yul\":2915:3137   */\n                  swap3\n                  swap2\n                  pop\n                  pop\n                  jump\t// out\n                    /* \"#utility.yul\":3143:3807   */\n                tag_65:\n                    /* \"#utility.yul\":3348:3352   */\n                  0x00\n                    /* \"#utility.yul\":3386:3389   */\n                  0xa0\n                    /* \"#utility.yul\":3375:3384   */\n                  dup3\n                    /* \"#utility.yul\":3371:3390   */\n                  add\n                    /* \"#utility.yul\":3363:3390   */\n                  swap1\n                  pop\n                    /* \"#utility.yul\":3400:3471   */\n                  tag_176\n                    /* \"#utility.yul\":3468:3469   */\n                  0x00\n                    /* \"#utility.yul\":3457:3466   */\n                  dup4\n                    /* \"#utility.yul\":3453:3470   */\n                  add\n                    /* \"#utility.yul\":3444:3450   */\n                  dup9\n                    /* \"#utility.yul\":3400:3471   */\n                  tag_133\n                  jump\t// in\n                tag_176:\n                    /* \"#utility.yul\":3481:3553   */\n                  tag_177\n                    /* \"#utility.yul\":3549:3551   */\n                  0x20\n                    /* \"#utility.yul\":3538:3547   */\n                  dup4\n                    /* \"#utility.yul\":3534:3552   */\n                  add\n                    /* \"#utility.yul\":3525:3531   */\n                  dup8\n                    /* \"#utility.yul\":3481:3553   */\n                  tag_128\n                  jump\t// in\n                tag_177:\n                    /* \"#utility.yul\":3563:3635   */\n                  tag_178\n                    /* \"#utility.yul\":3631:3633   */\n                  0x40\n                    /* \"#utility.yul\":3620:3629   */\n                  dup4\n                    /* \"#utility.yul\":3616:3634   */\n                  add\n                    /* \"#utility.yul\":3607:3613   */\n                  dup7\n                    /* \"#utility.yul\":3563:3635   */\n                  tag_128\n                  jump\t// in\n                tag_178:\n                    /* \"#utility.yul\":3645:3717   */\n                  tag_179\n                    /* \"#utility.yul\":3713:3715   */\n                  0x60\n                    /* \"#utility.yul\":3702:3711   */\n                  dup4\n                    /* \"#utility.yul\":3698:3716   */\n                  add\n                    /* \"#utility.yul\":3689:3695   */\n                  dup6\n                    /* \"#utility.yul\":3645:3717   */\n                  tag_128\n                  jump\t// in\n                tag_179:\n                    /* \"#utility.yul\":3727:3800   */\n                  tag_180\n                    /* \"#utility.yul\":3795:3798   */\n                  0x80\n                    /* \"#utility.yul\":3784:3793   */\n                  dup4\n                    /* \"#utility.yul\":3780:3799   */\n                  add\n                    /* \"#utility.yul\":3771:3777   */\n                  dup5\n                    /* \"#utility.yul\":3727:3800   */\n                  tag_128\n                  jump\t// in\n                tag_180:\n                    /* \"#utility.yul\":3143:3807   */\n                  swap7\n                  swap6\n                  pop\n                  pop\n                  pop\n                  pop\n                  pop\n                  pop\n                  jump\t// out\n                    /* \"#utility.yul\":3813:3993   */\n                tag_134:\n                    /* \"#utility.yul\":3861:3938   */\n                  0x4e487b7100000000000000000000000000000000000000000000000000000000\n                    /* \"#utility.yul\":3858:3859   */\n                  0x00\n                    /* \"#utility.yul\":3851:3939   */\n                  mstore\n                    /* \"#utility.yul\":3958:3962   */\n                  0x11\n                    /* \"#utility.yul\":3955:3956   */\n                  0x04\n                    /* \"#utility.yul\":3948:3963   */\n                  mstore\n                    /* \"#utility.yul\":3982:3986   */\n                  0x24\n                    /* \"#utility.yul\":3979:3980   */\n                  0x00\n                    /* \"#utility.yul\":3972:3987   */\n                  revert\n                    /* \"#utility.yul\":3999:4170   */\n                tag_95:\n                    /* \"#utility.yul\":4038:4041   */\n                  0x00\n                    /* \"#utility.yul\":4061:4085   */\n                  tag_183\n                    /* \"#utility.yul\":4079:4084   */\n                  dup3\n                    /* \"#utility.yul\":4061:4085   */\n                  tag_127\n                  jump\t// in\n                tag_183:\n                    /* \"#utility.yul\":4052:4085   */\n                  swap2\n                  pop\n                    /* \"#utility.yul\":4107:4111   */\n                  0x00\n                    /* \"#utility.yul\":4100:4105   */\n                  dup3\n                    /* \"#utility.yul\":4097:4112   */\n                  eq\n                    /* \"#utility.yul\":4094:4135   */\n                  iszero\n                  tag_184\n                  jumpi\n                    /* \"#utility.yul\":4115:4133   */\n                  tag_185\n                  tag_134\n                  jump\t// in\n                tag_185:\n                    /* \"#utility.yul\":4094:4135   */\n                tag_184:\n                    /* \"#utility.yul\":4162:4163   */\n                  0x01\n                    /* \"#utility.yul\":4155:4160   */\n                  dup3\n                    /* \"#utility.yul\":4151:4164   */\n                  sub\n                    /* \"#utility.yul\":4144:4164   */\n                  swap1\n                  pop\n                    /* \"#utility.yul\":3999:4170   */\n                  swap2\n                  swap1\n                  pop\n                  jump\t// out\n                    /* \"#utility.yul\":4176:4409   */\n                tag_101:\n                    /* \"#utility.yul\":4215:4218   */\n                  0x00\n                    /* \"#utility.yul\":4238:4262   */\n                  tag_187\n                    /* \"#utility.yul\":4256:4261   */\n                  dup3\n                    /* \"#utility.yul\":4238:4262   */\n                  tag_127\n                  jump\t// in\n                tag_187:\n                    /* \"#utility.yul\":4229:4262   */\n                  swap2\n                  pop\n                    /* \"#utility.yul\":4284:4350   */\n                  0xffffffffffffffffffffffffffffffffffffffffffffffffffffffffffffffff\n                    /* \"#utility.yul\":4277:4282   */\n                  dup3\n                    /* \"#utility.yul\":4274:4351   */\n                  eq\n                    /* \"#utility.yul\":4271:4374   */\n                  iszero\n                  tag_188\n                  jumpi\n                    /* \"#utility.yul\":4354:4372   */\n                  tag_189\n                  tag_134\n                  jump\t// in\n                tag_189:\n                    /* \"#utility.yul\":4271:4374   */\n                tag_188:\n                    /* \"#utility.yul\":4401:4402   */\n                  0x01\n                    /* \"#utility.yul\":4394:4399   */\n                  dup3\n                    /* \"#utility.yul\":4390:4403   */\n                  add\n                    /* \"#utility.yul\":4383:4403   */\n                  swap1\n                  pop\n                    /* \"#utility.yul\":4176:4409   */\n                  swap2\n                  swap1\n                  pop\n                  jump\t// out\n\n                auxdata: 0xa2646970667358221220bb973744aac5374b326dfe497d73102d3ea9f6bb2a23c5f10c5e19dc1c3e486164736f6c634300080a0033\n            }\n        }\n\n        sub_3: assembly {\n                /* \"devs/TokenManager.sol\":843:3646   */\n              mstore(0x40, 0x80)\n                /* \"devs/TokenManager.sol\":1232:1343   */\n              callvalue\n              dup1\n              iszero\n              tag_1\n              jumpi\n              0x00\n              dup1\n              revert\n            tag_1:\n              pop\n              mload(0x40)\n              sub(codesize, bytecodeSize)\n              dup1\n              bytecodeSize\n              dup4\n              codecopy\n              dup2\n              dup2\n              add\n              0x40\n              mstore\n              dup2\n              add\n              swap1\n              tag_2\n              swap2\n              swap1\n              tag_3\n              jump\t// in\n            tag_2:\n                /* \"devs/TokenManager.sol\":1285:1298   */\n              dup1\n                /* \"devs/TokenManager.sol\":1277:1282   */\n              0x00\n              dup1\n                /* \"devs/TokenManager.sol\":1277:1298   */\n              0x0100\n              exp\n              dup2\n              sload\n              dup2\n              0xffffffffffffffffffffffffffffffffffffffff\n              mul\n              not\n              and\n              swap1\n              dup4\n              0xffffffffffffffffffffffffffffffffffffffff\n              and\n              mul\n              or\n              swap1\n              sstore\n              pop\n                /* \"devs/TokenManager.sol\":1326:1336   */\n              caller\n                /* \"devs/TokenManager.sol\":1308:1323   */\n              0x01\n              0x00\n                /* \"devs/TokenManager.sol\":1308:1336   */\n              0x0100\n              exp\n              dup2\n              sload\n              dup2\n              0xffffffffffffffffffffffffffffffffffffffff\n              mul\n              not\n              and\n              swap1\n              dup4\n              0xffffffffffffffffffffffffffffffffffffffff\n              and\n              mul\n              or\n              swap1\n              sstore\n              pop\n                /* \"devs/TokenManager.sol\":1232:1343   */\n              pop\n                /* \"devs/TokenManager.sol\":843:3646   */\n              jump(tag_6)\n                /* \"#utility.yul\":88:205   */\n            tag_8:\n                /* \"#utility.yul\":197:198   */\n              0x00\n                /* \"#utility.yul\":194:195   */\n              dup1\n                /* \"#utility.yul\":187:199   */\n              revert\n                /* \"#utility.yul\":334:460   */\n            tag_10:\n                /* \"#utility.yul\":371:378   */\n              0x00\n                /* \"#utility.yul\":411:453   */\n              0xffffffffffffffffffffffffffffffffffffffff\n                /* \"#utility.yul\":404:409   */\n              dup3\n                /* \"#utility.yul\":400:454   */\n              and\n                /* \"#utility.yul\":389:454   */\n              swap1\n              pop\n                /* \"#utility.yul\":334:460   */\n              swap2\n              swap1\n              pop\n              jump\t// out\n                /* \"#utility.yul\":466:562   */\n            tag_11:\n                /* \"#utility.yul\":503:510   */\n              0x00\n                /* \"#utility.yul\":532:556   */\n              tag_20\n                /* \"#utility.yul\":550:555   */\n              dup3\n                /* \"#utility.yul\":532:556   */\n              tag_10\n              jump\t// in\n            tag_20:\n                /* \"#utility.yul\":521:556   */\n              swap1\n              pop\n                /* \"#utility.yul\":466:562   */\n              swap2\n              swap1\n              pop\n              jump\t// out\n                /* \"#utility.yul\":568:690   */\n            tag_12:\n                /* \"#utility.yul\":641:665   */\n              tag_22\n                /* \"#utility.yul\":659:664   */\n              dup2\n                /* \"#utility.yul\":641:665   */\n              tag_11\n              jump\t// in\n            tag_22:\n                /* \"#utility.yul\":634:639   */\n              dup2\n                /* \"#utility.yul\":631:666   */\n              eq\n                /* \"#utility.yul\":621:684   */\n              tag_23\n              jumpi\n                /* \"#utility.yul\":680:681   */\n              0x00\n                /* \"#utility.yul\":677:678   */\n              dup1\n                /* \"#utility.yul\":670:682   */\n              revert\n                /* \"#utility.yul\":621:684   */\n            tag_23:\n                /* \"#utility.yul\":568:690   */\n              pop\n              jump\t// out\n                /* \"#utility.yul\":696:839   */\n            tag_13:\n                /* \"#utility.yul\":753:758   */\n              0x00\n                /* \"#utility.yul\":784:790   */\n              dup2\n                /* \"#utility.yul\":778:791   */\n              mload\n                /* \"#utility.yul\":769:791   */\n              swap1\n              pop\n                /* \"#utility.yul\":800:833   */\n              tag_25\n                /* \"#utility.yul\":827:832   */\n              dup2\n                /* \"#utility.yul\":800:833   */\n              tag_12\n              jump\t// in\n            tag_25:\n                /* \"#utility.yul\":696:839   */\n              swap3\n              swap2\n              pop\n              pop\n              jump\t// out\n                /* \"#utility.yul\":845:1196   */\n            tag_3:\n                /* \"#utility.yul\":915:921   */\n              0x00\n                /* \"#utility.yul\":964:966   */\n              0x20\n                /* \"#utility.yul\":952:961   */\n              dup3\n                /* \"#utility.yul\":943:950   */\n              dup5\n                /* \"#utility.yul\":939:962   */\n              sub\n                /* \"#utility.yul\":935:967   */\n              slt\n                /* \"#utility.yul\":932:1051   */\n              iszero\n              tag_27\n              jumpi\n                /* \"#utility.yul\":970:1049   */\n              tag_28\n              tag_8\n              jump\t// in\n            tag_28:\n                /* \"#utility.yul\":932:1051   */\n            tag_27:\n                /* \"#utility.yul\":1090:1091   */\n              0x00\n                /* \"#utility.yul\":1115:1179   */\n              tag_29\n                /* \"#utility.yul\":1171:1178   */\n              dup5\n                /* \"#utility.yul\":1162:1168   */\n              dup3\n                /* \"#utility.yul\":1151:1160   */\n              dup6\n                /* \"#utility.yul\":1147:1169   */\n              add\n                /* \"#utility.yul\":1115:1179   */\n              tag_13\n              jump\t// in\n            tag_29:\n                /* \"#utility.yul\":1105:1179   */\n              swap2\n              pop\n                /* \"#utility.yul\":1061:1189   */\n              pop\n                /* \"#utility.yul\":845:1196   */\n              swap3\n              swap2\n              pop\n              pop\n              jump\t// out\n                /* \"devs/TokenManager.sol\":843:3646   */\n            tag_6:\n              dataSize(sub_0)\n              dup1\n              dataOffset(sub_0)\n              0x00\n              codecopy\n              0x00\n              return\n            stop\n\n            sub_0: assembly {\n                    /* \"devs/TokenManager.sol\":843:3646   */\n                  mstore(0x40, 0x80)\n                  callvalue\n                  dup1\n                  iszero\n                  tag_1\n                  jumpi\n                  0x00\n                  dup1\n                  revert\n                tag_1:\n                  pop\n                  jumpi(tag_2, lt(calldatasize, 0x04))\n                  shr(0xe0, calldataload(0x00))\n                  dup1\n                  0x921c47b1\n                  gt\n                  tag_16\n                  jumpi\n                  dup1\n                  0xab21a2be\n                  gt\n                  tag_17\n                  jumpi\n                  dup1\n                  0xab21a2be\n                  eq\n                  tag_12\n                  jumpi\n                  dup1\n                  0xca5140c9\n                  eq\n                  tag_13\n                  jumpi\n                  dup1\n                  0xef228c92\n                  eq\n                  tag_14\n                  jumpi\n                  dup1\n                  0xf6b4dfb4\n                  eq\n                  tag_15\n                  jumpi\n                  jump(tag_2)\n                tag_17:\n                  dup1\n                  0x921c47b1\n                  eq\n                  tag_9\n                  jumpi\n                  dup1\n                  0x98af1f07\n                  eq\n                  tag_10\n                  jumpi\n                  dup1\n                  0xa46d8ac7\n                  eq\n                  tag_11\n                  jumpi\n                  jump(tag_2)\n                tag_16:\n                  dup1\n                  0x1ce06944\n                  eq\n                  tag_3\n                  jumpi\n                  dup1\n                  0x3b2f7118\n                  eq\n                  tag_4\n                  jumpi\n                  dup1\n                  0x67615ad5\n                  eq\n                  tag_5\n                  jumpi\n                  dup1\n                  0x83b65cb4\n                  eq\n                  tag_6\n                  jumpi\n                  dup1\n                  0x8da5cb5b\n                  eq\n                  tag_7\n                  jumpi\n                  dup1\n                  0x8dbbfbde\n                  eq\n                  tag_8\n                  jumpi\n                tag_2:\n                  0x00\n                  dup1\n                  revert\n                    /* \"devs/TokenManager.sol\":2951:3112   */\n                tag_3:\n                  tag_18\n                  0x04\n                  dup1\n                  calldatasize\n                  sub\n                  dup2\n                  add\n                  swap1\n                  tag_19\n                  swap2\n                  swap1\n                  tag_20\n                  jump\t// in\n                tag_19:\n                  tag_21\n                  jump\t// in\n                tag_18:\n                  mload(0x40)\n                  tag_22\n                  swap2\n                  swap1\n                  tag_23\n                  jump\t// in\n                tag_22:\n                  mload(0x40)\n                  dup1\n                  swap2\n                  sub\n                  swap1\n                  return\n                    /* \"devs/TokenManager.sol\":3118:3286   */\n                tag_4:\n                  tag_24\n                  0x04\n                  dup1\n                  calldatasize\n                  sub\n                  dup2\n                  add\n                  swap1\n                  tag_25\n                  swap2\n                  swap1\n                  tag_20\n                  jump\t// in\n                tag_25:\n                  tag_26\n                  jump\t// in\n                tag_24:\n                  mload(0x40)\n                  tag_27\n                  swap2\n                  swap1\n                  tag_28\n                  jump\t// in\n                tag_27:\n                  mload(0x40)\n                  dup1\n                  swap2\n                  sub\n                  swap1\n                  return\n                    /* \"devs/TokenManager.sol\":3475:3643   */\n                tag_5:\n                  tag_29\n                  0x04\n                  dup1\n                  calldatasize\n                  sub\n                  dup2\n                  add\n                  swap1\n                  tag_30\n                  swap2\n                  swap1\n                  tag_20\n                  jump\t// in\n                tag_30:\n                  tag_31\n                  jump\t// in\n                tag_29:\n                  mload(0x40)\n                  tag_32\n                  swap2\n                  swap1\n                  tag_23\n                  jump\t// in\n                tag_32:\n                  mload(0x40)\n                  dup1\n                  swap2\n                  sub\n                  swap1\n                  return\n                    /* \"devs/TokenManager.sol\":989:1033   */\n                tag_6:\n                  tag_33\n                  0x04\n                  dup1\n                  calldatasize\n                  sub\n                  dup2\n                  add\n                  swap1\n                  tag_34\n                  swap2\n                  swap1\n                  tag_20\n                  jump\t// in\n                tag_34:\n                  tag_35\n                  jump\t// in\n                tag_33:\n                  mload(0x40)\n                  tag_36\n                  swap8\n                  swap7\n                  swap6\n                  swap5\n                  swap4\n                  swap3\n                  swap2\n                  swap1\n                  tag_37\n                  jump\t// in\n                tag_36:\n                  mload(0x40)\n                  dup1\n                  swap2\n                  sub\n                  swap1\n                  return\n                    /* \"devs/TokenManager.sol\":896:916   */\n                tag_7:\n                  tag_38\n                  tag_39\n                  jump\t// in\n                tag_38:\n                  mload(0x40)\n                  tag_40\n                  swap2\n                  swap1\n                  tag_28\n                  jump\t// in\n                tag_40:\n                  mload(0x40)\n                  dup1\n                  swap2\n                  sub\n                  swap1\n                  return\n                    /* \"devs/TokenManager.sol\":2276:2521   */\n                tag_8:\n                  tag_41\n                  0x04\n                  dup1\n                  calldatasize\n                  sub\n                  dup2\n                  add\n                  swap1\n                  tag_42\n                  swap2\n                  swap1\n                  tag_43\n                  jump\t// in\n                tag_42:\n                  tag_44\n                  jump\t// in\n                tag_41:\n                  stop\n                    /* \"devs/TokenManager.sol\":959:983   */\n                tag_9:\n                  tag_45\n                  tag_46\n                  jump\t// in\n                tag_45:\n                  mload(0x40)\n                  tag_47\n                  swap2\n                  swap1\n                  tag_23\n                  jump\t// in\n                tag_47:\n                  mload(0x40)\n                  dup1\n                  swap2\n                  sub\n                  swap1\n                  return\n                    /* \"devs/TokenManager.sol\":3292:3469   */\n                tag_10:\n                  tag_48\n                  0x04\n                  dup1\n                  calldatasize\n                  sub\n                  dup2\n                  add\n                  swap1\n                  tag_49\n                  swap2\n                  swap1\n                  tag_20\n                  jump\t// in\n                tag_49:\n                  tag_50\n                  jump\t// in\n                tag_48:\n                  mload(0x40)\n                  tag_51\n                  swap2\n                  swap1\n                  tag_52\n                  jump\t// in\n                tag_51:\n                  mload(0x40)\n                  dup1\n                  swap2\n                  sub\n                  swap1\n                  return\n                    /* \"devs/TokenManager.sol\":1439:1951   */\n                tag_11:\n                  tag_53\n                  0x04\n                  dup1\n                  calldatasize\n                  sub\n                  dup2\n                  add\n                  swap1\n                  tag_54\n                  swap2\n                  swap1\n                  tag_55\n                  jump\t// in\n                tag_54:\n                  tag_56\n                  jump\t// in\n                tag_53:\n                  mload(0x40)\n                  tag_57\n                  swap2\n                  swap1\n                  tag_23\n                  jump\t// in\n                tag_57:\n                  mload(0x40)\n                  dup1\n                  swap2\n                  sub\n                  swap1\n                  return\n                    /* \"devs/TokenManager.sol\":2527:2723   */\n                tag_12:\n                  tag_58\n                  0x04\n                  dup1\n                  calldatasize\n                  sub\n                  dup2\n                  add\n                  swap1\n                  tag_59\n                  swap2\n                  swap1\n                  tag_60\n                  jump\t// in\n                tag_59:\n                  tag_61\n                  jump\t// in\n                tag_58:\n                  stop\n                    /* \"devs/TokenManager.sol\":2729:2919   */\n                tag_13:\n                  tag_62\n                  0x04\n                  dup1\n                  calldatasize\n                  sub\n                  dup2\n                  add\n                  swap1\n                  tag_63\n                  swap2\n                  swap1\n                  tag_20\n                  jump\t// in\n                tag_63:\n                  tag_64\n                  jump\t// in\n                tag_62:\n                  stop\n                    /* \"devs/TokenManager.sol\":2056:2270   */\n                tag_14:\n                  tag_65\n                  0x04\n                  dup1\n                  calldatasize\n                  sub\n                  dup2\n                  add\n                  swap1\n                  tag_66\n                  swap2\n                  swap1\n                  tag_67\n                  jump\t// in\n                tag_66:\n                  tag_68\n                  jump\t// in\n                tag_65:\n                  stop\n                    /* \"devs/TokenManager.sol\":922:952   */\n                tag_15:\n                  tag_69\n                  tag_70\n                  jump\t// in\n                tag_69:\n                  mload(0x40)\n                  tag_71\n                  swap2\n                  swap1\n                  tag_28\n                  jump\t// in\n                tag_71:\n                  mload(0x40)\n                  dup1\n                  swap2\n                  sub\n                  swap1\n                  return\n                    /* \"devs/TokenManager.sol\":2951:3112   */\n                tag_21:\n                    /* \"devs/TokenManager.sol\":3010:3014   */\n                  0x00\n                    /* \"devs/TokenManager.sol\":3025:3051   */\n                  dup1\n                    /* \"devs/TokenManager.sol\":3054:3064   */\n                  0x03\n                    /* \"devs/TokenManager.sol\":3054:3074   */\n                  0x00\n                    /* \"devs/TokenManager.sol\":3065:3073   */\n                  dup5\n                    /* \"devs/TokenManager.sol\":3054:3074   */\n                  dup2\n                  mstore\n                  0x20\n                  add\n                  swap1\n                  dup2\n                  mstore\n                  0x20\n                  add\n                  0x00\n                  keccak256\n                    /* \"devs/TokenManager.sol\":3025:3074   */\n                  mload(0x40)\n                  dup1\n                  0xe0\n                  add\n                  0x40\n                  mstore\n                  swap1\n                  dup2\n                  0x00\n                  dup3\n                  add\n                  sload\n                  dup2\n                  mstore\n                  0x20\n                  add\n                  0x01\n                  dup3\n                  add\n                  0x00\n                  swap1\n                  sload\n                  swap1\n                  0x0100\n                  exp\n                  swap1\n                  div\n                  0xffffffffffffffffffffffffffffffffffffffff\n                  and\n                  0xffffffffffffffffffffffffffffffffffffffff\n                  and\n                  0xffffffffffffffffffffffffffffffffffffffff\n                  and\n                  dup2\n                  mstore\n                  0x20\n                  add\n                  0x02\n                  dup3\n                  add\n                  sload\n                  dup2\n                  mstore\n                  0x20\n                  add\n                  0x03\n                  dup3\n                  add\n                  0x00\n                  swap1\n                  sload\n                  swap1\n                  0x0100\n                  exp\n                  swap1\n                  div\n                  0xffffffffffffffffffffffffffffffffffffffff\n                  and\n                  0xffffffffffffffffffffffffffffffffffffffff\n                  and\n                  0xffffffffffffffffffffffffffffffffffffffff\n                  and\n                  dup2\n                  mstore\n                  0x20\n                  add\n                  0x03\n                  dup3\n                  add\n                  0x14\n                  swap1\n                  sload\n                  swap1\n                  0x0100\n                  exp\n                  swap1\n                  div\n                  0xff\n                  and\n                  iszero\n                  iszero\n                  iszero\n                  iszero\n                  dup2\n                  mstore\n                  0x20\n                  add\n                  0x04\n                  dup3\n                  add\n                  sload\n                  dup2\n                  mstore\n                  0x20\n                  add\n                  0x05\n                  dup3\n                  add\n                  sload\n                  dup2\n                  mstore\n                  pop\n                  pop\n                  swap1\n                  pop\n                    /* \"devs/TokenManager.sol\":3091:3100   */\n                  dup1\n                    /* \"devs/TokenManager.sol\":3091:3105   */\n                  0xc0\n                  add\n                  mload\n                    /* \"devs/TokenManager.sol\":3084:3105   */\n                  swap2\n                  pop\n                  pop\n                    /* \"devs/TokenManager.sol\":2951:3112   */\n                  swap2\n                  swap1\n                  pop\n                  jump\t// out\n                    /* \"devs/TokenManager.sol\":3118:3286   */\n                tag_26:\n                    /* \"devs/TokenManager.sol\":3179:3186   */\n                  0x00\n                    /* \"devs/TokenManager.sol\":3197:3223   */\n                  dup1\n                    /* \"devs/TokenManager.sol\":3226:3236   */\n                  0x03\n                    /* \"devs/TokenManager.sol\":3226:3246   */\n                  0x00\n                    /* \"devs/TokenManager.sol\":3237:3245   */\n                  dup5\n                    /* \"devs/TokenManager.sol\":3226:3246   */\n                  dup2\n                  mstore\n                  0x20\n                  add\n                  swap1\n                  dup2\n                  mstore\n                  0x20\n                  add\n                  0x00\n                  keccak256\n                    /* \"devs/TokenManager.sol\":3197:3246   */\n                  mload(0x40)\n                  dup1\n                  0xe0\n                  add\n                  0x40\n                  mstore\n                  swap1\n                  dup2\n                  0x00\n                  dup3\n                  add\n                  sload\n                  dup2\n                  mstore\n                  0x20\n                  add\n                  0x01\n                  dup3\n                  add\n                  0x00\n                  swap1\n                  sload\n                  swap1\n                  0x0100\n                  exp\n                  swap1\n                  div\n                  0xffffffffffffffffffffffffffffffffffffffff\n                  and\n                  0xffffffffffffffffffffffffffffffffffffffff\n                  and\n                  0xffffffffffffffffffffffffffffffffffffffff\n                  and\n                  dup2\n                  mstore\n                  0x20\n                  add\n                  0x02\n                  dup3\n                  add\n                  sload\n                  dup2\n                  mstore\n                  0x20\n                  add\n                  0x03\n                  dup3\n                  add\n                  0x00\n                  swap1\n                  sload\n                  swap1\n                  0x0100\n                  exp\n                  swap1\n                  div\n                  0xffffffffffffffffffffffffffffffffffffffff\n                  and\n                  0xffffffffffffffffffffffffffffffffffffffff\n                  and\n                  0xffffffffffffffffffffffffffffffffffffffff\n                  and\n                  dup2\n                  mstore\n                  0x20\n                  add\n                  0x03\n                  dup3\n                  add\n                  0x14\n                  swap1\n                  sload\n                  swap1\n                  0x0100\n                  exp\n                  swap1\n                  div\n                  0xff\n                  and\n                  iszero\n                  iszero\n                  iszero\n                  iszero\n                  dup2\n                  mstore\n                  0x20\n                  add\n                  0x04\n                  dup3\n                  add\n                  sload\n                  dup2\n                  mstore\n                  0x20\n                  add\n                  0x05\n                  dup3\n                  add\n                  sload\n                  dup2\n                  mstore\n                  pop\n                  pop\n                  swap1\n                  pop\n                    /* \"devs/TokenManager.sol\":3263:3272   */\n                  dup1\n                    /* \"devs/TokenManager.sol\":3263:3279   */\n                  0x60\n                  add\n                  mload\n                    /* \"devs/TokenManager.sol\":3256:3279   */\n                  swap2\n                  pop\n                  pop\n                    /* \"devs/TokenManager.sol\":3118:3286   */\n                  swap2\n                  swap1\n                  pop\n                  jump\t// out\n                    /* \"devs/TokenManager.sol\":3475:3643   */\n                tag_31:\n                    /* \"devs/TokenManager.sol\":3536:3540   */\n                  0x00\n                    /* \"devs/TokenManager.sol\":3551:3577   */\n                  dup1\n                    /* \"devs/TokenManager.sol\":3580:3590   */\n                  0x03\n                    /* \"devs/TokenManager.sol\":3580:3600   */\n                  0x00\n                    /* \"devs/TokenManager.sol\":3591:3599   */\n                  dup5\n                    /* \"devs/TokenManager.sol\":3580:3600   */\n                  dup2\n                  mstore\n                  0x20\n                  add\n                  swap1\n                  dup2\n                  mstore\n                  0x20\n                  add\n                  0x00\n                  keccak256\n                    /* \"devs/TokenManager.sol\":3551:3600   */\n                  mload(0x40)\n                  dup1\n                  0xe0\n                  add\n                  0x40\n                  mstore\n                  swap1\n                  dup2\n                  0x00\n                  dup3\n                  add\n                  sload\n                  dup2\n                  mstore\n                  0x20\n                  add\n                  0x01\n                  dup3\n                  add\n                  0x00\n                  swap1\n                  sload\n                  swap1\n                  0x0100\n                  exp\n                  swap1\n                  div\n                  0xffffffffffffffffffffffffffffffffffffffff\n                  and\n                  0xffffffffffffffffffffffffffffffffffffffff\n                  and\n                  0xffffffffffffffffffffffffffffffffffffffff\n                  and\n                  dup2\n                  mstore\n                  0x20\n                  add\n                  0x02\n                  dup3\n                  add\n                  sload\n                  dup2\n                  mstore\n                  0x20\n                  add\n                  0x03\n                  dup3\n                  add\n                  0x00\n                  swap1\n                  sload\n                  swap1\n                  0x0100\n                  exp\n                  swap1\n                  div\n                  0xffffffffffffffffffffffffffffffffffffffff\n                  and\n                  0xffffffffffffffffffffffffffffffffffffffff\n                  and\n                  0xffffffffffffffffffffffffffffffffffffffff\n                  and\n                  dup2\n                  mstore\n                  0x20\n                  add\n                  0x03\n                  dup3\n                  add\n                  0x14\n                  swap1\n                  sload\n                  swap1\n                  0x0100\n                  exp\n                  swap1\n                  div\n                  0xff\n                  and\n                  iszero\n                  iszero\n                  iszero\n                  iszero\n                  dup2\n                  mstore\n                  0x20\n                  add\n                  0x04\n                  dup3\n                  add\n                  sload\n                  dup2\n                  mstore\n                  0x20\n                  add\n                  0x05\n                  dup3\n                  add\n                  sload\n                  dup2\n                  mstore\n                  pop\n                  pop\n                  swap1\n                  pop\n                    /* \"devs/TokenManager.sol\":3617:3626   */\n                  dup1\n                    /* \"devs/TokenManager.sol\":3617:3636   */\n                  0x40\n                  add\n                  mload\n                    /* \"devs/TokenManager.sol\":3610:3636   */\n                  swap2\n                  pop\n                  pop\n                    /* \"devs/TokenManager.sol\":3475:3643   */\n                  swap2\n                  swap1\n                  pop\n                  jump\t// out\n                    /* \"devs/TokenManager.sol\":989:1033   */\n                tag_35:\n                  mstore(0x20, 0x03)\n                  dup1\n                  0x00\n                  mstore\n                  keccak256(0x00, 0x40)\n                  0x00\n                  swap2\n                  pop\n                  swap1\n                  pop\n                  dup1\n                  0x00\n                  add\n                  sload\n                  swap1\n                  dup1\n                  0x01\n                  add\n                  0x00\n                  swap1\n                  sload\n                  swap1\n                  0x0100\n                  exp\n                  swap1\n                  div\n                  0xffffffffffffffffffffffffffffffffffffffff\n                  and\n                  swap1\n                  dup1\n                  0x02\n                  add\n                  sload\n                  swap1\n                  dup1\n                  0x03\n                  add\n                  0x00\n                  swap1\n                  sload\n                  swap1\n                  0x0100\n                  exp\n                  swap1\n                  div\n                  0xffffffffffffffffffffffffffffffffffffffff\n                  and\n                  swap1\n                  dup1\n                  0x03\n                  add\n                  0x14\n                  swap1\n                  sload\n                  swap1\n                  0x0100\n                  exp\n                  swap1\n                  div\n                  0xff\n                  and\n                  swap1\n                  dup1\n                  0x04\n                  add\n                  sload\n                  swap1\n                  dup1\n                  0x05\n                  add\n                  sload\n                  swap1\n                  pop\n                  dup8\n                  jump\t// out\n                    /* \"devs/TokenManager.sol\":896:916   */\n                tag_39:\n                  0x00\n                  dup1\n                  sload\n                  swap1\n                  0x0100\n                  exp\n                  swap1\n                  div\n                  0xffffffffffffffffffffffffffffffffffffffff\n                  and\n                  dup2\n                  jump\t// out\n                    /* \"devs/TokenManager.sol\":2276:2521   */\n                tag_44:\n                    /* \"devs/TokenManager.sol\":2366:2374   */\n                  dup3\n                    /* \"devs/TokenManager.sol\":1195:1207   */\n                  sload(0x02)\n                    /* \"devs/TokenManager.sol\":1185:1192   */\n                  dup2\n                    /* \"devs/TokenManager.sol\":1185:1207   */\n                  lt\n                    /* \"devs/TokenManager.sol\":1177:1208   */\n                  tag_76\n                  jumpi\n                  0x00\n                  dup1\n                  revert\n                tag_76:\n                    /* \"devs/TokenManager.sol\":1098:1108   */\n                  caller\n                    /* \"devs/TokenManager.sol\":1079:1108   */\n                  0xffffffffffffffffffffffffffffffffffffffff\n                  and\n                    /* \"devs/TokenManager.sol\":1079:1094   */\n                  0x01\n                  0x00\n                  swap1\n                  sload\n                  swap1\n                  0x0100\n                  exp\n                  swap1\n                  div\n                  0xffffffffffffffffffffffffffffffffffffffff\n                  and\n                    /* \"devs/TokenManager.sol\":1079:1108   */\n                  0xffffffffffffffffffffffffffffffffffffffff\n                  and\n                  eq\n                    /* \"devs/TokenManager.sol\":1071:1109   */\n                  tag_78\n                  jumpi\n                  0x00\n                  dup1\n                  revert\n                tag_78:\n                    /* \"devs/TokenManager.sol\":2396:2423   */\n                  0x00\n                    /* \"devs/TokenManager.sol\":2426:2436   */\n                  0x03\n                    /* \"devs/TokenManager.sol\":2426:2446   */\n                  0x00\n                    /* \"devs/TokenManager.sol\":2437:2445   */\n                  dup7\n                    /* \"devs/TokenManager.sol\":2426:2446   */\n                  dup2\n                  mstore\n                  0x20\n                  add\n                  swap1\n                  dup2\n                  mstore\n                  0x20\n                  add\n                  0x00\n                  keccak256\n                    /* \"devs/TokenManager.sol\":2396:2446   */\n                  swap1\n                  pop\n                    /* \"devs/TokenManager.sol\":2475:2482   */\n                  dup4\n                    /* \"devs/TokenManager.sol\":2456:2465   */\n                  dup2\n                    /* \"devs/TokenManager.sol\":2456:2472   */\n                  0x04\n                  add\n                    /* \"devs/TokenManager.sol\":2456:2482   */\n                  dup2\n                  swap1\n                  sstore\n                  pop\n                    /* \"devs/TokenManager.sol\":2509:2514   */\n                  dup3\n                    /* \"devs/TokenManager.sol\":2492:2501   */\n                  dup2\n                    /* \"devs/TokenManager.sol\":2492:2506   */\n                  0x05\n                  add\n                    /* \"devs/TokenManager.sol\":2492:2514   */\n                  dup2\n                  swap1\n                  sstore\n                  pop\n                    /* \"devs/TokenManager.sol\":2386:2521   */\n                  pop\n                    /* \"devs/TokenManager.sol\":2276:2521   */\n                  pop\n                  pop\n                  pop\n                  pop\n                  jump\t// out\n                    /* \"devs/TokenManager.sol\":959:983   */\n                tag_46:\n                  sload(0x02)\n                  dup2\n                  jump\t// out\n                    /* \"devs/TokenManager.sol\":3292:3469   */\n                tag_50:\n                    /* \"devs/TokenManager.sol\":3356:3360   */\n                  0x00\n                    /* \"devs/TokenManager.sol\":3371:3397   */\n                  dup1\n                    /* \"devs/TokenManager.sol\":3400:3410   */\n                  0x03\n                    /* \"devs/TokenManager.sol\":3400:3420   */\n                  0x00\n                    /* \"devs/TokenManager.sol\":3411:3419   */\n                  dup5\n                    /* \"devs/TokenManager.sol\":3400:3420   */\n                  dup2\n                  mstore\n                  0x20\n                  add\n                  swap1\n                  dup2\n                  mstore\n                  0x20\n                  add\n                  0x00\n                  keccak256\n                    /* \"devs/TokenManager.sol\":3371:3420   */\n                  mload(0x40)\n                  dup1\n                  0xe0\n                  add\n                  0x40\n                  mstore\n                  swap1\n                  dup2\n                  0x00\n                  dup3\n                  add\n                  sload\n                  dup2\n                  mstore\n                  0x20\n                  add\n                  0x01\n                  dup3\n                  add\n                  0x00\n                  swap1\n                  sload\n                  swap1\n                  0x0100\n                  exp\n                  swap1\n                  div\n                  0xffffffffffffffffffffffffffffffffffffffff\n                  and\n                  0xffffffffffffffffffffffffffffffffffffffff\n                  and\n                  0xffffffffffffffffffffffffffffffffffffffff\n                  and\n                  dup2\n                  mstore\n                  0x20\n                  add\n                  0x02\n                  dup3\n                  add\n                  sload\n                  dup2\n                  mstore\n                  0x20\n                  add\n                  0x03\n                  dup3\n                  add\n                  0x00\n                  swap1\n                  sload\n                  swap1\n                  0x0100\n                  exp\n                  swap1\n                  div\n                  0xffffffffffffffffffffffffffffffffffffffff\n                  and\n                  0xffffffffffffffffffffffffffffffffffffffff\n                  and\n                  0xffffffffffffffffffffffffffffffffffffffff\n                  and\n                  dup2\n                  mstore\n                  0x20\n                  add\n                  0x03\n                  dup3\n                  add\n                  0x14\n                  swap1\n                  sload\n                  swap1\n                  0x0100\n                  exp\n                  swap1\n                  div\n                  0xff\n                  and\n                  iszero\n                  iszero\n                  iszero\n                  iszero\n                  dup2\n                  mstore\n                  0x20\n                  add\n                  0x04\n                  dup3\n                  add\n                  sload\n                  dup2\n                  mstore\n                  0x20\n                  add\n                  0x05\n                  dup3\n                  add\n                  sload\n                  dup2\n                  mstore\n                  pop\n                  pop\n                  swap1\n                  pop\n                    /* \"devs/TokenManager.sol\":3437:3446   */\n                  dup1\n                    /* \"devs/TokenManager.sol\":3437:3462   */\n                  0x80\n                  add\n                  mload\n                    /* \"devs/TokenManager.sol\":3430:3462   */\n                  swap2\n                  pop\n                  pop\n                    /* \"devs/TokenManager.sol\":3292:3469   */\n                  swap2\n                  swap1\n                  pop\n                  jump\t// out\n                    /* \"devs/TokenManager.sol\":1439:1951   */\n                tag_56:\n                    /* \"devs/TokenManager.sol\":1551:1555   */\n                  0x00\n                    /* \"devs/TokenManager.sol\":1098:1108   */\n                  caller\n                    /* \"devs/TokenManager.sol\":1079:1108   */\n                  0xffffffffffffffffffffffffffffffffffffffff\n                  and\n                    /* \"devs/TokenManager.sol\":1079:1094   */\n                  0x01\n                  0x00\n                  swap1\n                  sload\n                  swap1\n                  0x0100\n                  exp\n                  swap1\n                  div\n                  0xffffffffffffffffffffffffffffffffffffffff\n                  and\n                    /* \"devs/TokenManager.sol\":1079:1108   */\n                  0xffffffffffffffffffffffffffffffffffffffff\n                  and\n                  eq\n                    /* \"devs/TokenManager.sol\":1071:1109   */\n                  tag_82\n                  jumpi\n                  0x00\n                  dup1\n                  revert\n                tag_82:\n                    /* \"devs/TokenManager.sol\":1566:1593   */\n                  0x00\n                    /* \"devs/TokenManager.sol\":1596:1606   */\n                  0x03\n                    /* \"devs/TokenManager.sol\":1596:1620   */\n                  0x00\n                    /* \"devs/TokenManager.sol\":1607:1619   */\n                  sload(0x02)\n                    /* \"devs/TokenManager.sol\":1596:1620   */\n                  dup2\n                  mstore\n                  0x20\n                  add\n                  swap1\n                  dup2\n                  mstore\n                  0x20\n                  add\n                  0x00\n                  keccak256\n                    /* \"devs/TokenManager.sol\":1566:1620   */\n                  swap1\n                  pop\n                    /* \"devs/TokenManager.sol\":1650:1662   */\n                  sload(0x02)\n                    /* \"devs/TokenManager.sol\":1630:1639   */\n                  dup2\n                    /* \"devs/TokenManager.sol\":1630:1647   */\n                  0x00\n                  add\n                    /* \"devs/TokenManager.sol\":1630:1662   */\n                  dup2\n                  swap1\n                  sstore\n                  pop\n                    /* \"devs/TokenManager.sol\":1694:1704   */\n                  dup5\n                    /* \"devs/TokenManager.sol\":1672:1681   */\n                  dup2\n                    /* \"devs/TokenManager.sol\":1672:1691   */\n                  0x02\n                  add\n                    /* \"devs/TokenManager.sol\":1672:1704   */\n                  dup2\n                  swap1\n                  sstore\n                  pop\n                    /* \"devs/TokenManager.sol\":1732:1739   */\n                  dup6\n                    /* \"devs/TokenManager.sol\":1714:1723   */\n                  dup2\n                    /* \"devs/TokenManager.sol\":1714:1729   */\n                  0x01\n                  add\n                  0x00\n                    /* \"devs/TokenManager.sol\":1714:1739   */\n                  0x0100\n                  exp\n                  dup2\n                  sload\n                  dup2\n                  0xffffffffffffffffffffffffffffffffffffffff\n                  mul\n                  not\n                  and\n                  swap1\n                  dup4\n                  0xffffffffffffffffffffffffffffffffffffffff\n                  and\n                  mul\n                  or\n                  swap1\n                  sstore\n                  pop\n                    /* \"devs/TokenManager.sol\":1768:1775   */\n                  dup6\n                    /* \"devs/TokenManager.sol\":1749:1758   */\n                  dup2\n                    /* \"devs/TokenManager.sol\":1749:1765   */\n                  0x03\n                  add\n                  0x00\n                    /* \"devs/TokenManager.sol\":1749:1775   */\n                  0x0100\n                  exp\n                  dup2\n                  sload\n                  dup2\n                  0xffffffffffffffffffffffffffffffffffffffff\n                  mul\n                  not\n                  and\n                  swap1\n                  dup4\n                  0xffffffffffffffffffffffffffffffffffffffff\n                  and\n                  mul\n                  or\n                  swap1\n                  sstore\n                  pop\n                    /* \"devs/TokenManager.sol\":1813:1818   */\n                  0x00\n                    /* \"devs/TokenManager.sol\":1785:1794   */\n                  dup2\n                    /* \"devs/TokenManager.sol\":1785:1810   */\n                  0x03\n                  add\n                  0x14\n                    /* \"devs/TokenManager.sol\":1785:1818   */\n                  0x0100\n                  exp\n                  dup2\n                  sload\n                  dup2\n                  0xff\n                  mul\n                  not\n                  and\n                  swap1\n                  dup4\n                  iszero\n                  iszero\n                  mul\n                  or\n                  swap1\n                  sstore\n                  pop\n                    /* \"devs/TokenManager.sol\":1847:1854   */\n                  dup4\n                    /* \"devs/TokenManager.sol\":1828:1837   */\n                  dup2\n                    /* \"devs/TokenManager.sol\":1828:1844   */\n                  0x04\n                  add\n                    /* \"devs/TokenManager.sol\":1828:1854   */\n                  dup2\n                  swap1\n                  sstore\n                  pop\n                    /* \"devs/TokenManager.sol\":1881:1886   */\n                  dup3\n                    /* \"devs/TokenManager.sol\":1864:1873   */\n                  dup2\n                    /* \"devs/TokenManager.sol\":1864:1878   */\n                  0x05\n                  add\n                    /* \"devs/TokenManager.sol\":1864:1886   */\n                  dup2\n                  swap1\n                  sstore\n                  pop\n                    /* \"devs/TokenManager.sol\":1896:1908   */\n                  0x02\n                  0x00\n                    /* \"devs/TokenManager.sol\":1896:1910   */\n                  dup2\n                  sload\n                  dup1\n                  swap3\n                  swap2\n                  swap1\n                  tag_84\n                  swap1\n                  tag_85\n                  jump\t// in\n                tag_84:\n                  swap2\n                  swap1\n                  pop\n                  sstore\n                  pop\n                    /* \"devs/TokenManager.sol\":1927:1936   */\n                  dup1\n                    /* \"devs/TokenManager.sol\":1927:1944   */\n                  0x00\n                  add\n                  sload\n                    /* \"devs/TokenManager.sol\":1920:1944   */\n                  swap2\n                  pop\n                  pop\n                    /* \"devs/TokenManager.sol\":1439:1951   */\n                  swap5\n                  swap4\n                  pop\n                  pop\n                  pop\n                  pop\n                  jump\t// out\n                    /* \"devs/TokenManager.sol\":2527:2723   */\n                tag_61:\n                    /* \"devs/TokenManager.sol\":2600:2608   */\n                  dup2\n                    /* \"devs/TokenManager.sol\":1195:1207   */\n                  sload(0x02)\n                    /* \"devs/TokenManager.sol\":1185:1192   */\n                  dup2\n                    /* \"devs/TokenManager.sol\":1185:1207   */\n                  lt\n                    /* \"devs/TokenManager.sol\":1177:1208   */\n                  tag_87\n                  jumpi\n                  0x00\n                  dup1\n                  revert\n                tag_87:\n                    /* \"devs/TokenManager.sol\":1098:1108   */\n                  caller\n                    /* \"devs/TokenManager.sol\":1079:1108   */\n                  0xffffffffffffffffffffffffffffffffffffffff\n                  and\n                    /* \"devs/TokenManager.sol\":1079:1094   */\n                  0x01\n                  0x00\n                  swap1\n                  sload\n                  swap1\n                  0x0100\n                  exp\n                  swap1\n                  div\n                  0xffffffffffffffffffffffffffffffffffffffff\n                  and\n                    /* \"devs/TokenManager.sol\":1079:1108   */\n                  0xffffffffffffffffffffffffffffffffffffffff\n                  and\n                  eq\n                    /* \"devs/TokenManager.sol\":1071:1109   */\n                  tag_89\n                  jumpi\n                  0x00\n                  dup1\n                  revert\n                tag_89:\n                    /* \"devs/TokenManager.sol\":2630:2657   */\n                  0x00\n                    /* \"devs/TokenManager.sol\":2660:2670   */\n                  0x03\n                    /* \"devs/TokenManager.sol\":2660:2680   */\n                  0x00\n                    /* \"devs/TokenManager.sol\":2671:2679   */\n                  dup6\n                    /* \"devs/TokenManager.sol\":2660:2680   */\n                  dup2\n                  mstore\n                  0x20\n                  add\n                  swap1\n                  dup2\n                  mstore\n                  0x20\n                  add\n                  0x00\n                  keccak256\n                    /* \"devs/TokenManager.sol\":2630:2680   */\n                  swap1\n                  pop\n                    /* \"devs/TokenManager.sol\":2709:2716   */\n                  dup3\n                    /* \"devs/TokenManager.sol\":2690:2699   */\n                  dup2\n                    /* \"devs/TokenManager.sol\":2690:2706   */\n                  0x03\n                  add\n                  0x00\n                    /* \"devs/TokenManager.sol\":2690:2716   */\n                  0x0100\n                  exp\n                  dup2\n                  sload\n                  dup2\n                  0xffffffffffffffffffffffffffffffffffffffff\n                  mul\n                  not\n                  and\n                  swap1\n                  dup4\n                  0xffffffffffffffffffffffffffffffffffffffff\n                  and\n                  mul\n                  or\n                  swap1\n                  sstore\n                  pop\n                    /* \"devs/TokenManager.sol\":2620:2723   */\n                  pop\n                    /* \"devs/TokenManager.sol\":2527:2723   */\n                  pop\n                  pop\n                  pop\n                  jump\t// out\n                    /* \"devs/TokenManager.sol\":2729:2919   */\n                tag_64:\n                    /* \"devs/TokenManager.sol\":2783:2791   */\n                  dup1\n                    /* \"devs/TokenManager.sol\":1195:1207   */\n                  sload(0x02)\n                    /* \"devs/TokenManager.sol\":1185:1192   */\n                  dup2\n                    /* \"devs/TokenManager.sol\":1185:1207   */\n                  lt\n                    /* \"devs/TokenManager.sol\":1177:1208   */\n                  tag_92\n                  jumpi\n                  0x00\n                  dup1\n                  revert\n                tag_92:\n                    /* \"devs/TokenManager.sol\":1098:1108   */\n                  caller\n                    /* \"devs/TokenManager.sol\":1079:1108   */\n                  0xffffffffffffffffffffffffffffffffffffffff\n                  and\n                    /* \"devs/TokenManager.sol\":1079:1094   */\n                  0x01\n                  0x00\n                  swap1\n                  sload\n                  swap1\n                  0x0100\n                  exp\n                  swap1\n                  div\n                  0xffffffffffffffffffffffffffffffffffffffff\n                  and\n                    /* \"devs/TokenManager.sol\":1079:1108   */\n                  0xffffffffffffffffffffffffffffffffffffffff\n                  and\n                  eq\n                    /* \"devs/TokenManager.sol\":1071:1109   */\n                  tag_94\n                  jumpi\n                  0x00\n                  dup1\n                  revert\n                tag_94:\n                    /* \"devs/TokenManager.sol\":2813:2840   */\n                  0x00\n                    /* \"devs/TokenManager.sol\":2843:2853   */\n                  0x03\n                    /* \"devs/TokenManager.sol\":2843:2863   */\n                  0x00\n                    /* \"devs/TokenManager.sol\":2854:2862   */\n                  dup5\n                    /* \"devs/TokenManager.sol\":2843:2863   */\n                  dup2\n                  mstore\n                  0x20\n                  add\n                  swap1\n                  dup2\n                  mstore\n                  0x20\n                  add\n                  0x00\n                  keccak256\n                    /* \"devs/TokenManager.sol\":2813:2863   */\n                  swap1\n                  pop\n                    /* \"devs/TokenManager.sol\":2873:2912   */\n                  tag_96\n                    /* \"devs/TokenManager.sol\":2886:2894   */\n                  dup4\n                    /* \"devs/TokenManager.sol\":2896:2905   */\n                  dup3\n                    /* \"devs/TokenManager.sol\":2896:2911   */\n                  0x01\n                  add\n                  0x00\n                  swap1\n                  sload\n                  swap1\n                  0x0100\n                  exp\n                  swap1\n                  div\n                  0xffffffffffffffffffffffffffffffffffffffff\n                  and\n                    /* \"devs/TokenManager.sol\":2873:2885   */\n                  tag_61\n                    /* \"devs/TokenManager.sol\":2873:2912   */\n                  jump\t// in\n                tag_96:\n                    /* \"devs/TokenManager.sol\":2803:2919   */\n                  pop\n                    /* \"devs/TokenManager.sol\":2729:2919   */\n                  pop\n                  pop\n                  jump\t// out\n                    /* \"devs/TokenManager.sol\":2056:2270   */\n                tag_68:\n                    /* \"devs/TokenManager.sol\":2138:2146   */\n                  dup2\n                    /* \"devs/TokenManager.sol\":1195:1207   */\n                  sload(0x02)\n                    /* \"devs/TokenManager.sol\":1185:1192   */\n                  dup2\n                    /* \"devs/TokenManager.sol\":1185:1207   */\n                  lt\n                    /* \"devs/TokenManager.sol\":1177:1208   */\n                  tag_98\n                  jumpi\n                  0x00\n                  dup1\n                  revert\n                tag_98:\n                    /* \"devs/TokenManager.sol\":1098:1108   */\n                  caller\n                    /* \"devs/TokenManager.sol\":1079:1108   */\n                  0xffffffffffffffffffffffffffffffffffffffff\n                  and\n                    /* \"devs/TokenManager.sol\":1079:1094   */\n                  0x01\n                  0x00\n                  swap1\n                  sload\n                  swap1\n                  0x0100\n                  exp\n                  swap1\n                  div\n                  0xffffffffffffffffffffffffffffffffffffffff\n                  and\n                    /* \"devs/TokenManager.sol\":1079:1108   */\n                  0xffffffffffffffffffffffffffffffffffffffff\n                  and\n                  eq\n                    /* \"devs/TokenManager.sol\":1071:1109   */\n                  tag_100\n                  jumpi\n                  0x00\n                  dup1\n                  revert\n                tag_100:\n                    /* \"devs/TokenManager.sol\":2168:2195   */\n                  0x00\n                    /* \"devs/TokenManager.sol\":2198:2208   */\n                  0x03\n                    /* \"devs/TokenManager.sol\":2198:2218   */\n                  0x00\n                    /* \"devs/TokenManager.sol\":2209:2217   */\n                  dup6\n                    /* \"devs/TokenManager.sol\":2198:2218   */\n                  dup2\n                  mstore\n                  0x20\n                  add\n                  swap1\n                  dup2\n                  mstore\n                  0x20\n                  add\n                  0x00\n                  keccak256\n                    /* \"devs/TokenManager.sol\":2168:2218   */\n                  swap1\n                  pop\n                    /* \"devs/TokenManager.sol\":2256:2263   */\n                  dup3\n                    /* \"devs/TokenManager.sol\":2228:2237   */\n                  dup2\n                    /* \"devs/TokenManager.sol\":2228:2253   */\n                  0x03\n                  add\n                  0x14\n                    /* \"devs/TokenManager.sol\":2228:2263   */\n                  0x0100\n                  exp\n                  dup2\n                  sload\n                  dup2\n                  0xff\n                  mul\n                  not\n                  and\n                  swap1\n                  dup4\n                  iszero\n                  iszero\n                  mul\n                  or\n                  swap1\n                  sstore\n                  pop\n                    /* \"devs/TokenManager.sol\":2158:2270   */\n                  pop\n                    /* \"devs/TokenManager.sol\":2056:2270   */\n                  pop\n                  pop\n                  pop\n                  jump\t// out\n                    /* \"devs/TokenManager.sol\":922:952   */\n                tag_70:\n                  0x01\n                  0x00\n                  swap1\n                  sload\n                  swap1\n                  0x0100\n                  exp\n                  swap1\n                  div\n                  0xffffffffffffffffffffffffffffffffffffffff\n                  and\n                  dup2\n                  jump\t// out\n                    /* \"#utility.yul\":88:205   */\n                tag_103:\n                    /* \"#utility.yul\":197:198   */\n                  0x00\n                    /* \"#utility.yul\":194:195   */\n                  dup1\n                    /* \"#utility.yul\":187:199   */\n                  revert\n                    /* \"#utility.yul\":334:411   */\n                tag_105:\n                    /* \"#utility.yul\":371:378   */\n                  0x00\n                    /* \"#utility.yul\":400:405   */\n                  dup2\n                    /* \"#utility.yul\":389:405   */\n                  swap1\n                  pop\n                    /* \"#utility.yul\":334:411   */\n                  swap2\n                  swap1\n                  pop\n                  jump\t// out\n                    /* \"#utility.yul\":417:539   */\n                tag_106:\n                    /* \"#utility.yul\":490:514   */\n                  tag_125\n                    /* \"#utility.yul\":508:513   */\n                  dup2\n                    /* \"#utility.yul\":490:514   */\n                  tag_105\n                  jump\t// in\n                tag_125:\n                    /* \"#utility.yul\":483:488   */\n                  dup2\n                    /* \"#utility.yul\":480:515   */\n                  eq\n                    /* \"#utility.yul\":470:533   */\n                  tag_126\n                  jumpi\n                    /* \"#utility.yul\":529:530   */\n                  0x00\n                    /* \"#utility.yul\":526:527   */\n                  dup1\n                    /* \"#utility.yul\":519:531   */\n                  revert\n                    /* \"#utility.yul\":470:533   */\n                tag_126:\n                    /* \"#utility.yul\":417:539   */\n                  pop\n                  jump\t// out\n                    /* \"#utility.yul\":545:684   */\n                tag_107:\n                    /* \"#utility.yul\":591:596   */\n                  0x00\n                    /* \"#utility.yul\":629:635   */\n                  dup2\n                    /* \"#utility.yul\":616:636   */\n                  calldataload\n                    /* \"#utility.yul\":607:636   */\n                  swap1\n                  pop\n                    /* \"#utility.yul\":645:678   */\n                  tag_128\n                    /* \"#utility.yul\":672:677   */\n                  dup2\n                    /* \"#utility.yul\":645:678   */\n                  tag_106\n                  jump\t// in\n                tag_128:\n                    /* \"#utility.yul\":545:684   */\n                  swap3\n                  swap2\n                  pop\n                  pop\n                  jump\t// out\n                    /* \"#utility.yul\":690:1019   */\n                tag_20:\n                    /* \"#utility.yul\":749:755   */\n                  0x00\n                    /* \"#utility.yul\":798:800   */\n                  0x20\n                    /* \"#utility.yul\":786:795   */\n                  dup3\n                    /* \"#utility.yul\":777:784   */\n                  dup5\n                    /* \"#utility.yul\":773:796   */\n                  sub\n                    /* \"#utility.yul\":769:801   */\n                  slt\n                    /* \"#utility.yul\":766:885   */\n                  iszero\n                  tag_130\n                  jumpi\n                    /* \"#utility.yul\":804:883   */\n                  tag_131\n                  tag_103\n                  jump\t// in\n                tag_131:\n                    /* \"#utility.yul\":766:885   */\n                tag_130:\n                    /* \"#utility.yul\":924:925   */\n                  0x00\n                    /* \"#utility.yul\":949:1002   */\n                  tag_132\n                    /* \"#utility.yul\":994:1001   */\n                  dup5\n                    /* \"#utility.yul\":985:991   */\n                  dup3\n                    /* \"#utility.yul\":974:983   */\n                  dup6\n                    /* \"#utility.yul\":970:992   */\n                  add\n                    /* \"#utility.yul\":949:1002   */\n                  tag_107\n                  jump\t// in\n                tag_132:\n                    /* \"#utility.yul\":939:1002   */\n                  swap2\n                  pop\n                    /* \"#utility.yul\":895:1012   */\n                  pop\n                    /* \"#utility.yul\":690:1019   */\n                  swap3\n                  swap2\n                  pop\n                  pop\n                  jump\t// out\n                    /* \"#utility.yul\":1025:1143   */\n                tag_108:\n                    /* \"#utility.yul\":1112:1136   */\n                  tag_134\n                    /* \"#utility.yul\":1130:1135   */\n                  dup2\n                    /* \"#utility.yul\":1112:1136   */\n                  tag_105\n                  jump\t// in\n                tag_134:\n                    /* \"#utility.yul\":1107:1110   */\n                  dup3\n                    /* \"#utility.yul\":1100:1137   */\n                  mstore\n                    /* \"#utility.yul\":1025:1143   */\n                  pop\n                  pop\n                  jump\t// out\n                    /* \"#utility.yul\":1149:1371   */\n                tag_23:\n                    /* \"#utility.yul\":1242:1246   */\n                  0x00\n                    /* \"#utility.yul\":1280:1282   */\n                  0x20\n                    /* \"#utility.yul\":1269:1278   */\n                  dup3\n                    /* \"#utility.yul\":1265:1283   */\n                  add\n                    /* \"#utility.yul\":1257:1283   */\n                  swap1\n                  pop\n                    /* \"#utility.yul\":1293:1364   */\n                  tag_136\n                    /* \"#utility.yul\":1361:1362   */\n                  0x00\n                    /* \"#utility.yul\":1350:1359   */\n                  dup4\n                    /* \"#utility.yul\":1346:1363   */\n                  add\n                    /* \"#utility.yul\":1337:1343   */\n                  dup5\n                    /* \"#utility.yul\":1293:1364   */\n                  tag_108\n                  jump\t// in\n                tag_136:\n                    /* \"#utility.yul\":1149:1371   */\n                  swap3\n                  swap2\n                  pop\n                  pop\n                  jump\t// out\n                    /* \"#utility.yul\":1377:1503   */\n                tag_109:\n                    /* \"#utility.yul\":1414:1421   */\n                  0x00\n                    /* \"#utility.yul\":1454:1496   */\n                  0xffffffffffffffffffffffffffffffffffffffff\n                    /* \"#utility.yul\":1447:1452   */\n                  dup3\n                    /* \"#utility.yul\":1443:1497   */\n                  and\n                    /* \"#utility.yul\":1432:1497   */\n                  swap1\n                  pop\n                    /* \"#utility.yul\":1377:1503   */\n                  swap2\n                  swap1\n                  pop\n                  jump\t// out\n                    /* \"#utility.yul\":1509:1605   */\n                tag_110:\n                    /* \"#utility.yul\":1546:1553   */\n                  0x00\n                    /* \"#utility.yul\":1575:1599   */\n                  tag_139\n                    /* \"#utility.yul\":1593:1598   */\n                  dup3\n                    /* \"#utility.yul\":1575:1599   */\n                  tag_109\n                  jump\t// in\n                tag_139:\n                    /* \"#utility.yul\":1564:1599   */\n                  swap1\n                  pop\n                    /* \"#utility.yul\":1509:1605   */\n                  swap2\n                  swap1\n                  pop\n                  jump\t// out\n                    /* \"#utility.yul\":1611:1729   */\n                tag_111:\n                    /* \"#utility.yul\":1698:1722   */\n                  tag_141\n                    /* \"#utility.yul\":1716:1721   */\n                  dup2\n                    /* \"#utility.yul\":1698:1722   */\n                  tag_110\n                  jump\t// in\n                tag_141:\n                    /* \"#utility.yul\":1693:1696   */\n                  dup3\n                    /* \"#utility.yul\":1686:1723   */\n                  mstore\n                    /* \"#utility.yul\":1611:1729   */\n                  pop\n                  pop\n                  jump\t// out\n                    /* \"#utility.yul\":1735:1957   */\n                tag_28:\n                    /* \"#utility.yul\":1828:1832   */\n                  0x00\n                    /* \"#utility.yul\":1866:1868   */\n                  0x20\n                    /* \"#utility.yul\":1855:1864   */\n                  dup3\n                    /* \"#utility.yul\":1851:1869   */\n                  add\n                    /* \"#utility.yul\":1843:1869   */\n                  swap1\n                  pop\n                    /* \"#utility.yul\":1879:1950   */\n                  tag_143\n                    /* \"#utility.yul\":1947:1948   */\n                  0x00\n                    /* \"#utility.yul\":1936:1945   */\n                  dup4\n                    /* \"#utility.yul\":1932:1949   */\n                  add\n                    /* \"#utility.yul\":1923:1929   */\n                  dup5\n                    /* \"#utility.yul\":1879:1950   */\n                  tag_111\n                  jump\t// in\n                tag_143:\n                    /* \"#utility.yul\":1735:1957   */\n                  swap3\n                  swap2\n                  pop\n                  pop\n                  jump\t// out\n                    /* \"#utility.yul\":1963:2053   */\n                tag_112:\n                    /* \"#utility.yul\":1997:2004   */\n                  0x00\n                    /* \"#utility.yul\":2040:2045   */\n                  dup2\n                    /* \"#utility.yul\":2033:2046   */\n                  iszero\n                    /* \"#utility.yul\":2026:2047   */\n                  iszero\n                    /* \"#utility.yul\":2015:2047   */\n                  swap1\n                  pop\n                    /* \"#utility.yul\":1963:2053   */\n                  swap2\n                  swap1\n                  pop\n                  jump\t// out\n                    /* \"#utility.yul\":2059:2168   */\n                tag_113:\n                    /* \"#utility.yul\":2140:2161   */\n                  tag_146\n                    /* \"#utility.yul\":2155:2160   */\n                  dup2\n                    /* \"#utility.yul\":2140:2161   */\n                  tag_112\n                  jump\t// in\n                tag_146:\n                    /* \"#utility.yul\":2135:2138   */\n                  dup3\n                    /* \"#utility.yul\":2128:2162   */\n                  mstore\n                    /* \"#utility.yul\":2059:2168   */\n                  pop\n                  pop\n                  jump\t// out\n                    /* \"#utility.yul\":2174:3048   */\n                tag_37:\n                    /* \"#utility.yul\":2429:2433   */\n                  0x00\n                    /* \"#utility.yul\":2467:2470   */\n                  0xe0\n                    /* \"#utility.yul\":2456:2465   */\n                  dup3\n                    /* \"#utility.yul\":2452:2471   */\n                  add\n                    /* \"#utility.yul\":2444:2471   */\n                  swap1\n                  pop\n                    /* \"#utility.yul\":2481:2552   */\n                  tag_148\n                    /* \"#utility.yul\":2549:2550   */\n                  0x00\n                    /* \"#utility.yul\":2538:2547   */\n                  dup4\n                    /* \"#utility.yul\":2534:2551   */\n                  add\n                    /* \"#utility.yul\":2525:2531   */\n                  dup11\n                    /* \"#utility.yul\":2481:2552   */\n                  tag_108\n                  jump\t// in\n                tag_148:\n                    /* \"#utility.yul\":2562:2634   */\n                  tag_149\n                    /* \"#utility.yul\":2630:2632   */\n                  0x20\n                    /* \"#utility.yul\":2619:2628   */\n                  dup4\n                    /* \"#utility.yul\":2615:2633   */\n                  add\n                    /* \"#utility.yul\":2606:2612   */\n                  dup10\n                    /* \"#utility.yul\":2562:2634   */\n                  tag_111\n                  jump\t// in\n                tag_149:\n                    /* \"#utility.yul\":2644:2716   */\n                  tag_150\n                    /* \"#utility.yul\":2712:2714   */\n                  0x40\n                    /* \"#utility.yul\":2701:2710   */\n                  dup4\n                    /* \"#utility.yul\":2697:2715   */\n                  add\n                    /* \"#utility.yul\":2688:2694   */\n                  dup9\n                    /* \"#utility.yul\":2644:2716   */\n                  tag_108\n                  jump\t// in\n                tag_150:\n                    /* \"#utility.yul\":2726:2798   */\n                  tag_151\n                    /* \"#utility.yul\":2794:2796   */\n                  0x60\n                    /* \"#utility.yul\":2783:2792   */\n                  dup4\n                    /* \"#utility.yul\":2779:2797   */\n                  add\n                    /* \"#utility.yul\":2770:2776   */\n                  dup8\n                    /* \"#utility.yul\":2726:2798   */\n                  tag_111\n                  jump\t// in\n                tag_151:\n                    /* \"#utility.yul\":2808:2875   */\n                  tag_152\n                    /* \"#utility.yul\":2870:2873   */\n                  0x80\n                    /* \"#utility.yul\":2859:2868   */\n                  dup4\n                    /* \"#utility.yul\":2855:2874   */\n                  add\n                    /* \"#utility.yul\":2846:2852   */\n                  dup7\n                    /* \"#utility.yul\":2808:2875   */\n                  tag_113\n                  jump\t// in\n                tag_152:\n                    /* \"#utility.yul\":2885:2958   */\n                  tag_153\n                    /* \"#utility.yul\":2953:2956   */\n                  0xa0\n                    /* \"#utility.yul\":2942:2951   */\n                  dup4\n                    /* \"#utility.yul\":2938:2957   */\n                  add\n                    /* \"#utility.yul\":2929:2935   */\n                  dup6\n                    /* \"#utility.yul\":2885:2958   */\n                  tag_108\n                  jump\t// in\n                tag_153:\n                    /* \"#utility.yul\":2968:3041   */\n                  tag_154\n                    /* \"#utility.yul\":3036:3039   */\n                  0xc0\n                    /* \"#utility.yul\":3025:3034   */\n                  dup4\n                    /* \"#utility.yul\":3021:3040   */\n                  add\n                    /* \"#utility.yul\":3012:3018   */\n                  dup5\n                    /* \"#utility.yul\":2968:3041   */\n                  tag_108\n                  jump\t// in\n                tag_154:\n                    /* \"#utility.yul\":2174:3048   */\n                  swap9\n                  swap8\n                  pop\n                  pop\n                  pop\n                  pop\n                  pop\n                  pop\n                  pop\n                  pop\n                  jump\t// out\n                    /* \"#utility.yul\":3054:3673   */\n                tag_43:\n                    /* \"#utility.yul\":3131:3137   */\n                  0x00\n                    /* \"#utility.yul\":3139:3145   */\n                  dup1\n                    /* \"#utility.yul\":3147:3153   */\n                  0x00\n                    /* \"#utility.yul\":3196:3198   */\n                  0x60\n                    /* \"#utility.yul\":3184:3193   */\n                  dup5\n                    /* \"#utility.yul\":3175:3182   */\n                  dup7\n                    /* \"#utility.yul\":3171:3194   */\n                  sub\n                    /* \"#utility.yul\":3167:3199   */\n                  slt\n                    /* \"#utility.yul\":3164:3283   */\n                  iszero\n                  tag_156\n                  jumpi\n                    /* \"#utility.yul\":3202:3281   */\n                  tag_157\n                  tag_103\n                  jump\t// in\n                tag_157:\n                    /* \"#utility.yul\":3164:3283   */\n                tag_156:\n                    /* \"#utility.yul\":3322:3323   */\n                  0x00\n                    /* \"#utility.yul\":3347:3400   */\n                  tag_158\n                    /* \"#utility.yul\":3392:3399   */\n                  dup7\n                    /* \"#utility.yul\":3383:3389   */\n                  dup3\n                    /* \"#utility.yul\":3372:3381   */\n                  dup8\n                    /* \"#utility.yul\":3368:3390   */\n                  add\n                    /* \"#utility.yul\":3347:3400   */\n                  tag_107\n                  jump\t// in\n                tag_158:\n                    /* \"#utility.yul\":3337:3400   */\n                  swap4\n                  pop\n                    /* \"#utility.yul\":3293:3410   */\n                  pop\n                    /* \"#utility.yul\":3449:3451   */\n                  0x20\n                    /* \"#utility.yul\":3475:3528   */\n                  tag_159\n                    /* \"#utility.yul\":3520:3527   */\n                  dup7\n                    /* \"#utility.yul\":3511:3517   */\n                  dup3\n                    /* \"#utility.yul\":3500:3509   */\n                  dup8\n                    /* \"#utility.yul\":3496:3518   */\n                  add\n                    /* \"#utility.yul\":3475:3528   */\n                  tag_107\n                  jump\t// in\n                tag_159:\n                    /* \"#utility.yul\":3465:3528   */\n                  swap3\n                  pop\n                    /* \"#utility.yul\":3420:3538   */\n                  pop\n                    /* \"#utility.yul\":3577:3579   */\n                  0x40\n                    /* \"#utility.yul\":3603:3656   */\n                  tag_160\n                    /* \"#utility.yul\":3648:3655   */\n                  dup7\n                    /* \"#utility.yul\":3639:3645   */\n                  dup3\n                    /* \"#utility.yul\":3628:3637   */\n                  dup8\n                    /* \"#utility.yul\":3624:3646   */\n                  add\n                    /* \"#utility.yul\":3603:3656   */\n                  tag_107\n                  jump\t// in\n                tag_160:\n                    /* \"#utility.yul\":3593:3656   */\n                  swap2\n                  pop\n                    /* \"#utility.yul\":3548:3666   */\n                  pop\n                    /* \"#utility.yul\":3054:3673   */\n                  swap3\n                  pop\n                  swap3\n                  pop\n                  swap3\n                  jump\t// out\n                    /* \"#utility.yul\":3679:3889   */\n                tag_52:\n                    /* \"#utility.yul\":3766:3770   */\n                  0x00\n                    /* \"#utility.yul\":3804:3806   */\n                  0x20\n                    /* \"#utility.yul\":3793:3802   */\n                  dup3\n                    /* \"#utility.yul\":3789:3807   */\n                  add\n                    /* \"#utility.yul\":3781:3807   */\n                  swap1\n                  pop\n                    /* \"#utility.yul\":3817:3882   */\n                  tag_162\n                    /* \"#utility.yul\":3879:3880   */\n                  0x00\n                    /* \"#utility.yul\":3868:3877   */\n                  dup4\n                    /* \"#utility.yul\":3864:3881   */\n                  add\n                    /* \"#utility.yul\":3855:3861   */\n                  dup5\n                    /* \"#utility.yul\":3817:3882   */\n                  tag_113\n                  jump\t// in\n                tag_162:\n                    /* \"#utility.yul\":3679:3889   */\n                  swap3\n                  swap2\n                  pop\n                  pop\n                  jump\t// out\n                    /* \"#utility.yul\":3895:4017   */\n                tag_114:\n                    /* \"#utility.yul\":3968:3992   */\n                  tag_164\n                    /* \"#utility.yul\":3986:3991   */\n                  dup2\n                    /* \"#utility.yul\":3968:3992   */\n                  tag_110\n                  jump\t// in\n                tag_164:\n                    /* \"#utility.yul\":3961:3966   */\n                  dup2\n                    /* \"#utility.yul\":3958:3993   */\n                  eq\n                    /* \"#utility.yul\":3948:4011   */\n                  tag_165\n                  jumpi\n                    /* \"#utility.yul\":4007:4008   */\n                  0x00\n                    /* \"#utility.yul\":4004:4005   */\n                  dup1\n                    /* \"#utility.yul\":3997:4009   */\n                  revert\n                    /* \"#utility.yul\":3948:4011   */\n                tag_165:\n                    /* \"#utility.yul\":3895:4017   */\n                  pop\n                  jump\t// out\n                    /* \"#utility.yul\":4023:4162   */\n                tag_115:\n                    /* \"#utility.yul\":4069:4074   */\n                  0x00\n                    /* \"#utility.yul\":4107:4113   */\n                  dup2\n                    /* \"#utility.yul\":4094:4114   */\n                  calldataload\n                    /* \"#utility.yul\":4085:4114   */\n                  swap1\n                  pop\n                    /* \"#utility.yul\":4123:4156   */\n                  tag_167\n                    /* \"#utility.yul\":4150:4155   */\n                  dup2\n                    /* \"#utility.yul\":4123:4156   */\n                  tag_114\n                  jump\t// in\n                tag_167:\n                    /* \"#utility.yul\":4023:4162   */\n                  swap3\n                  swap2\n                  pop\n                  pop\n                  jump\t// out\n                    /* \"#utility.yul\":4168:4933   */\n                tag_55:\n                    /* \"#utility.yul\":4254:4260   */\n                  0x00\n                    /* \"#utility.yul\":4262:4268   */\n                  dup1\n                    /* \"#utility.yul\":4270:4276   */\n                  0x00\n                    /* \"#utility.yul\":4278:4284   */\n                  dup1\n                    /* \"#utility.yul\":4327:4330   */\n                  0x80\n                    /* \"#utility.yul\":4315:4324   */\n                  dup6\n                    /* \"#utility.yul\":4306:4313   */\n                  dup8\n                    /* \"#utility.yul\":4302:4325   */\n                  sub\n                    /* \"#utility.yul\":4298:4331   */\n                  slt\n                    /* \"#utility.yul\":4295:4415   */\n                  iszero\n                  tag_169\n                  jumpi\n                    /* \"#utility.yul\":4334:4413   */\n                  tag_170\n                  tag_103\n                  jump\t// in\n                tag_170:\n                    /* \"#utility.yul\":4295:4415   */\n                tag_169:\n                    /* \"#utility.yul\":4454:4455   */\n                  0x00\n                    /* \"#utility.yul\":4479:4532   */\n                  tag_171\n                    /* \"#utility.yul\":4524:4531   */\n                  dup8\n                    /* \"#utility.yul\":4515:4521   */\n                  dup3\n                    /* \"#utility.yul\":4504:4513   */\n                  dup9\n                    /* \"#utility.yul\":4500:4522   */\n                  add\n                    /* \"#utility.yul\":4479:4532   */\n                  tag_115\n                  jump\t// in\n                tag_171:\n                    /* \"#utility.yul\":4469:4532   */\n                  swap5\n                  pop\n                    /* \"#utility.yul\":4425:4542   */\n                  pop\n                    /* \"#utility.yul\":4581:4583   */\n                  0x20\n                    /* \"#utility.yul\":4607:4660   */\n                  tag_172\n                    /* \"#utility.yul\":4652:4659   */\n                  dup8\n                    /* \"#utility.yul\":4643:4649   */\n                  dup3\n                    /* \"#utility.yul\":4632:4641   */\n                  dup9\n                    /* \"#utility.yul\":4628:4650   */\n                  add\n                    /* \"#utility.yul\":4607:4660   */\n                  tag_107\n                  jump\t// in\n                tag_172:\n                    /* \"#utility.yul\":4597:4660   */\n                  swap4\n                  pop\n                    /* \"#utility.yul\":4552:4670   */\n                  pop\n                    /* \"#utility.yul\":4709:4711   */\n                  0x40\n                    /* \"#utility.yul\":4735:4788   */\n                  tag_173\n                    /* \"#utility.yul\":4780:4787   */\n                  dup8\n                    /* \"#utility.yul\":4771:4777   */\n                  dup3\n                    /* \"#utility.yul\":4760:4769   */\n                  dup9\n                    /* \"#utility.yul\":4756:4778   */\n                  add\n                    /* \"#utility.yul\":4735:4788   */\n                  tag_107\n                  jump\t// in\n                tag_173:\n                    /* \"#utility.yul\":4725:4788   */\n                  swap3\n                  pop\n                    /* \"#utility.yul\":4680:4798   */\n                  pop\n                    /* \"#utility.yul\":4837:4839   */\n                  0x60\n                    /* \"#utility.yul\":4863:4916   */\n                  tag_174\n                    /* \"#utility.yul\":4908:4915   */\n                  dup8\n                    /* \"#utility.yul\":4899:4905   */\n                  dup3\n                    /* \"#utility.yul\":4888:4897   */\n                  dup9\n                    /* \"#utility.yul\":4884:4906   */\n                  add\n                    /* \"#utility.yul\":4863:4916   */\n                  tag_107\n                  jump\t// in\n                tag_174:\n                    /* \"#utility.yul\":4853:4916   */\n                  swap2\n                  pop\n                    /* \"#utility.yul\":4808:4926   */\n                  pop\n                    /* \"#utility.yul\":4168:4933   */\n                  swap3\n                  swap6\n                  swap2\n                  swap5\n                  pop\n                  swap3\n                  pop\n                  jump\t// out\n                    /* \"#utility.yul\":4939:5413   */\n                tag_60:\n                    /* \"#utility.yul\":5007:5013   */\n                  0x00\n                    /* \"#utility.yul\":5015:5021   */\n                  dup1\n                    /* \"#utility.yul\":5064:5066   */\n                  0x40\n                    /* \"#utility.yul\":5052:5061   */\n                  dup4\n                    /* \"#utility.yul\":5043:5050   */\n                  dup6\n                    /* \"#utility.yul\":5039:5062   */\n                  sub\n                    /* \"#utility.yul\":5035:5067   */\n                  slt\n                    /* \"#utility.yul\":5032:5151   */\n                  iszero\n                  tag_176\n                  jumpi\n                    /* \"#utility.yul\":5070:5149   */\n                  tag_177\n                  tag_103\n                  jump\t// in\n                tag_177:\n                    /* \"#utility.yul\":5032:5151   */\n                tag_176:\n                    /* \"#utility.yul\":5190:5191   */\n                  0x00\n                    /* \"#utility.yul\":5215:5268   */\n                  tag_178\n                    /* \"#utility.yul\":5260:5267   */\n                  dup6\n                    /* \"#utility.yul\":5251:5257   */\n                  dup3\n                    /* \"#utility.yul\":5240:5249   */\n                  dup7\n                    /* \"#utility.yul\":5236:5258   */\n                  add\n                    /* \"#utility.yul\":5215:5268   */\n                  tag_107\n                  jump\t// in\n                tag_178:\n                    /* \"#utility.yul\":5205:5268   */\n                  swap3\n                  pop\n                    /* \"#utility.yul\":5161:5278   */\n                  pop\n                    /* \"#utility.yul\":5317:5319   */\n                  0x20\n                    /* \"#utility.yul\":5343:5396   */\n                  tag_179\n                    /* \"#utility.yul\":5388:5395   */\n                  dup6\n                    /* \"#utility.yul\":5379:5385   */\n                  dup3\n                    /* \"#utility.yul\":5368:5377   */\n                  dup7\n                    /* \"#utility.yul\":5364:5386   */\n                  add\n                    /* \"#utility.yul\":5343:5396   */\n                  tag_115\n                  jump\t// in\n                tag_179:\n                    /* \"#utility.yul\":5333:5396   */\n                  swap2\n                  pop\n                    /* \"#utility.yul\":5288:5406   */\n                  pop\n                    /* \"#utility.yul\":4939:5413   */\n                  swap3\n                  pop\n                  swap3\n                  swap1\n                  pop\n                  jump\t// out\n                    /* \"#utility.yul\":5419:5535   */\n                tag_116:\n                    /* \"#utility.yul\":5489:5510   */\n                  tag_181\n                    /* \"#utility.yul\":5504:5509   */\n                  dup2\n                    /* \"#utility.yul\":5489:5510   */\n                  tag_112\n                  jump\t// in\n                tag_181:\n                    /* \"#utility.yul\":5482:5487   */\n                  dup2\n                    /* \"#utility.yul\":5479:5511   */\n                  eq\n                    /* \"#utility.yul\":5469:5529   */\n                  tag_182\n                  jumpi\n                    /* \"#utility.yul\":5525:5526   */\n                  0x00\n                    /* \"#utility.yul\":5522:5523   */\n                  dup1\n                    /* \"#utility.yul\":5515:5527   */\n                  revert\n                    /* \"#utility.yul\":5469:5529   */\n                tag_182:\n                    /* \"#utility.yul\":5419:5535   */\n                  pop\n                  jump\t// out\n                    /* \"#utility.yul\":5541:5674   */\n                tag_117:\n                    /* \"#utility.yul\":5584:5589   */\n                  0x00\n                    /* \"#utility.yul\":5622:5628   */\n                  dup2\n                    /* \"#utility.yul\":5609:5629   */\n                  calldataload\n                    /* \"#utility.yul\":5600:5629   */\n                  swap1\n                  pop\n                    /* \"#utility.yul\":5638:5668   */\n                  tag_184\n                    /* \"#utility.yul\":5662:5667   */\n                  dup2\n                    /* \"#utility.yul\":5638:5668   */\n                  tag_116\n                  jump\t// in\n                tag_184:\n                    /* \"#utility.yul\":5541:5674   */\n                  swap3\n                  swap2\n                  pop\n                  pop\n                  jump\t// out\n                    /* \"#utility.yul\":5680:6148   */\n                tag_67:\n                    /* \"#utility.yul\":5745:5751   */\n                  0x00\n                    /* \"#utility.yul\":5753:5759   */\n                  dup1\n                    /* \"#utility.yul\":5802:5804   */\n                  0x40\n                    /* \"#utility.yul\":5790:5799   */\n                  dup4\n                    /* \"#utility.yul\":5781:5788   */\n                  dup6\n                    /* \"#utility.yul\":5777:5800   */\n                  sub\n                    /* \"#utility.yul\":5773:5805   */\n                  slt\n                    /* \"#utility.yul\":5770:5889   */\n                  iszero\n                  tag_186\n                  jumpi\n                    /* \"#utility.yul\":5808:5887   */\n                  tag_187\n                  tag_103\n                  jump\t// in\n                tag_187:\n                    /* \"#utility.yul\":5770:5889   */\n                tag_186:\n                    /* \"#utility.yul\":5928:5929   */\n                  0x00\n                    /* \"#utility.yul\":5953:6006   */\n                  tag_188\n                    /* \"#utility.yul\":5998:6005   */\n                  dup6\n                    /* \"#utility.yul\":5989:5995   */\n                  dup3\n                    /* \"#utility.yul\":5978:5987   */\n                  dup7\n                    /* \"#utility.yul\":5974:5996   */\n                  add\n                    /* \"#utility.yul\":5953:6006   */\n                  tag_107\n                  jump\t// in\n                tag_188:\n                    /* \"#utility.yul\":5943:6006   */\n                  swap3\n                  pop\n                    /* \"#utility.yul\":5899:6016   */\n                  pop\n                    /* \"#utility.yul\":6055:6057   */\n                  0x20\n                    /* \"#utility.yul\":6081:6131   */\n                  tag_189\n                    /* \"#utility.yul\":6123:6130   */\n                  dup6\n                    /* \"#utility.yul\":6114:6120   */\n                  dup3\n                    /* \"#utility.yul\":6103:6112   */\n                  dup7\n                    /* \"#utility.yul\":6099:6121   */\n                  add\n                    /* \"#utility.yul\":6081:6131   */\n                  tag_117\n                  jump\t// in\n                tag_189:\n                    /* \"#utility.yul\":6071:6131   */\n                  swap2\n                  pop\n                    /* \"#utility.yul\":6026:6141   */\n                  pop\n                    /* \"#utility.yul\":5680:6148   */\n                  swap3\n                  pop\n                  swap3\n                  swap1\n                  pop\n                  jump\t// out\n                    /* \"#utility.yul\":6154:6334   */\n                tag_118:\n                    /* \"#utility.yul\":6202:6279   */\n                  0x4e487b7100000000000000000000000000000000000000000000000000000000\n                    /* \"#utility.yul\":6199:6200   */\n                  0x00\n                    /* \"#utility.yul\":6192:6280   */\n                  mstore\n                    /* \"#utility.yul\":6299:6303   */\n                  0x11\n                    /* \"#utility.yul\":6296:6297   */\n                  0x04\n                    /* \"#utility.yul\":6289:6304   */\n                  mstore\n                    /* \"#utility.yul\":6323:6327   */\n                  0x24\n                    /* \"#utility.yul\":6320:6321   */\n                  0x00\n                    /* \"#utility.yul\":6313:6328   */\n                  revert\n                    /* \"#utility.yul\":6340:6573   */\n                tag_85:\n                    /* \"#utility.yul\":6379:6382   */\n                  0x00\n                    /* \"#utility.yul\":6402:6426   */\n                  tag_192\n                    /* \"#utility.yul\":6420:6425   */\n                  dup3\n                    /* \"#utility.yul\":6402:6426   */\n                  tag_105\n                  jump\t// in\n                tag_192:\n                    /* \"#utility.yul\":6393:6426   */\n                  swap2\n                  pop\n                    /* \"#utility.yul\":6448:6514   */\n                  0xffffffffffffffffffffffffffffffffffffffffffffffffffffffffffffffff\n                    /* \"#utility.yul\":6441:6446   */\n                  dup3\n                    /* \"#utility.yul\":6438:6515   */\n                  eq\n                    /* \"#utility.yul\":6435:6538   */\n                  iszero\n                  tag_193\n                  jumpi\n                    /* \"#utility.yul\":6518:6536   */\n                  tag_194\n                  tag_118\n                  jump\t// in\n                tag_194:\n                    /* \"#utility.yul\":6435:6538   */\n                tag_193:\n                    /* \"#utility.yul\":6565:6566   */\n                  0x01\n                    /* \"#utility.yul\":6558:6563   */\n                  dup3\n                    /* \"#utility.yul\":6554:6567   */\n                  add\n                    /* \"#utility.yul\":6547:6567   */\n                  swap1\n                  pop\n                    /* \"#utility.yul\":6340:6573   */\n                  swap2\n                  swap1\n                  pop\n                  jump\t// out\n\n                auxdata: 0xa264697066735822122094bb1268f636dc54664e57f48315f20feecf31084178cb0666b50a280f4b2b8464736f6c634300080a0033\n            }\n        }\n    }\n\n    auxdata: 0xa264697066735822122006520a1dd0db5a151a0867b7db1498d8e271580bf1388dac449a82387af4bacd64736f6c634300080a0033\n}\n","bytecode":{"linkReferences":{},"object":"608060405234801561001057600080fd5b50615dae806100206000396000f3fe60806040523480156200001157600080fd5b5060043610620000465760003560e01c806373b1be38146200004b57806398fe1356146200006b578063f4b2b9b014620000a1575b600080fd5b62000069600480360381019062000063919062000287565b620000c3565b005b62000089600480360381019062000083919062000287565b62000169565b604051620000989190620002fe565b60405180910390f35b620000ab620001a9565b604051620000ba9190620003e9565b60405180910390f35b60008133604051620000d59062000239565b620000e29291906200041e565b604051809103906000f080158015620000ff573d6000803e3d6000fd5b5090506000819080600181540180825580915050600190039060005260206000200160009091909190916101000a81548173ffffffffffffffffffffffffffffffffffffffff021916908373ffffffffffffffffffffffffffffffffffffffff1602179055505050565b600081815481106200017a57600080fd5b906000526020600020016000915054906101000a900473ffffffffffffffffffffffffffffffffffffffff1681565b606060008054806020026020016040519081016040528092919081815260200182805480156200022f57602002820191906000526020600020905b8160009054906101000a900473ffffffffffffffffffffffffffffffffffffffff1673ffffffffffffffffffffffffffffffffffffffff1681526020019060010190808311620001e4575b5050505050905090565b61592d806200044c83390190565b600080fd5b6000819050919050565b62000261816200024c565b81146200026d57600080fd5b50565b600081359050620002818162000256565b92915050565b600060208284031215620002a0576200029f62000247565b5b6000620002b08482850162000270565b91505092915050565b600073ffffffffffffffffffffffffffffffffffffffff82169050919050565b6000620002e682620002b9565b9050919050565b620002f881620002d9565b82525050565b6000602082019050620003156000830184620002ed565b92915050565b600081519050919050565b600082825260208201905092915050565b6000819050602082019050919050565b6200035281620002d9565b82525050565b600062000366838362000347565b60208301905092915050565b6000602082019050919050565b60006200038c826200031b565b62000398818562000326565b9350620003a58362000337565b8060005b83811015620003dc578151620003c0888262000358565b9750620003cd8362000372565b925050600181019050620003a9565b5085935050505092915050565b600060208201905081810360008301526200040581846200037f565b905092915050565b62000418816200024c565b82525050565b60006040820190506200043560008301856200040d565b620004446020830184620002ed565b939250505056fe60806040523480156200001157600080fd5b506040516200592d3803806200592d833981810160405281019062000037919062000560565b806000806101000a81548173ffffffffffffffffffffffffffffffffffffffff021916908373ffffffffffffffffffffffffffffffffffffffff16021790555060008054906101000a900473ffffffffffffffffffffffffffffffffffffffff16604051620000a69062000491565b620000b29190620005b8565b604051809103906000f080158015620000cf573d6000803e3d6000fd5b50600160006101000a81548173ffffffffffffffffffffffffffffffffffffffff021916908373ffffffffffffffffffffffffffffffffffffffff16021790555060008054906101000a900473ffffffffffffffffffffffffffffffffffffffff166040516200013f906200049f565b6200014b9190620005b8565b604051809103906000f08015801562000168573d6000803e3d6000fd5b50600260006101000a81548173ffffffffffffffffffffffffffffffffffffffff021916908373ffffffffffffffffffffffffffffffffffffffff16021790555060008054906101000a900473ffffffffffffffffffffffffffffffffffffffff16604051620001d890620004ad565b620001e49190620005b8565b604051809103906000f08015801562000201573d6000803e3d6000fd5b50600360006101000a81548173ffffffffffffffffffffffffffffffffffffffff021916908373ffffffffffffffffffffffffffffffffffffffff1602179055506004600160009054906101000a900473ffffffffffffffffffffffffffffffffffffffff169080600181540180825580915050600190039060005260206000200160009091909190916101000a81548173ffffffffffffffffffffffffffffffffffffffff021916908373ffffffffffffffffffffffffffffffffffffffff1602179055506004600260009054906101000a900473ffffffffffffffffffffffffffffffffffffffff169080600181540180825580915050600190039060005260206000200160009091909190916101000a81548173ffffffffffffffffffffffffffffffffffffffff021916908373ffffffffffffffffffffffffffffffffffffffff1602179055506004600360009054906101000a900473ffffffffffffffffffffffffffffffffffffffff169080600181540180825580915050600190039060005260206000200160009091909190916101000a81548173ffffffffffffffffffffffffffffffffffffffff021916908373ffffffffffffffffffffffffffffffffffffffff16021790555081600581905550600260009054906101000a900473ffffffffffffffffffffffffffffffffffffffff1673ffffffffffffffffffffffffffffffffffffffff16637c4dd96d60008054906101000a900473ffffffffffffffffffffffffffffffffffffffff166040518263ffffffff1660e01b8152600401620004559190620005b8565b600060405180830381600087803b1580156200047057600080fd5b505af115801562000485573d6000803e3d6000fd5b505050505050620005d5565b6113ac806200222f83390190565b6111d880620035db83390190565b61117a80620047b383390190565b600080fd5b6000819050919050565b620004d581620004c0565b8114620004e157600080fd5b50565b600081519050620004f581620004ca565b92915050565b600073ffffffffffffffffffffffffffffffffffffffff82169050919050565b60006200052882620004fb565b9050919050565b6200053a816200051b565b81146200054657600080fd5b50565b6000815190506200055a816200052f565b92915050565b600080604083850312156200057a5762000579620004bb565b5b60006200058a85828601620004e4565b92505060206200059d8582860162000549565b9150509250929050565b620005b2816200051b565b82525050565b6000602082019050620005cf6000830184620005a7565b92915050565b611c4a80620005e56000396000f3fe6080604052600436106100a75760003560e01c80638da5cb5b116100645780638da5cb5b1461016957806390272dff14610194578063a54925dd146101bf578063c162d7da146101e8578063ca5140c914610213578063fe69494b1461023c576100a7565b80630cc21200146100ac5780631973db46146100d55780631a8c3eec146100f15780631aa3a0081461010d578063687564ae146101245780637e490a9e1461014d575b600080fd5b3480156100b857600080fd5b506100d360048036038101906100ce91906114fa565b610265565b005b6100ef60048036038101906100ea9190611599565b6103a3565b005b61010b60048036038101906101069190611624565b6106bf565b005b34801561011957600080fd5b506101226107f7565b005b34801561013057600080fd5b5061014b600480360381019061014691906116c2565b610886565b005b61016760048036038101906101629190611761565b610a1d565b005b34801561017557600080fd5b5061017e610dea565b60405161018b919061179d565b60405180910390f35b3480156101a057600080fd5b506101a9610e0e565b6040516101b691906117c7565b60405180910390f35b3480156101cb57600080fd5b506101e660048036038101906101e191906117e2565b610e14565b005b3480156101f457600080fd5b506101fd610eff565b60405161020a91906118e0565b60405180910390f35b34801561021f57600080fd5b5061023a60048036038101906102359190611761565b610fe5565b005b34801561024857600080fd5b50610263600480360381019061025e9190611902565b611282565b005b600260009054906101000a900473ffffffffffffffffffffffffffffffffffffffff1673ffffffffffffffffffffffffffffffffffffffff16634172fb89336040518263ffffffff1660e01b81526004016102c0919061179d565b602060405180830381865afa1580156102dd573d6000803e3d6000fd5b505050506040513d601f19601f820116820180604052508101906103019190611944565b61030a57600080fd5b600160009054906101000a900473ffffffffffffffffffffffffffffffffffffffff1673ffffffffffffffffffffffffffffffffffffffff16630cc21200858585856040518563ffffffff1660e01b815260040161036b94939291906119f9565b600060405180830381600087803b15801561038557600080fd5b505af1158015610399573d6000803e3d6000fd5b5050505050505050565b600260009054906101000a900473ffffffffffffffffffffffffffffffffffffffff1673ffffffffffffffffffffffffffffffffffffffff1663ecded204336040518263ffffffff1660e01b81526004016103fe919061179d565b602060405180830381865afa15801561041b573d6000803e3d6000fd5b505050506040513d601f19601f8201168201806040525081019061043f9190611944565b61044857600080fd5b6000600160009054906101000a900473ffffffffffffffffffffffffffffffffffffffff1673ffffffffffffffffffffffffffffffffffffffff16636c230eef856040518263ffffffff1660e01b81526004016104a591906117c7565b602060405180830381865afa1580156104c2573d6000803e3d6000fd5b505050506040513d601f19601f820116820180604052508101906104e69190611a61565b90503481146104f457600080fd5b6000600360009054906101000a900473ffffffffffffffffffffffffffffffffffffffff1673ffffffffffffffffffffffffffffffffffffffff1663a46d8ac7338787876040518563ffffffff1660e01b81526004016105579493929190611a8e565b6020604051808303816000875af1158015610576573d6000803e3d6000fd5b505050506040513d601f19601f8201168201806040525081019061059a9190611a61565b9050600260009054906101000a900473ffffffffffffffffffffffffffffffffffffffff1673ffffffffffffffffffffffffffffffffffffffff1663e597ef1233836040518363ffffffff1660e01b81526004016105f9929190611ad3565b600060405180830381600087803b15801561061357600080fd5b505af1158015610627573d6000803e3d6000fd5b50505050600160009054906101000a900473ffffffffffffffffffffffffffffffffffffffff1673ffffffffffffffffffffffffffffffffffffffff16630a6b2a25866040518263ffffffff1660e01b815260040161068691906117c7565b600060405180830381600087803b1580156106a057600080fd5b505af11580156106b4573d6000803e3d6000fd5b505050505050505050565b600260009054906101000a900473ffffffffffffffffffffffffffffffffffffffff1673ffffffffffffffffffffffffffffffffffffffff1663ecded204336040518263ffffffff1660e01b815260040161071a919061179d565b602060405180830381865afa158015610737573d6000803e3d6000fd5b505050506040513d601f19601f8201168201806040525081019061075b9190611944565b61076457600080fd5b600360009054906101000a900473ffffffffffffffffffffffffffffffffffffffff1673ffffffffffffffffffffffffffffffffffffffff1663ef228c9283836040518363ffffffff1660e01b81526004016107c1929190611b0b565b600060405180830381600087803b1580156107db57600080fd5b505af11580156107ef573d6000803e3d6000fd5b505050505050565b600260009054906101000a900473ffffffffffffffffffffffffffffffffffffffff1673ffffffffffffffffffffffffffffffffffffffff16634420e486336040518263ffffffff1660e01b8152600401610852919061179d565b600060405180830381600087803b15801561086c57600080fd5b505af1158015610880573d6000803e3d6000fd5b50505050565b3373ffffffffffffffffffffffffffffffffffffffff1660008054906101000a900473ffffffffffffffffffffffffffffffffffffffff1673ffffffffffffffffffffffffffffffffffffffff16146108de57600080fd5b600160009054906101000a900473ffffffffffffffffffffffffffffffffffffffff1673ffffffffffffffffffffffffffffffffffffffff1663e71448a9856040518263ffffffff1660e01b81526004016109399190611b34565b602060405180830381865afa158015610956573d6000803e3d6000fd5b505050506040513d601f19601f8201168201806040525081019061097a9190611944565b1561098457600080fd5b600160009054906101000a900473ffffffffffffffffffffffffffffffffffffffff1673ffffffffffffffffffffffffffffffffffffffff1663687564ae858585856040518563ffffffff1660e01b81526004016109e59493929190611b56565b600060405180830381600087803b1580156109ff57600080fd5b505af1158015610a13573d6000803e3d6000fd5b5050505050505050565b600260009054906101000a900473ffffffffffffffffffffffffffffffffffffffff1673ffffffffffffffffffffffffffffffffffffffff1663ecded204336040518263ffffffff1660e01b8152600401610a78919061179d565b602060405180830381865afa158015610a95573d6000803e3d6000fd5b505050506040513d601f19601f82011682018060405250810190610ab99190611944565b610ac257600080fd5b6000600360009054906101000a900473ffffffffffffffffffffffffffffffffffffffff1673ffffffffffffffffffffffffffffffffffffffff16631ce06944836040518263ffffffff1660e01b8152600401610b1f91906117c7565b602060405180830381865afa158015610b3c573d6000803e3d6000fd5b505050506040513d601f19601f82011682018060405250810190610b609190611a61565b90506000600360009054906101000a900473ffffffffffffffffffffffffffffffffffffffff1673ffffffffffffffffffffffffffffffffffffffff166398af1f07846040518263ffffffff1660e01b8152600401610bbf91906117c7565b602060405180830381865afa158015610bdc573d6000803e3d6000fd5b505050506040513d601f19601f82011682018060405250810190610c009190611944565b90506000600260009054906101000a900473ffffffffffffffffffffffffffffffffffffffff1673ffffffffffffffffffffffffffffffffffffffff166319aa98a3336040518263ffffffff1660e01b8152600401610c5f919061179d565b602060405180830381865afa158015610c7c573d6000803e3d6000fd5b505050506040513d601f19601f82011682018060405250810190610ca09190611a61565b905081610cac57600080fd5b6005548110610cba57600080fd5b348314610cc657600080fd5b600360009054906101000a900473ffffffffffffffffffffffffffffffffffffffff1673ffffffffffffffffffffffffffffffffffffffff1663ab21a2be85336040518363ffffffff1660e01b8152600401610d23929190611ba9565b600060405180830381600087803b158015610d3d57600080fd5b505af1158015610d51573d6000803e3d6000fd5b50505050600260009054906101000a900473ffffffffffffffffffffffffffffffffffffffff1673ffffffffffffffffffffffffffffffffffffffff1663a5a9c51833866040518363ffffffff1660e01b8152600401610db2929190611ad3565b600060405180830381600087803b158015610dcc57600080fd5b505af1158015610de0573d6000803e3d6000fd5b5050505050505050565b60008054906101000a900473ffffffffffffffffffffffffffffffffffffffff1681565b60055481565b3373ffffffffffffffffffffffffffffffffffffffff1660008054906101000a900473ffffffffffffffffffffffffffffffffffffffff1673ffffffffffffffffffffffffffffffffffffffff1614610e6c57600080fd5b600160009054906101000a900473ffffffffffffffffffffffffffffffffffffffff1673ffffffffffffffffffffffffffffffffffffffff1663a54925dd83836040518363ffffffff1660e01b8152600401610ec9929190611ba9565b600060405180830381600087803b158015610ee357600080fd5b505af1158015610ef7573d6000803e3d6000fd5b505050505050565b60603373ffffffffffffffffffffffffffffffffffffffff1660008054906101000a900473ffffffffffffffffffffffffffffffffffffffff1673ffffffffffffffffffffffffffffffffffffffff1614610f5957600080fd5b6004805480602002602001604051908101604052809291908181526020018280548015610fdb57602002820191906000526020600020905b8160009054906101000a900473ffffffffffffffffffffffffffffffffffffffff1673ffffffffffffffffffffffffffffffffffffffff1681526020019060010190808311610f91575b5050505050905090565b600260009054906101000a900473ffffffffffffffffffffffffffffffffffffffff1673ffffffffffffffffffffffffffffffffffffffff1663ecded204336040518263ffffffff1660e01b8152600401611040919061179d565b602060405180830381865afa15801561105d573d6000803e3d6000fd5b505050506040513d601f19601f820116820180604052508101906110819190611944565b61108a57600080fd5b6000600360009054906101000a900473ffffffffffffffffffffffffffffffffffffffff1673ffffffffffffffffffffffffffffffffffffffff16633b2f7118836040518263ffffffff1660e01b81526004016110e791906117c7565b602060405180830381865afa158015611104573d6000803e3d6000fd5b505050506040513d601f19601f820116820180604052508101906111289190611be7565b90503373ffffffffffffffffffffffffffffffffffffffff168173ffffffffffffffffffffffffffffffffffffffff161461116257600080fd5b600360009054906101000a900473ffffffffffffffffffffffffffffffffffffffff1673ffffffffffffffffffffffffffffffffffffffff1663ca5140c9836040518263ffffffff1660e01b81526004016111bd91906117c7565b600060405180830381600087803b1580156111d757600080fd5b505af11580156111eb573d6000803e3d6000fd5b50505050600260009054906101000a900473ffffffffffffffffffffffffffffffffffffffff1673ffffffffffffffffffffffffffffffffffffffff16634a09db4f33846040518363ffffffff1660e01b815260040161124c929190611ad3565b600060405180830381600087803b15801561126657600080fd5b505af115801561127a573d6000803e3d6000fd5b505050505050565b3373ffffffffffffffffffffffffffffffffffffffff1660008054906101000a900473ffffffffffffffffffffffffffffffffffffffff1673ffffffffffffffffffffffffffffffffffffffff16146112da57600080fd5b600260009054906101000a900473ffffffffffffffffffffffffffffffffffffffff1673ffffffffffffffffffffffffffffffffffffffff16637c4dd96d826040518263ffffffff1660e01b8152600401611335919061179d565b600060405180830381600087803b15801561134f57600080fd5b505af1158015611363573d6000803e3d6000fd5b5050505050565b6000604051905090565b600080fd5b600080fd5b6000819050919050565b6113918161137e565b811461139c57600080fd5b50565b6000813590506113ae81611388565b92915050565b600080fd5b600080fd5b6000601f19601f8301169050919050565b7f4e487b7100000000000000000000000000000000000000000000000000000000600052604160045260246000fd5b611407826113be565b810181811067ffffffffffffffff82111715611426576114256113cf565b5b80604052505050565b600061143961136a565b905061144582826113fe565b919050565b600067ffffffffffffffff821115611465576114646113cf565b5b61146e826113be565b9050602081019050919050565b82818337600083830152505050565b600061149d6114988461144a565b61142f565b9050828152602081018484840111156114b9576114b86113b9565b5b6114c484828561147b565b509392505050565b600082601f8301126114e1576114e06113b4565b5b81356114f184826020860161148a565b91505092915050565b6000806000806080858703121561151457611513611374565b5b60006115228782880161139f565b945050602085013567ffffffffffffffff81111561154357611542611379565b5b61154f878288016114cc565b935050604085013567ffffffffffffffff8111156115705761156f611379565b5b61157c878288016114cc565b925050606061158d8782880161139f565b91505092959194509250565b6000806000606084860312156115b2576115b1611374565b5b60006115c08682870161139f565b93505060206115d18682870161139f565b92505060406115e28682870161139f565b9150509250925092565b60008115159050919050565b611601816115ec565b811461160c57600080fd5b50565b60008135905061161e816115f8565b92915050565b6000806040838503121561163b5761163a611374565b5b60006116498582860161139f565b925050602061165a8582860161160f565b9150509250929050565b600073ffffffffffffffffffffffffffffffffffffffff82169050919050565b600061168f82611664565b9050919050565b61169f81611684565b81146116aa57600080fd5b50565b6000813590506116bc81611696565b92915050565b600080600080608085870312156116dc576116db611374565b5b600085013567ffffffffffffffff8111156116fa576116f9611379565b5b611706878288016114cc565b945050602085013567ffffffffffffffff81111561172757611726611379565b5b611733878288016114cc565b93505060406117448782880161139f565b9250506060611755878288016116ad565b91505092959194509250565b60006020828403121561177757611776611374565b5b60006117858482850161139f565b91505092915050565b61179781611684565b82525050565b60006020820190506117b2600083018461178e565b92915050565b6117c18161137e565b82525050565b60006020820190506117dc60008301846117b8565b92915050565b600080604083850312156117f9576117f8611374565b5b60006118078582860161139f565b9250506020611818858286016116ad565b9150509250929050565b600081519050919050565b600082825260208201905092915050565b6000819050602082019050919050565b61185781611684565b82525050565b6000611869838361184e565b60208301905092915050565b6000602082019050919050565b600061188d82611822565b611897818561182d565b93506118a28361183e565b8060005b838110156118d35781516118ba888261185d565b97506118c583611875565b9250506001810190506118a6565b5085935050505092915050565b600060208201905081810360008301526118fa8184611882565b905092915050565b60006020828403121561191857611917611374565b5b6000611926848285016116ad565b91505092915050565b60008151905061193e816115f8565b92915050565b60006020828403121561195a57611959611374565b5b60006119688482850161192f565b91505092915050565b600081519050919050565b600082825260208201905092915050565b60005b838110156119ab578082015181840152602081019050611990565b838111156119ba576000848401525b50505050565b60006119cb82611971565b6119d5818561197c565b93506119e581856020860161198d565b6119ee816113be565b840191505092915050565b6000608082019050611a0e60008301876117b8565b8181036020830152611a2081866119c0565b90508181036040830152611a3481856119c0565b9050611a4360608301846117b8565b95945050505050565b600081519050611a5b81611388565b92915050565b600060208284031215611a7757611a76611374565b5b6000611a8584828501611a4c565b91505092915050565b6000608082019050611aa3600083018761178e565b611ab060208301866117b8565b611abd60408301856117b8565b611aca60608301846117b8565b95945050505050565b6000604082019050611ae8600083018561178e565b611af560208301846117b8565b9392505050565b611b05816115ec565b82525050565b6000604082019050611b2060008301856117b8565b611b2d6020830184611afc565b9392505050565b60006020820190508181036000830152611b4e81846119c0565b905092915050565b60006080820190508181036000830152611b7081876119c0565b90508181036020830152611b8481866119c0565b9050611b9360408301856117b8565b611ba0606083018461178e565b95945050505050565b6000604082019050611bbe60008301856117b8565b611bcb602083018461178e565b9392505050565b600081519050611be181611696565b92915050565b600060208284031215611bfd57611bfc611374565b5b6000611c0b84828501611bd2565b9150509291505056fea26469706673582212201dd27e2d98e1d2a5039d624bd817b46adca32e85a8c19b70f5d5373e0c04c4f664736f6c634300080a003360806040523480156200001157600080fd5b50604051620013ac380380620013ac833981810160405281019062000037919062000129565b806000806101000a81548173ffffffffffffffffffffffffffffffffffffffff021916908373ffffffffffffffffffffffffffffffffffffffff16021790555033600160006101000a81548173ffffffffffffffffffffffffffffffffffffffff021916908373ffffffffffffffffffffffffffffffffffffffff160217905550506200015b565b600080fd5b600073ffffffffffffffffffffffffffffffffffffffff82169050919050565b6000620000f182620000c4565b9050919050565b6200010381620000e4565b81146200010f57600080fd5b50565b6000815190506200012381620000f8565b92915050565b600060208284031215620001425762000141620000bf565b5b6000620001528482850162000112565b91505092915050565b611241806200016b6000396000f3fe608060405234801561001057600080fd5b50600436106100a95760003560e01c80638da5cb5b116100715780638da5cb5b1461016257806398fbce7914610180578063a54925dd146101b4578063d9ff0cf1146101d0578063e71448a914610204578063f76ebe1c14610234576100a9565b80630a6b2a25146100ae5780630cc21200146100ca5780631cb71ed5146100e6578063687564ae146101165780636c230eef14610132575b600080fd5b6100c860048036038101906100c39190610bd4565b610252565b005b6100e460048036038101906100df9190610d47565b610287565b005b61010060048036038101906100fb9190610de6565b610344565b60405161010d9190610e4a565b60405180910390f35b610130600480360381019061012b9190610ec3565b61037a565b005b61014c60048036038101906101479190610bd4565b6104c7565b6040516101599190610f71565b60405180910390f35b61016a610685565b6040516101779190610f9b565b60405180910390f35b61019a60048036038101906101959190610bd4565b6106a9565b6040516101ab95949392919061103e565b60405180910390f35b6101ce60048036038101906101c9919061109f565b61088d565b005b6101ea60048036038101906101e59190610bd4565b610946565b6040516101fb95949392919061103e565b60405180910390f35b61021e60048036038101906102199190610de6565b610aac565b60405161022b9190610e4a565b60405180910390f35b61023c610ae1565b6040516102499190610f71565b60405180910390f35b600060036000838152602001908152602001600020905080600301600081548092919061027e9061110e565b91905055505050565b3373ffffffffffffffffffffffffffffffffffffffff16600160009054906101000a900473ffffffffffffffffffffffffffffffffffffffff1673ffffffffffffffffffffffffffffffffffffffff16146102e157600080fd5b600060036000868152602001908152602001600020905083816000019080519060200190610310929190610ae7565b5082816001019080519060200190610329929190610ae7565b50818160020181905550600081600301819055505050505050565b6004818051602081018201805184825260208301602085012081835280955050505050506000915054906101000a900460ff1681565b3373ffffffffffffffffffffffffffffffffffffffff16600160009054906101000a900473ffffffffffffffffffffffffffffffffffffffff1673ffffffffffffffffffffffffffffffffffffffff16146103d457600080fd5b600060036000600260008154809291906103ed9061110e565b919050558152602001908152602001600020905084816000019080519060200190610419929190610ae7565b5083816001019080519060200190610432929190610ae7565b5082816002018190555060008160030181905550818160040160006101000a81548173ffffffffffffffffffffffffffffffffffffffff021916908373ffffffffffffffffffffffffffffffffffffffff160217905550600160048660405161049b9190611193565b908152602001604051809103902060006101000a81548160ff0219169083151502179055505050505050565b600080600360008481526020019081526020016000206040518060a00160405290816000820180546104f8906111d9565b80601f0160208091040260200160405190810160405280929190818152602001828054610524906111d9565b80156105715780601f1061054657610100808354040283529160200191610571565b820191906000526020600020905b81548152906001019060200180831161055457829003601f168201915b5050505050815260200160018201805461058a906111d9565b80601f01602080910402602001604051908101604052809291908181526020018280546105b6906111d9565b80156106035780601f106105d857610100808354040283529160200191610603565b820191906000526020600020905b8154815290600101906020018083116105e657829003601f168201915b5050505050815260200160028201548152602001600382015481526020016004820160009054906101000a900473ffffffffffffffffffffffffffffffffffffffff1673ffffffffffffffffffffffffffffffffffffffff1673ffffffffffffffffffffffffffffffffffffffff168152505090508060400151915050919050565b60008054906101000a900473ffffffffffffffffffffffffffffffffffffffff1681565b606080600080600080600360008881526020019081526020016000206040518060a00160405290816000820180546106e0906111d9565b80601f016020809104026020016040519081016040528092919081815260200182805461070c906111d9565b80156107595780601f1061072e57610100808354040283529160200191610759565b820191906000526020600020905b81548152906001019060200180831161073c57829003601f168201915b50505050508152602001600182018054610772906111d9565b80601f016020809104026020016040519081016040528092919081815260200182805461079e906111d9565b80156107eb5780601f106107c0576101008083540402835291602001916107eb565b820191906000526020600020905b8154815290600101906020018083116107ce57829003601f168201915b5050505050815260200160028201548152602001600382015481526020016004820160009054906101000a900473ffffffffffffffffffffffffffffffffffffffff1673ffffffffffffffffffffffffffffffffffffffff1673ffffffffffffffffffffffffffffffffffffffff1681525050905080600001518160200151826040015183606001518460800151955095509550955095505091939590929450565b3373ffffffffffffffffffffffffffffffffffffffff16600160009054906101000a900473ffffffffffffffffffffffffffffffffffffffff1673ffffffffffffffffffffffffffffffffffffffff16146108e757600080fd5b6000600360008481526020019081526020016000209050818160040160006101000a81548173ffffffffffffffffffffffffffffffffffffffff021916908373ffffffffffffffffffffffffffffffffffffffff160217905550505050565b6003602052806000526040600020600091509050806000018054610969906111d9565b80601f0160208091040260200160405190810160405280929190818152602001828054610995906111d9565b80156109e25780601f106109b7576101008083540402835291602001916109e2565b820191906000526020600020905b8154815290600101906020018083116109c557829003601f168201915b5050505050908060010180546109f7906111d9565b80601f0160208091040260200160405190810160405280929190818152602001828054610a23906111d9565b8015610a705780601f10610a4557610100808354040283529160200191610a70565b820191906000526020600020905b815481529060010190602001808311610a5357829003601f168201915b5050505050908060020154908060030154908060040160009054906101000a900473ffffffffffffffffffffffffffffffffffffffff16905085565b6000600482604051610abe9190611193565b908152602001604051809103902060009054906101000a900460ff169050919050565b60025481565b828054610af3906111d9565b90600052602060002090601f016020900481019282610b155760008555610b5c565b82601f10610b2e57805160ff1916838001178555610b5c565b82800160010185558215610b5c579182015b82811115610b5b578251825591602001919060010190610b40565b5b509050610b699190610b6d565b5090565b5b80821115610b86576000816000905550600101610b6e565b5090565b6000604051905090565b600080fd5b600080fd5b6000819050919050565b610bb181610b9e565b8114610bbc57600080fd5b50565b600081359050610bce81610ba8565b92915050565b600060208284031215610bea57610be9610b94565b5b6000610bf884828501610bbf565b91505092915050565b600080fd5b600080fd5b6000601f19601f8301169050919050565b7f4e487b7100000000000000000000000000000000000000000000000000000000600052604160045260246000fd5b610c5482610c0b565b810181811067ffffffffffffffff82111715610c7357610c72610c1c565b5b80604052505050565b6000610c86610b8a565b9050610c928282610c4b565b919050565b600067ffffffffffffffff821115610cb257610cb1610c1c565b5b610cbb82610c0b565b9050602081019050919050565b82818337600083830152505050565b6000610cea610ce584610c97565b610c7c565b905082815260208101848484011115610d0657610d05610c06565b5b610d11848285610cc8565b509392505050565b600082601f830112610d2e57610d2d610c01565b5b8135610d3e848260208601610cd7565b91505092915050565b60008060008060808587031215610d6157610d60610b94565b5b6000610d6f87828801610bbf565b945050602085013567ffffffffffffffff811115610d9057610d8f610b99565b5b610d9c87828801610d19565b935050604085013567ffffffffffffffff811115610dbd57610dbc610b99565b5b610dc987828801610d19565b9250506060610dda87828801610bbf565b91505092959194509250565b600060208284031215610dfc57610dfb610b94565b5b600082013567ffffffffffffffff811115610e1a57610e19610b99565b5b610e2684828501610d19565b91505092915050565b60008115159050919050565b610e4481610e2f565b82525050565b6000602082019050610e5f6000830184610e3b565b92915050565b600073ffffffffffffffffffffffffffffffffffffffff82169050919050565b6000610e9082610e65565b9050919050565b610ea081610e85565b8114610eab57600080fd5b50565b600081359050610ebd81610e97565b92915050565b60008060008060808587031215610edd57610edc610b94565b5b600085013567ffffffffffffffff811115610efb57610efa610b99565b5b610f0787828801610d19565b945050602085013567ffffffffffffffff811115610f2857610f27610b99565b5b610f3487828801610d19565b9350506040610f4587828801610bbf565b9250506060610f5687828801610eae565b91505092959194509250565b610f6b81610b9e565b82525050565b6000602082019050610f866000830184610f62565b92915050565b610f9581610e85565b82525050565b6000602082019050610fb06000830184610f8c565b92915050565b600081519050919050565b600082825260208201905092915050565b60005b83811015610ff0578082015181840152602081019050610fd5565b83811115610fff576000848401525b50505050565b600061101082610fb6565b61101a8185610fc1565b935061102a818560208601610fd2565b61103381610c0b565b840191505092915050565b600060a08201905081810360008301526110588188611005565b9050818103602083015261106c8187611005565b905061107b6040830186610f62565b6110886060830185610f62565b6110956080830184610f8c565b9695505050505050565b600080604083850312156110b6576110b5610b94565b5b60006110c485828601610bbf565b92505060206110d585828601610eae565b9150509250929050565b7f4e487b7100000000000000000000000000000000000000000000000000000000600052601160045260246000fd5b600061111982610b9e565b91507fffffffffffffffffffffffffffffffffffffffffffffffffffffffffffffffff82141561114c5761114b6110df565b5b600182019050919050565b600081905092915050565b600061116d82610fb6565b6111778185611157565b9350611187818560208601610fd2565b80840191505092915050565b600061119f8284611162565b915081905092915050565b7f4e487b7100000000000000000000000000000000000000000000000000000000600052602260045260246000fd5b600060028204905060018216806111f157607f821691505b60208210811415611205576112046111aa565b5b5091905056fea26469706673582212207295d9df1302a08b413a7effeaee3ccc7ab05e3952e7a0275de23cac8fd9b81164736f6c634300080a003360806040523480156200001157600080fd5b50604051620011d8380380620011d8833981810160405281019062000037919062000129565b806000806101000a81548173ffffffffffffffffffffffffffffffffffffffff021916908373ffffffffffffffffffffffffffffffffffffffff16021790555033600160006101000a81548173ffffffffffffffffffffffffffffffffffffffff021916908373ffffffffffffffffffffffffffffffffffffffff160217905550506200015b565b600080fd5b600073ffffffffffffffffffffffffffffffffffffffff82169050919050565b6000620000f182620000c4565b9050919050565b6200010381620000e4565b81146200010f57600080fd5b50565b6000815190506200012381620000f8565b92915050565b600060208284031215620001425762000141620000bf565b5b6000620001528482850162000112565b91505092915050565b61106d806200016b6000396000f3fe608060405234801561001057600080fd5b50600436106101005760003560e01c8063a1cb5cf211610097578063e3e1f00111610066578063e3e1f001146102c1578063e597ef12146102df578063ecded204146102fb578063f3c95c601461032b57610100565b8063a1cb5cf214610237578063a5a9c51814610255578063a87430ba14610271578063cbaf3186146102a557610100565b80634420e486116100d35780634420e486146101c55780634a09db4f146101e15780637c4dd96d146101fd5780638da5cb5b1461021957610100565b806319aa98a314610105578063371e91ca146101355780633cbdec03146101655780634172fb8914610195575b600080fd5b61011f600480360381019061011a9190610e15565b61035b565b60405161012c9190610e5b565b60405180910390f35b61014f600480360381019061014a9190610ea2565b6103ac565b60405161015c9190610efd565b60405180910390f35b61017f600480360381019061017a9190610ea2565b610414565b60405161018c9190610efd565b60405180910390f35b6101af60048036038101906101aa9190610e15565b610443565b6040516101bc9190610efd565b60405180910390f35b6101df60048036038101906101da9190610e15565b610499565b005b6101fb60048036038101906101f69190610ea2565b61064a565b005b61021760048036038101906102129190610e15565b6107c5565b005b6102216108f5565b60405161022e9190610f27565b60405180910390f35b61023f610919565b60405161024c9190610e5b565b60405180910390f35b61026f600480360381019061026a9190610ea2565b610923565b005b61028b60048036038101906102869190610e15565b610ab8565b60405161029c959493929190610f42565b60405180910390f35b6102bf60048036038101906102ba9190610e15565b610b0e565b005b6102c9610bdb565b6040516102d69190610e5b565b60405180910390f35b6102f960048036038101906102f49190610ea2565b610be1565b005b61031560048036038101906103109190610e15565b610d3c565b6040516103229190610efd565b60405180910390f35b61034560048036038101906103409190610e15565b610d92565b6040516103529190610efd565b60405180910390f35b600080600360008473ffffffffffffffffffffffffffffffffffffffff1673ffffffffffffffffffffffffffffffffffffffff16815260200190815260200160002090508060020154915050919050565b6000600560008473ffffffffffffffffffffffffffffffffffffffff1673ffffffffffffffffffffffffffffffffffffffff168152602001908152602001600020600083815260200190815260200160002060009054906101000a900460ff16905092915050565b60056020528160005260406000206020528060005260406000206000915091509054906101000a900460ff1681565b6000600760008373ffffffffffffffffffffffffffffffffffffffff1673ffffffffffffffffffffffffffffffffffffffff16815260200190815260200160002060009054906101000a900460ff169050919050565b3373ffffffffffffffffffffffffffffffffffffffff16600160009054906101000a900473ffffffffffffffffffffffffffffffffffffffff1673ffffffffffffffffffffffffffffffffffffffff16146104f357600080fd5b600460008273ffffffffffffffffffffffffffffffffffffffff1673ffffffffffffffffffffffffffffffffffffffff16815260200190815260200160002060009054906101000a900460ff161561054a57600080fd5b6001600460008373ffffffffffffffffffffffffffffffffffffffff1673ffffffffffffffffffffffffffffffffffffffff16815260200190815260200160002060006101000a81548160ff0219169083151502179055506000600360008373ffffffffffffffffffffffffffffffffffffffff1673ffffffffffffffffffffffffffffffffffffffff1681526020019081526020016000209050818160000160006101000a81548173ffffffffffffffffffffffffffffffffffffffff021916908373ffffffffffffffffffffffffffffffffffffffff1602179055506000816002018190555060008160030181905550600081600501819055505050565b3373ffffffffffffffffffffffffffffffffffffffff16600160009054906101000a900473ffffffffffffffffffffffffffffffffffffffff1673ffffffffffffffffffffffffffffffffffffffff16146106a457600080fd5b600460008373ffffffffffffffffffffffffffffffffffffffff1673ffffffffffffffffffffffffffffffffffffffff16815260200190815260200160002060009054906101000a900460ff166106fa57600080fd5b6000600360008473ffffffffffffffffffffffffffffffffffffffff1673ffffffffffffffffffffffffffffffffffffffff16815260200190815260200160002090506000600560008573ffffffffffffffffffffffffffffffffffffffff1673ffffffffffffffffffffffffffffffffffffffff168152602001908152602001600020600084815260200190815260200160002060006101000a81548160ff0219169083151502179055508060020160008154809291906107bb90610fc4565b9190505550505050565b3373ffffffffffffffffffffffffffffffffffffffff16600160009054906101000a900473ffffffffffffffffffffffffffffffffffffffff1673ffffffffffffffffffffffffffffffffffffffff161461081f57600080fd5b6001600760008373ffffffffffffffffffffffffffffffffffffffff1673ffffffffffffffffffffffffffffffffffffffff16815260200190815260200160002060006101000a81548160ff0219169083151502179055506008819080600181540180825580915050600190039060005260206000200160009091909190916101000a81548173ffffffffffffffffffffffffffffffffffffffff021916908373ffffffffffffffffffffffffffffffffffffffff160217905550600660008154809291906108ed90610fee565b919050555050565b60008054906101000a900473ffffffffffffffffffffffffffffffffffffffff1681565b6000600654905090565b3373ffffffffffffffffffffffffffffffffffffffff16600160009054906101000a900473ffffffffffffffffffffffffffffffffffffffff1673ffffffffffffffffffffffffffffffffffffffff161461097d57600080fd5b600460008373ffffffffffffffffffffffffffffffffffffffff1673ffffffffffffffffffffffffffffffffffffffff16815260200190815260200160002060009054906101000a900460ff166109d357600080fd5b6000600360008473ffffffffffffffffffffffffffffffffffffffff1673ffffffffffffffffffffffffffffffffffffffff16815260200190815260200160002090506001600560008573ffffffffffffffffffffffffffffffffffffffff1673ffffffffffffffffffffffffffffffffffffffff168152602001908152602001600020600084815260200190815260200160002060006101000a81548160ff021916908315150217905550806002016000815480929190610a9490610fee565b9190505550806003016000815480929190610aae90610fee565b9190505550505050565b60036020528060005260406000206000915090508060000160009054906101000a900473ffffffffffffffffffffffffffffffffffffffff16908060010154908060020154908060030154908060050154905085565b3373ffffffffffffffffffffffffffffffffffffffff16600160009054906101000a900473ffffffffffffffffffffffffffffffffffffffff1673ffffffffffffffffffffffffffffffffffffffff1614610b6857600080fd5b6000600760008373ffffffffffffffffffffffffffffffffffffffff1673ffffffffffffffffffffffffffffffffffffffff16815260200190815260200160002060006101000a81548160ff02191690831515021790555060066000815480929190610bd390610fc4565b919050555050565b60025481565b3373ffffffffffffffffffffffffffffffffffffffff16600160009054906101000a900473ffffffffffffffffffffffffffffffffffffffff1673ffffffffffffffffffffffffffffffffffffffff1614610c3b57600080fd5b600460008373ffffffffffffffffffffffffffffffffffffffff1673ffffffffffffffffffffffffffffffffffffffff16815260200190815260200160002060009054906101000a900460ff16610c9157600080fd5b6000600360008473ffffffffffffffffffffffffffffffffffffffff1673ffffffffffffffffffffffffffffffffffffffff168152602001908152602001600020905080600601829080600181540180825580915050600190039060005260206000200160009091909190915055806005015481600701600084815260200190815260200160002081905550806005016000815480929190610d3290610fee565b9190505550505050565b6000600460008373ffffffffffffffffffffffffffffffffffffffff1673ffffffffffffffffffffffffffffffffffffffff16815260200190815260200160002060009054906101000a900460ff169050919050565b60046020528060005260406000206000915054906101000a900460ff1681565b600080fd5b600073ffffffffffffffffffffffffffffffffffffffff82169050919050565b6000610de282610db7565b9050919050565b610df281610dd7565b8114610dfd57600080fd5b50565b600081359050610e0f81610de9565b92915050565b600060208284031215610e2b57610e2a610db2565b5b6000610e3984828501610e00565b91505092915050565b6000819050919050565b610e5581610e42565b82525050565b6000602082019050610e706000830184610e4c565b92915050565b610e7f81610e42565b8114610e8a57600080fd5b50565b600081359050610e9c81610e76565b92915050565b60008060408385031215610eb957610eb8610db2565b5b6000610ec785828601610e00565b9250506020610ed885828601610e8d565b9150509250929050565b60008115159050919050565b610ef781610ee2565b82525050565b6000602082019050610f126000830184610eee565b92915050565b610f2181610dd7565b82525050565b6000602082019050610f3c6000830184610f18565b92915050565b600060a082019050610f576000830188610f18565b610f646020830187610e4c565b610f716040830186610e4c565b610f7e6060830185610e4c565b610f8b6080830184610e4c565b9695505050505050565b7f4e487b7100000000000000000000000000000000000000000000000000000000600052601160045260246000fd5b6000610fcf82610e42565b91506000821415610fe357610fe2610f95565b5b600182039050919050565b6000610ff982610e42565b91507fffffffffffffffffffffffffffffffffffffffffffffffffffffffffffffffff82141561102c5761102b610f95565b5b60018201905091905056fea2646970667358221220bb973744aac5374b326dfe497d73102d3ea9f6bb2a23c5f10c5e19dc1c3e486164736f6c634300080a003360806040523480156200001157600080fd5b506040516200117a3803806200117a833981810160405281019062000037919062000129565b806000806101000a81548173ffffffffffffffffffffffffffffffffffffffff021916908373ffffffffffffffffffffffffffffffffffffffff16021790555033600160006101000a81548173ffffffffffffffffffffffffffffffffffffffff021916908373ffffffffffffffffffffffffffffffffffffffff160217905550506200015b565b600080fd5b600073ffffffffffffffffffffffffffffffffffffffff82169050919050565b6000620000f182620000c4565b9050919050565b6200010381620000e4565b81146200010f57600080fd5b50565b6000815190506200012381620000f8565b92915050565b600060208284031215620001425762000141620000bf565b5b6000620001528482850162000112565b91505092915050565b61100f806200016b6000396000f3fe608060405234801561001057600080fd5b50600436106100cf5760003560e01c8063921c47b11161008c578063ab21a2be11610066578063ab21a2be14610252578063ca5140c91461026e578063ef228c921461028a578063f6b4dfb4146102a6576100cf565b8063921c47b1146101d457806398af1f07146101f2578063a46d8ac714610222576100cf565b80631ce06944146100d45780633b2f71181461010457806367615ad51461013457806383b65cb4146101645780638da5cb5b1461019a5780638dbbfbde146101b8575b600080fd5b6100ee60048036038101906100e99190610c77565b6102c4565b6040516100fb9190610cb3565b60405180910390f35b61011e60048036038101906101199190610c77565b6103e3565b60405161012b9190610d0f565b60405180910390f35b61014e60048036038101906101499190610c77565b610502565b60405161015b9190610cb3565b60405180910390f35b61017e60048036038101906101799190610c77565b610621565b6040516101919796959493929190610d45565b60405180910390f35b6101a26106b0565b6040516101af9190610d0f565b60405180910390f35b6101d260048036038101906101cd9190610db4565b6106d4565b005b6101dc61076d565b6040516101e99190610cb3565b60405180910390f35b61020c60048036038101906102079190610c77565b610773565b6040516102199190610e07565b60405180910390f35b61023c60048036038101906102379190610e4e565b610892565b6040516102499190610cb3565b60405180910390f35b61026c60048036038101906102679190610eb5565b6109f8565b005b61028860048036038101906102839190610c77565b610ac1565b005b6102a4600480360381019061029f9190610f21565b610b74565b005b6102ae610c16565b6040516102bb9190610d0f565b60405180910390f35b600080600360008481526020019081526020016000206040518060e0016040529081600082015481526020016001820160009054906101000a900473ffffffffffffffffffffffffffffffffffffffff1673ffffffffffffffffffffffffffffffffffffffff1673ffffffffffffffffffffffffffffffffffffffff168152602001600282015481526020016003820160009054906101000a900473ffffffffffffffffffffffffffffffffffffffff1673ffffffffffffffffffffffffffffffffffffffff1673ffffffffffffffffffffffffffffffffffffffff1681526020016003820160149054906101000a900460ff161515151581526020016004820154815260200160058201548152505090508060c00151915050919050565b600080600360008481526020019081526020016000206040518060e0016040529081600082015481526020016001820160009054906101000a900473ffffffffffffffffffffffffffffffffffffffff1673ffffffffffffffffffffffffffffffffffffffff1673ffffffffffffffffffffffffffffffffffffffff168152602001600282015481526020016003820160009054906101000a900473ffffffffffffffffffffffffffffffffffffffff1673ffffffffffffffffffffffffffffffffffffffff1673ffffffffffffffffffffffffffffffffffffffff1681526020016003820160149054906101000a900460ff161515151581526020016004820154815260200160058201548152505090508060600151915050919050565b600080600360008481526020019081526020016000206040518060e0016040529081600082015481526020016001820160009054906101000a900473ffffffffffffffffffffffffffffffffffffffff1673ffffffffffffffffffffffffffffffffffffffff1673ffffffffffffffffffffffffffffffffffffffff168152602001600282015481526020016003820160009054906101000a900473ffffffffffffffffffffffffffffffffffffffff1673ffffffffffffffffffffffffffffffffffffffff1673ffffffffffffffffffffffffffffffffffffffff1681526020016003820160149054906101000a900460ff161515151581526020016004820154815260200160058201548152505090508060400151915050919050565b60036020528060005260406000206000915090508060000154908060010160009054906101000a900473ffffffffffffffffffffffffffffffffffffffff16908060020154908060030160009054906101000a900473ffffffffffffffffffffffffffffffffffffffff16908060030160149054906101000a900460ff16908060040154908060050154905087565b60008054906101000a900473ffffffffffffffffffffffffffffffffffffffff1681565b8260025481106106e357600080fd5b3373ffffffffffffffffffffffffffffffffffffffff16600160009054906101000a900473ffffffffffffffffffffffffffffffffffffffff1673ffffffffffffffffffffffffffffffffffffffff161461073d57600080fd5b60006003600086815260200190815260200160002090508381600401819055508281600501819055505050505050565b60025481565b600080600360008481526020019081526020016000206040518060e0016040529081600082015481526020016001820160009054906101000a900473ffffffffffffffffffffffffffffffffffffffff1673ffffffffffffffffffffffffffffffffffffffff1673ffffffffffffffffffffffffffffffffffffffff168152602001600282015481526020016003820160009054906101000a900473ffffffffffffffffffffffffffffffffffffffff1673ffffffffffffffffffffffffffffffffffffffff1673ffffffffffffffffffffffffffffffffffffffff1681526020016003820160149054906101000a900460ff161515151581526020016004820154815260200160058201548152505090508060800151915050919050565b60003373ffffffffffffffffffffffffffffffffffffffff16600160009054906101000a900473ffffffffffffffffffffffffffffffffffffffff1673ffffffffffffffffffffffffffffffffffffffff16146108ee57600080fd5b600060036000600254815260200190815260200160002090506002548160000181905550848160020181905550858160010160006101000a81548173ffffffffffffffffffffffffffffffffffffffff021916908373ffffffffffffffffffffffffffffffffffffffff160217905550858160030160006101000a81548173ffffffffffffffffffffffffffffffffffffffff021916908373ffffffffffffffffffffffffffffffffffffffff16021790555060008160030160146101000a81548160ff021916908315150217905550838160040181905550828160050181905550600260008154809291906109e390610f90565b91905055508060000154915050949350505050565b816002548110610a0757600080fd5b3373ffffffffffffffffffffffffffffffffffffffff16600160009054906101000a900473ffffffffffffffffffffffffffffffffffffffff1673ffffffffffffffffffffffffffffffffffffffff1614610a6157600080fd5b6000600360008581526020019081526020016000209050828160030160006101000a81548173ffffffffffffffffffffffffffffffffffffffff021916908373ffffffffffffffffffffffffffffffffffffffff16021790555050505050565b806002548110610ad057600080fd5b3373ffffffffffffffffffffffffffffffffffffffff16600160009054906101000a900473ffffffffffffffffffffffffffffffffffffffff1673ffffffffffffffffffffffffffffffffffffffff1614610b2a57600080fd5b6000600360008481526020019081526020016000209050610b6f838260010160009054906101000a900473ffffffffffffffffffffffffffffffffffffffff166109f8565b505050565b816002548110610b8357600080fd5b3373ffffffffffffffffffffffffffffffffffffffff16600160009054906101000a900473ffffffffffffffffffffffffffffffffffffffff1673ffffffffffffffffffffffffffffffffffffffff1614610bdd57600080fd5b6000600360008581526020019081526020016000209050828160030160146101000a81548160ff02191690831515021790555050505050565b600160009054906101000a900473ffffffffffffffffffffffffffffffffffffffff1681565b600080fd5b6000819050919050565b610c5481610c41565b8114610c5f57600080fd5b50565b600081359050610c7181610c4b565b92915050565b600060208284031215610c8d57610c8c610c3c565b5b6000610c9b84828501610c62565b91505092915050565b610cad81610c41565b82525050565b6000602082019050610cc86000830184610ca4565b92915050565b600073ffffffffffffffffffffffffffffffffffffffff82169050919050565b6000610cf982610cce565b9050919050565b610d0981610cee565b82525050565b6000602082019050610d246000830184610d00565b92915050565b60008115159050919050565b610d3f81610d2a565b82525050565b600060e082019050610d5a600083018a610ca4565b610d676020830189610d00565b610d746040830188610ca4565b610d816060830187610d00565b610d8e6080830186610d36565b610d9b60a0830185610ca4565b610da860c0830184610ca4565b98975050505050505050565b600080600060608486031215610dcd57610dcc610c3c565b5b6000610ddb86828701610c62565b9350506020610dec86828701610c62565b9250506040610dfd86828701610c62565b9150509250925092565b6000602082019050610e1c6000830184610d36565b92915050565b610e2b81610cee565b8114610e3657600080fd5b50565b600081359050610e4881610e22565b92915050565b60008060008060808587031215610e6857610e67610c3c565b5b6000610e7687828801610e39565b9450506020610e8787828801610c62565b9350506040610e9887828801610c62565b9250506060610ea987828801610c62565b91505092959194509250565b60008060408385031215610ecc57610ecb610c3c565b5b6000610eda85828601610c62565b9250506020610eeb85828601610e39565b9150509250929050565b610efe81610d2a565b8114610f0957600080fd5b50565b600081359050610f1b81610ef5565b92915050565b60008060408385031215610f3857610f37610c3c565b5b6000610f4685828601610c62565b9250506020610f5785828601610f0c565b9150509250929050565b7f4e487b7100000000000000000000000000000000000000000000000000000000600052601160045260246000fd5b6000610f9b82610c41565b91507fffffffffffffffffffffffffffffffffffffffffffffffffffffffffffffffff821415610fce57610fcd610f61565b5b60018201905091905056fea264697066735822122094bb1268f636dc54664e57f48315f20feecf31084178cb0666b50a280f4b2b8464736f6c634300080a0033a264697066735822122006520a1dd0db5a151a0867b7db1498d8e271580bf1388dac449a82387af4bacd64736f6c634300080a0033","opcodes":"PUSH1 0x80 PUSH1 0x40 MSTORE CALLVALUE DUP1 ISZERO PUSH2 0x10 JUMPI PUSH1 0x0 DUP1 REVERT JUMPDEST POP PUSH2 0x5DAE DUP1 PUSH2 0x20 PUSH1 0x0 CODECOPY PUSH1 0x0 RETURN INVALID PUSH1 0x80 PUSH1 0x40 MSTORE CALLVALUE DUP1 ISZERO PUSH3 0x11 JUMPI PUSH1 0x0 DUP1 REVERT JUMPDEST POP PUSH1 0x4 CALLDATASIZE LT PUSH3 0x46 JUMPI PUSH1 0x0 CALLDATALOAD PUSH1 0xE0 SHR DUP1 PUSH4 0x73B1BE38 EQ PUSH3 0x4B JUMPI DUP1 PUSH4 0x98FE1356 EQ PUSH3 0x6B JUMPI DUP1 PUSH4 0xF4B2B9B0 EQ PUSH3 0xA1 JUMPI JUMPDEST PUSH1 0x0 DUP1 REVERT JUMPDEST PUSH3 0x69 PUSH1 0x4 DUP1 CALLDATASIZE SUB DUP2 ADD SWAP1 PUSH3 0x63 SWAP2 SWAP1 PUSH3 0x287 JUMP JUMPDEST PUSH3 0xC3 JUMP JUMPDEST STOP JUMPDEST PUSH3 0x89 PUSH1 0x4 DUP1 CALLDATASIZE SUB DUP2 ADD SWAP1 PUSH3 0x83 SWAP2 SWAP1 PUSH3 0x287 JUMP JUMPDEST PUSH3 0x169 JUMP JUMPDEST PUSH1 0x40 MLOAD PUSH3 0x98 SWAP2 SWAP1 PUSH3 0x2FE JUMP JUMPDEST PUSH1 0x40 MLOAD DUP1 SWAP2 SUB SWAP1 RETURN JUMPDEST PUSH3 0xAB PUSH3 0x1A9 JUMP JUMPDEST PUSH1 0x40 MLOAD PUSH3 0xBA SWAP2 SWAP1 PUSH3 0x3E9 JUMP JUMPDEST PUSH1 0x40 MLOAD DUP1 SWAP2 SUB SWAP1 RETURN JUMPDEST PUSH1 0x0 DUP2 CALLER PUSH1 0x40 MLOAD PUSH3 0xD5 SWAP1 PUSH3 0x239 JUMP JUMPDEST PUSH3 0xE2 SWAP3 SWAP2 SWAP1 PUSH3 0x41E JUMP JUMPDEST PUSH1 0x40 MLOAD DUP1 SWAP2 SUB SWAP1 PUSH1 0x0 CREATE DUP1 ISZERO DUP1 ISZERO PUSH3 0xFF JUMPI RETURNDATASIZE PUSH1 0x0 DUP1 RETURNDATACOPY RETURNDATASIZE PUSH1 0x0 REVERT JUMPDEST POP SWAP1 POP PUSH1 0x0 DUP2 SWAP1 DUP1 PUSH1 0x1 DUP2 SLOAD ADD DUP1 DUP3 SSTORE DUP1 SWAP2 POP POP PUSH1 0x1 SWAP1 SUB SWAP1 PUSH1 0x0 MSTORE PUSH1 0x20 PUSH1 0x0 KECCAK256 ADD PUSH1 0x0 SWAP1 SWAP2 SWAP1 SWAP2 SWAP1 SWAP2 PUSH2 0x100 EXP DUP2 SLOAD DUP2 PUSH20 0xFFFFFFFFFFFFFFFFFFFFFFFFFFFFFFFFFFFFFFFF MUL NOT AND SWAP1 DUP4 PUSH20 0xFFFFFFFFFFFFFFFFFFFFFFFFFFFFFFFFFFFFFFFF AND MUL OR SWAP1 SSTORE POP POP POP JUMP JUMPDEST PUSH1 0x0 DUP2 DUP2 SLOAD DUP2 LT PUSH3 0x17A JUMPI PUSH1 0x0 DUP1 REVERT JUMPDEST SWAP1 PUSH1 0x0 MSTORE PUSH1 0x20 PUSH1 0x0 KECCAK256 ADD PUSH1 0x0 SWAP2 POP SLOAD SWAP1 PUSH2 0x100 EXP SWAP1 DIV PUSH20 0xFFFFFFFFFFFFFFFFFFFFFFFFFFFFFFFFFFFFFFFF AND DUP2 JUMP JUMPDEST PUSH1 0x60 PUSH1 0x0 DUP1 SLOAD DUP1 PUSH1 0x20 MUL PUSH1 0x20 ADD PUSH1 0x40 MLOAD SWAP1 DUP2 ADD PUSH1 0x40 MSTORE DUP1 SWAP3 SWAP2 SWAP1 DUP2 DUP2 MSTORE PUSH1 0x20 ADD DUP3 DUP1 SLOAD DUP1 ISZERO PUSH3 0x22F JUMPI PUSH1 0x20 MUL DUP3 ADD SWAP2 SWAP1 PUSH1 0x0 MSTORE PUSH1 0x20 PUSH1 0x0 KECCAK256 SWAP1 JUMPDEST DUP2 PUSH1 0x0 SWAP1 SLOAD SWAP1 PUSH2 0x100 EXP SWAP1 DIV PUSH20 0xFFFFFFFFFFFFFFFFFFFFFFFFFFFFFFFFFFFFFFFF AND PUSH20 0xFFFFFFFFFFFFFFFFFFFFFFFFFFFFFFFFFFFFFFFF AND DUP2 MSTORE PUSH1 0x20 ADD SWAP1 PUSH1 0x1 ADD SWAP1 DUP1 DUP4 GT PUSH3 0x1E4 JUMPI JUMPDEST POP POP POP POP POP SWAP1 POP SWAP1 JUMP JUMPDEST PUSH2 0x592D DUP1 PUSH3 0x44C DUP4 CODECOPY ADD SWAP1 JUMP JUMPDEST PUSH1 0x0 DUP1 REVERT JUMPDEST PUSH1 0x0 DUP2 SWAP1 POP SWAP2 SWAP1 POP JUMP JUMPDEST PUSH3 0x261 DUP2 PUSH3 0x24C JUMP JUMPDEST DUP2 EQ PUSH3 0x26D JUMPI PUSH1 0x0 DUP1 REVERT JUMPDEST POP JUMP JUMPDEST PUSH1 0x0 DUP2 CALLDATALOAD SWAP1 POP PUSH3 0x281 DUP2 PUSH3 0x256 JUMP JUMPDEST SWAP3 SWAP2 POP POP JUMP JUMPDEST PUSH1 0x0 PUSH1 0x20 DUP3 DUP5 SUB SLT ISZERO PUSH3 0x2A0 JUMPI PUSH3 0x29F PUSH3 0x247 JUMP JUMPDEST JUMPDEST PUSH1 0x0 PUSH3 0x2B0 DUP5 DUP3 DUP6 ADD PUSH3 0x270 JUMP JUMPDEST SWAP2 POP POP SWAP3 SWAP2 POP POP JUMP JUMPDEST PUSH1 0x0 PUSH20 0xFFFFFFFFFFFFFFFFFFFFFFFFFFFFFFFFFFFFFFFF DUP3 AND SWAP1 POP SWAP2 SWAP1 POP JUMP JUMPDEST PUSH1 0x0 PUSH3 0x2E6 DUP3 PUSH3 0x2B9 JUMP JUMPDEST SWAP1 POP SWAP2 SWAP1 POP JUMP JUMPDEST PUSH3 0x2F8 DUP2 PUSH3 0x2D9 JUMP JUMPDEST DUP3 MSTORE POP POP JUMP JUMPDEST PUSH1 0x0 PUSH1 0x20 DUP3 ADD SWAP1 POP PUSH3 0x315 PUSH1 0x0 DUP4 ADD DUP5 PUSH3 0x2ED JUMP JUMPDEST SWAP3 SWAP2 POP POP JUMP JUMPDEST PUSH1 0x0 DUP2 MLOAD SWAP1 POP SWAP2 SWAP1 POP JUMP JUMPDEST PUSH1 0x0 DUP3 DUP3 MSTORE PUSH1 0x20 DUP3 ADD SWAP1 POP SWAP3 SWAP2 POP POP JUMP JUMPDEST PUSH1 0x0 DUP2 SWAP1 POP PUSH1 0x20 DUP3 ADD SWAP1 POP SWAP2 SWAP1 POP JUMP JUMPDEST PUSH3 0x352 DUP2 PUSH3 0x2D9 JUMP JUMPDEST DUP3 MSTORE POP POP JUMP JUMPDEST PUSH1 0x0 PUSH3 0x366 DUP4 DUP4 PUSH3 0x347 JUMP JUMPDEST PUSH1 0x20 DUP4 ADD SWAP1 POP SWAP3 SWAP2 POP POP JUMP JUMPDEST PUSH1 0x0 PUSH1 0x20 DUP3 ADD SWAP1 POP SWAP2 SWAP1 POP JUMP JUMPDEST PUSH1 0x0 PUSH3 0x38C DUP3 PUSH3 0x31B JUMP JUMPDEST PUSH3 0x398 DUP2 DUP6 PUSH3 0x326 JUMP JUMPDEST SWAP4 POP PUSH3 0x3A5 DUP4 PUSH3 0x337 JUMP JUMPDEST DUP1 PUSH1 0x0 JUMPDEST DUP4 DUP2 LT ISZERO PUSH3 0x3DC JUMPI DUP2 MLOAD PUSH3 0x3C0 DUP9 DUP3 PUSH3 0x358 JUMP JUMPDEST SWAP8 POP PUSH3 0x3CD DUP4 PUSH3 0x372 JUMP JUMPDEST SWAP3 POP POP PUSH1 0x1 DUP2 ADD SWAP1 POP PUSH3 0x3A9 JUMP JUMPDEST POP DUP6 SWAP4 POP POP POP POP SWAP3 SWAP2 POP POP JUMP JUMPDEST PUSH1 0x0 PUSH1 0x20 DUP3 ADD SWAP1 POP DUP2 DUP2 SUB PUSH1 0x0 DUP4 ADD MSTORE PUSH3 0x405 DUP2 DUP5 PUSH3 0x37F JUMP JUMPDEST SWAP1 POP SWAP3 SWAP2 POP POP JUMP JUMPDEST PUSH3 0x418 DUP2 PUSH3 0x24C JUMP JUMPDEST DUP3 MSTORE POP POP JUMP JUMPDEST PUSH1 0x0 PUSH1 0x40 DUP3 ADD SWAP1 POP PUSH3 0x435 PUSH1 0x0 DUP4 ADD DUP6 PUSH3 0x40D JUMP JUMPDEST PUSH3 0x444 PUSH1 0x20 DUP4 ADD DUP5 PUSH3 0x2ED JUMP JUMPDEST SWAP4 SWAP3 POP POP POP JUMP INVALID PUSH1 0x80 PUSH1 0x40 MSTORE CALLVALUE DUP1 ISZERO PUSH3 0x11 JUMPI PUSH1 0x0 DUP1 REVERT JUMPDEST POP PUSH1 0x40 MLOAD PUSH3 0x592D CODESIZE SUB DUP1 PUSH3 0x592D DUP4 CODECOPY DUP2 DUP2 ADD PUSH1 0x40 MSTORE DUP2 ADD SWAP1 PUSH3 0x37 SWAP2 SWAP1 PUSH3 0x560 JUMP JUMPDEST DUP1 PUSH1 0x0 DUP1 PUSH2 0x100 EXP DUP2 SLOAD DUP2 PUSH20 0xFFFFFFFFFFFFFFFFFFFFFFFFFFFFFFFFFFFFFFFF MUL NOT AND SWAP1 DUP4 PUSH20 0xFFFFFFFFFFFFFFFFFFFFFFFFFFFFFFFFFFFFFFFF AND MUL OR SWAP1 SSTORE POP PUSH1 0x0 DUP1 SLOAD SWAP1 PUSH2 0x100 EXP SWAP1 DIV PUSH20 0xFFFFFFFFFFFFFFFFFFFFFFFFFFFFFFFFFFFFFFFF AND PUSH1 0x40 MLOAD PUSH3 0xA6 SWAP1 PUSH3 0x491 JUMP JUMPDEST PUSH3 0xB2 SWAP2 SWAP1 PUSH3 0x5B8 JUMP JUMPDEST PUSH1 0x40 MLOAD DUP1 SWAP2 SUB SWAP1 PUSH1 0x0 CREATE DUP1 ISZERO DUP1 ISZERO PUSH3 0xCF JUMPI RETURNDATASIZE PUSH1 0x0 DUP1 RETURNDATACOPY RETURNDATASIZE PUSH1 0x0 REVERT JUMPDEST POP PUSH1 0x1 PUSH1 0x0 PUSH2 0x100 EXP DUP2 SLOAD DUP2 PUSH20 0xFFFFFFFFFFFFFFFFFFFFFFFFFFFFFFFFFFFFFFFF MUL NOT AND SWAP1 DUP4 PUSH20 0xFFFFFFFFFFFFFFFFFFFFFFFFFFFFFFFFFFFFFFFF AND MUL OR SWAP1 SSTORE POP PUSH1 0x0 DUP1 SLOAD SWAP1 PUSH2 0x100 EXP SWAP1 DIV PUSH20 0xFFFFFFFFFFFFFFFFFFFFFFFFFFFFFFFFFFFFFFFF AND PUSH1 0x40 MLOAD PUSH3 0x13F SWAP1 PUSH3 0x49F JUMP JUMPDEST PUSH3 0x14B SWAP2 SWAP1 PUSH3 0x5B8 JUMP JUMPDEST PUSH1 0x40 MLOAD DUP1 SWAP2 SUB SWAP1 PUSH1 0x0 CREATE DUP1 ISZERO DUP1 ISZERO PUSH3 0x168 JUMPI RETURNDATASIZE PUSH1 0x0 DUP1 RETURNDATACOPY RETURNDATASIZE PUSH1 0x0 REVERT JUMPDEST POP PUSH1 0x2 PUSH1 0x0 PUSH2 0x100 EXP DUP2 SLOAD DUP2 PUSH20 0xFFFFFFFFFFFFFFFFFFFFFFFFFFFFFFFFFFFFFFFF MUL NOT AND SWAP1 DUP4 PUSH20 0xFFFFFFFFFFFFFFFFFFFFFFFFFFFFFFFFFFFFFFFF AND MUL OR SWAP1 SSTORE POP PUSH1 0x0 DUP1 SLOAD SWAP1 PUSH2 0x100 EXP SWAP1 DIV PUSH20 0xFFFFFFFFFFFFFFFFFFFFFFFFFFFFFFFFFFFFFFFF AND PUSH1 0x40 MLOAD PUSH3 0x1D8 SWAP1 PUSH3 0x4AD JUMP JUMPDEST PUSH3 0x1E4 SWAP2 SWAP1 PUSH3 0x5B8 JUMP JUMPDEST PUSH1 0x40 MLOAD DUP1 SWAP2 SUB SWAP1 PUSH1 0x0 CREATE DUP1 ISZERO DUP1 ISZERO PUSH3 0x201 JUMPI RETURNDATASIZE PUSH1 0x0 DUP1 RETURNDATACOPY RETURNDATASIZE PUSH1 0x0 REVERT JUMPDEST POP PUSH1 0x3 PUSH1 0x0 PUSH2 0x100 EXP DUP2 SLOAD DUP2 PUSH20 0xFFFFFFFFFFFFFFFFFFFFFFFFFFFFFFFFFFFFFFFF MUL NOT AND SWAP1 DUP4 PUSH20 0xFFFFFFFFFFFFFFFFFFFFFFFFFFFFFFFFFFFFFFFF AND MUL OR SWAP1 SSTORE POP PUSH1 0x4 PUSH1 0x1 PUSH1 0x0 SWAP1 SLOAD SWAP1 PUSH2 0x100 EXP SWAP1 DIV PUSH20 0xFFFFFFFFFFFFFFFFFFFFFFFFFFFFFFFFFFFFFFFF AND SWAP1 DUP1 PUSH1 0x1 DUP2 SLOAD ADD DUP1 DUP3 SSTORE DUP1 SWAP2 POP POP PUSH1 0x1 SWAP1 SUB SWAP1 PUSH1 0x0 MSTORE PUSH1 0x20 PUSH1 0x0 KECCAK256 ADD PUSH1 0x0 SWAP1 SWAP2 SWAP1 SWAP2 SWAP1 SWAP2 PUSH2 0x100 EXP DUP2 SLOAD DUP2 PUSH20 0xFFFFFFFFFFFFFFFFFFFFFFFFFFFFFFFFFFFFFFFF MUL NOT AND SWAP1 DUP4 PUSH20 0xFFFFFFFFFFFFFFFFFFFFFFFFFFFFFFFFFFFFFFFF AND MUL OR SWAP1 SSTORE POP PUSH1 0x4 PUSH1 0x2 PUSH1 0x0 SWAP1 SLOAD SWAP1 PUSH2 0x100 EXP SWAP1 DIV PUSH20 0xFFFFFFFFFFFFFFFFFFFFFFFFFFFFFFFFFFFFFFFF AND SWAP1 DUP1 PUSH1 0x1 DUP2 SLOAD ADD DUP1 DUP3 SSTORE DUP1 SWAP2 POP POP PUSH1 0x1 SWAP1 SUB SWAP1 PUSH1 0x0 MSTORE PUSH1 0x20 PUSH1 0x0 KECCAK256 ADD PUSH1 0x0 SWAP1 SWAP2 SWAP1 SWAP2 SWAP1 SWAP2 PUSH2 0x100 EXP DUP2 SLOAD DUP2 PUSH20 0xFFFFFFFFFFFFFFFFFFFFFFFFFFFFFFFFFFFFFFFF MUL NOT AND SWAP1 DUP4 PUSH20 0xFFFFFFFFFFFFFFFFFFFFFFFFFFFFFFFFFFFFFFFF AND MUL OR SWAP1 SSTORE POP PUSH1 0x4 PUSH1 0x3 PUSH1 0x0 SWAP1 SLOAD SWAP1 PUSH2 0x100 EXP SWAP1 DIV PUSH20 0xFFFFFFFFFFFFFFFFFFFFFFFFFFFFFFFFFFFFFFFF AND SWAP1 DUP1 PUSH1 0x1 DUP2 SLOAD ADD DUP1 DUP3 SSTORE DUP1 SWAP2 POP POP PUSH1 0x1 SWAP1 SUB SWAP1 PUSH1 0x0 MSTORE PUSH1 0x20 PUSH1 0x0 KECCAK256 ADD PUSH1 0x0 SWAP1 SWAP2 SWAP1 SWAP2 SWAP1 SWAP2 PUSH2 0x100 EXP DUP2 SLOAD DUP2 PUSH20 0xFFFFFFFFFFFFFFFFFFFFFFFFFFFFFFFFFFFFFFFF MUL NOT AND SWAP1 DUP4 PUSH20 0xFFFFFFFFFFFFFFFFFFFFFFFFFFFFFFFFFFFFFFFF AND MUL OR SWAP1 SSTORE POP DUP2 PUSH1 0x5 DUP2 SWAP1 SSTORE POP PUSH1 0x2 PUSH1 0x0 SWAP1 SLOAD SWAP1 PUSH2 0x100 EXP SWAP1 DIV PUSH20 0xFFFFFFFFFFFFFFFFFFFFFFFFFFFFFFFFFFFFFFFF AND PUSH20 0xFFFFFFFFFFFFFFFFFFFFFFFFFFFFFFFFFFFFFFFF AND PUSH4 0x7C4DD96D PUSH1 0x0 DUP1 SLOAD SWAP1 PUSH2 0x100 EXP SWAP1 DIV PUSH20 0xFFFFFFFFFFFFFFFFFFFFFFFFFFFFFFFFFFFFFFFF AND PUSH1 0x40 MLOAD DUP3 PUSH4 0xFFFFFFFF AND PUSH1 0xE0 SHL DUP2 MSTORE PUSH1 0x4 ADD PUSH3 0x455 SWAP2 SWAP1 PUSH3 0x5B8 JUMP JUMPDEST PUSH1 0x0 PUSH1 0x40 MLOAD DUP1 DUP4 SUB DUP2 PUSH1 0x0 DUP8 DUP1 EXTCODESIZE ISZERO DUP1 ISZERO PUSH3 0x470 JUMPI PUSH1 0x0 DUP1 REVERT JUMPDEST POP GAS CALL ISZERO DUP1 ISZERO PUSH3 0x485 JUMPI RETURNDATASIZE PUSH1 0x0 DUP1 RETURNDATACOPY RETURNDATASIZE PUSH1 0x0 REVERT JUMPDEST POP POP POP POP POP POP PUSH3 0x5D5 JUMP JUMPDEST PUSH2 0x13AC DUP1 PUSH3 0x222F DUP4 CODECOPY ADD SWAP1 JUMP JUMPDEST PUSH2 0x11D8 DUP1 PUSH3 0x35DB DUP4 CODECOPY ADD SWAP1 JUMP JUMPDEST PUSH2 0x117A DUP1 PUSH3 0x47B3 DUP4 CODECOPY ADD SWAP1 JUMP JUMPDEST PUSH1 0x0 DUP1 REVERT JUMPDEST PUSH1 0x0 DUP2 SWAP1 POP SWAP2 SWAP1 POP JUMP JUMPDEST PUSH3 0x4D5 DUP2 PUSH3 0x4C0 JUMP JUMPDEST DUP2 EQ PUSH3 0x4E1 JUMPI PUSH1 0x0 DUP1 REVERT JUMPDEST POP JUMP JUMPDEST PUSH1 0x0 DUP2 MLOAD SWAP1 POP PUSH3 0x4F5 DUP2 PUSH3 0x4CA JUMP JUMPDEST SWAP3 SWAP2 POP POP JUMP JUMPDEST PUSH1 0x0 PUSH20 0xFFFFFFFFFFFFFFFFFFFFFFFFFFFFFFFFFFFFFFFF DUP3 AND SWAP1 POP SWAP2 SWAP1 POP JUMP JUMPDEST PUSH1 0x0 PUSH3 0x528 DUP3 PUSH3 0x4FB JUMP JUMPDEST SWAP1 POP SWAP2 SWAP1 POP JUMP JUMPDEST PUSH3 0x53A DUP2 PUSH3 0x51B JUMP JUMPDEST DUP2 EQ PUSH3 0x546 JUMPI PUSH1 0x0 DUP1 REVERT JUMPDEST POP JUMP JUMPDEST PUSH1 0x0 DUP2 MLOAD SWAP1 POP PUSH3 0x55A DUP2 PUSH3 0x52F JUMP JUMPDEST SWAP3 SWAP2 POP POP JUMP JUMPDEST PUSH1 0x0 DUP1 PUSH1 0x40 DUP4 DUP6 SUB SLT ISZERO PUSH3 0x57A JUMPI PUSH3 0x579 PUSH3 0x4BB JUMP JUMPDEST JUMPDEST PUSH1 0x0 PUSH3 0x58A DUP6 DUP3 DUP7 ADD PUSH3 0x4E4 JUMP JUMPDEST SWAP3 POP POP PUSH1 0x20 PUSH3 0x59D DUP6 DUP3 DUP7 ADD PUSH3 0x549 JUMP JUMPDEST SWAP2 POP POP SWAP3 POP SWAP3 SWAP1 POP JUMP JUMPDEST PUSH3 0x5B2 DUP2 PUSH3 0x51B JUMP JUMPDEST DUP3 MSTORE POP POP JUMP JUMPDEST PUSH1 0x0 PUSH1 0x20 DUP3 ADD SWAP1 POP PUSH3 0x5CF PUSH1 0x0 DUP4 ADD DUP5 PUSH3 0x5A7 JUMP JUMPDEST SWAP3 SWAP2 POP POP JUMP JUMPDEST PUSH2 0x1C4A DUP1 PUSH3 0x5E5 PUSH1 0x0 CODECOPY PUSH1 0x0 RETURN INVALID PUSH1 0x80 PUSH1 0x40 MSTORE PUSH1 0x4 CALLDATASIZE LT PUSH2 0xA7 JUMPI PUSH1 0x0 CALLDATALOAD PUSH1 0xE0 SHR DUP1 PUSH4 0x8DA5CB5B GT PUSH2 0x64 JUMPI DUP1 PUSH4 0x8DA5CB5B EQ PUSH2 0x169 JUMPI DUP1 PUSH4 0x90272DFF EQ PUSH2 0x194 JUMPI DUP1 PUSH4 0xA54925DD EQ PUSH2 0x1BF JUMPI DUP1 PUSH4 0xC162D7DA EQ PUSH2 0x1E8 JUMPI DUP1 PUSH4 0xCA5140C9 EQ PUSH2 0x213 JUMPI DUP1 PUSH4 0xFE69494B EQ PUSH2 0x23C JUMPI PUSH2 0xA7 JUMP JUMPDEST DUP1 PUSH4 0xCC21200 EQ PUSH2 0xAC JUMPI DUP1 PUSH4 0x1973DB46 EQ PUSH2 0xD5 JUMPI DUP1 PUSH4 0x1A8C3EEC EQ PUSH2 0xF1 JUMPI DUP1 PUSH4 0x1AA3A008 EQ PUSH2 0x10D JUMPI DUP1 PUSH4 0x687564AE EQ PUSH2 0x124 JUMPI DUP1 PUSH4 0x7E490A9E EQ PUSH2 0x14D JUMPI JUMPDEST PUSH1 0x0 DUP1 REVERT JUMPDEST CALLVALUE DUP1 ISZERO PUSH2 0xB8 JUMPI PUSH1 0x0 DUP1 REVERT JUMPDEST POP PUSH2 0xD3 PUSH1 0x4 DUP1 CALLDATASIZE SUB DUP2 ADD SWAP1 PUSH2 0xCE SWAP2 SWAP1 PUSH2 0x14FA JUMP JUMPDEST PUSH2 0x265 JUMP JUMPDEST STOP JUMPDEST PUSH2 0xEF PUSH1 0x4 DUP1 CALLDATASIZE SUB DUP2 ADD SWAP1 PUSH2 0xEA SWAP2 SWAP1 PUSH2 0x1599 JUMP JUMPDEST PUSH2 0x3A3 JUMP JUMPDEST STOP JUMPDEST PUSH2 0x10B PUSH1 0x4 DUP1 CALLDATASIZE SUB DUP2 ADD SWAP1 PUSH2 0x106 SWAP2 SWAP1 PUSH2 0x1624 JUMP JUMPDEST PUSH2 0x6BF JUMP JUMPDEST STOP JUMPDEST CALLVALUE DUP1 ISZERO PUSH2 0x119 JUMPI PUSH1 0x0 DUP1 REVERT JUMPDEST POP PUSH2 0x122 PUSH2 0x7F7 JUMP JUMPDEST STOP JUMPDEST CALLVALUE DUP1 ISZERO PUSH2 0x130 JUMPI PUSH1 0x0 DUP1 REVERT JUMPDEST POP PUSH2 0x14B PUSH1 0x4 DUP1 CALLDATASIZE SUB DUP2 ADD SWAP1 PUSH2 0x146 SWAP2 SWAP1 PUSH2 0x16C2 JUMP JUMPDEST PUSH2 0x886 JUMP JUMPDEST STOP JUMPDEST PUSH2 0x167 PUSH1 0x4 DUP1 CALLDATASIZE SUB DUP2 ADD SWAP1 PUSH2 0x162 SWAP2 SWAP1 PUSH2 0x1761 JUMP JUMPDEST PUSH2 0xA1D JUMP JUMPDEST STOP JUMPDEST CALLVALUE DUP1 ISZERO PUSH2 0x175 JUMPI PUSH1 0x0 DUP1 REVERT JUMPDEST POP PUSH2 0x17E PUSH2 0xDEA JUMP JUMPDEST PUSH1 0x40 MLOAD PUSH2 0x18B SWAP2 SWAP1 PUSH2 0x179D JUMP JUMPDEST PUSH1 0x40 MLOAD DUP1 SWAP2 SUB SWAP1 RETURN JUMPDEST CALLVALUE DUP1 ISZERO PUSH2 0x1A0 JUMPI PUSH1 0x0 DUP1 REVERT JUMPDEST POP PUSH2 0x1A9 PUSH2 0xE0E JUMP JUMPDEST PUSH1 0x40 MLOAD PUSH2 0x1B6 SWAP2 SWAP1 PUSH2 0x17C7 JUMP JUMPDEST PUSH1 0x40 MLOAD DUP1 SWAP2 SUB SWAP1 RETURN JUMPDEST CALLVALUE DUP1 ISZERO PUSH2 0x1CB JUMPI PUSH1 0x0 DUP1 REVERT JUMPDEST POP PUSH2 0x1E6 PUSH1 0x4 DUP1 CALLDATASIZE SUB DUP2 ADD SWAP1 PUSH2 0x1E1 SWAP2 SWAP1 PUSH2 0x17E2 JUMP JUMPDEST PUSH2 0xE14 JUMP JUMPDEST STOP JUMPDEST CALLVALUE DUP1 ISZERO PUSH2 0x1F4 JUMPI PUSH1 0x0 DUP1 REVERT JUMPDEST POP PUSH2 0x1FD PUSH2 0xEFF JUMP JUMPDEST PUSH1 0x40 MLOAD PUSH2 0x20A SWAP2 SWAP1 PUSH2 0x18E0 JUMP JUMPDEST PUSH1 0x40 MLOAD DUP1 SWAP2 SUB SWAP1 RETURN JUMPDEST CALLVALUE DUP1 ISZERO PUSH2 0x21F JUMPI PUSH1 0x0 DUP1 REVERT JUMPDEST POP PUSH2 0x23A PUSH1 0x4 DUP1 CALLDATASIZE SUB DUP2 ADD SWAP1 PUSH2 0x235 SWAP2 SWAP1 PUSH2 0x1761 JUMP JUMPDEST PUSH2 0xFE5 JUMP JUMPDEST STOP JUMPDEST CALLVALUE DUP1 ISZERO PUSH2 0x248 JUMPI PUSH1 0x0 DUP1 REVERT JUMPDEST POP PUSH2 0x263 PUSH1 0x4 DUP1 CALLDATASIZE SUB DUP2 ADD SWAP1 PUSH2 0x25E SWAP2 SWAP1 PUSH2 0x1902 JUMP JUMPDEST PUSH2 0x1282 JUMP JUMPDEST STOP JUMPDEST PUSH1 0x2 PUSH1 0x0 SWAP1 SLOAD SWAP1 PUSH2 0x100 EXP SWAP1 DIV PUSH20 0xFFFFFFFFFFFFFFFFFFFFFFFFFFFFFFFFFFFFFFFF AND PUSH20 0xFFFFFFFFFFFFFFFFFFFFFFFFFFFFFFFFFFFFFFFF AND PUSH4 0x4172FB89 CALLER PUSH1 0x40 MLOAD DUP3 PUSH4 0xFFFFFFFF AND PUSH1 0xE0 SHL DUP2 MSTORE PUSH1 0x4 ADD PUSH2 0x2C0 SWAP2 SWAP1 PUSH2 0x179D JUMP JUMPDEST PUSH1 0x20 PUSH1 0x40 MLOAD DUP1 DUP4 SUB DUP2 DUP7 GAS STATICCALL ISZERO DUP1 ISZERO PUSH2 0x2DD JUMPI RETURNDATASIZE PUSH1 0x0 DUP1 RETURNDATACOPY RETURNDATASIZE PUSH1 0x0 REVERT JUMPDEST POP POP POP POP PUSH1 0x40 MLOAD RETURNDATASIZE PUSH1 0x1F NOT PUSH1 0x1F DUP3 ADD AND DUP3 ADD DUP1 PUSH1 0x40 MSTORE POP DUP2 ADD SWAP1 PUSH2 0x301 SWAP2 SWAP1 PUSH2 0x1944 JUMP JUMPDEST PUSH2 0x30A JUMPI PUSH1 0x0 DUP1 REVERT JUMPDEST PUSH1 0x1 PUSH1 0x0 SWAP1 SLOAD SWAP1 PUSH2 0x100 EXP SWAP1 DIV PUSH20 0xFFFFFFFFFFFFFFFFFFFFFFFFFFFFFFFFFFFFFFFF AND PUSH20 0xFFFFFFFFFFFFFFFFFFFFFFFFFFFFFFFFFFFFFFFF AND PUSH4 0xCC21200 DUP6 DUP6 DUP6 DUP6 PUSH1 0x40 MLOAD DUP6 PUSH4 0xFFFFFFFF AND PUSH1 0xE0 SHL DUP2 MSTORE PUSH1 0x4 ADD PUSH2 0x36B SWAP5 SWAP4 SWAP3 SWAP2 SWAP1 PUSH2 0x19F9 JUMP JUMPDEST PUSH1 0x0 PUSH1 0x40 MLOAD DUP1 DUP4 SUB DUP2 PUSH1 0x0 DUP8 DUP1 EXTCODESIZE ISZERO DUP1 ISZERO PUSH2 0x385 JUMPI PUSH1 0x0 DUP1 REVERT JUMPDEST POP GAS CALL ISZERO DUP1 ISZERO PUSH2 0x399 JUMPI RETURNDATASIZE PUSH1 0x0 DUP1 RETURNDATACOPY RETURNDATASIZE PUSH1 0x0 REVERT JUMPDEST POP POP POP POP POP POP POP POP JUMP JUMPDEST PUSH1 0x2 PUSH1 0x0 SWAP1 SLOAD SWAP1 PUSH2 0x100 EXP SWAP1 DIV PUSH20 0xFFFFFFFFFFFFFFFFFFFFFFFFFFFFFFFFFFFFFFFF AND PUSH20 0xFFFFFFFFFFFFFFFFFFFFFFFFFFFFFFFFFFFFFFFF AND PUSH4 0xECDED204 CALLER PUSH1 0x40 MLOAD DUP3 PUSH4 0xFFFFFFFF AND PUSH1 0xE0 SHL DUP2 MSTORE PUSH1 0x4 ADD PUSH2 0x3FE SWAP2 SWAP1 PUSH2 0x179D JUMP JUMPDEST PUSH1 0x20 PUSH1 0x40 MLOAD DUP1 DUP4 SUB DUP2 DUP7 GAS STATICCALL ISZERO DUP1 ISZERO PUSH2 0x41B JUMPI RETURNDATASIZE PUSH1 0x0 DUP1 RETURNDATACOPY RETURNDATASIZE PUSH1 0x0 REVERT JUMPDEST POP POP POP POP PUSH1 0x40 MLOAD RETURNDATASIZE PUSH1 0x1F NOT PUSH1 0x1F DUP3 ADD AND DUP3 ADD DUP1 PUSH1 0x40 MSTORE POP DUP2 ADD SWAP1 PUSH2 0x43F SWAP2 SWAP1 PUSH2 0x1944 JUMP JUMPDEST PUSH2 0x448 JUMPI PUSH1 0x0 DUP1 REVERT JUMPDEST PUSH1 0x0 PUSH1 0x1 PUSH1 0x0 SWAP1 SLOAD SWAP1 PUSH2 0x100 EXP SWAP1 DIV PUSH20 0xFFFFFFFFFFFFFFFFFFFFFFFFFFFFFFFFFFFFFFFF AND PUSH20 0xFFFFFFFFFFFFFFFFFFFFFFFFFFFFFFFFFFFFFFFF AND PUSH4 0x6C230EEF DUP6 PUSH1 0x40 MLOAD DUP3 PUSH4 0xFFFFFFFF AND PUSH1 0xE0 SHL DUP2 MSTORE PUSH1 0x4 ADD PUSH2 0x4A5 SWAP2 SWAP1 PUSH2 0x17C7 JUMP JUMPDEST PUSH1 0x20 PUSH1 0x40 MLOAD DUP1 DUP4 SUB DUP2 DUP7 GAS STATICCALL ISZERO DUP1 ISZERO PUSH2 0x4C2 JUMPI RETURNDATASIZE PUSH1 0x0 DUP1 RETURNDATACOPY RETURNDATASIZE PUSH1 0x0 REVERT JUMPDEST POP POP POP POP PUSH1 0x40 MLOAD RETURNDATASIZE PUSH1 0x1F NOT PUSH1 0x1F DUP3 ADD AND DUP3 ADD DUP1 PUSH1 0x40 MSTORE POP DUP2 ADD SWAP1 PUSH2 0x4E6 SWAP2 SWAP1 PUSH2 0x1A61 JUMP JUMPDEST SWAP1 POP CALLVALUE DUP2 EQ PUSH2 0x4F4 JUMPI PUSH1 0x0 DUP1 REVERT JUMPDEST PUSH1 0x0 PUSH1 0x3 PUSH1 0x0 SWAP1 SLOAD SWAP1 PUSH2 0x100 EXP SWAP1 DIV PUSH20 0xFFFFFFFFFFFFFFFFFFFFFFFFFFFFFFFFFFFFFFFF AND PUSH20 0xFFFFFFFFFFFFFFFFFFFFFFFFFFFFFFFFFFFFFFFF AND PUSH4 0xA46D8AC7 CALLER DUP8 DUP8 DUP8 PUSH1 0x40 MLOAD DUP6 PUSH4 0xFFFFFFFF AND PUSH1 0xE0 SHL DUP2 MSTORE PUSH1 0x4 ADD PUSH2 0x557 SWAP5 SWAP4 SWAP3 SWAP2 SWAP1 PUSH2 0x1A8E JUMP JUMPDEST PUSH1 0x20 PUSH1 0x40 MLOAD DUP1 DUP4 SUB DUP2 PUSH1 0x0 DUP8 GAS CALL ISZERO DUP1 ISZERO PUSH2 0x576 JUMPI RETURNDATASIZE PUSH1 0x0 DUP1 RETURNDATACOPY RETURNDATASIZE PUSH1 0x0 REVERT JUMPDEST POP POP POP POP PUSH1 0x40 MLOAD RETURNDATASIZE PUSH1 0x1F NOT PUSH1 0x1F DUP3 ADD AND DUP3 ADD DUP1 PUSH1 0x40 MSTORE POP DUP2 ADD SWAP1 PUSH2 0x59A SWAP2 SWAP1 PUSH2 0x1A61 JUMP JUMPDEST SWAP1 POP PUSH1 0x2 PUSH1 0x0 SWAP1 SLOAD SWAP1 PUSH2 0x100 EXP SWAP1 DIV PUSH20 0xFFFFFFFFFFFFFFFFFFFFFFFFFFFFFFFFFFFFFFFF AND PUSH20 0xFFFFFFFFFFFFFFFFFFFFFFFFFFFFFFFFFFFFFFFF AND PUSH4 0xE597EF12 CALLER DUP4 PUSH1 0x40 MLOAD DUP4 PUSH4 0xFFFFFFFF AND PUSH1 0xE0 SHL DUP2 MSTORE PUSH1 0x4 ADD PUSH2 0x5F9 SWAP3 SWAP2 SWAP1 PUSH2 0x1AD3 JUMP JUMPDEST PUSH1 0x0 PUSH1 0x40 MLOAD DUP1 DUP4 SUB DUP2 PUSH1 0x0 DUP8 DUP1 EXTCODESIZE ISZERO DUP1 ISZERO PUSH2 0x613 JUMPI PUSH1 0x0 DUP1 REVERT JUMPDEST POP GAS CALL ISZERO DUP1 ISZERO PUSH2 0x627 JUMPI RETURNDATASIZE PUSH1 0x0 DUP1 RETURNDATACOPY RETURNDATASIZE PUSH1 0x0 REVERT JUMPDEST POP POP POP POP PUSH1 0x1 PUSH1 0x0 SWAP1 SLOAD SWAP1 PUSH2 0x100 EXP SWAP1 DIV PUSH20 0xFFFFFFFFFFFFFFFFFFFFFFFFFFFFFFFFFFFFFFFF AND PUSH20 0xFFFFFFFFFFFFFFFFFFFFFFFFFFFFFFFFFFFFFFFF AND PUSH4 0xA6B2A25 DUP7 PUSH1 0x40 MLOAD DUP3 PUSH4 0xFFFFFFFF AND PUSH1 0xE0 SHL DUP2 MSTORE PUSH1 0x4 ADD PUSH2 0x686 SWAP2 SWAP1 PUSH2 0x17C7 JUMP JUMPDEST PUSH1 0x0 PUSH1 0x40 MLOAD DUP1 DUP4 SUB DUP2 PUSH1 0x0 DUP8 DUP1 EXTCODESIZE ISZERO DUP1 ISZERO PUSH2 0x6A0 JUMPI PUSH1 0x0 DUP1 REVERT JUMPDEST POP GAS CALL ISZERO DUP1 ISZERO PUSH2 0x6B4 JUMPI RETURNDATASIZE PUSH1 0x0 DUP1 RETURNDATACOPY RETURNDATASIZE PUSH1 0x0 REVERT JUMPDEST POP POP POP POP POP POP POP POP POP JUMP JUMPDEST PUSH1 0x2 PUSH1 0x0 SWAP1 SLOAD SWAP1 PUSH2 0x100 EXP SWAP1 DIV PUSH20 0xFFFFFFFFFFFFFFFFFFFFFFFFFFFFFFFFFFFFFFFF AND PUSH20 0xFFFFFFFFFFFFFFFFFFFFFFFFFFFFFFFFFFFFFFFF AND PUSH4 0xECDED204 CALLER PUSH1 0x40 MLOAD DUP3 PUSH4 0xFFFFFFFF AND PUSH1 0xE0 SHL DUP2 MSTORE PUSH1 0x4 ADD PUSH2 0x71A SWAP2 SWAP1 PUSH2 0x179D JUMP JUMPDEST PUSH1 0x20 PUSH1 0x40 MLOAD DUP1 DUP4 SUB DUP2 DUP7 GAS STATICCALL ISZERO DUP1 ISZERO PUSH2 0x737 JUMPI RETURNDATASIZE PUSH1 0x0 DUP1 RETURNDATACOPY RETURNDATASIZE PUSH1 0x0 REVERT JUMPDEST POP POP POP POP PUSH1 0x40 MLOAD RETURNDATASIZE PUSH1 0x1F NOT PUSH1 0x1F DUP3 ADD AND DUP3 ADD DUP1 PUSH1 0x40 MSTORE POP DUP2 ADD SWAP1 PUSH2 0x75B SWAP2 SWAP1 PUSH2 0x1944 JUMP JUMPDEST PUSH2 0x764 JUMPI PUSH1 0x0 DUP1 REVERT JUMPDEST PUSH1 0x3 PUSH1 0x0 SWAP1 SLOAD SWAP1 PUSH2 0x100 EXP SWAP1 DIV PUSH20 0xFFFFFFFFFFFFFFFFFFFFFFFFFFFFFFFFFFFFFFFF AND PUSH20 0xFFFFFFFFFFFFFFFFFFFFFFFFFFFFFFFFFFFFFFFF AND PUSH4 0xEF228C92 DUP4 DUP4 PUSH1 0x40 MLOAD DUP4 PUSH4 0xFFFFFFFF AND PUSH1 0xE0 SHL DUP2 MSTORE PUSH1 0x4 ADD PUSH2 0x7C1 SWAP3 SWAP2 SWAP1 PUSH2 0x1B0B JUMP JUMPDEST PUSH1 0x0 PUSH1 0x40 MLOAD DUP1 DUP4 SUB DUP2 PUSH1 0x0 DUP8 DUP1 EXTCODESIZE ISZERO DUP1 ISZERO PUSH2 0x7DB JUMPI PUSH1 0x0 DUP1 REVERT JUMPDEST POP GAS CALL ISZERO DUP1 ISZERO PUSH2 0x7EF JUMPI RETURNDATASIZE PUSH1 0x0 DUP1 RETURNDATACOPY RETURNDATASIZE PUSH1 0x0 REVERT JUMPDEST POP POP POP POP POP POP JUMP JUMPDEST PUSH1 0x2 PUSH1 0x0 SWAP1 SLOAD SWAP1 PUSH2 0x100 EXP SWAP1 DIV PUSH20 0xFFFFFFFFFFFFFFFFFFFFFFFFFFFFFFFFFFFFFFFF AND PUSH20 0xFFFFFFFFFFFFFFFFFFFFFFFFFFFFFFFFFFFFFFFF AND PUSH4 0x4420E486 CALLER PUSH1 0x40 MLOAD DUP3 PUSH4 0xFFFFFFFF AND PUSH1 0xE0 SHL DUP2 MSTORE PUSH1 0x4 ADD PUSH2 0x852 SWAP2 SWAP1 PUSH2 0x179D JUMP JUMPDEST PUSH1 0x0 PUSH1 0x40 MLOAD DUP1 DUP4 SUB DUP2 PUSH1 0x0 DUP8 DUP1 EXTCODESIZE ISZERO DUP1 ISZERO PUSH2 0x86C JUMPI PUSH1 0x0 DUP1 REVERT JUMPDEST POP GAS CALL ISZERO DUP1 ISZERO PUSH2 0x880 JUMPI RETURNDATASIZE PUSH1 0x0 DUP1 RETURNDATACOPY RETURNDATASIZE PUSH1 0x0 REVERT JUMPDEST POP POP POP POP JUMP JUMPDEST CALLER PUSH20 0xFFFFFFFFFFFFFFFFFFFFFFFFFFFFFFFFFFFFFFFF AND PUSH1 0x0 DUP1 SLOAD SWAP1 PUSH2 0x100 EXP SWAP1 DIV PUSH20 0xFFFFFFFFFFFFFFFFFFFFFFFFFFFFFFFFFFFFFFFF AND PUSH20 0xFFFFFFFFFFFFFFFFFFFFFFFFFFFFFFFFFFFFFFFF AND EQ PUSH2 0x8DE JUMPI PUSH1 0x0 DUP1 REVERT JUMPDEST PUSH1 0x1 PUSH1 0x0 SWAP1 SLOAD SWAP1 PUSH2 0x100 EXP SWAP1 DIV PUSH20 0xFFFFFFFFFFFFFFFFFFFFFFFFFFFFFFFFFFFFFFFF AND PUSH20 0xFFFFFFFFFFFFFFFFFFFFFFFFFFFFFFFFFFFFFFFF AND PUSH4 0xE71448A9 DUP6 PUSH1 0x40 MLOAD DUP3 PUSH4 0xFFFFFFFF AND PUSH1 0xE0 SHL DUP2 MSTORE PUSH1 0x4 ADD PUSH2 0x939 SWAP2 SWAP1 PUSH2 0x1B34 JUMP JUMPDEST PUSH1 0x20 PUSH1 0x40 MLOAD DUP1 DUP4 SUB DUP2 DUP7 GAS STATICCALL ISZERO DUP1 ISZERO PUSH2 0x956 JUMPI RETURNDATASIZE PUSH1 0x0 DUP1 RETURNDATACOPY RETURNDATASIZE PUSH1 0x0 REVERT JUMPDEST POP POP POP POP PUSH1 0x40 MLOAD RETURNDATASIZE PUSH1 0x1F NOT PUSH1 0x1F DUP3 ADD AND DUP3 ADD DUP1 PUSH1 0x40 MSTORE POP DUP2 ADD SWAP1 PUSH2 0x97A SWAP2 SWAP1 PUSH2 0x1944 JUMP JUMPDEST ISZERO PUSH2 0x984 JUMPI PUSH1 0x0 DUP1 REVERT JUMPDEST PUSH1 0x1 PUSH1 0x0 SWAP1 SLOAD SWAP1 PUSH2 0x100 EXP SWAP1 DIV PUSH20 0xFFFFFFFFFFFFFFFFFFFFFFFFFFFFFFFFFFFFFFFF AND PUSH20 0xFFFFFFFFFFFFFFFFFFFFFFFFFFFFFFFFFFFFFFFF AND PUSH4 0x687564AE DUP6 DUP6 DUP6 DUP6 PUSH1 0x40 MLOAD DUP6 PUSH4 0xFFFFFFFF AND PUSH1 0xE0 SHL DUP2 MSTORE PUSH1 0x4 ADD PUSH2 0x9E5 SWAP5 SWAP4 SWAP3 SWAP2 SWAP1 PUSH2 0x1B56 JUMP JUMPDEST PUSH1 0x0 PUSH1 0x40 MLOAD DUP1 DUP4 SUB DUP2 PUSH1 0x0 DUP8 DUP1 EXTCODESIZE ISZERO DUP1 ISZERO PUSH2 0x9FF JUMPI PUSH1 0x0 DUP1 REVERT JUMPDEST POP GAS CALL ISZERO DUP1 ISZERO PUSH2 0xA13 JUMPI RETURNDATASIZE PUSH1 0x0 DUP1 RETURNDATACOPY RETURNDATASIZE PUSH1 0x0 REVERT JUMPDEST POP POP POP POP POP POP POP POP JUMP JUMPDEST PUSH1 0x2 PUSH1 0x0 SWAP1 SLOAD SWAP1 PUSH2 0x100 EXP SWAP1 DIV PUSH20 0xFFFFFFFFFFFFFFFFFFFFFFFFFFFFFFFFFFFFFFFF AND PUSH20 0xFFFFFFFFFFFFFFFFFFFFFFFFFFFFFFFFFFFFFFFF AND PUSH4 0xECDED204 CALLER PUSH1 0x40 MLOAD DUP3 PUSH4 0xFFFFFFFF AND PUSH1 0xE0 SHL DUP2 MSTORE PUSH1 0x4 ADD PUSH2 0xA78 SWAP2 SWAP1 PUSH2 0x179D JUMP JUMPDEST PUSH1 0x20 PUSH1 0x40 MLOAD DUP1 DUP4 SUB DUP2 DUP7 GAS STATICCALL ISZERO DUP1 ISZERO PUSH2 0xA95 JUMPI RETURNDATASIZE PUSH1 0x0 DUP1 RETURNDATACOPY RETURNDATASIZE PUSH1 0x0 REVERT JUMPDEST POP POP POP POP PUSH1 0x40 MLOAD RETURNDATASIZE PUSH1 0x1F NOT PUSH1 0x1F DUP3 ADD AND DUP3 ADD DUP1 PUSH1 0x40 MSTORE POP DUP2 ADD SWAP1 PUSH2 0xAB9 SWAP2 SWAP1 PUSH2 0x1944 JUMP JUMPDEST PUSH2 0xAC2 JUMPI PUSH1 0x0 DUP1 REVERT JUMPDEST PUSH1 0x0 PUSH1 0x3 PUSH1 0x0 SWAP1 SLOAD SWAP1 PUSH2 0x100 EXP SWAP1 DIV PUSH20 0xFFFFFFFFFFFFFFFFFFFFFFFFFFFFFFFFFFFFFFFF AND PUSH20 0xFFFFFFFFFFFFFFFFFFFFFFFFFFFFFFFFFFFFFFFF AND PUSH4 0x1CE06944 DUP4 PUSH1 0x40 MLOAD DUP3 PUSH4 0xFFFFFFFF AND PUSH1 0xE0 SHL DUP2 MSTORE PUSH1 0x4 ADD PUSH2 0xB1F SWAP2 SWAP1 PUSH2 0x17C7 JUMP JUMPDEST PUSH1 0x20 PUSH1 0x40 MLOAD DUP1 DUP4 SUB DUP2 DUP7 GAS STATICCALL ISZERO DUP1 ISZERO PUSH2 0xB3C JUMPI RETURNDATASIZE PUSH1 0x0 DUP1 RETURNDATACOPY RETURNDATASIZE PUSH1 0x0 REVERT JUMPDEST POP POP POP POP PUSH1 0x40 MLOAD RETURNDATASIZE PUSH1 0x1F NOT PUSH1 0x1F DUP3 ADD AND DUP3 ADD DUP1 PUSH1 0x40 MSTORE POP DUP2 ADD SWAP1 PUSH2 0xB60 SWAP2 SWAP1 PUSH2 0x1A61 JUMP JUMPDEST SWAP1 POP PUSH1 0x0 PUSH1 0x3 PUSH1 0x0 SWAP1 SLOAD SWAP1 PUSH2 0x100 EXP SWAP1 DIV PUSH20 0xFFFFFFFFFFFFFFFFFFFFFFFFFFFFFFFFFFFFFFFF AND PUSH20 0xFFFFFFFFFFFFFFFFFFFFFFFFFFFFFFFFFFFFFFFF AND PUSH4 0x98AF1F07 DUP5 PUSH1 0x40 MLOAD DUP3 PUSH4 0xFFFFFFFF AND PUSH1 0xE0 SHL DUP2 MSTORE PUSH1 0x4 ADD PUSH2 0xBBF SWAP2 SWAP1 PUSH2 0x17C7 JUMP JUMPDEST PUSH1 0x20 PUSH1 0x40 MLOAD DUP1 DUP4 SUB DUP2 DUP7 GAS STATICCALL ISZERO DUP1 ISZERO PUSH2 0xBDC JUMPI RETURNDATASIZE PUSH1 0x0 DUP1 RETURNDATACOPY RETURNDATASIZE PUSH1 0x0 REVERT JUMPDEST POP POP POP POP PUSH1 0x40 MLOAD RETURNDATASIZE PUSH1 0x1F NOT PUSH1 0x1F DUP3 ADD AND DUP3 ADD DUP1 PUSH1 0x40 MSTORE POP DUP2 ADD SWAP1 PUSH2 0xC00 SWAP2 SWAP1 PUSH2 0x1944 JUMP JUMPDEST SWAP1 POP PUSH1 0x0 PUSH1 0x2 PUSH1 0x0 SWAP1 SLOAD SWAP1 PUSH2 0x100 EXP SWAP1 DIV PUSH20 0xFFFFFFFFFFFFFFFFFFFFFFFFFFFFFFFFFFFFFFFF AND PUSH20 0xFFFFFFFFFFFFFFFFFFFFFFFFFFFFFFFFFFFFFFFF AND PUSH4 0x19AA98A3 CALLER PUSH1 0x40 MLOAD DUP3 PUSH4 0xFFFFFFFF AND PUSH1 0xE0 SHL DUP2 MSTORE PUSH1 0x4 ADD PUSH2 0xC5F SWAP2 SWAP1 PUSH2 0x179D JUMP JUMPDEST PUSH1 0x20 PUSH1 0x40 MLOAD DUP1 DUP4 SUB DUP2 DUP7 GAS STATICCALL ISZERO DUP1 ISZERO PUSH2 0xC7C JUMPI RETURNDATASIZE PUSH1 0x0 DUP1 RETURNDATACOPY RETURNDATASIZE PUSH1 0x0 REVERT JUMPDEST POP POP POP POP PUSH1 0x40 MLOAD RETURNDATASIZE PUSH1 0x1F NOT PUSH1 0x1F DUP3 ADD AND DUP3 ADD DUP1 PUSH1 0x40 MSTORE POP DUP2 ADD SWAP1 PUSH2 0xCA0 SWAP2 SWAP1 PUSH2 0x1A61 JUMP JUMPDEST SWAP1 POP DUP2 PUSH2 0xCAC JUMPI PUSH1 0x0 DUP1 REVERT JUMPDEST PUSH1 0x5 SLOAD DUP2 LT PUSH2 0xCBA JUMPI PUSH1 0x0 DUP1 REVERT JUMPDEST CALLVALUE DUP4 EQ PUSH2 0xCC6 JUMPI PUSH1 0x0 DUP1 REVERT JUMPDEST PUSH1 0x3 PUSH1 0x0 SWAP1 SLOAD SWAP1 PUSH2 0x100 EXP SWAP1 DIV PUSH20 0xFFFFFFFFFFFFFFFFFFFFFFFFFFFFFFFFFFFFFFFF AND PUSH20 0xFFFFFFFFFFFFFFFFFFFFFFFFFFFFFFFFFFFFFFFF AND PUSH4 0xAB21A2BE DUP6 CALLER PUSH1 0x40 MLOAD DUP4 PUSH4 0xFFFFFFFF AND PUSH1 0xE0 SHL DUP2 MSTORE PUSH1 0x4 ADD PUSH2 0xD23 SWAP3 SWAP2 SWAP1 PUSH2 0x1BA9 JUMP JUMPDEST PUSH1 0x0 PUSH1 0x40 MLOAD DUP1 DUP4 SUB DUP2 PUSH1 0x0 DUP8 DUP1 EXTCODESIZE ISZERO DUP1 ISZERO PUSH2 0xD3D JUMPI PUSH1 0x0 DUP1 REVERT JUMPDEST POP GAS CALL ISZERO DUP1 ISZERO PUSH2 0xD51 JUMPI RETURNDATASIZE PUSH1 0x0 DUP1 RETURNDATACOPY RETURNDATASIZE PUSH1 0x0 REVERT JUMPDEST POP POP POP POP PUSH1 0x2 PUSH1 0x0 SWAP1 SLOAD SWAP1 PUSH2 0x100 EXP SWAP1 DIV PUSH20 0xFFFFFFFFFFFFFFFFFFFFFFFFFFFFFFFFFFFFFFFF AND PUSH20 0xFFFFFFFFFFFFFFFFFFFFFFFFFFFFFFFFFFFFFFFF AND PUSH4 0xA5A9C518 CALLER DUP7 PUSH1 0x40 MLOAD DUP4 PUSH4 0xFFFFFFFF AND PUSH1 0xE0 SHL DUP2 MSTORE PUSH1 0x4 ADD PUSH2 0xDB2 SWAP3 SWAP2 SWAP1 PUSH2 0x1AD3 JUMP JUMPDEST PUSH1 0x0 PUSH1 0x40 MLOAD DUP1 DUP4 SUB DUP2 PUSH1 0x0 DUP8 DUP1 EXTCODESIZE ISZERO DUP1 ISZERO PUSH2 0xDCC JUMPI PUSH1 0x0 DUP1 REVERT JUMPDEST POP GAS CALL ISZERO DUP1 ISZERO PUSH2 0xDE0 JUMPI RETURNDATASIZE PUSH1 0x0 DUP1 RETURNDATACOPY RETURNDATASIZE PUSH1 0x0 REVERT JUMPDEST POP POP POP POP POP POP POP POP JUMP JUMPDEST PUSH1 0x0 DUP1 SLOAD SWAP1 PUSH2 0x100 EXP SWAP1 DIV PUSH20 0xFFFFFFFFFFFFFFFFFFFFFFFFFFFFFFFFFFFFFFFF AND DUP2 JUMP JUMPDEST PUSH1 0x5 SLOAD DUP2 JUMP JUMPDEST CALLER PUSH20 0xFFFFFFFFFFFFFFFFFFFFFFFFFFFFFFFFFFFFFFFF AND PUSH1 0x0 DUP1 SLOAD SWAP1 PUSH2 0x100 EXP SWAP1 DIV PUSH20 0xFFFFFFFFFFFFFFFFFFFFFFFFFFFFFFFFFFFFFFFF AND PUSH20 0xFFFFFFFFFFFFFFFFFFFFFFFFFFFFFFFFFFFFFFFF AND EQ PUSH2 0xE6C JUMPI PUSH1 0x0 DUP1 REVERT JUMPDEST PUSH1 0x1 PUSH1 0x0 SWAP1 SLOAD SWAP1 PUSH2 0x100 EXP SWAP1 DIV PUSH20 0xFFFFFFFFFFFFFFFFFFFFFFFFFFFFFFFFFFFFFFFF AND PUSH20 0xFFFFFFFFFFFFFFFFFFFFFFFFFFFFFFFFFFFFFFFF AND PUSH4 0xA54925DD DUP4 DUP4 PUSH1 0x40 MLOAD DUP4 PUSH4 0xFFFFFFFF AND PUSH1 0xE0 SHL DUP2 MSTORE PUSH1 0x4 ADD PUSH2 0xEC9 SWAP3 SWAP2 SWAP1 PUSH2 0x1BA9 JUMP JUMPDEST PUSH1 0x0 PUSH1 0x40 MLOAD DUP1 DUP4 SUB DUP2 PUSH1 0x0 DUP8 DUP1 EXTCODESIZE ISZERO DUP1 ISZERO PUSH2 0xEE3 JUMPI PUSH1 0x0 DUP1 REVERT JUMPDEST POP GAS CALL ISZERO DUP1 ISZERO PUSH2 0xEF7 JUMPI RETURNDATASIZE PUSH1 0x0 DUP1 RETURNDATACOPY RETURNDATASIZE PUSH1 0x0 REVERT JUMPDEST POP POP POP POP POP POP JUMP JUMPDEST PUSH1 0x60 CALLER PUSH20 0xFFFFFFFFFFFFFFFFFFFFFFFFFFFFFFFFFFFFFFFF AND PUSH1 0x0 DUP1 SLOAD SWAP1 PUSH2 0x100 EXP SWAP1 DIV PUSH20 0xFFFFFFFFFFFFFFFFFFFFFFFFFFFFFFFFFFFFFFFF AND PUSH20 0xFFFFFFFFFFFFFFFFFFFFFFFFFFFFFFFFFFFFFFFF AND EQ PUSH2 0xF59 JUMPI PUSH1 0x0 DUP1 REVERT JUMPDEST PUSH1 0x4 DUP1 SLOAD DUP1 PUSH1 0x20 MUL PUSH1 0x20 ADD PUSH1 0x40 MLOAD SWAP1 DUP2 ADD PUSH1 0x40 MSTORE DUP1 SWAP3 SWAP2 SWAP1 DUP2 DUP2 MSTORE PUSH1 0x20 ADD DUP3 DUP1 SLOAD DUP1 ISZERO PUSH2 0xFDB JUMPI PUSH1 0x20 MUL DUP3 ADD SWAP2 SWAP1 PUSH1 0x0 MSTORE PUSH1 0x20 PUSH1 0x0 KECCAK256 SWAP1 JUMPDEST DUP2 PUSH1 0x0 SWAP1 SLOAD SWAP1 PUSH2 0x100 EXP SWAP1 DIV PUSH20 0xFFFFFFFFFFFFFFFFFFFFFFFFFFFFFFFFFFFFFFFF AND PUSH20 0xFFFFFFFFFFFFFFFFFFFFFFFFFFFFFFFFFFFFFFFF AND DUP2 MSTORE PUSH1 0x20 ADD SWAP1 PUSH1 0x1 ADD SWAP1 DUP1 DUP4 GT PUSH2 0xF91 JUMPI JUMPDEST POP POP POP POP POP SWAP1 POP SWAP1 JUMP JUMPDEST PUSH1 0x2 PUSH1 0x0 SWAP1 SLOAD SWAP1 PUSH2 0x100 EXP SWAP1 DIV PUSH20 0xFFFFFFFFFFFFFFFFFFFFFFFFFFFFFFFFFFFFFFFF AND PUSH20 0xFFFFFFFFFFFFFFFFFFFFFFFFFFFFFFFFFFFFFFFF AND PUSH4 0xECDED204 CALLER PUSH1 0x40 MLOAD DUP3 PUSH4 0xFFFFFFFF AND PUSH1 0xE0 SHL DUP2 MSTORE PUSH1 0x4 ADD PUSH2 0x1040 SWAP2 SWAP1 PUSH2 0x179D JUMP JUMPDEST PUSH1 0x20 PUSH1 0x40 MLOAD DUP1 DUP4 SUB DUP2 DUP7 GAS STATICCALL ISZERO DUP1 ISZERO PUSH2 0x105D JUMPI RETURNDATASIZE PUSH1 0x0 DUP1 RETURNDATACOPY RETURNDATASIZE PUSH1 0x0 REVERT JUMPDEST POP POP POP POP PUSH1 0x40 MLOAD RETURNDATASIZE PUSH1 0x1F NOT PUSH1 0x1F DUP3 ADD AND DUP3 ADD DUP1 PUSH1 0x40 MSTORE POP DUP2 ADD SWAP1 PUSH2 0x1081 SWAP2 SWAP1 PUSH2 0x1944 JUMP JUMPDEST PUSH2 0x108A JUMPI PUSH1 0x0 DUP1 REVERT JUMPDEST PUSH1 0x0 PUSH1 0x3 PUSH1 0x0 SWAP1 SLOAD SWAP1 PUSH2 0x100 EXP SWAP1 DIV PUSH20 0xFFFFFFFFFFFFFFFFFFFFFFFFFFFFFFFFFFFFFFFF AND PUSH20 0xFFFFFFFFFFFFFFFFFFFFFFFFFFFFFFFFFFFFFFFF AND PUSH4 0x3B2F7118 DUP4 PUSH1 0x40 MLOAD DUP3 PUSH4 0xFFFFFFFF AND PUSH1 0xE0 SHL DUP2 MSTORE PUSH1 0x4 ADD PUSH2 0x10E7 SWAP2 SWAP1 PUSH2 0x17C7 JUMP JUMPDEST PUSH1 0x20 PUSH1 0x40 MLOAD DUP1 DUP4 SUB DUP2 DUP7 GAS STATICCALL ISZERO DUP1 ISZERO PUSH2 0x1104 JUMPI RETURNDATASIZE PUSH1 0x0 DUP1 RETURNDATACOPY RETURNDATASIZE PUSH1 0x0 REVERT JUMPDEST POP POP POP POP PUSH1 0x40 MLOAD RETURNDATASIZE PUSH1 0x1F NOT PUSH1 0x1F DUP3 ADD AND DUP3 ADD DUP1 PUSH1 0x40 MSTORE POP DUP2 ADD SWAP1 PUSH2 0x1128 SWAP2 SWAP1 PUSH2 0x1BE7 JUMP JUMPDEST SWAP1 POP CALLER PUSH20 0xFFFFFFFFFFFFFFFFFFFFFFFFFFFFFFFFFFFFFFFF AND DUP2 PUSH20 0xFFFFFFFFFFFFFFFFFFFFFFFFFFFFFFFFFFFFFFFF AND EQ PUSH2 0x1162 JUMPI PUSH1 0x0 DUP1 REVERT JUMPDEST PUSH1 0x3 PUSH1 0x0 SWAP1 SLOAD SWAP1 PUSH2 0x100 EXP SWAP1 DIV PUSH20 0xFFFFFFFFFFFFFFFFFFFFFFFFFFFFFFFFFFFFFFFF AND PUSH20 0xFFFFFFFFFFFFFFFFFFFFFFFFFFFFFFFFFFFFFFFF AND PUSH4 0xCA5140C9 DUP4 PUSH1 0x40 MLOAD DUP3 PUSH4 0xFFFFFFFF AND PUSH1 0xE0 SHL DUP2 MSTORE PUSH1 0x4 ADD PUSH2 0x11BD SWAP2 SWAP1 PUSH2 0x17C7 JUMP JUMPDEST PUSH1 0x0 PUSH1 0x40 MLOAD DUP1 DUP4 SUB DUP2 PUSH1 0x0 DUP8 DUP1 EXTCODESIZE ISZERO DUP1 ISZERO PUSH2 0x11D7 JUMPI PUSH1 0x0 DUP1 REVERT JUMPDEST POP GAS CALL ISZERO DUP1 ISZERO PUSH2 0x11EB JUMPI RETURNDATASIZE PUSH1 0x0 DUP1 RETURNDATACOPY RETURNDATASIZE PUSH1 0x0 REVERT JUMPDEST POP POP POP POP PUSH1 0x2 PUSH1 0x0 SWAP1 SLOAD SWAP1 PUSH2 0x100 EXP SWAP1 DIV PUSH20 0xFFFFFFFFFFFFFFFFFFFFFFFFFFFFFFFFFFFFFFFF AND PUSH20 0xFFFFFFFFFFFFFFFFFFFFFFFFFFFFFFFFFFFFFFFF AND PUSH4 0x4A09DB4F CALLER DUP5 PUSH1 0x40 MLOAD DUP4 PUSH4 0xFFFFFFFF AND PUSH1 0xE0 SHL DUP2 MSTORE PUSH1 0x4 ADD PUSH2 0x124C SWAP3 SWAP2 SWAP1 PUSH2 0x1AD3 JUMP JUMPDEST PUSH1 0x0 PUSH1 0x40 MLOAD DUP1 DUP4 SUB DUP2 PUSH1 0x0 DUP8 DUP1 EXTCODESIZE ISZERO DUP1 ISZERO PUSH2 0x1266 JUMPI PUSH1 0x0 DUP1 REVERT JUMPDEST POP GAS CALL ISZERO DUP1 ISZERO PUSH2 0x127A JUMPI RETURNDATASIZE PUSH1 0x0 DUP1 RETURNDATACOPY RETURNDATASIZE PUSH1 0x0 REVERT JUMPDEST POP POP POP POP POP POP JUMP JUMPDEST CALLER PUSH20 0xFFFFFFFFFFFFFFFFFFFFFFFFFFFFFFFFFFFFFFFF AND PUSH1 0x0 DUP1 SLOAD SWAP1 PUSH2 0x100 EXP SWAP1 DIV PUSH20 0xFFFFFFFFFFFFFFFFFFFFFFFFFFFFFFFFFFFFFFFF AND PUSH20 0xFFFFFFFFFFFFFFFFFFFFFFFFFFFFFFFFFFFFFFFF AND EQ PUSH2 0x12DA JUMPI PUSH1 0x0 DUP1 REVERT JUMPDEST PUSH1 0x2 PUSH1 0x0 SWAP1 SLOAD SWAP1 PUSH2 0x100 EXP SWAP1 DIV PUSH20 0xFFFFFFFFFFFFFFFFFFFFFFFFFFFFFFFFFFFFFFFF AND PUSH20 0xFFFFFFFFFFFFFFFFFFFFFFFFFFFFFFFFFFFFFFFF AND PUSH4 0x7C4DD96D DUP3 PUSH1 0x40 MLOAD DUP3 PUSH4 0xFFFFFFFF AND PUSH1 0xE0 SHL DUP2 MSTORE PUSH1 0x4 ADD PUSH2 0x1335 SWAP2 SWAP1 PUSH2 0x179D JUMP JUMPDEST PUSH1 0x0 PUSH1 0x40 MLOAD DUP1 DUP4 SUB DUP2 PUSH1 0x0 DUP8 DUP1 EXTCODESIZE ISZERO DUP1 ISZERO PUSH2 0x134F JUMPI PUSH1 0x0 DUP1 REVERT JUMPDEST POP GAS CALL ISZERO DUP1 ISZERO PUSH2 0x1363 JUMPI RETURNDATASIZE PUSH1 0x0 DUP1 RETURNDATACOPY RETURNDATASIZE PUSH1 0x0 REVERT JUMPDEST POP POP POP POP POP JUMP JUMPDEST PUSH1 0x0 PUSH1 0x40 MLOAD SWAP1 POP SWAP1 JUMP JUMPDEST PUSH1 0x0 DUP1 REVERT JUMPDEST PUSH1 0x0 DUP1 REVERT JUMPDEST PUSH1 0x0 DUP2 SWAP1 POP SWAP2 SWAP1 POP JUMP JUMPDEST PUSH2 0x1391 DUP2 PUSH2 0x137E JUMP JUMPDEST DUP2 EQ PUSH2 0x139C JUMPI PUSH1 0x0 DUP1 REVERT JUMPDEST POP JUMP JUMPDEST PUSH1 0x0 DUP2 CALLDATALOAD SWAP1 POP PUSH2 0x13AE DUP2 PUSH2 0x1388 JUMP JUMPDEST SWAP3 SWAP2 POP POP JUMP JUMPDEST PUSH1 0x0 DUP1 REVERT JUMPDEST PUSH1 0x0 DUP1 REVERT JUMPDEST PUSH1 0x0 PUSH1 0x1F NOT PUSH1 0x1F DUP4 ADD AND SWAP1 POP SWAP2 SWAP1 POP JUMP JUMPDEST PUSH32 0x4E487B7100000000000000000000000000000000000000000000000000000000 PUSH1 0x0 MSTORE PUSH1 0x41 PUSH1 0x4 MSTORE PUSH1 0x24 PUSH1 0x0 REVERT JUMPDEST PUSH2 0x1407 DUP3 PUSH2 0x13BE JUMP JUMPDEST DUP2 ADD DUP2 DUP2 LT PUSH8 0xFFFFFFFFFFFFFFFF DUP3 GT OR ISZERO PUSH2 0x1426 JUMPI PUSH2 0x1425 PUSH2 0x13CF JUMP JUMPDEST JUMPDEST DUP1 PUSH1 0x40 MSTORE POP POP POP JUMP JUMPDEST PUSH1 0x0 PUSH2 0x1439 PUSH2 0x136A JUMP JUMPDEST SWAP1 POP PUSH2 0x1445 DUP3 DUP3 PUSH2 0x13FE JUMP JUMPDEST SWAP2 SWAP1 POP JUMP JUMPDEST PUSH1 0x0 PUSH8 0xFFFFFFFFFFFFFFFF DUP3 GT ISZERO PUSH2 0x1465 JUMPI PUSH2 0x1464 PUSH2 0x13CF JUMP JUMPDEST JUMPDEST PUSH2 0x146E DUP3 PUSH2 0x13BE JUMP JUMPDEST SWAP1 POP PUSH1 0x20 DUP2 ADD SWAP1 POP SWAP2 SWAP1 POP JUMP JUMPDEST DUP3 DUP2 DUP4 CALLDATACOPY PUSH1 0x0 DUP4 DUP4 ADD MSTORE POP POP POP JUMP JUMPDEST PUSH1 0x0 PUSH2 0x149D PUSH2 0x1498 DUP5 PUSH2 0x144A JUMP JUMPDEST PUSH2 0x142F JUMP JUMPDEST SWAP1 POP DUP3 DUP2 MSTORE PUSH1 0x20 DUP2 ADD DUP5 DUP5 DUP5 ADD GT ISZERO PUSH2 0x14B9 JUMPI PUSH2 0x14B8 PUSH2 0x13B9 JUMP JUMPDEST JUMPDEST PUSH2 0x14C4 DUP5 DUP3 DUP6 PUSH2 0x147B JUMP JUMPDEST POP SWAP4 SWAP3 POP POP POP JUMP JUMPDEST PUSH1 0x0 DUP3 PUSH1 0x1F DUP4 ADD SLT PUSH2 0x14E1 JUMPI PUSH2 0x14E0 PUSH2 0x13B4 JUMP JUMPDEST JUMPDEST DUP2 CALLDATALOAD PUSH2 0x14F1 DUP5 DUP3 PUSH1 0x20 DUP7 ADD PUSH2 0x148A JUMP JUMPDEST SWAP2 POP POP SWAP3 SWAP2 POP POP JUMP JUMPDEST PUSH1 0x0 DUP1 PUSH1 0x0 DUP1 PUSH1 0x80 DUP6 DUP8 SUB SLT ISZERO PUSH2 0x1514 JUMPI PUSH2 0x1513 PUSH2 0x1374 JUMP JUMPDEST JUMPDEST PUSH1 0x0 PUSH2 0x1522 DUP8 DUP3 DUP9 ADD PUSH2 0x139F JUMP JUMPDEST SWAP5 POP POP PUSH1 0x20 DUP6 ADD CALLDATALOAD PUSH8 0xFFFFFFFFFFFFFFFF DUP2 GT ISZERO PUSH2 0x1543 JUMPI PUSH2 0x1542 PUSH2 0x1379 JUMP JUMPDEST JUMPDEST PUSH2 0x154F DUP8 DUP3 DUP9 ADD PUSH2 0x14CC JUMP JUMPDEST SWAP4 POP POP PUSH1 0x40 DUP6 ADD CALLDATALOAD PUSH8 0xFFFFFFFFFFFFFFFF DUP2 GT ISZERO PUSH2 0x1570 JUMPI PUSH2 0x156F PUSH2 0x1379 JUMP JUMPDEST JUMPDEST PUSH2 0x157C DUP8 DUP3 DUP9 ADD PUSH2 0x14CC JUMP JUMPDEST SWAP3 POP POP PUSH1 0x60 PUSH2 0x158D DUP8 DUP3 DUP9 ADD PUSH2 0x139F JUMP JUMPDEST SWAP2 POP POP SWAP3 SWAP6 SWAP2 SWAP5 POP SWAP3 POP JUMP JUMPDEST PUSH1 0x0 DUP1 PUSH1 0x0 PUSH1 0x60 DUP5 DUP7 SUB SLT ISZERO PUSH2 0x15B2 JUMPI PUSH2 0x15B1 PUSH2 0x1374 JUMP JUMPDEST JUMPDEST PUSH1 0x0 PUSH2 0x15C0 DUP7 DUP3 DUP8 ADD PUSH2 0x139F JUMP JUMPDEST SWAP4 POP POP PUSH1 0x20 PUSH2 0x15D1 DUP7 DUP3 DUP8 ADD PUSH2 0x139F JUMP JUMPDEST SWAP3 POP POP PUSH1 0x40 PUSH2 0x15E2 DUP7 DUP3 DUP8 ADD PUSH2 0x139F JUMP JUMPDEST SWAP2 POP POP SWAP3 POP SWAP3 POP SWAP3 JUMP JUMPDEST PUSH1 0x0 DUP2 ISZERO ISZERO SWAP1 POP SWAP2 SWAP1 POP JUMP JUMPDEST PUSH2 0x1601 DUP2 PUSH2 0x15EC JUMP JUMPDEST DUP2 EQ PUSH2 0x160C JUMPI PUSH1 0x0 DUP1 REVERT JUMPDEST POP JUMP JUMPDEST PUSH1 0x0 DUP2 CALLDATALOAD SWAP1 POP PUSH2 0x161E DUP2 PUSH2 0x15F8 JUMP JUMPDEST SWAP3 SWAP2 POP POP JUMP JUMPDEST PUSH1 0x0 DUP1 PUSH1 0x40 DUP4 DUP6 SUB SLT ISZERO PUSH2 0x163B JUMPI PUSH2 0x163A PUSH2 0x1374 JUMP JUMPDEST JUMPDEST PUSH1 0x0 PUSH2 0x1649 DUP6 DUP3 DUP7 ADD PUSH2 0x139F JUMP JUMPDEST SWAP3 POP POP PUSH1 0x20 PUSH2 0x165A DUP6 DUP3 DUP7 ADD PUSH2 0x160F JUMP JUMPDEST SWAP2 POP POP SWAP3 POP SWAP3 SWAP1 POP JUMP JUMPDEST PUSH1 0x0 PUSH20 0xFFFFFFFFFFFFFFFFFFFFFFFFFFFFFFFFFFFFFFFF DUP3 AND SWAP1 POP SWAP2 SWAP1 POP JUMP JUMPDEST PUSH1 0x0 PUSH2 0x168F DUP3 PUSH2 0x1664 JUMP JUMPDEST SWAP1 POP SWAP2 SWAP1 POP JUMP JUMPDEST PUSH2 0x169F DUP2 PUSH2 0x1684 JUMP JUMPDEST DUP2 EQ PUSH2 0x16AA JUMPI PUSH1 0x0 DUP1 REVERT JUMPDEST POP JUMP JUMPDEST PUSH1 0x0 DUP2 CALLDATALOAD SWAP1 POP PUSH2 0x16BC DUP2 PUSH2 0x1696 JUMP JUMPDEST SWAP3 SWAP2 POP POP JUMP JUMPDEST PUSH1 0x0 DUP1 PUSH1 0x0 DUP1 PUSH1 0x80 DUP6 DUP8 SUB SLT ISZERO PUSH2 0x16DC JUMPI PUSH2 0x16DB PUSH2 0x1374 JUMP JUMPDEST JUMPDEST PUSH1 0x0 DUP6 ADD CALLDATALOAD PUSH8 0xFFFFFFFFFFFFFFFF DUP2 GT ISZERO PUSH2 0x16FA JUMPI PUSH2 0x16F9 PUSH2 0x1379 JUMP JUMPDEST JUMPDEST PUSH2 0x1706 DUP8 DUP3 DUP9 ADD PUSH2 0x14CC JUMP JUMPDEST SWAP5 POP POP PUSH1 0x20 DUP6 ADD CALLDATALOAD PUSH8 0xFFFFFFFFFFFFFFFF DUP2 GT ISZERO PUSH2 0x1727 JUMPI PUSH2 0x1726 PUSH2 0x1379 JUMP JUMPDEST JUMPDEST PUSH2 0x1733 DUP8 DUP3 DUP9 ADD PUSH2 0x14CC JUMP JUMPDEST SWAP4 POP POP PUSH1 0x40 PUSH2 0x1744 DUP8 DUP3 DUP9 ADD PUSH2 0x139F JUMP JUMPDEST SWAP3 POP POP PUSH1 0x60 PUSH2 0x1755 DUP8 DUP3 DUP9 ADD PUSH2 0x16AD JUMP JUMPDEST SWAP2 POP POP SWAP3 SWAP6 SWAP2 SWAP5 POP SWAP3 POP JUMP JUMPDEST PUSH1 0x0 PUSH1 0x20 DUP3 DUP5 SUB SLT ISZERO PUSH2 0x1777 JUMPI PUSH2 0x1776 PUSH2 0x1374 JUMP JUMPDEST JUMPDEST PUSH1 0x0 PUSH2 0x1785 DUP5 DUP3 DUP6 ADD PUSH2 0x139F JUMP JUMPDEST SWAP2 POP POP SWAP3 SWAP2 POP POP JUMP JUMPDEST PUSH2 0x1797 DUP2 PUSH2 0x1684 JUMP JUMPDEST DUP3 MSTORE POP POP JUMP JUMPDEST PUSH1 0x0 PUSH1 0x20 DUP3 ADD SWAP1 POP PUSH2 0x17B2 PUSH1 0x0 DUP4 ADD DUP5 PUSH2 0x178E JUMP JUMPDEST SWAP3 SWAP2 POP POP JUMP JUMPDEST PUSH2 0x17C1 DUP2 PUSH2 0x137E JUMP JUMPDEST DUP3 MSTORE POP POP JUMP JUMPDEST PUSH1 0x0 PUSH1 0x20 DUP3 ADD SWAP1 POP PUSH2 0x17DC PUSH1 0x0 DUP4 ADD DUP5 PUSH2 0x17B8 JUMP JUMPDEST SWAP3 SWAP2 POP POP JUMP JUMPDEST PUSH1 0x0 DUP1 PUSH1 0x40 DUP4 DUP6 SUB SLT ISZERO PUSH2 0x17F9 JUMPI PUSH2 0x17F8 PUSH2 0x1374 JUMP JUMPDEST JUMPDEST PUSH1 0x0 PUSH2 0x1807 DUP6 DUP3 DUP7 ADD PUSH2 0x139F JUMP JUMPDEST SWAP3 POP POP PUSH1 0x20 PUSH2 0x1818 DUP6 DUP3 DUP7 ADD PUSH2 0x16AD JUMP JUMPDEST SWAP2 POP POP SWAP3 POP SWAP3 SWAP1 POP JUMP JUMPDEST PUSH1 0x0 DUP2 MLOAD SWAP1 POP SWAP2 SWAP1 POP JUMP JUMPDEST PUSH1 0x0 DUP3 DUP3 MSTORE PUSH1 0x20 DUP3 ADD SWAP1 POP SWAP3 SWAP2 POP POP JUMP JUMPDEST PUSH1 0x0 DUP2 SWAP1 POP PUSH1 0x20 DUP3 ADD SWAP1 POP SWAP2 SWAP1 POP JUMP JUMPDEST PUSH2 0x1857 DUP2 PUSH2 0x1684 JUMP JUMPDEST DUP3 MSTORE POP POP JUMP JUMPDEST PUSH1 0x0 PUSH2 0x1869 DUP4 DUP4 PUSH2 0x184E JUMP JUMPDEST PUSH1 0x20 DUP4 ADD SWAP1 POP SWAP3 SWAP2 POP POP JUMP JUMPDEST PUSH1 0x0 PUSH1 0x20 DUP3 ADD SWAP1 POP SWAP2 SWAP1 POP JUMP JUMPDEST PUSH1 0x0 PUSH2 0x188D DUP3 PUSH2 0x1822 JUMP JUMPDEST PUSH2 0x1897 DUP2 DUP6 PUSH2 0x182D JUMP JUMPDEST SWAP4 POP PUSH2 0x18A2 DUP4 PUSH2 0x183E JUMP JUMPDEST DUP1 PUSH1 0x0 JUMPDEST DUP4 DUP2 LT ISZERO PUSH2 0x18D3 JUMPI DUP2 MLOAD PUSH2 0x18BA DUP9 DUP3 PUSH2 0x185D JUMP JUMPDEST SWAP8 POP PUSH2 0x18C5 DUP4 PUSH2 0x1875 JUMP JUMPDEST SWAP3 POP POP PUSH1 0x1 DUP2 ADD SWAP1 POP PUSH2 0x18A6 JUMP JUMPDEST POP DUP6 SWAP4 POP POP POP POP SWAP3 SWAP2 POP POP JUMP JUMPDEST PUSH1 0x0 PUSH1 0x20 DUP3 ADD SWAP1 POP DUP2 DUP2 SUB PUSH1 0x0 DUP4 ADD MSTORE PUSH2 0x18FA DUP2 DUP5 PUSH2 0x1882 JUMP JUMPDEST SWAP1 POP SWAP3 SWAP2 POP POP JUMP JUMPDEST PUSH1 0x0 PUSH1 0x20 DUP3 DUP5 SUB SLT ISZERO PUSH2 0x1918 JUMPI PUSH2 0x1917 PUSH2 0x1374 JUMP JUMPDEST JUMPDEST PUSH1 0x0 PUSH2 0x1926 DUP5 DUP3 DUP6 ADD PUSH2 0x16AD JUMP JUMPDEST SWAP2 POP POP SWAP3 SWAP2 POP POP JUMP JUMPDEST PUSH1 0x0 DUP2 MLOAD SWAP1 POP PUSH2 0x193E DUP2 PUSH2 0x15F8 JUMP JUMPDEST SWAP3 SWAP2 POP POP JUMP JUMPDEST PUSH1 0x0 PUSH1 0x20 DUP3 DUP5 SUB SLT ISZERO PUSH2 0x195A JUMPI PUSH2 0x1959 PUSH2 0x1374 JUMP JUMPDEST JUMPDEST PUSH1 0x0 PUSH2 0x1968 DUP5 DUP3 DUP6 ADD PUSH2 0x192F JUMP JUMPDEST SWAP2 POP POP SWAP3 SWAP2 POP POP JUMP JUMPDEST PUSH1 0x0 DUP2 MLOAD SWAP1 POP SWAP2 SWAP1 POP JUMP JUMPDEST PUSH1 0x0 DUP3 DUP3 MSTORE PUSH1 0x20 DUP3 ADD SWAP1 POP SWAP3 SWAP2 POP POP JUMP JUMPDEST PUSH1 0x0 JUMPDEST DUP4 DUP2 LT ISZERO PUSH2 0x19AB JUMPI DUP1 DUP3 ADD MLOAD DUP2 DUP5 ADD MSTORE PUSH1 0x20 DUP2 ADD SWAP1 POP PUSH2 0x1990 JUMP JUMPDEST DUP4 DUP2 GT ISZERO PUSH2 0x19BA JUMPI PUSH1 0x0 DUP5 DUP5 ADD MSTORE JUMPDEST POP POP POP POP JUMP JUMPDEST PUSH1 0x0 PUSH2 0x19CB DUP3 PUSH2 0x1971 JUMP JUMPDEST PUSH2 0x19D5 DUP2 DUP6 PUSH2 0x197C JUMP JUMPDEST SWAP4 POP PUSH2 0x19E5 DUP2 DUP6 PUSH1 0x20 DUP7 ADD PUSH2 0x198D JUMP JUMPDEST PUSH2 0x19EE DUP2 PUSH2 0x13BE JUMP JUMPDEST DUP5 ADD SWAP2 POP POP SWAP3 SWAP2 POP POP JUMP JUMPDEST PUSH1 0x0 PUSH1 0x80 DUP3 ADD SWAP1 POP PUSH2 0x1A0E PUSH1 0x0 DUP4 ADD DUP8 PUSH2 0x17B8 JUMP JUMPDEST DUP2 DUP2 SUB PUSH1 0x20 DUP4 ADD MSTORE PUSH2 0x1A20 DUP2 DUP7 PUSH2 0x19C0 JUMP JUMPDEST SWAP1 POP DUP2 DUP2 SUB PUSH1 0x40 DUP4 ADD MSTORE PUSH2 0x1A34 DUP2 DUP6 PUSH2 0x19C0 JUMP JUMPDEST SWAP1 POP PUSH2 0x1A43 PUSH1 0x60 DUP4 ADD DUP5 PUSH2 0x17B8 JUMP JUMPDEST SWAP6 SWAP5 POP POP POP POP POP JUMP JUMPDEST PUSH1 0x0 DUP2 MLOAD SWAP1 POP PUSH2 0x1A5B DUP2 PUSH2 0x1388 JUMP JUMPDEST SWAP3 SWAP2 POP POP JUMP JUMPDEST PUSH1 0x0 PUSH1 0x20 DUP3 DUP5 SUB SLT ISZERO PUSH2 0x1A77 JUMPI PUSH2 0x1A76 PUSH2 0x1374 JUMP JUMPDEST JUMPDEST PUSH1 0x0 PUSH2 0x1A85 DUP5 DUP3 DUP6 ADD PUSH2 0x1A4C JUMP JUMPDEST SWAP2 POP POP SWAP3 SWAP2 POP POP JUMP JUMPDEST PUSH1 0x0 PUSH1 0x80 DUP3 ADD SWAP1 POP PUSH2 0x1AA3 PUSH1 0x0 DUP4 ADD DUP8 PUSH2 0x178E JUMP JUMPDEST PUSH2 0x1AB0 PUSH1 0x20 DUP4 ADD DUP7 PUSH2 0x17B8 JUMP JUMPDEST PUSH2 0x1ABD PUSH1 0x40 DUP4 ADD DUP6 PUSH2 0x17B8 JUMP JUMPDEST PUSH2 0x1ACA PUSH1 0x60 DUP4 ADD DUP5 PUSH2 0x17B8 JUMP JUMPDEST SWAP6 SWAP5 POP POP POP POP POP JUMP JUMPDEST PUSH1 0x0 PUSH1 0x40 DUP3 ADD SWAP1 POP PUSH2 0x1AE8 PUSH1 0x0 DUP4 ADD DUP6 PUSH2 0x178E JUMP JUMPDEST PUSH2 0x1AF5 PUSH1 0x20 DUP4 ADD DUP5 PUSH2 0x17B8 JUMP JUMPDEST SWAP4 SWAP3 POP POP POP JUMP JUMPDEST PUSH2 0x1B05 DUP2 PUSH2 0x15EC JUMP JUMPDEST DUP3 MSTORE POP POP JUMP JUMPDEST PUSH1 0x0 PUSH1 0x40 DUP3 ADD SWAP1 POP PUSH2 0x1B20 PUSH1 0x0 DUP4 ADD DUP6 PUSH2 0x17B8 JUMP JUMPDEST PUSH2 0x1B2D PUSH1 0x20 DUP4 ADD DUP5 PUSH2 0x1AFC JUMP JUMPDEST SWAP4 SWAP3 POP POP POP JUMP JUMPDEST PUSH1 0x0 PUSH1 0x20 DUP3 ADD SWAP1 POP DUP2 DUP2 SUB PUSH1 0x0 DUP4 ADD MSTORE PUSH2 0x1B4E DUP2 DUP5 PUSH2 0x19C0 JUMP JUMPDEST SWAP1 POP SWAP3 SWAP2 POP POP JUMP JUMPDEST PUSH1 0x0 PUSH1 0x80 DUP3 ADD SWAP1 POP DUP2 DUP2 SUB PUSH1 0x0 DUP4 ADD MSTORE PUSH2 0x1B70 DUP2 DUP8 PUSH2 0x19C0 JUMP JUMPDEST SWAP1 POP DUP2 DUP2 SUB PUSH1 0x20 DUP4 ADD MSTORE PUSH2 0x1B84 DUP2 DUP7 PUSH2 0x19C0 JUMP JUMPDEST SWAP1 POP PUSH2 0x1B93 PUSH1 0x40 DUP4 ADD DUP6 PUSH2 0x17B8 JUMP JUMPDEST PUSH2 0x1BA0 PUSH1 0x60 DUP4 ADD DUP5 PUSH2 0x178E JUMP JUMPDEST SWAP6 SWAP5 POP POP POP POP POP JUMP JUMPDEST PUSH1 0x0 PUSH1 0x40 DUP3 ADD SWAP1 POP PUSH2 0x1BBE PUSH1 0x0 DUP4 ADD DUP6 PUSH2 0x17B8 JUMP JUMPDEST PUSH2 0x1BCB PUSH1 0x20 DUP4 ADD DUP5 PUSH2 0x178E JUMP JUMPDEST SWAP4 SWAP3 POP POP POP JUMP JUMPDEST PUSH1 0x0 DUP2 MLOAD SWAP1 POP PUSH2 0x1BE1 DUP2 PUSH2 0x1696 JUMP JUMPDEST SWAP3 SWAP2 POP POP JUMP JUMPDEST PUSH1 0x0 PUSH1 0x20 DUP3 DUP5 SUB SLT ISZERO PUSH2 0x1BFD JUMPI PUSH2 0x1BFC PUSH2 0x1374 JUMP JUMPDEST JUMPDEST PUSH1 0x0 PUSH2 0x1C0B DUP5 DUP3 DUP6 ADD PUSH2 0x1BD2 JUMP JUMPDEST SWAP2 POP POP SWAP3 SWAP2 POP POP JUMP INVALID LOG2 PUSH5 0x6970667358 0x22 SLT KECCAK256 SAR 0xD2 PUSH31 0x2D98E1D2A5039D624BD817B46ADCA32E85A8C19B70F5D5373E0C04C4F66473 PUSH16 0x6C634300080A00336080604052348015 PUSH3 0x11 JUMPI PUSH1 0x0 DUP1 REVERT JUMPDEST POP PUSH1 0x40 MLOAD PUSH3 0x13AC CODESIZE SUB DUP1 PUSH3 0x13AC DUP4 CODECOPY DUP2 DUP2 ADD PUSH1 0x40 MSTORE DUP2 ADD SWAP1 PUSH3 0x37 SWAP2 SWAP1 PUSH3 0x129 JUMP JUMPDEST DUP1 PUSH1 0x0 DUP1 PUSH2 0x100 EXP DUP2 SLOAD DUP2 PUSH20 0xFFFFFFFFFFFFFFFFFFFFFFFFFFFFFFFFFFFFFFFF MUL NOT AND SWAP1 DUP4 PUSH20 0xFFFFFFFFFFFFFFFFFFFFFFFFFFFFFFFFFFFFFFFF AND MUL OR SWAP1 SSTORE POP CALLER PUSH1 0x1 PUSH1 0x0 PUSH2 0x100 EXP DUP2 SLOAD DUP2 PUSH20 0xFFFFFFFFFFFFFFFFFFFFFFFFFFFFFFFFFFFFFFFF MUL NOT AND SWAP1 DUP4 PUSH20 0xFFFFFFFFFFFFFFFFFFFFFFFFFFFFFFFFFFFFFFFF AND MUL OR SWAP1 SSTORE POP POP PUSH3 0x15B JUMP JUMPDEST PUSH1 0x0 DUP1 REVERT JUMPDEST PUSH1 0x0 PUSH20 0xFFFFFFFFFFFFFFFFFFFFFFFFFFFFFFFFFFFFFFFF DUP3 AND SWAP1 POP SWAP2 SWAP1 POP JUMP JUMPDEST PUSH1 0x0 PUSH3 0xF1 DUP3 PUSH3 0xC4 JUMP JUMPDEST SWAP1 POP SWAP2 SWAP1 POP JUMP JUMPDEST PUSH3 0x103 DUP2 PUSH3 0xE4 JUMP JUMPDEST DUP2 EQ PUSH3 0x10F JUMPI PUSH1 0x0 DUP1 REVERT JUMPDEST POP JUMP JUMPDEST PUSH1 0x0 DUP2 MLOAD SWAP1 POP PUSH3 0x123 DUP2 PUSH3 0xF8 JUMP JUMPDEST SWAP3 SWAP2 POP POP JUMP JUMPDEST PUSH1 0x0 PUSH1 0x20 DUP3 DUP5 SUB SLT ISZERO PUSH3 0x142 JUMPI PUSH3 0x141 PUSH3 0xBF JUMP JUMPDEST JUMPDEST PUSH1 0x0 PUSH3 0x152 DUP5 DUP3 DUP6 ADD PUSH3 0x112 JUMP JUMPDEST SWAP2 POP POP SWAP3 SWAP2 POP POP JUMP JUMPDEST PUSH2 0x1241 DUP1 PUSH3 0x16B PUSH1 0x0 CODECOPY PUSH1 0x0 RETURN INVALID PUSH1 0x80 PUSH1 0x40 MSTORE CALLVALUE DUP1 ISZERO PUSH2 0x10 JUMPI PUSH1 0x0 DUP1 REVERT JUMPDEST POP PUSH1 0x4 CALLDATASIZE LT PUSH2 0xA9 JUMPI PUSH1 0x0 CALLDATALOAD PUSH1 0xE0 SHR DUP1 PUSH4 0x8DA5CB5B GT PUSH2 0x71 JUMPI DUP1 PUSH4 0x8DA5CB5B EQ PUSH2 0x162 JUMPI DUP1 PUSH4 0x98FBCE79 EQ PUSH2 0x180 JUMPI DUP1 PUSH4 0xA54925DD EQ PUSH2 0x1B4 JUMPI DUP1 PUSH4 0xD9FF0CF1 EQ PUSH2 0x1D0 JUMPI DUP1 PUSH4 0xE71448A9 EQ PUSH2 0x204 JUMPI DUP1 PUSH4 0xF76EBE1C EQ PUSH2 0x234 JUMPI PUSH2 0xA9 JUMP JUMPDEST DUP1 PUSH4 0xA6B2A25 EQ PUSH2 0xAE JUMPI DUP1 PUSH4 0xCC21200 EQ PUSH2 0xCA JUMPI DUP1 PUSH4 0x1CB71ED5 EQ PUSH2 0xE6 JUMPI DUP1 PUSH4 0x687564AE EQ PUSH2 0x116 JUMPI DUP1 PUSH4 0x6C230EEF EQ PUSH2 0x132 JUMPI JUMPDEST PUSH1 0x0 DUP1 REVERT JUMPDEST PUSH2 0xC8 PUSH1 0x4 DUP1 CALLDATASIZE SUB DUP2 ADD SWAP1 PUSH2 0xC3 SWAP2 SWAP1 PUSH2 0xBD4 JUMP JUMPDEST PUSH2 0x252 JUMP JUMPDEST STOP JUMPDEST PUSH2 0xE4 PUSH1 0x4 DUP1 CALLDATASIZE SUB DUP2 ADD SWAP1 PUSH2 0xDF SWAP2 SWAP1 PUSH2 0xD47 JUMP JUMPDEST PUSH2 0x287 JUMP JUMPDEST STOP JUMPDEST PUSH2 0x100 PUSH1 0x4 DUP1 CALLDATASIZE SUB DUP2 ADD SWAP1 PUSH2 0xFB SWAP2 SWAP1 PUSH2 0xDE6 JUMP JUMPDEST PUSH2 0x344 JUMP JUMPDEST PUSH1 0x40 MLOAD PUSH2 0x10D SWAP2 SWAP1 PUSH2 0xE4A JUMP JUMPDEST PUSH1 0x40 MLOAD DUP1 SWAP2 SUB SWAP1 RETURN JUMPDEST PUSH2 0x130 PUSH1 0x4 DUP1 CALLDATASIZE SUB DUP2 ADD SWAP1 PUSH2 0x12B SWAP2 SWAP1 PUSH2 0xEC3 JUMP JUMPDEST PUSH2 0x37A JUMP JUMPDEST STOP JUMPDEST PUSH2 0x14C PUSH1 0x4 DUP1 CALLDATASIZE SUB DUP2 ADD SWAP1 PUSH2 0x147 SWAP2 SWAP1 PUSH2 0xBD4 JUMP JUMPDEST PUSH2 0x4C7 JUMP JUMPDEST PUSH1 0x40 MLOAD PUSH2 0x159 SWAP2 SWAP1 PUSH2 0xF71 JUMP JUMPDEST PUSH1 0x40 MLOAD DUP1 SWAP2 SUB SWAP1 RETURN JUMPDEST PUSH2 0x16A PUSH2 0x685 JUMP JUMPDEST PUSH1 0x40 MLOAD PUSH2 0x177 SWAP2 SWAP1 PUSH2 0xF9B JUMP JUMPDEST PUSH1 0x40 MLOAD DUP1 SWAP2 SUB SWAP1 RETURN JUMPDEST PUSH2 0x19A PUSH1 0x4 DUP1 CALLDATASIZE SUB DUP2 ADD SWAP1 PUSH2 0x195 SWAP2 SWAP1 PUSH2 0xBD4 JUMP JUMPDEST PUSH2 0x6A9 JUMP JUMPDEST PUSH1 0x40 MLOAD PUSH2 0x1AB SWAP6 SWAP5 SWAP4 SWAP3 SWAP2 SWAP1 PUSH2 0x103E JUMP JUMPDEST PUSH1 0x40 MLOAD DUP1 SWAP2 SUB SWAP1 RETURN JUMPDEST PUSH2 0x1CE PUSH1 0x4 DUP1 CALLDATASIZE SUB DUP2 ADD SWAP1 PUSH2 0x1C9 SWAP2 SWAP1 PUSH2 0x109F JUMP JUMPDEST PUSH2 0x88D JUMP JUMPDEST STOP JUMPDEST PUSH2 0x1EA PUSH1 0x4 DUP1 CALLDATASIZE SUB DUP2 ADD SWAP1 PUSH2 0x1E5 SWAP2 SWAP1 PUSH2 0xBD4 JUMP JUMPDEST PUSH2 0x946 JUMP JUMPDEST PUSH1 0x40 MLOAD PUSH2 0x1FB SWAP6 SWAP5 SWAP4 SWAP3 SWAP2 SWAP1 PUSH2 0x103E JUMP JUMPDEST PUSH1 0x40 MLOAD DUP1 SWAP2 SUB SWAP1 RETURN JUMPDEST PUSH2 0x21E PUSH1 0x4 DUP1 CALLDATASIZE SUB DUP2 ADD SWAP1 PUSH2 0x219 SWAP2 SWAP1 PUSH2 0xDE6 JUMP JUMPDEST PUSH2 0xAAC JUMP JUMPDEST PUSH1 0x40 MLOAD PUSH2 0x22B SWAP2 SWAP1 PUSH2 0xE4A JUMP JUMPDEST PUSH1 0x40 MLOAD DUP1 SWAP2 SUB SWAP1 RETURN JUMPDEST PUSH2 0x23C PUSH2 0xAE1 JUMP JUMPDEST PUSH1 0x40 MLOAD PUSH2 0x249 SWAP2 SWAP1 PUSH2 0xF71 JUMP JUMPDEST PUSH1 0x40 MLOAD DUP1 SWAP2 SUB SWAP1 RETURN JUMPDEST PUSH1 0x0 PUSH1 0x3 PUSH1 0x0 DUP4 DUP2 MSTORE PUSH1 0x20 ADD SWAP1 DUP2 MSTORE PUSH1 0x20 ADD PUSH1 0x0 KECCAK256 SWAP1 POP DUP1 PUSH1 0x3 ADD PUSH1 0x0 DUP2 SLOAD DUP1 SWAP3 SWAP2 SWAP1 PUSH2 0x27E SWAP1 PUSH2 0x110E JUMP JUMPDEST SWAP2 SWAP1 POP SSTORE POP POP POP JUMP JUMPDEST CALLER PUSH20 0xFFFFFFFFFFFFFFFFFFFFFFFFFFFFFFFFFFFFFFFF AND PUSH1 0x1 PUSH1 0x0 SWAP1 SLOAD SWAP1 PUSH2 0x100 EXP SWAP1 DIV PUSH20 0xFFFFFFFFFFFFFFFFFFFFFFFFFFFFFFFFFFFFFFFF AND PUSH20 0xFFFFFFFFFFFFFFFFFFFFFFFFFFFFFFFFFFFFFFFF AND EQ PUSH2 0x2E1 JUMPI PUSH1 0x0 DUP1 REVERT JUMPDEST PUSH1 0x0 PUSH1 0x3 PUSH1 0x0 DUP7 DUP2 MSTORE PUSH1 0x20 ADD SWAP1 DUP2 MSTORE PUSH1 0x20 ADD PUSH1 0x0 KECCAK256 SWAP1 POP DUP4 DUP2 PUSH1 0x0 ADD SWAP1 DUP1 MLOAD SWAP1 PUSH1 0x20 ADD SWAP1 PUSH2 0x310 SWAP3 SWAP2 SWAP1 PUSH2 0xAE7 JUMP JUMPDEST POP DUP3 DUP2 PUSH1 0x1 ADD SWAP1 DUP1 MLOAD SWAP1 PUSH1 0x20 ADD SWAP1 PUSH2 0x329 SWAP3 SWAP2 SWAP1 PUSH2 0xAE7 JUMP JUMPDEST POP DUP2 DUP2 PUSH1 0x2 ADD DUP2 SWAP1 SSTORE POP PUSH1 0x0 DUP2 PUSH1 0x3 ADD DUP2 SWAP1 SSTORE POP POP POP POP POP POP JUMP JUMPDEST PUSH1 0x4 DUP2 DUP1 MLOAD PUSH1 0x20 DUP2 ADD DUP3 ADD DUP1 MLOAD DUP5 DUP3 MSTORE PUSH1 0x20 DUP4 ADD PUSH1 0x20 DUP6 ADD KECCAK256 DUP2 DUP4 MSTORE DUP1 SWAP6 POP POP POP POP POP POP PUSH1 0x0 SWAP2 POP SLOAD SWAP1 PUSH2 0x100 EXP SWAP1 DIV PUSH1 0xFF AND DUP2 JUMP JUMPDEST CALLER PUSH20 0xFFFFFFFFFFFFFFFFFFFFFFFFFFFFFFFFFFFFFFFF AND PUSH1 0x1 PUSH1 0x0 SWAP1 SLOAD SWAP1 PUSH2 0x100 EXP SWAP1 DIV PUSH20 0xFFFFFFFFFFFFFFFFFFFFFFFFFFFFFFFFFFFFFFFF AND PUSH20 0xFFFFFFFFFFFFFFFFFFFFFFFFFFFFFFFFFFFFFFFF AND EQ PUSH2 0x3D4 JUMPI PUSH1 0x0 DUP1 REVERT JUMPDEST PUSH1 0x0 PUSH1 0x3 PUSH1 0x0 PUSH1 0x2 PUSH1 0x0 DUP2 SLOAD DUP1 SWAP3 SWAP2 SWAP1 PUSH2 0x3ED SWAP1 PUSH2 0x110E JUMP JUMPDEST SWAP2 SWAP1 POP SSTORE DUP2 MSTORE PUSH1 0x20 ADD SWAP1 DUP2 MSTORE PUSH1 0x20 ADD PUSH1 0x0 KECCAK256 SWAP1 POP DUP5 DUP2 PUSH1 0x0 ADD SWAP1 DUP1 MLOAD SWAP1 PUSH1 0x20 ADD SWAP1 PUSH2 0x419 SWAP3 SWAP2 SWAP1 PUSH2 0xAE7 JUMP JUMPDEST POP DUP4 DUP2 PUSH1 0x1 ADD SWAP1 DUP1 MLOAD SWAP1 PUSH1 0x20 ADD SWAP1 PUSH2 0x432 SWAP3 SWAP2 SWAP1 PUSH2 0xAE7 JUMP JUMPDEST POP DUP3 DUP2 PUSH1 0x2 ADD DUP2 SWAP1 SSTORE POP PUSH1 0x0 DUP2 PUSH1 0x3 ADD DUP2 SWAP1 SSTORE POP DUP2 DUP2 PUSH1 0x4 ADD PUSH1 0x0 PUSH2 0x100 EXP DUP2 SLOAD DUP2 PUSH20 0xFFFFFFFFFFFFFFFFFFFFFFFFFFFFFFFFFFFFFFFF MUL NOT AND SWAP1 DUP4 PUSH20 0xFFFFFFFFFFFFFFFFFFFFFFFFFFFFFFFFFFFFFFFF AND MUL OR SWAP1 SSTORE POP PUSH1 0x1 PUSH1 0x4 DUP7 PUSH1 0x40 MLOAD PUSH2 0x49B SWAP2 SWAP1 PUSH2 0x1193 JUMP JUMPDEST SWAP1 DUP2 MSTORE PUSH1 0x20 ADD PUSH1 0x40 MLOAD DUP1 SWAP2 SUB SWAP1 KECCAK256 PUSH1 0x0 PUSH2 0x100 EXP DUP2 SLOAD DUP2 PUSH1 0xFF MUL NOT AND SWAP1 DUP4 ISZERO ISZERO MUL OR SWAP1 SSTORE POP POP POP POP POP POP JUMP JUMPDEST PUSH1 0x0 DUP1 PUSH1 0x3 PUSH1 0x0 DUP5 DUP2 MSTORE PUSH1 0x20 ADD SWAP1 DUP2 MSTORE PUSH1 0x20 ADD PUSH1 0x0 KECCAK256 PUSH1 0x40 MLOAD DUP1 PUSH1 0xA0 ADD PUSH1 0x40 MSTORE SWAP1 DUP2 PUSH1 0x0 DUP3 ADD DUP1 SLOAD PUSH2 0x4F8 SWAP1 PUSH2 0x11D9 JUMP JUMPDEST DUP1 PUSH1 0x1F ADD PUSH1 0x20 DUP1 SWAP2 DIV MUL PUSH1 0x20 ADD PUSH1 0x40 MLOAD SWAP1 DUP2 ADD PUSH1 0x40 MSTORE DUP1 SWAP3 SWAP2 SWAP1 DUP2 DUP2 MSTORE PUSH1 0x20 ADD DUP3 DUP1 SLOAD PUSH2 0x524 SWAP1 PUSH2 0x11D9 JUMP JUMPDEST DUP1 ISZERO PUSH2 0x571 JUMPI DUP1 PUSH1 0x1F LT PUSH2 0x546 JUMPI PUSH2 0x100 DUP1 DUP4 SLOAD DIV MUL DUP4 MSTORE SWAP2 PUSH1 0x20 ADD SWAP2 PUSH2 0x571 JUMP JUMPDEST DUP3 ADD SWAP2 SWAP1 PUSH1 0x0 MSTORE PUSH1 0x20 PUSH1 0x0 KECCAK256 SWAP1 JUMPDEST DUP2 SLOAD DUP2 MSTORE SWAP1 PUSH1 0x1 ADD SWAP1 PUSH1 0x20 ADD DUP1 DUP4 GT PUSH2 0x554 JUMPI DUP3 SWAP1 SUB PUSH1 0x1F AND DUP3 ADD SWAP2 JUMPDEST POP POP POP POP POP DUP2 MSTORE PUSH1 0x20 ADD PUSH1 0x1 DUP3 ADD DUP1 SLOAD PUSH2 0x58A SWAP1 PUSH2 0x11D9 JUMP JUMPDEST DUP1 PUSH1 0x1F ADD PUSH1 0x20 DUP1 SWAP2 DIV MUL PUSH1 0x20 ADD PUSH1 0x40 MLOAD SWAP1 DUP2 ADD PUSH1 0x40 MSTORE DUP1 SWAP3 SWAP2 SWAP1 DUP2 DUP2 MSTORE PUSH1 0x20 ADD DUP3 DUP1 SLOAD PUSH2 0x5B6 SWAP1 PUSH2 0x11D9 JUMP JUMPDEST DUP1 ISZERO PUSH2 0x603 JUMPI DUP1 PUSH1 0x1F LT PUSH2 0x5D8 JUMPI PUSH2 0x100 DUP1 DUP4 SLOAD DIV MUL DUP4 MSTORE SWAP2 PUSH1 0x20 ADD SWAP2 PUSH2 0x603 JUMP JUMPDEST DUP3 ADD SWAP2 SWAP1 PUSH1 0x0 MSTORE PUSH1 0x20 PUSH1 0x0 KECCAK256 SWAP1 JUMPDEST DUP2 SLOAD DUP2 MSTORE SWAP1 PUSH1 0x1 ADD SWAP1 PUSH1 0x20 ADD DUP1 DUP4 GT PUSH2 0x5E6 JUMPI DUP3 SWAP1 SUB PUSH1 0x1F AND DUP3 ADD SWAP2 JUMPDEST POP POP POP POP POP DUP2 MSTORE PUSH1 0x20 ADD PUSH1 0x2 DUP3 ADD SLOAD DUP2 MSTORE PUSH1 0x20 ADD PUSH1 0x3 DUP3 ADD SLOAD DUP2 MSTORE PUSH1 0x20 ADD PUSH1 0x4 DUP3 ADD PUSH1 0x0 SWAP1 SLOAD SWAP1 PUSH2 0x100 EXP SWAP1 DIV PUSH20 0xFFFFFFFFFFFFFFFFFFFFFFFFFFFFFFFFFFFFFFFF AND PUSH20 0xFFFFFFFFFFFFFFFFFFFFFFFFFFFFFFFFFFFFFFFF AND PUSH20 0xFFFFFFFFFFFFFFFFFFFFFFFFFFFFFFFFFFFFFFFF AND DUP2 MSTORE POP POP SWAP1 POP DUP1 PUSH1 0x40 ADD MLOAD SWAP2 POP POP SWAP2 SWAP1 POP JUMP JUMPDEST PUSH1 0x0 DUP1 SLOAD SWAP1 PUSH2 0x100 EXP SWAP1 DIV PUSH20 0xFFFFFFFFFFFFFFFFFFFFFFFFFFFFFFFFFFFFFFFF AND DUP2 JUMP JUMPDEST PUSH1 0x60 DUP1 PUSH1 0x0 DUP1 PUSH1 0x0 DUP1 PUSH1 0x3 PUSH1 0x0 DUP9 DUP2 MSTORE PUSH1 0x20 ADD SWAP1 DUP2 MSTORE PUSH1 0x20 ADD PUSH1 0x0 KECCAK256 PUSH1 0x40 MLOAD DUP1 PUSH1 0xA0 ADD PUSH1 0x40 MSTORE SWAP1 DUP2 PUSH1 0x0 DUP3 ADD DUP1 SLOAD PUSH2 0x6E0 SWAP1 PUSH2 0x11D9 JUMP JUMPDEST DUP1 PUSH1 0x1F ADD PUSH1 0x20 DUP1 SWAP2 DIV MUL PUSH1 0x20 ADD PUSH1 0x40 MLOAD SWAP1 DUP2 ADD PUSH1 0x40 MSTORE DUP1 SWAP3 SWAP2 SWAP1 DUP2 DUP2 MSTORE PUSH1 0x20 ADD DUP3 DUP1 SLOAD PUSH2 0x70C SWAP1 PUSH2 0x11D9 JUMP JUMPDEST DUP1 ISZERO PUSH2 0x759 JUMPI DUP1 PUSH1 0x1F LT PUSH2 0x72E JUMPI PUSH2 0x100 DUP1 DUP4 SLOAD DIV MUL DUP4 MSTORE SWAP2 PUSH1 0x20 ADD SWAP2 PUSH2 0x759 JUMP JUMPDEST DUP3 ADD SWAP2 SWAP1 PUSH1 0x0 MSTORE PUSH1 0x20 PUSH1 0x0 KECCAK256 SWAP1 JUMPDEST DUP2 SLOAD DUP2 MSTORE SWAP1 PUSH1 0x1 ADD SWAP1 PUSH1 0x20 ADD DUP1 DUP4 GT PUSH2 0x73C JUMPI DUP3 SWAP1 SUB PUSH1 0x1F AND DUP3 ADD SWAP2 JUMPDEST POP POP POP POP POP DUP2 MSTORE PUSH1 0x20 ADD PUSH1 0x1 DUP3 ADD DUP1 SLOAD PUSH2 0x772 SWAP1 PUSH2 0x11D9 JUMP JUMPDEST DUP1 PUSH1 0x1F ADD PUSH1 0x20 DUP1 SWAP2 DIV MUL PUSH1 0x20 ADD PUSH1 0x40 MLOAD SWAP1 DUP2 ADD PUSH1 0x40 MSTORE DUP1 SWAP3 SWAP2 SWAP1 DUP2 DUP2 MSTORE PUSH1 0x20 ADD DUP3 DUP1 SLOAD PUSH2 0x79E SWAP1 PUSH2 0x11D9 JUMP JUMPDEST DUP1 ISZERO PUSH2 0x7EB JUMPI DUP1 PUSH1 0x1F LT PUSH2 0x7C0 JUMPI PUSH2 0x100 DUP1 DUP4 SLOAD DIV MUL DUP4 MSTORE SWAP2 PUSH1 0x20 ADD SWAP2 PUSH2 0x7EB JUMP JUMPDEST DUP3 ADD SWAP2 SWAP1 PUSH1 0x0 MSTORE PUSH1 0x20 PUSH1 0x0 KECCAK256 SWAP1 JUMPDEST DUP2 SLOAD DUP2 MSTORE SWAP1 PUSH1 0x1 ADD SWAP1 PUSH1 0x20 ADD DUP1 DUP4 GT PUSH2 0x7CE JUMPI DUP3 SWAP1 SUB PUSH1 0x1F AND DUP3 ADD SWAP2 JUMPDEST POP POP POP POP POP DUP2 MSTORE PUSH1 0x20 ADD PUSH1 0x2 DUP3 ADD SLOAD DUP2 MSTORE PUSH1 0x20 ADD PUSH1 0x3 DUP3 ADD SLOAD DUP2 MSTORE PUSH1 0x20 ADD PUSH1 0x4 DUP3 ADD PUSH1 0x0 SWAP1 SLOAD SWAP1 PUSH2 0x100 EXP SWAP1 DIV PUSH20 0xFFFFFFFFFFFFFFFFFFFFFFFFFFFFFFFFFFFFFFFF AND PUSH20 0xFFFFFFFFFFFFFFFFFFFFFFFFFFFFFFFFFFFFFFFF AND PUSH20 0xFFFFFFFFFFFFFFFFFFFFFFFFFFFFFFFFFFFFFFFF AND DUP2 MSTORE POP POP SWAP1 POP DUP1 PUSH1 0x0 ADD MLOAD DUP2 PUSH1 0x20 ADD MLOAD DUP3 PUSH1 0x40 ADD MLOAD DUP4 PUSH1 0x60 ADD MLOAD DUP5 PUSH1 0x80 ADD MLOAD SWAP6 POP SWAP6 POP SWAP6 POP SWAP6 POP SWAP6 POP POP SWAP2 SWAP4 SWAP6 SWAP1 SWAP3 SWAP5 POP JUMP JUMPDEST CALLER PUSH20 0xFFFFFFFFFFFFFFFFFFFFFFFFFFFFFFFFFFFFFFFF AND PUSH1 0x1 PUSH1 0x0 SWAP1 SLOAD SWAP1 PUSH2 0x100 EXP SWAP1 DIV PUSH20 0xFFFFFFFFFFFFFFFFFFFFFFFFFFFFFFFFFFFFFFFF AND PUSH20 0xFFFFFFFFFFFFFFFFFFFFFFFFFFFFFFFFFFFFFFFF AND EQ PUSH2 0x8E7 JUMPI PUSH1 0x0 DUP1 REVERT JUMPDEST PUSH1 0x0 PUSH1 0x3 PUSH1 0x0 DUP5 DUP2 MSTORE PUSH1 0x20 ADD SWAP1 DUP2 MSTORE PUSH1 0x20 ADD PUSH1 0x0 KECCAK256 SWAP1 POP DUP2 DUP2 PUSH1 0x4 ADD PUSH1 0x0 PUSH2 0x100 EXP DUP2 SLOAD DUP2 PUSH20 0xFFFFFFFFFFFFFFFFFFFFFFFFFFFFFFFFFFFFFFFF MUL NOT AND SWAP1 DUP4 PUSH20 0xFFFFFFFFFFFFFFFFFFFFFFFFFFFFFFFFFFFFFFFF AND MUL OR SWAP1 SSTORE POP POP POP POP JUMP JUMPDEST PUSH1 0x3 PUSH1 0x20 MSTORE DUP1 PUSH1 0x0 MSTORE PUSH1 0x40 PUSH1 0x0 KECCAK256 PUSH1 0x0 SWAP2 POP SWAP1 POP DUP1 PUSH1 0x0 ADD DUP1 SLOAD PUSH2 0x969 SWAP1 PUSH2 0x11D9 JUMP JUMPDEST DUP1 PUSH1 0x1F ADD PUSH1 0x20 DUP1 SWAP2 DIV MUL PUSH1 0x20 ADD PUSH1 0x40 MLOAD SWAP1 DUP2 ADD PUSH1 0x40 MSTORE DUP1 SWAP3 SWAP2 SWAP1 DUP2 DUP2 MSTORE PUSH1 0x20 ADD DUP3 DUP1 SLOAD PUSH2 0x995 SWAP1 PUSH2 0x11D9 JUMP JUMPDEST DUP1 ISZERO PUSH2 0x9E2 JUMPI DUP1 PUSH1 0x1F LT PUSH2 0x9B7 JUMPI PUSH2 0x100 DUP1 DUP4 SLOAD DIV MUL DUP4 MSTORE SWAP2 PUSH1 0x20 ADD SWAP2 PUSH2 0x9E2 JUMP JUMPDEST DUP3 ADD SWAP2 SWAP1 PUSH1 0x0 MSTORE PUSH1 0x20 PUSH1 0x0 KECCAK256 SWAP1 JUMPDEST DUP2 SLOAD DUP2 MSTORE SWAP1 PUSH1 0x1 ADD SWAP1 PUSH1 0x20 ADD DUP1 DUP4 GT PUSH2 0x9C5 JUMPI DUP3 SWAP1 SUB PUSH1 0x1F AND DUP3 ADD SWAP2 JUMPDEST POP POP POP POP POP SWAP1 DUP1 PUSH1 0x1 ADD DUP1 SLOAD PUSH2 0x9F7 SWAP1 PUSH2 0x11D9 JUMP JUMPDEST DUP1 PUSH1 0x1F ADD PUSH1 0x20 DUP1 SWAP2 DIV MUL PUSH1 0x20 ADD PUSH1 0x40 MLOAD SWAP1 DUP2 ADD PUSH1 0x40 MSTORE DUP1 SWAP3 SWAP2 SWAP1 DUP2 DUP2 MSTORE PUSH1 0x20 ADD DUP3 DUP1 SLOAD PUSH2 0xA23 SWAP1 PUSH2 0x11D9 JUMP JUMPDEST DUP1 ISZERO PUSH2 0xA70 JUMPI DUP1 PUSH1 0x1F LT PUSH2 0xA45 JUMPI PUSH2 0x100 DUP1 DUP4 SLOAD DIV MUL DUP4 MSTORE SWAP2 PUSH1 0x20 ADD SWAP2 PUSH2 0xA70 JUMP JUMPDEST DUP3 ADD SWAP2 SWAP1 PUSH1 0x0 MSTORE PUSH1 0x20 PUSH1 0x0 KECCAK256 SWAP1 JUMPDEST DUP2 SLOAD DUP2 MSTORE SWAP1 PUSH1 0x1 ADD SWAP1 PUSH1 0x20 ADD DUP1 DUP4 GT PUSH2 0xA53 JUMPI DUP3 SWAP1 SUB PUSH1 0x1F AND DUP3 ADD SWAP2 JUMPDEST POP POP POP POP POP SWAP1 DUP1 PUSH1 0x2 ADD SLOAD SWAP1 DUP1 PUSH1 0x3 ADD SLOAD SWAP1 DUP1 PUSH1 0x4 ADD PUSH1 0x0 SWAP1 SLOAD SWAP1 PUSH2 0x100 EXP SWAP1 DIV PUSH20 0xFFFFFFFFFFFFFFFFFFFFFFFFFFFFFFFFFFFFFFFF AND SWAP1 POP DUP6 JUMP JUMPDEST PUSH1 0x0 PUSH1 0x4 DUP3 PUSH1 0x40 MLOAD PUSH2 0xABE SWAP2 SWAP1 PUSH2 0x1193 JUMP JUMPDEST SWAP1 DUP2 MSTORE PUSH1 0x20 ADD PUSH1 0x40 MLOAD DUP1 SWAP2 SUB SWAP1 KECCAK256 PUSH1 0x0 SWAP1 SLOAD SWAP1 PUSH2 0x100 EXP SWAP1 DIV PUSH1 0xFF AND SWAP1 POP SWAP2 SWAP1 POP JUMP JUMPDEST PUSH1 0x2 SLOAD DUP2 JUMP JUMPDEST DUP3 DUP1 SLOAD PUSH2 0xAF3 SWAP1 PUSH2 0x11D9 JUMP JUMPDEST SWAP1 PUSH1 0x0 MSTORE PUSH1 0x20 PUSH1 0x0 KECCAK256 SWAP1 PUSH1 0x1F ADD PUSH1 0x20 SWAP1 DIV DUP2 ADD SWAP3 DUP3 PUSH2 0xB15 JUMPI PUSH1 0x0 DUP6 SSTORE PUSH2 0xB5C JUMP JUMPDEST DUP3 PUSH1 0x1F LT PUSH2 0xB2E JUMPI DUP1 MLOAD PUSH1 0xFF NOT AND DUP4 DUP1 ADD OR DUP6 SSTORE PUSH2 0xB5C JUMP JUMPDEST DUP3 DUP1 ADD PUSH1 0x1 ADD DUP6 SSTORE DUP3 ISZERO PUSH2 0xB5C JUMPI SWAP2 DUP3 ADD JUMPDEST DUP3 DUP2 GT ISZERO PUSH2 0xB5B JUMPI DUP3 MLOAD DUP3 SSTORE SWAP2 PUSH1 0x20 ADD SWAP2 SWAP1 PUSH1 0x1 ADD SWAP1 PUSH2 0xB40 JUMP JUMPDEST JUMPDEST POP SWAP1 POP PUSH2 0xB69 SWAP2 SWAP1 PUSH2 0xB6D JUMP JUMPDEST POP SWAP1 JUMP JUMPDEST JUMPDEST DUP1 DUP3 GT ISZERO PUSH2 0xB86 JUMPI PUSH1 0x0 DUP2 PUSH1 0x0 SWAP1 SSTORE POP PUSH1 0x1 ADD PUSH2 0xB6E JUMP JUMPDEST POP SWAP1 JUMP JUMPDEST PUSH1 0x0 PUSH1 0x40 MLOAD SWAP1 POP SWAP1 JUMP JUMPDEST PUSH1 0x0 DUP1 REVERT JUMPDEST PUSH1 0x0 DUP1 REVERT JUMPDEST PUSH1 0x0 DUP2 SWAP1 POP SWAP2 SWAP1 POP JUMP JUMPDEST PUSH2 0xBB1 DUP2 PUSH2 0xB9E JUMP JUMPDEST DUP2 EQ PUSH2 0xBBC JUMPI PUSH1 0x0 DUP1 REVERT JUMPDEST POP JUMP JUMPDEST PUSH1 0x0 DUP2 CALLDATALOAD SWAP1 POP PUSH2 0xBCE DUP2 PUSH2 0xBA8 JUMP JUMPDEST SWAP3 SWAP2 POP POP JUMP JUMPDEST PUSH1 0x0 PUSH1 0x20 DUP3 DUP5 SUB SLT ISZERO PUSH2 0xBEA JUMPI PUSH2 0xBE9 PUSH2 0xB94 JUMP JUMPDEST JUMPDEST PUSH1 0x0 PUSH2 0xBF8 DUP5 DUP3 DUP6 ADD PUSH2 0xBBF JUMP JUMPDEST SWAP2 POP POP SWAP3 SWAP2 POP POP JUMP JUMPDEST PUSH1 0x0 DUP1 REVERT JUMPDEST PUSH1 0x0 DUP1 REVERT JUMPDEST PUSH1 0x0 PUSH1 0x1F NOT PUSH1 0x1F DUP4 ADD AND SWAP1 POP SWAP2 SWAP1 POP JUMP JUMPDEST PUSH32 0x4E487B7100000000000000000000000000000000000000000000000000000000 PUSH1 0x0 MSTORE PUSH1 0x41 PUSH1 0x4 MSTORE PUSH1 0x24 PUSH1 0x0 REVERT JUMPDEST PUSH2 0xC54 DUP3 PUSH2 0xC0B JUMP JUMPDEST DUP2 ADD DUP2 DUP2 LT PUSH8 0xFFFFFFFFFFFFFFFF DUP3 GT OR ISZERO PUSH2 0xC73 JUMPI PUSH2 0xC72 PUSH2 0xC1C JUMP JUMPDEST JUMPDEST DUP1 PUSH1 0x40 MSTORE POP POP POP JUMP JUMPDEST PUSH1 0x0 PUSH2 0xC86 PUSH2 0xB8A JUMP JUMPDEST SWAP1 POP PUSH2 0xC92 DUP3 DUP3 PUSH2 0xC4B JUMP JUMPDEST SWAP2 SWAP1 POP JUMP JUMPDEST PUSH1 0x0 PUSH8 0xFFFFFFFFFFFFFFFF DUP3 GT ISZERO PUSH2 0xCB2 JUMPI PUSH2 0xCB1 PUSH2 0xC1C JUMP JUMPDEST JUMPDEST PUSH2 0xCBB DUP3 PUSH2 0xC0B JUMP JUMPDEST SWAP1 POP PUSH1 0x20 DUP2 ADD SWAP1 POP SWAP2 SWAP1 POP JUMP JUMPDEST DUP3 DUP2 DUP4 CALLDATACOPY PUSH1 0x0 DUP4 DUP4 ADD MSTORE POP POP POP JUMP JUMPDEST PUSH1 0x0 PUSH2 0xCEA PUSH2 0xCE5 DUP5 PUSH2 0xC97 JUMP JUMPDEST PUSH2 0xC7C JUMP JUMPDEST SWAP1 POP DUP3 DUP2 MSTORE PUSH1 0x20 DUP2 ADD DUP5 DUP5 DUP5 ADD GT ISZERO PUSH2 0xD06 JUMPI PUSH2 0xD05 PUSH2 0xC06 JUMP JUMPDEST JUMPDEST PUSH2 0xD11 DUP5 DUP3 DUP6 PUSH2 0xCC8 JUMP JUMPDEST POP SWAP4 SWAP3 POP POP POP JUMP JUMPDEST PUSH1 0x0 DUP3 PUSH1 0x1F DUP4 ADD SLT PUSH2 0xD2E JUMPI PUSH2 0xD2D PUSH2 0xC01 JUMP JUMPDEST JUMPDEST DUP2 CALLDATALOAD PUSH2 0xD3E DUP5 DUP3 PUSH1 0x20 DUP7 ADD PUSH2 0xCD7 JUMP JUMPDEST SWAP2 POP POP SWAP3 SWAP2 POP POP JUMP JUMPDEST PUSH1 0x0 DUP1 PUSH1 0x0 DUP1 PUSH1 0x80 DUP6 DUP8 SUB SLT ISZERO PUSH2 0xD61 JUMPI PUSH2 0xD60 PUSH2 0xB94 JUMP JUMPDEST JUMPDEST PUSH1 0x0 PUSH2 0xD6F DUP8 DUP3 DUP9 ADD PUSH2 0xBBF JUMP JUMPDEST SWAP5 POP POP PUSH1 0x20 DUP6 ADD CALLDATALOAD PUSH8 0xFFFFFFFFFFFFFFFF DUP2 GT ISZERO PUSH2 0xD90 JUMPI PUSH2 0xD8F PUSH2 0xB99 JUMP JUMPDEST JUMPDEST PUSH2 0xD9C DUP8 DUP3 DUP9 ADD PUSH2 0xD19 JUMP JUMPDEST SWAP4 POP POP PUSH1 0x40 DUP6 ADD CALLDATALOAD PUSH8 0xFFFFFFFFFFFFFFFF DUP2 GT ISZERO PUSH2 0xDBD JUMPI PUSH2 0xDBC PUSH2 0xB99 JUMP JUMPDEST JUMPDEST PUSH2 0xDC9 DUP8 DUP3 DUP9 ADD PUSH2 0xD19 JUMP JUMPDEST SWAP3 POP POP PUSH1 0x60 PUSH2 0xDDA DUP8 DUP3 DUP9 ADD PUSH2 0xBBF JUMP JUMPDEST SWAP2 POP POP SWAP3 SWAP6 SWAP2 SWAP5 POP SWAP3 POP JUMP JUMPDEST PUSH1 0x0 PUSH1 0x20 DUP3 DUP5 SUB SLT ISZERO PUSH2 0xDFC JUMPI PUSH2 0xDFB PUSH2 0xB94 JUMP JUMPDEST JUMPDEST PUSH1 0x0 DUP3 ADD CALLDATALOAD PUSH8 0xFFFFFFFFFFFFFFFF DUP2 GT ISZERO PUSH2 0xE1A JUMPI PUSH2 0xE19 PUSH2 0xB99 JUMP JUMPDEST JUMPDEST PUSH2 0xE26 DUP5 DUP3 DUP6 ADD PUSH2 0xD19 JUMP JUMPDEST SWAP2 POP POP SWAP3 SWAP2 POP POP JUMP JUMPDEST PUSH1 0x0 DUP2 ISZERO ISZERO SWAP1 POP SWAP2 SWAP1 POP JUMP JUMPDEST PUSH2 0xE44 DUP2 PUSH2 0xE2F JUMP JUMPDEST DUP3 MSTORE POP POP JUMP JUMPDEST PUSH1 0x0 PUSH1 0x20 DUP3 ADD SWAP1 POP PUSH2 0xE5F PUSH1 0x0 DUP4 ADD DUP5 PUSH2 0xE3B JUMP JUMPDEST SWAP3 SWAP2 POP POP JUMP JUMPDEST PUSH1 0x0 PUSH20 0xFFFFFFFFFFFFFFFFFFFFFFFFFFFFFFFFFFFFFFFF DUP3 AND SWAP1 POP SWAP2 SWAP1 POP JUMP JUMPDEST PUSH1 0x0 PUSH2 0xE90 DUP3 PUSH2 0xE65 JUMP JUMPDEST SWAP1 POP SWAP2 SWAP1 POP JUMP JUMPDEST PUSH2 0xEA0 DUP2 PUSH2 0xE85 JUMP JUMPDEST DUP2 EQ PUSH2 0xEAB JUMPI PUSH1 0x0 DUP1 REVERT JUMPDEST POP JUMP JUMPDEST PUSH1 0x0 DUP2 CALLDATALOAD SWAP1 POP PUSH2 0xEBD DUP2 PUSH2 0xE97 JUMP JUMPDEST SWAP3 SWAP2 POP POP JUMP JUMPDEST PUSH1 0x0 DUP1 PUSH1 0x0 DUP1 PUSH1 0x80 DUP6 DUP8 SUB SLT ISZERO PUSH2 0xEDD JUMPI PUSH2 0xEDC PUSH2 0xB94 JUMP JUMPDEST JUMPDEST PUSH1 0x0 DUP6 ADD CALLDATALOAD PUSH8 0xFFFFFFFFFFFFFFFF DUP2 GT ISZERO PUSH2 0xEFB JUMPI PUSH2 0xEFA PUSH2 0xB99 JUMP JUMPDEST JUMPDEST PUSH2 0xF07 DUP8 DUP3 DUP9 ADD PUSH2 0xD19 JUMP JUMPDEST SWAP5 POP POP PUSH1 0x20 DUP6 ADD CALLDATALOAD PUSH8 0xFFFFFFFFFFFFFFFF DUP2 GT ISZERO PUSH2 0xF28 JUMPI PUSH2 0xF27 PUSH2 0xB99 JUMP JUMPDEST JUMPDEST PUSH2 0xF34 DUP8 DUP3 DUP9 ADD PUSH2 0xD19 JUMP JUMPDEST SWAP4 POP POP PUSH1 0x40 PUSH2 0xF45 DUP8 DUP3 DUP9 ADD PUSH2 0xBBF JUMP JUMPDEST SWAP3 POP POP PUSH1 0x60 PUSH2 0xF56 DUP8 DUP3 DUP9 ADD PUSH2 0xEAE JUMP JUMPDEST SWAP2 POP POP SWAP3 SWAP6 SWAP2 SWAP5 POP SWAP3 POP JUMP JUMPDEST PUSH2 0xF6B DUP2 PUSH2 0xB9E JUMP JUMPDEST DUP3 MSTORE POP POP JUMP JUMPDEST PUSH1 0x0 PUSH1 0x20 DUP3 ADD SWAP1 POP PUSH2 0xF86 PUSH1 0x0 DUP4 ADD DUP5 PUSH2 0xF62 JUMP JUMPDEST SWAP3 SWAP2 POP POP JUMP JUMPDEST PUSH2 0xF95 DUP2 PUSH2 0xE85 JUMP JUMPDEST DUP3 MSTORE POP POP JUMP JUMPDEST PUSH1 0x0 PUSH1 0x20 DUP3 ADD SWAP1 POP PUSH2 0xFB0 PUSH1 0x0 DUP4 ADD DUP5 PUSH2 0xF8C JUMP JUMPDEST SWAP3 SWAP2 POP POP JUMP JUMPDEST PUSH1 0x0 DUP2 MLOAD SWAP1 POP SWAP2 SWAP1 POP JUMP JUMPDEST PUSH1 0x0 DUP3 DUP3 MSTORE PUSH1 0x20 DUP3 ADD SWAP1 POP SWAP3 SWAP2 POP POP JUMP JUMPDEST PUSH1 0x0 JUMPDEST DUP4 DUP2 LT ISZERO PUSH2 0xFF0 JUMPI DUP1 DUP3 ADD MLOAD DUP2 DUP5 ADD MSTORE PUSH1 0x20 DUP2 ADD SWAP1 POP PUSH2 0xFD5 JUMP JUMPDEST DUP4 DUP2 GT ISZERO PUSH2 0xFFF JUMPI PUSH1 0x0 DUP5 DUP5 ADD MSTORE JUMPDEST POP POP POP POP JUMP JUMPDEST PUSH1 0x0 PUSH2 0x1010 DUP3 PUSH2 0xFB6 JUMP JUMPDEST PUSH2 0x101A DUP2 DUP6 PUSH2 0xFC1 JUMP JUMPDEST SWAP4 POP PUSH2 0x102A DUP2 DUP6 PUSH1 0x20 DUP7 ADD PUSH2 0xFD2 JUMP JUMPDEST PUSH2 0x1033 DUP2 PUSH2 0xC0B JUMP JUMPDEST DUP5 ADD SWAP2 POP POP SWAP3 SWAP2 POP POP JUMP JUMPDEST PUSH1 0x0 PUSH1 0xA0 DUP3 ADD SWAP1 POP DUP2 DUP2 SUB PUSH1 0x0 DUP4 ADD MSTORE PUSH2 0x1058 DUP2 DUP9 PUSH2 0x1005 JUMP JUMPDEST SWAP1 POP DUP2 DUP2 SUB PUSH1 0x20 DUP4 ADD MSTORE PUSH2 0x106C DUP2 DUP8 PUSH2 0x1005 JUMP JUMPDEST SWAP1 POP PUSH2 0x107B PUSH1 0x40 DUP4 ADD DUP7 PUSH2 0xF62 JUMP JUMPDEST PUSH2 0x1088 PUSH1 0x60 DUP4 ADD DUP6 PUSH2 0xF62 JUMP JUMPDEST PUSH2 0x1095 PUSH1 0x80 DUP4 ADD DUP5 PUSH2 0xF8C JUMP JUMPDEST SWAP7 SWAP6 POP POP POP POP POP POP JUMP JUMPDEST PUSH1 0x0 DUP1 PUSH1 0x40 DUP4 DUP6 SUB SLT ISZERO PUSH2 0x10B6 JUMPI PUSH2 0x10B5 PUSH2 0xB94 JUMP JUMPDEST JUMPDEST PUSH1 0x0 PUSH2 0x10C4 DUP6 DUP3 DUP7 ADD PUSH2 0xBBF JUMP JUMPDEST SWAP3 POP POP PUSH1 0x20 PUSH2 0x10D5 DUP6 DUP3 DUP7 ADD PUSH2 0xEAE JUMP JUMPDEST SWAP2 POP POP SWAP3 POP SWAP3 SWAP1 POP JUMP JUMPDEST PUSH32 0x4E487B7100000000000000000000000000000000000000000000000000000000 PUSH1 0x0 MSTORE PUSH1 0x11 PUSH1 0x4 MSTORE PUSH1 0x24 PUSH1 0x0 REVERT JUMPDEST PUSH1 0x0 PUSH2 0x1119 DUP3 PUSH2 0xB9E JUMP JUMPDEST SWAP2 POP PUSH32 0xFFFFFFFFFFFFFFFFFFFFFFFFFFFFFFFFFFFFFFFFFFFFFFFFFFFFFFFFFFFFFFFF DUP3 EQ ISZERO PUSH2 0x114C JUMPI PUSH2 0x114B PUSH2 0x10DF JUMP JUMPDEST JUMPDEST PUSH1 0x1 DUP3 ADD SWAP1 POP SWAP2 SWAP1 POP JUMP JUMPDEST PUSH1 0x0 DUP2 SWAP1 POP SWAP3 SWAP2 POP POP JUMP JUMPDEST PUSH1 0x0 PUSH2 0x116D DUP3 PUSH2 0xFB6 JUMP JUMPDEST PUSH2 0x1177 DUP2 DUP6 PUSH2 0x1157 JUMP JUMPDEST SWAP4 POP PUSH2 0x1187 DUP2 DUP6 PUSH1 0x20 DUP7 ADD PUSH2 0xFD2 JUMP JUMPDEST DUP1 DUP5 ADD SWAP2 POP POP SWAP3 SWAP2 POP POP JUMP JUMPDEST PUSH1 0x0 PUSH2 0x119F DUP3 DUP5 PUSH2 0x1162 JUMP JUMPDEST SWAP2 POP DUP2 SWAP1 POP SWAP3 SWAP2 POP POP JUMP JUMPDEST PUSH32 0x4E487B7100000000000000000000000000000000000000000000000000000000 PUSH1 0x0 MSTORE PUSH1 0x22 PUSH1 0x4 MSTORE PUSH1 0x24 PUSH1 0x0 REVERT JUMPDEST PUSH1 0x0 PUSH1 0x2 DUP3 DIV SWAP1 POP PUSH1 0x1 DUP3 AND DUP1 PUSH2 0x11F1 JUMPI PUSH1 0x7F DUP3 AND SWAP2 POP JUMPDEST PUSH1 0x20 DUP3 LT DUP2 EQ ISZERO PUSH2 0x1205 JUMPI PUSH2 0x1204 PUSH2 0x11AA JUMP JUMPDEST JUMPDEST POP SWAP2 SWAP1 POP JUMP INVALID LOG2 PUSH5 0x6970667358 0x22 SLT KECCAK256 PUSH19 0x95D9DF1302A08B413A7EFFEAEE3CCC7AB05E39 MSTORE 0xE7 LOG0 0x27 0x5D 0xE2 EXTCODECOPY 0xAC DUP16 0xD9 0xB8 GT PUSH5 0x736F6C6343 STOP ADDMOD EXP STOP CALLER PUSH1 0x80 PUSH1 0x40 MSTORE CALLVALUE DUP1 ISZERO PUSH3 0x11 JUMPI PUSH1 0x0 DUP1 REVERT JUMPDEST POP PUSH1 0x40 MLOAD PUSH3 0x11D8 CODESIZE SUB DUP1 PUSH3 0x11D8 DUP4 CODECOPY DUP2 DUP2 ADD PUSH1 0x40 MSTORE DUP2 ADD SWAP1 PUSH3 0x37 SWAP2 SWAP1 PUSH3 0x129 JUMP JUMPDEST DUP1 PUSH1 0x0 DUP1 PUSH2 0x100 EXP DUP2 SLOAD DUP2 PUSH20 0xFFFFFFFFFFFFFFFFFFFFFFFFFFFFFFFFFFFFFFFF MUL NOT AND SWAP1 DUP4 PUSH20 0xFFFFFFFFFFFFFFFFFFFFFFFFFFFFFFFFFFFFFFFF AND MUL OR SWAP1 SSTORE POP CALLER PUSH1 0x1 PUSH1 0x0 PUSH2 0x100 EXP DUP2 SLOAD DUP2 PUSH20 0xFFFFFFFFFFFFFFFFFFFFFFFFFFFFFFFFFFFFFFFF MUL NOT AND SWAP1 DUP4 PUSH20 0xFFFFFFFFFFFFFFFFFFFFFFFFFFFFFFFFFFFFFFFF AND MUL OR SWAP1 SSTORE POP POP PUSH3 0x15B JUMP JUMPDEST PUSH1 0x0 DUP1 REVERT JUMPDEST PUSH1 0x0 PUSH20 0xFFFFFFFFFFFFFFFFFFFFFFFFFFFFFFFFFFFFFFFF DUP3 AND SWAP1 POP SWAP2 SWAP1 POP JUMP JUMPDEST PUSH1 0x0 PUSH3 0xF1 DUP3 PUSH3 0xC4 JUMP JUMPDEST SWAP1 POP SWAP2 SWAP1 POP JUMP JUMPDEST PUSH3 0x103 DUP2 PUSH3 0xE4 JUMP JUMPDEST DUP2 EQ PUSH3 0x10F JUMPI PUSH1 0x0 DUP1 REVERT JUMPDEST POP JUMP JUMPDEST PUSH1 0x0 DUP2 MLOAD SWAP1 POP PUSH3 0x123 DUP2 PUSH3 0xF8 JUMP JUMPDEST SWAP3 SWAP2 POP POP JUMP JUMPDEST PUSH1 0x0 PUSH1 0x20 DUP3 DUP5 SUB SLT ISZERO PUSH3 0x142 JUMPI PUSH3 0x141 PUSH3 0xBF JUMP JUMPDEST JUMPDEST PUSH1 0x0 PUSH3 0x152 DUP5 DUP3 DUP6 ADD PUSH3 0x112 JUMP JUMPDEST SWAP2 POP POP SWAP3 SWAP2 POP POP JUMP JUMPDEST PUSH2 0x106D DUP1 PUSH3 0x16B PUSH1 0x0 CODECOPY PUSH1 0x0 RETURN INVALID PUSH1 0x80 PUSH1 0x40 MSTORE CALLVALUE DUP1 ISZERO PUSH2 0x10 JUMPI PUSH1 0x0 DUP1 REVERT JUMPDEST POP PUSH1 0x4 CALLDATASIZE LT PUSH2 0x100 JUMPI PUSH1 0x0 CALLDATALOAD PUSH1 0xE0 SHR DUP1 PUSH4 0xA1CB5CF2 GT PUSH2 0x97 JUMPI DUP1 PUSH4 0xE3E1F001 GT PUSH2 0x66 JUMPI DUP1 PUSH4 0xE3E1F001 EQ PUSH2 0x2C1 JUMPI DUP1 PUSH4 0xE597EF12 EQ PUSH2 0x2DF JUMPI DUP1 PUSH4 0xECDED204 EQ PUSH2 0x2FB JUMPI DUP1 PUSH4 0xF3C95C60 EQ PUSH2 0x32B JUMPI PUSH2 0x100 JUMP JUMPDEST DUP1 PUSH4 0xA1CB5CF2 EQ PUSH2 0x237 JUMPI DUP1 PUSH4 0xA5A9C518 EQ PUSH2 0x255 JUMPI DUP1 PUSH4 0xA87430BA EQ PUSH2 0x271 JUMPI DUP1 PUSH4 0xCBAF3186 EQ PUSH2 0x2A5 JUMPI PUSH2 0x100 JUMP JUMPDEST DUP1 PUSH4 0x4420E486 GT PUSH2 0xD3 JUMPI DUP1 PUSH4 0x4420E486 EQ PUSH2 0x1C5 JUMPI DUP1 PUSH4 0x4A09DB4F EQ PUSH2 0x1E1 JUMPI DUP1 PUSH4 0x7C4DD96D EQ PUSH2 0x1FD JUMPI DUP1 PUSH4 0x8DA5CB5B EQ PUSH2 0x219 JUMPI PUSH2 0x100 JUMP JUMPDEST DUP1 PUSH4 0x19AA98A3 EQ PUSH2 0x105 JUMPI DUP1 PUSH4 0x371E91CA EQ PUSH2 0x135 JUMPI DUP1 PUSH4 0x3CBDEC03 EQ PUSH2 0x165 JUMPI DUP1 PUSH4 0x4172FB89 EQ PUSH2 0x195 JUMPI JUMPDEST PUSH1 0x0 DUP1 REVERT JUMPDEST PUSH2 0x11F PUSH1 0x4 DUP1 CALLDATASIZE SUB DUP2 ADD SWAP1 PUSH2 0x11A SWAP2 SWAP1 PUSH2 0xE15 JUMP JUMPDEST PUSH2 0x35B JUMP JUMPDEST PUSH1 0x40 MLOAD PUSH2 0x12C SWAP2 SWAP1 PUSH2 0xE5B JUMP JUMPDEST PUSH1 0x40 MLOAD DUP1 SWAP2 SUB SWAP1 RETURN JUMPDEST PUSH2 0x14F PUSH1 0x4 DUP1 CALLDATASIZE SUB DUP2 ADD SWAP1 PUSH2 0x14A SWAP2 SWAP1 PUSH2 0xEA2 JUMP JUMPDEST PUSH2 0x3AC JUMP JUMPDEST PUSH1 0x40 MLOAD PUSH2 0x15C SWAP2 SWAP1 PUSH2 0xEFD JUMP JUMPDEST PUSH1 0x40 MLOAD DUP1 SWAP2 SUB SWAP1 RETURN JUMPDEST PUSH2 0x17F PUSH1 0x4 DUP1 CALLDATASIZE SUB DUP2 ADD SWAP1 PUSH2 0x17A SWAP2 SWAP1 PUSH2 0xEA2 JUMP JUMPDEST PUSH2 0x414 JUMP JUMPDEST PUSH1 0x40 MLOAD PUSH2 0x18C SWAP2 SWAP1 PUSH2 0xEFD JUMP JUMPDEST PUSH1 0x40 MLOAD DUP1 SWAP2 SUB SWAP1 RETURN JUMPDEST PUSH2 0x1AF PUSH1 0x4 DUP1 CALLDATASIZE SUB DUP2 ADD SWAP1 PUSH2 0x1AA SWAP2 SWAP1 PUSH2 0xE15 JUMP JUMPDEST PUSH2 0x443 JUMP JUMPDEST PUSH1 0x40 MLOAD PUSH2 0x1BC SWAP2 SWAP1 PUSH2 0xEFD JUMP JUMPDEST PUSH1 0x40 MLOAD DUP1 SWAP2 SUB SWAP1 RETURN JUMPDEST PUSH2 0x1DF PUSH1 0x4 DUP1 CALLDATASIZE SUB DUP2 ADD SWAP1 PUSH2 0x1DA SWAP2 SWAP1 PUSH2 0xE15 JUMP JUMPDEST PUSH2 0x499 JUMP JUMPDEST STOP JUMPDEST PUSH2 0x1FB PUSH1 0x4 DUP1 CALLDATASIZE SUB DUP2 ADD SWAP1 PUSH2 0x1F6 SWAP2 SWAP1 PUSH2 0xEA2 JUMP JUMPDEST PUSH2 0x64A JUMP JUMPDEST STOP JUMPDEST PUSH2 0x217 PUSH1 0x4 DUP1 CALLDATASIZE SUB DUP2 ADD SWAP1 PUSH2 0x212 SWAP2 SWAP1 PUSH2 0xE15 JUMP JUMPDEST PUSH2 0x7C5 JUMP JUMPDEST STOP JUMPDEST PUSH2 0x221 PUSH2 0x8F5 JUMP JUMPDEST PUSH1 0x40 MLOAD PUSH2 0x22E SWAP2 SWAP1 PUSH2 0xF27 JUMP JUMPDEST PUSH1 0x40 MLOAD DUP1 SWAP2 SUB SWAP1 RETURN JUMPDEST PUSH2 0x23F PUSH2 0x919 JUMP JUMPDEST PUSH1 0x40 MLOAD PUSH2 0x24C SWAP2 SWAP1 PUSH2 0xE5B JUMP JUMPDEST PUSH1 0x40 MLOAD DUP1 SWAP2 SUB SWAP1 RETURN JUMPDEST PUSH2 0x26F PUSH1 0x4 DUP1 CALLDATASIZE SUB DUP2 ADD SWAP1 PUSH2 0x26A SWAP2 SWAP1 PUSH2 0xEA2 JUMP JUMPDEST PUSH2 0x923 JUMP JUMPDEST STOP JUMPDEST PUSH2 0x28B PUSH1 0x4 DUP1 CALLDATASIZE SUB DUP2 ADD SWAP1 PUSH2 0x286 SWAP2 SWAP1 PUSH2 0xE15 JUMP JUMPDEST PUSH2 0xAB8 JUMP JUMPDEST PUSH1 0x40 MLOAD PUSH2 0x29C SWAP6 SWAP5 SWAP4 SWAP3 SWAP2 SWAP1 PUSH2 0xF42 JUMP JUMPDEST PUSH1 0x40 MLOAD DUP1 SWAP2 SUB SWAP1 RETURN JUMPDEST PUSH2 0x2BF PUSH1 0x4 DUP1 CALLDATASIZE SUB DUP2 ADD SWAP1 PUSH2 0x2BA SWAP2 SWAP1 PUSH2 0xE15 JUMP JUMPDEST PUSH2 0xB0E JUMP JUMPDEST STOP JUMPDEST PUSH2 0x2C9 PUSH2 0xBDB JUMP JUMPDEST PUSH1 0x40 MLOAD PUSH2 0x2D6 SWAP2 SWAP1 PUSH2 0xE5B JUMP JUMPDEST PUSH1 0x40 MLOAD DUP1 SWAP2 SUB SWAP1 RETURN JUMPDEST PUSH2 0x2F9 PUSH1 0x4 DUP1 CALLDATASIZE SUB DUP2 ADD SWAP1 PUSH2 0x2F4 SWAP2 SWAP1 PUSH2 0xEA2 JUMP JUMPDEST PUSH2 0xBE1 JUMP JUMPDEST STOP JUMPDEST PUSH2 0x315 PUSH1 0x4 DUP1 CALLDATASIZE SUB DUP2 ADD SWAP1 PUSH2 0x310 SWAP2 SWAP1 PUSH2 0xE15 JUMP JUMPDEST PUSH2 0xD3C JUMP JUMPDEST PUSH1 0x40 MLOAD PUSH2 0x322 SWAP2 SWAP1 PUSH2 0xEFD JUMP JUMPDEST PUSH1 0x40 MLOAD DUP1 SWAP2 SUB SWAP1 RETURN JUMPDEST PUSH2 0x345 PUSH1 0x4 DUP1 CALLDATASIZE SUB DUP2 ADD SWAP1 PUSH2 0x340 SWAP2 SWAP1 PUSH2 0xE15 JUMP JUMPDEST PUSH2 0xD92 JUMP JUMPDEST PUSH1 0x40 MLOAD PUSH2 0x352 SWAP2 SWAP1 PUSH2 0xEFD JUMP JUMPDEST PUSH1 0x40 MLOAD DUP1 SWAP2 SUB SWAP1 RETURN JUMPDEST PUSH1 0x0 DUP1 PUSH1 0x3 PUSH1 0x0 DUP5 PUSH20 0xFFFFFFFFFFFFFFFFFFFFFFFFFFFFFFFFFFFFFFFF AND PUSH20 0xFFFFFFFFFFFFFFFFFFFFFFFFFFFFFFFFFFFFFFFF AND DUP2 MSTORE PUSH1 0x20 ADD SWAP1 DUP2 MSTORE PUSH1 0x20 ADD PUSH1 0x0 KECCAK256 SWAP1 POP DUP1 PUSH1 0x2 ADD SLOAD SWAP2 POP POP SWAP2 SWAP1 POP JUMP JUMPDEST PUSH1 0x0 PUSH1 0x5 PUSH1 0x0 DUP5 PUSH20 0xFFFFFFFFFFFFFFFFFFFFFFFFFFFFFFFFFFFFFFFF AND PUSH20 0xFFFFFFFFFFFFFFFFFFFFFFFFFFFFFFFFFFFFFFFF AND DUP2 MSTORE PUSH1 0x20 ADD SWAP1 DUP2 MSTORE PUSH1 0x20 ADD PUSH1 0x0 KECCAK256 PUSH1 0x0 DUP4 DUP2 MSTORE PUSH1 0x20 ADD SWAP1 DUP2 MSTORE PUSH1 0x20 ADD PUSH1 0x0 KECCAK256 PUSH1 0x0 SWAP1 SLOAD SWAP1 PUSH2 0x100 EXP SWAP1 DIV PUSH1 0xFF AND SWAP1 POP SWAP3 SWAP2 POP POP JUMP JUMPDEST PUSH1 0x5 PUSH1 0x20 MSTORE DUP2 PUSH1 0x0 MSTORE PUSH1 0x40 PUSH1 0x0 KECCAK256 PUSH1 0x20 MSTORE DUP1 PUSH1 0x0 MSTORE PUSH1 0x40 PUSH1 0x0 KECCAK256 PUSH1 0x0 SWAP2 POP SWAP2 POP SWAP1 SLOAD SWAP1 PUSH2 0x100 EXP SWAP1 DIV PUSH1 0xFF AND DUP2 JUMP JUMPDEST PUSH1 0x0 PUSH1 0x7 PUSH1 0x0 DUP4 PUSH20 0xFFFFFFFFFFFFFFFFFFFFFFFFFFFFFFFFFFFFFFFF AND PUSH20 0xFFFFFFFFFFFFFFFFFFFFFFFFFFFFFFFFFFFFFFFF AND DUP2 MSTORE PUSH1 0x20 ADD SWAP1 DUP2 MSTORE PUSH1 0x20 ADD PUSH1 0x0 KECCAK256 PUSH1 0x0 SWAP1 SLOAD SWAP1 PUSH2 0x100 EXP SWAP1 DIV PUSH1 0xFF AND SWAP1 POP SWAP2 SWAP1 POP JUMP JUMPDEST CALLER PUSH20 0xFFFFFFFFFFFFFFFFFFFFFFFFFFFFFFFFFFFFFFFF AND PUSH1 0x1 PUSH1 0x0 SWAP1 SLOAD SWAP1 PUSH2 0x100 EXP SWAP1 DIV PUSH20 0xFFFFFFFFFFFFFFFFFFFFFFFFFFFFFFFFFFFFFFFF AND PUSH20 0xFFFFFFFFFFFFFFFFFFFFFFFFFFFFFFFFFFFFFFFF AND EQ PUSH2 0x4F3 JUMPI PUSH1 0x0 DUP1 REVERT JUMPDEST PUSH1 0x4 PUSH1 0x0 DUP3 PUSH20 0xFFFFFFFFFFFFFFFFFFFFFFFFFFFFFFFFFFFFFFFF AND PUSH20 0xFFFFFFFFFFFFFFFFFFFFFFFFFFFFFFFFFFFFFFFF AND DUP2 MSTORE PUSH1 0x20 ADD SWAP1 DUP2 MSTORE PUSH1 0x20 ADD PUSH1 0x0 KECCAK256 PUSH1 0x0 SWAP1 SLOAD SWAP1 PUSH2 0x100 EXP SWAP1 DIV PUSH1 0xFF AND ISZERO PUSH2 0x54A JUMPI PUSH1 0x0 DUP1 REVERT JUMPDEST PUSH1 0x1 PUSH1 0x4 PUSH1 0x0 DUP4 PUSH20 0xFFFFFFFFFFFFFFFFFFFFFFFFFFFFFFFFFFFFFFFF AND PUSH20 0xFFFFFFFFFFFFFFFFFFFFFFFFFFFFFFFFFFFFFFFF AND DUP2 MSTORE PUSH1 0x20 ADD SWAP1 DUP2 MSTORE PUSH1 0x20 ADD PUSH1 0x0 KECCAK256 PUSH1 0x0 PUSH2 0x100 EXP DUP2 SLOAD DUP2 PUSH1 0xFF MUL NOT AND SWAP1 DUP4 ISZERO ISZERO MUL OR SWAP1 SSTORE POP PUSH1 0x0 PUSH1 0x3 PUSH1 0x0 DUP4 PUSH20 0xFFFFFFFFFFFFFFFFFFFFFFFFFFFFFFFFFFFFFFFF AND PUSH20 0xFFFFFFFFFFFFFFFFFFFFFFFFFFFFFFFFFFFFFFFF AND DUP2 MSTORE PUSH1 0x20 ADD SWAP1 DUP2 MSTORE PUSH1 0x20 ADD PUSH1 0x0 KECCAK256 SWAP1 POP DUP2 DUP2 PUSH1 0x0 ADD PUSH1 0x0 PUSH2 0x100 EXP DUP2 SLOAD DUP2 PUSH20 0xFFFFFFFFFFFFFFFFFFFFFFFFFFFFFFFFFFFFFFFF MUL NOT AND SWAP1 DUP4 PUSH20 0xFFFFFFFFFFFFFFFFFFFFFFFFFFFFFFFFFFFFFFFF AND MUL OR SWAP1 SSTORE POP PUSH1 0x0 DUP2 PUSH1 0x2 ADD DUP2 SWAP1 SSTORE POP PUSH1 0x0 DUP2 PUSH1 0x3 ADD DUP2 SWAP1 SSTORE POP PUSH1 0x0 DUP2 PUSH1 0x5 ADD DUP2 SWAP1 SSTORE POP POP POP JUMP JUMPDEST CALLER PUSH20 0xFFFFFFFFFFFFFFFFFFFFFFFFFFFFFFFFFFFFFFFF AND PUSH1 0x1 PUSH1 0x0 SWAP1 SLOAD SWAP1 PUSH2 0x100 EXP SWAP1 DIV PUSH20 0xFFFFFFFFFFFFFFFFFFFFFFFFFFFFFFFFFFFFFFFF AND PUSH20 0xFFFFFFFFFFFFFFFFFFFFFFFFFFFFFFFFFFFFFFFF AND EQ PUSH2 0x6A4 JUMPI PUSH1 0x0 DUP1 REVERT JUMPDEST PUSH1 0x4 PUSH1 0x0 DUP4 PUSH20 0xFFFFFFFFFFFFFFFFFFFFFFFFFFFFFFFFFFFFFFFF AND PUSH20 0xFFFFFFFFFFFFFFFFFFFFFFFFFFFFFFFFFFFFFFFF AND DUP2 MSTORE PUSH1 0x20 ADD SWAP1 DUP2 MSTORE PUSH1 0x20 ADD PUSH1 0x0 KECCAK256 PUSH1 0x0 SWAP1 SLOAD SWAP1 PUSH2 0x100 EXP SWAP1 DIV PUSH1 0xFF AND PUSH2 0x6FA JUMPI PUSH1 0x0 DUP1 REVERT JUMPDEST PUSH1 0x0 PUSH1 0x3 PUSH1 0x0 DUP5 PUSH20 0xFFFFFFFFFFFFFFFFFFFFFFFFFFFFFFFFFFFFFFFF AND PUSH20 0xFFFFFFFFFFFFFFFFFFFFFFFFFFFFFFFFFFFFFFFF AND DUP2 MSTORE PUSH1 0x20 ADD SWAP1 DUP2 MSTORE PUSH1 0x20 ADD PUSH1 0x0 KECCAK256 SWAP1 POP PUSH1 0x0 PUSH1 0x5 PUSH1 0x0 DUP6 PUSH20 0xFFFFFFFFFFFFFFFFFFFFFFFFFFFFFFFFFFFFFFFF AND PUSH20 0xFFFFFFFFFFFFFFFFFFFFFFFFFFFFFFFFFFFFFFFF AND DUP2 MSTORE PUSH1 0x20 ADD SWAP1 DUP2 MSTORE PUSH1 0x20 ADD PUSH1 0x0 KECCAK256 PUSH1 0x0 DUP5 DUP2 MSTORE PUSH1 0x20 ADD SWAP1 DUP2 MSTORE PUSH1 0x20 ADD PUSH1 0x0 KECCAK256 PUSH1 0x0 PUSH2 0x100 EXP DUP2 SLOAD DUP2 PUSH1 0xFF MUL NOT AND SWAP1 DUP4 ISZERO ISZERO MUL OR SWAP1 SSTORE POP DUP1 PUSH1 0x2 ADD PUSH1 0x0 DUP2 SLOAD DUP1 SWAP3 SWAP2 SWAP1 PUSH2 0x7BB SWAP1 PUSH2 0xFC4 JUMP JUMPDEST SWAP2 SWAP1 POP SSTORE POP POP POP POP JUMP JUMPDEST CALLER PUSH20 0xFFFFFFFFFFFFFFFFFFFFFFFFFFFFFFFFFFFFFFFF AND PUSH1 0x1 PUSH1 0x0 SWAP1 SLOAD SWAP1 PUSH2 0x100 EXP SWAP1 DIV PUSH20 0xFFFFFFFFFFFFFFFFFFFFFFFFFFFFFFFFFFFFFFFF AND PUSH20 0xFFFFFFFFFFFFFFFFFFFFFFFFFFFFFFFFFFFFFFFF AND EQ PUSH2 0x81F JUMPI PUSH1 0x0 DUP1 REVERT JUMPDEST PUSH1 0x1 PUSH1 0x7 PUSH1 0x0 DUP4 PUSH20 0xFFFFFFFFFFFFFFFFFFFFFFFFFFFFFFFFFFFFFFFF AND PUSH20 0xFFFFFFFFFFFFFFFFFFFFFFFFFFFFFFFFFFFFFFFF AND DUP2 MSTORE PUSH1 0x20 ADD SWAP1 DUP2 MSTORE PUSH1 0x20 ADD PUSH1 0x0 KECCAK256 PUSH1 0x0 PUSH2 0x100 EXP DUP2 SLOAD DUP2 PUSH1 0xFF MUL NOT AND SWAP1 DUP4 ISZERO ISZERO MUL OR SWAP1 SSTORE POP PUSH1 0x8 DUP2 SWAP1 DUP1 PUSH1 0x1 DUP2 SLOAD ADD DUP1 DUP3 SSTORE DUP1 SWAP2 POP POP PUSH1 0x1 SWAP1 SUB SWAP1 PUSH1 0x0 MSTORE PUSH1 0x20 PUSH1 0x0 KECCAK256 ADD PUSH1 0x0 SWAP1 SWAP2 SWAP1 SWAP2 SWAP1 SWAP2 PUSH2 0x100 EXP DUP2 SLOAD DUP2 PUSH20 0xFFFFFFFFFFFFFFFFFFFFFFFFFFFFFFFFFFFFFFFF MUL NOT AND SWAP1 DUP4 PUSH20 0xFFFFFFFFFFFFFFFFFFFFFFFFFFFFFFFFFFFFFFFF AND MUL OR SWAP1 SSTORE POP PUSH1 0x6 PUSH1 0x0 DUP2 SLOAD DUP1 SWAP3 SWAP2 SWAP1 PUSH2 0x8ED SWAP1 PUSH2 0xFEE JUMP JUMPDEST SWAP2 SWAP1 POP SSTORE POP POP JUMP JUMPDEST PUSH1 0x0 DUP1 SLOAD SWAP1 PUSH2 0x100 EXP SWAP1 DIV PUSH20 0xFFFFFFFFFFFFFFFFFFFFFFFFFFFFFFFFFFFFFFFF AND DUP2 JUMP JUMPDEST PUSH1 0x0 PUSH1 0x6 SLOAD SWAP1 POP SWAP1 JUMP JUMPDEST CALLER PUSH20 0xFFFFFFFFFFFFFFFFFFFFFFFFFFFFFFFFFFFFFFFF AND PUSH1 0x1 PUSH1 0x0 SWAP1 SLOAD SWAP1 PUSH2 0x100 EXP SWAP1 DIV PUSH20 0xFFFFFFFFFFFFFFFFFFFFFFFFFFFFFFFFFFFFFFFF AND PUSH20 0xFFFFFFFFFFFFFFFFFFFFFFFFFFFFFFFFFFFFFFFF AND EQ PUSH2 0x97D JUMPI PUSH1 0x0 DUP1 REVERT JUMPDEST PUSH1 0x4 PUSH1 0x0 DUP4 PUSH20 0xFFFFFFFFFFFFFFFFFFFFFFFFFFFFFFFFFFFFFFFF AND PUSH20 0xFFFFFFFFFFFFFFFFFFFFFFFFFFFFFFFFFFFFFFFF AND DUP2 MSTORE PUSH1 0x20 ADD SWAP1 DUP2 MSTORE PUSH1 0x20 ADD PUSH1 0x0 KECCAK256 PUSH1 0x0 SWAP1 SLOAD SWAP1 PUSH2 0x100 EXP SWAP1 DIV PUSH1 0xFF AND PUSH2 0x9D3 JUMPI PUSH1 0x0 DUP1 REVERT JUMPDEST PUSH1 0x0 PUSH1 0x3 PUSH1 0x0 DUP5 PUSH20 0xFFFFFFFFFFFFFFFFFFFFFFFFFFFFFFFFFFFFFFFF AND PUSH20 0xFFFFFFFFFFFFFFFFFFFFFFFFFFFFFFFFFFFFFFFF AND DUP2 MSTORE PUSH1 0x20 ADD SWAP1 DUP2 MSTORE PUSH1 0x20 ADD PUSH1 0x0 KECCAK256 SWAP1 POP PUSH1 0x1 PUSH1 0x5 PUSH1 0x0 DUP6 PUSH20 0xFFFFFFFFFFFFFFFFFFFFFFFFFFFFFFFFFFFFFFFF AND PUSH20 0xFFFFFFFFFFFFFFFFFFFFFFFFFFFFFFFFFFFFFFFF AND DUP2 MSTORE PUSH1 0x20 ADD SWAP1 DUP2 MSTORE PUSH1 0x20 ADD PUSH1 0x0 KECCAK256 PUSH1 0x0 DUP5 DUP2 MSTORE PUSH1 0x20 ADD SWAP1 DUP2 MSTORE PUSH1 0x20 ADD PUSH1 0x0 KECCAK256 PUSH1 0x0 PUSH2 0x100 EXP DUP2 SLOAD DUP2 PUSH1 0xFF MUL NOT AND SWAP1 DUP4 ISZERO ISZERO MUL OR SWAP1 SSTORE POP DUP1 PUSH1 0x2 ADD PUSH1 0x0 DUP2 SLOAD DUP1 SWAP3 SWAP2 SWAP1 PUSH2 0xA94 SWAP1 PUSH2 0xFEE JUMP JUMPDEST SWAP2 SWAP1 POP SSTORE POP DUP1 PUSH1 0x3 ADD PUSH1 0x0 DUP2 SLOAD DUP1 SWAP3 SWAP2 SWAP1 PUSH2 0xAAE SWAP1 PUSH2 0xFEE JUMP JUMPDEST SWAP2 SWAP1 POP SSTORE POP POP POP POP JUMP JUMPDEST PUSH1 0x3 PUSH1 0x20 MSTORE DUP1 PUSH1 0x0 MSTORE PUSH1 0x40 PUSH1 0x0 KECCAK256 PUSH1 0x0 SWAP2 POP SWAP1 POP DUP1 PUSH1 0x0 ADD PUSH1 0x0 SWAP1 SLOAD SWAP1 PUSH2 0x100 EXP SWAP1 DIV PUSH20 0xFFFFFFFFFFFFFFFFFFFFFFFFFFFFFFFFFFFFFFFF AND SWAP1 DUP1 PUSH1 0x1 ADD SLOAD SWAP1 DUP1 PUSH1 0x2 ADD SLOAD SWAP1 DUP1 PUSH1 0x3 ADD SLOAD SWAP1 DUP1 PUSH1 0x5 ADD SLOAD SWAP1 POP DUP6 JUMP JUMPDEST CALLER PUSH20 0xFFFFFFFFFFFFFFFFFFFFFFFFFFFFFFFFFFFFFFFF AND PUSH1 0x1 PUSH1 0x0 SWAP1 SLOAD SWAP1 PUSH2 0x100 EXP SWAP1 DIV PUSH20 0xFFFFFFFFFFFFFFFFFFFFFFFFFFFFFFFFFFFFFFFF AND PUSH20 0xFFFFFFFFFFFFFFFFFFFFFFFFFFFFFFFFFFFFFFFF AND EQ PUSH2 0xB68 JUMPI PUSH1 0x0 DUP1 REVERT JUMPDEST PUSH1 0x0 PUSH1 0x7 PUSH1 0x0 DUP4 PUSH20 0xFFFFFFFFFFFFFFFFFFFFFFFFFFFFFFFFFFFFFFFF AND PUSH20 0xFFFFFFFFFFFFFFFFFFFFFFFFFFFFFFFFFFFFFFFF AND DUP2 MSTORE PUSH1 0x20 ADD SWAP1 DUP2 MSTORE PUSH1 0x20 ADD PUSH1 0x0 KECCAK256 PUSH1 0x0 PUSH2 0x100 EXP DUP2 SLOAD DUP2 PUSH1 0xFF MUL NOT AND SWAP1 DUP4 ISZERO ISZERO MUL OR SWAP1 SSTORE POP PUSH1 0x6 PUSH1 0x0 DUP2 SLOAD DUP1 SWAP3 SWAP2 SWAP1 PUSH2 0xBD3 SWAP1 PUSH2 0xFC4 JUMP JUMPDEST SWAP2 SWAP1 POP SSTORE POP POP JUMP JUMPDEST PUSH1 0x2 SLOAD DUP2 JUMP JUMPDEST CALLER PUSH20 0xFFFFFFFFFFFFFFFFFFFFFFFFFFFFFFFFFFFFFFFF AND PUSH1 0x1 PUSH1 0x0 SWAP1 SLOAD SWAP1 PUSH2 0x100 EXP SWAP1 DIV PUSH20 0xFFFFFFFFFFFFFFFFFFFFFFFFFFFFFFFFFFFFFFFF AND PUSH20 0xFFFFFFFFFFFFFFFFFFFFFFFFFFFFFFFFFFFFFFFF AND EQ PUSH2 0xC3B JUMPI PUSH1 0x0 DUP1 REVERT JUMPDEST PUSH1 0x4 PUSH1 0x0 DUP4 PUSH20 0xFFFFFFFFFFFFFFFFFFFFFFFFFFFFFFFFFFFFFFFF AND PUSH20 0xFFFFFFFFFFFFFFFFFFFFFFFFFFFFFFFFFFFFFFFF AND DUP2 MSTORE PUSH1 0x20 ADD SWAP1 DUP2 MSTORE PUSH1 0x20 ADD PUSH1 0x0 KECCAK256 PUSH1 0x0 SWAP1 SLOAD SWAP1 PUSH2 0x100 EXP SWAP1 DIV PUSH1 0xFF AND PUSH2 0xC91 JUMPI PUSH1 0x0 DUP1 REVERT JUMPDEST PUSH1 0x0 PUSH1 0x3 PUSH1 0x0 DUP5 PUSH20 0xFFFFFFFFFFFFFFFFFFFFFFFFFFFFFFFFFFFFFFFF AND PUSH20 0xFFFFFFFFFFFFFFFFFFFFFFFFFFFFFFFFFFFFFFFF AND DUP2 MSTORE PUSH1 0x20 ADD SWAP1 DUP2 MSTORE PUSH1 0x20 ADD PUSH1 0x0 KECCAK256 SWAP1 POP DUP1 PUSH1 0x6 ADD DUP3 SWAP1 DUP1 PUSH1 0x1 DUP2 SLOAD ADD DUP1 DUP3 SSTORE DUP1 SWAP2 POP POP PUSH1 0x1 SWAP1 SUB SWAP1 PUSH1 0x0 MSTORE PUSH1 0x20 PUSH1 0x0 KECCAK256 ADD PUSH1 0x0 SWAP1 SWAP2 SWAP1 SWAP2 SWAP1 SWAP2 POP SSTORE DUP1 PUSH1 0x5 ADD SLOAD DUP2 PUSH1 0x7 ADD PUSH1 0x0 DUP5 DUP2 MSTORE PUSH1 0x20 ADD SWAP1 DUP2 MSTORE PUSH1 0x20 ADD PUSH1 0x0 KECCAK256 DUP2 SWAP1 SSTORE POP DUP1 PUSH1 0x5 ADD PUSH1 0x0 DUP2 SLOAD DUP1 SWAP3 SWAP2 SWAP1 PUSH2 0xD32 SWAP1 PUSH2 0xFEE JUMP JUMPDEST SWAP2 SWAP1 POP SSTORE POP POP POP POP JUMP JUMPDEST PUSH1 0x0 PUSH1 0x4 PUSH1 0x0 DUP4 PUSH20 0xFFFFFFFFFFFFFFFFFFFFFFFFFFFFFFFFFFFFFFFF AND PUSH20 0xFFFFFFFFFFFFFFFFFFFFFFFFFFFFFFFFFFFFFFFF AND DUP2 MSTORE PUSH1 0x20 ADD SWAP1 DUP2 MSTORE PUSH1 0x20 ADD PUSH1 0x0 KECCAK256 PUSH1 0x0 SWAP1 SLOAD SWAP1 PUSH2 0x100 EXP SWAP1 DIV PUSH1 0xFF AND SWAP1 POP SWAP2 SWAP1 POP JUMP JUMPDEST PUSH1 0x4 PUSH1 0x20 MSTORE DUP1 PUSH1 0x0 MSTORE PUSH1 0x40 PUSH1 0x0 KECCAK256 PUSH1 0x0 SWAP2 POP SLOAD SWAP1 PUSH2 0x100 EXP SWAP1 DIV PUSH1 0xFF AND DUP2 JUMP JUMPDEST PUSH1 0x0 DUP1 REVERT JUMPDEST PUSH1 0x0 PUSH20 0xFFFFFFFFFFFFFFFFFFFFFFFFFFFFFFFFFFFFFFFF DUP3 AND SWAP1 POP SWAP2 SWAP1 POP JUMP JUMPDEST PUSH1 0x0 PUSH2 0xDE2 DUP3 PUSH2 0xDB7 JUMP JUMPDEST SWAP1 POP SWAP2 SWAP1 POP JUMP JUMPDEST PUSH2 0xDF2 DUP2 PUSH2 0xDD7 JUMP JUMPDEST DUP2 EQ PUSH2 0xDFD JUMPI PUSH1 0x0 DUP1 REVERT JUMPDEST POP JUMP JUMPDEST PUSH1 0x0 DUP2 CALLDATALOAD SWAP1 POP PUSH2 0xE0F DUP2 PUSH2 0xDE9 JUMP JUMPDEST SWAP3 SWAP2 POP POP JUMP JUMPDEST PUSH1 0x0 PUSH1 0x20 DUP3 DUP5 SUB SLT ISZERO PUSH2 0xE2B JUMPI PUSH2 0xE2A PUSH2 0xDB2 JUMP JUMPDEST JUMPDEST PUSH1 0x0 PUSH2 0xE39 DUP5 DUP3 DUP6 ADD PUSH2 0xE00 JUMP JUMPDEST SWAP2 POP POP SWAP3 SWAP2 POP POP JUMP JUMPDEST PUSH1 0x0 DUP2 SWAP1 POP SWAP2 SWAP1 POP JUMP JUMPDEST PUSH2 0xE55 DUP2 PUSH2 0xE42 JUMP JUMPDEST DUP3 MSTORE POP POP JUMP JUMPDEST PUSH1 0x0 PUSH1 0x20 DUP3 ADD SWAP1 POP PUSH2 0xE70 PUSH1 0x0 DUP4 ADD DUP5 PUSH2 0xE4C JUMP JUMPDEST SWAP3 SWAP2 POP POP JUMP JUMPDEST PUSH2 0xE7F DUP2 PUSH2 0xE42 JUMP JUMPDEST DUP2 EQ PUSH2 0xE8A JUMPI PUSH1 0x0 DUP1 REVERT JUMPDEST POP JUMP JUMPDEST PUSH1 0x0 DUP2 CALLDATALOAD SWAP1 POP PUSH2 0xE9C DUP2 PUSH2 0xE76 JUMP JUMPDEST SWAP3 SWAP2 POP POP JUMP JUMPDEST PUSH1 0x0 DUP1 PUSH1 0x40 DUP4 DUP6 SUB SLT ISZERO PUSH2 0xEB9 JUMPI PUSH2 0xEB8 PUSH2 0xDB2 JUMP JUMPDEST JUMPDEST PUSH1 0x0 PUSH2 0xEC7 DUP6 DUP3 DUP7 ADD PUSH2 0xE00 JUMP JUMPDEST SWAP3 POP POP PUSH1 0x20 PUSH2 0xED8 DUP6 DUP3 DUP7 ADD PUSH2 0xE8D JUMP JUMPDEST SWAP2 POP POP SWAP3 POP SWAP3 SWAP1 POP JUMP JUMPDEST PUSH1 0x0 DUP2 ISZERO ISZERO SWAP1 POP SWAP2 SWAP1 POP JUMP JUMPDEST PUSH2 0xEF7 DUP2 PUSH2 0xEE2 JUMP JUMPDEST DUP3 MSTORE POP POP JUMP JUMPDEST PUSH1 0x0 PUSH1 0x20 DUP3 ADD SWAP1 POP PUSH2 0xF12 PUSH1 0x0 DUP4 ADD DUP5 PUSH2 0xEEE JUMP JUMPDEST SWAP3 SWAP2 POP POP JUMP JUMPDEST PUSH2 0xF21 DUP2 PUSH2 0xDD7 JUMP JUMPDEST DUP3 MSTORE POP POP JUMP JUMPDEST PUSH1 0x0 PUSH1 0x20 DUP3 ADD SWAP1 POP PUSH2 0xF3C PUSH1 0x0 DUP4 ADD DUP5 PUSH2 0xF18 JUMP JUMPDEST SWAP3 SWAP2 POP POP JUMP JUMPDEST PUSH1 0x0 PUSH1 0xA0 DUP3 ADD SWAP1 POP PUSH2 0xF57 PUSH1 0x0 DUP4 ADD DUP9 PUSH2 0xF18 JUMP JUMPDEST PUSH2 0xF64 PUSH1 0x20 DUP4 ADD DUP8 PUSH2 0xE4C JUMP JUMPDEST PUSH2 0xF71 PUSH1 0x40 DUP4 ADD DUP7 PUSH2 0xE4C JUMP JUMPDEST PUSH2 0xF7E PUSH1 0x60 DUP4 ADD DUP6 PUSH2 0xE4C JUMP JUMPDEST PUSH2 0xF8B PUSH1 0x80 DUP4 ADD DUP5 PUSH2 0xE4C JUMP JUMPDEST SWAP7 SWAP6 POP POP POP POP POP POP JUMP JUMPDEST PUSH32 0x4E487B7100000000000000000000000000000000000000000000000000000000 PUSH1 0x0 MSTORE PUSH1 0x11 PUSH1 0x4 MSTORE PUSH1 0x24 PUSH1 0x0 REVERT JUMPDEST PUSH1 0x0 PUSH2 0xFCF DUP3 PUSH2 0xE42 JUMP JUMPDEST SWAP2 POP PUSH1 0x0 DUP3 EQ ISZERO PUSH2 0xFE3 JUMPI PUSH2 0xFE2 PUSH2 0xF95 JUMP JUMPDEST JUMPDEST PUSH1 0x1 DUP3 SUB SWAP1 POP SWAP2 SWAP1 POP JUMP JUMPDEST PUSH1 0x0 PUSH2 0xFF9 DUP3 PUSH2 0xE42 JUMP JUMPDEST SWAP2 POP PUSH32 0xFFFFFFFFFFFFFFFFFFFFFFFFFFFFFFFFFFFFFFFFFFFFFFFFFFFFFFFFFFFFFFFF DUP3 EQ ISZERO PUSH2 0x102C JUMPI PUSH2 0x102B PUSH2 0xF95 JUMP JUMPDEST JUMPDEST PUSH1 0x1 DUP3 ADD SWAP1 POP SWAP2 SWAP1 POP JUMP INVALID LOG2 PUSH5 0x6970667358 0x22 SLT KECCAK256 0xBB SWAP8 CALLDATACOPY DIFFICULTY 0xAA 0xC5 CALLDATACOPY 0x4B ORIGIN PUSH14 0xFE497D73102D3EA9F6BB2A23C5F1 0xC 0x5E NOT 0xDC SHR RETURNDATACOPY BASEFEE PUSH2 0x6473 PUSH16 0x6C634300080A00336080604052348015 PUSH3 0x11 JUMPI PUSH1 0x0 DUP1 REVERT JUMPDEST POP PUSH1 0x40 MLOAD PUSH3 0x117A CODESIZE SUB DUP1 PUSH3 0x117A DUP4 CODECOPY DUP2 DUP2 ADD PUSH1 0x40 MSTORE DUP2 ADD SWAP1 PUSH3 0x37 SWAP2 SWAP1 PUSH3 0x129 JUMP JUMPDEST DUP1 PUSH1 0x0 DUP1 PUSH2 0x100 EXP DUP2 SLOAD DUP2 PUSH20 0xFFFFFFFFFFFFFFFFFFFFFFFFFFFFFFFFFFFFFFFF MUL NOT AND SWAP1 DUP4 PUSH20 0xFFFFFFFFFFFFFFFFFFFFFFFFFFFFFFFFFFFFFFFF AND MUL OR SWAP1 SSTORE POP CALLER PUSH1 0x1 PUSH1 0x0 PUSH2 0x100 EXP DUP2 SLOAD DUP2 PUSH20 0xFFFFFFFFFFFFFFFFFFFFFFFFFFFFFFFFFFFFFFFF MUL NOT AND SWAP1 DUP4 PUSH20 0xFFFFFFFFFFFFFFFFFFFFFFFFFFFFFFFFFFFFFFFF AND MUL OR SWAP1 SSTORE POP POP PUSH3 0x15B JUMP JUMPDEST PUSH1 0x0 DUP1 REVERT JUMPDEST PUSH1 0x0 PUSH20 0xFFFFFFFFFFFFFFFFFFFFFFFFFFFFFFFFFFFFFFFF DUP3 AND SWAP1 POP SWAP2 SWAP1 POP JUMP JUMPDEST PUSH1 0x0 PUSH3 0xF1 DUP3 PUSH3 0xC4 JUMP JUMPDEST SWAP1 POP SWAP2 SWAP1 POP JUMP JUMPDEST PUSH3 0x103 DUP2 PUSH3 0xE4 JUMP JUMPDEST DUP2 EQ PUSH3 0x10F JUMPI PUSH1 0x0 DUP1 REVERT JUMPDEST POP JUMP JUMPDEST PUSH1 0x0 DUP2 MLOAD SWAP1 POP PUSH3 0x123 DUP2 PUSH3 0xF8 JUMP JUMPDEST SWAP3 SWAP2 POP POP JUMP JUMPDEST PUSH1 0x0 PUSH1 0x20 DUP3 DUP5 SUB SLT ISZERO PUSH3 0x142 JUMPI PUSH3 0x141 PUSH3 0xBF JUMP JUMPDEST JUMPDEST PUSH1 0x0 PUSH3 0x152 DUP5 DUP3 DUP6 ADD PUSH3 0x112 JUMP JUMPDEST SWAP2 POP POP SWAP3 SWAP2 POP POP JUMP JUMPDEST PUSH2 0x100F DUP1 PUSH3 0x16B PUSH1 0x0 CODECOPY PUSH1 0x0 RETURN INVALID PUSH1 0x80 PUSH1 0x40 MSTORE CALLVALUE DUP1 ISZERO PUSH2 0x10 JUMPI PUSH1 0x0 DUP1 REVERT JUMPDEST POP PUSH1 0x4 CALLDATASIZE LT PUSH2 0xCF JUMPI PUSH1 0x0 CALLDATALOAD PUSH1 0xE0 SHR DUP1 PUSH4 0x921C47B1 GT PUSH2 0x8C JUMPI DUP1 PUSH4 0xAB21A2BE GT PUSH2 0x66 JUMPI DUP1 PUSH4 0xAB21A2BE EQ PUSH2 0x252 JUMPI DUP1 PUSH4 0xCA5140C9 EQ PUSH2 0x26E JUMPI DUP1 PUSH4 0xEF228C92 EQ PUSH2 0x28A JUMPI DUP1 PUSH4 0xF6B4DFB4 EQ PUSH2 0x2A6 JUMPI PUSH2 0xCF JUMP JUMPDEST DUP1 PUSH4 0x921C47B1 EQ PUSH2 0x1D4 JUMPI DUP1 PUSH4 0x98AF1F07 EQ PUSH2 0x1F2 JUMPI DUP1 PUSH4 0xA46D8AC7 EQ PUSH2 0x222 JUMPI PUSH2 0xCF JUMP JUMPDEST DUP1 PUSH4 0x1CE06944 EQ PUSH2 0xD4 JUMPI DUP1 PUSH4 0x3B2F7118 EQ PUSH2 0x104 JUMPI DUP1 PUSH4 0x67615AD5 EQ PUSH2 0x134 JUMPI DUP1 PUSH4 0x83B65CB4 EQ PUSH2 0x164 JUMPI DUP1 PUSH4 0x8DA5CB5B EQ PUSH2 0x19A JUMPI DUP1 PUSH4 0x8DBBFBDE EQ PUSH2 0x1B8 JUMPI JUMPDEST PUSH1 0x0 DUP1 REVERT JUMPDEST PUSH2 0xEE PUSH1 0x4 DUP1 CALLDATASIZE SUB DUP2 ADD SWAP1 PUSH2 0xE9 SWAP2 SWAP1 PUSH2 0xC77 JUMP JUMPDEST PUSH2 0x2C4 JUMP JUMPDEST PUSH1 0x40 MLOAD PUSH2 0xFB SWAP2 SWAP1 PUSH2 0xCB3 JUMP JUMPDEST PUSH1 0x40 MLOAD DUP1 SWAP2 SUB SWAP1 RETURN JUMPDEST PUSH2 0x11E PUSH1 0x4 DUP1 CALLDATASIZE SUB DUP2 ADD SWAP1 PUSH2 0x119 SWAP2 SWAP1 PUSH2 0xC77 JUMP JUMPDEST PUSH2 0x3E3 JUMP JUMPDEST PUSH1 0x40 MLOAD PUSH2 0x12B SWAP2 SWAP1 PUSH2 0xD0F JUMP JUMPDEST PUSH1 0x40 MLOAD DUP1 SWAP2 SUB SWAP1 RETURN JUMPDEST PUSH2 0x14E PUSH1 0x4 DUP1 CALLDATASIZE SUB DUP2 ADD SWAP1 PUSH2 0x149 SWAP2 SWAP1 PUSH2 0xC77 JUMP JUMPDEST PUSH2 0x502 JUMP JUMPDEST PUSH1 0x40 MLOAD PUSH2 0x15B SWAP2 SWAP1 PUSH2 0xCB3 JUMP JUMPDEST PUSH1 0x40 MLOAD DUP1 SWAP2 SUB SWAP1 RETURN JUMPDEST PUSH2 0x17E PUSH1 0x4 DUP1 CALLDATASIZE SUB DUP2 ADD SWAP1 PUSH2 0x179 SWAP2 SWAP1 PUSH2 0xC77 JUMP JUMPDEST PUSH2 0x621 JUMP JUMPDEST PUSH1 0x40 MLOAD PUSH2 0x191 SWAP8 SWAP7 SWAP6 SWAP5 SWAP4 SWAP3 SWAP2 SWAP1 PUSH2 0xD45 JUMP JUMPDEST PUSH1 0x40 MLOAD DUP1 SWAP2 SUB SWAP1 RETURN JUMPDEST PUSH2 0x1A2 PUSH2 0x6B0 JUMP JUMPDEST PUSH1 0x40 MLOAD PUSH2 0x1AF SWAP2 SWAP1 PUSH2 0xD0F JUMP JUMPDEST PUSH1 0x40 MLOAD DUP1 SWAP2 SUB SWAP1 RETURN JUMPDEST PUSH2 0x1D2 PUSH1 0x4 DUP1 CALLDATASIZE SUB DUP2 ADD SWAP1 PUSH2 0x1CD SWAP2 SWAP1 PUSH2 0xDB4 JUMP JUMPDEST PUSH2 0x6D4 JUMP JUMPDEST STOP JUMPDEST PUSH2 0x1DC PUSH2 0x76D JUMP JUMPDEST PUSH1 0x40 MLOAD PUSH2 0x1E9 SWAP2 SWAP1 PUSH2 0xCB3 JUMP JUMPDEST PUSH1 0x40 MLOAD DUP1 SWAP2 SUB SWAP1 RETURN JUMPDEST PUSH2 0x20C PUSH1 0x4 DUP1 CALLDATASIZE SUB DUP2 ADD SWAP1 PUSH2 0x207 SWAP2 SWAP1 PUSH2 0xC77 JUMP JUMPDEST PUSH2 0x773 JUMP JUMPDEST PUSH1 0x40 MLOAD PUSH2 0x219 SWAP2 SWAP1 PUSH2 0xE07 JUMP JUMPDEST PUSH1 0x40 MLOAD DUP1 SWAP2 SUB SWAP1 RETURN JUMPDEST PUSH2 0x23C PUSH1 0x4 DUP1 CALLDATASIZE SUB DUP2 ADD SWAP1 PUSH2 0x237 SWAP2 SWAP1 PUSH2 0xE4E JUMP JUMPDEST PUSH2 0x892 JUMP JUMPDEST PUSH1 0x40 MLOAD PUSH2 0x249 SWAP2 SWAP1 PUSH2 0xCB3 JUMP JUMPDEST PUSH1 0x40 MLOAD DUP1 SWAP2 SUB SWAP1 RETURN JUMPDEST PUSH2 0x26C PUSH1 0x4 DUP1 CALLDATASIZE SUB DUP2 ADD SWAP1 PUSH2 0x267 SWAP2 SWAP1 PUSH2 0xEB5 JUMP JUMPDEST PUSH2 0x9F8 JUMP JUMPDEST STOP JUMPDEST PUSH2 0x288 PUSH1 0x4 DUP1 CALLDATASIZE SUB DUP2 ADD SWAP1 PUSH2 0x283 SWAP2 SWAP1 PUSH2 0xC77 JUMP JUMPDEST PUSH2 0xAC1 JUMP JUMPDEST STOP JUMPDEST PUSH2 0x2A4 PUSH1 0x4 DUP1 CALLDATASIZE SUB DUP2 ADD SWAP1 PUSH2 0x29F SWAP2 SWAP1 PUSH2 0xF21 JUMP JUMPDEST PUSH2 0xB74 JUMP JUMPDEST STOP JUMPDEST PUSH2 0x2AE PUSH2 0xC16 JUMP JUMPDEST PUSH1 0x40 MLOAD PUSH2 0x2BB SWAP2 SWAP1 PUSH2 0xD0F JUMP JUMPDEST PUSH1 0x40 MLOAD DUP1 SWAP2 SUB SWAP1 RETURN JUMPDEST PUSH1 0x0 DUP1 PUSH1 0x3 PUSH1 0x0 DUP5 DUP2 MSTORE PUSH1 0x20 ADD SWAP1 DUP2 MSTORE PUSH1 0x20 ADD PUSH1 0x0 KECCAK256 PUSH1 0x40 MLOAD DUP1 PUSH1 0xE0 ADD PUSH1 0x40 MSTORE SWAP1 DUP2 PUSH1 0x0 DUP3 ADD SLOAD DUP2 MSTORE PUSH1 0x20 ADD PUSH1 0x1 DUP3 ADD PUSH1 0x0 SWAP1 SLOAD SWAP1 PUSH2 0x100 EXP SWAP1 DIV PUSH20 0xFFFFFFFFFFFFFFFFFFFFFFFFFFFFFFFFFFFFFFFF AND PUSH20 0xFFFFFFFFFFFFFFFFFFFFFFFFFFFFFFFFFFFFFFFF AND PUSH20 0xFFFFFFFFFFFFFFFFFFFFFFFFFFFFFFFFFFFFFFFF AND DUP2 MSTORE PUSH1 0x20 ADD PUSH1 0x2 DUP3 ADD SLOAD DUP2 MSTORE PUSH1 0x20 ADD PUSH1 0x3 DUP3 ADD PUSH1 0x0 SWAP1 SLOAD SWAP1 PUSH2 0x100 EXP SWAP1 DIV PUSH20 0xFFFFFFFFFFFFFFFFFFFFFFFFFFFFFFFFFFFFFFFF AND PUSH20 0xFFFFFFFFFFFFFFFFFFFFFFFFFFFFFFFFFFFFFFFF AND PUSH20 0xFFFFFFFFFFFFFFFFFFFFFFFFFFFFFFFFFFFFFFFF AND DUP2 MSTORE PUSH1 0x20 ADD PUSH1 0x3 DUP3 ADD PUSH1 0x14 SWAP1 SLOAD SWAP1 PUSH2 0x100 EXP SWAP1 DIV PUSH1 0xFF AND ISZERO ISZERO ISZERO ISZERO DUP2 MSTORE PUSH1 0x20 ADD PUSH1 0x4 DUP3 ADD SLOAD DUP2 MSTORE PUSH1 0x20 ADD PUSH1 0x5 DUP3 ADD SLOAD DUP2 MSTORE POP POP SWAP1 POP DUP1 PUSH1 0xC0 ADD MLOAD SWAP2 POP POP SWAP2 SWAP1 POP JUMP JUMPDEST PUSH1 0x0 DUP1 PUSH1 0x3 PUSH1 0x0 DUP5 DUP2 MSTORE PUSH1 0x20 ADD SWAP1 DUP2 MSTORE PUSH1 0x20 ADD PUSH1 0x0 KECCAK256 PUSH1 0x40 MLOAD DUP1 PUSH1 0xE0 ADD PUSH1 0x40 MSTORE SWAP1 DUP2 PUSH1 0x0 DUP3 ADD SLOAD DUP2 MSTORE PUSH1 0x20 ADD PUSH1 0x1 DUP3 ADD PUSH1 0x0 SWAP1 SLOAD SWAP1 PUSH2 0x100 EXP SWAP1 DIV PUSH20 0xFFFFFFFFFFFFFFFFFFFFFFFFFFFFFFFFFFFFFFFF AND PUSH20 0xFFFFFFFFFFFFFFFFFFFFFFFFFFFFFFFFFFFFFFFF AND PUSH20 0xFFFFFFFFFFFFFFFFFFFFFFFFFFFFFFFFFFFFFFFF AND DUP2 MSTORE PUSH1 0x20 ADD PUSH1 0x2 DUP3 ADD SLOAD DUP2 MSTORE PUSH1 0x20 ADD PUSH1 0x3 DUP3 ADD PUSH1 0x0 SWAP1 SLOAD SWAP1 PUSH2 0x100 EXP SWAP1 DIV PUSH20 0xFFFFFFFFFFFFFFFFFFFFFFFFFFFFFFFFFFFFFFFF AND PUSH20 0xFFFFFFFFFFFFFFFFFFFFFFFFFFFFFFFFFFFFFFFF AND PUSH20 0xFFFFFFFFFFFFFFFFFFFFFFFFFFFFFFFFFFFFFFFF AND DUP2 MSTORE PUSH1 0x20 ADD PUSH1 0x3 DUP3 ADD PUSH1 0x14 SWAP1 SLOAD SWAP1 PUSH2 0x100 EXP SWAP1 DIV PUSH1 0xFF AND ISZERO ISZERO ISZERO ISZERO DUP2 MSTORE PUSH1 0x20 ADD PUSH1 0x4 DUP3 ADD SLOAD DUP2 MSTORE PUSH1 0x20 ADD PUSH1 0x5 DUP3 ADD SLOAD DUP2 MSTORE POP POP SWAP1 POP DUP1 PUSH1 0x60 ADD MLOAD SWAP2 POP POP SWAP2 SWAP1 POP JUMP JUMPDEST PUSH1 0x0 DUP1 PUSH1 0x3 PUSH1 0x0 DUP5 DUP2 MSTORE PUSH1 0x20 ADD SWAP1 DUP2 MSTORE PUSH1 0x20 ADD PUSH1 0x0 KECCAK256 PUSH1 0x40 MLOAD DUP1 PUSH1 0xE0 ADD PUSH1 0x40 MSTORE SWAP1 DUP2 PUSH1 0x0 DUP3 ADD SLOAD DUP2 MSTORE PUSH1 0x20 ADD PUSH1 0x1 DUP3 ADD PUSH1 0x0 SWAP1 SLOAD SWAP1 PUSH2 0x100 EXP SWAP1 DIV PUSH20 0xFFFFFFFFFFFFFFFFFFFFFFFFFFFFFFFFFFFFFFFF AND PUSH20 0xFFFFFFFFFFFFFFFFFFFFFFFFFFFFFFFFFFFFFFFF AND PUSH20 0xFFFFFFFFFFFFFFFFFFFFFFFFFFFFFFFFFFFFFFFF AND DUP2 MSTORE PUSH1 0x20 ADD PUSH1 0x2 DUP3 ADD SLOAD DUP2 MSTORE PUSH1 0x20 ADD PUSH1 0x3 DUP3 ADD PUSH1 0x0 SWAP1 SLOAD SWAP1 PUSH2 0x100 EXP SWAP1 DIV PUSH20 0xFFFFFFFFFFFFFFFFFFFFFFFFFFFFFFFFFFFFFFFF AND PUSH20 0xFFFFFFFFFFFFFFFFFFFFFFFFFFFFFFFFFFFFFFFF AND PUSH20 0xFFFFFFFFFFFFFFFFFFFFFFFFFFFFFFFFFFFFFFFF AND DUP2 MSTORE PUSH1 0x20 ADD PUSH1 0x3 DUP3 ADD PUSH1 0x14 SWAP1 SLOAD SWAP1 PUSH2 0x100 EXP SWAP1 DIV PUSH1 0xFF AND ISZERO ISZERO ISZERO ISZERO DUP2 MSTORE PUSH1 0x20 ADD PUSH1 0x4 DUP3 ADD SLOAD DUP2 MSTORE PUSH1 0x20 ADD PUSH1 0x5 DUP3 ADD SLOAD DUP2 MSTORE POP POP SWAP1 POP DUP1 PUSH1 0x40 ADD MLOAD SWAP2 POP POP SWAP2 SWAP1 POP JUMP JUMPDEST PUSH1 0x3 PUSH1 0x20 MSTORE DUP1 PUSH1 0x0 MSTORE PUSH1 0x40 PUSH1 0x0 KECCAK256 PUSH1 0x0 SWAP2 POP SWAP1 POP DUP1 PUSH1 0x0 ADD SLOAD SWAP1 DUP1 PUSH1 0x1 ADD PUSH1 0x0 SWAP1 SLOAD SWAP1 PUSH2 0x100 EXP SWAP1 DIV PUSH20 0xFFFFFFFFFFFFFFFFFFFFFFFFFFFFFFFFFFFFFFFF AND SWAP1 DUP1 PUSH1 0x2 ADD SLOAD SWAP1 DUP1 PUSH1 0x3 ADD PUSH1 0x0 SWAP1 SLOAD SWAP1 PUSH2 0x100 EXP SWAP1 DIV PUSH20 0xFFFFFFFFFFFFFFFFFFFFFFFFFFFFFFFFFFFFFFFF AND SWAP1 DUP1 PUSH1 0x3 ADD PUSH1 0x14 SWAP1 SLOAD SWAP1 PUSH2 0x100 EXP SWAP1 DIV PUSH1 0xFF AND SWAP1 DUP1 PUSH1 0x4 ADD SLOAD SWAP1 DUP1 PUSH1 0x5 ADD SLOAD SWAP1 POP DUP8 JUMP JUMPDEST PUSH1 0x0 DUP1 SLOAD SWAP1 PUSH2 0x100 EXP SWAP1 DIV PUSH20 0xFFFFFFFFFFFFFFFFFFFFFFFFFFFFFFFFFFFFFFFF AND DUP2 JUMP JUMPDEST DUP3 PUSH1 0x2 SLOAD DUP2 LT PUSH2 0x6E3 JUMPI PUSH1 0x0 DUP1 REVERT JUMPDEST CALLER PUSH20 0xFFFFFFFFFFFFFFFFFFFFFFFFFFFFFFFFFFFFFFFF AND PUSH1 0x1 PUSH1 0x0 SWAP1 SLOAD SWAP1 PUSH2 0x100 EXP SWAP1 DIV PUSH20 0xFFFFFFFFFFFFFFFFFFFFFFFFFFFFFFFFFFFFFFFF AND PUSH20 0xFFFFFFFFFFFFFFFFFFFFFFFFFFFFFFFFFFFFFFFF AND EQ PUSH2 0x73D JUMPI PUSH1 0x0 DUP1 REVERT JUMPDEST PUSH1 0x0 PUSH1 0x3 PUSH1 0x0 DUP7 DUP2 MSTORE PUSH1 0x20 ADD SWAP1 DUP2 MSTORE PUSH1 0x20 ADD PUSH1 0x0 KECCAK256 SWAP1 POP DUP4 DUP2 PUSH1 0x4 ADD DUP2 SWAP1 SSTORE POP DUP3 DUP2 PUSH1 0x5 ADD DUP2 SWAP1 SSTORE POP POP POP POP POP POP JUMP JUMPDEST PUSH1 0x2 SLOAD DUP2 JUMP JUMPDEST PUSH1 0x0 DUP1 PUSH1 0x3 PUSH1 0x0 DUP5 DUP2 MSTORE PUSH1 0x20 ADD SWAP1 DUP2 MSTORE PUSH1 0x20 ADD PUSH1 0x0 KECCAK256 PUSH1 0x40 MLOAD DUP1 PUSH1 0xE0 ADD PUSH1 0x40 MSTORE SWAP1 DUP2 PUSH1 0x0 DUP3 ADD SLOAD DUP2 MSTORE PUSH1 0x20 ADD PUSH1 0x1 DUP3 ADD PUSH1 0x0 SWAP1 SLOAD SWAP1 PUSH2 0x100 EXP SWAP1 DIV PUSH20 0xFFFFFFFFFFFFFFFFFFFFFFFFFFFFFFFFFFFFFFFF AND PUSH20 0xFFFFFFFFFFFFFFFFFFFFFFFFFFFFFFFFFFFFFFFF AND PUSH20 0xFFFFFFFFFFFFFFFFFFFFFFFFFFFFFFFFFFFFFFFF AND DUP2 MSTORE PUSH1 0x20 ADD PUSH1 0x2 DUP3 ADD SLOAD DUP2 MSTORE PUSH1 0x20 ADD PUSH1 0x3 DUP3 ADD PUSH1 0x0 SWAP1 SLOAD SWAP1 PUSH2 0x100 EXP SWAP1 DIV PUSH20 0xFFFFFFFFFFFFFFFFFFFFFFFFFFFFFFFFFFFFFFFF AND PUSH20 0xFFFFFFFFFFFFFFFFFFFFFFFFFFFFFFFFFFFFFFFF AND PUSH20 0xFFFFFFFFFFFFFFFFFFFFFFFFFFFFFFFFFFFFFFFF AND DUP2 MSTORE PUSH1 0x20 ADD PUSH1 0x3 DUP3 ADD PUSH1 0x14 SWAP1 SLOAD SWAP1 PUSH2 0x100 EXP SWAP1 DIV PUSH1 0xFF AND ISZERO ISZERO ISZERO ISZERO DUP2 MSTORE PUSH1 0x20 ADD PUSH1 0x4 DUP3 ADD SLOAD DUP2 MSTORE PUSH1 0x20 ADD PUSH1 0x5 DUP3 ADD SLOAD DUP2 MSTORE POP POP SWAP1 POP DUP1 PUSH1 0x80 ADD MLOAD SWAP2 POP POP SWAP2 SWAP1 POP JUMP JUMPDEST PUSH1 0x0 CALLER PUSH20 0xFFFFFFFFFFFFFFFFFFFFFFFFFFFFFFFFFFFFFFFF AND PUSH1 0x1 PUSH1 0x0 SWAP1 SLOAD SWAP1 PUSH2 0x100 EXP SWAP1 DIV PUSH20 0xFFFFFFFFFFFFFFFFFFFFFFFFFFFFFFFFFFFFFFFF AND PUSH20 0xFFFFFFFFFFFFFFFFFFFFFFFFFFFFFFFFFFFFFFFF AND EQ PUSH2 0x8EE JUMPI PUSH1 0x0 DUP1 REVERT JUMPDEST PUSH1 0x0 PUSH1 0x3 PUSH1 0x0 PUSH1 0x2 SLOAD DUP2 MSTORE PUSH1 0x20 ADD SWAP1 DUP2 MSTORE PUSH1 0x20 ADD PUSH1 0x0 KECCAK256 SWAP1 POP PUSH1 0x2 SLOAD DUP2 PUSH1 0x0 ADD DUP2 SWAP1 SSTORE POP DUP5 DUP2 PUSH1 0x2 ADD DUP2 SWAP1 SSTORE POP DUP6 DUP2 PUSH1 0x1 ADD PUSH1 0x0 PUSH2 0x100 EXP DUP2 SLOAD DUP2 PUSH20 0xFFFFFFFFFFFFFFFFFFFFFFFFFFFFFFFFFFFFFFFF MUL NOT AND SWAP1 DUP4 PUSH20 0xFFFFFFFFFFFFFFFFFFFFFFFFFFFFFFFFFFFFFFFF AND MUL OR SWAP1 SSTORE POP DUP6 DUP2 PUSH1 0x3 ADD PUSH1 0x0 PUSH2 0x100 EXP DUP2 SLOAD DUP2 PUSH20 0xFFFFFFFFFFFFFFFFFFFFFFFFFFFFFFFFFFFFFFFF MUL NOT AND SWAP1 DUP4 PUSH20 0xFFFFFFFFFFFFFFFFFFFFFFFFFFFFFFFFFFFFFFFF AND MUL OR SWAP1 SSTORE POP PUSH1 0x0 DUP2 PUSH1 0x3 ADD PUSH1 0x14 PUSH2 0x100 EXP DUP2 SLOAD DUP2 PUSH1 0xFF MUL NOT AND SWAP1 DUP4 ISZERO ISZERO MUL OR SWAP1 SSTORE POP DUP4 DUP2 PUSH1 0x4 ADD DUP2 SWAP1 SSTORE POP DUP3 DUP2 PUSH1 0x5 ADD DUP2 SWAP1 SSTORE POP PUSH1 0x2 PUSH1 0x0 DUP2 SLOAD DUP1 SWAP3 SWAP2 SWAP1 PUSH2 0x9E3 SWAP1 PUSH2 0xF90 JUMP JUMPDEST SWAP2 SWAP1 POP SSTORE POP DUP1 PUSH1 0x0 ADD SLOAD SWAP2 POP POP SWAP5 SWAP4 POP POP POP POP JUMP JUMPDEST DUP2 PUSH1 0x2 SLOAD DUP2 LT PUSH2 0xA07 JUMPI PUSH1 0x0 DUP1 REVERT JUMPDEST CALLER PUSH20 0xFFFFFFFFFFFFFFFFFFFFFFFFFFFFFFFFFFFFFFFF AND PUSH1 0x1 PUSH1 0x0 SWAP1 SLOAD SWAP1 PUSH2 0x100 EXP SWAP1 DIV PUSH20 0xFFFFFFFFFFFFFFFFFFFFFFFFFFFFFFFFFFFFFFFF AND PUSH20 0xFFFFFFFFFFFFFFFFFFFFFFFFFFFFFFFFFFFFFFFF AND EQ PUSH2 0xA61 JUMPI PUSH1 0x0 DUP1 REVERT JUMPDEST PUSH1 0x0 PUSH1 0x3 PUSH1 0x0 DUP6 DUP2 MSTORE PUSH1 0x20 ADD SWAP1 DUP2 MSTORE PUSH1 0x20 ADD PUSH1 0x0 KECCAK256 SWAP1 POP DUP3 DUP2 PUSH1 0x3 ADD PUSH1 0x0 PUSH2 0x100 EXP DUP2 SLOAD DUP2 PUSH20 0xFFFFFFFFFFFFFFFFFFFFFFFFFFFFFFFFFFFFFFFF MUL NOT AND SWAP1 DUP4 PUSH20 0xFFFFFFFFFFFFFFFFFFFFFFFFFFFFFFFFFFFFFFFF AND MUL OR SWAP1 SSTORE POP POP POP POP POP JUMP JUMPDEST DUP1 PUSH1 0x2 SLOAD DUP2 LT PUSH2 0xAD0 JUMPI PUSH1 0x0 DUP1 REVERT JUMPDEST CALLER PUSH20 0xFFFFFFFFFFFFFFFFFFFFFFFFFFFFFFFFFFFFFFFF AND PUSH1 0x1 PUSH1 0x0 SWAP1 SLOAD SWAP1 PUSH2 0x100 EXP SWAP1 DIV PUSH20 0xFFFFFFFFFFFFFFFFFFFFFFFFFFFFFFFFFFFFFFFF AND PUSH20 0xFFFFFFFFFFFFFFFFFFFFFFFFFFFFFFFFFFFFFFFF AND EQ PUSH2 0xB2A JUMPI PUSH1 0x0 DUP1 REVERT JUMPDEST PUSH1 0x0 PUSH1 0x3 PUSH1 0x0 DUP5 DUP2 MSTORE PUSH1 0x20 ADD SWAP1 DUP2 MSTORE PUSH1 0x20 ADD PUSH1 0x0 KECCAK256 SWAP1 POP PUSH2 0xB6F DUP4 DUP3 PUSH1 0x1 ADD PUSH1 0x0 SWAP1 SLOAD SWAP1 PUSH2 0x100 EXP SWAP1 DIV PUSH20 0xFFFFFFFFFFFFFFFFFFFFFFFFFFFFFFFFFFFFFFFF AND PUSH2 0x9F8 JUMP JUMPDEST POP POP POP JUMP JUMPDEST DUP2 PUSH1 0x2 SLOAD DUP2 LT PUSH2 0xB83 JUMPI PUSH1 0x0 DUP1 REVERT JUMPDEST CALLER PUSH20 0xFFFFFFFFFFFFFFFFFFFFFFFFFFFFFFFFFFFFFFFF AND PUSH1 0x1 PUSH1 0x0 SWAP1 SLOAD SWAP1 PUSH2 0x100 EXP SWAP1 DIV PUSH20 0xFFFFFFFFFFFFFFFFFFFFFFFFFFFFFFFFFFFFFFFF AND PUSH20 0xFFFFFFFFFFFFFFFFFFFFFFFFFFFFFFFFFFFFFFFF AND EQ PUSH2 0xBDD JUMPI PUSH1 0x0 DUP1 REVERT JUMPDEST PUSH1 0x0 PUSH1 0x3 PUSH1 0x0 DUP6 DUP2 MSTORE PUSH1 0x20 ADD SWAP1 DUP2 MSTORE PUSH1 0x20 ADD PUSH1 0x0 KECCAK256 SWAP1 POP DUP3 DUP2 PUSH1 0x3 ADD PUSH1 0x14 PUSH2 0x100 EXP DUP2 SLOAD DUP2 PUSH1 0xFF MUL NOT AND SWAP1 DUP4 ISZERO ISZERO MUL OR SWAP1 SSTORE POP POP POP POP POP JUMP JUMPDEST PUSH1 0x1 PUSH1 0x0 SWAP1 SLOAD SWAP1 PUSH2 0x100 EXP SWAP1 DIV PUSH20 0xFFFFFFFFFFFFFFFFFFFFFFFFFFFFFFFFFFFFFFFF AND DUP2 JUMP JUMPDEST PUSH1 0x0 DUP1 REVERT JUMPDEST PUSH1 0x0 DUP2 SWAP1 POP SWAP2 SWAP1 POP JUMP JUMPDEST PUSH2 0xC54 DUP2 PUSH2 0xC41 JUMP JUMPDEST DUP2 EQ PUSH2 0xC5F JUMPI PUSH1 0x0 DUP1 REVERT JUMPDEST POP JUMP JUMPDEST PUSH1 0x0 DUP2 CALLDATALOAD SWAP1 POP PUSH2 0xC71 DUP2 PUSH2 0xC4B JUMP JUMPDEST SWAP3 SWAP2 POP POP JUMP JUMPDEST PUSH1 0x0 PUSH1 0x20 DUP3 DUP5 SUB SLT ISZERO PUSH2 0xC8D JUMPI PUSH2 0xC8C PUSH2 0xC3C JUMP JUMPDEST JUMPDEST PUSH1 0x0 PUSH2 0xC9B DUP5 DUP3 DUP6 ADD PUSH2 0xC62 JUMP JUMPDEST SWAP2 POP POP SWAP3 SWAP2 POP POP JUMP JUMPDEST PUSH2 0xCAD DUP2 PUSH2 0xC41 JUMP JUMPDEST DUP3 MSTORE POP POP JUMP JUMPDEST PUSH1 0x0 PUSH1 0x20 DUP3 ADD SWAP1 POP PUSH2 0xCC8 PUSH1 0x0 DUP4 ADD DUP5 PUSH2 0xCA4 JUMP JUMPDEST SWAP3 SWAP2 POP POP JUMP JUMPDEST PUSH1 0x0 PUSH20 0xFFFFFFFFFFFFFFFFFFFFFFFFFFFFFFFFFFFFFFFF DUP3 AND SWAP1 POP SWAP2 SWAP1 POP JUMP JUMPDEST PUSH1 0x0 PUSH2 0xCF9 DUP3 PUSH2 0xCCE JUMP JUMPDEST SWAP1 POP SWAP2 SWAP1 POP JUMP JUMPDEST PUSH2 0xD09 DUP2 PUSH2 0xCEE JUMP JUMPDEST DUP3 MSTORE POP POP JUMP JUMPDEST PUSH1 0x0 PUSH1 0x20 DUP3 ADD SWAP1 POP PUSH2 0xD24 PUSH1 0x0 DUP4 ADD DUP5 PUSH2 0xD00 JUMP JUMPDEST SWAP3 SWAP2 POP POP JUMP JUMPDEST PUSH1 0x0 DUP2 ISZERO ISZERO SWAP1 POP SWAP2 SWAP1 POP JUMP JUMPDEST PUSH2 0xD3F DUP2 PUSH2 0xD2A JUMP JUMPDEST DUP3 MSTORE POP POP JUMP JUMPDEST PUSH1 0x0 PUSH1 0xE0 DUP3 ADD SWAP1 POP PUSH2 0xD5A PUSH1 0x0 DUP4 ADD DUP11 PUSH2 0xCA4 JUMP JUMPDEST PUSH2 0xD67 PUSH1 0x20 DUP4 ADD DUP10 PUSH2 0xD00 JUMP JUMPDEST PUSH2 0xD74 PUSH1 0x40 DUP4 ADD DUP9 PUSH2 0xCA4 JUMP JUMPDEST PUSH2 0xD81 PUSH1 0x60 DUP4 ADD DUP8 PUSH2 0xD00 JUMP JUMPDEST PUSH2 0xD8E PUSH1 0x80 DUP4 ADD DUP7 PUSH2 0xD36 JUMP JUMPDEST PUSH2 0xD9B PUSH1 0xA0 DUP4 ADD DUP6 PUSH2 0xCA4 JUMP JUMPDEST PUSH2 0xDA8 PUSH1 0xC0 DUP4 ADD DUP5 PUSH2 0xCA4 JUMP JUMPDEST SWAP9 SWAP8 POP POP POP POP POP POP POP POP JUMP JUMPDEST PUSH1 0x0 DUP1 PUSH1 0x0 PUSH1 0x60 DUP5 DUP7 SUB SLT ISZERO PUSH2 0xDCD JUMPI PUSH2 0xDCC PUSH2 0xC3C JUMP JUMPDEST JUMPDEST PUSH1 0x0 PUSH2 0xDDB DUP7 DUP3 DUP8 ADD PUSH2 0xC62 JUMP JUMPDEST SWAP4 POP POP PUSH1 0x20 PUSH2 0xDEC DUP7 DUP3 DUP8 ADD PUSH2 0xC62 JUMP JUMPDEST SWAP3 POP POP PUSH1 0x40 PUSH2 0xDFD DUP7 DUP3 DUP8 ADD PUSH2 0xC62 JUMP JUMPDEST SWAP2 POP POP SWAP3 POP SWAP3 POP SWAP3 JUMP JUMPDEST PUSH1 0x0 PUSH1 0x20 DUP3 ADD SWAP1 POP PUSH2 0xE1C PUSH1 0x0 DUP4 ADD DUP5 PUSH2 0xD36 JUMP JUMPDEST SWAP3 SWAP2 POP POP JUMP JUMPDEST PUSH2 0xE2B DUP2 PUSH2 0xCEE JUMP JUMPDEST DUP2 EQ PUSH2 0xE36 JUMPI PUSH1 0x0 DUP1 REVERT JUMPDEST POP JUMP JUMPDEST PUSH1 0x0 DUP2 CALLDATALOAD SWAP1 POP PUSH2 0xE48 DUP2 PUSH2 0xE22 JUMP JUMPDEST SWAP3 SWAP2 POP POP JUMP JUMPDEST PUSH1 0x0 DUP1 PUSH1 0x0 DUP1 PUSH1 0x80 DUP6 DUP8 SUB SLT ISZERO PUSH2 0xE68 JUMPI PUSH2 0xE67 PUSH2 0xC3C JUMP JUMPDEST JUMPDEST PUSH1 0x0 PUSH2 0xE76 DUP8 DUP3 DUP9 ADD PUSH2 0xE39 JUMP JUMPDEST SWAP5 POP POP PUSH1 0x20 PUSH2 0xE87 DUP8 DUP3 DUP9 ADD PUSH2 0xC62 JUMP JUMPDEST SWAP4 POP POP PUSH1 0x40 PUSH2 0xE98 DUP8 DUP3 DUP9 ADD PUSH2 0xC62 JUMP JUMPDEST SWAP3 POP POP PUSH1 0x60 PUSH2 0xEA9 DUP8 DUP3 DUP9 ADD PUSH2 0xC62 JUMP JUMPDEST SWAP2 POP POP SWAP3 SWAP6 SWAP2 SWAP5 POP SWAP3 POP JUMP JUMPDEST PUSH1 0x0 DUP1 PUSH1 0x40 DUP4 DUP6 SUB SLT ISZERO PUSH2 0xECC JUMPI PUSH2 0xECB PUSH2 0xC3C JUMP JUMPDEST JUMPDEST PUSH1 0x0 PUSH2 0xEDA DUP6 DUP3 DUP7 ADD PUSH2 0xC62 JUMP JUMPDEST SWAP3 POP POP PUSH1 0x20 PUSH2 0xEEB DUP6 DUP3 DUP7 ADD PUSH2 0xE39 JUMP JUMPDEST SWAP2 POP POP SWAP3 POP SWAP3 SWAP1 POP JUMP JUMPDEST PUSH2 0xEFE DUP2 PUSH2 0xD2A JUMP JUMPDEST DUP2 EQ PUSH2 0xF09 JUMPI PUSH1 0x0 DUP1 REVERT JUMPDEST POP JUMP JUMPDEST PUSH1 0x0 DUP2 CALLDATALOAD SWAP1 POP PUSH2 0xF1B DUP2 PUSH2 0xEF5 JUMP JUMPDEST SWAP3 SWAP2 POP POP JUMP JUMPDEST PUSH1 0x0 DUP1 PUSH1 0x40 DUP4 DUP6 SUB SLT ISZERO PUSH2 0xF38 JUMPI PUSH2 0xF37 PUSH2 0xC3C JUMP JUMPDEST JUMPDEST PUSH1 0x0 PUSH2 0xF46 DUP6 DUP3 DUP7 ADD PUSH2 0xC62 JUMP JUMPDEST SWAP3 POP POP PUSH1 0x20 PUSH2 0xF57 DUP6 DUP3 DUP7 ADD PUSH2 0xF0C JUMP JUMPDEST SWAP2 POP POP SWAP3 POP SWAP3 SWAP1 POP JUMP JUMPDEST PUSH32 0x4E487B7100000000000000000000000000000000000000000000000000000000 PUSH1 0x0 MSTORE PUSH1 0x11 PUSH1 0x4 MSTORE PUSH1 0x24 PUSH1 0x0 REVERT JUMPDEST PUSH1 0x0 PUSH2 0xF9B DUP3 PUSH2 0xC41 JUMP JUMPDEST SWAP2 POP PUSH32 0xFFFFFFFFFFFFFFFFFFFFFFFFFFFFFFFFFFFFFFFFFFFFFFFFFFFFFFFFFFFFFFFF DUP3 EQ ISZERO PUSH2 0xFCE JUMPI PUSH2 0xFCD PUSH2 0xF61 JUMP JUMPDEST JUMPDEST PUSH1 0x1 DUP3 ADD SWAP1 POP SWAP2 SWAP1 POP JUMP INVALID LOG2 PUSH5 0x6970667358 0x22 SLT KECCAK256 SWAP5 0xBB SLT PUSH9 0xF636DC54664E57F483 ISZERO CALLCODE 0xF 0xEE 0xCF BALANCE ADDMOD COINBASE PUSH25 0xCB0666B50A280F4B2B8464736F6C634300080A0033A2646970 PUSH7 0x73582212200652 EXP SAR 0xD0 0xDB GAS ISZERO BYTE ADDMOD PUSH8 0xB7DB1498D8E27158 SIGNEXTEND CALL CODESIZE DUP14 0xAC DIFFICULTY SWAP11 DUP3 CODESIZE PUSH27 0xF4BACD64736F6C634300080A003300000000000000000000000000 "},"gasEstimates":{"creation":{"codeDepositCost":"4796400","executionCost":"5649","totalCost":"4802049"},"external":{"createLibrary(uint256)":"infinite","deployedLibraries(uint256)":"4956","getDeployedLibraries()":"infinite"}},"methodIdentifiers":{"createLibrary(uint256)":"73b1be38","deployedLibraries(uint256)":"98fe1356","getDeployedLibraries()":"f4b2b9b0"}},"storageLayout":{"storage":[{"astId":7,"contract":"Library.sol:LibraryFactory","label":"deployedLibraries","offset":0,"slot":"0","type":"t_array(t_address)dyn_storage"}],"types":{"t_address":{"encoding":"inplace","label":"address","numberOfBytes":"20"},"t_array(t_address)dyn_storage":{"base":"t_address","encoding":"dynamic_array","label":"address[]","numberOfBytes":"32"}}},"userdoc":{"kind":"user","methods":{},"version":1}}