{"abi":[{"inputs":[{"internalType":"uint256","name":"_maxBorrowing","type":"uint256"}],"stateMutability":"nonpayable","type":"constructor"},{"inputs":[{"internalType":"string","name":"_bookid","type":"string"},{"internalType":"string","name":"_title","type":"string"},{"internalType":"uint256","name":"_price","type":"uint256"},{"internalType":"address","name":"_authorAddress","type":"address"}],"name":"addBook","outputs":[],"stateMutability":"nonpayable","type":"function"},{"inputs":[{"internalType":"uint256","name":"_tokenId","type":"uint256"}],"name":"borrowBook","outputs":[],"stateMutability":"payable","type":"function"},{"inputs":[{"internalType":"uint256","name":"_bookIndex","type":"uint256"},{"internalType":"uint256","name":"_period","type":"uint256"},{"internalType":"uint256","name":"_cost","type":"uint256"}],"name":"createBookToken","outputs":[],"stateMutability":"payable","type":"function"},{"inputs":[],"name":"getManagerAddress","outputs":[{"internalType":"address[]","name":"","type":"address[]"}],"stateMutability":"view","type":"function"},{"inputs":[{"internalType":"address","name":"_staffAddress","type":"address"}],"name":"inviteStaff","outputs":[],"stateMutability":"nonpayable","type":"function"},{"inputs":[],"name":"maxBorrowing","outputs":[{"internalType":"uint256","name":"","type":"uint256"}],"stateMutability":"view","type":"function"},{"inputs":[{"internalType":"uint256","name":"_index","type":"uint256"},{"internalType":"string","name":"_bookid","type":"string"},{"internalType":"string","name":"_title","type":"string"},{"internalType":"uint256","name":"_price","type":"uint256"},{"internalType":"address","name":"_authorAddress","type":"address"}],"name":"modifyBook","outputs":[],"stateMutability":"nonpayable","type":"function"},{"inputs":[],"name":"owner","outputs":[{"internalType":"address","name":"","type":"address"}],"stateMutability":"view","type":"function"},{"inputs":[],"name":"register","outputs":[],"stateMutability":"nonpayable","type":"function"},{"inputs":[{"internalType":"uint256","name":"_tokenId","type":"uint256"}],"name":"returnBook","outputs":[],"stateMutability":"nonpayable","type":"function"},{"inputs":[{"internalType":"address","name":"","type":"address"}],"name":"staff","outputs":[{"internalType":"bool","name":"","type":"bool"}],"stateMutability":"view","type":"function"}],"devdoc":{"kind":"dev","methods":{},"version":1},"evm":{"assembly":"    /* \"Library.sol\":157:3016  contract Library {... */\n  mstore(0x40, 0x80)\n    /* \"Library.sol\":718:1147  constructor (uint _maxBorrowing) {... */\n  callvalue\n  dup1\n  iszero\n  tag_1\n  jumpi\n  0x00\n  dup1\n  revert\ntag_1:\n  pop\n  mload(0x40)\n  sub(codesize, bytecodeSize)\n  dup1\n  bytecodeSize\n  dup4\n  codecopy\n  dup2\n  dup2\n  add\n  0x40\n  mstore\n  dup2\n  add\n  swap1\n  tag_2\n  swap2\n  swap1\n  tag_3\n  jump\t// in\ntag_2:\n    /* \"Library.sol\":769:779  msg.sender */\n  caller\n    /* \"Library.sol\":761:766  owner */\n  0x00\n  dup1\n    /* \"Library.sol\":761:779  owner = msg.sender */\n  0x0100\n  exp\n  dup2\n  sload\n  dup2\n  0xffffffffffffffffffffffffffffffffffffffff\n  mul\n  not\n  and\n  swap1\n  dup4\n  0xffffffffffffffffffffffffffffffffffffffff\n  and\n  mul\n  or\n  swap1\n  sstore\n  pop\n    /* \"Library.sol\":804:808  true */\n  0x01\n    /* \"Library.sol\":789:794  staff */\n  dup1\n    /* \"Library.sol\":789:801  staff[owner] */\n  0x00\n    /* \"Library.sol\":795:800  owner */\n  dup1\n  0x00\n  swap1\n  sload\n  swap1\n  0x0100\n  exp\n  swap1\n  div\n  0xffffffffffffffffffffffffffffffffffffffff\n  and\n    /* \"Library.sol\":789:801  staff[owner] */\n  0xffffffffffffffffffffffffffffffffffffffff\n  and\n  0xffffffffffffffffffffffffffffffffffffffff\n  and\n  dup2\n  mstore\n  0x20\n  add\n  swap1\n  dup2\n  mstore\n  0x20\n  add\n  0x00\n  keccak256\n  0x00\n    /* \"Library.sol\":789:808  staff[owner] = true */\n  0x0100\n  exp\n  dup2\n  sload\n  dup2\n  0xff\n  mul\n  not\n  and\n  swap1\n  dup4\n  iszero\n  iszero\n  mul\n  or\n  swap1\n  sstore\n  pop\n    /* \"Library.sol\":848:853  owner */\n  0x00\n  dup1\n  sload\n  swap1\n  0x0100\n  exp\n  swap1\n  div\n  0xffffffffffffffffffffffffffffffffffffffff\n  and\n    /* \"Library.sol\":832:854  new BookManager(owner) */\n  mload(0x40)\n  tag_6\n  swap1\n  tag_7\n  jump\t// in\ntag_6:\n  tag_8\n  swap2\n  swap1\n  tag_9\n  jump\t// in\ntag_8:\n  mload(0x40)\n  dup1\n  swap2\n  sub\n  swap1\n  0x00\n  create\n  dup1\n  iszero\n  dup1\n  iszero\n  tag_10\n  jumpi\n  returndatasize\n  0x00\n  dup1\n  returndatacopy\n  revert(0x00, returndatasize)\ntag_10:\n  pop\n    /* \"Library.sol\":818:829  bookManager */\n  0x02\n  0x00\n    /* \"Library.sol\":818:854  bookManager = new BookManager(owner) */\n  0x0100\n  exp\n  dup2\n  sload\n  dup2\n  0xffffffffffffffffffffffffffffffffffffffff\n  mul\n  not\n  and\n  swap1\n  dup4\n  0xffffffffffffffffffffffffffffffffffffffff\n  and\n  mul\n  or\n  swap1\n  sstore\n  pop\n    /* \"Library.sol\":894:899  owner */\n  0x00\n  dup1\n  sload\n  swap1\n  0x0100\n  exp\n  swap1\n  div\n  0xffffffffffffffffffffffffffffffffffffffff\n  and\n    /* \"Library.sol\":878:900  new UserManager(owner) */\n  mload(0x40)\n  tag_11\n  swap1\n  tag_12\n  jump\t// in\ntag_11:\n  tag_13\n  swap2\n  swap1\n  tag_9\n  jump\t// in\ntag_13:\n  mload(0x40)\n  dup1\n  swap2\n  sub\n  swap1\n  0x00\n  create\n  dup1\n  iszero\n  dup1\n  iszero\n  tag_14\n  jumpi\n  returndatasize\n  0x00\n  dup1\n  returndatacopy\n  revert(0x00, returndatasize)\ntag_14:\n  pop\n    /* \"Library.sol\":864:875  userManager */\n  0x03\n  0x00\n    /* \"Library.sol\":864:900  userManager = new UserManager(owner) */\n  0x0100\n  exp\n  dup2\n  sload\n  dup2\n  0xffffffffffffffffffffffffffffffffffffffff\n  mul\n  not\n  and\n  swap1\n  dup4\n  0xffffffffffffffffffffffffffffffffffffffff\n  and\n  mul\n  or\n  swap1\n  sstore\n  pop\n    /* \"Library.sol\":942:947  owner */\n  0x00\n  dup1\n  sload\n  swap1\n  0x0100\n  exp\n  swap1\n  div\n  0xffffffffffffffffffffffffffffffffffffffff\n  and\n    /* \"Library.sol\":925:948  new TokenManager(owner) */\n  mload(0x40)\n  tag_15\n  swap1\n  tag_16\n  jump\t// in\ntag_15:\n  tag_17\n  swap2\n  swap1\n  tag_9\n  jump\t// in\ntag_17:\n  mload(0x40)\n  dup1\n  swap2\n  sub\n  swap1\n  0x00\n  create\n  dup1\n  iszero\n  dup1\n  iszero\n  tag_18\n  jumpi\n  returndatasize\n  0x00\n  dup1\n  returndatacopy\n  revert(0x00, returndatasize)\ntag_18:\n  pop\n    /* \"Library.sol\":910:922  tokenManager */\n  0x04\n  0x00\n    /* \"Library.sol\":910:948  tokenManager = new TokenManager(owner) */\n  0x0100\n  exp\n  dup2\n  sload\n  dup2\n  0xffffffffffffffffffffffffffffffffffffffff\n  mul\n  not\n  and\n  swap1\n  dup4\n  0xffffffffffffffffffffffffffffffffffffffff\n  and\n  mul\n  or\n  swap1\n  sstore\n  pop\n    /* \"Library.sol\":958:972  managerAddress */\n  0x05\n    /* \"Library.sol\":986:997  bookManager */\n  0x02\n  0x00\n  swap1\n  sload\n  swap1\n  0x0100\n  exp\n  swap1\n  div\n  0xffffffffffffffffffffffffffffffffffffffff\n  and\n    /* \"Library.sol\":958:999  managerAddress.push(address(bookManager)) */\n  swap1\n  dup1\n  0x01\n  dup2\n  sload\n  add\n  dup1\n  dup3\n  sstore\n  dup1\n  swap2\n  pop\n  pop\n  0x01\n  swap1\n  sub\n  swap1\n  0x00\n  mstore\n  keccak256(0x00, 0x20)\n  add\n  0x00\n  swap1\n  swap2\n  swap1\n  swap2\n  swap1\n  swap2\n  0x0100\n  exp\n  dup2\n  sload\n  dup2\n  0xffffffffffffffffffffffffffffffffffffffff\n  mul\n  not\n  and\n  swap1\n  dup4\n  0xffffffffffffffffffffffffffffffffffffffff\n  and\n  mul\n  or\n  swap1\n  sstore\n  pop\n    /* \"Library.sol\":1009:1023  managerAddress */\n  0x05\n    /* \"Library.sol\":1037:1048  userManager */\n  0x03\n  0x00\n  swap1\n  sload\n  swap1\n  0x0100\n  exp\n  swap1\n  div\n  0xffffffffffffffffffffffffffffffffffffffff\n  and\n    /* \"Library.sol\":1009:1050  managerAddress.push(address(userManager)) */\n  swap1\n  dup1\n  0x01\n  dup2\n  sload\n  add\n  dup1\n  dup3\n  sstore\n  dup1\n  swap2\n  pop\n  pop\n  0x01\n  swap1\n  sub\n  swap1\n  0x00\n  mstore\n  keccak256(0x00, 0x20)\n  add\n  0x00\n  swap1\n  swap2\n  swap1\n  swap2\n  swap1\n  swap2\n  0x0100\n  exp\n  dup2\n  sload\n  dup2\n  0xffffffffffffffffffffffffffffffffffffffff\n  mul\n  not\n  and\n  swap1\n  dup4\n  0xffffffffffffffffffffffffffffffffffffffff\n  and\n  mul\n  or\n  swap1\n  sstore\n  pop\n    /* \"Library.sol\":1060:1074  managerAddress */\n  0x05\n    /* \"Library.sol\":1088:1100  tokenManager */\n  0x04\n  0x00\n  swap1\n  sload\n  swap1\n  0x0100\n  exp\n  swap1\n  div\n  0xffffffffffffffffffffffffffffffffffffffff\n  and\n    /* \"Library.sol\":1060:1102  managerAddress.push(address(tokenManager)) */\n  swap1\n  dup1\n  0x01\n  dup2\n  sload\n  add\n  dup1\n  dup3\n  sstore\n  dup1\n  swap2\n  pop\n  pop\n  0x01\n  swap1\n  sub\n  swap1\n  0x00\n  mstore\n  keccak256(0x00, 0x20)\n  add\n  0x00\n  swap1\n  swap2\n  swap1\n  swap2\n  swap1\n  swap2\n  0x0100\n  exp\n  dup2\n  sload\n  dup2\n  0xffffffffffffffffffffffffffffffffffffffff\n  mul\n  not\n  and\n  swap1\n  dup4\n  0xffffffffffffffffffffffffffffffffffffffff\n  and\n  mul\n  or\n  swap1\n  sstore\n  pop\n    /* \"Library.sol\":1127:1140  _maxBorrowing */\n  dup1\n    /* \"Library.sol\":1112:1124  maxBorrowing */\n  0x06\n    /* \"Library.sol\":1112:1140  maxBorrowing = _maxBorrowing */\n  dup2\n  swap1\n  sstore\n  pop\n    /* \"Library.sol\":718:1147  constructor (uint _maxBorrowing) {... */\n  pop\n    /* \"Library.sol\":157:3016  contract Library {... */\n  jump(tag_22)\ntag_7:\n  dataSize(sub_1)\n  dup1\n  dataOffset(sub_1)\n  dup4\n  codecopy\n  add\n  swap1\n  jump\t// out\ntag_12:\n  dataSize(sub_2)\n  dup1\n  dataOffset(sub_2)\n  dup4\n  codecopy\n  add\n  swap1\n  jump\t// out\ntag_16:\n  dataSize(sub_3)\n  dup1\n  dataOffset(sub_3)\n  dup4\n  codecopy\n  add\n  swap1\n  jump\t// out\n    /* \"#utility.yul\":88:205   */\ntag_24:\n    /* \"#utility.yul\":197:198   */\n  0x00\n    /* \"#utility.yul\":194:195   */\n  dup1\n    /* \"#utility.yul\":187:199   */\n  revert\n    /* \"#utility.yul\":334:411   */\ntag_26:\n    /* \"#utility.yul\":371:378   */\n  0x00\n    /* \"#utility.yul\":400:405   */\n  dup2\n    /* \"#utility.yul\":389:405   */\n  swap1\n  pop\n    /* \"#utility.yul\":334:411   */\n  swap2\n  swap1\n  pop\n  jump\t// out\n    /* \"#utility.yul\":417:539   */\ntag_27:\n    /* \"#utility.yul\":490:514   */\n  tag_38\n    /* \"#utility.yul\":508:513   */\n  dup2\n    /* \"#utility.yul\":490:514   */\n  tag_26\n  jump\t// in\ntag_38:\n    /* \"#utility.yul\":483:488   */\n  dup2\n    /* \"#utility.yul\":480:515   */\n  eq\n    /* \"#utility.yul\":470:533   */\n  tag_39\n  jumpi\n    /* \"#utility.yul\":529:530   */\n  0x00\n    /* \"#utility.yul\":526:527   */\n  dup1\n    /* \"#utility.yul\":519:531   */\n  revert\n    /* \"#utility.yul\":470:533   */\ntag_39:\n    /* \"#utility.yul\":417:539   */\n  pop\n  jump\t// out\n    /* \"#utility.yul\":545:688   */\ntag_28:\n    /* \"#utility.yul\":602:607   */\n  0x00\n    /* \"#utility.yul\":633:639   */\n  dup2\n    /* \"#utility.yul\":627:640   */\n  mload\n    /* \"#utility.yul\":618:640   */\n  swap1\n  pop\n    /* \"#utility.yul\":649:682   */\n  tag_41\n    /* \"#utility.yul\":676:681   */\n  dup2\n    /* \"#utility.yul\":649:682   */\n  tag_27\n  jump\t// in\ntag_41:\n    /* \"#utility.yul\":545:688   */\n  swap3\n  swap2\n  pop\n  pop\n  jump\t// out\n    /* \"#utility.yul\":694:1045   */\ntag_3:\n    /* \"#utility.yul\":764:770   */\n  0x00\n    /* \"#utility.yul\":813:815   */\n  0x20\n    /* \"#utility.yul\":801:810   */\n  dup3\n    /* \"#utility.yul\":792:799   */\n  dup5\n    /* \"#utility.yul\":788:811   */\n  sub\n    /* \"#utility.yul\":784:816   */\n  slt\n    /* \"#utility.yul\":781:900   */\n  iszero\n  tag_43\n  jumpi\n    /* \"#utility.yul\":819:898   */\n  tag_44\n  tag_24\n  jump\t// in\ntag_44:\n    /* \"#utility.yul\":781:900   */\ntag_43:\n    /* \"#utility.yul\":939:940   */\n  0x00\n    /* \"#utility.yul\":964:1028   */\n  tag_45\n    /* \"#utility.yul\":1020:1027   */\n  dup5\n    /* \"#utility.yul\":1011:1017   */\n  dup3\n    /* \"#utility.yul\":1000:1009   */\n  dup6\n    /* \"#utility.yul\":996:1018   */\n  add\n    /* \"#utility.yul\":964:1028   */\n  tag_28\n  jump\t// in\ntag_45:\n    /* \"#utility.yul\":954:1028   */\n  swap2\n  pop\n    /* \"#utility.yul\":910:1038   */\n  pop\n    /* \"#utility.yul\":694:1045   */\n  swap3\n  swap2\n  pop\n  pop\n  jump\t// out\n    /* \"#utility.yul\":1051:1177   */\ntag_29:\n    /* \"#utility.yul\":1088:1095   */\n  0x00\n    /* \"#utility.yul\":1128:1170   */\n  0xffffffffffffffffffffffffffffffffffffffff\n    /* \"#utility.yul\":1121:1126   */\n  dup3\n    /* \"#utility.yul\":1117:1171   */\n  and\n    /* \"#utility.yul\":1106:1171   */\n  swap1\n  pop\n    /* \"#utility.yul\":1051:1177   */\n  swap2\n  swap1\n  pop\n  jump\t// out\n    /* \"#utility.yul\":1183:1279   */\ntag_30:\n    /* \"#utility.yul\":1220:1227   */\n  0x00\n    /* \"#utility.yul\":1249:1273   */\n  tag_48\n    /* \"#utility.yul\":1267:1272   */\n  dup3\n    /* \"#utility.yul\":1249:1273   */\n  tag_29\n  jump\t// in\ntag_48:\n    /* \"#utility.yul\":1238:1273   */\n  swap1\n  pop\n    /* \"#utility.yul\":1183:1279   */\n  swap2\n  swap1\n  pop\n  jump\t// out\n    /* \"#utility.yul\":1285:1403   */\ntag_31:\n    /* \"#utility.yul\":1372:1396   */\n  tag_50\n    /* \"#utility.yul\":1390:1395   */\n  dup2\n    /* \"#utility.yul\":1372:1396   */\n  tag_30\n  jump\t// in\ntag_50:\n    /* \"#utility.yul\":1367:1370   */\n  dup3\n    /* \"#utility.yul\":1360:1397   */\n  mstore\n    /* \"#utility.yul\":1285:1403   */\n  pop\n  pop\n  jump\t// out\n    /* \"#utility.yul\":1409:1631   */\ntag_9:\n    /* \"#utility.yul\":1502:1506   */\n  0x00\n    /* \"#utility.yul\":1540:1542   */\n  0x20\n    /* \"#utility.yul\":1529:1538   */\n  dup3\n    /* \"#utility.yul\":1525:1543   */\n  add\n    /* \"#utility.yul\":1517:1543   */\n  swap1\n  pop\n    /* \"#utility.yul\":1553:1624   */\n  tag_52\n    /* \"#utility.yul\":1621:1622   */\n  0x00\n    /* \"#utility.yul\":1610:1619   */\n  dup4\n    /* \"#utility.yul\":1606:1623   */\n  add\n    /* \"#utility.yul\":1597:1603   */\n  dup5\n    /* \"#utility.yul\":1553:1624   */\n  tag_31\n  jump\t// in\ntag_52:\n    /* \"#utility.yul\":1409:1631   */\n  swap3\n  swap2\n  pop\n  pop\n  jump\t// out\n    /* \"Library.sol\":157:3016  contract Library {... */\ntag_22:\n  dataSize(sub_0)\n  dup1\n  dataOffset(sub_0)\n  0x00\n  codecopy\n  0x00\n  return\nstop\n\nsub_0: assembly {\n        /* \"Library.sol\":157:3016  contract Library {... */\n      mstore(0x40, 0x80)\n      jumpi(tag_1, lt(calldatasize, 0x04))\n      shr(0xe0, calldataload(0x00))\n      dup1\n      0x8da5cb5b\n      gt\n      tag_13\n      jumpi\n      dup1\n      0x8da5cb5b\n      eq\n      tag_7\n      jumpi\n      dup1\n      0x90272dff\n      eq\n      tag_8\n      jumpi\n      dup1\n      0xc162d7da\n      eq\n      tag_9\n      jumpi\n      dup1\n      0xca5140c9\n      eq\n      tag_10\n      jumpi\n      dup1\n      0xd2c07e20\n      eq\n      tag_11\n      jumpi\n      dup1\n      0xfe69494b\n      eq\n      tag_12\n      jumpi\n      jump(tag_1)\n    tag_13:\n      dup1\n      0x1973db46\n      eq\n      tag_2\n      jumpi\n      dup1\n      0x1aa3a008\n      eq\n      tag_3\n      jumpi\n      dup1\n      0x4f83158a\n      eq\n      tag_4\n      jumpi\n      dup1\n      0x687564ae\n      eq\n      tag_5\n      jumpi\n      dup1\n      0x7e490a9e\n      eq\n      tag_6\n      jumpi\n    tag_1:\n      0x00\n      dup1\n      revert\n        /* \"Library.sol\":1917:2312  function createBookToken(uint _bookIndex, uint _period, uint _cost) public userRestricted payable {... */\n    tag_2:\n      tag_14\n      0x04\n      dup1\n      calldatasize\n      sub\n      dup2\n      add\n      swap1\n      tag_15\n      swap2\n      swap1\n      tag_16\n      jump\t// in\n    tag_15:\n      tag_17\n      jump\t// in\n    tag_14:\n      stop\n        /* \"Library.sol\":1305:1381  function register() public {... */\n    tag_3:\n      callvalue\n      dup1\n      iszero\n      tag_18\n      jumpi\n      0x00\n      dup1\n      revert\n    tag_18:\n      pop\n      tag_19\n      tag_20\n      jump\t// in\n    tag_19:\n      stop\n        /* \"Library.sol\":206:243  mapping(address => bool) public staff */\n    tag_4:\n      callvalue\n      dup1\n      iszero\n      tag_21\n      jumpi\n      0x00\n      dup1\n      revert\n    tag_21:\n      pop\n      tag_22\n      0x04\n      dup1\n      calldatasize\n      sub\n      dup2\n      add\n      swap1\n      tag_23\n      swap2\n      swap1\n      tag_24\n      jump\t// in\n    tag_23:\n      tag_25\n      jump\t// in\n    tag_22:\n      mload(0x40)\n      tag_26\n      swap2\n      swap1\n      tag_27\n      jump\t// in\n    tag_26:\n      mload(0x40)\n      dup1\n      swap2\n      sub\n      swap1\n      return\n        /* \"Library.sol\":1403:1597  function addBook(string memory _bookid, string memory _title, uint _price, address _authorAddress) public restricted {... */\n    tag_5:\n      callvalue\n      dup1\n      iszero\n      tag_28\n      jumpi\n      0x00\n      dup1\n      revert\n    tag_28:\n      pop\n      tag_29\n      0x04\n      dup1\n      calldatasize\n      sub\n      dup2\n      add\n      swap1\n      tag_30\n      swap2\n      swap1\n      tag_31\n      jump\t// in\n    tag_30:\n      tag_32\n      jump\t// in\n    tag_29:\n      stop\n        /* \"Library.sol\":2337:2675  function borrowBook(uint _tokenId) public userRestricted payable {... */\n    tag_6:\n      tag_33\n      0x04\n      dup1\n      calldatasize\n      sub\n      dup2\n      add\n      swap1\n      tag_34\n      swap2\n      swap1\n      tag_35\n      jump\t// in\n    tag_34:\n      tag_36\n      jump\t// in\n    tag_33:\n      stop\n        /* \"Library.sol\":180:200  address public owner */\n    tag_7:\n      callvalue\n      dup1\n      iszero\n      tag_37\n      jumpi\n      0x00\n      dup1\n      revert\n    tag_37:\n      pop\n      tag_38\n      tag_39\n      jump\t// in\n    tag_38:\n      mload(0x40)\n      tag_40\n      swap2\n      swap1\n      tag_41\n      jump\t// in\n    tag_40:\n      mload(0x40)\n      dup1\n      swap2\n      sub\n      swap1\n      return\n        /* \"Library.sol\":394:418  uint public maxBorrowing */\n    tag_8:\n      callvalue\n      dup1\n      iszero\n      tag_42\n      jumpi\n      0x00\n      dup1\n      revert\n    tag_42:\n      pop\n      tag_43\n      tag_44\n      jump\t// in\n    tag_43:\n      mload(0x40)\n      tag_45\n      swap2\n      swap1\n      tag_46\n      jump\t// in\n    tag_45:\n      mload(0x40)\n      dup1\n      swap2\n      sub\n      swap1\n      return\n        /* \"Library.sol\":2897:3014  function getManagerAddress() external restricted view returns(address[] memory){... */\n    tag_9:\n      callvalue\n      dup1\n      iszero\n      tag_47\n      jumpi\n      0x00\n      dup1\n      revert\n    tag_47:\n      pop\n      tag_48\n      tag_49\n      jump\t// in\n    tag_48:\n      mload(0x40)\n      tag_50\n      swap2\n      swap1\n      tag_51\n      jump\t// in\n    tag_50:\n      mload(0x40)\n      dup1\n      swap2\n      sub\n      swap1\n      return\n        /* \"Library.sol\":2700:2859  function returnBook(uint _tokenId) public userRestricted {... */\n    tag_10:\n      callvalue\n      dup1\n      iszero\n      tag_52\n      jumpi\n      0x00\n      dup1\n      revert\n    tag_52:\n      pop\n      tag_53\n      0x04\n      dup1\n      calldatasize\n      sub\n      dup2\n      add\n      swap1\n      tag_54\n      swap2\n      swap1\n      tag_35\n      jump\t// in\n    tag_54:\n      tag_55\n      jump\t// in\n    tag_53:\n      stop\n        /* \"Library.sol\":1622:1885  function modifyBook( uint _index, string memory _bookid, string memory _title, uint _price, address _authorAddress)... */\n    tag_11:\n      callvalue\n      dup1\n      iszero\n      tag_56\n      jumpi\n      0x00\n      dup1\n      revert\n    tag_56:\n      pop\n      tag_57\n      0x04\n      dup1\n      calldatasize\n      sub\n      dup2\n      add\n      swap1\n      tag_58\n      swap2\n      swap1\n      tag_59\n      jump\t// in\n    tag_58:\n      tag_60\n      jump\t// in\n    tag_57:\n      stop\n        /* \"Library.sol\":1173:1278  function inviteStaff(address _staffAddress) public restricted{... */\n    tag_12:\n      callvalue\n      dup1\n      iszero\n      tag_61\n      jumpi\n      0x00\n      dup1\n      revert\n    tag_61:\n      pop\n      tag_62\n      0x04\n      dup1\n      calldatasize\n      sub\n      dup2\n      add\n      swap1\n      tag_63\n      swap2\n      swap1\n      tag_24\n      jump\t// in\n    tag_63:\n      tag_64\n      jump\t// in\n    tag_62:\n      stop\n        /* \"Library.sol\":1917:2312  function createBookToken(uint _bookIndex, uint _period, uint _cost) public userRestricted payable {... */\n    tag_17:\n        /* \"Library.sol\":552:563  userManager */\n      0x03\n      0x00\n      swap1\n      sload\n      swap1\n      0x0100\n      exp\n      swap1\n      div\n      0xffffffffffffffffffffffffffffffffffffffff\n      and\n        /* \"Library.sol\":552:578  userManager.getIsValidUser */\n      0xffffffffffffffffffffffffffffffffffffffff\n      and\n      0xecded204\n        /* \"Library.sol\":579:589  msg.sender */\n      caller\n        /* \"Library.sol\":552:590  userManager.getIsValidUser(msg.sender) */\n      mload(0x40)\n      dup3\n      0xffffffff\n      and\n      0xe0\n      shl\n      dup2\n      mstore\n      0x04\n      add\n      tag_66\n      swap2\n      swap1\n      tag_41\n      jump\t// in\n    tag_66:\n      0x20\n      mload(0x40)\n      dup1\n      dup4\n      sub\n      dup2\n      dup7\n      gas\n      staticcall\n      iszero\n      dup1\n      iszero\n      tag_68\n      jumpi\n      returndatasize\n      0x00\n      dup1\n      returndatacopy\n      revert(0x00, returndatasize)\n    tag_68:\n      pop\n      pop\n      pop\n      pop\n      mload(0x40)\n      returndatasize\n      not(0x1f)\n      0x1f\n      dup3\n      add\n      and\n      dup3\n      add\n      dup1\n      0x40\n      mstore\n      pop\n      dup2\n      add\n      swap1\n      tag_69\n      swap2\n      swap1\n      tag_70\n      jump\t// in\n    tag_69:\n        /* \"Library.sol\":544:591  require(userManager.getIsValidUser(msg.sender)) */\n      tag_71\n      jumpi\n      0x00\n      dup1\n      revert\n    tag_71:\n        /* \"Library.sol\":2025:2035  uint price */\n      0x00\n        /* \"Library.sol\":2038:2049  bookManager */\n      0x02\n      0x00\n      swap1\n      sload\n      swap1\n      0x0100\n      exp\n      swap1\n      div\n      0xffffffffffffffffffffffffffffffffffffffff\n      and\n        /* \"Library.sol\":2038:2062  bookManager.getBookPrice */\n      0xffffffffffffffffffffffffffffffffffffffff\n      and\n      0x6c230eef\n        /* \"Library.sol\":2063:2073  _bookIndex */\n      dup6\n        /* \"Library.sol\":2038:2074  bookManager.getBookPrice(_bookIndex) */\n      mload(0x40)\n      dup3\n      0xffffffff\n      and\n      0xe0\n      shl\n      dup2\n      mstore\n      0x04\n      add\n      tag_73\n      swap2\n      swap1\n      tag_46\n      jump\t// in\n    tag_73:\n      0x20\n      mload(0x40)\n      dup1\n      dup4\n      sub\n      dup2\n      dup7\n      gas\n      staticcall\n      iszero\n      dup1\n      iszero\n      tag_75\n      jumpi\n      returndatasize\n      0x00\n      dup1\n      returndatacopy\n      revert(0x00, returndatasize)\n    tag_75:\n      pop\n      pop\n      pop\n      pop\n      mload(0x40)\n      returndatasize\n      not(0x1f)\n      0x1f\n      dup3\n      add\n      and\n      dup3\n      add\n      dup1\n      0x40\n      mstore\n      pop\n      dup2\n      add\n      swap1\n      tag_76\n      swap2\n      swap1\n      tag_77\n      jump\t// in\n    tag_76:\n        /* \"Library.sol\":2025:2074  uint price = bookManager.getBookPrice(_bookIndex) */\n      swap1\n      pop\n        /* \"Library.sol\":2101:2110  msg.value */\n      callvalue\n        /* \"Library.sol\":2092:2097  price */\n      dup2\n        /* \"Library.sol\":2092:2110  price == msg.value */\n      eq\n        /* \"Library.sol\":2084:2111  require(price == msg.value) */\n      tag_78\n      jumpi\n      0x00\n      dup1\n      revert\n    tag_78:\n        /* \"Library.sol\":2121:2133  uint tokenId */\n      0x00\n        /* \"Library.sol\":2136:2148  tokenManager */\n      0x04\n      0x00\n      swap1\n      sload\n      swap1\n      0x0100\n      exp\n      swap1\n      div\n      0xffffffffffffffffffffffffffffffffffffffff\n      and\n        /* \"Library.sol\":2136:2164  tokenManager.createBookToken */\n      0xffffffffffffffffffffffffffffffffffffffff\n      and\n      0xa46d8ac7\n        /* \"Library.sol\":2165:2175  msg.sender */\n      caller\n        /* \"Library.sol\":2177:2187  _bookIndex */\n      dup8\n        /* \"Library.sol\":2189:2196  _period */\n      dup8\n        /* \"Library.sol\":2198:2203  _cost */\n      dup8\n        /* \"Library.sol\":2136:2204  tokenManager.createBookToken(msg.sender, _bookIndex, _period, _cost) */\n      mload(0x40)\n      dup6\n      0xffffffff\n      and\n      0xe0\n      shl\n      dup2\n      mstore\n      0x04\n      add\n      tag_79\n      swap5\n      swap4\n      swap3\n      swap2\n      swap1\n      tag_80\n      jump\t// in\n    tag_79:\n      0x20\n      mload(0x40)\n      dup1\n      dup4\n      sub\n      dup2\n      0x00\n      dup8\n      gas\n      call\n      iszero\n      dup1\n      iszero\n      tag_82\n      jumpi\n      returndatasize\n      0x00\n      dup1\n      returndatacopy\n      revert(0x00, returndatasize)\n    tag_82:\n      pop\n      pop\n      pop\n      pop\n      mload(0x40)\n      returndatasize\n      not(0x1f)\n      0x1f\n      dup3\n      add\n      and\n      dup3\n      add\n      dup1\n      0x40\n      mstore\n      pop\n      dup2\n      add\n      swap1\n      tag_83\n      swap2\n      swap1\n      tag_77\n      jump\t// in\n    tag_83:\n        /* \"Library.sol\":2121:2204  uint tokenId = tokenManager.createBookToken(msg.sender, _bookIndex, _period, _cost) */\n      swap1\n      pop\n        /* \"Library.sol\":2214:2225  userManager */\n      0x03\n      0x00\n      swap1\n      sload\n      swap1\n      0x0100\n      exp\n      swap1\n      div\n      0xffffffffffffffffffffffffffffffffffffffff\n      and\n        /* \"Library.sol\":2214:2235  userManager.purchased */\n      0xffffffffffffffffffffffffffffffffffffffff\n      and\n      0xe597ef12\n        /* \"Library.sol\":2236:2246  msg.sender */\n      caller\n        /* \"Library.sol\":2248:2255  tokenId */\n      dup4\n        /* \"Library.sol\":2214:2256  userManager.purchased(msg.sender, tokenId) */\n      mload(0x40)\n      dup4\n      0xffffffff\n      and\n      0xe0\n      shl\n      dup2\n      mstore\n      0x04\n      add\n      tag_84\n      swap3\n      swap2\n      swap1\n      tag_85\n      jump\t// in\n    tag_84:\n      0x00\n      mload(0x40)\n      dup1\n      dup4\n      sub\n      dup2\n      0x00\n      dup8\n      dup1\n      extcodesize\n      iszero\n      dup1\n      iszero\n      tag_86\n      jumpi\n      0x00\n      dup1\n      revert\n    tag_86:\n      pop\n      gas\n      call\n      iszero\n      dup1\n      iszero\n      tag_88\n      jumpi\n      returndatasize\n      0x00\n      dup1\n      returndatacopy\n      revert(0x00, returndatasize)\n    tag_88:\n      pop\n      pop\n      pop\n      pop\n        /* \"Library.sol\":2266:2277  bookManager */\n      0x02\n      0x00\n      swap1\n      sload\n      swap1\n      0x0100\n      exp\n      swap1\n      div\n      0xffffffffffffffffffffffffffffffffffffffff\n      and\n        /* \"Library.sol\":2266:2290  bookManager.tokenCreated */\n      0xffffffffffffffffffffffffffffffffffffffff\n      and\n      0x0a6b2a25\n        /* \"Library.sol\":2291:2301  _bookIndex */\n      dup7\n        /* \"Library.sol\":2266:2302  bookManager.tokenCreated(_bookIndex) */\n      mload(0x40)\n      dup3\n      0xffffffff\n      and\n      0xe0\n      shl\n      dup2\n      mstore\n      0x04\n      add\n      tag_89\n      swap2\n      swap1\n      tag_46\n      jump\t// in\n    tag_89:\n      0x00\n      mload(0x40)\n      dup1\n      dup4\n      sub\n      dup2\n      0x00\n      dup8\n      dup1\n      extcodesize\n      iszero\n      dup1\n      iszero\n      tag_90\n      jumpi\n      0x00\n      dup1\n      revert\n    tag_90:\n      pop\n      gas\n      call\n      iszero\n      dup1\n      iszero\n      tag_92\n      jumpi\n      returndatasize\n      0x00\n      dup1\n      returndatacopy\n      revert(0x00, returndatasize)\n    tag_92:\n      pop\n      pop\n      pop\n      pop\n        /* \"Library.sol\":2015:2312  {... */\n      pop\n      pop\n        /* \"Library.sol\":1917:2312  function createBookToken(uint _bookIndex, uint _period, uint _cost) public userRestricted payable {... */\n      pop\n      pop\n      pop\n      jump\t// out\n        /* \"Library.sol\":1305:1381  function register() public {... */\n    tag_20:\n        /* \"Library.sol\":1342:1353  userManager */\n      0x03\n      0x00\n      swap1\n      sload\n      swap1\n      0x0100\n      exp\n      swap1\n      div\n      0xffffffffffffffffffffffffffffffffffffffff\n      and\n        /* \"Library.sol\":1342:1362  userManager.register */\n      0xffffffffffffffffffffffffffffffffffffffff\n      and\n      0x4420e486\n        /* \"Library.sol\":1363:1373  msg.sender */\n      caller\n        /* \"Library.sol\":1342:1374  userManager.register(msg.sender) */\n      mload(0x40)\n      dup3\n      0xffffffff\n      and\n      0xe0\n      shl\n      dup2\n      mstore\n      0x04\n      add\n      tag_94\n      swap2\n      swap1\n      tag_41\n      jump\t// in\n    tag_94:\n      0x00\n      mload(0x40)\n      dup1\n      dup4\n      sub\n      dup2\n      0x00\n      dup8\n      dup1\n      extcodesize\n      iszero\n      dup1\n      iszero\n      tag_95\n      jumpi\n      0x00\n      dup1\n      revert\n    tag_95:\n      pop\n      gas\n      call\n      iszero\n      dup1\n      iszero\n      tag_97\n      jumpi\n      returndatasize\n      0x00\n      dup1\n      returndatacopy\n      revert(0x00, returndatasize)\n    tag_97:\n      pop\n      pop\n      pop\n      pop\n        /* \"Library.sol\":1305:1381  function register() public {... */\n      jump\t// out\n        /* \"Library.sol\":206:243  mapping(address => bool) public staff */\n    tag_25:\n      mstore(0x20, 0x01)\n      dup1\n      0x00\n      mstore\n      keccak256(0x00, 0x40)\n      0x00\n      swap2\n      pop\n      sload\n      swap1\n      0x0100\n      exp\n      swap1\n      div\n      0xff\n      and\n      dup2\n      jump\t// out\n        /* \"Library.sol\":1403:1597  function addBook(string memory _bookid, string memory _title, uint _price, address _authorAddress) public restricted {... */\n    tag_32:\n        /* \"Library.sol\":474:484  msg.sender */\n      caller\n        /* \"Library.sol\":465:484  owner == msg.sender */\n      0xffffffffffffffffffffffffffffffffffffffff\n      and\n        /* \"Library.sol\":465:470  owner */\n      0x00\n      dup1\n      sload\n      swap1\n      0x0100\n      exp\n      swap1\n      div\n      0xffffffffffffffffffffffffffffffffffffffff\n      and\n        /* \"Library.sol\":465:484  owner == msg.sender */\n      0xffffffffffffffffffffffffffffffffffffffff\n      and\n      eq\n        /* \"Library.sol\":457:485  require(owner == msg.sender) */\n      tag_99\n      jumpi\n      0x00\n      dup1\n      revert\n    tag_99:\n        /* \"Library.sol\":1530:1541  bookManager */\n      0x02\n      0x00\n      swap1\n      sload\n      swap1\n      0x0100\n      exp\n      swap1\n      div\n      0xffffffffffffffffffffffffffffffffffffffff\n      and\n        /* \"Library.sol\":1530:1549  bookManager.addBook */\n      0xffffffffffffffffffffffffffffffffffffffff\n      and\n      0x687564ae\n        /* \"Library.sol\":1550:1557  _bookid */\n      dup6\n        /* \"Library.sol\":1559:1565  _title */\n      dup6\n        /* \"Library.sol\":1567:1573  _price */\n      dup6\n        /* \"Library.sol\":1575:1589  _authorAddress */\n      dup6\n        /* \"Library.sol\":1530:1590  bookManager.addBook(_bookid, _title, _price, _authorAddress) */\n      mload(0x40)\n      dup6\n      0xffffffff\n      and\n      0xe0\n      shl\n      dup2\n      mstore\n      0x04\n      add\n      tag_101\n      swap5\n      swap4\n      swap3\n      swap2\n      swap1\n      tag_102\n      jump\t// in\n    tag_101:\n      0x00\n      mload(0x40)\n      dup1\n      dup4\n      sub\n      dup2\n      0x00\n      dup8\n      dup1\n      extcodesize\n      iszero\n      dup1\n      iszero\n      tag_103\n      jumpi\n      0x00\n      dup1\n      revert\n    tag_103:\n      pop\n      gas\n      call\n      iszero\n      dup1\n      iszero\n      tag_105\n      jumpi\n      returndatasize\n      0x00\n      dup1\n      returndatacopy\n      revert(0x00, returndatasize)\n    tag_105:\n      pop\n      pop\n      pop\n      pop\n        /* \"Library.sol\":1403:1597  function addBook(string memory _bookid, string memory _title, uint _price, address _authorAddress) public restricted {... */\n      pop\n      pop\n      pop\n      pop\n      jump\t// out\n        /* \"Library.sol\":2337:2675  function borrowBook(uint _tokenId) public userRestricted payable {... */\n    tag_36:\n        /* \"Library.sol\":552:563  userManager */\n      0x03\n      0x00\n      swap1\n      sload\n      swap1\n      0x0100\n      exp\n      swap1\n      div\n      0xffffffffffffffffffffffffffffffffffffffff\n      and\n        /* \"Library.sol\":552:578  userManager.getIsValidUser */\n      0xffffffffffffffffffffffffffffffffffffffff\n      and\n      0xecded204\n        /* \"Library.sol\":579:589  msg.sender */\n      caller\n        /* \"Library.sol\":552:590  userManager.getIsValidUser(msg.sender) */\n      mload(0x40)\n      dup3\n      0xffffffff\n      and\n      0xe0\n      shl\n      dup2\n      mstore\n      0x04\n      add\n      tag_107\n      swap2\n      swap1\n      tag_41\n      jump\t// in\n    tag_107:\n      0x20\n      mload(0x40)\n      dup1\n      dup4\n      sub\n      dup2\n      dup7\n      gas\n      staticcall\n      iszero\n      dup1\n      iszero\n      tag_109\n      jumpi\n      returndatasize\n      0x00\n      dup1\n      returndatacopy\n      revert(0x00, returndatasize)\n    tag_109:\n      pop\n      pop\n      pop\n      pop\n      mload(0x40)\n      returndatasize\n      not(0x1f)\n      0x1f\n      dup3\n      add\n      and\n      dup3\n      add\n      dup1\n      0x40\n      mstore\n      pop\n      dup2\n      add\n      swap1\n      tag_110\n      swap2\n      swap1\n      tag_70\n      jump\t// in\n    tag_110:\n        /* \"Library.sol\":544:591  require(userManager.getIsValidUser(msg.sender)) */\n      tag_111\n      jumpi\n      0x00\n      dup1\n      revert\n    tag_111:\n        /* \"Library.sol\":2412:2421  uint cost */\n      0x00\n        /* \"Library.sol\":2424:2436  tokenManager */\n      0x04\n      0x00\n      swap1\n      sload\n      swap1\n      0x0100\n      exp\n      swap1\n      div\n      0xffffffffffffffffffffffffffffffffffffffff\n      and\n        /* \"Library.sol\":2424:2449  tokenManager.getTokenCost */\n      0xffffffffffffffffffffffffffffffffffffffff\n      and\n      0x1ce06944\n        /* \"Library.sol\":2450:2458  _tokenId */\n      dup4\n        /* \"Library.sol\":2424:2459  tokenManager.getTokenCost(_tokenId) */\n      mload(0x40)\n      dup3\n      0xffffffff\n      and\n      0xe0\n      shl\n      dup2\n      mstore\n      0x04\n      add\n      tag_113\n      swap2\n      swap1\n      tag_46\n      jump\t// in\n    tag_113:\n      0x20\n      mload(0x40)\n      dup1\n      dup4\n      sub\n      dup2\n      dup7\n      gas\n      staticcall\n      iszero\n      dup1\n      iszero\n      tag_115\n      jumpi\n      returndatasize\n      0x00\n      dup1\n      returndatacopy\n      revert(0x00, returndatasize)\n    tag_115:\n      pop\n      pop\n      pop\n      pop\n      mload(0x40)\n      returndatasize\n      not(0x1f)\n      0x1f\n      dup3\n      add\n      and\n      dup3\n      add\n      dup1\n      0x40\n      mstore\n      pop\n      dup2\n      add\n      swap1\n      tag_116\n      swap2\n      swap1\n      tag_77\n      jump\t// in\n    tag_116:\n        /* \"Library.sol\":2412:2459  uint cost = tokenManager.getTokenCost(_tokenId) */\n      swap1\n      pop\n        /* \"Library.sol\":2469:2483  uint bookIndex */\n      0x00\n        /* \"Library.sol\":2486:2498  tokenManager */\n      0x04\n      0x00\n      swap1\n      sload\n      swap1\n      0x0100\n      exp\n      swap1\n      div\n      0xffffffffffffffffffffffffffffffffffffffff\n      and\n        /* \"Library.sol\":2486:2513  tokenManager.getTokenBookId */\n      0xffffffffffffffffffffffffffffffffffffffff\n      and\n      0x67615ad5\n        /* \"Library.sol\":2514:2522  _tokenId */\n      dup5\n        /* \"Library.sol\":2486:2523  tokenManager.getTokenBookId(_tokenId) */\n      mload(0x40)\n      dup3\n      0xffffffff\n      and\n      0xe0\n      shl\n      dup2\n      mstore\n      0x04\n      add\n      tag_117\n      swap2\n      swap1\n      tag_46\n      jump\t// in\n    tag_117:\n      0x20\n      mload(0x40)\n      dup1\n      dup4\n      sub\n      dup2\n      dup7\n      gas\n      staticcall\n      iszero\n      dup1\n      iszero\n      tag_119\n      jumpi\n      returndatasize\n      0x00\n      dup1\n      returndatacopy\n      revert(0x00, returndatasize)\n    tag_119:\n      pop\n      pop\n      pop\n      pop\n      mload(0x40)\n      returndatasize\n      not(0x1f)\n      0x1f\n      dup3\n      add\n      and\n      dup3\n      add\n      dup1\n      0x40\n      mstore\n      pop\n      dup2\n      add\n      swap1\n      tag_120\n      swap2\n      swap1\n      tag_77\n      jump\t// in\n    tag_120:\n        /* \"Library.sol\":2469:2523  uint bookIndex = tokenManager.getTokenBookId(_tokenId) */\n      swap1\n      pop\n        /* \"Library.sol\":2549:2558  msg.value */\n      callvalue\n        /* \"Library.sol\":2541:2545  cost */\n      dup3\n        /* \"Library.sol\":2541:2558  cost == msg.value */\n      eq\n        /* \"Library.sol\":2533:2559  require(cost == msg.value) */\n      tag_121\n      jumpi\n      0x00\n      dup1\n      revert\n    tag_121:\n        /* \"Library.sol\":2569:2581  tokenManager */\n      0x04\n      0x00\n      swap1\n      sload\n      swap1\n      0x0100\n      exp\n      swap1\n      div\n      0xffffffffffffffffffffffffffffffffffffffff\n      and\n        /* \"Library.sol\":2569:2594  tokenManager.changeReader */\n      0xffffffffffffffffffffffffffffffffffffffff\n      and\n      0xab21a2be\n        /* \"Library.sol\":2595:2603  _tokenId */\n      dup5\n        /* \"Library.sol\":2605:2615  msg.sender */\n      caller\n        /* \"Library.sol\":2569:2616  tokenManager.changeReader(_tokenId, msg.sender) */\n      mload(0x40)\n      dup4\n      0xffffffff\n      and\n      0xe0\n      shl\n      dup2\n      mstore\n      0x04\n      add\n      tag_122\n      swap3\n      swap2\n      swap1\n      tag_123\n      jump\t// in\n    tag_122:\n      0x00\n      mload(0x40)\n      dup1\n      dup4\n      sub\n      dup2\n      0x00\n      dup8\n      dup1\n      extcodesize\n      iszero\n      dup1\n      iszero\n      tag_124\n      jumpi\n      0x00\n      dup1\n      revert\n    tag_124:\n      pop\n      gas\n      call\n      iszero\n      dup1\n      iszero\n      tag_126\n      jumpi\n      returndatasize\n      0x00\n      dup1\n      returndatacopy\n      revert(0x00, returndatasize)\n    tag_126:\n      pop\n      pop\n      pop\n      pop\n        /* \"Library.sol\":2626:2637  userManager */\n      0x03\n      0x00\n      swap1\n      sload\n      swap1\n      0x0100\n      exp\n      swap1\n      div\n      0xffffffffffffffffffffffffffffffffffffffff\n      and\n        /* \"Library.sol\":2626:2646  userManager.borrowed */\n      0xffffffffffffffffffffffffffffffffffffffff\n      and\n      0xa5a9c518\n        /* \"Library.sol\":2647:2657  msg.sender */\n      caller\n        /* \"Library.sol\":2659:2667  _tokenId */\n      dup6\n        /* \"Library.sol\":2626:2668  userManager.borrowed(msg.sender, _tokenId) */\n      mload(0x40)\n      dup4\n      0xffffffff\n      and\n      0xe0\n      shl\n      dup2\n      mstore\n      0x04\n      add\n      tag_127\n      swap3\n      swap2\n      swap1\n      tag_85\n      jump\t// in\n    tag_127:\n      0x00\n      mload(0x40)\n      dup1\n      dup4\n      sub\n      dup2\n      0x00\n      dup8\n      dup1\n      extcodesize\n      iszero\n      dup1\n      iszero\n      tag_128\n      jumpi\n      0x00\n      dup1\n      revert\n    tag_128:\n      pop\n      gas\n      call\n      iszero\n      dup1\n      iszero\n      tag_130\n      jumpi\n      returndatasize\n      0x00\n      dup1\n      returndatacopy\n      revert(0x00, returndatasize)\n    tag_130:\n      pop\n      pop\n      pop\n      pop\n        /* \"Library.sol\":2402:2675  {... */\n      pop\n      pop\n        /* \"Library.sol\":2337:2675  function borrowBook(uint _tokenId) public userRestricted payable {... */\n      pop\n      jump\t// out\n        /* \"Library.sol\":180:200  address public owner */\n    tag_39:\n      0x00\n      dup1\n      sload\n      swap1\n      0x0100\n      exp\n      swap1\n      div\n      0xffffffffffffffffffffffffffffffffffffffff\n      and\n      dup2\n      jump\t// out\n        /* \"Library.sol\":394:418  uint public maxBorrowing */\n    tag_44:\n      sload(0x06)\n      dup2\n      jump\t// out\n        /* \"Library.sol\":2897:3014  function getManagerAddress() external restricted view returns(address[] memory){... */\n    tag_49:\n        /* \"Library.sol\":2959:2975  address[] memory */\n      0x60\n        /* \"Library.sol\":474:484  msg.sender */\n      caller\n        /* \"Library.sol\":465:484  owner == msg.sender */\n      0xffffffffffffffffffffffffffffffffffffffff\n      and\n        /* \"Library.sol\":465:470  owner */\n      0x00\n      dup1\n      sload\n      swap1\n      0x0100\n      exp\n      swap1\n      div\n      0xffffffffffffffffffffffffffffffffffffffff\n      and\n        /* \"Library.sol\":465:484  owner == msg.sender */\n      0xffffffffffffffffffffffffffffffffffffffff\n      and\n      eq\n        /* \"Library.sol\":457:485  require(owner == msg.sender) */\n      tag_132\n      jumpi\n      0x00\n      dup1\n      revert\n    tag_132:\n        /* \"Library.sol\":2993:3007  managerAddress */\n      0x05\n        /* \"Library.sol\":2986:3007  return managerAddress */\n      dup1\n      sload\n      dup1\n      0x20\n      mul\n      0x20\n      add\n      mload(0x40)\n      swap1\n      dup2\n      add\n      0x40\n      mstore\n      dup1\n      swap3\n      swap2\n      swap1\n      dup2\n      dup2\n      mstore\n      0x20\n      add\n      dup3\n      dup1\n      sload\n      dup1\n      iszero\n      tag_134\n      jumpi\n      0x20\n      mul\n      dup3\n      add\n      swap2\n      swap1\n      0x00\n      mstore\n      keccak256(0x00, 0x20)\n      swap1\n    tag_135:\n      dup2\n      0x00\n      swap1\n      sload\n      swap1\n      0x0100\n      exp\n      swap1\n      div\n      0xffffffffffffffffffffffffffffffffffffffff\n      and\n      0xffffffffffffffffffffffffffffffffffffffff\n      and\n      dup2\n      mstore\n      0x20\n      add\n      swap1\n      0x01\n      add\n      swap1\n      dup1\n      dup4\n      gt\n      tag_135\n      jumpi\n    tag_134:\n      pop\n      pop\n      pop\n      pop\n      pop\n      swap1\n      pop\n        /* \"Library.sol\":2897:3014  function getManagerAddress() external restricted view returns(address[] memory){... */\n      swap1\n      jump\t// out\n        /* \"Library.sol\":2700:2859  function returnBook(uint _tokenId) public userRestricted {... */\n    tag_55:\n        /* \"Library.sol\":552:563  userManager */\n      0x03\n      0x00\n      swap1\n      sload\n      swap1\n      0x0100\n      exp\n      swap1\n      div\n      0xffffffffffffffffffffffffffffffffffffffff\n      and\n        /* \"Library.sol\":552:578  userManager.getIsValidUser */\n      0xffffffffffffffffffffffffffffffffffffffff\n      and\n      0xecded204\n        /* \"Library.sol\":579:589  msg.sender */\n      caller\n        /* \"Library.sol\":552:590  userManager.getIsValidUser(msg.sender) */\n      mload(0x40)\n      dup3\n      0xffffffff\n      and\n      0xe0\n      shl\n      dup2\n      mstore\n      0x04\n      add\n      tag_137\n      swap2\n      swap1\n      tag_41\n      jump\t// in\n    tag_137:\n      0x20\n      mload(0x40)\n      dup1\n      dup4\n      sub\n      dup2\n      dup7\n      gas\n      staticcall\n      iszero\n      dup1\n      iszero\n      tag_139\n      jumpi\n      returndatasize\n      0x00\n      dup1\n      returndatacopy\n      revert(0x00, returndatasize)\n    tag_139:\n      pop\n      pop\n      pop\n      pop\n      mload(0x40)\n      returndatasize\n      not(0x1f)\n      0x1f\n      dup3\n      add\n      and\n      dup3\n      add\n      dup1\n      0x40\n      mstore\n      pop\n      dup2\n      add\n      swap1\n      tag_140\n      swap2\n      swap1\n      tag_70\n      jump\t// in\n    tag_140:\n        /* \"Library.sol\":544:591  require(userManager.getIsValidUser(msg.sender)) */\n      tag_141\n      jumpi\n      0x00\n      dup1\n      revert\n    tag_141:\n        /* \"Library.sol\":2767:2779  tokenManager */\n      0x04\n      0x00\n      swap1\n      sload\n      swap1\n      0x0100\n      exp\n      swap1\n      div\n      0xffffffffffffffffffffffffffffffffffffffff\n      and\n        /* \"Library.sol\":2767:2790  tokenManager.returnBook */\n      0xffffffffffffffffffffffffffffffffffffffff\n      and\n      0xca5140c9\n        /* \"Library.sol\":2791:2799  _tokenId */\n      dup3\n        /* \"Library.sol\":2767:2800  tokenManager.returnBook(_tokenId) */\n      mload(0x40)\n      dup3\n      0xffffffff\n      and\n      0xe0\n      shl\n      dup2\n      mstore\n      0x04\n      add\n      tag_143\n      swap2\n      swap1\n      tag_46\n      jump\t// in\n    tag_143:\n      0x00\n      mload(0x40)\n      dup1\n      dup4\n      sub\n      dup2\n      0x00\n      dup8\n      dup1\n      extcodesize\n      iszero\n      dup1\n      iszero\n      tag_144\n      jumpi\n      0x00\n      dup1\n      revert\n    tag_144:\n      pop\n      gas\n      call\n      iszero\n      dup1\n      iszero\n      tag_146\n      jumpi\n      returndatasize\n      0x00\n      dup1\n      returndatacopy\n      revert(0x00, returndatasize)\n    tag_146:\n      pop\n      pop\n      pop\n      pop\n        /* \"Library.sol\":2810:2821  userManager */\n      0x03\n      0x00\n      swap1\n      sload\n      swap1\n      0x0100\n      exp\n      swap1\n      div\n      0xffffffffffffffffffffffffffffffffffffffff\n      and\n        /* \"Library.sol\":2810:2830  userManager.returned */\n      0xffffffffffffffffffffffffffffffffffffffff\n      and\n      0x4a09db4f\n        /* \"Library.sol\":2831:2841  msg.sender */\n      caller\n        /* \"Library.sol\":2843:2851  _tokenId */\n      dup4\n        /* \"Library.sol\":2810:2852  userManager.returned(msg.sender, _tokenId) */\n      mload(0x40)\n      dup4\n      0xffffffff\n      and\n      0xe0\n      shl\n      dup2\n      mstore\n      0x04\n      add\n      tag_147\n      swap3\n      swap2\n      swap1\n      tag_85\n      jump\t// in\n    tag_147:\n      0x00\n      mload(0x40)\n      dup1\n      dup4\n      sub\n      dup2\n      0x00\n      dup8\n      dup1\n      extcodesize\n      iszero\n      dup1\n      iszero\n      tag_148\n      jumpi\n      0x00\n      dup1\n      revert\n    tag_148:\n      pop\n      gas\n      call\n      iszero\n      dup1\n      iszero\n      tag_150\n      jumpi\n      returndatasize\n      0x00\n      dup1\n      returndatacopy\n      revert(0x00, returndatasize)\n    tag_150:\n      pop\n      pop\n      pop\n      pop\n        /* \"Library.sol\":2700:2859  function returnBook(uint _tokenId) public userRestricted {... */\n      pop\n      jump\t// out\n        /* \"Library.sol\":1622:1885  function modifyBook( uint _index, string memory _bookid, string memory _title, uint _price, address _authorAddress)... */\n    tag_60:\n        /* \"Library.sol\":1775:1780  staff */\n      0x01\n        /* \"Library.sol\":1775:1792  staff[msg.sender] */\n      0x00\n        /* \"Library.sol\":1781:1791  msg.sender */\n      caller\n        /* \"Library.sol\":1775:1792  staff[msg.sender] */\n      0xffffffffffffffffffffffffffffffffffffffff\n      and\n      0xffffffffffffffffffffffffffffffffffffffff\n      and\n      dup2\n      mstore\n      0x20\n      add\n      swap1\n      dup2\n      mstore\n      0x20\n      add\n      0x00\n      keccak256\n      0x00\n      swap1\n      sload\n      swap1\n      0x0100\n      exp\n      swap1\n      div\n      0xff\n      and\n        /* \"Library.sol\":1767:1793  require(staff[msg.sender]) */\n      tag_152\n      jumpi\n      0x00\n      dup1\n      revert\n    tag_152:\n        /* \"Library.sol\":1807:1818  bookManager */\n      0x02\n      0x00\n      swap1\n      sload\n      swap1\n      0x0100\n      exp\n      swap1\n      div\n      0xffffffffffffffffffffffffffffffffffffffff\n      and\n        /* \"Library.sol\":1807:1829  bookManager.modifyBook */\n      0xffffffffffffffffffffffffffffffffffffffff\n      and\n      0xd2c07e20\n        /* \"Library.sol\":1830:1836  _index */\n      dup7\n        /* \"Library.sol\":1838:1845  _bookid */\n      dup7\n        /* \"Library.sol\":1847:1853  _title */\n      dup7\n        /* \"Library.sol\":1855:1861  _price */\n      dup7\n        /* \"Library.sol\":1863:1877  _authorAddress */\n      dup7\n        /* \"Library.sol\":1807:1878  bookManager.modifyBook(_index, _bookid, _title, _price, _authorAddress) */\n      mload(0x40)\n      dup7\n      0xffffffff\n      and\n      0xe0\n      shl\n      dup2\n      mstore\n      0x04\n      add\n      tag_153\n      swap6\n      swap5\n      swap4\n      swap3\n      swap2\n      swap1\n      tag_154\n      jump\t// in\n    tag_153:\n      0x00\n      mload(0x40)\n      dup1\n      dup4\n      sub\n      dup2\n      0x00\n      dup8\n      dup1\n      extcodesize\n      iszero\n      dup1\n      iszero\n      tag_155\n      jumpi\n      0x00\n      dup1\n      revert\n    tag_155:\n      pop\n      gas\n      call\n      iszero\n      dup1\n      iszero\n      tag_157\n      jumpi\n      returndatasize\n      0x00\n      dup1\n      returndatacopy\n      revert(0x00, returndatasize)\n    tag_157:\n      pop\n      pop\n      pop\n      pop\n        /* \"Library.sol\":1622:1885  function modifyBook( uint _index, string memory _bookid, string memory _title, uint _price, address _authorAddress)... */\n      pop\n      pop\n      pop\n      pop\n      pop\n      jump\t// out\n        /* \"Library.sol\":1173:1278  function inviteStaff(address _staffAddress) public restricted{... */\n    tag_64:\n        /* \"Library.sol\":474:484  msg.sender */\n      caller\n        /* \"Library.sol\":465:484  owner == msg.sender */\n      0xffffffffffffffffffffffffffffffffffffffff\n      and\n        /* \"Library.sol\":465:470  owner */\n      0x00\n      dup1\n      sload\n      swap1\n      0x0100\n      exp\n      swap1\n      div\n      0xffffffffffffffffffffffffffffffffffffffff\n      and\n        /* \"Library.sol\":465:484  owner == msg.sender */\n      0xffffffffffffffffffffffffffffffffffffffff\n      and\n      eq\n        /* \"Library.sol\":457:485  require(owner == msg.sender) */\n      tag_159\n      jumpi\n      0x00\n      dup1\n      revert\n    tag_159:\n        /* \"Library.sol\":1267:1271  true */\n      0x01\n        /* \"Library.sol\":1244:1249  staff */\n      dup1\n        /* \"Library.sol\":1244:1264  staff[_staffAddress] */\n      0x00\n        /* \"Library.sol\":1250:1263  _staffAddress */\n      dup4\n        /* \"Library.sol\":1244:1264  staff[_staffAddress] */\n      0xffffffffffffffffffffffffffffffffffffffff\n      and\n      0xffffffffffffffffffffffffffffffffffffffff\n      and\n      dup2\n      mstore\n      0x20\n      add\n      swap1\n      dup2\n      mstore\n      0x20\n      add\n      0x00\n      keccak256\n      0x00\n        /* \"Library.sol\":1244:1271  staff[_staffAddress] = true */\n      0x0100\n      exp\n      dup2\n      sload\n      dup2\n      0xff\n      mul\n      not\n      and\n      swap1\n      dup4\n      iszero\n      iszero\n      mul\n      or\n      swap1\n      sstore\n      pop\n        /* \"Library.sol\":1173:1278  function inviteStaff(address _staffAddress) public restricted{... */\n      pop\n      jump\t// out\n        /* \"#utility.yul\":7:82   */\n    tag_161:\n        /* \"#utility.yul\":40:46   */\n      0x00\n        /* \"#utility.yul\":73:75   */\n      0x40\n        /* \"#utility.yul\":67:76   */\n      mload\n        /* \"#utility.yul\":57:76   */\n      swap1\n      pop\n        /* \"#utility.yul\":7:82   */\n      swap1\n      jump\t// out\n        /* \"#utility.yul\":88:205   */\n    tag_162:\n        /* \"#utility.yul\":197:198   */\n      0x00\n        /* \"#utility.yul\":194:195   */\n      dup1\n        /* \"#utility.yul\":187:199   */\n      revert\n        /* \"#utility.yul\":211:328   */\n    tag_163:\n        /* \"#utility.yul\":320:321   */\n      0x00\n        /* \"#utility.yul\":317:318   */\n      dup1\n        /* \"#utility.yul\":310:322   */\n      revert\n        /* \"#utility.yul\":334:411   */\n    tag_164:\n        /* \"#utility.yul\":371:378   */\n      0x00\n        /* \"#utility.yul\":400:405   */\n      dup2\n        /* \"#utility.yul\":389:405   */\n      swap1\n      pop\n        /* \"#utility.yul\":334:411   */\n      swap2\n      swap1\n      pop\n      jump\t// out\n        /* \"#utility.yul\":417:539   */\n    tag_165:\n        /* \"#utility.yul\":490:514   */\n      tag_205\n        /* \"#utility.yul\":508:513   */\n      dup2\n        /* \"#utility.yul\":490:514   */\n      tag_164\n      jump\t// in\n    tag_205:\n        /* \"#utility.yul\":483:488   */\n      dup2\n        /* \"#utility.yul\":480:515   */\n      eq\n        /* \"#utility.yul\":470:533   */\n      tag_206\n      jumpi\n        /* \"#utility.yul\":529:530   */\n      0x00\n        /* \"#utility.yul\":526:527   */\n      dup1\n        /* \"#utility.yul\":519:531   */\n      revert\n        /* \"#utility.yul\":470:533   */\n    tag_206:\n        /* \"#utility.yul\":417:539   */\n      pop\n      jump\t// out\n        /* \"#utility.yul\":545:684   */\n    tag_166:\n        /* \"#utility.yul\":591:596   */\n      0x00\n        /* \"#utility.yul\":629:635   */\n      dup2\n        /* \"#utility.yul\":616:636   */\n      calldataload\n        /* \"#utility.yul\":607:636   */\n      swap1\n      pop\n        /* \"#utility.yul\":645:678   */\n      tag_208\n        /* \"#utility.yul\":672:677   */\n      dup2\n        /* \"#utility.yul\":645:678   */\n      tag_165\n      jump\t// in\n    tag_208:\n        /* \"#utility.yul\":545:684   */\n      swap3\n      swap2\n      pop\n      pop\n      jump\t// out\n        /* \"#utility.yul\":690:1309   */\n    tag_16:\n        /* \"#utility.yul\":767:773   */\n      0x00\n        /* \"#utility.yul\":775:781   */\n      dup1\n        /* \"#utility.yul\":783:789   */\n      0x00\n        /* \"#utility.yul\":832:834   */\n      0x60\n        /* \"#utility.yul\":820:829   */\n      dup5\n        /* \"#utility.yul\":811:818   */\n      dup7\n        /* \"#utility.yul\":807:830   */\n      sub\n        /* \"#utility.yul\":803:835   */\n      slt\n        /* \"#utility.yul\":800:919   */\n      iszero\n      tag_210\n      jumpi\n        /* \"#utility.yul\":838:917   */\n      tag_211\n      tag_162\n      jump\t// in\n    tag_211:\n        /* \"#utility.yul\":800:919   */\n    tag_210:\n        /* \"#utility.yul\":958:959   */\n      0x00\n        /* \"#utility.yul\":983:1036   */\n      tag_212\n        /* \"#utility.yul\":1028:1035   */\n      dup7\n        /* \"#utility.yul\":1019:1025   */\n      dup3\n        /* \"#utility.yul\":1008:1017   */\n      dup8\n        /* \"#utility.yul\":1004:1026   */\n      add\n        /* \"#utility.yul\":983:1036   */\n      tag_166\n      jump\t// in\n    tag_212:\n        /* \"#utility.yul\":973:1036   */\n      swap4\n      pop\n        /* \"#utility.yul\":929:1046   */\n      pop\n        /* \"#utility.yul\":1085:1087   */\n      0x20\n        /* \"#utility.yul\":1111:1164   */\n      tag_213\n        /* \"#utility.yul\":1156:1163   */\n      dup7\n        /* \"#utility.yul\":1147:1153   */\n      dup3\n        /* \"#utility.yul\":1136:1145   */\n      dup8\n        /* \"#utility.yul\":1132:1154   */\n      add\n        /* \"#utility.yul\":1111:1164   */\n      tag_166\n      jump\t// in\n    tag_213:\n        /* \"#utility.yul\":1101:1164   */\n      swap3\n      pop\n        /* \"#utility.yul\":1056:1174   */\n      pop\n        /* \"#utility.yul\":1213:1215   */\n      0x40\n        /* \"#utility.yul\":1239:1292   */\n      tag_214\n        /* \"#utility.yul\":1284:1291   */\n      dup7\n        /* \"#utility.yul\":1275:1281   */\n      dup3\n        /* \"#utility.yul\":1264:1273   */\n      dup8\n        /* \"#utility.yul\":1260:1282   */\n      add\n        /* \"#utility.yul\":1239:1292   */\n      tag_166\n      jump\t// in\n    tag_214:\n        /* \"#utility.yul\":1229:1292   */\n      swap2\n      pop\n        /* \"#utility.yul\":1184:1302   */\n      pop\n        /* \"#utility.yul\":690:1309   */\n      swap3\n      pop\n      swap3\n      pop\n      swap3\n      jump\t// out\n        /* \"#utility.yul\":1315:1441   */\n    tag_167:\n        /* \"#utility.yul\":1352:1359   */\n      0x00\n        /* \"#utility.yul\":1392:1434   */\n      0xffffffffffffffffffffffffffffffffffffffff\n        /* \"#utility.yul\":1385:1390   */\n      dup3\n        /* \"#utility.yul\":1381:1435   */\n      and\n        /* \"#utility.yul\":1370:1435   */\n      swap1\n      pop\n        /* \"#utility.yul\":1315:1441   */\n      swap2\n      swap1\n      pop\n      jump\t// out\n        /* \"#utility.yul\":1447:1543   */\n    tag_168:\n        /* \"#utility.yul\":1484:1491   */\n      0x00\n        /* \"#utility.yul\":1513:1537   */\n      tag_217\n        /* \"#utility.yul\":1531:1536   */\n      dup3\n        /* \"#utility.yul\":1513:1537   */\n      tag_167\n      jump\t// in\n    tag_217:\n        /* \"#utility.yul\":1502:1537   */\n      swap1\n      pop\n        /* \"#utility.yul\":1447:1543   */\n      swap2\n      swap1\n      pop\n      jump\t// out\n        /* \"#utility.yul\":1549:1671   */\n    tag_169:\n        /* \"#utility.yul\":1622:1646   */\n      tag_219\n        /* \"#utility.yul\":1640:1645   */\n      dup2\n        /* \"#utility.yul\":1622:1646   */\n      tag_168\n      jump\t// in\n    tag_219:\n        /* \"#utility.yul\":1615:1620   */\n      dup2\n        /* \"#utility.yul\":1612:1647   */\n      eq\n        /* \"#utility.yul\":1602:1665   */\n      tag_220\n      jumpi\n        /* \"#utility.yul\":1661:1662   */\n      0x00\n        /* \"#utility.yul\":1658:1659   */\n      dup1\n        /* \"#utility.yul\":1651:1663   */\n      revert\n        /* \"#utility.yul\":1602:1665   */\n    tag_220:\n        /* \"#utility.yul\":1549:1671   */\n      pop\n      jump\t// out\n        /* \"#utility.yul\":1677:1816   */\n    tag_170:\n        /* \"#utility.yul\":1723:1728   */\n      0x00\n        /* \"#utility.yul\":1761:1767   */\n      dup2\n        /* \"#utility.yul\":1748:1768   */\n      calldataload\n        /* \"#utility.yul\":1739:1768   */\n      swap1\n      pop\n        /* \"#utility.yul\":1777:1810   */\n      tag_222\n        /* \"#utility.yul\":1804:1809   */\n      dup2\n        /* \"#utility.yul\":1777:1810   */\n      tag_169\n      jump\t// in\n    tag_222:\n        /* \"#utility.yul\":1677:1816   */\n      swap3\n      swap2\n      pop\n      pop\n      jump\t// out\n        /* \"#utility.yul\":1822:2151   */\n    tag_24:\n        /* \"#utility.yul\":1881:1887   */\n      0x00\n        /* \"#utility.yul\":1930:1932   */\n      0x20\n        /* \"#utility.yul\":1918:1927   */\n      dup3\n        /* \"#utility.yul\":1909:1916   */\n      dup5\n        /* \"#utility.yul\":1905:1928   */\n      sub\n        /* \"#utility.yul\":1901:1933   */\n      slt\n        /* \"#utility.yul\":1898:2017   */\n      iszero\n      tag_224\n      jumpi\n        /* \"#utility.yul\":1936:2015   */\n      tag_225\n      tag_162\n      jump\t// in\n    tag_225:\n        /* \"#utility.yul\":1898:2017   */\n    tag_224:\n        /* \"#utility.yul\":2056:2057   */\n      0x00\n        /* \"#utility.yul\":2081:2134   */\n      tag_226\n        /* \"#utility.yul\":2126:2133   */\n      dup5\n        /* \"#utility.yul\":2117:2123   */\n      dup3\n        /* \"#utility.yul\":2106:2115   */\n      dup6\n        /* \"#utility.yul\":2102:2124   */\n      add\n        /* \"#utility.yul\":2081:2134   */\n      tag_170\n      jump\t// in\n    tag_226:\n        /* \"#utility.yul\":2071:2134   */\n      swap2\n      pop\n        /* \"#utility.yul\":2027:2144   */\n      pop\n        /* \"#utility.yul\":1822:2151   */\n      swap3\n      swap2\n      pop\n      pop\n      jump\t// out\n        /* \"#utility.yul\":2157:2247   */\n    tag_171:\n        /* \"#utility.yul\":2191:2198   */\n      0x00\n        /* \"#utility.yul\":2234:2239   */\n      dup2\n        /* \"#utility.yul\":2227:2240   */\n      iszero\n        /* \"#utility.yul\":2220:2241   */\n      iszero\n        /* \"#utility.yul\":2209:2241   */\n      swap1\n      pop\n        /* \"#utility.yul\":2157:2247   */\n      swap2\n      swap1\n      pop\n      jump\t// out\n        /* \"#utility.yul\":2253:2362   */\n    tag_172:\n        /* \"#utility.yul\":2334:2355   */\n      tag_229\n        /* \"#utility.yul\":2349:2354   */\n      dup2\n        /* \"#utility.yul\":2334:2355   */\n      tag_171\n      jump\t// in\n    tag_229:\n        /* \"#utility.yul\":2329:2332   */\n      dup3\n        /* \"#utility.yul\":2322:2356   */\n      mstore\n        /* \"#utility.yul\":2253:2362   */\n      pop\n      pop\n      jump\t// out\n        /* \"#utility.yul\":2368:2578   */\n    tag_27:\n        /* \"#utility.yul\":2455:2459   */\n      0x00\n        /* \"#utility.yul\":2493:2495   */\n      0x20\n        /* \"#utility.yul\":2482:2491   */\n      dup3\n        /* \"#utility.yul\":2478:2496   */\n      add\n        /* \"#utility.yul\":2470:2496   */\n      swap1\n      pop\n        /* \"#utility.yul\":2506:2571   */\n      tag_231\n        /* \"#utility.yul\":2568:2569   */\n      0x00\n        /* \"#utility.yul\":2557:2566   */\n      dup4\n        /* \"#utility.yul\":2553:2570   */\n      add\n        /* \"#utility.yul\":2544:2550   */\n      dup5\n        /* \"#utility.yul\":2506:2571   */\n      tag_172\n      jump\t// in\n    tag_231:\n        /* \"#utility.yul\":2368:2578   */\n      swap3\n      swap2\n      pop\n      pop\n      jump\t// out\n        /* \"#utility.yul\":2584:2701   */\n    tag_173:\n        /* \"#utility.yul\":2693:2694   */\n      0x00\n        /* \"#utility.yul\":2690:2691   */\n      dup1\n        /* \"#utility.yul\":2683:2695   */\n      revert\n        /* \"#utility.yul\":2707:2824   */\n    tag_174:\n        /* \"#utility.yul\":2816:2817   */\n      0x00\n        /* \"#utility.yul\":2813:2814   */\n      dup1\n        /* \"#utility.yul\":2806:2818   */\n      revert\n        /* \"#utility.yul\":2830:2932   */\n    tag_175:\n        /* \"#utility.yul\":2871:2877   */\n      0x00\n        /* \"#utility.yul\":2922:2924   */\n      0x1f\n        /* \"#utility.yul\":2918:2925   */\n      not\n        /* \"#utility.yul\":2913:2915   */\n      0x1f\n        /* \"#utility.yul\":2906:2911   */\n      dup4\n        /* \"#utility.yul\":2902:2916   */\n      add\n        /* \"#utility.yul\":2898:2926   */\n      and\n        /* \"#utility.yul\":2888:2926   */\n      swap1\n      pop\n        /* \"#utility.yul\":2830:2932   */\n      swap2\n      swap1\n      pop\n      jump\t// out\n        /* \"#utility.yul\":2938:3118   */\n    tag_176:\n        /* \"#utility.yul\":2986:3063   */\n      0x4e487b7100000000000000000000000000000000000000000000000000000000\n        /* \"#utility.yul\":2983:2984   */\n      0x00\n        /* \"#utility.yul\":2976:3064   */\n      mstore\n        /* \"#utility.yul\":3083:3087   */\n      0x41\n        /* \"#utility.yul\":3080:3081   */\n      0x04\n        /* \"#utility.yul\":3073:3088   */\n      mstore\n        /* \"#utility.yul\":3107:3111   */\n      0x24\n        /* \"#utility.yul\":3104:3105   */\n      0x00\n        /* \"#utility.yul\":3097:3112   */\n      revert\n        /* \"#utility.yul\":3124:3405   */\n    tag_177:\n        /* \"#utility.yul\":3207:3234   */\n      tag_237\n        /* \"#utility.yul\":3229:3233   */\n      dup3\n        /* \"#utility.yul\":3207:3234   */\n      tag_175\n      jump\t// in\n    tag_237:\n        /* \"#utility.yul\":3199:3205   */\n      dup2\n        /* \"#utility.yul\":3195:3235   */\n      add\n        /* \"#utility.yul\":3337:3343   */\n      dup2\n        /* \"#utility.yul\":3325:3335   */\n      dup2\n        /* \"#utility.yul\":3322:3344   */\n      lt\n        /* \"#utility.yul\":3301:3319   */\n      0xffffffffffffffff\n        /* \"#utility.yul\":3289:3299   */\n      dup3\n        /* \"#utility.yul\":3286:3320   */\n      gt\n        /* \"#utility.yul\":3283:3345   */\n      or\n        /* \"#utility.yul\":3280:3368   */\n      iszero\n      tag_238\n      jumpi\n        /* \"#utility.yul\":3348:3366   */\n      tag_239\n      tag_176\n      jump\t// in\n    tag_239:\n        /* \"#utility.yul\":3280:3368   */\n    tag_238:\n        /* \"#utility.yul\":3388:3398   */\n      dup1\n        /* \"#utility.yul\":3384:3386   */\n      0x40\n        /* \"#utility.yul\":3377:3399   */\n      mstore\n        /* \"#utility.yul\":3167:3405   */\n      pop\n        /* \"#utility.yul\":3124:3405   */\n      pop\n      pop\n      jump\t// out\n        /* \"#utility.yul\":3411:3540   */\n    tag_178:\n        /* \"#utility.yul\":3445:3451   */\n      0x00\n        /* \"#utility.yul\":3472:3492   */\n      tag_241\n      tag_161\n      jump\t// in\n    tag_241:\n        /* \"#utility.yul\":3462:3492   */\n      swap1\n      pop\n        /* \"#utility.yul\":3501:3534   */\n      tag_242\n        /* \"#utility.yul\":3529:3533   */\n      dup3\n        /* \"#utility.yul\":3521:3527   */\n      dup3\n        /* \"#utility.yul\":3501:3534   */\n      tag_177\n      jump\t// in\n    tag_242:\n        /* \"#utility.yul\":3411:3540   */\n      swap2\n      swap1\n      pop\n      jump\t// out\n        /* \"#utility.yul\":3546:3854   */\n    tag_179:\n        /* \"#utility.yul\":3608:3612   */\n      0x00\n        /* \"#utility.yul\":3698:3716   */\n      0xffffffffffffffff\n        /* \"#utility.yul\":3690:3696   */\n      dup3\n        /* \"#utility.yul\":3687:3717   */\n      gt\n        /* \"#utility.yul\":3684:3740   */\n      iszero\n      tag_244\n      jumpi\n        /* \"#utility.yul\":3720:3738   */\n      tag_245\n      tag_176\n      jump\t// in\n    tag_245:\n        /* \"#utility.yul\":3684:3740   */\n    tag_244:\n        /* \"#utility.yul\":3758:3787   */\n      tag_246\n        /* \"#utility.yul\":3780:3786   */\n      dup3\n        /* \"#utility.yul\":3758:3787   */\n      tag_175\n      jump\t// in\n    tag_246:\n        /* \"#utility.yul\":3750:3787   */\n      swap1\n      pop\n        /* \"#utility.yul\":3842:3846   */\n      0x20\n        /* \"#utility.yul\":3836:3840   */\n      dup2\n        /* \"#utility.yul\":3832:3847   */\n      add\n        /* \"#utility.yul\":3824:3847   */\n      swap1\n      pop\n        /* \"#utility.yul\":3546:3854   */\n      swap2\n      swap1\n      pop\n      jump\t// out\n        /* \"#utility.yul\":3860:4014   */\n    tag_180:\n        /* \"#utility.yul\":3944:3950   */\n      dup3\n        /* \"#utility.yul\":3939:3942   */\n      dup2\n        /* \"#utility.yul\":3934:3937   */\n      dup4\n        /* \"#utility.yul\":3921:3951   */\n      calldatacopy\n        /* \"#utility.yul\":4006:4007   */\n      0x00\n        /* \"#utility.yul\":3997:4003   */\n      dup4\n        /* \"#utility.yul\":3992:3995   */\n      dup4\n        /* \"#utility.yul\":3988:4004   */\n      add\n        /* \"#utility.yul\":3981:4008   */\n      mstore\n        /* \"#utility.yul\":3860:4014   */\n      pop\n      pop\n      pop\n      jump\t// out\n        /* \"#utility.yul\":4020:4432   */\n    tag_181:\n        /* \"#utility.yul\":4098:4103   */\n      0x00\n        /* \"#utility.yul\":4123:4189   */\n      tag_249\n        /* \"#utility.yul\":4139:4188   */\n      tag_250\n        /* \"#utility.yul\":4181:4187   */\n      dup5\n        /* \"#utility.yul\":4139:4188   */\n      tag_179\n      jump\t// in\n    tag_250:\n        /* \"#utility.yul\":4123:4189   */\n      tag_178\n      jump\t// in\n    tag_249:\n        /* \"#utility.yul\":4114:4189   */\n      swap1\n      pop\n        /* \"#utility.yul\":4212:4218   */\n      dup3\n        /* \"#utility.yul\":4205:4210   */\n      dup2\n        /* \"#utility.yul\":4198:4219   */\n      mstore\n        /* \"#utility.yul\":4250:4254   */\n      0x20\n        /* \"#utility.yul\":4243:4248   */\n      dup2\n        /* \"#utility.yul\":4239:4255   */\n      add\n        /* \"#utility.yul\":4288:4291   */\n      dup5\n        /* \"#utility.yul\":4279:4285   */\n      dup5\n        /* \"#utility.yul\":4274:4277   */\n      dup5\n        /* \"#utility.yul\":4270:4286   */\n      add\n        /* \"#utility.yul\":4267:4292   */\n      gt\n        /* \"#utility.yul\":4264:4376   */\n      iszero\n      tag_251\n      jumpi\n        /* \"#utility.yul\":4295:4374   */\n      tag_252\n      tag_174\n      jump\t// in\n    tag_252:\n        /* \"#utility.yul\":4264:4376   */\n    tag_251:\n        /* \"#utility.yul\":4385:4426   */\n      tag_253\n        /* \"#utility.yul\":4419:4425   */\n      dup5\n        /* \"#utility.yul\":4414:4417   */\n      dup3\n        /* \"#utility.yul\":4409:4412   */\n      dup6\n        /* \"#utility.yul\":4385:4426   */\n      tag_180\n      jump\t// in\n    tag_253:\n        /* \"#utility.yul\":4104:4432   */\n      pop\n        /* \"#utility.yul\":4020:4432   */\n      swap4\n      swap3\n      pop\n      pop\n      pop\n      jump\t// out\n        /* \"#utility.yul\":4452:4792   */\n    tag_182:\n        /* \"#utility.yul\":4508:4513   */\n      0x00\n        /* \"#utility.yul\":4557:4560   */\n      dup3\n        /* \"#utility.yul\":4550:4554   */\n      0x1f\n        /* \"#utility.yul\":4542:4548   */\n      dup4\n        /* \"#utility.yul\":4538:4555   */\n      add\n        /* \"#utility.yul\":4534:4561   */\n      slt\n        /* \"#utility.yul\":4524:4646   */\n      tag_255\n      jumpi\n        /* \"#utility.yul\":4565:4644   */\n      tag_256\n      tag_173\n      jump\t// in\n    tag_256:\n        /* \"#utility.yul\":4524:4646   */\n    tag_255:\n        /* \"#utility.yul\":4682:4688   */\n      dup2\n        /* \"#utility.yul\":4669:4689   */\n      calldataload\n        /* \"#utility.yul\":4707:4786   */\n      tag_257\n        /* \"#utility.yul\":4782:4785   */\n      dup5\n        /* \"#utility.yul\":4774:4780   */\n      dup3\n        /* \"#utility.yul\":4767:4771   */\n      0x20\n        /* \"#utility.yul\":4759:4765   */\n      dup7\n        /* \"#utility.yul\":4755:4772   */\n      add\n        /* \"#utility.yul\":4707:4786   */\n      tag_181\n      jump\t// in\n    tag_257:\n        /* \"#utility.yul\":4698:4786   */\n      swap2\n      pop\n        /* \"#utility.yul\":4514:4792   */\n      pop\n        /* \"#utility.yul\":4452:4792   */\n      swap3\n      swap2\n      pop\n      pop\n      jump\t// out\n        /* \"#utility.yul\":4798:5923   */\n    tag_31:\n        /* \"#utility.yul\":4904:4910   */\n      0x00\n        /* \"#utility.yul\":4912:4918   */\n      dup1\n        /* \"#utility.yul\":4920:4926   */\n      0x00\n        /* \"#utility.yul\":4928:4934   */\n      dup1\n        /* \"#utility.yul\":4977:4980   */\n      0x80\n        /* \"#utility.yul\":4965:4974   */\n      dup6\n        /* \"#utility.yul\":4956:4963   */\n      dup8\n        /* \"#utility.yul\":4952:4975   */\n      sub\n        /* \"#utility.yul\":4948:4981   */\n      slt\n        /* \"#utility.yul\":4945:5065   */\n      iszero\n      tag_259\n      jumpi\n        /* \"#utility.yul\":4984:5063   */\n      tag_260\n      tag_162\n      jump\t// in\n    tag_260:\n        /* \"#utility.yul\":4945:5065   */\n    tag_259:\n        /* \"#utility.yul\":5132:5133   */\n      0x00\n        /* \"#utility.yul\":5121:5130   */\n      dup6\n        /* \"#utility.yul\":5117:5134   */\n      add\n        /* \"#utility.yul\":5104:5135   */\n      calldataload\n        /* \"#utility.yul\":5162:5180   */\n      0xffffffffffffffff\n        /* \"#utility.yul\":5154:5160   */\n      dup2\n        /* \"#utility.yul\":5151:5181   */\n      gt\n        /* \"#utility.yul\":5148:5265   */\n      iszero\n      tag_261\n      jumpi\n        /* \"#utility.yul\":5184:5263   */\n      tag_262\n      tag_163\n      jump\t// in\n    tag_262:\n        /* \"#utility.yul\":5148:5265   */\n    tag_261:\n        /* \"#utility.yul\":5289:5352   */\n      tag_263\n        /* \"#utility.yul\":5344:5351   */\n      dup8\n        /* \"#utility.yul\":5335:5341   */\n      dup3\n        /* \"#utility.yul\":5324:5333   */\n      dup9\n        /* \"#utility.yul\":5320:5342   */\n      add\n        /* \"#utility.yul\":5289:5352   */\n      tag_182\n      jump\t// in\n    tag_263:\n        /* \"#utility.yul\":5279:5352   */\n      swap5\n      pop\n        /* \"#utility.yul\":5075:5362   */\n      pop\n        /* \"#utility.yul\":5429:5431   */\n      0x20\n        /* \"#utility.yul\":5418:5427   */\n      dup6\n        /* \"#utility.yul\":5414:5432   */\n      add\n        /* \"#utility.yul\":5401:5433   */\n      calldataload\n        /* \"#utility.yul\":5460:5478   */\n      0xffffffffffffffff\n        /* \"#utility.yul\":5452:5458   */\n      dup2\n        /* \"#utility.yul\":5449:5479   */\n      gt\n        /* \"#utility.yul\":5446:5563   */\n      iszero\n      tag_264\n      jumpi\n        /* \"#utility.yul\":5482:5561   */\n      tag_265\n      tag_163\n      jump\t// in\n    tag_265:\n        /* \"#utility.yul\":5446:5563   */\n    tag_264:\n        /* \"#utility.yul\":5587:5650   */\n      tag_266\n        /* \"#utility.yul\":5642:5649   */\n      dup8\n        /* \"#utility.yul\":5633:5639   */\n      dup3\n        /* \"#utility.yul\":5622:5631   */\n      dup9\n        /* \"#utility.yul\":5618:5640   */\n      add\n        /* \"#utility.yul\":5587:5650   */\n      tag_182\n      jump\t// in\n    tag_266:\n        /* \"#utility.yul\":5577:5650   */\n      swap4\n      pop\n        /* \"#utility.yul\":5372:5660   */\n      pop\n        /* \"#utility.yul\":5699:5701   */\n      0x40\n        /* \"#utility.yul\":5725:5778   */\n      tag_267\n        /* \"#utility.yul\":5770:5777   */\n      dup8\n        /* \"#utility.yul\":5761:5767   */\n      dup3\n        /* \"#utility.yul\":5750:5759   */\n      dup9\n        /* \"#utility.yul\":5746:5768   */\n      add\n        /* \"#utility.yul\":5725:5778   */\n      tag_166\n      jump\t// in\n    tag_267:\n        /* \"#utility.yul\":5715:5778   */\n      swap3\n      pop\n        /* \"#utility.yul\":5670:5788   */\n      pop\n        /* \"#utility.yul\":5827:5829   */\n      0x60\n        /* \"#utility.yul\":5853:5906   */\n      tag_268\n        /* \"#utility.yul\":5898:5905   */\n      dup8\n        /* \"#utility.yul\":5889:5895   */\n      dup3\n        /* \"#utility.yul\":5878:5887   */\n      dup9\n        /* \"#utility.yul\":5874:5896   */\n      add\n        /* \"#utility.yul\":5853:5906   */\n      tag_170\n      jump\t// in\n    tag_268:\n        /* \"#utility.yul\":5843:5906   */\n      swap2\n      pop\n        /* \"#utility.yul\":5798:5916   */\n      pop\n        /* \"#utility.yul\":4798:5923   */\n      swap3\n      swap6\n      swap2\n      swap5\n      pop\n      swap3\n      pop\n      jump\t// out\n        /* \"#utility.yul\":5929:6258   */\n    tag_35:\n        /* \"#utility.yul\":5988:5994   */\n      0x00\n        /* \"#utility.yul\":6037:6039   */\n      0x20\n        /* \"#utility.yul\":6025:6034   */\n      dup3\n        /* \"#utility.yul\":6016:6023   */\n      dup5\n        /* \"#utility.yul\":6012:6035   */\n      sub\n        /* \"#utility.yul\":6008:6040   */\n      slt\n        /* \"#utility.yul\":6005:6124   */\n      iszero\n      tag_270\n      jumpi\n        /* \"#utility.yul\":6043:6122   */\n      tag_271\n      tag_162\n      jump\t// in\n    tag_271:\n        /* \"#utility.yul\":6005:6124   */\n    tag_270:\n        /* \"#utility.yul\":6163:6164   */\n      0x00\n        /* \"#utility.yul\":6188:6241   */\n      tag_272\n        /* \"#utility.yul\":6233:6240   */\n      dup5\n        /* \"#utility.yul\":6224:6230   */\n      dup3\n        /* \"#utility.yul\":6213:6222   */\n      dup6\n        /* \"#utility.yul\":6209:6231   */\n      add\n        /* \"#utility.yul\":6188:6241   */\n      tag_166\n      jump\t// in\n    tag_272:\n        /* \"#utility.yul\":6178:6241   */\n      swap2\n      pop\n        /* \"#utility.yul\":6134:6251   */\n      pop\n        /* \"#utility.yul\":5929:6258   */\n      swap3\n      swap2\n      pop\n      pop\n      jump\t// out\n        /* \"#utility.yul\":6264:6382   */\n    tag_183:\n        /* \"#utility.yul\":6351:6375   */\n      tag_274\n        /* \"#utility.yul\":6369:6374   */\n      dup2\n        /* \"#utility.yul\":6351:6375   */\n      tag_168\n      jump\t// in\n    tag_274:\n        /* \"#utility.yul\":6346:6349   */\n      dup3\n        /* \"#utility.yul\":6339:6376   */\n      mstore\n        /* \"#utility.yul\":6264:6382   */\n      pop\n      pop\n      jump\t// out\n        /* \"#utility.yul\":6388:6610   */\n    tag_41:\n        /* \"#utility.yul\":6481:6485   */\n      0x00\n        /* \"#utility.yul\":6519:6521   */\n      0x20\n        /* \"#utility.yul\":6508:6517   */\n      dup3\n        /* \"#utility.yul\":6504:6522   */\n      add\n        /* \"#utility.yul\":6496:6522   */\n      swap1\n      pop\n        /* \"#utility.yul\":6532:6603   */\n      tag_276\n        /* \"#utility.yul\":6600:6601   */\n      0x00\n        /* \"#utility.yul\":6589:6598   */\n      dup4\n        /* \"#utility.yul\":6585:6602   */\n      add\n        /* \"#utility.yul\":6576:6582   */\n      dup5\n        /* \"#utility.yul\":6532:6603   */\n      tag_183\n      jump\t// in\n    tag_276:\n        /* \"#utility.yul\":6388:6610   */\n      swap3\n      swap2\n      pop\n      pop\n      jump\t// out\n        /* \"#utility.yul\":6616:6734   */\n    tag_184:\n        /* \"#utility.yul\":6703:6727   */\n      tag_278\n        /* \"#utility.yul\":6721:6726   */\n      dup2\n        /* \"#utility.yul\":6703:6727   */\n      tag_164\n      jump\t// in\n    tag_278:\n        /* \"#utility.yul\":6698:6701   */\n      dup3\n        /* \"#utility.yul\":6691:6728   */\n      mstore\n        /* \"#utility.yul\":6616:6734   */\n      pop\n      pop\n      jump\t// out\n        /* \"#utility.yul\":6740:6962   */\n    tag_46:\n        /* \"#utility.yul\":6833:6837   */\n      0x00\n        /* \"#utility.yul\":6871:6873   */\n      0x20\n        /* \"#utility.yul\":6860:6869   */\n      dup3\n        /* \"#utility.yul\":6856:6874   */\n      add\n        /* \"#utility.yul\":6848:6874   */\n      swap1\n      pop\n        /* \"#utility.yul\":6884:6955   */\n      tag_280\n        /* \"#utility.yul\":6952:6953   */\n      0x00\n        /* \"#utility.yul\":6941:6950   */\n      dup4\n        /* \"#utility.yul\":6937:6954   */\n      add\n        /* \"#utility.yul\":6928:6934   */\n      dup5\n        /* \"#utility.yul\":6884:6955   */\n      tag_184\n      jump\t// in\n    tag_280:\n        /* \"#utility.yul\":6740:6962   */\n      swap3\n      swap2\n      pop\n      pop\n      jump\t// out\n        /* \"#utility.yul\":6968:7082   */\n    tag_185:\n        /* \"#utility.yul\":7035:7041   */\n      0x00\n        /* \"#utility.yul\":7069:7074   */\n      dup2\n        /* \"#utility.yul\":7063:7075   */\n      mload\n        /* \"#utility.yul\":7053:7075   */\n      swap1\n      pop\n        /* \"#utility.yul\":6968:7082   */\n      swap2\n      swap1\n      pop\n      jump\t// out\n        /* \"#utility.yul\":7088:7272   */\n    tag_186:\n        /* \"#utility.yul\":7187:7198   */\n      0x00\n        /* \"#utility.yul\":7221:7227   */\n      dup3\n        /* \"#utility.yul\":7216:7219   */\n      dup3\n        /* \"#utility.yul\":7209:7228   */\n      mstore\n        /* \"#utility.yul\":7261:7265   */\n      0x20\n        /* \"#utility.yul\":7256:7259   */\n      dup3\n        /* \"#utility.yul\":7252:7266   */\n      add\n        /* \"#utility.yul\":7237:7266   */\n      swap1\n      pop\n        /* \"#utility.yul\":7088:7272   */\n      swap3\n      swap2\n      pop\n      pop\n      jump\t// out\n        /* \"#utility.yul\":7278:7410   */\n    tag_187:\n        /* \"#utility.yul\":7345:7349   */\n      0x00\n        /* \"#utility.yul\":7368:7371   */\n      dup2\n        /* \"#utility.yul\":7360:7371   */\n      swap1\n      pop\n        /* \"#utility.yul\":7398:7402   */\n      0x20\n        /* \"#utility.yul\":7393:7396   */\n      dup3\n        /* \"#utility.yul\":7389:7403   */\n      add\n        /* \"#utility.yul\":7381:7403   */\n      swap1\n      pop\n        /* \"#utility.yul\":7278:7410   */\n      swap2\n      swap1\n      pop\n      jump\t// out\n        /* \"#utility.yul\":7416:7524   */\n    tag_188:\n        /* \"#utility.yul\":7493:7517   */\n      tag_285\n        /* \"#utility.yul\":7511:7516   */\n      dup2\n        /* \"#utility.yul\":7493:7517   */\n      tag_168\n      jump\t// in\n    tag_285:\n        /* \"#utility.yul\":7488:7491   */\n      dup3\n        /* \"#utility.yul\":7481:7518   */\n      mstore\n        /* \"#utility.yul\":7416:7524   */\n      pop\n      pop\n      jump\t// out\n        /* \"#utility.yul\":7530:7709   */\n    tag_189:\n        /* \"#utility.yul\":7599:7609   */\n      0x00\n        /* \"#utility.yul\":7620:7666   */\n      tag_287\n        /* \"#utility.yul\":7662:7665   */\n      dup4\n        /* \"#utility.yul\":7654:7660   */\n      dup4\n        /* \"#utility.yul\":7620:7666   */\n      tag_188\n      jump\t// in\n    tag_287:\n        /* \"#utility.yul\":7698:7702   */\n      0x20\n        /* \"#utility.yul\":7693:7696   */\n      dup4\n        /* \"#utility.yul\":7689:7703   */\n      add\n        /* \"#utility.yul\":7675:7703   */\n      swap1\n      pop\n        /* \"#utility.yul\":7530:7709   */\n      swap3\n      swap2\n      pop\n      pop\n      jump\t// out\n        /* \"#utility.yul\":7715:7828   */\n    tag_190:\n        /* \"#utility.yul\":7785:7789   */\n      0x00\n        /* \"#utility.yul\":7817:7821   */\n      0x20\n        /* \"#utility.yul\":7812:7815   */\n      dup3\n        /* \"#utility.yul\":7808:7822   */\n      add\n        /* \"#utility.yul\":7800:7822   */\n      swap1\n      pop\n        /* \"#utility.yul\":7715:7828   */\n      swap2\n      swap1\n      pop\n      jump\t// out\n        /* \"#utility.yul\":7864:8596   */\n    tag_191:\n        /* \"#utility.yul\":7983:7986   */\n      0x00\n        /* \"#utility.yul\":8012:8066   */\n      tag_290\n        /* \"#utility.yul\":8060:8065   */\n      dup3\n        /* \"#utility.yul\":8012:8066   */\n      tag_185\n      jump\t// in\n    tag_290:\n        /* \"#utility.yul\":8082:8168   */\n      tag_291\n        /* \"#utility.yul\":8161:8167   */\n      dup2\n        /* \"#utility.yul\":8156:8159   */\n      dup6\n        /* \"#utility.yul\":8082:8168   */\n      tag_186\n      jump\t// in\n    tag_291:\n        /* \"#utility.yul\":8075:8168   */\n      swap4\n      pop\n        /* \"#utility.yul\":8192:8248   */\n      tag_292\n        /* \"#utility.yul\":8242:8247   */\n      dup4\n        /* \"#utility.yul\":8192:8248   */\n      tag_187\n      jump\t// in\n    tag_292:\n        /* \"#utility.yul\":8271:8278   */\n      dup1\n        /* \"#utility.yul\":8302:8303   */\n      0x00\n        /* \"#utility.yul\":8287:8571   */\n    tag_293:\n        /* \"#utility.yul\":8312:8318   */\n      dup4\n        /* \"#utility.yul\":8309:8310   */\n      dup2\n        /* \"#utility.yul\":8306:8319   */\n      lt\n        /* \"#utility.yul\":8287:8571   */\n      iszero\n      tag_295\n      jumpi\n        /* \"#utility.yul\":8388:8394   */\n      dup2\n        /* \"#utility.yul\":8382:8395   */\n      mload\n        /* \"#utility.yul\":8415:8478   */\n      tag_296\n        /* \"#utility.yul\":8474:8477   */\n      dup9\n        /* \"#utility.yul\":8459:8472   */\n      dup3\n        /* \"#utility.yul\":8415:8478   */\n      tag_189\n      jump\t// in\n    tag_296:\n        /* \"#utility.yul\":8408:8478   */\n      swap8\n      pop\n        /* \"#utility.yul\":8501:8561   */\n      tag_297\n        /* \"#utility.yul\":8554:8560   */\n      dup4\n        /* \"#utility.yul\":8501:8561   */\n      tag_190\n      jump\t// in\n    tag_297:\n        /* \"#utility.yul\":8491:8561   */\n      swap3\n      pop\n        /* \"#utility.yul\":8347:8571   */\n      pop\n        /* \"#utility.yul\":8334:8335   */\n      0x01\n        /* \"#utility.yul\":8331:8332   */\n      dup2\n        /* \"#utility.yul\":8327:8336   */\n      add\n        /* \"#utility.yul\":8322:8336   */\n      swap1\n      pop\n        /* \"#utility.yul\":8287:8571   */\n      jump(tag_293)\n    tag_295:\n        /* \"#utility.yul\":8291:8305   */\n      pop\n        /* \"#utility.yul\":8587:8590   */\n      dup6\n        /* \"#utility.yul\":8580:8590   */\n      swap4\n      pop\n        /* \"#utility.yul\":7988:8596   */\n      pop\n      pop\n      pop\n        /* \"#utility.yul\":7864:8596   */\n      swap3\n      swap2\n      pop\n      pop\n      jump\t// out\n        /* \"#utility.yul\":8602:8975   */\n    tag_51:\n        /* \"#utility.yul\":8745:8749   */\n      0x00\n        /* \"#utility.yul\":8783:8785   */\n      0x20\n        /* \"#utility.yul\":8772:8781   */\n      dup3\n        /* \"#utility.yul\":8768:8786   */\n      add\n        /* \"#utility.yul\":8760:8786   */\n      swap1\n      pop\n        /* \"#utility.yul\":8832:8841   */\n      dup2\n        /* \"#utility.yul\":8826:8830   */\n      dup2\n        /* \"#utility.yul\":8822:8842   */\n      sub\n        /* \"#utility.yul\":8818:8819   */\n      0x00\n        /* \"#utility.yul\":8807:8816   */\n      dup4\n        /* \"#utility.yul\":8803:8820   */\n      add\n        /* \"#utility.yul\":8796:8843   */\n      mstore\n        /* \"#utility.yul\":8860:8968   */\n      tag_299\n        /* \"#utility.yul\":8963:8967   */\n      dup2\n        /* \"#utility.yul\":8954:8960   */\n      dup5\n        /* \"#utility.yul\":8860:8968   */\n      tag_191\n      jump\t// in\n    tag_299:\n        /* \"#utility.yul\":8852:8968   */\n      swap1\n      pop\n        /* \"#utility.yul\":8602:8975   */\n      swap3\n      swap2\n      pop\n      pop\n      jump\t// out\n        /* \"#utility.yul\":8981:10252   */\n    tag_59:\n        /* \"#utility.yul\":9096:9102   */\n      0x00\n        /* \"#utility.yul\":9104:9110   */\n      dup1\n        /* \"#utility.yul\":9112:9118   */\n      0x00\n        /* \"#utility.yul\":9120:9126   */\n      dup1\n        /* \"#utility.yul\":9128:9134   */\n      0x00\n        /* \"#utility.yul\":9177:9180   */\n      0xa0\n        /* \"#utility.yul\":9165:9174   */\n      dup7\n        /* \"#utility.yul\":9156:9163   */\n      dup9\n        /* \"#utility.yul\":9152:9175   */\n      sub\n        /* \"#utility.yul\":9148:9181   */\n      slt\n        /* \"#utility.yul\":9145:9265   */\n      iszero\n      tag_301\n      jumpi\n        /* \"#utility.yul\":9184:9263   */\n      tag_302\n      tag_162\n      jump\t// in\n    tag_302:\n        /* \"#utility.yul\":9145:9265   */\n    tag_301:\n        /* \"#utility.yul\":9304:9305   */\n      0x00\n        /* \"#utility.yul\":9329:9382   */\n      tag_303\n        /* \"#utility.yul\":9374:9381   */\n      dup9\n        /* \"#utility.yul\":9365:9371   */\n      dup3\n        /* \"#utility.yul\":9354:9363   */\n      dup10\n        /* \"#utility.yul\":9350:9372   */\n      add\n        /* \"#utility.yul\":9329:9382   */\n      tag_166\n      jump\t// in\n    tag_303:\n        /* \"#utility.yul\":9319:9382   */\n      swap6\n      pop\n        /* \"#utility.yul\":9275:9392   */\n      pop\n        /* \"#utility.yul\":9459:9461   */\n      0x20\n        /* \"#utility.yul\":9448:9457   */\n      dup7\n        /* \"#utility.yul\":9444:9462   */\n      add\n        /* \"#utility.yul\":9431:9463   */\n      calldataload\n        /* \"#utility.yul\":9490:9508   */\n      0xffffffffffffffff\n        /* \"#utility.yul\":9482:9488   */\n      dup2\n        /* \"#utility.yul\":9479:9509   */\n      gt\n        /* \"#utility.yul\":9476:9593   */\n      iszero\n      tag_304\n      jumpi\n        /* \"#utility.yul\":9512:9591   */\n      tag_305\n      tag_163\n      jump\t// in\n    tag_305:\n        /* \"#utility.yul\":9476:9593   */\n    tag_304:\n        /* \"#utility.yul\":9617:9680   */\n      tag_306\n        /* \"#utility.yul\":9672:9679   */\n      dup9\n        /* \"#utility.yul\":9663:9669   */\n      dup3\n        /* \"#utility.yul\":9652:9661   */\n      dup10\n        /* \"#utility.yul\":9648:9670   */\n      add\n        /* \"#utility.yul\":9617:9680   */\n      tag_182\n      jump\t// in\n    tag_306:\n        /* \"#utility.yul\":9607:9680   */\n      swap5\n      pop\n        /* \"#utility.yul\":9402:9690   */\n      pop\n        /* \"#utility.yul\":9757:9759   */\n      0x40\n        /* \"#utility.yul\":9746:9755   */\n      dup7\n        /* \"#utility.yul\":9742:9760   */\n      add\n        /* \"#utility.yul\":9729:9761   */\n      calldataload\n        /* \"#utility.yul\":9788:9806   */\n      0xffffffffffffffff\n        /* \"#utility.yul\":9780:9786   */\n      dup2\n        /* \"#utility.yul\":9777:9807   */\n      gt\n        /* \"#utility.yul\":9774:9891   */\n      iszero\n      tag_307\n      jumpi\n        /* \"#utility.yul\":9810:9889   */\n      tag_308\n      tag_163\n      jump\t// in\n    tag_308:\n        /* \"#utility.yul\":9774:9891   */\n    tag_307:\n        /* \"#utility.yul\":9915:9978   */\n      tag_309\n        /* \"#utility.yul\":9970:9977   */\n      dup9\n        /* \"#utility.yul\":9961:9967   */\n      dup3\n        /* \"#utility.yul\":9950:9959   */\n      dup10\n        /* \"#utility.yul\":9946:9968   */\n      add\n        /* \"#utility.yul\":9915:9978   */\n      tag_182\n      jump\t// in\n    tag_309:\n        /* \"#utility.yul\":9905:9978   */\n      swap4\n      pop\n        /* \"#utility.yul\":9700:9988   */\n      pop\n        /* \"#utility.yul\":10027:10029   */\n      0x60\n        /* \"#utility.yul\":10053:10106   */\n      tag_310\n        /* \"#utility.yul\":10098:10105   */\n      dup9\n        /* \"#utility.yul\":10089:10095   */\n      dup3\n        /* \"#utility.yul\":10078:10087   */\n      dup10\n        /* \"#utility.yul\":10074:10096   */\n      add\n        /* \"#utility.yul\":10053:10106   */\n      tag_166\n      jump\t// in\n    tag_310:\n        /* \"#utility.yul\":10043:10106   */\n      swap3\n      pop\n        /* \"#utility.yul\":9998:10116   */\n      pop\n        /* \"#utility.yul\":10155:10158   */\n      0x80\n        /* \"#utility.yul\":10182:10235   */\n      tag_311\n        /* \"#utility.yul\":10227:10234   */\n      dup9\n        /* \"#utility.yul\":10218:10224   */\n      dup3\n        /* \"#utility.yul\":10207:10216   */\n      dup10\n        /* \"#utility.yul\":10203:10225   */\n      add\n        /* \"#utility.yul\":10182:10235   */\n      tag_170\n      jump\t// in\n    tag_311:\n        /* \"#utility.yul\":10172:10235   */\n      swap2\n      pop\n        /* \"#utility.yul\":10126:10245   */\n      pop\n        /* \"#utility.yul\":8981:10252   */\n      swap3\n      swap6\n      pop\n      swap3\n      swap6\n      swap1\n      swap4\n      pop\n      jump\t// out\n        /* \"#utility.yul\":10258:10374   */\n    tag_192:\n        /* \"#utility.yul\":10328:10349   */\n      tag_313\n        /* \"#utility.yul\":10343:10348   */\n      dup2\n        /* \"#utility.yul\":10328:10349   */\n      tag_171\n      jump\t// in\n    tag_313:\n        /* \"#utility.yul\":10321:10326   */\n      dup2\n        /* \"#utility.yul\":10318:10350   */\n      eq\n        /* \"#utility.yul\":10308:10368   */\n      tag_314\n      jumpi\n        /* \"#utility.yul\":10364:10365   */\n      0x00\n        /* \"#utility.yul\":10361:10362   */\n      dup1\n        /* \"#utility.yul\":10354:10366   */\n      revert\n        /* \"#utility.yul\":10308:10368   */\n    tag_314:\n        /* \"#utility.yul\":10258:10374   */\n      pop\n      jump\t// out\n        /* \"#utility.yul\":10380:10517   */\n    tag_193:\n        /* \"#utility.yul\":10434:10439   */\n      0x00\n        /* \"#utility.yul\":10465:10471   */\n      dup2\n        /* \"#utility.yul\":10459:10472   */\n      mload\n        /* \"#utility.yul\":10450:10472   */\n      swap1\n      pop\n        /* \"#utility.yul\":10481:10511   */\n      tag_316\n        /* \"#utility.yul\":10505:10510   */\n      dup2\n        /* \"#utility.yul\":10481:10511   */\n      tag_192\n      jump\t// in\n    tag_316:\n        /* \"#utility.yul\":10380:10517   */\n      swap3\n      swap2\n      pop\n      pop\n      jump\t// out\n        /* \"#utility.yul\":10523:10868   */\n    tag_70:\n        /* \"#utility.yul\":10590:10596   */\n      0x00\n        /* \"#utility.yul\":10639:10641   */\n      0x20\n        /* \"#utility.yul\":10627:10636   */\n      dup3\n        /* \"#utility.yul\":10618:10625   */\n      dup5\n        /* \"#utility.yul\":10614:10637   */\n      sub\n        /* \"#utility.yul\":10610:10642   */\n      slt\n        /* \"#utility.yul\":10607:10726   */\n      iszero\n      tag_318\n      jumpi\n        /* \"#utility.yul\":10645:10724   */\n      tag_319\n      tag_162\n      jump\t// in\n    tag_319:\n        /* \"#utility.yul\":10607:10726   */\n    tag_318:\n        /* \"#utility.yul\":10765:10766   */\n      0x00\n        /* \"#utility.yul\":10790:10851   */\n      tag_320\n        /* \"#utility.yul\":10843:10850   */\n      dup5\n        /* \"#utility.yul\":10834:10840   */\n      dup3\n        /* \"#utility.yul\":10823:10832   */\n      dup6\n        /* \"#utility.yul\":10819:10841   */\n      add\n        /* \"#utility.yul\":10790:10851   */\n      tag_193\n      jump\t// in\n    tag_320:\n        /* \"#utility.yul\":10780:10851   */\n      swap2\n      pop\n        /* \"#utility.yul\":10736:10861   */\n      pop\n        /* \"#utility.yul\":10523:10868   */\n      swap3\n      swap2\n      pop\n      pop\n      jump\t// out\n        /* \"#utility.yul\":10874:11017   */\n    tag_194:\n        /* \"#utility.yul\":10931:10936   */\n      0x00\n        /* \"#utility.yul\":10962:10968   */\n      dup2\n        /* \"#utility.yul\":10956:10969   */\n      mload\n        /* \"#utility.yul\":10947:10969   */\n      swap1\n      pop\n        /* \"#utility.yul\":10978:11011   */\n      tag_322\n        /* \"#utility.yul\":11005:11010   */\n      dup2\n        /* \"#utility.yul\":10978:11011   */\n      tag_165\n      jump\t// in\n    tag_322:\n        /* \"#utility.yul\":10874:11017   */\n      swap3\n      swap2\n      pop\n      pop\n      jump\t// out\n        /* \"#utility.yul\":11023:11374   */\n    tag_77:\n        /* \"#utility.yul\":11093:11099   */\n      0x00\n        /* \"#utility.yul\":11142:11144   */\n      0x20\n        /* \"#utility.yul\":11130:11139   */\n      dup3\n        /* \"#utility.yul\":11121:11128   */\n      dup5\n        /* \"#utility.yul\":11117:11140   */\n      sub\n        /* \"#utility.yul\":11113:11145   */\n      slt\n        /* \"#utility.yul\":11110:11229   */\n      iszero\n      tag_324\n      jumpi\n        /* \"#utility.yul\":11148:11227   */\n      tag_325\n      tag_162\n      jump\t// in\n    tag_325:\n        /* \"#utility.yul\":11110:11229   */\n    tag_324:\n        /* \"#utility.yul\":11268:11269   */\n      0x00\n        /* \"#utility.yul\":11293:11357   */\n      tag_326\n        /* \"#utility.yul\":11349:11356   */\n      dup5\n        /* \"#utility.yul\":11340:11346   */\n      dup3\n        /* \"#utility.yul\":11329:11338   */\n      dup6\n        /* \"#utility.yul\":11325:11347   */\n      add\n        /* \"#utility.yul\":11293:11357   */\n      tag_194\n      jump\t// in\n    tag_326:\n        /* \"#utility.yul\":11283:11357   */\n      swap2\n      pop\n        /* \"#utility.yul\":11239:11367   */\n      pop\n        /* \"#utility.yul\":11023:11374   */\n      swap3\n      swap2\n      pop\n      pop\n      jump\t// out\n        /* \"#utility.yul\":11380:11933   */\n    tag_80:\n        /* \"#utility.yul\":11557:11561   */\n      0x00\n        /* \"#utility.yul\":11595:11598   */\n      0x80\n        /* \"#utility.yul\":11584:11593   */\n      dup3\n        /* \"#utility.yul\":11580:11599   */\n      add\n        /* \"#utility.yul\":11572:11599   */\n      swap1\n      pop\n        /* \"#utility.yul\":11609:11680   */\n      tag_328\n        /* \"#utility.yul\":11677:11678   */\n      0x00\n        /* \"#utility.yul\":11666:11675   */\n      dup4\n        /* \"#utility.yul\":11662:11679   */\n      add\n        /* \"#utility.yul\":11653:11659   */\n      dup8\n        /* \"#utility.yul\":11609:11680   */\n      tag_183\n      jump\t// in\n    tag_328:\n        /* \"#utility.yul\":11690:11762   */\n      tag_329\n        /* \"#utility.yul\":11758:11760   */\n      0x20\n        /* \"#utility.yul\":11747:11756   */\n      dup4\n        /* \"#utility.yul\":11743:11761   */\n      add\n        /* \"#utility.yul\":11734:11740   */\n      dup7\n        /* \"#utility.yul\":11690:11762   */\n      tag_184\n      jump\t// in\n    tag_329:\n        /* \"#utility.yul\":11772:11844   */\n      tag_330\n        /* \"#utility.yul\":11840:11842   */\n      0x40\n        /* \"#utility.yul\":11829:11838   */\n      dup4\n        /* \"#utility.yul\":11825:11843   */\n      add\n        /* \"#utility.yul\":11816:11822   */\n      dup6\n        /* \"#utility.yul\":11772:11844   */\n      tag_184\n      jump\t// in\n    tag_330:\n        /* \"#utility.yul\":11854:11926   */\n      tag_331\n        /* \"#utility.yul\":11922:11924   */\n      0x60\n        /* \"#utility.yul\":11911:11920   */\n      dup4\n        /* \"#utility.yul\":11907:11925   */\n      add\n        /* \"#utility.yul\":11898:11904   */\n      dup5\n        /* \"#utility.yul\":11854:11926   */\n      tag_184\n      jump\t// in\n    tag_331:\n        /* \"#utility.yul\":11380:11933   */\n      swap6\n      swap5\n      pop\n      pop\n      pop\n      pop\n      pop\n      jump\t// out\n        /* \"#utility.yul\":11939:12271   */\n    tag_85:\n        /* \"#utility.yul\":12060:12064   */\n      0x00\n        /* \"#utility.yul\":12098:12100   */\n      0x40\n        /* \"#utility.yul\":12087:12096   */\n      dup3\n        /* \"#utility.yul\":12083:12101   */\n      add\n        /* \"#utility.yul\":12075:12101   */\n      swap1\n      pop\n        /* \"#utility.yul\":12111:12182   */\n      tag_333\n        /* \"#utility.yul\":12179:12180   */\n      0x00\n        /* \"#utility.yul\":12168:12177   */\n      dup4\n        /* \"#utility.yul\":12164:12181   */\n      add\n        /* \"#utility.yul\":12155:12161   */\n      dup6\n        /* \"#utility.yul\":12111:12182   */\n      tag_183\n      jump\t// in\n    tag_333:\n        /* \"#utility.yul\":12192:12264   */\n      tag_334\n        /* \"#utility.yul\":12260:12262   */\n      0x20\n        /* \"#utility.yul\":12249:12258   */\n      dup4\n        /* \"#utility.yul\":12245:12263   */\n      add\n        /* \"#utility.yul\":12236:12242   */\n      dup5\n        /* \"#utility.yul\":12192:12264   */\n      tag_184\n      jump\t// in\n    tag_334:\n        /* \"#utility.yul\":11939:12271   */\n      swap4\n      swap3\n      pop\n      pop\n      pop\n      jump\t// out\n        /* \"#utility.yul\":12277:12376   */\n    tag_195:\n        /* \"#utility.yul\":12329:12335   */\n      0x00\n        /* \"#utility.yul\":12363:12368   */\n      dup2\n        /* \"#utility.yul\":12357:12369   */\n      mload\n        /* \"#utility.yul\":12347:12369   */\n      swap1\n      pop\n        /* \"#utility.yul\":12277:12376   */\n      swap2\n      swap1\n      pop\n      jump\t// out\n        /* \"#utility.yul\":12382:12551   */\n    tag_196:\n        /* \"#utility.yul\":12466:12477   */\n      0x00\n        /* \"#utility.yul\":12500:12506   */\n      dup3\n        /* \"#utility.yul\":12495:12498   */\n      dup3\n        /* \"#utility.yul\":12488:12507   */\n      mstore\n        /* \"#utility.yul\":12540:12544   */\n      0x20\n        /* \"#utility.yul\":12535:12538   */\n      dup3\n        /* \"#utility.yul\":12531:12545   */\n      add\n        /* \"#utility.yul\":12516:12545   */\n      swap1\n      pop\n        /* \"#utility.yul\":12382:12551   */\n      swap3\n      swap2\n      pop\n      pop\n      jump\t// out\n        /* \"#utility.yul\":12557:12864   */\n    tag_197:\n        /* \"#utility.yul\":12625:12626   */\n      0x00\n        /* \"#utility.yul\":12635:12748   */\n    tag_338:\n        /* \"#utility.yul\":12649:12655   */\n      dup4\n        /* \"#utility.yul\":12646:12647   */\n      dup2\n        /* \"#utility.yul\":12643:12656   */\n      lt\n        /* \"#utility.yul\":12635:12748   */\n      iszero\n      tag_340\n      jumpi\n        /* \"#utility.yul\":12734:12735   */\n      dup1\n        /* \"#utility.yul\":12729:12732   */\n      dup3\n        /* \"#utility.yul\":12725:12736   */\n      add\n        /* \"#utility.yul\":12719:12737   */\n      mload\n        /* \"#utility.yul\":12715:12716   */\n      dup2\n        /* \"#utility.yul\":12710:12713   */\n      dup5\n        /* \"#utility.yul\":12706:12717   */\n      add\n        /* \"#utility.yul\":12699:12738   */\n      mstore\n        /* \"#utility.yul\":12671:12673   */\n      0x20\n        /* \"#utility.yul\":12668:12669   */\n      dup2\n        /* \"#utility.yul\":12664:12674   */\n      add\n        /* \"#utility.yul\":12659:12674   */\n      swap1\n      pop\n        /* \"#utility.yul\":12635:12748   */\n      jump(tag_338)\n    tag_340:\n        /* \"#utility.yul\":12766:12772   */\n      dup4\n        /* \"#utility.yul\":12763:12764   */\n      dup2\n        /* \"#utility.yul\":12760:12773   */\n      gt\n        /* \"#utility.yul\":12757:12858   */\n      iszero\n      tag_341\n      jumpi\n        /* \"#utility.yul\":12846:12847   */\n      0x00\n        /* \"#utility.yul\":12837:12843   */\n      dup5\n        /* \"#utility.yul\":12832:12835   */\n      dup5\n        /* \"#utility.yul\":12828:12844   */\n      add\n        /* \"#utility.yul\":12821:12848   */\n      mstore\n        /* \"#utility.yul\":12757:12858   */\n    tag_341:\n        /* \"#utility.yul\":12606:12864   */\n      pop\n        /* \"#utility.yul\":12557:12864   */\n      pop\n      pop\n      pop\n      jump\t// out\n        /* \"#utility.yul\":12870:13234   */\n    tag_198:\n        /* \"#utility.yul\":12958:12961   */\n      0x00\n        /* \"#utility.yul\":12986:13025   */\n      tag_343\n        /* \"#utility.yul\":13019:13024   */\n      dup3\n        /* \"#utility.yul\":12986:13025   */\n      tag_195\n      jump\t// in\n    tag_343:\n        /* \"#utility.yul\":13041:13112   */\n      tag_344\n        /* \"#utility.yul\":13105:13111   */\n      dup2\n        /* \"#utility.yul\":13100:13103   */\n      dup6\n        /* \"#utility.yul\":13041:13112   */\n      tag_196\n      jump\t// in\n    tag_344:\n        /* \"#utility.yul\":13034:13112   */\n      swap4\n      pop\n        /* \"#utility.yul\":13121:13173   */\n      tag_345\n        /* \"#utility.yul\":13166:13172   */\n      dup2\n        /* \"#utility.yul\":13161:13164   */\n      dup6\n        /* \"#utility.yul\":13154:13158   */\n      0x20\n        /* \"#utility.yul\":13147:13152   */\n      dup7\n        /* \"#utility.yul\":13143:13159   */\n      add\n        /* \"#utility.yul\":13121:13173   */\n      tag_197\n      jump\t// in\n    tag_345:\n        /* \"#utility.yul\":13198:13227   */\n      tag_346\n        /* \"#utility.yul\":13220:13226   */\n      dup2\n        /* \"#utility.yul\":13198:13227   */\n      tag_175\n      jump\t// in\n    tag_346:\n        /* \"#utility.yul\":13193:13196   */\n      dup5\n        /* \"#utility.yul\":13189:13228   */\n      add\n        /* \"#utility.yul\":13182:13228   */\n      swap2\n      pop\n        /* \"#utility.yul\":12962:13234   */\n      pop\n        /* \"#utility.yul\":12870:13234   */\n      swap3\n      swap2\n      pop\n      pop\n      jump\t// out\n        /* \"#utility.yul\":13240:13975   */\n    tag_102:\n        /* \"#utility.yul\":13457:13461   */\n      0x00\n        /* \"#utility.yul\":13495:13498   */\n      0x80\n        /* \"#utility.yul\":13484:13493   */\n      dup3\n        /* \"#utility.yul\":13480:13499   */\n      add\n        /* \"#utility.yul\":13472:13499   */\n      swap1\n      pop\n        /* \"#utility.yul\":13545:13554   */\n      dup2\n        /* \"#utility.yul\":13539:13543   */\n      dup2\n        /* \"#utility.yul\":13535:13555   */\n      sub\n        /* \"#utility.yul\":13531:13532   */\n      0x00\n        /* \"#utility.yul\":13520:13529   */\n      dup4\n        /* \"#utility.yul\":13516:13533   */\n      add\n        /* \"#utility.yul\":13509:13556   */\n      mstore\n        /* \"#utility.yul\":13573:13651   */\n      tag_348\n        /* \"#utility.yul\":13646:13650   */\n      dup2\n        /* \"#utility.yul\":13637:13643   */\n      dup8\n        /* \"#utility.yul\":13573:13651   */\n      tag_198\n      jump\t// in\n    tag_348:\n        /* \"#utility.yul\":13565:13651   */\n      swap1\n      pop\n        /* \"#utility.yul\":13698:13707   */\n      dup2\n        /* \"#utility.yul\":13692:13696   */\n      dup2\n        /* \"#utility.yul\":13688:13708   */\n      sub\n        /* \"#utility.yul\":13683:13685   */\n      0x20\n        /* \"#utility.yul\":13672:13681   */\n      dup4\n        /* \"#utility.yul\":13668:13686   */\n      add\n        /* \"#utility.yul\":13661:13709   */\n      mstore\n        /* \"#utility.yul\":13726:13804   */\n      tag_349\n        /* \"#utility.yul\":13799:13803   */\n      dup2\n        /* \"#utility.yul\":13790:13796   */\n      dup7\n        /* \"#utility.yul\":13726:13804   */\n      tag_198\n      jump\t// in\n    tag_349:\n        /* \"#utility.yul\":13718:13804   */\n      swap1\n      pop\n        /* \"#utility.yul\":13814:13886   */\n      tag_350\n        /* \"#utility.yul\":13882:13884   */\n      0x40\n        /* \"#utility.yul\":13871:13880   */\n      dup4\n        /* \"#utility.yul\":13867:13885   */\n      add\n        /* \"#utility.yul\":13858:13864   */\n      dup6\n        /* \"#utility.yul\":13814:13886   */\n      tag_184\n      jump\t// in\n    tag_350:\n        /* \"#utility.yul\":13896:13968   */\n      tag_351\n        /* \"#utility.yul\":13964:13966   */\n      0x60\n        /* \"#utility.yul\":13953:13962   */\n      dup4\n        /* \"#utility.yul\":13949:13967   */\n      add\n        /* \"#utility.yul\":13940:13946   */\n      dup5\n        /* \"#utility.yul\":13896:13968   */\n      tag_183\n      jump\t// in\n    tag_351:\n        /* \"#utility.yul\":13240:13975   */\n      swap6\n      swap5\n      pop\n      pop\n      pop\n      pop\n      pop\n      jump\t// out\n        /* \"#utility.yul\":13981:14313   */\n    tag_123:\n        /* \"#utility.yul\":14102:14106   */\n      0x00\n        /* \"#utility.yul\":14140:14142   */\n      0x40\n        /* \"#utility.yul\":14129:14138   */\n      dup3\n        /* \"#utility.yul\":14125:14143   */\n      add\n        /* \"#utility.yul\":14117:14143   */\n      swap1\n      pop\n        /* \"#utility.yul\":14153:14224   */\n      tag_353\n        /* \"#utility.yul\":14221:14222   */\n      0x00\n        /* \"#utility.yul\":14210:14219   */\n      dup4\n        /* \"#utility.yul\":14206:14223   */\n      add\n        /* \"#utility.yul\":14197:14203   */\n      dup6\n        /* \"#utility.yul\":14153:14224   */\n      tag_184\n      jump\t// in\n    tag_353:\n        /* \"#utility.yul\":14234:14306   */\n      tag_354\n        /* \"#utility.yul\":14302:14304   */\n      0x20\n        /* \"#utility.yul\":14291:14300   */\n      dup4\n        /* \"#utility.yul\":14287:14305   */\n      add\n        /* \"#utility.yul\":14278:14284   */\n      dup5\n        /* \"#utility.yul\":14234:14306   */\n      tag_183\n      jump\t// in\n    tag_354:\n        /* \"#utility.yul\":13981:14313   */\n      swap4\n      swap3\n      pop\n      pop\n      pop\n      jump\t// out\n        /* \"#utility.yul\":14319:15165   */\n    tag_154:\n        /* \"#utility.yul\":14564:14568   */\n      0x00\n        /* \"#utility.yul\":14602:14605   */\n      0xa0\n        /* \"#utility.yul\":14591:14600   */\n      dup3\n        /* \"#utility.yul\":14587:14606   */\n      add\n        /* \"#utility.yul\":14579:14606   */\n      swap1\n      pop\n        /* \"#utility.yul\":14616:14687   */\n      tag_356\n        /* \"#utility.yul\":14684:14685   */\n      0x00\n        /* \"#utility.yul\":14673:14682   */\n      dup4\n        /* \"#utility.yul\":14669:14686   */\n      add\n        /* \"#utility.yul\":14660:14666   */\n      dup9\n        /* \"#utility.yul\":14616:14687   */\n      tag_184\n      jump\t// in\n    tag_356:\n        /* \"#utility.yul\":14734:14743   */\n      dup2\n        /* \"#utility.yul\":14728:14732   */\n      dup2\n        /* \"#utility.yul\":14724:14744   */\n      sub\n        /* \"#utility.yul\":14719:14721   */\n      0x20\n        /* \"#utility.yul\":14708:14717   */\n      dup4\n        /* \"#utility.yul\":14704:14722   */\n      add\n        /* \"#utility.yul\":14697:14745   */\n      mstore\n        /* \"#utility.yul\":14762:14840   */\n      tag_357\n        /* \"#utility.yul\":14835:14839   */\n      dup2\n        /* \"#utility.yul\":14826:14832   */\n      dup8\n        /* \"#utility.yul\":14762:14840   */\n      tag_198\n      jump\t// in\n    tag_357:\n        /* \"#utility.yul\":14754:14840   */\n      swap1\n      pop\n        /* \"#utility.yul\":14887:14896   */\n      dup2\n        /* \"#utility.yul\":14881:14885   */\n      dup2\n        /* \"#utility.yul\":14877:14897   */\n      sub\n        /* \"#utility.yul\":14872:14874   */\n      0x40\n        /* \"#utility.yul\":14861:14870   */\n      dup4\n        /* \"#utility.yul\":14857:14875   */\n      add\n        /* \"#utility.yul\":14850:14898   */\n      mstore\n        /* \"#utility.yul\":14915:14993   */\n      tag_358\n        /* \"#utility.yul\":14988:14992   */\n      dup2\n        /* \"#utility.yul\":14979:14985   */\n      dup7\n        /* \"#utility.yul\":14915:14993   */\n      tag_198\n      jump\t// in\n    tag_358:\n        /* \"#utility.yul\":14907:14993   */\n      swap1\n      pop\n        /* \"#utility.yul\":15003:15075   */\n      tag_359\n        /* \"#utility.yul\":15071:15073   */\n      0x60\n        /* \"#utility.yul\":15060:15069   */\n      dup4\n        /* \"#utility.yul\":15056:15074   */\n      add\n        /* \"#utility.yul\":15047:15053   */\n      dup6\n        /* \"#utility.yul\":15003:15075   */\n      tag_184\n      jump\t// in\n    tag_359:\n        /* \"#utility.yul\":15085:15158   */\n      tag_360\n        /* \"#utility.yul\":15153:15156   */\n      0x80\n        /* \"#utility.yul\":15142:15151   */\n      dup4\n        /* \"#utility.yul\":15138:15157   */\n      add\n        /* \"#utility.yul\":15129:15135   */\n      dup5\n        /* \"#utility.yul\":15085:15158   */\n      tag_183\n      jump\t// in\n    tag_360:\n        /* \"#utility.yul\":14319:15165   */\n      swap7\n      swap6\n      pop\n      pop\n      pop\n      pop\n      pop\n      pop\n      jump\t// out\n\n    auxdata: 0xa2646970667358221220c66e553d0b7908665ec00404fdd650f574d13cdb9f919afc0542c79a67a02f6f64736f6c634300080a0033\n}\n\nsub_1: assembly {\n        /* \"devs/BookManager.sol\":706:2772   */\n      mstore(0x40, 0x80)\n        /* \"devs/BookManager.sol\":1002:1113   */\n      callvalue\n      dup1\n      iszero\n      tag_1\n      jumpi\n      0x00\n      dup1\n      revert\n    tag_1:\n      pop\n      mload(0x40)\n      sub(codesize, bytecodeSize)\n      dup1\n      bytecodeSize\n      dup4\n      codecopy\n      dup2\n      dup2\n      add\n      0x40\n      mstore\n      dup2\n      add\n      swap1\n      tag_2\n      swap2\n      swap1\n      tag_3\n      jump\t// in\n    tag_2:\n        /* \"devs/BookManager.sol\":1055:1068   */\n      dup1\n        /* \"devs/BookManager.sol\":1047:1052   */\n      0x00\n      dup1\n        /* \"devs/BookManager.sol\":1047:1068   */\n      0x0100\n      exp\n      dup2\n      sload\n      dup2\n      0xffffffffffffffffffffffffffffffffffffffff\n      mul\n      not\n      and\n      swap1\n      dup4\n      0xffffffffffffffffffffffffffffffffffffffff\n      and\n      mul\n      or\n      swap1\n      sstore\n      pop\n        /* \"devs/BookManager.sol\":1096:1106   */\n      caller\n        /* \"devs/BookManager.sol\":1078:1093   */\n      0x01\n      0x00\n        /* \"devs/BookManager.sol\":1078:1106   */\n      0x0100\n      exp\n      dup2\n      sload\n      dup2\n      0xffffffffffffffffffffffffffffffffffffffff\n      mul\n      not\n      and\n      swap1\n      dup4\n      0xffffffffffffffffffffffffffffffffffffffff\n      and\n      mul\n      or\n      swap1\n      sstore\n      pop\n        /* \"devs/BookManager.sol\":1002:1113   */\n      pop\n        /* \"devs/BookManager.sol\":706:2772   */\n      jump(tag_6)\n        /* \"#utility.yul\":88:205   */\n    tag_8:\n        /* \"#utility.yul\":197:198   */\n      0x00\n        /* \"#utility.yul\":194:195   */\n      dup1\n        /* \"#utility.yul\":187:199   */\n      revert\n        /* \"#utility.yul\":334:460   */\n    tag_10:\n        /* \"#utility.yul\":371:378   */\n      0x00\n        /* \"#utility.yul\":411:453   */\n      0xffffffffffffffffffffffffffffffffffffffff\n        /* \"#utility.yul\":404:409   */\n      dup3\n        /* \"#utility.yul\":400:454   */\n      and\n        /* \"#utility.yul\":389:454   */\n      swap1\n      pop\n        /* \"#utility.yul\":334:460   */\n      swap2\n      swap1\n      pop\n      jump\t// out\n        /* \"#utility.yul\":466:562   */\n    tag_11:\n        /* \"#utility.yul\":503:510   */\n      0x00\n        /* \"#utility.yul\":532:556   */\n      tag_20\n        /* \"#utility.yul\":550:555   */\n      dup3\n        /* \"#utility.yul\":532:556   */\n      tag_10\n      jump\t// in\n    tag_20:\n        /* \"#utility.yul\":521:556   */\n      swap1\n      pop\n        /* \"#utility.yul\":466:562   */\n      swap2\n      swap1\n      pop\n      jump\t// out\n        /* \"#utility.yul\":568:690   */\n    tag_12:\n        /* \"#utility.yul\":641:665   */\n      tag_22\n        /* \"#utility.yul\":659:664   */\n      dup2\n        /* \"#utility.yul\":641:665   */\n      tag_11\n      jump\t// in\n    tag_22:\n        /* \"#utility.yul\":634:639   */\n      dup2\n        /* \"#utility.yul\":631:666   */\n      eq\n        /* \"#utility.yul\":621:684   */\n      tag_23\n      jumpi\n        /* \"#utility.yul\":680:681   */\n      0x00\n        /* \"#utility.yul\":677:678   */\n      dup1\n        /* \"#utility.yul\":670:682   */\n      revert\n        /* \"#utility.yul\":621:684   */\n    tag_23:\n        /* \"#utility.yul\":568:690   */\n      pop\n      jump\t// out\n        /* \"#utility.yul\":696:839   */\n    tag_13:\n        /* \"#utility.yul\":753:758   */\n      0x00\n        /* \"#utility.yul\":784:790   */\n      dup2\n        /* \"#utility.yul\":778:791   */\n      mload\n        /* \"#utility.yul\":769:791   */\n      swap1\n      pop\n        /* \"#utility.yul\":800:833   */\n      tag_25\n        /* \"#utility.yul\":827:832   */\n      dup2\n        /* \"#utility.yul\":800:833   */\n      tag_12\n      jump\t// in\n    tag_25:\n        /* \"#utility.yul\":696:839   */\n      swap3\n      swap2\n      pop\n      pop\n      jump\t// out\n        /* \"#utility.yul\":845:1196   */\n    tag_3:\n        /* \"#utility.yul\":915:921   */\n      0x00\n        /* \"#utility.yul\":964:966   */\n      0x20\n        /* \"#utility.yul\":952:961   */\n      dup3\n        /* \"#utility.yul\":943:950   */\n      dup5\n        /* \"#utility.yul\":939:962   */\n      sub\n        /* \"#utility.yul\":935:967   */\n      slt\n        /* \"#utility.yul\":932:1051   */\n      iszero\n      tag_27\n      jumpi\n        /* \"#utility.yul\":970:1049   */\n      tag_28\n      tag_8\n      jump\t// in\n    tag_28:\n        /* \"#utility.yul\":932:1051   */\n    tag_27:\n        /* \"#utility.yul\":1090:1091   */\n      0x00\n        /* \"#utility.yul\":1115:1179   */\n      tag_29\n        /* \"#utility.yul\":1171:1178   */\n      dup5\n        /* \"#utility.yul\":1162:1168   */\n      dup3\n        /* \"#utility.yul\":1151:1160   */\n      dup6\n        /* \"#utility.yul\":1147:1169   */\n      add\n        /* \"#utility.yul\":1115:1179   */\n      tag_13\n      jump\t// in\n    tag_29:\n        /* \"#utility.yul\":1105:1179   */\n      swap2\n      pop\n        /* \"#utility.yul\":1061:1189   */\n      pop\n        /* \"#utility.yul\":845:1196   */\n      swap3\n      swap2\n      pop\n      pop\n      jump\t// out\n        /* \"devs/BookManager.sol\":706:2772   */\n    tag_6:\n      dataSize(sub_0)\n      dup1\n      dataOffset(sub_0)\n      0x00\n      codecopy\n      0x00\n      return\n    stop\n\n    sub_0: assembly {\n            /* \"devs/BookManager.sol\":706:2772   */\n          mstore(0x40, 0x80)\n          callvalue\n          dup1\n          iszero\n          tag_1\n          jumpi\n          0x00\n          dup1\n          revert\n        tag_1:\n          pop\n          jumpi(tag_2, lt(calldatasize, 0x04))\n          shr(0xe0, calldataload(0x00))\n          dup1\n          0x98fbce79\n          gt\n          tag_11\n          jumpi\n          dup1\n          0x98fbce79\n          eq\n          tag_7\n          jumpi\n          dup1\n          0xd2c07e20\n          eq\n          tag_8\n          jumpi\n          dup1\n          0xd9ff0cf1\n          eq\n          tag_9\n          jumpi\n          dup1\n          0xf76ebe1c\n          eq\n          tag_10\n          jumpi\n          jump(tag_2)\n        tag_11:\n          dup1\n          0x0a6b2a25\n          eq\n          tag_3\n          jumpi\n          dup1\n          0x687564ae\n          eq\n          tag_4\n          jumpi\n          dup1\n          0x6c230eef\n          eq\n          tag_5\n          jumpi\n          dup1\n          0x8da5cb5b\n          eq\n          tag_6\n          jumpi\n        tag_2:\n          0x00\n          dup1\n          revert\n            /* \"devs/BookManager.sol\":2599:2770   */\n        tag_3:\n          tag_12\n          0x04\n          dup1\n          calldatasize\n          sub\n          dup2\n          add\n          swap1\n          tag_13\n          swap2\n          swap1\n          tag_14\n          jump\t// in\n        tag_13:\n          tag_15\n          jump\t// in\n        tag_12:\n          stop\n            /* \"devs/BookManager.sol\":1119:1483   */\n        tag_4:\n          tag_16\n          0x04\n          dup1\n          calldatasize\n          sub\n          dup2\n          add\n          swap1\n          tag_17\n          swap2\n          swap1\n          tag_18\n          jump\t// in\n        tag_17:\n          tag_19\n          jump\t// in\n        tag_16:\n          stop\n            /* \"devs/BookManager.sol\":1939:2129   */\n        tag_5:\n          tag_20\n          0x04\n          dup1\n          calldatasize\n          sub\n          dup2\n          add\n          swap1\n          tag_21\n          swap2\n          swap1\n          tag_14\n          jump\t// in\n        tag_21:\n          tag_22\n          jump\t// in\n        tag_20:\n          mload(0x40)\n          tag_23\n          swap2\n          swap1\n          tag_24\n          jump\t// in\n        tag_23:\n          mload(0x40)\n          dup1\n          swap2\n          sub\n          swap1\n          return\n            /* \"devs/BookManager.sol\":757:777   */\n        tag_6:\n          tag_25\n          tag_26\n          jump\t// in\n        tag_25:\n          mload(0x40)\n          tag_27\n          swap2\n          swap1\n          tag_28\n          jump\t// in\n        tag_27:\n          mload(0x40)\n          dup1\n          swap2\n          sub\n          swap1\n          return\n            /* \"devs/BookManager.sol\":2135:2593   */\n        tag_7:\n          tag_29\n          0x04\n          dup1\n          calldatasize\n          sub\n          dup2\n          add\n          swap1\n          tag_30\n          swap2\n          swap1\n          tag_14\n          jump\t// in\n        tag_30:\n          tag_31\n          jump\t// in\n        tag_29:\n          mload(0x40)\n          tag_32\n          swap6\n          swap5\n          swap4\n          swap3\n          swap2\n          swap1\n          tag_33\n          jump\t// in\n        tag_32:\n          mload(0x40)\n          dup1\n          swap2\n          sub\n          swap1\n          return\n            /* \"devs/BookManager.sol\":1489:1907   */\n        tag_8:\n          tag_34\n          0x04\n          dup1\n          calldatasize\n          sub\n          dup2\n          add\n          swap1\n          tag_35\n          swap2\n          swap1\n          tag_36\n          jump\t// in\n        tag_35:\n          tag_37\n          jump\t// in\n        tag_34:\n          stop\n            /* \"devs/BookManager.sol\":846:902   */\n        tag_9:\n          tag_38\n          0x04\n          dup1\n          calldatasize\n          sub\n          dup2\n          add\n          swap1\n          tag_39\n          swap2\n          swap1\n          tag_14\n          jump\t// in\n        tag_39:\n          tag_40\n          jump\t// in\n        tag_38:\n          mload(0x40)\n          tag_41\n          swap6\n          swap5\n          swap4\n          swap3\n          swap2\n          swap1\n          tag_33\n          jump\t// in\n        tag_41:\n          mload(0x40)\n          dup1\n          swap2\n          sub\n          swap1\n          return\n            /* \"devs/BookManager.sol\":821:840   */\n        tag_10:\n          tag_42\n          tag_43\n          jump\t// in\n        tag_42:\n          mload(0x40)\n          tag_44\n          swap2\n          swap1\n          tag_24\n          jump\t// in\n        tag_44:\n          mload(0x40)\n          dup1\n          swap2\n          sub\n          swap1\n          return\n            /* \"devs/BookManager.sol\":2599:2770   */\n        tag_15:\n            /* \"devs/BookManager.sol\":2657:2696   */\n          0x00\n            /* \"devs/BookManager.sol\":2699:2715   */\n          0x03\n            /* \"devs/BookManager.sol\":2699:2727   */\n          0x00\n            /* \"devs/BookManager.sol\":2716:2726   */\n          dup4\n            /* \"devs/BookManager.sol\":2699:2727   */\n          dup2\n          mstore\n          0x20\n          add\n          swap1\n          dup2\n          mstore\n          0x20\n          add\n          0x00\n          keccak256\n            /* \"devs/BookManager.sol\":2657:2727   */\n          swap1\n          pop\n            /* \"devs/BookManager.sol\":2737:2752   */\n          dup1\n            /* \"devs/BookManager.sol\":2737:2761   */\n          0x03\n          add\n          0x00\n            /* \"devs/BookManager.sol\":2737:2763   */\n          dup2\n          sload\n          dup1\n          swap3\n          swap2\n          swap1\n          tag_46\n          swap1\n          tag_47\n          jump\t// in\n        tag_46:\n          swap2\n          swap1\n          pop\n          sstore\n          pop\n            /* \"devs/BookManager.sol\":2647:2770   */\n          pop\n            /* \"devs/BookManager.sol\":2599:2770   */\n          pop\n          jump\t// out\n            /* \"devs/BookManager.sol\":1119:1483   */\n        tag_19:\n            /* \"devs/BookManager.sol\":967:977   */\n          caller\n            /* \"devs/BookManager.sol\":948:977   */\n          0xffffffffffffffffffffffffffffffffffffffff\n          and\n            /* \"devs/BookManager.sol\":948:963   */\n          0x01\n          0x00\n          swap1\n          sload\n          swap1\n          0x0100\n          exp\n          swap1\n          div\n          0xffffffffffffffffffffffffffffffffffffffff\n          and\n            /* \"devs/BookManager.sol\":948:977   */\n          0xffffffffffffffffffffffffffffffffffffffff\n          and\n          eq\n            /* \"devs/BookManager.sol\":940:978   */\n          tag_49\n          jumpi\n          0x00\n          dup1\n          revert\n        tag_49:\n            /* \"devs/BookManager.sol\":1257:1285   */\n          0x00\n            /* \"devs/BookManager.sol\":1288:1304   */\n          0x03\n            /* \"devs/BookManager.sol\":1288:1315   */\n          0x00\n            /* \"devs/BookManager.sol\":1305:1312   */\n          0x02\n          0x00\n            /* \"devs/BookManager.sol\":1305:1314   */\n          dup2\n          sload\n          dup1\n          swap3\n          swap2\n          swap1\n          tag_51\n          swap1\n          tag_47\n          jump\t// in\n        tag_51:\n          swap2\n          swap1\n          pop\n          sstore\n            /* \"devs/BookManager.sol\":1288:1315   */\n          dup2\n          mstore\n          0x20\n          add\n          swap1\n          dup2\n          mstore\n          0x20\n          add\n          0x00\n          keccak256\n            /* \"devs/BookManager.sol\":1257:1315   */\n          swap1\n          pop\n            /* \"devs/BookManager.sol\":1339:1346   */\n          dup5\n            /* \"devs/BookManager.sol\":1325:1329   */\n          dup2\n            /* \"devs/BookManager.sol\":1325:1336   */\n          0x00\n          add\n            /* \"devs/BookManager.sol\":1325:1346   */\n          swap1\n          dup1\n          mload\n          swap1\n          0x20\n          add\n          swap1\n          tag_52\n          swap3\n          swap2\n          swap1\n          tag_53\n          jump\t// in\n        tag_52:\n          pop\n            /* \"devs/BookManager.sol\":1369:1375   */\n          dup4\n            /* \"devs/BookManager.sol\":1356:1360   */\n          dup2\n            /* \"devs/BookManager.sol\":1356:1366   */\n          0x01\n          add\n            /* \"devs/BookManager.sol\":1356:1375   */\n          swap1\n          dup1\n          mload\n          swap1\n          0x20\n          add\n          swap1\n          tag_54\n          swap3\n          swap2\n          swap1\n          tag_53\n          jump\t// in\n        tag_54:\n          pop\n            /* \"devs/BookManager.sol\":1398:1404   */\n          dup3\n            /* \"devs/BookManager.sol\":1385:1389   */\n          dup2\n            /* \"devs/BookManager.sol\":1385:1395   */\n          0x02\n          add\n            /* \"devs/BookManager.sol\":1385:1404   */\n          dup2\n          swap1\n          sstore\n          pop\n            /* \"devs/BookManager.sol\":1430:1431   */\n          0x00\n            /* \"devs/BookManager.sol\":1414:1418   */\n          dup2\n            /* \"devs/BookManager.sol\":1414:1427   */\n          0x03\n          add\n            /* \"devs/BookManager.sol\":1414:1431   */\n          dup2\n          swap1\n          sstore\n          pop\n            /* \"devs/BookManager.sol\":1462:1476   */\n          dup2\n            /* \"devs/BookManager.sol\":1441:1445   */\n          dup2\n            /* \"devs/BookManager.sol\":1441:1459   */\n          0x04\n          add\n          0x00\n            /* \"devs/BookManager.sol\":1441:1476   */\n          0x0100\n          exp\n          dup2\n          sload\n          dup2\n          0xffffffffffffffffffffffffffffffffffffffff\n          mul\n          not\n          and\n          swap1\n          dup4\n          0xffffffffffffffffffffffffffffffffffffffff\n          and\n          mul\n          or\n          swap1\n          sstore\n          pop\n            /* \"devs/BookManager.sol\":1246:1483   */\n          pop\n            /* \"devs/BookManager.sol\":1119:1483   */\n          pop\n          pop\n          pop\n          pop\n          jump\t// out\n            /* \"devs/BookManager.sol\":1939:2129   */\n        tag_22:\n            /* \"devs/BookManager.sol\":2000:2004   */\n          0x00\n            /* \"devs/BookManager.sol\":2015:2053   */\n          dup1\n            /* \"devs/BookManager.sol\":2056:2072   */\n          0x03\n            /* \"devs/BookManager.sol\":2056:2084   */\n          0x00\n            /* \"devs/BookManager.sol\":2073:2083   */\n          dup5\n            /* \"devs/BookManager.sol\":2056:2084   */\n          dup2\n          mstore\n          0x20\n          add\n          swap1\n          dup2\n          mstore\n          0x20\n          add\n          0x00\n          keccak256\n            /* \"devs/BookManager.sol\":2015:2084   */\n          mload(0x40)\n          dup1\n          0xa0\n          add\n          0x40\n          mstore\n          swap1\n          dup2\n          0x00\n          dup3\n          add\n          dup1\n          sload\n          tag_56\n          swap1\n          tag_57\n          jump\t// in\n        tag_56:\n          dup1\n          0x1f\n          add\n          0x20\n          dup1\n          swap2\n          div\n          mul\n          0x20\n          add\n          mload(0x40)\n          swap1\n          dup2\n          add\n          0x40\n          mstore\n          dup1\n          swap3\n          swap2\n          swap1\n          dup2\n          dup2\n          mstore\n          0x20\n          add\n          dup3\n          dup1\n          sload\n          tag_58\n          swap1\n          tag_57\n          jump\t// in\n        tag_58:\n          dup1\n          iszero\n          tag_59\n          jumpi\n          dup1\n          0x1f\n          lt\n          tag_60\n          jumpi\n          0x0100\n          dup1\n          dup4\n          sload\n          div\n          mul\n          dup4\n          mstore\n          swap2\n          0x20\n          add\n          swap2\n          jump(tag_59)\n        tag_60:\n          dup3\n          add\n          swap2\n          swap1\n          0x00\n          mstore\n          keccak256(0x00, 0x20)\n          swap1\n        tag_61:\n          dup2\n          sload\n          dup2\n          mstore\n          swap1\n          0x01\n          add\n          swap1\n          0x20\n          add\n          dup1\n          dup4\n          gt\n          tag_61\n          jumpi\n          dup3\n          swap1\n          sub\n          0x1f\n          and\n          dup3\n          add\n          swap2\n        tag_59:\n          pop\n          pop\n          pop\n          pop\n          pop\n          dup2\n          mstore\n          0x20\n          add\n          0x01\n          dup3\n          add\n          dup1\n          sload\n          tag_62\n          swap1\n          tag_57\n          jump\t// in\n        tag_62:\n          dup1\n          0x1f\n          add\n          0x20\n          dup1\n          swap2\n          div\n          mul\n          0x20\n          add\n          mload(0x40)\n          swap1\n          dup2\n          add\n          0x40\n          mstore\n          dup1\n          swap3\n          swap2\n          swap1\n          dup2\n          dup2\n          mstore\n          0x20\n          add\n          dup3\n          dup1\n          sload\n          tag_63\n          swap1\n          tag_57\n          jump\t// in\n        tag_63:\n          dup1\n          iszero\n          tag_64\n          jumpi\n          dup1\n          0x1f\n          lt\n          tag_65\n          jumpi\n          0x0100\n          dup1\n          dup4\n          sload\n          div\n          mul\n          dup4\n          mstore\n          swap2\n          0x20\n          add\n          swap2\n          jump(tag_64)\n        tag_65:\n          dup3\n          add\n          swap2\n          swap1\n          0x00\n          mstore\n          keccak256(0x00, 0x20)\n          swap1\n        tag_66:\n          dup2\n          sload\n          dup2\n          mstore\n          swap1\n          0x01\n          add\n          swap1\n          0x20\n          add\n          dup1\n          dup4\n          gt\n          tag_66\n          jumpi\n          dup3\n          swap1\n          sub\n          0x1f\n          and\n          dup3\n          add\n          swap2\n        tag_64:\n          pop\n          pop\n          pop\n          pop\n          pop\n          dup2\n          mstore\n          0x20\n          add\n          0x02\n          dup3\n          add\n          sload\n          dup2\n          mstore\n          0x20\n          add\n          0x03\n          dup3\n          add\n          sload\n          dup2\n          mstore\n          0x20\n          add\n          0x04\n          dup3\n          add\n          0x00\n          swap1\n          sload\n          swap1\n          0x0100\n          exp\n          swap1\n          div\n          0xffffffffffffffffffffffffffffffffffffffff\n          and\n          0xffffffffffffffffffffffffffffffffffffffff\n          and\n          0xffffffffffffffffffffffffffffffffffffffff\n          and\n          dup2\n          mstore\n          pop\n          pop\n          swap1\n          pop\n            /* \"devs/BookManager.sol\":2101:2116   */\n          dup1\n            /* \"devs/BookManager.sol\":2101:2122   */\n          0x40\n          add\n          mload\n            /* \"devs/BookManager.sol\":2094:2122   */\n          swap2\n          pop\n          pop\n            /* \"devs/BookManager.sol\":1939:2129   */\n          swap2\n          swap1\n          pop\n          jump\t// out\n            /* \"devs/BookManager.sol\":757:777   */\n        tag_26:\n          0x00\n          dup1\n          sload\n          swap1\n          0x0100\n          exp\n          swap1\n          div\n          0xffffffffffffffffffffffffffffffffffffffff\n          and\n          dup2\n          jump\t// out\n            /* \"devs/BookManager.sol\":2135:2593   */\n        tag_31:\n            /* \"devs/BookManager.sol\":2211:2224   */\n          0x60\n            /* \"devs/BookManager.sol\":2226:2239   */\n          dup1\n            /* \"devs/BookManager.sol\":2241:2245   */\n          0x00\n            /* \"devs/BookManager.sol\":2247:2251   */\n          dup1\n            /* \"devs/BookManager.sol\":2253:2260   */\n          0x00\n            /* \"devs/BookManager.sol\":2275:2313   */\n          dup1\n            /* \"devs/BookManager.sol\":2316:2332   */\n          0x03\n            /* \"devs/BookManager.sol\":2316:2344   */\n          0x00\n            /* \"devs/BookManager.sol\":2333:2343   */\n          dup9\n            /* \"devs/BookManager.sol\":2316:2344   */\n          dup2\n          mstore\n          0x20\n          add\n          swap1\n          dup2\n          mstore\n          0x20\n          add\n          0x00\n          keccak256\n            /* \"devs/BookManager.sol\":2275:2344   */\n          mload(0x40)\n          dup1\n          0xa0\n          add\n          0x40\n          mstore\n          swap1\n          dup2\n          0x00\n          dup3\n          add\n          dup1\n          sload\n          tag_68\n          swap1\n          tag_57\n          jump\t// in\n        tag_68:\n          dup1\n          0x1f\n          add\n          0x20\n          dup1\n          swap2\n          div\n          mul\n          0x20\n          add\n          mload(0x40)\n          swap1\n          dup2\n          add\n          0x40\n          mstore\n          dup1\n          swap3\n          swap2\n          swap1\n          dup2\n          dup2\n          mstore\n          0x20\n          add\n          dup3\n          dup1\n          sload\n          tag_69\n          swap1\n          tag_57\n          jump\t// in\n        tag_69:\n          dup1\n          iszero\n          tag_70\n          jumpi\n          dup1\n          0x1f\n          lt\n          tag_71\n          jumpi\n          0x0100\n          dup1\n          dup4\n          sload\n          div\n          mul\n          dup4\n          mstore\n          swap2\n          0x20\n          add\n          swap2\n          jump(tag_70)\n        tag_71:\n          dup3\n          add\n          swap2\n          swap1\n          0x00\n          mstore\n          keccak256(0x00, 0x20)\n          swap1\n        tag_72:\n          dup2\n          sload\n          dup2\n          mstore\n          swap1\n          0x01\n          add\n          swap1\n          0x20\n          add\n          dup1\n          dup4\n          gt\n          tag_72\n          jumpi\n          dup3\n          swap1\n          sub\n          0x1f\n          and\n          dup3\n          add\n          swap2\n        tag_70:\n          pop\n          pop\n          pop\n          pop\n          pop\n          dup2\n          mstore\n          0x20\n          add\n          0x01\n          dup3\n          add\n          dup1\n          sload\n          tag_73\n          swap1\n          tag_57\n          jump\t// in\n        tag_73:\n          dup1\n          0x1f\n          add\n          0x20\n          dup1\n          swap2\n          div\n          mul\n          0x20\n          add\n          mload(0x40)\n          swap1\n          dup2\n          add\n          0x40\n          mstore\n          dup1\n          swap3\n          swap2\n          swap1\n          dup2\n          dup2\n          mstore\n          0x20\n          add\n          dup3\n          dup1\n          sload\n          tag_74\n          swap1\n          tag_57\n          jump\t// in\n        tag_74:\n          dup1\n          iszero\n          tag_75\n          jumpi\n          dup1\n          0x1f\n          lt\n          tag_76\n          jumpi\n          0x0100\n          dup1\n          dup4\n          sload\n          div\n          mul\n          dup4\n          mstore\n          swap2\n          0x20\n          add\n          swap2\n          jump(tag_75)\n        tag_76:\n          dup3\n          add\n          swap2\n          swap1\n          0x00\n          mstore\n          keccak256(0x00, 0x20)\n          swap1\n        tag_77:\n          dup2\n          sload\n          dup2\n          mstore\n          swap1\n          0x01\n          add\n          swap1\n          0x20\n          add\n          dup1\n          dup4\n          gt\n          tag_77\n          jumpi\n          dup3\n          swap1\n          sub\n          0x1f\n          and\n          dup3\n          add\n          swap2\n        tag_75:\n          pop\n          pop\n          pop\n          pop\n          pop\n          dup2\n          mstore\n          0x20\n          add\n          0x02\n          dup3\n          add\n          sload\n          dup2\n          mstore\n          0x20\n          add\n          0x03\n          dup3\n          add\n          sload\n          dup2\n          mstore\n          0x20\n          add\n          0x04\n          dup3\n          add\n          0x00\n          swap1\n          sload\n          swap1\n          0x0100\n          exp\n          swap1\n          div\n          0xffffffffffffffffffffffffffffffffffffffff\n          and\n          0xffffffffffffffffffffffffffffffffffffffff\n          and\n          0xffffffffffffffffffffffffffffffffffffffff\n          and\n          dup2\n          mstore\n          pop\n          pop\n          swap1\n          pop\n            /* \"devs/BookManager.sol\":2383:2398   */\n          dup1\n            /* \"devs/BookManager.sol\":2383:2405   */\n          0x00\n          add\n          mload\n            /* \"devs/BookManager.sol\":2423:2438   */\n          dup2\n            /* \"devs/BookManager.sol\":2423:2444   */\n          0x20\n          add\n          mload\n            /* \"devs/BookManager.sol\":2462:2477   */\n          dup3\n            /* \"devs/BookManager.sol\":2462:2483   */\n          0x40\n          add\n          mload\n            /* \"devs/BookManager.sol\":2501:2516   */\n          dup4\n            /* \"devs/BookManager.sol\":2501:2525   */\n          0x60\n          add\n          mload\n            /* \"devs/BookManager.sol\":2543:2558   */\n          dup5\n            /* \"devs/BookManager.sol\":2543:2572   */\n          0x80\n          add\n          mload\n            /* \"devs/BookManager.sol\":2358:2586   */\n          swap6\n          pop\n          swap6\n          pop\n          swap6\n          pop\n          swap6\n          pop\n          swap6\n          pop\n          pop\n            /* \"devs/BookManager.sol\":2135:2593   */\n          swap2\n          swap4\n          swap6\n          swap1\n          swap3\n          swap5\n          pop\n          jump\t// out\n            /* \"devs/BookManager.sol\":1489:1907   */\n        tag_37:\n            /* \"devs/BookManager.sol\":967:977   */\n          caller\n            /* \"devs/BookManager.sol\":948:977   */\n          0xffffffffffffffffffffffffffffffffffffffff\n          and\n            /* \"devs/BookManager.sol\":948:963   */\n          0x01\n          0x00\n          swap1\n          sload\n          swap1\n          0x0100\n          exp\n          swap1\n          div\n          0xffffffffffffffffffffffffffffffffffffffff\n          and\n            /* \"devs/BookManager.sol\":948:977   */\n          0xffffffffffffffffffffffffffffffffffffffff\n          and\n          eq\n            /* \"devs/BookManager.sol\":940:978   */\n          tag_79\n          jumpi\n          0x00\n          dup1\n          revert\n        tag_79:\n            /* \"devs/BookManager.sol\":1680:1708   */\n          0x00\n            /* \"devs/BookManager.sol\":1711:1727   */\n          0x03\n            /* \"devs/BookManager.sol\":1711:1739   */\n          0x00\n            /* \"devs/BookManager.sol\":1728:1738   */\n          dup8\n            /* \"devs/BookManager.sol\":1711:1739   */\n          dup2\n          mstore\n          0x20\n          add\n          swap1\n          dup2\n          mstore\n          0x20\n          add\n          0x00\n          keccak256\n            /* \"devs/BookManager.sol\":1680:1739   */\n          swap1\n          pop\n            /* \"devs/BookManager.sol\":1763:1770   */\n          dup5\n            /* \"devs/BookManager.sol\":1749:1753   */\n          dup2\n            /* \"devs/BookManager.sol\":1749:1760   */\n          0x00\n          add\n            /* \"devs/BookManager.sol\":1749:1770   */\n          swap1\n          dup1\n          mload\n          swap1\n          0x20\n          add\n          swap1\n          tag_81\n          swap3\n          swap2\n          swap1\n          tag_53\n          jump\t// in\n        tag_81:\n          pop\n            /* \"devs/BookManager.sol\":1793:1799   */\n          dup4\n            /* \"devs/BookManager.sol\":1780:1784   */\n          dup2\n            /* \"devs/BookManager.sol\":1780:1790   */\n          0x01\n          add\n            /* \"devs/BookManager.sol\":1780:1799   */\n          swap1\n          dup1\n          mload\n          swap1\n          0x20\n          add\n          swap1\n          tag_82\n          swap3\n          swap2\n          swap1\n          tag_53\n          jump\t// in\n        tag_82:\n          pop\n            /* \"devs/BookManager.sol\":1822:1828   */\n          dup3\n            /* \"devs/BookManager.sol\":1809:1813   */\n          dup2\n            /* \"devs/BookManager.sol\":1809:1819   */\n          0x02\n          add\n            /* \"devs/BookManager.sol\":1809:1828   */\n          dup2\n          swap1\n          sstore\n          pop\n            /* \"devs/BookManager.sol\":1854:1855   */\n          0x00\n            /* \"devs/BookManager.sol\":1838:1842   */\n          dup2\n            /* \"devs/BookManager.sol\":1838:1851   */\n          0x03\n          add\n            /* \"devs/BookManager.sol\":1838:1855   */\n          dup2\n          swap1\n          sstore\n          pop\n            /* \"devs/BookManager.sol\":1886:1900   */\n          dup2\n            /* \"devs/BookManager.sol\":1865:1869   */\n          dup2\n            /* \"devs/BookManager.sol\":1865:1883   */\n          0x04\n          add\n          0x00\n            /* \"devs/BookManager.sol\":1865:1900   */\n          0x0100\n          exp\n          dup2\n          sload\n          dup2\n          0xffffffffffffffffffffffffffffffffffffffff\n          mul\n          not\n          and\n          swap1\n          dup4\n          0xffffffffffffffffffffffffffffffffffffffff\n          and\n          mul\n          or\n          swap1\n          sstore\n          pop\n            /* \"devs/BookManager.sol\":1635:1907   */\n          pop\n            /* \"devs/BookManager.sol\":1489:1907   */\n          pop\n          pop\n          pop\n          pop\n          pop\n          jump\t// out\n            /* \"devs/BookManager.sol\":846:902   */\n        tag_40:\n          mstore(0x20, 0x03)\n          dup1\n          0x00\n          mstore\n          keccak256(0x00, 0x40)\n          0x00\n          swap2\n          pop\n          swap1\n          pop\n          dup1\n          0x00\n          add\n          dup1\n          sload\n          tag_83\n          swap1\n          tag_57\n          jump\t// in\n        tag_83:\n          dup1\n          0x1f\n          add\n          0x20\n          dup1\n          swap2\n          div\n          mul\n          0x20\n          add\n          mload(0x40)\n          swap1\n          dup2\n          add\n          0x40\n          mstore\n          dup1\n          swap3\n          swap2\n          swap1\n          dup2\n          dup2\n          mstore\n          0x20\n          add\n          dup3\n          dup1\n          sload\n          tag_84\n          swap1\n          tag_57\n          jump\t// in\n        tag_84:\n          dup1\n          iszero\n          tag_85\n          jumpi\n          dup1\n          0x1f\n          lt\n          tag_86\n          jumpi\n          0x0100\n          dup1\n          dup4\n          sload\n          div\n          mul\n          dup4\n          mstore\n          swap2\n          0x20\n          add\n          swap2\n          jump(tag_85)\n        tag_86:\n          dup3\n          add\n          swap2\n          swap1\n          0x00\n          mstore\n          keccak256(0x00, 0x20)\n          swap1\n        tag_87:\n          dup2\n          sload\n          dup2\n          mstore\n          swap1\n          0x01\n          add\n          swap1\n          0x20\n          add\n          dup1\n          dup4\n          gt\n          tag_87\n          jumpi\n          dup3\n          swap1\n          sub\n          0x1f\n          and\n          dup3\n          add\n          swap2\n        tag_85:\n          pop\n          pop\n          pop\n          pop\n          pop\n          swap1\n          dup1\n          0x01\n          add\n          dup1\n          sload\n          tag_88\n          swap1\n          tag_57\n          jump\t// in\n        tag_88:\n          dup1\n          0x1f\n          add\n          0x20\n          dup1\n          swap2\n          div\n          mul\n          0x20\n          add\n          mload(0x40)\n          swap1\n          dup2\n          add\n          0x40\n          mstore\n          dup1\n          swap3\n          swap2\n          swap1\n          dup2\n          dup2\n          mstore\n          0x20\n          add\n          dup3\n          dup1\n          sload\n          tag_89\n          swap1\n          tag_57\n          jump\t// in\n        tag_89:\n          dup1\n          iszero\n          tag_90\n          jumpi\n          dup1\n          0x1f\n          lt\n          tag_91\n          jumpi\n          0x0100\n          dup1\n          dup4\n          sload\n          div\n          mul\n          dup4\n          mstore\n          swap2\n          0x20\n          add\n          swap2\n          jump(tag_90)\n        tag_91:\n          dup3\n          add\n          swap2\n          swap1\n          0x00\n          mstore\n          keccak256(0x00, 0x20)\n          swap1\n        tag_92:\n          dup2\n          sload\n          dup2\n          mstore\n          swap1\n          0x01\n          add\n          swap1\n          0x20\n          add\n          dup1\n          dup4\n          gt\n          tag_92\n          jumpi\n          dup3\n          swap1\n          sub\n          0x1f\n          and\n          dup3\n          add\n          swap2\n        tag_90:\n          pop\n          pop\n          pop\n          pop\n          pop\n          swap1\n          dup1\n          0x02\n          add\n          sload\n          swap1\n          dup1\n          0x03\n          add\n          sload\n          swap1\n          dup1\n          0x04\n          add\n          0x00\n          swap1\n          sload\n          swap1\n          0x0100\n          exp\n          swap1\n          div\n          0xffffffffffffffffffffffffffffffffffffffff\n          and\n          swap1\n          pop\n          dup6\n          jump\t// out\n            /* \"devs/BookManager.sol\":821:840   */\n        tag_43:\n          sload(0x02)\n          dup2\n          jump\t// out\n        tag_53:\n          dup3\n          dup1\n          sload\n          tag_93\n          swap1\n          tag_57\n          jump\t// in\n        tag_93:\n          swap1\n          0x00\n          mstore\n          keccak256(0x00, 0x20)\n          swap1\n          0x1f\n          add\n          0x20\n          swap1\n          div\n          dup2\n          add\n          swap3\n          dup3\n          tag_95\n          jumpi\n          0x00\n          dup6\n          sstore\n          jump(tag_94)\n        tag_95:\n          dup3\n          0x1f\n          lt\n          tag_96\n          jumpi\n          dup1\n          mload\n          not(0xff)\n          and\n          dup4\n          dup1\n          add\n          or\n          dup6\n          sstore\n          jump(tag_94)\n        tag_96:\n          dup3\n          dup1\n          add\n          0x01\n          add\n          dup6\n          sstore\n          dup3\n          iszero\n          tag_94\n          jumpi\n          swap2\n          dup3\n          add\n        tag_97:\n          dup3\n          dup2\n          gt\n          iszero\n          tag_98\n          jumpi\n          dup3\n          mload\n          dup3\n          sstore\n          swap2\n          0x20\n          add\n          swap2\n          swap1\n          0x01\n          add\n          swap1\n          jump(tag_97)\n        tag_98:\n        tag_94:\n          pop\n          swap1\n          pop\n          tag_99\n          swap2\n          swap1\n          tag_100\n          jump\t// in\n        tag_99:\n          pop\n          swap1\n          jump\t// out\n        tag_100:\n        tag_101:\n          dup1\n          dup3\n          gt\n          iszero\n          tag_102\n          jumpi\n          0x00\n          dup2\n          0x00\n          swap1\n          sstore\n          pop\n          0x01\n          add\n          jump(tag_101)\n        tag_102:\n          pop\n          swap1\n          jump\t// out\n            /* \"#utility.yul\":7:82   */\n        tag_103:\n            /* \"#utility.yul\":40:46   */\n          0x00\n            /* \"#utility.yul\":73:75   */\n          0x40\n            /* \"#utility.yul\":67:76   */\n          mload\n            /* \"#utility.yul\":57:76   */\n          swap1\n          pop\n            /* \"#utility.yul\":7:82   */\n          swap1\n          jump\t// out\n            /* \"#utility.yul\":88:205   */\n        tag_104:\n            /* \"#utility.yul\":197:198   */\n          0x00\n            /* \"#utility.yul\":194:195   */\n          dup1\n            /* \"#utility.yul\":187:199   */\n          revert\n            /* \"#utility.yul\":211:328   */\n        tag_105:\n            /* \"#utility.yul\":320:321   */\n          0x00\n            /* \"#utility.yul\":317:318   */\n          dup1\n            /* \"#utility.yul\":310:322   */\n          revert\n            /* \"#utility.yul\":334:411   */\n        tag_106:\n            /* \"#utility.yul\":371:378   */\n          0x00\n            /* \"#utility.yul\":400:405   */\n          dup2\n            /* \"#utility.yul\":389:405   */\n          swap1\n          pop\n            /* \"#utility.yul\":334:411   */\n          swap2\n          swap1\n          pop\n          jump\t// out\n            /* \"#utility.yul\":417:539   */\n        tag_107:\n            /* \"#utility.yul\":490:514   */\n          tag_137\n            /* \"#utility.yul\":508:513   */\n          dup2\n            /* \"#utility.yul\":490:514   */\n          tag_106\n          jump\t// in\n        tag_137:\n            /* \"#utility.yul\":483:488   */\n          dup2\n            /* \"#utility.yul\":480:515   */\n          eq\n            /* \"#utility.yul\":470:533   */\n          tag_138\n          jumpi\n            /* \"#utility.yul\":529:530   */\n          0x00\n            /* \"#utility.yul\":526:527   */\n          dup1\n            /* \"#utility.yul\":519:531   */\n          revert\n            /* \"#utility.yul\":470:533   */\n        tag_138:\n            /* \"#utility.yul\":417:539   */\n          pop\n          jump\t// out\n            /* \"#utility.yul\":545:684   */\n        tag_108:\n            /* \"#utility.yul\":591:596   */\n          0x00\n            /* \"#utility.yul\":629:635   */\n          dup2\n            /* \"#utility.yul\":616:636   */\n          calldataload\n            /* \"#utility.yul\":607:636   */\n          swap1\n          pop\n            /* \"#utility.yul\":645:678   */\n          tag_140\n            /* \"#utility.yul\":672:677   */\n          dup2\n            /* \"#utility.yul\":645:678   */\n          tag_107\n          jump\t// in\n        tag_140:\n            /* \"#utility.yul\":545:684   */\n          swap3\n          swap2\n          pop\n          pop\n          jump\t// out\n            /* \"#utility.yul\":690:1019   */\n        tag_14:\n            /* \"#utility.yul\":749:755   */\n          0x00\n            /* \"#utility.yul\":798:800   */\n          0x20\n            /* \"#utility.yul\":786:795   */\n          dup3\n            /* \"#utility.yul\":777:784   */\n          dup5\n            /* \"#utility.yul\":773:796   */\n          sub\n            /* \"#utility.yul\":769:801   */\n          slt\n            /* \"#utility.yul\":766:885   */\n          iszero\n          tag_142\n          jumpi\n            /* \"#utility.yul\":804:883   */\n          tag_143\n          tag_104\n          jump\t// in\n        tag_143:\n            /* \"#utility.yul\":766:885   */\n        tag_142:\n            /* \"#utility.yul\":924:925   */\n          0x00\n            /* \"#utility.yul\":949:1002   */\n          tag_144\n            /* \"#utility.yul\":994:1001   */\n          dup5\n            /* \"#utility.yul\":985:991   */\n          dup3\n            /* \"#utility.yul\":974:983   */\n          dup6\n            /* \"#utility.yul\":970:992   */\n          add\n            /* \"#utility.yul\":949:1002   */\n          tag_108\n          jump\t// in\n        tag_144:\n            /* \"#utility.yul\":939:1002   */\n          swap2\n          pop\n            /* \"#utility.yul\":895:1012   */\n          pop\n            /* \"#utility.yul\":690:1019   */\n          swap3\n          swap2\n          pop\n          pop\n          jump\t// out\n            /* \"#utility.yul\":1025:1142   */\n        tag_109:\n            /* \"#utility.yul\":1134:1135   */\n          0x00\n            /* \"#utility.yul\":1131:1132   */\n          dup1\n            /* \"#utility.yul\":1124:1136   */\n          revert\n            /* \"#utility.yul\":1148:1265   */\n        tag_110:\n            /* \"#utility.yul\":1257:1258   */\n          0x00\n            /* \"#utility.yul\":1254:1255   */\n          dup1\n            /* \"#utility.yul\":1247:1259   */\n          revert\n            /* \"#utility.yul\":1271:1373   */\n        tag_111:\n            /* \"#utility.yul\":1312:1318   */\n          0x00\n            /* \"#utility.yul\":1363:1365   */\n          0x1f\n            /* \"#utility.yul\":1359:1366   */\n          not\n            /* \"#utility.yul\":1354:1356   */\n          0x1f\n            /* \"#utility.yul\":1347:1352   */\n          dup4\n            /* \"#utility.yul\":1343:1357   */\n          add\n            /* \"#utility.yul\":1339:1367   */\n          and\n            /* \"#utility.yul\":1329:1367   */\n          swap1\n          pop\n            /* \"#utility.yul\":1271:1373   */\n          swap2\n          swap1\n          pop\n          jump\t// out\n            /* \"#utility.yul\":1379:1559   */\n        tag_112:\n            /* \"#utility.yul\":1427:1504   */\n          0x4e487b7100000000000000000000000000000000000000000000000000000000\n            /* \"#utility.yul\":1424:1425   */\n          0x00\n            /* \"#utility.yul\":1417:1505   */\n          mstore\n            /* \"#utility.yul\":1524:1528   */\n          0x41\n            /* \"#utility.yul\":1521:1522   */\n          0x04\n            /* \"#utility.yul\":1514:1529   */\n          mstore\n            /* \"#utility.yul\":1548:1552   */\n          0x24\n            /* \"#utility.yul\":1545:1546   */\n          0x00\n            /* \"#utility.yul\":1538:1553   */\n          revert\n            /* \"#utility.yul\":1565:1846   */\n        tag_113:\n            /* \"#utility.yul\":1648:1675   */\n          tag_150\n            /* \"#utility.yul\":1670:1674   */\n          dup3\n            /* \"#utility.yul\":1648:1675   */\n          tag_111\n          jump\t// in\n        tag_150:\n            /* \"#utility.yul\":1640:1646   */\n          dup2\n            /* \"#utility.yul\":1636:1676   */\n          add\n            /* \"#utility.yul\":1778:1784   */\n          dup2\n            /* \"#utility.yul\":1766:1776   */\n          dup2\n            /* \"#utility.yul\":1763:1785   */\n          lt\n            /* \"#utility.yul\":1742:1760   */\n          0xffffffffffffffff\n            /* \"#utility.yul\":1730:1740   */\n          dup3\n            /* \"#utility.yul\":1727:1761   */\n          gt\n            /* \"#utility.yul\":1724:1786   */\n          or\n            /* \"#utility.yul\":1721:1809   */\n          iszero\n          tag_151\n          jumpi\n            /* \"#utility.yul\":1789:1807   */\n          tag_152\n          tag_112\n          jump\t// in\n        tag_152:\n            /* \"#utility.yul\":1721:1809   */\n        tag_151:\n            /* \"#utility.yul\":1829:1839   */\n          dup1\n            /* \"#utility.yul\":1825:1827   */\n          0x40\n            /* \"#utility.yul\":1818:1840   */\n          mstore\n            /* \"#utility.yul\":1608:1846   */\n          pop\n            /* \"#utility.yul\":1565:1846   */\n          pop\n          pop\n          jump\t// out\n            /* \"#utility.yul\":1852:1981   */\n        tag_114:\n            /* \"#utility.yul\":1886:1892   */\n          0x00\n            /* \"#utility.yul\":1913:1933   */\n          tag_154\n          tag_103\n          jump\t// in\n        tag_154:\n            /* \"#utility.yul\":1903:1933   */\n          swap1\n          pop\n            /* \"#utility.yul\":1942:1975   */\n          tag_155\n            /* \"#utility.yul\":1970:1974   */\n          dup3\n            /* \"#utility.yul\":1962:1968   */\n          dup3\n            /* \"#utility.yul\":1942:1975   */\n          tag_113\n          jump\t// in\n        tag_155:\n            /* \"#utility.yul\":1852:1981   */\n          swap2\n          swap1\n          pop\n          jump\t// out\n            /* \"#utility.yul\":1987:2295   */\n        tag_115:\n            /* \"#utility.yul\":2049:2053   */\n          0x00\n            /* \"#utility.yul\":2139:2157   */\n          0xffffffffffffffff\n            /* \"#utility.yul\":2131:2137   */\n          dup3\n            /* \"#utility.yul\":2128:2158   */\n          gt\n            /* \"#utility.yul\":2125:2181   */\n          iszero\n          tag_157\n          jumpi\n            /* \"#utility.yul\":2161:2179   */\n          tag_158\n          tag_112\n          jump\t// in\n        tag_158:\n            /* \"#utility.yul\":2125:2181   */\n        tag_157:\n            /* \"#utility.yul\":2199:2228   */\n          tag_159\n            /* \"#utility.yul\":2221:2227   */\n          dup3\n            /* \"#utility.yul\":2199:2228   */\n          tag_111\n          jump\t// in\n        tag_159:\n            /* \"#utility.yul\":2191:2228   */\n          swap1\n          pop\n            /* \"#utility.yul\":2283:2287   */\n          0x20\n            /* \"#utility.yul\":2277:2281   */\n          dup2\n            /* \"#utility.yul\":2273:2288   */\n          add\n            /* \"#utility.yul\":2265:2288   */\n          swap1\n          pop\n            /* \"#utility.yul\":1987:2295   */\n          swap2\n          swap1\n          pop\n          jump\t// out\n            /* \"#utility.yul\":2301:2455   */\n        tag_116:\n            /* \"#utility.yul\":2385:2391   */\n          dup3\n            /* \"#utility.yul\":2380:2383   */\n          dup2\n            /* \"#utility.yul\":2375:2378   */\n          dup4\n            /* \"#utility.yul\":2362:2392   */\n          calldatacopy\n            /* \"#utility.yul\":2447:2448   */\n          0x00\n            /* \"#utility.yul\":2438:2444   */\n          dup4\n            /* \"#utility.yul\":2433:2436   */\n          dup4\n            /* \"#utility.yul\":2429:2445   */\n          add\n            /* \"#utility.yul\":2422:2449   */\n          mstore\n            /* \"#utility.yul\":2301:2455   */\n          pop\n          pop\n          pop\n          jump\t// out\n            /* \"#utility.yul\":2461:2873   */\n        tag_117:\n            /* \"#utility.yul\":2539:2544   */\n          0x00\n            /* \"#utility.yul\":2564:2630   */\n          tag_162\n            /* \"#utility.yul\":2580:2629   */\n          tag_163\n            /* \"#utility.yul\":2622:2628   */\n          dup5\n            /* \"#utility.yul\":2580:2629   */\n          tag_115\n          jump\t// in\n        tag_163:\n            /* \"#utility.yul\":2564:2630   */\n          tag_114\n          jump\t// in\n        tag_162:\n            /* \"#utility.yul\":2555:2630   */\n          swap1\n          pop\n            /* \"#utility.yul\":2653:2659   */\n          dup3\n            /* \"#utility.yul\":2646:2651   */\n          dup2\n            /* \"#utility.yul\":2639:2660   */\n          mstore\n            /* \"#utility.yul\":2691:2695   */\n          0x20\n            /* \"#utility.yul\":2684:2689   */\n          dup2\n            /* \"#utility.yul\":2680:2696   */\n          add\n            /* \"#utility.yul\":2729:2732   */\n          dup5\n            /* \"#utility.yul\":2720:2726   */\n          dup5\n            /* \"#utility.yul\":2715:2718   */\n          dup5\n            /* \"#utility.yul\":2711:2727   */\n          add\n            /* \"#utility.yul\":2708:2733   */\n          gt\n            /* \"#utility.yul\":2705:2817   */\n          iszero\n          tag_164\n          jumpi\n            /* \"#utility.yul\":2736:2815   */\n          tag_165\n          tag_110\n          jump\t// in\n        tag_165:\n            /* \"#utility.yul\":2705:2817   */\n        tag_164:\n            /* \"#utility.yul\":2826:2867   */\n          tag_166\n            /* \"#utility.yul\":2860:2866   */\n          dup5\n            /* \"#utility.yul\":2855:2858   */\n          dup3\n            /* \"#utility.yul\":2850:2853   */\n          dup6\n            /* \"#utility.yul\":2826:2867   */\n          tag_116\n          jump\t// in\n        tag_166:\n            /* \"#utility.yul\":2545:2873   */\n          pop\n            /* \"#utility.yul\":2461:2873   */\n          swap4\n          swap3\n          pop\n          pop\n          pop\n          jump\t// out\n            /* \"#utility.yul\":2893:3233   */\n        tag_118:\n            /* \"#utility.yul\":2949:2954   */\n          0x00\n            /* \"#utility.yul\":2998:3001   */\n          dup3\n            /* \"#utility.yul\":2991:2995   */\n          0x1f\n            /* \"#utility.yul\":2983:2989   */\n          dup4\n            /* \"#utility.yul\":2979:2996   */\n          add\n            /* \"#utility.yul\":2975:3002   */\n          slt\n            /* \"#utility.yul\":2965:3087   */\n          tag_168\n          jumpi\n            /* \"#utility.yul\":3006:3085   */\n          tag_169\n          tag_109\n          jump\t// in\n        tag_169:\n            /* \"#utility.yul\":2965:3087   */\n        tag_168:\n            /* \"#utility.yul\":3123:3129   */\n          dup2\n            /* \"#utility.yul\":3110:3130   */\n          calldataload\n            /* \"#utility.yul\":3148:3227   */\n          tag_170\n            /* \"#utility.yul\":3223:3226   */\n          dup5\n            /* \"#utility.yul\":3215:3221   */\n          dup3\n            /* \"#utility.yul\":3208:3212   */\n          0x20\n            /* \"#utility.yul\":3200:3206   */\n          dup7\n            /* \"#utility.yul\":3196:3213   */\n          add\n            /* \"#utility.yul\":3148:3227   */\n          tag_117\n          jump\t// in\n        tag_170:\n            /* \"#utility.yul\":3139:3227   */\n          swap2\n          pop\n            /* \"#utility.yul\":2955:3233   */\n          pop\n            /* \"#utility.yul\":2893:3233   */\n          swap3\n          swap2\n          pop\n          pop\n          jump\t// out\n            /* \"#utility.yul\":3239:3365   */\n        tag_119:\n            /* \"#utility.yul\":3276:3283   */\n          0x00\n            /* \"#utility.yul\":3316:3358   */\n          0xffffffffffffffffffffffffffffffffffffffff\n            /* \"#utility.yul\":3309:3314   */\n          dup3\n            /* \"#utility.yul\":3305:3359   */\n          and\n            /* \"#utility.yul\":3294:3359   */\n          swap1\n          pop\n            /* \"#utility.yul\":3239:3365   */\n          swap2\n          swap1\n          pop\n          jump\t// out\n            /* \"#utility.yul\":3371:3467   */\n        tag_120:\n            /* \"#utility.yul\":3408:3415   */\n          0x00\n            /* \"#utility.yul\":3437:3461   */\n          tag_173\n            /* \"#utility.yul\":3455:3460   */\n          dup3\n            /* \"#utility.yul\":3437:3461   */\n          tag_119\n          jump\t// in\n        tag_173:\n            /* \"#utility.yul\":3426:3461   */\n          swap1\n          pop\n            /* \"#utility.yul\":3371:3467   */\n          swap2\n          swap1\n          pop\n          jump\t// out\n            /* \"#utility.yul\":3473:3595   */\n        tag_121:\n            /* \"#utility.yul\":3546:3570   */\n          tag_175\n            /* \"#utility.yul\":3564:3569   */\n          dup2\n            /* \"#utility.yul\":3546:3570   */\n          tag_120\n          jump\t// in\n        tag_175:\n            /* \"#utility.yul\":3539:3544   */\n          dup2\n            /* \"#utility.yul\":3536:3571   */\n          eq\n            /* \"#utility.yul\":3526:3589   */\n          tag_176\n          jumpi\n            /* \"#utility.yul\":3585:3586   */\n          0x00\n            /* \"#utility.yul\":3582:3583   */\n          dup1\n            /* \"#utility.yul\":3575:3587   */\n          revert\n            /* \"#utility.yul\":3526:3589   */\n        tag_176:\n            /* \"#utility.yul\":3473:3595   */\n          pop\n          jump\t// out\n            /* \"#utility.yul\":3601:3740   */\n        tag_122:\n            /* \"#utility.yul\":3647:3652   */\n          0x00\n            /* \"#utility.yul\":3685:3691   */\n          dup2\n            /* \"#utility.yul\":3672:3692   */\n          calldataload\n            /* \"#utility.yul\":3663:3692   */\n          swap1\n          pop\n            /* \"#utility.yul\":3701:3734   */\n          tag_178\n            /* \"#utility.yul\":3728:3733   */\n          dup2\n            /* \"#utility.yul\":3701:3734   */\n          tag_121\n          jump\t// in\n        tag_178:\n            /* \"#utility.yul\":3601:3740   */\n          swap3\n          swap2\n          pop\n          pop\n          jump\t// out\n            /* \"#utility.yul\":3746:4871   */\n        tag_18:\n            /* \"#utility.yul\":3852:3858   */\n          0x00\n            /* \"#utility.yul\":3860:3866   */\n          dup1\n            /* \"#utility.yul\":3868:3874   */\n          0x00\n            /* \"#utility.yul\":3876:3882   */\n          dup1\n            /* \"#utility.yul\":3925:3928   */\n          0x80\n            /* \"#utility.yul\":3913:3922   */\n          dup6\n            /* \"#utility.yul\":3904:3911   */\n          dup8\n            /* \"#utility.yul\":3900:3923   */\n          sub\n            /* \"#utility.yul\":3896:3929   */\n          slt\n            /* \"#utility.yul\":3893:4013   */\n          iszero\n          tag_180\n          jumpi\n            /* \"#utility.yul\":3932:4011   */\n          tag_181\n          tag_104\n          jump\t// in\n        tag_181:\n            /* \"#utility.yul\":3893:4013   */\n        tag_180:\n            /* \"#utility.yul\":4080:4081   */\n          0x00\n            /* \"#utility.yul\":4069:4078   */\n          dup6\n            /* \"#utility.yul\":4065:4082   */\n          add\n            /* \"#utility.yul\":4052:4083   */\n          calldataload\n            /* \"#utility.yul\":4110:4128   */\n          0xffffffffffffffff\n            /* \"#utility.yul\":4102:4108   */\n          dup2\n            /* \"#utility.yul\":4099:4129   */\n          gt\n            /* \"#utility.yul\":4096:4213   */\n          iszero\n          tag_182\n          jumpi\n            /* \"#utility.yul\":4132:4211   */\n          tag_183\n          tag_105\n          jump\t// in\n        tag_183:\n            /* \"#utility.yul\":4096:4213   */\n        tag_182:\n            /* \"#utility.yul\":4237:4300   */\n          tag_184\n            /* \"#utility.yul\":4292:4299   */\n          dup8\n            /* \"#utility.yul\":4283:4289   */\n          dup3\n            /* \"#utility.yul\":4272:4281   */\n          dup9\n            /* \"#utility.yul\":4268:4290   */\n          add\n            /* \"#utility.yul\":4237:4300   */\n          tag_118\n          jump\t// in\n        tag_184:\n            /* \"#utility.yul\":4227:4300   */\n          swap5\n          pop\n            /* \"#utility.yul\":4023:4310   */\n          pop\n            /* \"#utility.yul\":4377:4379   */\n          0x20\n            /* \"#utility.yul\":4366:4375   */\n          dup6\n            /* \"#utility.yul\":4362:4380   */\n          add\n            /* \"#utility.yul\":4349:4381   */\n          calldataload\n            /* \"#utility.yul\":4408:4426   */\n          0xffffffffffffffff\n            /* \"#utility.yul\":4400:4406   */\n          dup2\n            /* \"#utility.yul\":4397:4427   */\n          gt\n            /* \"#utility.yul\":4394:4511   */\n          iszero\n          tag_185\n          jumpi\n            /* \"#utility.yul\":4430:4509   */\n          tag_186\n          tag_105\n          jump\t// in\n        tag_186:\n            /* \"#utility.yul\":4394:4511   */\n        tag_185:\n            /* \"#utility.yul\":4535:4598   */\n          tag_187\n            /* \"#utility.yul\":4590:4597   */\n          dup8\n            /* \"#utility.yul\":4581:4587   */\n          dup3\n            /* \"#utility.yul\":4570:4579   */\n          dup9\n            /* \"#utility.yul\":4566:4588   */\n          add\n            /* \"#utility.yul\":4535:4598   */\n          tag_118\n          jump\t// in\n        tag_187:\n            /* \"#utility.yul\":4525:4598   */\n          swap4\n          pop\n            /* \"#utility.yul\":4320:4608   */\n          pop\n            /* \"#utility.yul\":4647:4649   */\n          0x40\n            /* \"#utility.yul\":4673:4726   */\n          tag_188\n            /* \"#utility.yul\":4718:4725   */\n          dup8\n            /* \"#utility.yul\":4709:4715   */\n          dup3\n            /* \"#utility.yul\":4698:4707   */\n          dup9\n            /* \"#utility.yul\":4694:4716   */\n          add\n            /* \"#utility.yul\":4673:4726   */\n          tag_108\n          jump\t// in\n        tag_188:\n            /* \"#utility.yul\":4663:4726   */\n          swap3\n          pop\n            /* \"#utility.yul\":4618:4736   */\n          pop\n            /* \"#utility.yul\":4775:4777   */\n          0x60\n            /* \"#utility.yul\":4801:4854   */\n          tag_189\n            /* \"#utility.yul\":4846:4853   */\n          dup8\n            /* \"#utility.yul\":4837:4843   */\n          dup3\n            /* \"#utility.yul\":4826:4835   */\n          dup9\n            /* \"#utility.yul\":4822:4844   */\n          add\n            /* \"#utility.yul\":4801:4854   */\n          tag_122\n          jump\t// in\n        tag_189:\n            /* \"#utility.yul\":4791:4854   */\n          swap2\n          pop\n            /* \"#utility.yul\":4746:4864   */\n          pop\n            /* \"#utility.yul\":3746:4871   */\n          swap3\n          swap6\n          swap2\n          swap5\n          pop\n          swap3\n          pop\n          jump\t// out\n            /* \"#utility.yul\":4877:4995   */\n        tag_123:\n            /* \"#utility.yul\":4964:4988   */\n          tag_191\n            /* \"#utility.yul\":4982:4987   */\n          dup2\n            /* \"#utility.yul\":4964:4988   */\n          tag_106\n          jump\t// in\n        tag_191:\n            /* \"#utility.yul\":4959:4962   */\n          dup3\n            /* \"#utility.yul\":4952:4989   */\n          mstore\n            /* \"#utility.yul\":4877:4995   */\n          pop\n          pop\n          jump\t// out\n            /* \"#utility.yul\":5001:5223   */\n        tag_24:\n            /* \"#utility.yul\":5094:5098   */\n          0x00\n            /* \"#utility.yul\":5132:5134   */\n          0x20\n            /* \"#utility.yul\":5121:5130   */\n          dup3\n            /* \"#utility.yul\":5117:5135   */\n          add\n            /* \"#utility.yul\":5109:5135   */\n          swap1\n          pop\n            /* \"#utility.yul\":5145:5216   */\n          tag_193\n            /* \"#utility.yul\":5213:5214   */\n          0x00\n            /* \"#utility.yul\":5202:5211   */\n          dup4\n            /* \"#utility.yul\":5198:5215   */\n          add\n            /* \"#utility.yul\":5189:5195   */\n          dup5\n            /* \"#utility.yul\":5145:5216   */\n          tag_123\n          jump\t// in\n        tag_193:\n            /* \"#utility.yul\":5001:5223   */\n          swap3\n          swap2\n          pop\n          pop\n          jump\t// out\n            /* \"#utility.yul\":5229:5347   */\n        tag_124:\n            /* \"#utility.yul\":5316:5340   */\n          tag_195\n            /* \"#utility.yul\":5334:5339   */\n          dup2\n            /* \"#utility.yul\":5316:5340   */\n          tag_120\n          jump\t// in\n        tag_195:\n            /* \"#utility.yul\":5311:5314   */\n          dup3\n            /* \"#utility.yul\":5304:5341   */\n          mstore\n            /* \"#utility.yul\":5229:5347   */\n          pop\n          pop\n          jump\t// out\n            /* \"#utility.yul\":5353:5575   */\n        tag_28:\n            /* \"#utility.yul\":5446:5450   */\n          0x00\n            /* \"#utility.yul\":5484:5486   */\n          0x20\n            /* \"#utility.yul\":5473:5482   */\n          dup3\n            /* \"#utility.yul\":5469:5487   */\n          add\n            /* \"#utility.yul\":5461:5487   */\n          swap1\n          pop\n            /* \"#utility.yul\":5497:5568   */\n          tag_197\n            /* \"#utility.yul\":5565:5566   */\n          0x00\n            /* \"#utility.yul\":5554:5563   */\n          dup4\n            /* \"#utility.yul\":5550:5567   */\n          add\n            /* \"#utility.yul\":5541:5547   */\n          dup5\n            /* \"#utility.yul\":5497:5568   */\n          tag_124\n          jump\t// in\n        tag_197:\n            /* \"#utility.yul\":5353:5575   */\n          swap3\n          swap2\n          pop\n          pop\n          jump\t// out\n            /* \"#utility.yul\":5581:5680   */\n        tag_125:\n            /* \"#utility.yul\":5633:5639   */\n          0x00\n            /* \"#utility.yul\":5667:5672   */\n          dup2\n            /* \"#utility.yul\":5661:5673   */\n          mload\n            /* \"#utility.yul\":5651:5673   */\n          swap1\n          pop\n            /* \"#utility.yul\":5581:5680   */\n          swap2\n          swap1\n          pop\n          jump\t// out\n            /* \"#utility.yul\":5686:5855   */\n        tag_126:\n            /* \"#utility.yul\":5770:5781   */\n          0x00\n            /* \"#utility.yul\":5804:5810   */\n          dup3\n            /* \"#utility.yul\":5799:5802   */\n          dup3\n            /* \"#utility.yul\":5792:5811   */\n          mstore\n            /* \"#utility.yul\":5844:5848   */\n          0x20\n            /* \"#utility.yul\":5839:5842   */\n          dup3\n            /* \"#utility.yul\":5835:5849   */\n          add\n            /* \"#utility.yul\":5820:5849   */\n          swap1\n          pop\n            /* \"#utility.yul\":5686:5855   */\n          swap3\n          swap2\n          pop\n          pop\n          jump\t// out\n            /* \"#utility.yul\":5861:6168   */\n        tag_127:\n            /* \"#utility.yul\":5929:5930   */\n          0x00\n            /* \"#utility.yul\":5939:6052   */\n        tag_201:\n            /* \"#utility.yul\":5953:5959   */\n          dup4\n            /* \"#utility.yul\":5950:5951   */\n          dup2\n            /* \"#utility.yul\":5947:5960   */\n          lt\n            /* \"#utility.yul\":5939:6052   */\n          iszero\n          tag_203\n          jumpi\n            /* \"#utility.yul\":6038:6039   */\n          dup1\n            /* \"#utility.yul\":6033:6036   */\n          dup3\n            /* \"#utility.yul\":6029:6040   */\n          add\n            /* \"#utility.yul\":6023:6041   */\n          mload\n            /* \"#utility.yul\":6019:6020   */\n          dup2\n            /* \"#utility.yul\":6014:6017   */\n          dup5\n            /* \"#utility.yul\":6010:6021   */\n          add\n            /* \"#utility.yul\":6003:6042   */\n          mstore\n            /* \"#utility.yul\":5975:5977   */\n          0x20\n            /* \"#utility.yul\":5972:5973   */\n          dup2\n            /* \"#utility.yul\":5968:5978   */\n          add\n            /* \"#utility.yul\":5963:5978   */\n          swap1\n          pop\n            /* \"#utility.yul\":5939:6052   */\n          jump(tag_201)\n        tag_203:\n            /* \"#utility.yul\":6070:6076   */\n          dup4\n            /* \"#utility.yul\":6067:6068   */\n          dup2\n            /* \"#utility.yul\":6064:6077   */\n          gt\n            /* \"#utility.yul\":6061:6162   */\n          iszero\n          tag_204\n          jumpi\n            /* \"#utility.yul\":6150:6151   */\n          0x00\n            /* \"#utility.yul\":6141:6147   */\n          dup5\n            /* \"#utility.yul\":6136:6139   */\n          dup5\n            /* \"#utility.yul\":6132:6148   */\n          add\n            /* \"#utility.yul\":6125:6152   */\n          mstore\n            /* \"#utility.yul\":6061:6162   */\n        tag_204:\n            /* \"#utility.yul\":5910:6168   */\n          pop\n            /* \"#utility.yul\":5861:6168   */\n          pop\n          pop\n          pop\n          jump\t// out\n            /* \"#utility.yul\":6174:6538   */\n        tag_128:\n            /* \"#utility.yul\":6262:6265   */\n          0x00\n            /* \"#utility.yul\":6290:6329   */\n          tag_206\n            /* \"#utility.yul\":6323:6328   */\n          dup3\n            /* \"#utility.yul\":6290:6329   */\n          tag_125\n          jump\t// in\n        tag_206:\n            /* \"#utility.yul\":6345:6416   */\n          tag_207\n            /* \"#utility.yul\":6409:6415   */\n          dup2\n            /* \"#utility.yul\":6404:6407   */\n          dup6\n            /* \"#utility.yul\":6345:6416   */\n          tag_126\n          jump\t// in\n        tag_207:\n            /* \"#utility.yul\":6338:6416   */\n          swap4\n          pop\n            /* \"#utility.yul\":6425:6477   */\n          tag_208\n            /* \"#utility.yul\":6470:6476   */\n          dup2\n            /* \"#utility.yul\":6465:6468   */\n          dup6\n            /* \"#utility.yul\":6458:6462   */\n          0x20\n            /* \"#utility.yul\":6451:6456   */\n          dup7\n            /* \"#utility.yul\":6447:6463   */\n          add\n            /* \"#utility.yul\":6425:6477   */\n          tag_127\n          jump\t// in\n        tag_208:\n            /* \"#utility.yul\":6502:6531   */\n          tag_209\n            /* \"#utility.yul\":6524:6530   */\n          dup2\n            /* \"#utility.yul\":6502:6531   */\n          tag_111\n          jump\t// in\n        tag_209:\n            /* \"#utility.yul\":6497:6500   */\n          dup5\n            /* \"#utility.yul\":6493:6532   */\n          add\n            /* \"#utility.yul\":6486:6532   */\n          swap2\n          pop\n            /* \"#utility.yul\":6266:6538   */\n          pop\n            /* \"#utility.yul\":6174:6538   */\n          swap3\n          swap2\n          pop\n          pop\n          jump\t// out\n            /* \"#utility.yul\":6544:7390   */\n        tag_33:\n            /* \"#utility.yul\":6789:6793   */\n          0x00\n            /* \"#utility.yul\":6827:6830   */\n          0xa0\n            /* \"#utility.yul\":6816:6825   */\n          dup3\n            /* \"#utility.yul\":6812:6831   */\n          add\n            /* \"#utility.yul\":6804:6831   */\n          swap1\n          pop\n            /* \"#utility.yul\":6877:6886   */\n          dup2\n            /* \"#utility.yul\":6871:6875   */\n          dup2\n            /* \"#utility.yul\":6867:6887   */\n          sub\n            /* \"#utility.yul\":6863:6864   */\n          0x00\n            /* \"#utility.yul\":6852:6861   */\n          dup4\n            /* \"#utility.yul\":6848:6865   */\n          add\n            /* \"#utility.yul\":6841:6888   */\n          mstore\n            /* \"#utility.yul\":6905:6983   */\n          tag_211\n            /* \"#utility.yul\":6978:6982   */\n          dup2\n            /* \"#utility.yul\":6969:6975   */\n          dup9\n            /* \"#utility.yul\":6905:6983   */\n          tag_128\n          jump\t// in\n        tag_211:\n            /* \"#utility.yul\":6897:6983   */\n          swap1\n          pop\n            /* \"#utility.yul\":7030:7039   */\n          dup2\n            /* \"#utility.yul\":7024:7028   */\n          dup2\n            /* \"#utility.yul\":7020:7040   */\n          sub\n            /* \"#utility.yul\":7015:7017   */\n          0x20\n            /* \"#utility.yul\":7004:7013   */\n          dup4\n            /* \"#utility.yul\":7000:7018   */\n          add\n            /* \"#utility.yul\":6993:7041   */\n          mstore\n            /* \"#utility.yul\":7058:7136   */\n          tag_212\n            /* \"#utility.yul\":7131:7135   */\n          dup2\n            /* \"#utility.yul\":7122:7128   */\n          dup8\n            /* \"#utility.yul\":7058:7136   */\n          tag_128\n          jump\t// in\n        tag_212:\n            /* \"#utility.yul\":7050:7136   */\n          swap1\n          pop\n            /* \"#utility.yul\":7146:7218   */\n          tag_213\n            /* \"#utility.yul\":7214:7216   */\n          0x40\n            /* \"#utility.yul\":7203:7212   */\n          dup4\n            /* \"#utility.yul\":7199:7217   */\n          add\n            /* \"#utility.yul\":7190:7196   */\n          dup7\n            /* \"#utility.yul\":7146:7218   */\n          tag_123\n          jump\t// in\n        tag_213:\n            /* \"#utility.yul\":7228:7300   */\n          tag_214\n            /* \"#utility.yul\":7296:7298   */\n          0x60\n            /* \"#utility.yul\":7285:7294   */\n          dup4\n            /* \"#utility.yul\":7281:7299   */\n          add\n            /* \"#utility.yul\":7272:7278   */\n          dup6\n            /* \"#utility.yul\":7228:7300   */\n          tag_123\n          jump\t// in\n        tag_214:\n            /* \"#utility.yul\":7310:7383   */\n          tag_215\n            /* \"#utility.yul\":7378:7381   */\n          0x80\n            /* \"#utility.yul\":7367:7376   */\n          dup4\n            /* \"#utility.yul\":7363:7382   */\n          add\n            /* \"#utility.yul\":7354:7360   */\n          dup5\n            /* \"#utility.yul\":7310:7383   */\n          tag_124\n          jump\t// in\n        tag_215:\n            /* \"#utility.yul\":6544:7390   */\n          swap7\n          swap6\n          pop\n          pop\n          pop\n          pop\n          pop\n          pop\n          jump\t// out\n            /* \"#utility.yul\":7396:8667   */\n        tag_36:\n            /* \"#utility.yul\":7511:7517   */\n          0x00\n            /* \"#utility.yul\":7519:7525   */\n          dup1\n            /* \"#utility.yul\":7527:7533   */\n          0x00\n            /* \"#utility.yul\":7535:7541   */\n          dup1\n            /* \"#utility.yul\":7543:7549   */\n          0x00\n            /* \"#utility.yul\":7592:7595   */\n          0xa0\n            /* \"#utility.yul\":7580:7589   */\n          dup7\n            /* \"#utility.yul\":7571:7578   */\n          dup9\n            /* \"#utility.yul\":7567:7590   */\n          sub\n            /* \"#utility.yul\":7563:7596   */\n          slt\n            /* \"#utility.yul\":7560:7680   */\n          iszero\n          tag_217\n          jumpi\n            /* \"#utility.yul\":7599:7678   */\n          tag_218\n          tag_104\n          jump\t// in\n        tag_218:\n            /* \"#utility.yul\":7560:7680   */\n        tag_217:\n            /* \"#utility.yul\":7719:7720   */\n          0x00\n            /* \"#utility.yul\":7744:7797   */\n          tag_219\n            /* \"#utility.yul\":7789:7796   */\n          dup9\n            /* \"#utility.yul\":7780:7786   */\n          dup3\n            /* \"#utility.yul\":7769:7778   */\n          dup10\n            /* \"#utility.yul\":7765:7787   */\n          add\n            /* \"#utility.yul\":7744:7797   */\n          tag_108\n          jump\t// in\n        tag_219:\n            /* \"#utility.yul\":7734:7797   */\n          swap6\n          pop\n            /* \"#utility.yul\":7690:7807   */\n          pop\n            /* \"#utility.yul\":7874:7876   */\n          0x20\n            /* \"#utility.yul\":7863:7872   */\n          dup7\n            /* \"#utility.yul\":7859:7877   */\n          add\n            /* \"#utility.yul\":7846:7878   */\n          calldataload\n            /* \"#utility.yul\":7905:7923   */\n          0xffffffffffffffff\n            /* \"#utility.yul\":7897:7903   */\n          dup2\n            /* \"#utility.yul\":7894:7924   */\n          gt\n            /* \"#utility.yul\":7891:8008   */\n          iszero\n          tag_220\n          jumpi\n            /* \"#utility.yul\":7927:8006   */\n          tag_221\n          tag_105\n          jump\t// in\n        tag_221:\n            /* \"#utility.yul\":7891:8008   */\n        tag_220:\n            /* \"#utility.yul\":8032:8095   */\n          tag_222\n            /* \"#utility.yul\":8087:8094   */\n          dup9\n            /* \"#utility.yul\":8078:8084   */\n          dup3\n            /* \"#utility.yul\":8067:8076   */\n          dup10\n            /* \"#utility.yul\":8063:8085   */\n          add\n            /* \"#utility.yul\":8032:8095   */\n          tag_118\n          jump\t// in\n        tag_222:\n            /* \"#utility.yul\":8022:8095   */\n          swap5\n          pop\n            /* \"#utility.yul\":7817:8105   */\n          pop\n            /* \"#utility.yul\":8172:8174   */\n          0x40\n            /* \"#utility.yul\":8161:8170   */\n          dup7\n            /* \"#utility.yul\":8157:8175   */\n          add\n            /* \"#utility.yul\":8144:8176   */\n          calldataload\n            /* \"#utility.yul\":8203:8221   */\n          0xffffffffffffffff\n            /* \"#utility.yul\":8195:8201   */\n          dup2\n            /* \"#utility.yul\":8192:8222   */\n          gt\n            /* \"#utility.yul\":8189:8306   */\n          iszero\n          tag_223\n          jumpi\n            /* \"#utility.yul\":8225:8304   */\n          tag_224\n          tag_105\n          jump\t// in\n        tag_224:\n            /* \"#utility.yul\":8189:8306   */\n        tag_223:\n            /* \"#utility.yul\":8330:8393   */\n          tag_225\n            /* \"#utility.yul\":8385:8392   */\n          dup9\n            /* \"#utility.yul\":8376:8382   */\n          dup3\n            /* \"#utility.yul\":8365:8374   */\n          dup10\n            /* \"#utility.yul\":8361:8383   */\n          add\n            /* \"#utility.yul\":8330:8393   */\n          tag_118\n          jump\t// in\n        tag_225:\n            /* \"#utility.yul\":8320:8393   */\n          swap4\n          pop\n            /* \"#utility.yul\":8115:8403   */\n          pop\n            /* \"#utility.yul\":8442:8444   */\n          0x60\n            /* \"#utility.yul\":8468:8521   */\n          tag_226\n            /* \"#utility.yul\":8513:8520   */\n          dup9\n            /* \"#utility.yul\":8504:8510   */\n          dup3\n            /* \"#utility.yul\":8493:8502   */\n          dup10\n            /* \"#utility.yul\":8489:8511   */\n          add\n            /* \"#utility.yul\":8468:8521   */\n          tag_108\n          jump\t// in\n        tag_226:\n            /* \"#utility.yul\":8458:8521   */\n          swap3\n          pop\n            /* \"#utility.yul\":8413:8531   */\n          pop\n            /* \"#utility.yul\":8570:8573   */\n          0x80\n            /* \"#utility.yul\":8597:8650   */\n          tag_227\n            /* \"#utility.yul\":8642:8649   */\n          dup9\n            /* \"#utility.yul\":8633:8639   */\n          dup3\n            /* \"#utility.yul\":8622:8631   */\n          dup10\n            /* \"#utility.yul\":8618:8640   */\n          add\n            /* \"#utility.yul\":8597:8650   */\n          tag_122\n          jump\t// in\n        tag_227:\n            /* \"#utility.yul\":8587:8650   */\n          swap2\n          pop\n            /* \"#utility.yul\":8541:8660   */\n          pop\n            /* \"#utility.yul\":7396:8667   */\n          swap3\n          swap6\n          pop\n          swap3\n          swap6\n          swap1\n          swap4\n          pop\n          jump\t// out\n            /* \"#utility.yul\":8673:8853   */\n        tag_129:\n            /* \"#utility.yul\":8721:8798   */\n          0x4e487b7100000000000000000000000000000000000000000000000000000000\n            /* \"#utility.yul\":8718:8719   */\n          0x00\n            /* \"#utility.yul\":8711:8799   */\n          mstore\n            /* \"#utility.yul\":8818:8822   */\n          0x11\n            /* \"#utility.yul\":8815:8816   */\n          0x04\n            /* \"#utility.yul\":8808:8823   */\n          mstore\n            /* \"#utility.yul\":8842:8846   */\n          0x24\n            /* \"#utility.yul\":8839:8840   */\n          0x00\n            /* \"#utility.yul\":8832:8847   */\n          revert\n            /* \"#utility.yul\":8859:9092   */\n        tag_47:\n            /* \"#utility.yul\":8898:8901   */\n          0x00\n            /* \"#utility.yul\":8921:8945   */\n          tag_230\n            /* \"#utility.yul\":8939:8944   */\n          dup3\n            /* \"#utility.yul\":8921:8945   */\n          tag_106\n          jump\t// in\n        tag_230:\n            /* \"#utility.yul\":8912:8945   */\n          swap2\n          pop\n            /* \"#utility.yul\":8967:9033   */\n          0xffffffffffffffffffffffffffffffffffffffffffffffffffffffffffffffff\n            /* \"#utility.yul\":8960:8965   */\n          dup3\n            /* \"#utility.yul\":8957:9034   */\n          eq\n            /* \"#utility.yul\":8954:9057   */\n          iszero\n          tag_231\n          jumpi\n            /* \"#utility.yul\":9037:9055   */\n          tag_232\n          tag_129\n          jump\t// in\n        tag_232:\n            /* \"#utility.yul\":8954:9057   */\n        tag_231:\n            /* \"#utility.yul\":9084:9085   */\n          0x01\n            /* \"#utility.yul\":9077:9082   */\n          dup3\n            /* \"#utility.yul\":9073:9086   */\n          add\n            /* \"#utility.yul\":9066:9086   */\n          swap1\n          pop\n            /* \"#utility.yul\":8859:9092   */\n          swap2\n          swap1\n          pop\n          jump\t// out\n            /* \"#utility.yul\":9098:9278   */\n        tag_130:\n            /* \"#utility.yul\":9146:9223   */\n          0x4e487b7100000000000000000000000000000000000000000000000000000000\n            /* \"#utility.yul\":9143:9144   */\n          0x00\n            /* \"#utility.yul\":9136:9224   */\n          mstore\n            /* \"#utility.yul\":9243:9247   */\n          0x22\n            /* \"#utility.yul\":9240:9241   */\n          0x04\n            /* \"#utility.yul\":9233:9248   */\n          mstore\n            /* \"#utility.yul\":9267:9271   */\n          0x24\n            /* \"#utility.yul\":9264:9265   */\n          0x00\n            /* \"#utility.yul\":9257:9272   */\n          revert\n            /* \"#utility.yul\":9284:9604   */\n        tag_57:\n            /* \"#utility.yul\":9328:9334   */\n          0x00\n            /* \"#utility.yul\":9365:9366   */\n          0x02\n            /* \"#utility.yul\":9359:9363   */\n          dup3\n            /* \"#utility.yul\":9355:9367   */\n          div\n            /* \"#utility.yul\":9345:9367   */\n          swap1\n          pop\n            /* \"#utility.yul\":9412:9413   */\n          0x01\n            /* \"#utility.yul\":9406:9410   */\n          dup3\n            /* \"#utility.yul\":9402:9414   */\n          and\n            /* \"#utility.yul\":9433:9451   */\n          dup1\n            /* \"#utility.yul\":9423:9504   */\n          tag_235\n          jumpi\n            /* \"#utility.yul\":9489:9493   */\n          0x7f\n            /* \"#utility.yul\":9481:9487   */\n          dup3\n            /* \"#utility.yul\":9477:9494   */\n          and\n            /* \"#utility.yul\":9467:9494   */\n          swap2\n          pop\n            /* \"#utility.yul\":9423:9504   */\n        tag_235:\n            /* \"#utility.yul\":9551:9553   */\n          0x20\n            /* \"#utility.yul\":9543:9549   */\n          dup3\n            /* \"#utility.yul\":9540:9554   */\n          lt\n            /* \"#utility.yul\":9520:9538   */\n          dup2\n            /* \"#utility.yul\":9517:9555   */\n          eq\n            /* \"#utility.yul\":9514:9598   */\n          iszero\n          tag_236\n          jumpi\n            /* \"#utility.yul\":9570:9588   */\n          tag_237\n          tag_130\n          jump\t// in\n        tag_237:\n            /* \"#utility.yul\":9514:9598   */\n        tag_236:\n            /* \"#utility.yul\":9335:9604   */\n          pop\n            /* \"#utility.yul\":9284:9604   */\n          swap2\n          swap1\n          pop\n          jump\t// out\n\n        auxdata: 0xa264697066735822122088bf4425c6ec98b6476bdbe90c6516b5c4388c5036cccd3aae4526080b9c1a5e64736f6c634300080a0033\n    }\n}\n\nsub_2: assembly {\n        /* \"devs/UserManager.sol\":867:3089   */\n      mstore(0x40, 0x80)\n        /* \"devs/UserManager.sol\":1257:1368   */\n      callvalue\n      dup1\n      iszero\n      tag_1\n      jumpi\n      0x00\n      dup1\n      revert\n    tag_1:\n      pop\n      mload(0x40)\n      sub(codesize, bytecodeSize)\n      dup1\n      bytecodeSize\n      dup4\n      codecopy\n      dup2\n      dup2\n      add\n      0x40\n      mstore\n      dup2\n      add\n      swap1\n      tag_2\n      swap2\n      swap1\n      tag_3\n      jump\t// in\n    tag_2:\n        /* \"devs/UserManager.sol\":1310:1323   */\n      dup1\n        /* \"devs/UserManager.sol\":1302:1307   */\n      0x00\n      dup1\n        /* \"devs/UserManager.sol\":1302:1323   */\n      0x0100\n      exp\n      dup2\n      sload\n      dup2\n      0xffffffffffffffffffffffffffffffffffffffff\n      mul\n      not\n      and\n      swap1\n      dup4\n      0xffffffffffffffffffffffffffffffffffffffff\n      and\n      mul\n      or\n      swap1\n      sstore\n      pop\n        /* \"devs/UserManager.sol\":1351:1361   */\n      caller\n        /* \"devs/UserManager.sol\":1333:1348   */\n      0x01\n      0x00\n        /* \"devs/UserManager.sol\":1333:1361   */\n      0x0100\n      exp\n      dup2\n      sload\n      dup2\n      0xffffffffffffffffffffffffffffffffffffffff\n      mul\n      not\n      and\n      swap1\n      dup4\n      0xffffffffffffffffffffffffffffffffffffffff\n      and\n      mul\n      or\n      swap1\n      sstore\n      pop\n        /* \"devs/UserManager.sol\":1257:1368   */\n      pop\n        /* \"devs/UserManager.sol\":867:3089   */\n      jump(tag_6)\n        /* \"#utility.yul\":88:205   */\n    tag_8:\n        /* \"#utility.yul\":197:198   */\n      0x00\n        /* \"#utility.yul\":194:195   */\n      dup1\n        /* \"#utility.yul\":187:199   */\n      revert\n        /* \"#utility.yul\":334:460   */\n    tag_10:\n        /* \"#utility.yul\":371:378   */\n      0x00\n        /* \"#utility.yul\":411:453   */\n      0xffffffffffffffffffffffffffffffffffffffff\n        /* \"#utility.yul\":404:409   */\n      dup3\n        /* \"#utility.yul\":400:454   */\n      and\n        /* \"#utility.yul\":389:454   */\n      swap1\n      pop\n        /* \"#utility.yul\":334:460   */\n      swap2\n      swap1\n      pop\n      jump\t// out\n        /* \"#utility.yul\":466:562   */\n    tag_11:\n        /* \"#utility.yul\":503:510   */\n      0x00\n        /* \"#utility.yul\":532:556   */\n      tag_20\n        /* \"#utility.yul\":550:555   */\n      dup3\n        /* \"#utility.yul\":532:556   */\n      tag_10\n      jump\t// in\n    tag_20:\n        /* \"#utility.yul\":521:556   */\n      swap1\n      pop\n        /* \"#utility.yul\":466:562   */\n      swap2\n      swap1\n      pop\n      jump\t// out\n        /* \"#utility.yul\":568:690   */\n    tag_12:\n        /* \"#utility.yul\":641:665   */\n      tag_22\n        /* \"#utility.yul\":659:664   */\n      dup2\n        /* \"#utility.yul\":641:665   */\n      tag_11\n      jump\t// in\n    tag_22:\n        /* \"#utility.yul\":634:639   */\n      dup2\n        /* \"#utility.yul\":631:666   */\n      eq\n        /* \"#utility.yul\":621:684   */\n      tag_23\n      jumpi\n        /* \"#utility.yul\":680:681   */\n      0x00\n        /* \"#utility.yul\":677:678   */\n      dup1\n        /* \"#utility.yul\":670:682   */\n      revert\n        /* \"#utility.yul\":621:684   */\n    tag_23:\n        /* \"#utility.yul\":568:690   */\n      pop\n      jump\t// out\n        /* \"#utility.yul\":696:839   */\n    tag_13:\n        /* \"#utility.yul\":753:758   */\n      0x00\n        /* \"#utility.yul\":784:790   */\n      dup2\n        /* \"#utility.yul\":778:791   */\n      mload\n        /* \"#utility.yul\":769:791   */\n      swap1\n      pop\n        /* \"#utility.yul\":800:833   */\n      tag_25\n        /* \"#utility.yul\":827:832   */\n      dup2\n        /* \"#utility.yul\":800:833   */\n      tag_12\n      jump\t// in\n    tag_25:\n        /* \"#utility.yul\":696:839   */\n      swap3\n      swap2\n      pop\n      pop\n      jump\t// out\n        /* \"#utility.yul\":845:1196   */\n    tag_3:\n        /* \"#utility.yul\":915:921   */\n      0x00\n        /* \"#utility.yul\":964:966   */\n      0x20\n        /* \"#utility.yul\":952:961   */\n      dup3\n        /* \"#utility.yul\":943:950   */\n      dup5\n        /* \"#utility.yul\":939:962   */\n      sub\n        /* \"#utility.yul\":935:967   */\n      slt\n        /* \"#utility.yul\":932:1051   */\n      iszero\n      tag_27\n      jumpi\n        /* \"#utility.yul\":970:1049   */\n      tag_28\n      tag_8\n      jump\t// in\n    tag_28:\n        /* \"#utility.yul\":932:1051   */\n    tag_27:\n        /* \"#utility.yul\":1090:1091   */\n      0x00\n        /* \"#utility.yul\":1115:1179   */\n      tag_29\n        /* \"#utility.yul\":1171:1178   */\n      dup5\n        /* \"#utility.yul\":1162:1168   */\n      dup3\n        /* \"#utility.yul\":1151:1160   */\n      dup6\n        /* \"#utility.yul\":1147:1169   */\n      add\n        /* \"#utility.yul\":1115:1179   */\n      tag_13\n      jump\t// in\n    tag_29:\n        /* \"#utility.yul\":1105:1179   */\n      swap2\n      pop\n        /* \"#utility.yul\":1061:1189   */\n      pop\n        /* \"#utility.yul\":845:1196   */\n      swap3\n      swap2\n      pop\n      pop\n      jump\t// out\n        /* \"devs/UserManager.sol\":867:3089   */\n    tag_6:\n      dataSize(sub_0)\n      dup1\n      dataOffset(sub_0)\n      0x00\n      codecopy\n      0x00\n      return\n    stop\n\n    sub_0: assembly {\n            /* \"devs/UserManager.sol\":867:3089   */\n          mstore(0x40, 0x80)\n          callvalue\n          dup1\n          iszero\n          tag_1\n          jumpi\n          0x00\n          dup1\n          revert\n        tag_1:\n          pop\n          jumpi(tag_2, lt(calldatasize, 0x04))\n          shr(0xe0, calldataload(0x00))\n          dup1\n          0xa5a9c518\n          gt\n          tag_15\n          jumpi\n          dup1\n          0xa5a9c518\n          eq\n          tag_9\n          jumpi\n          dup1\n          0xa87430ba\n          eq\n          tag_10\n          jumpi\n          dup1\n          0xe3e1f001\n          eq\n          tag_11\n          jumpi\n          dup1\n          0xe597ef12\n          eq\n          tag_12\n          jumpi\n          dup1\n          0xecded204\n          eq\n          tag_13\n          jumpi\n          dup1\n          0xf3c95c60\n          eq\n          tag_14\n          jumpi\n          jump(tag_2)\n        tag_15:\n          dup1\n          0x4172fb89\n          eq\n          tag_3\n          jumpi\n          dup1\n          0x4420e486\n          eq\n          tag_4\n          jumpi\n          dup1\n          0x4a09db4f\n          eq\n          tag_5\n          jumpi\n          dup1\n          0x6350280e\n          eq\n          tag_6\n          jumpi\n          dup1\n          0x7c4dd96d\n          eq\n          tag_7\n          jumpi\n          dup1\n          0x8da5cb5b\n          eq\n          tag_8\n          jumpi\n        tag_2:\n          0x00\n          dup1\n          revert\n            /* \"devs/UserManager.sol\":2971:3087   */\n        tag_3:\n          tag_16\n          0x04\n          dup1\n          calldatasize\n          sub\n          dup2\n          add\n          swap1\n          tag_17\n          swap2\n          swap1\n          tag_18\n          jump\t// in\n        tag_17:\n          tag_19\n          jump\t// in\n        tag_16:\n          mload(0x40)\n          tag_20\n          swap2\n          swap1\n          tag_21\n          jump\t// in\n        tag_20:\n          mload(0x40)\n          dup1\n          swap2\n          sub\n          swap1\n          return\n            /* \"devs/UserManager.sol\":1374:1684   */\n        tag_4:\n          tag_22\n          0x04\n          dup1\n          calldatasize\n          sub\n          dup2\n          add\n          swap1\n          tag_23\n          swap2\n          swap1\n          tag_18\n          jump\t// in\n        tag_23:\n          tag_24\n          jump\t// in\n        tag_22:\n          stop\n            /* \"devs/UserManager.sol\":2268:2502   */\n        tag_5:\n          tag_25\n          0x04\n          dup1\n          calldatasize\n          sub\n          dup2\n          add\n          swap1\n          tag_26\n          swap2\n          swap1\n          tag_27\n          jump\t// in\n        tag_26:\n          tag_28\n          jump\t// in\n        tag_25:\n          stop\n            /* \"devs/UserManager.sol\":1099:1119   */\n        tag_6:\n          tag_29\n          tag_30\n          jump\t// in\n        tag_29:\n          mload(0x40)\n          tag_31\n          swap2\n          swap1\n          tag_32\n          jump\t// in\n        tag_31:\n          mload(0x40)\n          dup1\n          swap2\n          sub\n          swap1\n          return\n            /* \"devs/UserManager.sol\":1690:1798   */\n        tag_7:\n          tag_33\n          0x04\n          dup1\n          calldatasize\n          sub\n          dup2\n          add\n          swap1\n          tag_34\n          swap2\n          swap1\n          tag_18\n          jump\t// in\n        tag_34:\n          tag_35\n          jump\t// in\n        tag_33:\n          stop\n            /* \"devs/UserManager.sol\":917:937   */\n        tag_8:\n          tag_36\n          tag_37\n          jump\t// in\n        tag_36:\n          mload(0x40)\n          tag_38\n          swap2\n          swap1\n          tag_39\n          jump\t// in\n        tag_38:\n          mload(0x40)\n          dup1\n          swap2\n          sub\n          swap1\n          return\n            /* \"devs/UserManager.sol\":1886:2262   */\n        tag_9:\n          tag_40\n          0x04\n          dup1\n          calldatasize\n          sub\n          dup2\n          add\n          swap1\n          tag_41\n          swap2\n          swap1\n          tag_27\n          jump\t// in\n        tag_41:\n          tag_42\n          jump\t// in\n        tag_40:\n          stop\n            /* \"devs/UserManager.sol\":1006:1043   */\n        tag_10:\n          tag_43\n          0x04\n          dup1\n          calldatasize\n          sub\n          dup2\n          add\n          swap1\n          tag_44\n          swap2\n          swap1\n          tag_18\n          jump\t// in\n        tag_44:\n          tag_45\n          jump\t// in\n        tag_43:\n          mload(0x40)\n          tag_46\n          swap6\n          swap5\n          swap4\n          swap3\n          swap2\n          swap1\n          tag_47\n          jump\t// in\n        tag_46:\n          mload(0x40)\n          dup1\n          swap2\n          sub\n          swap1\n          return\n            /* \"devs/UserManager.sol\":981:1000   */\n        tag_11:\n          tag_48\n          tag_49\n          jump\t// in\n        tag_48:\n          mload(0x40)\n          tag_50\n          swap2\n          swap1\n          tag_32\n          jump\t// in\n        tag_50:\n          mload(0x40)\n          dup1\n          swap2\n          sub\n          swap1\n          return\n            /* \"devs/UserManager.sol\":2508:2811   */\n        tag_12:\n          tag_51\n          0x04\n          dup1\n          calldatasize\n          sub\n          dup2\n          add\n          swap1\n          tag_52\n          swap2\n          swap1\n          tag_27\n          jump\t// in\n        tag_52:\n          tag_53\n          jump\t// in\n        tag_51:\n          stop\n            /* \"devs/UserManager.sol\":2843:2965   */\n        tag_13:\n          tag_54\n          0x04\n          dup1\n          calldatasize\n          sub\n          dup2\n          add\n          swap1\n          tag_55\n          swap2\n          swap1\n          tag_18\n          jump\t// in\n        tag_55:\n          tag_56\n          jump\t// in\n        tag_54:\n          mload(0x40)\n          tag_57\n          swap2\n          swap1\n          tag_21\n          jump\t// in\n        tag_57:\n          mload(0x40)\n          dup1\n          swap2\n          sub\n          swap1\n          return\n            /* \"devs/UserManager.sol\":1049:1092   */\n        tag_14:\n          tag_58\n          0x04\n          dup1\n          calldatasize\n          sub\n          dup2\n          add\n          swap1\n          tag_59\n          swap2\n          swap1\n          tag_18\n          jump\t// in\n        tag_59:\n          tag_60\n          jump\t// in\n        tag_58:\n          mload(0x40)\n          tag_61\n          swap2\n          swap1\n          tag_21\n          jump\t// in\n        tag_61:\n          mload(0x40)\n          dup1\n          swap2\n          sub\n          swap1\n          return\n            /* \"devs/UserManager.sol\":2971:3087   */\n        tag_19:\n            /* \"devs/UserManager.sol\":3036:3040   */\n          0x00\n            /* \"devs/UserManager.sol\":3058:3065   */\n          0x06\n            /* \"devs/UserManager.sol\":3058:3080   */\n          0x00\n            /* \"devs/UserManager.sol\":3066:3079   */\n          dup4\n            /* \"devs/UserManager.sol\":3058:3080   */\n          0xffffffffffffffffffffffffffffffffffffffff\n          and\n          0xffffffffffffffffffffffffffffffffffffffff\n          and\n          dup2\n          mstore\n          0x20\n          add\n          swap1\n          dup2\n          mstore\n          0x20\n          add\n          0x00\n          keccak256\n          0x00\n          swap1\n          sload\n          swap1\n          0x0100\n          exp\n          swap1\n          div\n          0xff\n          and\n            /* \"devs/UserManager.sol\":3051:3080   */\n          swap1\n          pop\n            /* \"devs/UserManager.sol\":2971:3087   */\n          swap2\n          swap1\n          pop\n          jump\t// out\n            /* \"devs/UserManager.sol\":1374:1684   */\n        tag_24:\n            /* \"devs/UserManager.sol\":1222:1232   */\n          caller\n            /* \"devs/UserManager.sol\":1203:1232   */\n          0xffffffffffffffffffffffffffffffffffffffff\n          and\n            /* \"devs/UserManager.sol\":1203:1218   */\n          0x01\n          0x00\n          swap1\n          sload\n          swap1\n          0x0100\n          exp\n          swap1\n          div\n          0xffffffffffffffffffffffffffffffffffffffff\n          and\n            /* \"devs/UserManager.sol\":1203:1232   */\n          0xffffffffffffffffffffffffffffffffffffffff\n          and\n          eq\n            /* \"devs/UserManager.sol\":1195:1233   */\n          tag_64\n          jumpi\n          0x00\n          dup1\n          revert\n        tag_64:\n            /* \"devs/UserManager.sol\":1446:1457   */\n          0x04\n            /* \"devs/UserManager.sol\":1446:1466   */\n          0x00\n            /* \"devs/UserManager.sol\":1458:1465   */\n          dup3\n            /* \"devs/UserManager.sol\":1446:1466   */\n          0xffffffffffffffffffffffffffffffffffffffff\n          and\n          0xffffffffffffffffffffffffffffffffffffffff\n          and\n          dup2\n          mstore\n          0x20\n          add\n          swap1\n          dup2\n          mstore\n          0x20\n          add\n          0x00\n          keccak256\n          0x00\n          swap1\n          sload\n          swap1\n          0x0100\n          exp\n          swap1\n          div\n          0xff\n          and\n            /* \"devs/UserManager.sol\":1445:1466   */\n          iszero\n            /* \"devs/UserManager.sol\":1437:1467   */\n          tag_66\n          jumpi\n          0x00\n          dup1\n          revert\n        tag_66:\n            /* \"devs/UserManager.sol\":1500:1504   */\n          0x01\n            /* \"devs/UserManager.sol\":1477:1488   */\n          0x04\n            /* \"devs/UserManager.sol\":1477:1497   */\n          0x00\n            /* \"devs/UserManager.sol\":1489:1496   */\n          dup4\n            /* \"devs/UserManager.sol\":1477:1497   */\n          0xffffffffffffffffffffffffffffffffffffffff\n          and\n          0xffffffffffffffffffffffffffffffffffffffff\n          and\n          dup2\n          mstore\n          0x20\n          add\n          swap1\n          dup2\n          mstore\n          0x20\n          add\n          0x00\n          keccak256\n          0x00\n            /* \"devs/UserManager.sol\":1477:1504   */\n          0x0100\n          exp\n          dup2\n          sload\n          dup2\n          0xff\n          mul\n          not\n          and\n          swap1\n          dup4\n          iszero\n          iszero\n          mul\n          or\n          swap1\n          sstore\n          pop\n            /* \"devs/UserManager.sol\":1514:1531   */\n          0x00\n            /* \"devs/UserManager.sol\":1534:1539   */\n          0x03\n            /* \"devs/UserManager.sol\":1534:1548   */\n          0x00\n            /* \"devs/UserManager.sol\":1540:1547   */\n          dup4\n            /* \"devs/UserManager.sol\":1534:1548   */\n          0xffffffffffffffffffffffffffffffffffffffff\n          and\n          0xffffffffffffffffffffffffffffffffffffffff\n          and\n          dup2\n          mstore\n          0x20\n          add\n          swap1\n          dup2\n          mstore\n          0x20\n          add\n          0x00\n          keccak256\n            /* \"devs/UserManager.sol\":1514:1548   */\n          swap1\n          pop\n            /* \"devs/UserManager.sol\":1577:1584   */\n          dup2\n            /* \"devs/UserManager.sol\":1558:1562   */\n          dup2\n            /* \"devs/UserManager.sol\":1558:1574   */\n          0x00\n          add\n          0x00\n            /* \"devs/UserManager.sol\":1558:1584   */\n          0x0100\n          exp\n          dup2\n          sload\n          dup2\n          0xffffffffffffffffffffffffffffffffffffffff\n          mul\n          not\n          and\n          swap1\n          dup4\n          0xffffffffffffffffffffffffffffffffffffffff\n          and\n          mul\n          or\n          swap1\n          sstore\n          pop\n            /* \"devs/UserManager.sol\":1614:1615   */\n          0x00\n            /* \"devs/UserManager.sol\":1594:1598   */\n          dup2\n            /* \"devs/UserManager.sol\":1594:1611   */\n          0x02\n          add\n            /* \"devs/UserManager.sol\":1594:1615   */\n          dup2\n          swap1\n          sstore\n          pop\n            /* \"devs/UserManager.sol\":1645:1646   */\n          0x00\n            /* \"devs/UserManager.sol\":1625:1629   */\n          dup2\n            /* \"devs/UserManager.sol\":1625:1641   */\n          0x03\n          add\n            /* \"devs/UserManager.sol\":1625:1646   */\n          dup2\n          swap1\n          sstore\n          pop\n            /* \"devs/UserManager.sol\":1676:1677   */\n          0x00\n            /* \"devs/UserManager.sol\":1656:1660   */\n          dup2\n            /* \"devs/UserManager.sol\":1656:1673   */\n          0x07\n          add\n            /* \"devs/UserManager.sol\":1656:1677   */\n          dup2\n          swap1\n          sstore\n          pop\n            /* \"devs/UserManager.sol\":1427:1684   */\n          pop\n            /* \"devs/UserManager.sol\":1374:1684   */\n          pop\n          jump\t// out\n            /* \"devs/UserManager.sol\":2268:2502   */\n        tag_28:\n            /* \"devs/UserManager.sol\":1222:1232   */\n          caller\n            /* \"devs/UserManager.sol\":1203:1232   */\n          0xffffffffffffffffffffffffffffffffffffffff\n          and\n            /* \"devs/UserManager.sol\":1203:1218   */\n          0x01\n          0x00\n          swap1\n          sload\n          swap1\n          0x0100\n          exp\n          swap1\n          div\n          0xffffffffffffffffffffffffffffffffffffffff\n          and\n            /* \"devs/UserManager.sol\":1203:1232   */\n          0xffffffffffffffffffffffffffffffffffffffff\n          and\n          eq\n            /* \"devs/UserManager.sol\":1195:1233   */\n          tag_68\n          jumpi\n          0x00\n          dup1\n          revert\n        tag_68:\n            /* \"devs/UserManager.sol\":2353:2364   */\n          0x04\n            /* \"devs/UserManager.sol\":2353:2373   */\n          0x00\n            /* \"devs/UserManager.sol\":2365:2372   */\n          dup4\n            /* \"devs/UserManager.sol\":2353:2373   */\n          0xffffffffffffffffffffffffffffffffffffffff\n          and\n          0xffffffffffffffffffffffffffffffffffffffff\n          and\n          dup2\n          mstore\n          0x20\n          add\n          swap1\n          dup2\n          mstore\n          0x20\n          add\n          0x00\n          keccak256\n          0x00\n          swap1\n          sload\n          swap1\n          0x0100\n          exp\n          swap1\n          div\n          0xff\n          and\n            /* \"devs/UserManager.sol\":2345:2374   */\n          tag_70\n          jumpi\n          0x00\n          dup1\n          revert\n        tag_70:\n            /* \"devs/UserManager.sol\":2384:2401   */\n          0x00\n            /* \"devs/UserManager.sol\":2404:2409   */\n          0x03\n            /* \"devs/UserManager.sol\":2404:2418   */\n          0x00\n            /* \"devs/UserManager.sol\":2410:2417   */\n          dup5\n            /* \"devs/UserManager.sol\":2404:2418   */\n          0xffffffffffffffffffffffffffffffffffffffff\n          and\n          0xffffffffffffffffffffffffffffffffffffffff\n          and\n          dup2\n          mstore\n          0x20\n          add\n          swap1\n          dup2\n          mstore\n          0x20\n          add\n          0x00\n          keccak256\n            /* \"devs/UserManager.sol\":2384:2418   */\n          swap1\n          pop\n            /* \"devs/UserManager.sol\":2461:2466   */\n          0x00\n            /* \"devs/UserManager.sol\":2428:2432   */\n          dup2\n            /* \"devs/UserManager.sol\":2428:2448   */\n          0x06\n          add\n            /* \"devs/UserManager.sol\":2428:2458   */\n          0x00\n            /* \"devs/UserManager.sol\":2449:2457   */\n          dup5\n            /* \"devs/UserManager.sol\":2428:2458   */\n          dup2\n          mstore\n          0x20\n          add\n          swap1\n          dup2\n          mstore\n          0x20\n          add\n          0x00\n          keccak256\n          0x00\n            /* \"devs/UserManager.sol\":2428:2466   */\n          0x0100\n          exp\n          dup2\n          sload\n          dup2\n          0xff\n          mul\n          not\n          and\n          swap1\n          dup4\n          iszero\n          iszero\n          mul\n          or\n          swap1\n          sstore\n          pop\n            /* \"devs/UserManager.sol\":2476:2480   */\n          dup1\n            /* \"devs/UserManager.sol\":2476:2493   */\n          0x02\n          add\n          0x00\n            /* \"devs/UserManager.sol\":2476:2495   */\n          dup2\n          sload\n          dup1\n          swap3\n          swap2\n          swap1\n          tag_71\n          swap1\n          tag_72\n          jump\t// in\n        tag_71:\n          swap2\n          swap1\n          pop\n          sstore\n          pop\n            /* \"devs/UserManager.sol\":2335:2502   */\n          pop\n            /* \"devs/UserManager.sol\":2268:2502   */\n          pop\n          pop\n          jump\t// out\n            /* \"devs/UserManager.sol\":1099:1119   */\n        tag_30:\n          sload(0x05)\n          dup2\n          jump\t// out\n            /* \"devs/UserManager.sol\":1690:1798   */\n        tag_35:\n            /* \"devs/UserManager.sol\":1222:1232   */\n          caller\n            /* \"devs/UserManager.sol\":1203:1232   */\n          0xffffffffffffffffffffffffffffffffffffffff\n          and\n            /* \"devs/UserManager.sol\":1203:1218   */\n          0x01\n          0x00\n          swap1\n          sload\n          swap1\n          0x0100\n          exp\n          swap1\n          div\n          0xffffffffffffffffffffffffffffffffffffffff\n          and\n            /* \"devs/UserManager.sol\":1203:1232   */\n          0xffffffffffffffffffffffffffffffffffffffff\n          and\n          eq\n            /* \"devs/UserManager.sol\":1195:1233   */\n          tag_74\n          jumpi\n          0x00\n          dup1\n          revert\n        tag_74:\n            /* \"devs/UserManager.sol\":1787:1791   */\n          0x01\n            /* \"devs/UserManager.sol\":1762:1769   */\n          0x06\n            /* \"devs/UserManager.sol\":1762:1784   */\n          0x00\n            /* \"devs/UserManager.sol\":1770:1783   */\n          dup4\n            /* \"devs/UserManager.sol\":1762:1784   */\n          0xffffffffffffffffffffffffffffffffffffffff\n          and\n          0xffffffffffffffffffffffffffffffffffffffff\n          and\n          dup2\n          mstore\n          0x20\n          add\n          swap1\n          dup2\n          mstore\n          0x20\n          add\n          0x00\n          keccak256\n          0x00\n            /* \"devs/UserManager.sol\":1762:1791   */\n          0x0100\n          exp\n          dup2\n          sload\n          dup2\n          0xff\n          mul\n          not\n          and\n          swap1\n          dup4\n          iszero\n          iszero\n          mul\n          or\n          swap1\n          sstore\n          pop\n            /* \"devs/UserManager.sol\":1690:1798   */\n          pop\n          jump\t// out\n            /* \"devs/UserManager.sol\":917:937   */\n        tag_37:\n          0x00\n          dup1\n          sload\n          swap1\n          0x0100\n          exp\n          swap1\n          div\n          0xffffffffffffffffffffffffffffffffffffffff\n          and\n          dup2\n          jump\t// out\n            /* \"devs/UserManager.sol\":1886:2262   */\n        tag_42:\n            /* \"devs/UserManager.sol\":1222:1232   */\n          caller\n            /* \"devs/UserManager.sol\":1203:1232   */\n          0xffffffffffffffffffffffffffffffffffffffff\n          and\n            /* \"devs/UserManager.sol\":1203:1218   */\n          0x01\n          0x00\n          swap1\n          sload\n          swap1\n          0x0100\n          exp\n          swap1\n          div\n          0xffffffffffffffffffffffffffffffffffffffff\n          and\n            /* \"devs/UserManager.sol\":1203:1232   */\n          0xffffffffffffffffffffffffffffffffffffffff\n          and\n          eq\n            /* \"devs/UserManager.sol\":1195:1233   */\n          tag_77\n          jumpi\n          0x00\n          dup1\n          revert\n        tag_77:\n            /* \"devs/UserManager.sol\":1971:1982   */\n          0x04\n            /* \"devs/UserManager.sol\":1971:1991   */\n          0x00\n            /* \"devs/UserManager.sol\":1983:1990   */\n          dup4\n            /* \"devs/UserManager.sol\":1971:1991   */\n          0xffffffffffffffffffffffffffffffffffffffff\n          and\n          0xffffffffffffffffffffffffffffffffffffffff\n          and\n          dup2\n          mstore\n          0x20\n          add\n          swap1\n          dup2\n          mstore\n          0x20\n          add\n          0x00\n          keccak256\n          0x00\n          swap1\n          sload\n          swap1\n          0x0100\n          exp\n          swap1\n          div\n          0xff\n          and\n            /* \"devs/UserManager.sol\":1963:1992   */\n          tag_79\n          jumpi\n          0x00\n          dup1\n          revert\n        tag_79:\n            /* \"devs/UserManager.sol\":2003:2020   */\n          0x00\n            /* \"devs/UserManager.sol\":2023:2028   */\n          0x03\n            /* \"devs/UserManager.sol\":2023:2037   */\n          0x00\n            /* \"devs/UserManager.sol\":2029:2036   */\n          dup5\n            /* \"devs/UserManager.sol\":2023:2037   */\n          0xffffffffffffffffffffffffffffffffffffffff\n          and\n          0xffffffffffffffffffffffffffffffffffffffff\n          and\n          dup2\n          mstore\n          0x20\n          add\n          swap1\n          dup2\n          mstore\n          0x20\n          add\n          0x00\n          keccak256\n            /* \"devs/UserManager.sol\":2003:2037   */\n          swap1\n          pop\n            /* \"devs/UserManager.sol\":2047:2051   */\n          dup1\n            /* \"devs/UserManager.sol\":2047:2068   */\n          0x04\n          add\n            /* \"devs/UserManager.sol\":2074:2082   */\n          dup3\n            /* \"devs/UserManager.sol\":2047:2083   */\n          swap1\n          dup1\n          0x01\n          dup2\n          sload\n          add\n          dup1\n          dup3\n          sstore\n          dup1\n          swap2\n          pop\n          pop\n          0x01\n          swap1\n          sub\n          swap1\n          0x00\n          mstore\n          keccak256(0x00, 0x20)\n          add\n          0x00\n          swap1\n          swap2\n          swap1\n          swap2\n          swap1\n          swap2\n          pop\n          sstore\n            /* \"devs/UserManager.sol\":2135:2139   */\n          dup1\n            /* \"devs/UserManager.sol\":2135:2151   */\n          0x03\n          add\n          sload\n            /* \"devs/UserManager.sol\":2093:2097   */\n          dup2\n            /* \"devs/UserManager.sol\":2093:2122   */\n          0x05\n          add\n            /* \"devs/UserManager.sol\":2093:2132   */\n          0x00\n            /* \"devs/UserManager.sol\":2123:2131   */\n          dup5\n            /* \"devs/UserManager.sol\":2093:2132   */\n          dup2\n          mstore\n          0x20\n          add\n          swap1\n          dup2\n          mstore\n          0x20\n          add\n          0x00\n          keccak256\n            /* \"devs/UserManager.sol\":2093:2151   */\n          dup2\n          swap1\n          sstore\n          pop\n            /* \"devs/UserManager.sol\":2194:2198   */\n          0x01\n            /* \"devs/UserManager.sol\":2161:2165   */\n          dup2\n            /* \"devs/UserManager.sol\":2161:2181   */\n          0x06\n          add\n            /* \"devs/UserManager.sol\":2161:2191   */\n          0x00\n            /* \"devs/UserManager.sol\":2182:2190   */\n          dup5\n            /* \"devs/UserManager.sol\":2161:2191   */\n          dup2\n          mstore\n          0x20\n          add\n          swap1\n          dup2\n          mstore\n          0x20\n          add\n          0x00\n          keccak256\n          0x00\n            /* \"devs/UserManager.sol\":2161:2198   */\n          0x0100\n          exp\n          dup2\n          sload\n          dup2\n          0xff\n          mul\n          not\n          and\n          swap1\n          dup4\n          iszero\n          iszero\n          mul\n          or\n          swap1\n          sstore\n          pop\n            /* \"devs/UserManager.sol\":2208:2212   */\n          dup1\n            /* \"devs/UserManager.sol\":2208:2225   */\n          0x02\n          add\n          0x00\n            /* \"devs/UserManager.sol\":2208:2227   */\n          dup2\n          sload\n          dup1\n          swap3\n          swap2\n          swap1\n          tag_81\n          swap1\n          tag_82\n          jump\t// in\n        tag_81:\n          swap2\n          swap1\n          pop\n          sstore\n          pop\n            /* \"devs/UserManager.sol\":2237:2241   */\n          dup1\n            /* \"devs/UserManager.sol\":2237:2253   */\n          0x03\n          add\n          0x00\n            /* \"devs/UserManager.sol\":2237:2255   */\n          dup2\n          sload\n          dup1\n          swap3\n          swap2\n          swap1\n          tag_83\n          swap1\n          tag_82\n          jump\t// in\n        tag_83:\n          swap2\n          swap1\n          pop\n          sstore\n          pop\n            /* \"devs/UserManager.sol\":1953:2262   */\n          pop\n            /* \"devs/UserManager.sol\":1886:2262   */\n          pop\n          pop\n          jump\t// out\n            /* \"devs/UserManager.sol\":1006:1043   */\n        tag_45:\n          mstore(0x20, 0x03)\n          dup1\n          0x00\n          mstore\n          keccak256(0x00, 0x40)\n          0x00\n          swap2\n          pop\n          swap1\n          pop\n          dup1\n          0x00\n          add\n          0x00\n          swap1\n          sload\n          swap1\n          0x0100\n          exp\n          swap1\n          div\n          0xffffffffffffffffffffffffffffffffffffffff\n          and\n          swap1\n          dup1\n          0x01\n          add\n          sload\n          swap1\n          dup1\n          0x02\n          add\n          sload\n          swap1\n          dup1\n          0x03\n          add\n          sload\n          swap1\n          dup1\n          0x07\n          add\n          sload\n          swap1\n          pop\n          dup6\n          jump\t// out\n            /* \"devs/UserManager.sol\":981:1000   */\n        tag_49:\n          sload(0x02)\n          dup2\n          jump\t// out\n            /* \"devs/UserManager.sol\":2508:2811   */\n        tag_53:\n            /* \"devs/UserManager.sol\":1222:1232   */\n          caller\n            /* \"devs/UserManager.sol\":1203:1232   */\n          0xffffffffffffffffffffffffffffffffffffffff\n          and\n            /* \"devs/UserManager.sol\":1203:1218   */\n          0x01\n          0x00\n          swap1\n          sload\n          swap1\n          0x0100\n          exp\n          swap1\n          div\n          0xffffffffffffffffffffffffffffffffffffffff\n          and\n            /* \"devs/UserManager.sol\":1203:1232   */\n          0xffffffffffffffffffffffffffffffffffffffff\n          and\n          eq\n            /* \"devs/UserManager.sol\":1195:1233   */\n          tag_85\n          jumpi\n          0x00\n          dup1\n          revert\n        tag_85:\n            /* \"devs/UserManager.sol\":2594:2605   */\n          0x04\n            /* \"devs/UserManager.sol\":2594:2614   */\n          0x00\n            /* \"devs/UserManager.sol\":2606:2613   */\n          dup4\n            /* \"devs/UserManager.sol\":2594:2614   */\n          0xffffffffffffffffffffffffffffffffffffffff\n          and\n          0xffffffffffffffffffffffffffffffffffffffff\n          and\n          dup2\n          mstore\n          0x20\n          add\n          swap1\n          dup2\n          mstore\n          0x20\n          add\n          0x00\n          keccak256\n          0x00\n          swap1\n          sload\n          swap1\n          0x0100\n          exp\n          swap1\n          div\n          0xff\n          and\n            /* \"devs/UserManager.sol\":2586:2615   */\n          tag_87\n          jumpi\n          0x00\n          dup1\n          revert\n        tag_87:\n            /* \"devs/UserManager.sol\":2626:2643   */\n          0x00\n            /* \"devs/UserManager.sol\":2646:2651   */\n          0x03\n            /* \"devs/UserManager.sol\":2646:2660   */\n          0x00\n            /* \"devs/UserManager.sol\":2652:2659   */\n          dup5\n            /* \"devs/UserManager.sol\":2646:2660   */\n          0xffffffffffffffffffffffffffffffffffffffff\n          and\n          0xffffffffffffffffffffffffffffffffffffffff\n          and\n          dup2\n          mstore\n          0x20\n          add\n          swap1\n          dup2\n          mstore\n          0x20\n          add\n          0x00\n          keccak256\n            /* \"devs/UserManager.sol\":2626:2660   */\n          swap1\n          pop\n            /* \"devs/UserManager.sol\":2670:2674   */\n          dup1\n            /* \"devs/UserManager.sol\":2670:2691   */\n          0x08\n          add\n            /* \"devs/UserManager.sol\":2697:2705   */\n          dup3\n            /* \"devs/UserManager.sol\":2670:2706   */\n          swap1\n          dup1\n          0x01\n          dup2\n          sload\n          add\n          dup1\n          dup3\n          sstore\n          dup1\n          swap2\n          pop\n          pop\n          0x01\n          swap1\n          sub\n          swap1\n          0x00\n          mstore\n          keccak256(0x00, 0x20)\n          add\n          0x00\n          swap1\n          swap2\n          swap1\n          swap2\n          swap1\n          swap2\n          pop\n          sstore\n            /* \"devs/UserManager.sol\":2758:2762   */\n          dup1\n            /* \"devs/UserManager.sol\":2758:2775   */\n          0x07\n          add\n          sload\n            /* \"devs/UserManager.sol\":2716:2720   */\n          dup2\n            /* \"devs/UserManager.sol\":2716:2745   */\n          0x09\n          add\n            /* \"devs/UserManager.sol\":2716:2755   */\n          0x00\n            /* \"devs/UserManager.sol\":2746:2754   */\n          dup5\n            /* \"devs/UserManager.sol\":2716:2755   */\n          dup2\n          mstore\n          0x20\n          add\n          swap1\n          dup2\n          mstore\n          0x20\n          add\n          0x00\n          keccak256\n            /* \"devs/UserManager.sol\":2716:2775   */\n          dup2\n          swap1\n          sstore\n          pop\n            /* \"devs/UserManager.sol\":2785:2789   */\n          dup1\n            /* \"devs/UserManager.sol\":2785:2802   */\n          0x07\n          add\n          0x00\n            /* \"devs/UserManager.sol\":2785:2804   */\n          dup2\n          sload\n          dup1\n          swap3\n          swap2\n          swap1\n          tag_89\n          swap1\n          tag_82\n          jump\t// in\n        tag_89:\n          swap2\n          swap1\n          pop\n          sstore\n          pop\n            /* \"devs/UserManager.sol\":2576:2811   */\n          pop\n            /* \"devs/UserManager.sol\":2508:2811   */\n          pop\n          pop\n          jump\t// out\n            /* \"devs/UserManager.sol\":2843:2965   */\n        tag_56:\n            /* \"devs/UserManager.sol\":2911:2915   */\n          0x00\n            /* \"devs/UserManager.sol\":2933:2944   */\n          0x04\n            /* \"devs/UserManager.sol\":2933:2958   */\n          0x00\n            /* \"devs/UserManager.sol\":2945:2957   */\n          dup4\n            /* \"devs/UserManager.sol\":2933:2958   */\n          0xffffffffffffffffffffffffffffffffffffffff\n          and\n          0xffffffffffffffffffffffffffffffffffffffff\n          and\n          dup2\n          mstore\n          0x20\n          add\n          swap1\n          dup2\n          mstore\n          0x20\n          add\n          0x00\n          keccak256\n          0x00\n          swap1\n          sload\n          swap1\n          0x0100\n          exp\n          swap1\n          div\n          0xff\n          and\n            /* \"devs/UserManager.sol\":2926:2958   */\n          swap1\n          pop\n            /* \"devs/UserManager.sol\":2843:2965   */\n          swap2\n          swap1\n          pop\n          jump\t// out\n            /* \"devs/UserManager.sol\":1049:1092   */\n        tag_60:\n          mstore(0x20, 0x04)\n          dup1\n          0x00\n          mstore\n          keccak256(0x00, 0x40)\n          0x00\n          swap2\n          pop\n          sload\n          swap1\n          0x0100\n          exp\n          swap1\n          div\n          0xff\n          and\n          dup2\n          jump\t// out\n            /* \"#utility.yul\":88:205   */\n        tag_92:\n            /* \"#utility.yul\":197:198   */\n          0x00\n            /* \"#utility.yul\":194:195   */\n          dup1\n            /* \"#utility.yul\":187:199   */\n          revert\n            /* \"#utility.yul\":334:460   */\n        tag_94:\n            /* \"#utility.yul\":371:378   */\n          0x00\n            /* \"#utility.yul\":411:453   */\n          0xffffffffffffffffffffffffffffffffffffffff\n            /* \"#utility.yul\":404:409   */\n          dup3\n            /* \"#utility.yul\":400:454   */\n          and\n            /* \"#utility.yul\":389:454   */\n          swap1\n          pop\n            /* \"#utility.yul\":334:460   */\n          swap2\n          swap1\n          pop\n          jump\t// out\n            /* \"#utility.yul\":466:562   */\n        tag_95:\n            /* \"#utility.yul\":503:510   */\n          0x00\n            /* \"#utility.yul\":532:556   */\n          tag_112\n            /* \"#utility.yul\":550:555   */\n          dup3\n            /* \"#utility.yul\":532:556   */\n          tag_94\n          jump\t// in\n        tag_112:\n            /* \"#utility.yul\":521:556   */\n          swap1\n          pop\n            /* \"#utility.yul\":466:562   */\n          swap2\n          swap1\n          pop\n          jump\t// out\n            /* \"#utility.yul\":568:690   */\n        tag_96:\n            /* \"#utility.yul\":641:665   */\n          tag_114\n            /* \"#utility.yul\":659:664   */\n          dup2\n            /* \"#utility.yul\":641:665   */\n          tag_95\n          jump\t// in\n        tag_114:\n            /* \"#utility.yul\":634:639   */\n          dup2\n            /* \"#utility.yul\":631:666   */\n          eq\n            /* \"#utility.yul\":621:684   */\n          tag_115\n          jumpi\n            /* \"#utility.yul\":680:681   */\n          0x00\n            /* \"#utility.yul\":677:678   */\n          dup1\n            /* \"#utility.yul\":670:682   */\n          revert\n            /* \"#utility.yul\":621:684   */\n        tag_115:\n            /* \"#utility.yul\":568:690   */\n          pop\n          jump\t// out\n            /* \"#utility.yul\":696:835   */\n        tag_97:\n            /* \"#utility.yul\":742:747   */\n          0x00\n            /* \"#utility.yul\":780:786   */\n          dup2\n            /* \"#utility.yul\":767:787   */\n          calldataload\n            /* \"#utility.yul\":758:787   */\n          swap1\n          pop\n            /* \"#utility.yul\":796:829   */\n          tag_117\n            /* \"#utility.yul\":823:828   */\n          dup2\n            /* \"#utility.yul\":796:829   */\n          tag_96\n          jump\t// in\n        tag_117:\n            /* \"#utility.yul\":696:835   */\n          swap3\n          swap2\n          pop\n          pop\n          jump\t// out\n            /* \"#utility.yul\":841:1170   */\n        tag_18:\n            /* \"#utility.yul\":900:906   */\n          0x00\n            /* \"#utility.yul\":949:951   */\n          0x20\n            /* \"#utility.yul\":937:946   */\n          dup3\n            /* \"#utility.yul\":928:935   */\n          dup5\n            /* \"#utility.yul\":924:947   */\n          sub\n            /* \"#utility.yul\":920:952   */\n          slt\n            /* \"#utility.yul\":917:1036   */\n          iszero\n          tag_119\n          jumpi\n            /* \"#utility.yul\":955:1034   */\n          tag_120\n          tag_92\n          jump\t// in\n        tag_120:\n            /* \"#utility.yul\":917:1036   */\n        tag_119:\n            /* \"#utility.yul\":1075:1076   */\n          0x00\n            /* \"#utility.yul\":1100:1153   */\n          tag_121\n            /* \"#utility.yul\":1145:1152   */\n          dup5\n            /* \"#utility.yul\":1136:1142   */\n          dup3\n            /* \"#utility.yul\":1125:1134   */\n          dup6\n            /* \"#utility.yul\":1121:1143   */\n          add\n            /* \"#utility.yul\":1100:1153   */\n          tag_97\n          jump\t// in\n        tag_121:\n            /* \"#utility.yul\":1090:1153   */\n          swap2\n          pop\n            /* \"#utility.yul\":1046:1163   */\n          pop\n            /* \"#utility.yul\":841:1170   */\n          swap3\n          swap2\n          pop\n          pop\n          jump\t// out\n            /* \"#utility.yul\":1176:1266   */\n        tag_98:\n            /* \"#utility.yul\":1210:1217   */\n          0x00\n            /* \"#utility.yul\":1253:1258   */\n          dup2\n            /* \"#utility.yul\":1246:1259   */\n          iszero\n            /* \"#utility.yul\":1239:1260   */\n          iszero\n            /* \"#utility.yul\":1228:1260   */\n          swap1\n          pop\n            /* \"#utility.yul\":1176:1266   */\n          swap2\n          swap1\n          pop\n          jump\t// out\n            /* \"#utility.yul\":1272:1381   */\n        tag_99:\n            /* \"#utility.yul\":1353:1374   */\n          tag_124\n            /* \"#utility.yul\":1368:1373   */\n          dup2\n            /* \"#utility.yul\":1353:1374   */\n          tag_98\n          jump\t// in\n        tag_124:\n            /* \"#utility.yul\":1348:1351   */\n          dup3\n            /* \"#utility.yul\":1341:1375   */\n          mstore\n            /* \"#utility.yul\":1272:1381   */\n          pop\n          pop\n          jump\t// out\n            /* \"#utility.yul\":1387:1597   */\n        tag_21:\n            /* \"#utility.yul\":1474:1478   */\n          0x00\n            /* \"#utility.yul\":1512:1514   */\n          0x20\n            /* \"#utility.yul\":1501:1510   */\n          dup3\n            /* \"#utility.yul\":1497:1515   */\n          add\n            /* \"#utility.yul\":1489:1515   */\n          swap1\n          pop\n            /* \"#utility.yul\":1525:1590   */\n          tag_126\n            /* \"#utility.yul\":1587:1588   */\n          0x00\n            /* \"#utility.yul\":1576:1585   */\n          dup4\n            /* \"#utility.yul\":1572:1589   */\n          add\n            /* \"#utility.yul\":1563:1569   */\n          dup5\n            /* \"#utility.yul\":1525:1590   */\n          tag_99\n          jump\t// in\n        tag_126:\n            /* \"#utility.yul\":1387:1597   */\n          swap3\n          swap2\n          pop\n          pop\n          jump\t// out\n            /* \"#utility.yul\":1603:1680   */\n        tag_100:\n            /* \"#utility.yul\":1640:1647   */\n          0x00\n            /* \"#utility.yul\":1669:1674   */\n          dup2\n            /* \"#utility.yul\":1658:1674   */\n          swap1\n          pop\n            /* \"#utility.yul\":1603:1680   */\n          swap2\n          swap1\n          pop\n          jump\t// out\n            /* \"#utility.yul\":1686:1808   */\n        tag_101:\n            /* \"#utility.yul\":1759:1783   */\n          tag_129\n            /* \"#utility.yul\":1777:1782   */\n          dup2\n            /* \"#utility.yul\":1759:1783   */\n          tag_100\n          jump\t// in\n        tag_129:\n            /* \"#utility.yul\":1752:1757   */\n          dup2\n            /* \"#utility.yul\":1749:1784   */\n          eq\n            /* \"#utility.yul\":1739:1802   */\n          tag_130\n          jumpi\n            /* \"#utility.yul\":1798:1799   */\n          0x00\n            /* \"#utility.yul\":1795:1796   */\n          dup1\n            /* \"#utility.yul\":1788:1800   */\n          revert\n            /* \"#utility.yul\":1739:1802   */\n        tag_130:\n            /* \"#utility.yul\":1686:1808   */\n          pop\n          jump\t// out\n            /* \"#utility.yul\":1814:1953   */\n        tag_102:\n            /* \"#utility.yul\":1860:1865   */\n          0x00\n            /* \"#utility.yul\":1898:1904   */\n          dup2\n            /* \"#utility.yul\":1885:1905   */\n          calldataload\n            /* \"#utility.yul\":1876:1905   */\n          swap1\n          pop\n            /* \"#utility.yul\":1914:1947   */\n          tag_132\n            /* \"#utility.yul\":1941:1946   */\n          dup2\n            /* \"#utility.yul\":1914:1947   */\n          tag_101\n          jump\t// in\n        tag_132:\n            /* \"#utility.yul\":1814:1953   */\n          swap3\n          swap2\n          pop\n          pop\n          jump\t// out\n            /* \"#utility.yul\":1959:2433   */\n        tag_27:\n            /* \"#utility.yul\":2027:2033   */\n          0x00\n            /* \"#utility.yul\":2035:2041   */\n          dup1\n            /* \"#utility.yul\":2084:2086   */\n          0x40\n            /* \"#utility.yul\":2072:2081   */\n          dup4\n            /* \"#utility.yul\":2063:2070   */\n          dup6\n            /* \"#utility.yul\":2059:2082   */\n          sub\n            /* \"#utility.yul\":2055:2087   */\n          slt\n            /* \"#utility.yul\":2052:2171   */\n          iszero\n          tag_134\n          jumpi\n            /* \"#utility.yul\":2090:2169   */\n          tag_135\n          tag_92\n          jump\t// in\n        tag_135:\n            /* \"#utility.yul\":2052:2171   */\n        tag_134:\n            /* \"#utility.yul\":2210:2211   */\n          0x00\n            /* \"#utility.yul\":2235:2288   */\n          tag_136\n            /* \"#utility.yul\":2280:2287   */\n          dup6\n            /* \"#utility.yul\":2271:2277   */\n          dup3\n            /* \"#utility.yul\":2260:2269   */\n          dup7\n            /* \"#utility.yul\":2256:2278   */\n          add\n            /* \"#utility.yul\":2235:2288   */\n          tag_97\n          jump\t// in\n        tag_136:\n            /* \"#utility.yul\":2225:2288   */\n          swap3\n          pop\n            /* \"#utility.yul\":2181:2298   */\n          pop\n            /* \"#utility.yul\":2337:2339   */\n          0x20\n            /* \"#utility.yul\":2363:2416   */\n          tag_137\n            /* \"#utility.yul\":2408:2415   */\n          dup6\n            /* \"#utility.yul\":2399:2405   */\n          dup3\n            /* \"#utility.yul\":2388:2397   */\n          dup7\n            /* \"#utility.yul\":2384:2406   */\n          add\n            /* \"#utility.yul\":2363:2416   */\n          tag_102\n          jump\t// in\n        tag_137:\n            /* \"#utility.yul\":2353:2416   */\n          swap2\n          pop\n            /* \"#utility.yul\":2308:2426   */\n          pop\n            /* \"#utility.yul\":1959:2433   */\n          swap3\n          pop\n          swap3\n          swap1\n          pop\n          jump\t// out\n            /* \"#utility.yul\":2439:2557   */\n        tag_103:\n            /* \"#utility.yul\":2526:2550   */\n          tag_139\n            /* \"#utility.yul\":2544:2549   */\n          dup2\n            /* \"#utility.yul\":2526:2550   */\n          tag_100\n          jump\t// in\n        tag_139:\n            /* \"#utility.yul\":2521:2524   */\n          dup3\n            /* \"#utility.yul\":2514:2551   */\n          mstore\n            /* \"#utility.yul\":2439:2557   */\n          pop\n          pop\n          jump\t// out\n            /* \"#utility.yul\":2563:2785   */\n        tag_32:\n            /* \"#utility.yul\":2656:2660   */\n          0x00\n            /* \"#utility.yul\":2694:2696   */\n          0x20\n            /* \"#utility.yul\":2683:2692   */\n          dup3\n            /* \"#utility.yul\":2679:2697   */\n          add\n            /* \"#utility.yul\":2671:2697   */\n          swap1\n          pop\n            /* \"#utility.yul\":2707:2778   */\n          tag_141\n            /* \"#utility.yul\":2775:2776   */\n          0x00\n            /* \"#utility.yul\":2764:2773   */\n          dup4\n            /* \"#utility.yul\":2760:2777   */\n          add\n            /* \"#utility.yul\":2751:2757   */\n          dup5\n            /* \"#utility.yul\":2707:2778   */\n          tag_103\n          jump\t// in\n        tag_141:\n            /* \"#utility.yul\":2563:2785   */\n          swap3\n          swap2\n          pop\n          pop\n          jump\t// out\n            /* \"#utility.yul\":2791:2909   */\n        tag_104:\n            /* \"#utility.yul\":2878:2902   */\n          tag_143\n            /* \"#utility.yul\":2896:2901   */\n          dup2\n            /* \"#utility.yul\":2878:2902   */\n          tag_95\n          jump\t// in\n        tag_143:\n            /* \"#utility.yul\":2873:2876   */\n          dup3\n            /* \"#utility.yul\":2866:2903   */\n          mstore\n            /* \"#utility.yul\":2791:2909   */\n          pop\n          pop\n          jump\t// out\n            /* \"#utility.yul\":2915:3137   */\n        tag_39:\n            /* \"#utility.yul\":3008:3012   */\n          0x00\n            /* \"#utility.yul\":3046:3048   */\n          0x20\n            /* \"#utility.yul\":3035:3044   */\n          dup3\n            /* \"#utility.yul\":3031:3049   */\n          add\n            /* \"#utility.yul\":3023:3049   */\n          swap1\n          pop\n            /* \"#utility.yul\":3059:3130   */\n          tag_145\n            /* \"#utility.yul\":3127:3128   */\n          0x00\n            /* \"#utility.yul\":3116:3125   */\n          dup4\n            /* \"#utility.yul\":3112:3129   */\n          add\n            /* \"#utility.yul\":3103:3109   */\n          dup5\n            /* \"#utility.yul\":3059:3130   */\n          tag_104\n          jump\t// in\n        tag_145:\n            /* \"#utility.yul\":2915:3137   */\n          swap3\n          swap2\n          pop\n          pop\n          jump\t// out\n            /* \"#utility.yul\":3143:3807   */\n        tag_47:\n            /* \"#utility.yul\":3348:3352   */\n          0x00\n            /* \"#utility.yul\":3386:3389   */\n          0xa0\n            /* \"#utility.yul\":3375:3384   */\n          dup3\n            /* \"#utility.yul\":3371:3390   */\n          add\n            /* \"#utility.yul\":3363:3390   */\n          swap1\n          pop\n            /* \"#utility.yul\":3400:3471   */\n          tag_147\n            /* \"#utility.yul\":3468:3469   */\n          0x00\n            /* \"#utility.yul\":3457:3466   */\n          dup4\n            /* \"#utility.yul\":3453:3470   */\n          add\n            /* \"#utility.yul\":3444:3450   */\n          dup9\n            /* \"#utility.yul\":3400:3471   */\n          tag_104\n          jump\t// in\n        tag_147:\n            /* \"#utility.yul\":3481:3553   */\n          tag_148\n            /* \"#utility.yul\":3549:3551   */\n          0x20\n            /* \"#utility.yul\":3538:3547   */\n          dup4\n            /* \"#utility.yul\":3534:3552   */\n          add\n            /* \"#utility.yul\":3525:3531   */\n          dup8\n            /* \"#utility.yul\":3481:3553   */\n          tag_103\n          jump\t// in\n        tag_148:\n            /* \"#utility.yul\":3563:3635   */\n          tag_149\n            /* \"#utility.yul\":3631:3633   */\n          0x40\n            /* \"#utility.yul\":3620:3629   */\n          dup4\n            /* \"#utility.yul\":3616:3634   */\n          add\n            /* \"#utility.yul\":3607:3613   */\n          dup7\n            /* \"#utility.yul\":3563:3635   */\n          tag_103\n          jump\t// in\n        tag_149:\n            /* \"#utility.yul\":3645:3717   */\n          tag_150\n            /* \"#utility.yul\":3713:3715   */\n          0x60\n            /* \"#utility.yul\":3702:3711   */\n          dup4\n            /* \"#utility.yul\":3698:3716   */\n          add\n            /* \"#utility.yul\":3689:3695   */\n          dup6\n            /* \"#utility.yul\":3645:3717   */\n          tag_103\n          jump\t// in\n        tag_150:\n            /* \"#utility.yul\":3727:3800   */\n          tag_151\n            /* \"#utility.yul\":3795:3798   */\n          0x80\n            /* \"#utility.yul\":3784:3793   */\n          dup4\n            /* \"#utility.yul\":3780:3799   */\n          add\n            /* \"#utility.yul\":3771:3777   */\n          dup5\n            /* \"#utility.yul\":3727:3800   */\n          tag_103\n          jump\t// in\n        tag_151:\n            /* \"#utility.yul\":3143:3807   */\n          swap7\n          swap6\n          pop\n          pop\n          pop\n          pop\n          pop\n          pop\n          jump\t// out\n            /* \"#utility.yul\":3813:3993   */\n        tag_105:\n            /* \"#utility.yul\":3861:3938   */\n          0x4e487b7100000000000000000000000000000000000000000000000000000000\n            /* \"#utility.yul\":3858:3859   */\n          0x00\n            /* \"#utility.yul\":3851:3939   */\n          mstore\n            /* \"#utility.yul\":3958:3962   */\n          0x11\n            /* \"#utility.yul\":3955:3956   */\n          0x04\n            /* \"#utility.yul\":3948:3963   */\n          mstore\n            /* \"#utility.yul\":3982:3986   */\n          0x24\n            /* \"#utility.yul\":3979:3980   */\n          0x00\n            /* \"#utility.yul\":3972:3987   */\n          revert\n            /* \"#utility.yul\":3999:4170   */\n        tag_72:\n            /* \"#utility.yul\":4038:4041   */\n          0x00\n            /* \"#utility.yul\":4061:4085   */\n          tag_154\n            /* \"#utility.yul\":4079:4084   */\n          dup3\n            /* \"#utility.yul\":4061:4085   */\n          tag_100\n          jump\t// in\n        tag_154:\n            /* \"#utility.yul\":4052:4085   */\n          swap2\n          pop\n            /* \"#utility.yul\":4107:4111   */\n          0x00\n            /* \"#utility.yul\":4100:4105   */\n          dup3\n            /* \"#utility.yul\":4097:4112   */\n          eq\n            /* \"#utility.yul\":4094:4135   */\n          iszero\n          tag_155\n          jumpi\n            /* \"#utility.yul\":4115:4133   */\n          tag_156\n          tag_105\n          jump\t// in\n        tag_156:\n            /* \"#utility.yul\":4094:4135   */\n        tag_155:\n            /* \"#utility.yul\":4162:4163   */\n          0x01\n            /* \"#utility.yul\":4155:4160   */\n          dup3\n            /* \"#utility.yul\":4151:4164   */\n          sub\n            /* \"#utility.yul\":4144:4164   */\n          swap1\n          pop\n            /* \"#utility.yul\":3999:4170   */\n          swap2\n          swap1\n          pop\n          jump\t// out\n            /* \"#utility.yul\":4176:4409   */\n        tag_82:\n            /* \"#utility.yul\":4215:4218   */\n          0x00\n            /* \"#utility.yul\":4238:4262   */\n          tag_158\n            /* \"#utility.yul\":4256:4261   */\n          dup3\n            /* \"#utility.yul\":4238:4262   */\n          tag_100\n          jump\t// in\n        tag_158:\n            /* \"#utility.yul\":4229:4262   */\n          swap2\n          pop\n            /* \"#utility.yul\":4284:4350   */\n          0xffffffffffffffffffffffffffffffffffffffffffffffffffffffffffffffff\n            /* \"#utility.yul\":4277:4282   */\n          dup3\n            /* \"#utility.yul\":4274:4351   */\n          eq\n            /* \"#utility.yul\":4271:4374   */\n          iszero\n          tag_159\n          jumpi\n            /* \"#utility.yul\":4354:4372   */\n          tag_160\n          tag_105\n          jump\t// in\n        tag_160:\n            /* \"#utility.yul\":4271:4374   */\n        tag_159:\n            /* \"#utility.yul\":4401:4402   */\n          0x01\n            /* \"#utility.yul\":4394:4399   */\n          dup3\n            /* \"#utility.yul\":4390:4403   */\n          add\n            /* \"#utility.yul\":4383:4403   */\n          swap1\n          pop\n            /* \"#utility.yul\":4176:4409   */\n          swap2\n          swap1\n          pop\n          jump\t// out\n\n        auxdata: 0xa264697066735822122047efaa3ac1347b01f95836c6072ad459d3d3b128912028ecd36b7218de40791e64736f6c634300080a0033\n    }\n}\n\nsub_3: assembly {\n        /* \"devs/TokenManager.sol\":843:3289   */\n      mstore(0x40, 0x80)\n        /* \"devs/TokenManager.sol\":1232:1343   */\n      callvalue\n      dup1\n      iszero\n      tag_1\n      jumpi\n      0x00\n      dup1\n      revert\n    tag_1:\n      pop\n      mload(0x40)\n      sub(codesize, bytecodeSize)\n      dup1\n      bytecodeSize\n      dup4\n      codecopy\n      dup2\n      dup2\n      add\n      0x40\n      mstore\n      dup2\n      add\n      swap1\n      tag_2\n      swap2\n      swap1\n      tag_3\n      jump\t// in\n    tag_2:\n        /* \"devs/TokenManager.sol\":1285:1298   */\n      dup1\n        /* \"devs/TokenManager.sol\":1277:1282   */\n      0x00\n      dup1\n        /* \"devs/TokenManager.sol\":1277:1298   */\n      0x0100\n      exp\n      dup2\n      sload\n      dup2\n      0xffffffffffffffffffffffffffffffffffffffff\n      mul\n      not\n      and\n      swap1\n      dup4\n      0xffffffffffffffffffffffffffffffffffffffff\n      and\n      mul\n      or\n      swap1\n      sstore\n      pop\n        /* \"devs/TokenManager.sol\":1326:1336   */\n      caller\n        /* \"devs/TokenManager.sol\":1308:1323   */\n      0x01\n      0x00\n        /* \"devs/TokenManager.sol\":1308:1336   */\n      0x0100\n      exp\n      dup2\n      sload\n      dup2\n      0xffffffffffffffffffffffffffffffffffffffff\n      mul\n      not\n      and\n      swap1\n      dup4\n      0xffffffffffffffffffffffffffffffffffffffff\n      and\n      mul\n      or\n      swap1\n      sstore\n      pop\n        /* \"devs/TokenManager.sol\":1232:1343   */\n      pop\n        /* \"devs/TokenManager.sol\":843:3289   */\n      jump(tag_6)\n        /* \"#utility.yul\":88:205   */\n    tag_8:\n        /* \"#utility.yul\":197:198   */\n      0x00\n        /* \"#utility.yul\":194:195   */\n      dup1\n        /* \"#utility.yul\":187:199   */\n      revert\n        /* \"#utility.yul\":334:460   */\n    tag_10:\n        /* \"#utility.yul\":371:378   */\n      0x00\n        /* \"#utility.yul\":411:453   */\n      0xffffffffffffffffffffffffffffffffffffffff\n        /* \"#utility.yul\":404:409   */\n      dup3\n        /* \"#utility.yul\":400:454   */\n      and\n        /* \"#utility.yul\":389:454   */\n      swap1\n      pop\n        /* \"#utility.yul\":334:460   */\n      swap2\n      swap1\n      pop\n      jump\t// out\n        /* \"#utility.yul\":466:562   */\n    tag_11:\n        /* \"#utility.yul\":503:510   */\n      0x00\n        /* \"#utility.yul\":532:556   */\n      tag_20\n        /* \"#utility.yul\":550:555   */\n      dup3\n        /* \"#utility.yul\":532:556   */\n      tag_10\n      jump\t// in\n    tag_20:\n        /* \"#utility.yul\":521:556   */\n      swap1\n      pop\n        /* \"#utility.yul\":466:562   */\n      swap2\n      swap1\n      pop\n      jump\t// out\n        /* \"#utility.yul\":568:690   */\n    tag_12:\n        /* \"#utility.yul\":641:665   */\n      tag_22\n        /* \"#utility.yul\":659:664   */\n      dup2\n        /* \"#utility.yul\":641:665   */\n      tag_11\n      jump\t// in\n    tag_22:\n        /* \"#utility.yul\":634:639   */\n      dup2\n        /* \"#utility.yul\":631:666   */\n      eq\n        /* \"#utility.yul\":621:684   */\n      tag_23\n      jumpi\n        /* \"#utility.yul\":680:681   */\n      0x00\n        /* \"#utility.yul\":677:678   */\n      dup1\n        /* \"#utility.yul\":670:682   */\n      revert\n        /* \"#utility.yul\":621:684   */\n    tag_23:\n        /* \"#utility.yul\":568:690   */\n      pop\n      jump\t// out\n        /* \"#utility.yul\":696:839   */\n    tag_13:\n        /* \"#utility.yul\":753:758   */\n      0x00\n        /* \"#utility.yul\":784:790   */\n      dup2\n        /* \"#utility.yul\":778:791   */\n      mload\n        /* \"#utility.yul\":769:791   */\n      swap1\n      pop\n        /* \"#utility.yul\":800:833   */\n      tag_25\n        /* \"#utility.yul\":827:832   */\n      dup2\n        /* \"#utility.yul\":800:833   */\n      tag_12\n      jump\t// in\n    tag_25:\n        /* \"#utility.yul\":696:839   */\n      swap3\n      swap2\n      pop\n      pop\n      jump\t// out\n        /* \"#utility.yul\":845:1196   */\n    tag_3:\n        /* \"#utility.yul\":915:921   */\n      0x00\n        /* \"#utility.yul\":964:966   */\n      0x20\n        /* \"#utility.yul\":952:961   */\n      dup3\n        /* \"#utility.yul\":943:950   */\n      dup5\n        /* \"#utility.yul\":939:962   */\n      sub\n        /* \"#utility.yul\":935:967   */\n      slt\n        /* \"#utility.yul\":932:1051   */\n      iszero\n      tag_27\n      jumpi\n        /* \"#utility.yul\":970:1049   */\n      tag_28\n      tag_8\n      jump\t// in\n    tag_28:\n        /* \"#utility.yul\":932:1051   */\n    tag_27:\n        /* \"#utility.yul\":1090:1091   */\n      0x00\n        /* \"#utility.yul\":1115:1179   */\n      tag_29\n        /* \"#utility.yul\":1171:1178   */\n      dup5\n        /* \"#utility.yul\":1162:1168   */\n      dup3\n        /* \"#utility.yul\":1151:1160   */\n      dup6\n        /* \"#utility.yul\":1147:1169   */\n      add\n        /* \"#utility.yul\":1115:1179   */\n      tag_13\n      jump\t// in\n    tag_29:\n        /* \"#utility.yul\":1105:1179   */\n      swap2\n      pop\n        /* \"#utility.yul\":1061:1189   */\n      pop\n        /* \"#utility.yul\":845:1196   */\n      swap3\n      swap2\n      pop\n      pop\n      jump\t// out\n        /* \"devs/TokenManager.sol\":843:3289   */\n    tag_6:\n      dataSize(sub_0)\n      dup1\n      dataOffset(sub_0)\n      0x00\n      codecopy\n      0x00\n      return\n    stop\n\n    sub_0: assembly {\n            /* \"devs/TokenManager.sol\":843:3289   */\n          mstore(0x40, 0x80)\n          callvalue\n          dup1\n          iszero\n          tag_1\n          jumpi\n          0x00\n          dup1\n          revert\n        tag_1:\n          pop\n          jumpi(tag_2, lt(calldatasize, 0x04))\n          shr(0xe0, calldataload(0x00))\n          dup1\n          0x921c47b1\n          gt\n          tag_14\n          jumpi\n          dup1\n          0x921c47b1\n          eq\n          tag_8\n          jumpi\n          dup1\n          0xa46d8ac7\n          eq\n          tag_9\n          jumpi\n          dup1\n          0xab21a2be\n          eq\n          tag_10\n          jumpi\n          dup1\n          0xca5140c9\n          eq\n          tag_11\n          jumpi\n          dup1\n          0xef228c92\n          eq\n          tag_12\n          jumpi\n          dup1\n          0xf6b4dfb4\n          eq\n          tag_13\n          jumpi\n          jump(tag_2)\n        tag_14:\n          dup1\n          0x1ce06944\n          eq\n          tag_3\n          jumpi\n          dup1\n          0x67615ad5\n          eq\n          tag_4\n          jumpi\n          dup1\n          0x83b65cb4\n          eq\n          tag_5\n          jumpi\n          dup1\n          0x8da5cb5b\n          eq\n          tag_6\n          jumpi\n          dup1\n          0x8dbbfbde\n          eq\n          tag_7\n          jumpi\n        tag_2:\n          0x00\n          dup1\n          revert\n            /* \"devs/TokenManager.sol\":2951:3112   */\n        tag_3:\n          tag_15\n          0x04\n          dup1\n          calldatasize\n          sub\n          dup2\n          add\n          swap1\n          tag_16\n          swap2\n          swap1\n          tag_17\n          jump\t// in\n        tag_16:\n          tag_18\n          jump\t// in\n        tag_15:\n          mload(0x40)\n          tag_19\n          swap2\n          swap1\n          tag_20\n          jump\t// in\n        tag_19:\n          mload(0x40)\n          dup1\n          swap2\n          sub\n          swap1\n          return\n            /* \"devs/TokenManager.sol\":3118:3286   */\n        tag_4:\n          tag_21\n          0x04\n          dup1\n          calldatasize\n          sub\n          dup2\n          add\n          swap1\n          tag_22\n          swap2\n          swap1\n          tag_17\n          jump\t// in\n        tag_22:\n          tag_23\n          jump\t// in\n        tag_21:\n          mload(0x40)\n          tag_24\n          swap2\n          swap1\n          tag_20\n          jump\t// in\n        tag_24:\n          mload(0x40)\n          dup1\n          swap2\n          sub\n          swap1\n          return\n            /* \"devs/TokenManager.sol\":989:1033   */\n        tag_5:\n          tag_25\n          0x04\n          dup1\n          calldatasize\n          sub\n          dup2\n          add\n          swap1\n          tag_26\n          swap2\n          swap1\n          tag_17\n          jump\t// in\n        tag_26:\n          tag_27\n          jump\t// in\n        tag_25:\n          mload(0x40)\n          tag_28\n          swap8\n          swap7\n          swap6\n          swap5\n          swap4\n          swap3\n          swap2\n          swap1\n          tag_29\n          jump\t// in\n        tag_28:\n          mload(0x40)\n          dup1\n          swap2\n          sub\n          swap1\n          return\n            /* \"devs/TokenManager.sol\":896:916   */\n        tag_6:\n          tag_30\n          tag_31\n          jump\t// in\n        tag_30:\n          mload(0x40)\n          tag_32\n          swap2\n          swap1\n          tag_33\n          jump\t// in\n        tag_32:\n          mload(0x40)\n          dup1\n          swap2\n          sub\n          swap1\n          return\n            /* \"devs/TokenManager.sol\":2276:2521   */\n        tag_7:\n          tag_34\n          0x04\n          dup1\n          calldatasize\n          sub\n          dup2\n          add\n          swap1\n          tag_35\n          swap2\n          swap1\n          tag_36\n          jump\t// in\n        tag_35:\n          tag_37\n          jump\t// in\n        tag_34:\n          stop\n            /* \"devs/TokenManager.sol\":959:983   */\n        tag_8:\n          tag_38\n          tag_39\n          jump\t// in\n        tag_38:\n          mload(0x40)\n          tag_40\n          swap2\n          swap1\n          tag_20\n          jump\t// in\n        tag_40:\n          mload(0x40)\n          dup1\n          swap2\n          sub\n          swap1\n          return\n            /* \"devs/TokenManager.sol\":1439:1951   */\n        tag_9:\n          tag_41\n          0x04\n          dup1\n          calldatasize\n          sub\n          dup2\n          add\n          swap1\n          tag_42\n          swap2\n          swap1\n          tag_43\n          jump\t// in\n        tag_42:\n          tag_44\n          jump\t// in\n        tag_41:\n          mload(0x40)\n          tag_45\n          swap2\n          swap1\n          tag_20\n          jump\t// in\n        tag_45:\n          mload(0x40)\n          dup1\n          swap2\n          sub\n          swap1\n          return\n            /* \"devs/TokenManager.sol\":2527:2723   */\n        tag_10:\n          tag_46\n          0x04\n          dup1\n          calldatasize\n          sub\n          dup2\n          add\n          swap1\n          tag_47\n          swap2\n          swap1\n          tag_48\n          jump\t// in\n        tag_47:\n          tag_49\n          jump\t// in\n        tag_46:\n          stop\n            /* \"devs/TokenManager.sol\":2729:2919   */\n        tag_11:\n          tag_50\n          0x04\n          dup1\n          calldatasize\n          sub\n          dup2\n          add\n          swap1\n          tag_51\n          swap2\n          swap1\n          tag_17\n          jump\t// in\n        tag_51:\n          tag_52\n          jump\t// in\n        tag_50:\n          stop\n            /* \"devs/TokenManager.sol\":2056:2270   */\n        tag_12:\n          tag_53\n          0x04\n          dup1\n          calldatasize\n          sub\n          dup2\n          add\n          swap1\n          tag_54\n          swap2\n          swap1\n          tag_55\n          jump\t// in\n        tag_54:\n          tag_56\n          jump\t// in\n        tag_53:\n          stop\n            /* \"devs/TokenManager.sol\":922:952   */\n        tag_13:\n          tag_57\n          tag_58\n          jump\t// in\n        tag_57:\n          mload(0x40)\n          tag_59\n          swap2\n          swap1\n          tag_33\n          jump\t// in\n        tag_59:\n          mload(0x40)\n          dup1\n          swap2\n          sub\n          swap1\n          return\n            /* \"devs/TokenManager.sol\":2951:3112   */\n        tag_18:\n            /* \"devs/TokenManager.sol\":3010:3014   */\n          0x00\n            /* \"devs/TokenManager.sol\":3025:3051   */\n          dup1\n            /* \"devs/TokenManager.sol\":3054:3064   */\n          0x03\n            /* \"devs/TokenManager.sol\":3054:3074   */\n          0x00\n            /* \"devs/TokenManager.sol\":3065:3073   */\n          dup5\n            /* \"devs/TokenManager.sol\":3054:3074   */\n          dup2\n          mstore\n          0x20\n          add\n          swap1\n          dup2\n          mstore\n          0x20\n          add\n          0x00\n          keccak256\n            /* \"devs/TokenManager.sol\":3025:3074   */\n          mload(0x40)\n          dup1\n          0xe0\n          add\n          0x40\n          mstore\n          swap1\n          dup2\n          0x00\n          dup3\n          add\n          sload\n          dup2\n          mstore\n          0x20\n          add\n          0x01\n          dup3\n          add\n          0x00\n          swap1\n          sload\n          swap1\n          0x0100\n          exp\n          swap1\n          div\n          0xffffffffffffffffffffffffffffffffffffffff\n          and\n          0xffffffffffffffffffffffffffffffffffffffff\n          and\n          0xffffffffffffffffffffffffffffffffffffffff\n          and\n          dup2\n          mstore\n          0x20\n          add\n          0x02\n          dup3\n          add\n          sload\n          dup2\n          mstore\n          0x20\n          add\n          0x03\n          dup3\n          add\n          0x00\n          swap1\n          sload\n          swap1\n          0x0100\n          exp\n          swap1\n          div\n          0xffffffffffffffffffffffffffffffffffffffff\n          and\n          0xffffffffffffffffffffffffffffffffffffffff\n          and\n          0xffffffffffffffffffffffffffffffffffffffff\n          and\n          dup2\n          mstore\n          0x20\n          add\n          0x03\n          dup3\n          add\n          0x14\n          swap1\n          sload\n          swap1\n          0x0100\n          exp\n          swap1\n          div\n          0xff\n          and\n          iszero\n          iszero\n          iszero\n          iszero\n          dup2\n          mstore\n          0x20\n          add\n          0x04\n          dup3\n          add\n          sload\n          dup2\n          mstore\n          0x20\n          add\n          0x05\n          dup3\n          add\n          sload\n          dup2\n          mstore\n          pop\n          pop\n          swap1\n          pop\n            /* \"devs/TokenManager.sol\":3091:3100   */\n          dup1\n            /* \"devs/TokenManager.sol\":3091:3105   */\n          0xc0\n          add\n          mload\n            /* \"devs/TokenManager.sol\":3084:3105   */\n          swap2\n          pop\n          pop\n            /* \"devs/TokenManager.sol\":2951:3112   */\n          swap2\n          swap1\n          pop\n          jump\t// out\n            /* \"devs/TokenManager.sol\":3118:3286   */\n        tag_23:\n            /* \"devs/TokenManager.sol\":3179:3183   */\n          0x00\n            /* \"devs/TokenManager.sol\":3194:3220   */\n          dup1\n            /* \"devs/TokenManager.sol\":3223:3233   */\n          0x03\n            /* \"devs/TokenManager.sol\":3223:3243   */\n          0x00\n            /* \"devs/TokenManager.sol\":3234:3242   */\n          dup5\n            /* \"devs/TokenManager.sol\":3223:3243   */\n          dup2\n          mstore\n          0x20\n          add\n          swap1\n          dup2\n          mstore\n          0x20\n          add\n          0x00\n          keccak256\n            /* \"devs/TokenManager.sol\":3194:3243   */\n          mload(0x40)\n          dup1\n          0xe0\n          add\n          0x40\n          mstore\n          swap1\n          dup2\n          0x00\n          dup3\n          add\n          sload\n          dup2\n          mstore\n          0x20\n          add\n          0x01\n          dup3\n          add\n          0x00\n          swap1\n          sload\n          swap1\n          0x0100\n          exp\n          swap1\n          div\n          0xffffffffffffffffffffffffffffffffffffffff\n          and\n          0xffffffffffffffffffffffffffffffffffffffff\n          and\n          0xffffffffffffffffffffffffffffffffffffffff\n          and\n          dup2\n          mstore\n          0x20\n          add\n          0x02\n          dup3\n          add\n          sload\n          dup2\n          mstore\n          0x20\n          add\n          0x03\n          dup3\n          add\n          0x00\n          swap1\n          sload\n          swap1\n          0x0100\n          exp\n          swap1\n          div\n          0xffffffffffffffffffffffffffffffffffffffff\n          and\n          0xffffffffffffffffffffffffffffffffffffffff\n          and\n          0xffffffffffffffffffffffffffffffffffffffff\n          and\n          dup2\n          mstore\n          0x20\n          add\n          0x03\n          dup3\n          add\n          0x14\n          swap1\n          sload\n          swap1\n          0x0100\n          exp\n          swap1\n          div\n          0xff\n          and\n          iszero\n          iszero\n          iszero\n          iszero\n          dup2\n          mstore\n          0x20\n          add\n          0x04\n          dup3\n          add\n          sload\n          dup2\n          mstore\n          0x20\n          add\n          0x05\n          dup3\n          add\n          sload\n          dup2\n          mstore\n          pop\n          pop\n          swap1\n          pop\n            /* \"devs/TokenManager.sol\":3260:3269   */\n          dup1\n            /* \"devs/TokenManager.sol\":3260:3279   */\n          0x40\n          add\n          mload\n            /* \"devs/TokenManager.sol\":3253:3279   */\n          swap2\n          pop\n          pop\n            /* \"devs/TokenManager.sol\":3118:3286   */\n          swap2\n          swap1\n          pop\n          jump\t// out\n            /* \"devs/TokenManager.sol\":989:1033   */\n        tag_27:\n          mstore(0x20, 0x03)\n          dup1\n          0x00\n          mstore\n          keccak256(0x00, 0x40)\n          0x00\n          swap2\n          pop\n          swap1\n          pop\n          dup1\n          0x00\n          add\n          sload\n          swap1\n          dup1\n          0x01\n          add\n          0x00\n          swap1\n          sload\n          swap1\n          0x0100\n          exp\n          swap1\n          div\n          0xffffffffffffffffffffffffffffffffffffffff\n          and\n          swap1\n          dup1\n          0x02\n          add\n          sload\n          swap1\n          dup1\n          0x03\n          add\n          0x00\n          swap1\n          sload\n          swap1\n          0x0100\n          exp\n          swap1\n          div\n          0xffffffffffffffffffffffffffffffffffffffff\n          and\n          swap1\n          dup1\n          0x03\n          add\n          0x14\n          swap1\n          sload\n          swap1\n          0x0100\n          exp\n          swap1\n          div\n          0xff\n          and\n          swap1\n          dup1\n          0x04\n          add\n          sload\n          swap1\n          dup1\n          0x05\n          add\n          sload\n          swap1\n          pop\n          dup8\n          jump\t// out\n            /* \"devs/TokenManager.sol\":896:916   */\n        tag_31:\n          0x00\n          dup1\n          sload\n          swap1\n          0x0100\n          exp\n          swap1\n          div\n          0xffffffffffffffffffffffffffffffffffffffff\n          and\n          dup2\n          jump\t// out\n            /* \"devs/TokenManager.sol\":2276:2521   */\n        tag_37:\n            /* \"devs/TokenManager.sol\":2366:2374   */\n          dup3\n            /* \"devs/TokenManager.sol\":1195:1207   */\n          sload(0x02)\n            /* \"devs/TokenManager.sol\":1185:1192   */\n          dup2\n            /* \"devs/TokenManager.sol\":1185:1207   */\n          lt\n            /* \"devs/TokenManager.sol\":1177:1208   */\n          tag_63\n          jumpi\n          0x00\n          dup1\n          revert\n        tag_63:\n            /* \"devs/TokenManager.sol\":1098:1108   */\n          caller\n            /* \"devs/TokenManager.sol\":1079:1108   */\n          0xffffffffffffffffffffffffffffffffffffffff\n          and\n            /* \"devs/TokenManager.sol\":1079:1094   */\n          0x01\n          0x00\n          swap1\n          sload\n          swap1\n          0x0100\n          exp\n          swap1\n          div\n          0xffffffffffffffffffffffffffffffffffffffff\n          and\n            /* \"devs/TokenManager.sol\":1079:1108   */\n          0xffffffffffffffffffffffffffffffffffffffff\n          and\n          eq\n            /* \"devs/TokenManager.sol\":1071:1109   */\n          tag_65\n          jumpi\n          0x00\n          dup1\n          revert\n        tag_65:\n            /* \"devs/TokenManager.sol\":2396:2423   */\n          0x00\n            /* \"devs/TokenManager.sol\":2426:2436   */\n          0x03\n            /* \"devs/TokenManager.sol\":2426:2446   */\n          0x00\n            /* \"devs/TokenManager.sol\":2437:2445   */\n          dup7\n            /* \"devs/TokenManager.sol\":2426:2446   */\n          dup2\n          mstore\n          0x20\n          add\n          swap1\n          dup2\n          mstore\n          0x20\n          add\n          0x00\n          keccak256\n            /* \"devs/TokenManager.sol\":2396:2446   */\n          swap1\n          pop\n            /* \"devs/TokenManager.sol\":2475:2482   */\n          dup4\n            /* \"devs/TokenManager.sol\":2456:2465   */\n          dup2\n            /* \"devs/TokenManager.sol\":2456:2472   */\n          0x04\n          add\n            /* \"devs/TokenManager.sol\":2456:2482   */\n          dup2\n          swap1\n          sstore\n          pop\n            /* \"devs/TokenManager.sol\":2509:2514   */\n          dup3\n            /* \"devs/TokenManager.sol\":2492:2501   */\n          dup2\n            /* \"devs/TokenManager.sol\":2492:2506   */\n          0x05\n          add\n            /* \"devs/TokenManager.sol\":2492:2514   */\n          dup2\n          swap1\n          sstore\n          pop\n            /* \"devs/TokenManager.sol\":2386:2521   */\n          pop\n            /* \"devs/TokenManager.sol\":2276:2521   */\n          pop\n          pop\n          pop\n          pop\n          jump\t// out\n            /* \"devs/TokenManager.sol\":959:983   */\n        tag_39:\n          sload(0x02)\n          dup2\n          jump\t// out\n            /* \"devs/TokenManager.sol\":1439:1951   */\n        tag_44:\n            /* \"devs/TokenManager.sol\":1551:1555   */\n          0x00\n            /* \"devs/TokenManager.sol\":1098:1108   */\n          caller\n            /* \"devs/TokenManager.sol\":1079:1108   */\n          0xffffffffffffffffffffffffffffffffffffffff\n          and\n            /* \"devs/TokenManager.sol\":1079:1094   */\n          0x01\n          0x00\n          swap1\n          sload\n          swap1\n          0x0100\n          exp\n          swap1\n          div\n          0xffffffffffffffffffffffffffffffffffffffff\n          and\n            /* \"devs/TokenManager.sol\":1079:1108   */\n          0xffffffffffffffffffffffffffffffffffffffff\n          and\n          eq\n            /* \"devs/TokenManager.sol\":1071:1109   */\n          tag_68\n          jumpi\n          0x00\n          dup1\n          revert\n        tag_68:\n            /* \"devs/TokenManager.sol\":1566:1593   */\n          0x00\n            /* \"devs/TokenManager.sol\":1596:1606   */\n          0x03\n            /* \"devs/TokenManager.sol\":1596:1620   */\n          0x00\n            /* \"devs/TokenManager.sol\":1607:1619   */\n          sload(0x02)\n            /* \"devs/TokenManager.sol\":1596:1620   */\n          dup2\n          mstore\n          0x20\n          add\n          swap1\n          dup2\n          mstore\n          0x20\n          add\n          0x00\n          keccak256\n            /* \"devs/TokenManager.sol\":1566:1620   */\n          swap1\n          pop\n            /* \"devs/TokenManager.sol\":1650:1662   */\n          sload(0x02)\n            /* \"devs/TokenManager.sol\":1630:1639   */\n          dup2\n            /* \"devs/TokenManager.sol\":1630:1647   */\n          0x00\n          add\n            /* \"devs/TokenManager.sol\":1630:1662   */\n          dup2\n          swap1\n          sstore\n          pop\n            /* \"devs/TokenManager.sol\":1694:1704   */\n          dup5\n            /* \"devs/TokenManager.sol\":1672:1681   */\n          dup2\n            /* \"devs/TokenManager.sol\":1672:1691   */\n          0x02\n          add\n            /* \"devs/TokenManager.sol\":1672:1704   */\n          dup2\n          swap1\n          sstore\n          pop\n            /* \"devs/TokenManager.sol\":1732:1739   */\n          dup6\n            /* \"devs/TokenManager.sol\":1714:1723   */\n          dup2\n            /* \"devs/TokenManager.sol\":1714:1729   */\n          0x01\n          add\n          0x00\n            /* \"devs/TokenManager.sol\":1714:1739   */\n          0x0100\n          exp\n          dup2\n          sload\n          dup2\n          0xffffffffffffffffffffffffffffffffffffffff\n          mul\n          not\n          and\n          swap1\n          dup4\n          0xffffffffffffffffffffffffffffffffffffffff\n          and\n          mul\n          or\n          swap1\n          sstore\n          pop\n            /* \"devs/TokenManager.sol\":1768:1775   */\n          dup6\n            /* \"devs/TokenManager.sol\":1749:1758   */\n          dup2\n            /* \"devs/TokenManager.sol\":1749:1765   */\n          0x03\n          add\n          0x00\n            /* \"devs/TokenManager.sol\":1749:1775   */\n          0x0100\n          exp\n          dup2\n          sload\n          dup2\n          0xffffffffffffffffffffffffffffffffffffffff\n          mul\n          not\n          and\n          swap1\n          dup4\n          0xffffffffffffffffffffffffffffffffffffffff\n          and\n          mul\n          or\n          swap1\n          sstore\n          pop\n            /* \"devs/TokenManager.sol\":1813:1818   */\n          0x00\n            /* \"devs/TokenManager.sol\":1785:1794   */\n          dup2\n            /* \"devs/TokenManager.sol\":1785:1810   */\n          0x03\n          add\n          0x14\n            /* \"devs/TokenManager.sol\":1785:1818   */\n          0x0100\n          exp\n          dup2\n          sload\n          dup2\n          0xff\n          mul\n          not\n          and\n          swap1\n          dup4\n          iszero\n          iszero\n          mul\n          or\n          swap1\n          sstore\n          pop\n            /* \"devs/TokenManager.sol\":1847:1854   */\n          dup4\n            /* \"devs/TokenManager.sol\":1828:1837   */\n          dup2\n            /* \"devs/TokenManager.sol\":1828:1844   */\n          0x04\n          add\n            /* \"devs/TokenManager.sol\":1828:1854   */\n          dup2\n          swap1\n          sstore\n          pop\n            /* \"devs/TokenManager.sol\":1881:1886   */\n          dup3\n            /* \"devs/TokenManager.sol\":1864:1873   */\n          dup2\n            /* \"devs/TokenManager.sol\":1864:1878   */\n          0x05\n          add\n            /* \"devs/TokenManager.sol\":1864:1886   */\n          dup2\n          swap1\n          sstore\n          pop\n            /* \"devs/TokenManager.sol\":1896:1908   */\n          0x02\n          0x00\n            /* \"devs/TokenManager.sol\":1896:1910   */\n          dup2\n          sload\n          dup1\n          swap3\n          swap2\n          swap1\n          tag_70\n          swap1\n          tag_71\n          jump\t// in\n        tag_70:\n          swap2\n          swap1\n          pop\n          sstore\n          pop\n            /* \"devs/TokenManager.sol\":1927:1936   */\n          dup1\n            /* \"devs/TokenManager.sol\":1927:1944   */\n          0x00\n          add\n          sload\n            /* \"devs/TokenManager.sol\":1920:1944   */\n          swap2\n          pop\n          pop\n            /* \"devs/TokenManager.sol\":1439:1951   */\n          swap5\n          swap4\n          pop\n          pop\n          pop\n          pop\n          jump\t// out\n            /* \"devs/TokenManager.sol\":2527:2723   */\n        tag_49:\n            /* \"devs/TokenManager.sol\":2600:2608   */\n          dup2\n            /* \"devs/TokenManager.sol\":1195:1207   */\n          sload(0x02)\n            /* \"devs/TokenManager.sol\":1185:1192   */\n          dup2\n            /* \"devs/TokenManager.sol\":1185:1207   */\n          lt\n            /* \"devs/TokenManager.sol\":1177:1208   */\n          tag_73\n          jumpi\n          0x00\n          dup1\n          revert\n        tag_73:\n            /* \"devs/TokenManager.sol\":1098:1108   */\n          caller\n            /* \"devs/TokenManager.sol\":1079:1108   */\n          0xffffffffffffffffffffffffffffffffffffffff\n          and\n            /* \"devs/TokenManager.sol\":1079:1094   */\n          0x01\n          0x00\n          swap1\n          sload\n          swap1\n          0x0100\n          exp\n          swap1\n          div\n          0xffffffffffffffffffffffffffffffffffffffff\n          and\n            /* \"devs/TokenManager.sol\":1079:1108   */\n          0xffffffffffffffffffffffffffffffffffffffff\n          and\n          eq\n            /* \"devs/TokenManager.sol\":1071:1109   */\n          tag_75\n          jumpi\n          0x00\n          dup1\n          revert\n        tag_75:\n            /* \"devs/TokenManager.sol\":2630:2657   */\n          0x00\n            /* \"devs/TokenManager.sol\":2660:2670   */\n          0x03\n            /* \"devs/TokenManager.sol\":2660:2680   */\n          0x00\n            /* \"devs/TokenManager.sol\":2671:2679   */\n          dup6\n            /* \"devs/TokenManager.sol\":2660:2680   */\n          dup2\n          mstore\n          0x20\n          add\n          swap1\n          dup2\n          mstore\n          0x20\n          add\n          0x00\n          keccak256\n            /* \"devs/TokenManager.sol\":2630:2680   */\n          swap1\n          pop\n            /* \"devs/TokenManager.sol\":2709:2716   */\n          dup3\n            /* \"devs/TokenManager.sol\":2690:2699   */\n          dup2\n            /* \"devs/TokenManager.sol\":2690:2706   */\n          0x03\n          add\n          0x00\n            /* \"devs/TokenManager.sol\":2690:2716   */\n          0x0100\n          exp\n          dup2\n          sload\n          dup2\n          0xffffffffffffffffffffffffffffffffffffffff\n          mul\n          not\n          and\n          swap1\n          dup4\n          0xffffffffffffffffffffffffffffffffffffffff\n          and\n          mul\n          or\n          swap1\n          sstore\n          pop\n            /* \"devs/TokenManager.sol\":2620:2723   */\n          pop\n            /* \"devs/TokenManager.sol\":2527:2723   */\n          pop\n          pop\n          pop\n          jump\t// out\n            /* \"devs/TokenManager.sol\":2729:2919   */\n        tag_52:\n            /* \"devs/TokenManager.sol\":2783:2791   */\n          dup1\n            /* \"devs/TokenManager.sol\":1195:1207   */\n          sload(0x02)\n            /* \"devs/TokenManager.sol\":1185:1192   */\n          dup2\n            /* \"devs/TokenManager.sol\":1185:1207   */\n          lt\n            /* \"devs/TokenManager.sol\":1177:1208   */\n          tag_78\n          jumpi\n          0x00\n          dup1\n          revert\n        tag_78:\n            /* \"devs/TokenManager.sol\":1098:1108   */\n          caller\n            /* \"devs/TokenManager.sol\":1079:1108   */\n          0xffffffffffffffffffffffffffffffffffffffff\n          and\n            /* \"devs/TokenManager.sol\":1079:1094   */\n          0x01\n          0x00\n          swap1\n          sload\n          swap1\n          0x0100\n          exp\n          swap1\n          div\n          0xffffffffffffffffffffffffffffffffffffffff\n          and\n            /* \"devs/TokenManager.sol\":1079:1108   */\n          0xffffffffffffffffffffffffffffffffffffffff\n          and\n          eq\n            /* \"devs/TokenManager.sol\":1071:1109   */\n          tag_80\n          jumpi\n          0x00\n          dup1\n          revert\n        tag_80:\n            /* \"devs/TokenManager.sol\":2813:2840   */\n          0x00\n            /* \"devs/TokenManager.sol\":2843:2853   */\n          0x03\n            /* \"devs/TokenManager.sol\":2843:2863   */\n          0x00\n            /* \"devs/TokenManager.sol\":2854:2862   */\n          dup5\n            /* \"devs/TokenManager.sol\":2843:2863   */\n          dup2\n          mstore\n          0x20\n          add\n          swap1\n          dup2\n          mstore\n          0x20\n          add\n          0x00\n          keccak256\n            /* \"devs/TokenManager.sol\":2813:2863   */\n          swap1\n          pop\n            /* \"devs/TokenManager.sol\":2873:2912   */\n          tag_82\n            /* \"devs/TokenManager.sol\":2886:2894   */\n          dup4\n            /* \"devs/TokenManager.sol\":2896:2905   */\n          dup3\n            /* \"devs/TokenManager.sol\":2896:2911   */\n          0x01\n          add\n          0x00\n          swap1\n          sload\n          swap1\n          0x0100\n          exp\n          swap1\n          div\n          0xffffffffffffffffffffffffffffffffffffffff\n          and\n            /* \"devs/TokenManager.sol\":2873:2885   */\n          tag_49\n            /* \"devs/TokenManager.sol\":2873:2912   */\n          jump\t// in\n        tag_82:\n            /* \"devs/TokenManager.sol\":2803:2919   */\n          pop\n            /* \"devs/TokenManager.sol\":2729:2919   */\n          pop\n          pop\n          jump\t// out\n            /* \"devs/TokenManager.sol\":2056:2270   */\n        tag_56:\n            /* \"devs/TokenManager.sol\":2138:2146   */\n          dup2\n            /* \"devs/TokenManager.sol\":1195:1207   */\n          sload(0x02)\n            /* \"devs/TokenManager.sol\":1185:1192   */\n          dup2\n            /* \"devs/TokenManager.sol\":1185:1207   */\n          lt\n            /* \"devs/TokenManager.sol\":1177:1208   */\n          tag_84\n          jumpi\n          0x00\n          dup1\n          revert\n        tag_84:\n            /* \"devs/TokenManager.sol\":1098:1108   */\n          caller\n            /* \"devs/TokenManager.sol\":1079:1108   */\n          0xffffffffffffffffffffffffffffffffffffffff\n          and\n            /* \"devs/TokenManager.sol\":1079:1094   */\n          0x01\n          0x00\n          swap1\n          sload\n          swap1\n          0x0100\n          exp\n          swap1\n          div\n          0xffffffffffffffffffffffffffffffffffffffff\n          and\n            /* \"devs/TokenManager.sol\":1079:1108   */\n          0xffffffffffffffffffffffffffffffffffffffff\n          and\n          eq\n            /* \"devs/TokenManager.sol\":1071:1109   */\n          tag_86\n          jumpi\n          0x00\n          dup1\n          revert\n        tag_86:\n            /* \"devs/TokenManager.sol\":2168:2195   */\n          0x00\n            /* \"devs/TokenManager.sol\":2198:2208   */\n          0x03\n            /* \"devs/TokenManager.sol\":2198:2218   */\n          0x00\n            /* \"devs/TokenManager.sol\":2209:2217   */\n          dup6\n            /* \"devs/TokenManager.sol\":2198:2218   */\n          dup2\n          mstore\n          0x20\n          add\n          swap1\n          dup2\n          mstore\n          0x20\n          add\n          0x00\n          keccak256\n            /* \"devs/TokenManager.sol\":2168:2218   */\n          swap1\n          pop\n            /* \"devs/TokenManager.sol\":2256:2263   */\n          dup3\n            /* \"devs/TokenManager.sol\":2228:2237   */\n          dup2\n            /* \"devs/TokenManager.sol\":2228:2253   */\n          0x03\n          add\n          0x14\n            /* \"devs/TokenManager.sol\":2228:2263   */\n          0x0100\n          exp\n          dup2\n          sload\n          dup2\n          0xff\n          mul\n          not\n          and\n          swap1\n          dup4\n          iszero\n          iszero\n          mul\n          or\n          swap1\n          sstore\n          pop\n            /* \"devs/TokenManager.sol\":2158:2270   */\n          pop\n            /* \"devs/TokenManager.sol\":2056:2270   */\n          pop\n          pop\n          pop\n          jump\t// out\n            /* \"devs/TokenManager.sol\":922:952   */\n        tag_58:\n          0x01\n          0x00\n          swap1\n          sload\n          swap1\n          0x0100\n          exp\n          swap1\n          div\n          0xffffffffffffffffffffffffffffffffffffffff\n          and\n          dup2\n          jump\t// out\n            /* \"#utility.yul\":88:205   */\n        tag_89:\n            /* \"#utility.yul\":197:198   */\n          0x00\n            /* \"#utility.yul\":194:195   */\n          dup1\n            /* \"#utility.yul\":187:199   */\n          revert\n            /* \"#utility.yul\":334:411   */\n        tag_91:\n            /* \"#utility.yul\":371:378   */\n          0x00\n            /* \"#utility.yul\":400:405   */\n          dup2\n            /* \"#utility.yul\":389:405   */\n          swap1\n          pop\n            /* \"#utility.yul\":334:411   */\n          swap2\n          swap1\n          pop\n          jump\t// out\n            /* \"#utility.yul\":417:539   */\n        tag_92:\n            /* \"#utility.yul\":490:514   */\n          tag_111\n            /* \"#utility.yul\":508:513   */\n          dup2\n            /* \"#utility.yul\":490:514   */\n          tag_91\n          jump\t// in\n        tag_111:\n            /* \"#utility.yul\":483:488   */\n          dup2\n            /* \"#utility.yul\":480:515   */\n          eq\n            /* \"#utility.yul\":470:533   */\n          tag_112\n          jumpi\n            /* \"#utility.yul\":529:530   */\n          0x00\n            /* \"#utility.yul\":526:527   */\n          dup1\n            /* \"#utility.yul\":519:531   */\n          revert\n            /* \"#utility.yul\":470:533   */\n        tag_112:\n            /* \"#utility.yul\":417:539   */\n          pop\n          jump\t// out\n            /* \"#utility.yul\":545:684   */\n        tag_93:\n            /* \"#utility.yul\":591:596   */\n          0x00\n            /* \"#utility.yul\":629:635   */\n          dup2\n            /* \"#utility.yul\":616:636   */\n          calldataload\n            /* \"#utility.yul\":607:636   */\n          swap1\n          pop\n            /* \"#utility.yul\":645:678   */\n          tag_114\n            /* \"#utility.yul\":672:677   */\n          dup2\n            /* \"#utility.yul\":645:678   */\n          tag_92\n          jump\t// in\n        tag_114:\n            /* \"#utility.yul\":545:684   */\n          swap3\n          swap2\n          pop\n          pop\n          jump\t// out\n            /* \"#utility.yul\":690:1019   */\n        tag_17:\n            /* \"#utility.yul\":749:755   */\n          0x00\n            /* \"#utility.yul\":798:800   */\n          0x20\n            /* \"#utility.yul\":786:795   */\n          dup3\n            /* \"#utility.yul\":777:784   */\n          dup5\n            /* \"#utility.yul\":773:796   */\n          sub\n            /* \"#utility.yul\":769:801   */\n          slt\n            /* \"#utility.yul\":766:885   */\n          iszero\n          tag_116\n          jumpi\n            /* \"#utility.yul\":804:883   */\n          tag_117\n          tag_89\n          jump\t// in\n        tag_117:\n            /* \"#utility.yul\":766:885   */\n        tag_116:\n            /* \"#utility.yul\":924:925   */\n          0x00\n            /* \"#utility.yul\":949:1002   */\n          tag_118\n            /* \"#utility.yul\":994:1001   */\n          dup5\n            /* \"#utility.yul\":985:991   */\n          dup3\n            /* \"#utility.yul\":974:983   */\n          dup6\n            /* \"#utility.yul\":970:992   */\n          add\n            /* \"#utility.yul\":949:1002   */\n          tag_93\n          jump\t// in\n        tag_118:\n            /* \"#utility.yul\":939:1002   */\n          swap2\n          pop\n            /* \"#utility.yul\":895:1012   */\n          pop\n            /* \"#utility.yul\":690:1019   */\n          swap3\n          swap2\n          pop\n          pop\n          jump\t// out\n            /* \"#utility.yul\":1025:1143   */\n        tag_94:\n            /* \"#utility.yul\":1112:1136   */\n          tag_120\n            /* \"#utility.yul\":1130:1135   */\n          dup2\n            /* \"#utility.yul\":1112:1136   */\n          tag_91\n          jump\t// in\n        tag_120:\n            /* \"#utility.yul\":1107:1110   */\n          dup3\n            /* \"#utility.yul\":1100:1137   */\n          mstore\n            /* \"#utility.yul\":1025:1143   */\n          pop\n          pop\n          jump\t// out\n            /* \"#utility.yul\":1149:1371   */\n        tag_20:\n            /* \"#utility.yul\":1242:1246   */\n          0x00\n            /* \"#utility.yul\":1280:1282   */\n          0x20\n            /* \"#utility.yul\":1269:1278   */\n          dup3\n            /* \"#utility.yul\":1265:1283   */\n          add\n            /* \"#utility.yul\":1257:1283   */\n          swap1\n          pop\n            /* \"#utility.yul\":1293:1364   */\n          tag_122\n            /* \"#utility.yul\":1361:1362   */\n          0x00\n            /* \"#utility.yul\":1350:1359   */\n          dup4\n            /* \"#utility.yul\":1346:1363   */\n          add\n            /* \"#utility.yul\":1337:1343   */\n          dup5\n            /* \"#utility.yul\":1293:1364   */\n          tag_94\n          jump\t// in\n        tag_122:\n            /* \"#utility.yul\":1149:1371   */\n          swap3\n          swap2\n          pop\n          pop\n          jump\t// out\n            /* \"#utility.yul\":1377:1503   */\n        tag_95:\n            /* \"#utility.yul\":1414:1421   */\n          0x00\n            /* \"#utility.yul\":1454:1496   */\n          0xffffffffffffffffffffffffffffffffffffffff\n            /* \"#utility.yul\":1447:1452   */\n          dup3\n            /* \"#utility.yul\":1443:1497   */\n          and\n            /* \"#utility.yul\":1432:1497   */\n          swap1\n          pop\n            /* \"#utility.yul\":1377:1503   */\n          swap2\n          swap1\n          pop\n          jump\t// out\n            /* \"#utility.yul\":1509:1605   */\n        tag_96:\n            /* \"#utility.yul\":1546:1553   */\n          0x00\n            /* \"#utility.yul\":1575:1599   */\n          tag_125\n            /* \"#utility.yul\":1593:1598   */\n          dup3\n            /* \"#utility.yul\":1575:1599   */\n          tag_95\n          jump\t// in\n        tag_125:\n            /* \"#utility.yul\":1564:1599   */\n          swap1\n          pop\n            /* \"#utility.yul\":1509:1605   */\n          swap2\n          swap1\n          pop\n          jump\t// out\n            /* \"#utility.yul\":1611:1729   */\n        tag_97:\n            /* \"#utility.yul\":1698:1722   */\n          tag_127\n            /* \"#utility.yul\":1716:1721   */\n          dup2\n            /* \"#utility.yul\":1698:1722   */\n          tag_96\n          jump\t// in\n        tag_127:\n            /* \"#utility.yul\":1693:1696   */\n          dup3\n            /* \"#utility.yul\":1686:1723   */\n          mstore\n            /* \"#utility.yul\":1611:1729   */\n          pop\n          pop\n          jump\t// out\n            /* \"#utility.yul\":1735:1825   */\n        tag_98:\n            /* \"#utility.yul\":1769:1776   */\n          0x00\n            /* \"#utility.yul\":1812:1817   */\n          dup2\n            /* \"#utility.yul\":1805:1818   */\n          iszero\n            /* \"#utility.yul\":1798:1819   */\n          iszero\n            /* \"#utility.yul\":1787:1819   */\n          swap1\n          pop\n            /* \"#utility.yul\":1735:1825   */\n          swap2\n          swap1\n          pop\n          jump\t// out\n            /* \"#utility.yul\":1831:1940   */\n        tag_99:\n            /* \"#utility.yul\":1912:1933   */\n          tag_130\n            /* \"#utility.yul\":1927:1932   */\n          dup2\n            /* \"#utility.yul\":1912:1933   */\n          tag_98\n          jump\t// in\n        tag_130:\n            /* \"#utility.yul\":1907:1910   */\n          dup3\n            /* \"#utility.yul\":1900:1934   */\n          mstore\n            /* \"#utility.yul\":1831:1940   */\n          pop\n          pop\n          jump\t// out\n            /* \"#utility.yul\":1946:2820   */\n        tag_29:\n            /* \"#utility.yul\":2201:2205   */\n          0x00\n            /* \"#utility.yul\":2239:2242   */\n          0xe0\n            /* \"#utility.yul\":2228:2237   */\n          dup3\n            /* \"#utility.yul\":2224:2243   */\n          add\n            /* \"#utility.yul\":2216:2243   */\n          swap1\n          pop\n            /* \"#utility.yul\":2253:2324   */\n          tag_132\n            /* \"#utility.yul\":2321:2322   */\n          0x00\n            /* \"#utility.yul\":2310:2319   */\n          dup4\n            /* \"#utility.yul\":2306:2323   */\n          add\n            /* \"#utility.yul\":2297:2303   */\n          dup11\n            /* \"#utility.yul\":2253:2324   */\n          tag_94\n          jump\t// in\n        tag_132:\n            /* \"#utility.yul\":2334:2406   */\n          tag_133\n            /* \"#utility.yul\":2402:2404   */\n          0x20\n            /* \"#utility.yul\":2391:2400   */\n          dup4\n            /* \"#utility.yul\":2387:2405   */\n          add\n            /* \"#utility.yul\":2378:2384   */\n          dup10\n            /* \"#utility.yul\":2334:2406   */\n          tag_97\n          jump\t// in\n        tag_133:\n            /* \"#utility.yul\":2416:2488   */\n          tag_134\n            /* \"#utility.yul\":2484:2486   */\n          0x40\n            /* \"#utility.yul\":2473:2482   */\n          dup4\n            /* \"#utility.yul\":2469:2487   */\n          add\n            /* \"#utility.yul\":2460:2466   */\n          dup9\n            /* \"#utility.yul\":2416:2488   */\n          tag_94\n          jump\t// in\n        tag_134:\n            /* \"#utility.yul\":2498:2570   */\n          tag_135\n            /* \"#utility.yul\":2566:2568   */\n          0x60\n            /* \"#utility.yul\":2555:2564   */\n          dup4\n            /* \"#utility.yul\":2551:2569   */\n          add\n            /* \"#utility.yul\":2542:2548   */\n          dup8\n            /* \"#utility.yul\":2498:2570   */\n          tag_97\n          jump\t// in\n        tag_135:\n            /* \"#utility.yul\":2580:2647   */\n          tag_136\n            /* \"#utility.yul\":2642:2645   */\n          0x80\n            /* \"#utility.yul\":2631:2640   */\n          dup4\n            /* \"#utility.yul\":2627:2646   */\n          add\n            /* \"#utility.yul\":2618:2624   */\n          dup7\n            /* \"#utility.yul\":2580:2647   */\n          tag_99\n          jump\t// in\n        tag_136:\n            /* \"#utility.yul\":2657:2730   */\n          tag_137\n            /* \"#utility.yul\":2725:2728   */\n          0xa0\n            /* \"#utility.yul\":2714:2723   */\n          dup4\n            /* \"#utility.yul\":2710:2729   */\n          add\n            /* \"#utility.yul\":2701:2707   */\n          dup6\n            /* \"#utility.yul\":2657:2730   */\n          tag_94\n          jump\t// in\n        tag_137:\n            /* \"#utility.yul\":2740:2813   */\n          tag_138\n            /* \"#utility.yul\":2808:2811   */\n          0xc0\n            /* \"#utility.yul\":2797:2806   */\n          dup4\n            /* \"#utility.yul\":2793:2812   */\n          add\n            /* \"#utility.yul\":2784:2790   */\n          dup5\n            /* \"#utility.yul\":2740:2813   */\n          tag_94\n          jump\t// in\n        tag_138:\n            /* \"#utility.yul\":1946:2820   */\n          swap9\n          swap8\n          pop\n          pop\n          pop\n          pop\n          pop\n          pop\n          pop\n          pop\n          jump\t// out\n            /* \"#utility.yul\":2826:3048   */\n        tag_33:\n            /* \"#utility.yul\":2919:2923   */\n          0x00\n            /* \"#utility.yul\":2957:2959   */\n          0x20\n            /* \"#utility.yul\":2946:2955   */\n          dup3\n            /* \"#utility.yul\":2942:2960   */\n          add\n            /* \"#utility.yul\":2934:2960   */\n          swap1\n          pop\n            /* \"#utility.yul\":2970:3041   */\n          tag_140\n            /* \"#utility.yul\":3038:3039   */\n          0x00\n            /* \"#utility.yul\":3027:3036   */\n          dup4\n            /* \"#utility.yul\":3023:3040   */\n          add\n            /* \"#utility.yul\":3014:3020   */\n          dup5\n            /* \"#utility.yul\":2970:3041   */\n          tag_97\n          jump\t// in\n        tag_140:\n            /* \"#utility.yul\":2826:3048   */\n          swap3\n          swap2\n          pop\n          pop\n          jump\t// out\n            /* \"#utility.yul\":3054:3673   */\n        tag_36:\n            /* \"#utility.yul\":3131:3137   */\n          0x00\n            /* \"#utility.yul\":3139:3145   */\n          dup1\n            /* \"#utility.yul\":3147:3153   */\n          0x00\n            /* \"#utility.yul\":3196:3198   */\n          0x60\n            /* \"#utility.yul\":3184:3193   */\n          dup5\n            /* \"#utility.yul\":3175:3182   */\n          dup7\n            /* \"#utility.yul\":3171:3194   */\n          sub\n            /* \"#utility.yul\":3167:3199   */\n          slt\n            /* \"#utility.yul\":3164:3283   */\n          iszero\n          tag_142\n          jumpi\n            /* \"#utility.yul\":3202:3281   */\n          tag_143\n          tag_89\n          jump\t// in\n        tag_143:\n            /* \"#utility.yul\":3164:3283   */\n        tag_142:\n            /* \"#utility.yul\":3322:3323   */\n          0x00\n            /* \"#utility.yul\":3347:3400   */\n          tag_144\n            /* \"#utility.yul\":3392:3399   */\n          dup7\n            /* \"#utility.yul\":3383:3389   */\n          dup3\n            /* \"#utility.yul\":3372:3381   */\n          dup8\n            /* \"#utility.yul\":3368:3390   */\n          add\n            /* \"#utility.yul\":3347:3400   */\n          tag_93\n          jump\t// in\n        tag_144:\n            /* \"#utility.yul\":3337:3400   */\n          swap4\n          pop\n            /* \"#utility.yul\":3293:3410   */\n          pop\n            /* \"#utility.yul\":3449:3451   */\n          0x20\n            /* \"#utility.yul\":3475:3528   */\n          tag_145\n            /* \"#utility.yul\":3520:3527   */\n          dup7\n            /* \"#utility.yul\":3511:3517   */\n          dup3\n            /* \"#utility.yul\":3500:3509   */\n          dup8\n            /* \"#utility.yul\":3496:3518   */\n          add\n            /* \"#utility.yul\":3475:3528   */\n          tag_93\n          jump\t// in\n        tag_145:\n            /* \"#utility.yul\":3465:3528   */\n          swap3\n          pop\n            /* \"#utility.yul\":3420:3538   */\n          pop\n            /* \"#utility.yul\":3577:3579   */\n          0x40\n            /* \"#utility.yul\":3603:3656   */\n          tag_146\n            /* \"#utility.yul\":3648:3655   */\n          dup7\n            /* \"#utility.yul\":3639:3645   */\n          dup3\n            /* \"#utility.yul\":3628:3637   */\n          dup8\n            /* \"#utility.yul\":3624:3646   */\n          add\n            /* \"#utility.yul\":3603:3656   */\n          tag_93\n          jump\t// in\n        tag_146:\n            /* \"#utility.yul\":3593:3656   */\n          swap2\n          pop\n            /* \"#utility.yul\":3548:3666   */\n          pop\n            /* \"#utility.yul\":3054:3673   */\n          swap3\n          pop\n          swap3\n          pop\n          swap3\n          jump\t// out\n            /* \"#utility.yul\":3679:3801   */\n        tag_100:\n            /* \"#utility.yul\":3752:3776   */\n          tag_148\n            /* \"#utility.yul\":3770:3775   */\n          dup2\n            /* \"#utility.yul\":3752:3776   */\n          tag_96\n          jump\t// in\n        tag_148:\n            /* \"#utility.yul\":3745:3750   */\n          dup2\n            /* \"#utility.yul\":3742:3777   */\n          eq\n            /* \"#utility.yul\":3732:3795   */\n          tag_149\n          jumpi\n            /* \"#utility.yul\":3791:3792   */\n          0x00\n            /* \"#utility.yul\":3788:3789   */\n          dup1\n            /* \"#utility.yul\":3781:3793   */\n          revert\n            /* \"#utility.yul\":3732:3795   */\n        tag_149:\n            /* \"#utility.yul\":3679:3801   */\n          pop\n          jump\t// out\n            /* \"#utility.yul\":3807:3946   */\n        tag_101:\n            /* \"#utility.yul\":3853:3858   */\n          0x00\n            /* \"#utility.yul\":3891:3897   */\n          dup2\n            /* \"#utility.yul\":3878:3898   */\n          calldataload\n            /* \"#utility.yul\":3869:3898   */\n          swap1\n          pop\n            /* \"#utility.yul\":3907:3940   */\n          tag_151\n            /* \"#utility.yul\":3934:3939   */\n          dup2\n            /* \"#utility.yul\":3907:3940   */\n          tag_100\n          jump\t// in\n        tag_151:\n            /* \"#utility.yul\":3807:3946   */\n          swap3\n          swap2\n          pop\n          pop\n          jump\t// out\n            /* \"#utility.yul\":3952:4717   */\n        tag_43:\n            /* \"#utility.yul\":4038:4044   */\n          0x00\n            /* \"#utility.yul\":4046:4052   */\n          dup1\n            /* \"#utility.yul\":4054:4060   */\n          0x00\n            /* \"#utility.yul\":4062:4068   */\n          dup1\n            /* \"#utility.yul\":4111:4114   */\n          0x80\n            /* \"#utility.yul\":4099:4108   */\n          dup6\n            /* \"#utility.yul\":4090:4097   */\n          dup8\n            /* \"#utility.yul\":4086:4109   */\n          sub\n            /* \"#utility.yul\":4082:4115   */\n          slt\n            /* \"#utility.yul\":4079:4199   */\n          iszero\n          tag_153\n          jumpi\n            /* \"#utility.yul\":4118:4197   */\n          tag_154\n          tag_89\n          jump\t// in\n        tag_154:\n            /* \"#utility.yul\":4079:4199   */\n        tag_153:\n            /* \"#utility.yul\":4238:4239   */\n          0x00\n            /* \"#utility.yul\":4263:4316   */\n          tag_155\n            /* \"#utility.yul\":4308:4315   */\n          dup8\n            /* \"#utility.yul\":4299:4305   */\n          dup3\n            /* \"#utility.yul\":4288:4297   */\n          dup9\n            /* \"#utility.yul\":4284:4306   */\n          add\n            /* \"#utility.yul\":4263:4316   */\n          tag_101\n          jump\t// in\n        tag_155:\n            /* \"#utility.yul\":4253:4316   */\n          swap5\n          pop\n            /* \"#utility.yul\":4209:4326   */\n          pop\n            /* \"#utility.yul\":4365:4367   */\n          0x20\n            /* \"#utility.yul\":4391:4444   */\n          tag_156\n            /* \"#utility.yul\":4436:4443   */\n          dup8\n            /* \"#utility.yul\":4427:4433   */\n          dup3\n            /* \"#utility.yul\":4416:4425   */\n          dup9\n            /* \"#utility.yul\":4412:4434   */\n          add\n            /* \"#utility.yul\":4391:4444   */\n          tag_93\n          jump\t// in\n        tag_156:\n            /* \"#utility.yul\":4381:4444   */\n          swap4\n          pop\n            /* \"#utility.yul\":4336:4454   */\n          pop\n            /* \"#utility.yul\":4493:4495   */\n          0x40\n            /* \"#utility.yul\":4519:4572   */\n          tag_157\n            /* \"#utility.yul\":4564:4571   */\n          dup8\n            /* \"#utility.yul\":4555:4561   */\n          dup3\n            /* \"#utility.yul\":4544:4553   */\n          dup9\n            /* \"#utility.yul\":4540:4562   */\n          add\n            /* \"#utility.yul\":4519:4572   */\n          tag_93\n          jump\t// in\n        tag_157:\n            /* \"#utility.yul\":4509:4572   */\n          swap3\n          pop\n            /* \"#utility.yul\":4464:4582   */\n          pop\n            /* \"#utility.yul\":4621:4623   */\n          0x60\n            /* \"#utility.yul\":4647:4700   */\n          tag_158\n            /* \"#utility.yul\":4692:4699   */\n          dup8\n            /* \"#utility.yul\":4683:4689   */\n          dup3\n            /* \"#utility.yul\":4672:4681   */\n          dup9\n            /* \"#utility.yul\":4668:4690   */\n          add\n            /* \"#utility.yul\":4647:4700   */\n          tag_93\n          jump\t// in\n        tag_158:\n            /* \"#utility.yul\":4637:4700   */\n          swap2\n          pop\n            /* \"#utility.yul\":4592:4710   */\n          pop\n            /* \"#utility.yul\":3952:4717   */\n          swap3\n          swap6\n          swap2\n          swap5\n          pop\n          swap3\n          pop\n          jump\t// out\n            /* \"#utility.yul\":4723:5197   */\n        tag_48:\n            /* \"#utility.yul\":4791:4797   */\n          0x00\n            /* \"#utility.yul\":4799:4805   */\n          dup1\n            /* \"#utility.yul\":4848:4850   */\n          0x40\n            /* \"#utility.yul\":4836:4845   */\n          dup4\n            /* \"#utility.yul\":4827:4834   */\n          dup6\n            /* \"#utility.yul\":4823:4846   */\n          sub\n            /* \"#utility.yul\":4819:4851   */\n          slt\n            /* \"#utility.yul\":4816:4935   */\n          iszero\n          tag_160\n          jumpi\n            /* \"#utility.yul\":4854:4933   */\n          tag_161\n          tag_89\n          jump\t// in\n        tag_161:\n            /* \"#utility.yul\":4816:4935   */\n        tag_160:\n            /* \"#utility.yul\":4974:4975   */\n          0x00\n            /* \"#utility.yul\":4999:5052   */\n          tag_162\n            /* \"#utility.yul\":5044:5051   */\n          dup6\n            /* \"#utility.yul\":5035:5041   */\n          dup3\n            /* \"#utility.yul\":5024:5033   */\n          dup7\n            /* \"#utility.yul\":5020:5042   */\n          add\n            /* \"#utility.yul\":4999:5052   */\n          tag_93\n          jump\t// in\n        tag_162:\n            /* \"#utility.yul\":4989:5052   */\n          swap3\n          pop\n            /* \"#utility.yul\":4945:5062   */\n          pop\n            /* \"#utility.yul\":5101:5103   */\n          0x20\n            /* \"#utility.yul\":5127:5180   */\n          tag_163\n            /* \"#utility.yul\":5172:5179   */\n          dup6\n            /* \"#utility.yul\":5163:5169   */\n          dup3\n            /* \"#utility.yul\":5152:5161   */\n          dup7\n            /* \"#utility.yul\":5148:5170   */\n          add\n            /* \"#utility.yul\":5127:5180   */\n          tag_101\n          jump\t// in\n        tag_163:\n            /* \"#utility.yul\":5117:5180   */\n          swap2\n          pop\n            /* \"#utility.yul\":5072:5190   */\n          pop\n            /* \"#utility.yul\":4723:5197   */\n          swap3\n          pop\n          swap3\n          swap1\n          pop\n          jump\t// out\n            /* \"#utility.yul\":5203:5319   */\n        tag_102:\n            /* \"#utility.yul\":5273:5294   */\n          tag_165\n            /* \"#utility.yul\":5288:5293   */\n          dup2\n            /* \"#utility.yul\":5273:5294   */\n          tag_98\n          jump\t// in\n        tag_165:\n            /* \"#utility.yul\":5266:5271   */\n          dup2\n            /* \"#utility.yul\":5263:5295   */\n          eq\n            /* \"#utility.yul\":5253:5313   */\n          tag_166\n          jumpi\n            /* \"#utility.yul\":5309:5310   */\n          0x00\n            /* \"#utility.yul\":5306:5307   */\n          dup1\n            /* \"#utility.yul\":5299:5311   */\n          revert\n            /* \"#utility.yul\":5253:5313   */\n        tag_166:\n            /* \"#utility.yul\":5203:5319   */\n          pop\n          jump\t// out\n            /* \"#utility.yul\":5325:5458   */\n        tag_103:\n            /* \"#utility.yul\":5368:5373   */\n          0x00\n            /* \"#utility.yul\":5406:5412   */\n          dup2\n            /* \"#utility.yul\":5393:5413   */\n          calldataload\n            /* \"#utility.yul\":5384:5413   */\n          swap1\n          pop\n            /* \"#utility.yul\":5422:5452   */\n          tag_168\n            /* \"#utility.yul\":5446:5451   */\n          dup2\n            /* \"#utility.yul\":5422:5452   */\n          tag_102\n          jump\t// in\n        tag_168:\n            /* \"#utility.yul\":5325:5458   */\n          swap3\n          swap2\n          pop\n          pop\n          jump\t// out\n            /* \"#utility.yul\":5464:5932   */\n        tag_55:\n            /* \"#utility.yul\":5529:5535   */\n          0x00\n            /* \"#utility.yul\":5537:5543   */\n          dup1\n            /* \"#utility.yul\":5586:5588   */\n          0x40\n            /* \"#utility.yul\":5574:5583   */\n          dup4\n            /* \"#utility.yul\":5565:5572   */\n          dup6\n            /* \"#utility.yul\":5561:5584   */\n          sub\n            /* \"#utility.yul\":5557:5589   */\n          slt\n            /* \"#utility.yul\":5554:5673   */\n          iszero\n          tag_170\n          jumpi\n            /* \"#utility.yul\":5592:5671   */\n          tag_171\n          tag_89\n          jump\t// in\n        tag_171:\n            /* \"#utility.yul\":5554:5673   */\n        tag_170:\n            /* \"#utility.yul\":5712:5713   */\n          0x00\n            /* \"#utility.yul\":5737:5790   */\n          tag_172\n            /* \"#utility.yul\":5782:5789   */\n          dup6\n            /* \"#utility.yul\":5773:5779   */\n          dup3\n            /* \"#utility.yul\":5762:5771   */\n          dup7\n            /* \"#utility.yul\":5758:5780   */\n          add\n            /* \"#utility.yul\":5737:5790   */\n          tag_93\n          jump\t// in\n        tag_172:\n            /* \"#utility.yul\":5727:5790   */\n          swap3\n          pop\n            /* \"#utility.yul\":5683:5800   */\n          pop\n            /* \"#utility.yul\":5839:5841   */\n          0x20\n            /* \"#utility.yul\":5865:5915   */\n          tag_173\n            /* \"#utility.yul\":5907:5914   */\n          dup6\n            /* \"#utility.yul\":5898:5904   */\n          dup3\n            /* \"#utility.yul\":5887:5896   */\n          dup7\n            /* \"#utility.yul\":5883:5905   */\n          add\n            /* \"#utility.yul\":5865:5915   */\n          tag_103\n          jump\t// in\n        tag_173:\n            /* \"#utility.yul\":5855:5915   */\n          swap2\n          pop\n            /* \"#utility.yul\":5810:5925   */\n          pop\n            /* \"#utility.yul\":5464:5932   */\n          swap3\n          pop\n          swap3\n          swap1\n          pop\n          jump\t// out\n            /* \"#utility.yul\":5938:6118   */\n        tag_104:\n            /* \"#utility.yul\":5986:6063   */\n          0x4e487b7100000000000000000000000000000000000000000000000000000000\n            /* \"#utility.yul\":5983:5984   */\n          0x00\n            /* \"#utility.yul\":5976:6064   */\n          mstore\n            /* \"#utility.yul\":6083:6087   */\n          0x11\n            /* \"#utility.yul\":6080:6081   */\n          0x04\n            /* \"#utility.yul\":6073:6088   */\n          mstore\n            /* \"#utility.yul\":6107:6111   */\n          0x24\n            /* \"#utility.yul\":6104:6105   */\n          0x00\n            /* \"#utility.yul\":6097:6112   */\n          revert\n            /* \"#utility.yul\":6124:6357   */\n        tag_71:\n            /* \"#utility.yul\":6163:6166   */\n          0x00\n            /* \"#utility.yul\":6186:6210   */\n          tag_176\n            /* \"#utility.yul\":6204:6209   */\n          dup3\n            /* \"#utility.yul\":6186:6210   */\n          tag_91\n          jump\t// in\n        tag_176:\n            /* \"#utility.yul\":6177:6210   */\n          swap2\n          pop\n            /* \"#utility.yul\":6232:6298   */\n          0xffffffffffffffffffffffffffffffffffffffffffffffffffffffffffffffff\n            /* \"#utility.yul\":6225:6230   */\n          dup3\n            /* \"#utility.yul\":6222:6299   */\n          eq\n            /* \"#utility.yul\":6219:6322   */\n          iszero\n          tag_177\n          jumpi\n            /* \"#utility.yul\":6302:6320   */\n          tag_178\n          tag_104\n          jump\t// in\n        tag_178:\n            /* \"#utility.yul\":6219:6322   */\n        tag_177:\n            /* \"#utility.yul\":6349:6350   */\n          0x01\n            /* \"#utility.yul\":6342:6347   */\n          dup3\n            /* \"#utility.yul\":6338:6351   */\n          add\n            /* \"#utility.yul\":6331:6351   */\n          swap1\n          pop\n            /* \"#utility.yul\":6124:6357   */\n          swap2\n          swap1\n          pop\n          jump\t// out\n\n        auxdata: 0xa2646970667358221220c3b08a85b50ce25f01281e4c9b8a027c0fcbb79979804979fc6e3353507df07564736f6c634300080a0033\n    }\n}\n","bytecode":{"linkReferences":{},"object":"60806040523480156200001157600080fd5b50604051620049e8380380620049e88339818101604052810190620000379190620004c1565b336000806101000a81548173ffffffffffffffffffffffffffffffffffffffff021916908373ffffffffffffffffffffffffffffffffffffffff16021790555060018060008060009054906101000a900473ffffffffffffffffffffffffffffffffffffffff1673ffffffffffffffffffffffffffffffffffffffff1673ffffffffffffffffffffffffffffffffffffffff16815260200190815260200160002060006101000a81548160ff02191690831515021790555060008054906101000a900473ffffffffffffffffffffffffffffffffffffffff166040516200011e9062000457565b6200012a919062000538565b604051809103906000f08015801562000147573d6000803e3d6000fd5b50600260006101000a81548173ffffffffffffffffffffffffffffffffffffffff021916908373ffffffffffffffffffffffffffffffffffffffff16021790555060008054906101000a900473ffffffffffffffffffffffffffffffffffffffff16604051620001b79062000465565b620001c3919062000538565b604051809103906000f080158015620001e0573d6000803e3d6000fd5b50600360006101000a81548173ffffffffffffffffffffffffffffffffffffffff021916908373ffffffffffffffffffffffffffffffffffffffff16021790555060008054906101000a900473ffffffffffffffffffffffffffffffffffffffff16604051620002509062000473565b6200025c919062000538565b604051809103906000f08015801562000279573d6000803e3d6000fd5b50600460006101000a81548173ffffffffffffffffffffffffffffffffffffffff021916908373ffffffffffffffffffffffffffffffffffffffff1602179055506005600260009054906101000a900473ffffffffffffffffffffffffffffffffffffffff169080600181540180825580915050600190039060005260206000200160009091909190916101000a81548173ffffffffffffffffffffffffffffffffffffffff021916908373ffffffffffffffffffffffffffffffffffffffff1602179055506005600360009054906101000a900473ffffffffffffffffffffffffffffffffffffffff169080600181540180825580915050600190039060005260206000200160009091909190916101000a81548173ffffffffffffffffffffffffffffffffffffffff021916908373ffffffffffffffffffffffffffffffffffffffff1602179055506005600460009054906101000a900473ffffffffffffffffffffffffffffffffffffffff169080600181540180825580915050600190039060005260206000200160009091909190916101000a81548173ffffffffffffffffffffffffffffffffffffffff021916908373ffffffffffffffffffffffffffffffffffffffff160217905550806006819055505062000555565b6110fa8062001bfa83390190565b610e6c8062002cf483390190565b610e888062003b6083390190565b600080fd5b6000819050919050565b6200049b8162000486565b8114620004a757600080fd5b50565b600081519050620004bb8162000490565b92915050565b600060208284031215620004da57620004d962000481565b5b6000620004ea84828501620004aa565b91505092915050565b600073ffffffffffffffffffffffffffffffffffffffff82169050919050565b60006200052082620004f3565b9050919050565b620005328162000513565b82525050565b60006020820190506200054f600083018462000527565b92915050565b61169580620005656000396000f3fe60806040526004361061009c5760003560e01c80638da5cb5b116100645780638da5cb5b1461015657806390272dff14610181578063c162d7da146101ac578063ca5140c9146101d7578063d2c07e2014610200578063fe69494b146102295761009c565b80631973db46146100a15780631aa3a008146100bd5780634f83158a146100d4578063687564ae146101115780637e490a9e1461013a575b600080fd5b6100bb60048036038101906100b69190610ee4565b610252565b005b3480156100c957600080fd5b506100d261056e565b005b3480156100e057600080fd5b506100fb60048036038101906100f69190610f95565b6105fd565b6040516101089190610fdd565b60405180910390f35b34801561011d57600080fd5b506101386004803603810190610133919061113e565b61061d565b005b610154600480360381019061014f91906111dd565b61070e565b005b34801561016257600080fd5b5061016b610a22565b6040516101789190611219565b60405180910390f35b34801561018d57600080fd5b50610196610a46565b6040516101a39190611243565b60405180910390f35b3480156101b857600080fd5b506101c1610a4c565b6040516101ce919061131c565b60405180910390f35b3480156101e357600080fd5b506101fe60048036038101906101f991906111dd565b610b32565b005b34801561020c57600080fd5b506102276004803603810190610222919061133e565b610cf6565b005b34801561023557600080fd5b50610250600480360381019061024b9190610f95565b610de8565b005b600360009054906101000a900473ffffffffffffffffffffffffffffffffffffffff1673ffffffffffffffffffffffffffffffffffffffff1663ecded204336040518263ffffffff1660e01b81526004016102ad9190611219565b602060405180830381865afa1580156102ca573d6000803e3d6000fd5b505050506040513d601f19601f820116820180604052508101906102ee919061141d565b6102f757600080fd5b6000600260009054906101000a900473ffffffffffffffffffffffffffffffffffffffff1673ffffffffffffffffffffffffffffffffffffffff16636c230eef856040518263ffffffff1660e01b81526004016103549190611243565b602060405180830381865afa158015610371573d6000803e3d6000fd5b505050506040513d601f19601f82011682018060405250810190610395919061145f565b90503481146103a357600080fd5b6000600460009054906101000a900473ffffffffffffffffffffffffffffffffffffffff1673ffffffffffffffffffffffffffffffffffffffff1663a46d8ac7338787876040518563ffffffff1660e01b8152600401610406949392919061148c565b6020604051808303816000875af1158015610425573d6000803e3d6000fd5b505050506040513d601f19601f82011682018060405250810190610449919061145f565b9050600360009054906101000a900473ffffffffffffffffffffffffffffffffffffffff1673ffffffffffffffffffffffffffffffffffffffff1663e597ef1233836040518363ffffffff1660e01b81526004016104a89291906114d1565b600060405180830381600087803b1580156104c257600080fd5b505af11580156104d6573d6000803e3d6000fd5b50505050600260009054906101000a900473ffffffffffffffffffffffffffffffffffffffff1673ffffffffffffffffffffffffffffffffffffffff16630a6b2a25866040518263ffffffff1660e01b81526004016105359190611243565b600060405180830381600087803b15801561054f57600080fd5b505af1158015610563573d6000803e3d6000fd5b505050505050505050565b600360009054906101000a900473ffffffffffffffffffffffffffffffffffffffff1673ffffffffffffffffffffffffffffffffffffffff16634420e486336040518263ffffffff1660e01b81526004016105c99190611219565b600060405180830381600087803b1580156105e357600080fd5b505af11580156105f7573d6000803e3d6000fd5b50505050565b60016020528060005260406000206000915054906101000a900460ff1681565b3373ffffffffffffffffffffffffffffffffffffffff1660008054906101000a900473ffffffffffffffffffffffffffffffffffffffff1673ffffffffffffffffffffffffffffffffffffffff161461067557600080fd5b600260009054906101000a900473ffffffffffffffffffffffffffffffffffffffff1673ffffffffffffffffffffffffffffffffffffffff1663687564ae858585856040518563ffffffff1660e01b81526004016106d69493929190611582565b600060405180830381600087803b1580156106f057600080fd5b505af1158015610704573d6000803e3d6000fd5b5050505050505050565b600360009054906101000a900473ffffffffffffffffffffffffffffffffffffffff1673ffffffffffffffffffffffffffffffffffffffff1663ecded204336040518263ffffffff1660e01b81526004016107699190611219565b602060405180830381865afa158015610786573d6000803e3d6000fd5b505050506040513d601f19601f820116820180604052508101906107aa919061141d565b6107b357600080fd5b6000600460009054906101000a900473ffffffffffffffffffffffffffffffffffffffff1673ffffffffffffffffffffffffffffffffffffffff16631ce06944836040518263ffffffff1660e01b81526004016108109190611243565b602060405180830381865afa15801561082d573d6000803e3d6000fd5b505050506040513d601f19601f82011682018060405250810190610851919061145f565b90506000600460009054906101000a900473ffffffffffffffffffffffffffffffffffffffff1673ffffffffffffffffffffffffffffffffffffffff166367615ad5846040518263ffffffff1660e01b81526004016108b09190611243565b602060405180830381865afa1580156108cd573d6000803e3d6000fd5b505050506040513d601f19601f820116820180604052508101906108f1919061145f565b90503482146108ff57600080fd5b600460009054906101000a900473ffffffffffffffffffffffffffffffffffffffff1673ffffffffffffffffffffffffffffffffffffffff1663ab21a2be84336040518363ffffffff1660e01b815260040161095c9291906115d5565b600060405180830381600087803b15801561097657600080fd5b505af115801561098a573d6000803e3d6000fd5b50505050600360009054906101000a900473ffffffffffffffffffffffffffffffffffffffff1673ffffffffffffffffffffffffffffffffffffffff1663a5a9c51833856040518363ffffffff1660e01b81526004016109eb9291906114d1565b600060405180830381600087803b158015610a0557600080fd5b505af1158015610a19573d6000803e3d6000fd5b50505050505050565b60008054906101000a900473ffffffffffffffffffffffffffffffffffffffff1681565b60065481565b60603373ffffffffffffffffffffffffffffffffffffffff1660008054906101000a900473ffffffffffffffffffffffffffffffffffffffff1673ffffffffffffffffffffffffffffffffffffffff1614610aa657600080fd5b6005805480602002602001604051908101604052809291908181526020018280548015610b2857602002820191906000526020600020905b8160009054906101000a900473ffffffffffffffffffffffffffffffffffffffff1673ffffffffffffffffffffffffffffffffffffffff1681526020019060010190808311610ade575b5050505050905090565b600360009054906101000a900473ffffffffffffffffffffffffffffffffffffffff1673ffffffffffffffffffffffffffffffffffffffff1663ecded204336040518263ffffffff1660e01b8152600401610b8d9190611219565b602060405180830381865afa158015610baa573d6000803e3d6000fd5b505050506040513d601f19601f82011682018060405250810190610bce919061141d565b610bd757600080fd5b600460009054906101000a900473ffffffffffffffffffffffffffffffffffffffff1673ffffffffffffffffffffffffffffffffffffffff1663ca5140c9826040518263ffffffff1660e01b8152600401610c329190611243565b600060405180830381600087803b158015610c4c57600080fd5b505af1158015610c60573d6000803e3d6000fd5b50505050600360009054906101000a900473ffffffffffffffffffffffffffffffffffffffff1673ffffffffffffffffffffffffffffffffffffffff16634a09db4f33836040518363ffffffff1660e01b8152600401610cc19291906114d1565b600060405180830381600087803b158015610cdb57600080fd5b505af1158015610cef573d6000803e3d6000fd5b5050505050565b600160003373ffffffffffffffffffffffffffffffffffffffff1673ffffffffffffffffffffffffffffffffffffffff16815260200190815260200160002060009054906101000a900460ff16610d4c57600080fd5b600260009054906101000a900473ffffffffffffffffffffffffffffffffffffffff1673ffffffffffffffffffffffffffffffffffffffff1663d2c07e2086868686866040518663ffffffff1660e01b8152600401610daf9594939291906115fe565b600060405180830381600087803b158015610dc957600080fd5b505af1158015610ddd573d6000803e3d6000fd5b505050505050505050565b3373ffffffffffffffffffffffffffffffffffffffff1660008054906101000a900473ffffffffffffffffffffffffffffffffffffffff1673ffffffffffffffffffffffffffffffffffffffff1614610e4057600080fd5b60018060008373ffffffffffffffffffffffffffffffffffffffff1673ffffffffffffffffffffffffffffffffffffffff16815260200190815260200160002060006101000a81548160ff02191690831515021790555050565b6000604051905090565b600080fd5b600080fd5b6000819050919050565b610ec181610eae565b8114610ecc57600080fd5b50565b600081359050610ede81610eb8565b92915050565b600080600060608486031215610efd57610efc610ea4565b5b6000610f0b86828701610ecf565b9350506020610f1c86828701610ecf565b9250506040610f2d86828701610ecf565b9150509250925092565b600073ffffffffffffffffffffffffffffffffffffffff82169050919050565b6000610f6282610f37565b9050919050565b610f7281610f57565b8114610f7d57600080fd5b50565b600081359050610f8f81610f69565b92915050565b600060208284031215610fab57610faa610ea4565b5b6000610fb984828501610f80565b91505092915050565b60008115159050919050565b610fd781610fc2565b82525050565b6000602082019050610ff26000830184610fce565b92915050565b600080fd5b600080fd5b6000601f19601f8301169050919050565b7f4e487b7100000000000000000000000000000000000000000000000000000000600052604160045260246000fd5b61104b82611002565b810181811067ffffffffffffffff8211171561106a57611069611013565b5b80604052505050565b600061107d610e9a565b90506110898282611042565b919050565b600067ffffffffffffffff8211156110a9576110a8611013565b5b6110b282611002565b9050602081019050919050565b82818337600083830152505050565b60006110e16110dc8461108e565b611073565b9050828152602081018484840111156110fd576110fc610ffd565b5b6111088482856110bf565b509392505050565b600082601f83011261112557611124610ff8565b5b81356111358482602086016110ce565b91505092915050565b6000806000806080858703121561115857611157610ea4565b5b600085013567ffffffffffffffff81111561117657611175610ea9565b5b61118287828801611110565b945050602085013567ffffffffffffffff8111156111a3576111a2610ea9565b5b6111af87828801611110565b93505060406111c087828801610ecf565b92505060606111d187828801610f80565b91505092959194509250565b6000602082840312156111f3576111f2610ea4565b5b600061120184828501610ecf565b91505092915050565b61121381610f57565b82525050565b600060208201905061122e600083018461120a565b92915050565b61123d81610eae565b82525050565b60006020820190506112586000830184611234565b92915050565b600081519050919050565b600082825260208201905092915050565b6000819050602082019050919050565b61129381610f57565b82525050565b60006112a5838361128a565b60208301905092915050565b6000602082019050919050565b60006112c98261125e565b6112d38185611269565b93506112de8361127a565b8060005b8381101561130f5781516112f68882611299565b9750611301836112b1565b9250506001810190506112e2565b5085935050505092915050565b6000602082019050818103600083015261133681846112be565b905092915050565b600080600080600060a0868803121561135a57611359610ea4565b5b600061136888828901610ecf565b955050602086013567ffffffffffffffff81111561138957611388610ea9565b5b61139588828901611110565b945050604086013567ffffffffffffffff8111156113b6576113b5610ea9565b5b6113c288828901611110565b93505060606113d388828901610ecf565b92505060806113e488828901610f80565b9150509295509295909350565b6113fa81610fc2565b811461140557600080fd5b50565b600081519050611417816113f1565b92915050565b60006020828403121561143357611432610ea4565b5b600061144184828501611408565b91505092915050565b60008151905061145981610eb8565b92915050565b60006020828403121561147557611474610ea4565b5b60006114838482850161144a565b91505092915050565b60006080820190506114a1600083018761120a565b6114ae6020830186611234565b6114bb6040830185611234565b6114c86060830184611234565b95945050505050565b60006040820190506114e6600083018561120a565b6114f36020830184611234565b9392505050565b600081519050919050565b600082825260208201905092915050565b60005b83811015611534578082015181840152602081019050611519565b83811115611543576000848401525b50505050565b6000611554826114fa565b61155e8185611505565b935061156e818560208601611516565b61157781611002565b840191505092915050565b6000608082019050818103600083015261159c8187611549565b905081810360208301526115b08186611549565b90506115bf6040830185611234565b6115cc606083018461120a565b95945050505050565b60006040820190506115ea6000830185611234565b6115f7602083018461120a565b9392505050565b600060a0820190506116136000830188611234565b81810360208301526116258187611549565b905081810360408301526116398186611549565b90506116486060830185611234565b611655608083018461120a565b969550505050505056fea2646970667358221220c66e553d0b7908665ec00404fdd650f574d13cdb9f919afc0542c79a67a02f6f64736f6c634300080a003360806040523480156200001157600080fd5b50604051620010fa380380620010fa833981810160405281019062000037919062000129565b806000806101000a81548173ffffffffffffffffffffffffffffffffffffffff021916908373ffffffffffffffffffffffffffffffffffffffff16021790555033600160006101000a81548173ffffffffffffffffffffffffffffffffffffffff021916908373ffffffffffffffffffffffffffffffffffffffff160217905550506200015b565b600080fd5b600073ffffffffffffffffffffffffffffffffffffffff82169050919050565b6000620000f182620000c4565b9050919050565b6200010381620000e4565b81146200010f57600080fd5b50565b6000815190506200012381620000f8565b92915050565b600060208284031215620001425762000141620000bf565b5b6000620001528482850162000112565b91505092915050565b610f8f806200016b6000396000f3fe608060405234801561001057600080fd5b50600436106100885760003560e01c806398fbce791161005b57806398fbce7914610113578063d2c07e2014610147578063d9ff0cf114610163578063f76ebe1c1461019757610088565b80630a6b2a251461008d578063687564ae146100a95780636c230eef146100c55780638da5cb5b146100f5575b600080fd5b6100a760048036038101906100a29190610a20565b6101b5565b005b6100c360048036038101906100be9190610bf1565b6101ea565b005b6100df60048036038101906100da9190610a20565b610300565b6040516100ec9190610c9f565b60405180910390f35b6100fd6104be565b60405161010a9190610cc9565b60405180910390f35b61012d60048036038101906101289190610a20565b6104e2565b60405161013e959493929190610d6c565b60405180910390f35b610161600480360381019061015c9190610dcd565b6106c6565b005b61017d60048036038101906101789190610a20565b6107c7565b60405161018e959493929190610d6c565b60405180910390f35b61019f61092d565b6040516101ac9190610c9f565b60405180910390f35b60006003600083815260200190815260200160002090508060030160008154809291906101e190610eaf565b91905055505050565b3373ffffffffffffffffffffffffffffffffffffffff16600160009054906101000a900473ffffffffffffffffffffffffffffffffffffffff1673ffffffffffffffffffffffffffffffffffffffff161461024457600080fd5b6000600360006002600081548092919061025d90610eaf565b919050558152602001908152602001600020905084816000019080519060200190610289929190610933565b50838160010190805190602001906102a2929190610933565b5082816002018190555060008160030181905550818160040160006101000a81548173ffffffffffffffffffffffffffffffffffffffff021916908373ffffffffffffffffffffffffffffffffffffffff1602179055505050505050565b600080600360008481526020019081526020016000206040518060a001604052908160008201805461033190610f27565b80601f016020809104026020016040519081016040528092919081815260200182805461035d90610f27565b80156103aa5780601f1061037f576101008083540402835291602001916103aa565b820191906000526020600020905b81548152906001019060200180831161038d57829003601f168201915b505050505081526020016001820180546103c390610f27565b80601f01602080910402602001604051908101604052809291908181526020018280546103ef90610f27565b801561043c5780601f106104115761010080835404028352916020019161043c565b820191906000526020600020905b81548152906001019060200180831161041f57829003601f168201915b5050505050815260200160028201548152602001600382015481526020016004820160009054906101000a900473ffffffffffffffffffffffffffffffffffffffff1673ffffffffffffffffffffffffffffffffffffffff1673ffffffffffffffffffffffffffffffffffffffff168152505090508060400151915050919050565b60008054906101000a900473ffffffffffffffffffffffffffffffffffffffff1681565b606080600080600080600360008881526020019081526020016000206040518060a001604052908160008201805461051990610f27565b80601f016020809104026020016040519081016040528092919081815260200182805461054590610f27565b80156105925780601f1061056757610100808354040283529160200191610592565b820191906000526020600020905b81548152906001019060200180831161057557829003601f168201915b505050505081526020016001820180546105ab90610f27565b80601f01602080910402602001604051908101604052809291908181526020018280546105d790610f27565b80156106245780601f106105f957610100808354040283529160200191610624565b820191906000526020600020905b81548152906001019060200180831161060757829003601f168201915b5050505050815260200160028201548152602001600382015481526020016004820160009054906101000a900473ffffffffffffffffffffffffffffffffffffffff1673ffffffffffffffffffffffffffffffffffffffff1673ffffffffffffffffffffffffffffffffffffffff1681525050905080600001518160200151826040015183606001518460800151955095509550955095505091939590929450565b3373ffffffffffffffffffffffffffffffffffffffff16600160009054906101000a900473ffffffffffffffffffffffffffffffffffffffff1673ffffffffffffffffffffffffffffffffffffffff161461072057600080fd5b60006003600087815260200190815260200160002090508481600001908051906020019061074f929190610933565b5083816001019080519060200190610768929190610933565b5082816002018190555060008160030181905550818160040160006101000a81548173ffffffffffffffffffffffffffffffffffffffff021916908373ffffffffffffffffffffffffffffffffffffffff160217905550505050505050565b60036020528060005260406000206000915090508060000180546107ea90610f27565b80601f016020809104026020016040519081016040528092919081815260200182805461081690610f27565b80156108635780601f1061083857610100808354040283529160200191610863565b820191906000526020600020905b81548152906001019060200180831161084657829003601f168201915b50505050509080600101805461087890610f27565b80601f01602080910402602001604051908101604052809291908181526020018280546108a490610f27565b80156108f15780601f106108c6576101008083540402835291602001916108f1565b820191906000526020600020905b8154815290600101906020018083116108d457829003601f168201915b5050505050908060020154908060030154908060040160009054906101000a900473ffffffffffffffffffffffffffffffffffffffff16905085565b60025481565b82805461093f90610f27565b90600052602060002090601f01602090048101928261096157600085556109a8565b82601f1061097a57805160ff19168380011785556109a8565b828001600101855582156109a8579182015b828111156109a757825182559160200191906001019061098c565b5b5090506109b591906109b9565b5090565b5b808211156109d25760008160009055506001016109ba565b5090565b6000604051905090565b600080fd5b600080fd5b6000819050919050565b6109fd816109ea565b8114610a0857600080fd5b50565b600081359050610a1a816109f4565b92915050565b600060208284031215610a3657610a356109e0565b5b6000610a4484828501610a0b565b91505092915050565b600080fd5b600080fd5b6000601f19601f8301169050919050565b7f4e487b7100000000000000000000000000000000000000000000000000000000600052604160045260246000fd5b610aa082610a57565b810181811067ffffffffffffffff82111715610abf57610abe610a68565b5b80604052505050565b6000610ad26109d6565b9050610ade8282610a97565b919050565b600067ffffffffffffffff821115610afe57610afd610a68565b5b610b0782610a57565b9050602081019050919050565b82818337600083830152505050565b6000610b36610b3184610ae3565b610ac8565b905082815260208101848484011115610b5257610b51610a52565b5b610b5d848285610b14565b509392505050565b600082601f830112610b7a57610b79610a4d565b5b8135610b8a848260208601610b23565b91505092915050565b600073ffffffffffffffffffffffffffffffffffffffff82169050919050565b6000610bbe82610b93565b9050919050565b610bce81610bb3565b8114610bd957600080fd5b50565b600081359050610beb81610bc5565b92915050565b60008060008060808587031215610c0b57610c0a6109e0565b5b600085013567ffffffffffffffff811115610c2957610c286109e5565b5b610c3587828801610b65565b945050602085013567ffffffffffffffff811115610c5657610c556109e5565b5b610c6287828801610b65565b9350506040610c7387828801610a0b565b9250506060610c8487828801610bdc565b91505092959194509250565b610c99816109ea565b82525050565b6000602082019050610cb46000830184610c90565b92915050565b610cc381610bb3565b82525050565b6000602082019050610cde6000830184610cba565b92915050565b600081519050919050565b600082825260208201905092915050565b60005b83811015610d1e578082015181840152602081019050610d03565b83811115610d2d576000848401525b50505050565b6000610d3e82610ce4565b610d488185610cef565b9350610d58818560208601610d00565b610d6181610a57565b840191505092915050565b600060a0820190508181036000830152610d868188610d33565b90508181036020830152610d9a8187610d33565b9050610da96040830186610c90565b610db66060830185610c90565b610dc36080830184610cba565b9695505050505050565b600080600080600060a08688031215610de957610de86109e0565b5b6000610df788828901610a0b565b955050602086013567ffffffffffffffff811115610e1857610e176109e5565b5b610e2488828901610b65565b945050604086013567ffffffffffffffff811115610e4557610e446109e5565b5b610e5188828901610b65565b9350506060610e6288828901610a0b565b9250506080610e7388828901610bdc565b9150509295509295909350565b7f4e487b7100000000000000000000000000000000000000000000000000000000600052601160045260246000fd5b6000610eba826109ea565b91507fffffffffffffffffffffffffffffffffffffffffffffffffffffffffffffffff821415610eed57610eec610e80565b5b600182019050919050565b7f4e487b7100000000000000000000000000000000000000000000000000000000600052602260045260246000fd5b60006002820490506001821680610f3f57607f821691505b60208210811415610f5357610f52610ef8565b5b5091905056fea264697066735822122088bf4425c6ec98b6476bdbe90c6516b5c4388c5036cccd3aae4526080b9c1a5e64736f6c634300080a0033608060405234801561001057600080fd5b50604051610e6c380380610e6c8339818101604052810190610032919061011c565b806000806101000a81548173ffffffffffffffffffffffffffffffffffffffff021916908373ffffffffffffffffffffffffffffffffffffffff16021790555033600160006101000a81548173ffffffffffffffffffffffffffffffffffffffff021916908373ffffffffffffffffffffffffffffffffffffffff16021790555050610149565b600080fd5b600073ffffffffffffffffffffffffffffffffffffffff82169050919050565b60006100e9826100be565b9050919050565b6100f9816100de565b811461010457600080fd5b50565b600081519050610116816100f0565b92915050565b600060208284031215610132576101316100b9565b5b600061014084828501610107565b91505092915050565b610d14806101586000396000f3fe608060405234801561001057600080fd5b50600436106100b45760003560e01c8063a5a9c51811610071578063a5a9c51814610179578063a87430ba14610195578063e3e1f001146101c9578063e597ef12146101e7578063ecded20414610203578063f3c95c6014610233576100b4565b80634172fb89146100b95780634420e486146100e95780634a09db4f146101055780636350280e146101215780637c4dd96d1461013f5780638da5cb5b1461015b575b600080fd5b6100d360048036038101906100ce9190610abc565b610263565b6040516100e09190610b04565b60405180910390f35b61010360048036038101906100fe9190610abc565b6102b9565b005b61011f600480360381019061011a9190610b55565b61046a565b005b6101296105aa565b6040516101369190610ba4565b60405180910390f35b61015960048036038101906101549190610abc565b6105b0565b005b610163610665565b6040516101709190610bce565b60405180910390f35b610193600480360381019061018e9190610b55565b610689565b005b6101af60048036038101906101aa9190610abc565b61082c565b6040516101c0959493929190610be9565b60405180910390f35b6101d1610882565b6040516101de9190610ba4565b60405180910390f35b61020160048036038101906101fc9190610b55565b610888565b005b61021d60048036038101906102189190610abc565b6109e3565b60405161022a9190610b04565b60405180910390f35b61024d60048036038101906102489190610abc565b610a39565b60405161025a9190610b04565b60405180910390f35b6000600660008373ffffffffffffffffffffffffffffffffffffffff1673ffffffffffffffffffffffffffffffffffffffff16815260200190815260200160002060009054906101000a900460ff169050919050565b3373ffffffffffffffffffffffffffffffffffffffff16600160009054906101000a900473ffffffffffffffffffffffffffffffffffffffff1673ffffffffffffffffffffffffffffffffffffffff161461031357600080fd5b600460008273ffffffffffffffffffffffffffffffffffffffff1673ffffffffffffffffffffffffffffffffffffffff16815260200190815260200160002060009054906101000a900460ff161561036a57600080fd5b6001600460008373ffffffffffffffffffffffffffffffffffffffff1673ffffffffffffffffffffffffffffffffffffffff16815260200190815260200160002060006101000a81548160ff0219169083151502179055506000600360008373ffffffffffffffffffffffffffffffffffffffff1673ffffffffffffffffffffffffffffffffffffffff1681526020019081526020016000209050818160000160006101000a81548173ffffffffffffffffffffffffffffffffffffffff021916908373ffffffffffffffffffffffffffffffffffffffff1602179055506000816002018190555060008160030181905550600081600701819055505050565b3373ffffffffffffffffffffffffffffffffffffffff16600160009054906101000a900473ffffffffffffffffffffffffffffffffffffffff1673ffffffffffffffffffffffffffffffffffffffff16146104c457600080fd5b600460008373ffffffffffffffffffffffffffffffffffffffff1673ffffffffffffffffffffffffffffffffffffffff16815260200190815260200160002060009054906101000a900460ff1661051a57600080fd5b6000600360008473ffffffffffffffffffffffffffffffffffffffff1673ffffffffffffffffffffffffffffffffffffffff1681526020019081526020016000209050600081600601600084815260200190815260200160002060006101000a81548160ff0219169083151502179055508060020160008154809291906105a090610c6b565b9190505550505050565b60055481565b3373ffffffffffffffffffffffffffffffffffffffff16600160009054906101000a900473ffffffffffffffffffffffffffffffffffffffff1673ffffffffffffffffffffffffffffffffffffffff161461060a57600080fd5b6001600660008373ffffffffffffffffffffffffffffffffffffffff1673ffffffffffffffffffffffffffffffffffffffff16815260200190815260200160002060006101000a81548160ff02191690831515021790555050565b60008054906101000a900473ffffffffffffffffffffffffffffffffffffffff1681565b3373ffffffffffffffffffffffffffffffffffffffff16600160009054906101000a900473ffffffffffffffffffffffffffffffffffffffff1673ffffffffffffffffffffffffffffffffffffffff16146106e357600080fd5b600460008373ffffffffffffffffffffffffffffffffffffffff1673ffffffffffffffffffffffffffffffffffffffff16815260200190815260200160002060009054906101000a900460ff1661073957600080fd5b6000600360008473ffffffffffffffffffffffffffffffffffffffff1673ffffffffffffffffffffffffffffffffffffffff168152602001908152602001600020905080600401829080600181540180825580915050600190039060005260206000200160009091909190915055806003015481600501600084815260200190815260200160002081905550600181600601600084815260200190815260200160002060006101000a81548160ff02191690831515021790555080600201600081548092919061080890610c95565b919050555080600301600081548092919061082290610c95565b9190505550505050565b60036020528060005260406000206000915090508060000160009054906101000a900473ffffffffffffffffffffffffffffffffffffffff16908060010154908060020154908060030154908060070154905085565b60025481565b3373ffffffffffffffffffffffffffffffffffffffff16600160009054906101000a900473ffffffffffffffffffffffffffffffffffffffff1673ffffffffffffffffffffffffffffffffffffffff16146108e257600080fd5b600460008373ffffffffffffffffffffffffffffffffffffffff1673ffffffffffffffffffffffffffffffffffffffff16815260200190815260200160002060009054906101000a900460ff1661093857600080fd5b6000600360008473ffffffffffffffffffffffffffffffffffffffff1673ffffffffffffffffffffffffffffffffffffffff1681526020019081526020016000209050806008018290806001815401808255809150506001900390600052602060002001600090919091909150558060070154816009016000848152602001908152602001600020819055508060070160008154809291906109d990610c95565b9190505550505050565b6000600460008373ffffffffffffffffffffffffffffffffffffffff1673ffffffffffffffffffffffffffffffffffffffff16815260200190815260200160002060009054906101000a900460ff169050919050565b60046020528060005260406000206000915054906101000a900460ff1681565b600080fd5b600073ffffffffffffffffffffffffffffffffffffffff82169050919050565b6000610a8982610a5e565b9050919050565b610a9981610a7e565b8114610aa457600080fd5b50565b600081359050610ab681610a90565b92915050565b600060208284031215610ad257610ad1610a59565b5b6000610ae084828501610aa7565b91505092915050565b60008115159050919050565b610afe81610ae9565b82525050565b6000602082019050610b196000830184610af5565b92915050565b6000819050919050565b610b3281610b1f565b8114610b3d57600080fd5b50565b600081359050610b4f81610b29565b92915050565b60008060408385031215610b6c57610b6b610a59565b5b6000610b7a85828601610aa7565b9250506020610b8b85828601610b40565b9150509250929050565b610b9e81610b1f565b82525050565b6000602082019050610bb96000830184610b95565b92915050565b610bc881610a7e565b82525050565b6000602082019050610be36000830184610bbf565b92915050565b600060a082019050610bfe6000830188610bbf565b610c0b6020830187610b95565b610c186040830186610b95565b610c256060830185610b95565b610c326080830184610b95565b9695505050505050565b7f4e487b7100000000000000000000000000000000000000000000000000000000600052601160045260246000fd5b6000610c7682610b1f565b91506000821415610c8a57610c89610c3c565b5b600182039050919050565b6000610ca082610b1f565b91507fffffffffffffffffffffffffffffffffffffffffffffffffffffffffffffffff821415610cd357610cd2610c3c565b5b60018201905091905056fea264697066735822122047efaa3ac1347b01f95836c6072ad459d3d3b128912028ecd36b7218de40791e64736f6c634300080a0033608060405234801561001057600080fd5b50604051610e88380380610e888339818101604052810190610032919061011c565b806000806101000a81548173ffffffffffffffffffffffffffffffffffffffff021916908373ffffffffffffffffffffffffffffffffffffffff16021790555033600160006101000a81548173ffffffffffffffffffffffffffffffffffffffff021916908373ffffffffffffffffffffffffffffffffffffffff16021790555050610149565b600080fd5b600073ffffffffffffffffffffffffffffffffffffffff82169050919050565b60006100e9826100be565b9050919050565b6100f9816100de565b811461010457600080fd5b50565b600081519050610116816100f0565b92915050565b600060208284031215610132576101316100b9565b5b600061014084828501610107565b91505092915050565b610d30806101586000396000f3fe608060405234801561001057600080fd5b50600436106100a95760003560e01c8063921c47b111610071578063921c47b11461017e578063a46d8ac71461019c578063ab21a2be146101cc578063ca5140c9146101e8578063ef228c9214610204578063f6b4dfb414610220576100a9565b80631ce06944146100ae57806367615ad5146100de57806383b65cb41461010e5780638da5cb5b146101445780638dbbfbde14610162575b600080fd5b6100c860048036038101906100c391906109b3565b61023e565b6040516100d591906109ef565b60405180910390f35b6100f860048036038101906100f391906109b3565b61035d565b60405161010591906109ef565b60405180910390f35b610128600480360381019061012391906109b3565b61047c565b60405161013b9796959493929190610a66565b60405180910390f35b61014c61050b565b6040516101599190610ad5565b60405180910390f35b61017c60048036038101906101779190610af0565b61052f565b005b6101866105c8565b60405161019391906109ef565b60405180910390f35b6101b660048036038101906101b19190610b6f565b6105ce565b6040516101c391906109ef565b60405180910390f35b6101e660048036038101906101e19190610bd6565b610734565b005b61020260048036038101906101fd91906109b3565b6107fd565b005b61021e60048036038101906102199190610c42565b6108b0565b005b610228610952565b6040516102359190610ad5565b60405180910390f35b600080600360008481526020019081526020016000206040518060e0016040529081600082015481526020016001820160009054906101000a900473ffffffffffffffffffffffffffffffffffffffff1673ffffffffffffffffffffffffffffffffffffffff1673ffffffffffffffffffffffffffffffffffffffff168152602001600282015481526020016003820160009054906101000a900473ffffffffffffffffffffffffffffffffffffffff1673ffffffffffffffffffffffffffffffffffffffff1673ffffffffffffffffffffffffffffffffffffffff1681526020016003820160149054906101000a900460ff161515151581526020016004820154815260200160058201548152505090508060c00151915050919050565b600080600360008481526020019081526020016000206040518060e0016040529081600082015481526020016001820160009054906101000a900473ffffffffffffffffffffffffffffffffffffffff1673ffffffffffffffffffffffffffffffffffffffff1673ffffffffffffffffffffffffffffffffffffffff168152602001600282015481526020016003820160009054906101000a900473ffffffffffffffffffffffffffffffffffffffff1673ffffffffffffffffffffffffffffffffffffffff1673ffffffffffffffffffffffffffffffffffffffff1681526020016003820160149054906101000a900460ff161515151581526020016004820154815260200160058201548152505090508060400151915050919050565b60036020528060005260406000206000915090508060000154908060010160009054906101000a900473ffffffffffffffffffffffffffffffffffffffff16908060020154908060030160009054906101000a900473ffffffffffffffffffffffffffffffffffffffff16908060030160149054906101000a900460ff16908060040154908060050154905087565b60008054906101000a900473ffffffffffffffffffffffffffffffffffffffff1681565b82600254811061053e57600080fd5b3373ffffffffffffffffffffffffffffffffffffffff16600160009054906101000a900473ffffffffffffffffffffffffffffffffffffffff1673ffffffffffffffffffffffffffffffffffffffff161461059857600080fd5b60006003600086815260200190815260200160002090508381600401819055508281600501819055505050505050565b60025481565b60003373ffffffffffffffffffffffffffffffffffffffff16600160009054906101000a900473ffffffffffffffffffffffffffffffffffffffff1673ffffffffffffffffffffffffffffffffffffffff161461062a57600080fd5b600060036000600254815260200190815260200160002090506002548160000181905550848160020181905550858160010160006101000a81548173ffffffffffffffffffffffffffffffffffffffff021916908373ffffffffffffffffffffffffffffffffffffffff160217905550858160030160006101000a81548173ffffffffffffffffffffffffffffffffffffffff021916908373ffffffffffffffffffffffffffffffffffffffff16021790555060008160030160146101000a81548160ff0219169083151502179055508381600401819055508281600501819055506002600081548092919061071f90610cb1565b91905055508060000154915050949350505050565b81600254811061074357600080fd5b3373ffffffffffffffffffffffffffffffffffffffff16600160009054906101000a900473ffffffffffffffffffffffffffffffffffffffff1673ffffffffffffffffffffffffffffffffffffffff161461079d57600080fd5b6000600360008581526020019081526020016000209050828160030160006101000a81548173ffffffffffffffffffffffffffffffffffffffff021916908373ffffffffffffffffffffffffffffffffffffffff16021790555050505050565b80600254811061080c57600080fd5b3373ffffffffffffffffffffffffffffffffffffffff16600160009054906101000a900473ffffffffffffffffffffffffffffffffffffffff1673ffffffffffffffffffffffffffffffffffffffff161461086657600080fd5b60006003600084815260200190815260200160002090506108ab838260010160009054906101000a900473ffffffffffffffffffffffffffffffffffffffff16610734565b505050565b8160025481106108bf57600080fd5b3373ffffffffffffffffffffffffffffffffffffffff16600160009054906101000a900473ffffffffffffffffffffffffffffffffffffffff1673ffffffffffffffffffffffffffffffffffffffff161461091957600080fd5b6000600360008581526020019081526020016000209050828160030160146101000a81548160ff02191690831515021790555050505050565b600160009054906101000a900473ffffffffffffffffffffffffffffffffffffffff1681565b600080fd5b6000819050919050565b6109908161097d565b811461099b57600080fd5b50565b6000813590506109ad81610987565b92915050565b6000602082840312156109c9576109c8610978565b5b60006109d78482850161099e565b91505092915050565b6109e98161097d565b82525050565b6000602082019050610a0460008301846109e0565b92915050565b600073ffffffffffffffffffffffffffffffffffffffff82169050919050565b6000610a3582610a0a565b9050919050565b610a4581610a2a565b82525050565b60008115159050919050565b610a6081610a4b565b82525050565b600060e082019050610a7b600083018a6109e0565b610a886020830189610a3c565b610a9560408301886109e0565b610aa26060830187610a3c565b610aaf6080830186610a57565b610abc60a08301856109e0565b610ac960c08301846109e0565b98975050505050505050565b6000602082019050610aea6000830184610a3c565b92915050565b600080600060608486031215610b0957610b08610978565b5b6000610b178682870161099e565b9350506020610b288682870161099e565b9250506040610b398682870161099e565b9150509250925092565b610b4c81610a2a565b8114610b5757600080fd5b50565b600081359050610b6981610b43565b92915050565b60008060008060808587031215610b8957610b88610978565b5b6000610b9787828801610b5a565b9450506020610ba88782880161099e565b9350506040610bb98782880161099e565b9250506060610bca8782880161099e565b91505092959194509250565b60008060408385031215610bed57610bec610978565b5b6000610bfb8582860161099e565b9250506020610c0c85828601610b5a565b9150509250929050565b610c1f81610a4b565b8114610c2a57600080fd5b50565b600081359050610c3c81610c16565b92915050565b60008060408385031215610c5957610c58610978565b5b6000610c678582860161099e565b9250506020610c7885828601610c2d565b9150509250929050565b7f4e487b7100000000000000000000000000000000000000000000000000000000600052601160045260246000fd5b6000610cbc8261097d565b91507fffffffffffffffffffffffffffffffffffffffffffffffffffffffffffffffff821415610cef57610cee610c82565b5b60018201905091905056fea2646970667358221220c3b08a85b50ce25f01281e4c9b8a027c0fcbb79979804979fc6e3353507df07564736f6c634300080a0033","opcodes":"PUSH1 0x80 PUSH1 0x40 MSTORE CALLVALUE DUP1 ISZERO PUSH3 0x11 JUMPI PUSH1 0x0 DUP1 REVERT JUMPDEST POP PUSH1 0x40 MLOAD PUSH3 0x49E8 CODESIZE SUB DUP1 PUSH3 0x49E8 DUP4 CODECOPY DUP2 DUP2 ADD PUSH1 0x40 MSTORE DUP2 ADD SWAP1 PUSH3 0x37 SWAP2 SWAP1 PUSH3 0x4C1 JUMP JUMPDEST CALLER PUSH1 0x0 DUP1 PUSH2 0x100 EXP DUP2 SLOAD DUP2 PUSH20 0xFFFFFFFFFFFFFFFFFFFFFFFFFFFFFFFFFFFFFFFF MUL NOT AND SWAP1 DUP4 PUSH20 0xFFFFFFFFFFFFFFFFFFFFFFFFFFFFFFFFFFFFFFFF AND MUL OR SWAP1 SSTORE POP PUSH1 0x1 DUP1 PUSH1 0x0 DUP1 PUSH1 0x0 SWAP1 SLOAD SWAP1 PUSH2 0x100 EXP SWAP1 DIV PUSH20 0xFFFFFFFFFFFFFFFFFFFFFFFFFFFFFFFFFFFFFFFF AND PUSH20 0xFFFFFFFFFFFFFFFFFFFFFFFFFFFFFFFFFFFFFFFF AND PUSH20 0xFFFFFFFFFFFFFFFFFFFFFFFFFFFFFFFFFFFFFFFF AND DUP2 MSTORE PUSH1 0x20 ADD SWAP1 DUP2 MSTORE PUSH1 0x20 ADD PUSH1 0x0 KECCAK256 PUSH1 0x0 PUSH2 0x100 EXP DUP2 SLOAD DUP2 PUSH1 0xFF MUL NOT AND SWAP1 DUP4 ISZERO ISZERO MUL OR SWAP1 SSTORE POP PUSH1 0x0 DUP1 SLOAD SWAP1 PUSH2 0x100 EXP SWAP1 DIV PUSH20 0xFFFFFFFFFFFFFFFFFFFFFFFFFFFFFFFFFFFFFFFF AND PUSH1 0x40 MLOAD PUSH3 0x11E SWAP1 PUSH3 0x457 JUMP JUMPDEST PUSH3 0x12A SWAP2 SWAP1 PUSH3 0x538 JUMP JUMPDEST PUSH1 0x40 MLOAD DUP1 SWAP2 SUB SWAP1 PUSH1 0x0 CREATE DUP1 ISZERO DUP1 ISZERO PUSH3 0x147 JUMPI RETURNDATASIZE PUSH1 0x0 DUP1 RETURNDATACOPY RETURNDATASIZE PUSH1 0x0 REVERT JUMPDEST POP PUSH1 0x2 PUSH1 0x0 PUSH2 0x100 EXP DUP2 SLOAD DUP2 PUSH20 0xFFFFFFFFFFFFFFFFFFFFFFFFFFFFFFFFFFFFFFFF MUL NOT AND SWAP1 DUP4 PUSH20 0xFFFFFFFFFFFFFFFFFFFFFFFFFFFFFFFFFFFFFFFF AND MUL OR SWAP1 SSTORE POP PUSH1 0x0 DUP1 SLOAD SWAP1 PUSH2 0x100 EXP SWAP1 DIV PUSH20 0xFFFFFFFFFFFFFFFFFFFFFFFFFFFFFFFFFFFFFFFF AND PUSH1 0x40 MLOAD PUSH3 0x1B7 SWAP1 PUSH3 0x465 JUMP JUMPDEST PUSH3 0x1C3 SWAP2 SWAP1 PUSH3 0x538 JUMP JUMPDEST PUSH1 0x40 MLOAD DUP1 SWAP2 SUB SWAP1 PUSH1 0x0 CREATE DUP1 ISZERO DUP1 ISZERO PUSH3 0x1E0 JUMPI RETURNDATASIZE PUSH1 0x0 DUP1 RETURNDATACOPY RETURNDATASIZE PUSH1 0x0 REVERT JUMPDEST POP PUSH1 0x3 PUSH1 0x0 PUSH2 0x100 EXP DUP2 SLOAD DUP2 PUSH20 0xFFFFFFFFFFFFFFFFFFFFFFFFFFFFFFFFFFFFFFFF MUL NOT AND SWAP1 DUP4 PUSH20 0xFFFFFFFFFFFFFFFFFFFFFFFFFFFFFFFFFFFFFFFF AND MUL OR SWAP1 SSTORE POP PUSH1 0x0 DUP1 SLOAD SWAP1 PUSH2 0x100 EXP SWAP1 DIV PUSH20 0xFFFFFFFFFFFFFFFFFFFFFFFFFFFFFFFFFFFFFFFF AND PUSH1 0x40 MLOAD PUSH3 0x250 SWAP1 PUSH3 0x473 JUMP JUMPDEST PUSH3 0x25C SWAP2 SWAP1 PUSH3 0x538 JUMP JUMPDEST PUSH1 0x40 MLOAD DUP1 SWAP2 SUB SWAP1 PUSH1 0x0 CREATE DUP1 ISZERO DUP1 ISZERO PUSH3 0x279 JUMPI RETURNDATASIZE PUSH1 0x0 DUP1 RETURNDATACOPY RETURNDATASIZE PUSH1 0x0 REVERT JUMPDEST POP PUSH1 0x4 PUSH1 0x0 PUSH2 0x100 EXP DUP2 SLOAD DUP2 PUSH20 0xFFFFFFFFFFFFFFFFFFFFFFFFFFFFFFFFFFFFFFFF MUL NOT AND SWAP1 DUP4 PUSH20 0xFFFFFFFFFFFFFFFFFFFFFFFFFFFFFFFFFFFFFFFF AND MUL OR SWAP1 SSTORE POP PUSH1 0x5 PUSH1 0x2 PUSH1 0x0 SWAP1 SLOAD SWAP1 PUSH2 0x100 EXP SWAP1 DIV PUSH20 0xFFFFFFFFFFFFFFFFFFFFFFFFFFFFFFFFFFFFFFFF AND SWAP1 DUP1 PUSH1 0x1 DUP2 SLOAD ADD DUP1 DUP3 SSTORE DUP1 SWAP2 POP POP PUSH1 0x1 SWAP1 SUB SWAP1 PUSH1 0x0 MSTORE PUSH1 0x20 PUSH1 0x0 KECCAK256 ADD PUSH1 0x0 SWAP1 SWAP2 SWAP1 SWAP2 SWAP1 SWAP2 PUSH2 0x100 EXP DUP2 SLOAD DUP2 PUSH20 0xFFFFFFFFFFFFFFFFFFFFFFFFFFFFFFFFFFFFFFFF MUL NOT AND SWAP1 DUP4 PUSH20 0xFFFFFFFFFFFFFFFFFFFFFFFFFFFFFFFFFFFFFFFF AND MUL OR SWAP1 SSTORE POP PUSH1 0x5 PUSH1 0x3 PUSH1 0x0 SWAP1 SLOAD SWAP1 PUSH2 0x100 EXP SWAP1 DIV PUSH20 0xFFFFFFFFFFFFFFFFFFFFFFFFFFFFFFFFFFFFFFFF AND SWAP1 DUP1 PUSH1 0x1 DUP2 SLOAD ADD DUP1 DUP3 SSTORE DUP1 SWAP2 POP POP PUSH1 0x1 SWAP1 SUB SWAP1 PUSH1 0x0 MSTORE PUSH1 0x20 PUSH1 0x0 KECCAK256 ADD PUSH1 0x0 SWAP1 SWAP2 SWAP1 SWAP2 SWAP1 SWAP2 PUSH2 0x100 EXP DUP2 SLOAD DUP2 PUSH20 0xFFFFFFFFFFFFFFFFFFFFFFFFFFFFFFFFFFFFFFFF MUL NOT AND SWAP1 DUP4 PUSH20 0xFFFFFFFFFFFFFFFFFFFFFFFFFFFFFFFFFFFFFFFF AND MUL OR SWAP1 SSTORE POP PUSH1 0x5 PUSH1 0x4 PUSH1 0x0 SWAP1 SLOAD SWAP1 PUSH2 0x100 EXP SWAP1 DIV PUSH20 0xFFFFFFFFFFFFFFFFFFFFFFFFFFFFFFFFFFFFFFFF AND SWAP1 DUP1 PUSH1 0x1 DUP2 SLOAD ADD DUP1 DUP3 SSTORE DUP1 SWAP2 POP POP PUSH1 0x1 SWAP1 SUB SWAP1 PUSH1 0x0 MSTORE PUSH1 0x20 PUSH1 0x0 KECCAK256 ADD PUSH1 0x0 SWAP1 SWAP2 SWAP1 SWAP2 SWAP1 SWAP2 PUSH2 0x100 EXP DUP2 SLOAD DUP2 PUSH20 0xFFFFFFFFFFFFFFFFFFFFFFFFFFFFFFFFFFFFFFFF MUL NOT AND SWAP1 DUP4 PUSH20 0xFFFFFFFFFFFFFFFFFFFFFFFFFFFFFFFFFFFFFFFF AND MUL OR SWAP1 SSTORE POP DUP1 PUSH1 0x6 DUP2 SWAP1 SSTORE POP POP PUSH3 0x555 JUMP JUMPDEST PUSH2 0x10FA DUP1 PUSH3 0x1BFA DUP4 CODECOPY ADD SWAP1 JUMP JUMPDEST PUSH2 0xE6C DUP1 PUSH3 0x2CF4 DUP4 CODECOPY ADD SWAP1 JUMP JUMPDEST PUSH2 0xE88 DUP1 PUSH3 0x3B60 DUP4 CODECOPY ADD SWAP1 JUMP JUMPDEST PUSH1 0x0 DUP1 REVERT JUMPDEST PUSH1 0x0 DUP2 SWAP1 POP SWAP2 SWAP1 POP JUMP JUMPDEST PUSH3 0x49B DUP2 PUSH3 0x486 JUMP JUMPDEST DUP2 EQ PUSH3 0x4A7 JUMPI PUSH1 0x0 DUP1 REVERT JUMPDEST POP JUMP JUMPDEST PUSH1 0x0 DUP2 MLOAD SWAP1 POP PUSH3 0x4BB DUP2 PUSH3 0x490 JUMP JUMPDEST SWAP3 SWAP2 POP POP JUMP JUMPDEST PUSH1 0x0 PUSH1 0x20 DUP3 DUP5 SUB SLT ISZERO PUSH3 0x4DA JUMPI PUSH3 0x4D9 PUSH3 0x481 JUMP JUMPDEST JUMPDEST PUSH1 0x0 PUSH3 0x4EA DUP5 DUP3 DUP6 ADD PUSH3 0x4AA JUMP JUMPDEST SWAP2 POP POP SWAP3 SWAP2 POP POP JUMP JUMPDEST PUSH1 0x0 PUSH20 0xFFFFFFFFFFFFFFFFFFFFFFFFFFFFFFFFFFFFFFFF DUP3 AND SWAP1 POP SWAP2 SWAP1 POP JUMP JUMPDEST PUSH1 0x0 PUSH3 0x520 DUP3 PUSH3 0x4F3 JUMP JUMPDEST SWAP1 POP SWAP2 SWAP1 POP JUMP JUMPDEST PUSH3 0x532 DUP2 PUSH3 0x513 JUMP JUMPDEST DUP3 MSTORE POP POP JUMP JUMPDEST PUSH1 0x0 PUSH1 0x20 DUP3 ADD SWAP1 POP PUSH3 0x54F PUSH1 0x0 DUP4 ADD DUP5 PUSH3 0x527 JUMP JUMPDEST SWAP3 SWAP2 POP POP JUMP JUMPDEST PUSH2 0x1695 DUP1 PUSH3 0x565 PUSH1 0x0 CODECOPY PUSH1 0x0 RETURN INVALID PUSH1 0x80 PUSH1 0x40 MSTORE PUSH1 0x4 CALLDATASIZE LT PUSH2 0x9C JUMPI PUSH1 0x0 CALLDATALOAD PUSH1 0xE0 SHR DUP1 PUSH4 0x8DA5CB5B GT PUSH2 0x64 JUMPI DUP1 PUSH4 0x8DA5CB5B EQ PUSH2 0x156 JUMPI DUP1 PUSH4 0x90272DFF EQ PUSH2 0x181 JUMPI DUP1 PUSH4 0xC162D7DA EQ PUSH2 0x1AC JUMPI DUP1 PUSH4 0xCA5140C9 EQ PUSH2 0x1D7 JUMPI DUP1 PUSH4 0xD2C07E20 EQ PUSH2 0x200 JUMPI DUP1 PUSH4 0xFE69494B EQ PUSH2 0x229 JUMPI PUSH2 0x9C JUMP JUMPDEST DUP1 PUSH4 0x1973DB46 EQ PUSH2 0xA1 JUMPI DUP1 PUSH4 0x1AA3A008 EQ PUSH2 0xBD JUMPI DUP1 PUSH4 0x4F83158A EQ PUSH2 0xD4 JUMPI DUP1 PUSH4 0x687564AE EQ PUSH2 0x111 JUMPI DUP1 PUSH4 0x7E490A9E EQ PUSH2 0x13A JUMPI JUMPDEST PUSH1 0x0 DUP1 REVERT JUMPDEST PUSH2 0xBB PUSH1 0x4 DUP1 CALLDATASIZE SUB DUP2 ADD SWAP1 PUSH2 0xB6 SWAP2 SWAP1 PUSH2 0xEE4 JUMP JUMPDEST PUSH2 0x252 JUMP JUMPDEST STOP JUMPDEST CALLVALUE DUP1 ISZERO PUSH2 0xC9 JUMPI PUSH1 0x0 DUP1 REVERT JUMPDEST POP PUSH2 0xD2 PUSH2 0x56E JUMP JUMPDEST STOP JUMPDEST CALLVALUE DUP1 ISZERO PUSH2 0xE0 JUMPI PUSH1 0x0 DUP1 REVERT JUMPDEST POP PUSH2 0xFB PUSH1 0x4 DUP1 CALLDATASIZE SUB DUP2 ADD SWAP1 PUSH2 0xF6 SWAP2 SWAP1 PUSH2 0xF95 JUMP JUMPDEST PUSH2 0x5FD JUMP JUMPDEST PUSH1 0x40 MLOAD PUSH2 0x108 SWAP2 SWAP1 PUSH2 0xFDD JUMP JUMPDEST PUSH1 0x40 MLOAD DUP1 SWAP2 SUB SWAP1 RETURN JUMPDEST CALLVALUE DUP1 ISZERO PUSH2 0x11D JUMPI PUSH1 0x0 DUP1 REVERT JUMPDEST POP PUSH2 0x138 PUSH1 0x4 DUP1 CALLDATASIZE SUB DUP2 ADD SWAP1 PUSH2 0x133 SWAP2 SWAP1 PUSH2 0x113E JUMP JUMPDEST PUSH2 0x61D JUMP JUMPDEST STOP JUMPDEST PUSH2 0x154 PUSH1 0x4 DUP1 CALLDATASIZE SUB DUP2 ADD SWAP1 PUSH2 0x14F SWAP2 SWAP1 PUSH2 0x11DD JUMP JUMPDEST PUSH2 0x70E JUMP JUMPDEST STOP JUMPDEST CALLVALUE DUP1 ISZERO PUSH2 0x162 JUMPI PUSH1 0x0 DUP1 REVERT JUMPDEST POP PUSH2 0x16B PUSH2 0xA22 JUMP JUMPDEST PUSH1 0x40 MLOAD PUSH2 0x178 SWAP2 SWAP1 PUSH2 0x1219 JUMP JUMPDEST PUSH1 0x40 MLOAD DUP1 SWAP2 SUB SWAP1 RETURN JUMPDEST CALLVALUE DUP1 ISZERO PUSH2 0x18D JUMPI PUSH1 0x0 DUP1 REVERT JUMPDEST POP PUSH2 0x196 PUSH2 0xA46 JUMP JUMPDEST PUSH1 0x40 MLOAD PUSH2 0x1A3 SWAP2 SWAP1 PUSH2 0x1243 JUMP JUMPDEST PUSH1 0x40 MLOAD DUP1 SWAP2 SUB SWAP1 RETURN JUMPDEST CALLVALUE DUP1 ISZERO PUSH2 0x1B8 JUMPI PUSH1 0x0 DUP1 REVERT JUMPDEST POP PUSH2 0x1C1 PUSH2 0xA4C JUMP JUMPDEST PUSH1 0x40 MLOAD PUSH2 0x1CE SWAP2 SWAP1 PUSH2 0x131C JUMP JUMPDEST PUSH1 0x40 MLOAD DUP1 SWAP2 SUB SWAP1 RETURN JUMPDEST CALLVALUE DUP1 ISZERO PUSH2 0x1E3 JUMPI PUSH1 0x0 DUP1 REVERT JUMPDEST POP PUSH2 0x1FE PUSH1 0x4 DUP1 CALLDATASIZE SUB DUP2 ADD SWAP1 PUSH2 0x1F9 SWAP2 SWAP1 PUSH2 0x11DD JUMP JUMPDEST PUSH2 0xB32 JUMP JUMPDEST STOP JUMPDEST CALLVALUE DUP1 ISZERO PUSH2 0x20C JUMPI PUSH1 0x0 DUP1 REVERT JUMPDEST POP PUSH2 0x227 PUSH1 0x4 DUP1 CALLDATASIZE SUB DUP2 ADD SWAP1 PUSH2 0x222 SWAP2 SWAP1 PUSH2 0x133E JUMP JUMPDEST PUSH2 0xCF6 JUMP JUMPDEST STOP JUMPDEST CALLVALUE DUP1 ISZERO PUSH2 0x235 JUMPI PUSH1 0x0 DUP1 REVERT JUMPDEST POP PUSH2 0x250 PUSH1 0x4 DUP1 CALLDATASIZE SUB DUP2 ADD SWAP1 PUSH2 0x24B SWAP2 SWAP1 PUSH2 0xF95 JUMP JUMPDEST PUSH2 0xDE8 JUMP JUMPDEST STOP JUMPDEST PUSH1 0x3 PUSH1 0x0 SWAP1 SLOAD SWAP1 PUSH2 0x100 EXP SWAP1 DIV PUSH20 0xFFFFFFFFFFFFFFFFFFFFFFFFFFFFFFFFFFFFFFFF AND PUSH20 0xFFFFFFFFFFFFFFFFFFFFFFFFFFFFFFFFFFFFFFFF AND PUSH4 0xECDED204 CALLER PUSH1 0x40 MLOAD DUP3 PUSH4 0xFFFFFFFF AND PUSH1 0xE0 SHL DUP2 MSTORE PUSH1 0x4 ADD PUSH2 0x2AD SWAP2 SWAP1 PUSH2 0x1219 JUMP JUMPDEST PUSH1 0x20 PUSH1 0x40 MLOAD DUP1 DUP4 SUB DUP2 DUP7 GAS STATICCALL ISZERO DUP1 ISZERO PUSH2 0x2CA JUMPI RETURNDATASIZE PUSH1 0x0 DUP1 RETURNDATACOPY RETURNDATASIZE PUSH1 0x0 REVERT JUMPDEST POP POP POP POP PUSH1 0x40 MLOAD RETURNDATASIZE PUSH1 0x1F NOT PUSH1 0x1F DUP3 ADD AND DUP3 ADD DUP1 PUSH1 0x40 MSTORE POP DUP2 ADD SWAP1 PUSH2 0x2EE SWAP2 SWAP1 PUSH2 0x141D JUMP JUMPDEST PUSH2 0x2F7 JUMPI PUSH1 0x0 DUP1 REVERT JUMPDEST PUSH1 0x0 PUSH1 0x2 PUSH1 0x0 SWAP1 SLOAD SWAP1 PUSH2 0x100 EXP SWAP1 DIV PUSH20 0xFFFFFFFFFFFFFFFFFFFFFFFFFFFFFFFFFFFFFFFF AND PUSH20 0xFFFFFFFFFFFFFFFFFFFFFFFFFFFFFFFFFFFFFFFF AND PUSH4 0x6C230EEF DUP6 PUSH1 0x40 MLOAD DUP3 PUSH4 0xFFFFFFFF AND PUSH1 0xE0 SHL DUP2 MSTORE PUSH1 0x4 ADD PUSH2 0x354 SWAP2 SWAP1 PUSH2 0x1243 JUMP JUMPDEST PUSH1 0x20 PUSH1 0x40 MLOAD DUP1 DUP4 SUB DUP2 DUP7 GAS STATICCALL ISZERO DUP1 ISZERO PUSH2 0x371 JUMPI RETURNDATASIZE PUSH1 0x0 DUP1 RETURNDATACOPY RETURNDATASIZE PUSH1 0x0 REVERT JUMPDEST POP POP POP POP PUSH1 0x40 MLOAD RETURNDATASIZE PUSH1 0x1F NOT PUSH1 0x1F DUP3 ADD AND DUP3 ADD DUP1 PUSH1 0x40 MSTORE POP DUP2 ADD SWAP1 PUSH2 0x395 SWAP2 SWAP1 PUSH2 0x145F JUMP JUMPDEST SWAP1 POP CALLVALUE DUP2 EQ PUSH2 0x3A3 JUMPI PUSH1 0x0 DUP1 REVERT JUMPDEST PUSH1 0x0 PUSH1 0x4 PUSH1 0x0 SWAP1 SLOAD SWAP1 PUSH2 0x100 EXP SWAP1 DIV PUSH20 0xFFFFFFFFFFFFFFFFFFFFFFFFFFFFFFFFFFFFFFFF AND PUSH20 0xFFFFFFFFFFFFFFFFFFFFFFFFFFFFFFFFFFFFFFFF AND PUSH4 0xA46D8AC7 CALLER DUP8 DUP8 DUP8 PUSH1 0x40 MLOAD DUP6 PUSH4 0xFFFFFFFF AND PUSH1 0xE0 SHL DUP2 MSTORE PUSH1 0x4 ADD PUSH2 0x406 SWAP5 SWAP4 SWAP3 SWAP2 SWAP1 PUSH2 0x148C JUMP JUMPDEST PUSH1 0x20 PUSH1 0x40 MLOAD DUP1 DUP4 SUB DUP2 PUSH1 0x0 DUP8 GAS CALL ISZERO DUP1 ISZERO PUSH2 0x425 JUMPI RETURNDATASIZE PUSH1 0x0 DUP1 RETURNDATACOPY RETURNDATASIZE PUSH1 0x0 REVERT JUMPDEST POP POP POP POP PUSH1 0x40 MLOAD RETURNDATASIZE PUSH1 0x1F NOT PUSH1 0x1F DUP3 ADD AND DUP3 ADD DUP1 PUSH1 0x40 MSTORE POP DUP2 ADD SWAP1 PUSH2 0x449 SWAP2 SWAP1 PUSH2 0x145F JUMP JUMPDEST SWAP1 POP PUSH1 0x3 PUSH1 0x0 SWAP1 SLOAD SWAP1 PUSH2 0x100 EXP SWAP1 DIV PUSH20 0xFFFFFFFFFFFFFFFFFFFFFFFFFFFFFFFFFFFFFFFF AND PUSH20 0xFFFFFFFFFFFFFFFFFFFFFFFFFFFFFFFFFFFFFFFF AND PUSH4 0xE597EF12 CALLER DUP4 PUSH1 0x40 MLOAD DUP4 PUSH4 0xFFFFFFFF AND PUSH1 0xE0 SHL DUP2 MSTORE PUSH1 0x4 ADD PUSH2 0x4A8 SWAP3 SWAP2 SWAP1 PUSH2 0x14D1 JUMP JUMPDEST PUSH1 0x0 PUSH1 0x40 MLOAD DUP1 DUP4 SUB DUP2 PUSH1 0x0 DUP8 DUP1 EXTCODESIZE ISZERO DUP1 ISZERO PUSH2 0x4C2 JUMPI PUSH1 0x0 DUP1 REVERT JUMPDEST POP GAS CALL ISZERO DUP1 ISZERO PUSH2 0x4D6 JUMPI RETURNDATASIZE PUSH1 0x0 DUP1 RETURNDATACOPY RETURNDATASIZE PUSH1 0x0 REVERT JUMPDEST POP POP POP POP PUSH1 0x2 PUSH1 0x0 SWAP1 SLOAD SWAP1 PUSH2 0x100 EXP SWAP1 DIV PUSH20 0xFFFFFFFFFFFFFFFFFFFFFFFFFFFFFFFFFFFFFFFF AND PUSH20 0xFFFFFFFFFFFFFFFFFFFFFFFFFFFFFFFFFFFFFFFF AND PUSH4 0xA6B2A25 DUP7 PUSH1 0x40 MLOAD DUP3 PUSH4 0xFFFFFFFF AND PUSH1 0xE0 SHL DUP2 MSTORE PUSH1 0x4 ADD PUSH2 0x535 SWAP2 SWAP1 PUSH2 0x1243 JUMP JUMPDEST PUSH1 0x0 PUSH1 0x40 MLOAD DUP1 DUP4 SUB DUP2 PUSH1 0x0 DUP8 DUP1 EXTCODESIZE ISZERO DUP1 ISZERO PUSH2 0x54F JUMPI PUSH1 0x0 DUP1 REVERT JUMPDEST POP GAS CALL ISZERO DUP1 ISZERO PUSH2 0x563 JUMPI RETURNDATASIZE PUSH1 0x0 DUP1 RETURNDATACOPY RETURNDATASIZE PUSH1 0x0 REVERT JUMPDEST POP POP POP POP POP POP POP POP POP JUMP JUMPDEST PUSH1 0x3 PUSH1 0x0 SWAP1 SLOAD SWAP1 PUSH2 0x100 EXP SWAP1 DIV PUSH20 0xFFFFFFFFFFFFFFFFFFFFFFFFFFFFFFFFFFFFFFFF AND PUSH20 0xFFFFFFFFFFFFFFFFFFFFFFFFFFFFFFFFFFFFFFFF AND PUSH4 0x4420E486 CALLER PUSH1 0x40 MLOAD DUP3 PUSH4 0xFFFFFFFF AND PUSH1 0xE0 SHL DUP2 MSTORE PUSH1 0x4 ADD PUSH2 0x5C9 SWAP2 SWAP1 PUSH2 0x1219 JUMP JUMPDEST PUSH1 0x0 PUSH1 0x40 MLOAD DUP1 DUP4 SUB DUP2 PUSH1 0x0 DUP8 DUP1 EXTCODESIZE ISZERO DUP1 ISZERO PUSH2 0x5E3 JUMPI PUSH1 0x0 DUP1 REVERT JUMPDEST POP GAS CALL ISZERO DUP1 ISZERO PUSH2 0x5F7 JUMPI RETURNDATASIZE PUSH1 0x0 DUP1 RETURNDATACOPY RETURNDATASIZE PUSH1 0x0 REVERT JUMPDEST POP POP POP POP JUMP JUMPDEST PUSH1 0x1 PUSH1 0x20 MSTORE DUP1 PUSH1 0x0 MSTORE PUSH1 0x40 PUSH1 0x0 KECCAK256 PUSH1 0x0 SWAP2 POP SLOAD SWAP1 PUSH2 0x100 EXP SWAP1 DIV PUSH1 0xFF AND DUP2 JUMP JUMPDEST CALLER PUSH20 0xFFFFFFFFFFFFFFFFFFFFFFFFFFFFFFFFFFFFFFFF AND PUSH1 0x0 DUP1 SLOAD SWAP1 PUSH2 0x100 EXP SWAP1 DIV PUSH20 0xFFFFFFFFFFFFFFFFFFFFFFFFFFFFFFFFFFFFFFFF AND PUSH20 0xFFFFFFFFFFFFFFFFFFFFFFFFFFFFFFFFFFFFFFFF AND EQ PUSH2 0x675 JUMPI PUSH1 0x0 DUP1 REVERT JUMPDEST PUSH1 0x2 PUSH1 0x0 SWAP1 SLOAD SWAP1 PUSH2 0x100 EXP SWAP1 DIV PUSH20 0xFFFFFFFFFFFFFFFFFFFFFFFFFFFFFFFFFFFFFFFF AND PUSH20 0xFFFFFFFFFFFFFFFFFFFFFFFFFFFFFFFFFFFFFFFF AND PUSH4 0x687564AE DUP6 DUP6 DUP6 DUP6 PUSH1 0x40 MLOAD DUP6 PUSH4 0xFFFFFFFF AND PUSH1 0xE0 SHL DUP2 MSTORE PUSH1 0x4 ADD PUSH2 0x6D6 SWAP5 SWAP4 SWAP3 SWAP2 SWAP1 PUSH2 0x1582 JUMP JUMPDEST PUSH1 0x0 PUSH1 0x40 MLOAD DUP1 DUP4 SUB DUP2 PUSH1 0x0 DUP8 DUP1 EXTCODESIZE ISZERO DUP1 ISZERO PUSH2 0x6F0 JUMPI PUSH1 0x0 DUP1 REVERT JUMPDEST POP GAS CALL ISZERO DUP1 ISZERO PUSH2 0x704 JUMPI RETURNDATASIZE PUSH1 0x0 DUP1 RETURNDATACOPY RETURNDATASIZE PUSH1 0x0 REVERT JUMPDEST POP POP POP POP POP POP POP POP JUMP JUMPDEST PUSH1 0x3 PUSH1 0x0 SWAP1 SLOAD SWAP1 PUSH2 0x100 EXP SWAP1 DIV PUSH20 0xFFFFFFFFFFFFFFFFFFFFFFFFFFFFFFFFFFFFFFFF AND PUSH20 0xFFFFFFFFFFFFFFFFFFFFFFFFFFFFFFFFFFFFFFFF AND PUSH4 0xECDED204 CALLER PUSH1 0x40 MLOAD DUP3 PUSH4 0xFFFFFFFF AND PUSH1 0xE0 SHL DUP2 MSTORE PUSH1 0x4 ADD PUSH2 0x769 SWAP2 SWAP1 PUSH2 0x1219 JUMP JUMPDEST PUSH1 0x20 PUSH1 0x40 MLOAD DUP1 DUP4 SUB DUP2 DUP7 GAS STATICCALL ISZERO DUP1 ISZERO PUSH2 0x786 JUMPI RETURNDATASIZE PUSH1 0x0 DUP1 RETURNDATACOPY RETURNDATASIZE PUSH1 0x0 REVERT JUMPDEST POP POP POP POP PUSH1 0x40 MLOAD RETURNDATASIZE PUSH1 0x1F NOT PUSH1 0x1F DUP3 ADD AND DUP3 ADD DUP1 PUSH1 0x40 MSTORE POP DUP2 ADD SWAP1 PUSH2 0x7AA SWAP2 SWAP1 PUSH2 0x141D JUMP JUMPDEST PUSH2 0x7B3 JUMPI PUSH1 0x0 DUP1 REVERT JUMPDEST PUSH1 0x0 PUSH1 0x4 PUSH1 0x0 SWAP1 SLOAD SWAP1 PUSH2 0x100 EXP SWAP1 DIV PUSH20 0xFFFFFFFFFFFFFFFFFFFFFFFFFFFFFFFFFFFFFFFF AND PUSH20 0xFFFFFFFFFFFFFFFFFFFFFFFFFFFFFFFFFFFFFFFF AND PUSH4 0x1CE06944 DUP4 PUSH1 0x40 MLOAD DUP3 PUSH4 0xFFFFFFFF AND PUSH1 0xE0 SHL DUP2 MSTORE PUSH1 0x4 ADD PUSH2 0x810 SWAP2 SWAP1 PUSH2 0x1243 JUMP JUMPDEST PUSH1 0x20 PUSH1 0x40 MLOAD DUP1 DUP4 SUB DUP2 DUP7 GAS STATICCALL ISZERO DUP1 ISZERO PUSH2 0x82D JUMPI RETURNDATASIZE PUSH1 0x0 DUP1 RETURNDATACOPY RETURNDATASIZE PUSH1 0x0 REVERT JUMPDEST POP POP POP POP PUSH1 0x40 MLOAD RETURNDATASIZE PUSH1 0x1F NOT PUSH1 0x1F DUP3 ADD AND DUP3 ADD DUP1 PUSH1 0x40 MSTORE POP DUP2 ADD SWAP1 PUSH2 0x851 SWAP2 SWAP1 PUSH2 0x145F JUMP JUMPDEST SWAP1 POP PUSH1 0x0 PUSH1 0x4 PUSH1 0x0 SWAP1 SLOAD SWAP1 PUSH2 0x100 EXP SWAP1 DIV PUSH20 0xFFFFFFFFFFFFFFFFFFFFFFFFFFFFFFFFFFFFFFFF AND PUSH20 0xFFFFFFFFFFFFFFFFFFFFFFFFFFFFFFFFFFFFFFFF AND PUSH4 0x67615AD5 DUP5 PUSH1 0x40 MLOAD DUP3 PUSH4 0xFFFFFFFF AND PUSH1 0xE0 SHL DUP2 MSTORE PUSH1 0x4 ADD PUSH2 0x8B0 SWAP2 SWAP1 PUSH2 0x1243 JUMP JUMPDEST PUSH1 0x20 PUSH1 0x40 MLOAD DUP1 DUP4 SUB DUP2 DUP7 GAS STATICCALL ISZERO DUP1 ISZERO PUSH2 0x8CD JUMPI RETURNDATASIZE PUSH1 0x0 DUP1 RETURNDATACOPY RETURNDATASIZE PUSH1 0x0 REVERT JUMPDEST POP POP POP POP PUSH1 0x40 MLOAD RETURNDATASIZE PUSH1 0x1F NOT PUSH1 0x1F DUP3 ADD AND DUP3 ADD DUP1 PUSH1 0x40 MSTORE POP DUP2 ADD SWAP1 PUSH2 0x8F1 SWAP2 SWAP1 PUSH2 0x145F JUMP JUMPDEST SWAP1 POP CALLVALUE DUP3 EQ PUSH2 0x8FF JUMPI PUSH1 0x0 DUP1 REVERT JUMPDEST PUSH1 0x4 PUSH1 0x0 SWAP1 SLOAD SWAP1 PUSH2 0x100 EXP SWAP1 DIV PUSH20 0xFFFFFFFFFFFFFFFFFFFFFFFFFFFFFFFFFFFFFFFF AND PUSH20 0xFFFFFFFFFFFFFFFFFFFFFFFFFFFFFFFFFFFFFFFF AND PUSH4 0xAB21A2BE DUP5 CALLER PUSH1 0x40 MLOAD DUP4 PUSH4 0xFFFFFFFF AND PUSH1 0xE0 SHL DUP2 MSTORE PUSH1 0x4 ADD PUSH2 0x95C SWAP3 SWAP2 SWAP1 PUSH2 0x15D5 JUMP JUMPDEST PUSH1 0x0 PUSH1 0x40 MLOAD DUP1 DUP4 SUB DUP2 PUSH1 0x0 DUP8 DUP1 EXTCODESIZE ISZERO DUP1 ISZERO PUSH2 0x976 JUMPI PUSH1 0x0 DUP1 REVERT JUMPDEST POP GAS CALL ISZERO DUP1 ISZERO PUSH2 0x98A JUMPI RETURNDATASIZE PUSH1 0x0 DUP1 RETURNDATACOPY RETURNDATASIZE PUSH1 0x0 REVERT JUMPDEST POP POP POP POP PUSH1 0x3 PUSH1 0x0 SWAP1 SLOAD SWAP1 PUSH2 0x100 EXP SWAP1 DIV PUSH20 0xFFFFFFFFFFFFFFFFFFFFFFFFFFFFFFFFFFFFFFFF AND PUSH20 0xFFFFFFFFFFFFFFFFFFFFFFFFFFFFFFFFFFFFFFFF AND PUSH4 0xA5A9C518 CALLER DUP6 PUSH1 0x40 MLOAD DUP4 PUSH4 0xFFFFFFFF AND PUSH1 0xE0 SHL DUP2 MSTORE PUSH1 0x4 ADD PUSH2 0x9EB SWAP3 SWAP2 SWAP1 PUSH2 0x14D1 JUMP JUMPDEST PUSH1 0x0 PUSH1 0x40 MLOAD DUP1 DUP4 SUB DUP2 PUSH1 0x0 DUP8 DUP1 EXTCODESIZE ISZERO DUP1 ISZERO PUSH2 0xA05 JUMPI PUSH1 0x0 DUP1 REVERT JUMPDEST POP GAS CALL ISZERO DUP1 ISZERO PUSH2 0xA19 JUMPI RETURNDATASIZE PUSH1 0x0 DUP1 RETURNDATACOPY RETURNDATASIZE PUSH1 0x0 REVERT JUMPDEST POP POP POP POP POP POP POP JUMP JUMPDEST PUSH1 0x0 DUP1 SLOAD SWAP1 PUSH2 0x100 EXP SWAP1 DIV PUSH20 0xFFFFFFFFFFFFFFFFFFFFFFFFFFFFFFFFFFFFFFFF AND DUP2 JUMP JUMPDEST PUSH1 0x6 SLOAD DUP2 JUMP JUMPDEST PUSH1 0x60 CALLER PUSH20 0xFFFFFFFFFFFFFFFFFFFFFFFFFFFFFFFFFFFFFFFF AND PUSH1 0x0 DUP1 SLOAD SWAP1 PUSH2 0x100 EXP SWAP1 DIV PUSH20 0xFFFFFFFFFFFFFFFFFFFFFFFFFFFFFFFFFFFFFFFF AND PUSH20 0xFFFFFFFFFFFFFFFFFFFFFFFFFFFFFFFFFFFFFFFF AND EQ PUSH2 0xAA6 JUMPI PUSH1 0x0 DUP1 REVERT JUMPDEST PUSH1 0x5 DUP1 SLOAD DUP1 PUSH1 0x20 MUL PUSH1 0x20 ADD PUSH1 0x40 MLOAD SWAP1 DUP2 ADD PUSH1 0x40 MSTORE DUP1 SWAP3 SWAP2 SWAP1 DUP2 DUP2 MSTORE PUSH1 0x20 ADD DUP3 DUP1 SLOAD DUP1 ISZERO PUSH2 0xB28 JUMPI PUSH1 0x20 MUL DUP3 ADD SWAP2 SWAP1 PUSH1 0x0 MSTORE PUSH1 0x20 PUSH1 0x0 KECCAK256 SWAP1 JUMPDEST DUP2 PUSH1 0x0 SWAP1 SLOAD SWAP1 PUSH2 0x100 EXP SWAP1 DIV PUSH20 0xFFFFFFFFFFFFFFFFFFFFFFFFFFFFFFFFFFFFFFFF AND PUSH20 0xFFFFFFFFFFFFFFFFFFFFFFFFFFFFFFFFFFFFFFFF AND DUP2 MSTORE PUSH1 0x20 ADD SWAP1 PUSH1 0x1 ADD SWAP1 DUP1 DUP4 GT PUSH2 0xADE JUMPI JUMPDEST POP POP POP POP POP SWAP1 POP SWAP1 JUMP JUMPDEST PUSH1 0x3 PUSH1 0x0 SWAP1 SLOAD SWAP1 PUSH2 0x100 EXP SWAP1 DIV PUSH20 0xFFFFFFFFFFFFFFFFFFFFFFFFFFFFFFFFFFFFFFFF AND PUSH20 0xFFFFFFFFFFFFFFFFFFFFFFFFFFFFFFFFFFFFFFFF AND PUSH4 0xECDED204 CALLER PUSH1 0x40 MLOAD DUP3 PUSH4 0xFFFFFFFF AND PUSH1 0xE0 SHL DUP2 MSTORE PUSH1 0x4 ADD PUSH2 0xB8D SWAP2 SWAP1 PUSH2 0x1219 JUMP JUMPDEST PUSH1 0x20 PUSH1 0x40 MLOAD DUP1 DUP4 SUB DUP2 DUP7 GAS STATICCALL ISZERO DUP1 ISZERO PUSH2 0xBAA JUMPI RETURNDATASIZE PUSH1 0x0 DUP1 RETURNDATACOPY RETURNDATASIZE PUSH1 0x0 REVERT JUMPDEST POP POP POP POP PUSH1 0x40 MLOAD RETURNDATASIZE PUSH1 0x1F NOT PUSH1 0x1F DUP3 ADD AND DUP3 ADD DUP1 PUSH1 0x40 MSTORE POP DUP2 ADD SWAP1 PUSH2 0xBCE SWAP2 SWAP1 PUSH2 0x141D JUMP JUMPDEST PUSH2 0xBD7 JUMPI PUSH1 0x0 DUP1 REVERT JUMPDEST PUSH1 0x4 PUSH1 0x0 SWAP1 SLOAD SWAP1 PUSH2 0x100 EXP SWAP1 DIV PUSH20 0xFFFFFFFFFFFFFFFFFFFFFFFFFFFFFFFFFFFFFFFF AND PUSH20 0xFFFFFFFFFFFFFFFFFFFFFFFFFFFFFFFFFFFFFFFF AND PUSH4 0xCA5140C9 DUP3 PUSH1 0x40 MLOAD DUP3 PUSH4 0xFFFFFFFF AND PUSH1 0xE0 SHL DUP2 MSTORE PUSH1 0x4 ADD PUSH2 0xC32 SWAP2 SWAP1 PUSH2 0x1243 JUMP JUMPDEST PUSH1 0x0 PUSH1 0x40 MLOAD DUP1 DUP4 SUB DUP2 PUSH1 0x0 DUP8 DUP1 EXTCODESIZE ISZERO DUP1 ISZERO PUSH2 0xC4C JUMPI PUSH1 0x0 DUP1 REVERT JUMPDEST POP GAS CALL ISZERO DUP1 ISZERO PUSH2 0xC60 JUMPI RETURNDATASIZE PUSH1 0x0 DUP1 RETURNDATACOPY RETURNDATASIZE PUSH1 0x0 REVERT JUMPDEST POP POP POP POP PUSH1 0x3 PUSH1 0x0 SWAP1 SLOAD SWAP1 PUSH2 0x100 EXP SWAP1 DIV PUSH20 0xFFFFFFFFFFFFFFFFFFFFFFFFFFFFFFFFFFFFFFFF AND PUSH20 0xFFFFFFFFFFFFFFFFFFFFFFFFFFFFFFFFFFFFFFFF AND PUSH4 0x4A09DB4F CALLER DUP4 PUSH1 0x40 MLOAD DUP4 PUSH4 0xFFFFFFFF AND PUSH1 0xE0 SHL DUP2 MSTORE PUSH1 0x4 ADD PUSH2 0xCC1 SWAP3 SWAP2 SWAP1 PUSH2 0x14D1 JUMP JUMPDEST PUSH1 0x0 PUSH1 0x40 MLOAD DUP1 DUP4 SUB DUP2 PUSH1 0x0 DUP8 DUP1 EXTCODESIZE ISZERO DUP1 ISZERO PUSH2 0xCDB JUMPI PUSH1 0x0 DUP1 REVERT JUMPDEST POP GAS CALL ISZERO DUP1 ISZERO PUSH2 0xCEF JUMPI RETURNDATASIZE PUSH1 0x0 DUP1 RETURNDATACOPY RETURNDATASIZE PUSH1 0x0 REVERT JUMPDEST POP POP POP POP POP JUMP JUMPDEST PUSH1 0x1 PUSH1 0x0 CALLER PUSH20 0xFFFFFFFFFFFFFFFFFFFFFFFFFFFFFFFFFFFFFFFF AND PUSH20 0xFFFFFFFFFFFFFFFFFFFFFFFFFFFFFFFFFFFFFFFF AND DUP2 MSTORE PUSH1 0x20 ADD SWAP1 DUP2 MSTORE PUSH1 0x20 ADD PUSH1 0x0 KECCAK256 PUSH1 0x0 SWAP1 SLOAD SWAP1 PUSH2 0x100 EXP SWAP1 DIV PUSH1 0xFF AND PUSH2 0xD4C JUMPI PUSH1 0x0 DUP1 REVERT JUMPDEST PUSH1 0x2 PUSH1 0x0 SWAP1 SLOAD SWAP1 PUSH2 0x100 EXP SWAP1 DIV PUSH20 0xFFFFFFFFFFFFFFFFFFFFFFFFFFFFFFFFFFFFFFFF AND PUSH20 0xFFFFFFFFFFFFFFFFFFFFFFFFFFFFFFFFFFFFFFFF AND PUSH4 0xD2C07E20 DUP7 DUP7 DUP7 DUP7 DUP7 PUSH1 0x40 MLOAD DUP7 PUSH4 0xFFFFFFFF AND PUSH1 0xE0 SHL DUP2 MSTORE PUSH1 0x4 ADD PUSH2 0xDAF SWAP6 SWAP5 SWAP4 SWAP3 SWAP2 SWAP1 PUSH2 0x15FE JUMP JUMPDEST PUSH1 0x0 PUSH1 0x40 MLOAD DUP1 DUP4 SUB DUP2 PUSH1 0x0 DUP8 DUP1 EXTCODESIZE ISZERO DUP1 ISZERO PUSH2 0xDC9 JUMPI PUSH1 0x0 DUP1 REVERT JUMPDEST POP GAS CALL ISZERO DUP1 ISZERO PUSH2 0xDDD JUMPI RETURNDATASIZE PUSH1 0x0 DUP1 RETURNDATACOPY RETURNDATASIZE PUSH1 0x0 REVERT JUMPDEST POP POP POP POP POP POP POP POP POP JUMP JUMPDEST CALLER PUSH20 0xFFFFFFFFFFFFFFFFFFFFFFFFFFFFFFFFFFFFFFFF AND PUSH1 0x0 DUP1 SLOAD SWAP1 PUSH2 0x100 EXP SWAP1 DIV PUSH20 0xFFFFFFFFFFFFFFFFFFFFFFFFFFFFFFFFFFFFFFFF AND PUSH20 0xFFFFFFFFFFFFFFFFFFFFFFFFFFFFFFFFFFFFFFFF AND EQ PUSH2 0xE40 JUMPI PUSH1 0x0 DUP1 REVERT JUMPDEST PUSH1 0x1 DUP1 PUSH1 0x0 DUP4 PUSH20 0xFFFFFFFFFFFFFFFFFFFFFFFFFFFFFFFFFFFFFFFF AND PUSH20 0xFFFFFFFFFFFFFFFFFFFFFFFFFFFFFFFFFFFFFFFF AND DUP2 MSTORE PUSH1 0x20 ADD SWAP1 DUP2 MSTORE PUSH1 0x20 ADD PUSH1 0x0 KECCAK256 PUSH1 0x0 PUSH2 0x100 EXP DUP2 SLOAD DUP2 PUSH1 0xFF MUL NOT AND SWAP1 DUP4 ISZERO ISZERO MUL OR SWAP1 SSTORE POP POP JUMP JUMPDEST PUSH1 0x0 PUSH1 0x40 MLOAD SWAP1 POP SWAP1 JUMP JUMPDEST PUSH1 0x0 DUP1 REVERT JUMPDEST PUSH1 0x0 DUP1 REVERT JUMPDEST PUSH1 0x0 DUP2 SWAP1 POP SWAP2 SWAP1 POP JUMP JUMPDEST PUSH2 0xEC1 DUP2 PUSH2 0xEAE JUMP JUMPDEST DUP2 EQ PUSH2 0xECC JUMPI PUSH1 0x0 DUP1 REVERT JUMPDEST POP JUMP JUMPDEST PUSH1 0x0 DUP2 CALLDATALOAD SWAP1 POP PUSH2 0xEDE DUP2 PUSH2 0xEB8 JUMP JUMPDEST SWAP3 SWAP2 POP POP JUMP JUMPDEST PUSH1 0x0 DUP1 PUSH1 0x0 PUSH1 0x60 DUP5 DUP7 SUB SLT ISZERO PUSH2 0xEFD JUMPI PUSH2 0xEFC PUSH2 0xEA4 JUMP JUMPDEST JUMPDEST PUSH1 0x0 PUSH2 0xF0B DUP7 DUP3 DUP8 ADD PUSH2 0xECF JUMP JUMPDEST SWAP4 POP POP PUSH1 0x20 PUSH2 0xF1C DUP7 DUP3 DUP8 ADD PUSH2 0xECF JUMP JUMPDEST SWAP3 POP POP PUSH1 0x40 PUSH2 0xF2D DUP7 DUP3 DUP8 ADD PUSH2 0xECF JUMP JUMPDEST SWAP2 POP POP SWAP3 POP SWAP3 POP SWAP3 JUMP JUMPDEST PUSH1 0x0 PUSH20 0xFFFFFFFFFFFFFFFFFFFFFFFFFFFFFFFFFFFFFFFF DUP3 AND SWAP1 POP SWAP2 SWAP1 POP JUMP JUMPDEST PUSH1 0x0 PUSH2 0xF62 DUP3 PUSH2 0xF37 JUMP JUMPDEST SWAP1 POP SWAP2 SWAP1 POP JUMP JUMPDEST PUSH2 0xF72 DUP2 PUSH2 0xF57 JUMP JUMPDEST DUP2 EQ PUSH2 0xF7D JUMPI PUSH1 0x0 DUP1 REVERT JUMPDEST POP JUMP JUMPDEST PUSH1 0x0 DUP2 CALLDATALOAD SWAP1 POP PUSH2 0xF8F DUP2 PUSH2 0xF69 JUMP JUMPDEST SWAP3 SWAP2 POP POP JUMP JUMPDEST PUSH1 0x0 PUSH1 0x20 DUP3 DUP5 SUB SLT ISZERO PUSH2 0xFAB JUMPI PUSH2 0xFAA PUSH2 0xEA4 JUMP JUMPDEST JUMPDEST PUSH1 0x0 PUSH2 0xFB9 DUP5 DUP3 DUP6 ADD PUSH2 0xF80 JUMP JUMPDEST SWAP2 POP POP SWAP3 SWAP2 POP POP JUMP JUMPDEST PUSH1 0x0 DUP2 ISZERO ISZERO SWAP1 POP SWAP2 SWAP1 POP JUMP JUMPDEST PUSH2 0xFD7 DUP2 PUSH2 0xFC2 JUMP JUMPDEST DUP3 MSTORE POP POP JUMP JUMPDEST PUSH1 0x0 PUSH1 0x20 DUP3 ADD SWAP1 POP PUSH2 0xFF2 PUSH1 0x0 DUP4 ADD DUP5 PUSH2 0xFCE JUMP JUMPDEST SWAP3 SWAP2 POP POP JUMP JUMPDEST PUSH1 0x0 DUP1 REVERT JUMPDEST PUSH1 0x0 DUP1 REVERT JUMPDEST PUSH1 0x0 PUSH1 0x1F NOT PUSH1 0x1F DUP4 ADD AND SWAP1 POP SWAP2 SWAP1 POP JUMP JUMPDEST PUSH32 0x4E487B7100000000000000000000000000000000000000000000000000000000 PUSH1 0x0 MSTORE PUSH1 0x41 PUSH1 0x4 MSTORE PUSH1 0x24 PUSH1 0x0 REVERT JUMPDEST PUSH2 0x104B DUP3 PUSH2 0x1002 JUMP JUMPDEST DUP2 ADD DUP2 DUP2 LT PUSH8 0xFFFFFFFFFFFFFFFF DUP3 GT OR ISZERO PUSH2 0x106A JUMPI PUSH2 0x1069 PUSH2 0x1013 JUMP JUMPDEST JUMPDEST DUP1 PUSH1 0x40 MSTORE POP POP POP JUMP JUMPDEST PUSH1 0x0 PUSH2 0x107D PUSH2 0xE9A JUMP JUMPDEST SWAP1 POP PUSH2 0x1089 DUP3 DUP3 PUSH2 0x1042 JUMP JUMPDEST SWAP2 SWAP1 POP JUMP JUMPDEST PUSH1 0x0 PUSH8 0xFFFFFFFFFFFFFFFF DUP3 GT ISZERO PUSH2 0x10A9 JUMPI PUSH2 0x10A8 PUSH2 0x1013 JUMP JUMPDEST JUMPDEST PUSH2 0x10B2 DUP3 PUSH2 0x1002 JUMP JUMPDEST SWAP1 POP PUSH1 0x20 DUP2 ADD SWAP1 POP SWAP2 SWAP1 POP JUMP JUMPDEST DUP3 DUP2 DUP4 CALLDATACOPY PUSH1 0x0 DUP4 DUP4 ADD MSTORE POP POP POP JUMP JUMPDEST PUSH1 0x0 PUSH2 0x10E1 PUSH2 0x10DC DUP5 PUSH2 0x108E JUMP JUMPDEST PUSH2 0x1073 JUMP JUMPDEST SWAP1 POP DUP3 DUP2 MSTORE PUSH1 0x20 DUP2 ADD DUP5 DUP5 DUP5 ADD GT ISZERO PUSH2 0x10FD JUMPI PUSH2 0x10FC PUSH2 0xFFD JUMP JUMPDEST JUMPDEST PUSH2 0x1108 DUP5 DUP3 DUP6 PUSH2 0x10BF JUMP JUMPDEST POP SWAP4 SWAP3 POP POP POP JUMP JUMPDEST PUSH1 0x0 DUP3 PUSH1 0x1F DUP4 ADD SLT PUSH2 0x1125 JUMPI PUSH2 0x1124 PUSH2 0xFF8 JUMP JUMPDEST JUMPDEST DUP2 CALLDATALOAD PUSH2 0x1135 DUP5 DUP3 PUSH1 0x20 DUP7 ADD PUSH2 0x10CE JUMP JUMPDEST SWAP2 POP POP SWAP3 SWAP2 POP POP JUMP JUMPDEST PUSH1 0x0 DUP1 PUSH1 0x0 DUP1 PUSH1 0x80 DUP6 DUP8 SUB SLT ISZERO PUSH2 0x1158 JUMPI PUSH2 0x1157 PUSH2 0xEA4 JUMP JUMPDEST JUMPDEST PUSH1 0x0 DUP6 ADD CALLDATALOAD PUSH8 0xFFFFFFFFFFFFFFFF DUP2 GT ISZERO PUSH2 0x1176 JUMPI PUSH2 0x1175 PUSH2 0xEA9 JUMP JUMPDEST JUMPDEST PUSH2 0x1182 DUP8 DUP3 DUP9 ADD PUSH2 0x1110 JUMP JUMPDEST SWAP5 POP POP PUSH1 0x20 DUP6 ADD CALLDATALOAD PUSH8 0xFFFFFFFFFFFFFFFF DUP2 GT ISZERO PUSH2 0x11A3 JUMPI PUSH2 0x11A2 PUSH2 0xEA9 JUMP JUMPDEST JUMPDEST PUSH2 0x11AF DUP8 DUP3 DUP9 ADD PUSH2 0x1110 JUMP JUMPDEST SWAP4 POP POP PUSH1 0x40 PUSH2 0x11C0 DUP8 DUP3 DUP9 ADD PUSH2 0xECF JUMP JUMPDEST SWAP3 POP POP PUSH1 0x60 PUSH2 0x11D1 DUP8 DUP3 DUP9 ADD PUSH2 0xF80 JUMP JUMPDEST SWAP2 POP POP SWAP3 SWAP6 SWAP2 SWAP5 POP SWAP3 POP JUMP JUMPDEST PUSH1 0x0 PUSH1 0x20 DUP3 DUP5 SUB SLT ISZERO PUSH2 0x11F3 JUMPI PUSH2 0x11F2 PUSH2 0xEA4 JUMP JUMPDEST JUMPDEST PUSH1 0x0 PUSH2 0x1201 DUP5 DUP3 DUP6 ADD PUSH2 0xECF JUMP JUMPDEST SWAP2 POP POP SWAP3 SWAP2 POP POP JUMP JUMPDEST PUSH2 0x1213 DUP2 PUSH2 0xF57 JUMP JUMPDEST DUP3 MSTORE POP POP JUMP JUMPDEST PUSH1 0x0 PUSH1 0x20 DUP3 ADD SWAP1 POP PUSH2 0x122E PUSH1 0x0 DUP4 ADD DUP5 PUSH2 0x120A JUMP JUMPDEST SWAP3 SWAP2 POP POP JUMP JUMPDEST PUSH2 0x123D DUP2 PUSH2 0xEAE JUMP JUMPDEST DUP3 MSTORE POP POP JUMP JUMPDEST PUSH1 0x0 PUSH1 0x20 DUP3 ADD SWAP1 POP PUSH2 0x1258 PUSH1 0x0 DUP4 ADD DUP5 PUSH2 0x1234 JUMP JUMPDEST SWAP3 SWAP2 POP POP JUMP JUMPDEST PUSH1 0x0 DUP2 MLOAD SWAP1 POP SWAP2 SWAP1 POP JUMP JUMPDEST PUSH1 0x0 DUP3 DUP3 MSTORE PUSH1 0x20 DUP3 ADD SWAP1 POP SWAP3 SWAP2 POP POP JUMP JUMPDEST PUSH1 0x0 DUP2 SWAP1 POP PUSH1 0x20 DUP3 ADD SWAP1 POP SWAP2 SWAP1 POP JUMP JUMPDEST PUSH2 0x1293 DUP2 PUSH2 0xF57 JUMP JUMPDEST DUP3 MSTORE POP POP JUMP JUMPDEST PUSH1 0x0 PUSH2 0x12A5 DUP4 DUP4 PUSH2 0x128A JUMP JUMPDEST PUSH1 0x20 DUP4 ADD SWAP1 POP SWAP3 SWAP2 POP POP JUMP JUMPDEST PUSH1 0x0 PUSH1 0x20 DUP3 ADD SWAP1 POP SWAP2 SWAP1 POP JUMP JUMPDEST PUSH1 0x0 PUSH2 0x12C9 DUP3 PUSH2 0x125E JUMP JUMPDEST PUSH2 0x12D3 DUP2 DUP6 PUSH2 0x1269 JUMP JUMPDEST SWAP4 POP PUSH2 0x12DE DUP4 PUSH2 0x127A JUMP JUMPDEST DUP1 PUSH1 0x0 JUMPDEST DUP4 DUP2 LT ISZERO PUSH2 0x130F JUMPI DUP2 MLOAD PUSH2 0x12F6 DUP9 DUP3 PUSH2 0x1299 JUMP JUMPDEST SWAP8 POP PUSH2 0x1301 DUP4 PUSH2 0x12B1 JUMP JUMPDEST SWAP3 POP POP PUSH1 0x1 DUP2 ADD SWAP1 POP PUSH2 0x12E2 JUMP JUMPDEST POP DUP6 SWAP4 POP POP POP POP SWAP3 SWAP2 POP POP JUMP JUMPDEST PUSH1 0x0 PUSH1 0x20 DUP3 ADD SWAP1 POP DUP2 DUP2 SUB PUSH1 0x0 DUP4 ADD MSTORE PUSH2 0x1336 DUP2 DUP5 PUSH2 0x12BE JUMP JUMPDEST SWAP1 POP SWAP3 SWAP2 POP POP JUMP JUMPDEST PUSH1 0x0 DUP1 PUSH1 0x0 DUP1 PUSH1 0x0 PUSH1 0xA0 DUP7 DUP9 SUB SLT ISZERO PUSH2 0x135A JUMPI PUSH2 0x1359 PUSH2 0xEA4 JUMP JUMPDEST JUMPDEST PUSH1 0x0 PUSH2 0x1368 DUP9 DUP3 DUP10 ADD PUSH2 0xECF JUMP JUMPDEST SWAP6 POP POP PUSH1 0x20 DUP7 ADD CALLDATALOAD PUSH8 0xFFFFFFFFFFFFFFFF DUP2 GT ISZERO PUSH2 0x1389 JUMPI PUSH2 0x1388 PUSH2 0xEA9 JUMP JUMPDEST JUMPDEST PUSH2 0x1395 DUP9 DUP3 DUP10 ADD PUSH2 0x1110 JUMP JUMPDEST SWAP5 POP POP PUSH1 0x40 DUP7 ADD CALLDATALOAD PUSH8 0xFFFFFFFFFFFFFFFF DUP2 GT ISZERO PUSH2 0x13B6 JUMPI PUSH2 0x13B5 PUSH2 0xEA9 JUMP JUMPDEST JUMPDEST PUSH2 0x13C2 DUP9 DUP3 DUP10 ADD PUSH2 0x1110 JUMP JUMPDEST SWAP4 POP POP PUSH1 0x60 PUSH2 0x13D3 DUP9 DUP3 DUP10 ADD PUSH2 0xECF JUMP JUMPDEST SWAP3 POP POP PUSH1 0x80 PUSH2 0x13E4 DUP9 DUP3 DUP10 ADD PUSH2 0xF80 JUMP JUMPDEST SWAP2 POP POP SWAP3 SWAP6 POP SWAP3 SWAP6 SWAP1 SWAP4 POP JUMP JUMPDEST PUSH2 0x13FA DUP2 PUSH2 0xFC2 JUMP JUMPDEST DUP2 EQ PUSH2 0x1405 JUMPI PUSH1 0x0 DUP1 REVERT JUMPDEST POP JUMP JUMPDEST PUSH1 0x0 DUP2 MLOAD SWAP1 POP PUSH2 0x1417 DUP2 PUSH2 0x13F1 JUMP JUMPDEST SWAP3 SWAP2 POP POP JUMP JUMPDEST PUSH1 0x0 PUSH1 0x20 DUP3 DUP5 SUB SLT ISZERO PUSH2 0x1433 JUMPI PUSH2 0x1432 PUSH2 0xEA4 JUMP JUMPDEST JUMPDEST PUSH1 0x0 PUSH2 0x1441 DUP5 DUP3 DUP6 ADD PUSH2 0x1408 JUMP JUMPDEST SWAP2 POP POP SWAP3 SWAP2 POP POP JUMP JUMPDEST PUSH1 0x0 DUP2 MLOAD SWAP1 POP PUSH2 0x1459 DUP2 PUSH2 0xEB8 JUMP JUMPDEST SWAP3 SWAP2 POP POP JUMP JUMPDEST PUSH1 0x0 PUSH1 0x20 DUP3 DUP5 SUB SLT ISZERO PUSH2 0x1475 JUMPI PUSH2 0x1474 PUSH2 0xEA4 JUMP JUMPDEST JUMPDEST PUSH1 0x0 PUSH2 0x1483 DUP5 DUP3 DUP6 ADD PUSH2 0x144A JUMP JUMPDEST SWAP2 POP POP SWAP3 SWAP2 POP POP JUMP JUMPDEST PUSH1 0x0 PUSH1 0x80 DUP3 ADD SWAP1 POP PUSH2 0x14A1 PUSH1 0x0 DUP4 ADD DUP8 PUSH2 0x120A JUMP JUMPDEST PUSH2 0x14AE PUSH1 0x20 DUP4 ADD DUP7 PUSH2 0x1234 JUMP JUMPDEST PUSH2 0x14BB PUSH1 0x40 DUP4 ADD DUP6 PUSH2 0x1234 JUMP JUMPDEST PUSH2 0x14C8 PUSH1 0x60 DUP4 ADD DUP5 PUSH2 0x1234 JUMP JUMPDEST SWAP6 SWAP5 POP POP POP POP POP JUMP JUMPDEST PUSH1 0x0 PUSH1 0x40 DUP3 ADD SWAP1 POP PUSH2 0x14E6 PUSH1 0x0 DUP4 ADD DUP6 PUSH2 0x120A JUMP JUMPDEST PUSH2 0x14F3 PUSH1 0x20 DUP4 ADD DUP5 PUSH2 0x1234 JUMP JUMPDEST SWAP4 SWAP3 POP POP POP JUMP JUMPDEST PUSH1 0x0 DUP2 MLOAD SWAP1 POP SWAP2 SWAP1 POP JUMP JUMPDEST PUSH1 0x0 DUP3 DUP3 MSTORE PUSH1 0x20 DUP3 ADD SWAP1 POP SWAP3 SWAP2 POP POP JUMP JUMPDEST PUSH1 0x0 JUMPDEST DUP4 DUP2 LT ISZERO PUSH2 0x1534 JUMPI DUP1 DUP3 ADD MLOAD DUP2 DUP5 ADD MSTORE PUSH1 0x20 DUP2 ADD SWAP1 POP PUSH2 0x1519 JUMP JUMPDEST DUP4 DUP2 GT ISZERO PUSH2 0x1543 JUMPI PUSH1 0x0 DUP5 DUP5 ADD MSTORE JUMPDEST POP POP POP POP JUMP JUMPDEST PUSH1 0x0 PUSH2 0x1554 DUP3 PUSH2 0x14FA JUMP JUMPDEST PUSH2 0x155E DUP2 DUP6 PUSH2 0x1505 JUMP JUMPDEST SWAP4 POP PUSH2 0x156E DUP2 DUP6 PUSH1 0x20 DUP7 ADD PUSH2 0x1516 JUMP JUMPDEST PUSH2 0x1577 DUP2 PUSH2 0x1002 JUMP JUMPDEST DUP5 ADD SWAP2 POP POP SWAP3 SWAP2 POP POP JUMP JUMPDEST PUSH1 0x0 PUSH1 0x80 DUP3 ADD SWAP1 POP DUP2 DUP2 SUB PUSH1 0x0 DUP4 ADD MSTORE PUSH2 0x159C DUP2 DUP8 PUSH2 0x1549 JUMP JUMPDEST SWAP1 POP DUP2 DUP2 SUB PUSH1 0x20 DUP4 ADD MSTORE PUSH2 0x15B0 DUP2 DUP7 PUSH2 0x1549 JUMP JUMPDEST SWAP1 POP PUSH2 0x15BF PUSH1 0x40 DUP4 ADD DUP6 PUSH2 0x1234 JUMP JUMPDEST PUSH2 0x15CC PUSH1 0x60 DUP4 ADD DUP5 PUSH2 0x120A JUMP JUMPDEST SWAP6 SWAP5 POP POP POP POP POP JUMP JUMPDEST PUSH1 0x0 PUSH1 0x40 DUP3 ADD SWAP1 POP PUSH2 0x15EA PUSH1 0x0 DUP4 ADD DUP6 PUSH2 0x1234 JUMP JUMPDEST PUSH2 0x15F7 PUSH1 0x20 DUP4 ADD DUP5 PUSH2 0x120A JUMP JUMPDEST SWAP4 SWAP3 POP POP POP JUMP JUMPDEST PUSH1 0x0 PUSH1 0xA0 DUP3 ADD SWAP1 POP PUSH2 0x1613 PUSH1 0x0 DUP4 ADD DUP9 PUSH2 0x1234 JUMP JUMPDEST DUP2 DUP2 SUB PUSH1 0x20 DUP4 ADD MSTORE PUSH2 0x1625 DUP2 DUP8 PUSH2 0x1549 JUMP JUMPDEST SWAP1 POP DUP2 DUP2 SUB PUSH1 0x40 DUP4 ADD MSTORE PUSH2 0x1639 DUP2 DUP7 PUSH2 0x1549 JUMP JUMPDEST SWAP1 POP PUSH2 0x1648 PUSH1 0x60 DUP4 ADD DUP6 PUSH2 0x1234 JUMP JUMPDEST PUSH2 0x1655 PUSH1 0x80 DUP4 ADD DUP5 PUSH2 0x120A JUMP JUMPDEST SWAP7 SWAP6 POP POP POP POP POP POP JUMP INVALID LOG2 PUSH5 0x6970667358 0x22 SLT KECCAK256 0xC6 PUSH15 0x553D0B7908665EC00404FDD650F574 0xD1 EXTCODECOPY 0xDB SWAP16 SWAP2 SWAP11 0xFC SDIV TIMESTAMP 0xC7 SWAP11 PUSH8 0xA02F6F64736F6C63 NUMBER STOP ADDMOD EXP STOP CALLER PUSH1 0x80 PUSH1 0x40 MSTORE CALLVALUE DUP1 ISZERO PUSH3 0x11 JUMPI PUSH1 0x0 DUP1 REVERT JUMPDEST POP PUSH1 0x40 MLOAD PUSH3 0x10FA CODESIZE SUB DUP1 PUSH3 0x10FA DUP4 CODECOPY DUP2 DUP2 ADD PUSH1 0x40 MSTORE DUP2 ADD SWAP1 PUSH3 0x37 SWAP2 SWAP1 PUSH3 0x129 JUMP JUMPDEST DUP1 PUSH1 0x0 DUP1 PUSH2 0x100 EXP DUP2 SLOAD DUP2 PUSH20 0xFFFFFFFFFFFFFFFFFFFFFFFFFFFFFFFFFFFFFFFF MUL NOT AND SWAP1 DUP4 PUSH20 0xFFFFFFFFFFFFFFFFFFFFFFFFFFFFFFFFFFFFFFFF AND MUL OR SWAP1 SSTORE POP CALLER PUSH1 0x1 PUSH1 0x0 PUSH2 0x100 EXP DUP2 SLOAD DUP2 PUSH20 0xFFFFFFFFFFFFFFFFFFFFFFFFFFFFFFFFFFFFFFFF MUL NOT AND SWAP1 DUP4 PUSH20 0xFFFFFFFFFFFFFFFFFFFFFFFFFFFFFFFFFFFFFFFF AND MUL OR SWAP1 SSTORE POP POP PUSH3 0x15B JUMP JUMPDEST PUSH1 0x0 DUP1 REVERT JUMPDEST PUSH1 0x0 PUSH20 0xFFFFFFFFFFFFFFFFFFFFFFFFFFFFFFFFFFFFFFFF DUP3 AND SWAP1 POP SWAP2 SWAP1 POP JUMP JUMPDEST PUSH1 0x0 PUSH3 0xF1 DUP3 PUSH3 0xC4 JUMP JUMPDEST SWAP1 POP SWAP2 SWAP1 POP JUMP JUMPDEST PUSH3 0x103 DUP2 PUSH3 0xE4 JUMP JUMPDEST DUP2 EQ PUSH3 0x10F JUMPI PUSH1 0x0 DUP1 REVERT JUMPDEST POP JUMP JUMPDEST PUSH1 0x0 DUP2 MLOAD SWAP1 POP PUSH3 0x123 DUP2 PUSH3 0xF8 JUMP JUMPDEST SWAP3 SWAP2 POP POP JUMP JUMPDEST PUSH1 0x0 PUSH1 0x20 DUP3 DUP5 SUB SLT ISZERO PUSH3 0x142 JUMPI PUSH3 0x141 PUSH3 0xBF JUMP JUMPDEST JUMPDEST PUSH1 0x0 PUSH3 0x152 DUP5 DUP3 DUP6 ADD PUSH3 0x112 JUMP JUMPDEST SWAP2 POP POP SWAP3 SWAP2 POP POP JUMP JUMPDEST PUSH2 0xF8F DUP1 PUSH3 0x16B PUSH1 0x0 CODECOPY PUSH1 0x0 RETURN INVALID PUSH1 0x80 PUSH1 0x40 MSTORE CALLVALUE DUP1 ISZERO PUSH2 0x10 JUMPI PUSH1 0x0 DUP1 REVERT JUMPDEST POP PUSH1 0x4 CALLDATASIZE LT PUSH2 0x88 JUMPI PUSH1 0x0 CALLDATALOAD PUSH1 0xE0 SHR DUP1 PUSH4 0x98FBCE79 GT PUSH2 0x5B JUMPI DUP1 PUSH4 0x98FBCE79 EQ PUSH2 0x113 JUMPI DUP1 PUSH4 0xD2C07E20 EQ PUSH2 0x147 JUMPI DUP1 PUSH4 0xD9FF0CF1 EQ PUSH2 0x163 JUMPI DUP1 PUSH4 0xF76EBE1C EQ PUSH2 0x197 JUMPI PUSH2 0x88 JUMP JUMPDEST DUP1 PUSH4 0xA6B2A25 EQ PUSH2 0x8D JUMPI DUP1 PUSH4 0x687564AE EQ PUSH2 0xA9 JUMPI DUP1 PUSH4 0x6C230EEF EQ PUSH2 0xC5 JUMPI DUP1 PUSH4 0x8DA5CB5B EQ PUSH2 0xF5 JUMPI JUMPDEST PUSH1 0x0 DUP1 REVERT JUMPDEST PUSH2 0xA7 PUSH1 0x4 DUP1 CALLDATASIZE SUB DUP2 ADD SWAP1 PUSH2 0xA2 SWAP2 SWAP1 PUSH2 0xA20 JUMP JUMPDEST PUSH2 0x1B5 JUMP JUMPDEST STOP JUMPDEST PUSH2 0xC3 PUSH1 0x4 DUP1 CALLDATASIZE SUB DUP2 ADD SWAP1 PUSH2 0xBE SWAP2 SWAP1 PUSH2 0xBF1 JUMP JUMPDEST PUSH2 0x1EA JUMP JUMPDEST STOP JUMPDEST PUSH2 0xDF PUSH1 0x4 DUP1 CALLDATASIZE SUB DUP2 ADD SWAP1 PUSH2 0xDA SWAP2 SWAP1 PUSH2 0xA20 JUMP JUMPDEST PUSH2 0x300 JUMP JUMPDEST PUSH1 0x40 MLOAD PUSH2 0xEC SWAP2 SWAP1 PUSH2 0xC9F JUMP JUMPDEST PUSH1 0x40 MLOAD DUP1 SWAP2 SUB SWAP1 RETURN JUMPDEST PUSH2 0xFD PUSH2 0x4BE JUMP JUMPDEST PUSH1 0x40 MLOAD PUSH2 0x10A SWAP2 SWAP1 PUSH2 0xCC9 JUMP JUMPDEST PUSH1 0x40 MLOAD DUP1 SWAP2 SUB SWAP1 RETURN JUMPDEST PUSH2 0x12D PUSH1 0x4 DUP1 CALLDATASIZE SUB DUP2 ADD SWAP1 PUSH2 0x128 SWAP2 SWAP1 PUSH2 0xA20 JUMP JUMPDEST PUSH2 0x4E2 JUMP JUMPDEST PUSH1 0x40 MLOAD PUSH2 0x13E SWAP6 SWAP5 SWAP4 SWAP3 SWAP2 SWAP1 PUSH2 0xD6C JUMP JUMPDEST PUSH1 0x40 MLOAD DUP1 SWAP2 SUB SWAP1 RETURN JUMPDEST PUSH2 0x161 PUSH1 0x4 DUP1 CALLDATASIZE SUB DUP2 ADD SWAP1 PUSH2 0x15C SWAP2 SWAP1 PUSH2 0xDCD JUMP JUMPDEST PUSH2 0x6C6 JUMP JUMPDEST STOP JUMPDEST PUSH2 0x17D PUSH1 0x4 DUP1 CALLDATASIZE SUB DUP2 ADD SWAP1 PUSH2 0x178 SWAP2 SWAP1 PUSH2 0xA20 JUMP JUMPDEST PUSH2 0x7C7 JUMP JUMPDEST PUSH1 0x40 MLOAD PUSH2 0x18E SWAP6 SWAP5 SWAP4 SWAP3 SWAP2 SWAP1 PUSH2 0xD6C JUMP JUMPDEST PUSH1 0x40 MLOAD DUP1 SWAP2 SUB SWAP1 RETURN JUMPDEST PUSH2 0x19F PUSH2 0x92D JUMP JUMPDEST PUSH1 0x40 MLOAD PUSH2 0x1AC SWAP2 SWAP1 PUSH2 0xC9F JUMP JUMPDEST PUSH1 0x40 MLOAD DUP1 SWAP2 SUB SWAP1 RETURN JUMPDEST PUSH1 0x0 PUSH1 0x3 PUSH1 0x0 DUP4 DUP2 MSTORE PUSH1 0x20 ADD SWAP1 DUP2 MSTORE PUSH1 0x20 ADD PUSH1 0x0 KECCAK256 SWAP1 POP DUP1 PUSH1 0x3 ADD PUSH1 0x0 DUP2 SLOAD DUP1 SWAP3 SWAP2 SWAP1 PUSH2 0x1E1 SWAP1 PUSH2 0xEAF JUMP JUMPDEST SWAP2 SWAP1 POP SSTORE POP POP POP JUMP JUMPDEST CALLER PUSH20 0xFFFFFFFFFFFFFFFFFFFFFFFFFFFFFFFFFFFFFFFF AND PUSH1 0x1 PUSH1 0x0 SWAP1 SLOAD SWAP1 PUSH2 0x100 EXP SWAP1 DIV PUSH20 0xFFFFFFFFFFFFFFFFFFFFFFFFFFFFFFFFFFFFFFFF AND PUSH20 0xFFFFFFFFFFFFFFFFFFFFFFFFFFFFFFFFFFFFFFFF AND EQ PUSH2 0x244 JUMPI PUSH1 0x0 DUP1 REVERT JUMPDEST PUSH1 0x0 PUSH1 0x3 PUSH1 0x0 PUSH1 0x2 PUSH1 0x0 DUP2 SLOAD DUP1 SWAP3 SWAP2 SWAP1 PUSH2 0x25D SWAP1 PUSH2 0xEAF JUMP JUMPDEST SWAP2 SWAP1 POP SSTORE DUP2 MSTORE PUSH1 0x20 ADD SWAP1 DUP2 MSTORE PUSH1 0x20 ADD PUSH1 0x0 KECCAK256 SWAP1 POP DUP5 DUP2 PUSH1 0x0 ADD SWAP1 DUP1 MLOAD SWAP1 PUSH1 0x20 ADD SWAP1 PUSH2 0x289 SWAP3 SWAP2 SWAP1 PUSH2 0x933 JUMP JUMPDEST POP DUP4 DUP2 PUSH1 0x1 ADD SWAP1 DUP1 MLOAD SWAP1 PUSH1 0x20 ADD SWAP1 PUSH2 0x2A2 SWAP3 SWAP2 SWAP1 PUSH2 0x933 JUMP JUMPDEST POP DUP3 DUP2 PUSH1 0x2 ADD DUP2 SWAP1 SSTORE POP PUSH1 0x0 DUP2 PUSH1 0x3 ADD DUP2 SWAP1 SSTORE POP DUP2 DUP2 PUSH1 0x4 ADD PUSH1 0x0 PUSH2 0x100 EXP DUP2 SLOAD DUP2 PUSH20 0xFFFFFFFFFFFFFFFFFFFFFFFFFFFFFFFFFFFFFFFF MUL NOT AND SWAP1 DUP4 PUSH20 0xFFFFFFFFFFFFFFFFFFFFFFFFFFFFFFFFFFFFFFFF AND MUL OR SWAP1 SSTORE POP POP POP POP POP POP JUMP JUMPDEST PUSH1 0x0 DUP1 PUSH1 0x3 PUSH1 0x0 DUP5 DUP2 MSTORE PUSH1 0x20 ADD SWAP1 DUP2 MSTORE PUSH1 0x20 ADD PUSH1 0x0 KECCAK256 PUSH1 0x40 MLOAD DUP1 PUSH1 0xA0 ADD PUSH1 0x40 MSTORE SWAP1 DUP2 PUSH1 0x0 DUP3 ADD DUP1 SLOAD PUSH2 0x331 SWAP1 PUSH2 0xF27 JUMP JUMPDEST DUP1 PUSH1 0x1F ADD PUSH1 0x20 DUP1 SWAP2 DIV MUL PUSH1 0x20 ADD PUSH1 0x40 MLOAD SWAP1 DUP2 ADD PUSH1 0x40 MSTORE DUP1 SWAP3 SWAP2 SWAP1 DUP2 DUP2 MSTORE PUSH1 0x20 ADD DUP3 DUP1 SLOAD PUSH2 0x35D SWAP1 PUSH2 0xF27 JUMP JUMPDEST DUP1 ISZERO PUSH2 0x3AA JUMPI DUP1 PUSH1 0x1F LT PUSH2 0x37F JUMPI PUSH2 0x100 DUP1 DUP4 SLOAD DIV MUL DUP4 MSTORE SWAP2 PUSH1 0x20 ADD SWAP2 PUSH2 0x3AA JUMP JUMPDEST DUP3 ADD SWAP2 SWAP1 PUSH1 0x0 MSTORE PUSH1 0x20 PUSH1 0x0 KECCAK256 SWAP1 JUMPDEST DUP2 SLOAD DUP2 MSTORE SWAP1 PUSH1 0x1 ADD SWAP1 PUSH1 0x20 ADD DUP1 DUP4 GT PUSH2 0x38D JUMPI DUP3 SWAP1 SUB PUSH1 0x1F AND DUP3 ADD SWAP2 JUMPDEST POP POP POP POP POP DUP2 MSTORE PUSH1 0x20 ADD PUSH1 0x1 DUP3 ADD DUP1 SLOAD PUSH2 0x3C3 SWAP1 PUSH2 0xF27 JUMP JUMPDEST DUP1 PUSH1 0x1F ADD PUSH1 0x20 DUP1 SWAP2 DIV MUL PUSH1 0x20 ADD PUSH1 0x40 MLOAD SWAP1 DUP2 ADD PUSH1 0x40 MSTORE DUP1 SWAP3 SWAP2 SWAP1 DUP2 DUP2 MSTORE PUSH1 0x20 ADD DUP3 DUP1 SLOAD PUSH2 0x3EF SWAP1 PUSH2 0xF27 JUMP JUMPDEST DUP1 ISZERO PUSH2 0x43C JUMPI DUP1 PUSH1 0x1F LT PUSH2 0x411 JUMPI PUSH2 0x100 DUP1 DUP4 SLOAD DIV MUL DUP4 MSTORE SWAP2 PUSH1 0x20 ADD SWAP2 PUSH2 0x43C JUMP JUMPDEST DUP3 ADD SWAP2 SWAP1 PUSH1 0x0 MSTORE PUSH1 0x20 PUSH1 0x0 KECCAK256 SWAP1 JUMPDEST DUP2 SLOAD DUP2 MSTORE SWAP1 PUSH1 0x1 ADD SWAP1 PUSH1 0x20 ADD DUP1 DUP4 GT PUSH2 0x41F JUMPI DUP3 SWAP1 SUB PUSH1 0x1F AND DUP3 ADD SWAP2 JUMPDEST POP POP POP POP POP DUP2 MSTORE PUSH1 0x20 ADD PUSH1 0x2 DUP3 ADD SLOAD DUP2 MSTORE PUSH1 0x20 ADD PUSH1 0x3 DUP3 ADD SLOAD DUP2 MSTORE PUSH1 0x20 ADD PUSH1 0x4 DUP3 ADD PUSH1 0x0 SWAP1 SLOAD SWAP1 PUSH2 0x100 EXP SWAP1 DIV PUSH20 0xFFFFFFFFFFFFFFFFFFFFFFFFFFFFFFFFFFFFFFFF AND PUSH20 0xFFFFFFFFFFFFFFFFFFFFFFFFFFFFFFFFFFFFFFFF AND PUSH20 0xFFFFFFFFFFFFFFFFFFFFFFFFFFFFFFFFFFFFFFFF AND DUP2 MSTORE POP POP SWAP1 POP DUP1 PUSH1 0x40 ADD MLOAD SWAP2 POP POP SWAP2 SWAP1 POP JUMP JUMPDEST PUSH1 0x0 DUP1 SLOAD SWAP1 PUSH2 0x100 EXP SWAP1 DIV PUSH20 0xFFFFFFFFFFFFFFFFFFFFFFFFFFFFFFFFFFFFFFFF AND DUP2 JUMP JUMPDEST PUSH1 0x60 DUP1 PUSH1 0x0 DUP1 PUSH1 0x0 DUP1 PUSH1 0x3 PUSH1 0x0 DUP9 DUP2 MSTORE PUSH1 0x20 ADD SWAP1 DUP2 MSTORE PUSH1 0x20 ADD PUSH1 0x0 KECCAK256 PUSH1 0x40 MLOAD DUP1 PUSH1 0xA0 ADD PUSH1 0x40 MSTORE SWAP1 DUP2 PUSH1 0x0 DUP3 ADD DUP1 SLOAD PUSH2 0x519 SWAP1 PUSH2 0xF27 JUMP JUMPDEST DUP1 PUSH1 0x1F ADD PUSH1 0x20 DUP1 SWAP2 DIV MUL PUSH1 0x20 ADD PUSH1 0x40 MLOAD SWAP1 DUP2 ADD PUSH1 0x40 MSTORE DUP1 SWAP3 SWAP2 SWAP1 DUP2 DUP2 MSTORE PUSH1 0x20 ADD DUP3 DUP1 SLOAD PUSH2 0x545 SWAP1 PUSH2 0xF27 JUMP JUMPDEST DUP1 ISZERO PUSH2 0x592 JUMPI DUP1 PUSH1 0x1F LT PUSH2 0x567 JUMPI PUSH2 0x100 DUP1 DUP4 SLOAD DIV MUL DUP4 MSTORE SWAP2 PUSH1 0x20 ADD SWAP2 PUSH2 0x592 JUMP JUMPDEST DUP3 ADD SWAP2 SWAP1 PUSH1 0x0 MSTORE PUSH1 0x20 PUSH1 0x0 KECCAK256 SWAP1 JUMPDEST DUP2 SLOAD DUP2 MSTORE SWAP1 PUSH1 0x1 ADD SWAP1 PUSH1 0x20 ADD DUP1 DUP4 GT PUSH2 0x575 JUMPI DUP3 SWAP1 SUB PUSH1 0x1F AND DUP3 ADD SWAP2 JUMPDEST POP POP POP POP POP DUP2 MSTORE PUSH1 0x20 ADD PUSH1 0x1 DUP3 ADD DUP1 SLOAD PUSH2 0x5AB SWAP1 PUSH2 0xF27 JUMP JUMPDEST DUP1 PUSH1 0x1F ADD PUSH1 0x20 DUP1 SWAP2 DIV MUL PUSH1 0x20 ADD PUSH1 0x40 MLOAD SWAP1 DUP2 ADD PUSH1 0x40 MSTORE DUP1 SWAP3 SWAP2 SWAP1 DUP2 DUP2 MSTORE PUSH1 0x20 ADD DUP3 DUP1 SLOAD PUSH2 0x5D7 SWAP1 PUSH2 0xF27 JUMP JUMPDEST DUP1 ISZERO PUSH2 0x624 JUMPI DUP1 PUSH1 0x1F LT PUSH2 0x5F9 JUMPI PUSH2 0x100 DUP1 DUP4 SLOAD DIV MUL DUP4 MSTORE SWAP2 PUSH1 0x20 ADD SWAP2 PUSH2 0x624 JUMP JUMPDEST DUP3 ADD SWAP2 SWAP1 PUSH1 0x0 MSTORE PUSH1 0x20 PUSH1 0x0 KECCAK256 SWAP1 JUMPDEST DUP2 SLOAD DUP2 MSTORE SWAP1 PUSH1 0x1 ADD SWAP1 PUSH1 0x20 ADD DUP1 DUP4 GT PUSH2 0x607 JUMPI DUP3 SWAP1 SUB PUSH1 0x1F AND DUP3 ADD SWAP2 JUMPDEST POP POP POP POP POP DUP2 MSTORE PUSH1 0x20 ADD PUSH1 0x2 DUP3 ADD SLOAD DUP2 MSTORE PUSH1 0x20 ADD PUSH1 0x3 DUP3 ADD SLOAD DUP2 MSTORE PUSH1 0x20 ADD PUSH1 0x4 DUP3 ADD PUSH1 0x0 SWAP1 SLOAD SWAP1 PUSH2 0x100 EXP SWAP1 DIV PUSH20 0xFFFFFFFFFFFFFFFFFFFFFFFFFFFFFFFFFFFFFFFF AND PUSH20 0xFFFFFFFFFFFFFFFFFFFFFFFFFFFFFFFFFFFFFFFF AND PUSH20 0xFFFFFFFFFFFFFFFFFFFFFFFFFFFFFFFFFFFFFFFF AND DUP2 MSTORE POP POP SWAP1 POP DUP1 PUSH1 0x0 ADD MLOAD DUP2 PUSH1 0x20 ADD MLOAD DUP3 PUSH1 0x40 ADD MLOAD DUP4 PUSH1 0x60 ADD MLOAD DUP5 PUSH1 0x80 ADD MLOAD SWAP6 POP SWAP6 POP SWAP6 POP SWAP6 POP SWAP6 POP POP SWAP2 SWAP4 SWAP6 SWAP1 SWAP3 SWAP5 POP JUMP JUMPDEST CALLER PUSH20 0xFFFFFFFFFFFFFFFFFFFFFFFFFFFFFFFFFFFFFFFF AND PUSH1 0x1 PUSH1 0x0 SWAP1 SLOAD SWAP1 PUSH2 0x100 EXP SWAP1 DIV PUSH20 0xFFFFFFFFFFFFFFFFFFFFFFFFFFFFFFFFFFFFFFFF AND PUSH20 0xFFFFFFFFFFFFFFFFFFFFFFFFFFFFFFFFFFFFFFFF AND EQ PUSH2 0x720 JUMPI PUSH1 0x0 DUP1 REVERT JUMPDEST PUSH1 0x0 PUSH1 0x3 PUSH1 0x0 DUP8 DUP2 MSTORE PUSH1 0x20 ADD SWAP1 DUP2 MSTORE PUSH1 0x20 ADD PUSH1 0x0 KECCAK256 SWAP1 POP DUP5 DUP2 PUSH1 0x0 ADD SWAP1 DUP1 MLOAD SWAP1 PUSH1 0x20 ADD SWAP1 PUSH2 0x74F SWAP3 SWAP2 SWAP1 PUSH2 0x933 JUMP JUMPDEST POP DUP4 DUP2 PUSH1 0x1 ADD SWAP1 DUP1 MLOAD SWAP1 PUSH1 0x20 ADD SWAP1 PUSH2 0x768 SWAP3 SWAP2 SWAP1 PUSH2 0x933 JUMP JUMPDEST POP DUP3 DUP2 PUSH1 0x2 ADD DUP2 SWAP1 SSTORE POP PUSH1 0x0 DUP2 PUSH1 0x3 ADD DUP2 SWAP1 SSTORE POP DUP2 DUP2 PUSH1 0x4 ADD PUSH1 0x0 PUSH2 0x100 EXP DUP2 SLOAD DUP2 PUSH20 0xFFFFFFFFFFFFFFFFFFFFFFFFFFFFFFFFFFFFFFFF MUL NOT AND SWAP1 DUP4 PUSH20 0xFFFFFFFFFFFFFFFFFFFFFFFFFFFFFFFFFFFFFFFF AND MUL OR SWAP1 SSTORE POP POP POP POP POP POP POP JUMP JUMPDEST PUSH1 0x3 PUSH1 0x20 MSTORE DUP1 PUSH1 0x0 MSTORE PUSH1 0x40 PUSH1 0x0 KECCAK256 PUSH1 0x0 SWAP2 POP SWAP1 POP DUP1 PUSH1 0x0 ADD DUP1 SLOAD PUSH2 0x7EA SWAP1 PUSH2 0xF27 JUMP JUMPDEST DUP1 PUSH1 0x1F ADD PUSH1 0x20 DUP1 SWAP2 DIV MUL PUSH1 0x20 ADD PUSH1 0x40 MLOAD SWAP1 DUP2 ADD PUSH1 0x40 MSTORE DUP1 SWAP3 SWAP2 SWAP1 DUP2 DUP2 MSTORE PUSH1 0x20 ADD DUP3 DUP1 SLOAD PUSH2 0x816 SWAP1 PUSH2 0xF27 JUMP JUMPDEST DUP1 ISZERO PUSH2 0x863 JUMPI DUP1 PUSH1 0x1F LT PUSH2 0x838 JUMPI PUSH2 0x100 DUP1 DUP4 SLOAD DIV MUL DUP4 MSTORE SWAP2 PUSH1 0x20 ADD SWAP2 PUSH2 0x863 JUMP JUMPDEST DUP3 ADD SWAP2 SWAP1 PUSH1 0x0 MSTORE PUSH1 0x20 PUSH1 0x0 KECCAK256 SWAP1 JUMPDEST DUP2 SLOAD DUP2 MSTORE SWAP1 PUSH1 0x1 ADD SWAP1 PUSH1 0x20 ADD DUP1 DUP4 GT PUSH2 0x846 JUMPI DUP3 SWAP1 SUB PUSH1 0x1F AND DUP3 ADD SWAP2 JUMPDEST POP POP POP POP POP SWAP1 DUP1 PUSH1 0x1 ADD DUP1 SLOAD PUSH2 0x878 SWAP1 PUSH2 0xF27 JUMP JUMPDEST DUP1 PUSH1 0x1F ADD PUSH1 0x20 DUP1 SWAP2 DIV MUL PUSH1 0x20 ADD PUSH1 0x40 MLOAD SWAP1 DUP2 ADD PUSH1 0x40 MSTORE DUP1 SWAP3 SWAP2 SWAP1 DUP2 DUP2 MSTORE PUSH1 0x20 ADD DUP3 DUP1 SLOAD PUSH2 0x8A4 SWAP1 PUSH2 0xF27 JUMP JUMPDEST DUP1 ISZERO PUSH2 0x8F1 JUMPI DUP1 PUSH1 0x1F LT PUSH2 0x8C6 JUMPI PUSH2 0x100 DUP1 DUP4 SLOAD DIV MUL DUP4 MSTORE SWAP2 PUSH1 0x20 ADD SWAP2 PUSH2 0x8F1 JUMP JUMPDEST DUP3 ADD SWAP2 SWAP1 PUSH1 0x0 MSTORE PUSH1 0x20 PUSH1 0x0 KECCAK256 SWAP1 JUMPDEST DUP2 SLOAD DUP2 MSTORE SWAP1 PUSH1 0x1 ADD SWAP1 PUSH1 0x20 ADD DUP1 DUP4 GT PUSH2 0x8D4 JUMPI DUP3 SWAP1 SUB PUSH1 0x1F AND DUP3 ADD SWAP2 JUMPDEST POP POP POP POP POP SWAP1 DUP1 PUSH1 0x2 ADD SLOAD SWAP1 DUP1 PUSH1 0x3 ADD SLOAD SWAP1 DUP1 PUSH1 0x4 ADD PUSH1 0x0 SWAP1 SLOAD SWAP1 PUSH2 0x100 EXP SWAP1 DIV PUSH20 0xFFFFFFFFFFFFFFFFFFFFFFFFFFFFFFFFFFFFFFFF AND SWAP1 POP DUP6 JUMP JUMPDEST PUSH1 0x2 SLOAD DUP2 JUMP JUMPDEST DUP3 DUP1 SLOAD PUSH2 0x93F SWAP1 PUSH2 0xF27 JUMP JUMPDEST SWAP1 PUSH1 0x0 MSTORE PUSH1 0x20 PUSH1 0x0 KECCAK256 SWAP1 PUSH1 0x1F ADD PUSH1 0x20 SWAP1 DIV DUP2 ADD SWAP3 DUP3 PUSH2 0x961 JUMPI PUSH1 0x0 DUP6 SSTORE PUSH2 0x9A8 JUMP JUMPDEST DUP3 PUSH1 0x1F LT PUSH2 0x97A JUMPI DUP1 MLOAD PUSH1 0xFF NOT AND DUP4 DUP1 ADD OR DUP6 SSTORE PUSH2 0x9A8 JUMP JUMPDEST DUP3 DUP1 ADD PUSH1 0x1 ADD DUP6 SSTORE DUP3 ISZERO PUSH2 0x9A8 JUMPI SWAP2 DUP3 ADD JUMPDEST DUP3 DUP2 GT ISZERO PUSH2 0x9A7 JUMPI DUP3 MLOAD DUP3 SSTORE SWAP2 PUSH1 0x20 ADD SWAP2 SWAP1 PUSH1 0x1 ADD SWAP1 PUSH2 0x98C JUMP JUMPDEST JUMPDEST POP SWAP1 POP PUSH2 0x9B5 SWAP2 SWAP1 PUSH2 0x9B9 JUMP JUMPDEST POP SWAP1 JUMP JUMPDEST JUMPDEST DUP1 DUP3 GT ISZERO PUSH2 0x9D2 JUMPI PUSH1 0x0 DUP2 PUSH1 0x0 SWAP1 SSTORE POP PUSH1 0x1 ADD PUSH2 0x9BA JUMP JUMPDEST POP SWAP1 JUMP JUMPDEST PUSH1 0x0 PUSH1 0x40 MLOAD SWAP1 POP SWAP1 JUMP JUMPDEST PUSH1 0x0 DUP1 REVERT JUMPDEST PUSH1 0x0 DUP1 REVERT JUMPDEST PUSH1 0x0 DUP2 SWAP1 POP SWAP2 SWAP1 POP JUMP JUMPDEST PUSH2 0x9FD DUP2 PUSH2 0x9EA JUMP JUMPDEST DUP2 EQ PUSH2 0xA08 JUMPI PUSH1 0x0 DUP1 REVERT JUMPDEST POP JUMP JUMPDEST PUSH1 0x0 DUP2 CALLDATALOAD SWAP1 POP PUSH2 0xA1A DUP2 PUSH2 0x9F4 JUMP JUMPDEST SWAP3 SWAP2 POP POP JUMP JUMPDEST PUSH1 0x0 PUSH1 0x20 DUP3 DUP5 SUB SLT ISZERO PUSH2 0xA36 JUMPI PUSH2 0xA35 PUSH2 0x9E0 JUMP JUMPDEST JUMPDEST PUSH1 0x0 PUSH2 0xA44 DUP5 DUP3 DUP6 ADD PUSH2 0xA0B JUMP JUMPDEST SWAP2 POP POP SWAP3 SWAP2 POP POP JUMP JUMPDEST PUSH1 0x0 DUP1 REVERT JUMPDEST PUSH1 0x0 DUP1 REVERT JUMPDEST PUSH1 0x0 PUSH1 0x1F NOT PUSH1 0x1F DUP4 ADD AND SWAP1 POP SWAP2 SWAP1 POP JUMP JUMPDEST PUSH32 0x4E487B7100000000000000000000000000000000000000000000000000000000 PUSH1 0x0 MSTORE PUSH1 0x41 PUSH1 0x4 MSTORE PUSH1 0x24 PUSH1 0x0 REVERT JUMPDEST PUSH2 0xAA0 DUP3 PUSH2 0xA57 JUMP JUMPDEST DUP2 ADD DUP2 DUP2 LT PUSH8 0xFFFFFFFFFFFFFFFF DUP3 GT OR ISZERO PUSH2 0xABF JUMPI PUSH2 0xABE PUSH2 0xA68 JUMP JUMPDEST JUMPDEST DUP1 PUSH1 0x40 MSTORE POP POP POP JUMP JUMPDEST PUSH1 0x0 PUSH2 0xAD2 PUSH2 0x9D6 JUMP JUMPDEST SWAP1 POP PUSH2 0xADE DUP3 DUP3 PUSH2 0xA97 JUMP JUMPDEST SWAP2 SWAP1 POP JUMP JUMPDEST PUSH1 0x0 PUSH8 0xFFFFFFFFFFFFFFFF DUP3 GT ISZERO PUSH2 0xAFE JUMPI PUSH2 0xAFD PUSH2 0xA68 JUMP JUMPDEST JUMPDEST PUSH2 0xB07 DUP3 PUSH2 0xA57 JUMP JUMPDEST SWAP1 POP PUSH1 0x20 DUP2 ADD SWAP1 POP SWAP2 SWAP1 POP JUMP JUMPDEST DUP3 DUP2 DUP4 CALLDATACOPY PUSH1 0x0 DUP4 DUP4 ADD MSTORE POP POP POP JUMP JUMPDEST PUSH1 0x0 PUSH2 0xB36 PUSH2 0xB31 DUP5 PUSH2 0xAE3 JUMP JUMPDEST PUSH2 0xAC8 JUMP JUMPDEST SWAP1 POP DUP3 DUP2 MSTORE PUSH1 0x20 DUP2 ADD DUP5 DUP5 DUP5 ADD GT ISZERO PUSH2 0xB52 JUMPI PUSH2 0xB51 PUSH2 0xA52 JUMP JUMPDEST JUMPDEST PUSH2 0xB5D DUP5 DUP3 DUP6 PUSH2 0xB14 JUMP JUMPDEST POP SWAP4 SWAP3 POP POP POP JUMP JUMPDEST PUSH1 0x0 DUP3 PUSH1 0x1F DUP4 ADD SLT PUSH2 0xB7A JUMPI PUSH2 0xB79 PUSH2 0xA4D JUMP JUMPDEST JUMPDEST DUP2 CALLDATALOAD PUSH2 0xB8A DUP5 DUP3 PUSH1 0x20 DUP7 ADD PUSH2 0xB23 JUMP JUMPDEST SWAP2 POP POP SWAP3 SWAP2 POP POP JUMP JUMPDEST PUSH1 0x0 PUSH20 0xFFFFFFFFFFFFFFFFFFFFFFFFFFFFFFFFFFFFFFFF DUP3 AND SWAP1 POP SWAP2 SWAP1 POP JUMP JUMPDEST PUSH1 0x0 PUSH2 0xBBE DUP3 PUSH2 0xB93 JUMP JUMPDEST SWAP1 POP SWAP2 SWAP1 POP JUMP JUMPDEST PUSH2 0xBCE DUP2 PUSH2 0xBB3 JUMP JUMPDEST DUP2 EQ PUSH2 0xBD9 JUMPI PUSH1 0x0 DUP1 REVERT JUMPDEST POP JUMP JUMPDEST PUSH1 0x0 DUP2 CALLDATALOAD SWAP1 POP PUSH2 0xBEB DUP2 PUSH2 0xBC5 JUMP JUMPDEST SWAP3 SWAP2 POP POP JUMP JUMPDEST PUSH1 0x0 DUP1 PUSH1 0x0 DUP1 PUSH1 0x80 DUP6 DUP8 SUB SLT ISZERO PUSH2 0xC0B JUMPI PUSH2 0xC0A PUSH2 0x9E0 JUMP JUMPDEST JUMPDEST PUSH1 0x0 DUP6 ADD CALLDATALOAD PUSH8 0xFFFFFFFFFFFFFFFF DUP2 GT ISZERO PUSH2 0xC29 JUMPI PUSH2 0xC28 PUSH2 0x9E5 JUMP JUMPDEST JUMPDEST PUSH2 0xC35 DUP8 DUP3 DUP9 ADD PUSH2 0xB65 JUMP JUMPDEST SWAP5 POP POP PUSH1 0x20 DUP6 ADD CALLDATALOAD PUSH8 0xFFFFFFFFFFFFFFFF DUP2 GT ISZERO PUSH2 0xC56 JUMPI PUSH2 0xC55 PUSH2 0x9E5 JUMP JUMPDEST JUMPDEST PUSH2 0xC62 DUP8 DUP3 DUP9 ADD PUSH2 0xB65 JUMP JUMPDEST SWAP4 POP POP PUSH1 0x40 PUSH2 0xC73 DUP8 DUP3 DUP9 ADD PUSH2 0xA0B JUMP JUMPDEST SWAP3 POP POP PUSH1 0x60 PUSH2 0xC84 DUP8 DUP3 DUP9 ADD PUSH2 0xBDC JUMP JUMPDEST SWAP2 POP POP SWAP3 SWAP6 SWAP2 SWAP5 POP SWAP3 POP JUMP JUMPDEST PUSH2 0xC99 DUP2 PUSH2 0x9EA JUMP JUMPDEST DUP3 MSTORE POP POP JUMP JUMPDEST PUSH1 0x0 PUSH1 0x20 DUP3 ADD SWAP1 POP PUSH2 0xCB4 PUSH1 0x0 DUP4 ADD DUP5 PUSH2 0xC90 JUMP JUMPDEST SWAP3 SWAP2 POP POP JUMP JUMPDEST PUSH2 0xCC3 DUP2 PUSH2 0xBB3 JUMP JUMPDEST DUP3 MSTORE POP POP JUMP JUMPDEST PUSH1 0x0 PUSH1 0x20 DUP3 ADD SWAP1 POP PUSH2 0xCDE PUSH1 0x0 DUP4 ADD DUP5 PUSH2 0xCBA JUMP JUMPDEST SWAP3 SWAP2 POP POP JUMP JUMPDEST PUSH1 0x0 DUP2 MLOAD SWAP1 POP SWAP2 SWAP1 POP JUMP JUMPDEST PUSH1 0x0 DUP3 DUP3 MSTORE PUSH1 0x20 DUP3 ADD SWAP1 POP SWAP3 SWAP2 POP POP JUMP JUMPDEST PUSH1 0x0 JUMPDEST DUP4 DUP2 LT ISZERO PUSH2 0xD1E JUMPI DUP1 DUP3 ADD MLOAD DUP2 DUP5 ADD MSTORE PUSH1 0x20 DUP2 ADD SWAP1 POP PUSH2 0xD03 JUMP JUMPDEST DUP4 DUP2 GT ISZERO PUSH2 0xD2D JUMPI PUSH1 0x0 DUP5 DUP5 ADD MSTORE JUMPDEST POP POP POP POP JUMP JUMPDEST PUSH1 0x0 PUSH2 0xD3E DUP3 PUSH2 0xCE4 JUMP JUMPDEST PUSH2 0xD48 DUP2 DUP6 PUSH2 0xCEF JUMP JUMPDEST SWAP4 POP PUSH2 0xD58 DUP2 DUP6 PUSH1 0x20 DUP7 ADD PUSH2 0xD00 JUMP JUMPDEST PUSH2 0xD61 DUP2 PUSH2 0xA57 JUMP JUMPDEST DUP5 ADD SWAP2 POP POP SWAP3 SWAP2 POP POP JUMP JUMPDEST PUSH1 0x0 PUSH1 0xA0 DUP3 ADD SWAP1 POP DUP2 DUP2 SUB PUSH1 0x0 DUP4 ADD MSTORE PUSH2 0xD86 DUP2 DUP9 PUSH2 0xD33 JUMP JUMPDEST SWAP1 POP DUP2 DUP2 SUB PUSH1 0x20 DUP4 ADD MSTORE PUSH2 0xD9A DUP2 DUP8 PUSH2 0xD33 JUMP JUMPDEST SWAP1 POP PUSH2 0xDA9 PUSH1 0x40 DUP4 ADD DUP7 PUSH2 0xC90 JUMP JUMPDEST PUSH2 0xDB6 PUSH1 0x60 DUP4 ADD DUP6 PUSH2 0xC90 JUMP JUMPDEST PUSH2 0xDC3 PUSH1 0x80 DUP4 ADD DUP5 PUSH2 0xCBA JUMP JUMPDEST SWAP7 SWAP6 POP POP POP POP POP POP JUMP JUMPDEST PUSH1 0x0 DUP1 PUSH1 0x0 DUP1 PUSH1 0x0 PUSH1 0xA0 DUP7 DUP9 SUB SLT ISZERO PUSH2 0xDE9 JUMPI PUSH2 0xDE8 PUSH2 0x9E0 JUMP JUMPDEST JUMPDEST PUSH1 0x0 PUSH2 0xDF7 DUP9 DUP3 DUP10 ADD PUSH2 0xA0B JUMP JUMPDEST SWAP6 POP POP PUSH1 0x20 DUP7 ADD CALLDATALOAD PUSH8 0xFFFFFFFFFFFFFFFF DUP2 GT ISZERO PUSH2 0xE18 JUMPI PUSH2 0xE17 PUSH2 0x9E5 JUMP JUMPDEST JUMPDEST PUSH2 0xE24 DUP9 DUP3 DUP10 ADD PUSH2 0xB65 JUMP JUMPDEST SWAP5 POP POP PUSH1 0x40 DUP7 ADD CALLDATALOAD PUSH8 0xFFFFFFFFFFFFFFFF DUP2 GT ISZERO PUSH2 0xE45 JUMPI PUSH2 0xE44 PUSH2 0x9E5 JUMP JUMPDEST JUMPDEST PUSH2 0xE51 DUP9 DUP3 DUP10 ADD PUSH2 0xB65 JUMP JUMPDEST SWAP4 POP POP PUSH1 0x60 PUSH2 0xE62 DUP9 DUP3 DUP10 ADD PUSH2 0xA0B JUMP JUMPDEST SWAP3 POP POP PUSH1 0x80 PUSH2 0xE73 DUP9 DUP3 DUP10 ADD PUSH2 0xBDC JUMP JUMPDEST SWAP2 POP POP SWAP3 SWAP6 POP SWAP3 SWAP6 SWAP1 SWAP4 POP JUMP JUMPDEST PUSH32 0x4E487B7100000000000000000000000000000000000000000000000000000000 PUSH1 0x0 MSTORE PUSH1 0x11 PUSH1 0x4 MSTORE PUSH1 0x24 PUSH1 0x0 REVERT JUMPDEST PUSH1 0x0 PUSH2 0xEBA DUP3 PUSH2 0x9EA JUMP JUMPDEST SWAP2 POP PUSH32 0xFFFFFFFFFFFFFFFFFFFFFFFFFFFFFFFFFFFFFFFFFFFFFFFFFFFFFFFFFFFFFFFF DUP3 EQ ISZERO PUSH2 0xEED JUMPI PUSH2 0xEEC PUSH2 0xE80 JUMP JUMPDEST JUMPDEST PUSH1 0x1 DUP3 ADD SWAP1 POP SWAP2 SWAP1 POP JUMP JUMPDEST PUSH32 0x4E487B7100000000000000000000000000000000000000000000000000000000 PUSH1 0x0 MSTORE PUSH1 0x22 PUSH1 0x4 MSTORE PUSH1 0x24 PUSH1 0x0 REVERT JUMPDEST PUSH1 0x0 PUSH1 0x2 DUP3 DIV SWAP1 POP PUSH1 0x1 DUP3 AND DUP1 PUSH2 0xF3F JUMPI PUSH1 0x7F DUP3 AND SWAP2 POP JUMPDEST PUSH1 0x20 DUP3 LT DUP2 EQ ISZERO PUSH2 0xF53 JUMPI PUSH2 0xF52 PUSH2 0xEF8 JUMP JUMPDEST JUMPDEST POP SWAP2 SWAP1 POP JUMP INVALID LOG2 PUSH5 0x6970667358 0x22 SLT KECCAK256 DUP9 0xBF DIFFICULTY 0x25 0xC6 0xEC SWAP9 0xB6 SELFBALANCE PUSH12 0xDBE90C6516B5C4388C5036CC 0xCD GASPRICE 0xAE GASLIMIT 0x26 ADDMOD SIGNEXTEND SWAP13 BYTE 0x5E PUSH5 0x736F6C6343 STOP ADDMOD EXP STOP CALLER PUSH1 0x80 PUSH1 0x40 MSTORE CALLVALUE DUP1 ISZERO PUSH2 0x10 JUMPI PUSH1 0x0 DUP1 REVERT JUMPDEST POP PUSH1 0x40 MLOAD PUSH2 0xE6C CODESIZE SUB DUP1 PUSH2 0xE6C DUP4 CODECOPY DUP2 DUP2 ADD PUSH1 0x40 MSTORE DUP2 ADD SWAP1 PUSH2 0x32 SWAP2 SWAP1 PUSH2 0x11C JUMP JUMPDEST DUP1 PUSH1 0x0 DUP1 PUSH2 0x100 EXP DUP2 SLOAD DUP2 PUSH20 0xFFFFFFFFFFFFFFFFFFFFFFFFFFFFFFFFFFFFFFFF MUL NOT AND SWAP1 DUP4 PUSH20 0xFFFFFFFFFFFFFFFFFFFFFFFFFFFFFFFFFFFFFFFF AND MUL OR SWAP1 SSTORE POP CALLER PUSH1 0x1 PUSH1 0x0 PUSH2 0x100 EXP DUP2 SLOAD DUP2 PUSH20 0xFFFFFFFFFFFFFFFFFFFFFFFFFFFFFFFFFFFFFFFF MUL NOT AND SWAP1 DUP4 PUSH20 0xFFFFFFFFFFFFFFFFFFFFFFFFFFFFFFFFFFFFFFFF AND MUL OR SWAP1 SSTORE POP POP PUSH2 0x149 JUMP JUMPDEST PUSH1 0x0 DUP1 REVERT JUMPDEST PUSH1 0x0 PUSH20 0xFFFFFFFFFFFFFFFFFFFFFFFFFFFFFFFFFFFFFFFF DUP3 AND SWAP1 POP SWAP2 SWAP1 POP JUMP JUMPDEST PUSH1 0x0 PUSH2 0xE9 DUP3 PUSH2 0xBE JUMP JUMPDEST SWAP1 POP SWAP2 SWAP1 POP JUMP JUMPDEST PUSH2 0xF9 DUP2 PUSH2 0xDE JUMP JUMPDEST DUP2 EQ PUSH2 0x104 JUMPI PUSH1 0x0 DUP1 REVERT JUMPDEST POP JUMP JUMPDEST PUSH1 0x0 DUP2 MLOAD SWAP1 POP PUSH2 0x116 DUP2 PUSH2 0xF0 JUMP JUMPDEST SWAP3 SWAP2 POP POP JUMP JUMPDEST PUSH1 0x0 PUSH1 0x20 DUP3 DUP5 SUB SLT ISZERO PUSH2 0x132 JUMPI PUSH2 0x131 PUSH2 0xB9 JUMP JUMPDEST JUMPDEST PUSH1 0x0 PUSH2 0x140 DUP5 DUP3 DUP6 ADD PUSH2 0x107 JUMP JUMPDEST SWAP2 POP POP SWAP3 SWAP2 POP POP JUMP JUMPDEST PUSH2 0xD14 DUP1 PUSH2 0x158 PUSH1 0x0 CODECOPY PUSH1 0x0 RETURN INVALID PUSH1 0x80 PUSH1 0x40 MSTORE CALLVALUE DUP1 ISZERO PUSH2 0x10 JUMPI PUSH1 0x0 DUP1 REVERT JUMPDEST POP PUSH1 0x4 CALLDATASIZE LT PUSH2 0xB4 JUMPI PUSH1 0x0 CALLDATALOAD PUSH1 0xE0 SHR DUP1 PUSH4 0xA5A9C518 GT PUSH2 0x71 JUMPI DUP1 PUSH4 0xA5A9C518 EQ PUSH2 0x179 JUMPI DUP1 PUSH4 0xA87430BA EQ PUSH2 0x195 JUMPI DUP1 PUSH4 0xE3E1F001 EQ PUSH2 0x1C9 JUMPI DUP1 PUSH4 0xE597EF12 EQ PUSH2 0x1E7 JUMPI DUP1 PUSH4 0xECDED204 EQ PUSH2 0x203 JUMPI DUP1 PUSH4 0xF3C95C60 EQ PUSH2 0x233 JUMPI PUSH2 0xB4 JUMP JUMPDEST DUP1 PUSH4 0x4172FB89 EQ PUSH2 0xB9 JUMPI DUP1 PUSH4 0x4420E486 EQ PUSH2 0xE9 JUMPI DUP1 PUSH4 0x4A09DB4F EQ PUSH2 0x105 JUMPI DUP1 PUSH4 0x6350280E EQ PUSH2 0x121 JUMPI DUP1 PUSH4 0x7C4DD96D EQ PUSH2 0x13F JUMPI DUP1 PUSH4 0x8DA5CB5B EQ PUSH2 0x15B JUMPI JUMPDEST PUSH1 0x0 DUP1 REVERT JUMPDEST PUSH2 0xD3 PUSH1 0x4 DUP1 CALLDATASIZE SUB DUP2 ADD SWAP1 PUSH2 0xCE SWAP2 SWAP1 PUSH2 0xABC JUMP JUMPDEST PUSH2 0x263 JUMP JUMPDEST PUSH1 0x40 MLOAD PUSH2 0xE0 SWAP2 SWAP1 PUSH2 0xB04 JUMP JUMPDEST PUSH1 0x40 MLOAD DUP1 SWAP2 SUB SWAP1 RETURN JUMPDEST PUSH2 0x103 PUSH1 0x4 DUP1 CALLDATASIZE SUB DUP2 ADD SWAP1 PUSH2 0xFE SWAP2 SWAP1 PUSH2 0xABC JUMP JUMPDEST PUSH2 0x2B9 JUMP JUMPDEST STOP JUMPDEST PUSH2 0x11F PUSH1 0x4 DUP1 CALLDATASIZE SUB DUP2 ADD SWAP1 PUSH2 0x11A SWAP2 SWAP1 PUSH2 0xB55 JUMP JUMPDEST PUSH2 0x46A JUMP JUMPDEST STOP JUMPDEST PUSH2 0x129 PUSH2 0x5AA JUMP JUMPDEST PUSH1 0x40 MLOAD PUSH2 0x136 SWAP2 SWAP1 PUSH2 0xBA4 JUMP JUMPDEST PUSH1 0x40 MLOAD DUP1 SWAP2 SUB SWAP1 RETURN JUMPDEST PUSH2 0x159 PUSH1 0x4 DUP1 CALLDATASIZE SUB DUP2 ADD SWAP1 PUSH2 0x154 SWAP2 SWAP1 PUSH2 0xABC JUMP JUMPDEST PUSH2 0x5B0 JUMP JUMPDEST STOP JUMPDEST PUSH2 0x163 PUSH2 0x665 JUMP JUMPDEST PUSH1 0x40 MLOAD PUSH2 0x170 SWAP2 SWAP1 PUSH2 0xBCE JUMP JUMPDEST PUSH1 0x40 MLOAD DUP1 SWAP2 SUB SWAP1 RETURN JUMPDEST PUSH2 0x193 PUSH1 0x4 DUP1 CALLDATASIZE SUB DUP2 ADD SWAP1 PUSH2 0x18E SWAP2 SWAP1 PUSH2 0xB55 JUMP JUMPDEST PUSH2 0x689 JUMP JUMPDEST STOP JUMPDEST PUSH2 0x1AF PUSH1 0x4 DUP1 CALLDATASIZE SUB DUP2 ADD SWAP1 PUSH2 0x1AA SWAP2 SWAP1 PUSH2 0xABC JUMP JUMPDEST PUSH2 0x82C JUMP JUMPDEST PUSH1 0x40 MLOAD PUSH2 0x1C0 SWAP6 SWAP5 SWAP4 SWAP3 SWAP2 SWAP1 PUSH2 0xBE9 JUMP JUMPDEST PUSH1 0x40 MLOAD DUP1 SWAP2 SUB SWAP1 RETURN JUMPDEST PUSH2 0x1D1 PUSH2 0x882 JUMP JUMPDEST PUSH1 0x40 MLOAD PUSH2 0x1DE SWAP2 SWAP1 PUSH2 0xBA4 JUMP JUMPDEST PUSH1 0x40 MLOAD DUP1 SWAP2 SUB SWAP1 RETURN JUMPDEST PUSH2 0x201 PUSH1 0x4 DUP1 CALLDATASIZE SUB DUP2 ADD SWAP1 PUSH2 0x1FC SWAP2 SWAP1 PUSH2 0xB55 JUMP JUMPDEST PUSH2 0x888 JUMP JUMPDEST STOP JUMPDEST PUSH2 0x21D PUSH1 0x4 DUP1 CALLDATASIZE SUB DUP2 ADD SWAP1 PUSH2 0x218 SWAP2 SWAP1 PUSH2 0xABC JUMP JUMPDEST PUSH2 0x9E3 JUMP JUMPDEST PUSH1 0x40 MLOAD PUSH2 0x22A SWAP2 SWAP1 PUSH2 0xB04 JUMP JUMPDEST PUSH1 0x40 MLOAD DUP1 SWAP2 SUB SWAP1 RETURN JUMPDEST PUSH2 0x24D PUSH1 0x4 DUP1 CALLDATASIZE SUB DUP2 ADD SWAP1 PUSH2 0x248 SWAP2 SWAP1 PUSH2 0xABC JUMP JUMPDEST PUSH2 0xA39 JUMP JUMPDEST PUSH1 0x40 MLOAD PUSH2 0x25A SWAP2 SWAP1 PUSH2 0xB04 JUMP JUMPDEST PUSH1 0x40 MLOAD DUP1 SWAP2 SUB SWAP1 RETURN JUMPDEST PUSH1 0x0 PUSH1 0x6 PUSH1 0x0 DUP4 PUSH20 0xFFFFFFFFFFFFFFFFFFFFFFFFFFFFFFFFFFFFFFFF AND PUSH20 0xFFFFFFFFFFFFFFFFFFFFFFFFFFFFFFFFFFFFFFFF AND DUP2 MSTORE PUSH1 0x20 ADD SWAP1 DUP2 MSTORE PUSH1 0x20 ADD PUSH1 0x0 KECCAK256 PUSH1 0x0 SWAP1 SLOAD SWAP1 PUSH2 0x100 EXP SWAP1 DIV PUSH1 0xFF AND SWAP1 POP SWAP2 SWAP1 POP JUMP JUMPDEST CALLER PUSH20 0xFFFFFFFFFFFFFFFFFFFFFFFFFFFFFFFFFFFFFFFF AND PUSH1 0x1 PUSH1 0x0 SWAP1 SLOAD SWAP1 PUSH2 0x100 EXP SWAP1 DIV PUSH20 0xFFFFFFFFFFFFFFFFFFFFFFFFFFFFFFFFFFFFFFFF AND PUSH20 0xFFFFFFFFFFFFFFFFFFFFFFFFFFFFFFFFFFFFFFFF AND EQ PUSH2 0x313 JUMPI PUSH1 0x0 DUP1 REVERT JUMPDEST PUSH1 0x4 PUSH1 0x0 DUP3 PUSH20 0xFFFFFFFFFFFFFFFFFFFFFFFFFFFFFFFFFFFFFFFF AND PUSH20 0xFFFFFFFFFFFFFFFFFFFFFFFFFFFFFFFFFFFFFFFF AND DUP2 MSTORE PUSH1 0x20 ADD SWAP1 DUP2 MSTORE PUSH1 0x20 ADD PUSH1 0x0 KECCAK256 PUSH1 0x0 SWAP1 SLOAD SWAP1 PUSH2 0x100 EXP SWAP1 DIV PUSH1 0xFF AND ISZERO PUSH2 0x36A JUMPI PUSH1 0x0 DUP1 REVERT JUMPDEST PUSH1 0x1 PUSH1 0x4 PUSH1 0x0 DUP4 PUSH20 0xFFFFFFFFFFFFFFFFFFFFFFFFFFFFFFFFFFFFFFFF AND PUSH20 0xFFFFFFFFFFFFFFFFFFFFFFFFFFFFFFFFFFFFFFFF AND DUP2 MSTORE PUSH1 0x20 ADD SWAP1 DUP2 MSTORE PUSH1 0x20 ADD PUSH1 0x0 KECCAK256 PUSH1 0x0 PUSH2 0x100 EXP DUP2 SLOAD DUP2 PUSH1 0xFF MUL NOT AND SWAP1 DUP4 ISZERO ISZERO MUL OR SWAP1 SSTORE POP PUSH1 0x0 PUSH1 0x3 PUSH1 0x0 DUP4 PUSH20 0xFFFFFFFFFFFFFFFFFFFFFFFFFFFFFFFFFFFFFFFF AND PUSH20 0xFFFFFFFFFFFFFFFFFFFFFFFFFFFFFFFFFFFFFFFF AND DUP2 MSTORE PUSH1 0x20 ADD SWAP1 DUP2 MSTORE PUSH1 0x20 ADD PUSH1 0x0 KECCAK256 SWAP1 POP DUP2 DUP2 PUSH1 0x0 ADD PUSH1 0x0 PUSH2 0x100 EXP DUP2 SLOAD DUP2 PUSH20 0xFFFFFFFFFFFFFFFFFFFFFFFFFFFFFFFFFFFFFFFF MUL NOT AND SWAP1 DUP4 PUSH20 0xFFFFFFFFFFFFFFFFFFFFFFFFFFFFFFFFFFFFFFFF AND MUL OR SWAP1 SSTORE POP PUSH1 0x0 DUP2 PUSH1 0x2 ADD DUP2 SWAP1 SSTORE POP PUSH1 0x0 DUP2 PUSH1 0x3 ADD DUP2 SWAP1 SSTORE POP PUSH1 0x0 DUP2 PUSH1 0x7 ADD DUP2 SWAP1 SSTORE POP POP POP JUMP JUMPDEST CALLER PUSH20 0xFFFFFFFFFFFFFFFFFFFFFFFFFFFFFFFFFFFFFFFF AND PUSH1 0x1 PUSH1 0x0 SWAP1 SLOAD SWAP1 PUSH2 0x100 EXP SWAP1 DIV PUSH20 0xFFFFFFFFFFFFFFFFFFFFFFFFFFFFFFFFFFFFFFFF AND PUSH20 0xFFFFFFFFFFFFFFFFFFFFFFFFFFFFFFFFFFFFFFFF AND EQ PUSH2 0x4C4 JUMPI PUSH1 0x0 DUP1 REVERT JUMPDEST PUSH1 0x4 PUSH1 0x0 DUP4 PUSH20 0xFFFFFFFFFFFFFFFFFFFFFFFFFFFFFFFFFFFFFFFF AND PUSH20 0xFFFFFFFFFFFFFFFFFFFFFFFFFFFFFFFFFFFFFFFF AND DUP2 MSTORE PUSH1 0x20 ADD SWAP1 DUP2 MSTORE PUSH1 0x20 ADD PUSH1 0x0 KECCAK256 PUSH1 0x0 SWAP1 SLOAD SWAP1 PUSH2 0x100 EXP SWAP1 DIV PUSH1 0xFF AND PUSH2 0x51A JUMPI PUSH1 0x0 DUP1 REVERT JUMPDEST PUSH1 0x0 PUSH1 0x3 PUSH1 0x0 DUP5 PUSH20 0xFFFFFFFFFFFFFFFFFFFFFFFFFFFFFFFFFFFFFFFF AND PUSH20 0xFFFFFFFFFFFFFFFFFFFFFFFFFFFFFFFFFFFFFFFF AND DUP2 MSTORE PUSH1 0x20 ADD SWAP1 DUP2 MSTORE PUSH1 0x20 ADD PUSH1 0x0 KECCAK256 SWAP1 POP PUSH1 0x0 DUP2 PUSH1 0x6 ADD PUSH1 0x0 DUP5 DUP2 MSTORE PUSH1 0x20 ADD SWAP1 DUP2 MSTORE PUSH1 0x20 ADD PUSH1 0x0 KECCAK256 PUSH1 0x0 PUSH2 0x100 EXP DUP2 SLOAD DUP2 PUSH1 0xFF MUL NOT AND SWAP1 DUP4 ISZERO ISZERO MUL OR SWAP1 SSTORE POP DUP1 PUSH1 0x2 ADD PUSH1 0x0 DUP2 SLOAD DUP1 SWAP3 SWAP2 SWAP1 PUSH2 0x5A0 SWAP1 PUSH2 0xC6B JUMP JUMPDEST SWAP2 SWAP1 POP SSTORE POP POP POP POP JUMP JUMPDEST PUSH1 0x5 SLOAD DUP2 JUMP JUMPDEST CALLER PUSH20 0xFFFFFFFFFFFFFFFFFFFFFFFFFFFFFFFFFFFFFFFF AND PUSH1 0x1 PUSH1 0x0 SWAP1 SLOAD SWAP1 PUSH2 0x100 EXP SWAP1 DIV PUSH20 0xFFFFFFFFFFFFFFFFFFFFFFFFFFFFFFFFFFFFFFFF AND PUSH20 0xFFFFFFFFFFFFFFFFFFFFFFFFFFFFFFFFFFFFFFFF AND EQ PUSH2 0x60A JUMPI PUSH1 0x0 DUP1 REVERT JUMPDEST PUSH1 0x1 PUSH1 0x6 PUSH1 0x0 DUP4 PUSH20 0xFFFFFFFFFFFFFFFFFFFFFFFFFFFFFFFFFFFFFFFF AND PUSH20 0xFFFFFFFFFFFFFFFFFFFFFFFFFFFFFFFFFFFFFFFF AND DUP2 MSTORE PUSH1 0x20 ADD SWAP1 DUP2 MSTORE PUSH1 0x20 ADD PUSH1 0x0 KECCAK256 PUSH1 0x0 PUSH2 0x100 EXP DUP2 SLOAD DUP2 PUSH1 0xFF MUL NOT AND SWAP1 DUP4 ISZERO ISZERO MUL OR SWAP1 SSTORE POP POP JUMP JUMPDEST PUSH1 0x0 DUP1 SLOAD SWAP1 PUSH2 0x100 EXP SWAP1 DIV PUSH20 0xFFFFFFFFFFFFFFFFFFFFFFFFFFFFFFFFFFFFFFFF AND DUP2 JUMP JUMPDEST CALLER PUSH20 0xFFFFFFFFFFFFFFFFFFFFFFFFFFFFFFFFFFFFFFFF AND PUSH1 0x1 PUSH1 0x0 SWAP1 SLOAD SWAP1 PUSH2 0x100 EXP SWAP1 DIV PUSH20 0xFFFFFFFFFFFFFFFFFFFFFFFFFFFFFFFFFFFFFFFF AND PUSH20 0xFFFFFFFFFFFFFFFFFFFFFFFFFFFFFFFFFFFFFFFF AND EQ PUSH2 0x6E3 JUMPI PUSH1 0x0 DUP1 REVERT JUMPDEST PUSH1 0x4 PUSH1 0x0 DUP4 PUSH20 0xFFFFFFFFFFFFFFFFFFFFFFFFFFFFFFFFFFFFFFFF AND PUSH20 0xFFFFFFFFFFFFFFFFFFFFFFFFFFFFFFFFFFFFFFFF AND DUP2 MSTORE PUSH1 0x20 ADD SWAP1 DUP2 MSTORE PUSH1 0x20 ADD PUSH1 0x0 KECCAK256 PUSH1 0x0 SWAP1 SLOAD SWAP1 PUSH2 0x100 EXP SWAP1 DIV PUSH1 0xFF AND PUSH2 0x739 JUMPI PUSH1 0x0 DUP1 REVERT JUMPDEST PUSH1 0x0 PUSH1 0x3 PUSH1 0x0 DUP5 PUSH20 0xFFFFFFFFFFFFFFFFFFFFFFFFFFFFFFFFFFFFFFFF AND PUSH20 0xFFFFFFFFFFFFFFFFFFFFFFFFFFFFFFFFFFFFFFFF AND DUP2 MSTORE PUSH1 0x20 ADD SWAP1 DUP2 MSTORE PUSH1 0x20 ADD PUSH1 0x0 KECCAK256 SWAP1 POP DUP1 PUSH1 0x4 ADD DUP3 SWAP1 DUP1 PUSH1 0x1 DUP2 SLOAD ADD DUP1 DUP3 SSTORE DUP1 SWAP2 POP POP PUSH1 0x1 SWAP1 SUB SWAP1 PUSH1 0x0 MSTORE PUSH1 0x20 PUSH1 0x0 KECCAK256 ADD PUSH1 0x0 SWAP1 SWAP2 SWAP1 SWAP2 SWAP1 SWAP2 POP SSTORE DUP1 PUSH1 0x3 ADD SLOAD DUP2 PUSH1 0x5 ADD PUSH1 0x0 DUP5 DUP2 MSTORE PUSH1 0x20 ADD SWAP1 DUP2 MSTORE PUSH1 0x20 ADD PUSH1 0x0 KECCAK256 DUP2 SWAP1 SSTORE POP PUSH1 0x1 DUP2 PUSH1 0x6 ADD PUSH1 0x0 DUP5 DUP2 MSTORE PUSH1 0x20 ADD SWAP1 DUP2 MSTORE PUSH1 0x20 ADD PUSH1 0x0 KECCAK256 PUSH1 0x0 PUSH2 0x100 EXP DUP2 SLOAD DUP2 PUSH1 0xFF MUL NOT AND SWAP1 DUP4 ISZERO ISZERO MUL OR SWAP1 SSTORE POP DUP1 PUSH1 0x2 ADD PUSH1 0x0 DUP2 SLOAD DUP1 SWAP3 SWAP2 SWAP1 PUSH2 0x808 SWAP1 PUSH2 0xC95 JUMP JUMPDEST SWAP2 SWAP1 POP SSTORE POP DUP1 PUSH1 0x3 ADD PUSH1 0x0 DUP2 SLOAD DUP1 SWAP3 SWAP2 SWAP1 PUSH2 0x822 SWAP1 PUSH2 0xC95 JUMP JUMPDEST SWAP2 SWAP1 POP SSTORE POP POP POP POP JUMP JUMPDEST PUSH1 0x3 PUSH1 0x20 MSTORE DUP1 PUSH1 0x0 MSTORE PUSH1 0x40 PUSH1 0x0 KECCAK256 PUSH1 0x0 SWAP2 POP SWAP1 POP DUP1 PUSH1 0x0 ADD PUSH1 0x0 SWAP1 SLOAD SWAP1 PUSH2 0x100 EXP SWAP1 DIV PUSH20 0xFFFFFFFFFFFFFFFFFFFFFFFFFFFFFFFFFFFFFFFF AND SWAP1 DUP1 PUSH1 0x1 ADD SLOAD SWAP1 DUP1 PUSH1 0x2 ADD SLOAD SWAP1 DUP1 PUSH1 0x3 ADD SLOAD SWAP1 DUP1 PUSH1 0x7 ADD SLOAD SWAP1 POP DUP6 JUMP JUMPDEST PUSH1 0x2 SLOAD DUP2 JUMP JUMPDEST CALLER PUSH20 0xFFFFFFFFFFFFFFFFFFFFFFFFFFFFFFFFFFFFFFFF AND PUSH1 0x1 PUSH1 0x0 SWAP1 SLOAD SWAP1 PUSH2 0x100 EXP SWAP1 DIV PUSH20 0xFFFFFFFFFFFFFFFFFFFFFFFFFFFFFFFFFFFFFFFF AND PUSH20 0xFFFFFFFFFFFFFFFFFFFFFFFFFFFFFFFFFFFFFFFF AND EQ PUSH2 0x8E2 JUMPI PUSH1 0x0 DUP1 REVERT JUMPDEST PUSH1 0x4 PUSH1 0x0 DUP4 PUSH20 0xFFFFFFFFFFFFFFFFFFFFFFFFFFFFFFFFFFFFFFFF AND PUSH20 0xFFFFFFFFFFFFFFFFFFFFFFFFFFFFFFFFFFFFFFFF AND DUP2 MSTORE PUSH1 0x20 ADD SWAP1 DUP2 MSTORE PUSH1 0x20 ADD PUSH1 0x0 KECCAK256 PUSH1 0x0 SWAP1 SLOAD SWAP1 PUSH2 0x100 EXP SWAP1 DIV PUSH1 0xFF AND PUSH2 0x938 JUMPI PUSH1 0x0 DUP1 REVERT JUMPDEST PUSH1 0x0 PUSH1 0x3 PUSH1 0x0 DUP5 PUSH20 0xFFFFFFFFFFFFFFFFFFFFFFFFFFFFFFFFFFFFFFFF AND PUSH20 0xFFFFFFFFFFFFFFFFFFFFFFFFFFFFFFFFFFFFFFFF AND DUP2 MSTORE PUSH1 0x20 ADD SWAP1 DUP2 MSTORE PUSH1 0x20 ADD PUSH1 0x0 KECCAK256 SWAP1 POP DUP1 PUSH1 0x8 ADD DUP3 SWAP1 DUP1 PUSH1 0x1 DUP2 SLOAD ADD DUP1 DUP3 SSTORE DUP1 SWAP2 POP POP PUSH1 0x1 SWAP1 SUB SWAP1 PUSH1 0x0 MSTORE PUSH1 0x20 PUSH1 0x0 KECCAK256 ADD PUSH1 0x0 SWAP1 SWAP2 SWAP1 SWAP2 SWAP1 SWAP2 POP SSTORE DUP1 PUSH1 0x7 ADD SLOAD DUP2 PUSH1 0x9 ADD PUSH1 0x0 DUP5 DUP2 MSTORE PUSH1 0x20 ADD SWAP1 DUP2 MSTORE PUSH1 0x20 ADD PUSH1 0x0 KECCAK256 DUP2 SWAP1 SSTORE POP DUP1 PUSH1 0x7 ADD PUSH1 0x0 DUP2 SLOAD DUP1 SWAP3 SWAP2 SWAP1 PUSH2 0x9D9 SWAP1 PUSH2 0xC95 JUMP JUMPDEST SWAP2 SWAP1 POP SSTORE POP POP POP POP JUMP JUMPDEST PUSH1 0x0 PUSH1 0x4 PUSH1 0x0 DUP4 PUSH20 0xFFFFFFFFFFFFFFFFFFFFFFFFFFFFFFFFFFFFFFFF AND PUSH20 0xFFFFFFFFFFFFFFFFFFFFFFFFFFFFFFFFFFFFFFFF AND DUP2 MSTORE PUSH1 0x20 ADD SWAP1 DUP2 MSTORE PUSH1 0x20 ADD PUSH1 0x0 KECCAK256 PUSH1 0x0 SWAP1 SLOAD SWAP1 PUSH2 0x100 EXP SWAP1 DIV PUSH1 0xFF AND SWAP1 POP SWAP2 SWAP1 POP JUMP JUMPDEST PUSH1 0x4 PUSH1 0x20 MSTORE DUP1 PUSH1 0x0 MSTORE PUSH1 0x40 PUSH1 0x0 KECCAK256 PUSH1 0x0 SWAP2 POP SLOAD SWAP1 PUSH2 0x100 EXP SWAP1 DIV PUSH1 0xFF AND DUP2 JUMP JUMPDEST PUSH1 0x0 DUP1 REVERT JUMPDEST PUSH1 0x0 PUSH20 0xFFFFFFFFFFFFFFFFFFFFFFFFFFFFFFFFFFFFFFFF DUP3 AND SWAP1 POP SWAP2 SWAP1 POP JUMP JUMPDEST PUSH1 0x0 PUSH2 0xA89 DUP3 PUSH2 0xA5E JUMP JUMPDEST SWAP1 POP SWAP2 SWAP1 POP JUMP JUMPDEST PUSH2 0xA99 DUP2 PUSH2 0xA7E JUMP JUMPDEST DUP2 EQ PUSH2 0xAA4 JUMPI PUSH1 0x0 DUP1 REVERT JUMPDEST POP JUMP JUMPDEST PUSH1 0x0 DUP2 CALLDATALOAD SWAP1 POP PUSH2 0xAB6 DUP2 PUSH2 0xA90 JUMP JUMPDEST SWAP3 SWAP2 POP POP JUMP JUMPDEST PUSH1 0x0 PUSH1 0x20 DUP3 DUP5 SUB SLT ISZERO PUSH2 0xAD2 JUMPI PUSH2 0xAD1 PUSH2 0xA59 JUMP JUMPDEST JUMPDEST PUSH1 0x0 PUSH2 0xAE0 DUP5 DUP3 DUP6 ADD PUSH2 0xAA7 JUMP JUMPDEST SWAP2 POP POP SWAP3 SWAP2 POP POP JUMP JUMPDEST PUSH1 0x0 DUP2 ISZERO ISZERO SWAP1 POP SWAP2 SWAP1 POP JUMP JUMPDEST PUSH2 0xAFE DUP2 PUSH2 0xAE9 JUMP JUMPDEST DUP3 MSTORE POP POP JUMP JUMPDEST PUSH1 0x0 PUSH1 0x20 DUP3 ADD SWAP1 POP PUSH2 0xB19 PUSH1 0x0 DUP4 ADD DUP5 PUSH2 0xAF5 JUMP JUMPDEST SWAP3 SWAP2 POP POP JUMP JUMPDEST PUSH1 0x0 DUP2 SWAP1 POP SWAP2 SWAP1 POP JUMP JUMPDEST PUSH2 0xB32 DUP2 PUSH2 0xB1F JUMP JUMPDEST DUP2 EQ PUSH2 0xB3D JUMPI PUSH1 0x0 DUP1 REVERT JUMPDEST POP JUMP JUMPDEST PUSH1 0x0 DUP2 CALLDATALOAD SWAP1 POP PUSH2 0xB4F DUP2 PUSH2 0xB29 JUMP JUMPDEST SWAP3 SWAP2 POP POP JUMP JUMPDEST PUSH1 0x0 DUP1 PUSH1 0x40 DUP4 DUP6 SUB SLT ISZERO PUSH2 0xB6C JUMPI PUSH2 0xB6B PUSH2 0xA59 JUMP JUMPDEST JUMPDEST PUSH1 0x0 PUSH2 0xB7A DUP6 DUP3 DUP7 ADD PUSH2 0xAA7 JUMP JUMPDEST SWAP3 POP POP PUSH1 0x20 PUSH2 0xB8B DUP6 DUP3 DUP7 ADD PUSH2 0xB40 JUMP JUMPDEST SWAP2 POP POP SWAP3 POP SWAP3 SWAP1 POP JUMP JUMPDEST PUSH2 0xB9E DUP2 PUSH2 0xB1F JUMP JUMPDEST DUP3 MSTORE POP POP JUMP JUMPDEST PUSH1 0x0 PUSH1 0x20 DUP3 ADD SWAP1 POP PUSH2 0xBB9 PUSH1 0x0 DUP4 ADD DUP5 PUSH2 0xB95 JUMP JUMPDEST SWAP3 SWAP2 POP POP JUMP JUMPDEST PUSH2 0xBC8 DUP2 PUSH2 0xA7E JUMP JUMPDEST DUP3 MSTORE POP POP JUMP JUMPDEST PUSH1 0x0 PUSH1 0x20 DUP3 ADD SWAP1 POP PUSH2 0xBE3 PUSH1 0x0 DUP4 ADD DUP5 PUSH2 0xBBF JUMP JUMPDEST SWAP3 SWAP2 POP POP JUMP JUMPDEST PUSH1 0x0 PUSH1 0xA0 DUP3 ADD SWAP1 POP PUSH2 0xBFE PUSH1 0x0 DUP4 ADD DUP9 PUSH2 0xBBF JUMP JUMPDEST PUSH2 0xC0B PUSH1 0x20 DUP4 ADD DUP8 PUSH2 0xB95 JUMP JUMPDEST PUSH2 0xC18 PUSH1 0x40 DUP4 ADD DUP7 PUSH2 0xB95 JUMP JUMPDEST PUSH2 0xC25 PUSH1 0x60 DUP4 ADD DUP6 PUSH2 0xB95 JUMP JUMPDEST PUSH2 0xC32 PUSH1 0x80 DUP4 ADD DUP5 PUSH2 0xB95 JUMP JUMPDEST SWAP7 SWAP6 POP POP POP POP POP POP JUMP JUMPDEST PUSH32 0x4E487B7100000000000000000000000000000000000000000000000000000000 PUSH1 0x0 MSTORE PUSH1 0x11 PUSH1 0x4 MSTORE PUSH1 0x24 PUSH1 0x0 REVERT JUMPDEST PUSH1 0x0 PUSH2 0xC76 DUP3 PUSH2 0xB1F JUMP JUMPDEST SWAP2 POP PUSH1 0x0 DUP3 EQ ISZERO PUSH2 0xC8A JUMPI PUSH2 0xC89 PUSH2 0xC3C JUMP JUMPDEST JUMPDEST PUSH1 0x1 DUP3 SUB SWAP1 POP SWAP2 SWAP1 POP JUMP JUMPDEST PUSH1 0x0 PUSH2 0xCA0 DUP3 PUSH2 0xB1F JUMP JUMPDEST SWAP2 POP PUSH32 0xFFFFFFFFFFFFFFFFFFFFFFFFFFFFFFFFFFFFFFFFFFFFFFFFFFFFFFFFFFFFFFFF DUP3 EQ ISZERO PUSH2 0xCD3 JUMPI PUSH2 0xCD2 PUSH2 0xC3C JUMP JUMPDEST JUMPDEST PUSH1 0x1 DUP3 ADD SWAP1 POP SWAP2 SWAP1 POP JUMP INVALID LOG2 PUSH5 0x6970667358 0x22 SLT KECCAK256 SELFBALANCE 0xEF 0xAA GASPRICE 0xC1 CALLVALUE PUSH28 0x1F95836C6072AD459D3D3B128912028ECD36B7218DE40791E64736F PUSH13 0x634300080A0033608060405234 DUP1 ISZERO PUSH2 0x10 JUMPI PUSH1 0x0 DUP1 REVERT JUMPDEST POP PUSH1 0x40 MLOAD PUSH2 0xE88 CODESIZE SUB DUP1 PUSH2 0xE88 DUP4 CODECOPY DUP2 DUP2 ADD PUSH1 0x40 MSTORE DUP2 ADD SWAP1 PUSH2 0x32 SWAP2 SWAP1 PUSH2 0x11C JUMP JUMPDEST DUP1 PUSH1 0x0 DUP1 PUSH2 0x100 EXP DUP2 SLOAD DUP2 PUSH20 0xFFFFFFFFFFFFFFFFFFFFFFFFFFFFFFFFFFFFFFFF MUL NOT AND SWAP1 DUP4 PUSH20 0xFFFFFFFFFFFFFFFFFFFFFFFFFFFFFFFFFFFFFFFF AND MUL OR SWAP1 SSTORE POP CALLER PUSH1 0x1 PUSH1 0x0 PUSH2 0x100 EXP DUP2 SLOAD DUP2 PUSH20 0xFFFFFFFFFFFFFFFFFFFFFFFFFFFFFFFFFFFFFFFF MUL NOT AND SWAP1 DUP4 PUSH20 0xFFFFFFFFFFFFFFFFFFFFFFFFFFFFFFFFFFFFFFFF AND MUL OR SWAP1 SSTORE POP POP PUSH2 0x149 JUMP JUMPDEST PUSH1 0x0 DUP1 REVERT JUMPDEST PUSH1 0x0 PUSH20 0xFFFFFFFFFFFFFFFFFFFFFFFFFFFFFFFFFFFFFFFF DUP3 AND SWAP1 POP SWAP2 SWAP1 POP JUMP JUMPDEST PUSH1 0x0 PUSH2 0xE9 DUP3 PUSH2 0xBE JUMP JUMPDEST SWAP1 POP SWAP2 SWAP1 POP JUMP JUMPDEST PUSH2 0xF9 DUP2 PUSH2 0xDE JUMP JUMPDEST DUP2 EQ PUSH2 0x104 JUMPI PUSH1 0x0 DUP1 REVERT JUMPDEST POP JUMP JUMPDEST PUSH1 0x0 DUP2 MLOAD SWAP1 POP PUSH2 0x116 DUP2 PUSH2 0xF0 JUMP JUMPDEST SWAP3 SWAP2 POP POP JUMP JUMPDEST PUSH1 0x0 PUSH1 0x20 DUP3 DUP5 SUB SLT ISZERO PUSH2 0x132 JUMPI PUSH2 0x131 PUSH2 0xB9 JUMP JUMPDEST JUMPDEST PUSH1 0x0 PUSH2 0x140 DUP5 DUP3 DUP6 ADD PUSH2 0x107 JUMP JUMPDEST SWAP2 POP POP SWAP3 SWAP2 POP POP JUMP JUMPDEST PUSH2 0xD30 DUP1 PUSH2 0x158 PUSH1 0x0 CODECOPY PUSH1 0x0 RETURN INVALID PUSH1 0x80 PUSH1 0x40 MSTORE CALLVALUE DUP1 ISZERO PUSH2 0x10 JUMPI PUSH1 0x0 DUP1 REVERT JUMPDEST POP PUSH1 0x4 CALLDATASIZE LT PUSH2 0xA9 JUMPI PUSH1 0x0 CALLDATALOAD PUSH1 0xE0 SHR DUP1 PUSH4 0x921C47B1 GT PUSH2 0x71 JUMPI DUP1 PUSH4 0x921C47B1 EQ PUSH2 0x17E JUMPI DUP1 PUSH4 0xA46D8AC7 EQ PUSH2 0x19C JUMPI DUP1 PUSH4 0xAB21A2BE EQ PUSH2 0x1CC JUMPI DUP1 PUSH4 0xCA5140C9 EQ PUSH2 0x1E8 JUMPI DUP1 PUSH4 0xEF228C92 EQ PUSH2 0x204 JUMPI DUP1 PUSH4 0xF6B4DFB4 EQ PUSH2 0x220 JUMPI PUSH2 0xA9 JUMP JUMPDEST DUP1 PUSH4 0x1CE06944 EQ PUSH2 0xAE JUMPI DUP1 PUSH4 0x67615AD5 EQ PUSH2 0xDE JUMPI DUP1 PUSH4 0x83B65CB4 EQ PUSH2 0x10E JUMPI DUP1 PUSH4 0x8DA5CB5B EQ PUSH2 0x144 JUMPI DUP1 PUSH4 0x8DBBFBDE EQ PUSH2 0x162 JUMPI JUMPDEST PUSH1 0x0 DUP1 REVERT JUMPDEST PUSH2 0xC8 PUSH1 0x4 DUP1 CALLDATASIZE SUB DUP2 ADD SWAP1 PUSH2 0xC3 SWAP2 SWAP1 PUSH2 0x9B3 JUMP JUMPDEST PUSH2 0x23E JUMP JUMPDEST PUSH1 0x40 MLOAD PUSH2 0xD5 SWAP2 SWAP1 PUSH2 0x9EF JUMP JUMPDEST PUSH1 0x40 MLOAD DUP1 SWAP2 SUB SWAP1 RETURN JUMPDEST PUSH2 0xF8 PUSH1 0x4 DUP1 CALLDATASIZE SUB DUP2 ADD SWAP1 PUSH2 0xF3 SWAP2 SWAP1 PUSH2 0x9B3 JUMP JUMPDEST PUSH2 0x35D JUMP JUMPDEST PUSH1 0x40 MLOAD PUSH2 0x105 SWAP2 SWAP1 PUSH2 0x9EF JUMP JUMPDEST PUSH1 0x40 MLOAD DUP1 SWAP2 SUB SWAP1 RETURN JUMPDEST PUSH2 0x128 PUSH1 0x4 DUP1 CALLDATASIZE SUB DUP2 ADD SWAP1 PUSH2 0x123 SWAP2 SWAP1 PUSH2 0x9B3 JUMP JUMPDEST PUSH2 0x47C JUMP JUMPDEST PUSH1 0x40 MLOAD PUSH2 0x13B SWAP8 SWAP7 SWAP6 SWAP5 SWAP4 SWAP3 SWAP2 SWAP1 PUSH2 0xA66 JUMP JUMPDEST PUSH1 0x40 MLOAD DUP1 SWAP2 SUB SWAP1 RETURN JUMPDEST PUSH2 0x14C PUSH2 0x50B JUMP JUMPDEST PUSH1 0x40 MLOAD PUSH2 0x159 SWAP2 SWAP1 PUSH2 0xAD5 JUMP JUMPDEST PUSH1 0x40 MLOAD DUP1 SWAP2 SUB SWAP1 RETURN JUMPDEST PUSH2 0x17C PUSH1 0x4 DUP1 CALLDATASIZE SUB DUP2 ADD SWAP1 PUSH2 0x177 SWAP2 SWAP1 PUSH2 0xAF0 JUMP JUMPDEST PUSH2 0x52F JUMP JUMPDEST STOP JUMPDEST PUSH2 0x186 PUSH2 0x5C8 JUMP JUMPDEST PUSH1 0x40 MLOAD PUSH2 0x193 SWAP2 SWAP1 PUSH2 0x9EF JUMP JUMPDEST PUSH1 0x40 MLOAD DUP1 SWAP2 SUB SWAP1 RETURN JUMPDEST PUSH2 0x1B6 PUSH1 0x4 DUP1 CALLDATASIZE SUB DUP2 ADD SWAP1 PUSH2 0x1B1 SWAP2 SWAP1 PUSH2 0xB6F JUMP JUMPDEST PUSH2 0x5CE JUMP JUMPDEST PUSH1 0x40 MLOAD PUSH2 0x1C3 SWAP2 SWAP1 PUSH2 0x9EF JUMP JUMPDEST PUSH1 0x40 MLOAD DUP1 SWAP2 SUB SWAP1 RETURN JUMPDEST PUSH2 0x1E6 PUSH1 0x4 DUP1 CALLDATASIZE SUB DUP2 ADD SWAP1 PUSH2 0x1E1 SWAP2 SWAP1 PUSH2 0xBD6 JUMP JUMPDEST PUSH2 0x734 JUMP JUMPDEST STOP JUMPDEST PUSH2 0x202 PUSH1 0x4 DUP1 CALLDATASIZE SUB DUP2 ADD SWAP1 PUSH2 0x1FD SWAP2 SWAP1 PUSH2 0x9B3 JUMP JUMPDEST PUSH2 0x7FD JUMP JUMPDEST STOP JUMPDEST PUSH2 0x21E PUSH1 0x4 DUP1 CALLDATASIZE SUB DUP2 ADD SWAP1 PUSH2 0x219 SWAP2 SWAP1 PUSH2 0xC42 JUMP JUMPDEST PUSH2 0x8B0 JUMP JUMPDEST STOP JUMPDEST PUSH2 0x228 PUSH2 0x952 JUMP JUMPDEST PUSH1 0x40 MLOAD PUSH2 0x235 SWAP2 SWAP1 PUSH2 0xAD5 JUMP JUMPDEST PUSH1 0x40 MLOAD DUP1 SWAP2 SUB SWAP1 RETURN JUMPDEST PUSH1 0x0 DUP1 PUSH1 0x3 PUSH1 0x0 DUP5 DUP2 MSTORE PUSH1 0x20 ADD SWAP1 DUP2 MSTORE PUSH1 0x20 ADD PUSH1 0x0 KECCAK256 PUSH1 0x40 MLOAD DUP1 PUSH1 0xE0 ADD PUSH1 0x40 MSTORE SWAP1 DUP2 PUSH1 0x0 DUP3 ADD SLOAD DUP2 MSTORE PUSH1 0x20 ADD PUSH1 0x1 DUP3 ADD PUSH1 0x0 SWAP1 SLOAD SWAP1 PUSH2 0x100 EXP SWAP1 DIV PUSH20 0xFFFFFFFFFFFFFFFFFFFFFFFFFFFFFFFFFFFFFFFF AND PUSH20 0xFFFFFFFFFFFFFFFFFFFFFFFFFFFFFFFFFFFFFFFF AND PUSH20 0xFFFFFFFFFFFFFFFFFFFFFFFFFFFFFFFFFFFFFFFF AND DUP2 MSTORE PUSH1 0x20 ADD PUSH1 0x2 DUP3 ADD SLOAD DUP2 MSTORE PUSH1 0x20 ADD PUSH1 0x3 DUP3 ADD PUSH1 0x0 SWAP1 SLOAD SWAP1 PUSH2 0x100 EXP SWAP1 DIV PUSH20 0xFFFFFFFFFFFFFFFFFFFFFFFFFFFFFFFFFFFFFFFF AND PUSH20 0xFFFFFFFFFFFFFFFFFFFFFFFFFFFFFFFFFFFFFFFF AND PUSH20 0xFFFFFFFFFFFFFFFFFFFFFFFFFFFFFFFFFFFFFFFF AND DUP2 MSTORE PUSH1 0x20 ADD PUSH1 0x3 DUP3 ADD PUSH1 0x14 SWAP1 SLOAD SWAP1 PUSH2 0x100 EXP SWAP1 DIV PUSH1 0xFF AND ISZERO ISZERO ISZERO ISZERO DUP2 MSTORE PUSH1 0x20 ADD PUSH1 0x4 DUP3 ADD SLOAD DUP2 MSTORE PUSH1 0x20 ADD PUSH1 0x5 DUP3 ADD SLOAD DUP2 MSTORE POP POP SWAP1 POP DUP1 PUSH1 0xC0 ADD MLOAD SWAP2 POP POP SWAP2 SWAP1 POP JUMP JUMPDEST PUSH1 0x0 DUP1 PUSH1 0x3 PUSH1 0x0 DUP5 DUP2 MSTORE PUSH1 0x20 ADD SWAP1 DUP2 MSTORE PUSH1 0x20 ADD PUSH1 0x0 KECCAK256 PUSH1 0x40 MLOAD DUP1 PUSH1 0xE0 ADD PUSH1 0x40 MSTORE SWAP1 DUP2 PUSH1 0x0 DUP3 ADD SLOAD DUP2 MSTORE PUSH1 0x20 ADD PUSH1 0x1 DUP3 ADD PUSH1 0x0 SWAP1 SLOAD SWAP1 PUSH2 0x100 EXP SWAP1 DIV PUSH20 0xFFFFFFFFFFFFFFFFFFFFFFFFFFFFFFFFFFFFFFFF AND PUSH20 0xFFFFFFFFFFFFFFFFFFFFFFFFFFFFFFFFFFFFFFFF AND PUSH20 0xFFFFFFFFFFFFFFFFFFFFFFFFFFFFFFFFFFFFFFFF AND DUP2 MSTORE PUSH1 0x20 ADD PUSH1 0x2 DUP3 ADD SLOAD DUP2 MSTORE PUSH1 0x20 ADD PUSH1 0x3 DUP3 ADD PUSH1 0x0 SWAP1 SLOAD SWAP1 PUSH2 0x100 EXP SWAP1 DIV PUSH20 0xFFFFFFFFFFFFFFFFFFFFFFFFFFFFFFFFFFFFFFFF AND PUSH20 0xFFFFFFFFFFFFFFFFFFFFFFFFFFFFFFFFFFFFFFFF AND PUSH20 0xFFFFFFFFFFFFFFFFFFFFFFFFFFFFFFFFFFFFFFFF AND DUP2 MSTORE PUSH1 0x20 ADD PUSH1 0x3 DUP3 ADD PUSH1 0x14 SWAP1 SLOAD SWAP1 PUSH2 0x100 EXP SWAP1 DIV PUSH1 0xFF AND ISZERO ISZERO ISZERO ISZERO DUP2 MSTORE PUSH1 0x20 ADD PUSH1 0x4 DUP3 ADD SLOAD DUP2 MSTORE PUSH1 0x20 ADD PUSH1 0x5 DUP3 ADD SLOAD DUP2 MSTORE POP POP SWAP1 POP DUP1 PUSH1 0x40 ADD MLOAD SWAP2 POP POP SWAP2 SWAP1 POP JUMP JUMPDEST PUSH1 0x3 PUSH1 0x20 MSTORE DUP1 PUSH1 0x0 MSTORE PUSH1 0x40 PUSH1 0x0 KECCAK256 PUSH1 0x0 SWAP2 POP SWAP1 POP DUP1 PUSH1 0x0 ADD SLOAD SWAP1 DUP1 PUSH1 0x1 ADD PUSH1 0x0 SWAP1 SLOAD SWAP1 PUSH2 0x100 EXP SWAP1 DIV PUSH20 0xFFFFFFFFFFFFFFFFFFFFFFFFFFFFFFFFFFFFFFFF AND SWAP1 DUP1 PUSH1 0x2 ADD SLOAD SWAP1 DUP1 PUSH1 0x3 ADD PUSH1 0x0 SWAP1 SLOAD SWAP1 PUSH2 0x100 EXP SWAP1 DIV PUSH20 0xFFFFFFFFFFFFFFFFFFFFFFFFFFFFFFFFFFFFFFFF AND SWAP1 DUP1 PUSH1 0x3 ADD PUSH1 0x14 SWAP1 SLOAD SWAP1 PUSH2 0x100 EXP SWAP1 DIV PUSH1 0xFF AND SWAP1 DUP1 PUSH1 0x4 ADD SLOAD SWAP1 DUP1 PUSH1 0x5 ADD SLOAD SWAP1 POP DUP8 JUMP JUMPDEST PUSH1 0x0 DUP1 SLOAD SWAP1 PUSH2 0x100 EXP SWAP1 DIV PUSH20 0xFFFFFFFFFFFFFFFFFFFFFFFFFFFFFFFFFFFFFFFF AND DUP2 JUMP JUMPDEST DUP3 PUSH1 0x2 SLOAD DUP2 LT PUSH2 0x53E JUMPI PUSH1 0x0 DUP1 REVERT JUMPDEST CALLER PUSH20 0xFFFFFFFFFFFFFFFFFFFFFFFFFFFFFFFFFFFFFFFF AND PUSH1 0x1 PUSH1 0x0 SWAP1 SLOAD SWAP1 PUSH2 0x100 EXP SWAP1 DIV PUSH20 0xFFFFFFFFFFFFFFFFFFFFFFFFFFFFFFFFFFFFFFFF AND PUSH20 0xFFFFFFFFFFFFFFFFFFFFFFFFFFFFFFFFFFFFFFFF AND EQ PUSH2 0x598 JUMPI PUSH1 0x0 DUP1 REVERT JUMPDEST PUSH1 0x0 PUSH1 0x3 PUSH1 0x0 DUP7 DUP2 MSTORE PUSH1 0x20 ADD SWAP1 DUP2 MSTORE PUSH1 0x20 ADD PUSH1 0x0 KECCAK256 SWAP1 POP DUP4 DUP2 PUSH1 0x4 ADD DUP2 SWAP1 SSTORE POP DUP3 DUP2 PUSH1 0x5 ADD DUP2 SWAP1 SSTORE POP POP POP POP POP POP JUMP JUMPDEST PUSH1 0x2 SLOAD DUP2 JUMP JUMPDEST PUSH1 0x0 CALLER PUSH20 0xFFFFFFFFFFFFFFFFFFFFFFFFFFFFFFFFFFFFFFFF AND PUSH1 0x1 PUSH1 0x0 SWAP1 SLOAD SWAP1 PUSH2 0x100 EXP SWAP1 DIV PUSH20 0xFFFFFFFFFFFFFFFFFFFFFFFFFFFFFFFFFFFFFFFF AND PUSH20 0xFFFFFFFFFFFFFFFFFFFFFFFFFFFFFFFFFFFFFFFF AND EQ PUSH2 0x62A JUMPI PUSH1 0x0 DUP1 REVERT JUMPDEST PUSH1 0x0 PUSH1 0x3 PUSH1 0x0 PUSH1 0x2 SLOAD DUP2 MSTORE PUSH1 0x20 ADD SWAP1 DUP2 MSTORE PUSH1 0x20 ADD PUSH1 0x0 KECCAK256 SWAP1 POP PUSH1 0x2 SLOAD DUP2 PUSH1 0x0 ADD DUP2 SWAP1 SSTORE POP DUP5 DUP2 PUSH1 0x2 ADD DUP2 SWAP1 SSTORE POP DUP6 DUP2 PUSH1 0x1 ADD PUSH1 0x0 PUSH2 0x100 EXP DUP2 SLOAD DUP2 PUSH20 0xFFFFFFFFFFFFFFFFFFFFFFFFFFFFFFFFFFFFFFFF MUL NOT AND SWAP1 DUP4 PUSH20 0xFFFFFFFFFFFFFFFFFFFFFFFFFFFFFFFFFFFFFFFF AND MUL OR SWAP1 SSTORE POP DUP6 DUP2 PUSH1 0x3 ADD PUSH1 0x0 PUSH2 0x100 EXP DUP2 SLOAD DUP2 PUSH20 0xFFFFFFFFFFFFFFFFFFFFFFFFFFFFFFFFFFFFFFFF MUL NOT AND SWAP1 DUP4 PUSH20 0xFFFFFFFFFFFFFFFFFFFFFFFFFFFFFFFFFFFFFFFF AND MUL OR SWAP1 SSTORE POP PUSH1 0x0 DUP2 PUSH1 0x3 ADD PUSH1 0x14 PUSH2 0x100 EXP DUP2 SLOAD DUP2 PUSH1 0xFF MUL NOT AND SWAP1 DUP4 ISZERO ISZERO MUL OR SWAP1 SSTORE POP DUP4 DUP2 PUSH1 0x4 ADD DUP2 SWAP1 SSTORE POP DUP3 DUP2 PUSH1 0x5 ADD DUP2 SWAP1 SSTORE POP PUSH1 0x2 PUSH1 0x0 DUP2 SLOAD DUP1 SWAP3 SWAP2 SWAP1 PUSH2 0x71F SWAP1 PUSH2 0xCB1 JUMP JUMPDEST SWAP2 SWAP1 POP SSTORE POP DUP1 PUSH1 0x0 ADD SLOAD SWAP2 POP POP SWAP5 SWAP4 POP POP POP POP JUMP JUMPDEST DUP2 PUSH1 0x2 SLOAD DUP2 LT PUSH2 0x743 JUMPI PUSH1 0x0 DUP1 REVERT JUMPDEST CALLER PUSH20 0xFFFFFFFFFFFFFFFFFFFFFFFFFFFFFFFFFFFFFFFF AND PUSH1 0x1 PUSH1 0x0 SWAP1 SLOAD SWAP1 PUSH2 0x100 EXP SWAP1 DIV PUSH20 0xFFFFFFFFFFFFFFFFFFFFFFFFFFFFFFFFFFFFFFFF AND PUSH20 0xFFFFFFFFFFFFFFFFFFFFFFFFFFFFFFFFFFFFFFFF AND EQ PUSH2 0x79D JUMPI PUSH1 0x0 DUP1 REVERT JUMPDEST PUSH1 0x0 PUSH1 0x3 PUSH1 0x0 DUP6 DUP2 MSTORE PUSH1 0x20 ADD SWAP1 DUP2 MSTORE PUSH1 0x20 ADD PUSH1 0x0 KECCAK256 SWAP1 POP DUP3 DUP2 PUSH1 0x3 ADD PUSH1 0x0 PUSH2 0x100 EXP DUP2 SLOAD DUP2 PUSH20 0xFFFFFFFFFFFFFFFFFFFFFFFFFFFFFFFFFFFFFFFF MUL NOT AND SWAP1 DUP4 PUSH20 0xFFFFFFFFFFFFFFFFFFFFFFFFFFFFFFFFFFFFFFFF AND MUL OR SWAP1 SSTORE POP POP POP POP POP JUMP JUMPDEST DUP1 PUSH1 0x2 SLOAD DUP2 LT PUSH2 0x80C JUMPI PUSH1 0x0 DUP1 REVERT JUMPDEST CALLER PUSH20 0xFFFFFFFFFFFFFFFFFFFFFFFFFFFFFFFFFFFFFFFF AND PUSH1 0x1 PUSH1 0x0 SWAP1 SLOAD SWAP1 PUSH2 0x100 EXP SWAP1 DIV PUSH20 0xFFFFFFFFFFFFFFFFFFFFFFFFFFFFFFFFFFFFFFFF AND PUSH20 0xFFFFFFFFFFFFFFFFFFFFFFFFFFFFFFFFFFFFFFFF AND EQ PUSH2 0x866 JUMPI PUSH1 0x0 DUP1 REVERT JUMPDEST PUSH1 0x0 PUSH1 0x3 PUSH1 0x0 DUP5 DUP2 MSTORE PUSH1 0x20 ADD SWAP1 DUP2 MSTORE PUSH1 0x20 ADD PUSH1 0x0 KECCAK256 SWAP1 POP PUSH2 0x8AB DUP4 DUP3 PUSH1 0x1 ADD PUSH1 0x0 SWAP1 SLOAD SWAP1 PUSH2 0x100 EXP SWAP1 DIV PUSH20 0xFFFFFFFFFFFFFFFFFFFFFFFFFFFFFFFFFFFFFFFF AND PUSH2 0x734 JUMP JUMPDEST POP POP POP JUMP JUMPDEST DUP2 PUSH1 0x2 SLOAD DUP2 LT PUSH2 0x8BF JUMPI PUSH1 0x0 DUP1 REVERT JUMPDEST CALLER PUSH20 0xFFFFFFFFFFFFFFFFFFFFFFFFFFFFFFFFFFFFFFFF AND PUSH1 0x1 PUSH1 0x0 SWAP1 SLOAD SWAP1 PUSH2 0x100 EXP SWAP1 DIV PUSH20 0xFFFFFFFFFFFFFFFFFFFFFFFFFFFFFFFFFFFFFFFF AND PUSH20 0xFFFFFFFFFFFFFFFFFFFFFFFFFFFFFFFFFFFFFFFF AND EQ PUSH2 0x919 JUMPI PUSH1 0x0 DUP1 REVERT JUMPDEST PUSH1 0x0 PUSH1 0x3 PUSH1 0x0 DUP6 DUP2 MSTORE PUSH1 0x20 ADD SWAP1 DUP2 MSTORE PUSH1 0x20 ADD PUSH1 0x0 KECCAK256 SWAP1 POP DUP3 DUP2 PUSH1 0x3 ADD PUSH1 0x14 PUSH2 0x100 EXP DUP2 SLOAD DUP2 PUSH1 0xFF MUL NOT AND SWAP1 DUP4 ISZERO ISZERO MUL OR SWAP1 SSTORE POP POP POP POP POP JUMP JUMPDEST PUSH1 0x1 PUSH1 0x0 SWAP1 SLOAD SWAP1 PUSH2 0x100 EXP SWAP1 DIV PUSH20 0xFFFFFFFFFFFFFFFFFFFFFFFFFFFFFFFFFFFFFFFF AND DUP2 JUMP JUMPDEST PUSH1 0x0 DUP1 REVERT JUMPDEST PUSH1 0x0 DUP2 SWAP1 POP SWAP2 SWAP1 POP JUMP JUMPDEST PUSH2 0x990 DUP2 PUSH2 0x97D JUMP JUMPDEST DUP2 EQ PUSH2 0x99B JUMPI PUSH1 0x0 DUP1 REVERT JUMPDEST POP JUMP JUMPDEST PUSH1 0x0 DUP2 CALLDATALOAD SWAP1 POP PUSH2 0x9AD DUP2 PUSH2 0x987 JUMP JUMPDEST SWAP3 SWAP2 POP POP JUMP JUMPDEST PUSH1 0x0 PUSH1 0x20 DUP3 DUP5 SUB SLT ISZERO PUSH2 0x9C9 JUMPI PUSH2 0x9C8 PUSH2 0x978 JUMP JUMPDEST JUMPDEST PUSH1 0x0 PUSH2 0x9D7 DUP5 DUP3 DUP6 ADD PUSH2 0x99E JUMP JUMPDEST SWAP2 POP POP SWAP3 SWAP2 POP POP JUMP JUMPDEST PUSH2 0x9E9 DUP2 PUSH2 0x97D JUMP JUMPDEST DUP3 MSTORE POP POP JUMP JUMPDEST PUSH1 0x0 PUSH1 0x20 DUP3 ADD SWAP1 POP PUSH2 0xA04 PUSH1 0x0 DUP4 ADD DUP5 PUSH2 0x9E0 JUMP JUMPDEST SWAP3 SWAP2 POP POP JUMP JUMPDEST PUSH1 0x0 PUSH20 0xFFFFFFFFFFFFFFFFFFFFFFFFFFFFFFFFFFFFFFFF DUP3 AND SWAP1 POP SWAP2 SWAP1 POP JUMP JUMPDEST PUSH1 0x0 PUSH2 0xA35 DUP3 PUSH2 0xA0A JUMP JUMPDEST SWAP1 POP SWAP2 SWAP1 POP JUMP JUMPDEST PUSH2 0xA45 DUP2 PUSH2 0xA2A JUMP JUMPDEST DUP3 MSTORE POP POP JUMP JUMPDEST PUSH1 0x0 DUP2 ISZERO ISZERO SWAP1 POP SWAP2 SWAP1 POP JUMP JUMPDEST PUSH2 0xA60 DUP2 PUSH2 0xA4B JUMP JUMPDEST DUP3 MSTORE POP POP JUMP JUMPDEST PUSH1 0x0 PUSH1 0xE0 DUP3 ADD SWAP1 POP PUSH2 0xA7B PUSH1 0x0 DUP4 ADD DUP11 PUSH2 0x9E0 JUMP JUMPDEST PUSH2 0xA88 PUSH1 0x20 DUP4 ADD DUP10 PUSH2 0xA3C JUMP JUMPDEST PUSH2 0xA95 PUSH1 0x40 DUP4 ADD DUP9 PUSH2 0x9E0 JUMP JUMPDEST PUSH2 0xAA2 PUSH1 0x60 DUP4 ADD DUP8 PUSH2 0xA3C JUMP JUMPDEST PUSH2 0xAAF PUSH1 0x80 DUP4 ADD DUP7 PUSH2 0xA57 JUMP JUMPDEST PUSH2 0xABC PUSH1 0xA0 DUP4 ADD DUP6 PUSH2 0x9E0 JUMP JUMPDEST PUSH2 0xAC9 PUSH1 0xC0 DUP4 ADD DUP5 PUSH2 0x9E0 JUMP JUMPDEST SWAP9 SWAP8 POP POP POP POP POP POP POP POP JUMP JUMPDEST PUSH1 0x0 PUSH1 0x20 DUP3 ADD SWAP1 POP PUSH2 0xAEA PUSH1 0x0 DUP4 ADD DUP5 PUSH2 0xA3C JUMP JUMPDEST SWAP3 SWAP2 POP POP JUMP JUMPDEST PUSH1 0x0 DUP1 PUSH1 0x0 PUSH1 0x60 DUP5 DUP7 SUB SLT ISZERO PUSH2 0xB09 JUMPI PUSH2 0xB08 PUSH2 0x978 JUMP JUMPDEST JUMPDEST PUSH1 0x0 PUSH2 0xB17 DUP7 DUP3 DUP8 ADD PUSH2 0x99E JUMP JUMPDEST SWAP4 POP POP PUSH1 0x20 PUSH2 0xB28 DUP7 DUP3 DUP8 ADD PUSH2 0x99E JUMP JUMPDEST SWAP3 POP POP PUSH1 0x40 PUSH2 0xB39 DUP7 DUP3 DUP8 ADD PUSH2 0x99E JUMP JUMPDEST SWAP2 POP POP SWAP3 POP SWAP3 POP SWAP3 JUMP JUMPDEST PUSH2 0xB4C DUP2 PUSH2 0xA2A JUMP JUMPDEST DUP2 EQ PUSH2 0xB57 JUMPI PUSH1 0x0 DUP1 REVERT JUMPDEST POP JUMP JUMPDEST PUSH1 0x0 DUP2 CALLDATALOAD SWAP1 POP PUSH2 0xB69 DUP2 PUSH2 0xB43 JUMP JUMPDEST SWAP3 SWAP2 POP POP JUMP JUMPDEST PUSH1 0x0 DUP1 PUSH1 0x0 DUP1 PUSH1 0x80 DUP6 DUP8 SUB SLT ISZERO PUSH2 0xB89 JUMPI PUSH2 0xB88 PUSH2 0x978 JUMP JUMPDEST JUMPDEST PUSH1 0x0 PUSH2 0xB97 DUP8 DUP3 DUP9 ADD PUSH2 0xB5A JUMP JUMPDEST SWAP5 POP POP PUSH1 0x20 PUSH2 0xBA8 DUP8 DUP3 DUP9 ADD PUSH2 0x99E JUMP JUMPDEST SWAP4 POP POP PUSH1 0x40 PUSH2 0xBB9 DUP8 DUP3 DUP9 ADD PUSH2 0x99E JUMP JUMPDEST SWAP3 POP POP PUSH1 0x60 PUSH2 0xBCA DUP8 DUP3 DUP9 ADD PUSH2 0x99E JUMP JUMPDEST SWAP2 POP POP SWAP3 SWAP6 SWAP2 SWAP5 POP SWAP3 POP JUMP JUMPDEST PUSH1 0x0 DUP1 PUSH1 0x40 DUP4 DUP6 SUB SLT ISZERO PUSH2 0xBED JUMPI PUSH2 0xBEC PUSH2 0x978 JUMP JUMPDEST JUMPDEST PUSH1 0x0 PUSH2 0xBFB DUP6 DUP3 DUP7 ADD PUSH2 0x99E JUMP JUMPDEST SWAP3 POP POP PUSH1 0x20 PUSH2 0xC0C DUP6 DUP3 DUP7 ADD PUSH2 0xB5A JUMP JUMPDEST SWAP2 POP POP SWAP3 POP SWAP3 SWAP1 POP JUMP JUMPDEST PUSH2 0xC1F DUP2 PUSH2 0xA4B JUMP JUMPDEST DUP2 EQ PUSH2 0xC2A JUMPI PUSH1 0x0 DUP1 REVERT JUMPDEST POP JUMP JUMPDEST PUSH1 0x0 DUP2 CALLDATALOAD SWAP1 POP PUSH2 0xC3C DUP2 PUSH2 0xC16 JUMP JUMPDEST SWAP3 SWAP2 POP POP JUMP JUMPDEST PUSH1 0x0 DUP1 PUSH1 0x40 DUP4 DUP6 SUB SLT ISZERO PUSH2 0xC59 JUMPI PUSH2 0xC58 PUSH2 0x978 JUMP JUMPDEST JUMPDEST PUSH1 0x0 PUSH2 0xC67 DUP6 DUP3 DUP7 ADD PUSH2 0x99E JUMP JUMPDEST SWAP3 POP POP PUSH1 0x20 PUSH2 0xC78 DUP6 DUP3 DUP7 ADD PUSH2 0xC2D JUMP JUMPDEST SWAP2 POP POP SWAP3 POP SWAP3 SWAP1 POP JUMP JUMPDEST PUSH32 0x4E487B7100000000000000000000000000000000000000000000000000000000 PUSH1 0x0 MSTORE PUSH1 0x11 PUSH1 0x4 MSTORE PUSH1 0x24 PUSH1 0x0 REVERT JUMPDEST PUSH1 0x0 PUSH2 0xCBC DUP3 PUSH2 0x97D JUMP JUMPDEST SWAP2 POP PUSH32 0xFFFFFFFFFFFFFFFFFFFFFFFFFFFFFFFFFFFFFFFFFFFFFFFFFFFFFFFFFFFFFFFF DUP3 EQ ISZERO PUSH2 0xCEF JUMPI PUSH2 0xCEE PUSH2 0xC82 JUMP JUMPDEST JUMPDEST PUSH1 0x1 DUP3 ADD SWAP1 POP SWAP2 SWAP1 POP JUMP INVALID LOG2 PUSH5 0x6970667358 0x22 SLT KECCAK256 0xC3 0xB0 DUP11 DUP6 0xB5 0xC 0xE2 0x5F ADD 0x28 0x1E 0x4C SWAP12 DUP11 MUL PUSH29 0xFCBB79979804979FC6E3353507DF07564736F6C634300080A00330000 "},"gasEstimates":{"creation":{"codeDepositCost":"1156200","executionCost":"infinite","totalCost":"infinite"},"external":{"addBook(string,string,uint256,address)":"infinite","borrowBook(uint256)":"infinite","createBookToken(uint256,uint256,uint256)":"infinite","getManagerAddress()":"infinite","inviteStaff(address)":"27089","maxBorrowing()":"2451","modifyBook(uint256,string,string,uint256,address)":"infinite","owner()":"2511","register()":"infinite","returnBook(uint256)":"infinite","staff(address)":"2890"}},"methodIdentifiers":{"addBook(string,string,uint256,address)":"687564ae","borrowBook(uint256)":"7e490a9e","createBookToken(uint256,uint256,uint256)":"1973db46","getManagerAddress()":"c162d7da","inviteStaff(address)":"fe69494b","maxBorrowing()":"90272dff","modifyBook(uint256,string,string,uint256,address)":"d2c07e20","owner()":"8da5cb5b","register()":"1aa3a008","returnBook(uint256)":"ca5140c9","staff(address)":"4f83158a"}},"storageLayout":{"storage":[{"astId":6,"contract":"Library.sol:Library","label":"owner","offset":0,"slot":"0","type":"t_address"},{"astId":10,"contract":"Library.sol:Library","label":"staff","offset":0,"slot":"1","type":"t_mapping(t_address,t_bool)"},{"astId":13,"contract":"Library.sol:Library","label":"bookManager","offset":0,"slot":"2","type":"t_contract(BookManager)602"},{"astId":16,"contract":"Library.sol:Library","label":"userManager","offset":0,"slot":"3","type":"t_contract(UserManager)1267"},{"astId":19,"contract":"Library.sol:Library","label":"tokenManager","offset":0,"slot":"4","type":"t_contract(TokenManager)930"},{"astId":22,"contract":"Library.sol:Library","label":"managerAddress","offset":0,"slot":"5","type":"t_array(t_address)dyn_storage"},{"astId":24,"contract":"Library.sol:Library","label":"maxBorrowing","offset":0,"slot":"6","type":"t_uint256"}],"types":{"t_address":{"encoding":"inplace","label":"address","numberOfBytes":"20"},"t_array(t_address)dyn_storage":{"base":"t_address","encoding":"dynamic_array","label":"address[]","numberOfBytes":"32"},"t_bool":{"encoding":"inplace","label":"bool","numberOfBytes":"1"},"t_contract(BookManager)602":{"encoding":"inplace","label":"contract BookManager","numberOfBytes":"20"},"t_contract(TokenManager)930":{"encoding":"inplace","label":"contract TokenManager","numberOfBytes":"20"},"t_contract(UserManager)1267":{"encoding":"inplace","label":"contract UserManager","numberOfBytes":"20"},"t_mapping(t_address,t_bool)":{"encoding":"mapping","key":"t_address","label":"mapping(address => bool)","numberOfBytes":"32","value":"t_bool"},"t_uint256":{"encoding":"inplace","label":"uint256","numberOfBytes":"32"}}},"userdoc":{"kind":"user","methods":{},"version":1}}