{"abi":[{"inputs":[{"internalType":"uint256","name":"_maxBorrowing","type":"uint256"}],"stateMutability":"nonpayable","type":"constructor"},{"inputs":[{"internalType":"string","name":"_bookid","type":"string"},{"internalType":"string","name":"_title","type":"string"},{"internalType":"uint256","name":"_price","type":"uint256"},{"internalType":"address","name":"_authorAddress","type":"address"}],"name":"addBook","outputs":[],"stateMutability":"nonpayable","type":"function"},{"inputs":[{"internalType":"uint256","name":"_tokenId","type":"uint256"}],"name":"borrowBook","outputs":[],"stateMutability":"payable","type":"function"},{"inputs":[{"internalType":"uint256","name":"_bookIndex","type":"uint256"},{"internalType":"uint256","name":"_period","type":"uint256"},{"internalType":"uint256","name":"_cost","type":"uint256"}],"name":"createBookToken","outputs":[],"stateMutability":"payable","type":"function"},{"inputs":[],"name":"getManagerAddress","outputs":[{"internalType":"address[]","name":"","type":"address[]"}],"stateMutability":"view","type":"function"},{"inputs":[{"internalType":"address","name":"_staffAddress","type":"address"}],"name":"inviteStaff","outputs":[],"stateMutability":"nonpayable","type":"function"},{"inputs":[],"name":"maxBorrowing","outputs":[{"internalType":"uint256","name":"","type":"uint256"}],"stateMutability":"view","type":"function"},{"inputs":[{"internalType":"uint256","name":"_index","type":"uint256"},{"internalType":"string","name":"_bookid","type":"string"},{"internalType":"string","name":"_title","type":"string"},{"internalType":"uint256","name":"_price","type":"uint256"},{"internalType":"address","name":"_authorAddress","type":"address"}],"name":"modifyBook","outputs":[],"stateMutability":"nonpayable","type":"function"},{"inputs":[],"name":"owner","outputs":[{"internalType":"address","name":"","type":"address"}],"stateMutability":"view","type":"function"},{"inputs":[{"internalType":"uint256","name":"_tokenId","type":"uint256"}],"name":"returnBook","outputs":[],"stateMutability":"nonpayable","type":"function"}],"devdoc":{"kind":"dev","methods":{},"version":1},"evm":{"assembly":"    /* \"Library.sol\":157:2875  contract Library {... */\n  mstore(0x40, 0x80)\n    /* \"Library.sol\":711:1111  constructor (uint _maxBorrowing) {... */\n  callvalue\n  dup1\n  iszero\n  tag_1\n  jumpi\n  0x00\n  dup1\n  revert\ntag_1:\n  pop\n  mload(0x40)\n  sub(codesize, bytecodeSize)\n  dup1\n  bytecodeSize\n  dup4\n  codecopy\n  dup2\n  dup2\n  add\n  0x40\n  mstore\n  dup2\n  add\n  swap1\n  tag_2\n  swap2\n  swap1\n  tag_3\n  jump\t// in\ntag_2:\n    /* \"Library.sol\":762:772  msg.sender */\n  caller\n    /* \"Library.sol\":754:759  owner */\n  0x00\n  dup1\n    /* \"Library.sol\":754:772  owner = msg.sender */\n  0x0100\n  exp\n  dup2\n  sload\n  dup2\n  0xffffffffffffffffffffffffffffffffffffffff\n  mul\n  not\n  and\n  swap1\n  dup4\n  0xffffffffffffffffffffffffffffffffffffffff\n  and\n  mul\n  or\n  swap1\n  sstore\n  pop\n    /* \"Library.sol\":812:817  owner */\n  0x00\n  dup1\n  sload\n  swap1\n  0x0100\n  exp\n  swap1\n  div\n  0xffffffffffffffffffffffffffffffffffffffff\n  and\n    /* \"Library.sol\":796:818  new BookManager(owner) */\n  mload(0x40)\n  tag_6\n  swap1\n  tag_7\n  jump\t// in\ntag_6:\n  tag_8\n  swap2\n  swap1\n  tag_9\n  jump\t// in\ntag_8:\n  mload(0x40)\n  dup1\n  swap2\n  sub\n  swap1\n  0x00\n  create\n  dup1\n  iszero\n  dup1\n  iszero\n  tag_10\n  jumpi\n  returndatasize\n  0x00\n  dup1\n  returndatacopy\n  revert(0x00, returndatasize)\ntag_10:\n  pop\n    /* \"Library.sol\":782:793  bookManager */\n  0x02\n  0x00\n    /* \"Library.sol\":782:818  bookManager = new BookManager(owner) */\n  0x0100\n  exp\n  dup2\n  sload\n  dup2\n  0xffffffffffffffffffffffffffffffffffffffff\n  mul\n  not\n  and\n  swap1\n  dup4\n  0xffffffffffffffffffffffffffffffffffffffff\n  and\n  mul\n  or\n  swap1\n  sstore\n  pop\n    /* \"Library.sol\":858:863  owner */\n  0x00\n  dup1\n  sload\n  swap1\n  0x0100\n  exp\n  swap1\n  div\n  0xffffffffffffffffffffffffffffffffffffffff\n  and\n    /* \"Library.sol\":842:864  new UserManager(owner) */\n  mload(0x40)\n  tag_11\n  swap1\n  tag_12\n  jump\t// in\ntag_11:\n  tag_13\n  swap2\n  swap1\n  tag_9\n  jump\t// in\ntag_13:\n  mload(0x40)\n  dup1\n  swap2\n  sub\n  swap1\n  0x00\n  create\n  dup1\n  iszero\n  dup1\n  iszero\n  tag_14\n  jumpi\n  returndatasize\n  0x00\n  dup1\n  returndatacopy\n  revert(0x00, returndatasize)\ntag_14:\n  pop\n    /* \"Library.sol\":828:839  userManager */\n  0x03\n  0x00\n    /* \"Library.sol\":828:864  userManager = new UserManager(owner) */\n  0x0100\n  exp\n  dup2\n  sload\n  dup2\n  0xffffffffffffffffffffffffffffffffffffffff\n  mul\n  not\n  and\n  swap1\n  dup4\n  0xffffffffffffffffffffffffffffffffffffffff\n  and\n  mul\n  or\n  swap1\n  sstore\n  pop\n    /* \"Library.sol\":906:911  owner */\n  0x00\n  dup1\n  sload\n  swap1\n  0x0100\n  exp\n  swap1\n  div\n  0xffffffffffffffffffffffffffffffffffffffff\n  and\n    /* \"Library.sol\":889:912  new TokenManager(owner) */\n  mload(0x40)\n  tag_15\n  swap1\n  tag_16\n  jump\t// in\ntag_15:\n  tag_17\n  swap2\n  swap1\n  tag_9\n  jump\t// in\ntag_17:\n  mload(0x40)\n  dup1\n  swap2\n  sub\n  swap1\n  0x00\n  create\n  dup1\n  iszero\n  dup1\n  iszero\n  tag_18\n  jumpi\n  returndatasize\n  0x00\n  dup1\n  returndatacopy\n  revert(0x00, returndatasize)\ntag_18:\n  pop\n    /* \"Library.sol\":874:886  tokenManager */\n  0x04\n  0x00\n    /* \"Library.sol\":874:912  tokenManager = new TokenManager(owner) */\n  0x0100\n  exp\n  dup2\n  sload\n  dup2\n  0xffffffffffffffffffffffffffffffffffffffff\n  mul\n  not\n  and\n  swap1\n  dup4\n  0xffffffffffffffffffffffffffffffffffffffff\n  and\n  mul\n  or\n  swap1\n  sstore\n  pop\n    /* \"Library.sol\":922:936  managerAddress */\n  0x05\n    /* \"Library.sol\":950:961  bookManager */\n  0x02\n  0x00\n  swap1\n  sload\n  swap1\n  0x0100\n  exp\n  swap1\n  div\n  0xffffffffffffffffffffffffffffffffffffffff\n  and\n    /* \"Library.sol\":922:963  managerAddress.push(address(bookManager)) */\n  swap1\n  dup1\n  0x01\n  dup2\n  sload\n  add\n  dup1\n  dup3\n  sstore\n  dup1\n  swap2\n  pop\n  pop\n  0x01\n  swap1\n  sub\n  swap1\n  0x00\n  mstore\n  keccak256(0x00, 0x20)\n  add\n  0x00\n  swap1\n  swap2\n  swap1\n  swap2\n  swap1\n  swap2\n  0x0100\n  exp\n  dup2\n  sload\n  dup2\n  0xffffffffffffffffffffffffffffffffffffffff\n  mul\n  not\n  and\n  swap1\n  dup4\n  0xffffffffffffffffffffffffffffffffffffffff\n  and\n  mul\n  or\n  swap1\n  sstore\n  pop\n    /* \"Library.sol\":973:987  managerAddress */\n  0x05\n    /* \"Library.sol\":1001:1012  userManager */\n  0x03\n  0x00\n  swap1\n  sload\n  swap1\n  0x0100\n  exp\n  swap1\n  div\n  0xffffffffffffffffffffffffffffffffffffffff\n  and\n    /* \"Library.sol\":973:1014  managerAddress.push(address(userManager)) */\n  swap1\n  dup1\n  0x01\n  dup2\n  sload\n  add\n  dup1\n  dup3\n  sstore\n  dup1\n  swap2\n  pop\n  pop\n  0x01\n  swap1\n  sub\n  swap1\n  0x00\n  mstore\n  keccak256(0x00, 0x20)\n  add\n  0x00\n  swap1\n  swap2\n  swap1\n  swap2\n  swap1\n  swap2\n  0x0100\n  exp\n  dup2\n  sload\n  dup2\n  0xffffffffffffffffffffffffffffffffffffffff\n  mul\n  not\n  and\n  swap1\n  dup4\n  0xffffffffffffffffffffffffffffffffffffffff\n  and\n  mul\n  or\n  swap1\n  sstore\n  pop\n    /* \"Library.sol\":1024:1038  managerAddress */\n  0x05\n    /* \"Library.sol\":1052:1064  tokenManager */\n  0x04\n  0x00\n  swap1\n  sload\n  swap1\n  0x0100\n  exp\n  swap1\n  div\n  0xffffffffffffffffffffffffffffffffffffffff\n  and\n    /* \"Library.sol\":1024:1066  managerAddress.push(address(tokenManager)) */\n  swap1\n  dup1\n  0x01\n  dup2\n  sload\n  add\n  dup1\n  dup3\n  sstore\n  dup1\n  swap2\n  pop\n  pop\n  0x01\n  swap1\n  sub\n  swap1\n  0x00\n  mstore\n  keccak256(0x00, 0x20)\n  add\n  0x00\n  swap1\n  swap2\n  swap1\n  swap2\n  swap1\n  swap2\n  0x0100\n  exp\n  dup2\n  sload\n  dup2\n  0xffffffffffffffffffffffffffffffffffffffff\n  mul\n  not\n  and\n  swap1\n  dup4\n  0xffffffffffffffffffffffffffffffffffffffff\n  and\n  mul\n  or\n  swap1\n  sstore\n  pop\n    /* \"Library.sol\":1091:1104  _maxBorrowing */\n  dup1\n    /* \"Library.sol\":1076:1088  maxBorrowing */\n  0x06\n    /* \"Library.sol\":1076:1104  maxBorrowing = _maxBorrowing */\n  dup2\n  swap1\n  sstore\n  pop\n    /* \"Library.sol\":711:1111  constructor (uint _maxBorrowing) {... */\n  pop\n    /* \"Library.sol\":157:2875  contract Library {... */\n  jump(tag_22)\ntag_7:\n  dataSize(sub_1)\n  dup1\n  dataOffset(sub_1)\n  dup4\n  codecopy\n  add\n  swap1\n  jump\t// out\ntag_12:\n  dataSize(sub_2)\n  dup1\n  dataOffset(sub_2)\n  dup4\n  codecopy\n  add\n  swap1\n  jump\t// out\ntag_16:\n  dataSize(sub_3)\n  dup1\n  dataOffset(sub_3)\n  dup4\n  codecopy\n  add\n  swap1\n  jump\t// out\n    /* \"#utility.yul\":88:205   */\ntag_24:\n    /* \"#utility.yul\":197:198   */\n  0x00\n    /* \"#utility.yul\":194:195   */\n  dup1\n    /* \"#utility.yul\":187:199   */\n  revert\n    /* \"#utility.yul\":334:411   */\ntag_26:\n    /* \"#utility.yul\":371:378   */\n  0x00\n    /* \"#utility.yul\":400:405   */\n  dup2\n    /* \"#utility.yul\":389:405   */\n  swap1\n  pop\n    /* \"#utility.yul\":334:411   */\n  swap2\n  swap1\n  pop\n  jump\t// out\n    /* \"#utility.yul\":417:539   */\ntag_27:\n    /* \"#utility.yul\":490:514   */\n  tag_38\n    /* \"#utility.yul\":508:513   */\n  dup2\n    /* \"#utility.yul\":490:514   */\n  tag_26\n  jump\t// in\ntag_38:\n    /* \"#utility.yul\":483:488   */\n  dup2\n    /* \"#utility.yul\":480:515   */\n  eq\n    /* \"#utility.yul\":470:533   */\n  tag_39\n  jumpi\n    /* \"#utility.yul\":529:530   */\n  0x00\n    /* \"#utility.yul\":526:527   */\n  dup1\n    /* \"#utility.yul\":519:531   */\n  revert\n    /* \"#utility.yul\":470:533   */\ntag_39:\n    /* \"#utility.yul\":417:539   */\n  pop\n  jump\t// out\n    /* \"#utility.yul\":545:688   */\ntag_28:\n    /* \"#utility.yul\":602:607   */\n  0x00\n    /* \"#utility.yul\":633:639   */\n  dup2\n    /* \"#utility.yul\":627:640   */\n  mload\n    /* \"#utility.yul\":618:640   */\n  swap1\n  pop\n    /* \"#utility.yul\":649:682   */\n  tag_41\n    /* \"#utility.yul\":676:681   */\n  dup2\n    /* \"#utility.yul\":649:682   */\n  tag_27\n  jump\t// in\ntag_41:\n    /* \"#utility.yul\":545:688   */\n  swap3\n  swap2\n  pop\n  pop\n  jump\t// out\n    /* \"#utility.yul\":694:1045   */\ntag_3:\n    /* \"#utility.yul\":764:770   */\n  0x00\n    /* \"#utility.yul\":813:815   */\n  0x20\n    /* \"#utility.yul\":801:810   */\n  dup3\n    /* \"#utility.yul\":792:799   */\n  dup5\n    /* \"#utility.yul\":788:811   */\n  sub\n    /* \"#utility.yul\":784:816   */\n  slt\n    /* \"#utility.yul\":781:900   */\n  iszero\n  tag_43\n  jumpi\n    /* \"#utility.yul\":819:898   */\n  tag_44\n  tag_24\n  jump\t// in\ntag_44:\n    /* \"#utility.yul\":781:900   */\ntag_43:\n    /* \"#utility.yul\":939:940   */\n  0x00\n    /* \"#utility.yul\":964:1028   */\n  tag_45\n    /* \"#utility.yul\":1020:1027   */\n  dup5\n    /* \"#utility.yul\":1011:1017   */\n  dup3\n    /* \"#utility.yul\":1000:1009   */\n  dup6\n    /* \"#utility.yul\":996:1018   */\n  add\n    /* \"#utility.yul\":964:1028   */\n  tag_28\n  jump\t// in\ntag_45:\n    /* \"#utility.yul\":954:1028   */\n  swap2\n  pop\n    /* \"#utility.yul\":910:1038   */\n  pop\n    /* \"#utility.yul\":694:1045   */\n  swap3\n  swap2\n  pop\n  pop\n  jump\t// out\n    /* \"#utility.yul\":1051:1177   */\ntag_29:\n    /* \"#utility.yul\":1088:1095   */\n  0x00\n    /* \"#utility.yul\":1128:1170   */\n  0xffffffffffffffffffffffffffffffffffffffff\n    /* \"#utility.yul\":1121:1126   */\n  dup3\n    /* \"#utility.yul\":1117:1171   */\n  and\n    /* \"#utility.yul\":1106:1171   */\n  swap1\n  pop\n    /* \"#utility.yul\":1051:1177   */\n  swap2\n  swap1\n  pop\n  jump\t// out\n    /* \"#utility.yul\":1183:1279   */\ntag_30:\n    /* \"#utility.yul\":1220:1227   */\n  0x00\n    /* \"#utility.yul\":1249:1273   */\n  tag_48\n    /* \"#utility.yul\":1267:1272   */\n  dup3\n    /* \"#utility.yul\":1249:1273   */\n  tag_29\n  jump\t// in\ntag_48:\n    /* \"#utility.yul\":1238:1273   */\n  swap1\n  pop\n    /* \"#utility.yul\":1183:1279   */\n  swap2\n  swap1\n  pop\n  jump\t// out\n    /* \"#utility.yul\":1285:1403   */\ntag_31:\n    /* \"#utility.yul\":1372:1396   */\n  tag_50\n    /* \"#utility.yul\":1390:1395   */\n  dup2\n    /* \"#utility.yul\":1372:1396   */\n  tag_30\n  jump\t// in\ntag_50:\n    /* \"#utility.yul\":1367:1370   */\n  dup3\n    /* \"#utility.yul\":1360:1397   */\n  mstore\n    /* \"#utility.yul\":1285:1403   */\n  pop\n  pop\n  jump\t// out\n    /* \"#utility.yul\":1409:1631   */\ntag_9:\n    /* \"#utility.yul\":1502:1506   */\n  0x00\n    /* \"#utility.yul\":1540:1542   */\n  0x20\n    /* \"#utility.yul\":1529:1538   */\n  dup3\n    /* \"#utility.yul\":1525:1543   */\n  add\n    /* \"#utility.yul\":1517:1543   */\n  swap1\n  pop\n    /* \"#utility.yul\":1553:1624   */\n  tag_52\n    /* \"#utility.yul\":1621:1622   */\n  0x00\n    /* \"#utility.yul\":1610:1619   */\n  dup4\n    /* \"#utility.yul\":1606:1623   */\n  add\n    /* \"#utility.yul\":1597:1603   */\n  dup5\n    /* \"#utility.yul\":1553:1624   */\n  tag_31\n  jump\t// in\ntag_52:\n    /* \"#utility.yul\":1409:1631   */\n  swap3\n  swap2\n  pop\n  pop\n  jump\t// out\n    /* \"Library.sol\":157:2875  contract Library {... */\ntag_22:\n  dataSize(sub_0)\n  dup1\n  dataOffset(sub_0)\n  0x00\n  codecopy\n  0x00\n  return\nstop\n\nsub_0: assembly {\n        /* \"Library.sol\":157:2875  contract Library {... */\n      mstore(0x40, 0x80)\n      jumpi(tag_1, lt(calldatasize, 0x04))\n      shr(0xe0, calldataload(0x00))\n      dup1\n      0x90272dff\n      gt\n      tag_11\n      jumpi\n      dup1\n      0x90272dff\n      eq\n      tag_6\n      jumpi\n      dup1\n      0xc162d7da\n      eq\n      tag_7\n      jumpi\n      dup1\n      0xca5140c9\n      eq\n      tag_8\n      jumpi\n      dup1\n      0xd2c07e20\n      eq\n      tag_9\n      jumpi\n      dup1\n      0xfe69494b\n      eq\n      tag_10\n      jumpi\n      jump(tag_1)\n    tag_11:\n      dup1\n      0x1973db46\n      eq\n      tag_2\n      jumpi\n      dup1\n      0x687564ae\n      eq\n      tag_3\n      jumpi\n      dup1\n      0x7e490a9e\n      eq\n      tag_4\n      jumpi\n      dup1\n      0x8da5cb5b\n      eq\n      tag_5\n      jumpi\n    tag_1:\n      0x00\n      dup1\n      revert\n        /* \"Library.sol\":1777:2123  function createBookToken(uint _bookIndex, uint _period, uint _cost) public userRestricted payable {... */\n    tag_2:\n      tag_12\n      0x04\n      dup1\n      calldatasize\n      sub\n      dup2\n      add\n      swap1\n      tag_13\n      swap2\n      swap1\n      tag_14\n      jump\t// in\n    tag_13:\n      tag_15\n      jump\t// in\n    tag_12:\n      stop\n        /* \"Library.sol\":1264:1458  function addBook(string memory _bookid, string memory _title, uint _price, address _authorAddress) public restricted {... */\n    tag_3:\n      callvalue\n      dup1\n      iszero\n      tag_16\n      jumpi\n      0x00\n      dup1\n      revert\n    tag_16:\n      pop\n      tag_17\n      0x04\n      dup1\n      calldatasize\n      sub\n      dup2\n      add\n      swap1\n      tag_18\n      swap2\n      swap1\n      tag_19\n      jump\t// in\n    tag_18:\n      tag_20\n      jump\t// in\n    tag_17:\n      stop\n        /* \"Library.sol\":2148:2534  function borrowBook(uint _tokenId) public userRestricted payable {... */\n    tag_4:\n      tag_21\n      0x04\n      dup1\n      calldatasize\n      sub\n      dup2\n      add\n      swap1\n      tag_22\n      swap2\n      swap1\n      tag_23\n      jump\t// in\n    tag_22:\n      tag_24\n      jump\t// in\n    tag_21:\n      stop\n        /* \"Library.sol\":180:200  address public owner */\n    tag_5:\n      callvalue\n      dup1\n      iszero\n      tag_25\n      jumpi\n      0x00\n      dup1\n      revert\n    tag_25:\n      pop\n      tag_26\n      tag_27\n      jump\t// in\n    tag_26:\n      mload(0x40)\n      tag_28\n      swap2\n      swap1\n      tag_29\n      jump\t// in\n    tag_28:\n      mload(0x40)\n      dup1\n      swap2\n      sub\n      swap1\n      return\n        /* \"Library.sol\":387:411  uint public maxBorrowing */\n    tag_6:\n      callvalue\n      dup1\n      iszero\n      tag_30\n      jumpi\n      0x00\n      dup1\n      revert\n    tag_30:\n      pop\n      tag_31\n      tag_32\n      jump\t// in\n    tag_31:\n      mload(0x40)\n      tag_33\n      swap2\n      swap1\n      tag_34\n      jump\t// in\n    tag_33:\n      mload(0x40)\n      dup1\n      swap2\n      sub\n      swap1\n      return\n        /* \"Library.sol\":2756:2873  function getManagerAddress() external restricted view returns(address[] memory){... */\n    tag_7:\n      callvalue\n      dup1\n      iszero\n      tag_35\n      jumpi\n      0x00\n      dup1\n      revert\n    tag_35:\n      pop\n      tag_36\n      tag_37\n      jump\t// in\n    tag_36:\n      mload(0x40)\n      tag_38\n      swap2\n      swap1\n      tag_39\n      jump\t// in\n    tag_38:\n      mload(0x40)\n      dup1\n      swap2\n      sub\n      swap1\n      return\n        /* \"Library.sol\":2559:2718  function returnBook(uint _tokenId) public userRestricted {... */\n    tag_8:\n      callvalue\n      dup1\n      iszero\n      tag_40\n      jumpi\n      0x00\n      dup1\n      revert\n    tag_40:\n      pop\n      tag_41\n      0x04\n      dup1\n      calldatasize\n      sub\n      dup2\n      add\n      swap1\n      tag_42\n      swap2\n      swap1\n      tag_23\n      jump\t// in\n    tag_42:\n      tag_43\n      jump\t// in\n    tag_41:\n      stop\n        /* \"Library.sol\":1483:1746  function modifyBook( uint _index, string memory _bookid, string memory _title, uint _price, address _authorAddress)... */\n    tag_9:\n      callvalue\n      dup1\n      iszero\n      tag_44\n      jumpi\n      0x00\n      dup1\n      revert\n    tag_44:\n      pop\n      tag_45\n      0x04\n      dup1\n      calldatasize\n      sub\n      dup2\n      add\n      swap1\n      tag_46\n      swap2\n      swap1\n      tag_47\n      jump\t// in\n    tag_46:\n      tag_48\n      jump\t// in\n    tag_45:\n      stop\n        /* \"Library.sol\":1137:1242  function inviteStaff(address _staffAddress) public restricted{... */\n    tag_10:\n      callvalue\n      dup1\n      iszero\n      tag_49\n      jumpi\n      0x00\n      dup1\n      revert\n    tag_49:\n      pop\n      tag_50\n      0x04\n      dup1\n      calldatasize\n      sub\n      dup2\n      add\n      swap1\n      tag_51\n      swap2\n      swap1\n      tag_52\n      jump\t// in\n    tag_51:\n      tag_53\n      jump\t// in\n    tag_50:\n      stop\n        /* \"Library.sol\":1777:2123  function createBookToken(uint _bookIndex, uint _period, uint _cost) public userRestricted payable {... */\n    tag_15:\n        /* \"Library.sol\":545:556  userManager */\n      0x03\n      0x00\n      swap1\n      sload\n      swap1\n      0x0100\n      exp\n      swap1\n      div\n      0xffffffffffffffffffffffffffffffffffffffff\n      and\n        /* \"Library.sol\":545:571  userManager.getIsValidUser */\n      0xffffffffffffffffffffffffffffffffffffffff\n      and\n      0xecded204\n        /* \"Library.sol\":572:582  msg.sender */\n      caller\n        /* \"Library.sol\":545:583  userManager.getIsValidUser(msg.sender) */\n      mload(0x40)\n      dup3\n      0xffffffff\n      and\n      0xe0\n      shl\n      dup2\n      mstore\n      0x04\n      add\n      tag_55\n      swap2\n      swap1\n      tag_29\n      jump\t// in\n    tag_55:\n      0x20\n      mload(0x40)\n      dup1\n      dup4\n      sub\n      dup2\n      dup7\n      gas\n      staticcall\n      iszero\n      dup1\n      iszero\n      tag_57\n      jumpi\n      returndatasize\n      0x00\n      dup1\n      returndatacopy\n      revert(0x00, returndatasize)\n    tag_57:\n      pop\n      pop\n      pop\n      pop\n      mload(0x40)\n      returndatasize\n      not(0x1f)\n      0x1f\n      dup3\n      add\n      and\n      dup3\n      add\n      dup1\n      0x40\n      mstore\n      pop\n      dup2\n      add\n      swap1\n      tag_58\n      swap2\n      swap1\n      tag_59\n      jump\t// in\n    tag_58:\n        /* \"Library.sol\":537:584  require(userManager.getIsValidUser(msg.sender)) */\n      tag_60\n      jumpi\n      0x00\n      dup1\n      revert\n    tag_60:\n        /* \"Library.sol\":1885:1895  uint price */\n      0x00\n        /* \"Library.sol\":1898:1909  bookManager */\n      0x02\n      0x00\n      swap1\n      sload\n      swap1\n      0x0100\n      exp\n      swap1\n      div\n      0xffffffffffffffffffffffffffffffffffffffff\n      and\n        /* \"Library.sol\":1898:1922  bookManager.getBookPrice */\n      0xffffffffffffffffffffffffffffffffffffffff\n      and\n      0x6c230eef\n        /* \"Library.sol\":1923:1933  _bookIndex */\n      dup6\n        /* \"Library.sol\":1898:1934  bookManager.getBookPrice(_bookIndex) */\n      mload(0x40)\n      dup3\n      0xffffffff\n      and\n      0xe0\n      shl\n      dup2\n      mstore\n      0x04\n      add\n      tag_62\n      swap2\n      swap1\n      tag_34\n      jump\t// in\n    tag_62:\n      0x20\n      mload(0x40)\n      dup1\n      dup4\n      sub\n      dup2\n      dup7\n      gas\n      staticcall\n      iszero\n      dup1\n      iszero\n      tag_64\n      jumpi\n      returndatasize\n      0x00\n      dup1\n      returndatacopy\n      revert(0x00, returndatasize)\n    tag_64:\n      pop\n      pop\n      pop\n      pop\n      mload(0x40)\n      returndatasize\n      not(0x1f)\n      0x1f\n      dup3\n      add\n      and\n      dup3\n      add\n      dup1\n      0x40\n      mstore\n      pop\n      dup2\n      add\n      swap1\n      tag_65\n      swap2\n      swap1\n      tag_66\n      jump\t// in\n    tag_65:\n        /* \"Library.sol\":1885:1934  uint price = bookManager.getBookPrice(_bookIndex) */\n      swap1\n      pop\n        /* \"Library.sol\":1961:1970  msg.value */\n      callvalue\n        /* \"Library.sol\":1952:1957  price */\n      dup2\n        /* \"Library.sol\":1952:1970  price == msg.value */\n      eq\n        /* \"Library.sol\":1944:1971  require(price == msg.value) */\n      tag_67\n      jumpi\n      0x00\n      dup1\n      revert\n    tag_67:\n        /* \"Library.sol\":1981:1993  uint tokenId */\n      0x00\n        /* \"Library.sol\":1996:2008  tokenManager */\n      0x04\n      0x00\n      swap1\n      sload\n      swap1\n      0x0100\n      exp\n      swap1\n      div\n      0xffffffffffffffffffffffffffffffffffffffff\n      and\n        /* \"Library.sol\":1996:2024  tokenManager.createBookToken */\n      0xffffffffffffffffffffffffffffffffffffffff\n      and\n      0xa46d8ac7\n        /* \"Library.sol\":2025:2035  msg.sender */\n      caller\n        /* \"Library.sol\":2037:2047  _bookIndex */\n      dup8\n        /* \"Library.sol\":2049:2056  _period */\n      dup8\n        /* \"Library.sol\":2058:2063  _cost */\n      dup8\n        /* \"Library.sol\":1996:2064  tokenManager.createBookToken(msg.sender, _bookIndex, _period, _cost) */\n      mload(0x40)\n      dup6\n      0xffffffff\n      and\n      0xe0\n      shl\n      dup2\n      mstore\n      0x04\n      add\n      tag_68\n      swap5\n      swap4\n      swap3\n      swap2\n      swap1\n      tag_69\n      jump\t// in\n    tag_68:\n      0x20\n      mload(0x40)\n      dup1\n      dup4\n      sub\n      dup2\n      0x00\n      dup8\n      gas\n      call\n      iszero\n      dup1\n      iszero\n      tag_71\n      jumpi\n      returndatasize\n      0x00\n      dup1\n      returndatacopy\n      revert(0x00, returndatasize)\n    tag_71:\n      pop\n      pop\n      pop\n      pop\n      mload(0x40)\n      returndatasize\n      not(0x1f)\n      0x1f\n      dup3\n      add\n      and\n      dup3\n      add\n      dup1\n      0x40\n      mstore\n      pop\n      dup2\n      add\n      swap1\n      tag_72\n      swap2\n      swap1\n      tag_66\n      jump\t// in\n    tag_72:\n        /* \"Library.sol\":1981:2064  uint tokenId = tokenManager.createBookToken(msg.sender, _bookIndex, _period, _cost) */\n      swap1\n      pop\n        /* \"Library.sol\":2074:2085  userManager */\n      0x03\n      0x00\n      swap1\n      sload\n      swap1\n      0x0100\n      exp\n      swap1\n      div\n      0xffffffffffffffffffffffffffffffffffffffff\n      and\n        /* \"Library.sol\":2074:2095  userManager.purchased */\n      0xffffffffffffffffffffffffffffffffffffffff\n      and\n      0xe597ef12\n        /* \"Library.sol\":2096:2106  msg.sender */\n      caller\n        /* \"Library.sol\":2108:2115  tokenId */\n      dup4\n        /* \"Library.sol\":2074:2116  userManager.purchased(msg.sender, tokenId) */\n      mload(0x40)\n      dup4\n      0xffffffff\n      and\n      0xe0\n      shl\n      dup2\n      mstore\n      0x04\n      add\n      tag_73\n      swap3\n      swap2\n      swap1\n      tag_74\n      jump\t// in\n    tag_73:\n      0x00\n      mload(0x40)\n      dup1\n      dup4\n      sub\n      dup2\n      0x00\n      dup8\n      dup1\n      extcodesize\n      iszero\n      dup1\n      iszero\n      tag_75\n      jumpi\n      0x00\n      dup1\n      revert\n    tag_75:\n      pop\n      gas\n      call\n      iszero\n      dup1\n      iszero\n      tag_77\n      jumpi\n      returndatasize\n      0x00\n      dup1\n      returndatacopy\n      revert(0x00, returndatasize)\n    tag_77:\n      pop\n      pop\n      pop\n      pop\n        /* \"Library.sol\":1875:2123  {... */\n      pop\n      pop\n        /* \"Library.sol\":1777:2123  function createBookToken(uint _bookIndex, uint _period, uint _cost) public userRestricted payable {... */\n      pop\n      pop\n      pop\n      jump\t// out\n        /* \"Library.sol\":1264:1458  function addBook(string memory _bookid, string memory _title, uint _price, address _authorAddress) public restricted {... */\n    tag_20:\n        /* \"Library.sol\":467:477  msg.sender */\n      caller\n        /* \"Library.sol\":458:477  owner == msg.sender */\n      0xffffffffffffffffffffffffffffffffffffffff\n      and\n        /* \"Library.sol\":458:463  owner */\n      0x00\n      dup1\n      sload\n      swap1\n      0x0100\n      exp\n      swap1\n      div\n      0xffffffffffffffffffffffffffffffffffffffff\n      and\n        /* \"Library.sol\":458:477  owner == msg.sender */\n      0xffffffffffffffffffffffffffffffffffffffff\n      and\n      eq\n        /* \"Library.sol\":450:478  require(owner == msg.sender) */\n      tag_79\n      jumpi\n      0x00\n      dup1\n      revert\n    tag_79:\n        /* \"Library.sol\":1391:1402  bookManager */\n      0x02\n      0x00\n      swap1\n      sload\n      swap1\n      0x0100\n      exp\n      swap1\n      div\n      0xffffffffffffffffffffffffffffffffffffffff\n      and\n        /* \"Library.sol\":1391:1410  bookManager.addBook */\n      0xffffffffffffffffffffffffffffffffffffffff\n      and\n      0x687564ae\n        /* \"Library.sol\":1411:1418  _bookid */\n      dup6\n        /* \"Library.sol\":1420:1426  _title */\n      dup6\n        /* \"Library.sol\":1428:1434  _price */\n      dup6\n        /* \"Library.sol\":1436:1450  _authorAddress */\n      dup6\n        /* \"Library.sol\":1391:1451  bookManager.addBook(_bookid, _title, _price, _authorAddress) */\n      mload(0x40)\n      dup6\n      0xffffffff\n      and\n      0xe0\n      shl\n      dup2\n      mstore\n      0x04\n      add\n      tag_81\n      swap5\n      swap4\n      swap3\n      swap2\n      swap1\n      tag_82\n      jump\t// in\n    tag_81:\n      0x00\n      mload(0x40)\n      dup1\n      dup4\n      sub\n      dup2\n      0x00\n      dup8\n      dup1\n      extcodesize\n      iszero\n      dup1\n      iszero\n      tag_83\n      jumpi\n      0x00\n      dup1\n      revert\n    tag_83:\n      pop\n      gas\n      call\n      iszero\n      dup1\n      iszero\n      tag_85\n      jumpi\n      returndatasize\n      0x00\n      dup1\n      returndatacopy\n      revert(0x00, returndatasize)\n    tag_85:\n      pop\n      pop\n      pop\n      pop\n        /* \"Library.sol\":1264:1458  function addBook(string memory _bookid, string memory _title, uint _price, address _authorAddress) public restricted {... */\n      pop\n      pop\n      pop\n      pop\n      jump\t// out\n        /* \"Library.sol\":2148:2534  function borrowBook(uint _tokenId) public userRestricted payable {... */\n    tag_24:\n        /* \"Library.sol\":545:556  userManager */\n      0x03\n      0x00\n      swap1\n      sload\n      swap1\n      0x0100\n      exp\n      swap1\n      div\n      0xffffffffffffffffffffffffffffffffffffffff\n      and\n        /* \"Library.sol\":545:571  userManager.getIsValidUser */\n      0xffffffffffffffffffffffffffffffffffffffff\n      and\n      0xecded204\n        /* \"Library.sol\":572:582  msg.sender */\n      caller\n        /* \"Library.sol\":545:583  userManager.getIsValidUser(msg.sender) */\n      mload(0x40)\n      dup3\n      0xffffffff\n      and\n      0xe0\n      shl\n      dup2\n      mstore\n      0x04\n      add\n      tag_87\n      swap2\n      swap1\n      tag_29\n      jump\t// in\n    tag_87:\n      0x20\n      mload(0x40)\n      dup1\n      dup4\n      sub\n      dup2\n      dup7\n      gas\n      staticcall\n      iszero\n      dup1\n      iszero\n      tag_89\n      jumpi\n      returndatasize\n      0x00\n      dup1\n      returndatacopy\n      revert(0x00, returndatasize)\n    tag_89:\n      pop\n      pop\n      pop\n      pop\n      mload(0x40)\n      returndatasize\n      not(0x1f)\n      0x1f\n      dup3\n      add\n      and\n      dup3\n      add\n      dup1\n      0x40\n      mstore\n      pop\n      dup2\n      add\n      swap1\n      tag_90\n      swap2\n      swap1\n      tag_59\n      jump\t// in\n    tag_90:\n        /* \"Library.sol\":537:584  require(userManager.getIsValidUser(msg.sender)) */\n      tag_91\n      jumpi\n      0x00\n      dup1\n      revert\n    tag_91:\n        /* \"Library.sol\":2223:2232  uint cost */\n      0x00\n        /* \"Library.sol\":2235:2247  tokenManager */\n      0x04\n      0x00\n      swap1\n      sload\n      swap1\n      0x0100\n      exp\n      swap1\n      div\n      0xffffffffffffffffffffffffffffffffffffffff\n      and\n        /* \"Library.sol\":2235:2260  tokenManager.getTokenCost */\n      0xffffffffffffffffffffffffffffffffffffffff\n      and\n      0x1ce06944\n        /* \"Library.sol\":2261:2269  _tokenId */\n      dup4\n        /* \"Library.sol\":2235:2270  tokenManager.getTokenCost(_tokenId) */\n      mload(0x40)\n      dup3\n      0xffffffff\n      and\n      0xe0\n      shl\n      dup2\n      mstore\n      0x04\n      add\n      tag_93\n      swap2\n      swap1\n      tag_34\n      jump\t// in\n    tag_93:\n      0x20\n      mload(0x40)\n      dup1\n      dup4\n      sub\n      dup2\n      dup7\n      gas\n      staticcall\n      iszero\n      dup1\n      iszero\n      tag_95\n      jumpi\n      returndatasize\n      0x00\n      dup1\n      returndatacopy\n      revert(0x00, returndatasize)\n    tag_95:\n      pop\n      pop\n      pop\n      pop\n      mload(0x40)\n      returndatasize\n      not(0x1f)\n      0x1f\n      dup3\n      add\n      and\n      dup3\n      add\n      dup1\n      0x40\n      mstore\n      pop\n      dup2\n      add\n      swap1\n      tag_96\n      swap2\n      swap1\n      tag_66\n      jump\t// in\n    tag_96:\n        /* \"Library.sol\":2223:2270  uint cost = tokenManager.getTokenCost(_tokenId) */\n      swap1\n      pop\n        /* \"Library.sol\":2280:2294  uint bookIndex */\n      0x00\n        /* \"Library.sol\":2297:2309  tokenManager */\n      0x04\n      0x00\n      swap1\n      sload\n      swap1\n      0x0100\n      exp\n      swap1\n      div\n      0xffffffffffffffffffffffffffffffffffffffff\n      and\n        /* \"Library.sol\":2297:2324  tokenManager.getTokenBookId */\n      0xffffffffffffffffffffffffffffffffffffffff\n      and\n      0x67615ad5\n        /* \"Library.sol\":2325:2333  _tokenId */\n      dup5\n        /* \"Library.sol\":2297:2334  tokenManager.getTokenBookId(_tokenId) */\n      mload(0x40)\n      dup3\n      0xffffffff\n      and\n      0xe0\n      shl\n      dup2\n      mstore\n      0x04\n      add\n      tag_97\n      swap2\n      swap1\n      tag_34\n      jump\t// in\n    tag_97:\n      0x20\n      mload(0x40)\n      dup1\n      dup4\n      sub\n      dup2\n      dup7\n      gas\n      staticcall\n      iszero\n      dup1\n      iszero\n      tag_99\n      jumpi\n      returndatasize\n      0x00\n      dup1\n      returndatacopy\n      revert(0x00, returndatasize)\n    tag_99:\n      pop\n      pop\n      pop\n      pop\n      mload(0x40)\n      returndatasize\n      not(0x1f)\n      0x1f\n      dup3\n      add\n      and\n      dup3\n      add\n      dup1\n      0x40\n      mstore\n      pop\n      dup2\n      add\n      swap1\n      tag_100\n      swap2\n      swap1\n      tag_66\n      jump\t// in\n    tag_100:\n        /* \"Library.sol\":2280:2334  uint bookIndex = tokenManager.getTokenBookId(_tokenId) */\n      swap1\n      pop\n        /* \"Library.sol\":2360:2369  msg.value */\n      callvalue\n        /* \"Library.sol\":2352:2356  cost */\n      dup3\n        /* \"Library.sol\":2352:2369  cost == msg.value */\n      eq\n        /* \"Library.sol\":2344:2370  require(cost == msg.value) */\n      tag_101\n      jumpi\n      0x00\n      dup1\n      revert\n    tag_101:\n        /* \"Library.sol\":2380:2392  tokenManager */\n      0x04\n      0x00\n      swap1\n      sload\n      swap1\n      0x0100\n      exp\n      swap1\n      div\n      0xffffffffffffffffffffffffffffffffffffffff\n      and\n        /* \"Library.sol\":2380:2405  tokenManager.changeReader */\n      0xffffffffffffffffffffffffffffffffffffffff\n      and\n      0xab21a2be\n        /* \"Library.sol\":2406:2414  _tokenId */\n      dup5\n        /* \"Library.sol\":2416:2426  msg.sender */\n      caller\n        /* \"Library.sol\":2380:2427  tokenManager.changeReader(_tokenId, msg.sender) */\n      mload(0x40)\n      dup4\n      0xffffffff\n      and\n      0xe0\n      shl\n      dup2\n      mstore\n      0x04\n      add\n      tag_102\n      swap3\n      swap2\n      swap1\n      tag_103\n      jump\t// in\n    tag_102:\n      0x00\n      mload(0x40)\n      dup1\n      dup4\n      sub\n      dup2\n      0x00\n      dup8\n      dup1\n      extcodesize\n      iszero\n      dup1\n      iszero\n      tag_104\n      jumpi\n      0x00\n      dup1\n      revert\n    tag_104:\n      pop\n      gas\n      call\n      iszero\n      dup1\n      iszero\n      tag_106\n      jumpi\n      returndatasize\n      0x00\n      dup1\n      returndatacopy\n      revert(0x00, returndatasize)\n    tag_106:\n      pop\n      pop\n      pop\n      pop\n        /* \"Library.sol\":2437:2448  userManager */\n      0x03\n      0x00\n      swap1\n      sload\n      swap1\n      0x0100\n      exp\n      swap1\n      div\n      0xffffffffffffffffffffffffffffffffffffffff\n      and\n        /* \"Library.sol\":2437:2457  userManager.borrowed */\n      0xffffffffffffffffffffffffffffffffffffffff\n      and\n      0xa5a9c518\n        /* \"Library.sol\":2458:2468  msg.sender */\n      caller\n        /* \"Library.sol\":2470:2478  _tokenId */\n      dup6\n        /* \"Library.sol\":2437:2479  userManager.borrowed(msg.sender, _tokenId) */\n      mload(0x40)\n      dup4\n      0xffffffff\n      and\n      0xe0\n      shl\n      dup2\n      mstore\n      0x04\n      add\n      tag_107\n      swap3\n      swap2\n      swap1\n      tag_74\n      jump\t// in\n    tag_107:\n      0x00\n      mload(0x40)\n      dup1\n      dup4\n      sub\n      dup2\n      0x00\n      dup8\n      dup1\n      extcodesize\n      iszero\n      dup1\n      iszero\n      tag_108\n      jumpi\n      0x00\n      dup1\n      revert\n    tag_108:\n      pop\n      gas\n      call\n      iszero\n      dup1\n      iszero\n      tag_110\n      jumpi\n      returndatasize\n      0x00\n      dup1\n      returndatacopy\n      revert(0x00, returndatasize)\n    tag_110:\n      pop\n      pop\n      pop\n      pop\n        /* \"Library.sol\":2489:2500  bookManager */\n      0x02\n      0x00\n      swap1\n      sload\n      swap1\n      0x0100\n      exp\n      swap1\n      div\n      0xffffffffffffffffffffffffffffffffffffffff\n      and\n        /* \"Library.sol\":2489:2513  bookManager.tokenCreated */\n      0xffffffffffffffffffffffffffffffffffffffff\n      and\n      0x0a6b2a25\n        /* \"Library.sol\":2514:2523  bookIndex */\n      dup3\n        /* \"Library.sol\":2489:2524  bookManager.tokenCreated(bookIndex) */\n      mload(0x40)\n      dup3\n      0xffffffff\n      and\n      0xe0\n      shl\n      dup2\n      mstore\n      0x04\n      add\n      tag_111\n      swap2\n      swap1\n      tag_34\n      jump\t// in\n    tag_111:\n      0x00\n      mload(0x40)\n      dup1\n      dup4\n      sub\n      dup2\n      0x00\n      dup8\n      dup1\n      extcodesize\n      iszero\n      dup1\n      iszero\n      tag_112\n      jumpi\n      0x00\n      dup1\n      revert\n    tag_112:\n      pop\n      gas\n      call\n      iszero\n      dup1\n      iszero\n      tag_114\n      jumpi\n      returndatasize\n      0x00\n      dup1\n      returndatacopy\n      revert(0x00, returndatasize)\n    tag_114:\n      pop\n      pop\n      pop\n      pop\n        /* \"Library.sol\":2213:2534  {... */\n      pop\n      pop\n        /* \"Library.sol\":2148:2534  function borrowBook(uint _tokenId) public userRestricted payable {... */\n      pop\n      jump\t// out\n        /* \"Library.sol\":180:200  address public owner */\n    tag_27:\n      0x00\n      dup1\n      sload\n      swap1\n      0x0100\n      exp\n      swap1\n      div\n      0xffffffffffffffffffffffffffffffffffffffff\n      and\n      dup2\n      jump\t// out\n        /* \"Library.sol\":387:411  uint public maxBorrowing */\n    tag_32:\n      sload(0x06)\n      dup2\n      jump\t// out\n        /* \"Library.sol\":2756:2873  function getManagerAddress() external restricted view returns(address[] memory){... */\n    tag_37:\n        /* \"Library.sol\":2818:2834  address[] memory */\n      0x60\n        /* \"Library.sol\":467:477  msg.sender */\n      caller\n        /* \"Library.sol\":458:477  owner == msg.sender */\n      0xffffffffffffffffffffffffffffffffffffffff\n      and\n        /* \"Library.sol\":458:463  owner */\n      0x00\n      dup1\n      sload\n      swap1\n      0x0100\n      exp\n      swap1\n      div\n      0xffffffffffffffffffffffffffffffffffffffff\n      and\n        /* \"Library.sol\":458:477  owner == msg.sender */\n      0xffffffffffffffffffffffffffffffffffffffff\n      and\n      eq\n        /* \"Library.sol\":450:478  require(owner == msg.sender) */\n      tag_116\n      jumpi\n      0x00\n      dup1\n      revert\n    tag_116:\n        /* \"Library.sol\":2852:2866  managerAddress */\n      0x05\n        /* \"Library.sol\":2845:2866  return managerAddress */\n      dup1\n      sload\n      dup1\n      0x20\n      mul\n      0x20\n      add\n      mload(0x40)\n      swap1\n      dup2\n      add\n      0x40\n      mstore\n      dup1\n      swap3\n      swap2\n      swap1\n      dup2\n      dup2\n      mstore\n      0x20\n      add\n      dup3\n      dup1\n      sload\n      dup1\n      iszero\n      tag_118\n      jumpi\n      0x20\n      mul\n      dup3\n      add\n      swap2\n      swap1\n      0x00\n      mstore\n      keccak256(0x00, 0x20)\n      swap1\n    tag_119:\n      dup2\n      0x00\n      swap1\n      sload\n      swap1\n      0x0100\n      exp\n      swap1\n      div\n      0xffffffffffffffffffffffffffffffffffffffff\n      and\n      0xffffffffffffffffffffffffffffffffffffffff\n      and\n      dup2\n      mstore\n      0x20\n      add\n      swap1\n      0x01\n      add\n      swap1\n      dup1\n      dup4\n      gt\n      tag_119\n      jumpi\n    tag_118:\n      pop\n      pop\n      pop\n      pop\n      pop\n      swap1\n      pop\n        /* \"Library.sol\":2756:2873  function getManagerAddress() external restricted view returns(address[] memory){... */\n      swap1\n      jump\t// out\n        /* \"Library.sol\":2559:2718  function returnBook(uint _tokenId) public userRestricted {... */\n    tag_43:\n        /* \"Library.sol\":545:556  userManager */\n      0x03\n      0x00\n      swap1\n      sload\n      swap1\n      0x0100\n      exp\n      swap1\n      div\n      0xffffffffffffffffffffffffffffffffffffffff\n      and\n        /* \"Library.sol\":545:571  userManager.getIsValidUser */\n      0xffffffffffffffffffffffffffffffffffffffff\n      and\n      0xecded204\n        /* \"Library.sol\":572:582  msg.sender */\n      caller\n        /* \"Library.sol\":545:583  userManager.getIsValidUser(msg.sender) */\n      mload(0x40)\n      dup3\n      0xffffffff\n      and\n      0xe0\n      shl\n      dup2\n      mstore\n      0x04\n      add\n      tag_121\n      swap2\n      swap1\n      tag_29\n      jump\t// in\n    tag_121:\n      0x20\n      mload(0x40)\n      dup1\n      dup4\n      sub\n      dup2\n      dup7\n      gas\n      staticcall\n      iszero\n      dup1\n      iszero\n      tag_123\n      jumpi\n      returndatasize\n      0x00\n      dup1\n      returndatacopy\n      revert(0x00, returndatasize)\n    tag_123:\n      pop\n      pop\n      pop\n      pop\n      mload(0x40)\n      returndatasize\n      not(0x1f)\n      0x1f\n      dup3\n      add\n      and\n      dup3\n      add\n      dup1\n      0x40\n      mstore\n      pop\n      dup2\n      add\n      swap1\n      tag_124\n      swap2\n      swap1\n      tag_59\n      jump\t// in\n    tag_124:\n        /* \"Library.sol\":537:584  require(userManager.getIsValidUser(msg.sender)) */\n      tag_125\n      jumpi\n      0x00\n      dup1\n      revert\n    tag_125:\n        /* \"Library.sol\":2626:2638  tokenManager */\n      0x04\n      0x00\n      swap1\n      sload\n      swap1\n      0x0100\n      exp\n      swap1\n      div\n      0xffffffffffffffffffffffffffffffffffffffff\n      and\n        /* \"Library.sol\":2626:2649  tokenManager.returnBook */\n      0xffffffffffffffffffffffffffffffffffffffff\n      and\n      0xca5140c9\n        /* \"Library.sol\":2650:2658  _tokenId */\n      dup3\n        /* \"Library.sol\":2626:2659  tokenManager.returnBook(_tokenId) */\n      mload(0x40)\n      dup3\n      0xffffffff\n      and\n      0xe0\n      shl\n      dup2\n      mstore\n      0x04\n      add\n      tag_127\n      swap2\n      swap1\n      tag_34\n      jump\t// in\n    tag_127:\n      0x00\n      mload(0x40)\n      dup1\n      dup4\n      sub\n      dup2\n      0x00\n      dup8\n      dup1\n      extcodesize\n      iszero\n      dup1\n      iszero\n      tag_128\n      jumpi\n      0x00\n      dup1\n      revert\n    tag_128:\n      pop\n      gas\n      call\n      iszero\n      dup1\n      iszero\n      tag_130\n      jumpi\n      returndatasize\n      0x00\n      dup1\n      returndatacopy\n      revert(0x00, returndatasize)\n    tag_130:\n      pop\n      pop\n      pop\n      pop\n        /* \"Library.sol\":2669:2680  userManager */\n      0x03\n      0x00\n      swap1\n      sload\n      swap1\n      0x0100\n      exp\n      swap1\n      div\n      0xffffffffffffffffffffffffffffffffffffffff\n      and\n        /* \"Library.sol\":2669:2689  userManager.returned */\n      0xffffffffffffffffffffffffffffffffffffffff\n      and\n      0x4a09db4f\n        /* \"Library.sol\":2690:2700  msg.sender */\n      caller\n        /* \"Library.sol\":2702:2710  _tokenId */\n      dup4\n        /* \"Library.sol\":2669:2711  userManager.returned(msg.sender, _tokenId) */\n      mload(0x40)\n      dup4\n      0xffffffff\n      and\n      0xe0\n      shl\n      dup2\n      mstore\n      0x04\n      add\n      tag_131\n      swap3\n      swap2\n      swap1\n      tag_74\n      jump\t// in\n    tag_131:\n      0x00\n      mload(0x40)\n      dup1\n      dup4\n      sub\n      dup2\n      0x00\n      dup8\n      dup1\n      extcodesize\n      iszero\n      dup1\n      iszero\n      tag_132\n      jumpi\n      0x00\n      dup1\n      revert\n    tag_132:\n      pop\n      gas\n      call\n      iszero\n      dup1\n      iszero\n      tag_134\n      jumpi\n      returndatasize\n      0x00\n      dup1\n      returndatacopy\n      revert(0x00, returndatasize)\n    tag_134:\n      pop\n      pop\n      pop\n      pop\n        /* \"Library.sol\":2559:2718  function returnBook(uint _tokenId) public userRestricted {... */\n      pop\n      jump\t// out\n        /* \"Library.sol\":1483:1746  function modifyBook( uint _index, string memory _bookid, string memory _title, uint _price, address _authorAddress)... */\n    tag_48:\n        /* \"Library.sol\":1636:1641  staff */\n      0x01\n        /* \"Library.sol\":1636:1653  staff[msg.sender] */\n      0x00\n        /* \"Library.sol\":1642:1652  msg.sender */\n      caller\n        /* \"Library.sol\":1636:1653  staff[msg.sender] */\n      0xffffffffffffffffffffffffffffffffffffffff\n      and\n      0xffffffffffffffffffffffffffffffffffffffff\n      and\n      dup2\n      mstore\n      0x20\n      add\n      swap1\n      dup2\n      mstore\n      0x20\n      add\n      0x00\n      keccak256\n      0x00\n      swap1\n      sload\n      swap1\n      0x0100\n      exp\n      swap1\n      div\n      0xff\n      and\n        /* \"Library.sol\":1628:1654  require(staff[msg.sender]) */\n      tag_136\n      jumpi\n      0x00\n      dup1\n      revert\n    tag_136:\n        /* \"Library.sol\":1668:1679  bookManager */\n      0x02\n      0x00\n      swap1\n      sload\n      swap1\n      0x0100\n      exp\n      swap1\n      div\n      0xffffffffffffffffffffffffffffffffffffffff\n      and\n        /* \"Library.sol\":1668:1690  bookManager.modifyBook */\n      0xffffffffffffffffffffffffffffffffffffffff\n      and\n      0xd2c07e20\n        /* \"Library.sol\":1691:1697  _index */\n      dup7\n        /* \"Library.sol\":1699:1706  _bookid */\n      dup7\n        /* \"Library.sol\":1708:1714  _title */\n      dup7\n        /* \"Library.sol\":1716:1722  _price */\n      dup7\n        /* \"Library.sol\":1724:1738  _authorAddress */\n      dup7\n        /* \"Library.sol\":1668:1739  bookManager.modifyBook(_index, _bookid, _title, _price, _authorAddress) */\n      mload(0x40)\n      dup7\n      0xffffffff\n      and\n      0xe0\n      shl\n      dup2\n      mstore\n      0x04\n      add\n      tag_137\n      swap6\n      swap5\n      swap4\n      swap3\n      swap2\n      swap1\n      tag_138\n      jump\t// in\n    tag_137:\n      0x00\n      mload(0x40)\n      dup1\n      dup4\n      sub\n      dup2\n      0x00\n      dup8\n      dup1\n      extcodesize\n      iszero\n      dup1\n      iszero\n      tag_139\n      jumpi\n      0x00\n      dup1\n      revert\n    tag_139:\n      pop\n      gas\n      call\n      iszero\n      dup1\n      iszero\n      tag_141\n      jumpi\n      returndatasize\n      0x00\n      dup1\n      returndatacopy\n      revert(0x00, returndatasize)\n    tag_141:\n      pop\n      pop\n      pop\n      pop\n        /* \"Library.sol\":1483:1746  function modifyBook( uint _index, string memory _bookid, string memory _title, uint _price, address _authorAddress)... */\n      pop\n      pop\n      pop\n      pop\n      pop\n      jump\t// out\n        /* \"Library.sol\":1137:1242  function inviteStaff(address _staffAddress) public restricted{... */\n    tag_53:\n        /* \"Library.sol\":467:477  msg.sender */\n      caller\n        /* \"Library.sol\":458:477  owner == msg.sender */\n      0xffffffffffffffffffffffffffffffffffffffff\n      and\n        /* \"Library.sol\":458:463  owner */\n      0x00\n      dup1\n      sload\n      swap1\n      0x0100\n      exp\n      swap1\n      div\n      0xffffffffffffffffffffffffffffffffffffffff\n      and\n        /* \"Library.sol\":458:477  owner == msg.sender */\n      0xffffffffffffffffffffffffffffffffffffffff\n      and\n      eq\n        /* \"Library.sol\":450:478  require(owner == msg.sender) */\n      tag_143\n      jumpi\n      0x00\n      dup1\n      revert\n    tag_143:\n        /* \"Library.sol\":1231:1235  true */\n      0x01\n        /* \"Library.sol\":1208:1213  staff */\n      dup1\n        /* \"Library.sol\":1208:1228  staff[_staffAddress] */\n      0x00\n        /* \"Library.sol\":1214:1227  _staffAddress */\n      dup4\n        /* \"Library.sol\":1208:1228  staff[_staffAddress] */\n      0xffffffffffffffffffffffffffffffffffffffff\n      and\n      0xffffffffffffffffffffffffffffffffffffffff\n      and\n      dup2\n      mstore\n      0x20\n      add\n      swap1\n      dup2\n      mstore\n      0x20\n      add\n      0x00\n      keccak256\n      0x00\n        /* \"Library.sol\":1208:1235  staff[_staffAddress] = true */\n      0x0100\n      exp\n      dup2\n      sload\n      dup2\n      0xff\n      mul\n      not\n      and\n      swap1\n      dup4\n      iszero\n      iszero\n      mul\n      or\n      swap1\n      sstore\n      pop\n        /* \"Library.sol\":1137:1242  function inviteStaff(address _staffAddress) public restricted{... */\n      pop\n      jump\t// out\n        /* \"#utility.yul\":7:82   */\n    tag_145:\n        /* \"#utility.yul\":40:46   */\n      0x00\n        /* \"#utility.yul\":73:75   */\n      0x40\n        /* \"#utility.yul\":67:76   */\n      mload\n        /* \"#utility.yul\":57:76   */\n      swap1\n      pop\n        /* \"#utility.yul\":7:82   */\n      swap1\n      jump\t// out\n        /* \"#utility.yul\":88:205   */\n    tag_146:\n        /* \"#utility.yul\":197:198   */\n      0x00\n        /* \"#utility.yul\":194:195   */\n      dup1\n        /* \"#utility.yul\":187:199   */\n      revert\n        /* \"#utility.yul\":211:328   */\n    tag_147:\n        /* \"#utility.yul\":320:321   */\n      0x00\n        /* \"#utility.yul\":317:318   */\n      dup1\n        /* \"#utility.yul\":310:322   */\n      revert\n        /* \"#utility.yul\":334:411   */\n    tag_148:\n        /* \"#utility.yul\":371:378   */\n      0x00\n        /* \"#utility.yul\":400:405   */\n      dup2\n        /* \"#utility.yul\":389:405   */\n      swap1\n      pop\n        /* \"#utility.yul\":334:411   */\n      swap2\n      swap1\n      pop\n      jump\t// out\n        /* \"#utility.yul\":417:539   */\n    tag_149:\n        /* \"#utility.yul\":490:514   */\n      tag_188\n        /* \"#utility.yul\":508:513   */\n      dup2\n        /* \"#utility.yul\":490:514   */\n      tag_148\n      jump\t// in\n    tag_188:\n        /* \"#utility.yul\":483:488   */\n      dup2\n        /* \"#utility.yul\":480:515   */\n      eq\n        /* \"#utility.yul\":470:533   */\n      tag_189\n      jumpi\n        /* \"#utility.yul\":529:530   */\n      0x00\n        /* \"#utility.yul\":526:527   */\n      dup1\n        /* \"#utility.yul\":519:531   */\n      revert\n        /* \"#utility.yul\":470:533   */\n    tag_189:\n        /* \"#utility.yul\":417:539   */\n      pop\n      jump\t// out\n        /* \"#utility.yul\":545:684   */\n    tag_150:\n        /* \"#utility.yul\":591:596   */\n      0x00\n        /* \"#utility.yul\":629:635   */\n      dup2\n        /* \"#utility.yul\":616:636   */\n      calldataload\n        /* \"#utility.yul\":607:636   */\n      swap1\n      pop\n        /* \"#utility.yul\":645:678   */\n      tag_191\n        /* \"#utility.yul\":672:677   */\n      dup2\n        /* \"#utility.yul\":645:678   */\n      tag_149\n      jump\t// in\n    tag_191:\n        /* \"#utility.yul\":545:684   */\n      swap3\n      swap2\n      pop\n      pop\n      jump\t// out\n        /* \"#utility.yul\":690:1309   */\n    tag_14:\n        /* \"#utility.yul\":767:773   */\n      0x00\n        /* \"#utility.yul\":775:781   */\n      dup1\n        /* \"#utility.yul\":783:789   */\n      0x00\n        /* \"#utility.yul\":832:834   */\n      0x60\n        /* \"#utility.yul\":820:829   */\n      dup5\n        /* \"#utility.yul\":811:818   */\n      dup7\n        /* \"#utility.yul\":807:830   */\n      sub\n        /* \"#utility.yul\":803:835   */\n      slt\n        /* \"#utility.yul\":800:919   */\n      iszero\n      tag_193\n      jumpi\n        /* \"#utility.yul\":838:917   */\n      tag_194\n      tag_146\n      jump\t// in\n    tag_194:\n        /* \"#utility.yul\":800:919   */\n    tag_193:\n        /* \"#utility.yul\":958:959   */\n      0x00\n        /* \"#utility.yul\":983:1036   */\n      tag_195\n        /* \"#utility.yul\":1028:1035   */\n      dup7\n        /* \"#utility.yul\":1019:1025   */\n      dup3\n        /* \"#utility.yul\":1008:1017   */\n      dup8\n        /* \"#utility.yul\":1004:1026   */\n      add\n        /* \"#utility.yul\":983:1036   */\n      tag_150\n      jump\t// in\n    tag_195:\n        /* \"#utility.yul\":973:1036   */\n      swap4\n      pop\n        /* \"#utility.yul\":929:1046   */\n      pop\n        /* \"#utility.yul\":1085:1087   */\n      0x20\n        /* \"#utility.yul\":1111:1164   */\n      tag_196\n        /* \"#utility.yul\":1156:1163   */\n      dup7\n        /* \"#utility.yul\":1147:1153   */\n      dup3\n        /* \"#utility.yul\":1136:1145   */\n      dup8\n        /* \"#utility.yul\":1132:1154   */\n      add\n        /* \"#utility.yul\":1111:1164   */\n      tag_150\n      jump\t// in\n    tag_196:\n        /* \"#utility.yul\":1101:1164   */\n      swap3\n      pop\n        /* \"#utility.yul\":1056:1174   */\n      pop\n        /* \"#utility.yul\":1213:1215   */\n      0x40\n        /* \"#utility.yul\":1239:1292   */\n      tag_197\n        /* \"#utility.yul\":1284:1291   */\n      dup7\n        /* \"#utility.yul\":1275:1281   */\n      dup3\n        /* \"#utility.yul\":1264:1273   */\n      dup8\n        /* \"#utility.yul\":1260:1282   */\n      add\n        /* \"#utility.yul\":1239:1292   */\n      tag_150\n      jump\t// in\n    tag_197:\n        /* \"#utility.yul\":1229:1292   */\n      swap2\n      pop\n        /* \"#utility.yul\":1184:1302   */\n      pop\n        /* \"#utility.yul\":690:1309   */\n      swap3\n      pop\n      swap3\n      pop\n      swap3\n      jump\t// out\n        /* \"#utility.yul\":1315:1432   */\n    tag_151:\n        /* \"#utility.yul\":1424:1425   */\n      0x00\n        /* \"#utility.yul\":1421:1422   */\n      dup1\n        /* \"#utility.yul\":1414:1426   */\n      revert\n        /* \"#utility.yul\":1438:1555   */\n    tag_152:\n        /* \"#utility.yul\":1547:1548   */\n      0x00\n        /* \"#utility.yul\":1544:1545   */\n      dup1\n        /* \"#utility.yul\":1537:1549   */\n      revert\n        /* \"#utility.yul\":1561:1663   */\n    tag_153:\n        /* \"#utility.yul\":1602:1608   */\n      0x00\n        /* \"#utility.yul\":1653:1655   */\n      0x1f\n        /* \"#utility.yul\":1649:1656   */\n      not\n        /* \"#utility.yul\":1644:1646   */\n      0x1f\n        /* \"#utility.yul\":1637:1642   */\n      dup4\n        /* \"#utility.yul\":1633:1647   */\n      add\n        /* \"#utility.yul\":1629:1657   */\n      and\n        /* \"#utility.yul\":1619:1657   */\n      swap1\n      pop\n        /* \"#utility.yul\":1561:1663   */\n      swap2\n      swap1\n      pop\n      jump\t// out\n        /* \"#utility.yul\":1669:1849   */\n    tag_154:\n        /* \"#utility.yul\":1717:1794   */\n      0x4e487b7100000000000000000000000000000000000000000000000000000000\n        /* \"#utility.yul\":1714:1715   */\n      0x00\n        /* \"#utility.yul\":1707:1795   */\n      mstore\n        /* \"#utility.yul\":1814:1818   */\n      0x41\n        /* \"#utility.yul\":1811:1812   */\n      0x04\n        /* \"#utility.yul\":1804:1819   */\n      mstore\n        /* \"#utility.yul\":1838:1842   */\n      0x24\n        /* \"#utility.yul\":1835:1836   */\n      0x00\n        /* \"#utility.yul\":1828:1843   */\n      revert\n        /* \"#utility.yul\":1855:2136   */\n    tag_155:\n        /* \"#utility.yul\":1938:1965   */\n      tag_203\n        /* \"#utility.yul\":1960:1964   */\n      dup3\n        /* \"#utility.yul\":1938:1965   */\n      tag_153\n      jump\t// in\n    tag_203:\n        /* \"#utility.yul\":1930:1936   */\n      dup2\n        /* \"#utility.yul\":1926:1966   */\n      add\n        /* \"#utility.yul\":2068:2074   */\n      dup2\n        /* \"#utility.yul\":2056:2066   */\n      dup2\n        /* \"#utility.yul\":2053:2075   */\n      lt\n        /* \"#utility.yul\":2032:2050   */\n      0xffffffffffffffff\n        /* \"#utility.yul\":2020:2030   */\n      dup3\n        /* \"#utility.yul\":2017:2051   */\n      gt\n        /* \"#utility.yul\":2014:2076   */\n      or\n        /* \"#utility.yul\":2011:2099   */\n      iszero\n      tag_204\n      jumpi\n        /* \"#utility.yul\":2079:2097   */\n      tag_205\n      tag_154\n      jump\t// in\n    tag_205:\n        /* \"#utility.yul\":2011:2099   */\n    tag_204:\n        /* \"#utility.yul\":2119:2129   */\n      dup1\n        /* \"#utility.yul\":2115:2117   */\n      0x40\n        /* \"#utility.yul\":2108:2130   */\n      mstore\n        /* \"#utility.yul\":1898:2136   */\n      pop\n        /* \"#utility.yul\":1855:2136   */\n      pop\n      pop\n      jump\t// out\n        /* \"#utility.yul\":2142:2271   */\n    tag_156:\n        /* \"#utility.yul\":2176:2182   */\n      0x00\n        /* \"#utility.yul\":2203:2223   */\n      tag_207\n      tag_145\n      jump\t// in\n    tag_207:\n        /* \"#utility.yul\":2193:2223   */\n      swap1\n      pop\n        /* \"#utility.yul\":2232:2265   */\n      tag_208\n        /* \"#utility.yul\":2260:2264   */\n      dup3\n        /* \"#utility.yul\":2252:2258   */\n      dup3\n        /* \"#utility.yul\":2232:2265   */\n      tag_155\n      jump\t// in\n    tag_208:\n        /* \"#utility.yul\":2142:2271   */\n      swap2\n      swap1\n      pop\n      jump\t// out\n        /* \"#utility.yul\":2277:2585   */\n    tag_157:\n        /* \"#utility.yul\":2339:2343   */\n      0x00\n        /* \"#utility.yul\":2429:2447   */\n      0xffffffffffffffff\n        /* \"#utility.yul\":2421:2427   */\n      dup3\n        /* \"#utility.yul\":2418:2448   */\n      gt\n        /* \"#utility.yul\":2415:2471   */\n      iszero\n      tag_210\n      jumpi\n        /* \"#utility.yul\":2451:2469   */\n      tag_211\n      tag_154\n      jump\t// in\n    tag_211:\n        /* \"#utility.yul\":2415:2471   */\n    tag_210:\n        /* \"#utility.yul\":2489:2518   */\n      tag_212\n        /* \"#utility.yul\":2511:2517   */\n      dup3\n        /* \"#utility.yul\":2489:2518   */\n      tag_153\n      jump\t// in\n    tag_212:\n        /* \"#utility.yul\":2481:2518   */\n      swap1\n      pop\n        /* \"#utility.yul\":2573:2577   */\n      0x20\n        /* \"#utility.yul\":2567:2571   */\n      dup2\n        /* \"#utility.yul\":2563:2578   */\n      add\n        /* \"#utility.yul\":2555:2578   */\n      swap1\n      pop\n        /* \"#utility.yul\":2277:2585   */\n      swap2\n      swap1\n      pop\n      jump\t// out\n        /* \"#utility.yul\":2591:2745   */\n    tag_158:\n        /* \"#utility.yul\":2675:2681   */\n      dup3\n        /* \"#utility.yul\":2670:2673   */\n      dup2\n        /* \"#utility.yul\":2665:2668   */\n      dup4\n        /* \"#utility.yul\":2652:2682   */\n      calldatacopy\n        /* \"#utility.yul\":2737:2738   */\n      0x00\n        /* \"#utility.yul\":2728:2734   */\n      dup4\n        /* \"#utility.yul\":2723:2726   */\n      dup4\n        /* \"#utility.yul\":2719:2735   */\n      add\n        /* \"#utility.yul\":2712:2739   */\n      mstore\n        /* \"#utility.yul\":2591:2745   */\n      pop\n      pop\n      pop\n      jump\t// out\n        /* \"#utility.yul\":2751:3163   */\n    tag_159:\n        /* \"#utility.yul\":2829:2834   */\n      0x00\n        /* \"#utility.yul\":2854:2920   */\n      tag_215\n        /* \"#utility.yul\":2870:2919   */\n      tag_216\n        /* \"#utility.yul\":2912:2918   */\n      dup5\n        /* \"#utility.yul\":2870:2919   */\n      tag_157\n      jump\t// in\n    tag_216:\n        /* \"#utility.yul\":2854:2920   */\n      tag_156\n      jump\t// in\n    tag_215:\n        /* \"#utility.yul\":2845:2920   */\n      swap1\n      pop\n        /* \"#utility.yul\":2943:2949   */\n      dup3\n        /* \"#utility.yul\":2936:2941   */\n      dup2\n        /* \"#utility.yul\":2929:2950   */\n      mstore\n        /* \"#utility.yul\":2981:2985   */\n      0x20\n        /* \"#utility.yul\":2974:2979   */\n      dup2\n        /* \"#utility.yul\":2970:2986   */\n      add\n        /* \"#utility.yul\":3019:3022   */\n      dup5\n        /* \"#utility.yul\":3010:3016   */\n      dup5\n        /* \"#utility.yul\":3005:3008   */\n      dup5\n        /* \"#utility.yul\":3001:3017   */\n      add\n        /* \"#utility.yul\":2998:3023   */\n      gt\n        /* \"#utility.yul\":2995:3107   */\n      iszero\n      tag_217\n      jumpi\n        /* \"#utility.yul\":3026:3105   */\n      tag_218\n      tag_152\n      jump\t// in\n    tag_218:\n        /* \"#utility.yul\":2995:3107   */\n    tag_217:\n        /* \"#utility.yul\":3116:3157   */\n      tag_219\n        /* \"#utility.yul\":3150:3156   */\n      dup5\n        /* \"#utility.yul\":3145:3148   */\n      dup3\n        /* \"#utility.yul\":3140:3143   */\n      dup6\n        /* \"#utility.yul\":3116:3157   */\n      tag_158\n      jump\t// in\n    tag_219:\n        /* \"#utility.yul\":2835:3163   */\n      pop\n        /* \"#utility.yul\":2751:3163   */\n      swap4\n      swap3\n      pop\n      pop\n      pop\n      jump\t// out\n        /* \"#utility.yul\":3183:3523   */\n    tag_160:\n        /* \"#utility.yul\":3239:3244   */\n      0x00\n        /* \"#utility.yul\":3288:3291   */\n      dup3\n        /* \"#utility.yul\":3281:3285   */\n      0x1f\n        /* \"#utility.yul\":3273:3279   */\n      dup4\n        /* \"#utility.yul\":3269:3286   */\n      add\n        /* \"#utility.yul\":3265:3292   */\n      slt\n        /* \"#utility.yul\":3255:3377   */\n      tag_221\n      jumpi\n        /* \"#utility.yul\":3296:3375   */\n      tag_222\n      tag_151\n      jump\t// in\n    tag_222:\n        /* \"#utility.yul\":3255:3377   */\n    tag_221:\n        /* \"#utility.yul\":3413:3419   */\n      dup2\n        /* \"#utility.yul\":3400:3420   */\n      calldataload\n        /* \"#utility.yul\":3438:3517   */\n      tag_223\n        /* \"#utility.yul\":3513:3516   */\n      dup5\n        /* \"#utility.yul\":3505:3511   */\n      dup3\n        /* \"#utility.yul\":3498:3502   */\n      0x20\n        /* \"#utility.yul\":3490:3496   */\n      dup7\n        /* \"#utility.yul\":3486:3503   */\n      add\n        /* \"#utility.yul\":3438:3517   */\n      tag_159\n      jump\t// in\n    tag_223:\n        /* \"#utility.yul\":3429:3517   */\n      swap2\n      pop\n        /* \"#utility.yul\":3245:3523   */\n      pop\n        /* \"#utility.yul\":3183:3523   */\n      swap3\n      swap2\n      pop\n      pop\n      jump\t// out\n        /* \"#utility.yul\":3529:3655   */\n    tag_161:\n        /* \"#utility.yul\":3566:3573   */\n      0x00\n        /* \"#utility.yul\":3606:3648   */\n      0xffffffffffffffffffffffffffffffffffffffff\n        /* \"#utility.yul\":3599:3604   */\n      dup3\n        /* \"#utility.yul\":3595:3649   */\n      and\n        /* \"#utility.yul\":3584:3649   */\n      swap1\n      pop\n        /* \"#utility.yul\":3529:3655   */\n      swap2\n      swap1\n      pop\n      jump\t// out\n        /* \"#utility.yul\":3661:3757   */\n    tag_162:\n        /* \"#utility.yul\":3698:3705   */\n      0x00\n        /* \"#utility.yul\":3727:3751   */\n      tag_226\n        /* \"#utility.yul\":3745:3750   */\n      dup3\n        /* \"#utility.yul\":3727:3751   */\n      tag_161\n      jump\t// in\n    tag_226:\n        /* \"#utility.yul\":3716:3751   */\n      swap1\n      pop\n        /* \"#utility.yul\":3661:3757   */\n      swap2\n      swap1\n      pop\n      jump\t// out\n        /* \"#utility.yul\":3763:3885   */\n    tag_163:\n        /* \"#utility.yul\":3836:3860   */\n      tag_228\n        /* \"#utility.yul\":3854:3859   */\n      dup2\n        /* \"#utility.yul\":3836:3860   */\n      tag_162\n      jump\t// in\n    tag_228:\n        /* \"#utility.yul\":3829:3834   */\n      dup2\n        /* \"#utility.yul\":3826:3861   */\n      eq\n        /* \"#utility.yul\":3816:3879   */\n      tag_229\n      jumpi\n        /* \"#utility.yul\":3875:3876   */\n      0x00\n        /* \"#utility.yul\":3872:3873   */\n      dup1\n        /* \"#utility.yul\":3865:3877   */\n      revert\n        /* \"#utility.yul\":3816:3879   */\n    tag_229:\n        /* \"#utility.yul\":3763:3885   */\n      pop\n      jump\t// out\n        /* \"#utility.yul\":3891:4030   */\n    tag_164:\n        /* \"#utility.yul\":3937:3942   */\n      0x00\n        /* \"#utility.yul\":3975:3981   */\n      dup2\n        /* \"#utility.yul\":3962:3982   */\n      calldataload\n        /* \"#utility.yul\":3953:3982   */\n      swap1\n      pop\n        /* \"#utility.yul\":3991:4024   */\n      tag_231\n        /* \"#utility.yul\":4018:4023   */\n      dup2\n        /* \"#utility.yul\":3991:4024   */\n      tag_163\n      jump\t// in\n    tag_231:\n        /* \"#utility.yul\":3891:4030   */\n      swap3\n      swap2\n      pop\n      pop\n      jump\t// out\n        /* \"#utility.yul\":4036:5161   */\n    tag_19:\n        /* \"#utility.yul\":4142:4148   */\n      0x00\n        /* \"#utility.yul\":4150:4156   */\n      dup1\n        /* \"#utility.yul\":4158:4164   */\n      0x00\n        /* \"#utility.yul\":4166:4172   */\n      dup1\n        /* \"#utility.yul\":4215:4218   */\n      0x80\n        /* \"#utility.yul\":4203:4212   */\n      dup6\n        /* \"#utility.yul\":4194:4201   */\n      dup8\n        /* \"#utility.yul\":4190:4213   */\n      sub\n        /* \"#utility.yul\":4186:4219   */\n      slt\n        /* \"#utility.yul\":4183:4303   */\n      iszero\n      tag_233\n      jumpi\n        /* \"#utility.yul\":4222:4301   */\n      tag_234\n      tag_146\n      jump\t// in\n    tag_234:\n        /* \"#utility.yul\":4183:4303   */\n    tag_233:\n        /* \"#utility.yul\":4370:4371   */\n      0x00\n        /* \"#utility.yul\":4359:4368   */\n      dup6\n        /* \"#utility.yul\":4355:4372   */\n      add\n        /* \"#utility.yul\":4342:4373   */\n      calldataload\n        /* \"#utility.yul\":4400:4418   */\n      0xffffffffffffffff\n        /* \"#utility.yul\":4392:4398   */\n      dup2\n        /* \"#utility.yul\":4389:4419   */\n      gt\n        /* \"#utility.yul\":4386:4503   */\n      iszero\n      tag_235\n      jumpi\n        /* \"#utility.yul\":4422:4501   */\n      tag_236\n      tag_147\n      jump\t// in\n    tag_236:\n        /* \"#utility.yul\":4386:4503   */\n    tag_235:\n        /* \"#utility.yul\":4527:4590   */\n      tag_237\n        /* \"#utility.yul\":4582:4589   */\n      dup8\n        /* \"#utility.yul\":4573:4579   */\n      dup3\n        /* \"#utility.yul\":4562:4571   */\n      dup9\n        /* \"#utility.yul\":4558:4580   */\n      add\n        /* \"#utility.yul\":4527:4590   */\n      tag_160\n      jump\t// in\n    tag_237:\n        /* \"#utility.yul\":4517:4590   */\n      swap5\n      pop\n        /* \"#utility.yul\":4313:4600   */\n      pop\n        /* \"#utility.yul\":4667:4669   */\n      0x20\n        /* \"#utility.yul\":4656:4665   */\n      dup6\n        /* \"#utility.yul\":4652:4670   */\n      add\n        /* \"#utility.yul\":4639:4671   */\n      calldataload\n        /* \"#utility.yul\":4698:4716   */\n      0xffffffffffffffff\n        /* \"#utility.yul\":4690:4696   */\n      dup2\n        /* \"#utility.yul\":4687:4717   */\n      gt\n        /* \"#utility.yul\":4684:4801   */\n      iszero\n      tag_238\n      jumpi\n        /* \"#utility.yul\":4720:4799   */\n      tag_239\n      tag_147\n      jump\t// in\n    tag_239:\n        /* \"#utility.yul\":4684:4801   */\n    tag_238:\n        /* \"#utility.yul\":4825:4888   */\n      tag_240\n        /* \"#utility.yul\":4880:4887   */\n      dup8\n        /* \"#utility.yul\":4871:4877   */\n      dup3\n        /* \"#utility.yul\":4860:4869   */\n      dup9\n        /* \"#utility.yul\":4856:4878   */\n      add\n        /* \"#utility.yul\":4825:4888   */\n      tag_160\n      jump\t// in\n    tag_240:\n        /* \"#utility.yul\":4815:4888   */\n      swap4\n      pop\n        /* \"#utility.yul\":4610:4898   */\n      pop\n        /* \"#utility.yul\":4937:4939   */\n      0x40\n        /* \"#utility.yul\":4963:5016   */\n      tag_241\n        /* \"#utility.yul\":5008:5015   */\n      dup8\n        /* \"#utility.yul\":4999:5005   */\n      dup3\n        /* \"#utility.yul\":4988:4997   */\n      dup9\n        /* \"#utility.yul\":4984:5006   */\n      add\n        /* \"#utility.yul\":4963:5016   */\n      tag_150\n      jump\t// in\n    tag_241:\n        /* \"#utility.yul\":4953:5016   */\n      swap3\n      pop\n        /* \"#utility.yul\":4908:5026   */\n      pop\n        /* \"#utility.yul\":5065:5067   */\n      0x60\n        /* \"#utility.yul\":5091:5144   */\n      tag_242\n        /* \"#utility.yul\":5136:5143   */\n      dup8\n        /* \"#utility.yul\":5127:5133   */\n      dup3\n        /* \"#utility.yul\":5116:5125   */\n      dup9\n        /* \"#utility.yul\":5112:5134   */\n      add\n        /* \"#utility.yul\":5091:5144   */\n      tag_164\n      jump\t// in\n    tag_242:\n        /* \"#utility.yul\":5081:5144   */\n      swap2\n      pop\n        /* \"#utility.yul\":5036:5154   */\n      pop\n        /* \"#utility.yul\":4036:5161   */\n      swap3\n      swap6\n      swap2\n      swap5\n      pop\n      swap3\n      pop\n      jump\t// out\n        /* \"#utility.yul\":5167:5496   */\n    tag_23:\n        /* \"#utility.yul\":5226:5232   */\n      0x00\n        /* \"#utility.yul\":5275:5277   */\n      0x20\n        /* \"#utility.yul\":5263:5272   */\n      dup3\n        /* \"#utility.yul\":5254:5261   */\n      dup5\n        /* \"#utility.yul\":5250:5273   */\n      sub\n        /* \"#utility.yul\":5246:5278   */\n      slt\n        /* \"#utility.yul\":5243:5362   */\n      iszero\n      tag_244\n      jumpi\n        /* \"#utility.yul\":5281:5360   */\n      tag_245\n      tag_146\n      jump\t// in\n    tag_245:\n        /* \"#utility.yul\":5243:5362   */\n    tag_244:\n        /* \"#utility.yul\":5401:5402   */\n      0x00\n        /* \"#utility.yul\":5426:5479   */\n      tag_246\n        /* \"#utility.yul\":5471:5478   */\n      dup5\n        /* \"#utility.yul\":5462:5468   */\n      dup3\n        /* \"#utility.yul\":5451:5460   */\n      dup6\n        /* \"#utility.yul\":5447:5469   */\n      add\n        /* \"#utility.yul\":5426:5479   */\n      tag_150\n      jump\t// in\n    tag_246:\n        /* \"#utility.yul\":5416:5479   */\n      swap2\n      pop\n        /* \"#utility.yul\":5372:5489   */\n      pop\n        /* \"#utility.yul\":5167:5496   */\n      swap3\n      swap2\n      pop\n      pop\n      jump\t// out\n        /* \"#utility.yul\":5502:5620   */\n    tag_165:\n        /* \"#utility.yul\":5589:5613   */\n      tag_248\n        /* \"#utility.yul\":5607:5612   */\n      dup2\n        /* \"#utility.yul\":5589:5613   */\n      tag_162\n      jump\t// in\n    tag_248:\n        /* \"#utility.yul\":5584:5587   */\n      dup3\n        /* \"#utility.yul\":5577:5614   */\n      mstore\n        /* \"#utility.yul\":5502:5620   */\n      pop\n      pop\n      jump\t// out\n        /* \"#utility.yul\":5626:5848   */\n    tag_29:\n        /* \"#utility.yul\":5719:5723   */\n      0x00\n        /* \"#utility.yul\":5757:5759   */\n      0x20\n        /* \"#utility.yul\":5746:5755   */\n      dup3\n        /* \"#utility.yul\":5742:5760   */\n      add\n        /* \"#utility.yul\":5734:5760   */\n      swap1\n      pop\n        /* \"#utility.yul\":5770:5841   */\n      tag_250\n        /* \"#utility.yul\":5838:5839   */\n      0x00\n        /* \"#utility.yul\":5827:5836   */\n      dup4\n        /* \"#utility.yul\":5823:5840   */\n      add\n        /* \"#utility.yul\":5814:5820   */\n      dup5\n        /* \"#utility.yul\":5770:5841   */\n      tag_165\n      jump\t// in\n    tag_250:\n        /* \"#utility.yul\":5626:5848   */\n      swap3\n      swap2\n      pop\n      pop\n      jump\t// out\n        /* \"#utility.yul\":5854:5972   */\n    tag_166:\n        /* \"#utility.yul\":5941:5965   */\n      tag_252\n        /* \"#utility.yul\":5959:5964   */\n      dup2\n        /* \"#utility.yul\":5941:5965   */\n      tag_148\n      jump\t// in\n    tag_252:\n        /* \"#utility.yul\":5936:5939   */\n      dup3\n        /* \"#utility.yul\":5929:5966   */\n      mstore\n        /* \"#utility.yul\":5854:5972   */\n      pop\n      pop\n      jump\t// out\n        /* \"#utility.yul\":5978:6200   */\n    tag_34:\n        /* \"#utility.yul\":6071:6075   */\n      0x00\n        /* \"#utility.yul\":6109:6111   */\n      0x20\n        /* \"#utility.yul\":6098:6107   */\n      dup3\n        /* \"#utility.yul\":6094:6112   */\n      add\n        /* \"#utility.yul\":6086:6112   */\n      swap1\n      pop\n        /* \"#utility.yul\":6122:6193   */\n      tag_254\n        /* \"#utility.yul\":6190:6191   */\n      0x00\n        /* \"#utility.yul\":6179:6188   */\n      dup4\n        /* \"#utility.yul\":6175:6192   */\n      add\n        /* \"#utility.yul\":6166:6172   */\n      dup5\n        /* \"#utility.yul\":6122:6193   */\n      tag_166\n      jump\t// in\n    tag_254:\n        /* \"#utility.yul\":5978:6200   */\n      swap3\n      swap2\n      pop\n      pop\n      jump\t// out\n        /* \"#utility.yul\":6206:6320   */\n    tag_167:\n        /* \"#utility.yul\":6273:6279   */\n      0x00\n        /* \"#utility.yul\":6307:6312   */\n      dup2\n        /* \"#utility.yul\":6301:6313   */\n      mload\n        /* \"#utility.yul\":6291:6313   */\n      swap1\n      pop\n        /* \"#utility.yul\":6206:6320   */\n      swap2\n      swap1\n      pop\n      jump\t// out\n        /* \"#utility.yul\":6326:6510   */\n    tag_168:\n        /* \"#utility.yul\":6425:6436   */\n      0x00\n        /* \"#utility.yul\":6459:6465   */\n      dup3\n        /* \"#utility.yul\":6454:6457   */\n      dup3\n        /* \"#utility.yul\":6447:6466   */\n      mstore\n        /* \"#utility.yul\":6499:6503   */\n      0x20\n        /* \"#utility.yul\":6494:6497   */\n      dup3\n        /* \"#utility.yul\":6490:6504   */\n      add\n        /* \"#utility.yul\":6475:6504   */\n      swap1\n      pop\n        /* \"#utility.yul\":6326:6510   */\n      swap3\n      swap2\n      pop\n      pop\n      jump\t// out\n        /* \"#utility.yul\":6516:6648   */\n    tag_169:\n        /* \"#utility.yul\":6583:6587   */\n      0x00\n        /* \"#utility.yul\":6606:6609   */\n      dup2\n        /* \"#utility.yul\":6598:6609   */\n      swap1\n      pop\n        /* \"#utility.yul\":6636:6640   */\n      0x20\n        /* \"#utility.yul\":6631:6634   */\n      dup3\n        /* \"#utility.yul\":6627:6641   */\n      add\n        /* \"#utility.yul\":6619:6641   */\n      swap1\n      pop\n        /* \"#utility.yul\":6516:6648   */\n      swap2\n      swap1\n      pop\n      jump\t// out\n        /* \"#utility.yul\":6654:6762   */\n    tag_170:\n        /* \"#utility.yul\":6731:6755   */\n      tag_259\n        /* \"#utility.yul\":6749:6754   */\n      dup2\n        /* \"#utility.yul\":6731:6755   */\n      tag_162\n      jump\t// in\n    tag_259:\n        /* \"#utility.yul\":6726:6729   */\n      dup3\n        /* \"#utility.yul\":6719:6756   */\n      mstore\n        /* \"#utility.yul\":6654:6762   */\n      pop\n      pop\n      jump\t// out\n        /* \"#utility.yul\":6768:6947   */\n    tag_171:\n        /* \"#utility.yul\":6837:6847   */\n      0x00\n        /* \"#utility.yul\":6858:6904   */\n      tag_261\n        /* \"#utility.yul\":6900:6903   */\n      dup4\n        /* \"#utility.yul\":6892:6898   */\n      dup4\n        /* \"#utility.yul\":6858:6904   */\n      tag_170\n      jump\t// in\n    tag_261:\n        /* \"#utility.yul\":6936:6940   */\n      0x20\n        /* \"#utility.yul\":6931:6934   */\n      dup4\n        /* \"#utility.yul\":6927:6941   */\n      add\n        /* \"#utility.yul\":6913:6941   */\n      swap1\n      pop\n        /* \"#utility.yul\":6768:6947   */\n      swap3\n      swap2\n      pop\n      pop\n      jump\t// out\n        /* \"#utility.yul\":6953:7066   */\n    tag_172:\n        /* \"#utility.yul\":7023:7027   */\n      0x00\n        /* \"#utility.yul\":7055:7059   */\n      0x20\n        /* \"#utility.yul\":7050:7053   */\n      dup3\n        /* \"#utility.yul\":7046:7060   */\n      add\n        /* \"#utility.yul\":7038:7060   */\n      swap1\n      pop\n        /* \"#utility.yul\":6953:7066   */\n      swap2\n      swap1\n      pop\n      jump\t// out\n        /* \"#utility.yul\":7102:7834   */\n    tag_173:\n        /* \"#utility.yul\":7221:7224   */\n      0x00\n        /* \"#utility.yul\":7250:7304   */\n      tag_264\n        /* \"#utility.yul\":7298:7303   */\n      dup3\n        /* \"#utility.yul\":7250:7304   */\n      tag_167\n      jump\t// in\n    tag_264:\n        /* \"#utility.yul\":7320:7406   */\n      tag_265\n        /* \"#utility.yul\":7399:7405   */\n      dup2\n        /* \"#utility.yul\":7394:7397   */\n      dup6\n        /* \"#utility.yul\":7320:7406   */\n      tag_168\n      jump\t// in\n    tag_265:\n        /* \"#utility.yul\":7313:7406   */\n      swap4\n      pop\n        /* \"#utility.yul\":7430:7486   */\n      tag_266\n        /* \"#utility.yul\":7480:7485   */\n      dup4\n        /* \"#utility.yul\":7430:7486   */\n      tag_169\n      jump\t// in\n    tag_266:\n        /* \"#utility.yul\":7509:7516   */\n      dup1\n        /* \"#utility.yul\":7540:7541   */\n      0x00\n        /* \"#utility.yul\":7525:7809   */\n    tag_267:\n        /* \"#utility.yul\":7550:7556   */\n      dup4\n        /* \"#utility.yul\":7547:7548   */\n      dup2\n        /* \"#utility.yul\":7544:7557   */\n      lt\n        /* \"#utility.yul\":7525:7809   */\n      iszero\n      tag_269\n      jumpi\n        /* \"#utility.yul\":7626:7632   */\n      dup2\n        /* \"#utility.yul\":7620:7633   */\n      mload\n        /* \"#utility.yul\":7653:7716   */\n      tag_270\n        /* \"#utility.yul\":7712:7715   */\n      dup9\n        /* \"#utility.yul\":7697:7710   */\n      dup3\n        /* \"#utility.yul\":7653:7716   */\n      tag_171\n      jump\t// in\n    tag_270:\n        /* \"#utility.yul\":7646:7716   */\n      swap8\n      pop\n        /* \"#utility.yul\":7739:7799   */\n      tag_271\n        /* \"#utility.yul\":7792:7798   */\n      dup4\n        /* \"#utility.yul\":7739:7799   */\n      tag_172\n      jump\t// in\n    tag_271:\n        /* \"#utility.yul\":7729:7799   */\n      swap3\n      pop\n        /* \"#utility.yul\":7585:7809   */\n      pop\n        /* \"#utility.yul\":7572:7573   */\n      0x01\n        /* \"#utility.yul\":7569:7570   */\n      dup2\n        /* \"#utility.yul\":7565:7574   */\n      add\n        /* \"#utility.yul\":7560:7574   */\n      swap1\n      pop\n        /* \"#utility.yul\":7525:7809   */\n      jump(tag_267)\n    tag_269:\n        /* \"#utility.yul\":7529:7543   */\n      pop\n        /* \"#utility.yul\":7825:7828   */\n      dup6\n        /* \"#utility.yul\":7818:7828   */\n      swap4\n      pop\n        /* \"#utility.yul\":7226:7834   */\n      pop\n      pop\n      pop\n        /* \"#utility.yul\":7102:7834   */\n      swap3\n      swap2\n      pop\n      pop\n      jump\t// out\n        /* \"#utility.yul\":7840:8213   */\n    tag_39:\n        /* \"#utility.yul\":7983:7987   */\n      0x00\n        /* \"#utility.yul\":8021:8023   */\n      0x20\n        /* \"#utility.yul\":8010:8019   */\n      dup3\n        /* \"#utility.yul\":8006:8024   */\n      add\n        /* \"#utility.yul\":7998:8024   */\n      swap1\n      pop\n        /* \"#utility.yul\":8070:8079   */\n      dup2\n        /* \"#utility.yul\":8064:8068   */\n      dup2\n        /* \"#utility.yul\":8060:8080   */\n      sub\n        /* \"#utility.yul\":8056:8057   */\n      0x00\n        /* \"#utility.yul\":8045:8054   */\n      dup4\n        /* \"#utility.yul\":8041:8058   */\n      add\n        /* \"#utility.yul\":8034:8081   */\n      mstore\n        /* \"#utility.yul\":8098:8206   */\n      tag_273\n        /* \"#utility.yul\":8201:8205   */\n      dup2\n        /* \"#utility.yul\":8192:8198   */\n      dup5\n        /* \"#utility.yul\":8098:8206   */\n      tag_173\n      jump\t// in\n    tag_273:\n        /* \"#utility.yul\":8090:8206   */\n      swap1\n      pop\n        /* \"#utility.yul\":7840:8213   */\n      swap3\n      swap2\n      pop\n      pop\n      jump\t// out\n        /* \"#utility.yul\":8219:9490   */\n    tag_47:\n        /* \"#utility.yul\":8334:8340   */\n      0x00\n        /* \"#utility.yul\":8342:8348   */\n      dup1\n        /* \"#utility.yul\":8350:8356   */\n      0x00\n        /* \"#utility.yul\":8358:8364   */\n      dup1\n        /* \"#utility.yul\":8366:8372   */\n      0x00\n        /* \"#utility.yul\":8415:8418   */\n      0xa0\n        /* \"#utility.yul\":8403:8412   */\n      dup7\n        /* \"#utility.yul\":8394:8401   */\n      dup9\n        /* \"#utility.yul\":8390:8413   */\n      sub\n        /* \"#utility.yul\":8386:8419   */\n      slt\n        /* \"#utility.yul\":8383:8503   */\n      iszero\n      tag_275\n      jumpi\n        /* \"#utility.yul\":8422:8501   */\n      tag_276\n      tag_146\n      jump\t// in\n    tag_276:\n        /* \"#utility.yul\":8383:8503   */\n    tag_275:\n        /* \"#utility.yul\":8542:8543   */\n      0x00\n        /* \"#utility.yul\":8567:8620   */\n      tag_277\n        /* \"#utility.yul\":8612:8619   */\n      dup9\n        /* \"#utility.yul\":8603:8609   */\n      dup3\n        /* \"#utility.yul\":8592:8601   */\n      dup10\n        /* \"#utility.yul\":8588:8610   */\n      add\n        /* \"#utility.yul\":8567:8620   */\n      tag_150\n      jump\t// in\n    tag_277:\n        /* \"#utility.yul\":8557:8620   */\n      swap6\n      pop\n        /* \"#utility.yul\":8513:8630   */\n      pop\n        /* \"#utility.yul\":8697:8699   */\n      0x20\n        /* \"#utility.yul\":8686:8695   */\n      dup7\n        /* \"#utility.yul\":8682:8700   */\n      add\n        /* \"#utility.yul\":8669:8701   */\n      calldataload\n        /* \"#utility.yul\":8728:8746   */\n      0xffffffffffffffff\n        /* \"#utility.yul\":8720:8726   */\n      dup2\n        /* \"#utility.yul\":8717:8747   */\n      gt\n        /* \"#utility.yul\":8714:8831   */\n      iszero\n      tag_278\n      jumpi\n        /* \"#utility.yul\":8750:8829   */\n      tag_279\n      tag_147\n      jump\t// in\n    tag_279:\n        /* \"#utility.yul\":8714:8831   */\n    tag_278:\n        /* \"#utility.yul\":8855:8918   */\n      tag_280\n        /* \"#utility.yul\":8910:8917   */\n      dup9\n        /* \"#utility.yul\":8901:8907   */\n      dup3\n        /* \"#utility.yul\":8890:8899   */\n      dup10\n        /* \"#utility.yul\":8886:8908   */\n      add\n        /* \"#utility.yul\":8855:8918   */\n      tag_160\n      jump\t// in\n    tag_280:\n        /* \"#utility.yul\":8845:8918   */\n      swap5\n      pop\n        /* \"#utility.yul\":8640:8928   */\n      pop\n        /* \"#utility.yul\":8995:8997   */\n      0x40\n        /* \"#utility.yul\":8984:8993   */\n      dup7\n        /* \"#utility.yul\":8980:8998   */\n      add\n        /* \"#utility.yul\":8967:8999   */\n      calldataload\n        /* \"#utility.yul\":9026:9044   */\n      0xffffffffffffffff\n        /* \"#utility.yul\":9018:9024   */\n      dup2\n        /* \"#utility.yul\":9015:9045   */\n      gt\n        /* \"#utility.yul\":9012:9129   */\n      iszero\n      tag_281\n      jumpi\n        /* \"#utility.yul\":9048:9127   */\n      tag_282\n      tag_147\n      jump\t// in\n    tag_282:\n        /* \"#utility.yul\":9012:9129   */\n    tag_281:\n        /* \"#utility.yul\":9153:9216   */\n      tag_283\n        /* \"#utility.yul\":9208:9215   */\n      dup9\n        /* \"#utility.yul\":9199:9205   */\n      dup3\n        /* \"#utility.yul\":9188:9197   */\n      dup10\n        /* \"#utility.yul\":9184:9206   */\n      add\n        /* \"#utility.yul\":9153:9216   */\n      tag_160\n      jump\t// in\n    tag_283:\n        /* \"#utility.yul\":9143:9216   */\n      swap4\n      pop\n        /* \"#utility.yul\":8938:9226   */\n      pop\n        /* \"#utility.yul\":9265:9267   */\n      0x60\n        /* \"#utility.yul\":9291:9344   */\n      tag_284\n        /* \"#utility.yul\":9336:9343   */\n      dup9\n        /* \"#utility.yul\":9327:9333   */\n      dup3\n        /* \"#utility.yul\":9316:9325   */\n      dup10\n        /* \"#utility.yul\":9312:9334   */\n      add\n        /* \"#utility.yul\":9291:9344   */\n      tag_150\n      jump\t// in\n    tag_284:\n        /* \"#utility.yul\":9281:9344   */\n      swap3\n      pop\n        /* \"#utility.yul\":9236:9354   */\n      pop\n        /* \"#utility.yul\":9393:9396   */\n      0x80\n        /* \"#utility.yul\":9420:9473   */\n      tag_285\n        /* \"#utility.yul\":9465:9472   */\n      dup9\n        /* \"#utility.yul\":9456:9462   */\n      dup3\n        /* \"#utility.yul\":9445:9454   */\n      dup10\n        /* \"#utility.yul\":9441:9463   */\n      add\n        /* \"#utility.yul\":9420:9473   */\n      tag_164\n      jump\t// in\n    tag_285:\n        /* \"#utility.yul\":9410:9473   */\n      swap2\n      pop\n        /* \"#utility.yul\":9364:9483   */\n      pop\n        /* \"#utility.yul\":8219:9490   */\n      swap3\n      swap6\n      pop\n      swap3\n      swap6\n      swap1\n      swap4\n      pop\n      jump\t// out\n        /* \"#utility.yul\":9496:9825   */\n    tag_52:\n        /* \"#utility.yul\":9555:9561   */\n      0x00\n        /* \"#utility.yul\":9604:9606   */\n      0x20\n        /* \"#utility.yul\":9592:9601   */\n      dup3\n        /* \"#utility.yul\":9583:9590   */\n      dup5\n        /* \"#utility.yul\":9579:9602   */\n      sub\n        /* \"#utility.yul\":9575:9607   */\n      slt\n        /* \"#utility.yul\":9572:9691   */\n      iszero\n      tag_287\n      jumpi\n        /* \"#utility.yul\":9610:9689   */\n      tag_288\n      tag_146\n      jump\t// in\n    tag_288:\n        /* \"#utility.yul\":9572:9691   */\n    tag_287:\n        /* \"#utility.yul\":9730:9731   */\n      0x00\n        /* \"#utility.yul\":9755:9808   */\n      tag_289\n        /* \"#utility.yul\":9800:9807   */\n      dup5\n        /* \"#utility.yul\":9791:9797   */\n      dup3\n        /* \"#utility.yul\":9780:9789   */\n      dup6\n        /* \"#utility.yul\":9776:9798   */\n      add\n        /* \"#utility.yul\":9755:9808   */\n      tag_164\n      jump\t// in\n    tag_289:\n        /* \"#utility.yul\":9745:9808   */\n      swap2\n      pop\n        /* \"#utility.yul\":9701:9818   */\n      pop\n        /* \"#utility.yul\":9496:9825   */\n      swap3\n      swap2\n      pop\n      pop\n      jump\t// out\n        /* \"#utility.yul\":9831:9921   */\n    tag_174:\n        /* \"#utility.yul\":9865:9872   */\n      0x00\n        /* \"#utility.yul\":9908:9913   */\n      dup2\n        /* \"#utility.yul\":9901:9914   */\n      iszero\n        /* \"#utility.yul\":9894:9915   */\n      iszero\n        /* \"#utility.yul\":9883:9915   */\n      swap1\n      pop\n        /* \"#utility.yul\":9831:9921   */\n      swap2\n      swap1\n      pop\n      jump\t// out\n        /* \"#utility.yul\":9927:10043   */\n    tag_175:\n        /* \"#utility.yul\":9997:10018   */\n      tag_292\n        /* \"#utility.yul\":10012:10017   */\n      dup2\n        /* \"#utility.yul\":9997:10018   */\n      tag_174\n      jump\t// in\n    tag_292:\n        /* \"#utility.yul\":9990:9995   */\n      dup2\n        /* \"#utility.yul\":9987:10019   */\n      eq\n        /* \"#utility.yul\":9977:10037   */\n      tag_293\n      jumpi\n        /* \"#utility.yul\":10033:10034   */\n      0x00\n        /* \"#utility.yul\":10030:10031   */\n      dup1\n        /* \"#utility.yul\":10023:10035   */\n      revert\n        /* \"#utility.yul\":9977:10037   */\n    tag_293:\n        /* \"#utility.yul\":9927:10043   */\n      pop\n      jump\t// out\n        /* \"#utility.yul\":10049:10186   */\n    tag_176:\n        /* \"#utility.yul\":10103:10108   */\n      0x00\n        /* \"#utility.yul\":10134:10140   */\n      dup2\n        /* \"#utility.yul\":10128:10141   */\n      mload\n        /* \"#utility.yul\":10119:10141   */\n      swap1\n      pop\n        /* \"#utility.yul\":10150:10180   */\n      tag_295\n        /* \"#utility.yul\":10174:10179   */\n      dup2\n        /* \"#utility.yul\":10150:10180   */\n      tag_175\n      jump\t// in\n    tag_295:\n        /* \"#utility.yul\":10049:10186   */\n      swap3\n      swap2\n      pop\n      pop\n      jump\t// out\n        /* \"#utility.yul\":10192:10537   */\n    tag_59:\n        /* \"#utility.yul\":10259:10265   */\n      0x00\n        /* \"#utility.yul\":10308:10310   */\n      0x20\n        /* \"#utility.yul\":10296:10305   */\n      dup3\n        /* \"#utility.yul\":10287:10294   */\n      dup5\n        /* \"#utility.yul\":10283:10306   */\n      sub\n        /* \"#utility.yul\":10279:10311   */\n      slt\n        /* \"#utility.yul\":10276:10395   */\n      iszero\n      tag_297\n      jumpi\n        /* \"#utility.yul\":10314:10393   */\n      tag_298\n      tag_146\n      jump\t// in\n    tag_298:\n        /* \"#utility.yul\":10276:10395   */\n    tag_297:\n        /* \"#utility.yul\":10434:10435   */\n      0x00\n        /* \"#utility.yul\":10459:10520   */\n      tag_299\n        /* \"#utility.yul\":10512:10519   */\n      dup5\n        /* \"#utility.yul\":10503:10509   */\n      dup3\n        /* \"#utility.yul\":10492:10501   */\n      dup6\n        /* \"#utility.yul\":10488:10510   */\n      add\n        /* \"#utility.yul\":10459:10520   */\n      tag_176\n      jump\t// in\n    tag_299:\n        /* \"#utility.yul\":10449:10520   */\n      swap2\n      pop\n        /* \"#utility.yul\":10405:10530   */\n      pop\n        /* \"#utility.yul\":10192:10537   */\n      swap3\n      swap2\n      pop\n      pop\n      jump\t// out\n        /* \"#utility.yul\":10543:10686   */\n    tag_177:\n        /* \"#utility.yul\":10600:10605   */\n      0x00\n        /* \"#utility.yul\":10631:10637   */\n      dup2\n        /* \"#utility.yul\":10625:10638   */\n      mload\n        /* \"#utility.yul\":10616:10638   */\n      swap1\n      pop\n        /* \"#utility.yul\":10647:10680   */\n      tag_301\n        /* \"#utility.yul\":10674:10679   */\n      dup2\n        /* \"#utility.yul\":10647:10680   */\n      tag_149\n      jump\t// in\n    tag_301:\n        /* \"#utility.yul\":10543:10686   */\n      swap3\n      swap2\n      pop\n      pop\n      jump\t// out\n        /* \"#utility.yul\":10692:11043   */\n    tag_66:\n        /* \"#utility.yul\":10762:10768   */\n      0x00\n        /* \"#utility.yul\":10811:10813   */\n      0x20\n        /* \"#utility.yul\":10799:10808   */\n      dup3\n        /* \"#utility.yul\":10790:10797   */\n      dup5\n        /* \"#utility.yul\":10786:10809   */\n      sub\n        /* \"#utility.yul\":10782:10814   */\n      slt\n        /* \"#utility.yul\":10779:10898   */\n      iszero\n      tag_303\n      jumpi\n        /* \"#utility.yul\":10817:10896   */\n      tag_304\n      tag_146\n      jump\t// in\n    tag_304:\n        /* \"#utility.yul\":10779:10898   */\n    tag_303:\n        /* \"#utility.yul\":10937:10938   */\n      0x00\n        /* \"#utility.yul\":10962:11026   */\n      tag_305\n        /* \"#utility.yul\":11018:11025   */\n      dup5\n        /* \"#utility.yul\":11009:11015   */\n      dup3\n        /* \"#utility.yul\":10998:11007   */\n      dup6\n        /* \"#utility.yul\":10994:11016   */\n      add\n        /* \"#utility.yul\":10962:11026   */\n      tag_177\n      jump\t// in\n    tag_305:\n        /* \"#utility.yul\":10952:11026   */\n      swap2\n      pop\n        /* \"#utility.yul\":10908:11036   */\n      pop\n        /* \"#utility.yul\":10692:11043   */\n      swap3\n      swap2\n      pop\n      pop\n      jump\t// out\n        /* \"#utility.yul\":11049:11602   */\n    tag_69:\n        /* \"#utility.yul\":11226:11230   */\n      0x00\n        /* \"#utility.yul\":11264:11267   */\n      0x80\n        /* \"#utility.yul\":11253:11262   */\n      dup3\n        /* \"#utility.yul\":11249:11268   */\n      add\n        /* \"#utility.yul\":11241:11268   */\n      swap1\n      pop\n        /* \"#utility.yul\":11278:11349   */\n      tag_307\n        /* \"#utility.yul\":11346:11347   */\n      0x00\n        /* \"#utility.yul\":11335:11344   */\n      dup4\n        /* \"#utility.yul\":11331:11348   */\n      add\n        /* \"#utility.yul\":11322:11328   */\n      dup8\n        /* \"#utility.yul\":11278:11349   */\n      tag_165\n      jump\t// in\n    tag_307:\n        /* \"#utility.yul\":11359:11431   */\n      tag_308\n        /* \"#utility.yul\":11427:11429   */\n      0x20\n        /* \"#utility.yul\":11416:11425   */\n      dup4\n        /* \"#utility.yul\":11412:11430   */\n      add\n        /* \"#utility.yul\":11403:11409   */\n      dup7\n        /* \"#utility.yul\":11359:11431   */\n      tag_166\n      jump\t// in\n    tag_308:\n        /* \"#utility.yul\":11441:11513   */\n      tag_309\n        /* \"#utility.yul\":11509:11511   */\n      0x40\n        /* \"#utility.yul\":11498:11507   */\n      dup4\n        /* \"#utility.yul\":11494:11512   */\n      add\n        /* \"#utility.yul\":11485:11491   */\n      dup6\n        /* \"#utility.yul\":11441:11513   */\n      tag_166\n      jump\t// in\n    tag_309:\n        /* \"#utility.yul\":11523:11595   */\n      tag_310\n        /* \"#utility.yul\":11591:11593   */\n      0x60\n        /* \"#utility.yul\":11580:11589   */\n      dup4\n        /* \"#utility.yul\":11576:11594   */\n      add\n        /* \"#utility.yul\":11567:11573   */\n      dup5\n        /* \"#utility.yul\":11523:11595   */\n      tag_166\n      jump\t// in\n    tag_310:\n        /* \"#utility.yul\":11049:11602   */\n      swap6\n      swap5\n      pop\n      pop\n      pop\n      pop\n      pop\n      jump\t// out\n        /* \"#utility.yul\":11608:11940   */\n    tag_74:\n        /* \"#utility.yul\":11729:11733   */\n      0x00\n        /* \"#utility.yul\":11767:11769   */\n      0x40\n        /* \"#utility.yul\":11756:11765   */\n      dup3\n        /* \"#utility.yul\":11752:11770   */\n      add\n        /* \"#utility.yul\":11744:11770   */\n      swap1\n      pop\n        /* \"#utility.yul\":11780:11851   */\n      tag_312\n        /* \"#utility.yul\":11848:11849   */\n      0x00\n        /* \"#utility.yul\":11837:11846   */\n      dup4\n        /* \"#utility.yul\":11833:11850   */\n      add\n        /* \"#utility.yul\":11824:11830   */\n      dup6\n        /* \"#utility.yul\":11780:11851   */\n      tag_165\n      jump\t// in\n    tag_312:\n        /* \"#utility.yul\":11861:11933   */\n      tag_313\n        /* \"#utility.yul\":11929:11931   */\n      0x20\n        /* \"#utility.yul\":11918:11927   */\n      dup4\n        /* \"#utility.yul\":11914:11932   */\n      add\n        /* \"#utility.yul\":11905:11911   */\n      dup5\n        /* \"#utility.yul\":11861:11933   */\n      tag_166\n      jump\t// in\n    tag_313:\n        /* \"#utility.yul\":11608:11940   */\n      swap4\n      swap3\n      pop\n      pop\n      pop\n      jump\t// out\n        /* \"#utility.yul\":11946:12045   */\n    tag_178:\n        /* \"#utility.yul\":11998:12004   */\n      0x00\n        /* \"#utility.yul\":12032:12037   */\n      dup2\n        /* \"#utility.yul\":12026:12038   */\n      mload\n        /* \"#utility.yul\":12016:12038   */\n      swap1\n      pop\n        /* \"#utility.yul\":11946:12045   */\n      swap2\n      swap1\n      pop\n      jump\t// out\n        /* \"#utility.yul\":12051:12220   */\n    tag_179:\n        /* \"#utility.yul\":12135:12146   */\n      0x00\n        /* \"#utility.yul\":12169:12175   */\n      dup3\n        /* \"#utility.yul\":12164:12167   */\n      dup3\n        /* \"#utility.yul\":12157:12176   */\n      mstore\n        /* \"#utility.yul\":12209:12213   */\n      0x20\n        /* \"#utility.yul\":12204:12207   */\n      dup3\n        /* \"#utility.yul\":12200:12214   */\n      add\n        /* \"#utility.yul\":12185:12214   */\n      swap1\n      pop\n        /* \"#utility.yul\":12051:12220   */\n      swap3\n      swap2\n      pop\n      pop\n      jump\t// out\n        /* \"#utility.yul\":12226:12533   */\n    tag_180:\n        /* \"#utility.yul\":12294:12295   */\n      0x00\n        /* \"#utility.yul\":12304:12417   */\n    tag_317:\n        /* \"#utility.yul\":12318:12324   */\n      dup4\n        /* \"#utility.yul\":12315:12316   */\n      dup2\n        /* \"#utility.yul\":12312:12325   */\n      lt\n        /* \"#utility.yul\":12304:12417   */\n      iszero\n      tag_319\n      jumpi\n        /* \"#utility.yul\":12403:12404   */\n      dup1\n        /* \"#utility.yul\":12398:12401   */\n      dup3\n        /* \"#utility.yul\":12394:12405   */\n      add\n        /* \"#utility.yul\":12388:12406   */\n      mload\n        /* \"#utility.yul\":12384:12385   */\n      dup2\n        /* \"#utility.yul\":12379:12382   */\n      dup5\n        /* \"#utility.yul\":12375:12386   */\n      add\n        /* \"#utility.yul\":12368:12407   */\n      mstore\n        /* \"#utility.yul\":12340:12342   */\n      0x20\n        /* \"#utility.yul\":12337:12338   */\n      dup2\n        /* \"#utility.yul\":12333:12343   */\n      add\n        /* \"#utility.yul\":12328:12343   */\n      swap1\n      pop\n        /* \"#utility.yul\":12304:12417   */\n      jump(tag_317)\n    tag_319:\n        /* \"#utility.yul\":12435:12441   */\n      dup4\n        /* \"#utility.yul\":12432:12433   */\n      dup2\n        /* \"#utility.yul\":12429:12442   */\n      gt\n        /* \"#utility.yul\":12426:12527   */\n      iszero\n      tag_320\n      jumpi\n        /* \"#utility.yul\":12515:12516   */\n      0x00\n        /* \"#utility.yul\":12506:12512   */\n      dup5\n        /* \"#utility.yul\":12501:12504   */\n      dup5\n        /* \"#utility.yul\":12497:12513   */\n      add\n        /* \"#utility.yul\":12490:12517   */\n      mstore\n        /* \"#utility.yul\":12426:12527   */\n    tag_320:\n        /* \"#utility.yul\":12275:12533   */\n      pop\n        /* \"#utility.yul\":12226:12533   */\n      pop\n      pop\n      pop\n      jump\t// out\n        /* \"#utility.yul\":12539:12903   */\n    tag_181:\n        /* \"#utility.yul\":12627:12630   */\n      0x00\n        /* \"#utility.yul\":12655:12694   */\n      tag_322\n        /* \"#utility.yul\":12688:12693   */\n      dup3\n        /* \"#utility.yul\":12655:12694   */\n      tag_178\n      jump\t// in\n    tag_322:\n        /* \"#utility.yul\":12710:12781   */\n      tag_323\n        /* \"#utility.yul\":12774:12780   */\n      dup2\n        /* \"#utility.yul\":12769:12772   */\n      dup6\n        /* \"#utility.yul\":12710:12781   */\n      tag_179\n      jump\t// in\n    tag_323:\n        /* \"#utility.yul\":12703:12781   */\n      swap4\n      pop\n        /* \"#utility.yul\":12790:12842   */\n      tag_324\n        /* \"#utility.yul\":12835:12841   */\n      dup2\n        /* \"#utility.yul\":12830:12833   */\n      dup6\n        /* \"#utility.yul\":12823:12827   */\n      0x20\n        /* \"#utility.yul\":12816:12821   */\n      dup7\n        /* \"#utility.yul\":12812:12828   */\n      add\n        /* \"#utility.yul\":12790:12842   */\n      tag_180\n      jump\t// in\n    tag_324:\n        /* \"#utility.yul\":12867:12896   */\n      tag_325\n        /* \"#utility.yul\":12889:12895   */\n      dup2\n        /* \"#utility.yul\":12867:12896   */\n      tag_153\n      jump\t// in\n    tag_325:\n        /* \"#utility.yul\":12862:12865   */\n      dup5\n        /* \"#utility.yul\":12858:12897   */\n      add\n        /* \"#utility.yul\":12851:12897   */\n      swap2\n      pop\n        /* \"#utility.yul\":12631:12903   */\n      pop\n        /* \"#utility.yul\":12539:12903   */\n      swap3\n      swap2\n      pop\n      pop\n      jump\t// out\n        /* \"#utility.yul\":12909:13644   */\n    tag_82:\n        /* \"#utility.yul\":13126:13130   */\n      0x00\n        /* \"#utility.yul\":13164:13167   */\n      0x80\n        /* \"#utility.yul\":13153:13162   */\n      dup3\n        /* \"#utility.yul\":13149:13168   */\n      add\n        /* \"#utility.yul\":13141:13168   */\n      swap1\n      pop\n        /* \"#utility.yul\":13214:13223   */\n      dup2\n        /* \"#utility.yul\":13208:13212   */\n      dup2\n        /* \"#utility.yul\":13204:13224   */\n      sub\n        /* \"#utility.yul\":13200:13201   */\n      0x00\n        /* \"#utility.yul\":13189:13198   */\n      dup4\n        /* \"#utility.yul\":13185:13202   */\n      add\n        /* \"#utility.yul\":13178:13225   */\n      mstore\n        /* \"#utility.yul\":13242:13320   */\n      tag_327\n        /* \"#utility.yul\":13315:13319   */\n      dup2\n        /* \"#utility.yul\":13306:13312   */\n      dup8\n        /* \"#utility.yul\":13242:13320   */\n      tag_181\n      jump\t// in\n    tag_327:\n        /* \"#utility.yul\":13234:13320   */\n      swap1\n      pop\n        /* \"#utility.yul\":13367:13376   */\n      dup2\n        /* \"#utility.yul\":13361:13365   */\n      dup2\n        /* \"#utility.yul\":13357:13377   */\n      sub\n        /* \"#utility.yul\":13352:13354   */\n      0x20\n        /* \"#utility.yul\":13341:13350   */\n      dup4\n        /* \"#utility.yul\":13337:13355   */\n      add\n        /* \"#utility.yul\":13330:13378   */\n      mstore\n        /* \"#utility.yul\":13395:13473   */\n      tag_328\n        /* \"#utility.yul\":13468:13472   */\n      dup2\n        /* \"#utility.yul\":13459:13465   */\n      dup7\n        /* \"#utility.yul\":13395:13473   */\n      tag_181\n      jump\t// in\n    tag_328:\n        /* \"#utility.yul\":13387:13473   */\n      swap1\n      pop\n        /* \"#utility.yul\":13483:13555   */\n      tag_329\n        /* \"#utility.yul\":13551:13553   */\n      0x40\n        /* \"#utility.yul\":13540:13549   */\n      dup4\n        /* \"#utility.yul\":13536:13554   */\n      add\n        /* \"#utility.yul\":13527:13533   */\n      dup6\n        /* \"#utility.yul\":13483:13555   */\n      tag_166\n      jump\t// in\n    tag_329:\n        /* \"#utility.yul\":13565:13637   */\n      tag_330\n        /* \"#utility.yul\":13633:13635   */\n      0x60\n        /* \"#utility.yul\":13622:13631   */\n      dup4\n        /* \"#utility.yul\":13618:13636   */\n      add\n        /* \"#utility.yul\":13609:13615   */\n      dup5\n        /* \"#utility.yul\":13565:13637   */\n      tag_165\n      jump\t// in\n    tag_330:\n        /* \"#utility.yul\":12909:13644   */\n      swap6\n      swap5\n      pop\n      pop\n      pop\n      pop\n      pop\n      jump\t// out\n        /* \"#utility.yul\":13650:13982   */\n    tag_103:\n        /* \"#utility.yul\":13771:13775   */\n      0x00\n        /* \"#utility.yul\":13809:13811   */\n      0x40\n        /* \"#utility.yul\":13798:13807   */\n      dup3\n        /* \"#utility.yul\":13794:13812   */\n      add\n        /* \"#utility.yul\":13786:13812   */\n      swap1\n      pop\n        /* \"#utility.yul\":13822:13893   */\n      tag_332\n        /* \"#utility.yul\":13890:13891   */\n      0x00\n        /* \"#utility.yul\":13879:13888   */\n      dup4\n        /* \"#utility.yul\":13875:13892   */\n      add\n        /* \"#utility.yul\":13866:13872   */\n      dup6\n        /* \"#utility.yul\":13822:13893   */\n      tag_166\n      jump\t// in\n    tag_332:\n        /* \"#utility.yul\":13903:13975   */\n      tag_333\n        /* \"#utility.yul\":13971:13973   */\n      0x20\n        /* \"#utility.yul\":13960:13969   */\n      dup4\n        /* \"#utility.yul\":13956:13974   */\n      add\n        /* \"#utility.yul\":13947:13953   */\n      dup5\n        /* \"#utility.yul\":13903:13975   */\n      tag_165\n      jump\t// in\n    tag_333:\n        /* \"#utility.yul\":13650:13982   */\n      swap4\n      swap3\n      pop\n      pop\n      pop\n      jump\t// out\n        /* \"#utility.yul\":13988:14834   */\n    tag_138:\n        /* \"#utility.yul\":14233:14237   */\n      0x00\n        /* \"#utility.yul\":14271:14274   */\n      0xa0\n        /* \"#utility.yul\":14260:14269   */\n      dup3\n        /* \"#utility.yul\":14256:14275   */\n      add\n        /* \"#utility.yul\":14248:14275   */\n      swap1\n      pop\n        /* \"#utility.yul\":14285:14356   */\n      tag_335\n        /* \"#utility.yul\":14353:14354   */\n      0x00\n        /* \"#utility.yul\":14342:14351   */\n      dup4\n        /* \"#utility.yul\":14338:14355   */\n      add\n        /* \"#utility.yul\":14329:14335   */\n      dup9\n        /* \"#utility.yul\":14285:14356   */\n      tag_166\n      jump\t// in\n    tag_335:\n        /* \"#utility.yul\":14403:14412   */\n      dup2\n        /* \"#utility.yul\":14397:14401   */\n      dup2\n        /* \"#utility.yul\":14393:14413   */\n      sub\n        /* \"#utility.yul\":14388:14390   */\n      0x20\n        /* \"#utility.yul\":14377:14386   */\n      dup4\n        /* \"#utility.yul\":14373:14391   */\n      add\n        /* \"#utility.yul\":14366:14414   */\n      mstore\n        /* \"#utility.yul\":14431:14509   */\n      tag_336\n        /* \"#utility.yul\":14504:14508   */\n      dup2\n        /* \"#utility.yul\":14495:14501   */\n      dup8\n        /* \"#utility.yul\":14431:14509   */\n      tag_181\n      jump\t// in\n    tag_336:\n        /* \"#utility.yul\":14423:14509   */\n      swap1\n      pop\n        /* \"#utility.yul\":14556:14565   */\n      dup2\n        /* \"#utility.yul\":14550:14554   */\n      dup2\n        /* \"#utility.yul\":14546:14566   */\n      sub\n        /* \"#utility.yul\":14541:14543   */\n      0x40\n        /* \"#utility.yul\":14530:14539   */\n      dup4\n        /* \"#utility.yul\":14526:14544   */\n      add\n        /* \"#utility.yul\":14519:14567   */\n      mstore\n        /* \"#utility.yul\":14584:14662   */\n      tag_337\n        /* \"#utility.yul\":14657:14661   */\n      dup2\n        /* \"#utility.yul\":14648:14654   */\n      dup7\n        /* \"#utility.yul\":14584:14662   */\n      tag_181\n      jump\t// in\n    tag_337:\n        /* \"#utility.yul\":14576:14662   */\n      swap1\n      pop\n        /* \"#utility.yul\":14672:14744   */\n      tag_338\n        /* \"#utility.yul\":14740:14742   */\n      0x60\n        /* \"#utility.yul\":14729:14738   */\n      dup4\n        /* \"#utility.yul\":14725:14743   */\n      add\n        /* \"#utility.yul\":14716:14722   */\n      dup6\n        /* \"#utility.yul\":14672:14744   */\n      tag_166\n      jump\t// in\n    tag_338:\n        /* \"#utility.yul\":14754:14827   */\n      tag_339\n        /* \"#utility.yul\":14822:14825   */\n      0x80\n        /* \"#utility.yul\":14811:14820   */\n      dup4\n        /* \"#utility.yul\":14807:14826   */\n      add\n        /* \"#utility.yul\":14798:14804   */\n      dup5\n        /* \"#utility.yul\":14754:14827   */\n      tag_165\n      jump\t// in\n    tag_339:\n        /* \"#utility.yul\":13988:14834   */\n      swap7\n      swap6\n      pop\n      pop\n      pop\n      pop\n      pop\n      pop\n      jump\t// out\n\n    auxdata: 0xa2646970667358221220de864dd85ac25686511e22deca94c5c9a97df85831573c857a92e2a8d92333bb64736f6c634300080a0033\n}\n\nsub_1: assembly {\n        /* \"devs/BookManager.sol\":706:2772   */\n      mstore(0x40, 0x80)\n        /* \"devs/BookManager.sol\":1002:1113   */\n      callvalue\n      dup1\n      iszero\n      tag_1\n      jumpi\n      0x00\n      dup1\n      revert\n    tag_1:\n      pop\n      mload(0x40)\n      sub(codesize, bytecodeSize)\n      dup1\n      bytecodeSize\n      dup4\n      codecopy\n      dup2\n      dup2\n      add\n      0x40\n      mstore\n      dup2\n      add\n      swap1\n      tag_2\n      swap2\n      swap1\n      tag_3\n      jump\t// in\n    tag_2:\n        /* \"devs/BookManager.sol\":1055:1068   */\n      dup1\n        /* \"devs/BookManager.sol\":1047:1052   */\n      0x00\n      dup1\n        /* \"devs/BookManager.sol\":1047:1068   */\n      0x0100\n      exp\n      dup2\n      sload\n      dup2\n      0xffffffffffffffffffffffffffffffffffffffff\n      mul\n      not\n      and\n      swap1\n      dup4\n      0xffffffffffffffffffffffffffffffffffffffff\n      and\n      mul\n      or\n      swap1\n      sstore\n      pop\n        /* \"devs/BookManager.sol\":1096:1106   */\n      caller\n        /* \"devs/BookManager.sol\":1078:1093   */\n      0x01\n      0x00\n        /* \"devs/BookManager.sol\":1078:1106   */\n      0x0100\n      exp\n      dup2\n      sload\n      dup2\n      0xffffffffffffffffffffffffffffffffffffffff\n      mul\n      not\n      and\n      swap1\n      dup4\n      0xffffffffffffffffffffffffffffffffffffffff\n      and\n      mul\n      or\n      swap1\n      sstore\n      pop\n        /* \"devs/BookManager.sol\":1002:1113   */\n      pop\n        /* \"devs/BookManager.sol\":706:2772   */\n      jump(tag_6)\n        /* \"#utility.yul\":88:205   */\n    tag_8:\n        /* \"#utility.yul\":197:198   */\n      0x00\n        /* \"#utility.yul\":194:195   */\n      dup1\n        /* \"#utility.yul\":187:199   */\n      revert\n        /* \"#utility.yul\":334:460   */\n    tag_10:\n        /* \"#utility.yul\":371:378   */\n      0x00\n        /* \"#utility.yul\":411:453   */\n      0xffffffffffffffffffffffffffffffffffffffff\n        /* \"#utility.yul\":404:409   */\n      dup3\n        /* \"#utility.yul\":400:454   */\n      and\n        /* \"#utility.yul\":389:454   */\n      swap1\n      pop\n        /* \"#utility.yul\":334:460   */\n      swap2\n      swap1\n      pop\n      jump\t// out\n        /* \"#utility.yul\":466:562   */\n    tag_11:\n        /* \"#utility.yul\":503:510   */\n      0x00\n        /* \"#utility.yul\":532:556   */\n      tag_20\n        /* \"#utility.yul\":550:555   */\n      dup3\n        /* \"#utility.yul\":532:556   */\n      tag_10\n      jump\t// in\n    tag_20:\n        /* \"#utility.yul\":521:556   */\n      swap1\n      pop\n        /* \"#utility.yul\":466:562   */\n      swap2\n      swap1\n      pop\n      jump\t// out\n        /* \"#utility.yul\":568:690   */\n    tag_12:\n        /* \"#utility.yul\":641:665   */\n      tag_22\n        /* \"#utility.yul\":659:664   */\n      dup2\n        /* \"#utility.yul\":641:665   */\n      tag_11\n      jump\t// in\n    tag_22:\n        /* \"#utility.yul\":634:639   */\n      dup2\n        /* \"#utility.yul\":631:666   */\n      eq\n        /* \"#utility.yul\":621:684   */\n      tag_23\n      jumpi\n        /* \"#utility.yul\":680:681   */\n      0x00\n        /* \"#utility.yul\":677:678   */\n      dup1\n        /* \"#utility.yul\":670:682   */\n      revert\n        /* \"#utility.yul\":621:684   */\n    tag_23:\n        /* \"#utility.yul\":568:690   */\n      pop\n      jump\t// out\n        /* \"#utility.yul\":696:839   */\n    tag_13:\n        /* \"#utility.yul\":753:758   */\n      0x00\n        /* \"#utility.yul\":784:790   */\n      dup2\n        /* \"#utility.yul\":778:791   */\n      mload\n        /* \"#utility.yul\":769:791   */\n      swap1\n      pop\n        /* \"#utility.yul\":800:833   */\n      tag_25\n        /* \"#utility.yul\":827:832   */\n      dup2\n        /* \"#utility.yul\":800:833   */\n      tag_12\n      jump\t// in\n    tag_25:\n        /* \"#utility.yul\":696:839   */\n      swap3\n      swap2\n      pop\n      pop\n      jump\t// out\n        /* \"#utility.yul\":845:1196   */\n    tag_3:\n        /* \"#utility.yul\":915:921   */\n      0x00\n        /* \"#utility.yul\":964:966   */\n      0x20\n        /* \"#utility.yul\":952:961   */\n      dup3\n        /* \"#utility.yul\":943:950   */\n      dup5\n        /* \"#utility.yul\":939:962   */\n      sub\n        /* \"#utility.yul\":935:967   */\n      slt\n        /* \"#utility.yul\":932:1051   */\n      iszero\n      tag_27\n      jumpi\n        /* \"#utility.yul\":970:1049   */\n      tag_28\n      tag_8\n      jump\t// in\n    tag_28:\n        /* \"#utility.yul\":932:1051   */\n    tag_27:\n        /* \"#utility.yul\":1090:1091   */\n      0x00\n        /* \"#utility.yul\":1115:1179   */\n      tag_29\n        /* \"#utility.yul\":1171:1178   */\n      dup5\n        /* \"#utility.yul\":1162:1168   */\n      dup3\n        /* \"#utility.yul\":1151:1160   */\n      dup6\n        /* \"#utility.yul\":1147:1169   */\n      add\n        /* \"#utility.yul\":1115:1179   */\n      tag_13\n      jump\t// in\n    tag_29:\n        /* \"#utility.yul\":1105:1179   */\n      swap2\n      pop\n        /* \"#utility.yul\":1061:1189   */\n      pop\n        /* \"#utility.yul\":845:1196   */\n      swap3\n      swap2\n      pop\n      pop\n      jump\t// out\n        /* \"devs/BookManager.sol\":706:2772   */\n    tag_6:\n      dataSize(sub_0)\n      dup1\n      dataOffset(sub_0)\n      0x00\n      codecopy\n      0x00\n      return\n    stop\n\n    sub_0: assembly {\n            /* \"devs/BookManager.sol\":706:2772   */\n          mstore(0x40, 0x80)\n          callvalue\n          dup1\n          iszero\n          tag_1\n          jumpi\n          0x00\n          dup1\n          revert\n        tag_1:\n          pop\n          jumpi(tag_2, lt(calldatasize, 0x04))\n          shr(0xe0, calldataload(0x00))\n          dup1\n          0x98fbce79\n          gt\n          tag_11\n          jumpi\n          dup1\n          0x98fbce79\n          eq\n          tag_7\n          jumpi\n          dup1\n          0xd2c07e20\n          eq\n          tag_8\n          jumpi\n          dup1\n          0xd9ff0cf1\n          eq\n          tag_9\n          jumpi\n          dup1\n          0xf76ebe1c\n          eq\n          tag_10\n          jumpi\n          jump(tag_2)\n        tag_11:\n          dup1\n          0x0a6b2a25\n          eq\n          tag_3\n          jumpi\n          dup1\n          0x687564ae\n          eq\n          tag_4\n          jumpi\n          dup1\n          0x6c230eef\n          eq\n          tag_5\n          jumpi\n          dup1\n          0x8da5cb5b\n          eq\n          tag_6\n          jumpi\n        tag_2:\n          0x00\n          dup1\n          revert\n            /* \"devs/BookManager.sol\":2599:2770   */\n        tag_3:\n          tag_12\n          0x04\n          dup1\n          calldatasize\n          sub\n          dup2\n          add\n          swap1\n          tag_13\n          swap2\n          swap1\n          tag_14\n          jump\t// in\n        tag_13:\n          tag_15\n          jump\t// in\n        tag_12:\n          stop\n            /* \"devs/BookManager.sol\":1119:1483   */\n        tag_4:\n          tag_16\n          0x04\n          dup1\n          calldatasize\n          sub\n          dup2\n          add\n          swap1\n          tag_17\n          swap2\n          swap1\n          tag_18\n          jump\t// in\n        tag_17:\n          tag_19\n          jump\t// in\n        tag_16:\n          stop\n            /* \"devs/BookManager.sol\":1939:2129   */\n        tag_5:\n          tag_20\n          0x04\n          dup1\n          calldatasize\n          sub\n          dup2\n          add\n          swap1\n          tag_21\n          swap2\n          swap1\n          tag_14\n          jump\t// in\n        tag_21:\n          tag_22\n          jump\t// in\n        tag_20:\n          mload(0x40)\n          tag_23\n          swap2\n          swap1\n          tag_24\n          jump\t// in\n        tag_23:\n          mload(0x40)\n          dup1\n          swap2\n          sub\n          swap1\n          return\n            /* \"devs/BookManager.sol\":757:777   */\n        tag_6:\n          tag_25\n          tag_26\n          jump\t// in\n        tag_25:\n          mload(0x40)\n          tag_27\n          swap2\n          swap1\n          tag_28\n          jump\t// in\n        tag_27:\n          mload(0x40)\n          dup1\n          swap2\n          sub\n          swap1\n          return\n            /* \"devs/BookManager.sol\":2135:2593   */\n        tag_7:\n          tag_29\n          0x04\n          dup1\n          calldatasize\n          sub\n          dup2\n          add\n          swap1\n          tag_30\n          swap2\n          swap1\n          tag_14\n          jump\t// in\n        tag_30:\n          tag_31\n          jump\t// in\n        tag_29:\n          mload(0x40)\n          tag_32\n          swap6\n          swap5\n          swap4\n          swap3\n          swap2\n          swap1\n          tag_33\n          jump\t// in\n        tag_32:\n          mload(0x40)\n          dup1\n          swap2\n          sub\n          swap1\n          return\n            /* \"devs/BookManager.sol\":1489:1907   */\n        tag_8:\n          tag_34\n          0x04\n          dup1\n          calldatasize\n          sub\n          dup2\n          add\n          swap1\n          tag_35\n          swap2\n          swap1\n          tag_36\n          jump\t// in\n        tag_35:\n          tag_37\n          jump\t// in\n        tag_34:\n          stop\n            /* \"devs/BookManager.sol\":846:902   */\n        tag_9:\n          tag_38\n          0x04\n          dup1\n          calldatasize\n          sub\n          dup2\n          add\n          swap1\n          tag_39\n          swap2\n          swap1\n          tag_14\n          jump\t// in\n        tag_39:\n          tag_40\n          jump\t// in\n        tag_38:\n          mload(0x40)\n          tag_41\n          swap6\n          swap5\n          swap4\n          swap3\n          swap2\n          swap1\n          tag_33\n          jump\t// in\n        tag_41:\n          mload(0x40)\n          dup1\n          swap2\n          sub\n          swap1\n          return\n            /* \"devs/BookManager.sol\":821:840   */\n        tag_10:\n          tag_42\n          tag_43\n          jump\t// in\n        tag_42:\n          mload(0x40)\n          tag_44\n          swap2\n          swap1\n          tag_24\n          jump\t// in\n        tag_44:\n          mload(0x40)\n          dup1\n          swap2\n          sub\n          swap1\n          return\n            /* \"devs/BookManager.sol\":2599:2770   */\n        tag_15:\n            /* \"devs/BookManager.sol\":2657:2696   */\n          0x00\n            /* \"devs/BookManager.sol\":2699:2715   */\n          0x03\n            /* \"devs/BookManager.sol\":2699:2727   */\n          0x00\n            /* \"devs/BookManager.sol\":2716:2726   */\n          dup4\n            /* \"devs/BookManager.sol\":2699:2727   */\n          dup2\n          mstore\n          0x20\n          add\n          swap1\n          dup2\n          mstore\n          0x20\n          add\n          0x00\n          keccak256\n            /* \"devs/BookManager.sol\":2657:2727   */\n          swap1\n          pop\n            /* \"devs/BookManager.sol\":2737:2752   */\n          dup1\n            /* \"devs/BookManager.sol\":2737:2761   */\n          0x03\n          add\n          0x00\n            /* \"devs/BookManager.sol\":2737:2763   */\n          dup2\n          sload\n          dup1\n          swap3\n          swap2\n          swap1\n          tag_46\n          swap1\n          tag_47\n          jump\t// in\n        tag_46:\n          swap2\n          swap1\n          pop\n          sstore\n          pop\n            /* \"devs/BookManager.sol\":2647:2770   */\n          pop\n            /* \"devs/BookManager.sol\":2599:2770   */\n          pop\n          jump\t// out\n            /* \"devs/BookManager.sol\":1119:1483   */\n        tag_19:\n            /* \"devs/BookManager.sol\":967:977   */\n          caller\n            /* \"devs/BookManager.sol\":948:977   */\n          0xffffffffffffffffffffffffffffffffffffffff\n          and\n            /* \"devs/BookManager.sol\":948:963   */\n          0x01\n          0x00\n          swap1\n          sload\n          swap1\n          0x0100\n          exp\n          swap1\n          div\n          0xffffffffffffffffffffffffffffffffffffffff\n          and\n            /* \"devs/BookManager.sol\":948:977   */\n          0xffffffffffffffffffffffffffffffffffffffff\n          and\n          eq\n            /* \"devs/BookManager.sol\":940:978   */\n          tag_49\n          jumpi\n          0x00\n          dup1\n          revert\n        tag_49:\n            /* \"devs/BookManager.sol\":1257:1285   */\n          0x00\n            /* \"devs/BookManager.sol\":1288:1304   */\n          0x03\n            /* \"devs/BookManager.sol\":1288:1315   */\n          0x00\n            /* \"devs/BookManager.sol\":1305:1312   */\n          0x02\n          0x00\n            /* \"devs/BookManager.sol\":1305:1314   */\n          dup2\n          sload\n          dup1\n          swap3\n          swap2\n          swap1\n          tag_51\n          swap1\n          tag_47\n          jump\t// in\n        tag_51:\n          swap2\n          swap1\n          pop\n          sstore\n            /* \"devs/BookManager.sol\":1288:1315   */\n          dup2\n          mstore\n          0x20\n          add\n          swap1\n          dup2\n          mstore\n          0x20\n          add\n          0x00\n          keccak256\n            /* \"devs/BookManager.sol\":1257:1315   */\n          swap1\n          pop\n            /* \"devs/BookManager.sol\":1339:1346   */\n          dup5\n            /* \"devs/BookManager.sol\":1325:1329   */\n          dup2\n            /* \"devs/BookManager.sol\":1325:1336   */\n          0x00\n          add\n            /* \"devs/BookManager.sol\":1325:1346   */\n          swap1\n          dup1\n          mload\n          swap1\n          0x20\n          add\n          swap1\n          tag_52\n          swap3\n          swap2\n          swap1\n          tag_53\n          jump\t// in\n        tag_52:\n          pop\n            /* \"devs/BookManager.sol\":1369:1375   */\n          dup4\n            /* \"devs/BookManager.sol\":1356:1360   */\n          dup2\n            /* \"devs/BookManager.sol\":1356:1366   */\n          0x01\n          add\n            /* \"devs/BookManager.sol\":1356:1375   */\n          swap1\n          dup1\n          mload\n          swap1\n          0x20\n          add\n          swap1\n          tag_54\n          swap3\n          swap2\n          swap1\n          tag_53\n          jump\t// in\n        tag_54:\n          pop\n            /* \"devs/BookManager.sol\":1398:1404   */\n          dup3\n            /* \"devs/BookManager.sol\":1385:1389   */\n          dup2\n            /* \"devs/BookManager.sol\":1385:1395   */\n          0x02\n          add\n            /* \"devs/BookManager.sol\":1385:1404   */\n          dup2\n          swap1\n          sstore\n          pop\n            /* \"devs/BookManager.sol\":1430:1431   */\n          0x00\n            /* \"devs/BookManager.sol\":1414:1418   */\n          dup2\n            /* \"devs/BookManager.sol\":1414:1427   */\n          0x03\n          add\n            /* \"devs/BookManager.sol\":1414:1431   */\n          dup2\n          swap1\n          sstore\n          pop\n            /* \"devs/BookManager.sol\":1462:1476   */\n          dup2\n            /* \"devs/BookManager.sol\":1441:1445   */\n          dup2\n            /* \"devs/BookManager.sol\":1441:1459   */\n          0x04\n          add\n          0x00\n            /* \"devs/BookManager.sol\":1441:1476   */\n          0x0100\n          exp\n          dup2\n          sload\n          dup2\n          0xffffffffffffffffffffffffffffffffffffffff\n          mul\n          not\n          and\n          swap1\n          dup4\n          0xffffffffffffffffffffffffffffffffffffffff\n          and\n          mul\n          or\n          swap1\n          sstore\n          pop\n            /* \"devs/BookManager.sol\":1246:1483   */\n          pop\n            /* \"devs/BookManager.sol\":1119:1483   */\n          pop\n          pop\n          pop\n          pop\n          jump\t// out\n            /* \"devs/BookManager.sol\":1939:2129   */\n        tag_22:\n            /* \"devs/BookManager.sol\":2000:2004   */\n          0x00\n            /* \"devs/BookManager.sol\":2015:2053   */\n          dup1\n            /* \"devs/BookManager.sol\":2056:2072   */\n          0x03\n            /* \"devs/BookManager.sol\":2056:2084   */\n          0x00\n            /* \"devs/BookManager.sol\":2073:2083   */\n          dup5\n            /* \"devs/BookManager.sol\":2056:2084   */\n          dup2\n          mstore\n          0x20\n          add\n          swap1\n          dup2\n          mstore\n          0x20\n          add\n          0x00\n          keccak256\n            /* \"devs/BookManager.sol\":2015:2084   */\n          mload(0x40)\n          dup1\n          0xa0\n          add\n          0x40\n          mstore\n          swap1\n          dup2\n          0x00\n          dup3\n          add\n          dup1\n          sload\n          tag_56\n          swap1\n          tag_57\n          jump\t// in\n        tag_56:\n          dup1\n          0x1f\n          add\n          0x20\n          dup1\n          swap2\n          div\n          mul\n          0x20\n          add\n          mload(0x40)\n          swap1\n          dup2\n          add\n          0x40\n          mstore\n          dup1\n          swap3\n          swap2\n          swap1\n          dup2\n          dup2\n          mstore\n          0x20\n          add\n          dup3\n          dup1\n          sload\n          tag_58\n          swap1\n          tag_57\n          jump\t// in\n        tag_58:\n          dup1\n          iszero\n          tag_59\n          jumpi\n          dup1\n          0x1f\n          lt\n          tag_60\n          jumpi\n          0x0100\n          dup1\n          dup4\n          sload\n          div\n          mul\n          dup4\n          mstore\n          swap2\n          0x20\n          add\n          swap2\n          jump(tag_59)\n        tag_60:\n          dup3\n          add\n          swap2\n          swap1\n          0x00\n          mstore\n          keccak256(0x00, 0x20)\n          swap1\n        tag_61:\n          dup2\n          sload\n          dup2\n          mstore\n          swap1\n          0x01\n          add\n          swap1\n          0x20\n          add\n          dup1\n          dup4\n          gt\n          tag_61\n          jumpi\n          dup3\n          swap1\n          sub\n          0x1f\n          and\n          dup3\n          add\n          swap2\n        tag_59:\n          pop\n          pop\n          pop\n          pop\n          pop\n          dup2\n          mstore\n          0x20\n          add\n          0x01\n          dup3\n          add\n          dup1\n          sload\n          tag_62\n          swap1\n          tag_57\n          jump\t// in\n        tag_62:\n          dup1\n          0x1f\n          add\n          0x20\n          dup1\n          swap2\n          div\n          mul\n          0x20\n          add\n          mload(0x40)\n          swap1\n          dup2\n          add\n          0x40\n          mstore\n          dup1\n          swap3\n          swap2\n          swap1\n          dup2\n          dup2\n          mstore\n          0x20\n          add\n          dup3\n          dup1\n          sload\n          tag_63\n          swap1\n          tag_57\n          jump\t// in\n        tag_63:\n          dup1\n          iszero\n          tag_64\n          jumpi\n          dup1\n          0x1f\n          lt\n          tag_65\n          jumpi\n          0x0100\n          dup1\n          dup4\n          sload\n          div\n          mul\n          dup4\n          mstore\n          swap2\n          0x20\n          add\n          swap2\n          jump(tag_64)\n        tag_65:\n          dup3\n          add\n          swap2\n          swap1\n          0x00\n          mstore\n          keccak256(0x00, 0x20)\n          swap1\n        tag_66:\n          dup2\n          sload\n          dup2\n          mstore\n          swap1\n          0x01\n          add\n          swap1\n          0x20\n          add\n          dup1\n          dup4\n          gt\n          tag_66\n          jumpi\n          dup3\n          swap1\n          sub\n          0x1f\n          and\n          dup3\n          add\n          swap2\n        tag_64:\n          pop\n          pop\n          pop\n          pop\n          pop\n          dup2\n          mstore\n          0x20\n          add\n          0x02\n          dup3\n          add\n          sload\n          dup2\n          mstore\n          0x20\n          add\n          0x03\n          dup3\n          add\n          sload\n          dup2\n          mstore\n          0x20\n          add\n          0x04\n          dup3\n          add\n          0x00\n          swap1\n          sload\n          swap1\n          0x0100\n          exp\n          swap1\n          div\n          0xffffffffffffffffffffffffffffffffffffffff\n          and\n          0xffffffffffffffffffffffffffffffffffffffff\n          and\n          0xffffffffffffffffffffffffffffffffffffffff\n          and\n          dup2\n          mstore\n          pop\n          pop\n          swap1\n          pop\n            /* \"devs/BookManager.sol\":2101:2116   */\n          dup1\n            /* \"devs/BookManager.sol\":2101:2122   */\n          0x40\n          add\n          mload\n            /* \"devs/BookManager.sol\":2094:2122   */\n          swap2\n          pop\n          pop\n            /* \"devs/BookManager.sol\":1939:2129   */\n          swap2\n          swap1\n          pop\n          jump\t// out\n            /* \"devs/BookManager.sol\":757:777   */\n        tag_26:\n          0x00\n          dup1\n          sload\n          swap1\n          0x0100\n          exp\n          swap1\n          div\n          0xffffffffffffffffffffffffffffffffffffffff\n          and\n          dup2\n          jump\t// out\n            /* \"devs/BookManager.sol\":2135:2593   */\n        tag_31:\n            /* \"devs/BookManager.sol\":2211:2224   */\n          0x60\n            /* \"devs/BookManager.sol\":2226:2239   */\n          dup1\n            /* \"devs/BookManager.sol\":2241:2245   */\n          0x00\n            /* \"devs/BookManager.sol\":2247:2251   */\n          dup1\n            /* \"devs/BookManager.sol\":2253:2260   */\n          0x00\n            /* \"devs/BookManager.sol\":2275:2313   */\n          dup1\n            /* \"devs/BookManager.sol\":2316:2332   */\n          0x03\n            /* \"devs/BookManager.sol\":2316:2344   */\n          0x00\n            /* \"devs/BookManager.sol\":2333:2343   */\n          dup9\n            /* \"devs/BookManager.sol\":2316:2344   */\n          dup2\n          mstore\n          0x20\n          add\n          swap1\n          dup2\n          mstore\n          0x20\n          add\n          0x00\n          keccak256\n            /* \"devs/BookManager.sol\":2275:2344   */\n          mload(0x40)\n          dup1\n          0xa0\n          add\n          0x40\n          mstore\n          swap1\n          dup2\n          0x00\n          dup3\n          add\n          dup1\n          sload\n          tag_68\n          swap1\n          tag_57\n          jump\t// in\n        tag_68:\n          dup1\n          0x1f\n          add\n          0x20\n          dup1\n          swap2\n          div\n          mul\n          0x20\n          add\n          mload(0x40)\n          swap1\n          dup2\n          add\n          0x40\n          mstore\n          dup1\n          swap3\n          swap2\n          swap1\n          dup2\n          dup2\n          mstore\n          0x20\n          add\n          dup3\n          dup1\n          sload\n          tag_69\n          swap1\n          tag_57\n          jump\t// in\n        tag_69:\n          dup1\n          iszero\n          tag_70\n          jumpi\n          dup1\n          0x1f\n          lt\n          tag_71\n          jumpi\n          0x0100\n          dup1\n          dup4\n          sload\n          div\n          mul\n          dup4\n          mstore\n          swap2\n          0x20\n          add\n          swap2\n          jump(tag_70)\n        tag_71:\n          dup3\n          add\n          swap2\n          swap1\n          0x00\n          mstore\n          keccak256(0x00, 0x20)\n          swap1\n        tag_72:\n          dup2\n          sload\n          dup2\n          mstore\n          swap1\n          0x01\n          add\n          swap1\n          0x20\n          add\n          dup1\n          dup4\n          gt\n          tag_72\n          jumpi\n          dup3\n          swap1\n          sub\n          0x1f\n          and\n          dup3\n          add\n          swap2\n        tag_70:\n          pop\n          pop\n          pop\n          pop\n          pop\n          dup2\n          mstore\n          0x20\n          add\n          0x01\n          dup3\n          add\n          dup1\n          sload\n          tag_73\n          swap1\n          tag_57\n          jump\t// in\n        tag_73:\n          dup1\n          0x1f\n          add\n          0x20\n          dup1\n          swap2\n          div\n          mul\n          0x20\n          add\n          mload(0x40)\n          swap1\n          dup2\n          add\n          0x40\n          mstore\n          dup1\n          swap3\n          swap2\n          swap1\n          dup2\n          dup2\n          mstore\n          0x20\n          add\n          dup3\n          dup1\n          sload\n          tag_74\n          swap1\n          tag_57\n          jump\t// in\n        tag_74:\n          dup1\n          iszero\n          tag_75\n          jumpi\n          dup1\n          0x1f\n          lt\n          tag_76\n          jumpi\n          0x0100\n          dup1\n          dup4\n          sload\n          div\n          mul\n          dup4\n          mstore\n          swap2\n          0x20\n          add\n          swap2\n          jump(tag_75)\n        tag_76:\n          dup3\n          add\n          swap2\n          swap1\n          0x00\n          mstore\n          keccak256(0x00, 0x20)\n          swap1\n        tag_77:\n          dup2\n          sload\n          dup2\n          mstore\n          swap1\n          0x01\n          add\n          swap1\n          0x20\n          add\n          dup1\n          dup4\n          gt\n          tag_77\n          jumpi\n          dup3\n          swap1\n          sub\n          0x1f\n          and\n          dup3\n          add\n          swap2\n        tag_75:\n          pop\n          pop\n          pop\n          pop\n          pop\n          dup2\n          mstore\n          0x20\n          add\n          0x02\n          dup3\n          add\n          sload\n          dup2\n          mstore\n          0x20\n          add\n          0x03\n          dup3\n          add\n          sload\n          dup2\n          mstore\n          0x20\n          add\n          0x04\n          dup3\n          add\n          0x00\n          swap1\n          sload\n          swap1\n          0x0100\n          exp\n          swap1\n          div\n          0xffffffffffffffffffffffffffffffffffffffff\n          and\n          0xffffffffffffffffffffffffffffffffffffffff\n          and\n          0xffffffffffffffffffffffffffffffffffffffff\n          and\n          dup2\n          mstore\n          pop\n          pop\n          swap1\n          pop\n            /* \"devs/BookManager.sol\":2383:2398   */\n          dup1\n            /* \"devs/BookManager.sol\":2383:2405   */\n          0x00\n          add\n          mload\n            /* \"devs/BookManager.sol\":2423:2438   */\n          dup2\n            /* \"devs/BookManager.sol\":2423:2444   */\n          0x20\n          add\n          mload\n            /* \"devs/BookManager.sol\":2462:2477   */\n          dup3\n            /* \"devs/BookManager.sol\":2462:2483   */\n          0x40\n          add\n          mload\n            /* \"devs/BookManager.sol\":2501:2516   */\n          dup4\n            /* \"devs/BookManager.sol\":2501:2525   */\n          0x60\n          add\n          mload\n            /* \"devs/BookManager.sol\":2543:2558   */\n          dup5\n            /* \"devs/BookManager.sol\":2543:2572   */\n          0x80\n          add\n          mload\n            /* \"devs/BookManager.sol\":2358:2586   */\n          swap6\n          pop\n          swap6\n          pop\n          swap6\n          pop\n          swap6\n          pop\n          swap6\n          pop\n          pop\n            /* \"devs/BookManager.sol\":2135:2593   */\n          swap2\n          swap4\n          swap6\n          swap1\n          swap3\n          swap5\n          pop\n          jump\t// out\n            /* \"devs/BookManager.sol\":1489:1907   */\n        tag_37:\n            /* \"devs/BookManager.sol\":967:977   */\n          caller\n            /* \"devs/BookManager.sol\":948:977   */\n          0xffffffffffffffffffffffffffffffffffffffff\n          and\n            /* \"devs/BookManager.sol\":948:963   */\n          0x01\n          0x00\n          swap1\n          sload\n          swap1\n          0x0100\n          exp\n          swap1\n          div\n          0xffffffffffffffffffffffffffffffffffffffff\n          and\n            /* \"devs/BookManager.sol\":948:977   */\n          0xffffffffffffffffffffffffffffffffffffffff\n          and\n          eq\n            /* \"devs/BookManager.sol\":940:978   */\n          tag_79\n          jumpi\n          0x00\n          dup1\n          revert\n        tag_79:\n            /* \"devs/BookManager.sol\":1680:1708   */\n          0x00\n            /* \"devs/BookManager.sol\":1711:1727   */\n          0x03\n            /* \"devs/BookManager.sol\":1711:1739   */\n          0x00\n            /* \"devs/BookManager.sol\":1728:1738   */\n          dup8\n            /* \"devs/BookManager.sol\":1711:1739   */\n          dup2\n          mstore\n          0x20\n          add\n          swap1\n          dup2\n          mstore\n          0x20\n          add\n          0x00\n          keccak256\n            /* \"devs/BookManager.sol\":1680:1739   */\n          swap1\n          pop\n            /* \"devs/BookManager.sol\":1763:1770   */\n          dup5\n            /* \"devs/BookManager.sol\":1749:1753   */\n          dup2\n            /* \"devs/BookManager.sol\":1749:1760   */\n          0x00\n          add\n            /* \"devs/BookManager.sol\":1749:1770   */\n          swap1\n          dup1\n          mload\n          swap1\n          0x20\n          add\n          swap1\n          tag_81\n          swap3\n          swap2\n          swap1\n          tag_53\n          jump\t// in\n        tag_81:\n          pop\n            /* \"devs/BookManager.sol\":1793:1799   */\n          dup4\n            /* \"devs/BookManager.sol\":1780:1784   */\n          dup2\n            /* \"devs/BookManager.sol\":1780:1790   */\n          0x01\n          add\n            /* \"devs/BookManager.sol\":1780:1799   */\n          swap1\n          dup1\n          mload\n          swap1\n          0x20\n          add\n          swap1\n          tag_82\n          swap3\n          swap2\n          swap1\n          tag_53\n          jump\t// in\n        tag_82:\n          pop\n            /* \"devs/BookManager.sol\":1822:1828   */\n          dup3\n            /* \"devs/BookManager.sol\":1809:1813   */\n          dup2\n            /* \"devs/BookManager.sol\":1809:1819   */\n          0x02\n          add\n            /* \"devs/BookManager.sol\":1809:1828   */\n          dup2\n          swap1\n          sstore\n          pop\n            /* \"devs/BookManager.sol\":1854:1855   */\n          0x00\n            /* \"devs/BookManager.sol\":1838:1842   */\n          dup2\n            /* \"devs/BookManager.sol\":1838:1851   */\n          0x03\n          add\n            /* \"devs/BookManager.sol\":1838:1855   */\n          dup2\n          swap1\n          sstore\n          pop\n            /* \"devs/BookManager.sol\":1886:1900   */\n          dup2\n            /* \"devs/BookManager.sol\":1865:1869   */\n          dup2\n            /* \"devs/BookManager.sol\":1865:1883   */\n          0x04\n          add\n          0x00\n            /* \"devs/BookManager.sol\":1865:1900   */\n          0x0100\n          exp\n          dup2\n          sload\n          dup2\n          0xffffffffffffffffffffffffffffffffffffffff\n          mul\n          not\n          and\n          swap1\n          dup4\n          0xffffffffffffffffffffffffffffffffffffffff\n          and\n          mul\n          or\n          swap1\n          sstore\n          pop\n            /* \"devs/BookManager.sol\":1635:1907   */\n          pop\n            /* \"devs/BookManager.sol\":1489:1907   */\n          pop\n          pop\n          pop\n          pop\n          pop\n          jump\t// out\n            /* \"devs/BookManager.sol\":846:902   */\n        tag_40:\n          mstore(0x20, 0x03)\n          dup1\n          0x00\n          mstore\n          keccak256(0x00, 0x40)\n          0x00\n          swap2\n          pop\n          swap1\n          pop\n          dup1\n          0x00\n          add\n          dup1\n          sload\n          tag_83\n          swap1\n          tag_57\n          jump\t// in\n        tag_83:\n          dup1\n          0x1f\n          add\n          0x20\n          dup1\n          swap2\n          div\n          mul\n          0x20\n          add\n          mload(0x40)\n          swap1\n          dup2\n          add\n          0x40\n          mstore\n          dup1\n          swap3\n          swap2\n          swap1\n          dup2\n          dup2\n          mstore\n          0x20\n          add\n          dup3\n          dup1\n          sload\n          tag_84\n          swap1\n          tag_57\n          jump\t// in\n        tag_84:\n          dup1\n          iszero\n          tag_85\n          jumpi\n          dup1\n          0x1f\n          lt\n          tag_86\n          jumpi\n          0x0100\n          dup1\n          dup4\n          sload\n          div\n          mul\n          dup4\n          mstore\n          swap2\n          0x20\n          add\n          swap2\n          jump(tag_85)\n        tag_86:\n          dup3\n          add\n          swap2\n          swap1\n          0x00\n          mstore\n          keccak256(0x00, 0x20)\n          swap1\n        tag_87:\n          dup2\n          sload\n          dup2\n          mstore\n          swap1\n          0x01\n          add\n          swap1\n          0x20\n          add\n          dup1\n          dup4\n          gt\n          tag_87\n          jumpi\n          dup3\n          swap1\n          sub\n          0x1f\n          and\n          dup3\n          add\n          swap2\n        tag_85:\n          pop\n          pop\n          pop\n          pop\n          pop\n          swap1\n          dup1\n          0x01\n          add\n          dup1\n          sload\n          tag_88\n          swap1\n          tag_57\n          jump\t// in\n        tag_88:\n          dup1\n          0x1f\n          add\n          0x20\n          dup1\n          swap2\n          div\n          mul\n          0x20\n          add\n          mload(0x40)\n          swap1\n          dup2\n          add\n          0x40\n          mstore\n          dup1\n          swap3\n          swap2\n          swap1\n          dup2\n          dup2\n          mstore\n          0x20\n          add\n          dup3\n          dup1\n          sload\n          tag_89\n          swap1\n          tag_57\n          jump\t// in\n        tag_89:\n          dup1\n          iszero\n          tag_90\n          jumpi\n          dup1\n          0x1f\n          lt\n          tag_91\n          jumpi\n          0x0100\n          dup1\n          dup4\n          sload\n          div\n          mul\n          dup4\n          mstore\n          swap2\n          0x20\n          add\n          swap2\n          jump(tag_90)\n        tag_91:\n          dup3\n          add\n          swap2\n          swap1\n          0x00\n          mstore\n          keccak256(0x00, 0x20)\n          swap1\n        tag_92:\n          dup2\n          sload\n          dup2\n          mstore\n          swap1\n          0x01\n          add\n          swap1\n          0x20\n          add\n          dup1\n          dup4\n          gt\n          tag_92\n          jumpi\n          dup3\n          swap1\n          sub\n          0x1f\n          and\n          dup3\n          add\n          swap2\n        tag_90:\n          pop\n          pop\n          pop\n          pop\n          pop\n          swap1\n          dup1\n          0x02\n          add\n          sload\n          swap1\n          dup1\n          0x03\n          add\n          sload\n          swap1\n          dup1\n          0x04\n          add\n          0x00\n          swap1\n          sload\n          swap1\n          0x0100\n          exp\n          swap1\n          div\n          0xffffffffffffffffffffffffffffffffffffffff\n          and\n          swap1\n          pop\n          dup6\n          jump\t// out\n            /* \"devs/BookManager.sol\":821:840   */\n        tag_43:\n          sload(0x02)\n          dup2\n          jump\t// out\n        tag_53:\n          dup3\n          dup1\n          sload\n          tag_93\n          swap1\n          tag_57\n          jump\t// in\n        tag_93:\n          swap1\n          0x00\n          mstore\n          keccak256(0x00, 0x20)\n          swap1\n          0x1f\n          add\n          0x20\n          swap1\n          div\n          dup2\n          add\n          swap3\n          dup3\n          tag_95\n          jumpi\n          0x00\n          dup6\n          sstore\n          jump(tag_94)\n        tag_95:\n          dup3\n          0x1f\n          lt\n          tag_96\n          jumpi\n          dup1\n          mload\n          not(0xff)\n          and\n          dup4\n          dup1\n          add\n          or\n          dup6\n          sstore\n          jump(tag_94)\n        tag_96:\n          dup3\n          dup1\n          add\n          0x01\n          add\n          dup6\n          sstore\n          dup3\n          iszero\n          tag_94\n          jumpi\n          swap2\n          dup3\n          add\n        tag_97:\n          dup3\n          dup2\n          gt\n          iszero\n          tag_98\n          jumpi\n          dup3\n          mload\n          dup3\n          sstore\n          swap2\n          0x20\n          add\n          swap2\n          swap1\n          0x01\n          add\n          swap1\n          jump(tag_97)\n        tag_98:\n        tag_94:\n          pop\n          swap1\n          pop\n          tag_99\n          swap2\n          swap1\n          tag_100\n          jump\t// in\n        tag_99:\n          pop\n          swap1\n          jump\t// out\n        tag_100:\n        tag_101:\n          dup1\n          dup3\n          gt\n          iszero\n          tag_102\n          jumpi\n          0x00\n          dup2\n          0x00\n          swap1\n          sstore\n          pop\n          0x01\n          add\n          jump(tag_101)\n        tag_102:\n          pop\n          swap1\n          jump\t// out\n            /* \"#utility.yul\":7:82   */\n        tag_103:\n            /* \"#utility.yul\":40:46   */\n          0x00\n            /* \"#utility.yul\":73:75   */\n          0x40\n            /* \"#utility.yul\":67:76   */\n          mload\n            /* \"#utility.yul\":57:76   */\n          swap1\n          pop\n            /* \"#utility.yul\":7:82   */\n          swap1\n          jump\t// out\n            /* \"#utility.yul\":88:205   */\n        tag_104:\n            /* \"#utility.yul\":197:198   */\n          0x00\n            /* \"#utility.yul\":194:195   */\n          dup1\n            /* \"#utility.yul\":187:199   */\n          revert\n            /* \"#utility.yul\":211:328   */\n        tag_105:\n            /* \"#utility.yul\":320:321   */\n          0x00\n            /* \"#utility.yul\":317:318   */\n          dup1\n            /* \"#utility.yul\":310:322   */\n          revert\n            /* \"#utility.yul\":334:411   */\n        tag_106:\n            /* \"#utility.yul\":371:378   */\n          0x00\n            /* \"#utility.yul\":400:405   */\n          dup2\n            /* \"#utility.yul\":389:405   */\n          swap1\n          pop\n            /* \"#utility.yul\":334:411   */\n          swap2\n          swap1\n          pop\n          jump\t// out\n            /* \"#utility.yul\":417:539   */\n        tag_107:\n            /* \"#utility.yul\":490:514   */\n          tag_137\n            /* \"#utility.yul\":508:513   */\n          dup2\n            /* \"#utility.yul\":490:514   */\n          tag_106\n          jump\t// in\n        tag_137:\n            /* \"#utility.yul\":483:488   */\n          dup2\n            /* \"#utility.yul\":480:515   */\n          eq\n            /* \"#utility.yul\":470:533   */\n          tag_138\n          jumpi\n            /* \"#utility.yul\":529:530   */\n          0x00\n            /* \"#utility.yul\":526:527   */\n          dup1\n            /* \"#utility.yul\":519:531   */\n          revert\n            /* \"#utility.yul\":470:533   */\n        tag_138:\n            /* \"#utility.yul\":417:539   */\n          pop\n          jump\t// out\n            /* \"#utility.yul\":545:684   */\n        tag_108:\n            /* \"#utility.yul\":591:596   */\n          0x00\n            /* \"#utility.yul\":629:635   */\n          dup2\n            /* \"#utility.yul\":616:636   */\n          calldataload\n            /* \"#utility.yul\":607:636   */\n          swap1\n          pop\n            /* \"#utility.yul\":645:678   */\n          tag_140\n            /* \"#utility.yul\":672:677   */\n          dup2\n            /* \"#utility.yul\":645:678   */\n          tag_107\n          jump\t// in\n        tag_140:\n            /* \"#utility.yul\":545:684   */\n          swap3\n          swap2\n          pop\n          pop\n          jump\t// out\n            /* \"#utility.yul\":690:1019   */\n        tag_14:\n            /* \"#utility.yul\":749:755   */\n          0x00\n            /* \"#utility.yul\":798:800   */\n          0x20\n            /* \"#utility.yul\":786:795   */\n          dup3\n            /* \"#utility.yul\":777:784   */\n          dup5\n            /* \"#utility.yul\":773:796   */\n          sub\n            /* \"#utility.yul\":769:801   */\n          slt\n            /* \"#utility.yul\":766:885   */\n          iszero\n          tag_142\n          jumpi\n            /* \"#utility.yul\":804:883   */\n          tag_143\n          tag_104\n          jump\t// in\n        tag_143:\n            /* \"#utility.yul\":766:885   */\n        tag_142:\n            /* \"#utility.yul\":924:925   */\n          0x00\n            /* \"#utility.yul\":949:1002   */\n          tag_144\n            /* \"#utility.yul\":994:1001   */\n          dup5\n            /* \"#utility.yul\":985:991   */\n          dup3\n            /* \"#utility.yul\":974:983   */\n          dup6\n            /* \"#utility.yul\":970:992   */\n          add\n            /* \"#utility.yul\":949:1002   */\n          tag_108\n          jump\t// in\n        tag_144:\n            /* \"#utility.yul\":939:1002   */\n          swap2\n          pop\n            /* \"#utility.yul\":895:1012   */\n          pop\n            /* \"#utility.yul\":690:1019   */\n          swap3\n          swap2\n          pop\n          pop\n          jump\t// out\n            /* \"#utility.yul\":1025:1142   */\n        tag_109:\n            /* \"#utility.yul\":1134:1135   */\n          0x00\n            /* \"#utility.yul\":1131:1132   */\n          dup1\n            /* \"#utility.yul\":1124:1136   */\n          revert\n            /* \"#utility.yul\":1148:1265   */\n        tag_110:\n            /* \"#utility.yul\":1257:1258   */\n          0x00\n            /* \"#utility.yul\":1254:1255   */\n          dup1\n            /* \"#utility.yul\":1247:1259   */\n          revert\n            /* \"#utility.yul\":1271:1373   */\n        tag_111:\n            /* \"#utility.yul\":1312:1318   */\n          0x00\n            /* \"#utility.yul\":1363:1365   */\n          0x1f\n            /* \"#utility.yul\":1359:1366   */\n          not\n            /* \"#utility.yul\":1354:1356   */\n          0x1f\n            /* \"#utility.yul\":1347:1352   */\n          dup4\n            /* \"#utility.yul\":1343:1357   */\n          add\n            /* \"#utility.yul\":1339:1367   */\n          and\n            /* \"#utility.yul\":1329:1367   */\n          swap1\n          pop\n            /* \"#utility.yul\":1271:1373   */\n          swap2\n          swap1\n          pop\n          jump\t// out\n            /* \"#utility.yul\":1379:1559   */\n        tag_112:\n            /* \"#utility.yul\":1427:1504   */\n          0x4e487b7100000000000000000000000000000000000000000000000000000000\n            /* \"#utility.yul\":1424:1425   */\n          0x00\n            /* \"#utility.yul\":1417:1505   */\n          mstore\n            /* \"#utility.yul\":1524:1528   */\n          0x41\n            /* \"#utility.yul\":1521:1522   */\n          0x04\n            /* \"#utility.yul\":1514:1529   */\n          mstore\n            /* \"#utility.yul\":1548:1552   */\n          0x24\n            /* \"#utility.yul\":1545:1546   */\n          0x00\n            /* \"#utility.yul\":1538:1553   */\n          revert\n            /* \"#utility.yul\":1565:1846   */\n        tag_113:\n            /* \"#utility.yul\":1648:1675   */\n          tag_150\n            /* \"#utility.yul\":1670:1674   */\n          dup3\n            /* \"#utility.yul\":1648:1675   */\n          tag_111\n          jump\t// in\n        tag_150:\n            /* \"#utility.yul\":1640:1646   */\n          dup2\n            /* \"#utility.yul\":1636:1676   */\n          add\n            /* \"#utility.yul\":1778:1784   */\n          dup2\n            /* \"#utility.yul\":1766:1776   */\n          dup2\n            /* \"#utility.yul\":1763:1785   */\n          lt\n            /* \"#utility.yul\":1742:1760   */\n          0xffffffffffffffff\n            /* \"#utility.yul\":1730:1740   */\n          dup3\n            /* \"#utility.yul\":1727:1761   */\n          gt\n            /* \"#utility.yul\":1724:1786   */\n          or\n            /* \"#utility.yul\":1721:1809   */\n          iszero\n          tag_151\n          jumpi\n            /* \"#utility.yul\":1789:1807   */\n          tag_152\n          tag_112\n          jump\t// in\n        tag_152:\n            /* \"#utility.yul\":1721:1809   */\n        tag_151:\n            /* \"#utility.yul\":1829:1839   */\n          dup1\n            /* \"#utility.yul\":1825:1827   */\n          0x40\n            /* \"#utility.yul\":1818:1840   */\n          mstore\n            /* \"#utility.yul\":1608:1846   */\n          pop\n            /* \"#utility.yul\":1565:1846   */\n          pop\n          pop\n          jump\t// out\n            /* \"#utility.yul\":1852:1981   */\n        tag_114:\n            /* \"#utility.yul\":1886:1892   */\n          0x00\n            /* \"#utility.yul\":1913:1933   */\n          tag_154\n          tag_103\n          jump\t// in\n        tag_154:\n            /* \"#utility.yul\":1903:1933   */\n          swap1\n          pop\n            /* \"#utility.yul\":1942:1975   */\n          tag_155\n            /* \"#utility.yul\":1970:1974   */\n          dup3\n            /* \"#utility.yul\":1962:1968   */\n          dup3\n            /* \"#utility.yul\":1942:1975   */\n          tag_113\n          jump\t// in\n        tag_155:\n            /* \"#utility.yul\":1852:1981   */\n          swap2\n          swap1\n          pop\n          jump\t// out\n            /* \"#utility.yul\":1987:2295   */\n        tag_115:\n            /* \"#utility.yul\":2049:2053   */\n          0x00\n            /* \"#utility.yul\":2139:2157   */\n          0xffffffffffffffff\n            /* \"#utility.yul\":2131:2137   */\n          dup3\n            /* \"#utility.yul\":2128:2158   */\n          gt\n            /* \"#utility.yul\":2125:2181   */\n          iszero\n          tag_157\n          jumpi\n            /* \"#utility.yul\":2161:2179   */\n          tag_158\n          tag_112\n          jump\t// in\n        tag_158:\n            /* \"#utility.yul\":2125:2181   */\n        tag_157:\n            /* \"#utility.yul\":2199:2228   */\n          tag_159\n            /* \"#utility.yul\":2221:2227   */\n          dup3\n            /* \"#utility.yul\":2199:2228   */\n          tag_111\n          jump\t// in\n        tag_159:\n            /* \"#utility.yul\":2191:2228   */\n          swap1\n          pop\n            /* \"#utility.yul\":2283:2287   */\n          0x20\n            /* \"#utility.yul\":2277:2281   */\n          dup2\n            /* \"#utility.yul\":2273:2288   */\n          add\n            /* \"#utility.yul\":2265:2288   */\n          swap1\n          pop\n            /* \"#utility.yul\":1987:2295   */\n          swap2\n          swap1\n          pop\n          jump\t// out\n            /* \"#utility.yul\":2301:2455   */\n        tag_116:\n            /* \"#utility.yul\":2385:2391   */\n          dup3\n            /* \"#utility.yul\":2380:2383   */\n          dup2\n            /* \"#utility.yul\":2375:2378   */\n          dup4\n            /* \"#utility.yul\":2362:2392   */\n          calldatacopy\n            /* \"#utility.yul\":2447:2448   */\n          0x00\n            /* \"#utility.yul\":2438:2444   */\n          dup4\n            /* \"#utility.yul\":2433:2436   */\n          dup4\n            /* \"#utility.yul\":2429:2445   */\n          add\n            /* \"#utility.yul\":2422:2449   */\n          mstore\n            /* \"#utility.yul\":2301:2455   */\n          pop\n          pop\n          pop\n          jump\t// out\n            /* \"#utility.yul\":2461:2873   */\n        tag_117:\n            /* \"#utility.yul\":2539:2544   */\n          0x00\n            /* \"#utility.yul\":2564:2630   */\n          tag_162\n            /* \"#utility.yul\":2580:2629   */\n          tag_163\n            /* \"#utility.yul\":2622:2628   */\n          dup5\n            /* \"#utility.yul\":2580:2629   */\n          tag_115\n          jump\t// in\n        tag_163:\n            /* \"#utility.yul\":2564:2630   */\n          tag_114\n          jump\t// in\n        tag_162:\n            /* \"#utility.yul\":2555:2630   */\n          swap1\n          pop\n            /* \"#utility.yul\":2653:2659   */\n          dup3\n            /* \"#utility.yul\":2646:2651   */\n          dup2\n            /* \"#utility.yul\":2639:2660   */\n          mstore\n            /* \"#utility.yul\":2691:2695   */\n          0x20\n            /* \"#utility.yul\":2684:2689   */\n          dup2\n            /* \"#utility.yul\":2680:2696   */\n          add\n            /* \"#utility.yul\":2729:2732   */\n          dup5\n            /* \"#utility.yul\":2720:2726   */\n          dup5\n            /* \"#utility.yul\":2715:2718   */\n          dup5\n            /* \"#utility.yul\":2711:2727   */\n          add\n            /* \"#utility.yul\":2708:2733   */\n          gt\n            /* \"#utility.yul\":2705:2817   */\n          iszero\n          tag_164\n          jumpi\n            /* \"#utility.yul\":2736:2815   */\n          tag_165\n          tag_110\n          jump\t// in\n        tag_165:\n            /* \"#utility.yul\":2705:2817   */\n        tag_164:\n            /* \"#utility.yul\":2826:2867   */\n          tag_166\n            /* \"#utility.yul\":2860:2866   */\n          dup5\n            /* \"#utility.yul\":2855:2858   */\n          dup3\n            /* \"#utility.yul\":2850:2853   */\n          dup6\n            /* \"#utility.yul\":2826:2867   */\n          tag_116\n          jump\t// in\n        tag_166:\n            /* \"#utility.yul\":2545:2873   */\n          pop\n            /* \"#utility.yul\":2461:2873   */\n          swap4\n          swap3\n          pop\n          pop\n          pop\n          jump\t// out\n            /* \"#utility.yul\":2893:3233   */\n        tag_118:\n            /* \"#utility.yul\":2949:2954   */\n          0x00\n            /* \"#utility.yul\":2998:3001   */\n          dup3\n            /* \"#utility.yul\":2991:2995   */\n          0x1f\n            /* \"#utility.yul\":2983:2989   */\n          dup4\n            /* \"#utility.yul\":2979:2996   */\n          add\n            /* \"#utility.yul\":2975:3002   */\n          slt\n            /* \"#utility.yul\":2965:3087   */\n          tag_168\n          jumpi\n            /* \"#utility.yul\":3006:3085   */\n          tag_169\n          tag_109\n          jump\t// in\n        tag_169:\n            /* \"#utility.yul\":2965:3087   */\n        tag_168:\n            /* \"#utility.yul\":3123:3129   */\n          dup2\n            /* \"#utility.yul\":3110:3130   */\n          calldataload\n            /* \"#utility.yul\":3148:3227   */\n          tag_170\n            /* \"#utility.yul\":3223:3226   */\n          dup5\n            /* \"#utility.yul\":3215:3221   */\n          dup3\n            /* \"#utility.yul\":3208:3212   */\n          0x20\n            /* \"#utility.yul\":3200:3206   */\n          dup7\n            /* \"#utility.yul\":3196:3213   */\n          add\n            /* \"#utility.yul\":3148:3227   */\n          tag_117\n          jump\t// in\n        tag_170:\n            /* \"#utility.yul\":3139:3227   */\n          swap2\n          pop\n            /* \"#utility.yul\":2955:3233   */\n          pop\n            /* \"#utility.yul\":2893:3233   */\n          swap3\n          swap2\n          pop\n          pop\n          jump\t// out\n            /* \"#utility.yul\":3239:3365   */\n        tag_119:\n            /* \"#utility.yul\":3276:3283   */\n          0x00\n            /* \"#utility.yul\":3316:3358   */\n          0xffffffffffffffffffffffffffffffffffffffff\n            /* \"#utility.yul\":3309:3314   */\n          dup3\n            /* \"#utility.yul\":3305:3359   */\n          and\n            /* \"#utility.yul\":3294:3359   */\n          swap1\n          pop\n            /* \"#utility.yul\":3239:3365   */\n          swap2\n          swap1\n          pop\n          jump\t// out\n            /* \"#utility.yul\":3371:3467   */\n        tag_120:\n            /* \"#utility.yul\":3408:3415   */\n          0x00\n            /* \"#utility.yul\":3437:3461   */\n          tag_173\n            /* \"#utility.yul\":3455:3460   */\n          dup3\n            /* \"#utility.yul\":3437:3461   */\n          tag_119\n          jump\t// in\n        tag_173:\n            /* \"#utility.yul\":3426:3461   */\n          swap1\n          pop\n            /* \"#utility.yul\":3371:3467   */\n          swap2\n          swap1\n          pop\n          jump\t// out\n            /* \"#utility.yul\":3473:3595   */\n        tag_121:\n            /* \"#utility.yul\":3546:3570   */\n          tag_175\n            /* \"#utility.yul\":3564:3569   */\n          dup2\n            /* \"#utility.yul\":3546:3570   */\n          tag_120\n          jump\t// in\n        tag_175:\n            /* \"#utility.yul\":3539:3544   */\n          dup2\n            /* \"#utility.yul\":3536:3571   */\n          eq\n            /* \"#utility.yul\":3526:3589   */\n          tag_176\n          jumpi\n            /* \"#utility.yul\":3585:3586   */\n          0x00\n            /* \"#utility.yul\":3582:3583   */\n          dup1\n            /* \"#utility.yul\":3575:3587   */\n          revert\n            /* \"#utility.yul\":3526:3589   */\n        tag_176:\n            /* \"#utility.yul\":3473:3595   */\n          pop\n          jump\t// out\n            /* \"#utility.yul\":3601:3740   */\n        tag_122:\n            /* \"#utility.yul\":3647:3652   */\n          0x00\n            /* \"#utility.yul\":3685:3691   */\n          dup2\n            /* \"#utility.yul\":3672:3692   */\n          calldataload\n            /* \"#utility.yul\":3663:3692   */\n          swap1\n          pop\n            /* \"#utility.yul\":3701:3734   */\n          tag_178\n            /* \"#utility.yul\":3728:3733   */\n          dup2\n            /* \"#utility.yul\":3701:3734   */\n          tag_121\n          jump\t// in\n        tag_178:\n            /* \"#utility.yul\":3601:3740   */\n          swap3\n          swap2\n          pop\n          pop\n          jump\t// out\n            /* \"#utility.yul\":3746:4871   */\n        tag_18:\n            /* \"#utility.yul\":3852:3858   */\n          0x00\n            /* \"#utility.yul\":3860:3866   */\n          dup1\n            /* \"#utility.yul\":3868:3874   */\n          0x00\n            /* \"#utility.yul\":3876:3882   */\n          dup1\n            /* \"#utility.yul\":3925:3928   */\n          0x80\n            /* \"#utility.yul\":3913:3922   */\n          dup6\n            /* \"#utility.yul\":3904:3911   */\n          dup8\n            /* \"#utility.yul\":3900:3923   */\n          sub\n            /* \"#utility.yul\":3896:3929   */\n          slt\n            /* \"#utility.yul\":3893:4013   */\n          iszero\n          tag_180\n          jumpi\n            /* \"#utility.yul\":3932:4011   */\n          tag_181\n          tag_104\n          jump\t// in\n        tag_181:\n            /* \"#utility.yul\":3893:4013   */\n        tag_180:\n            /* \"#utility.yul\":4080:4081   */\n          0x00\n            /* \"#utility.yul\":4069:4078   */\n          dup6\n            /* \"#utility.yul\":4065:4082   */\n          add\n            /* \"#utility.yul\":4052:4083   */\n          calldataload\n            /* \"#utility.yul\":4110:4128   */\n          0xffffffffffffffff\n            /* \"#utility.yul\":4102:4108   */\n          dup2\n            /* \"#utility.yul\":4099:4129   */\n          gt\n            /* \"#utility.yul\":4096:4213   */\n          iszero\n          tag_182\n          jumpi\n            /* \"#utility.yul\":4132:4211   */\n          tag_183\n          tag_105\n          jump\t// in\n        tag_183:\n            /* \"#utility.yul\":4096:4213   */\n        tag_182:\n            /* \"#utility.yul\":4237:4300   */\n          tag_184\n            /* \"#utility.yul\":4292:4299   */\n          dup8\n            /* \"#utility.yul\":4283:4289   */\n          dup3\n            /* \"#utility.yul\":4272:4281   */\n          dup9\n            /* \"#utility.yul\":4268:4290   */\n          add\n            /* \"#utility.yul\":4237:4300   */\n          tag_118\n          jump\t// in\n        tag_184:\n            /* \"#utility.yul\":4227:4300   */\n          swap5\n          pop\n            /* \"#utility.yul\":4023:4310   */\n          pop\n            /* \"#utility.yul\":4377:4379   */\n          0x20\n            /* \"#utility.yul\":4366:4375   */\n          dup6\n            /* \"#utility.yul\":4362:4380   */\n          add\n            /* \"#utility.yul\":4349:4381   */\n          calldataload\n            /* \"#utility.yul\":4408:4426   */\n          0xffffffffffffffff\n            /* \"#utility.yul\":4400:4406   */\n          dup2\n            /* \"#utility.yul\":4397:4427   */\n          gt\n            /* \"#utility.yul\":4394:4511   */\n          iszero\n          tag_185\n          jumpi\n            /* \"#utility.yul\":4430:4509   */\n          tag_186\n          tag_105\n          jump\t// in\n        tag_186:\n            /* \"#utility.yul\":4394:4511   */\n        tag_185:\n            /* \"#utility.yul\":4535:4598   */\n          tag_187\n            /* \"#utility.yul\":4590:4597   */\n          dup8\n            /* \"#utility.yul\":4581:4587   */\n          dup3\n            /* \"#utility.yul\":4570:4579   */\n          dup9\n            /* \"#utility.yul\":4566:4588   */\n          add\n            /* \"#utility.yul\":4535:4598   */\n          tag_118\n          jump\t// in\n        tag_187:\n            /* \"#utility.yul\":4525:4598   */\n          swap4\n          pop\n            /* \"#utility.yul\":4320:4608   */\n          pop\n            /* \"#utility.yul\":4647:4649   */\n          0x40\n            /* \"#utility.yul\":4673:4726   */\n          tag_188\n            /* \"#utility.yul\":4718:4725   */\n          dup8\n            /* \"#utility.yul\":4709:4715   */\n          dup3\n            /* \"#utility.yul\":4698:4707   */\n          dup9\n            /* \"#utility.yul\":4694:4716   */\n          add\n            /* \"#utility.yul\":4673:4726   */\n          tag_108\n          jump\t// in\n        tag_188:\n            /* \"#utility.yul\":4663:4726   */\n          swap3\n          pop\n            /* \"#utility.yul\":4618:4736   */\n          pop\n            /* \"#utility.yul\":4775:4777   */\n          0x60\n            /* \"#utility.yul\":4801:4854   */\n          tag_189\n            /* \"#utility.yul\":4846:4853   */\n          dup8\n            /* \"#utility.yul\":4837:4843   */\n          dup3\n            /* \"#utility.yul\":4826:4835   */\n          dup9\n            /* \"#utility.yul\":4822:4844   */\n          add\n            /* \"#utility.yul\":4801:4854   */\n          tag_122\n          jump\t// in\n        tag_189:\n            /* \"#utility.yul\":4791:4854   */\n          swap2\n          pop\n            /* \"#utility.yul\":4746:4864   */\n          pop\n            /* \"#utility.yul\":3746:4871   */\n          swap3\n          swap6\n          swap2\n          swap5\n          pop\n          swap3\n          pop\n          jump\t// out\n            /* \"#utility.yul\":4877:4995   */\n        tag_123:\n            /* \"#utility.yul\":4964:4988   */\n          tag_191\n            /* \"#utility.yul\":4982:4987   */\n          dup2\n            /* \"#utility.yul\":4964:4988   */\n          tag_106\n          jump\t// in\n        tag_191:\n            /* \"#utility.yul\":4959:4962   */\n          dup3\n            /* \"#utility.yul\":4952:4989   */\n          mstore\n            /* \"#utility.yul\":4877:4995   */\n          pop\n          pop\n          jump\t// out\n            /* \"#utility.yul\":5001:5223   */\n        tag_24:\n            /* \"#utility.yul\":5094:5098   */\n          0x00\n            /* \"#utility.yul\":5132:5134   */\n          0x20\n            /* \"#utility.yul\":5121:5130   */\n          dup3\n            /* \"#utility.yul\":5117:5135   */\n          add\n            /* \"#utility.yul\":5109:5135   */\n          swap1\n          pop\n            /* \"#utility.yul\":5145:5216   */\n          tag_193\n            /* \"#utility.yul\":5213:5214   */\n          0x00\n            /* \"#utility.yul\":5202:5211   */\n          dup4\n            /* \"#utility.yul\":5198:5215   */\n          add\n            /* \"#utility.yul\":5189:5195   */\n          dup5\n            /* \"#utility.yul\":5145:5216   */\n          tag_123\n          jump\t// in\n        tag_193:\n            /* \"#utility.yul\":5001:5223   */\n          swap3\n          swap2\n          pop\n          pop\n          jump\t// out\n            /* \"#utility.yul\":5229:5347   */\n        tag_124:\n            /* \"#utility.yul\":5316:5340   */\n          tag_195\n            /* \"#utility.yul\":5334:5339   */\n          dup2\n            /* \"#utility.yul\":5316:5340   */\n          tag_120\n          jump\t// in\n        tag_195:\n            /* \"#utility.yul\":5311:5314   */\n          dup3\n            /* \"#utility.yul\":5304:5341   */\n          mstore\n            /* \"#utility.yul\":5229:5347   */\n          pop\n          pop\n          jump\t// out\n            /* \"#utility.yul\":5353:5575   */\n        tag_28:\n            /* \"#utility.yul\":5446:5450   */\n          0x00\n            /* \"#utility.yul\":5484:5486   */\n          0x20\n            /* \"#utility.yul\":5473:5482   */\n          dup3\n            /* \"#utility.yul\":5469:5487   */\n          add\n            /* \"#utility.yul\":5461:5487   */\n          swap1\n          pop\n            /* \"#utility.yul\":5497:5568   */\n          tag_197\n            /* \"#utility.yul\":5565:5566   */\n          0x00\n            /* \"#utility.yul\":5554:5563   */\n          dup4\n            /* \"#utility.yul\":5550:5567   */\n          add\n            /* \"#utility.yul\":5541:5547   */\n          dup5\n            /* \"#utility.yul\":5497:5568   */\n          tag_124\n          jump\t// in\n        tag_197:\n            /* \"#utility.yul\":5353:5575   */\n          swap3\n          swap2\n          pop\n          pop\n          jump\t// out\n            /* \"#utility.yul\":5581:5680   */\n        tag_125:\n            /* \"#utility.yul\":5633:5639   */\n          0x00\n            /* \"#utility.yul\":5667:5672   */\n          dup2\n            /* \"#utility.yul\":5661:5673   */\n          mload\n            /* \"#utility.yul\":5651:5673   */\n          swap1\n          pop\n            /* \"#utility.yul\":5581:5680   */\n          swap2\n          swap1\n          pop\n          jump\t// out\n            /* \"#utility.yul\":5686:5855   */\n        tag_126:\n            /* \"#utility.yul\":5770:5781   */\n          0x00\n            /* \"#utility.yul\":5804:5810   */\n          dup3\n            /* \"#utility.yul\":5799:5802   */\n          dup3\n            /* \"#utility.yul\":5792:5811   */\n          mstore\n            /* \"#utility.yul\":5844:5848   */\n          0x20\n            /* \"#utility.yul\":5839:5842   */\n          dup3\n            /* \"#utility.yul\":5835:5849   */\n          add\n            /* \"#utility.yul\":5820:5849   */\n          swap1\n          pop\n            /* \"#utility.yul\":5686:5855   */\n          swap3\n          swap2\n          pop\n          pop\n          jump\t// out\n            /* \"#utility.yul\":5861:6168   */\n        tag_127:\n            /* \"#utility.yul\":5929:5930   */\n          0x00\n            /* \"#utility.yul\":5939:6052   */\n        tag_201:\n            /* \"#utility.yul\":5953:5959   */\n          dup4\n            /* \"#utility.yul\":5950:5951   */\n          dup2\n            /* \"#utility.yul\":5947:5960   */\n          lt\n            /* \"#utility.yul\":5939:6052   */\n          iszero\n          tag_203\n          jumpi\n            /* \"#utility.yul\":6038:6039   */\n          dup1\n            /* \"#utility.yul\":6033:6036   */\n          dup3\n            /* \"#utility.yul\":6029:6040   */\n          add\n            /* \"#utility.yul\":6023:6041   */\n          mload\n            /* \"#utility.yul\":6019:6020   */\n          dup2\n            /* \"#utility.yul\":6014:6017   */\n          dup5\n            /* \"#utility.yul\":6010:6021   */\n          add\n            /* \"#utility.yul\":6003:6042   */\n          mstore\n            /* \"#utility.yul\":5975:5977   */\n          0x20\n            /* \"#utility.yul\":5972:5973   */\n          dup2\n            /* \"#utility.yul\":5968:5978   */\n          add\n            /* \"#utility.yul\":5963:5978   */\n          swap1\n          pop\n            /* \"#utility.yul\":5939:6052   */\n          jump(tag_201)\n        tag_203:\n            /* \"#utility.yul\":6070:6076   */\n          dup4\n            /* \"#utility.yul\":6067:6068   */\n          dup2\n            /* \"#utility.yul\":6064:6077   */\n          gt\n            /* \"#utility.yul\":6061:6162   */\n          iszero\n          tag_204\n          jumpi\n            /* \"#utility.yul\":6150:6151   */\n          0x00\n            /* \"#utility.yul\":6141:6147   */\n          dup5\n            /* \"#utility.yul\":6136:6139   */\n          dup5\n            /* \"#utility.yul\":6132:6148   */\n          add\n            /* \"#utility.yul\":6125:6152   */\n          mstore\n            /* \"#utility.yul\":6061:6162   */\n        tag_204:\n            /* \"#utility.yul\":5910:6168   */\n          pop\n            /* \"#utility.yul\":5861:6168   */\n          pop\n          pop\n          pop\n          jump\t// out\n            /* \"#utility.yul\":6174:6538   */\n        tag_128:\n            /* \"#utility.yul\":6262:6265   */\n          0x00\n            /* \"#utility.yul\":6290:6329   */\n          tag_206\n            /* \"#utility.yul\":6323:6328   */\n          dup3\n            /* \"#utility.yul\":6290:6329   */\n          tag_125\n          jump\t// in\n        tag_206:\n            /* \"#utility.yul\":6345:6416   */\n          tag_207\n            /* \"#utility.yul\":6409:6415   */\n          dup2\n            /* \"#utility.yul\":6404:6407   */\n          dup6\n            /* \"#utility.yul\":6345:6416   */\n          tag_126\n          jump\t// in\n        tag_207:\n            /* \"#utility.yul\":6338:6416   */\n          swap4\n          pop\n            /* \"#utility.yul\":6425:6477   */\n          tag_208\n            /* \"#utility.yul\":6470:6476   */\n          dup2\n            /* \"#utility.yul\":6465:6468   */\n          dup6\n            /* \"#utility.yul\":6458:6462   */\n          0x20\n            /* \"#utility.yul\":6451:6456   */\n          dup7\n            /* \"#utility.yul\":6447:6463   */\n          add\n            /* \"#utility.yul\":6425:6477   */\n          tag_127\n          jump\t// in\n        tag_208:\n            /* \"#utility.yul\":6502:6531   */\n          tag_209\n            /* \"#utility.yul\":6524:6530   */\n          dup2\n            /* \"#utility.yul\":6502:6531   */\n          tag_111\n          jump\t// in\n        tag_209:\n            /* \"#utility.yul\":6497:6500   */\n          dup5\n            /* \"#utility.yul\":6493:6532   */\n          add\n            /* \"#utility.yul\":6486:6532   */\n          swap2\n          pop\n            /* \"#utility.yul\":6266:6538   */\n          pop\n            /* \"#utility.yul\":6174:6538   */\n          swap3\n          swap2\n          pop\n          pop\n          jump\t// out\n            /* \"#utility.yul\":6544:7390   */\n        tag_33:\n            /* \"#utility.yul\":6789:6793   */\n          0x00\n            /* \"#utility.yul\":6827:6830   */\n          0xa0\n            /* \"#utility.yul\":6816:6825   */\n          dup3\n            /* \"#utility.yul\":6812:6831   */\n          add\n            /* \"#utility.yul\":6804:6831   */\n          swap1\n          pop\n            /* \"#utility.yul\":6877:6886   */\n          dup2\n            /* \"#utility.yul\":6871:6875   */\n          dup2\n            /* \"#utility.yul\":6867:6887   */\n          sub\n            /* \"#utility.yul\":6863:6864   */\n          0x00\n            /* \"#utility.yul\":6852:6861   */\n          dup4\n            /* \"#utility.yul\":6848:6865   */\n          add\n            /* \"#utility.yul\":6841:6888   */\n          mstore\n            /* \"#utility.yul\":6905:6983   */\n          tag_211\n            /* \"#utility.yul\":6978:6982   */\n          dup2\n            /* \"#utility.yul\":6969:6975   */\n          dup9\n            /* \"#utility.yul\":6905:6983   */\n          tag_128\n          jump\t// in\n        tag_211:\n            /* \"#utility.yul\":6897:6983   */\n          swap1\n          pop\n            /* \"#utility.yul\":7030:7039   */\n          dup2\n            /* \"#utility.yul\":7024:7028   */\n          dup2\n            /* \"#utility.yul\":7020:7040   */\n          sub\n            /* \"#utility.yul\":7015:7017   */\n          0x20\n            /* \"#utility.yul\":7004:7013   */\n          dup4\n            /* \"#utility.yul\":7000:7018   */\n          add\n            /* \"#utility.yul\":6993:7041   */\n          mstore\n            /* \"#utility.yul\":7058:7136   */\n          tag_212\n            /* \"#utility.yul\":7131:7135   */\n          dup2\n            /* \"#utility.yul\":7122:7128   */\n          dup8\n            /* \"#utility.yul\":7058:7136   */\n          tag_128\n          jump\t// in\n        tag_212:\n            /* \"#utility.yul\":7050:7136   */\n          swap1\n          pop\n            /* \"#utility.yul\":7146:7218   */\n          tag_213\n            /* \"#utility.yul\":7214:7216   */\n          0x40\n            /* \"#utility.yul\":7203:7212   */\n          dup4\n            /* \"#utility.yul\":7199:7217   */\n          add\n            /* \"#utility.yul\":7190:7196   */\n          dup7\n            /* \"#utility.yul\":7146:7218   */\n          tag_123\n          jump\t// in\n        tag_213:\n            /* \"#utility.yul\":7228:7300   */\n          tag_214\n            /* \"#utility.yul\":7296:7298   */\n          0x60\n            /* \"#utility.yul\":7285:7294   */\n          dup4\n            /* \"#utility.yul\":7281:7299   */\n          add\n            /* \"#utility.yul\":7272:7278   */\n          dup6\n            /* \"#utility.yul\":7228:7300   */\n          tag_123\n          jump\t// in\n        tag_214:\n            /* \"#utility.yul\":7310:7383   */\n          tag_215\n            /* \"#utility.yul\":7378:7381   */\n          0x80\n            /* \"#utility.yul\":7367:7376   */\n          dup4\n            /* \"#utility.yul\":7363:7382   */\n          add\n            /* \"#utility.yul\":7354:7360   */\n          dup5\n            /* \"#utility.yul\":7310:7383   */\n          tag_124\n          jump\t// in\n        tag_215:\n            /* \"#utility.yul\":6544:7390   */\n          swap7\n          swap6\n          pop\n          pop\n          pop\n          pop\n          pop\n          pop\n          jump\t// out\n            /* \"#utility.yul\":7396:8667   */\n        tag_36:\n            /* \"#utility.yul\":7511:7517   */\n          0x00\n            /* \"#utility.yul\":7519:7525   */\n          dup1\n            /* \"#utility.yul\":7527:7533   */\n          0x00\n            /* \"#utility.yul\":7535:7541   */\n          dup1\n            /* \"#utility.yul\":7543:7549   */\n          0x00\n            /* \"#utility.yul\":7592:7595   */\n          0xa0\n            /* \"#utility.yul\":7580:7589   */\n          dup7\n            /* \"#utility.yul\":7571:7578   */\n          dup9\n            /* \"#utility.yul\":7567:7590   */\n          sub\n            /* \"#utility.yul\":7563:7596   */\n          slt\n            /* \"#utility.yul\":7560:7680   */\n          iszero\n          tag_217\n          jumpi\n            /* \"#utility.yul\":7599:7678   */\n          tag_218\n          tag_104\n          jump\t// in\n        tag_218:\n            /* \"#utility.yul\":7560:7680   */\n        tag_217:\n            /* \"#utility.yul\":7719:7720   */\n          0x00\n            /* \"#utility.yul\":7744:7797   */\n          tag_219\n            /* \"#utility.yul\":7789:7796   */\n          dup9\n            /* \"#utility.yul\":7780:7786   */\n          dup3\n            /* \"#utility.yul\":7769:7778   */\n          dup10\n            /* \"#utility.yul\":7765:7787   */\n          add\n            /* \"#utility.yul\":7744:7797   */\n          tag_108\n          jump\t// in\n        tag_219:\n            /* \"#utility.yul\":7734:7797   */\n          swap6\n          pop\n            /* \"#utility.yul\":7690:7807   */\n          pop\n            /* \"#utility.yul\":7874:7876   */\n          0x20\n            /* \"#utility.yul\":7863:7872   */\n          dup7\n            /* \"#utility.yul\":7859:7877   */\n          add\n            /* \"#utility.yul\":7846:7878   */\n          calldataload\n            /* \"#utility.yul\":7905:7923   */\n          0xffffffffffffffff\n            /* \"#utility.yul\":7897:7903   */\n          dup2\n            /* \"#utility.yul\":7894:7924   */\n          gt\n            /* \"#utility.yul\":7891:8008   */\n          iszero\n          tag_220\n          jumpi\n            /* \"#utility.yul\":7927:8006   */\n          tag_221\n          tag_105\n          jump\t// in\n        tag_221:\n            /* \"#utility.yul\":7891:8008   */\n        tag_220:\n            /* \"#utility.yul\":8032:8095   */\n          tag_222\n            /* \"#utility.yul\":8087:8094   */\n          dup9\n            /* \"#utility.yul\":8078:8084   */\n          dup3\n            /* \"#utility.yul\":8067:8076   */\n          dup10\n            /* \"#utility.yul\":8063:8085   */\n          add\n            /* \"#utility.yul\":8032:8095   */\n          tag_118\n          jump\t// in\n        tag_222:\n            /* \"#utility.yul\":8022:8095   */\n          swap5\n          pop\n            /* \"#utility.yul\":7817:8105   */\n          pop\n            /* \"#utility.yul\":8172:8174   */\n          0x40\n            /* \"#utility.yul\":8161:8170   */\n          dup7\n            /* \"#utility.yul\":8157:8175   */\n          add\n            /* \"#utility.yul\":8144:8176   */\n          calldataload\n            /* \"#utility.yul\":8203:8221   */\n          0xffffffffffffffff\n            /* \"#utility.yul\":8195:8201   */\n          dup2\n            /* \"#utility.yul\":8192:8222   */\n          gt\n            /* \"#utility.yul\":8189:8306   */\n          iszero\n          tag_223\n          jumpi\n            /* \"#utility.yul\":8225:8304   */\n          tag_224\n          tag_105\n          jump\t// in\n        tag_224:\n            /* \"#utility.yul\":8189:8306   */\n        tag_223:\n            /* \"#utility.yul\":8330:8393   */\n          tag_225\n            /* \"#utility.yul\":8385:8392   */\n          dup9\n            /* \"#utility.yul\":8376:8382   */\n          dup3\n            /* \"#utility.yul\":8365:8374   */\n          dup10\n            /* \"#utility.yul\":8361:8383   */\n          add\n            /* \"#utility.yul\":8330:8393   */\n          tag_118\n          jump\t// in\n        tag_225:\n            /* \"#utility.yul\":8320:8393   */\n          swap4\n          pop\n            /* \"#utility.yul\":8115:8403   */\n          pop\n            /* \"#utility.yul\":8442:8444   */\n          0x60\n            /* \"#utility.yul\":8468:8521   */\n          tag_226\n            /* \"#utility.yul\":8513:8520   */\n          dup9\n            /* \"#utility.yul\":8504:8510   */\n          dup3\n            /* \"#utility.yul\":8493:8502   */\n          dup10\n            /* \"#utility.yul\":8489:8511   */\n          add\n            /* \"#utility.yul\":8468:8521   */\n          tag_108\n          jump\t// in\n        tag_226:\n            /* \"#utility.yul\":8458:8521   */\n          swap3\n          pop\n            /* \"#utility.yul\":8413:8531   */\n          pop\n            /* \"#utility.yul\":8570:8573   */\n          0x80\n            /* \"#utility.yul\":8597:8650   */\n          tag_227\n            /* \"#utility.yul\":8642:8649   */\n          dup9\n            /* \"#utility.yul\":8633:8639   */\n          dup3\n            /* \"#utility.yul\":8622:8631   */\n          dup10\n            /* \"#utility.yul\":8618:8640   */\n          add\n            /* \"#utility.yul\":8597:8650   */\n          tag_122\n          jump\t// in\n        tag_227:\n            /* \"#utility.yul\":8587:8650   */\n          swap2\n          pop\n            /* \"#utility.yul\":8541:8660   */\n          pop\n            /* \"#utility.yul\":7396:8667   */\n          swap3\n          swap6\n          pop\n          swap3\n          swap6\n          swap1\n          swap4\n          pop\n          jump\t// out\n            /* \"#utility.yul\":8673:8853   */\n        tag_129:\n            /* \"#utility.yul\":8721:8798   */\n          0x4e487b7100000000000000000000000000000000000000000000000000000000\n            /* \"#utility.yul\":8718:8719   */\n          0x00\n            /* \"#utility.yul\":8711:8799   */\n          mstore\n            /* \"#utility.yul\":8818:8822   */\n          0x11\n            /* \"#utility.yul\":8815:8816   */\n          0x04\n            /* \"#utility.yul\":8808:8823   */\n          mstore\n            /* \"#utility.yul\":8842:8846   */\n          0x24\n            /* \"#utility.yul\":8839:8840   */\n          0x00\n            /* \"#utility.yul\":8832:8847   */\n          revert\n            /* \"#utility.yul\":8859:9092   */\n        tag_47:\n            /* \"#utility.yul\":8898:8901   */\n          0x00\n            /* \"#utility.yul\":8921:8945   */\n          tag_230\n            /* \"#utility.yul\":8939:8944   */\n          dup3\n            /* \"#utility.yul\":8921:8945   */\n          tag_106\n          jump\t// in\n        tag_230:\n            /* \"#utility.yul\":8912:8945   */\n          swap2\n          pop\n            /* \"#utility.yul\":8967:9033   */\n          0xffffffffffffffffffffffffffffffffffffffffffffffffffffffffffffffff\n            /* \"#utility.yul\":8960:8965   */\n          dup3\n            /* \"#utility.yul\":8957:9034   */\n          eq\n            /* \"#utility.yul\":8954:9057   */\n          iszero\n          tag_231\n          jumpi\n            /* \"#utility.yul\":9037:9055   */\n          tag_232\n          tag_129\n          jump\t// in\n        tag_232:\n            /* \"#utility.yul\":8954:9057   */\n        tag_231:\n            /* \"#utility.yul\":9084:9085   */\n          0x01\n            /* \"#utility.yul\":9077:9082   */\n          dup3\n            /* \"#utility.yul\":9073:9086   */\n          add\n            /* \"#utility.yul\":9066:9086   */\n          swap1\n          pop\n            /* \"#utility.yul\":8859:9092   */\n          swap2\n          swap1\n          pop\n          jump\t// out\n            /* \"#utility.yul\":9098:9278   */\n        tag_130:\n            /* \"#utility.yul\":9146:9223   */\n          0x4e487b7100000000000000000000000000000000000000000000000000000000\n            /* \"#utility.yul\":9143:9144   */\n          0x00\n            /* \"#utility.yul\":9136:9224   */\n          mstore\n            /* \"#utility.yul\":9243:9247   */\n          0x22\n            /* \"#utility.yul\":9240:9241   */\n          0x04\n            /* \"#utility.yul\":9233:9248   */\n          mstore\n            /* \"#utility.yul\":9267:9271   */\n          0x24\n            /* \"#utility.yul\":9264:9265   */\n          0x00\n            /* \"#utility.yul\":9257:9272   */\n          revert\n            /* \"#utility.yul\":9284:9604   */\n        tag_57:\n            /* \"#utility.yul\":9328:9334   */\n          0x00\n            /* \"#utility.yul\":9365:9366   */\n          0x02\n            /* \"#utility.yul\":9359:9363   */\n          dup3\n            /* \"#utility.yul\":9355:9367   */\n          div\n            /* \"#utility.yul\":9345:9367   */\n          swap1\n          pop\n            /* \"#utility.yul\":9412:9413   */\n          0x01\n            /* \"#utility.yul\":9406:9410   */\n          dup3\n            /* \"#utility.yul\":9402:9414   */\n          and\n            /* \"#utility.yul\":9433:9451   */\n          dup1\n            /* \"#utility.yul\":9423:9504   */\n          tag_235\n          jumpi\n            /* \"#utility.yul\":9489:9493   */\n          0x7f\n            /* \"#utility.yul\":9481:9487   */\n          dup3\n            /* \"#utility.yul\":9477:9494   */\n          and\n            /* \"#utility.yul\":9467:9494   */\n          swap2\n          pop\n            /* \"#utility.yul\":9423:9504   */\n        tag_235:\n            /* \"#utility.yul\":9551:9553   */\n          0x20\n            /* \"#utility.yul\":9543:9549   */\n          dup3\n            /* \"#utility.yul\":9540:9554   */\n          lt\n            /* \"#utility.yul\":9520:9538   */\n          dup2\n            /* \"#utility.yul\":9517:9555   */\n          eq\n            /* \"#utility.yul\":9514:9598   */\n          iszero\n          tag_236\n          jumpi\n            /* \"#utility.yul\":9570:9588   */\n          tag_237\n          tag_130\n          jump\t// in\n        tag_237:\n            /* \"#utility.yul\":9514:9598   */\n        tag_236:\n            /* \"#utility.yul\":9335:9604   */\n          pop\n            /* \"#utility.yul\":9284:9604   */\n          swap2\n          swap1\n          pop\n          jump\t// out\n\n        auxdata: 0xa264697066735822122088bf4425c6ec98b6476bdbe90c6516b5c4388c5036cccd3aae4526080b9c1a5e64736f6c634300080a0033\n    }\n}\n\nsub_2: assembly {\n        /* \"devs/UserManager.sol\":867:3089   */\n      mstore(0x40, 0x80)\n        /* \"devs/UserManager.sol\":1257:1368   */\n      callvalue\n      dup1\n      iszero\n      tag_1\n      jumpi\n      0x00\n      dup1\n      revert\n    tag_1:\n      pop\n      mload(0x40)\n      sub(codesize, bytecodeSize)\n      dup1\n      bytecodeSize\n      dup4\n      codecopy\n      dup2\n      dup2\n      add\n      0x40\n      mstore\n      dup2\n      add\n      swap1\n      tag_2\n      swap2\n      swap1\n      tag_3\n      jump\t// in\n    tag_2:\n        /* \"devs/UserManager.sol\":1310:1323   */\n      dup1\n        /* \"devs/UserManager.sol\":1302:1307   */\n      0x00\n      dup1\n        /* \"devs/UserManager.sol\":1302:1323   */\n      0x0100\n      exp\n      dup2\n      sload\n      dup2\n      0xffffffffffffffffffffffffffffffffffffffff\n      mul\n      not\n      and\n      swap1\n      dup4\n      0xffffffffffffffffffffffffffffffffffffffff\n      and\n      mul\n      or\n      swap1\n      sstore\n      pop\n        /* \"devs/UserManager.sol\":1351:1361   */\n      caller\n        /* \"devs/UserManager.sol\":1333:1348   */\n      0x01\n      0x00\n        /* \"devs/UserManager.sol\":1333:1361   */\n      0x0100\n      exp\n      dup2\n      sload\n      dup2\n      0xffffffffffffffffffffffffffffffffffffffff\n      mul\n      not\n      and\n      swap1\n      dup4\n      0xffffffffffffffffffffffffffffffffffffffff\n      and\n      mul\n      or\n      swap1\n      sstore\n      pop\n        /* \"devs/UserManager.sol\":1257:1368   */\n      pop\n        /* \"devs/UserManager.sol\":867:3089   */\n      jump(tag_6)\n        /* \"#utility.yul\":88:205   */\n    tag_8:\n        /* \"#utility.yul\":197:198   */\n      0x00\n        /* \"#utility.yul\":194:195   */\n      dup1\n        /* \"#utility.yul\":187:199   */\n      revert\n        /* \"#utility.yul\":334:460   */\n    tag_10:\n        /* \"#utility.yul\":371:378   */\n      0x00\n        /* \"#utility.yul\":411:453   */\n      0xffffffffffffffffffffffffffffffffffffffff\n        /* \"#utility.yul\":404:409   */\n      dup3\n        /* \"#utility.yul\":400:454   */\n      and\n        /* \"#utility.yul\":389:454   */\n      swap1\n      pop\n        /* \"#utility.yul\":334:460   */\n      swap2\n      swap1\n      pop\n      jump\t// out\n        /* \"#utility.yul\":466:562   */\n    tag_11:\n        /* \"#utility.yul\":503:510   */\n      0x00\n        /* \"#utility.yul\":532:556   */\n      tag_20\n        /* \"#utility.yul\":550:555   */\n      dup3\n        /* \"#utility.yul\":532:556   */\n      tag_10\n      jump\t// in\n    tag_20:\n        /* \"#utility.yul\":521:556   */\n      swap1\n      pop\n        /* \"#utility.yul\":466:562   */\n      swap2\n      swap1\n      pop\n      jump\t// out\n        /* \"#utility.yul\":568:690   */\n    tag_12:\n        /* \"#utility.yul\":641:665   */\n      tag_22\n        /* \"#utility.yul\":659:664   */\n      dup2\n        /* \"#utility.yul\":641:665   */\n      tag_11\n      jump\t// in\n    tag_22:\n        /* \"#utility.yul\":634:639   */\n      dup2\n        /* \"#utility.yul\":631:666   */\n      eq\n        /* \"#utility.yul\":621:684   */\n      tag_23\n      jumpi\n        /* \"#utility.yul\":680:681   */\n      0x00\n        /* \"#utility.yul\":677:678   */\n      dup1\n        /* \"#utility.yul\":670:682   */\n      revert\n        /* \"#utility.yul\":621:684   */\n    tag_23:\n        /* \"#utility.yul\":568:690   */\n      pop\n      jump\t// out\n        /* \"#utility.yul\":696:839   */\n    tag_13:\n        /* \"#utility.yul\":753:758   */\n      0x00\n        /* \"#utility.yul\":784:790   */\n      dup2\n        /* \"#utility.yul\":778:791   */\n      mload\n        /* \"#utility.yul\":769:791   */\n      swap1\n      pop\n        /* \"#utility.yul\":800:833   */\n      tag_25\n        /* \"#utility.yul\":827:832   */\n      dup2\n        /* \"#utility.yul\":800:833   */\n      tag_12\n      jump\t// in\n    tag_25:\n        /* \"#utility.yul\":696:839   */\n      swap3\n      swap2\n      pop\n      pop\n      jump\t// out\n        /* \"#utility.yul\":845:1196   */\n    tag_3:\n        /* \"#utility.yul\":915:921   */\n      0x00\n        /* \"#utility.yul\":964:966   */\n      0x20\n        /* \"#utility.yul\":952:961   */\n      dup3\n        /* \"#utility.yul\":943:950   */\n      dup5\n        /* \"#utility.yul\":939:962   */\n      sub\n        /* \"#utility.yul\":935:967   */\n      slt\n        /* \"#utility.yul\":932:1051   */\n      iszero\n      tag_27\n      jumpi\n        /* \"#utility.yul\":970:1049   */\n      tag_28\n      tag_8\n      jump\t// in\n    tag_28:\n        /* \"#utility.yul\":932:1051   */\n    tag_27:\n        /* \"#utility.yul\":1090:1091   */\n      0x00\n        /* \"#utility.yul\":1115:1179   */\n      tag_29\n        /* \"#utility.yul\":1171:1178   */\n      dup5\n        /* \"#utility.yul\":1162:1168   */\n      dup3\n        /* \"#utility.yul\":1151:1160   */\n      dup6\n        /* \"#utility.yul\":1147:1169   */\n      add\n        /* \"#utility.yul\":1115:1179   */\n      tag_13\n      jump\t// in\n    tag_29:\n        /* \"#utility.yul\":1105:1179   */\n      swap2\n      pop\n        /* \"#utility.yul\":1061:1189   */\n      pop\n        /* \"#utility.yul\":845:1196   */\n      swap3\n      swap2\n      pop\n      pop\n      jump\t// out\n        /* \"devs/UserManager.sol\":867:3089   */\n    tag_6:\n      dataSize(sub_0)\n      dup1\n      dataOffset(sub_0)\n      0x00\n      codecopy\n      0x00\n      return\n    stop\n\n    sub_0: assembly {\n            /* \"devs/UserManager.sol\":867:3089   */\n          mstore(0x40, 0x80)\n          callvalue\n          dup1\n          iszero\n          tag_1\n          jumpi\n          0x00\n          dup1\n          revert\n        tag_1:\n          pop\n          jumpi(tag_2, lt(calldatasize, 0x04))\n          shr(0xe0, calldataload(0x00))\n          dup1\n          0xa5a9c518\n          gt\n          tag_15\n          jumpi\n          dup1\n          0xa5a9c518\n          eq\n          tag_9\n          jumpi\n          dup1\n          0xa87430ba\n          eq\n          tag_10\n          jumpi\n          dup1\n          0xe3e1f001\n          eq\n          tag_11\n          jumpi\n          dup1\n          0xe597ef12\n          eq\n          tag_12\n          jumpi\n          dup1\n          0xecded204\n          eq\n          tag_13\n          jumpi\n          dup1\n          0xf3c95c60\n          eq\n          tag_14\n          jumpi\n          jump(tag_2)\n        tag_15:\n          dup1\n          0x4172fb89\n          eq\n          tag_3\n          jumpi\n          dup1\n          0x4420e486\n          eq\n          tag_4\n          jumpi\n          dup1\n          0x4a09db4f\n          eq\n          tag_5\n          jumpi\n          dup1\n          0x6350280e\n          eq\n          tag_6\n          jumpi\n          dup1\n          0x7c4dd96d\n          eq\n          tag_7\n          jumpi\n          dup1\n          0x8da5cb5b\n          eq\n          tag_8\n          jumpi\n        tag_2:\n          0x00\n          dup1\n          revert\n            /* \"devs/UserManager.sol\":2971:3087   */\n        tag_3:\n          tag_16\n          0x04\n          dup1\n          calldatasize\n          sub\n          dup2\n          add\n          swap1\n          tag_17\n          swap2\n          swap1\n          tag_18\n          jump\t// in\n        tag_17:\n          tag_19\n          jump\t// in\n        tag_16:\n          mload(0x40)\n          tag_20\n          swap2\n          swap1\n          tag_21\n          jump\t// in\n        tag_20:\n          mload(0x40)\n          dup1\n          swap2\n          sub\n          swap1\n          return\n            /* \"devs/UserManager.sol\":1374:1684   */\n        tag_4:\n          tag_22\n          0x04\n          dup1\n          calldatasize\n          sub\n          dup2\n          add\n          swap1\n          tag_23\n          swap2\n          swap1\n          tag_18\n          jump\t// in\n        tag_23:\n          tag_24\n          jump\t// in\n        tag_22:\n          stop\n            /* \"devs/UserManager.sol\":2268:2502   */\n        tag_5:\n          tag_25\n          0x04\n          dup1\n          calldatasize\n          sub\n          dup2\n          add\n          swap1\n          tag_26\n          swap2\n          swap1\n          tag_27\n          jump\t// in\n        tag_26:\n          tag_28\n          jump\t// in\n        tag_25:\n          stop\n            /* \"devs/UserManager.sol\":1099:1119   */\n        tag_6:\n          tag_29\n          tag_30\n          jump\t// in\n        tag_29:\n          mload(0x40)\n          tag_31\n          swap2\n          swap1\n          tag_32\n          jump\t// in\n        tag_31:\n          mload(0x40)\n          dup1\n          swap2\n          sub\n          swap1\n          return\n            /* \"devs/UserManager.sol\":1690:1798   */\n        tag_7:\n          tag_33\n          0x04\n          dup1\n          calldatasize\n          sub\n          dup2\n          add\n          swap1\n          tag_34\n          swap2\n          swap1\n          tag_18\n          jump\t// in\n        tag_34:\n          tag_35\n          jump\t// in\n        tag_33:\n          stop\n            /* \"devs/UserManager.sol\":917:937   */\n        tag_8:\n          tag_36\n          tag_37\n          jump\t// in\n        tag_36:\n          mload(0x40)\n          tag_38\n          swap2\n          swap1\n          tag_39\n          jump\t// in\n        tag_38:\n          mload(0x40)\n          dup1\n          swap2\n          sub\n          swap1\n          return\n            /* \"devs/UserManager.sol\":1886:2262   */\n        tag_9:\n          tag_40\n          0x04\n          dup1\n          calldatasize\n          sub\n          dup2\n          add\n          swap1\n          tag_41\n          swap2\n          swap1\n          tag_27\n          jump\t// in\n        tag_41:\n          tag_42\n          jump\t// in\n        tag_40:\n          stop\n            /* \"devs/UserManager.sol\":1006:1043   */\n        tag_10:\n          tag_43\n          0x04\n          dup1\n          calldatasize\n          sub\n          dup2\n          add\n          swap1\n          tag_44\n          swap2\n          swap1\n          tag_18\n          jump\t// in\n        tag_44:\n          tag_45\n          jump\t// in\n        tag_43:\n          mload(0x40)\n          tag_46\n          swap6\n          swap5\n          swap4\n          swap3\n          swap2\n          swap1\n          tag_47\n          jump\t// in\n        tag_46:\n          mload(0x40)\n          dup1\n          swap2\n          sub\n          swap1\n          return\n            /* \"devs/UserManager.sol\":981:1000   */\n        tag_11:\n          tag_48\n          tag_49\n          jump\t// in\n        tag_48:\n          mload(0x40)\n          tag_50\n          swap2\n          swap1\n          tag_32\n          jump\t// in\n        tag_50:\n          mload(0x40)\n          dup1\n          swap2\n          sub\n          swap1\n          return\n            /* \"devs/UserManager.sol\":2508:2811   */\n        tag_12:\n          tag_51\n          0x04\n          dup1\n          calldatasize\n          sub\n          dup2\n          add\n          swap1\n          tag_52\n          swap2\n          swap1\n          tag_27\n          jump\t// in\n        tag_52:\n          tag_53\n          jump\t// in\n        tag_51:\n          stop\n            /* \"devs/UserManager.sol\":2843:2965   */\n        tag_13:\n          tag_54\n          0x04\n          dup1\n          calldatasize\n          sub\n          dup2\n          add\n          swap1\n          tag_55\n          swap2\n          swap1\n          tag_18\n          jump\t// in\n        tag_55:\n          tag_56\n          jump\t// in\n        tag_54:\n          mload(0x40)\n          tag_57\n          swap2\n          swap1\n          tag_21\n          jump\t// in\n        tag_57:\n          mload(0x40)\n          dup1\n          swap2\n          sub\n          swap1\n          return\n            /* \"devs/UserManager.sol\":1049:1092   */\n        tag_14:\n          tag_58\n          0x04\n          dup1\n          calldatasize\n          sub\n          dup2\n          add\n          swap1\n          tag_59\n          swap2\n          swap1\n          tag_18\n          jump\t// in\n        tag_59:\n          tag_60\n          jump\t// in\n        tag_58:\n          mload(0x40)\n          tag_61\n          swap2\n          swap1\n          tag_21\n          jump\t// in\n        tag_61:\n          mload(0x40)\n          dup1\n          swap2\n          sub\n          swap1\n          return\n            /* \"devs/UserManager.sol\":2971:3087   */\n        tag_19:\n            /* \"devs/UserManager.sol\":3036:3040   */\n          0x00\n            /* \"devs/UserManager.sol\":3058:3065   */\n          0x06\n            /* \"devs/UserManager.sol\":3058:3080   */\n          0x00\n            /* \"devs/UserManager.sol\":3066:3079   */\n          dup4\n            /* \"devs/UserManager.sol\":3058:3080   */\n          0xffffffffffffffffffffffffffffffffffffffff\n          and\n          0xffffffffffffffffffffffffffffffffffffffff\n          and\n          dup2\n          mstore\n          0x20\n          add\n          swap1\n          dup2\n          mstore\n          0x20\n          add\n          0x00\n          keccak256\n          0x00\n          swap1\n          sload\n          swap1\n          0x0100\n          exp\n          swap1\n          div\n          0xff\n          and\n            /* \"devs/UserManager.sol\":3051:3080   */\n          swap1\n          pop\n            /* \"devs/UserManager.sol\":2971:3087   */\n          swap2\n          swap1\n          pop\n          jump\t// out\n            /* \"devs/UserManager.sol\":1374:1684   */\n        tag_24:\n            /* \"devs/UserManager.sol\":1222:1232   */\n          caller\n            /* \"devs/UserManager.sol\":1203:1232   */\n          0xffffffffffffffffffffffffffffffffffffffff\n          and\n            /* \"devs/UserManager.sol\":1203:1218   */\n          0x01\n          0x00\n          swap1\n          sload\n          swap1\n          0x0100\n          exp\n          swap1\n          div\n          0xffffffffffffffffffffffffffffffffffffffff\n          and\n            /* \"devs/UserManager.sol\":1203:1232   */\n          0xffffffffffffffffffffffffffffffffffffffff\n          and\n          eq\n            /* \"devs/UserManager.sol\":1195:1233   */\n          tag_64\n          jumpi\n          0x00\n          dup1\n          revert\n        tag_64:\n            /* \"devs/UserManager.sol\":1446:1457   */\n          0x04\n            /* \"devs/UserManager.sol\":1446:1466   */\n          0x00\n            /* \"devs/UserManager.sol\":1458:1465   */\n          dup3\n            /* \"devs/UserManager.sol\":1446:1466   */\n          0xffffffffffffffffffffffffffffffffffffffff\n          and\n          0xffffffffffffffffffffffffffffffffffffffff\n          and\n          dup2\n          mstore\n          0x20\n          add\n          swap1\n          dup2\n          mstore\n          0x20\n          add\n          0x00\n          keccak256\n          0x00\n          swap1\n          sload\n          swap1\n          0x0100\n          exp\n          swap1\n          div\n          0xff\n          and\n            /* \"devs/UserManager.sol\":1445:1466   */\n          iszero\n            /* \"devs/UserManager.sol\":1437:1467   */\n          tag_66\n          jumpi\n          0x00\n          dup1\n          revert\n        tag_66:\n            /* \"devs/UserManager.sol\":1500:1504   */\n          0x01\n            /* \"devs/UserManager.sol\":1477:1488   */\n          0x04\n            /* \"devs/UserManager.sol\":1477:1497   */\n          0x00\n            /* \"devs/UserManager.sol\":1489:1496   */\n          dup4\n            /* \"devs/UserManager.sol\":1477:1497   */\n          0xffffffffffffffffffffffffffffffffffffffff\n          and\n          0xffffffffffffffffffffffffffffffffffffffff\n          and\n          dup2\n          mstore\n          0x20\n          add\n          swap1\n          dup2\n          mstore\n          0x20\n          add\n          0x00\n          keccak256\n          0x00\n            /* \"devs/UserManager.sol\":1477:1504   */\n          0x0100\n          exp\n          dup2\n          sload\n          dup2\n          0xff\n          mul\n          not\n          and\n          swap1\n          dup4\n          iszero\n          iszero\n          mul\n          or\n          swap1\n          sstore\n          pop\n            /* \"devs/UserManager.sol\":1514:1531   */\n          0x00\n            /* \"devs/UserManager.sol\":1534:1539   */\n          0x03\n            /* \"devs/UserManager.sol\":1534:1548   */\n          0x00\n            /* \"devs/UserManager.sol\":1540:1547   */\n          dup4\n            /* \"devs/UserManager.sol\":1534:1548   */\n          0xffffffffffffffffffffffffffffffffffffffff\n          and\n          0xffffffffffffffffffffffffffffffffffffffff\n          and\n          dup2\n          mstore\n          0x20\n          add\n          swap1\n          dup2\n          mstore\n          0x20\n          add\n          0x00\n          keccak256\n            /* \"devs/UserManager.sol\":1514:1548   */\n          swap1\n          pop\n            /* \"devs/UserManager.sol\":1577:1584   */\n          dup2\n            /* \"devs/UserManager.sol\":1558:1562   */\n          dup2\n            /* \"devs/UserManager.sol\":1558:1574   */\n          0x00\n          add\n          0x00\n            /* \"devs/UserManager.sol\":1558:1584   */\n          0x0100\n          exp\n          dup2\n          sload\n          dup2\n          0xffffffffffffffffffffffffffffffffffffffff\n          mul\n          not\n          and\n          swap1\n          dup4\n          0xffffffffffffffffffffffffffffffffffffffff\n          and\n          mul\n          or\n          swap1\n          sstore\n          pop\n            /* \"devs/UserManager.sol\":1614:1615   */\n          0x00\n            /* \"devs/UserManager.sol\":1594:1598   */\n          dup2\n            /* \"devs/UserManager.sol\":1594:1611   */\n          0x02\n          add\n            /* \"devs/UserManager.sol\":1594:1615   */\n          dup2\n          swap1\n          sstore\n          pop\n            /* \"devs/UserManager.sol\":1645:1646   */\n          0x00\n            /* \"devs/UserManager.sol\":1625:1629   */\n          dup2\n            /* \"devs/UserManager.sol\":1625:1641   */\n          0x03\n          add\n            /* \"devs/UserManager.sol\":1625:1646   */\n          dup2\n          swap1\n          sstore\n          pop\n            /* \"devs/UserManager.sol\":1676:1677   */\n          0x00\n            /* \"devs/UserManager.sol\":1656:1660   */\n          dup2\n            /* \"devs/UserManager.sol\":1656:1673   */\n          0x07\n          add\n            /* \"devs/UserManager.sol\":1656:1677   */\n          dup2\n          swap1\n          sstore\n          pop\n            /* \"devs/UserManager.sol\":1427:1684   */\n          pop\n            /* \"devs/UserManager.sol\":1374:1684   */\n          pop\n          jump\t// out\n            /* \"devs/UserManager.sol\":2268:2502   */\n        tag_28:\n            /* \"devs/UserManager.sol\":1222:1232   */\n          caller\n            /* \"devs/UserManager.sol\":1203:1232   */\n          0xffffffffffffffffffffffffffffffffffffffff\n          and\n            /* \"devs/UserManager.sol\":1203:1218   */\n          0x01\n          0x00\n          swap1\n          sload\n          swap1\n          0x0100\n          exp\n          swap1\n          div\n          0xffffffffffffffffffffffffffffffffffffffff\n          and\n            /* \"devs/UserManager.sol\":1203:1232   */\n          0xffffffffffffffffffffffffffffffffffffffff\n          and\n          eq\n            /* \"devs/UserManager.sol\":1195:1233   */\n          tag_68\n          jumpi\n          0x00\n          dup1\n          revert\n        tag_68:\n            /* \"devs/UserManager.sol\":2353:2364   */\n          0x04\n            /* \"devs/UserManager.sol\":2353:2373   */\n          0x00\n            /* \"devs/UserManager.sol\":2365:2372   */\n          dup4\n            /* \"devs/UserManager.sol\":2353:2373   */\n          0xffffffffffffffffffffffffffffffffffffffff\n          and\n          0xffffffffffffffffffffffffffffffffffffffff\n          and\n          dup2\n          mstore\n          0x20\n          add\n          swap1\n          dup2\n          mstore\n          0x20\n          add\n          0x00\n          keccak256\n          0x00\n          swap1\n          sload\n          swap1\n          0x0100\n          exp\n          swap1\n          div\n          0xff\n          and\n            /* \"devs/UserManager.sol\":2345:2374   */\n          tag_70\n          jumpi\n          0x00\n          dup1\n          revert\n        tag_70:\n            /* \"devs/UserManager.sol\":2384:2401   */\n          0x00\n            /* \"devs/UserManager.sol\":2404:2409   */\n          0x03\n            /* \"devs/UserManager.sol\":2404:2418   */\n          0x00\n            /* \"devs/UserManager.sol\":2410:2417   */\n          dup5\n            /* \"devs/UserManager.sol\":2404:2418   */\n          0xffffffffffffffffffffffffffffffffffffffff\n          and\n          0xffffffffffffffffffffffffffffffffffffffff\n          and\n          dup2\n          mstore\n          0x20\n          add\n          swap1\n          dup2\n          mstore\n          0x20\n          add\n          0x00\n          keccak256\n            /* \"devs/UserManager.sol\":2384:2418   */\n          swap1\n          pop\n            /* \"devs/UserManager.sol\":2461:2466   */\n          0x00\n            /* \"devs/UserManager.sol\":2428:2432   */\n          dup2\n            /* \"devs/UserManager.sol\":2428:2448   */\n          0x06\n          add\n            /* \"devs/UserManager.sol\":2428:2458   */\n          0x00\n            /* \"devs/UserManager.sol\":2449:2457   */\n          dup5\n            /* \"devs/UserManager.sol\":2428:2458   */\n          dup2\n          mstore\n          0x20\n          add\n          swap1\n          dup2\n          mstore\n          0x20\n          add\n          0x00\n          keccak256\n          0x00\n            /* \"devs/UserManager.sol\":2428:2466   */\n          0x0100\n          exp\n          dup2\n          sload\n          dup2\n          0xff\n          mul\n          not\n          and\n          swap1\n          dup4\n          iszero\n          iszero\n          mul\n          or\n          swap1\n          sstore\n          pop\n            /* \"devs/UserManager.sol\":2476:2480   */\n          dup1\n            /* \"devs/UserManager.sol\":2476:2493   */\n          0x02\n          add\n          0x00\n            /* \"devs/UserManager.sol\":2476:2495   */\n          dup2\n          sload\n          dup1\n          swap3\n          swap2\n          swap1\n          tag_71\n          swap1\n          tag_72\n          jump\t// in\n        tag_71:\n          swap2\n          swap1\n          pop\n          sstore\n          pop\n            /* \"devs/UserManager.sol\":2335:2502   */\n          pop\n            /* \"devs/UserManager.sol\":2268:2502   */\n          pop\n          pop\n          jump\t// out\n            /* \"devs/UserManager.sol\":1099:1119   */\n        tag_30:\n          sload(0x05)\n          dup2\n          jump\t// out\n            /* \"devs/UserManager.sol\":1690:1798   */\n        tag_35:\n            /* \"devs/UserManager.sol\":1222:1232   */\n          caller\n            /* \"devs/UserManager.sol\":1203:1232   */\n          0xffffffffffffffffffffffffffffffffffffffff\n          and\n            /* \"devs/UserManager.sol\":1203:1218   */\n          0x01\n          0x00\n          swap1\n          sload\n          swap1\n          0x0100\n          exp\n          swap1\n          div\n          0xffffffffffffffffffffffffffffffffffffffff\n          and\n            /* \"devs/UserManager.sol\":1203:1232   */\n          0xffffffffffffffffffffffffffffffffffffffff\n          and\n          eq\n            /* \"devs/UserManager.sol\":1195:1233   */\n          tag_74\n          jumpi\n          0x00\n          dup1\n          revert\n        tag_74:\n            /* \"devs/UserManager.sol\":1787:1791   */\n          0x01\n            /* \"devs/UserManager.sol\":1762:1769   */\n          0x06\n            /* \"devs/UserManager.sol\":1762:1784   */\n          0x00\n            /* \"devs/UserManager.sol\":1770:1783   */\n          dup4\n            /* \"devs/UserManager.sol\":1762:1784   */\n          0xffffffffffffffffffffffffffffffffffffffff\n          and\n          0xffffffffffffffffffffffffffffffffffffffff\n          and\n          dup2\n          mstore\n          0x20\n          add\n          swap1\n          dup2\n          mstore\n          0x20\n          add\n          0x00\n          keccak256\n          0x00\n            /* \"devs/UserManager.sol\":1762:1791   */\n          0x0100\n          exp\n          dup2\n          sload\n          dup2\n          0xff\n          mul\n          not\n          and\n          swap1\n          dup4\n          iszero\n          iszero\n          mul\n          or\n          swap1\n          sstore\n          pop\n            /* \"devs/UserManager.sol\":1690:1798   */\n          pop\n          jump\t// out\n            /* \"devs/UserManager.sol\":917:937   */\n        tag_37:\n          0x00\n          dup1\n          sload\n          swap1\n          0x0100\n          exp\n          swap1\n          div\n          0xffffffffffffffffffffffffffffffffffffffff\n          and\n          dup2\n          jump\t// out\n            /* \"devs/UserManager.sol\":1886:2262   */\n        tag_42:\n            /* \"devs/UserManager.sol\":1222:1232   */\n          caller\n            /* \"devs/UserManager.sol\":1203:1232   */\n          0xffffffffffffffffffffffffffffffffffffffff\n          and\n            /* \"devs/UserManager.sol\":1203:1218   */\n          0x01\n          0x00\n          swap1\n          sload\n          swap1\n          0x0100\n          exp\n          swap1\n          div\n          0xffffffffffffffffffffffffffffffffffffffff\n          and\n            /* \"devs/UserManager.sol\":1203:1232   */\n          0xffffffffffffffffffffffffffffffffffffffff\n          and\n          eq\n            /* \"devs/UserManager.sol\":1195:1233   */\n          tag_77\n          jumpi\n          0x00\n          dup1\n          revert\n        tag_77:\n            /* \"devs/UserManager.sol\":1971:1982   */\n          0x04\n            /* \"devs/UserManager.sol\":1971:1991   */\n          0x00\n            /* \"devs/UserManager.sol\":1983:1990   */\n          dup4\n            /* \"devs/UserManager.sol\":1971:1991   */\n          0xffffffffffffffffffffffffffffffffffffffff\n          and\n          0xffffffffffffffffffffffffffffffffffffffff\n          and\n          dup2\n          mstore\n          0x20\n          add\n          swap1\n          dup2\n          mstore\n          0x20\n          add\n          0x00\n          keccak256\n          0x00\n          swap1\n          sload\n          swap1\n          0x0100\n          exp\n          swap1\n          div\n          0xff\n          and\n            /* \"devs/UserManager.sol\":1963:1992   */\n          tag_79\n          jumpi\n          0x00\n          dup1\n          revert\n        tag_79:\n            /* \"devs/UserManager.sol\":2003:2020   */\n          0x00\n            /* \"devs/UserManager.sol\":2023:2028   */\n          0x03\n            /* \"devs/UserManager.sol\":2023:2037   */\n          0x00\n            /* \"devs/UserManager.sol\":2029:2036   */\n          dup5\n            /* \"devs/UserManager.sol\":2023:2037   */\n          0xffffffffffffffffffffffffffffffffffffffff\n          and\n          0xffffffffffffffffffffffffffffffffffffffff\n          and\n          dup2\n          mstore\n          0x20\n          add\n          swap1\n          dup2\n          mstore\n          0x20\n          add\n          0x00\n          keccak256\n            /* \"devs/UserManager.sol\":2003:2037   */\n          swap1\n          pop\n            /* \"devs/UserManager.sol\":2047:2051   */\n          dup1\n            /* \"devs/UserManager.sol\":2047:2068   */\n          0x04\n          add\n            /* \"devs/UserManager.sol\":2074:2082   */\n          dup3\n            /* \"devs/UserManager.sol\":2047:2083   */\n          swap1\n          dup1\n          0x01\n          dup2\n          sload\n          add\n          dup1\n          dup3\n          sstore\n          dup1\n          swap2\n          pop\n          pop\n          0x01\n          swap1\n          sub\n          swap1\n          0x00\n          mstore\n          keccak256(0x00, 0x20)\n          add\n          0x00\n          swap1\n          swap2\n          swap1\n          swap2\n          swap1\n          swap2\n          pop\n          sstore\n            /* \"devs/UserManager.sol\":2135:2139   */\n          dup1\n            /* \"devs/UserManager.sol\":2135:2151   */\n          0x03\n          add\n          sload\n            /* \"devs/UserManager.sol\":2093:2097   */\n          dup2\n            /* \"devs/UserManager.sol\":2093:2122   */\n          0x05\n          add\n            /* \"devs/UserManager.sol\":2093:2132   */\n          0x00\n            /* \"devs/UserManager.sol\":2123:2131   */\n          dup5\n            /* \"devs/UserManager.sol\":2093:2132   */\n          dup2\n          mstore\n          0x20\n          add\n          swap1\n          dup2\n          mstore\n          0x20\n          add\n          0x00\n          keccak256\n            /* \"devs/UserManager.sol\":2093:2151   */\n          dup2\n          swap1\n          sstore\n          pop\n            /* \"devs/UserManager.sol\":2194:2198   */\n          0x01\n            /* \"devs/UserManager.sol\":2161:2165   */\n          dup2\n            /* \"devs/UserManager.sol\":2161:2181   */\n          0x06\n          add\n            /* \"devs/UserManager.sol\":2161:2191   */\n          0x00\n            /* \"devs/UserManager.sol\":2182:2190   */\n          dup5\n            /* \"devs/UserManager.sol\":2161:2191   */\n          dup2\n          mstore\n          0x20\n          add\n          swap1\n          dup2\n          mstore\n          0x20\n          add\n          0x00\n          keccak256\n          0x00\n            /* \"devs/UserManager.sol\":2161:2198   */\n          0x0100\n          exp\n          dup2\n          sload\n          dup2\n          0xff\n          mul\n          not\n          and\n          swap1\n          dup4\n          iszero\n          iszero\n          mul\n          or\n          swap1\n          sstore\n          pop\n            /* \"devs/UserManager.sol\":2208:2212   */\n          dup1\n            /* \"devs/UserManager.sol\":2208:2225   */\n          0x02\n          add\n          0x00\n            /* \"devs/UserManager.sol\":2208:2227   */\n          dup2\n          sload\n          dup1\n          swap3\n          swap2\n          swap1\n          tag_81\n          swap1\n          tag_82\n          jump\t// in\n        tag_81:\n          swap2\n          swap1\n          pop\n          sstore\n          pop\n            /* \"devs/UserManager.sol\":2237:2241   */\n          dup1\n            /* \"devs/UserManager.sol\":2237:2253   */\n          0x03\n          add\n          0x00\n            /* \"devs/UserManager.sol\":2237:2255   */\n          dup2\n          sload\n          dup1\n          swap3\n          swap2\n          swap1\n          tag_83\n          swap1\n          tag_82\n          jump\t// in\n        tag_83:\n          swap2\n          swap1\n          pop\n          sstore\n          pop\n            /* \"devs/UserManager.sol\":1953:2262   */\n          pop\n            /* \"devs/UserManager.sol\":1886:2262   */\n          pop\n          pop\n          jump\t// out\n            /* \"devs/UserManager.sol\":1006:1043   */\n        tag_45:\n          mstore(0x20, 0x03)\n          dup1\n          0x00\n          mstore\n          keccak256(0x00, 0x40)\n          0x00\n          swap2\n          pop\n          swap1\n          pop\n          dup1\n          0x00\n          add\n          0x00\n          swap1\n          sload\n          swap1\n          0x0100\n          exp\n          swap1\n          div\n          0xffffffffffffffffffffffffffffffffffffffff\n          and\n          swap1\n          dup1\n          0x01\n          add\n          sload\n          swap1\n          dup1\n          0x02\n          add\n          sload\n          swap1\n          dup1\n          0x03\n          add\n          sload\n          swap1\n          dup1\n          0x07\n          add\n          sload\n          swap1\n          pop\n          dup6\n          jump\t// out\n            /* \"devs/UserManager.sol\":981:1000   */\n        tag_49:\n          sload(0x02)\n          dup2\n          jump\t// out\n            /* \"devs/UserManager.sol\":2508:2811   */\n        tag_53:\n            /* \"devs/UserManager.sol\":1222:1232   */\n          caller\n            /* \"devs/UserManager.sol\":1203:1232   */\n          0xffffffffffffffffffffffffffffffffffffffff\n          and\n            /* \"devs/UserManager.sol\":1203:1218   */\n          0x01\n          0x00\n          swap1\n          sload\n          swap1\n          0x0100\n          exp\n          swap1\n          div\n          0xffffffffffffffffffffffffffffffffffffffff\n          and\n            /* \"devs/UserManager.sol\":1203:1232   */\n          0xffffffffffffffffffffffffffffffffffffffff\n          and\n          eq\n            /* \"devs/UserManager.sol\":1195:1233   */\n          tag_85\n          jumpi\n          0x00\n          dup1\n          revert\n        tag_85:\n            /* \"devs/UserManager.sol\":2594:2605   */\n          0x04\n            /* \"devs/UserManager.sol\":2594:2614   */\n          0x00\n            /* \"devs/UserManager.sol\":2606:2613   */\n          dup4\n            /* \"devs/UserManager.sol\":2594:2614   */\n          0xffffffffffffffffffffffffffffffffffffffff\n          and\n          0xffffffffffffffffffffffffffffffffffffffff\n          and\n          dup2\n          mstore\n          0x20\n          add\n          swap1\n          dup2\n          mstore\n          0x20\n          add\n          0x00\n          keccak256\n          0x00\n          swap1\n          sload\n          swap1\n          0x0100\n          exp\n          swap1\n          div\n          0xff\n          and\n            /* \"devs/UserManager.sol\":2586:2615   */\n          tag_87\n          jumpi\n          0x00\n          dup1\n          revert\n        tag_87:\n            /* \"devs/UserManager.sol\":2626:2643   */\n          0x00\n            /* \"devs/UserManager.sol\":2646:2651   */\n          0x03\n            /* \"devs/UserManager.sol\":2646:2660   */\n          0x00\n            /* \"devs/UserManager.sol\":2652:2659   */\n          dup5\n            /* \"devs/UserManager.sol\":2646:2660   */\n          0xffffffffffffffffffffffffffffffffffffffff\n          and\n          0xffffffffffffffffffffffffffffffffffffffff\n          and\n          dup2\n          mstore\n          0x20\n          add\n          swap1\n          dup2\n          mstore\n          0x20\n          add\n          0x00\n          keccak256\n            /* \"devs/UserManager.sol\":2626:2660   */\n          swap1\n          pop\n            /* \"devs/UserManager.sol\":2670:2674   */\n          dup1\n            /* \"devs/UserManager.sol\":2670:2691   */\n          0x08\n          add\n            /* \"devs/UserManager.sol\":2697:2705   */\n          dup3\n            /* \"devs/UserManager.sol\":2670:2706   */\n          swap1\n          dup1\n          0x01\n          dup2\n          sload\n          add\n          dup1\n          dup3\n          sstore\n          dup1\n          swap2\n          pop\n          pop\n          0x01\n          swap1\n          sub\n          swap1\n          0x00\n          mstore\n          keccak256(0x00, 0x20)\n          add\n          0x00\n          swap1\n          swap2\n          swap1\n          swap2\n          swap1\n          swap2\n          pop\n          sstore\n            /* \"devs/UserManager.sol\":2758:2762   */\n          dup1\n            /* \"devs/UserManager.sol\":2758:2775   */\n          0x07\n          add\n          sload\n            /* \"devs/UserManager.sol\":2716:2720   */\n          dup2\n            /* \"devs/UserManager.sol\":2716:2745   */\n          0x09\n          add\n            /* \"devs/UserManager.sol\":2716:2755   */\n          0x00\n            /* \"devs/UserManager.sol\":2746:2754   */\n          dup5\n            /* \"devs/UserManager.sol\":2716:2755   */\n          dup2\n          mstore\n          0x20\n          add\n          swap1\n          dup2\n          mstore\n          0x20\n          add\n          0x00\n          keccak256\n            /* \"devs/UserManager.sol\":2716:2775   */\n          dup2\n          swap1\n          sstore\n          pop\n            /* \"devs/UserManager.sol\":2785:2789   */\n          dup1\n            /* \"devs/UserManager.sol\":2785:2802   */\n          0x07\n          add\n          0x00\n            /* \"devs/UserManager.sol\":2785:2804   */\n          dup2\n          sload\n          dup1\n          swap3\n          swap2\n          swap1\n          tag_89\n          swap1\n          tag_82\n          jump\t// in\n        tag_89:\n          swap2\n          swap1\n          pop\n          sstore\n          pop\n            /* \"devs/UserManager.sol\":2576:2811   */\n          pop\n            /* \"devs/UserManager.sol\":2508:2811   */\n          pop\n          pop\n          jump\t// out\n            /* \"devs/UserManager.sol\":2843:2965   */\n        tag_56:\n            /* \"devs/UserManager.sol\":2911:2915   */\n          0x00\n            /* \"devs/UserManager.sol\":2933:2944   */\n          0x04\n            /* \"devs/UserManager.sol\":2933:2958   */\n          0x00\n            /* \"devs/UserManager.sol\":2945:2957   */\n          dup4\n            /* \"devs/UserManager.sol\":2933:2958   */\n          0xffffffffffffffffffffffffffffffffffffffff\n          and\n          0xffffffffffffffffffffffffffffffffffffffff\n          and\n          dup2\n          mstore\n          0x20\n          add\n          swap1\n          dup2\n          mstore\n          0x20\n          add\n          0x00\n          keccak256\n          0x00\n          swap1\n          sload\n          swap1\n          0x0100\n          exp\n          swap1\n          div\n          0xff\n          and\n            /* \"devs/UserManager.sol\":2926:2958   */\n          swap1\n          pop\n            /* \"devs/UserManager.sol\":2843:2965   */\n          swap2\n          swap1\n          pop\n          jump\t// out\n            /* \"devs/UserManager.sol\":1049:1092   */\n        tag_60:\n          mstore(0x20, 0x04)\n          dup1\n          0x00\n          mstore\n          keccak256(0x00, 0x40)\n          0x00\n          swap2\n          pop\n          sload\n          swap1\n          0x0100\n          exp\n          swap1\n          div\n          0xff\n          and\n          dup2\n          jump\t// out\n            /* \"#utility.yul\":88:205   */\n        tag_92:\n            /* \"#utility.yul\":197:198   */\n          0x00\n            /* \"#utility.yul\":194:195   */\n          dup1\n            /* \"#utility.yul\":187:199   */\n          revert\n            /* \"#utility.yul\":334:460   */\n        tag_94:\n            /* \"#utility.yul\":371:378   */\n          0x00\n            /* \"#utility.yul\":411:453   */\n          0xffffffffffffffffffffffffffffffffffffffff\n            /* \"#utility.yul\":404:409   */\n          dup3\n            /* \"#utility.yul\":400:454   */\n          and\n            /* \"#utility.yul\":389:454   */\n          swap1\n          pop\n            /* \"#utility.yul\":334:460   */\n          swap2\n          swap1\n          pop\n          jump\t// out\n            /* \"#utility.yul\":466:562   */\n        tag_95:\n            /* \"#utility.yul\":503:510   */\n          0x00\n            /* \"#utility.yul\":532:556   */\n          tag_112\n            /* \"#utility.yul\":550:555   */\n          dup3\n            /* \"#utility.yul\":532:556   */\n          tag_94\n          jump\t// in\n        tag_112:\n            /* \"#utility.yul\":521:556   */\n          swap1\n          pop\n            /* \"#utility.yul\":466:562   */\n          swap2\n          swap1\n          pop\n          jump\t// out\n            /* \"#utility.yul\":568:690   */\n        tag_96:\n            /* \"#utility.yul\":641:665   */\n          tag_114\n            /* \"#utility.yul\":659:664   */\n          dup2\n            /* \"#utility.yul\":641:665   */\n          tag_95\n          jump\t// in\n        tag_114:\n            /* \"#utility.yul\":634:639   */\n          dup2\n            /* \"#utility.yul\":631:666   */\n          eq\n            /* \"#utility.yul\":621:684   */\n          tag_115\n          jumpi\n            /* \"#utility.yul\":680:681   */\n          0x00\n            /* \"#utility.yul\":677:678   */\n          dup1\n            /* \"#utility.yul\":670:682   */\n          revert\n            /* \"#utility.yul\":621:684   */\n        tag_115:\n            /* \"#utility.yul\":568:690   */\n          pop\n          jump\t// out\n            /* \"#utility.yul\":696:835   */\n        tag_97:\n            /* \"#utility.yul\":742:747   */\n          0x00\n            /* \"#utility.yul\":780:786   */\n          dup2\n            /* \"#utility.yul\":767:787   */\n          calldataload\n            /* \"#utility.yul\":758:787   */\n          swap1\n          pop\n            /* \"#utility.yul\":796:829   */\n          tag_117\n            /* \"#utility.yul\":823:828   */\n          dup2\n            /* \"#utility.yul\":796:829   */\n          tag_96\n          jump\t// in\n        tag_117:\n            /* \"#utility.yul\":696:835   */\n          swap3\n          swap2\n          pop\n          pop\n          jump\t// out\n            /* \"#utility.yul\":841:1170   */\n        tag_18:\n            /* \"#utility.yul\":900:906   */\n          0x00\n            /* \"#utility.yul\":949:951   */\n          0x20\n            /* \"#utility.yul\":937:946   */\n          dup3\n            /* \"#utility.yul\":928:935   */\n          dup5\n            /* \"#utility.yul\":924:947   */\n          sub\n            /* \"#utility.yul\":920:952   */\n          slt\n            /* \"#utility.yul\":917:1036   */\n          iszero\n          tag_119\n          jumpi\n            /* \"#utility.yul\":955:1034   */\n          tag_120\n          tag_92\n          jump\t// in\n        tag_120:\n            /* \"#utility.yul\":917:1036   */\n        tag_119:\n            /* \"#utility.yul\":1075:1076   */\n          0x00\n            /* \"#utility.yul\":1100:1153   */\n          tag_121\n            /* \"#utility.yul\":1145:1152   */\n          dup5\n            /* \"#utility.yul\":1136:1142   */\n          dup3\n            /* \"#utility.yul\":1125:1134   */\n          dup6\n            /* \"#utility.yul\":1121:1143   */\n          add\n            /* \"#utility.yul\":1100:1153   */\n          tag_97\n          jump\t// in\n        tag_121:\n            /* \"#utility.yul\":1090:1153   */\n          swap2\n          pop\n            /* \"#utility.yul\":1046:1163   */\n          pop\n            /* \"#utility.yul\":841:1170   */\n          swap3\n          swap2\n          pop\n          pop\n          jump\t// out\n            /* \"#utility.yul\":1176:1266   */\n        tag_98:\n            /* \"#utility.yul\":1210:1217   */\n          0x00\n            /* \"#utility.yul\":1253:1258   */\n          dup2\n            /* \"#utility.yul\":1246:1259   */\n          iszero\n            /* \"#utility.yul\":1239:1260   */\n          iszero\n            /* \"#utility.yul\":1228:1260   */\n          swap1\n          pop\n            /* \"#utility.yul\":1176:1266   */\n          swap2\n          swap1\n          pop\n          jump\t// out\n            /* \"#utility.yul\":1272:1381   */\n        tag_99:\n            /* \"#utility.yul\":1353:1374   */\n          tag_124\n            /* \"#utility.yul\":1368:1373   */\n          dup2\n            /* \"#utility.yul\":1353:1374   */\n          tag_98\n          jump\t// in\n        tag_124:\n            /* \"#utility.yul\":1348:1351   */\n          dup3\n            /* \"#utility.yul\":1341:1375   */\n          mstore\n            /* \"#utility.yul\":1272:1381   */\n          pop\n          pop\n          jump\t// out\n            /* \"#utility.yul\":1387:1597   */\n        tag_21:\n            /* \"#utility.yul\":1474:1478   */\n          0x00\n            /* \"#utility.yul\":1512:1514   */\n          0x20\n            /* \"#utility.yul\":1501:1510   */\n          dup3\n            /* \"#utility.yul\":1497:1515   */\n          add\n            /* \"#utility.yul\":1489:1515   */\n          swap1\n          pop\n            /* \"#utility.yul\":1525:1590   */\n          tag_126\n            /* \"#utility.yul\":1587:1588   */\n          0x00\n            /* \"#utility.yul\":1576:1585   */\n          dup4\n            /* \"#utility.yul\":1572:1589   */\n          add\n            /* \"#utility.yul\":1563:1569   */\n          dup5\n            /* \"#utility.yul\":1525:1590   */\n          tag_99\n          jump\t// in\n        tag_126:\n            /* \"#utility.yul\":1387:1597   */\n          swap3\n          swap2\n          pop\n          pop\n          jump\t// out\n            /* \"#utility.yul\":1603:1680   */\n        tag_100:\n            /* \"#utility.yul\":1640:1647   */\n          0x00\n            /* \"#utility.yul\":1669:1674   */\n          dup2\n            /* \"#utility.yul\":1658:1674   */\n          swap1\n          pop\n            /* \"#utility.yul\":1603:1680   */\n          swap2\n          swap1\n          pop\n          jump\t// out\n            /* \"#utility.yul\":1686:1808   */\n        tag_101:\n            /* \"#utility.yul\":1759:1783   */\n          tag_129\n            /* \"#utility.yul\":1777:1782   */\n          dup2\n            /* \"#utility.yul\":1759:1783   */\n          tag_100\n          jump\t// in\n        tag_129:\n            /* \"#utility.yul\":1752:1757   */\n          dup2\n            /* \"#utility.yul\":1749:1784   */\n          eq\n            /* \"#utility.yul\":1739:1802   */\n          tag_130\n          jumpi\n            /* \"#utility.yul\":1798:1799   */\n          0x00\n            /* \"#utility.yul\":1795:1796   */\n          dup1\n            /* \"#utility.yul\":1788:1800   */\n          revert\n            /* \"#utility.yul\":1739:1802   */\n        tag_130:\n            /* \"#utility.yul\":1686:1808   */\n          pop\n          jump\t// out\n            /* \"#utility.yul\":1814:1953   */\n        tag_102:\n            /* \"#utility.yul\":1860:1865   */\n          0x00\n            /* \"#utility.yul\":1898:1904   */\n          dup2\n            /* \"#utility.yul\":1885:1905   */\n          calldataload\n            /* \"#utility.yul\":1876:1905   */\n          swap1\n          pop\n            /* \"#utility.yul\":1914:1947   */\n          tag_132\n            /* \"#utility.yul\":1941:1946   */\n          dup2\n            /* \"#utility.yul\":1914:1947   */\n          tag_101\n          jump\t// in\n        tag_132:\n            /* \"#utility.yul\":1814:1953   */\n          swap3\n          swap2\n          pop\n          pop\n          jump\t// out\n            /* \"#utility.yul\":1959:2433   */\n        tag_27:\n            /* \"#utility.yul\":2027:2033   */\n          0x00\n            /* \"#utility.yul\":2035:2041   */\n          dup1\n            /* \"#utility.yul\":2084:2086   */\n          0x40\n            /* \"#utility.yul\":2072:2081   */\n          dup4\n            /* \"#utility.yul\":2063:2070   */\n          dup6\n            /* \"#utility.yul\":2059:2082   */\n          sub\n            /* \"#utility.yul\":2055:2087   */\n          slt\n            /* \"#utility.yul\":2052:2171   */\n          iszero\n          tag_134\n          jumpi\n            /* \"#utility.yul\":2090:2169   */\n          tag_135\n          tag_92\n          jump\t// in\n        tag_135:\n            /* \"#utility.yul\":2052:2171   */\n        tag_134:\n            /* \"#utility.yul\":2210:2211   */\n          0x00\n            /* \"#utility.yul\":2235:2288   */\n          tag_136\n            /* \"#utility.yul\":2280:2287   */\n          dup6\n            /* \"#utility.yul\":2271:2277   */\n          dup3\n            /* \"#utility.yul\":2260:2269   */\n          dup7\n            /* \"#utility.yul\":2256:2278   */\n          add\n            /* \"#utility.yul\":2235:2288   */\n          tag_97\n          jump\t// in\n        tag_136:\n            /* \"#utility.yul\":2225:2288   */\n          swap3\n          pop\n            /* \"#utility.yul\":2181:2298   */\n          pop\n            /* \"#utility.yul\":2337:2339   */\n          0x20\n            /* \"#utility.yul\":2363:2416   */\n          tag_137\n            /* \"#utility.yul\":2408:2415   */\n          dup6\n            /* \"#utility.yul\":2399:2405   */\n          dup3\n            /* \"#utility.yul\":2388:2397   */\n          dup7\n            /* \"#utility.yul\":2384:2406   */\n          add\n            /* \"#utility.yul\":2363:2416   */\n          tag_102\n          jump\t// in\n        tag_137:\n            /* \"#utility.yul\":2353:2416   */\n          swap2\n          pop\n            /* \"#utility.yul\":2308:2426   */\n          pop\n            /* \"#utility.yul\":1959:2433   */\n          swap3\n          pop\n          swap3\n          swap1\n          pop\n          jump\t// out\n            /* \"#utility.yul\":2439:2557   */\n        tag_103:\n            /* \"#utility.yul\":2526:2550   */\n          tag_139\n            /* \"#utility.yul\":2544:2549   */\n          dup2\n            /* \"#utility.yul\":2526:2550   */\n          tag_100\n          jump\t// in\n        tag_139:\n            /* \"#utility.yul\":2521:2524   */\n          dup3\n            /* \"#utility.yul\":2514:2551   */\n          mstore\n            /* \"#utility.yul\":2439:2557   */\n          pop\n          pop\n          jump\t// out\n            /* \"#utility.yul\":2563:2785   */\n        tag_32:\n            /* \"#utility.yul\":2656:2660   */\n          0x00\n            /* \"#utility.yul\":2694:2696   */\n          0x20\n            /* \"#utility.yul\":2683:2692   */\n          dup3\n            /* \"#utility.yul\":2679:2697   */\n          add\n            /* \"#utility.yul\":2671:2697   */\n          swap1\n          pop\n            /* \"#utility.yul\":2707:2778   */\n          tag_141\n            /* \"#utility.yul\":2775:2776   */\n          0x00\n            /* \"#utility.yul\":2764:2773   */\n          dup4\n            /* \"#utility.yul\":2760:2777   */\n          add\n            /* \"#utility.yul\":2751:2757   */\n          dup5\n            /* \"#utility.yul\":2707:2778   */\n          tag_103\n          jump\t// in\n        tag_141:\n            /* \"#utility.yul\":2563:2785   */\n          swap3\n          swap2\n          pop\n          pop\n          jump\t// out\n            /* \"#utility.yul\":2791:2909   */\n        tag_104:\n            /* \"#utility.yul\":2878:2902   */\n          tag_143\n            /* \"#utility.yul\":2896:2901   */\n          dup2\n            /* \"#utility.yul\":2878:2902   */\n          tag_95\n          jump\t// in\n        tag_143:\n            /* \"#utility.yul\":2873:2876   */\n          dup3\n            /* \"#utility.yul\":2866:2903   */\n          mstore\n            /* \"#utility.yul\":2791:2909   */\n          pop\n          pop\n          jump\t// out\n            /* \"#utility.yul\":2915:3137   */\n        tag_39:\n            /* \"#utility.yul\":3008:3012   */\n          0x00\n            /* \"#utility.yul\":3046:3048   */\n          0x20\n            /* \"#utility.yul\":3035:3044   */\n          dup3\n            /* \"#utility.yul\":3031:3049   */\n          add\n            /* \"#utility.yul\":3023:3049   */\n          swap1\n          pop\n            /* \"#utility.yul\":3059:3130   */\n          tag_145\n            /* \"#utility.yul\":3127:3128   */\n          0x00\n            /* \"#utility.yul\":3116:3125   */\n          dup4\n            /* \"#utility.yul\":3112:3129   */\n          add\n            /* \"#utility.yul\":3103:3109   */\n          dup5\n            /* \"#utility.yul\":3059:3130   */\n          tag_104\n          jump\t// in\n        tag_145:\n            /* \"#utility.yul\":2915:3137   */\n          swap3\n          swap2\n          pop\n          pop\n          jump\t// out\n            /* \"#utility.yul\":3143:3807   */\n        tag_47:\n            /* \"#utility.yul\":3348:3352   */\n          0x00\n            /* \"#utility.yul\":3386:3389   */\n          0xa0\n            /* \"#utility.yul\":3375:3384   */\n          dup3\n            /* \"#utility.yul\":3371:3390   */\n          add\n            /* \"#utility.yul\":3363:3390   */\n          swap1\n          pop\n            /* \"#utility.yul\":3400:3471   */\n          tag_147\n            /* \"#utility.yul\":3468:3469   */\n          0x00\n            /* \"#utility.yul\":3457:3466   */\n          dup4\n            /* \"#utility.yul\":3453:3470   */\n          add\n            /* \"#utility.yul\":3444:3450   */\n          dup9\n            /* \"#utility.yul\":3400:3471   */\n          tag_104\n          jump\t// in\n        tag_147:\n            /* \"#utility.yul\":3481:3553   */\n          tag_148\n            /* \"#utility.yul\":3549:3551   */\n          0x20\n            /* \"#utility.yul\":3538:3547   */\n          dup4\n            /* \"#utility.yul\":3534:3552   */\n          add\n            /* \"#utility.yul\":3525:3531   */\n          dup8\n            /* \"#utility.yul\":3481:3553   */\n          tag_103\n          jump\t// in\n        tag_148:\n            /* \"#utility.yul\":3563:3635   */\n          tag_149\n            /* \"#utility.yul\":3631:3633   */\n          0x40\n            /* \"#utility.yul\":3620:3629   */\n          dup4\n            /* \"#utility.yul\":3616:3634   */\n          add\n            /* \"#utility.yul\":3607:3613   */\n          dup7\n            /* \"#utility.yul\":3563:3635   */\n          tag_103\n          jump\t// in\n        tag_149:\n            /* \"#utility.yul\":3645:3717   */\n          tag_150\n            /* \"#utility.yul\":3713:3715   */\n          0x60\n            /* \"#utility.yul\":3702:3711   */\n          dup4\n            /* \"#utility.yul\":3698:3716   */\n          add\n            /* \"#utility.yul\":3689:3695   */\n          dup6\n            /* \"#utility.yul\":3645:3717   */\n          tag_103\n          jump\t// in\n        tag_150:\n            /* \"#utility.yul\":3727:3800   */\n          tag_151\n            /* \"#utility.yul\":3795:3798   */\n          0x80\n            /* \"#utility.yul\":3784:3793   */\n          dup4\n            /* \"#utility.yul\":3780:3799   */\n          add\n            /* \"#utility.yul\":3771:3777   */\n          dup5\n            /* \"#utility.yul\":3727:3800   */\n          tag_103\n          jump\t// in\n        tag_151:\n            /* \"#utility.yul\":3143:3807   */\n          swap7\n          swap6\n          pop\n          pop\n          pop\n          pop\n          pop\n          pop\n          jump\t// out\n            /* \"#utility.yul\":3813:3993   */\n        tag_105:\n            /* \"#utility.yul\":3861:3938   */\n          0x4e487b7100000000000000000000000000000000000000000000000000000000\n            /* \"#utility.yul\":3858:3859   */\n          0x00\n            /* \"#utility.yul\":3851:3939   */\n          mstore\n            /* \"#utility.yul\":3958:3962   */\n          0x11\n            /* \"#utility.yul\":3955:3956   */\n          0x04\n            /* \"#utility.yul\":3948:3963   */\n          mstore\n            /* \"#utility.yul\":3982:3986   */\n          0x24\n            /* \"#utility.yul\":3979:3980   */\n          0x00\n            /* \"#utility.yul\":3972:3987   */\n          revert\n            /* \"#utility.yul\":3999:4170   */\n        tag_72:\n            /* \"#utility.yul\":4038:4041   */\n          0x00\n            /* \"#utility.yul\":4061:4085   */\n          tag_154\n            /* \"#utility.yul\":4079:4084   */\n          dup3\n            /* \"#utility.yul\":4061:4085   */\n          tag_100\n          jump\t// in\n        tag_154:\n            /* \"#utility.yul\":4052:4085   */\n          swap2\n          pop\n            /* \"#utility.yul\":4107:4111   */\n          0x00\n            /* \"#utility.yul\":4100:4105   */\n          dup3\n            /* \"#utility.yul\":4097:4112   */\n          eq\n            /* \"#utility.yul\":4094:4135   */\n          iszero\n          tag_155\n          jumpi\n            /* \"#utility.yul\":4115:4133   */\n          tag_156\n          tag_105\n          jump\t// in\n        tag_156:\n            /* \"#utility.yul\":4094:4135   */\n        tag_155:\n            /* \"#utility.yul\":4162:4163   */\n          0x01\n            /* \"#utility.yul\":4155:4160   */\n          dup3\n            /* \"#utility.yul\":4151:4164   */\n          sub\n            /* \"#utility.yul\":4144:4164   */\n          swap1\n          pop\n            /* \"#utility.yul\":3999:4170   */\n          swap2\n          swap1\n          pop\n          jump\t// out\n            /* \"#utility.yul\":4176:4409   */\n        tag_82:\n            /* \"#utility.yul\":4215:4218   */\n          0x00\n            /* \"#utility.yul\":4238:4262   */\n          tag_158\n            /* \"#utility.yul\":4256:4261   */\n          dup3\n            /* \"#utility.yul\":4238:4262   */\n          tag_100\n          jump\t// in\n        tag_158:\n            /* \"#utility.yul\":4229:4262   */\n          swap2\n          pop\n            /* \"#utility.yul\":4284:4350   */\n          0xffffffffffffffffffffffffffffffffffffffffffffffffffffffffffffffff\n            /* \"#utility.yul\":4277:4282   */\n          dup3\n            /* \"#utility.yul\":4274:4351   */\n          eq\n            /* \"#utility.yul\":4271:4374   */\n          iszero\n          tag_159\n          jumpi\n            /* \"#utility.yul\":4354:4372   */\n          tag_160\n          tag_105\n          jump\t// in\n        tag_160:\n            /* \"#utility.yul\":4271:4374   */\n        tag_159:\n            /* \"#utility.yul\":4401:4402   */\n          0x01\n            /* \"#utility.yul\":4394:4399   */\n          dup3\n            /* \"#utility.yul\":4390:4403   */\n          add\n            /* \"#utility.yul\":4383:4403   */\n          swap1\n          pop\n            /* \"#utility.yul\":4176:4409   */\n          swap2\n          swap1\n          pop\n          jump\t// out\n\n        auxdata: 0xa264697066735822122047efaa3ac1347b01f95836c6072ad459d3d3b128912028ecd36b7218de40791e64736f6c634300080a0033\n    }\n}\n\nsub_3: assembly {\n        /* \"devs/TokenManager.sol\":843:3282   */\n      mstore(0x40, 0x80)\n        /* \"devs/TokenManager.sol\":1225:1336   */\n      callvalue\n      dup1\n      iszero\n      tag_1\n      jumpi\n      0x00\n      dup1\n      revert\n    tag_1:\n      pop\n      mload(0x40)\n      sub(codesize, bytecodeSize)\n      dup1\n      bytecodeSize\n      dup4\n      codecopy\n      dup2\n      dup2\n      add\n      0x40\n      mstore\n      dup2\n      add\n      swap1\n      tag_2\n      swap2\n      swap1\n      tag_3\n      jump\t// in\n    tag_2:\n        /* \"devs/TokenManager.sol\":1278:1291   */\n      dup1\n        /* \"devs/TokenManager.sol\":1270:1275   */\n      0x00\n      dup1\n        /* \"devs/TokenManager.sol\":1270:1291   */\n      0x0100\n      exp\n      dup2\n      sload\n      dup2\n      0xffffffffffffffffffffffffffffffffffffffff\n      mul\n      not\n      and\n      swap1\n      dup4\n      0xffffffffffffffffffffffffffffffffffffffff\n      and\n      mul\n      or\n      swap1\n      sstore\n      pop\n        /* \"devs/TokenManager.sol\":1319:1329   */\n      caller\n        /* \"devs/TokenManager.sol\":1301:1316   */\n      0x01\n      0x00\n        /* \"devs/TokenManager.sol\":1301:1329   */\n      0x0100\n      exp\n      dup2\n      sload\n      dup2\n      0xffffffffffffffffffffffffffffffffffffffff\n      mul\n      not\n      and\n      swap1\n      dup4\n      0xffffffffffffffffffffffffffffffffffffffff\n      and\n      mul\n      or\n      swap1\n      sstore\n      pop\n        /* \"devs/TokenManager.sol\":1225:1336   */\n      pop\n        /* \"devs/TokenManager.sol\":843:3282   */\n      jump(tag_6)\n        /* \"#utility.yul\":88:205   */\n    tag_8:\n        /* \"#utility.yul\":197:198   */\n      0x00\n        /* \"#utility.yul\":194:195   */\n      dup1\n        /* \"#utility.yul\":187:199   */\n      revert\n        /* \"#utility.yul\":334:460   */\n    tag_10:\n        /* \"#utility.yul\":371:378   */\n      0x00\n        /* \"#utility.yul\":411:453   */\n      0xffffffffffffffffffffffffffffffffffffffff\n        /* \"#utility.yul\":404:409   */\n      dup3\n        /* \"#utility.yul\":400:454   */\n      and\n        /* \"#utility.yul\":389:454   */\n      swap1\n      pop\n        /* \"#utility.yul\":334:460   */\n      swap2\n      swap1\n      pop\n      jump\t// out\n        /* \"#utility.yul\":466:562   */\n    tag_11:\n        /* \"#utility.yul\":503:510   */\n      0x00\n        /* \"#utility.yul\":532:556   */\n      tag_20\n        /* \"#utility.yul\":550:555   */\n      dup3\n        /* \"#utility.yul\":532:556   */\n      tag_10\n      jump\t// in\n    tag_20:\n        /* \"#utility.yul\":521:556   */\n      swap1\n      pop\n        /* \"#utility.yul\":466:562   */\n      swap2\n      swap1\n      pop\n      jump\t// out\n        /* \"#utility.yul\":568:690   */\n    tag_12:\n        /* \"#utility.yul\":641:665   */\n      tag_22\n        /* \"#utility.yul\":659:664   */\n      dup2\n        /* \"#utility.yul\":641:665   */\n      tag_11\n      jump\t// in\n    tag_22:\n        /* \"#utility.yul\":634:639   */\n      dup2\n        /* \"#utility.yul\":631:666   */\n      eq\n        /* \"#utility.yul\":621:684   */\n      tag_23\n      jumpi\n        /* \"#utility.yul\":680:681   */\n      0x00\n        /* \"#utility.yul\":677:678   */\n      dup1\n        /* \"#utility.yul\":670:682   */\n      revert\n        /* \"#utility.yul\":621:684   */\n    tag_23:\n        /* \"#utility.yul\":568:690   */\n      pop\n      jump\t// out\n        /* \"#utility.yul\":696:839   */\n    tag_13:\n        /* \"#utility.yul\":753:758   */\n      0x00\n        /* \"#utility.yul\":784:790   */\n      dup2\n        /* \"#utility.yul\":778:791   */\n      mload\n        /* \"#utility.yul\":769:791   */\n      swap1\n      pop\n        /* \"#utility.yul\":800:833   */\n      tag_25\n        /* \"#utility.yul\":827:832   */\n      dup2\n        /* \"#utility.yul\":800:833   */\n      tag_12\n      jump\t// in\n    tag_25:\n        /* \"#utility.yul\":696:839   */\n      swap3\n      swap2\n      pop\n      pop\n      jump\t// out\n        /* \"#utility.yul\":845:1196   */\n    tag_3:\n        /* \"#utility.yul\":915:921   */\n      0x00\n        /* \"#utility.yul\":964:966   */\n      0x20\n        /* \"#utility.yul\":952:961   */\n      dup3\n        /* \"#utility.yul\":943:950   */\n      dup5\n        /* \"#utility.yul\":939:962   */\n      sub\n        /* \"#utility.yul\":935:967   */\n      slt\n        /* \"#utility.yul\":932:1051   */\n      iszero\n      tag_27\n      jumpi\n        /* \"#utility.yul\":970:1049   */\n      tag_28\n      tag_8\n      jump\t// in\n    tag_28:\n        /* \"#utility.yul\":932:1051   */\n    tag_27:\n        /* \"#utility.yul\":1090:1091   */\n      0x00\n        /* \"#utility.yul\":1115:1179   */\n      tag_29\n        /* \"#utility.yul\":1171:1178   */\n      dup5\n        /* \"#utility.yul\":1162:1168   */\n      dup3\n        /* \"#utility.yul\":1151:1160   */\n      dup6\n        /* \"#utility.yul\":1147:1169   */\n      add\n        /* \"#utility.yul\":1115:1179   */\n      tag_13\n      jump\t// in\n    tag_29:\n        /* \"#utility.yul\":1105:1179   */\n      swap2\n      pop\n        /* \"#utility.yul\":1061:1189   */\n      pop\n        /* \"#utility.yul\":845:1196   */\n      swap3\n      swap2\n      pop\n      pop\n      jump\t// out\n        /* \"devs/TokenManager.sol\":843:3282   */\n    tag_6:\n      dataSize(sub_0)\n      dup1\n      dataOffset(sub_0)\n      0x00\n      codecopy\n      0x00\n      return\n    stop\n\n    sub_0: assembly {\n            /* \"devs/TokenManager.sol\":843:3282   */\n          mstore(0x40, 0x80)\n          callvalue\n          dup1\n          iszero\n          tag_1\n          jumpi\n          0x00\n          dup1\n          revert\n        tag_1:\n          pop\n          jumpi(tag_2, lt(calldatasize, 0x04))\n          shr(0xe0, calldataload(0x00))\n          dup1\n          0xa46d8ac7\n          gt\n          tag_13\n          jumpi\n          dup1\n          0xa46d8ac7\n          eq\n          tag_8\n          jumpi\n          dup1\n          0xab21a2be\n          eq\n          tag_9\n          jumpi\n          dup1\n          0xca5140c9\n          eq\n          tag_10\n          jumpi\n          dup1\n          0xef228c92\n          eq\n          tag_11\n          jumpi\n          dup1\n          0xf6b4dfb4\n          eq\n          tag_12\n          jumpi\n          jump(tag_2)\n        tag_13:\n          dup1\n          0x1ce06944\n          eq\n          tag_3\n          jumpi\n          dup1\n          0x67615ad5\n          eq\n          tag_4\n          jumpi\n          dup1\n          0x8da5cb5b\n          eq\n          tag_5\n          jumpi\n          dup1\n          0x8dbbfbde\n          eq\n          tag_6\n          jumpi\n          dup1\n          0x921c47b1\n          eq\n          tag_7\n          jumpi\n        tag_2:\n          0x00\n          dup1\n          revert\n            /* \"devs/TokenManager.sol\":2944:3105   */\n        tag_3:\n          tag_14\n          0x04\n          dup1\n          calldatasize\n          sub\n          dup2\n          add\n          swap1\n          tag_15\n          swap2\n          swap1\n          tag_16\n          jump\t// in\n        tag_15:\n          tag_17\n          jump\t// in\n        tag_14:\n          mload(0x40)\n          tag_18\n          swap2\n          swap1\n          tag_19\n          jump\t// in\n        tag_18:\n          mload(0x40)\n          dup1\n          swap2\n          sub\n          swap1\n          return\n            /* \"devs/TokenManager.sol\":3111:3279   */\n        tag_4:\n          tag_20\n          0x04\n          dup1\n          calldatasize\n          sub\n          dup2\n          add\n          swap1\n          tag_21\n          swap2\n          swap1\n          tag_16\n          jump\t// in\n        tag_21:\n          tag_22\n          jump\t// in\n        tag_20:\n          mload(0x40)\n          tag_23\n          swap2\n          swap1\n          tag_19\n          jump\t// in\n        tag_23:\n          mload(0x40)\n          dup1\n          swap2\n          sub\n          swap1\n          return\n            /* \"devs/TokenManager.sol\":896:916   */\n        tag_5:\n          tag_24\n          tag_25\n          jump\t// in\n        tag_24:\n          mload(0x40)\n          tag_26\n          swap2\n          swap1\n          tag_27\n          jump\t// in\n        tag_26:\n          mload(0x40)\n          dup1\n          swap2\n          sub\n          swap1\n          return\n            /* \"devs/TokenManager.sol\":2269:2514   */\n        tag_6:\n          tag_28\n          0x04\n          dup1\n          calldatasize\n          sub\n          dup2\n          add\n          swap1\n          tag_29\n          swap2\n          swap1\n          tag_30\n          jump\t// in\n        tag_29:\n          tag_31\n          jump\t// in\n        tag_28:\n          stop\n            /* \"devs/TokenManager.sol\":959:983   */\n        tag_7:\n          tag_32\n          tag_33\n          jump\t// in\n        tag_32:\n          mload(0x40)\n          tag_34\n          swap2\n          swap1\n          tag_19\n          jump\t// in\n        tag_34:\n          mload(0x40)\n          dup1\n          swap2\n          sub\n          swap1\n          return\n            /* \"devs/TokenManager.sol\":1432:1944   */\n        tag_8:\n          tag_35\n          0x04\n          dup1\n          calldatasize\n          sub\n          dup2\n          add\n          swap1\n          tag_36\n          swap2\n          swap1\n          tag_37\n          jump\t// in\n        tag_36:\n          tag_38\n          jump\t// in\n        tag_35:\n          mload(0x40)\n          tag_39\n          swap2\n          swap1\n          tag_19\n          jump\t// in\n        tag_39:\n          mload(0x40)\n          dup1\n          swap2\n          sub\n          swap1\n          return\n            /* \"devs/TokenManager.sol\":2520:2716   */\n        tag_9:\n          tag_40\n          0x04\n          dup1\n          calldatasize\n          sub\n          dup2\n          add\n          swap1\n          tag_41\n          swap2\n          swap1\n          tag_42\n          jump\t// in\n        tag_41:\n          tag_43\n          jump\t// in\n        tag_40:\n          stop\n            /* \"devs/TokenManager.sol\":2722:2912   */\n        tag_10:\n          tag_44\n          0x04\n          dup1\n          calldatasize\n          sub\n          dup2\n          add\n          swap1\n          tag_45\n          swap2\n          swap1\n          tag_16\n          jump\t// in\n        tag_45:\n          tag_46\n          jump\t// in\n        tag_44:\n          stop\n            /* \"devs/TokenManager.sol\":2049:2263   */\n        tag_11:\n          tag_47\n          0x04\n          dup1\n          calldatasize\n          sub\n          dup2\n          add\n          swap1\n          tag_48\n          swap2\n          swap1\n          tag_49\n          jump\t// in\n        tag_48:\n          tag_50\n          jump\t// in\n        tag_47:\n          stop\n            /* \"devs/TokenManager.sol\":922:952   */\n        tag_12:\n          tag_51\n          tag_52\n          jump\t// in\n        tag_51:\n          mload(0x40)\n          tag_53\n          swap2\n          swap1\n          tag_27\n          jump\t// in\n        tag_53:\n          mload(0x40)\n          dup1\n          swap2\n          sub\n          swap1\n          return\n            /* \"devs/TokenManager.sol\":2944:3105   */\n        tag_17:\n            /* \"devs/TokenManager.sol\":3003:3007   */\n          0x00\n            /* \"devs/TokenManager.sol\":3018:3044   */\n          dup1\n            /* \"devs/TokenManager.sol\":3047:3057   */\n          0x03\n            /* \"devs/TokenManager.sol\":3047:3067   */\n          0x00\n            /* \"devs/TokenManager.sol\":3058:3066   */\n          dup5\n            /* \"devs/TokenManager.sol\":3047:3067   */\n          dup2\n          mstore\n          0x20\n          add\n          swap1\n          dup2\n          mstore\n          0x20\n          add\n          0x00\n          keccak256\n            /* \"devs/TokenManager.sol\":3018:3067   */\n          mload(0x40)\n          dup1\n          0xe0\n          add\n          0x40\n          mstore\n          swap1\n          dup2\n          0x00\n          dup3\n          add\n          sload\n          dup2\n          mstore\n          0x20\n          add\n          0x01\n          dup3\n          add\n          0x00\n          swap1\n          sload\n          swap1\n          0x0100\n          exp\n          swap1\n          div\n          0xffffffffffffffffffffffffffffffffffffffff\n          and\n          0xffffffffffffffffffffffffffffffffffffffff\n          and\n          0xffffffffffffffffffffffffffffffffffffffff\n          and\n          dup2\n          mstore\n          0x20\n          add\n          0x02\n          dup3\n          add\n          sload\n          dup2\n          mstore\n          0x20\n          add\n          0x03\n          dup3\n          add\n          0x00\n          swap1\n          sload\n          swap1\n          0x0100\n          exp\n          swap1\n          div\n          0xffffffffffffffffffffffffffffffffffffffff\n          and\n          0xffffffffffffffffffffffffffffffffffffffff\n          and\n          0xffffffffffffffffffffffffffffffffffffffff\n          and\n          dup2\n          mstore\n          0x20\n          add\n          0x03\n          dup3\n          add\n          0x14\n          swap1\n          sload\n          swap1\n          0x0100\n          exp\n          swap1\n          div\n          0xff\n          and\n          iszero\n          iszero\n          iszero\n          iszero\n          dup2\n          mstore\n          0x20\n          add\n          0x04\n          dup3\n          add\n          sload\n          dup2\n          mstore\n          0x20\n          add\n          0x05\n          dup3\n          add\n          sload\n          dup2\n          mstore\n          pop\n          pop\n          swap1\n          pop\n            /* \"devs/TokenManager.sol\":3084:3093   */\n          dup1\n            /* \"devs/TokenManager.sol\":3084:3098   */\n          0xc0\n          add\n          mload\n            /* \"devs/TokenManager.sol\":3077:3098   */\n          swap2\n          pop\n          pop\n            /* \"devs/TokenManager.sol\":2944:3105   */\n          swap2\n          swap1\n          pop\n          jump\t// out\n            /* \"devs/TokenManager.sol\":3111:3279   */\n        tag_22:\n            /* \"devs/TokenManager.sol\":3172:3176   */\n          0x00\n            /* \"devs/TokenManager.sol\":3187:3213   */\n          dup1\n            /* \"devs/TokenManager.sol\":3216:3226   */\n          0x03\n            /* \"devs/TokenManager.sol\":3216:3236   */\n          0x00\n            /* \"devs/TokenManager.sol\":3227:3235   */\n          dup5\n            /* \"devs/TokenManager.sol\":3216:3236   */\n          dup2\n          mstore\n          0x20\n          add\n          swap1\n          dup2\n          mstore\n          0x20\n          add\n          0x00\n          keccak256\n            /* \"devs/TokenManager.sol\":3187:3236   */\n          mload(0x40)\n          dup1\n          0xe0\n          add\n          0x40\n          mstore\n          swap1\n          dup2\n          0x00\n          dup3\n          add\n          sload\n          dup2\n          mstore\n          0x20\n          add\n          0x01\n          dup3\n          add\n          0x00\n          swap1\n          sload\n          swap1\n          0x0100\n          exp\n          swap1\n          div\n          0xffffffffffffffffffffffffffffffffffffffff\n          and\n          0xffffffffffffffffffffffffffffffffffffffff\n          and\n          0xffffffffffffffffffffffffffffffffffffffff\n          and\n          dup2\n          mstore\n          0x20\n          add\n          0x02\n          dup3\n          add\n          sload\n          dup2\n          mstore\n          0x20\n          add\n          0x03\n          dup3\n          add\n          0x00\n          swap1\n          sload\n          swap1\n          0x0100\n          exp\n          swap1\n          div\n          0xffffffffffffffffffffffffffffffffffffffff\n          and\n          0xffffffffffffffffffffffffffffffffffffffff\n          and\n          0xffffffffffffffffffffffffffffffffffffffff\n          and\n          dup2\n          mstore\n          0x20\n          add\n          0x03\n          dup3\n          add\n          0x14\n          swap1\n          sload\n          swap1\n          0x0100\n          exp\n          swap1\n          div\n          0xff\n          and\n          iszero\n          iszero\n          iszero\n          iszero\n          dup2\n          mstore\n          0x20\n          add\n          0x04\n          dup3\n          add\n          sload\n          dup2\n          mstore\n          0x20\n          add\n          0x05\n          dup3\n          add\n          sload\n          dup2\n          mstore\n          pop\n          pop\n          swap1\n          pop\n            /* \"devs/TokenManager.sol\":3253:3262   */\n          dup1\n            /* \"devs/TokenManager.sol\":3253:3272   */\n          0x40\n          add\n          mload\n            /* \"devs/TokenManager.sol\":3246:3272   */\n          swap2\n          pop\n          pop\n            /* \"devs/TokenManager.sol\":3111:3279   */\n          swap2\n          swap1\n          pop\n          jump\t// out\n            /* \"devs/TokenManager.sol\":896:916   */\n        tag_25:\n          0x00\n          dup1\n          sload\n          swap1\n          0x0100\n          exp\n          swap1\n          div\n          0xffffffffffffffffffffffffffffffffffffffff\n          and\n          dup2\n          jump\t// out\n            /* \"devs/TokenManager.sol\":2269:2514   */\n        tag_31:\n            /* \"devs/TokenManager.sol\":2359:2367   */\n          dup3\n            /* \"devs/TokenManager.sol\":1188:1200   */\n          sload(0x02)\n            /* \"devs/TokenManager.sol\":1178:1185   */\n          dup2\n            /* \"devs/TokenManager.sol\":1178:1200   */\n          lt\n            /* \"devs/TokenManager.sol\":1170:1201   */\n          tag_57\n          jumpi\n          0x00\n          dup1\n          revert\n        tag_57:\n            /* \"devs/TokenManager.sol\":1091:1101   */\n          caller\n            /* \"devs/TokenManager.sol\":1072:1101   */\n          0xffffffffffffffffffffffffffffffffffffffff\n          and\n            /* \"devs/TokenManager.sol\":1072:1087   */\n          0x01\n          0x00\n          swap1\n          sload\n          swap1\n          0x0100\n          exp\n          swap1\n          div\n          0xffffffffffffffffffffffffffffffffffffffff\n          and\n            /* \"devs/TokenManager.sol\":1072:1101   */\n          0xffffffffffffffffffffffffffffffffffffffff\n          and\n          eq\n            /* \"devs/TokenManager.sol\":1064:1102   */\n          tag_59\n          jumpi\n          0x00\n          dup1\n          revert\n        tag_59:\n            /* \"devs/TokenManager.sol\":2389:2416   */\n          0x00\n            /* \"devs/TokenManager.sol\":2419:2429   */\n          0x03\n            /* \"devs/TokenManager.sol\":2419:2439   */\n          0x00\n            /* \"devs/TokenManager.sol\":2430:2438   */\n          dup7\n            /* \"devs/TokenManager.sol\":2419:2439   */\n          dup2\n          mstore\n          0x20\n          add\n          swap1\n          dup2\n          mstore\n          0x20\n          add\n          0x00\n          keccak256\n            /* \"devs/TokenManager.sol\":2389:2439   */\n          swap1\n          pop\n            /* \"devs/TokenManager.sol\":2468:2475   */\n          dup4\n            /* \"devs/TokenManager.sol\":2449:2458   */\n          dup2\n            /* \"devs/TokenManager.sol\":2449:2465   */\n          0x04\n          add\n            /* \"devs/TokenManager.sol\":2449:2475   */\n          dup2\n          swap1\n          sstore\n          pop\n            /* \"devs/TokenManager.sol\":2502:2507   */\n          dup3\n            /* \"devs/TokenManager.sol\":2485:2494   */\n          dup2\n            /* \"devs/TokenManager.sol\":2485:2499   */\n          0x05\n          add\n            /* \"devs/TokenManager.sol\":2485:2507   */\n          dup2\n          swap1\n          sstore\n          pop\n            /* \"devs/TokenManager.sol\":2379:2514   */\n          pop\n            /* \"devs/TokenManager.sol\":2269:2514   */\n          pop\n          pop\n          pop\n          pop\n          jump\t// out\n            /* \"devs/TokenManager.sol\":959:983   */\n        tag_33:\n          sload(0x02)\n          dup2\n          jump\t// out\n            /* \"devs/TokenManager.sol\":1432:1944   */\n        tag_38:\n            /* \"devs/TokenManager.sol\":1544:1548   */\n          0x00\n            /* \"devs/TokenManager.sol\":1091:1101   */\n          caller\n            /* \"devs/TokenManager.sol\":1072:1101   */\n          0xffffffffffffffffffffffffffffffffffffffff\n          and\n            /* \"devs/TokenManager.sol\":1072:1087   */\n          0x01\n          0x00\n          swap1\n          sload\n          swap1\n          0x0100\n          exp\n          swap1\n          div\n          0xffffffffffffffffffffffffffffffffffffffff\n          and\n            /* \"devs/TokenManager.sol\":1072:1101   */\n          0xffffffffffffffffffffffffffffffffffffffff\n          and\n          eq\n            /* \"devs/TokenManager.sol\":1064:1102   */\n          tag_62\n          jumpi\n          0x00\n          dup1\n          revert\n        tag_62:\n            /* \"devs/TokenManager.sol\":1559:1586   */\n          0x00\n            /* \"devs/TokenManager.sol\":1589:1599   */\n          0x03\n            /* \"devs/TokenManager.sol\":1589:1613   */\n          0x00\n            /* \"devs/TokenManager.sol\":1600:1612   */\n          sload(0x02)\n            /* \"devs/TokenManager.sol\":1589:1613   */\n          dup2\n          mstore\n          0x20\n          add\n          swap1\n          dup2\n          mstore\n          0x20\n          add\n          0x00\n          keccak256\n            /* \"devs/TokenManager.sol\":1559:1613   */\n          swap1\n          pop\n            /* \"devs/TokenManager.sol\":1643:1655   */\n          sload(0x02)\n            /* \"devs/TokenManager.sol\":1623:1632   */\n          dup2\n            /* \"devs/TokenManager.sol\":1623:1640   */\n          0x00\n          add\n            /* \"devs/TokenManager.sol\":1623:1655   */\n          dup2\n          swap1\n          sstore\n          pop\n            /* \"devs/TokenManager.sol\":1687:1697   */\n          dup5\n            /* \"devs/TokenManager.sol\":1665:1674   */\n          dup2\n            /* \"devs/TokenManager.sol\":1665:1684   */\n          0x02\n          add\n            /* \"devs/TokenManager.sol\":1665:1697   */\n          dup2\n          swap1\n          sstore\n          pop\n            /* \"devs/TokenManager.sol\":1725:1732   */\n          dup6\n            /* \"devs/TokenManager.sol\":1707:1716   */\n          dup2\n            /* \"devs/TokenManager.sol\":1707:1722   */\n          0x01\n          add\n          0x00\n            /* \"devs/TokenManager.sol\":1707:1732   */\n          0x0100\n          exp\n          dup2\n          sload\n          dup2\n          0xffffffffffffffffffffffffffffffffffffffff\n          mul\n          not\n          and\n          swap1\n          dup4\n          0xffffffffffffffffffffffffffffffffffffffff\n          and\n          mul\n          or\n          swap1\n          sstore\n          pop\n            /* \"devs/TokenManager.sol\":1761:1768   */\n          dup6\n            /* \"devs/TokenManager.sol\":1742:1751   */\n          dup2\n            /* \"devs/TokenManager.sol\":1742:1758   */\n          0x03\n          add\n          0x00\n            /* \"devs/TokenManager.sol\":1742:1768   */\n          0x0100\n          exp\n          dup2\n          sload\n          dup2\n          0xffffffffffffffffffffffffffffffffffffffff\n          mul\n          not\n          and\n          swap1\n          dup4\n          0xffffffffffffffffffffffffffffffffffffffff\n          and\n          mul\n          or\n          swap1\n          sstore\n          pop\n            /* \"devs/TokenManager.sol\":1806:1811   */\n          0x00\n            /* \"devs/TokenManager.sol\":1778:1787   */\n          dup2\n            /* \"devs/TokenManager.sol\":1778:1803   */\n          0x03\n          add\n          0x14\n            /* \"devs/TokenManager.sol\":1778:1811   */\n          0x0100\n          exp\n          dup2\n          sload\n          dup2\n          0xff\n          mul\n          not\n          and\n          swap1\n          dup4\n          iszero\n          iszero\n          mul\n          or\n          swap1\n          sstore\n          pop\n            /* \"devs/TokenManager.sol\":1840:1847   */\n          dup4\n            /* \"devs/TokenManager.sol\":1821:1830   */\n          dup2\n            /* \"devs/TokenManager.sol\":1821:1837   */\n          0x04\n          add\n            /* \"devs/TokenManager.sol\":1821:1847   */\n          dup2\n          swap1\n          sstore\n          pop\n            /* \"devs/TokenManager.sol\":1874:1879   */\n          dup3\n            /* \"devs/TokenManager.sol\":1857:1866   */\n          dup2\n            /* \"devs/TokenManager.sol\":1857:1871   */\n          0x05\n          add\n            /* \"devs/TokenManager.sol\":1857:1879   */\n          dup2\n          swap1\n          sstore\n          pop\n            /* \"devs/TokenManager.sol\":1889:1901   */\n          0x02\n          0x00\n            /* \"devs/TokenManager.sol\":1889:1903   */\n          dup2\n          sload\n          dup1\n          swap3\n          swap2\n          swap1\n          tag_64\n          swap1\n          tag_65\n          jump\t// in\n        tag_64:\n          swap2\n          swap1\n          pop\n          sstore\n          pop\n            /* \"devs/TokenManager.sol\":1920:1929   */\n          dup1\n            /* \"devs/TokenManager.sol\":1920:1937   */\n          0x00\n          add\n          sload\n            /* \"devs/TokenManager.sol\":1913:1937   */\n          swap2\n          pop\n          pop\n            /* \"devs/TokenManager.sol\":1432:1944   */\n          swap5\n          swap4\n          pop\n          pop\n          pop\n          pop\n          jump\t// out\n            /* \"devs/TokenManager.sol\":2520:2716   */\n        tag_43:\n            /* \"devs/TokenManager.sol\":2593:2601   */\n          dup2\n            /* \"devs/TokenManager.sol\":1188:1200   */\n          sload(0x02)\n            /* \"devs/TokenManager.sol\":1178:1185   */\n          dup2\n            /* \"devs/TokenManager.sol\":1178:1200   */\n          lt\n            /* \"devs/TokenManager.sol\":1170:1201   */\n          tag_67\n          jumpi\n          0x00\n          dup1\n          revert\n        tag_67:\n            /* \"devs/TokenManager.sol\":1091:1101   */\n          caller\n            /* \"devs/TokenManager.sol\":1072:1101   */\n          0xffffffffffffffffffffffffffffffffffffffff\n          and\n            /* \"devs/TokenManager.sol\":1072:1087   */\n          0x01\n          0x00\n          swap1\n          sload\n          swap1\n          0x0100\n          exp\n          swap1\n          div\n          0xffffffffffffffffffffffffffffffffffffffff\n          and\n            /* \"devs/TokenManager.sol\":1072:1101   */\n          0xffffffffffffffffffffffffffffffffffffffff\n          and\n          eq\n            /* \"devs/TokenManager.sol\":1064:1102   */\n          tag_69\n          jumpi\n          0x00\n          dup1\n          revert\n        tag_69:\n            /* \"devs/TokenManager.sol\":2623:2650   */\n          0x00\n            /* \"devs/TokenManager.sol\":2653:2663   */\n          0x03\n            /* \"devs/TokenManager.sol\":2653:2673   */\n          0x00\n            /* \"devs/TokenManager.sol\":2664:2672   */\n          dup6\n            /* \"devs/TokenManager.sol\":2653:2673   */\n          dup2\n          mstore\n          0x20\n          add\n          swap1\n          dup2\n          mstore\n          0x20\n          add\n          0x00\n          keccak256\n            /* \"devs/TokenManager.sol\":2623:2673   */\n          swap1\n          pop\n            /* \"devs/TokenManager.sol\":2702:2709   */\n          dup3\n            /* \"devs/TokenManager.sol\":2683:2692   */\n          dup2\n            /* \"devs/TokenManager.sol\":2683:2699   */\n          0x03\n          add\n          0x00\n            /* \"devs/TokenManager.sol\":2683:2709   */\n          0x0100\n          exp\n          dup2\n          sload\n          dup2\n          0xffffffffffffffffffffffffffffffffffffffff\n          mul\n          not\n          and\n          swap1\n          dup4\n          0xffffffffffffffffffffffffffffffffffffffff\n          and\n          mul\n          or\n          swap1\n          sstore\n          pop\n            /* \"devs/TokenManager.sol\":2613:2716   */\n          pop\n            /* \"devs/TokenManager.sol\":2520:2716   */\n          pop\n          pop\n          pop\n          jump\t// out\n            /* \"devs/TokenManager.sol\":2722:2912   */\n        tag_46:\n            /* \"devs/TokenManager.sol\":2776:2784   */\n          dup1\n            /* \"devs/TokenManager.sol\":1188:1200   */\n          sload(0x02)\n            /* \"devs/TokenManager.sol\":1178:1185   */\n          dup2\n            /* \"devs/TokenManager.sol\":1178:1200   */\n          lt\n            /* \"devs/TokenManager.sol\":1170:1201   */\n          tag_72\n          jumpi\n          0x00\n          dup1\n          revert\n        tag_72:\n            /* \"devs/TokenManager.sol\":1091:1101   */\n          caller\n            /* \"devs/TokenManager.sol\":1072:1101   */\n          0xffffffffffffffffffffffffffffffffffffffff\n          and\n            /* \"devs/TokenManager.sol\":1072:1087   */\n          0x01\n          0x00\n          swap1\n          sload\n          swap1\n          0x0100\n          exp\n          swap1\n          div\n          0xffffffffffffffffffffffffffffffffffffffff\n          and\n            /* \"devs/TokenManager.sol\":1072:1101   */\n          0xffffffffffffffffffffffffffffffffffffffff\n          and\n          eq\n            /* \"devs/TokenManager.sol\":1064:1102   */\n          tag_74\n          jumpi\n          0x00\n          dup1\n          revert\n        tag_74:\n            /* \"devs/TokenManager.sol\":2806:2833   */\n          0x00\n            /* \"devs/TokenManager.sol\":2836:2846   */\n          0x03\n            /* \"devs/TokenManager.sol\":2836:2856   */\n          0x00\n            /* \"devs/TokenManager.sol\":2847:2855   */\n          dup5\n            /* \"devs/TokenManager.sol\":2836:2856   */\n          dup2\n          mstore\n          0x20\n          add\n          swap1\n          dup2\n          mstore\n          0x20\n          add\n          0x00\n          keccak256\n            /* \"devs/TokenManager.sol\":2806:2856   */\n          swap1\n          pop\n            /* \"devs/TokenManager.sol\":2866:2905   */\n          tag_76\n            /* \"devs/TokenManager.sol\":2879:2887   */\n          dup4\n            /* \"devs/TokenManager.sol\":2889:2898   */\n          dup3\n            /* \"devs/TokenManager.sol\":2889:2904   */\n          0x01\n          add\n          0x00\n          swap1\n          sload\n          swap1\n          0x0100\n          exp\n          swap1\n          div\n          0xffffffffffffffffffffffffffffffffffffffff\n          and\n            /* \"devs/TokenManager.sol\":2866:2878   */\n          tag_43\n            /* \"devs/TokenManager.sol\":2866:2905   */\n          jump\t// in\n        tag_76:\n            /* \"devs/TokenManager.sol\":2796:2912   */\n          pop\n            /* \"devs/TokenManager.sol\":2722:2912   */\n          pop\n          pop\n          jump\t// out\n            /* \"devs/TokenManager.sol\":2049:2263   */\n        tag_50:\n            /* \"devs/TokenManager.sol\":2131:2139   */\n          dup2\n            /* \"devs/TokenManager.sol\":1188:1200   */\n          sload(0x02)\n            /* \"devs/TokenManager.sol\":1178:1185   */\n          dup2\n            /* \"devs/TokenManager.sol\":1178:1200   */\n          lt\n            /* \"devs/TokenManager.sol\":1170:1201   */\n          tag_78\n          jumpi\n          0x00\n          dup1\n          revert\n        tag_78:\n            /* \"devs/TokenManager.sol\":1091:1101   */\n          caller\n            /* \"devs/TokenManager.sol\":1072:1101   */\n          0xffffffffffffffffffffffffffffffffffffffff\n          and\n            /* \"devs/TokenManager.sol\":1072:1087   */\n          0x01\n          0x00\n          swap1\n          sload\n          swap1\n          0x0100\n          exp\n          swap1\n          div\n          0xffffffffffffffffffffffffffffffffffffffff\n          and\n            /* \"devs/TokenManager.sol\":1072:1101   */\n          0xffffffffffffffffffffffffffffffffffffffff\n          and\n          eq\n            /* \"devs/TokenManager.sol\":1064:1102   */\n          tag_80\n          jumpi\n          0x00\n          dup1\n          revert\n        tag_80:\n            /* \"devs/TokenManager.sol\":2161:2188   */\n          0x00\n            /* \"devs/TokenManager.sol\":2191:2201   */\n          0x03\n            /* \"devs/TokenManager.sol\":2191:2211   */\n          0x00\n            /* \"devs/TokenManager.sol\":2202:2210   */\n          dup6\n            /* \"devs/TokenManager.sol\":2191:2211   */\n          dup2\n          mstore\n          0x20\n          add\n          swap1\n          dup2\n          mstore\n          0x20\n          add\n          0x00\n          keccak256\n            /* \"devs/TokenManager.sol\":2161:2211   */\n          swap1\n          pop\n            /* \"devs/TokenManager.sol\":2249:2256   */\n          dup3\n            /* \"devs/TokenManager.sol\":2221:2230   */\n          dup2\n            /* \"devs/TokenManager.sol\":2221:2246   */\n          0x03\n          add\n          0x14\n            /* \"devs/TokenManager.sol\":2221:2256   */\n          0x0100\n          exp\n          dup2\n          sload\n          dup2\n          0xff\n          mul\n          not\n          and\n          swap1\n          dup4\n          iszero\n          iszero\n          mul\n          or\n          swap1\n          sstore\n          pop\n            /* \"devs/TokenManager.sol\":2151:2263   */\n          pop\n            /* \"devs/TokenManager.sol\":2049:2263   */\n          pop\n          pop\n          pop\n          jump\t// out\n            /* \"devs/TokenManager.sol\":922:952   */\n        tag_52:\n          0x01\n          0x00\n          swap1\n          sload\n          swap1\n          0x0100\n          exp\n          swap1\n          div\n          0xffffffffffffffffffffffffffffffffffffffff\n          and\n          dup2\n          jump\t// out\n            /* \"#utility.yul\":88:205   */\n        tag_83:\n            /* \"#utility.yul\":197:198   */\n          0x00\n            /* \"#utility.yul\":194:195   */\n          dup1\n            /* \"#utility.yul\":187:199   */\n          revert\n            /* \"#utility.yul\":334:411   */\n        tag_85:\n            /* \"#utility.yul\":371:378   */\n          0x00\n            /* \"#utility.yul\":400:405   */\n          dup2\n            /* \"#utility.yul\":389:405   */\n          swap1\n          pop\n            /* \"#utility.yul\":334:411   */\n          swap2\n          swap1\n          pop\n          jump\t// out\n            /* \"#utility.yul\":417:539   */\n        tag_86:\n            /* \"#utility.yul\":490:514   */\n          tag_104\n            /* \"#utility.yul\":508:513   */\n          dup2\n            /* \"#utility.yul\":490:514   */\n          tag_85\n          jump\t// in\n        tag_104:\n            /* \"#utility.yul\":483:488   */\n          dup2\n            /* \"#utility.yul\":480:515   */\n          eq\n            /* \"#utility.yul\":470:533   */\n          tag_105\n          jumpi\n            /* \"#utility.yul\":529:530   */\n          0x00\n            /* \"#utility.yul\":526:527   */\n          dup1\n            /* \"#utility.yul\":519:531   */\n          revert\n            /* \"#utility.yul\":470:533   */\n        tag_105:\n            /* \"#utility.yul\":417:539   */\n          pop\n          jump\t// out\n            /* \"#utility.yul\":545:684   */\n        tag_87:\n            /* \"#utility.yul\":591:596   */\n          0x00\n            /* \"#utility.yul\":629:635   */\n          dup2\n            /* \"#utility.yul\":616:636   */\n          calldataload\n            /* \"#utility.yul\":607:636   */\n          swap1\n          pop\n            /* \"#utility.yul\":645:678   */\n          tag_107\n            /* \"#utility.yul\":672:677   */\n          dup2\n            /* \"#utility.yul\":645:678   */\n          tag_86\n          jump\t// in\n        tag_107:\n            /* \"#utility.yul\":545:684   */\n          swap3\n          swap2\n          pop\n          pop\n          jump\t// out\n            /* \"#utility.yul\":690:1019   */\n        tag_16:\n            /* \"#utility.yul\":749:755   */\n          0x00\n            /* \"#utility.yul\":798:800   */\n          0x20\n            /* \"#utility.yul\":786:795   */\n          dup3\n            /* \"#utility.yul\":777:784   */\n          dup5\n            /* \"#utility.yul\":773:796   */\n          sub\n            /* \"#utility.yul\":769:801   */\n          slt\n            /* \"#utility.yul\":766:885   */\n          iszero\n          tag_109\n          jumpi\n            /* \"#utility.yul\":804:883   */\n          tag_110\n          tag_83\n          jump\t// in\n        tag_110:\n            /* \"#utility.yul\":766:885   */\n        tag_109:\n            /* \"#utility.yul\":924:925   */\n          0x00\n            /* \"#utility.yul\":949:1002   */\n          tag_111\n            /* \"#utility.yul\":994:1001   */\n          dup5\n            /* \"#utility.yul\":985:991   */\n          dup3\n            /* \"#utility.yul\":974:983   */\n          dup6\n            /* \"#utility.yul\":970:992   */\n          add\n            /* \"#utility.yul\":949:1002   */\n          tag_87\n          jump\t// in\n        tag_111:\n            /* \"#utility.yul\":939:1002   */\n          swap2\n          pop\n            /* \"#utility.yul\":895:1012   */\n          pop\n            /* \"#utility.yul\":690:1019   */\n          swap3\n          swap2\n          pop\n          pop\n          jump\t// out\n            /* \"#utility.yul\":1025:1143   */\n        tag_88:\n            /* \"#utility.yul\":1112:1136   */\n          tag_113\n            /* \"#utility.yul\":1130:1135   */\n          dup2\n            /* \"#utility.yul\":1112:1136   */\n          tag_85\n          jump\t// in\n        tag_113:\n            /* \"#utility.yul\":1107:1110   */\n          dup3\n            /* \"#utility.yul\":1100:1137   */\n          mstore\n            /* \"#utility.yul\":1025:1143   */\n          pop\n          pop\n          jump\t// out\n            /* \"#utility.yul\":1149:1371   */\n        tag_19:\n            /* \"#utility.yul\":1242:1246   */\n          0x00\n            /* \"#utility.yul\":1280:1282   */\n          0x20\n            /* \"#utility.yul\":1269:1278   */\n          dup3\n            /* \"#utility.yul\":1265:1283   */\n          add\n            /* \"#utility.yul\":1257:1283   */\n          swap1\n          pop\n            /* \"#utility.yul\":1293:1364   */\n          tag_115\n            /* \"#utility.yul\":1361:1362   */\n          0x00\n            /* \"#utility.yul\":1350:1359   */\n          dup4\n            /* \"#utility.yul\":1346:1363   */\n          add\n            /* \"#utility.yul\":1337:1343   */\n          dup5\n            /* \"#utility.yul\":1293:1364   */\n          tag_88\n          jump\t// in\n        tag_115:\n            /* \"#utility.yul\":1149:1371   */\n          swap3\n          swap2\n          pop\n          pop\n          jump\t// out\n            /* \"#utility.yul\":1377:1503   */\n        tag_89:\n            /* \"#utility.yul\":1414:1421   */\n          0x00\n            /* \"#utility.yul\":1454:1496   */\n          0xffffffffffffffffffffffffffffffffffffffff\n            /* \"#utility.yul\":1447:1452   */\n          dup3\n            /* \"#utility.yul\":1443:1497   */\n          and\n            /* \"#utility.yul\":1432:1497   */\n          swap1\n          pop\n            /* \"#utility.yul\":1377:1503   */\n          swap2\n          swap1\n          pop\n          jump\t// out\n            /* \"#utility.yul\":1509:1605   */\n        tag_90:\n            /* \"#utility.yul\":1546:1553   */\n          0x00\n            /* \"#utility.yul\":1575:1599   */\n          tag_118\n            /* \"#utility.yul\":1593:1598   */\n          dup3\n            /* \"#utility.yul\":1575:1599   */\n          tag_89\n          jump\t// in\n        tag_118:\n            /* \"#utility.yul\":1564:1599   */\n          swap1\n          pop\n            /* \"#utility.yul\":1509:1605   */\n          swap2\n          swap1\n          pop\n          jump\t// out\n            /* \"#utility.yul\":1611:1729   */\n        tag_91:\n            /* \"#utility.yul\":1698:1722   */\n          tag_120\n            /* \"#utility.yul\":1716:1721   */\n          dup2\n            /* \"#utility.yul\":1698:1722   */\n          tag_90\n          jump\t// in\n        tag_120:\n            /* \"#utility.yul\":1693:1696   */\n          dup3\n            /* \"#utility.yul\":1686:1723   */\n          mstore\n            /* \"#utility.yul\":1611:1729   */\n          pop\n          pop\n          jump\t// out\n            /* \"#utility.yul\":1735:1957   */\n        tag_27:\n            /* \"#utility.yul\":1828:1832   */\n          0x00\n            /* \"#utility.yul\":1866:1868   */\n          0x20\n            /* \"#utility.yul\":1855:1864   */\n          dup3\n            /* \"#utility.yul\":1851:1869   */\n          add\n            /* \"#utility.yul\":1843:1869   */\n          swap1\n          pop\n            /* \"#utility.yul\":1879:1950   */\n          tag_122\n            /* \"#utility.yul\":1947:1948   */\n          0x00\n            /* \"#utility.yul\":1936:1945   */\n          dup4\n            /* \"#utility.yul\":1932:1949   */\n          add\n            /* \"#utility.yul\":1923:1929   */\n          dup5\n            /* \"#utility.yul\":1879:1950   */\n          tag_91\n          jump\t// in\n        tag_122:\n            /* \"#utility.yul\":1735:1957   */\n          swap3\n          swap2\n          pop\n          pop\n          jump\t// out\n            /* \"#utility.yul\":1963:2582   */\n        tag_30:\n            /* \"#utility.yul\":2040:2046   */\n          0x00\n            /* \"#utility.yul\":2048:2054   */\n          dup1\n            /* \"#utility.yul\":2056:2062   */\n          0x00\n            /* \"#utility.yul\":2105:2107   */\n          0x60\n            /* \"#utility.yul\":2093:2102   */\n          dup5\n            /* \"#utility.yul\":2084:2091   */\n          dup7\n            /* \"#utility.yul\":2080:2103   */\n          sub\n            /* \"#utility.yul\":2076:2108   */\n          slt\n            /* \"#utility.yul\":2073:2192   */\n          iszero\n          tag_124\n          jumpi\n            /* \"#utility.yul\":2111:2190   */\n          tag_125\n          tag_83\n          jump\t// in\n        tag_125:\n            /* \"#utility.yul\":2073:2192   */\n        tag_124:\n            /* \"#utility.yul\":2231:2232   */\n          0x00\n            /* \"#utility.yul\":2256:2309   */\n          tag_126\n            /* \"#utility.yul\":2301:2308   */\n          dup7\n            /* \"#utility.yul\":2292:2298   */\n          dup3\n            /* \"#utility.yul\":2281:2290   */\n          dup8\n            /* \"#utility.yul\":2277:2299   */\n          add\n            /* \"#utility.yul\":2256:2309   */\n          tag_87\n          jump\t// in\n        tag_126:\n            /* \"#utility.yul\":2246:2309   */\n          swap4\n          pop\n            /* \"#utility.yul\":2202:2319   */\n          pop\n            /* \"#utility.yul\":2358:2360   */\n          0x20\n            /* \"#utility.yul\":2384:2437   */\n          tag_127\n            /* \"#utility.yul\":2429:2436   */\n          dup7\n            /* \"#utility.yul\":2420:2426   */\n          dup3\n            /* \"#utility.yul\":2409:2418   */\n          dup8\n            /* \"#utility.yul\":2405:2427   */\n          add\n            /* \"#utility.yul\":2384:2437   */\n          tag_87\n          jump\t// in\n        tag_127:\n            /* \"#utility.yul\":2374:2437   */\n          swap3\n          pop\n            /* \"#utility.yul\":2329:2447   */\n          pop\n            /* \"#utility.yul\":2486:2488   */\n          0x40\n            /* \"#utility.yul\":2512:2565   */\n          tag_128\n            /* \"#utility.yul\":2557:2564   */\n          dup7\n            /* \"#utility.yul\":2548:2554   */\n          dup3\n            /* \"#utility.yul\":2537:2546   */\n          dup8\n            /* \"#utility.yul\":2533:2555   */\n          add\n            /* \"#utility.yul\":2512:2565   */\n          tag_87\n          jump\t// in\n        tag_128:\n            /* \"#utility.yul\":2502:2565   */\n          swap2\n          pop\n            /* \"#utility.yul\":2457:2575   */\n          pop\n            /* \"#utility.yul\":1963:2582   */\n          swap3\n          pop\n          swap3\n          pop\n          swap3\n          jump\t// out\n            /* \"#utility.yul\":2588:2710   */\n        tag_92:\n            /* \"#utility.yul\":2661:2685   */\n          tag_130\n            /* \"#utility.yul\":2679:2684   */\n          dup2\n            /* \"#utility.yul\":2661:2685   */\n          tag_90\n          jump\t// in\n        tag_130:\n            /* \"#utility.yul\":2654:2659   */\n          dup2\n            /* \"#utility.yul\":2651:2686   */\n          eq\n            /* \"#utility.yul\":2641:2704   */\n          tag_131\n          jumpi\n            /* \"#utility.yul\":2700:2701   */\n          0x00\n            /* \"#utility.yul\":2697:2698   */\n          dup1\n            /* \"#utility.yul\":2690:2702   */\n          revert\n            /* \"#utility.yul\":2641:2704   */\n        tag_131:\n            /* \"#utility.yul\":2588:2710   */\n          pop\n          jump\t// out\n            /* \"#utility.yul\":2716:2855   */\n        tag_93:\n            /* \"#utility.yul\":2762:2767   */\n          0x00\n            /* \"#utility.yul\":2800:2806   */\n          dup2\n            /* \"#utility.yul\":2787:2807   */\n          calldataload\n            /* \"#utility.yul\":2778:2807   */\n          swap1\n          pop\n            /* \"#utility.yul\":2816:2849   */\n          tag_133\n            /* \"#utility.yul\":2843:2848   */\n          dup2\n            /* \"#utility.yul\":2816:2849   */\n          tag_92\n          jump\t// in\n        tag_133:\n            /* \"#utility.yul\":2716:2855   */\n          swap3\n          swap2\n          pop\n          pop\n          jump\t// out\n            /* \"#utility.yul\":2861:3626   */\n        tag_37:\n            /* \"#utility.yul\":2947:2953   */\n          0x00\n            /* \"#utility.yul\":2955:2961   */\n          dup1\n            /* \"#utility.yul\":2963:2969   */\n          0x00\n            /* \"#utility.yul\":2971:2977   */\n          dup1\n            /* \"#utility.yul\":3020:3023   */\n          0x80\n            /* \"#utility.yul\":3008:3017   */\n          dup6\n            /* \"#utility.yul\":2999:3006   */\n          dup8\n            /* \"#utility.yul\":2995:3018   */\n          sub\n            /* \"#utility.yul\":2991:3024   */\n          slt\n            /* \"#utility.yul\":2988:3108   */\n          iszero\n          tag_135\n          jumpi\n            /* \"#utility.yul\":3027:3106   */\n          tag_136\n          tag_83\n          jump\t// in\n        tag_136:\n            /* \"#utility.yul\":2988:3108   */\n        tag_135:\n            /* \"#utility.yul\":3147:3148   */\n          0x00\n            /* \"#utility.yul\":3172:3225   */\n          tag_137\n            /* \"#utility.yul\":3217:3224   */\n          dup8\n            /* \"#utility.yul\":3208:3214   */\n          dup3\n            /* \"#utility.yul\":3197:3206   */\n          dup9\n            /* \"#utility.yul\":3193:3215   */\n          add\n            /* \"#utility.yul\":3172:3225   */\n          tag_93\n          jump\t// in\n        tag_137:\n            /* \"#utility.yul\":3162:3225   */\n          swap5\n          pop\n            /* \"#utility.yul\":3118:3235   */\n          pop\n            /* \"#utility.yul\":3274:3276   */\n          0x20\n            /* \"#utility.yul\":3300:3353   */\n          tag_138\n            /* \"#utility.yul\":3345:3352   */\n          dup8\n            /* \"#utility.yul\":3336:3342   */\n          dup3\n            /* \"#utility.yul\":3325:3334   */\n          dup9\n            /* \"#utility.yul\":3321:3343   */\n          add\n            /* \"#utility.yul\":3300:3353   */\n          tag_87\n          jump\t// in\n        tag_138:\n            /* \"#utility.yul\":3290:3353   */\n          swap4\n          pop\n            /* \"#utility.yul\":3245:3363   */\n          pop\n            /* \"#utility.yul\":3402:3404   */\n          0x40\n            /* \"#utility.yul\":3428:3481   */\n          tag_139\n            /* \"#utility.yul\":3473:3480   */\n          dup8\n            /* \"#utility.yul\":3464:3470   */\n          dup3\n            /* \"#utility.yul\":3453:3462   */\n          dup9\n            /* \"#utility.yul\":3449:3471   */\n          add\n            /* \"#utility.yul\":3428:3481   */\n          tag_87\n          jump\t// in\n        tag_139:\n            /* \"#utility.yul\":3418:3481   */\n          swap3\n          pop\n            /* \"#utility.yul\":3373:3491   */\n          pop\n            /* \"#utility.yul\":3530:3532   */\n          0x60\n            /* \"#utility.yul\":3556:3609   */\n          tag_140\n            /* \"#utility.yul\":3601:3608   */\n          dup8\n            /* \"#utility.yul\":3592:3598   */\n          dup3\n            /* \"#utility.yul\":3581:3590   */\n          dup9\n            /* \"#utility.yul\":3577:3599   */\n          add\n            /* \"#utility.yul\":3556:3609   */\n          tag_87\n          jump\t// in\n        tag_140:\n            /* \"#utility.yul\":3546:3609   */\n          swap2\n          pop\n            /* \"#utility.yul\":3501:3619   */\n          pop\n            /* \"#utility.yul\":2861:3626   */\n          swap3\n          swap6\n          swap2\n          swap5\n          pop\n          swap3\n          pop\n          jump\t// out\n            /* \"#utility.yul\":3632:4106   */\n        tag_42:\n            /* \"#utility.yul\":3700:3706   */\n          0x00\n            /* \"#utility.yul\":3708:3714   */\n          dup1\n            /* \"#utility.yul\":3757:3759   */\n          0x40\n            /* \"#utility.yul\":3745:3754   */\n          dup4\n            /* \"#utility.yul\":3736:3743   */\n          dup6\n            /* \"#utility.yul\":3732:3755   */\n          sub\n            /* \"#utility.yul\":3728:3760   */\n          slt\n            /* \"#utility.yul\":3725:3844   */\n          iszero\n          tag_142\n          jumpi\n            /* \"#utility.yul\":3763:3842   */\n          tag_143\n          tag_83\n          jump\t// in\n        tag_143:\n            /* \"#utility.yul\":3725:3844   */\n        tag_142:\n            /* \"#utility.yul\":3883:3884   */\n          0x00\n            /* \"#utility.yul\":3908:3961   */\n          tag_144\n            /* \"#utility.yul\":3953:3960   */\n          dup6\n            /* \"#utility.yul\":3944:3950   */\n          dup3\n            /* \"#utility.yul\":3933:3942   */\n          dup7\n            /* \"#utility.yul\":3929:3951   */\n          add\n            /* \"#utility.yul\":3908:3961   */\n          tag_87\n          jump\t// in\n        tag_144:\n            /* \"#utility.yul\":3898:3961   */\n          swap3\n          pop\n            /* \"#utility.yul\":3854:3971   */\n          pop\n            /* \"#utility.yul\":4010:4012   */\n          0x20\n            /* \"#utility.yul\":4036:4089   */\n          tag_145\n            /* \"#utility.yul\":4081:4088   */\n          dup6\n            /* \"#utility.yul\":4072:4078   */\n          dup3\n            /* \"#utility.yul\":4061:4070   */\n          dup7\n            /* \"#utility.yul\":4057:4079   */\n          add\n            /* \"#utility.yul\":4036:4089   */\n          tag_93\n          jump\t// in\n        tag_145:\n            /* \"#utility.yul\":4026:4089   */\n          swap2\n          pop\n            /* \"#utility.yul\":3981:4099   */\n          pop\n            /* \"#utility.yul\":3632:4106   */\n          swap3\n          pop\n          swap3\n          swap1\n          pop\n          jump\t// out\n            /* \"#utility.yul\":4112:4202   */\n        tag_94:\n            /* \"#utility.yul\":4146:4153   */\n          0x00\n            /* \"#utility.yul\":4189:4194   */\n          dup2\n            /* \"#utility.yul\":4182:4195   */\n          iszero\n            /* \"#utility.yul\":4175:4196   */\n          iszero\n            /* \"#utility.yul\":4164:4196   */\n          swap1\n          pop\n            /* \"#utility.yul\":4112:4202   */\n          swap2\n          swap1\n          pop\n          jump\t// out\n            /* \"#utility.yul\":4208:4324   */\n        tag_95:\n            /* \"#utility.yul\":4278:4299   */\n          tag_148\n            /* \"#utility.yul\":4293:4298   */\n          dup2\n            /* \"#utility.yul\":4278:4299   */\n          tag_94\n          jump\t// in\n        tag_148:\n            /* \"#utility.yul\":4271:4276   */\n          dup2\n            /* \"#utility.yul\":4268:4300   */\n          eq\n            /* \"#utility.yul\":4258:4318   */\n          tag_149\n          jumpi\n            /* \"#utility.yul\":4314:4315   */\n          0x00\n            /* \"#utility.yul\":4311:4312   */\n          dup1\n            /* \"#utility.yul\":4304:4316   */\n          revert\n            /* \"#utility.yul\":4258:4318   */\n        tag_149:\n            /* \"#utility.yul\":4208:4324   */\n          pop\n          jump\t// out\n            /* \"#utility.yul\":4330:4463   */\n        tag_96:\n            /* \"#utility.yul\":4373:4378   */\n          0x00\n            /* \"#utility.yul\":4411:4417   */\n          dup2\n            /* \"#utility.yul\":4398:4418   */\n          calldataload\n            /* \"#utility.yul\":4389:4418   */\n          swap1\n          pop\n            /* \"#utility.yul\":4427:4457   */\n          tag_151\n            /* \"#utility.yul\":4451:4456   */\n          dup2\n            /* \"#utility.yul\":4427:4457   */\n          tag_95\n          jump\t// in\n        tag_151:\n            /* \"#utility.yul\":4330:4463   */\n          swap3\n          swap2\n          pop\n          pop\n          jump\t// out\n            /* \"#utility.yul\":4469:4937   */\n        tag_49:\n            /* \"#utility.yul\":4534:4540   */\n          0x00\n            /* \"#utility.yul\":4542:4548   */\n          dup1\n            /* \"#utility.yul\":4591:4593   */\n          0x40\n            /* \"#utility.yul\":4579:4588   */\n          dup4\n            /* \"#utility.yul\":4570:4577   */\n          dup6\n            /* \"#utility.yul\":4566:4589   */\n          sub\n            /* \"#utility.yul\":4562:4594   */\n          slt\n            /* \"#utility.yul\":4559:4678   */\n          iszero\n          tag_153\n          jumpi\n            /* \"#utility.yul\":4597:4676   */\n          tag_154\n          tag_83\n          jump\t// in\n        tag_154:\n            /* \"#utility.yul\":4559:4678   */\n        tag_153:\n            /* \"#utility.yul\":4717:4718   */\n          0x00\n            /* \"#utility.yul\":4742:4795   */\n          tag_155\n            /* \"#utility.yul\":4787:4794   */\n          dup6\n            /* \"#utility.yul\":4778:4784   */\n          dup3\n            /* \"#utility.yul\":4767:4776   */\n          dup7\n            /* \"#utility.yul\":4763:4785   */\n          add\n            /* \"#utility.yul\":4742:4795   */\n          tag_87\n          jump\t// in\n        tag_155:\n            /* \"#utility.yul\":4732:4795   */\n          swap3\n          pop\n            /* \"#utility.yul\":4688:4805   */\n          pop\n            /* \"#utility.yul\":4844:4846   */\n          0x20\n            /* \"#utility.yul\":4870:4920   */\n          tag_156\n            /* \"#utility.yul\":4912:4919   */\n          dup6\n            /* \"#utility.yul\":4903:4909   */\n          dup3\n            /* \"#utility.yul\":4892:4901   */\n          dup7\n            /* \"#utility.yul\":4888:4910   */\n          add\n            /* \"#utility.yul\":4870:4920   */\n          tag_96\n          jump\t// in\n        tag_156:\n            /* \"#utility.yul\":4860:4920   */\n          swap2\n          pop\n            /* \"#utility.yul\":4815:4930   */\n          pop\n            /* \"#utility.yul\":4469:4937   */\n          swap3\n          pop\n          swap3\n          swap1\n          pop\n          jump\t// out\n            /* \"#utility.yul\":4943:5123   */\n        tag_97:\n            /* \"#utility.yul\":4991:5068   */\n          0x4e487b7100000000000000000000000000000000000000000000000000000000\n            /* \"#utility.yul\":4988:4989   */\n          0x00\n            /* \"#utility.yul\":4981:5069   */\n          mstore\n            /* \"#utility.yul\":5088:5092   */\n          0x11\n            /* \"#utility.yul\":5085:5086   */\n          0x04\n            /* \"#utility.yul\":5078:5093   */\n          mstore\n            /* \"#utility.yul\":5112:5116   */\n          0x24\n            /* \"#utility.yul\":5109:5110   */\n          0x00\n            /* \"#utility.yul\":5102:5117   */\n          revert\n            /* \"#utility.yul\":5129:5362   */\n        tag_65:\n            /* \"#utility.yul\":5168:5171   */\n          0x00\n            /* \"#utility.yul\":5191:5215   */\n          tag_159\n            /* \"#utility.yul\":5209:5214   */\n          dup3\n            /* \"#utility.yul\":5191:5215   */\n          tag_85\n          jump\t// in\n        tag_159:\n            /* \"#utility.yul\":5182:5215   */\n          swap2\n          pop\n            /* \"#utility.yul\":5237:5303   */\n          0xffffffffffffffffffffffffffffffffffffffffffffffffffffffffffffffff\n            /* \"#utility.yul\":5230:5235   */\n          dup3\n            /* \"#utility.yul\":5227:5304   */\n          eq\n            /* \"#utility.yul\":5224:5327   */\n          iszero\n          tag_160\n          jumpi\n            /* \"#utility.yul\":5307:5325   */\n          tag_161\n          tag_97\n          jump\t// in\n        tag_161:\n            /* \"#utility.yul\":5224:5327   */\n        tag_160:\n            /* \"#utility.yul\":5354:5355   */\n          0x01\n            /* \"#utility.yul\":5347:5352   */\n          dup3\n            /* \"#utility.yul\":5343:5356   */\n          add\n            /* \"#utility.yul\":5336:5356   */\n          swap1\n          pop\n            /* \"#utility.yul\":5129:5362   */\n          swap2\n          swap1\n          pop\n          jump\t// out\n\n        auxdata: 0xa26469706673582212200647c782d0e598eb579e7371187c7731cf59a7791a3f2f30cb0dd153bc9bb0cf64736f6c634300080a0033\n    }\n}\n","bytecode":{"linkReferences":{},"object":"60806040523480156200001157600080fd5b50604051620046df380380620046df833981810160405281019062000037919062000449565b336000806101000a81548173ffffffffffffffffffffffffffffffffffffffff021916908373ffffffffffffffffffffffffffffffffffffffff16021790555060008054906101000a900473ffffffffffffffffffffffffffffffffffffffff16604051620000a690620003df565b620000b29190620004c0565b604051809103906000f080158015620000cf573d6000803e3d6000fd5b50600260006101000a81548173ffffffffffffffffffffffffffffffffffffffff021916908373ffffffffffffffffffffffffffffffffffffffff16021790555060008054906101000a900473ffffffffffffffffffffffffffffffffffffffff166040516200013f90620003ed565b6200014b9190620004c0565b604051809103906000f08015801562000168573d6000803e3d6000fd5b50600360006101000a81548173ffffffffffffffffffffffffffffffffffffffff021916908373ffffffffffffffffffffffffffffffffffffffff16021790555060008054906101000a900473ffffffffffffffffffffffffffffffffffffffff16604051620001d890620003fb565b620001e49190620004c0565b604051809103906000f08015801562000201573d6000803e3d6000fd5b50600460006101000a81548173ffffffffffffffffffffffffffffffffffffffff021916908373ffffffffffffffffffffffffffffffffffffffff1602179055506005600260009054906101000a900473ffffffffffffffffffffffffffffffffffffffff169080600181540180825580915050600190039060005260206000200160009091909190916101000a81548173ffffffffffffffffffffffffffffffffffffffff021916908373ffffffffffffffffffffffffffffffffffffffff1602179055506005600360009054906101000a900473ffffffffffffffffffffffffffffffffffffffff169080600181540180825580915050600190039060005260206000200160009091909190916101000a81548173ffffffffffffffffffffffffffffffffffffffff021916908373ffffffffffffffffffffffffffffffffffffffff1602179055506005600460009054906101000a900473ffffffffffffffffffffffffffffffffffffffff169080600181540180825580915050600190039060005260206000200160009091909190916101000a81548173ffffffffffffffffffffffffffffffffffffffff021916908373ffffffffffffffffffffffffffffffffffffffff1602179055508060068190555050620004dd565b6110fa8062001a3f83390190565b610e6c8062002b3983390190565b610d3a80620039a583390190565b600080fd5b6000819050919050565b62000423816200040e565b81146200042f57600080fd5b50565b600081519050620004438162000418565b92915050565b60006020828403121562000462576200046162000409565b5b6000620004728482850162000432565b91505092915050565b600073ffffffffffffffffffffffffffffffffffffffff82169050919050565b6000620004a8826200047b565b9050919050565b620004ba816200049b565b82525050565b6000602082019050620004d76000830184620004af565b92915050565b61155280620004ed6000396000f3fe6080604052600436106100865760003560e01c806390272dff1161005957806390272dff14610117578063c162d7da14610142578063ca5140c91461016d578063d2c07e2014610196578063fe69494b146101bf57610086565b80631973db461461008b578063687564ae146100a75780637e490a9e146100d05780638da5cb5b146100ec575b600080fd5b6100a560048036038101906100a09190610dcb565b6101e8565b005b3480156100b357600080fd5b506100ce60048036038101906100c99190610fc2565b610477565b005b6100ea60048036038101906100e59190611061565b610568565b005b3480156100f857600080fd5b50610101610909565b60405161010e919061109d565b60405180910390f35b34801561012357600080fd5b5061012c61092d565b60405161013991906110c7565b60405180910390f35b34801561014e57600080fd5b50610157610933565b60405161016491906111a0565b60405180910390f35b34801561017957600080fd5b50610194600480360381019061018f9190611061565b610a19565b005b3480156101a257600080fd5b506101bd60048036038101906101b891906111c2565b610bdd565b005b3480156101cb57600080fd5b506101e660048036038101906101e19190611275565b610ccf565b005b600360009054906101000a900473ffffffffffffffffffffffffffffffffffffffff1673ffffffffffffffffffffffffffffffffffffffff1663ecded204336040518263ffffffff1660e01b8152600401610243919061109d565b602060405180830381865afa158015610260573d6000803e3d6000fd5b505050506040513d601f19601f8201168201806040525081019061028491906112da565b61028d57600080fd5b6000600260009054906101000a900473ffffffffffffffffffffffffffffffffffffffff1673ffffffffffffffffffffffffffffffffffffffff16636c230eef856040518263ffffffff1660e01b81526004016102ea91906110c7565b602060405180830381865afa158015610307573d6000803e3d6000fd5b505050506040513d601f19601f8201168201806040525081019061032b919061131c565b905034811461033957600080fd5b6000600460009054906101000a900473ffffffffffffffffffffffffffffffffffffffff1673ffffffffffffffffffffffffffffffffffffffff1663a46d8ac7338787876040518563ffffffff1660e01b815260040161039c9493929190611349565b6020604051808303816000875af11580156103bb573d6000803e3d6000fd5b505050506040513d601f19601f820116820180604052508101906103df919061131c565b9050600360009054906101000a900473ffffffffffffffffffffffffffffffffffffffff1673ffffffffffffffffffffffffffffffffffffffff1663e597ef1233836040518363ffffffff1660e01b815260040161043e92919061138e565b600060405180830381600087803b15801561045857600080fd5b505af115801561046c573d6000803e3d6000fd5b505050505050505050565b3373ffffffffffffffffffffffffffffffffffffffff1660008054906101000a900473ffffffffffffffffffffffffffffffffffffffff1673ffffffffffffffffffffffffffffffffffffffff16146104cf57600080fd5b600260009054906101000a900473ffffffffffffffffffffffffffffffffffffffff1673ffffffffffffffffffffffffffffffffffffffff1663687564ae858585856040518563ffffffff1660e01b8152600401610530949392919061143f565b600060405180830381600087803b15801561054a57600080fd5b505af115801561055e573d6000803e3d6000fd5b5050505050505050565b600360009054906101000a900473ffffffffffffffffffffffffffffffffffffffff1673ffffffffffffffffffffffffffffffffffffffff1663ecded204336040518263ffffffff1660e01b81526004016105c3919061109d565b602060405180830381865afa1580156105e0573d6000803e3d6000fd5b505050506040513d601f19601f8201168201806040525081019061060491906112da565b61060d57600080fd5b6000600460009054906101000a900473ffffffffffffffffffffffffffffffffffffffff1673ffffffffffffffffffffffffffffffffffffffff16631ce06944836040518263ffffffff1660e01b815260040161066a91906110c7565b602060405180830381865afa158015610687573d6000803e3d6000fd5b505050506040513d601f19601f820116820180604052508101906106ab919061131c565b90506000600460009054906101000a900473ffffffffffffffffffffffffffffffffffffffff1673ffffffffffffffffffffffffffffffffffffffff166367615ad5846040518263ffffffff1660e01b815260040161070a91906110c7565b602060405180830381865afa158015610727573d6000803e3d6000fd5b505050506040513d601f19601f8201168201806040525081019061074b919061131c565b905034821461075957600080fd5b600460009054906101000a900473ffffffffffffffffffffffffffffffffffffffff1673ffffffffffffffffffffffffffffffffffffffff1663ab21a2be84336040518363ffffffff1660e01b81526004016107b6929190611492565b600060405180830381600087803b1580156107d057600080fd5b505af11580156107e4573d6000803e3d6000fd5b50505050600360009054906101000a900473ffffffffffffffffffffffffffffffffffffffff1673ffffffffffffffffffffffffffffffffffffffff1663a5a9c51833856040518363ffffffff1660e01b815260040161084592919061138e565b600060405180830381600087803b15801561085f57600080fd5b505af1158015610873573d6000803e3d6000fd5b50505050600260009054906101000a900473ffffffffffffffffffffffffffffffffffffffff1673ffffffffffffffffffffffffffffffffffffffff16630a6b2a25826040518263ffffffff1660e01b81526004016108d291906110c7565b600060405180830381600087803b1580156108ec57600080fd5b505af1158015610900573d6000803e3d6000fd5b50505050505050565b60008054906101000a900473ffffffffffffffffffffffffffffffffffffffff1681565b60065481565b60603373ffffffffffffffffffffffffffffffffffffffff1660008054906101000a900473ffffffffffffffffffffffffffffffffffffffff1673ffffffffffffffffffffffffffffffffffffffff161461098d57600080fd5b6005805480602002602001604051908101604052809291908181526020018280548015610a0f57602002820191906000526020600020905b8160009054906101000a900473ffffffffffffffffffffffffffffffffffffffff1673ffffffffffffffffffffffffffffffffffffffff16815260200190600101908083116109c5575b5050505050905090565b600360009054906101000a900473ffffffffffffffffffffffffffffffffffffffff1673ffffffffffffffffffffffffffffffffffffffff1663ecded204336040518263ffffffff1660e01b8152600401610a74919061109d565b602060405180830381865afa158015610a91573d6000803e3d6000fd5b505050506040513d601f19601f82011682018060405250810190610ab591906112da565b610abe57600080fd5b600460009054906101000a900473ffffffffffffffffffffffffffffffffffffffff1673ffffffffffffffffffffffffffffffffffffffff1663ca5140c9826040518263ffffffff1660e01b8152600401610b1991906110c7565b600060405180830381600087803b158015610b3357600080fd5b505af1158015610b47573d6000803e3d6000fd5b50505050600360009054906101000a900473ffffffffffffffffffffffffffffffffffffffff1673ffffffffffffffffffffffffffffffffffffffff16634a09db4f33836040518363ffffffff1660e01b8152600401610ba892919061138e565b600060405180830381600087803b158015610bc257600080fd5b505af1158015610bd6573d6000803e3d6000fd5b5050505050565b600160003373ffffffffffffffffffffffffffffffffffffffff1673ffffffffffffffffffffffffffffffffffffffff16815260200190815260200160002060009054906101000a900460ff16610c3357600080fd5b600260009054906101000a900473ffffffffffffffffffffffffffffffffffffffff1673ffffffffffffffffffffffffffffffffffffffff1663d2c07e2086868686866040518663ffffffff1660e01b8152600401610c969594939291906114bb565b600060405180830381600087803b158015610cb057600080fd5b505af1158015610cc4573d6000803e3d6000fd5b505050505050505050565b3373ffffffffffffffffffffffffffffffffffffffff1660008054906101000a900473ffffffffffffffffffffffffffffffffffffffff1673ffffffffffffffffffffffffffffffffffffffff1614610d2757600080fd5b60018060008373ffffffffffffffffffffffffffffffffffffffff1673ffffffffffffffffffffffffffffffffffffffff16815260200190815260200160002060006101000a81548160ff02191690831515021790555050565b6000604051905090565b600080fd5b600080fd5b6000819050919050565b610da881610d95565b8114610db357600080fd5b50565b600081359050610dc581610d9f565b92915050565b600080600060608486031215610de457610de3610d8b565b5b6000610df286828701610db6565b9350506020610e0386828701610db6565b9250506040610e1486828701610db6565b9150509250925092565b600080fd5b600080fd5b6000601f19601f8301169050919050565b7f4e487b7100000000000000000000000000000000000000000000000000000000600052604160045260246000fd5b610e7182610e28565b810181811067ffffffffffffffff82111715610e9057610e8f610e39565b5b80604052505050565b6000610ea3610d81565b9050610eaf8282610e68565b919050565b600067ffffffffffffffff821115610ecf57610ece610e39565b5b610ed882610e28565b9050602081019050919050565b82818337600083830152505050565b6000610f07610f0284610eb4565b610e99565b905082815260208101848484011115610f2357610f22610e23565b5b610f2e848285610ee5565b509392505050565b600082601f830112610f4b57610f4a610e1e565b5b8135610f5b848260208601610ef4565b91505092915050565b600073ffffffffffffffffffffffffffffffffffffffff82169050919050565b6000610f8f82610f64565b9050919050565b610f9f81610f84565b8114610faa57600080fd5b50565b600081359050610fbc81610f96565b92915050565b60008060008060808587031215610fdc57610fdb610d8b565b5b600085013567ffffffffffffffff811115610ffa57610ff9610d90565b5b61100687828801610f36565b945050602085013567ffffffffffffffff81111561102757611026610d90565b5b61103387828801610f36565b935050604061104487828801610db6565b925050606061105587828801610fad565b91505092959194509250565b60006020828403121561107757611076610d8b565b5b600061108584828501610db6565b91505092915050565b61109781610f84565b82525050565b60006020820190506110b2600083018461108e565b92915050565b6110c181610d95565b82525050565b60006020820190506110dc60008301846110b8565b92915050565b600081519050919050565b600082825260208201905092915050565b6000819050602082019050919050565b61111781610f84565b82525050565b6000611129838361110e565b60208301905092915050565b6000602082019050919050565b600061114d826110e2565b61115781856110ed565b9350611162836110fe565b8060005b8381101561119357815161117a888261111d565b975061118583611135565b925050600181019050611166565b5085935050505092915050565b600060208201905081810360008301526111ba8184611142565b905092915050565b600080600080600060a086880312156111de576111dd610d8b565b5b60006111ec88828901610db6565b955050602086013567ffffffffffffffff81111561120d5761120c610d90565b5b61121988828901610f36565b945050604086013567ffffffffffffffff81111561123a57611239610d90565b5b61124688828901610f36565b935050606061125788828901610db6565b925050608061126888828901610fad565b9150509295509295909350565b60006020828403121561128b5761128a610d8b565b5b600061129984828501610fad565b91505092915050565b60008115159050919050565b6112b7816112a2565b81146112c257600080fd5b50565b6000815190506112d4816112ae565b92915050565b6000602082840312156112f0576112ef610d8b565b5b60006112fe848285016112c5565b91505092915050565b60008151905061131681610d9f565b92915050565b60006020828403121561133257611331610d8b565b5b600061134084828501611307565b91505092915050565b600060808201905061135e600083018761108e565b61136b60208301866110b8565b61137860408301856110b8565b61138560608301846110b8565b95945050505050565b60006040820190506113a3600083018561108e565b6113b060208301846110b8565b9392505050565b600081519050919050565b600082825260208201905092915050565b60005b838110156113f15780820151818401526020810190506113d6565b83811115611400576000848401525b50505050565b6000611411826113b7565b61141b81856113c2565b935061142b8185602086016113d3565b61143481610e28565b840191505092915050565b600060808201905081810360008301526114598187611406565b9050818103602083015261146d8186611406565b905061147c60408301856110b8565b611489606083018461108e565b95945050505050565b60006040820190506114a760008301856110b8565b6114b4602083018461108e565b9392505050565b600060a0820190506114d060008301886110b8565b81810360208301526114e28187611406565b905081810360408301526114f68186611406565b905061150560608301856110b8565b611512608083018461108e565b969550505050505056fea2646970667358221220de864dd85ac25686511e22deca94c5c9a97df85831573c857a92e2a8d92333bb64736f6c634300080a003360806040523480156200001157600080fd5b50604051620010fa380380620010fa833981810160405281019062000037919062000129565b806000806101000a81548173ffffffffffffffffffffffffffffffffffffffff021916908373ffffffffffffffffffffffffffffffffffffffff16021790555033600160006101000a81548173ffffffffffffffffffffffffffffffffffffffff021916908373ffffffffffffffffffffffffffffffffffffffff160217905550506200015b565b600080fd5b600073ffffffffffffffffffffffffffffffffffffffff82169050919050565b6000620000f182620000c4565b9050919050565b6200010381620000e4565b81146200010f57600080fd5b50565b6000815190506200012381620000f8565b92915050565b600060208284031215620001425762000141620000bf565b5b6000620001528482850162000112565b91505092915050565b610f8f806200016b6000396000f3fe608060405234801561001057600080fd5b50600436106100885760003560e01c806398fbce791161005b57806398fbce7914610113578063d2c07e2014610147578063d9ff0cf114610163578063f76ebe1c1461019757610088565b80630a6b2a251461008d578063687564ae146100a95780636c230eef146100c55780638da5cb5b146100f5575b600080fd5b6100a760048036038101906100a29190610a20565b6101b5565b005b6100c360048036038101906100be9190610bf1565b6101ea565b005b6100df60048036038101906100da9190610a20565b610300565b6040516100ec9190610c9f565b60405180910390f35b6100fd6104be565b60405161010a9190610cc9565b60405180910390f35b61012d60048036038101906101289190610a20565b6104e2565b60405161013e959493929190610d6c565b60405180910390f35b610161600480360381019061015c9190610dcd565b6106c6565b005b61017d60048036038101906101789190610a20565b6107c7565b60405161018e959493929190610d6c565b60405180910390f35b61019f61092d565b6040516101ac9190610c9f565b60405180910390f35b60006003600083815260200190815260200160002090508060030160008154809291906101e190610eaf565b91905055505050565b3373ffffffffffffffffffffffffffffffffffffffff16600160009054906101000a900473ffffffffffffffffffffffffffffffffffffffff1673ffffffffffffffffffffffffffffffffffffffff161461024457600080fd5b6000600360006002600081548092919061025d90610eaf565b919050558152602001908152602001600020905084816000019080519060200190610289929190610933565b50838160010190805190602001906102a2929190610933565b5082816002018190555060008160030181905550818160040160006101000a81548173ffffffffffffffffffffffffffffffffffffffff021916908373ffffffffffffffffffffffffffffffffffffffff1602179055505050505050565b600080600360008481526020019081526020016000206040518060a001604052908160008201805461033190610f27565b80601f016020809104026020016040519081016040528092919081815260200182805461035d90610f27565b80156103aa5780601f1061037f576101008083540402835291602001916103aa565b820191906000526020600020905b81548152906001019060200180831161038d57829003601f168201915b505050505081526020016001820180546103c390610f27565b80601f01602080910402602001604051908101604052809291908181526020018280546103ef90610f27565b801561043c5780601f106104115761010080835404028352916020019161043c565b820191906000526020600020905b81548152906001019060200180831161041f57829003601f168201915b5050505050815260200160028201548152602001600382015481526020016004820160009054906101000a900473ffffffffffffffffffffffffffffffffffffffff1673ffffffffffffffffffffffffffffffffffffffff1673ffffffffffffffffffffffffffffffffffffffff168152505090508060400151915050919050565b60008054906101000a900473ffffffffffffffffffffffffffffffffffffffff1681565b606080600080600080600360008881526020019081526020016000206040518060a001604052908160008201805461051990610f27565b80601f016020809104026020016040519081016040528092919081815260200182805461054590610f27565b80156105925780601f1061056757610100808354040283529160200191610592565b820191906000526020600020905b81548152906001019060200180831161057557829003601f168201915b505050505081526020016001820180546105ab90610f27565b80601f01602080910402602001604051908101604052809291908181526020018280546105d790610f27565b80156106245780601f106105f957610100808354040283529160200191610624565b820191906000526020600020905b81548152906001019060200180831161060757829003601f168201915b5050505050815260200160028201548152602001600382015481526020016004820160009054906101000a900473ffffffffffffffffffffffffffffffffffffffff1673ffffffffffffffffffffffffffffffffffffffff1673ffffffffffffffffffffffffffffffffffffffff1681525050905080600001518160200151826040015183606001518460800151955095509550955095505091939590929450565b3373ffffffffffffffffffffffffffffffffffffffff16600160009054906101000a900473ffffffffffffffffffffffffffffffffffffffff1673ffffffffffffffffffffffffffffffffffffffff161461072057600080fd5b60006003600087815260200190815260200160002090508481600001908051906020019061074f929190610933565b5083816001019080519060200190610768929190610933565b5082816002018190555060008160030181905550818160040160006101000a81548173ffffffffffffffffffffffffffffffffffffffff021916908373ffffffffffffffffffffffffffffffffffffffff160217905550505050505050565b60036020528060005260406000206000915090508060000180546107ea90610f27565b80601f016020809104026020016040519081016040528092919081815260200182805461081690610f27565b80156108635780601f1061083857610100808354040283529160200191610863565b820191906000526020600020905b81548152906001019060200180831161084657829003601f168201915b50505050509080600101805461087890610f27565b80601f01602080910402602001604051908101604052809291908181526020018280546108a490610f27565b80156108f15780601f106108c6576101008083540402835291602001916108f1565b820191906000526020600020905b8154815290600101906020018083116108d457829003601f168201915b5050505050908060020154908060030154908060040160009054906101000a900473ffffffffffffffffffffffffffffffffffffffff16905085565b60025481565b82805461093f90610f27565b90600052602060002090601f01602090048101928261096157600085556109a8565b82601f1061097a57805160ff19168380011785556109a8565b828001600101855582156109a8579182015b828111156109a757825182559160200191906001019061098c565b5b5090506109b591906109b9565b5090565b5b808211156109d25760008160009055506001016109ba565b5090565b6000604051905090565b600080fd5b600080fd5b6000819050919050565b6109fd816109ea565b8114610a0857600080fd5b50565b600081359050610a1a816109f4565b92915050565b600060208284031215610a3657610a356109e0565b5b6000610a4484828501610a0b565b91505092915050565b600080fd5b600080fd5b6000601f19601f8301169050919050565b7f4e487b7100000000000000000000000000000000000000000000000000000000600052604160045260246000fd5b610aa082610a57565b810181811067ffffffffffffffff82111715610abf57610abe610a68565b5b80604052505050565b6000610ad26109d6565b9050610ade8282610a97565b919050565b600067ffffffffffffffff821115610afe57610afd610a68565b5b610b0782610a57565b9050602081019050919050565b82818337600083830152505050565b6000610b36610b3184610ae3565b610ac8565b905082815260208101848484011115610b5257610b51610a52565b5b610b5d848285610b14565b509392505050565b600082601f830112610b7a57610b79610a4d565b5b8135610b8a848260208601610b23565b91505092915050565b600073ffffffffffffffffffffffffffffffffffffffff82169050919050565b6000610bbe82610b93565b9050919050565b610bce81610bb3565b8114610bd957600080fd5b50565b600081359050610beb81610bc5565b92915050565b60008060008060808587031215610c0b57610c0a6109e0565b5b600085013567ffffffffffffffff811115610c2957610c286109e5565b5b610c3587828801610b65565b945050602085013567ffffffffffffffff811115610c5657610c556109e5565b5b610c6287828801610b65565b9350506040610c7387828801610a0b565b9250506060610c8487828801610bdc565b91505092959194509250565b610c99816109ea565b82525050565b6000602082019050610cb46000830184610c90565b92915050565b610cc381610bb3565b82525050565b6000602082019050610cde6000830184610cba565b92915050565b600081519050919050565b600082825260208201905092915050565b60005b83811015610d1e578082015181840152602081019050610d03565b83811115610d2d576000848401525b50505050565b6000610d3e82610ce4565b610d488185610cef565b9350610d58818560208601610d00565b610d6181610a57565b840191505092915050565b600060a0820190508181036000830152610d868188610d33565b90508181036020830152610d9a8187610d33565b9050610da96040830186610c90565b610db66060830185610c90565b610dc36080830184610cba565b9695505050505050565b600080600080600060a08688031215610de957610de86109e0565b5b6000610df788828901610a0b565b955050602086013567ffffffffffffffff811115610e1857610e176109e5565b5b610e2488828901610b65565b945050604086013567ffffffffffffffff811115610e4557610e446109e5565b5b610e5188828901610b65565b9350506060610e6288828901610a0b565b9250506080610e7388828901610bdc565b9150509295509295909350565b7f4e487b7100000000000000000000000000000000000000000000000000000000600052601160045260246000fd5b6000610eba826109ea565b91507fffffffffffffffffffffffffffffffffffffffffffffffffffffffffffffffff821415610eed57610eec610e80565b5b600182019050919050565b7f4e487b7100000000000000000000000000000000000000000000000000000000600052602260045260246000fd5b60006002820490506001821680610f3f57607f821691505b60208210811415610f5357610f52610ef8565b5b5091905056fea264697066735822122088bf4425c6ec98b6476bdbe90c6516b5c4388c5036cccd3aae4526080b9c1a5e64736f6c634300080a0033608060405234801561001057600080fd5b50604051610e6c380380610e6c8339818101604052810190610032919061011c565b806000806101000a81548173ffffffffffffffffffffffffffffffffffffffff021916908373ffffffffffffffffffffffffffffffffffffffff16021790555033600160006101000a81548173ffffffffffffffffffffffffffffffffffffffff021916908373ffffffffffffffffffffffffffffffffffffffff16021790555050610149565b600080fd5b600073ffffffffffffffffffffffffffffffffffffffff82169050919050565b60006100e9826100be565b9050919050565b6100f9816100de565b811461010457600080fd5b50565b600081519050610116816100f0565b92915050565b600060208284031215610132576101316100b9565b5b600061014084828501610107565b91505092915050565b610d14806101586000396000f3fe608060405234801561001057600080fd5b50600436106100b45760003560e01c8063a5a9c51811610071578063a5a9c51814610179578063a87430ba14610195578063e3e1f001146101c9578063e597ef12146101e7578063ecded20414610203578063f3c95c6014610233576100b4565b80634172fb89146100b95780634420e486146100e95780634a09db4f146101055780636350280e146101215780637c4dd96d1461013f5780638da5cb5b1461015b575b600080fd5b6100d360048036038101906100ce9190610abc565b610263565b6040516100e09190610b04565b60405180910390f35b61010360048036038101906100fe9190610abc565b6102b9565b005b61011f600480360381019061011a9190610b55565b61046a565b005b6101296105aa565b6040516101369190610ba4565b60405180910390f35b61015960048036038101906101549190610abc565b6105b0565b005b610163610665565b6040516101709190610bce565b60405180910390f35b610193600480360381019061018e9190610b55565b610689565b005b6101af60048036038101906101aa9190610abc565b61082c565b6040516101c0959493929190610be9565b60405180910390f35b6101d1610882565b6040516101de9190610ba4565b60405180910390f35b61020160048036038101906101fc9190610b55565b610888565b005b61021d60048036038101906102189190610abc565b6109e3565b60405161022a9190610b04565b60405180910390f35b61024d60048036038101906102489190610abc565b610a39565b60405161025a9190610b04565b60405180910390f35b6000600660008373ffffffffffffffffffffffffffffffffffffffff1673ffffffffffffffffffffffffffffffffffffffff16815260200190815260200160002060009054906101000a900460ff169050919050565b3373ffffffffffffffffffffffffffffffffffffffff16600160009054906101000a900473ffffffffffffffffffffffffffffffffffffffff1673ffffffffffffffffffffffffffffffffffffffff161461031357600080fd5b600460008273ffffffffffffffffffffffffffffffffffffffff1673ffffffffffffffffffffffffffffffffffffffff16815260200190815260200160002060009054906101000a900460ff161561036a57600080fd5b6001600460008373ffffffffffffffffffffffffffffffffffffffff1673ffffffffffffffffffffffffffffffffffffffff16815260200190815260200160002060006101000a81548160ff0219169083151502179055506000600360008373ffffffffffffffffffffffffffffffffffffffff1673ffffffffffffffffffffffffffffffffffffffff1681526020019081526020016000209050818160000160006101000a81548173ffffffffffffffffffffffffffffffffffffffff021916908373ffffffffffffffffffffffffffffffffffffffff1602179055506000816002018190555060008160030181905550600081600701819055505050565b3373ffffffffffffffffffffffffffffffffffffffff16600160009054906101000a900473ffffffffffffffffffffffffffffffffffffffff1673ffffffffffffffffffffffffffffffffffffffff16146104c457600080fd5b600460008373ffffffffffffffffffffffffffffffffffffffff1673ffffffffffffffffffffffffffffffffffffffff16815260200190815260200160002060009054906101000a900460ff1661051a57600080fd5b6000600360008473ffffffffffffffffffffffffffffffffffffffff1673ffffffffffffffffffffffffffffffffffffffff1681526020019081526020016000209050600081600601600084815260200190815260200160002060006101000a81548160ff0219169083151502179055508060020160008154809291906105a090610c6b565b9190505550505050565b60055481565b3373ffffffffffffffffffffffffffffffffffffffff16600160009054906101000a900473ffffffffffffffffffffffffffffffffffffffff1673ffffffffffffffffffffffffffffffffffffffff161461060a57600080fd5b6001600660008373ffffffffffffffffffffffffffffffffffffffff1673ffffffffffffffffffffffffffffffffffffffff16815260200190815260200160002060006101000a81548160ff02191690831515021790555050565b60008054906101000a900473ffffffffffffffffffffffffffffffffffffffff1681565b3373ffffffffffffffffffffffffffffffffffffffff16600160009054906101000a900473ffffffffffffffffffffffffffffffffffffffff1673ffffffffffffffffffffffffffffffffffffffff16146106e357600080fd5b600460008373ffffffffffffffffffffffffffffffffffffffff1673ffffffffffffffffffffffffffffffffffffffff16815260200190815260200160002060009054906101000a900460ff1661073957600080fd5b6000600360008473ffffffffffffffffffffffffffffffffffffffff1673ffffffffffffffffffffffffffffffffffffffff168152602001908152602001600020905080600401829080600181540180825580915050600190039060005260206000200160009091909190915055806003015481600501600084815260200190815260200160002081905550600181600601600084815260200190815260200160002060006101000a81548160ff02191690831515021790555080600201600081548092919061080890610c95565b919050555080600301600081548092919061082290610c95565b9190505550505050565b60036020528060005260406000206000915090508060000160009054906101000a900473ffffffffffffffffffffffffffffffffffffffff16908060010154908060020154908060030154908060070154905085565b60025481565b3373ffffffffffffffffffffffffffffffffffffffff16600160009054906101000a900473ffffffffffffffffffffffffffffffffffffffff1673ffffffffffffffffffffffffffffffffffffffff16146108e257600080fd5b600460008373ffffffffffffffffffffffffffffffffffffffff1673ffffffffffffffffffffffffffffffffffffffff16815260200190815260200160002060009054906101000a900460ff1661093857600080fd5b6000600360008473ffffffffffffffffffffffffffffffffffffffff1673ffffffffffffffffffffffffffffffffffffffff1681526020019081526020016000209050806008018290806001815401808255809150506001900390600052602060002001600090919091909150558060070154816009016000848152602001908152602001600020819055508060070160008154809291906109d990610c95565b9190505550505050565b6000600460008373ffffffffffffffffffffffffffffffffffffffff1673ffffffffffffffffffffffffffffffffffffffff16815260200190815260200160002060009054906101000a900460ff169050919050565b60046020528060005260406000206000915054906101000a900460ff1681565b600080fd5b600073ffffffffffffffffffffffffffffffffffffffff82169050919050565b6000610a8982610a5e565b9050919050565b610a9981610a7e565b8114610aa457600080fd5b50565b600081359050610ab681610a90565b92915050565b600060208284031215610ad257610ad1610a59565b5b6000610ae084828501610aa7565b91505092915050565b60008115159050919050565b610afe81610ae9565b82525050565b6000602082019050610b196000830184610af5565b92915050565b6000819050919050565b610b3281610b1f565b8114610b3d57600080fd5b50565b600081359050610b4f81610b29565b92915050565b60008060408385031215610b6c57610b6b610a59565b5b6000610b7a85828601610aa7565b9250506020610b8b85828601610b40565b9150509250929050565b610b9e81610b1f565b82525050565b6000602082019050610bb96000830184610b95565b92915050565b610bc881610a7e565b82525050565b6000602082019050610be36000830184610bbf565b92915050565b600060a082019050610bfe6000830188610bbf565b610c0b6020830187610b95565b610c186040830186610b95565b610c256060830185610b95565b610c326080830184610b95565b9695505050505050565b7f4e487b7100000000000000000000000000000000000000000000000000000000600052601160045260246000fd5b6000610c7682610b1f565b91506000821415610c8a57610c89610c3c565b5b600182039050919050565b6000610ca082610b1f565b91507fffffffffffffffffffffffffffffffffffffffffffffffffffffffffffffffff821415610cd357610cd2610c3c565b5b60018201905091905056fea264697066735822122047efaa3ac1347b01f95836c6072ad459d3d3b128912028ecd36b7218de40791e64736f6c634300080a0033608060405234801561001057600080fd5b50604051610d3a380380610d3a8339818101604052810190610032919061011c565b806000806101000a81548173ffffffffffffffffffffffffffffffffffffffff021916908373ffffffffffffffffffffffffffffffffffffffff16021790555033600160006101000a81548173ffffffffffffffffffffffffffffffffffffffff021916908373ffffffffffffffffffffffffffffffffffffffff16021790555050610149565b600080fd5b600073ffffffffffffffffffffffffffffffffffffffff82169050919050565b60006100e9826100be565b9050919050565b6100f9816100de565b811461010457600080fd5b50565b600081519050610116816100f0565b92915050565b600060208284031215610132576101316100b9565b5b600061014084828501610107565b91505092915050565b610be2806101586000396000f3fe608060405234801561001057600080fd5b506004361061009e5760003560e01c8063a46d8ac711610066578063a46d8ac71461015b578063ab21a2be1461018b578063ca5140c9146101a7578063ef228c92146101c3578063f6b4dfb4146101df5761009e565b80631ce06944146100a357806367615ad5146100d35780638da5cb5b146101035780638dbbfbde14610121578063921c47b11461013d575b600080fd5b6100bd60048036038101906100b891906108e3565b6101fd565b6040516100ca919061091f565b60405180910390f35b6100ed60048036038101906100e891906108e3565b61031c565b6040516100fa919061091f565b60405180910390f35b61010b61043b565b604051610118919061097b565b60405180910390f35b61013b60048036038101906101369190610996565b61045f565b005b6101456104f8565b604051610152919061091f565b60405180910390f35b61017560048036038101906101709190610a15565b6104fe565b604051610182919061091f565b60405180910390f35b6101a560048036038101906101a09190610a7c565b610664565b005b6101c160048036038101906101bc91906108e3565b61072d565b005b6101dd60048036038101906101d89190610af4565b6107e0565b005b6101e7610882565b6040516101f4919061097b565b60405180910390f35b600080600360008481526020019081526020016000206040518060e0016040529081600082015481526020016001820160009054906101000a900473ffffffffffffffffffffffffffffffffffffffff1673ffffffffffffffffffffffffffffffffffffffff1673ffffffffffffffffffffffffffffffffffffffff168152602001600282015481526020016003820160009054906101000a900473ffffffffffffffffffffffffffffffffffffffff1673ffffffffffffffffffffffffffffffffffffffff1673ffffffffffffffffffffffffffffffffffffffff1681526020016003820160149054906101000a900460ff161515151581526020016004820154815260200160058201548152505090508060c00151915050919050565b600080600360008481526020019081526020016000206040518060e0016040529081600082015481526020016001820160009054906101000a900473ffffffffffffffffffffffffffffffffffffffff1673ffffffffffffffffffffffffffffffffffffffff1673ffffffffffffffffffffffffffffffffffffffff168152602001600282015481526020016003820160009054906101000a900473ffffffffffffffffffffffffffffffffffffffff1673ffffffffffffffffffffffffffffffffffffffff1673ffffffffffffffffffffffffffffffffffffffff1681526020016003820160149054906101000a900460ff161515151581526020016004820154815260200160058201548152505090508060400151915050919050565b60008054906101000a900473ffffffffffffffffffffffffffffffffffffffff1681565b82600254811061046e57600080fd5b3373ffffffffffffffffffffffffffffffffffffffff16600160009054906101000a900473ffffffffffffffffffffffffffffffffffffffff1673ffffffffffffffffffffffffffffffffffffffff16146104c857600080fd5b60006003600086815260200190815260200160002090508381600401819055508281600501819055505050505050565b60025481565b60003373ffffffffffffffffffffffffffffffffffffffff16600160009054906101000a900473ffffffffffffffffffffffffffffffffffffffff1673ffffffffffffffffffffffffffffffffffffffff161461055a57600080fd5b600060036000600254815260200190815260200160002090506002548160000181905550848160020181905550858160010160006101000a81548173ffffffffffffffffffffffffffffffffffffffff021916908373ffffffffffffffffffffffffffffffffffffffff160217905550858160030160006101000a81548173ffffffffffffffffffffffffffffffffffffffff021916908373ffffffffffffffffffffffffffffffffffffffff16021790555060008160030160146101000a81548160ff0219169083151502179055508381600401819055508281600501819055506002600081548092919061064f90610b63565b91905055508060000154915050949350505050565b81600254811061067357600080fd5b3373ffffffffffffffffffffffffffffffffffffffff16600160009054906101000a900473ffffffffffffffffffffffffffffffffffffffff1673ffffffffffffffffffffffffffffffffffffffff16146106cd57600080fd5b6000600360008581526020019081526020016000209050828160030160006101000a81548173ffffffffffffffffffffffffffffffffffffffff021916908373ffffffffffffffffffffffffffffffffffffffff16021790555050505050565b80600254811061073c57600080fd5b3373ffffffffffffffffffffffffffffffffffffffff16600160009054906101000a900473ffffffffffffffffffffffffffffffffffffffff1673ffffffffffffffffffffffffffffffffffffffff161461079657600080fd5b60006003600084815260200190815260200160002090506107db838260010160009054906101000a900473ffffffffffffffffffffffffffffffffffffffff16610664565b505050565b8160025481106107ef57600080fd5b3373ffffffffffffffffffffffffffffffffffffffff16600160009054906101000a900473ffffffffffffffffffffffffffffffffffffffff1673ffffffffffffffffffffffffffffffffffffffff161461084957600080fd5b6000600360008581526020019081526020016000209050828160030160146101000a81548160ff02191690831515021790555050505050565b600160009054906101000a900473ffffffffffffffffffffffffffffffffffffffff1681565b600080fd5b6000819050919050565b6108c0816108ad565b81146108cb57600080fd5b50565b6000813590506108dd816108b7565b92915050565b6000602082840312156108f9576108f86108a8565b5b6000610907848285016108ce565b91505092915050565b610919816108ad565b82525050565b60006020820190506109346000830184610910565b92915050565b600073ffffffffffffffffffffffffffffffffffffffff82169050919050565b60006109658261093a565b9050919050565b6109758161095a565b82525050565b6000602082019050610990600083018461096c565b92915050565b6000806000606084860312156109af576109ae6108a8565b5b60006109bd868287016108ce565b93505060206109ce868287016108ce565b92505060406109df868287016108ce565b9150509250925092565b6109f28161095a565b81146109fd57600080fd5b50565b600081359050610a0f816109e9565b92915050565b60008060008060808587031215610a2f57610a2e6108a8565b5b6000610a3d87828801610a00565b9450506020610a4e878288016108ce565b9350506040610a5f878288016108ce565b9250506060610a70878288016108ce565b91505092959194509250565b60008060408385031215610a9357610a926108a8565b5b6000610aa1858286016108ce565b9250506020610ab285828601610a00565b9150509250929050565b60008115159050919050565b610ad181610abc565b8114610adc57600080fd5b50565b600081359050610aee81610ac8565b92915050565b60008060408385031215610b0b57610b0a6108a8565b5b6000610b19858286016108ce565b9250506020610b2a85828601610adf565b9150509250929050565b7f4e487b7100000000000000000000000000000000000000000000000000000000600052601160045260246000fd5b6000610b6e826108ad565b91507fffffffffffffffffffffffffffffffffffffffffffffffffffffffffffffffff821415610ba157610ba0610b34565b5b60018201905091905056fea26469706673582212200647c782d0e598eb579e7371187c7731cf59a7791a3f2f30cb0dd153bc9bb0cf64736f6c634300080a0033","opcodes":"PUSH1 0x80 PUSH1 0x40 MSTORE CALLVALUE DUP1 ISZERO PUSH3 0x11 JUMPI PUSH1 0x0 DUP1 REVERT JUMPDEST POP PUSH1 0x40 MLOAD PUSH3 0x46DF CODESIZE SUB DUP1 PUSH3 0x46DF DUP4 CODECOPY DUP2 DUP2 ADD PUSH1 0x40 MSTORE DUP2 ADD SWAP1 PUSH3 0x37 SWAP2 SWAP1 PUSH3 0x449 JUMP JUMPDEST CALLER PUSH1 0x0 DUP1 PUSH2 0x100 EXP DUP2 SLOAD DUP2 PUSH20 0xFFFFFFFFFFFFFFFFFFFFFFFFFFFFFFFFFFFFFFFF MUL NOT AND SWAP1 DUP4 PUSH20 0xFFFFFFFFFFFFFFFFFFFFFFFFFFFFFFFFFFFFFFFF AND MUL OR SWAP1 SSTORE POP PUSH1 0x0 DUP1 SLOAD SWAP1 PUSH2 0x100 EXP SWAP1 DIV PUSH20 0xFFFFFFFFFFFFFFFFFFFFFFFFFFFFFFFFFFFFFFFF AND PUSH1 0x40 MLOAD PUSH3 0xA6 SWAP1 PUSH3 0x3DF JUMP JUMPDEST PUSH3 0xB2 SWAP2 SWAP1 PUSH3 0x4C0 JUMP JUMPDEST PUSH1 0x40 MLOAD DUP1 SWAP2 SUB SWAP1 PUSH1 0x0 CREATE DUP1 ISZERO DUP1 ISZERO PUSH3 0xCF JUMPI RETURNDATASIZE PUSH1 0x0 DUP1 RETURNDATACOPY RETURNDATASIZE PUSH1 0x0 REVERT JUMPDEST POP PUSH1 0x2 PUSH1 0x0 PUSH2 0x100 EXP DUP2 SLOAD DUP2 PUSH20 0xFFFFFFFFFFFFFFFFFFFFFFFFFFFFFFFFFFFFFFFF MUL NOT AND SWAP1 DUP4 PUSH20 0xFFFFFFFFFFFFFFFFFFFFFFFFFFFFFFFFFFFFFFFF AND MUL OR SWAP1 SSTORE POP PUSH1 0x0 DUP1 SLOAD SWAP1 PUSH2 0x100 EXP SWAP1 DIV PUSH20 0xFFFFFFFFFFFFFFFFFFFFFFFFFFFFFFFFFFFFFFFF AND PUSH1 0x40 MLOAD PUSH3 0x13F SWAP1 PUSH3 0x3ED JUMP JUMPDEST PUSH3 0x14B SWAP2 SWAP1 PUSH3 0x4C0 JUMP JUMPDEST PUSH1 0x40 MLOAD DUP1 SWAP2 SUB SWAP1 PUSH1 0x0 CREATE DUP1 ISZERO DUP1 ISZERO PUSH3 0x168 JUMPI RETURNDATASIZE PUSH1 0x0 DUP1 RETURNDATACOPY RETURNDATASIZE PUSH1 0x0 REVERT JUMPDEST POP PUSH1 0x3 PUSH1 0x0 PUSH2 0x100 EXP DUP2 SLOAD DUP2 PUSH20 0xFFFFFFFFFFFFFFFFFFFFFFFFFFFFFFFFFFFFFFFF MUL NOT AND SWAP1 DUP4 PUSH20 0xFFFFFFFFFFFFFFFFFFFFFFFFFFFFFFFFFFFFFFFF AND MUL OR SWAP1 SSTORE POP PUSH1 0x0 DUP1 SLOAD SWAP1 PUSH2 0x100 EXP SWAP1 DIV PUSH20 0xFFFFFFFFFFFFFFFFFFFFFFFFFFFFFFFFFFFFFFFF AND PUSH1 0x40 MLOAD PUSH3 0x1D8 SWAP1 PUSH3 0x3FB JUMP JUMPDEST PUSH3 0x1E4 SWAP2 SWAP1 PUSH3 0x4C0 JUMP JUMPDEST PUSH1 0x40 MLOAD DUP1 SWAP2 SUB SWAP1 PUSH1 0x0 CREATE DUP1 ISZERO DUP1 ISZERO PUSH3 0x201 JUMPI RETURNDATASIZE PUSH1 0x0 DUP1 RETURNDATACOPY RETURNDATASIZE PUSH1 0x0 REVERT JUMPDEST POP PUSH1 0x4 PUSH1 0x0 PUSH2 0x100 EXP DUP2 SLOAD DUP2 PUSH20 0xFFFFFFFFFFFFFFFFFFFFFFFFFFFFFFFFFFFFFFFF MUL NOT AND SWAP1 DUP4 PUSH20 0xFFFFFFFFFFFFFFFFFFFFFFFFFFFFFFFFFFFFFFFF AND MUL OR SWAP1 SSTORE POP PUSH1 0x5 PUSH1 0x2 PUSH1 0x0 SWAP1 SLOAD SWAP1 PUSH2 0x100 EXP SWAP1 DIV PUSH20 0xFFFFFFFFFFFFFFFFFFFFFFFFFFFFFFFFFFFFFFFF AND SWAP1 DUP1 PUSH1 0x1 DUP2 SLOAD ADD DUP1 DUP3 SSTORE DUP1 SWAP2 POP POP PUSH1 0x1 SWAP1 SUB SWAP1 PUSH1 0x0 MSTORE PUSH1 0x20 PUSH1 0x0 KECCAK256 ADD PUSH1 0x0 SWAP1 SWAP2 SWAP1 SWAP2 SWAP1 SWAP2 PUSH2 0x100 EXP DUP2 SLOAD DUP2 PUSH20 0xFFFFFFFFFFFFFFFFFFFFFFFFFFFFFFFFFFFFFFFF MUL NOT AND SWAP1 DUP4 PUSH20 0xFFFFFFFFFFFFFFFFFFFFFFFFFFFFFFFFFFFFFFFF AND MUL OR SWAP1 SSTORE POP PUSH1 0x5 PUSH1 0x3 PUSH1 0x0 SWAP1 SLOAD SWAP1 PUSH2 0x100 EXP SWAP1 DIV PUSH20 0xFFFFFFFFFFFFFFFFFFFFFFFFFFFFFFFFFFFFFFFF AND SWAP1 DUP1 PUSH1 0x1 DUP2 SLOAD ADD DUP1 DUP3 SSTORE DUP1 SWAP2 POP POP PUSH1 0x1 SWAP1 SUB SWAP1 PUSH1 0x0 MSTORE PUSH1 0x20 PUSH1 0x0 KECCAK256 ADD PUSH1 0x0 SWAP1 SWAP2 SWAP1 SWAP2 SWAP1 SWAP2 PUSH2 0x100 EXP DUP2 SLOAD DUP2 PUSH20 0xFFFFFFFFFFFFFFFFFFFFFFFFFFFFFFFFFFFFFFFF MUL NOT AND SWAP1 DUP4 PUSH20 0xFFFFFFFFFFFFFFFFFFFFFFFFFFFFFFFFFFFFFFFF AND MUL OR SWAP1 SSTORE POP PUSH1 0x5 PUSH1 0x4 PUSH1 0x0 SWAP1 SLOAD SWAP1 PUSH2 0x100 EXP SWAP1 DIV PUSH20 0xFFFFFFFFFFFFFFFFFFFFFFFFFFFFFFFFFFFFFFFF AND SWAP1 DUP1 PUSH1 0x1 DUP2 SLOAD ADD DUP1 DUP3 SSTORE DUP1 SWAP2 POP POP PUSH1 0x1 SWAP1 SUB SWAP1 PUSH1 0x0 MSTORE PUSH1 0x20 PUSH1 0x0 KECCAK256 ADD PUSH1 0x0 SWAP1 SWAP2 SWAP1 SWAP2 SWAP1 SWAP2 PUSH2 0x100 EXP DUP2 SLOAD DUP2 PUSH20 0xFFFFFFFFFFFFFFFFFFFFFFFFFFFFFFFFFFFFFFFF MUL NOT AND SWAP1 DUP4 PUSH20 0xFFFFFFFFFFFFFFFFFFFFFFFFFFFFFFFFFFFFFFFF AND MUL OR SWAP1 SSTORE POP DUP1 PUSH1 0x6 DUP2 SWAP1 SSTORE POP POP PUSH3 0x4DD JUMP JUMPDEST PUSH2 0x10FA DUP1 PUSH3 0x1A3F DUP4 CODECOPY ADD SWAP1 JUMP JUMPDEST PUSH2 0xE6C DUP1 PUSH3 0x2B39 DUP4 CODECOPY ADD SWAP1 JUMP JUMPDEST PUSH2 0xD3A DUP1 PUSH3 0x39A5 DUP4 CODECOPY ADD SWAP1 JUMP JUMPDEST PUSH1 0x0 DUP1 REVERT JUMPDEST PUSH1 0x0 DUP2 SWAP1 POP SWAP2 SWAP1 POP JUMP JUMPDEST PUSH3 0x423 DUP2 PUSH3 0x40E JUMP JUMPDEST DUP2 EQ PUSH3 0x42F JUMPI PUSH1 0x0 DUP1 REVERT JUMPDEST POP JUMP JUMPDEST PUSH1 0x0 DUP2 MLOAD SWAP1 POP PUSH3 0x443 DUP2 PUSH3 0x418 JUMP JUMPDEST SWAP3 SWAP2 POP POP JUMP JUMPDEST PUSH1 0x0 PUSH1 0x20 DUP3 DUP5 SUB SLT ISZERO PUSH3 0x462 JUMPI PUSH3 0x461 PUSH3 0x409 JUMP JUMPDEST JUMPDEST PUSH1 0x0 PUSH3 0x472 DUP5 DUP3 DUP6 ADD PUSH3 0x432 JUMP JUMPDEST SWAP2 POP POP SWAP3 SWAP2 POP POP JUMP JUMPDEST PUSH1 0x0 PUSH20 0xFFFFFFFFFFFFFFFFFFFFFFFFFFFFFFFFFFFFFFFF DUP3 AND SWAP1 POP SWAP2 SWAP1 POP JUMP JUMPDEST PUSH1 0x0 PUSH3 0x4A8 DUP3 PUSH3 0x47B JUMP JUMPDEST SWAP1 POP SWAP2 SWAP1 POP JUMP JUMPDEST PUSH3 0x4BA DUP2 PUSH3 0x49B JUMP JUMPDEST DUP3 MSTORE POP POP JUMP JUMPDEST PUSH1 0x0 PUSH1 0x20 DUP3 ADD SWAP1 POP PUSH3 0x4D7 PUSH1 0x0 DUP4 ADD DUP5 PUSH3 0x4AF JUMP JUMPDEST SWAP3 SWAP2 POP POP JUMP JUMPDEST PUSH2 0x1552 DUP1 PUSH3 0x4ED PUSH1 0x0 CODECOPY PUSH1 0x0 RETURN INVALID PUSH1 0x80 PUSH1 0x40 MSTORE PUSH1 0x4 CALLDATASIZE LT PUSH2 0x86 JUMPI PUSH1 0x0 CALLDATALOAD PUSH1 0xE0 SHR DUP1 PUSH4 0x90272DFF GT PUSH2 0x59 JUMPI DUP1 PUSH4 0x90272DFF EQ PUSH2 0x117 JUMPI DUP1 PUSH4 0xC162D7DA EQ PUSH2 0x142 JUMPI DUP1 PUSH4 0xCA5140C9 EQ PUSH2 0x16D JUMPI DUP1 PUSH4 0xD2C07E20 EQ PUSH2 0x196 JUMPI DUP1 PUSH4 0xFE69494B EQ PUSH2 0x1BF JUMPI PUSH2 0x86 JUMP JUMPDEST DUP1 PUSH4 0x1973DB46 EQ PUSH2 0x8B JUMPI DUP1 PUSH4 0x687564AE EQ PUSH2 0xA7 JUMPI DUP1 PUSH4 0x7E490A9E EQ PUSH2 0xD0 JUMPI DUP1 PUSH4 0x8DA5CB5B EQ PUSH2 0xEC JUMPI JUMPDEST PUSH1 0x0 DUP1 REVERT JUMPDEST PUSH2 0xA5 PUSH1 0x4 DUP1 CALLDATASIZE SUB DUP2 ADD SWAP1 PUSH2 0xA0 SWAP2 SWAP1 PUSH2 0xDCB JUMP JUMPDEST PUSH2 0x1E8 JUMP JUMPDEST STOP JUMPDEST CALLVALUE DUP1 ISZERO PUSH2 0xB3 JUMPI PUSH1 0x0 DUP1 REVERT JUMPDEST POP PUSH2 0xCE PUSH1 0x4 DUP1 CALLDATASIZE SUB DUP2 ADD SWAP1 PUSH2 0xC9 SWAP2 SWAP1 PUSH2 0xFC2 JUMP JUMPDEST PUSH2 0x477 JUMP JUMPDEST STOP JUMPDEST PUSH2 0xEA PUSH1 0x4 DUP1 CALLDATASIZE SUB DUP2 ADD SWAP1 PUSH2 0xE5 SWAP2 SWAP1 PUSH2 0x1061 JUMP JUMPDEST PUSH2 0x568 JUMP JUMPDEST STOP JUMPDEST CALLVALUE DUP1 ISZERO PUSH2 0xF8 JUMPI PUSH1 0x0 DUP1 REVERT JUMPDEST POP PUSH2 0x101 PUSH2 0x909 JUMP JUMPDEST PUSH1 0x40 MLOAD PUSH2 0x10E SWAP2 SWAP1 PUSH2 0x109D JUMP JUMPDEST PUSH1 0x40 MLOAD DUP1 SWAP2 SUB SWAP1 RETURN JUMPDEST CALLVALUE DUP1 ISZERO PUSH2 0x123 JUMPI PUSH1 0x0 DUP1 REVERT JUMPDEST POP PUSH2 0x12C PUSH2 0x92D JUMP JUMPDEST PUSH1 0x40 MLOAD PUSH2 0x139 SWAP2 SWAP1 PUSH2 0x10C7 JUMP JUMPDEST PUSH1 0x40 MLOAD DUP1 SWAP2 SUB SWAP1 RETURN JUMPDEST CALLVALUE DUP1 ISZERO PUSH2 0x14E JUMPI PUSH1 0x0 DUP1 REVERT JUMPDEST POP PUSH2 0x157 PUSH2 0x933 JUMP JUMPDEST PUSH1 0x40 MLOAD PUSH2 0x164 SWAP2 SWAP1 PUSH2 0x11A0 JUMP JUMPDEST PUSH1 0x40 MLOAD DUP1 SWAP2 SUB SWAP1 RETURN JUMPDEST CALLVALUE DUP1 ISZERO PUSH2 0x179 JUMPI PUSH1 0x0 DUP1 REVERT JUMPDEST POP PUSH2 0x194 PUSH1 0x4 DUP1 CALLDATASIZE SUB DUP2 ADD SWAP1 PUSH2 0x18F SWAP2 SWAP1 PUSH2 0x1061 JUMP JUMPDEST PUSH2 0xA19 JUMP JUMPDEST STOP JUMPDEST CALLVALUE DUP1 ISZERO PUSH2 0x1A2 JUMPI PUSH1 0x0 DUP1 REVERT JUMPDEST POP PUSH2 0x1BD PUSH1 0x4 DUP1 CALLDATASIZE SUB DUP2 ADD SWAP1 PUSH2 0x1B8 SWAP2 SWAP1 PUSH2 0x11C2 JUMP JUMPDEST PUSH2 0xBDD JUMP JUMPDEST STOP JUMPDEST CALLVALUE DUP1 ISZERO PUSH2 0x1CB JUMPI PUSH1 0x0 DUP1 REVERT JUMPDEST POP PUSH2 0x1E6 PUSH1 0x4 DUP1 CALLDATASIZE SUB DUP2 ADD SWAP1 PUSH2 0x1E1 SWAP2 SWAP1 PUSH2 0x1275 JUMP JUMPDEST PUSH2 0xCCF JUMP JUMPDEST STOP JUMPDEST PUSH1 0x3 PUSH1 0x0 SWAP1 SLOAD SWAP1 PUSH2 0x100 EXP SWAP1 DIV PUSH20 0xFFFFFFFFFFFFFFFFFFFFFFFFFFFFFFFFFFFFFFFF AND PUSH20 0xFFFFFFFFFFFFFFFFFFFFFFFFFFFFFFFFFFFFFFFF AND PUSH4 0xECDED204 CALLER PUSH1 0x40 MLOAD DUP3 PUSH4 0xFFFFFFFF AND PUSH1 0xE0 SHL DUP2 MSTORE PUSH1 0x4 ADD PUSH2 0x243 SWAP2 SWAP1 PUSH2 0x109D JUMP JUMPDEST PUSH1 0x20 PUSH1 0x40 MLOAD DUP1 DUP4 SUB DUP2 DUP7 GAS STATICCALL ISZERO DUP1 ISZERO PUSH2 0x260 JUMPI RETURNDATASIZE PUSH1 0x0 DUP1 RETURNDATACOPY RETURNDATASIZE PUSH1 0x0 REVERT JUMPDEST POP POP POP POP PUSH1 0x40 MLOAD RETURNDATASIZE PUSH1 0x1F NOT PUSH1 0x1F DUP3 ADD AND DUP3 ADD DUP1 PUSH1 0x40 MSTORE POP DUP2 ADD SWAP1 PUSH2 0x284 SWAP2 SWAP1 PUSH2 0x12DA JUMP JUMPDEST PUSH2 0x28D JUMPI PUSH1 0x0 DUP1 REVERT JUMPDEST PUSH1 0x0 PUSH1 0x2 PUSH1 0x0 SWAP1 SLOAD SWAP1 PUSH2 0x100 EXP SWAP1 DIV PUSH20 0xFFFFFFFFFFFFFFFFFFFFFFFFFFFFFFFFFFFFFFFF AND PUSH20 0xFFFFFFFFFFFFFFFFFFFFFFFFFFFFFFFFFFFFFFFF AND PUSH4 0x6C230EEF DUP6 PUSH1 0x40 MLOAD DUP3 PUSH4 0xFFFFFFFF AND PUSH1 0xE0 SHL DUP2 MSTORE PUSH1 0x4 ADD PUSH2 0x2EA SWAP2 SWAP1 PUSH2 0x10C7 JUMP JUMPDEST PUSH1 0x20 PUSH1 0x40 MLOAD DUP1 DUP4 SUB DUP2 DUP7 GAS STATICCALL ISZERO DUP1 ISZERO PUSH2 0x307 JUMPI RETURNDATASIZE PUSH1 0x0 DUP1 RETURNDATACOPY RETURNDATASIZE PUSH1 0x0 REVERT JUMPDEST POP POP POP POP PUSH1 0x40 MLOAD RETURNDATASIZE PUSH1 0x1F NOT PUSH1 0x1F DUP3 ADD AND DUP3 ADD DUP1 PUSH1 0x40 MSTORE POP DUP2 ADD SWAP1 PUSH2 0x32B SWAP2 SWAP1 PUSH2 0x131C JUMP JUMPDEST SWAP1 POP CALLVALUE DUP2 EQ PUSH2 0x339 JUMPI PUSH1 0x0 DUP1 REVERT JUMPDEST PUSH1 0x0 PUSH1 0x4 PUSH1 0x0 SWAP1 SLOAD SWAP1 PUSH2 0x100 EXP SWAP1 DIV PUSH20 0xFFFFFFFFFFFFFFFFFFFFFFFFFFFFFFFFFFFFFFFF AND PUSH20 0xFFFFFFFFFFFFFFFFFFFFFFFFFFFFFFFFFFFFFFFF AND PUSH4 0xA46D8AC7 CALLER DUP8 DUP8 DUP8 PUSH1 0x40 MLOAD DUP6 PUSH4 0xFFFFFFFF AND PUSH1 0xE0 SHL DUP2 MSTORE PUSH1 0x4 ADD PUSH2 0x39C SWAP5 SWAP4 SWAP3 SWAP2 SWAP1 PUSH2 0x1349 JUMP JUMPDEST PUSH1 0x20 PUSH1 0x40 MLOAD DUP1 DUP4 SUB DUP2 PUSH1 0x0 DUP8 GAS CALL ISZERO DUP1 ISZERO PUSH2 0x3BB JUMPI RETURNDATASIZE PUSH1 0x0 DUP1 RETURNDATACOPY RETURNDATASIZE PUSH1 0x0 REVERT JUMPDEST POP POP POP POP PUSH1 0x40 MLOAD RETURNDATASIZE PUSH1 0x1F NOT PUSH1 0x1F DUP3 ADD AND DUP3 ADD DUP1 PUSH1 0x40 MSTORE POP DUP2 ADD SWAP1 PUSH2 0x3DF SWAP2 SWAP1 PUSH2 0x131C JUMP JUMPDEST SWAP1 POP PUSH1 0x3 PUSH1 0x0 SWAP1 SLOAD SWAP1 PUSH2 0x100 EXP SWAP1 DIV PUSH20 0xFFFFFFFFFFFFFFFFFFFFFFFFFFFFFFFFFFFFFFFF AND PUSH20 0xFFFFFFFFFFFFFFFFFFFFFFFFFFFFFFFFFFFFFFFF AND PUSH4 0xE597EF12 CALLER DUP4 PUSH1 0x40 MLOAD DUP4 PUSH4 0xFFFFFFFF AND PUSH1 0xE0 SHL DUP2 MSTORE PUSH1 0x4 ADD PUSH2 0x43E SWAP3 SWAP2 SWAP1 PUSH2 0x138E JUMP JUMPDEST PUSH1 0x0 PUSH1 0x40 MLOAD DUP1 DUP4 SUB DUP2 PUSH1 0x0 DUP8 DUP1 EXTCODESIZE ISZERO DUP1 ISZERO PUSH2 0x458 JUMPI PUSH1 0x0 DUP1 REVERT JUMPDEST POP GAS CALL ISZERO DUP1 ISZERO PUSH2 0x46C JUMPI RETURNDATASIZE PUSH1 0x0 DUP1 RETURNDATACOPY RETURNDATASIZE PUSH1 0x0 REVERT JUMPDEST POP POP POP POP POP POP POP POP POP JUMP JUMPDEST CALLER PUSH20 0xFFFFFFFFFFFFFFFFFFFFFFFFFFFFFFFFFFFFFFFF AND PUSH1 0x0 DUP1 SLOAD SWAP1 PUSH2 0x100 EXP SWAP1 DIV PUSH20 0xFFFFFFFFFFFFFFFFFFFFFFFFFFFFFFFFFFFFFFFF AND PUSH20 0xFFFFFFFFFFFFFFFFFFFFFFFFFFFFFFFFFFFFFFFF AND EQ PUSH2 0x4CF JUMPI PUSH1 0x0 DUP1 REVERT JUMPDEST PUSH1 0x2 PUSH1 0x0 SWAP1 SLOAD SWAP1 PUSH2 0x100 EXP SWAP1 DIV PUSH20 0xFFFFFFFFFFFFFFFFFFFFFFFFFFFFFFFFFFFFFFFF AND PUSH20 0xFFFFFFFFFFFFFFFFFFFFFFFFFFFFFFFFFFFFFFFF AND PUSH4 0x687564AE DUP6 DUP6 DUP6 DUP6 PUSH1 0x40 MLOAD DUP6 PUSH4 0xFFFFFFFF AND PUSH1 0xE0 SHL DUP2 MSTORE PUSH1 0x4 ADD PUSH2 0x530 SWAP5 SWAP4 SWAP3 SWAP2 SWAP1 PUSH2 0x143F JUMP JUMPDEST PUSH1 0x0 PUSH1 0x40 MLOAD DUP1 DUP4 SUB DUP2 PUSH1 0x0 DUP8 DUP1 EXTCODESIZE ISZERO DUP1 ISZERO PUSH2 0x54A JUMPI PUSH1 0x0 DUP1 REVERT JUMPDEST POP GAS CALL ISZERO DUP1 ISZERO PUSH2 0x55E JUMPI RETURNDATASIZE PUSH1 0x0 DUP1 RETURNDATACOPY RETURNDATASIZE PUSH1 0x0 REVERT JUMPDEST POP POP POP POP POP POP POP POP JUMP JUMPDEST PUSH1 0x3 PUSH1 0x0 SWAP1 SLOAD SWAP1 PUSH2 0x100 EXP SWAP1 DIV PUSH20 0xFFFFFFFFFFFFFFFFFFFFFFFFFFFFFFFFFFFFFFFF AND PUSH20 0xFFFFFFFFFFFFFFFFFFFFFFFFFFFFFFFFFFFFFFFF AND PUSH4 0xECDED204 CALLER PUSH1 0x40 MLOAD DUP3 PUSH4 0xFFFFFFFF AND PUSH1 0xE0 SHL DUP2 MSTORE PUSH1 0x4 ADD PUSH2 0x5C3 SWAP2 SWAP1 PUSH2 0x109D JUMP JUMPDEST PUSH1 0x20 PUSH1 0x40 MLOAD DUP1 DUP4 SUB DUP2 DUP7 GAS STATICCALL ISZERO DUP1 ISZERO PUSH2 0x5E0 JUMPI RETURNDATASIZE PUSH1 0x0 DUP1 RETURNDATACOPY RETURNDATASIZE PUSH1 0x0 REVERT JUMPDEST POP POP POP POP PUSH1 0x40 MLOAD RETURNDATASIZE PUSH1 0x1F NOT PUSH1 0x1F DUP3 ADD AND DUP3 ADD DUP1 PUSH1 0x40 MSTORE POP DUP2 ADD SWAP1 PUSH2 0x604 SWAP2 SWAP1 PUSH2 0x12DA JUMP JUMPDEST PUSH2 0x60D JUMPI PUSH1 0x0 DUP1 REVERT JUMPDEST PUSH1 0x0 PUSH1 0x4 PUSH1 0x0 SWAP1 SLOAD SWAP1 PUSH2 0x100 EXP SWAP1 DIV PUSH20 0xFFFFFFFFFFFFFFFFFFFFFFFFFFFFFFFFFFFFFFFF AND PUSH20 0xFFFFFFFFFFFFFFFFFFFFFFFFFFFFFFFFFFFFFFFF AND PUSH4 0x1CE06944 DUP4 PUSH1 0x40 MLOAD DUP3 PUSH4 0xFFFFFFFF AND PUSH1 0xE0 SHL DUP2 MSTORE PUSH1 0x4 ADD PUSH2 0x66A SWAP2 SWAP1 PUSH2 0x10C7 JUMP JUMPDEST PUSH1 0x20 PUSH1 0x40 MLOAD DUP1 DUP4 SUB DUP2 DUP7 GAS STATICCALL ISZERO DUP1 ISZERO PUSH2 0x687 JUMPI RETURNDATASIZE PUSH1 0x0 DUP1 RETURNDATACOPY RETURNDATASIZE PUSH1 0x0 REVERT JUMPDEST POP POP POP POP PUSH1 0x40 MLOAD RETURNDATASIZE PUSH1 0x1F NOT PUSH1 0x1F DUP3 ADD AND DUP3 ADD DUP1 PUSH1 0x40 MSTORE POP DUP2 ADD SWAP1 PUSH2 0x6AB SWAP2 SWAP1 PUSH2 0x131C JUMP JUMPDEST SWAP1 POP PUSH1 0x0 PUSH1 0x4 PUSH1 0x0 SWAP1 SLOAD SWAP1 PUSH2 0x100 EXP SWAP1 DIV PUSH20 0xFFFFFFFFFFFFFFFFFFFFFFFFFFFFFFFFFFFFFFFF AND PUSH20 0xFFFFFFFFFFFFFFFFFFFFFFFFFFFFFFFFFFFFFFFF AND PUSH4 0x67615AD5 DUP5 PUSH1 0x40 MLOAD DUP3 PUSH4 0xFFFFFFFF AND PUSH1 0xE0 SHL DUP2 MSTORE PUSH1 0x4 ADD PUSH2 0x70A SWAP2 SWAP1 PUSH2 0x10C7 JUMP JUMPDEST PUSH1 0x20 PUSH1 0x40 MLOAD DUP1 DUP4 SUB DUP2 DUP7 GAS STATICCALL ISZERO DUP1 ISZERO PUSH2 0x727 JUMPI RETURNDATASIZE PUSH1 0x0 DUP1 RETURNDATACOPY RETURNDATASIZE PUSH1 0x0 REVERT JUMPDEST POP POP POP POP PUSH1 0x40 MLOAD RETURNDATASIZE PUSH1 0x1F NOT PUSH1 0x1F DUP3 ADD AND DUP3 ADD DUP1 PUSH1 0x40 MSTORE POP DUP2 ADD SWAP1 PUSH2 0x74B SWAP2 SWAP1 PUSH2 0x131C JUMP JUMPDEST SWAP1 POP CALLVALUE DUP3 EQ PUSH2 0x759 JUMPI PUSH1 0x0 DUP1 REVERT JUMPDEST PUSH1 0x4 PUSH1 0x0 SWAP1 SLOAD SWAP1 PUSH2 0x100 EXP SWAP1 DIV PUSH20 0xFFFFFFFFFFFFFFFFFFFFFFFFFFFFFFFFFFFFFFFF AND PUSH20 0xFFFFFFFFFFFFFFFFFFFFFFFFFFFFFFFFFFFFFFFF AND PUSH4 0xAB21A2BE DUP5 CALLER PUSH1 0x40 MLOAD DUP4 PUSH4 0xFFFFFFFF AND PUSH1 0xE0 SHL DUP2 MSTORE PUSH1 0x4 ADD PUSH2 0x7B6 SWAP3 SWAP2 SWAP1 PUSH2 0x1492 JUMP JUMPDEST PUSH1 0x0 PUSH1 0x40 MLOAD DUP1 DUP4 SUB DUP2 PUSH1 0x0 DUP8 DUP1 EXTCODESIZE ISZERO DUP1 ISZERO PUSH2 0x7D0 JUMPI PUSH1 0x0 DUP1 REVERT JUMPDEST POP GAS CALL ISZERO DUP1 ISZERO PUSH2 0x7E4 JUMPI RETURNDATASIZE PUSH1 0x0 DUP1 RETURNDATACOPY RETURNDATASIZE PUSH1 0x0 REVERT JUMPDEST POP POP POP POP PUSH1 0x3 PUSH1 0x0 SWAP1 SLOAD SWAP1 PUSH2 0x100 EXP SWAP1 DIV PUSH20 0xFFFFFFFFFFFFFFFFFFFFFFFFFFFFFFFFFFFFFFFF AND PUSH20 0xFFFFFFFFFFFFFFFFFFFFFFFFFFFFFFFFFFFFFFFF AND PUSH4 0xA5A9C518 CALLER DUP6 PUSH1 0x40 MLOAD DUP4 PUSH4 0xFFFFFFFF AND PUSH1 0xE0 SHL DUP2 MSTORE PUSH1 0x4 ADD PUSH2 0x845 SWAP3 SWAP2 SWAP1 PUSH2 0x138E JUMP JUMPDEST PUSH1 0x0 PUSH1 0x40 MLOAD DUP1 DUP4 SUB DUP2 PUSH1 0x0 DUP8 DUP1 EXTCODESIZE ISZERO DUP1 ISZERO PUSH2 0x85F JUMPI PUSH1 0x0 DUP1 REVERT JUMPDEST POP GAS CALL ISZERO DUP1 ISZERO PUSH2 0x873 JUMPI RETURNDATASIZE PUSH1 0x0 DUP1 RETURNDATACOPY RETURNDATASIZE PUSH1 0x0 REVERT JUMPDEST POP POP POP POP PUSH1 0x2 PUSH1 0x0 SWAP1 SLOAD SWAP1 PUSH2 0x100 EXP SWAP1 DIV PUSH20 0xFFFFFFFFFFFFFFFFFFFFFFFFFFFFFFFFFFFFFFFF AND PUSH20 0xFFFFFFFFFFFFFFFFFFFFFFFFFFFFFFFFFFFFFFFF AND PUSH4 0xA6B2A25 DUP3 PUSH1 0x40 MLOAD DUP3 PUSH4 0xFFFFFFFF AND PUSH1 0xE0 SHL DUP2 MSTORE PUSH1 0x4 ADD PUSH2 0x8D2 SWAP2 SWAP1 PUSH2 0x10C7 JUMP JUMPDEST PUSH1 0x0 PUSH1 0x40 MLOAD DUP1 DUP4 SUB DUP2 PUSH1 0x0 DUP8 DUP1 EXTCODESIZE ISZERO DUP1 ISZERO PUSH2 0x8EC JUMPI PUSH1 0x0 DUP1 REVERT JUMPDEST POP GAS CALL ISZERO DUP1 ISZERO PUSH2 0x900 JUMPI RETURNDATASIZE PUSH1 0x0 DUP1 RETURNDATACOPY RETURNDATASIZE PUSH1 0x0 REVERT JUMPDEST POP POP POP POP POP POP POP JUMP JUMPDEST PUSH1 0x0 DUP1 SLOAD SWAP1 PUSH2 0x100 EXP SWAP1 DIV PUSH20 0xFFFFFFFFFFFFFFFFFFFFFFFFFFFFFFFFFFFFFFFF AND DUP2 JUMP JUMPDEST PUSH1 0x6 SLOAD DUP2 JUMP JUMPDEST PUSH1 0x60 CALLER PUSH20 0xFFFFFFFFFFFFFFFFFFFFFFFFFFFFFFFFFFFFFFFF AND PUSH1 0x0 DUP1 SLOAD SWAP1 PUSH2 0x100 EXP SWAP1 DIV PUSH20 0xFFFFFFFFFFFFFFFFFFFFFFFFFFFFFFFFFFFFFFFF AND PUSH20 0xFFFFFFFFFFFFFFFFFFFFFFFFFFFFFFFFFFFFFFFF AND EQ PUSH2 0x98D JUMPI PUSH1 0x0 DUP1 REVERT JUMPDEST PUSH1 0x5 DUP1 SLOAD DUP1 PUSH1 0x20 MUL PUSH1 0x20 ADD PUSH1 0x40 MLOAD SWAP1 DUP2 ADD PUSH1 0x40 MSTORE DUP1 SWAP3 SWAP2 SWAP1 DUP2 DUP2 MSTORE PUSH1 0x20 ADD DUP3 DUP1 SLOAD DUP1 ISZERO PUSH2 0xA0F JUMPI PUSH1 0x20 MUL DUP3 ADD SWAP2 SWAP1 PUSH1 0x0 MSTORE PUSH1 0x20 PUSH1 0x0 KECCAK256 SWAP1 JUMPDEST DUP2 PUSH1 0x0 SWAP1 SLOAD SWAP1 PUSH2 0x100 EXP SWAP1 DIV PUSH20 0xFFFFFFFFFFFFFFFFFFFFFFFFFFFFFFFFFFFFFFFF AND PUSH20 0xFFFFFFFFFFFFFFFFFFFFFFFFFFFFFFFFFFFFFFFF AND DUP2 MSTORE PUSH1 0x20 ADD SWAP1 PUSH1 0x1 ADD SWAP1 DUP1 DUP4 GT PUSH2 0x9C5 JUMPI JUMPDEST POP POP POP POP POP SWAP1 POP SWAP1 JUMP JUMPDEST PUSH1 0x3 PUSH1 0x0 SWAP1 SLOAD SWAP1 PUSH2 0x100 EXP SWAP1 DIV PUSH20 0xFFFFFFFFFFFFFFFFFFFFFFFFFFFFFFFFFFFFFFFF AND PUSH20 0xFFFFFFFFFFFFFFFFFFFFFFFFFFFFFFFFFFFFFFFF AND PUSH4 0xECDED204 CALLER PUSH1 0x40 MLOAD DUP3 PUSH4 0xFFFFFFFF AND PUSH1 0xE0 SHL DUP2 MSTORE PUSH1 0x4 ADD PUSH2 0xA74 SWAP2 SWAP1 PUSH2 0x109D JUMP JUMPDEST PUSH1 0x20 PUSH1 0x40 MLOAD DUP1 DUP4 SUB DUP2 DUP7 GAS STATICCALL ISZERO DUP1 ISZERO PUSH2 0xA91 JUMPI RETURNDATASIZE PUSH1 0x0 DUP1 RETURNDATACOPY RETURNDATASIZE PUSH1 0x0 REVERT JUMPDEST POP POP POP POP PUSH1 0x40 MLOAD RETURNDATASIZE PUSH1 0x1F NOT PUSH1 0x1F DUP3 ADD AND DUP3 ADD DUP1 PUSH1 0x40 MSTORE POP DUP2 ADD SWAP1 PUSH2 0xAB5 SWAP2 SWAP1 PUSH2 0x12DA JUMP JUMPDEST PUSH2 0xABE JUMPI PUSH1 0x0 DUP1 REVERT JUMPDEST PUSH1 0x4 PUSH1 0x0 SWAP1 SLOAD SWAP1 PUSH2 0x100 EXP SWAP1 DIV PUSH20 0xFFFFFFFFFFFFFFFFFFFFFFFFFFFFFFFFFFFFFFFF AND PUSH20 0xFFFFFFFFFFFFFFFFFFFFFFFFFFFFFFFFFFFFFFFF AND PUSH4 0xCA5140C9 DUP3 PUSH1 0x40 MLOAD DUP3 PUSH4 0xFFFFFFFF AND PUSH1 0xE0 SHL DUP2 MSTORE PUSH1 0x4 ADD PUSH2 0xB19 SWAP2 SWAP1 PUSH2 0x10C7 JUMP JUMPDEST PUSH1 0x0 PUSH1 0x40 MLOAD DUP1 DUP4 SUB DUP2 PUSH1 0x0 DUP8 DUP1 EXTCODESIZE ISZERO DUP1 ISZERO PUSH2 0xB33 JUMPI PUSH1 0x0 DUP1 REVERT JUMPDEST POP GAS CALL ISZERO DUP1 ISZERO PUSH2 0xB47 JUMPI RETURNDATASIZE PUSH1 0x0 DUP1 RETURNDATACOPY RETURNDATASIZE PUSH1 0x0 REVERT JUMPDEST POP POP POP POP PUSH1 0x3 PUSH1 0x0 SWAP1 SLOAD SWAP1 PUSH2 0x100 EXP SWAP1 DIV PUSH20 0xFFFFFFFFFFFFFFFFFFFFFFFFFFFFFFFFFFFFFFFF AND PUSH20 0xFFFFFFFFFFFFFFFFFFFFFFFFFFFFFFFFFFFFFFFF AND PUSH4 0x4A09DB4F CALLER DUP4 PUSH1 0x40 MLOAD DUP4 PUSH4 0xFFFFFFFF AND PUSH1 0xE0 SHL DUP2 MSTORE PUSH1 0x4 ADD PUSH2 0xBA8 SWAP3 SWAP2 SWAP1 PUSH2 0x138E JUMP JUMPDEST PUSH1 0x0 PUSH1 0x40 MLOAD DUP1 DUP4 SUB DUP2 PUSH1 0x0 DUP8 DUP1 EXTCODESIZE ISZERO DUP1 ISZERO PUSH2 0xBC2 JUMPI PUSH1 0x0 DUP1 REVERT JUMPDEST POP GAS CALL ISZERO DUP1 ISZERO PUSH2 0xBD6 JUMPI RETURNDATASIZE PUSH1 0x0 DUP1 RETURNDATACOPY RETURNDATASIZE PUSH1 0x0 REVERT JUMPDEST POP POP POP POP POP JUMP JUMPDEST PUSH1 0x1 PUSH1 0x0 CALLER PUSH20 0xFFFFFFFFFFFFFFFFFFFFFFFFFFFFFFFFFFFFFFFF AND PUSH20 0xFFFFFFFFFFFFFFFFFFFFFFFFFFFFFFFFFFFFFFFF AND DUP2 MSTORE PUSH1 0x20 ADD SWAP1 DUP2 MSTORE PUSH1 0x20 ADD PUSH1 0x0 KECCAK256 PUSH1 0x0 SWAP1 SLOAD SWAP1 PUSH2 0x100 EXP SWAP1 DIV PUSH1 0xFF AND PUSH2 0xC33 JUMPI PUSH1 0x0 DUP1 REVERT JUMPDEST PUSH1 0x2 PUSH1 0x0 SWAP1 SLOAD SWAP1 PUSH2 0x100 EXP SWAP1 DIV PUSH20 0xFFFFFFFFFFFFFFFFFFFFFFFFFFFFFFFFFFFFFFFF AND PUSH20 0xFFFFFFFFFFFFFFFFFFFFFFFFFFFFFFFFFFFFFFFF AND PUSH4 0xD2C07E20 DUP7 DUP7 DUP7 DUP7 DUP7 PUSH1 0x40 MLOAD DUP7 PUSH4 0xFFFFFFFF AND PUSH1 0xE0 SHL DUP2 MSTORE PUSH1 0x4 ADD PUSH2 0xC96 SWAP6 SWAP5 SWAP4 SWAP3 SWAP2 SWAP1 PUSH2 0x14BB JUMP JUMPDEST PUSH1 0x0 PUSH1 0x40 MLOAD DUP1 DUP4 SUB DUP2 PUSH1 0x0 DUP8 DUP1 EXTCODESIZE ISZERO DUP1 ISZERO PUSH2 0xCB0 JUMPI PUSH1 0x0 DUP1 REVERT JUMPDEST POP GAS CALL ISZERO DUP1 ISZERO PUSH2 0xCC4 JUMPI RETURNDATASIZE PUSH1 0x0 DUP1 RETURNDATACOPY RETURNDATASIZE PUSH1 0x0 REVERT JUMPDEST POP POP POP POP POP POP POP POP POP JUMP JUMPDEST CALLER PUSH20 0xFFFFFFFFFFFFFFFFFFFFFFFFFFFFFFFFFFFFFFFF AND PUSH1 0x0 DUP1 SLOAD SWAP1 PUSH2 0x100 EXP SWAP1 DIV PUSH20 0xFFFFFFFFFFFFFFFFFFFFFFFFFFFFFFFFFFFFFFFF AND PUSH20 0xFFFFFFFFFFFFFFFFFFFFFFFFFFFFFFFFFFFFFFFF AND EQ PUSH2 0xD27 JUMPI PUSH1 0x0 DUP1 REVERT JUMPDEST PUSH1 0x1 DUP1 PUSH1 0x0 DUP4 PUSH20 0xFFFFFFFFFFFFFFFFFFFFFFFFFFFFFFFFFFFFFFFF AND PUSH20 0xFFFFFFFFFFFFFFFFFFFFFFFFFFFFFFFFFFFFFFFF AND DUP2 MSTORE PUSH1 0x20 ADD SWAP1 DUP2 MSTORE PUSH1 0x20 ADD PUSH1 0x0 KECCAK256 PUSH1 0x0 PUSH2 0x100 EXP DUP2 SLOAD DUP2 PUSH1 0xFF MUL NOT AND SWAP1 DUP4 ISZERO ISZERO MUL OR SWAP1 SSTORE POP POP JUMP JUMPDEST PUSH1 0x0 PUSH1 0x40 MLOAD SWAP1 POP SWAP1 JUMP JUMPDEST PUSH1 0x0 DUP1 REVERT JUMPDEST PUSH1 0x0 DUP1 REVERT JUMPDEST PUSH1 0x0 DUP2 SWAP1 POP SWAP2 SWAP1 POP JUMP JUMPDEST PUSH2 0xDA8 DUP2 PUSH2 0xD95 JUMP JUMPDEST DUP2 EQ PUSH2 0xDB3 JUMPI PUSH1 0x0 DUP1 REVERT JUMPDEST POP JUMP JUMPDEST PUSH1 0x0 DUP2 CALLDATALOAD SWAP1 POP PUSH2 0xDC5 DUP2 PUSH2 0xD9F JUMP JUMPDEST SWAP3 SWAP2 POP POP JUMP JUMPDEST PUSH1 0x0 DUP1 PUSH1 0x0 PUSH1 0x60 DUP5 DUP7 SUB SLT ISZERO PUSH2 0xDE4 JUMPI PUSH2 0xDE3 PUSH2 0xD8B JUMP JUMPDEST JUMPDEST PUSH1 0x0 PUSH2 0xDF2 DUP7 DUP3 DUP8 ADD PUSH2 0xDB6 JUMP JUMPDEST SWAP4 POP POP PUSH1 0x20 PUSH2 0xE03 DUP7 DUP3 DUP8 ADD PUSH2 0xDB6 JUMP JUMPDEST SWAP3 POP POP PUSH1 0x40 PUSH2 0xE14 DUP7 DUP3 DUP8 ADD PUSH2 0xDB6 JUMP JUMPDEST SWAP2 POP POP SWAP3 POP SWAP3 POP SWAP3 JUMP JUMPDEST PUSH1 0x0 DUP1 REVERT JUMPDEST PUSH1 0x0 DUP1 REVERT JUMPDEST PUSH1 0x0 PUSH1 0x1F NOT PUSH1 0x1F DUP4 ADD AND SWAP1 POP SWAP2 SWAP1 POP JUMP JUMPDEST PUSH32 0x4E487B7100000000000000000000000000000000000000000000000000000000 PUSH1 0x0 MSTORE PUSH1 0x41 PUSH1 0x4 MSTORE PUSH1 0x24 PUSH1 0x0 REVERT JUMPDEST PUSH2 0xE71 DUP3 PUSH2 0xE28 JUMP JUMPDEST DUP2 ADD DUP2 DUP2 LT PUSH8 0xFFFFFFFFFFFFFFFF DUP3 GT OR ISZERO PUSH2 0xE90 JUMPI PUSH2 0xE8F PUSH2 0xE39 JUMP JUMPDEST JUMPDEST DUP1 PUSH1 0x40 MSTORE POP POP POP JUMP JUMPDEST PUSH1 0x0 PUSH2 0xEA3 PUSH2 0xD81 JUMP JUMPDEST SWAP1 POP PUSH2 0xEAF DUP3 DUP3 PUSH2 0xE68 JUMP JUMPDEST SWAP2 SWAP1 POP JUMP JUMPDEST PUSH1 0x0 PUSH8 0xFFFFFFFFFFFFFFFF DUP3 GT ISZERO PUSH2 0xECF JUMPI PUSH2 0xECE PUSH2 0xE39 JUMP JUMPDEST JUMPDEST PUSH2 0xED8 DUP3 PUSH2 0xE28 JUMP JUMPDEST SWAP1 POP PUSH1 0x20 DUP2 ADD SWAP1 POP SWAP2 SWAP1 POP JUMP JUMPDEST DUP3 DUP2 DUP4 CALLDATACOPY PUSH1 0x0 DUP4 DUP4 ADD MSTORE POP POP POP JUMP JUMPDEST PUSH1 0x0 PUSH2 0xF07 PUSH2 0xF02 DUP5 PUSH2 0xEB4 JUMP JUMPDEST PUSH2 0xE99 JUMP JUMPDEST SWAP1 POP DUP3 DUP2 MSTORE PUSH1 0x20 DUP2 ADD DUP5 DUP5 DUP5 ADD GT ISZERO PUSH2 0xF23 JUMPI PUSH2 0xF22 PUSH2 0xE23 JUMP JUMPDEST JUMPDEST PUSH2 0xF2E DUP5 DUP3 DUP6 PUSH2 0xEE5 JUMP JUMPDEST POP SWAP4 SWAP3 POP POP POP JUMP JUMPDEST PUSH1 0x0 DUP3 PUSH1 0x1F DUP4 ADD SLT PUSH2 0xF4B JUMPI PUSH2 0xF4A PUSH2 0xE1E JUMP JUMPDEST JUMPDEST DUP2 CALLDATALOAD PUSH2 0xF5B DUP5 DUP3 PUSH1 0x20 DUP7 ADD PUSH2 0xEF4 JUMP JUMPDEST SWAP2 POP POP SWAP3 SWAP2 POP POP JUMP JUMPDEST PUSH1 0x0 PUSH20 0xFFFFFFFFFFFFFFFFFFFFFFFFFFFFFFFFFFFFFFFF DUP3 AND SWAP1 POP SWAP2 SWAP1 POP JUMP JUMPDEST PUSH1 0x0 PUSH2 0xF8F DUP3 PUSH2 0xF64 JUMP JUMPDEST SWAP1 POP SWAP2 SWAP1 POP JUMP JUMPDEST PUSH2 0xF9F DUP2 PUSH2 0xF84 JUMP JUMPDEST DUP2 EQ PUSH2 0xFAA JUMPI PUSH1 0x0 DUP1 REVERT JUMPDEST POP JUMP JUMPDEST PUSH1 0x0 DUP2 CALLDATALOAD SWAP1 POP PUSH2 0xFBC DUP2 PUSH2 0xF96 JUMP JUMPDEST SWAP3 SWAP2 POP POP JUMP JUMPDEST PUSH1 0x0 DUP1 PUSH1 0x0 DUP1 PUSH1 0x80 DUP6 DUP8 SUB SLT ISZERO PUSH2 0xFDC JUMPI PUSH2 0xFDB PUSH2 0xD8B JUMP JUMPDEST JUMPDEST PUSH1 0x0 DUP6 ADD CALLDATALOAD PUSH8 0xFFFFFFFFFFFFFFFF DUP2 GT ISZERO PUSH2 0xFFA JUMPI PUSH2 0xFF9 PUSH2 0xD90 JUMP JUMPDEST JUMPDEST PUSH2 0x1006 DUP8 DUP3 DUP9 ADD PUSH2 0xF36 JUMP JUMPDEST SWAP5 POP POP PUSH1 0x20 DUP6 ADD CALLDATALOAD PUSH8 0xFFFFFFFFFFFFFFFF DUP2 GT ISZERO PUSH2 0x1027 JUMPI PUSH2 0x1026 PUSH2 0xD90 JUMP JUMPDEST JUMPDEST PUSH2 0x1033 DUP8 DUP3 DUP9 ADD PUSH2 0xF36 JUMP JUMPDEST SWAP4 POP POP PUSH1 0x40 PUSH2 0x1044 DUP8 DUP3 DUP9 ADD PUSH2 0xDB6 JUMP JUMPDEST SWAP3 POP POP PUSH1 0x60 PUSH2 0x1055 DUP8 DUP3 DUP9 ADD PUSH2 0xFAD JUMP JUMPDEST SWAP2 POP POP SWAP3 SWAP6 SWAP2 SWAP5 POP SWAP3 POP JUMP JUMPDEST PUSH1 0x0 PUSH1 0x20 DUP3 DUP5 SUB SLT ISZERO PUSH2 0x1077 JUMPI PUSH2 0x1076 PUSH2 0xD8B JUMP JUMPDEST JUMPDEST PUSH1 0x0 PUSH2 0x1085 DUP5 DUP3 DUP6 ADD PUSH2 0xDB6 JUMP JUMPDEST SWAP2 POP POP SWAP3 SWAP2 POP POP JUMP JUMPDEST PUSH2 0x1097 DUP2 PUSH2 0xF84 JUMP JUMPDEST DUP3 MSTORE POP POP JUMP JUMPDEST PUSH1 0x0 PUSH1 0x20 DUP3 ADD SWAP1 POP PUSH2 0x10B2 PUSH1 0x0 DUP4 ADD DUP5 PUSH2 0x108E JUMP JUMPDEST SWAP3 SWAP2 POP POP JUMP JUMPDEST PUSH2 0x10C1 DUP2 PUSH2 0xD95 JUMP JUMPDEST DUP3 MSTORE POP POP JUMP JUMPDEST PUSH1 0x0 PUSH1 0x20 DUP3 ADD SWAP1 POP PUSH2 0x10DC PUSH1 0x0 DUP4 ADD DUP5 PUSH2 0x10B8 JUMP JUMPDEST SWAP3 SWAP2 POP POP JUMP JUMPDEST PUSH1 0x0 DUP2 MLOAD SWAP1 POP SWAP2 SWAP1 POP JUMP JUMPDEST PUSH1 0x0 DUP3 DUP3 MSTORE PUSH1 0x20 DUP3 ADD SWAP1 POP SWAP3 SWAP2 POP POP JUMP JUMPDEST PUSH1 0x0 DUP2 SWAP1 POP PUSH1 0x20 DUP3 ADD SWAP1 POP SWAP2 SWAP1 POP JUMP JUMPDEST PUSH2 0x1117 DUP2 PUSH2 0xF84 JUMP JUMPDEST DUP3 MSTORE POP POP JUMP JUMPDEST PUSH1 0x0 PUSH2 0x1129 DUP4 DUP4 PUSH2 0x110E JUMP JUMPDEST PUSH1 0x20 DUP4 ADD SWAP1 POP SWAP3 SWAP2 POP POP JUMP JUMPDEST PUSH1 0x0 PUSH1 0x20 DUP3 ADD SWAP1 POP SWAP2 SWAP1 POP JUMP JUMPDEST PUSH1 0x0 PUSH2 0x114D DUP3 PUSH2 0x10E2 JUMP JUMPDEST PUSH2 0x1157 DUP2 DUP6 PUSH2 0x10ED JUMP JUMPDEST SWAP4 POP PUSH2 0x1162 DUP4 PUSH2 0x10FE JUMP JUMPDEST DUP1 PUSH1 0x0 JUMPDEST DUP4 DUP2 LT ISZERO PUSH2 0x1193 JUMPI DUP2 MLOAD PUSH2 0x117A DUP9 DUP3 PUSH2 0x111D JUMP JUMPDEST SWAP8 POP PUSH2 0x1185 DUP4 PUSH2 0x1135 JUMP JUMPDEST SWAP3 POP POP PUSH1 0x1 DUP2 ADD SWAP1 POP PUSH2 0x1166 JUMP JUMPDEST POP DUP6 SWAP4 POP POP POP POP SWAP3 SWAP2 POP POP JUMP JUMPDEST PUSH1 0x0 PUSH1 0x20 DUP3 ADD SWAP1 POP DUP2 DUP2 SUB PUSH1 0x0 DUP4 ADD MSTORE PUSH2 0x11BA DUP2 DUP5 PUSH2 0x1142 JUMP JUMPDEST SWAP1 POP SWAP3 SWAP2 POP POP JUMP JUMPDEST PUSH1 0x0 DUP1 PUSH1 0x0 DUP1 PUSH1 0x0 PUSH1 0xA0 DUP7 DUP9 SUB SLT ISZERO PUSH2 0x11DE JUMPI PUSH2 0x11DD PUSH2 0xD8B JUMP JUMPDEST JUMPDEST PUSH1 0x0 PUSH2 0x11EC DUP9 DUP3 DUP10 ADD PUSH2 0xDB6 JUMP JUMPDEST SWAP6 POP POP PUSH1 0x20 DUP7 ADD CALLDATALOAD PUSH8 0xFFFFFFFFFFFFFFFF DUP2 GT ISZERO PUSH2 0x120D JUMPI PUSH2 0x120C PUSH2 0xD90 JUMP JUMPDEST JUMPDEST PUSH2 0x1219 DUP9 DUP3 DUP10 ADD PUSH2 0xF36 JUMP JUMPDEST SWAP5 POP POP PUSH1 0x40 DUP7 ADD CALLDATALOAD PUSH8 0xFFFFFFFFFFFFFFFF DUP2 GT ISZERO PUSH2 0x123A JUMPI PUSH2 0x1239 PUSH2 0xD90 JUMP JUMPDEST JUMPDEST PUSH2 0x1246 DUP9 DUP3 DUP10 ADD PUSH2 0xF36 JUMP JUMPDEST SWAP4 POP POP PUSH1 0x60 PUSH2 0x1257 DUP9 DUP3 DUP10 ADD PUSH2 0xDB6 JUMP JUMPDEST SWAP3 POP POP PUSH1 0x80 PUSH2 0x1268 DUP9 DUP3 DUP10 ADD PUSH2 0xFAD JUMP JUMPDEST SWAP2 POP POP SWAP3 SWAP6 POP SWAP3 SWAP6 SWAP1 SWAP4 POP JUMP JUMPDEST PUSH1 0x0 PUSH1 0x20 DUP3 DUP5 SUB SLT ISZERO PUSH2 0x128B JUMPI PUSH2 0x128A PUSH2 0xD8B JUMP JUMPDEST JUMPDEST PUSH1 0x0 PUSH2 0x1299 DUP5 DUP3 DUP6 ADD PUSH2 0xFAD JUMP JUMPDEST SWAP2 POP POP SWAP3 SWAP2 POP POP JUMP JUMPDEST PUSH1 0x0 DUP2 ISZERO ISZERO SWAP1 POP SWAP2 SWAP1 POP JUMP JUMPDEST PUSH2 0x12B7 DUP2 PUSH2 0x12A2 JUMP JUMPDEST DUP2 EQ PUSH2 0x12C2 JUMPI PUSH1 0x0 DUP1 REVERT JUMPDEST POP JUMP JUMPDEST PUSH1 0x0 DUP2 MLOAD SWAP1 POP PUSH2 0x12D4 DUP2 PUSH2 0x12AE JUMP JUMPDEST SWAP3 SWAP2 POP POP JUMP JUMPDEST PUSH1 0x0 PUSH1 0x20 DUP3 DUP5 SUB SLT ISZERO PUSH2 0x12F0 JUMPI PUSH2 0x12EF PUSH2 0xD8B JUMP JUMPDEST JUMPDEST PUSH1 0x0 PUSH2 0x12FE DUP5 DUP3 DUP6 ADD PUSH2 0x12C5 JUMP JUMPDEST SWAP2 POP POP SWAP3 SWAP2 POP POP JUMP JUMPDEST PUSH1 0x0 DUP2 MLOAD SWAP1 POP PUSH2 0x1316 DUP2 PUSH2 0xD9F JUMP JUMPDEST SWAP3 SWAP2 POP POP JUMP JUMPDEST PUSH1 0x0 PUSH1 0x20 DUP3 DUP5 SUB SLT ISZERO PUSH2 0x1332 JUMPI PUSH2 0x1331 PUSH2 0xD8B JUMP JUMPDEST JUMPDEST PUSH1 0x0 PUSH2 0x1340 DUP5 DUP3 DUP6 ADD PUSH2 0x1307 JUMP JUMPDEST SWAP2 POP POP SWAP3 SWAP2 POP POP JUMP JUMPDEST PUSH1 0x0 PUSH1 0x80 DUP3 ADD SWAP1 POP PUSH2 0x135E PUSH1 0x0 DUP4 ADD DUP8 PUSH2 0x108E JUMP JUMPDEST PUSH2 0x136B PUSH1 0x20 DUP4 ADD DUP7 PUSH2 0x10B8 JUMP JUMPDEST PUSH2 0x1378 PUSH1 0x40 DUP4 ADD DUP6 PUSH2 0x10B8 JUMP JUMPDEST PUSH2 0x1385 PUSH1 0x60 DUP4 ADD DUP5 PUSH2 0x10B8 JUMP JUMPDEST SWAP6 SWAP5 POP POP POP POP POP JUMP JUMPDEST PUSH1 0x0 PUSH1 0x40 DUP3 ADD SWAP1 POP PUSH2 0x13A3 PUSH1 0x0 DUP4 ADD DUP6 PUSH2 0x108E JUMP JUMPDEST PUSH2 0x13B0 PUSH1 0x20 DUP4 ADD DUP5 PUSH2 0x10B8 JUMP JUMPDEST SWAP4 SWAP3 POP POP POP JUMP JUMPDEST PUSH1 0x0 DUP2 MLOAD SWAP1 POP SWAP2 SWAP1 POP JUMP JUMPDEST PUSH1 0x0 DUP3 DUP3 MSTORE PUSH1 0x20 DUP3 ADD SWAP1 POP SWAP3 SWAP2 POP POP JUMP JUMPDEST PUSH1 0x0 JUMPDEST DUP4 DUP2 LT ISZERO PUSH2 0x13F1 JUMPI DUP1 DUP3 ADD MLOAD DUP2 DUP5 ADD MSTORE PUSH1 0x20 DUP2 ADD SWAP1 POP PUSH2 0x13D6 JUMP JUMPDEST DUP4 DUP2 GT ISZERO PUSH2 0x1400 JUMPI PUSH1 0x0 DUP5 DUP5 ADD MSTORE JUMPDEST POP POP POP POP JUMP JUMPDEST PUSH1 0x0 PUSH2 0x1411 DUP3 PUSH2 0x13B7 JUMP JUMPDEST PUSH2 0x141B DUP2 DUP6 PUSH2 0x13C2 JUMP JUMPDEST SWAP4 POP PUSH2 0x142B DUP2 DUP6 PUSH1 0x20 DUP7 ADD PUSH2 0x13D3 JUMP JUMPDEST PUSH2 0x1434 DUP2 PUSH2 0xE28 JUMP JUMPDEST DUP5 ADD SWAP2 POP POP SWAP3 SWAP2 POP POP JUMP JUMPDEST PUSH1 0x0 PUSH1 0x80 DUP3 ADD SWAP1 POP DUP2 DUP2 SUB PUSH1 0x0 DUP4 ADD MSTORE PUSH2 0x1459 DUP2 DUP8 PUSH2 0x1406 JUMP JUMPDEST SWAP1 POP DUP2 DUP2 SUB PUSH1 0x20 DUP4 ADD MSTORE PUSH2 0x146D DUP2 DUP7 PUSH2 0x1406 JUMP JUMPDEST SWAP1 POP PUSH2 0x147C PUSH1 0x40 DUP4 ADD DUP6 PUSH2 0x10B8 JUMP JUMPDEST PUSH2 0x1489 PUSH1 0x60 DUP4 ADD DUP5 PUSH2 0x108E JUMP JUMPDEST SWAP6 SWAP5 POP POP POP POP POP JUMP JUMPDEST PUSH1 0x0 PUSH1 0x40 DUP3 ADD SWAP1 POP PUSH2 0x14A7 PUSH1 0x0 DUP4 ADD DUP6 PUSH2 0x10B8 JUMP JUMPDEST PUSH2 0x14B4 PUSH1 0x20 DUP4 ADD DUP5 PUSH2 0x108E JUMP JUMPDEST SWAP4 SWAP3 POP POP POP JUMP JUMPDEST PUSH1 0x0 PUSH1 0xA0 DUP3 ADD SWAP1 POP PUSH2 0x14D0 PUSH1 0x0 DUP4 ADD DUP9 PUSH2 0x10B8 JUMP JUMPDEST DUP2 DUP2 SUB PUSH1 0x20 DUP4 ADD MSTORE PUSH2 0x14E2 DUP2 DUP8 PUSH2 0x1406 JUMP JUMPDEST SWAP1 POP DUP2 DUP2 SUB PUSH1 0x40 DUP4 ADD MSTORE PUSH2 0x14F6 DUP2 DUP7 PUSH2 0x1406 JUMP JUMPDEST SWAP1 POP PUSH2 0x1505 PUSH1 0x60 DUP4 ADD DUP6 PUSH2 0x10B8 JUMP JUMPDEST PUSH2 0x1512 PUSH1 0x80 DUP4 ADD DUP5 PUSH2 0x108E JUMP JUMPDEST SWAP7 SWAP6 POP POP POP POP POP POP JUMP INVALID LOG2 PUSH5 0x6970667358 0x22 SLT KECCAK256 0xDE DUP7 0x4D 0xD8 GAS 0xC2 JUMP DUP7 MLOAD 0x1E 0x22 0xDE 0xCA SWAP5 0xC5 0xC9 0xA9 PUSH30 0xF85831573C857A92E2A8D92333BB64736F6C634300080A00336080604052 CALLVALUE DUP1 ISZERO PUSH3 0x11 JUMPI PUSH1 0x0 DUP1 REVERT JUMPDEST POP PUSH1 0x40 MLOAD PUSH3 0x10FA CODESIZE SUB DUP1 PUSH3 0x10FA DUP4 CODECOPY DUP2 DUP2 ADD PUSH1 0x40 MSTORE DUP2 ADD SWAP1 PUSH3 0x37 SWAP2 SWAP1 PUSH3 0x129 JUMP JUMPDEST DUP1 PUSH1 0x0 DUP1 PUSH2 0x100 EXP DUP2 SLOAD DUP2 PUSH20 0xFFFFFFFFFFFFFFFFFFFFFFFFFFFFFFFFFFFFFFFF MUL NOT AND SWAP1 DUP4 PUSH20 0xFFFFFFFFFFFFFFFFFFFFFFFFFFFFFFFFFFFFFFFF AND MUL OR SWAP1 SSTORE POP CALLER PUSH1 0x1 PUSH1 0x0 PUSH2 0x100 EXP DUP2 SLOAD DUP2 PUSH20 0xFFFFFFFFFFFFFFFFFFFFFFFFFFFFFFFFFFFFFFFF MUL NOT AND SWAP1 DUP4 PUSH20 0xFFFFFFFFFFFFFFFFFFFFFFFFFFFFFFFFFFFFFFFF AND MUL OR SWAP1 SSTORE POP POP PUSH3 0x15B JUMP JUMPDEST PUSH1 0x0 DUP1 REVERT JUMPDEST PUSH1 0x0 PUSH20 0xFFFFFFFFFFFFFFFFFFFFFFFFFFFFFFFFFFFFFFFF DUP3 AND SWAP1 POP SWAP2 SWAP1 POP JUMP JUMPDEST PUSH1 0x0 PUSH3 0xF1 DUP3 PUSH3 0xC4 JUMP JUMPDEST SWAP1 POP SWAP2 SWAP1 POP JUMP JUMPDEST PUSH3 0x103 DUP2 PUSH3 0xE4 JUMP JUMPDEST DUP2 EQ PUSH3 0x10F JUMPI PUSH1 0x0 DUP1 REVERT JUMPDEST POP JUMP JUMPDEST PUSH1 0x0 DUP2 MLOAD SWAP1 POP PUSH3 0x123 DUP2 PUSH3 0xF8 JUMP JUMPDEST SWAP3 SWAP2 POP POP JUMP JUMPDEST PUSH1 0x0 PUSH1 0x20 DUP3 DUP5 SUB SLT ISZERO PUSH3 0x142 JUMPI PUSH3 0x141 PUSH3 0xBF JUMP JUMPDEST JUMPDEST PUSH1 0x0 PUSH3 0x152 DUP5 DUP3 DUP6 ADD PUSH3 0x112 JUMP JUMPDEST SWAP2 POP POP SWAP3 SWAP2 POP POP JUMP JUMPDEST PUSH2 0xF8F DUP1 PUSH3 0x16B PUSH1 0x0 CODECOPY PUSH1 0x0 RETURN INVALID PUSH1 0x80 PUSH1 0x40 MSTORE CALLVALUE DUP1 ISZERO PUSH2 0x10 JUMPI PUSH1 0x0 DUP1 REVERT JUMPDEST POP PUSH1 0x4 CALLDATASIZE LT PUSH2 0x88 JUMPI PUSH1 0x0 CALLDATALOAD PUSH1 0xE0 SHR DUP1 PUSH4 0x98FBCE79 GT PUSH2 0x5B JUMPI DUP1 PUSH4 0x98FBCE79 EQ PUSH2 0x113 JUMPI DUP1 PUSH4 0xD2C07E20 EQ PUSH2 0x147 JUMPI DUP1 PUSH4 0xD9FF0CF1 EQ PUSH2 0x163 JUMPI DUP1 PUSH4 0xF76EBE1C EQ PUSH2 0x197 JUMPI PUSH2 0x88 JUMP JUMPDEST DUP1 PUSH4 0xA6B2A25 EQ PUSH2 0x8D JUMPI DUP1 PUSH4 0x687564AE EQ PUSH2 0xA9 JUMPI DUP1 PUSH4 0x6C230EEF EQ PUSH2 0xC5 JUMPI DUP1 PUSH4 0x8DA5CB5B EQ PUSH2 0xF5 JUMPI JUMPDEST PUSH1 0x0 DUP1 REVERT JUMPDEST PUSH2 0xA7 PUSH1 0x4 DUP1 CALLDATASIZE SUB DUP2 ADD SWAP1 PUSH2 0xA2 SWAP2 SWAP1 PUSH2 0xA20 JUMP JUMPDEST PUSH2 0x1B5 JUMP JUMPDEST STOP JUMPDEST PUSH2 0xC3 PUSH1 0x4 DUP1 CALLDATASIZE SUB DUP2 ADD SWAP1 PUSH2 0xBE SWAP2 SWAP1 PUSH2 0xBF1 JUMP JUMPDEST PUSH2 0x1EA JUMP JUMPDEST STOP JUMPDEST PUSH2 0xDF PUSH1 0x4 DUP1 CALLDATASIZE SUB DUP2 ADD SWAP1 PUSH2 0xDA SWAP2 SWAP1 PUSH2 0xA20 JUMP JUMPDEST PUSH2 0x300 JUMP JUMPDEST PUSH1 0x40 MLOAD PUSH2 0xEC SWAP2 SWAP1 PUSH2 0xC9F JUMP JUMPDEST PUSH1 0x40 MLOAD DUP1 SWAP2 SUB SWAP1 RETURN JUMPDEST PUSH2 0xFD PUSH2 0x4BE JUMP JUMPDEST PUSH1 0x40 MLOAD PUSH2 0x10A SWAP2 SWAP1 PUSH2 0xCC9 JUMP JUMPDEST PUSH1 0x40 MLOAD DUP1 SWAP2 SUB SWAP1 RETURN JUMPDEST PUSH2 0x12D PUSH1 0x4 DUP1 CALLDATASIZE SUB DUP2 ADD SWAP1 PUSH2 0x128 SWAP2 SWAP1 PUSH2 0xA20 JUMP JUMPDEST PUSH2 0x4E2 JUMP JUMPDEST PUSH1 0x40 MLOAD PUSH2 0x13E SWAP6 SWAP5 SWAP4 SWAP3 SWAP2 SWAP1 PUSH2 0xD6C JUMP JUMPDEST PUSH1 0x40 MLOAD DUP1 SWAP2 SUB SWAP1 RETURN JUMPDEST PUSH2 0x161 PUSH1 0x4 DUP1 CALLDATASIZE SUB DUP2 ADD SWAP1 PUSH2 0x15C SWAP2 SWAP1 PUSH2 0xDCD JUMP JUMPDEST PUSH2 0x6C6 JUMP JUMPDEST STOP JUMPDEST PUSH2 0x17D PUSH1 0x4 DUP1 CALLDATASIZE SUB DUP2 ADD SWAP1 PUSH2 0x178 SWAP2 SWAP1 PUSH2 0xA20 JUMP JUMPDEST PUSH2 0x7C7 JUMP JUMPDEST PUSH1 0x40 MLOAD PUSH2 0x18E SWAP6 SWAP5 SWAP4 SWAP3 SWAP2 SWAP1 PUSH2 0xD6C JUMP JUMPDEST PUSH1 0x40 MLOAD DUP1 SWAP2 SUB SWAP1 RETURN JUMPDEST PUSH2 0x19F PUSH2 0x92D JUMP JUMPDEST PUSH1 0x40 MLOAD PUSH2 0x1AC SWAP2 SWAP1 PUSH2 0xC9F JUMP JUMPDEST PUSH1 0x40 MLOAD DUP1 SWAP2 SUB SWAP1 RETURN JUMPDEST PUSH1 0x0 PUSH1 0x3 PUSH1 0x0 DUP4 DUP2 MSTORE PUSH1 0x20 ADD SWAP1 DUP2 MSTORE PUSH1 0x20 ADD PUSH1 0x0 KECCAK256 SWAP1 POP DUP1 PUSH1 0x3 ADD PUSH1 0x0 DUP2 SLOAD DUP1 SWAP3 SWAP2 SWAP1 PUSH2 0x1E1 SWAP1 PUSH2 0xEAF JUMP JUMPDEST SWAP2 SWAP1 POP SSTORE POP POP POP JUMP JUMPDEST CALLER PUSH20 0xFFFFFFFFFFFFFFFFFFFFFFFFFFFFFFFFFFFFFFFF AND PUSH1 0x1 PUSH1 0x0 SWAP1 SLOAD SWAP1 PUSH2 0x100 EXP SWAP1 DIV PUSH20 0xFFFFFFFFFFFFFFFFFFFFFFFFFFFFFFFFFFFFFFFF AND PUSH20 0xFFFFFFFFFFFFFFFFFFFFFFFFFFFFFFFFFFFFFFFF AND EQ PUSH2 0x244 JUMPI PUSH1 0x0 DUP1 REVERT JUMPDEST PUSH1 0x0 PUSH1 0x3 PUSH1 0x0 PUSH1 0x2 PUSH1 0x0 DUP2 SLOAD DUP1 SWAP3 SWAP2 SWAP1 PUSH2 0x25D SWAP1 PUSH2 0xEAF JUMP JUMPDEST SWAP2 SWAP1 POP SSTORE DUP2 MSTORE PUSH1 0x20 ADD SWAP1 DUP2 MSTORE PUSH1 0x20 ADD PUSH1 0x0 KECCAK256 SWAP1 POP DUP5 DUP2 PUSH1 0x0 ADD SWAP1 DUP1 MLOAD SWAP1 PUSH1 0x20 ADD SWAP1 PUSH2 0x289 SWAP3 SWAP2 SWAP1 PUSH2 0x933 JUMP JUMPDEST POP DUP4 DUP2 PUSH1 0x1 ADD SWAP1 DUP1 MLOAD SWAP1 PUSH1 0x20 ADD SWAP1 PUSH2 0x2A2 SWAP3 SWAP2 SWAP1 PUSH2 0x933 JUMP JUMPDEST POP DUP3 DUP2 PUSH1 0x2 ADD DUP2 SWAP1 SSTORE POP PUSH1 0x0 DUP2 PUSH1 0x3 ADD DUP2 SWAP1 SSTORE POP DUP2 DUP2 PUSH1 0x4 ADD PUSH1 0x0 PUSH2 0x100 EXP DUP2 SLOAD DUP2 PUSH20 0xFFFFFFFFFFFFFFFFFFFFFFFFFFFFFFFFFFFFFFFF MUL NOT AND SWAP1 DUP4 PUSH20 0xFFFFFFFFFFFFFFFFFFFFFFFFFFFFFFFFFFFFFFFF AND MUL OR SWAP1 SSTORE POP POP POP POP POP POP JUMP JUMPDEST PUSH1 0x0 DUP1 PUSH1 0x3 PUSH1 0x0 DUP5 DUP2 MSTORE PUSH1 0x20 ADD SWAP1 DUP2 MSTORE PUSH1 0x20 ADD PUSH1 0x0 KECCAK256 PUSH1 0x40 MLOAD DUP1 PUSH1 0xA0 ADD PUSH1 0x40 MSTORE SWAP1 DUP2 PUSH1 0x0 DUP3 ADD DUP1 SLOAD PUSH2 0x331 SWAP1 PUSH2 0xF27 JUMP JUMPDEST DUP1 PUSH1 0x1F ADD PUSH1 0x20 DUP1 SWAP2 DIV MUL PUSH1 0x20 ADD PUSH1 0x40 MLOAD SWAP1 DUP2 ADD PUSH1 0x40 MSTORE DUP1 SWAP3 SWAP2 SWAP1 DUP2 DUP2 MSTORE PUSH1 0x20 ADD DUP3 DUP1 SLOAD PUSH2 0x35D SWAP1 PUSH2 0xF27 JUMP JUMPDEST DUP1 ISZERO PUSH2 0x3AA JUMPI DUP1 PUSH1 0x1F LT PUSH2 0x37F JUMPI PUSH2 0x100 DUP1 DUP4 SLOAD DIV MUL DUP4 MSTORE SWAP2 PUSH1 0x20 ADD SWAP2 PUSH2 0x3AA JUMP JUMPDEST DUP3 ADD SWAP2 SWAP1 PUSH1 0x0 MSTORE PUSH1 0x20 PUSH1 0x0 KECCAK256 SWAP1 JUMPDEST DUP2 SLOAD DUP2 MSTORE SWAP1 PUSH1 0x1 ADD SWAP1 PUSH1 0x20 ADD DUP1 DUP4 GT PUSH2 0x38D JUMPI DUP3 SWAP1 SUB PUSH1 0x1F AND DUP3 ADD SWAP2 JUMPDEST POP POP POP POP POP DUP2 MSTORE PUSH1 0x20 ADD PUSH1 0x1 DUP3 ADD DUP1 SLOAD PUSH2 0x3C3 SWAP1 PUSH2 0xF27 JUMP JUMPDEST DUP1 PUSH1 0x1F ADD PUSH1 0x20 DUP1 SWAP2 DIV MUL PUSH1 0x20 ADD PUSH1 0x40 MLOAD SWAP1 DUP2 ADD PUSH1 0x40 MSTORE DUP1 SWAP3 SWAP2 SWAP1 DUP2 DUP2 MSTORE PUSH1 0x20 ADD DUP3 DUP1 SLOAD PUSH2 0x3EF SWAP1 PUSH2 0xF27 JUMP JUMPDEST DUP1 ISZERO PUSH2 0x43C JUMPI DUP1 PUSH1 0x1F LT PUSH2 0x411 JUMPI PUSH2 0x100 DUP1 DUP4 SLOAD DIV MUL DUP4 MSTORE SWAP2 PUSH1 0x20 ADD SWAP2 PUSH2 0x43C JUMP JUMPDEST DUP3 ADD SWAP2 SWAP1 PUSH1 0x0 MSTORE PUSH1 0x20 PUSH1 0x0 KECCAK256 SWAP1 JUMPDEST DUP2 SLOAD DUP2 MSTORE SWAP1 PUSH1 0x1 ADD SWAP1 PUSH1 0x20 ADD DUP1 DUP4 GT PUSH2 0x41F JUMPI DUP3 SWAP1 SUB PUSH1 0x1F AND DUP3 ADD SWAP2 JUMPDEST POP POP POP POP POP DUP2 MSTORE PUSH1 0x20 ADD PUSH1 0x2 DUP3 ADD SLOAD DUP2 MSTORE PUSH1 0x20 ADD PUSH1 0x3 DUP3 ADD SLOAD DUP2 MSTORE PUSH1 0x20 ADD PUSH1 0x4 DUP3 ADD PUSH1 0x0 SWAP1 SLOAD SWAP1 PUSH2 0x100 EXP SWAP1 DIV PUSH20 0xFFFFFFFFFFFFFFFFFFFFFFFFFFFFFFFFFFFFFFFF AND PUSH20 0xFFFFFFFFFFFFFFFFFFFFFFFFFFFFFFFFFFFFFFFF AND PUSH20 0xFFFFFFFFFFFFFFFFFFFFFFFFFFFFFFFFFFFFFFFF AND DUP2 MSTORE POP POP SWAP1 POP DUP1 PUSH1 0x40 ADD MLOAD SWAP2 POP POP SWAP2 SWAP1 POP JUMP JUMPDEST PUSH1 0x0 DUP1 SLOAD SWAP1 PUSH2 0x100 EXP SWAP1 DIV PUSH20 0xFFFFFFFFFFFFFFFFFFFFFFFFFFFFFFFFFFFFFFFF AND DUP2 JUMP JUMPDEST PUSH1 0x60 DUP1 PUSH1 0x0 DUP1 PUSH1 0x0 DUP1 PUSH1 0x3 PUSH1 0x0 DUP9 DUP2 MSTORE PUSH1 0x20 ADD SWAP1 DUP2 MSTORE PUSH1 0x20 ADD PUSH1 0x0 KECCAK256 PUSH1 0x40 MLOAD DUP1 PUSH1 0xA0 ADD PUSH1 0x40 MSTORE SWAP1 DUP2 PUSH1 0x0 DUP3 ADD DUP1 SLOAD PUSH2 0x519 SWAP1 PUSH2 0xF27 JUMP JUMPDEST DUP1 PUSH1 0x1F ADD PUSH1 0x20 DUP1 SWAP2 DIV MUL PUSH1 0x20 ADD PUSH1 0x40 MLOAD SWAP1 DUP2 ADD PUSH1 0x40 MSTORE DUP1 SWAP3 SWAP2 SWAP1 DUP2 DUP2 MSTORE PUSH1 0x20 ADD DUP3 DUP1 SLOAD PUSH2 0x545 SWAP1 PUSH2 0xF27 JUMP JUMPDEST DUP1 ISZERO PUSH2 0x592 JUMPI DUP1 PUSH1 0x1F LT PUSH2 0x567 JUMPI PUSH2 0x100 DUP1 DUP4 SLOAD DIV MUL DUP4 MSTORE SWAP2 PUSH1 0x20 ADD SWAP2 PUSH2 0x592 JUMP JUMPDEST DUP3 ADD SWAP2 SWAP1 PUSH1 0x0 MSTORE PUSH1 0x20 PUSH1 0x0 KECCAK256 SWAP1 JUMPDEST DUP2 SLOAD DUP2 MSTORE SWAP1 PUSH1 0x1 ADD SWAP1 PUSH1 0x20 ADD DUP1 DUP4 GT PUSH2 0x575 JUMPI DUP3 SWAP1 SUB PUSH1 0x1F AND DUP3 ADD SWAP2 JUMPDEST POP POP POP POP POP DUP2 MSTORE PUSH1 0x20 ADD PUSH1 0x1 DUP3 ADD DUP1 SLOAD PUSH2 0x5AB SWAP1 PUSH2 0xF27 JUMP JUMPDEST DUP1 PUSH1 0x1F ADD PUSH1 0x20 DUP1 SWAP2 DIV MUL PUSH1 0x20 ADD PUSH1 0x40 MLOAD SWAP1 DUP2 ADD PUSH1 0x40 MSTORE DUP1 SWAP3 SWAP2 SWAP1 DUP2 DUP2 MSTORE PUSH1 0x20 ADD DUP3 DUP1 SLOAD PUSH2 0x5D7 SWAP1 PUSH2 0xF27 JUMP JUMPDEST DUP1 ISZERO PUSH2 0x624 JUMPI DUP1 PUSH1 0x1F LT PUSH2 0x5F9 JUMPI PUSH2 0x100 DUP1 DUP4 SLOAD DIV MUL DUP4 MSTORE SWAP2 PUSH1 0x20 ADD SWAP2 PUSH2 0x624 JUMP JUMPDEST DUP3 ADD SWAP2 SWAP1 PUSH1 0x0 MSTORE PUSH1 0x20 PUSH1 0x0 KECCAK256 SWAP1 JUMPDEST DUP2 SLOAD DUP2 MSTORE SWAP1 PUSH1 0x1 ADD SWAP1 PUSH1 0x20 ADD DUP1 DUP4 GT PUSH2 0x607 JUMPI DUP3 SWAP1 SUB PUSH1 0x1F AND DUP3 ADD SWAP2 JUMPDEST POP POP POP POP POP DUP2 MSTORE PUSH1 0x20 ADD PUSH1 0x2 DUP3 ADD SLOAD DUP2 MSTORE PUSH1 0x20 ADD PUSH1 0x3 DUP3 ADD SLOAD DUP2 MSTORE PUSH1 0x20 ADD PUSH1 0x4 DUP3 ADD PUSH1 0x0 SWAP1 SLOAD SWAP1 PUSH2 0x100 EXP SWAP1 DIV PUSH20 0xFFFFFFFFFFFFFFFFFFFFFFFFFFFFFFFFFFFFFFFF AND PUSH20 0xFFFFFFFFFFFFFFFFFFFFFFFFFFFFFFFFFFFFFFFF AND PUSH20 0xFFFFFFFFFFFFFFFFFFFFFFFFFFFFFFFFFFFFFFFF AND DUP2 MSTORE POP POP SWAP1 POP DUP1 PUSH1 0x0 ADD MLOAD DUP2 PUSH1 0x20 ADD MLOAD DUP3 PUSH1 0x40 ADD MLOAD DUP4 PUSH1 0x60 ADD MLOAD DUP5 PUSH1 0x80 ADD MLOAD SWAP6 POP SWAP6 POP SWAP6 POP SWAP6 POP SWAP6 POP POP SWAP2 SWAP4 SWAP6 SWAP1 SWAP3 SWAP5 POP JUMP JUMPDEST CALLER PUSH20 0xFFFFFFFFFFFFFFFFFFFFFFFFFFFFFFFFFFFFFFFF AND PUSH1 0x1 PUSH1 0x0 SWAP1 SLOAD SWAP1 PUSH2 0x100 EXP SWAP1 DIV PUSH20 0xFFFFFFFFFFFFFFFFFFFFFFFFFFFFFFFFFFFFFFFF AND PUSH20 0xFFFFFFFFFFFFFFFFFFFFFFFFFFFFFFFFFFFFFFFF AND EQ PUSH2 0x720 JUMPI PUSH1 0x0 DUP1 REVERT JUMPDEST PUSH1 0x0 PUSH1 0x3 PUSH1 0x0 DUP8 DUP2 MSTORE PUSH1 0x20 ADD SWAP1 DUP2 MSTORE PUSH1 0x20 ADD PUSH1 0x0 KECCAK256 SWAP1 POP DUP5 DUP2 PUSH1 0x0 ADD SWAP1 DUP1 MLOAD SWAP1 PUSH1 0x20 ADD SWAP1 PUSH2 0x74F SWAP3 SWAP2 SWAP1 PUSH2 0x933 JUMP JUMPDEST POP DUP4 DUP2 PUSH1 0x1 ADD SWAP1 DUP1 MLOAD SWAP1 PUSH1 0x20 ADD SWAP1 PUSH2 0x768 SWAP3 SWAP2 SWAP1 PUSH2 0x933 JUMP JUMPDEST POP DUP3 DUP2 PUSH1 0x2 ADD DUP2 SWAP1 SSTORE POP PUSH1 0x0 DUP2 PUSH1 0x3 ADD DUP2 SWAP1 SSTORE POP DUP2 DUP2 PUSH1 0x4 ADD PUSH1 0x0 PUSH2 0x100 EXP DUP2 SLOAD DUP2 PUSH20 0xFFFFFFFFFFFFFFFFFFFFFFFFFFFFFFFFFFFFFFFF MUL NOT AND SWAP1 DUP4 PUSH20 0xFFFFFFFFFFFFFFFFFFFFFFFFFFFFFFFFFFFFFFFF AND MUL OR SWAP1 SSTORE POP POP POP POP POP POP POP JUMP JUMPDEST PUSH1 0x3 PUSH1 0x20 MSTORE DUP1 PUSH1 0x0 MSTORE PUSH1 0x40 PUSH1 0x0 KECCAK256 PUSH1 0x0 SWAP2 POP SWAP1 POP DUP1 PUSH1 0x0 ADD DUP1 SLOAD PUSH2 0x7EA SWAP1 PUSH2 0xF27 JUMP JUMPDEST DUP1 PUSH1 0x1F ADD PUSH1 0x20 DUP1 SWAP2 DIV MUL PUSH1 0x20 ADD PUSH1 0x40 MLOAD SWAP1 DUP2 ADD PUSH1 0x40 MSTORE DUP1 SWAP3 SWAP2 SWAP1 DUP2 DUP2 MSTORE PUSH1 0x20 ADD DUP3 DUP1 SLOAD PUSH2 0x816 SWAP1 PUSH2 0xF27 JUMP JUMPDEST DUP1 ISZERO PUSH2 0x863 JUMPI DUP1 PUSH1 0x1F LT PUSH2 0x838 JUMPI PUSH2 0x100 DUP1 DUP4 SLOAD DIV MUL DUP4 MSTORE SWAP2 PUSH1 0x20 ADD SWAP2 PUSH2 0x863 JUMP JUMPDEST DUP3 ADD SWAP2 SWAP1 PUSH1 0x0 MSTORE PUSH1 0x20 PUSH1 0x0 KECCAK256 SWAP1 JUMPDEST DUP2 SLOAD DUP2 MSTORE SWAP1 PUSH1 0x1 ADD SWAP1 PUSH1 0x20 ADD DUP1 DUP4 GT PUSH2 0x846 JUMPI DUP3 SWAP1 SUB PUSH1 0x1F AND DUP3 ADD SWAP2 JUMPDEST POP POP POP POP POP SWAP1 DUP1 PUSH1 0x1 ADD DUP1 SLOAD PUSH2 0x878 SWAP1 PUSH2 0xF27 JUMP JUMPDEST DUP1 PUSH1 0x1F ADD PUSH1 0x20 DUP1 SWAP2 DIV MUL PUSH1 0x20 ADD PUSH1 0x40 MLOAD SWAP1 DUP2 ADD PUSH1 0x40 MSTORE DUP1 SWAP3 SWAP2 SWAP1 DUP2 DUP2 MSTORE PUSH1 0x20 ADD DUP3 DUP1 SLOAD PUSH2 0x8A4 SWAP1 PUSH2 0xF27 JUMP JUMPDEST DUP1 ISZERO PUSH2 0x8F1 JUMPI DUP1 PUSH1 0x1F LT PUSH2 0x8C6 JUMPI PUSH2 0x100 DUP1 DUP4 SLOAD DIV MUL DUP4 MSTORE SWAP2 PUSH1 0x20 ADD SWAP2 PUSH2 0x8F1 JUMP JUMPDEST DUP3 ADD SWAP2 SWAP1 PUSH1 0x0 MSTORE PUSH1 0x20 PUSH1 0x0 KECCAK256 SWAP1 JUMPDEST DUP2 SLOAD DUP2 MSTORE SWAP1 PUSH1 0x1 ADD SWAP1 PUSH1 0x20 ADD DUP1 DUP4 GT PUSH2 0x8D4 JUMPI DUP3 SWAP1 SUB PUSH1 0x1F AND DUP3 ADD SWAP2 JUMPDEST POP POP POP POP POP SWAP1 DUP1 PUSH1 0x2 ADD SLOAD SWAP1 DUP1 PUSH1 0x3 ADD SLOAD SWAP1 DUP1 PUSH1 0x4 ADD PUSH1 0x0 SWAP1 SLOAD SWAP1 PUSH2 0x100 EXP SWAP1 DIV PUSH20 0xFFFFFFFFFFFFFFFFFFFFFFFFFFFFFFFFFFFFFFFF AND SWAP1 POP DUP6 JUMP JUMPDEST PUSH1 0x2 SLOAD DUP2 JUMP JUMPDEST DUP3 DUP1 SLOAD PUSH2 0x93F SWAP1 PUSH2 0xF27 JUMP JUMPDEST SWAP1 PUSH1 0x0 MSTORE PUSH1 0x20 PUSH1 0x0 KECCAK256 SWAP1 PUSH1 0x1F ADD PUSH1 0x20 SWAP1 DIV DUP2 ADD SWAP3 DUP3 PUSH2 0x961 JUMPI PUSH1 0x0 DUP6 SSTORE PUSH2 0x9A8 JUMP JUMPDEST DUP3 PUSH1 0x1F LT PUSH2 0x97A JUMPI DUP1 MLOAD PUSH1 0xFF NOT AND DUP4 DUP1 ADD OR DUP6 SSTORE PUSH2 0x9A8 JUMP JUMPDEST DUP3 DUP1 ADD PUSH1 0x1 ADD DUP6 SSTORE DUP3 ISZERO PUSH2 0x9A8 JUMPI SWAP2 DUP3 ADD JUMPDEST DUP3 DUP2 GT ISZERO PUSH2 0x9A7 JUMPI DUP3 MLOAD DUP3 SSTORE SWAP2 PUSH1 0x20 ADD SWAP2 SWAP1 PUSH1 0x1 ADD SWAP1 PUSH2 0x98C JUMP JUMPDEST JUMPDEST POP SWAP1 POP PUSH2 0x9B5 SWAP2 SWAP1 PUSH2 0x9B9 JUMP JUMPDEST POP SWAP1 JUMP JUMPDEST JUMPDEST DUP1 DUP3 GT ISZERO PUSH2 0x9D2 JUMPI PUSH1 0x0 DUP2 PUSH1 0x0 SWAP1 SSTORE POP PUSH1 0x1 ADD PUSH2 0x9BA JUMP JUMPDEST POP SWAP1 JUMP JUMPDEST PUSH1 0x0 PUSH1 0x40 MLOAD SWAP1 POP SWAP1 JUMP JUMPDEST PUSH1 0x0 DUP1 REVERT JUMPDEST PUSH1 0x0 DUP1 REVERT JUMPDEST PUSH1 0x0 DUP2 SWAP1 POP SWAP2 SWAP1 POP JUMP JUMPDEST PUSH2 0x9FD DUP2 PUSH2 0x9EA JUMP JUMPDEST DUP2 EQ PUSH2 0xA08 JUMPI PUSH1 0x0 DUP1 REVERT JUMPDEST POP JUMP JUMPDEST PUSH1 0x0 DUP2 CALLDATALOAD SWAP1 POP PUSH2 0xA1A DUP2 PUSH2 0x9F4 JUMP JUMPDEST SWAP3 SWAP2 POP POP JUMP JUMPDEST PUSH1 0x0 PUSH1 0x20 DUP3 DUP5 SUB SLT ISZERO PUSH2 0xA36 JUMPI PUSH2 0xA35 PUSH2 0x9E0 JUMP JUMPDEST JUMPDEST PUSH1 0x0 PUSH2 0xA44 DUP5 DUP3 DUP6 ADD PUSH2 0xA0B JUMP JUMPDEST SWAP2 POP POP SWAP3 SWAP2 POP POP JUMP JUMPDEST PUSH1 0x0 DUP1 REVERT JUMPDEST PUSH1 0x0 DUP1 REVERT JUMPDEST PUSH1 0x0 PUSH1 0x1F NOT PUSH1 0x1F DUP4 ADD AND SWAP1 POP SWAP2 SWAP1 POP JUMP JUMPDEST PUSH32 0x4E487B7100000000000000000000000000000000000000000000000000000000 PUSH1 0x0 MSTORE PUSH1 0x41 PUSH1 0x4 MSTORE PUSH1 0x24 PUSH1 0x0 REVERT JUMPDEST PUSH2 0xAA0 DUP3 PUSH2 0xA57 JUMP JUMPDEST DUP2 ADD DUP2 DUP2 LT PUSH8 0xFFFFFFFFFFFFFFFF DUP3 GT OR ISZERO PUSH2 0xABF JUMPI PUSH2 0xABE PUSH2 0xA68 JUMP JUMPDEST JUMPDEST DUP1 PUSH1 0x40 MSTORE POP POP POP JUMP JUMPDEST PUSH1 0x0 PUSH2 0xAD2 PUSH2 0x9D6 JUMP JUMPDEST SWAP1 POP PUSH2 0xADE DUP3 DUP3 PUSH2 0xA97 JUMP JUMPDEST SWAP2 SWAP1 POP JUMP JUMPDEST PUSH1 0x0 PUSH8 0xFFFFFFFFFFFFFFFF DUP3 GT ISZERO PUSH2 0xAFE JUMPI PUSH2 0xAFD PUSH2 0xA68 JUMP JUMPDEST JUMPDEST PUSH2 0xB07 DUP3 PUSH2 0xA57 JUMP JUMPDEST SWAP1 POP PUSH1 0x20 DUP2 ADD SWAP1 POP SWAP2 SWAP1 POP JUMP JUMPDEST DUP3 DUP2 DUP4 CALLDATACOPY PUSH1 0x0 DUP4 DUP4 ADD MSTORE POP POP POP JUMP JUMPDEST PUSH1 0x0 PUSH2 0xB36 PUSH2 0xB31 DUP5 PUSH2 0xAE3 JUMP JUMPDEST PUSH2 0xAC8 JUMP JUMPDEST SWAP1 POP DUP3 DUP2 MSTORE PUSH1 0x20 DUP2 ADD DUP5 DUP5 DUP5 ADD GT ISZERO PUSH2 0xB52 JUMPI PUSH2 0xB51 PUSH2 0xA52 JUMP JUMPDEST JUMPDEST PUSH2 0xB5D DUP5 DUP3 DUP6 PUSH2 0xB14 JUMP JUMPDEST POP SWAP4 SWAP3 POP POP POP JUMP JUMPDEST PUSH1 0x0 DUP3 PUSH1 0x1F DUP4 ADD SLT PUSH2 0xB7A JUMPI PUSH2 0xB79 PUSH2 0xA4D JUMP JUMPDEST JUMPDEST DUP2 CALLDATALOAD PUSH2 0xB8A DUP5 DUP3 PUSH1 0x20 DUP7 ADD PUSH2 0xB23 JUMP JUMPDEST SWAP2 POP POP SWAP3 SWAP2 POP POP JUMP JUMPDEST PUSH1 0x0 PUSH20 0xFFFFFFFFFFFFFFFFFFFFFFFFFFFFFFFFFFFFFFFF DUP3 AND SWAP1 POP SWAP2 SWAP1 POP JUMP JUMPDEST PUSH1 0x0 PUSH2 0xBBE DUP3 PUSH2 0xB93 JUMP JUMPDEST SWAP1 POP SWAP2 SWAP1 POP JUMP JUMPDEST PUSH2 0xBCE DUP2 PUSH2 0xBB3 JUMP JUMPDEST DUP2 EQ PUSH2 0xBD9 JUMPI PUSH1 0x0 DUP1 REVERT JUMPDEST POP JUMP JUMPDEST PUSH1 0x0 DUP2 CALLDATALOAD SWAP1 POP PUSH2 0xBEB DUP2 PUSH2 0xBC5 JUMP JUMPDEST SWAP3 SWAP2 POP POP JUMP JUMPDEST PUSH1 0x0 DUP1 PUSH1 0x0 DUP1 PUSH1 0x80 DUP6 DUP8 SUB SLT ISZERO PUSH2 0xC0B JUMPI PUSH2 0xC0A PUSH2 0x9E0 JUMP JUMPDEST JUMPDEST PUSH1 0x0 DUP6 ADD CALLDATALOAD PUSH8 0xFFFFFFFFFFFFFFFF DUP2 GT ISZERO PUSH2 0xC29 JUMPI PUSH2 0xC28 PUSH2 0x9E5 JUMP JUMPDEST JUMPDEST PUSH2 0xC35 DUP8 DUP3 DUP9 ADD PUSH2 0xB65 JUMP JUMPDEST SWAP5 POP POP PUSH1 0x20 DUP6 ADD CALLDATALOAD PUSH8 0xFFFFFFFFFFFFFFFF DUP2 GT ISZERO PUSH2 0xC56 JUMPI PUSH2 0xC55 PUSH2 0x9E5 JUMP JUMPDEST JUMPDEST PUSH2 0xC62 DUP8 DUP3 DUP9 ADD PUSH2 0xB65 JUMP JUMPDEST SWAP4 POP POP PUSH1 0x40 PUSH2 0xC73 DUP8 DUP3 DUP9 ADD PUSH2 0xA0B JUMP JUMPDEST SWAP3 POP POP PUSH1 0x60 PUSH2 0xC84 DUP8 DUP3 DUP9 ADD PUSH2 0xBDC JUMP JUMPDEST SWAP2 POP POP SWAP3 SWAP6 SWAP2 SWAP5 POP SWAP3 POP JUMP JUMPDEST PUSH2 0xC99 DUP2 PUSH2 0x9EA JUMP JUMPDEST DUP3 MSTORE POP POP JUMP JUMPDEST PUSH1 0x0 PUSH1 0x20 DUP3 ADD SWAP1 POP PUSH2 0xCB4 PUSH1 0x0 DUP4 ADD DUP5 PUSH2 0xC90 JUMP JUMPDEST SWAP3 SWAP2 POP POP JUMP JUMPDEST PUSH2 0xCC3 DUP2 PUSH2 0xBB3 JUMP JUMPDEST DUP3 MSTORE POP POP JUMP JUMPDEST PUSH1 0x0 PUSH1 0x20 DUP3 ADD SWAP1 POP PUSH2 0xCDE PUSH1 0x0 DUP4 ADD DUP5 PUSH2 0xCBA JUMP JUMPDEST SWAP3 SWAP2 POP POP JUMP JUMPDEST PUSH1 0x0 DUP2 MLOAD SWAP1 POP SWAP2 SWAP1 POP JUMP JUMPDEST PUSH1 0x0 DUP3 DUP3 MSTORE PUSH1 0x20 DUP3 ADD SWAP1 POP SWAP3 SWAP2 POP POP JUMP JUMPDEST PUSH1 0x0 JUMPDEST DUP4 DUP2 LT ISZERO PUSH2 0xD1E JUMPI DUP1 DUP3 ADD MLOAD DUP2 DUP5 ADD MSTORE PUSH1 0x20 DUP2 ADD SWAP1 POP PUSH2 0xD03 JUMP JUMPDEST DUP4 DUP2 GT ISZERO PUSH2 0xD2D JUMPI PUSH1 0x0 DUP5 DUP5 ADD MSTORE JUMPDEST POP POP POP POP JUMP JUMPDEST PUSH1 0x0 PUSH2 0xD3E DUP3 PUSH2 0xCE4 JUMP JUMPDEST PUSH2 0xD48 DUP2 DUP6 PUSH2 0xCEF JUMP JUMPDEST SWAP4 POP PUSH2 0xD58 DUP2 DUP6 PUSH1 0x20 DUP7 ADD PUSH2 0xD00 JUMP JUMPDEST PUSH2 0xD61 DUP2 PUSH2 0xA57 JUMP JUMPDEST DUP5 ADD SWAP2 POP POP SWAP3 SWAP2 POP POP JUMP JUMPDEST PUSH1 0x0 PUSH1 0xA0 DUP3 ADD SWAP1 POP DUP2 DUP2 SUB PUSH1 0x0 DUP4 ADD MSTORE PUSH2 0xD86 DUP2 DUP9 PUSH2 0xD33 JUMP JUMPDEST SWAP1 POP DUP2 DUP2 SUB PUSH1 0x20 DUP4 ADD MSTORE PUSH2 0xD9A DUP2 DUP8 PUSH2 0xD33 JUMP JUMPDEST SWAP1 POP PUSH2 0xDA9 PUSH1 0x40 DUP4 ADD DUP7 PUSH2 0xC90 JUMP JUMPDEST PUSH2 0xDB6 PUSH1 0x60 DUP4 ADD DUP6 PUSH2 0xC90 JUMP JUMPDEST PUSH2 0xDC3 PUSH1 0x80 DUP4 ADD DUP5 PUSH2 0xCBA JUMP JUMPDEST SWAP7 SWAP6 POP POP POP POP POP POP JUMP JUMPDEST PUSH1 0x0 DUP1 PUSH1 0x0 DUP1 PUSH1 0x0 PUSH1 0xA0 DUP7 DUP9 SUB SLT ISZERO PUSH2 0xDE9 JUMPI PUSH2 0xDE8 PUSH2 0x9E0 JUMP JUMPDEST JUMPDEST PUSH1 0x0 PUSH2 0xDF7 DUP9 DUP3 DUP10 ADD PUSH2 0xA0B JUMP JUMPDEST SWAP6 POP POP PUSH1 0x20 DUP7 ADD CALLDATALOAD PUSH8 0xFFFFFFFFFFFFFFFF DUP2 GT ISZERO PUSH2 0xE18 JUMPI PUSH2 0xE17 PUSH2 0x9E5 JUMP JUMPDEST JUMPDEST PUSH2 0xE24 DUP9 DUP3 DUP10 ADD PUSH2 0xB65 JUMP JUMPDEST SWAP5 POP POP PUSH1 0x40 DUP7 ADD CALLDATALOAD PUSH8 0xFFFFFFFFFFFFFFFF DUP2 GT ISZERO PUSH2 0xE45 JUMPI PUSH2 0xE44 PUSH2 0x9E5 JUMP JUMPDEST JUMPDEST PUSH2 0xE51 DUP9 DUP3 DUP10 ADD PUSH2 0xB65 JUMP JUMPDEST SWAP4 POP POP PUSH1 0x60 PUSH2 0xE62 DUP9 DUP3 DUP10 ADD PUSH2 0xA0B JUMP JUMPDEST SWAP3 POP POP PUSH1 0x80 PUSH2 0xE73 DUP9 DUP3 DUP10 ADD PUSH2 0xBDC JUMP JUMPDEST SWAP2 POP POP SWAP3 SWAP6 POP SWAP3 SWAP6 SWAP1 SWAP4 POP JUMP JUMPDEST PUSH32 0x4E487B7100000000000000000000000000000000000000000000000000000000 PUSH1 0x0 MSTORE PUSH1 0x11 PUSH1 0x4 MSTORE PUSH1 0x24 PUSH1 0x0 REVERT JUMPDEST PUSH1 0x0 PUSH2 0xEBA DUP3 PUSH2 0x9EA JUMP JUMPDEST SWAP2 POP PUSH32 0xFFFFFFFFFFFFFFFFFFFFFFFFFFFFFFFFFFFFFFFFFFFFFFFFFFFFFFFFFFFFFFFF DUP3 EQ ISZERO PUSH2 0xEED JUMPI PUSH2 0xEEC PUSH2 0xE80 JUMP JUMPDEST JUMPDEST PUSH1 0x1 DUP3 ADD SWAP1 POP SWAP2 SWAP1 POP JUMP JUMPDEST PUSH32 0x4E487B7100000000000000000000000000000000000000000000000000000000 PUSH1 0x0 MSTORE PUSH1 0x22 PUSH1 0x4 MSTORE PUSH1 0x24 PUSH1 0x0 REVERT JUMPDEST PUSH1 0x0 PUSH1 0x2 DUP3 DIV SWAP1 POP PUSH1 0x1 DUP3 AND DUP1 PUSH2 0xF3F JUMPI PUSH1 0x7F DUP3 AND SWAP2 POP JUMPDEST PUSH1 0x20 DUP3 LT DUP2 EQ ISZERO PUSH2 0xF53 JUMPI PUSH2 0xF52 PUSH2 0xEF8 JUMP JUMPDEST JUMPDEST POP SWAP2 SWAP1 POP JUMP INVALID LOG2 PUSH5 0x6970667358 0x22 SLT KECCAK256 DUP9 0xBF DIFFICULTY 0x25 0xC6 0xEC SWAP9 0xB6 SELFBALANCE PUSH12 0xDBE90C6516B5C4388C5036CC 0xCD GASPRICE 0xAE GASLIMIT 0x26 ADDMOD SIGNEXTEND SWAP13 BYTE 0x5E PUSH5 0x736F6C6343 STOP ADDMOD EXP STOP CALLER PUSH1 0x80 PUSH1 0x40 MSTORE CALLVALUE DUP1 ISZERO PUSH2 0x10 JUMPI PUSH1 0x0 DUP1 REVERT JUMPDEST POP PUSH1 0x40 MLOAD PUSH2 0xE6C CODESIZE SUB DUP1 PUSH2 0xE6C DUP4 CODECOPY DUP2 DUP2 ADD PUSH1 0x40 MSTORE DUP2 ADD SWAP1 PUSH2 0x32 SWAP2 SWAP1 PUSH2 0x11C JUMP JUMPDEST DUP1 PUSH1 0x0 DUP1 PUSH2 0x100 EXP DUP2 SLOAD DUP2 PUSH20 0xFFFFFFFFFFFFFFFFFFFFFFFFFFFFFFFFFFFFFFFF MUL NOT AND SWAP1 DUP4 PUSH20 0xFFFFFFFFFFFFFFFFFFFFFFFFFFFFFFFFFFFFFFFF AND MUL OR SWAP1 SSTORE POP CALLER PUSH1 0x1 PUSH1 0x0 PUSH2 0x100 EXP DUP2 SLOAD DUP2 PUSH20 0xFFFFFFFFFFFFFFFFFFFFFFFFFFFFFFFFFFFFFFFF MUL NOT AND SWAP1 DUP4 PUSH20 0xFFFFFFFFFFFFFFFFFFFFFFFFFFFFFFFFFFFFFFFF AND MUL OR SWAP1 SSTORE POP POP PUSH2 0x149 JUMP JUMPDEST PUSH1 0x0 DUP1 REVERT JUMPDEST PUSH1 0x0 PUSH20 0xFFFFFFFFFFFFFFFFFFFFFFFFFFFFFFFFFFFFFFFF DUP3 AND SWAP1 POP SWAP2 SWAP1 POP JUMP JUMPDEST PUSH1 0x0 PUSH2 0xE9 DUP3 PUSH2 0xBE JUMP JUMPDEST SWAP1 POP SWAP2 SWAP1 POP JUMP JUMPDEST PUSH2 0xF9 DUP2 PUSH2 0xDE JUMP JUMPDEST DUP2 EQ PUSH2 0x104 JUMPI PUSH1 0x0 DUP1 REVERT JUMPDEST POP JUMP JUMPDEST PUSH1 0x0 DUP2 MLOAD SWAP1 POP PUSH2 0x116 DUP2 PUSH2 0xF0 JUMP JUMPDEST SWAP3 SWAP2 POP POP JUMP JUMPDEST PUSH1 0x0 PUSH1 0x20 DUP3 DUP5 SUB SLT ISZERO PUSH2 0x132 JUMPI PUSH2 0x131 PUSH2 0xB9 JUMP JUMPDEST JUMPDEST PUSH1 0x0 PUSH2 0x140 DUP5 DUP3 DUP6 ADD PUSH2 0x107 JUMP JUMPDEST SWAP2 POP POP SWAP3 SWAP2 POP POP JUMP JUMPDEST PUSH2 0xD14 DUP1 PUSH2 0x158 PUSH1 0x0 CODECOPY PUSH1 0x0 RETURN INVALID PUSH1 0x80 PUSH1 0x40 MSTORE CALLVALUE DUP1 ISZERO PUSH2 0x10 JUMPI PUSH1 0x0 DUP1 REVERT JUMPDEST POP PUSH1 0x4 CALLDATASIZE LT PUSH2 0xB4 JUMPI PUSH1 0x0 CALLDATALOAD PUSH1 0xE0 SHR DUP1 PUSH4 0xA5A9C518 GT PUSH2 0x71 JUMPI DUP1 PUSH4 0xA5A9C518 EQ PUSH2 0x179 JUMPI DUP1 PUSH4 0xA87430BA EQ PUSH2 0x195 JUMPI DUP1 PUSH4 0xE3E1F001 EQ PUSH2 0x1C9 JUMPI DUP1 PUSH4 0xE597EF12 EQ PUSH2 0x1E7 JUMPI DUP1 PUSH4 0xECDED204 EQ PUSH2 0x203 JUMPI DUP1 PUSH4 0xF3C95C60 EQ PUSH2 0x233 JUMPI PUSH2 0xB4 JUMP JUMPDEST DUP1 PUSH4 0x4172FB89 EQ PUSH2 0xB9 JUMPI DUP1 PUSH4 0x4420E486 EQ PUSH2 0xE9 JUMPI DUP1 PUSH4 0x4A09DB4F EQ PUSH2 0x105 JUMPI DUP1 PUSH4 0x6350280E EQ PUSH2 0x121 JUMPI DUP1 PUSH4 0x7C4DD96D EQ PUSH2 0x13F JUMPI DUP1 PUSH4 0x8DA5CB5B EQ PUSH2 0x15B JUMPI JUMPDEST PUSH1 0x0 DUP1 REVERT JUMPDEST PUSH2 0xD3 PUSH1 0x4 DUP1 CALLDATASIZE SUB DUP2 ADD SWAP1 PUSH2 0xCE SWAP2 SWAP1 PUSH2 0xABC JUMP JUMPDEST PUSH2 0x263 JUMP JUMPDEST PUSH1 0x40 MLOAD PUSH2 0xE0 SWAP2 SWAP1 PUSH2 0xB04 JUMP JUMPDEST PUSH1 0x40 MLOAD DUP1 SWAP2 SUB SWAP1 RETURN JUMPDEST PUSH2 0x103 PUSH1 0x4 DUP1 CALLDATASIZE SUB DUP2 ADD SWAP1 PUSH2 0xFE SWAP2 SWAP1 PUSH2 0xABC JUMP JUMPDEST PUSH2 0x2B9 JUMP JUMPDEST STOP JUMPDEST PUSH2 0x11F PUSH1 0x4 DUP1 CALLDATASIZE SUB DUP2 ADD SWAP1 PUSH2 0x11A SWAP2 SWAP1 PUSH2 0xB55 JUMP JUMPDEST PUSH2 0x46A JUMP JUMPDEST STOP JUMPDEST PUSH2 0x129 PUSH2 0x5AA JUMP JUMPDEST PUSH1 0x40 MLOAD PUSH2 0x136 SWAP2 SWAP1 PUSH2 0xBA4 JUMP JUMPDEST PUSH1 0x40 MLOAD DUP1 SWAP2 SUB SWAP1 RETURN JUMPDEST PUSH2 0x159 PUSH1 0x4 DUP1 CALLDATASIZE SUB DUP2 ADD SWAP1 PUSH2 0x154 SWAP2 SWAP1 PUSH2 0xABC JUMP JUMPDEST PUSH2 0x5B0 JUMP JUMPDEST STOP JUMPDEST PUSH2 0x163 PUSH2 0x665 JUMP JUMPDEST PUSH1 0x40 MLOAD PUSH2 0x170 SWAP2 SWAP1 PUSH2 0xBCE JUMP JUMPDEST PUSH1 0x40 MLOAD DUP1 SWAP2 SUB SWAP1 RETURN JUMPDEST PUSH2 0x193 PUSH1 0x4 DUP1 CALLDATASIZE SUB DUP2 ADD SWAP1 PUSH2 0x18E SWAP2 SWAP1 PUSH2 0xB55 JUMP JUMPDEST PUSH2 0x689 JUMP JUMPDEST STOP JUMPDEST PUSH2 0x1AF PUSH1 0x4 DUP1 CALLDATASIZE SUB DUP2 ADD SWAP1 PUSH2 0x1AA SWAP2 SWAP1 PUSH2 0xABC JUMP JUMPDEST PUSH2 0x82C JUMP JUMPDEST PUSH1 0x40 MLOAD PUSH2 0x1C0 SWAP6 SWAP5 SWAP4 SWAP3 SWAP2 SWAP1 PUSH2 0xBE9 JUMP JUMPDEST PUSH1 0x40 MLOAD DUP1 SWAP2 SUB SWAP1 RETURN JUMPDEST PUSH2 0x1D1 PUSH2 0x882 JUMP JUMPDEST PUSH1 0x40 MLOAD PUSH2 0x1DE SWAP2 SWAP1 PUSH2 0xBA4 JUMP JUMPDEST PUSH1 0x40 MLOAD DUP1 SWAP2 SUB SWAP1 RETURN JUMPDEST PUSH2 0x201 PUSH1 0x4 DUP1 CALLDATASIZE SUB DUP2 ADD SWAP1 PUSH2 0x1FC SWAP2 SWAP1 PUSH2 0xB55 JUMP JUMPDEST PUSH2 0x888 JUMP JUMPDEST STOP JUMPDEST PUSH2 0x21D PUSH1 0x4 DUP1 CALLDATASIZE SUB DUP2 ADD SWAP1 PUSH2 0x218 SWAP2 SWAP1 PUSH2 0xABC JUMP JUMPDEST PUSH2 0x9E3 JUMP JUMPDEST PUSH1 0x40 MLOAD PUSH2 0x22A SWAP2 SWAP1 PUSH2 0xB04 JUMP JUMPDEST PUSH1 0x40 MLOAD DUP1 SWAP2 SUB SWAP1 RETURN JUMPDEST PUSH2 0x24D PUSH1 0x4 DUP1 CALLDATASIZE SUB DUP2 ADD SWAP1 PUSH2 0x248 SWAP2 SWAP1 PUSH2 0xABC JUMP JUMPDEST PUSH2 0xA39 JUMP JUMPDEST PUSH1 0x40 MLOAD PUSH2 0x25A SWAP2 SWAP1 PUSH2 0xB04 JUMP JUMPDEST PUSH1 0x40 MLOAD DUP1 SWAP2 SUB SWAP1 RETURN JUMPDEST PUSH1 0x0 PUSH1 0x6 PUSH1 0x0 DUP4 PUSH20 0xFFFFFFFFFFFFFFFFFFFFFFFFFFFFFFFFFFFFFFFF AND PUSH20 0xFFFFFFFFFFFFFFFFFFFFFFFFFFFFFFFFFFFFFFFF AND DUP2 MSTORE PUSH1 0x20 ADD SWAP1 DUP2 MSTORE PUSH1 0x20 ADD PUSH1 0x0 KECCAK256 PUSH1 0x0 SWAP1 SLOAD SWAP1 PUSH2 0x100 EXP SWAP1 DIV PUSH1 0xFF AND SWAP1 POP SWAP2 SWAP1 POP JUMP JUMPDEST CALLER PUSH20 0xFFFFFFFFFFFFFFFFFFFFFFFFFFFFFFFFFFFFFFFF AND PUSH1 0x1 PUSH1 0x0 SWAP1 SLOAD SWAP1 PUSH2 0x100 EXP SWAP1 DIV PUSH20 0xFFFFFFFFFFFFFFFFFFFFFFFFFFFFFFFFFFFFFFFF AND PUSH20 0xFFFFFFFFFFFFFFFFFFFFFFFFFFFFFFFFFFFFFFFF AND EQ PUSH2 0x313 JUMPI PUSH1 0x0 DUP1 REVERT JUMPDEST PUSH1 0x4 PUSH1 0x0 DUP3 PUSH20 0xFFFFFFFFFFFFFFFFFFFFFFFFFFFFFFFFFFFFFFFF AND PUSH20 0xFFFFFFFFFFFFFFFFFFFFFFFFFFFFFFFFFFFFFFFF AND DUP2 MSTORE PUSH1 0x20 ADD SWAP1 DUP2 MSTORE PUSH1 0x20 ADD PUSH1 0x0 KECCAK256 PUSH1 0x0 SWAP1 SLOAD SWAP1 PUSH2 0x100 EXP SWAP1 DIV PUSH1 0xFF AND ISZERO PUSH2 0x36A JUMPI PUSH1 0x0 DUP1 REVERT JUMPDEST PUSH1 0x1 PUSH1 0x4 PUSH1 0x0 DUP4 PUSH20 0xFFFFFFFFFFFFFFFFFFFFFFFFFFFFFFFFFFFFFFFF AND PUSH20 0xFFFFFFFFFFFFFFFFFFFFFFFFFFFFFFFFFFFFFFFF AND DUP2 MSTORE PUSH1 0x20 ADD SWAP1 DUP2 MSTORE PUSH1 0x20 ADD PUSH1 0x0 KECCAK256 PUSH1 0x0 PUSH2 0x100 EXP DUP2 SLOAD DUP2 PUSH1 0xFF MUL NOT AND SWAP1 DUP4 ISZERO ISZERO MUL OR SWAP1 SSTORE POP PUSH1 0x0 PUSH1 0x3 PUSH1 0x0 DUP4 PUSH20 0xFFFFFFFFFFFFFFFFFFFFFFFFFFFFFFFFFFFFFFFF AND PUSH20 0xFFFFFFFFFFFFFFFFFFFFFFFFFFFFFFFFFFFFFFFF AND DUP2 MSTORE PUSH1 0x20 ADD SWAP1 DUP2 MSTORE PUSH1 0x20 ADD PUSH1 0x0 KECCAK256 SWAP1 POP DUP2 DUP2 PUSH1 0x0 ADD PUSH1 0x0 PUSH2 0x100 EXP DUP2 SLOAD DUP2 PUSH20 0xFFFFFFFFFFFFFFFFFFFFFFFFFFFFFFFFFFFFFFFF MUL NOT AND SWAP1 DUP4 PUSH20 0xFFFFFFFFFFFFFFFFFFFFFFFFFFFFFFFFFFFFFFFF AND MUL OR SWAP1 SSTORE POP PUSH1 0x0 DUP2 PUSH1 0x2 ADD DUP2 SWAP1 SSTORE POP PUSH1 0x0 DUP2 PUSH1 0x3 ADD DUP2 SWAP1 SSTORE POP PUSH1 0x0 DUP2 PUSH1 0x7 ADD DUP2 SWAP1 SSTORE POP POP POP JUMP JUMPDEST CALLER PUSH20 0xFFFFFFFFFFFFFFFFFFFFFFFFFFFFFFFFFFFFFFFF AND PUSH1 0x1 PUSH1 0x0 SWAP1 SLOAD SWAP1 PUSH2 0x100 EXP SWAP1 DIV PUSH20 0xFFFFFFFFFFFFFFFFFFFFFFFFFFFFFFFFFFFFFFFF AND PUSH20 0xFFFFFFFFFFFFFFFFFFFFFFFFFFFFFFFFFFFFFFFF AND EQ PUSH2 0x4C4 JUMPI PUSH1 0x0 DUP1 REVERT JUMPDEST PUSH1 0x4 PUSH1 0x0 DUP4 PUSH20 0xFFFFFFFFFFFFFFFFFFFFFFFFFFFFFFFFFFFFFFFF AND PUSH20 0xFFFFFFFFFFFFFFFFFFFFFFFFFFFFFFFFFFFFFFFF AND DUP2 MSTORE PUSH1 0x20 ADD SWAP1 DUP2 MSTORE PUSH1 0x20 ADD PUSH1 0x0 KECCAK256 PUSH1 0x0 SWAP1 SLOAD SWAP1 PUSH2 0x100 EXP SWAP1 DIV PUSH1 0xFF AND PUSH2 0x51A JUMPI PUSH1 0x0 DUP1 REVERT JUMPDEST PUSH1 0x0 PUSH1 0x3 PUSH1 0x0 DUP5 PUSH20 0xFFFFFFFFFFFFFFFFFFFFFFFFFFFFFFFFFFFFFFFF AND PUSH20 0xFFFFFFFFFFFFFFFFFFFFFFFFFFFFFFFFFFFFFFFF AND DUP2 MSTORE PUSH1 0x20 ADD SWAP1 DUP2 MSTORE PUSH1 0x20 ADD PUSH1 0x0 KECCAK256 SWAP1 POP PUSH1 0x0 DUP2 PUSH1 0x6 ADD PUSH1 0x0 DUP5 DUP2 MSTORE PUSH1 0x20 ADD SWAP1 DUP2 MSTORE PUSH1 0x20 ADD PUSH1 0x0 KECCAK256 PUSH1 0x0 PUSH2 0x100 EXP DUP2 SLOAD DUP2 PUSH1 0xFF MUL NOT AND SWAP1 DUP4 ISZERO ISZERO MUL OR SWAP1 SSTORE POP DUP1 PUSH1 0x2 ADD PUSH1 0x0 DUP2 SLOAD DUP1 SWAP3 SWAP2 SWAP1 PUSH2 0x5A0 SWAP1 PUSH2 0xC6B JUMP JUMPDEST SWAP2 SWAP1 POP SSTORE POP POP POP POP JUMP JUMPDEST PUSH1 0x5 SLOAD DUP2 JUMP JUMPDEST CALLER PUSH20 0xFFFFFFFFFFFFFFFFFFFFFFFFFFFFFFFFFFFFFFFF AND PUSH1 0x1 PUSH1 0x0 SWAP1 SLOAD SWAP1 PUSH2 0x100 EXP SWAP1 DIV PUSH20 0xFFFFFFFFFFFFFFFFFFFFFFFFFFFFFFFFFFFFFFFF AND PUSH20 0xFFFFFFFFFFFFFFFFFFFFFFFFFFFFFFFFFFFFFFFF AND EQ PUSH2 0x60A JUMPI PUSH1 0x0 DUP1 REVERT JUMPDEST PUSH1 0x1 PUSH1 0x6 PUSH1 0x0 DUP4 PUSH20 0xFFFFFFFFFFFFFFFFFFFFFFFFFFFFFFFFFFFFFFFF AND PUSH20 0xFFFFFFFFFFFFFFFFFFFFFFFFFFFFFFFFFFFFFFFF AND DUP2 MSTORE PUSH1 0x20 ADD SWAP1 DUP2 MSTORE PUSH1 0x20 ADD PUSH1 0x0 KECCAK256 PUSH1 0x0 PUSH2 0x100 EXP DUP2 SLOAD DUP2 PUSH1 0xFF MUL NOT AND SWAP1 DUP4 ISZERO ISZERO MUL OR SWAP1 SSTORE POP POP JUMP JUMPDEST PUSH1 0x0 DUP1 SLOAD SWAP1 PUSH2 0x100 EXP SWAP1 DIV PUSH20 0xFFFFFFFFFFFFFFFFFFFFFFFFFFFFFFFFFFFFFFFF AND DUP2 JUMP JUMPDEST CALLER PUSH20 0xFFFFFFFFFFFFFFFFFFFFFFFFFFFFFFFFFFFFFFFF AND PUSH1 0x1 PUSH1 0x0 SWAP1 SLOAD SWAP1 PUSH2 0x100 EXP SWAP1 DIV PUSH20 0xFFFFFFFFFFFFFFFFFFFFFFFFFFFFFFFFFFFFFFFF AND PUSH20 0xFFFFFFFFFFFFFFFFFFFFFFFFFFFFFFFFFFFFFFFF AND EQ PUSH2 0x6E3 JUMPI PUSH1 0x0 DUP1 REVERT JUMPDEST PUSH1 0x4 PUSH1 0x0 DUP4 PUSH20 0xFFFFFFFFFFFFFFFFFFFFFFFFFFFFFFFFFFFFFFFF AND PUSH20 0xFFFFFFFFFFFFFFFFFFFFFFFFFFFFFFFFFFFFFFFF AND DUP2 MSTORE PUSH1 0x20 ADD SWAP1 DUP2 MSTORE PUSH1 0x20 ADD PUSH1 0x0 KECCAK256 PUSH1 0x0 SWAP1 SLOAD SWAP1 PUSH2 0x100 EXP SWAP1 DIV PUSH1 0xFF AND PUSH2 0x739 JUMPI PUSH1 0x0 DUP1 REVERT JUMPDEST PUSH1 0x0 PUSH1 0x3 PUSH1 0x0 DUP5 PUSH20 0xFFFFFFFFFFFFFFFFFFFFFFFFFFFFFFFFFFFFFFFF AND PUSH20 0xFFFFFFFFFFFFFFFFFFFFFFFFFFFFFFFFFFFFFFFF AND DUP2 MSTORE PUSH1 0x20 ADD SWAP1 DUP2 MSTORE PUSH1 0x20 ADD PUSH1 0x0 KECCAK256 SWAP1 POP DUP1 PUSH1 0x4 ADD DUP3 SWAP1 DUP1 PUSH1 0x1 DUP2 SLOAD ADD DUP1 DUP3 SSTORE DUP1 SWAP2 POP POP PUSH1 0x1 SWAP1 SUB SWAP1 PUSH1 0x0 MSTORE PUSH1 0x20 PUSH1 0x0 KECCAK256 ADD PUSH1 0x0 SWAP1 SWAP2 SWAP1 SWAP2 SWAP1 SWAP2 POP SSTORE DUP1 PUSH1 0x3 ADD SLOAD DUP2 PUSH1 0x5 ADD PUSH1 0x0 DUP5 DUP2 MSTORE PUSH1 0x20 ADD SWAP1 DUP2 MSTORE PUSH1 0x20 ADD PUSH1 0x0 KECCAK256 DUP2 SWAP1 SSTORE POP PUSH1 0x1 DUP2 PUSH1 0x6 ADD PUSH1 0x0 DUP5 DUP2 MSTORE PUSH1 0x20 ADD SWAP1 DUP2 MSTORE PUSH1 0x20 ADD PUSH1 0x0 KECCAK256 PUSH1 0x0 PUSH2 0x100 EXP DUP2 SLOAD DUP2 PUSH1 0xFF MUL NOT AND SWAP1 DUP4 ISZERO ISZERO MUL OR SWAP1 SSTORE POP DUP1 PUSH1 0x2 ADD PUSH1 0x0 DUP2 SLOAD DUP1 SWAP3 SWAP2 SWAP1 PUSH2 0x808 SWAP1 PUSH2 0xC95 JUMP JUMPDEST SWAP2 SWAP1 POP SSTORE POP DUP1 PUSH1 0x3 ADD PUSH1 0x0 DUP2 SLOAD DUP1 SWAP3 SWAP2 SWAP1 PUSH2 0x822 SWAP1 PUSH2 0xC95 JUMP JUMPDEST SWAP2 SWAP1 POP SSTORE POP POP POP POP JUMP JUMPDEST PUSH1 0x3 PUSH1 0x20 MSTORE DUP1 PUSH1 0x0 MSTORE PUSH1 0x40 PUSH1 0x0 KECCAK256 PUSH1 0x0 SWAP2 POP SWAP1 POP DUP1 PUSH1 0x0 ADD PUSH1 0x0 SWAP1 SLOAD SWAP1 PUSH2 0x100 EXP SWAP1 DIV PUSH20 0xFFFFFFFFFFFFFFFFFFFFFFFFFFFFFFFFFFFFFFFF AND SWAP1 DUP1 PUSH1 0x1 ADD SLOAD SWAP1 DUP1 PUSH1 0x2 ADD SLOAD SWAP1 DUP1 PUSH1 0x3 ADD SLOAD SWAP1 DUP1 PUSH1 0x7 ADD SLOAD SWAP1 POP DUP6 JUMP JUMPDEST PUSH1 0x2 SLOAD DUP2 JUMP JUMPDEST CALLER PUSH20 0xFFFFFFFFFFFFFFFFFFFFFFFFFFFFFFFFFFFFFFFF AND PUSH1 0x1 PUSH1 0x0 SWAP1 SLOAD SWAP1 PUSH2 0x100 EXP SWAP1 DIV PUSH20 0xFFFFFFFFFFFFFFFFFFFFFFFFFFFFFFFFFFFFFFFF AND PUSH20 0xFFFFFFFFFFFFFFFFFFFFFFFFFFFFFFFFFFFFFFFF AND EQ PUSH2 0x8E2 JUMPI PUSH1 0x0 DUP1 REVERT JUMPDEST PUSH1 0x4 PUSH1 0x0 DUP4 PUSH20 0xFFFFFFFFFFFFFFFFFFFFFFFFFFFFFFFFFFFFFFFF AND PUSH20 0xFFFFFFFFFFFFFFFFFFFFFFFFFFFFFFFFFFFFFFFF AND DUP2 MSTORE PUSH1 0x20 ADD SWAP1 DUP2 MSTORE PUSH1 0x20 ADD PUSH1 0x0 KECCAK256 PUSH1 0x0 SWAP1 SLOAD SWAP1 PUSH2 0x100 EXP SWAP1 DIV PUSH1 0xFF AND PUSH2 0x938 JUMPI PUSH1 0x0 DUP1 REVERT JUMPDEST PUSH1 0x0 PUSH1 0x3 PUSH1 0x0 DUP5 PUSH20 0xFFFFFFFFFFFFFFFFFFFFFFFFFFFFFFFFFFFFFFFF AND PUSH20 0xFFFFFFFFFFFFFFFFFFFFFFFFFFFFFFFFFFFFFFFF AND DUP2 MSTORE PUSH1 0x20 ADD SWAP1 DUP2 MSTORE PUSH1 0x20 ADD PUSH1 0x0 KECCAK256 SWAP1 POP DUP1 PUSH1 0x8 ADD DUP3 SWAP1 DUP1 PUSH1 0x1 DUP2 SLOAD ADD DUP1 DUP3 SSTORE DUP1 SWAP2 POP POP PUSH1 0x1 SWAP1 SUB SWAP1 PUSH1 0x0 MSTORE PUSH1 0x20 PUSH1 0x0 KECCAK256 ADD PUSH1 0x0 SWAP1 SWAP2 SWAP1 SWAP2 SWAP1 SWAP2 POP SSTORE DUP1 PUSH1 0x7 ADD SLOAD DUP2 PUSH1 0x9 ADD PUSH1 0x0 DUP5 DUP2 MSTORE PUSH1 0x20 ADD SWAP1 DUP2 MSTORE PUSH1 0x20 ADD PUSH1 0x0 KECCAK256 DUP2 SWAP1 SSTORE POP DUP1 PUSH1 0x7 ADD PUSH1 0x0 DUP2 SLOAD DUP1 SWAP3 SWAP2 SWAP1 PUSH2 0x9D9 SWAP1 PUSH2 0xC95 JUMP JUMPDEST SWAP2 SWAP1 POP SSTORE POP POP POP POP JUMP JUMPDEST PUSH1 0x0 PUSH1 0x4 PUSH1 0x0 DUP4 PUSH20 0xFFFFFFFFFFFFFFFFFFFFFFFFFFFFFFFFFFFFFFFF AND PUSH20 0xFFFFFFFFFFFFFFFFFFFFFFFFFFFFFFFFFFFFFFFF AND DUP2 MSTORE PUSH1 0x20 ADD SWAP1 DUP2 MSTORE PUSH1 0x20 ADD PUSH1 0x0 KECCAK256 PUSH1 0x0 SWAP1 SLOAD SWAP1 PUSH2 0x100 EXP SWAP1 DIV PUSH1 0xFF AND SWAP1 POP SWAP2 SWAP1 POP JUMP JUMPDEST PUSH1 0x4 PUSH1 0x20 MSTORE DUP1 PUSH1 0x0 MSTORE PUSH1 0x40 PUSH1 0x0 KECCAK256 PUSH1 0x0 SWAP2 POP SLOAD SWAP1 PUSH2 0x100 EXP SWAP1 DIV PUSH1 0xFF AND DUP2 JUMP JUMPDEST PUSH1 0x0 DUP1 REVERT JUMPDEST PUSH1 0x0 PUSH20 0xFFFFFFFFFFFFFFFFFFFFFFFFFFFFFFFFFFFFFFFF DUP3 AND SWAP1 POP SWAP2 SWAP1 POP JUMP JUMPDEST PUSH1 0x0 PUSH2 0xA89 DUP3 PUSH2 0xA5E JUMP JUMPDEST SWAP1 POP SWAP2 SWAP1 POP JUMP JUMPDEST PUSH2 0xA99 DUP2 PUSH2 0xA7E JUMP JUMPDEST DUP2 EQ PUSH2 0xAA4 JUMPI PUSH1 0x0 DUP1 REVERT JUMPDEST POP JUMP JUMPDEST PUSH1 0x0 DUP2 CALLDATALOAD SWAP1 POP PUSH2 0xAB6 DUP2 PUSH2 0xA90 JUMP JUMPDEST SWAP3 SWAP2 POP POP JUMP JUMPDEST PUSH1 0x0 PUSH1 0x20 DUP3 DUP5 SUB SLT ISZERO PUSH2 0xAD2 JUMPI PUSH2 0xAD1 PUSH2 0xA59 JUMP JUMPDEST JUMPDEST PUSH1 0x0 PUSH2 0xAE0 DUP5 DUP3 DUP6 ADD PUSH2 0xAA7 JUMP JUMPDEST SWAP2 POP POP SWAP3 SWAP2 POP POP JUMP JUMPDEST PUSH1 0x0 DUP2 ISZERO ISZERO SWAP1 POP SWAP2 SWAP1 POP JUMP JUMPDEST PUSH2 0xAFE DUP2 PUSH2 0xAE9 JUMP JUMPDEST DUP3 MSTORE POP POP JUMP JUMPDEST PUSH1 0x0 PUSH1 0x20 DUP3 ADD SWAP1 POP PUSH2 0xB19 PUSH1 0x0 DUP4 ADD DUP5 PUSH2 0xAF5 JUMP JUMPDEST SWAP3 SWAP2 POP POP JUMP JUMPDEST PUSH1 0x0 DUP2 SWAP1 POP SWAP2 SWAP1 POP JUMP JUMPDEST PUSH2 0xB32 DUP2 PUSH2 0xB1F JUMP JUMPDEST DUP2 EQ PUSH2 0xB3D JUMPI PUSH1 0x0 DUP1 REVERT JUMPDEST POP JUMP JUMPDEST PUSH1 0x0 DUP2 CALLDATALOAD SWAP1 POP PUSH2 0xB4F DUP2 PUSH2 0xB29 JUMP JUMPDEST SWAP3 SWAP2 POP POP JUMP JUMPDEST PUSH1 0x0 DUP1 PUSH1 0x40 DUP4 DUP6 SUB SLT ISZERO PUSH2 0xB6C JUMPI PUSH2 0xB6B PUSH2 0xA59 JUMP JUMPDEST JUMPDEST PUSH1 0x0 PUSH2 0xB7A DUP6 DUP3 DUP7 ADD PUSH2 0xAA7 JUMP JUMPDEST SWAP3 POP POP PUSH1 0x20 PUSH2 0xB8B DUP6 DUP3 DUP7 ADD PUSH2 0xB40 JUMP JUMPDEST SWAP2 POP POP SWAP3 POP SWAP3 SWAP1 POP JUMP JUMPDEST PUSH2 0xB9E DUP2 PUSH2 0xB1F JUMP JUMPDEST DUP3 MSTORE POP POP JUMP JUMPDEST PUSH1 0x0 PUSH1 0x20 DUP3 ADD SWAP1 POP PUSH2 0xBB9 PUSH1 0x0 DUP4 ADD DUP5 PUSH2 0xB95 JUMP JUMPDEST SWAP3 SWAP2 POP POP JUMP JUMPDEST PUSH2 0xBC8 DUP2 PUSH2 0xA7E JUMP JUMPDEST DUP3 MSTORE POP POP JUMP JUMPDEST PUSH1 0x0 PUSH1 0x20 DUP3 ADD SWAP1 POP PUSH2 0xBE3 PUSH1 0x0 DUP4 ADD DUP5 PUSH2 0xBBF JUMP JUMPDEST SWAP3 SWAP2 POP POP JUMP JUMPDEST PUSH1 0x0 PUSH1 0xA0 DUP3 ADD SWAP1 POP PUSH2 0xBFE PUSH1 0x0 DUP4 ADD DUP9 PUSH2 0xBBF JUMP JUMPDEST PUSH2 0xC0B PUSH1 0x20 DUP4 ADD DUP8 PUSH2 0xB95 JUMP JUMPDEST PUSH2 0xC18 PUSH1 0x40 DUP4 ADD DUP7 PUSH2 0xB95 JUMP JUMPDEST PUSH2 0xC25 PUSH1 0x60 DUP4 ADD DUP6 PUSH2 0xB95 JUMP JUMPDEST PUSH2 0xC32 PUSH1 0x80 DUP4 ADD DUP5 PUSH2 0xB95 JUMP JUMPDEST SWAP7 SWAP6 POP POP POP POP POP POP JUMP JUMPDEST PUSH32 0x4E487B7100000000000000000000000000000000000000000000000000000000 PUSH1 0x0 MSTORE PUSH1 0x11 PUSH1 0x4 MSTORE PUSH1 0x24 PUSH1 0x0 REVERT JUMPDEST PUSH1 0x0 PUSH2 0xC76 DUP3 PUSH2 0xB1F JUMP JUMPDEST SWAP2 POP PUSH1 0x0 DUP3 EQ ISZERO PUSH2 0xC8A JUMPI PUSH2 0xC89 PUSH2 0xC3C JUMP JUMPDEST JUMPDEST PUSH1 0x1 DUP3 SUB SWAP1 POP SWAP2 SWAP1 POP JUMP JUMPDEST PUSH1 0x0 PUSH2 0xCA0 DUP3 PUSH2 0xB1F JUMP JUMPDEST SWAP2 POP PUSH32 0xFFFFFFFFFFFFFFFFFFFFFFFFFFFFFFFFFFFFFFFFFFFFFFFFFFFFFFFFFFFFFFFF DUP3 EQ ISZERO PUSH2 0xCD3 JUMPI PUSH2 0xCD2 PUSH2 0xC3C JUMP JUMPDEST JUMPDEST PUSH1 0x1 DUP3 ADD SWAP1 POP SWAP2 SWAP1 POP JUMP INVALID LOG2 PUSH5 0x6970667358 0x22 SLT KECCAK256 SELFBALANCE 0xEF 0xAA GASPRICE 0xC1 CALLVALUE PUSH28 0x1F95836C6072AD459D3D3B128912028ECD36B7218DE40791E64736F PUSH13 0x634300080A0033608060405234 DUP1 ISZERO PUSH2 0x10 JUMPI PUSH1 0x0 DUP1 REVERT JUMPDEST POP PUSH1 0x40 MLOAD PUSH2 0xD3A CODESIZE SUB DUP1 PUSH2 0xD3A DUP4 CODECOPY DUP2 DUP2 ADD PUSH1 0x40 MSTORE DUP2 ADD SWAP1 PUSH2 0x32 SWAP2 SWAP1 PUSH2 0x11C JUMP JUMPDEST DUP1 PUSH1 0x0 DUP1 PUSH2 0x100 EXP DUP2 SLOAD DUP2 PUSH20 0xFFFFFFFFFFFFFFFFFFFFFFFFFFFFFFFFFFFFFFFF MUL NOT AND SWAP1 DUP4 PUSH20 0xFFFFFFFFFFFFFFFFFFFFFFFFFFFFFFFFFFFFFFFF AND MUL OR SWAP1 SSTORE POP CALLER PUSH1 0x1 PUSH1 0x0 PUSH2 0x100 EXP DUP2 SLOAD DUP2 PUSH20 0xFFFFFFFFFFFFFFFFFFFFFFFFFFFFFFFFFFFFFFFF MUL NOT AND SWAP1 DUP4 PUSH20 0xFFFFFFFFFFFFFFFFFFFFFFFFFFFFFFFFFFFFFFFF AND MUL OR SWAP1 SSTORE POP POP PUSH2 0x149 JUMP JUMPDEST PUSH1 0x0 DUP1 REVERT JUMPDEST PUSH1 0x0 PUSH20 0xFFFFFFFFFFFFFFFFFFFFFFFFFFFFFFFFFFFFFFFF DUP3 AND SWAP1 POP SWAP2 SWAP1 POP JUMP JUMPDEST PUSH1 0x0 PUSH2 0xE9 DUP3 PUSH2 0xBE JUMP JUMPDEST SWAP1 POP SWAP2 SWAP1 POP JUMP JUMPDEST PUSH2 0xF9 DUP2 PUSH2 0xDE JUMP JUMPDEST DUP2 EQ PUSH2 0x104 JUMPI PUSH1 0x0 DUP1 REVERT JUMPDEST POP JUMP JUMPDEST PUSH1 0x0 DUP2 MLOAD SWAP1 POP PUSH2 0x116 DUP2 PUSH2 0xF0 JUMP JUMPDEST SWAP3 SWAP2 POP POP JUMP JUMPDEST PUSH1 0x0 PUSH1 0x20 DUP3 DUP5 SUB SLT ISZERO PUSH2 0x132 JUMPI PUSH2 0x131 PUSH2 0xB9 JUMP JUMPDEST JUMPDEST PUSH1 0x0 PUSH2 0x140 DUP5 DUP3 DUP6 ADD PUSH2 0x107 JUMP JUMPDEST SWAP2 POP POP SWAP3 SWAP2 POP POP JUMP JUMPDEST PUSH2 0xBE2 DUP1 PUSH2 0x158 PUSH1 0x0 CODECOPY PUSH1 0x0 RETURN INVALID PUSH1 0x80 PUSH1 0x40 MSTORE CALLVALUE DUP1 ISZERO PUSH2 0x10 JUMPI PUSH1 0x0 DUP1 REVERT JUMPDEST POP PUSH1 0x4 CALLDATASIZE LT PUSH2 0x9E JUMPI PUSH1 0x0 CALLDATALOAD PUSH1 0xE0 SHR DUP1 PUSH4 0xA46D8AC7 GT PUSH2 0x66 JUMPI DUP1 PUSH4 0xA46D8AC7 EQ PUSH2 0x15B JUMPI DUP1 PUSH4 0xAB21A2BE EQ PUSH2 0x18B JUMPI DUP1 PUSH4 0xCA5140C9 EQ PUSH2 0x1A7 JUMPI DUP1 PUSH4 0xEF228C92 EQ PUSH2 0x1C3 JUMPI DUP1 PUSH4 0xF6B4DFB4 EQ PUSH2 0x1DF JUMPI PUSH2 0x9E JUMP JUMPDEST DUP1 PUSH4 0x1CE06944 EQ PUSH2 0xA3 JUMPI DUP1 PUSH4 0x67615AD5 EQ PUSH2 0xD3 JUMPI DUP1 PUSH4 0x8DA5CB5B EQ PUSH2 0x103 JUMPI DUP1 PUSH4 0x8DBBFBDE EQ PUSH2 0x121 JUMPI DUP1 PUSH4 0x921C47B1 EQ PUSH2 0x13D JUMPI JUMPDEST PUSH1 0x0 DUP1 REVERT JUMPDEST PUSH2 0xBD PUSH1 0x4 DUP1 CALLDATASIZE SUB DUP2 ADD SWAP1 PUSH2 0xB8 SWAP2 SWAP1 PUSH2 0x8E3 JUMP JUMPDEST PUSH2 0x1FD JUMP JUMPDEST PUSH1 0x40 MLOAD PUSH2 0xCA SWAP2 SWAP1 PUSH2 0x91F JUMP JUMPDEST PUSH1 0x40 MLOAD DUP1 SWAP2 SUB SWAP1 RETURN JUMPDEST PUSH2 0xED PUSH1 0x4 DUP1 CALLDATASIZE SUB DUP2 ADD SWAP1 PUSH2 0xE8 SWAP2 SWAP1 PUSH2 0x8E3 JUMP JUMPDEST PUSH2 0x31C JUMP JUMPDEST PUSH1 0x40 MLOAD PUSH2 0xFA SWAP2 SWAP1 PUSH2 0x91F JUMP JUMPDEST PUSH1 0x40 MLOAD DUP1 SWAP2 SUB SWAP1 RETURN JUMPDEST PUSH2 0x10B PUSH2 0x43B JUMP JUMPDEST PUSH1 0x40 MLOAD PUSH2 0x118 SWAP2 SWAP1 PUSH2 0x97B JUMP JUMPDEST PUSH1 0x40 MLOAD DUP1 SWAP2 SUB SWAP1 RETURN JUMPDEST PUSH2 0x13B PUSH1 0x4 DUP1 CALLDATASIZE SUB DUP2 ADD SWAP1 PUSH2 0x136 SWAP2 SWAP1 PUSH2 0x996 JUMP JUMPDEST PUSH2 0x45F JUMP JUMPDEST STOP JUMPDEST PUSH2 0x145 PUSH2 0x4F8 JUMP JUMPDEST PUSH1 0x40 MLOAD PUSH2 0x152 SWAP2 SWAP1 PUSH2 0x91F JUMP JUMPDEST PUSH1 0x40 MLOAD DUP1 SWAP2 SUB SWAP1 RETURN JUMPDEST PUSH2 0x175 PUSH1 0x4 DUP1 CALLDATASIZE SUB DUP2 ADD SWAP1 PUSH2 0x170 SWAP2 SWAP1 PUSH2 0xA15 JUMP JUMPDEST PUSH2 0x4FE JUMP JUMPDEST PUSH1 0x40 MLOAD PUSH2 0x182 SWAP2 SWAP1 PUSH2 0x91F JUMP JUMPDEST PUSH1 0x40 MLOAD DUP1 SWAP2 SUB SWAP1 RETURN JUMPDEST PUSH2 0x1A5 PUSH1 0x4 DUP1 CALLDATASIZE SUB DUP2 ADD SWAP1 PUSH2 0x1A0 SWAP2 SWAP1 PUSH2 0xA7C JUMP JUMPDEST PUSH2 0x664 JUMP JUMPDEST STOP JUMPDEST PUSH2 0x1C1 PUSH1 0x4 DUP1 CALLDATASIZE SUB DUP2 ADD SWAP1 PUSH2 0x1BC SWAP2 SWAP1 PUSH2 0x8E3 JUMP JUMPDEST PUSH2 0x72D JUMP JUMPDEST STOP JUMPDEST PUSH2 0x1DD PUSH1 0x4 DUP1 CALLDATASIZE SUB DUP2 ADD SWAP1 PUSH2 0x1D8 SWAP2 SWAP1 PUSH2 0xAF4 JUMP JUMPDEST PUSH2 0x7E0 JUMP JUMPDEST STOP JUMPDEST PUSH2 0x1E7 PUSH2 0x882 JUMP JUMPDEST PUSH1 0x40 MLOAD PUSH2 0x1F4 SWAP2 SWAP1 PUSH2 0x97B JUMP JUMPDEST PUSH1 0x40 MLOAD DUP1 SWAP2 SUB SWAP1 RETURN JUMPDEST PUSH1 0x0 DUP1 PUSH1 0x3 PUSH1 0x0 DUP5 DUP2 MSTORE PUSH1 0x20 ADD SWAP1 DUP2 MSTORE PUSH1 0x20 ADD PUSH1 0x0 KECCAK256 PUSH1 0x40 MLOAD DUP1 PUSH1 0xE0 ADD PUSH1 0x40 MSTORE SWAP1 DUP2 PUSH1 0x0 DUP3 ADD SLOAD DUP2 MSTORE PUSH1 0x20 ADD PUSH1 0x1 DUP3 ADD PUSH1 0x0 SWAP1 SLOAD SWAP1 PUSH2 0x100 EXP SWAP1 DIV PUSH20 0xFFFFFFFFFFFFFFFFFFFFFFFFFFFFFFFFFFFFFFFF AND PUSH20 0xFFFFFFFFFFFFFFFFFFFFFFFFFFFFFFFFFFFFFFFF AND PUSH20 0xFFFFFFFFFFFFFFFFFFFFFFFFFFFFFFFFFFFFFFFF AND DUP2 MSTORE PUSH1 0x20 ADD PUSH1 0x2 DUP3 ADD SLOAD DUP2 MSTORE PUSH1 0x20 ADD PUSH1 0x3 DUP3 ADD PUSH1 0x0 SWAP1 SLOAD SWAP1 PUSH2 0x100 EXP SWAP1 DIV PUSH20 0xFFFFFFFFFFFFFFFFFFFFFFFFFFFFFFFFFFFFFFFF AND PUSH20 0xFFFFFFFFFFFFFFFFFFFFFFFFFFFFFFFFFFFFFFFF AND PUSH20 0xFFFFFFFFFFFFFFFFFFFFFFFFFFFFFFFFFFFFFFFF AND DUP2 MSTORE PUSH1 0x20 ADD PUSH1 0x3 DUP3 ADD PUSH1 0x14 SWAP1 SLOAD SWAP1 PUSH2 0x100 EXP SWAP1 DIV PUSH1 0xFF AND ISZERO ISZERO ISZERO ISZERO DUP2 MSTORE PUSH1 0x20 ADD PUSH1 0x4 DUP3 ADD SLOAD DUP2 MSTORE PUSH1 0x20 ADD PUSH1 0x5 DUP3 ADD SLOAD DUP2 MSTORE POP POP SWAP1 POP DUP1 PUSH1 0xC0 ADD MLOAD SWAP2 POP POP SWAP2 SWAP1 POP JUMP JUMPDEST PUSH1 0x0 DUP1 PUSH1 0x3 PUSH1 0x0 DUP5 DUP2 MSTORE PUSH1 0x20 ADD SWAP1 DUP2 MSTORE PUSH1 0x20 ADD PUSH1 0x0 KECCAK256 PUSH1 0x40 MLOAD DUP1 PUSH1 0xE0 ADD PUSH1 0x40 MSTORE SWAP1 DUP2 PUSH1 0x0 DUP3 ADD SLOAD DUP2 MSTORE PUSH1 0x20 ADD PUSH1 0x1 DUP3 ADD PUSH1 0x0 SWAP1 SLOAD SWAP1 PUSH2 0x100 EXP SWAP1 DIV PUSH20 0xFFFFFFFFFFFFFFFFFFFFFFFFFFFFFFFFFFFFFFFF AND PUSH20 0xFFFFFFFFFFFFFFFFFFFFFFFFFFFFFFFFFFFFFFFF AND PUSH20 0xFFFFFFFFFFFFFFFFFFFFFFFFFFFFFFFFFFFFFFFF AND DUP2 MSTORE PUSH1 0x20 ADD PUSH1 0x2 DUP3 ADD SLOAD DUP2 MSTORE PUSH1 0x20 ADD PUSH1 0x3 DUP3 ADD PUSH1 0x0 SWAP1 SLOAD SWAP1 PUSH2 0x100 EXP SWAP1 DIV PUSH20 0xFFFFFFFFFFFFFFFFFFFFFFFFFFFFFFFFFFFFFFFF AND PUSH20 0xFFFFFFFFFFFFFFFFFFFFFFFFFFFFFFFFFFFFFFFF AND PUSH20 0xFFFFFFFFFFFFFFFFFFFFFFFFFFFFFFFFFFFFFFFF AND DUP2 MSTORE PUSH1 0x20 ADD PUSH1 0x3 DUP3 ADD PUSH1 0x14 SWAP1 SLOAD SWAP1 PUSH2 0x100 EXP SWAP1 DIV PUSH1 0xFF AND ISZERO ISZERO ISZERO ISZERO DUP2 MSTORE PUSH1 0x20 ADD PUSH1 0x4 DUP3 ADD SLOAD DUP2 MSTORE PUSH1 0x20 ADD PUSH1 0x5 DUP3 ADD SLOAD DUP2 MSTORE POP POP SWAP1 POP DUP1 PUSH1 0x40 ADD MLOAD SWAP2 POP POP SWAP2 SWAP1 POP JUMP JUMPDEST PUSH1 0x0 DUP1 SLOAD SWAP1 PUSH2 0x100 EXP SWAP1 DIV PUSH20 0xFFFFFFFFFFFFFFFFFFFFFFFFFFFFFFFFFFFFFFFF AND DUP2 JUMP JUMPDEST DUP3 PUSH1 0x2 SLOAD DUP2 LT PUSH2 0x46E JUMPI PUSH1 0x0 DUP1 REVERT JUMPDEST CALLER PUSH20 0xFFFFFFFFFFFFFFFFFFFFFFFFFFFFFFFFFFFFFFFF AND PUSH1 0x1 PUSH1 0x0 SWAP1 SLOAD SWAP1 PUSH2 0x100 EXP SWAP1 DIV PUSH20 0xFFFFFFFFFFFFFFFFFFFFFFFFFFFFFFFFFFFFFFFF AND PUSH20 0xFFFFFFFFFFFFFFFFFFFFFFFFFFFFFFFFFFFFFFFF AND EQ PUSH2 0x4C8 JUMPI PUSH1 0x0 DUP1 REVERT JUMPDEST PUSH1 0x0 PUSH1 0x3 PUSH1 0x0 DUP7 DUP2 MSTORE PUSH1 0x20 ADD SWAP1 DUP2 MSTORE PUSH1 0x20 ADD PUSH1 0x0 KECCAK256 SWAP1 POP DUP4 DUP2 PUSH1 0x4 ADD DUP2 SWAP1 SSTORE POP DUP3 DUP2 PUSH1 0x5 ADD DUP2 SWAP1 SSTORE POP POP POP POP POP POP JUMP JUMPDEST PUSH1 0x2 SLOAD DUP2 JUMP JUMPDEST PUSH1 0x0 CALLER PUSH20 0xFFFFFFFFFFFFFFFFFFFFFFFFFFFFFFFFFFFFFFFF AND PUSH1 0x1 PUSH1 0x0 SWAP1 SLOAD SWAP1 PUSH2 0x100 EXP SWAP1 DIV PUSH20 0xFFFFFFFFFFFFFFFFFFFFFFFFFFFFFFFFFFFFFFFF AND PUSH20 0xFFFFFFFFFFFFFFFFFFFFFFFFFFFFFFFFFFFFFFFF AND EQ PUSH2 0x55A JUMPI PUSH1 0x0 DUP1 REVERT JUMPDEST PUSH1 0x0 PUSH1 0x3 PUSH1 0x0 PUSH1 0x2 SLOAD DUP2 MSTORE PUSH1 0x20 ADD SWAP1 DUP2 MSTORE PUSH1 0x20 ADD PUSH1 0x0 KECCAK256 SWAP1 POP PUSH1 0x2 SLOAD DUP2 PUSH1 0x0 ADD DUP2 SWAP1 SSTORE POP DUP5 DUP2 PUSH1 0x2 ADD DUP2 SWAP1 SSTORE POP DUP6 DUP2 PUSH1 0x1 ADD PUSH1 0x0 PUSH2 0x100 EXP DUP2 SLOAD DUP2 PUSH20 0xFFFFFFFFFFFFFFFFFFFFFFFFFFFFFFFFFFFFFFFF MUL NOT AND SWAP1 DUP4 PUSH20 0xFFFFFFFFFFFFFFFFFFFFFFFFFFFFFFFFFFFFFFFF AND MUL OR SWAP1 SSTORE POP DUP6 DUP2 PUSH1 0x3 ADD PUSH1 0x0 PUSH2 0x100 EXP DUP2 SLOAD DUP2 PUSH20 0xFFFFFFFFFFFFFFFFFFFFFFFFFFFFFFFFFFFFFFFF MUL NOT AND SWAP1 DUP4 PUSH20 0xFFFFFFFFFFFFFFFFFFFFFFFFFFFFFFFFFFFFFFFF AND MUL OR SWAP1 SSTORE POP PUSH1 0x0 DUP2 PUSH1 0x3 ADD PUSH1 0x14 PUSH2 0x100 EXP DUP2 SLOAD DUP2 PUSH1 0xFF MUL NOT AND SWAP1 DUP4 ISZERO ISZERO MUL OR SWAP1 SSTORE POP DUP4 DUP2 PUSH1 0x4 ADD DUP2 SWAP1 SSTORE POP DUP3 DUP2 PUSH1 0x5 ADD DUP2 SWAP1 SSTORE POP PUSH1 0x2 PUSH1 0x0 DUP2 SLOAD DUP1 SWAP3 SWAP2 SWAP1 PUSH2 0x64F SWAP1 PUSH2 0xB63 JUMP JUMPDEST SWAP2 SWAP1 POP SSTORE POP DUP1 PUSH1 0x0 ADD SLOAD SWAP2 POP POP SWAP5 SWAP4 POP POP POP POP JUMP JUMPDEST DUP2 PUSH1 0x2 SLOAD DUP2 LT PUSH2 0x673 JUMPI PUSH1 0x0 DUP1 REVERT JUMPDEST CALLER PUSH20 0xFFFFFFFFFFFFFFFFFFFFFFFFFFFFFFFFFFFFFFFF AND PUSH1 0x1 PUSH1 0x0 SWAP1 SLOAD SWAP1 PUSH2 0x100 EXP SWAP1 DIV PUSH20 0xFFFFFFFFFFFFFFFFFFFFFFFFFFFFFFFFFFFFFFFF AND PUSH20 0xFFFFFFFFFFFFFFFFFFFFFFFFFFFFFFFFFFFFFFFF AND EQ PUSH2 0x6CD JUMPI PUSH1 0x0 DUP1 REVERT JUMPDEST PUSH1 0x0 PUSH1 0x3 PUSH1 0x0 DUP6 DUP2 MSTORE PUSH1 0x20 ADD SWAP1 DUP2 MSTORE PUSH1 0x20 ADD PUSH1 0x0 KECCAK256 SWAP1 POP DUP3 DUP2 PUSH1 0x3 ADD PUSH1 0x0 PUSH2 0x100 EXP DUP2 SLOAD DUP2 PUSH20 0xFFFFFFFFFFFFFFFFFFFFFFFFFFFFFFFFFFFFFFFF MUL NOT AND SWAP1 DUP4 PUSH20 0xFFFFFFFFFFFFFFFFFFFFFFFFFFFFFFFFFFFFFFFF AND MUL OR SWAP1 SSTORE POP POP POP POP POP JUMP JUMPDEST DUP1 PUSH1 0x2 SLOAD DUP2 LT PUSH2 0x73C JUMPI PUSH1 0x0 DUP1 REVERT JUMPDEST CALLER PUSH20 0xFFFFFFFFFFFFFFFFFFFFFFFFFFFFFFFFFFFFFFFF AND PUSH1 0x1 PUSH1 0x0 SWAP1 SLOAD SWAP1 PUSH2 0x100 EXP SWAP1 DIV PUSH20 0xFFFFFFFFFFFFFFFFFFFFFFFFFFFFFFFFFFFFFFFF AND PUSH20 0xFFFFFFFFFFFFFFFFFFFFFFFFFFFFFFFFFFFFFFFF AND EQ PUSH2 0x796 JUMPI PUSH1 0x0 DUP1 REVERT JUMPDEST PUSH1 0x0 PUSH1 0x3 PUSH1 0x0 DUP5 DUP2 MSTORE PUSH1 0x20 ADD SWAP1 DUP2 MSTORE PUSH1 0x20 ADD PUSH1 0x0 KECCAK256 SWAP1 POP PUSH2 0x7DB DUP4 DUP3 PUSH1 0x1 ADD PUSH1 0x0 SWAP1 SLOAD SWAP1 PUSH2 0x100 EXP SWAP1 DIV PUSH20 0xFFFFFFFFFFFFFFFFFFFFFFFFFFFFFFFFFFFFFFFF AND PUSH2 0x664 JUMP JUMPDEST POP POP POP JUMP JUMPDEST DUP2 PUSH1 0x2 SLOAD DUP2 LT PUSH2 0x7EF JUMPI PUSH1 0x0 DUP1 REVERT JUMPDEST CALLER PUSH20 0xFFFFFFFFFFFFFFFFFFFFFFFFFFFFFFFFFFFFFFFF AND PUSH1 0x1 PUSH1 0x0 SWAP1 SLOAD SWAP1 PUSH2 0x100 EXP SWAP1 DIV PUSH20 0xFFFFFFFFFFFFFFFFFFFFFFFFFFFFFFFFFFFFFFFF AND PUSH20 0xFFFFFFFFFFFFFFFFFFFFFFFFFFFFFFFFFFFFFFFF AND EQ PUSH2 0x849 JUMPI PUSH1 0x0 DUP1 REVERT JUMPDEST PUSH1 0x0 PUSH1 0x3 PUSH1 0x0 DUP6 DUP2 MSTORE PUSH1 0x20 ADD SWAP1 DUP2 MSTORE PUSH1 0x20 ADD PUSH1 0x0 KECCAK256 SWAP1 POP DUP3 DUP2 PUSH1 0x3 ADD PUSH1 0x14 PUSH2 0x100 EXP DUP2 SLOAD DUP2 PUSH1 0xFF MUL NOT AND SWAP1 DUP4 ISZERO ISZERO MUL OR SWAP1 SSTORE POP POP POP POP POP JUMP JUMPDEST PUSH1 0x1 PUSH1 0x0 SWAP1 SLOAD SWAP1 PUSH2 0x100 EXP SWAP1 DIV PUSH20 0xFFFFFFFFFFFFFFFFFFFFFFFFFFFFFFFFFFFFFFFF AND DUP2 JUMP JUMPDEST PUSH1 0x0 DUP1 REVERT JUMPDEST PUSH1 0x0 DUP2 SWAP1 POP SWAP2 SWAP1 POP JUMP JUMPDEST PUSH2 0x8C0 DUP2 PUSH2 0x8AD JUMP JUMPDEST DUP2 EQ PUSH2 0x8CB JUMPI PUSH1 0x0 DUP1 REVERT JUMPDEST POP JUMP JUMPDEST PUSH1 0x0 DUP2 CALLDATALOAD SWAP1 POP PUSH2 0x8DD DUP2 PUSH2 0x8B7 JUMP JUMPDEST SWAP3 SWAP2 POP POP JUMP JUMPDEST PUSH1 0x0 PUSH1 0x20 DUP3 DUP5 SUB SLT ISZERO PUSH2 0x8F9 JUMPI PUSH2 0x8F8 PUSH2 0x8A8 JUMP JUMPDEST JUMPDEST PUSH1 0x0 PUSH2 0x907 DUP5 DUP3 DUP6 ADD PUSH2 0x8CE JUMP JUMPDEST SWAP2 POP POP SWAP3 SWAP2 POP POP JUMP JUMPDEST PUSH2 0x919 DUP2 PUSH2 0x8AD JUMP JUMPDEST DUP3 MSTORE POP POP JUMP JUMPDEST PUSH1 0x0 PUSH1 0x20 DUP3 ADD SWAP1 POP PUSH2 0x934 PUSH1 0x0 DUP4 ADD DUP5 PUSH2 0x910 JUMP JUMPDEST SWAP3 SWAP2 POP POP JUMP JUMPDEST PUSH1 0x0 PUSH20 0xFFFFFFFFFFFFFFFFFFFFFFFFFFFFFFFFFFFFFFFF DUP3 AND SWAP1 POP SWAP2 SWAP1 POP JUMP JUMPDEST PUSH1 0x0 PUSH2 0x965 DUP3 PUSH2 0x93A JUMP JUMPDEST SWAP1 POP SWAP2 SWAP1 POP JUMP JUMPDEST PUSH2 0x975 DUP2 PUSH2 0x95A JUMP JUMPDEST DUP3 MSTORE POP POP JUMP JUMPDEST PUSH1 0x0 PUSH1 0x20 DUP3 ADD SWAP1 POP PUSH2 0x990 PUSH1 0x0 DUP4 ADD DUP5 PUSH2 0x96C JUMP JUMPDEST SWAP3 SWAP2 POP POP JUMP JUMPDEST PUSH1 0x0 DUP1 PUSH1 0x0 PUSH1 0x60 DUP5 DUP7 SUB SLT ISZERO PUSH2 0x9AF JUMPI PUSH2 0x9AE PUSH2 0x8A8 JUMP JUMPDEST JUMPDEST PUSH1 0x0 PUSH2 0x9BD DUP7 DUP3 DUP8 ADD PUSH2 0x8CE JUMP JUMPDEST SWAP4 POP POP PUSH1 0x20 PUSH2 0x9CE DUP7 DUP3 DUP8 ADD PUSH2 0x8CE JUMP JUMPDEST SWAP3 POP POP PUSH1 0x40 PUSH2 0x9DF DUP7 DUP3 DUP8 ADD PUSH2 0x8CE JUMP JUMPDEST SWAP2 POP POP SWAP3 POP SWAP3 POP SWAP3 JUMP JUMPDEST PUSH2 0x9F2 DUP2 PUSH2 0x95A JUMP JUMPDEST DUP2 EQ PUSH2 0x9FD JUMPI PUSH1 0x0 DUP1 REVERT JUMPDEST POP JUMP JUMPDEST PUSH1 0x0 DUP2 CALLDATALOAD SWAP1 POP PUSH2 0xA0F DUP2 PUSH2 0x9E9 JUMP JUMPDEST SWAP3 SWAP2 POP POP JUMP JUMPDEST PUSH1 0x0 DUP1 PUSH1 0x0 DUP1 PUSH1 0x80 DUP6 DUP8 SUB SLT ISZERO PUSH2 0xA2F JUMPI PUSH2 0xA2E PUSH2 0x8A8 JUMP JUMPDEST JUMPDEST PUSH1 0x0 PUSH2 0xA3D DUP8 DUP3 DUP9 ADD PUSH2 0xA00 JUMP JUMPDEST SWAP5 POP POP PUSH1 0x20 PUSH2 0xA4E DUP8 DUP3 DUP9 ADD PUSH2 0x8CE JUMP JUMPDEST SWAP4 POP POP PUSH1 0x40 PUSH2 0xA5F DUP8 DUP3 DUP9 ADD PUSH2 0x8CE JUMP JUMPDEST SWAP3 POP POP PUSH1 0x60 PUSH2 0xA70 DUP8 DUP3 DUP9 ADD PUSH2 0x8CE JUMP JUMPDEST SWAP2 POP POP SWAP3 SWAP6 SWAP2 SWAP5 POP SWAP3 POP JUMP JUMPDEST PUSH1 0x0 DUP1 PUSH1 0x40 DUP4 DUP6 SUB SLT ISZERO PUSH2 0xA93 JUMPI PUSH2 0xA92 PUSH2 0x8A8 JUMP JUMPDEST JUMPDEST PUSH1 0x0 PUSH2 0xAA1 DUP6 DUP3 DUP7 ADD PUSH2 0x8CE JUMP JUMPDEST SWAP3 POP POP PUSH1 0x20 PUSH2 0xAB2 DUP6 DUP3 DUP7 ADD PUSH2 0xA00 JUMP JUMPDEST SWAP2 POP POP SWAP3 POP SWAP3 SWAP1 POP JUMP JUMPDEST PUSH1 0x0 DUP2 ISZERO ISZERO SWAP1 POP SWAP2 SWAP1 POP JUMP JUMPDEST PUSH2 0xAD1 DUP2 PUSH2 0xABC JUMP JUMPDEST DUP2 EQ PUSH2 0xADC JUMPI PUSH1 0x0 DUP1 REVERT JUMPDEST POP JUMP JUMPDEST PUSH1 0x0 DUP2 CALLDATALOAD SWAP1 POP PUSH2 0xAEE DUP2 PUSH2 0xAC8 JUMP JUMPDEST SWAP3 SWAP2 POP POP JUMP JUMPDEST PUSH1 0x0 DUP1 PUSH1 0x40 DUP4 DUP6 SUB SLT ISZERO PUSH2 0xB0B JUMPI PUSH2 0xB0A PUSH2 0x8A8 JUMP JUMPDEST JUMPDEST PUSH1 0x0 PUSH2 0xB19 DUP6 DUP3 DUP7 ADD PUSH2 0x8CE JUMP JUMPDEST SWAP3 POP POP PUSH1 0x20 PUSH2 0xB2A DUP6 DUP3 DUP7 ADD PUSH2 0xADF JUMP JUMPDEST SWAP2 POP POP SWAP3 POP SWAP3 SWAP1 POP JUMP JUMPDEST PUSH32 0x4E487B7100000000000000000000000000000000000000000000000000000000 PUSH1 0x0 MSTORE PUSH1 0x11 PUSH1 0x4 MSTORE PUSH1 0x24 PUSH1 0x0 REVERT JUMPDEST PUSH1 0x0 PUSH2 0xB6E DUP3 PUSH2 0x8AD JUMP JUMPDEST SWAP2 POP PUSH32 0xFFFFFFFFFFFFFFFFFFFFFFFFFFFFFFFFFFFFFFFFFFFFFFFFFFFFFFFFFFFFFFFF DUP3 EQ ISZERO PUSH2 0xBA1 JUMPI PUSH2 0xBA0 PUSH2 0xB34 JUMP JUMPDEST JUMPDEST PUSH1 0x1 DUP3 ADD SWAP1 POP SWAP2 SWAP1 POP JUMP INVALID LOG2 PUSH5 0x6970667358 0x22 SLT KECCAK256 MOD SELFBALANCE 0xC7 DUP3 0xD0 0xE5 SWAP9 0xEB JUMPI SWAP15 PUSH20 0x71187C7731CF59A7791A3F2F30CB0DD153BC9BB0 0xCF PUSH5 0x736F6C6343 STOP ADDMOD EXP STOP CALLER "},"gasEstimates":{"creation":{"codeDepositCost":"1091600","executionCost":"infinite","totalCost":"infinite"},"external":{"addBook(string,string,uint256,address)":"infinite","borrowBook(uint256)":"infinite","createBookToken(uint256,uint256,uint256)":"infinite","getManagerAddress()":"infinite","inviteStaff(address)":"27067","maxBorrowing()":"2429","modifyBook(uint256,string,string,uint256,address)":"infinite","owner()":"2578","returnBook(uint256)":"infinite"}},"methodIdentifiers":{"addBook(string,string,uint256,address)":"687564ae","borrowBook(uint256)":"7e490a9e","createBookToken(uint256,uint256,uint256)":"1973db46","getManagerAddress()":"c162d7da","inviteStaff(address)":"fe69494b","maxBorrowing()":"90272dff","modifyBook(uint256,string,string,uint256,address)":"d2c07e20","owner()":"8da5cb5b","returnBook(uint256)":"ca5140c9"}},"storageLayout":{"storage":[{"astId":6,"contract":"Library.sol:Library","label":"owner","offset":0,"slot":"0","type":"t_address"},{"astId":10,"contract":"Library.sol:Library","label":"staff","offset":0,"slot":"1","type":"t_mapping(t_address,t_bool)"},{"astId":13,"contract":"Library.sol:Library","label":"bookManager","offset":0,"slot":"2","type":"t_contract(BookManager)585"},{"astId":16,"contract":"Library.sol:Library","label":"userManager","offset":0,"slot":"3","type":"t_contract(UserManager)1250"},{"astId":19,"contract":"Library.sol:Library","label":"tokenManager","offset":0,"slot":"4","type":"t_contract(TokenManager)913"},{"astId":22,"contract":"Library.sol:Library","label":"managerAddress","offset":0,"slot":"5","type":"t_array(t_address)dyn_storage"},{"astId":24,"contract":"Library.sol:Library","label":"maxBorrowing","offset":0,"slot":"6","type":"t_uint256"}],"types":{"t_address":{"encoding":"inplace","label":"address","numberOfBytes":"20"},"t_array(t_address)dyn_storage":{"base":"t_address","encoding":"dynamic_array","label":"address[]","numberOfBytes":"32"},"t_bool":{"encoding":"inplace","label":"bool","numberOfBytes":"1"},"t_contract(BookManager)585":{"encoding":"inplace","label":"contract BookManager","numberOfBytes":"20"},"t_contract(TokenManager)913":{"encoding":"inplace","label":"contract TokenManager","numberOfBytes":"20"},"t_contract(UserManager)1250":{"encoding":"inplace","label":"contract UserManager","numberOfBytes":"20"},"t_mapping(t_address,t_bool)":{"encoding":"mapping","key":"t_address","label":"mapping(address => bool)","numberOfBytes":"32","value":"t_bool"},"t_uint256":{"encoding":"inplace","label":"uint256","numberOfBytes":"32"}}},"userdoc":{"kind":"user","methods":{},"version":1}}