{"abi":[{"inputs":[{"internalType":"uint256","name":"_maxBorrowing","type":"uint256"}],"name":"createLibrary","outputs":[],"stateMutability":"nonpayable","type":"function"},{"inputs":[{"internalType":"uint256","name":"","type":"uint256"}],"name":"deployedLibraries","outputs":[{"internalType":"address","name":"","type":"address"}],"stateMutability":"view","type":"function"},{"inputs":[],"name":"getDeployedLibraries","outputs":[{"internalType":"address[]","name":"","type":"address[]"}],"stateMutability":"view","type":"function"}],"devdoc":{"kind":"dev","methods":{},"version":1},"evm":{"assembly":"    /* \"Library.sol\":157:527  contract LibraryFactory {... */\n  mstore(0x40, 0x80)\n  callvalue\n  dup1\n  iszero\n  tag_1\n  jumpi\n  0x00\n  dup1\n  revert\ntag_1:\n  pop\n  dataSize(sub_0)\n  dup1\n  dataOffset(sub_0)\n  0x00\n  codecopy\n  0x00\n  return\nstop\n\nsub_0: assembly {\n        /* \"Library.sol\":157:527  contract LibraryFactory {... */\n      mstore(0x40, 0x80)\n      callvalue\n      dup1\n      iszero\n      tag_1\n      jumpi\n      0x00\n      dup1\n      revert\n    tag_1:\n      pop\n      jumpi(tag_2, lt(calldatasize, 0x04))\n      shr(0xe0, calldataload(0x00))\n      dup1\n      0x73b1be38\n      eq\n      tag_3\n      jumpi\n      dup1\n      0x98fe1356\n      eq\n      tag_4\n      jumpi\n      dup1\n      0xf4b2b9b0\n      eq\n      tag_5\n      jumpi\n    tag_2:\n      0x00\n      dup1\n      revert\n        /* \"Library.sol\":228:407  function createLibrary(uint _maxBorrowing) public {... */\n    tag_3:\n      tag_6\n      0x04\n      dup1\n      calldatasize\n      sub\n      dup2\n      add\n      swap1\n      tag_7\n      swap2\n      swap1\n      tag_8\n      jump\t// in\n    tag_7:\n      tag_9\n      jump\t// in\n    tag_6:\n      stop\n        /* \"Library.sol\":187:221  address[] public deployedLibraries */\n    tag_4:\n      tag_10\n      0x04\n      dup1\n      calldatasize\n      sub\n      dup2\n      add\n      swap1\n      tag_11\n      swap2\n      swap1\n      tag_8\n      jump\t// in\n    tag_11:\n      tag_12\n      jump\t// in\n    tag_10:\n      mload(0x40)\n      tag_13\n      swap2\n      swap1\n      tag_14\n      jump\t// in\n    tag_13:\n      mload(0x40)\n      dup1\n      swap2\n      sub\n      swap1\n      return\n        /* \"Library.sol\":413:525  function getDeployedLibraries() public view returns (address[] memory) {... */\n    tag_5:\n      tag_15\n      tag_16\n      jump\t// in\n    tag_15:\n      mload(0x40)\n      tag_17\n      swap2\n      swap1\n      tag_18\n      jump\t// in\n    tag_17:\n      mload(0x40)\n      dup1\n      swap2\n      sub\n      swap1\n      return\n        /* \"Library.sol\":228:407  function createLibrary(uint _maxBorrowing) public {... */\n    tag_9:\n        /* \"Library.sol\":288:306  Library newLibrary */\n      0x00\n        /* \"Library.sol\":321:334  _maxBorrowing */\n      dup2\n        /* \"Library.sol\":336:346  msg.sender */\n      caller\n        /* \"Library.sol\":309:347  new Library(_maxBorrowing, msg.sender) */\n      mload(0x40)\n      tag_20\n      swap1\n      tag_21\n      jump\t// in\n    tag_20:\n      tag_22\n      swap3\n      swap2\n      swap1\n      tag_23\n      jump\t// in\n    tag_22:\n      mload(0x40)\n      dup1\n      swap2\n      sub\n      swap1\n      0x00\n      create\n      dup1\n      iszero\n      dup1\n      iszero\n      tag_24\n      jumpi\n      returndatasize\n      0x00\n      dup1\n      returndatacopy\n      revert(0x00, returndatasize)\n    tag_24:\n      pop\n        /* \"Library.sol\":288:347  Library newLibrary = new Library(_maxBorrowing, msg.sender) */\n      swap1\n      pop\n        /* \"Library.sol\":357:374  deployedLibraries */\n      0x00\n        /* \"Library.sol\":388:398  newLibrary */\n      dup2\n        /* \"Library.sol\":357:400  deployedLibraries.push(address(newLibrary)) */\n      swap1\n      dup1\n      0x01\n      dup2\n      sload\n      add\n      dup1\n      dup3\n      sstore\n      dup1\n      swap2\n      pop\n      pop\n      0x01\n      swap1\n      sub\n      swap1\n      0x00\n      mstore\n      keccak256(0x00, 0x20)\n      add\n      0x00\n      swap1\n      swap2\n      swap1\n      swap2\n      swap1\n      swap2\n      0x0100\n      exp\n      dup2\n      sload\n      dup2\n      0xffffffffffffffffffffffffffffffffffffffff\n      mul\n      not\n      and\n      swap1\n      dup4\n      0xffffffffffffffffffffffffffffffffffffffff\n      and\n      mul\n      or\n      swap1\n      sstore\n      pop\n        /* \"Library.sol\":278:407  {... */\n      pop\n        /* \"Library.sol\":228:407  function createLibrary(uint _maxBorrowing) public {... */\n      pop\n      jump\t// out\n        /* \"Library.sol\":187:221  address[] public deployedLibraries */\n    tag_12:\n      0x00\n      dup2\n      dup2\n      sload\n      dup2\n      lt\n      tag_26\n      jumpi\n      0x00\n      dup1\n      revert\n    tag_26:\n      swap1\n      0x00\n      mstore\n      keccak256(0x00, 0x20)\n      add\n      0x00\n      swap2\n      pop\n      sload\n      swap1\n      0x0100\n      exp\n      swap1\n      div\n      0xffffffffffffffffffffffffffffffffffffffff\n      and\n      dup2\n      jump\t// out\n        /* \"Library.sol\":413:525  function getDeployedLibraries() public view returns (address[] memory) {... */\n    tag_16:\n        /* \"Library.sol\":466:482  address[] memory */\n      0x60\n        /* \"Library.sol\":501:518  deployedLibraries */\n      0x00\n        /* \"Library.sol\":494:518  return deployedLibraries */\n      dup1\n      sload\n      dup1\n      0x20\n      mul\n      0x20\n      add\n      mload(0x40)\n      swap1\n      dup2\n      add\n      0x40\n      mstore\n      dup1\n      swap3\n      swap2\n      swap1\n      dup2\n      dup2\n      mstore\n      0x20\n      add\n      dup3\n      dup1\n      sload\n      dup1\n      iszero\n      tag_29\n      jumpi\n      0x20\n      mul\n      dup3\n      add\n      swap2\n      swap1\n      0x00\n      mstore\n      keccak256(0x00, 0x20)\n      swap1\n    tag_30:\n      dup2\n      0x00\n      swap1\n      sload\n      swap1\n      0x0100\n      exp\n      swap1\n      div\n      0xffffffffffffffffffffffffffffffffffffffff\n      and\n      0xffffffffffffffffffffffffffffffffffffffff\n      and\n      dup2\n      mstore\n      0x20\n      add\n      swap1\n      0x01\n      add\n      swap1\n      dup1\n      dup4\n      gt\n      tag_30\n      jumpi\n    tag_29:\n      pop\n      pop\n      pop\n      pop\n      pop\n      swap1\n      pop\n        /* \"Library.sol\":413:525  function getDeployedLibraries() public view returns (address[] memory) {... */\n      swap1\n      jump\t// out\n    tag_21:\n      dataSize(sub_0)\n      dup1\n      dataOffset(sub_0)\n      dup4\n      codecopy\n      add\n      swap1\n      jump\t// out\n        /* \"#utility.yul\":88:205   */\n    tag_32:\n        /* \"#utility.yul\":197:198   */\n      0x00\n        /* \"#utility.yul\":194:195   */\n      dup1\n        /* \"#utility.yul\":187:199   */\n      revert\n        /* \"#utility.yul\":334:411   */\n    tag_34:\n        /* \"#utility.yul\":371:378   */\n      0x00\n        /* \"#utility.yul\":400:405   */\n      dup2\n        /* \"#utility.yul\":389:405   */\n      swap1\n      pop\n        /* \"#utility.yul\":334:411   */\n      swap2\n      swap1\n      pop\n      jump\t// out\n        /* \"#utility.yul\":417:539   */\n    tag_35:\n        /* \"#utility.yul\":490:514   */\n      tag_54\n        /* \"#utility.yul\":508:513   */\n      dup2\n        /* \"#utility.yul\":490:514   */\n      tag_34\n      jump\t// in\n    tag_54:\n        /* \"#utility.yul\":483:488   */\n      dup2\n        /* \"#utility.yul\":480:515   */\n      eq\n        /* \"#utility.yul\":470:533   */\n      tag_55\n      jumpi\n        /* \"#utility.yul\":529:530   */\n      0x00\n        /* \"#utility.yul\":526:527   */\n      dup1\n        /* \"#utility.yul\":519:531   */\n      revert\n        /* \"#utility.yul\":470:533   */\n    tag_55:\n        /* \"#utility.yul\":417:539   */\n      pop\n      jump\t// out\n        /* \"#utility.yul\":545:684   */\n    tag_36:\n        /* \"#utility.yul\":591:596   */\n      0x00\n        /* \"#utility.yul\":629:635   */\n      dup2\n        /* \"#utility.yul\":616:636   */\n      calldataload\n        /* \"#utility.yul\":607:636   */\n      swap1\n      pop\n        /* \"#utility.yul\":645:678   */\n      tag_57\n        /* \"#utility.yul\":672:677   */\n      dup2\n        /* \"#utility.yul\":645:678   */\n      tag_35\n      jump\t// in\n    tag_57:\n        /* \"#utility.yul\":545:684   */\n      swap3\n      swap2\n      pop\n      pop\n      jump\t// out\n        /* \"#utility.yul\":690:1019   */\n    tag_8:\n        /* \"#utility.yul\":749:755   */\n      0x00\n        /* \"#utility.yul\":798:800   */\n      0x20\n        /* \"#utility.yul\":786:795   */\n      dup3\n        /* \"#utility.yul\":777:784   */\n      dup5\n        /* \"#utility.yul\":773:796   */\n      sub\n        /* \"#utility.yul\":769:801   */\n      slt\n        /* \"#utility.yul\":766:885   */\n      iszero\n      tag_59\n      jumpi\n        /* \"#utility.yul\":804:883   */\n      tag_60\n      tag_32\n      jump\t// in\n    tag_60:\n        /* \"#utility.yul\":766:885   */\n    tag_59:\n        /* \"#utility.yul\":924:925   */\n      0x00\n        /* \"#utility.yul\":949:1002   */\n      tag_61\n        /* \"#utility.yul\":994:1001   */\n      dup5\n        /* \"#utility.yul\":985:991   */\n      dup3\n        /* \"#utility.yul\":974:983   */\n      dup6\n        /* \"#utility.yul\":970:992   */\n      add\n        /* \"#utility.yul\":949:1002   */\n      tag_36\n      jump\t// in\n    tag_61:\n        /* \"#utility.yul\":939:1002   */\n      swap2\n      pop\n        /* \"#utility.yul\":895:1012   */\n      pop\n        /* \"#utility.yul\":690:1019   */\n      swap3\n      swap2\n      pop\n      pop\n      jump\t// out\n        /* \"#utility.yul\":1025:1151   */\n    tag_37:\n        /* \"#utility.yul\":1062:1069   */\n      0x00\n        /* \"#utility.yul\":1102:1144   */\n      0xffffffffffffffffffffffffffffffffffffffff\n        /* \"#utility.yul\":1095:1100   */\n      dup3\n        /* \"#utility.yul\":1091:1145   */\n      and\n        /* \"#utility.yul\":1080:1145   */\n      swap1\n      pop\n        /* \"#utility.yul\":1025:1151   */\n      swap2\n      swap1\n      pop\n      jump\t// out\n        /* \"#utility.yul\":1157:1253   */\n    tag_38:\n        /* \"#utility.yul\":1194:1201   */\n      0x00\n        /* \"#utility.yul\":1223:1247   */\n      tag_64\n        /* \"#utility.yul\":1241:1246   */\n      dup3\n        /* \"#utility.yul\":1223:1247   */\n      tag_37\n      jump\t// in\n    tag_64:\n        /* \"#utility.yul\":1212:1247   */\n      swap1\n      pop\n        /* \"#utility.yul\":1157:1253   */\n      swap2\n      swap1\n      pop\n      jump\t// out\n        /* \"#utility.yul\":1259:1377   */\n    tag_39:\n        /* \"#utility.yul\":1346:1370   */\n      tag_66\n        /* \"#utility.yul\":1364:1369   */\n      dup2\n        /* \"#utility.yul\":1346:1370   */\n      tag_38\n      jump\t// in\n    tag_66:\n        /* \"#utility.yul\":1341:1344   */\n      dup3\n        /* \"#utility.yul\":1334:1371   */\n      mstore\n        /* \"#utility.yul\":1259:1377   */\n      pop\n      pop\n      jump\t// out\n        /* \"#utility.yul\":1383:1605   */\n    tag_14:\n        /* \"#utility.yul\":1476:1480   */\n      0x00\n        /* \"#utility.yul\":1514:1516   */\n      0x20\n        /* \"#utility.yul\":1503:1512   */\n      dup3\n        /* \"#utility.yul\":1499:1517   */\n      add\n        /* \"#utility.yul\":1491:1517   */\n      swap1\n      pop\n        /* \"#utility.yul\":1527:1598   */\n      tag_68\n        /* \"#utility.yul\":1595:1596   */\n      0x00\n        /* \"#utility.yul\":1584:1593   */\n      dup4\n        /* \"#utility.yul\":1580:1597   */\n      add\n        /* \"#utility.yul\":1571:1577   */\n      dup5\n        /* \"#utility.yul\":1527:1598   */\n      tag_39\n      jump\t// in\n    tag_68:\n        /* \"#utility.yul\":1383:1605   */\n      swap3\n      swap2\n      pop\n      pop\n      jump\t// out\n        /* \"#utility.yul\":1611:1725   */\n    tag_40:\n        /* \"#utility.yul\":1678:1684   */\n      0x00\n        /* \"#utility.yul\":1712:1717   */\n      dup2\n        /* \"#utility.yul\":1706:1718   */\n      mload\n        /* \"#utility.yul\":1696:1718   */\n      swap1\n      pop\n        /* \"#utility.yul\":1611:1725   */\n      swap2\n      swap1\n      pop\n      jump\t// out\n        /* \"#utility.yul\":1731:1915   */\n    tag_41:\n        /* \"#utility.yul\":1830:1841   */\n      0x00\n        /* \"#utility.yul\":1864:1870   */\n      dup3\n        /* \"#utility.yul\":1859:1862   */\n      dup3\n        /* \"#utility.yul\":1852:1871   */\n      mstore\n        /* \"#utility.yul\":1904:1908   */\n      0x20\n        /* \"#utility.yul\":1899:1902   */\n      dup3\n        /* \"#utility.yul\":1895:1909   */\n      add\n        /* \"#utility.yul\":1880:1909   */\n      swap1\n      pop\n        /* \"#utility.yul\":1731:1915   */\n      swap3\n      swap2\n      pop\n      pop\n      jump\t// out\n        /* \"#utility.yul\":1921:2053   */\n    tag_42:\n        /* \"#utility.yul\":1988:1992   */\n      0x00\n        /* \"#utility.yul\":2011:2014   */\n      dup2\n        /* \"#utility.yul\":2003:2014   */\n      swap1\n      pop\n        /* \"#utility.yul\":2041:2045   */\n      0x20\n        /* \"#utility.yul\":2036:2039   */\n      dup3\n        /* \"#utility.yul\":2032:2046   */\n      add\n        /* \"#utility.yul\":2024:2046   */\n      swap1\n      pop\n        /* \"#utility.yul\":1921:2053   */\n      swap2\n      swap1\n      pop\n      jump\t// out\n        /* \"#utility.yul\":2059:2167   */\n    tag_43:\n        /* \"#utility.yul\":2136:2160   */\n      tag_73\n        /* \"#utility.yul\":2154:2159   */\n      dup2\n        /* \"#utility.yul\":2136:2160   */\n      tag_38\n      jump\t// in\n    tag_73:\n        /* \"#utility.yul\":2131:2134   */\n      dup3\n        /* \"#utility.yul\":2124:2161   */\n      mstore\n        /* \"#utility.yul\":2059:2167   */\n      pop\n      pop\n      jump\t// out\n        /* \"#utility.yul\":2173:2352   */\n    tag_44:\n        /* \"#utility.yul\":2242:2252   */\n      0x00\n        /* \"#utility.yul\":2263:2309   */\n      tag_75\n        /* \"#utility.yul\":2305:2308   */\n      dup4\n        /* \"#utility.yul\":2297:2303   */\n      dup4\n        /* \"#utility.yul\":2263:2309   */\n      tag_43\n      jump\t// in\n    tag_75:\n        /* \"#utility.yul\":2341:2345   */\n      0x20\n        /* \"#utility.yul\":2336:2339   */\n      dup4\n        /* \"#utility.yul\":2332:2346   */\n      add\n        /* \"#utility.yul\":2318:2346   */\n      swap1\n      pop\n        /* \"#utility.yul\":2173:2352   */\n      swap3\n      swap2\n      pop\n      pop\n      jump\t// out\n        /* \"#utility.yul\":2358:2471   */\n    tag_45:\n        /* \"#utility.yul\":2428:2432   */\n      0x00\n        /* \"#utility.yul\":2460:2464   */\n      0x20\n        /* \"#utility.yul\":2455:2458   */\n      dup3\n        /* \"#utility.yul\":2451:2465   */\n      add\n        /* \"#utility.yul\":2443:2465   */\n      swap1\n      pop\n        /* \"#utility.yul\":2358:2471   */\n      swap2\n      swap1\n      pop\n      jump\t// out\n        /* \"#utility.yul\":2507:3239   */\n    tag_46:\n        /* \"#utility.yul\":2626:2629   */\n      0x00\n        /* \"#utility.yul\":2655:2709   */\n      tag_78\n        /* \"#utility.yul\":2703:2708   */\n      dup3\n        /* \"#utility.yul\":2655:2709   */\n      tag_40\n      jump\t// in\n    tag_78:\n        /* \"#utility.yul\":2725:2811   */\n      tag_79\n        /* \"#utility.yul\":2804:2810   */\n      dup2\n        /* \"#utility.yul\":2799:2802   */\n      dup6\n        /* \"#utility.yul\":2725:2811   */\n      tag_41\n      jump\t// in\n    tag_79:\n        /* \"#utility.yul\":2718:2811   */\n      swap4\n      pop\n        /* \"#utility.yul\":2835:2891   */\n      tag_80\n        /* \"#utility.yul\":2885:2890   */\n      dup4\n        /* \"#utility.yul\":2835:2891   */\n      tag_42\n      jump\t// in\n    tag_80:\n        /* \"#utility.yul\":2914:2921   */\n      dup1\n        /* \"#utility.yul\":2945:2946   */\n      0x00\n        /* \"#utility.yul\":2930:3214   */\n    tag_81:\n        /* \"#utility.yul\":2955:2961   */\n      dup4\n        /* \"#utility.yul\":2952:2953   */\n      dup2\n        /* \"#utility.yul\":2949:2962   */\n      lt\n        /* \"#utility.yul\":2930:3214   */\n      iszero\n      tag_83\n      jumpi\n        /* \"#utility.yul\":3031:3037   */\n      dup2\n        /* \"#utility.yul\":3025:3038   */\n      mload\n        /* \"#utility.yul\":3058:3121   */\n      tag_84\n        /* \"#utility.yul\":3117:3120   */\n      dup9\n        /* \"#utility.yul\":3102:3115   */\n      dup3\n        /* \"#utility.yul\":3058:3121   */\n      tag_44\n      jump\t// in\n    tag_84:\n        /* \"#utility.yul\":3051:3121   */\n      swap8\n      pop\n        /* \"#utility.yul\":3144:3204   */\n      tag_85\n        /* \"#utility.yul\":3197:3203   */\n      dup4\n        /* \"#utility.yul\":3144:3204   */\n      tag_45\n      jump\t// in\n    tag_85:\n        /* \"#utility.yul\":3134:3204   */\n      swap3\n      pop\n        /* \"#utility.yul\":2990:3214   */\n      pop\n        /* \"#utility.yul\":2977:2978   */\n      0x01\n        /* \"#utility.yul\":2974:2975   */\n      dup2\n        /* \"#utility.yul\":2970:2979   */\n      add\n        /* \"#utility.yul\":2965:2979   */\n      swap1\n      pop\n        /* \"#utility.yul\":2930:3214   */\n      jump(tag_81)\n    tag_83:\n        /* \"#utility.yul\":2934:2948   */\n      pop\n        /* \"#utility.yul\":3230:3233   */\n      dup6\n        /* \"#utility.yul\":3223:3233   */\n      swap4\n      pop\n        /* \"#utility.yul\":2631:3239   */\n      pop\n      pop\n      pop\n        /* \"#utility.yul\":2507:3239   */\n      swap3\n      swap2\n      pop\n      pop\n      jump\t// out\n        /* \"#utility.yul\":3245:3618   */\n    tag_18:\n        /* \"#utility.yul\":3388:3392   */\n      0x00\n        /* \"#utility.yul\":3426:3428   */\n      0x20\n        /* \"#utility.yul\":3415:3424   */\n      dup3\n        /* \"#utility.yul\":3411:3429   */\n      add\n        /* \"#utility.yul\":3403:3429   */\n      swap1\n      pop\n        /* \"#utility.yul\":3475:3484   */\n      dup2\n        /* \"#utility.yul\":3469:3473   */\n      dup2\n        /* \"#utility.yul\":3465:3485   */\n      sub\n        /* \"#utility.yul\":3461:3462   */\n      0x00\n        /* \"#utility.yul\":3450:3459   */\n      dup4\n        /* \"#utility.yul\":3446:3463   */\n      add\n        /* \"#utility.yul\":3439:3486   */\n      mstore\n        /* \"#utility.yul\":3503:3611   */\n      tag_87\n        /* \"#utility.yul\":3606:3610   */\n      dup2\n        /* \"#utility.yul\":3597:3603   */\n      dup5\n        /* \"#utility.yul\":3503:3611   */\n      tag_46\n      jump\t// in\n    tag_87:\n        /* \"#utility.yul\":3495:3611   */\n      swap1\n      pop\n        /* \"#utility.yul\":3245:3618   */\n      swap3\n      swap2\n      pop\n      pop\n      jump\t// out\n        /* \"#utility.yul\":3624:3742   */\n    tag_47:\n        /* \"#utility.yul\":3711:3735   */\n      tag_89\n        /* \"#utility.yul\":3729:3734   */\n      dup2\n        /* \"#utility.yul\":3711:3735   */\n      tag_34\n      jump\t// in\n    tag_89:\n        /* \"#utility.yul\":3706:3709   */\n      dup3\n        /* \"#utility.yul\":3699:3736   */\n      mstore\n        /* \"#utility.yul\":3624:3742   */\n      pop\n      pop\n      jump\t// out\n        /* \"#utility.yul\":3748:4080   */\n    tag_23:\n        /* \"#utility.yul\":3869:3873   */\n      0x00\n        /* \"#utility.yul\":3907:3909   */\n      0x40\n        /* \"#utility.yul\":3896:3905   */\n      dup3\n        /* \"#utility.yul\":3892:3910   */\n      add\n        /* \"#utility.yul\":3884:3910   */\n      swap1\n      pop\n        /* \"#utility.yul\":3920:3991   */\n      tag_91\n        /* \"#utility.yul\":3988:3989   */\n      0x00\n        /* \"#utility.yul\":3977:3986   */\n      dup4\n        /* \"#utility.yul\":3973:3990   */\n      add\n        /* \"#utility.yul\":3964:3970   */\n      dup6\n        /* \"#utility.yul\":3920:3991   */\n      tag_47\n      jump\t// in\n    tag_91:\n        /* \"#utility.yul\":4001:4073   */\n      tag_92\n        /* \"#utility.yul\":4069:4071   */\n      0x20\n        /* \"#utility.yul\":4058:4067   */\n      dup4\n        /* \"#utility.yul\":4054:4072   */\n      add\n        /* \"#utility.yul\":4045:4051   */\n      dup5\n        /* \"#utility.yul\":4001:4073   */\n      tag_39\n      jump\t// in\n    tag_92:\n        /* \"#utility.yul\":3748:4080   */\n      swap4\n      swap3\n      pop\n      pop\n      pop\n      jump\t// out\n    stop\n\n    sub_0: assembly {\n            /* \"Library.sol\":529:3943  contract Library {... */\n          mstore(0x40, 0x80)\n            /* \"Library.sol\":1090:1535  constructor (uint _maxBorrowing, address _creator) {... */\n          callvalue\n          dup1\n          iszero\n          tag_1\n          jumpi\n          0x00\n          dup1\n          revert\n        tag_1:\n          pop\n          mload(0x40)\n          sub(codesize, bytecodeSize)\n          dup1\n          bytecodeSize\n          dup4\n          codecopy\n          dup2\n          dup2\n          add\n          0x40\n          mstore\n          dup2\n          add\n          swap1\n          tag_2\n          swap2\n          swap1\n          tag_3\n          jump\t// in\n        tag_2:\n            /* \"Library.sol\":1159:1167  _creator */\n          dup1\n            /* \"Library.sol\":1151:1156  owner */\n          0x00\n          dup1\n            /* \"Library.sol\":1151:1167  owner = _creator */\n          0x0100\n          exp\n          dup2\n          sload\n          dup2\n          0xffffffffffffffffffffffffffffffffffffffff\n          mul\n          not\n          and\n          swap1\n          dup4\n          0xffffffffffffffffffffffffffffffffffffffff\n          and\n          mul\n          or\n          swap1\n          sstore\n          pop\n            /* \"Library.sol\":1192:1196  true */\n          0x01\n            /* \"Library.sol\":1177:1182  staff */\n          dup1\n            /* \"Library.sol\":1177:1189  staff[owner] */\n          0x00\n            /* \"Library.sol\":1183:1188  owner */\n          dup1\n          0x00\n          swap1\n          sload\n          swap1\n          0x0100\n          exp\n          swap1\n          div\n          0xffffffffffffffffffffffffffffffffffffffff\n          and\n            /* \"Library.sol\":1177:1189  staff[owner] */\n          0xffffffffffffffffffffffffffffffffffffffff\n          and\n          0xffffffffffffffffffffffffffffffffffffffff\n          and\n          dup2\n          mstore\n          0x20\n          add\n          swap1\n          dup2\n          mstore\n          0x20\n          add\n          0x00\n          keccak256\n          0x00\n            /* \"Library.sol\":1177:1196  staff[owner] = true */\n          0x0100\n          exp\n          dup2\n          sload\n          dup2\n          0xff\n          mul\n          not\n          and\n          swap1\n          dup4\n          iszero\n          iszero\n          mul\n          or\n          swap1\n          sstore\n          pop\n            /* \"Library.sol\":1236:1241  owner */\n          0x00\n          dup1\n          sload\n          swap1\n          0x0100\n          exp\n          swap1\n          div\n          0xffffffffffffffffffffffffffffffffffffffff\n          and\n            /* \"Library.sol\":1220:1242  new BookManager(owner) */\n          mload(0x40)\n          tag_6\n          swap1\n          tag_7\n          jump\t// in\n        tag_6:\n          tag_8\n          swap2\n          swap1\n          tag_9\n          jump\t// in\n        tag_8:\n          mload(0x40)\n          dup1\n          swap2\n          sub\n          swap1\n          0x00\n          create\n          dup1\n          iszero\n          dup1\n          iszero\n          tag_10\n          jumpi\n          returndatasize\n          0x00\n          dup1\n          returndatacopy\n          revert(0x00, returndatasize)\n        tag_10:\n          pop\n            /* \"Library.sol\":1206:1217  bookManager */\n          0x02\n          0x00\n            /* \"Library.sol\":1206:1242  bookManager = new BookManager(owner) */\n          0x0100\n          exp\n          dup2\n          sload\n          dup2\n          0xffffffffffffffffffffffffffffffffffffffff\n          mul\n          not\n          and\n          swap1\n          dup4\n          0xffffffffffffffffffffffffffffffffffffffff\n          and\n          mul\n          or\n          swap1\n          sstore\n          pop\n            /* \"Library.sol\":1282:1287  owner */\n          0x00\n          dup1\n          sload\n          swap1\n          0x0100\n          exp\n          swap1\n          div\n          0xffffffffffffffffffffffffffffffffffffffff\n          and\n            /* \"Library.sol\":1266:1288  new UserManager(owner) */\n          mload(0x40)\n          tag_11\n          swap1\n          tag_12\n          jump\t// in\n        tag_11:\n          tag_13\n          swap2\n          swap1\n          tag_9\n          jump\t// in\n        tag_13:\n          mload(0x40)\n          dup1\n          swap2\n          sub\n          swap1\n          0x00\n          create\n          dup1\n          iszero\n          dup1\n          iszero\n          tag_14\n          jumpi\n          returndatasize\n          0x00\n          dup1\n          returndatacopy\n          revert(0x00, returndatasize)\n        tag_14:\n          pop\n            /* \"Library.sol\":1252:1263  userManager */\n          0x03\n          0x00\n            /* \"Library.sol\":1252:1288  userManager = new UserManager(owner) */\n          0x0100\n          exp\n          dup2\n          sload\n          dup2\n          0xffffffffffffffffffffffffffffffffffffffff\n          mul\n          not\n          and\n          swap1\n          dup4\n          0xffffffffffffffffffffffffffffffffffffffff\n          and\n          mul\n          or\n          swap1\n          sstore\n          pop\n            /* \"Library.sol\":1330:1335  owner */\n          0x00\n          dup1\n          sload\n          swap1\n          0x0100\n          exp\n          swap1\n          div\n          0xffffffffffffffffffffffffffffffffffffffff\n          and\n            /* \"Library.sol\":1313:1336  new TokenManager(owner) */\n          mload(0x40)\n          tag_15\n          swap1\n          tag_16\n          jump\t// in\n        tag_15:\n          tag_17\n          swap2\n          swap1\n          tag_9\n          jump\t// in\n        tag_17:\n          mload(0x40)\n          dup1\n          swap2\n          sub\n          swap1\n          0x00\n          create\n          dup1\n          iszero\n          dup1\n          iszero\n          tag_18\n          jumpi\n          returndatasize\n          0x00\n          dup1\n          returndatacopy\n          revert(0x00, returndatasize)\n        tag_18:\n          pop\n            /* \"Library.sol\":1298:1310  tokenManager */\n          0x04\n          0x00\n            /* \"Library.sol\":1298:1336  tokenManager = new TokenManager(owner) */\n          0x0100\n          exp\n          dup2\n          sload\n          dup2\n          0xffffffffffffffffffffffffffffffffffffffff\n          mul\n          not\n          and\n          swap1\n          dup4\n          0xffffffffffffffffffffffffffffffffffffffff\n          and\n          mul\n          or\n          swap1\n          sstore\n          pop\n            /* \"Library.sol\":1346:1360  managerAddress */\n          0x05\n            /* \"Library.sol\":1374:1385  bookManager */\n          0x02\n          0x00\n          swap1\n          sload\n          swap1\n          0x0100\n          exp\n          swap1\n          div\n          0xffffffffffffffffffffffffffffffffffffffff\n          and\n            /* \"Library.sol\":1346:1387  managerAddress.push(address(bookManager)) */\n          swap1\n          dup1\n          0x01\n          dup2\n          sload\n          add\n          dup1\n          dup3\n          sstore\n          dup1\n          swap2\n          pop\n          pop\n          0x01\n          swap1\n          sub\n          swap1\n          0x00\n          mstore\n          keccak256(0x00, 0x20)\n          add\n          0x00\n          swap1\n          swap2\n          swap1\n          swap2\n          swap1\n          swap2\n          0x0100\n          exp\n          dup2\n          sload\n          dup2\n          0xffffffffffffffffffffffffffffffffffffffff\n          mul\n          not\n          and\n          swap1\n          dup4\n          0xffffffffffffffffffffffffffffffffffffffff\n          and\n          mul\n          or\n          swap1\n          sstore\n          pop\n            /* \"Library.sol\":1397:1411  managerAddress */\n          0x05\n            /* \"Library.sol\":1425:1436  userManager */\n          0x03\n          0x00\n          swap1\n          sload\n          swap1\n          0x0100\n          exp\n          swap1\n          div\n          0xffffffffffffffffffffffffffffffffffffffff\n          and\n            /* \"Library.sol\":1397:1438  managerAddress.push(address(userManager)) */\n          swap1\n          dup1\n          0x01\n          dup2\n          sload\n          add\n          dup1\n          dup3\n          sstore\n          dup1\n          swap2\n          pop\n          pop\n          0x01\n          swap1\n          sub\n          swap1\n          0x00\n          mstore\n          keccak256(0x00, 0x20)\n          add\n          0x00\n          swap1\n          swap2\n          swap1\n          swap2\n          swap1\n          swap2\n          0x0100\n          exp\n          dup2\n          sload\n          dup2\n          0xffffffffffffffffffffffffffffffffffffffff\n          mul\n          not\n          and\n          swap1\n          dup4\n          0xffffffffffffffffffffffffffffffffffffffff\n          and\n          mul\n          or\n          swap1\n          sstore\n          pop\n            /* \"Library.sol\":1448:1462  managerAddress */\n          0x05\n            /* \"Library.sol\":1476:1488  tokenManager */\n          0x04\n          0x00\n          swap1\n          sload\n          swap1\n          0x0100\n          exp\n          swap1\n          div\n          0xffffffffffffffffffffffffffffffffffffffff\n          and\n            /* \"Library.sol\":1448:1490  managerAddress.push(address(tokenManager)) */\n          swap1\n          dup1\n          0x01\n          dup2\n          sload\n          add\n          dup1\n          dup3\n          sstore\n          dup1\n          swap2\n          pop\n          pop\n          0x01\n          swap1\n          sub\n          swap1\n          0x00\n          mstore\n          keccak256(0x00, 0x20)\n          add\n          0x00\n          swap1\n          swap2\n          swap1\n          swap2\n          swap1\n          swap2\n          0x0100\n          exp\n          dup2\n          sload\n          dup2\n          0xffffffffffffffffffffffffffffffffffffffff\n          mul\n          not\n          and\n          swap1\n          dup4\n          0xffffffffffffffffffffffffffffffffffffffff\n          and\n          mul\n          or\n          swap1\n          sstore\n          pop\n            /* \"Library.sol\":1515:1528  _maxBorrowing */\n          dup2\n            /* \"Library.sol\":1500:1512  maxBorrowing */\n          0x06\n            /* \"Library.sol\":1500:1528  maxBorrowing = _maxBorrowing */\n          dup2\n          swap1\n          sstore\n          pop\n            /* \"Library.sol\":1090:1535  constructor (uint _maxBorrowing, address _creator) {... */\n          pop\n          pop\n            /* \"Library.sol\":529:3943  contract Library {... */\n          jump(tag_22)\n        tag_7:\n          dataSize(sub_1)\n          dup1\n          dataOffset(sub_1)\n          dup4\n          codecopy\n          add\n          swap1\n          jump\t// out\n        tag_12:\n          dataSize(sub_2)\n          dup1\n          dataOffset(sub_2)\n          dup4\n          codecopy\n          add\n          swap1\n          jump\t// out\n        tag_16:\n          dataSize(sub_3)\n          dup1\n          dataOffset(sub_3)\n          dup4\n          codecopy\n          add\n          swap1\n          jump\t// out\n            /* \"#utility.yul\":88:205   */\n        tag_24:\n            /* \"#utility.yul\":197:198   */\n          0x00\n            /* \"#utility.yul\":194:195   */\n          dup1\n            /* \"#utility.yul\":187:199   */\n          revert\n            /* \"#utility.yul\":334:411   */\n        tag_26:\n            /* \"#utility.yul\":371:378   */\n          0x00\n            /* \"#utility.yul\":400:405   */\n          dup2\n            /* \"#utility.yul\":389:405   */\n          swap1\n          pop\n            /* \"#utility.yul\":334:411   */\n          swap2\n          swap1\n          pop\n          jump\t// out\n            /* \"#utility.yul\":417:539   */\n        tag_27:\n            /* \"#utility.yul\":490:514   */\n          tag_40\n            /* \"#utility.yul\":508:513   */\n          dup2\n            /* \"#utility.yul\":490:514   */\n          tag_26\n          jump\t// in\n        tag_40:\n            /* \"#utility.yul\":483:488   */\n          dup2\n            /* \"#utility.yul\":480:515   */\n          eq\n            /* \"#utility.yul\":470:533   */\n          tag_41\n          jumpi\n            /* \"#utility.yul\":529:530   */\n          0x00\n            /* \"#utility.yul\":526:527   */\n          dup1\n            /* \"#utility.yul\":519:531   */\n          revert\n            /* \"#utility.yul\":470:533   */\n        tag_41:\n            /* \"#utility.yul\":417:539   */\n          pop\n          jump\t// out\n            /* \"#utility.yul\":545:688   */\n        tag_28:\n            /* \"#utility.yul\":602:607   */\n          0x00\n            /* \"#utility.yul\":633:639   */\n          dup2\n            /* \"#utility.yul\":627:640   */\n          mload\n            /* \"#utility.yul\":618:640   */\n          swap1\n          pop\n            /* \"#utility.yul\":649:682   */\n          tag_43\n            /* \"#utility.yul\":676:681   */\n          dup2\n            /* \"#utility.yul\":649:682   */\n          tag_27\n          jump\t// in\n        tag_43:\n            /* \"#utility.yul\":545:688   */\n          swap3\n          swap2\n          pop\n          pop\n          jump\t// out\n            /* \"#utility.yul\":694:820   */\n        tag_29:\n            /* \"#utility.yul\":731:738   */\n          0x00\n            /* \"#utility.yul\":771:813   */\n          0xffffffffffffffffffffffffffffffffffffffff\n            /* \"#utility.yul\":764:769   */\n          dup3\n            /* \"#utility.yul\":760:814   */\n          and\n            /* \"#utility.yul\":749:814   */\n          swap1\n          pop\n            /* \"#utility.yul\":694:820   */\n          swap2\n          swap1\n          pop\n          jump\t// out\n            /* \"#utility.yul\":826:922   */\n        tag_30:\n            /* \"#utility.yul\":863:870   */\n          0x00\n            /* \"#utility.yul\":892:916   */\n          tag_46\n            /* \"#utility.yul\":910:915   */\n          dup3\n            /* \"#utility.yul\":892:916   */\n          tag_29\n          jump\t// in\n        tag_46:\n            /* \"#utility.yul\":881:916   */\n          swap1\n          pop\n            /* \"#utility.yul\":826:922   */\n          swap2\n          swap1\n          pop\n          jump\t// out\n            /* \"#utility.yul\":928:1050   */\n        tag_31:\n            /* \"#utility.yul\":1001:1025   */\n          tag_48\n            /* \"#utility.yul\":1019:1024   */\n          dup2\n            /* \"#utility.yul\":1001:1025   */\n          tag_30\n          jump\t// in\n        tag_48:\n            /* \"#utility.yul\":994:999   */\n          dup2\n            /* \"#utility.yul\":991:1026   */\n          eq\n            /* \"#utility.yul\":981:1044   */\n          tag_49\n          jumpi\n            /* \"#utility.yul\":1040:1041   */\n          0x00\n            /* \"#utility.yul\":1037:1038   */\n          dup1\n            /* \"#utility.yul\":1030:1042   */\n          revert\n            /* \"#utility.yul\":981:1044   */\n        tag_49:\n            /* \"#utility.yul\":928:1050   */\n          pop\n          jump\t// out\n            /* \"#utility.yul\":1056:1199   */\n        tag_32:\n            /* \"#utility.yul\":1113:1118   */\n          0x00\n            /* \"#utility.yul\":1144:1150   */\n          dup2\n            /* \"#utility.yul\":1138:1151   */\n          mload\n            /* \"#utility.yul\":1129:1151   */\n          swap1\n          pop\n            /* \"#utility.yul\":1160:1193   */\n          tag_51\n            /* \"#utility.yul\":1187:1192   */\n          dup2\n            /* \"#utility.yul\":1160:1193   */\n          tag_31\n          jump\t// in\n        tag_51:\n            /* \"#utility.yul\":1056:1199   */\n          swap3\n          swap2\n          pop\n          pop\n          jump\t// out\n            /* \"#utility.yul\":1205:1712   */\n        tag_3:\n            /* \"#utility.yul\":1284:1290   */\n          0x00\n            /* \"#utility.yul\":1292:1298   */\n          dup1\n            /* \"#utility.yul\":1341:1343   */\n          0x40\n            /* \"#utility.yul\":1329:1338   */\n          dup4\n            /* \"#utility.yul\":1320:1327   */\n          dup6\n            /* \"#utility.yul\":1316:1339   */\n          sub\n            /* \"#utility.yul\":1312:1344   */\n          slt\n            /* \"#utility.yul\":1309:1428   */\n          iszero\n          tag_53\n          jumpi\n            /* \"#utility.yul\":1347:1426   */\n          tag_54\n          tag_24\n          jump\t// in\n        tag_54:\n            /* \"#utility.yul\":1309:1428   */\n        tag_53:\n            /* \"#utility.yul\":1467:1468   */\n          0x00\n            /* \"#utility.yul\":1492:1556   */\n          tag_55\n            /* \"#utility.yul\":1548:1555   */\n          dup6\n            /* \"#utility.yul\":1539:1545   */\n          dup3\n            /* \"#utility.yul\":1528:1537   */\n          dup7\n            /* \"#utility.yul\":1524:1546   */\n          add\n            /* \"#utility.yul\":1492:1556   */\n          tag_28\n          jump\t// in\n        tag_55:\n            /* \"#utility.yul\":1482:1556   */\n          swap3\n          pop\n            /* \"#utility.yul\":1438:1566   */\n          pop\n            /* \"#utility.yul\":1605:1607   */\n          0x20\n            /* \"#utility.yul\":1631:1695   */\n          tag_56\n            /* \"#utility.yul\":1687:1694   */\n          dup6\n            /* \"#utility.yul\":1678:1684   */\n          dup3\n            /* \"#utility.yul\":1667:1676   */\n          dup7\n            /* \"#utility.yul\":1663:1685   */\n          add\n            /* \"#utility.yul\":1631:1695   */\n          tag_32\n          jump\t// in\n        tag_56:\n            /* \"#utility.yul\":1621:1695   */\n          swap2\n          pop\n            /* \"#utility.yul\":1576:1705   */\n          pop\n            /* \"#utility.yul\":1205:1712   */\n          swap3\n          pop\n          swap3\n          swap1\n          pop\n          jump\t// out\n            /* \"#utility.yul\":1718:1836   */\n        tag_33:\n            /* \"#utility.yul\":1805:1829   */\n          tag_58\n            /* \"#utility.yul\":1823:1828   */\n          dup2\n            /* \"#utility.yul\":1805:1829   */\n          tag_30\n          jump\t// in\n        tag_58:\n            /* \"#utility.yul\":1800:1803   */\n          dup3\n            /* \"#utility.yul\":1793:1830   */\n          mstore\n            /* \"#utility.yul\":1718:1836   */\n          pop\n          pop\n          jump\t// out\n            /* \"#utility.yul\":1842:2064   */\n        tag_9:\n            /* \"#utility.yul\":1935:1939   */\n          0x00\n            /* \"#utility.yul\":1973:1975   */\n          0x20\n            /* \"#utility.yul\":1962:1971   */\n          dup3\n            /* \"#utility.yul\":1958:1976   */\n          add\n            /* \"#utility.yul\":1950:1976   */\n          swap1\n          pop\n            /* \"#utility.yul\":1986:2057   */\n          tag_60\n            /* \"#utility.yul\":2054:2055   */\n          0x00\n            /* \"#utility.yul\":2043:2052   */\n          dup4\n            /* \"#utility.yul\":2039:2056   */\n          add\n            /* \"#utility.yul\":2030:2036   */\n          dup5\n            /* \"#utility.yul\":1986:2057   */\n          tag_33\n          jump\t// in\n        tag_60:\n            /* \"#utility.yul\":1842:2064   */\n          swap3\n          swap2\n          pop\n          pop\n          jump\t// out\n            /* \"Library.sol\":529:3943  contract Library {... */\n        tag_22:\n          dataSize(sub_0)\n          dup1\n          dataOffset(sub_0)\n          0x00\n          codecopy\n          0x00\n          return\n        stop\n\n        sub_0: assembly {\n                /* \"Library.sol\":529:3943  contract Library {... */\n              mstore(0x40, 0x80)\n              jumpi(tag_1, lt(calldatasize, 0x04))\n              shr(0xe0, calldataload(0x00))\n              dup1\n              0x8da5cb5b\n              gt\n              tag_14\n              jumpi\n              dup1\n              0x8da5cb5b\n              eq\n              tag_8\n              jumpi\n              dup1\n              0x90272dff\n              eq\n              tag_9\n              jumpi\n              dup1\n              0xc162d7da\n              eq\n              tag_10\n              jumpi\n              dup1\n              0xca5140c9\n              eq\n              tag_11\n              jumpi\n              dup1\n              0xd2c07e20\n              eq\n              tag_12\n              jumpi\n              dup1\n              0xfe69494b\n              eq\n              tag_13\n              jumpi\n              jump(tag_1)\n            tag_14:\n              dup1\n              0x1973db46\n              eq\n              tag_2\n              jumpi\n              dup1\n              0x1a8c3eec\n              eq\n              tag_3\n              jumpi\n              dup1\n              0x1aa3a008\n              eq\n              tag_4\n              jumpi\n              dup1\n              0x4f83158a\n              eq\n              tag_5\n              jumpi\n              dup1\n              0x687564ae\n              eq\n              tag_6\n              jumpi\n              dup1\n              0x7e490a9e\n              eq\n              tag_7\n              jumpi\n            tag_1:\n              0x00\n              dup1\n              revert\n                /* \"Library.sol\":2361:2756  function createBookToken(uint _bookIndex, uint _period, uint _cost) public userRestricted payable {... */\n            tag_2:\n              tag_15\n              0x04\n              dup1\n              calldatasize\n              sub\n              dup2\n              add\n              swap1\n              tag_16\n              swap2\n              swap1\n              tag_17\n              jump\t// in\n            tag_16:\n              tag_18\n              jump\t// in\n            tag_15:\n              stop\n                /* \"Library.sol\":2822:2984  function allowTokenToContract(uint _tokenId, bool _status) public userRestricted payable {... */\n            tag_3:\n              tag_19\n              0x04\n              dup1\n              calldatasize\n              sub\n              dup2\n              add\n              swap1\n              tag_20\n              swap2\n              swap1\n              tag_21\n              jump\t// in\n            tag_20:\n              tag_22\n              jump\t// in\n            tag_19:\n              stop\n                /* \"Library.sol\":1693:1769  function register() public {... */\n            tag_4:\n              callvalue\n              dup1\n              iszero\n              tag_23\n              jumpi\n              0x00\n              dup1\n              revert\n            tag_23:\n              pop\n              tag_24\n              tag_25\n              jump\t// in\n            tag_24:\n              stop\n                /* \"Library.sol\":578:615  mapping(address => bool) public staff */\n            tag_5:\n              callvalue\n              dup1\n              iszero\n              tag_26\n              jumpi\n              0x00\n              dup1\n              revert\n            tag_26:\n              pop\n              tag_27\n              0x04\n              dup1\n              calldatasize\n              sub\n              dup2\n              add\n              swap1\n              tag_28\n              swap2\n              swap1\n              tag_29\n              jump\t// in\n            tag_28:\n              tag_30\n              jump\t// in\n            tag_27:\n              mload(0x40)\n              tag_31\n              swap2\n              swap1\n              tag_32\n              jump\t// in\n            tag_31:\n              mload(0x40)\n              dup1\n              swap2\n              sub\n              swap1\n              return\n                /* \"Library.sol\":1791:2041  function addBook(string memory _bookId, string memory _title, uint _price, address _authorAddress) public restricted {... */\n            tag_6:\n              callvalue\n              dup1\n              iszero\n              tag_33\n              jumpi\n              0x00\n              dup1\n              revert\n            tag_33:\n              pop\n              tag_34\n              0x04\n              dup1\n              calldatasize\n              sub\n              dup2\n              add\n              swap1\n              tag_35\n              swap2\n              swap1\n              tag_36\n              jump\t// in\n            tag_35:\n              tag_37\n              jump\t// in\n            tag_34:\n              stop\n                /* \"Library.sol\":3009:3499  function borrowBook(uint _tokenId) public userRestricted payable {... */\n            tag_7:\n              tag_38\n              0x04\n              dup1\n              calldatasize\n              sub\n              dup2\n              add\n              swap1\n              tag_39\n              swap2\n              swap1\n              tag_40\n              jump\t// in\n            tag_39:\n              tag_41\n              jump\t// in\n            tag_38:\n              stop\n                /* \"Library.sol\":552:572  address public owner */\n            tag_8:\n              callvalue\n              dup1\n              iszero\n              tag_42\n              jumpi\n              0x00\n              dup1\n              revert\n            tag_42:\n              pop\n              tag_43\n              tag_44\n              jump\t// in\n            tag_43:\n              mload(0x40)\n              tag_45\n              swap2\n              swap1\n              tag_46\n              jump\t// in\n            tag_45:\n              mload(0x40)\n              dup1\n              swap2\n              sub\n              swap1\n              return\n                /* \"Library.sol\":766:790  uint public maxBorrowing */\n            tag_9:\n              callvalue\n              dup1\n              iszero\n              tag_47\n              jumpi\n              0x00\n              dup1\n              revert\n            tag_47:\n              pop\n              tag_48\n              tag_49\n              jump\t// in\n            tag_48:\n              mload(0x40)\n              tag_50\n              swap2\n              swap1\n              tag_51\n              jump\t// in\n            tag_50:\n              mload(0x40)\n              dup1\n              swap2\n              sub\n              swap1\n              return\n                /* \"Library.sol\":3824:3941  function getManagerAddress() external restricted view returns(address[] memory){... */\n            tag_10:\n              callvalue\n              dup1\n              iszero\n              tag_52\n              jumpi\n              0x00\n              dup1\n              revert\n            tag_52:\n              pop\n              tag_53\n              tag_54\n              jump\t// in\n            tag_53:\n              mload(0x40)\n              tag_55\n              swap2\n              swap1\n              tag_56\n              jump\t// in\n            tag_55:\n              mload(0x40)\n              dup1\n              swap2\n              sub\n              swap1\n              return\n                /* \"Library.sol\":3524:3786  function returnBook(uint _tokenId) public userRestricted {... */\n            tag_11:\n              callvalue\n              dup1\n              iszero\n              tag_57\n              jumpi\n              0x00\n              dup1\n              revert\n            tag_57:\n              pop\n              tag_58\n              0x04\n              dup1\n              calldatasize\n              sub\n              dup2\n              add\n              swap1\n              tag_59\n              swap2\n              swap1\n              tag_40\n              jump\t// in\n            tag_59:\n              tag_60\n              jump\t// in\n            tag_58:\n              stop\n                /* \"Library.sol\":2066:2329  function modifyBook( uint _index, string memory _bookId, string memory _title, uint _price, address _authorAddress)... */\n            tag_12:\n              callvalue\n              dup1\n              iszero\n              tag_61\n              jumpi\n              0x00\n              dup1\n              revert\n            tag_61:\n              pop\n              tag_62\n              0x04\n              dup1\n              calldatasize\n              sub\n              dup2\n              add\n              swap1\n              tag_63\n              swap2\n              swap1\n              tag_64\n              jump\t// in\n            tag_63:\n              tag_65\n              jump\t// in\n            tag_62:\n              stop\n                /* \"Library.sol\":1561:1666  function inviteStaff(address _staffAddress) public restricted{... */\n            tag_13:\n              callvalue\n              dup1\n              iszero\n              tag_66\n              jumpi\n              0x00\n              dup1\n              revert\n            tag_66:\n              pop\n              tag_67\n              0x04\n              dup1\n              calldatasize\n              sub\n              dup2\n              add\n              swap1\n              tag_68\n              swap2\n              swap1\n              tag_29\n              jump\t// in\n            tag_68:\n              tag_69\n              jump\t// in\n            tag_67:\n              stop\n                /* \"Library.sol\":2361:2756  function createBookToken(uint _bookIndex, uint _period, uint _cost) public userRestricted payable {... */\n            tag_18:\n                /* \"Library.sol\":924:935  userManager */\n              0x03\n              0x00\n              swap1\n              sload\n              swap1\n              0x0100\n              exp\n              swap1\n              div\n              0xffffffffffffffffffffffffffffffffffffffff\n              and\n                /* \"Library.sol\":924:950  userManager.getIsValidUser */\n              0xffffffffffffffffffffffffffffffffffffffff\n              and\n              0xecded204\n                /* \"Library.sol\":951:961  msg.sender */\n              caller\n                /* \"Library.sol\":924:962  userManager.getIsValidUser(msg.sender) */\n              mload(0x40)\n              dup3\n              0xffffffff\n              and\n              0xe0\n              shl\n              dup2\n              mstore\n              0x04\n              add\n              tag_71\n              swap2\n              swap1\n              tag_46\n              jump\t// in\n            tag_71:\n              0x20\n              mload(0x40)\n              dup1\n              dup4\n              sub\n              dup2\n              dup7\n              gas\n              staticcall\n              iszero\n              dup1\n              iszero\n              tag_73\n              jumpi\n              returndatasize\n              0x00\n              dup1\n              returndatacopy\n              revert(0x00, returndatasize)\n            tag_73:\n              pop\n              pop\n              pop\n              pop\n              mload(0x40)\n              returndatasize\n              not(0x1f)\n              0x1f\n              dup3\n              add\n              and\n              dup3\n              add\n              dup1\n              0x40\n              mstore\n              pop\n              dup2\n              add\n              swap1\n              tag_74\n              swap2\n              swap1\n              tag_75\n              jump\t// in\n            tag_74:\n                /* \"Library.sol\":916:963  require(userManager.getIsValidUser(msg.sender)) */\n              tag_76\n              jumpi\n              0x00\n              dup1\n              revert\n            tag_76:\n                /* \"Library.sol\":2469:2479  uint price */\n              0x00\n                /* \"Library.sol\":2482:2493  bookManager */\n              0x02\n              0x00\n              swap1\n              sload\n              swap1\n              0x0100\n              exp\n              swap1\n              div\n              0xffffffffffffffffffffffffffffffffffffffff\n              and\n                /* \"Library.sol\":2482:2506  bookManager.getBookPrice */\n              0xffffffffffffffffffffffffffffffffffffffff\n              and\n              0x6c230eef\n                /* \"Library.sol\":2507:2517  _bookIndex */\n              dup6\n                /* \"Library.sol\":2482:2518  bookManager.getBookPrice(_bookIndex) */\n              mload(0x40)\n              dup3\n              0xffffffff\n              and\n              0xe0\n              shl\n              dup2\n              mstore\n              0x04\n              add\n              tag_78\n              swap2\n              swap1\n              tag_51\n              jump\t// in\n            tag_78:\n              0x20\n              mload(0x40)\n              dup1\n              dup4\n              sub\n              dup2\n              dup7\n              gas\n              staticcall\n              iszero\n              dup1\n              iszero\n              tag_80\n              jumpi\n              returndatasize\n              0x00\n              dup1\n              returndatacopy\n              revert(0x00, returndatasize)\n            tag_80:\n              pop\n              pop\n              pop\n              pop\n              mload(0x40)\n              returndatasize\n              not(0x1f)\n              0x1f\n              dup3\n              add\n              and\n              dup3\n              add\n              dup1\n              0x40\n              mstore\n              pop\n              dup2\n              add\n              swap1\n              tag_81\n              swap2\n              swap1\n              tag_82\n              jump\t// in\n            tag_81:\n                /* \"Library.sol\":2469:2518  uint price = bookManager.getBookPrice(_bookIndex) */\n              swap1\n              pop\n                /* \"Library.sol\":2545:2554  msg.value */\n              callvalue\n                /* \"Library.sol\":2536:2541  price */\n              dup2\n                /* \"Library.sol\":2536:2554  price == msg.value */\n              eq\n                /* \"Library.sol\":2528:2555  require(price == msg.value) */\n              tag_83\n              jumpi\n              0x00\n              dup1\n              revert\n            tag_83:\n                /* \"Library.sol\":2565:2577  uint tokenId */\n              0x00\n                /* \"Library.sol\":2580:2592  tokenManager */\n              0x04\n              0x00\n              swap1\n              sload\n              swap1\n              0x0100\n              exp\n              swap1\n              div\n              0xffffffffffffffffffffffffffffffffffffffff\n              and\n                /* \"Library.sol\":2580:2608  tokenManager.createBookToken */\n              0xffffffffffffffffffffffffffffffffffffffff\n              and\n              0xa46d8ac7\n                /* \"Library.sol\":2609:2619  msg.sender */\n              caller\n                /* \"Library.sol\":2621:2631  _bookIndex */\n              dup8\n                /* \"Library.sol\":2633:2640  _period */\n              dup8\n                /* \"Library.sol\":2642:2647  _cost */\n              dup8\n                /* \"Library.sol\":2580:2648  tokenManager.createBookToken(msg.sender, _bookIndex, _period, _cost) */\n              mload(0x40)\n              dup6\n              0xffffffff\n              and\n              0xe0\n              shl\n              dup2\n              mstore\n              0x04\n              add\n              tag_84\n              swap5\n              swap4\n              swap3\n              swap2\n              swap1\n              tag_85\n              jump\t// in\n            tag_84:\n              0x20\n              mload(0x40)\n              dup1\n              dup4\n              sub\n              dup2\n              0x00\n              dup8\n              gas\n              call\n              iszero\n              dup1\n              iszero\n              tag_87\n              jumpi\n              returndatasize\n              0x00\n              dup1\n              returndatacopy\n              revert(0x00, returndatasize)\n            tag_87:\n              pop\n              pop\n              pop\n              pop\n              mload(0x40)\n              returndatasize\n              not(0x1f)\n              0x1f\n              dup3\n              add\n              and\n              dup3\n              add\n              dup1\n              0x40\n              mstore\n              pop\n              dup2\n              add\n              swap1\n              tag_88\n              swap2\n              swap1\n              tag_82\n              jump\t// in\n            tag_88:\n                /* \"Library.sol\":2565:2648  uint tokenId = tokenManager.createBookToken(msg.sender, _bookIndex, _period, _cost) */\n              swap1\n              pop\n                /* \"Library.sol\":2658:2669  userManager */\n              0x03\n              0x00\n              swap1\n              sload\n              swap1\n              0x0100\n              exp\n              swap1\n              div\n              0xffffffffffffffffffffffffffffffffffffffff\n              and\n                /* \"Library.sol\":2658:2679  userManager.purchased */\n              0xffffffffffffffffffffffffffffffffffffffff\n              and\n              0xe597ef12\n                /* \"Library.sol\":2680:2690  msg.sender */\n              caller\n                /* \"Library.sol\":2692:2699  tokenId */\n              dup4\n                /* \"Library.sol\":2658:2700  userManager.purchased(msg.sender, tokenId) */\n              mload(0x40)\n              dup4\n              0xffffffff\n              and\n              0xe0\n              shl\n              dup2\n              mstore\n              0x04\n              add\n              tag_89\n              swap3\n              swap2\n              swap1\n              tag_90\n              jump\t// in\n            tag_89:\n              0x00\n              mload(0x40)\n              dup1\n              dup4\n              sub\n              dup2\n              0x00\n              dup8\n              dup1\n              extcodesize\n              iszero\n              dup1\n              iszero\n              tag_91\n              jumpi\n              0x00\n              dup1\n              revert\n            tag_91:\n              pop\n              gas\n              call\n              iszero\n              dup1\n              iszero\n              tag_93\n              jumpi\n              returndatasize\n              0x00\n              dup1\n              returndatacopy\n              revert(0x00, returndatasize)\n            tag_93:\n              pop\n              pop\n              pop\n              pop\n                /* \"Library.sol\":2710:2721  bookManager */\n              0x02\n              0x00\n              swap1\n              sload\n              swap1\n              0x0100\n              exp\n              swap1\n              div\n              0xffffffffffffffffffffffffffffffffffffffff\n              and\n                /* \"Library.sol\":2710:2734  bookManager.tokenCreated */\n              0xffffffffffffffffffffffffffffffffffffffff\n              and\n              0x0a6b2a25\n                /* \"Library.sol\":2735:2745  _bookIndex */\n              dup7\n                /* \"Library.sol\":2710:2746  bookManager.tokenCreated(_bookIndex) */\n              mload(0x40)\n              dup3\n              0xffffffff\n              and\n              0xe0\n              shl\n              dup2\n              mstore\n              0x04\n              add\n              tag_94\n              swap2\n              swap1\n              tag_51\n              jump\t// in\n            tag_94:\n              0x00\n              mload(0x40)\n              dup1\n              dup4\n              sub\n              dup2\n              0x00\n              dup8\n              dup1\n              extcodesize\n              iszero\n              dup1\n              iszero\n              tag_95\n              jumpi\n              0x00\n              dup1\n              revert\n            tag_95:\n              pop\n              gas\n              call\n              iszero\n              dup1\n              iszero\n              tag_97\n              jumpi\n              returndatasize\n              0x00\n              dup1\n              returndatacopy\n              revert(0x00, returndatasize)\n            tag_97:\n              pop\n              pop\n              pop\n              pop\n                /* \"Library.sol\":2459:2756  {... */\n              pop\n              pop\n                /* \"Library.sol\":2361:2756  function createBookToken(uint _bookIndex, uint _period, uint _cost) public userRestricted payable {... */\n              pop\n              pop\n              pop\n              jump\t// out\n                /* \"Library.sol\":2822:2984  function allowTokenToContract(uint _tokenId, bool _status) public userRestricted payable {... */\n            tag_22:\n                /* \"Library.sol\":924:935  userManager */\n              0x03\n              0x00\n              swap1\n              sload\n              swap1\n              0x0100\n              exp\n              swap1\n              div\n              0xffffffffffffffffffffffffffffffffffffffff\n              and\n                /* \"Library.sol\":924:950  userManager.getIsValidUser */\n              0xffffffffffffffffffffffffffffffffffffffff\n              and\n              0xecded204\n                /* \"Library.sol\":951:961  msg.sender */\n              caller\n                /* \"Library.sol\":924:962  userManager.getIsValidUser(msg.sender) */\n              mload(0x40)\n              dup3\n              0xffffffff\n              and\n              0xe0\n              shl\n              dup2\n              mstore\n              0x04\n              add\n              tag_99\n              swap2\n              swap1\n              tag_46\n              jump\t// in\n            tag_99:\n              0x20\n              mload(0x40)\n              dup1\n              dup4\n              sub\n              dup2\n              dup7\n              gas\n              staticcall\n              iszero\n              dup1\n              iszero\n              tag_101\n              jumpi\n              returndatasize\n              0x00\n              dup1\n              returndatacopy\n              revert(0x00, returndatasize)\n            tag_101:\n              pop\n              pop\n              pop\n              pop\n              mload(0x40)\n              returndatasize\n              not(0x1f)\n              0x1f\n              dup3\n              add\n              and\n              dup3\n              add\n              dup1\n              0x40\n              mstore\n              pop\n              dup2\n              add\n              swap1\n              tag_102\n              swap2\n              swap1\n              tag_75\n              jump\t// in\n            tag_102:\n                /* \"Library.sol\":916:963  require(userManager.getIsValidUser(msg.sender)) */\n              tag_103\n              jumpi\n              0x00\n              dup1\n              revert\n            tag_103:\n                /* \"Library.sol\":2921:2933  tokenManager */\n              0x04\n              0x00\n              swap1\n              sload\n              swap1\n              0x0100\n              exp\n              swap1\n              div\n              0xffffffffffffffffffffffffffffffffffffffff\n              and\n                /* \"Library.sol\":2921:2958  tokenManager.changeAllowabilityStatus */\n              0xffffffffffffffffffffffffffffffffffffffff\n              and\n              0xef228c92\n                /* \"Library.sol\":2959:2967  _tokenId */\n              dup4\n                /* \"Library.sol\":2969:2976  _status */\n              dup4\n                /* \"Library.sol\":2921:2977  tokenManager.changeAllowabilityStatus(_tokenId, _status) */\n              mload(0x40)\n              dup4\n              0xffffffff\n              and\n              0xe0\n              shl\n              dup2\n              mstore\n              0x04\n              add\n              tag_105\n              swap3\n              swap2\n              swap1\n              tag_106\n              jump\t// in\n            tag_105:\n              0x00\n              mload(0x40)\n              dup1\n              dup4\n              sub\n              dup2\n              0x00\n              dup8\n              dup1\n              extcodesize\n              iszero\n              dup1\n              iszero\n              tag_107\n              jumpi\n              0x00\n              dup1\n              revert\n            tag_107:\n              pop\n              gas\n              call\n              iszero\n              dup1\n              iszero\n              tag_109\n              jumpi\n              returndatasize\n              0x00\n              dup1\n              returndatacopy\n              revert(0x00, returndatasize)\n            tag_109:\n              pop\n              pop\n              pop\n              pop\n                /* \"Library.sol\":2822:2984  function allowTokenToContract(uint _tokenId, bool _status) public userRestricted payable {... */\n              pop\n              pop\n              jump\t// out\n                /* \"Library.sol\":1693:1769  function register() public {... */\n            tag_25:\n                /* \"Library.sol\":1730:1741  userManager */\n              0x03\n              0x00\n              swap1\n              sload\n              swap1\n              0x0100\n              exp\n              swap1\n              div\n              0xffffffffffffffffffffffffffffffffffffffff\n              and\n                /* \"Library.sol\":1730:1750  userManager.register */\n              0xffffffffffffffffffffffffffffffffffffffff\n              and\n              0x4420e486\n                /* \"Library.sol\":1751:1761  msg.sender */\n              caller\n                /* \"Library.sol\":1730:1762  userManager.register(msg.sender) */\n              mload(0x40)\n              dup3\n              0xffffffff\n              and\n              0xe0\n              shl\n              dup2\n              mstore\n              0x04\n              add\n              tag_111\n              swap2\n              swap1\n              tag_46\n              jump\t// in\n            tag_111:\n              0x00\n              mload(0x40)\n              dup1\n              dup4\n              sub\n              dup2\n              0x00\n              dup8\n              dup1\n              extcodesize\n              iszero\n              dup1\n              iszero\n              tag_112\n              jumpi\n              0x00\n              dup1\n              revert\n            tag_112:\n              pop\n              gas\n              call\n              iszero\n              dup1\n              iszero\n              tag_114\n              jumpi\n              returndatasize\n              0x00\n              dup1\n              returndatacopy\n              revert(0x00, returndatasize)\n            tag_114:\n              pop\n              pop\n              pop\n              pop\n                /* \"Library.sol\":1693:1769  function register() public {... */\n              jump\t// out\n                /* \"Library.sol\":578:615  mapping(address => bool) public staff */\n            tag_30:\n              mstore(0x20, 0x01)\n              dup1\n              0x00\n              mstore\n              keccak256(0x00, 0x40)\n              0x00\n              swap2\n              pop\n              sload\n              swap1\n              0x0100\n              exp\n              swap1\n              div\n              0xff\n              and\n              dup2\n              jump\t// out\n                /* \"Library.sol\":1791:2041  function addBook(string memory _bookId, string memory _title, uint _price, address _authorAddress) public restricted {... */\n            tag_37:\n                /* \"Library.sol\":846:856  msg.sender */\n              caller\n                /* \"Library.sol\":837:856  owner == msg.sender */\n              0xffffffffffffffffffffffffffffffffffffffff\n              and\n                /* \"Library.sol\":837:842  owner */\n              0x00\n              dup1\n              sload\n              swap1\n              0x0100\n              exp\n              swap1\n              div\n              0xffffffffffffffffffffffffffffffffffffffff\n              and\n                /* \"Library.sol\":837:856  owner == msg.sender */\n              0xffffffffffffffffffffffffffffffffffffffff\n              and\n              eq\n                /* \"Library.sol\":829:857  require(owner == msg.sender) */\n              tag_116\n              jumpi\n              0x00\n              dup1\n              revert\n            tag_116:\n                /* \"Library.sol\":1927:1938  bookManager */\n              0x02\n              0x00\n              swap1\n              sload\n              swap1\n              0x0100\n              exp\n              swap1\n              div\n              0xffffffffffffffffffffffffffffffffffffffff\n              and\n                /* \"Library.sol\":1927:1954  bookManager.getIsStoredBook */\n              0xffffffffffffffffffffffffffffffffffffffff\n              and\n              0xe71448a9\n                /* \"Library.sol\":1955:1962  _bookId */\n              dup6\n                /* \"Library.sol\":1927:1963  bookManager.getIsStoredBook(_bookId) */\n              mload(0x40)\n              dup3\n              0xffffffff\n              and\n              0xe0\n              shl\n              dup2\n              mstore\n              0x04\n              add\n              tag_118\n              swap2\n              swap1\n              tag_119\n              jump\t// in\n            tag_118:\n              0x20\n              mload(0x40)\n              dup1\n              dup4\n              sub\n              dup2\n              dup7\n              gas\n              staticcall\n              iszero\n              dup1\n              iszero\n              tag_121\n              jumpi\n              returndatasize\n              0x00\n              dup1\n              returndatacopy\n              revert(0x00, returndatasize)\n            tag_121:\n              pop\n              pop\n              pop\n              pop\n              mload(0x40)\n              returndatasize\n              not(0x1f)\n              0x1f\n              dup3\n              add\n              and\n              dup3\n              add\n              dup1\n              0x40\n              mstore\n              pop\n              dup2\n              add\n              swap1\n              tag_122\n              swap2\n              swap1\n              tag_75\n              jump\t// in\n            tag_122:\n                /* \"Library.sol\":1926:1963  !bookManager.getIsStoredBook(_bookId) */\n              iszero\n                /* \"Library.sol\":1918:1964  require(!bookManager.getIsStoredBook(_bookId)) */\n              tag_123\n              jumpi\n              0x00\n              dup1\n              revert\n            tag_123:\n                /* \"Library.sol\":1974:1985  bookManager */\n              0x02\n              0x00\n              swap1\n              sload\n              swap1\n              0x0100\n              exp\n              swap1\n              div\n              0xffffffffffffffffffffffffffffffffffffffff\n              and\n                /* \"Library.sol\":1974:1993  bookManager.addBook */\n              0xffffffffffffffffffffffffffffffffffffffff\n              and\n              0x687564ae\n                /* \"Library.sol\":1994:2001  _bookId */\n              dup6\n                /* \"Library.sol\":2003:2009  _title */\n              dup6\n                /* \"Library.sol\":2011:2017  _price */\n              dup6\n                /* \"Library.sol\":2019:2033  _authorAddress */\n              dup6\n                /* \"Library.sol\":1974:2034  bookManager.addBook(_bookId, _title, _price, _authorAddress) */\n              mload(0x40)\n              dup6\n              0xffffffff\n              and\n              0xe0\n              shl\n              dup2\n              mstore\n              0x04\n              add\n              tag_124\n              swap5\n              swap4\n              swap3\n              swap2\n              swap1\n              tag_125\n              jump\t// in\n            tag_124:\n              0x00\n              mload(0x40)\n              dup1\n              dup4\n              sub\n              dup2\n              0x00\n              dup8\n              dup1\n              extcodesize\n              iszero\n              dup1\n              iszero\n              tag_126\n              jumpi\n              0x00\n              dup1\n              revert\n            tag_126:\n              pop\n              gas\n              call\n              iszero\n              dup1\n              iszero\n              tag_128\n              jumpi\n              returndatasize\n              0x00\n              dup1\n              returndatacopy\n              revert(0x00, returndatasize)\n            tag_128:\n              pop\n              pop\n              pop\n              pop\n                /* \"Library.sol\":1791:2041  function addBook(string memory _bookId, string memory _title, uint _price, address _authorAddress) public restricted {... */\n              pop\n              pop\n              pop\n              pop\n              jump\t// out\n                /* \"Library.sol\":3009:3499  function borrowBook(uint _tokenId) public userRestricted payable {... */\n            tag_41:\n                /* \"Library.sol\":924:935  userManager */\n              0x03\n              0x00\n              swap1\n              sload\n              swap1\n              0x0100\n              exp\n              swap1\n              div\n              0xffffffffffffffffffffffffffffffffffffffff\n              and\n                /* \"Library.sol\":924:950  userManager.getIsValidUser */\n              0xffffffffffffffffffffffffffffffffffffffff\n              and\n              0xecded204\n                /* \"Library.sol\":951:961  msg.sender */\n              caller\n                /* \"Library.sol\":924:962  userManager.getIsValidUser(msg.sender) */\n              mload(0x40)\n              dup3\n              0xffffffff\n              and\n              0xe0\n              shl\n              dup2\n              mstore\n              0x04\n              add\n              tag_130\n              swap2\n              swap1\n              tag_46\n              jump\t// in\n            tag_130:\n              0x20\n              mload(0x40)\n              dup1\n              dup4\n              sub\n              dup2\n              dup7\n              gas\n              staticcall\n              iszero\n              dup1\n              iszero\n              tag_132\n              jumpi\n              returndatasize\n              0x00\n              dup1\n              returndatacopy\n              revert(0x00, returndatasize)\n            tag_132:\n              pop\n              pop\n              pop\n              pop\n              mload(0x40)\n              returndatasize\n              not(0x1f)\n              0x1f\n              dup3\n              add\n              and\n              dup3\n              add\n              dup1\n              0x40\n              mstore\n              pop\n              dup2\n              add\n              swap1\n              tag_133\n              swap2\n              swap1\n              tag_75\n              jump\t// in\n            tag_133:\n                /* \"Library.sol\":916:963  require(userManager.getIsValidUser(msg.sender)) */\n              tag_134\n              jumpi\n              0x00\n              dup1\n              revert\n            tag_134:\n                /* \"Library.sol\":3084:3093  uint cost */\n              0x00\n                /* \"Library.sol\":3096:3108  tokenManager */\n              0x04\n              0x00\n              swap1\n              sload\n              swap1\n              0x0100\n              exp\n              swap1\n              div\n              0xffffffffffffffffffffffffffffffffffffffff\n              and\n                /* \"Library.sol\":3096:3121  tokenManager.getTokenCost */\n              0xffffffffffffffffffffffffffffffffffffffff\n              and\n              0x1ce06944\n                /* \"Library.sol\":3122:3130  _tokenId */\n              dup4\n                /* \"Library.sol\":3096:3131  tokenManager.getTokenCost(_tokenId) */\n              mload(0x40)\n              dup3\n              0xffffffff\n              and\n              0xe0\n              shl\n              dup2\n              mstore\n              0x04\n              add\n              tag_136\n              swap2\n              swap1\n              tag_51\n              jump\t// in\n            tag_136:\n              0x20\n              mload(0x40)\n              dup1\n              dup4\n              sub\n              dup2\n              dup7\n              gas\n              staticcall\n              iszero\n              dup1\n              iszero\n              tag_138\n              jumpi\n              returndatasize\n              0x00\n              dup1\n              returndatacopy\n              revert(0x00, returndatasize)\n            tag_138:\n              pop\n              pop\n              pop\n              pop\n              mload(0x40)\n              returndatasize\n              not(0x1f)\n              0x1f\n              dup3\n              add\n              and\n              dup3\n              add\n              dup1\n              0x40\n              mstore\n              pop\n              dup2\n              add\n              swap1\n              tag_139\n              swap2\n              swap1\n              tag_82\n              jump\t// in\n            tag_139:\n                /* \"Library.sol\":3084:3131  uint cost = tokenManager.getTokenCost(_tokenId) */\n              swap1\n              pop\n                /* \"Library.sol\":3141:3158  bool tokenIsAllow */\n              0x00\n                /* \"Library.sol\":3161:3173  tokenManager */\n              0x04\n              0x00\n              swap1\n              sload\n              swap1\n              0x0100\n              exp\n              swap1\n              div\n              0xffffffffffffffffffffffffffffffffffffffff\n              and\n                /* \"Library.sol\":3161:3191  tokenManager.getTokenIsAllowed */\n              0xffffffffffffffffffffffffffffffffffffffff\n              and\n              0x98af1f07\n                /* \"Library.sol\":3192:3200  _tokenId */\n              dup5\n                /* \"Library.sol\":3161:3201  tokenManager.getTokenIsAllowed(_tokenId) */\n              mload(0x40)\n              dup3\n              0xffffffff\n              and\n              0xe0\n              shl\n              dup2\n              mstore\n              0x04\n              add\n              tag_140\n              swap2\n              swap1\n              tag_51\n              jump\t// in\n            tag_140:\n              0x20\n              mload(0x40)\n              dup1\n              dup4\n              sub\n              dup2\n              dup7\n              gas\n              staticcall\n              iszero\n              dup1\n              iszero\n              tag_142\n              jumpi\n              returndatasize\n              0x00\n              dup1\n              returndatacopy\n              revert(0x00, returndatasize)\n            tag_142:\n              pop\n              pop\n              pop\n              pop\n              mload(0x40)\n              returndatasize\n              not(0x1f)\n              0x1f\n              dup3\n              add\n              and\n              dup3\n              add\n              dup1\n              0x40\n              mstore\n              pop\n              dup2\n              add\n              swap1\n              tag_143\n              swap2\n              swap1\n              tag_75\n              jump\t// in\n            tag_143:\n                /* \"Library.sol\":3141:3201  bool tokenIsAllow = tokenManager.getTokenIsAllowed(_tokenId) */\n              swap1\n              pop\n                /* \"Library.sol\":3211:3228  uint numBorrowing */\n              0x00\n                /* \"Library.sol\":3231:3242  userManager */\n              0x03\n              0x00\n              swap1\n              sload\n              swap1\n              0x0100\n              exp\n              swap1\n              div\n              0xffffffffffffffffffffffffffffffffffffffff\n              and\n                /* \"Library.sol\":3231:3258  userManager.getNumBorrowing */\n              0xffffffffffffffffffffffffffffffffffffffff\n              and\n              0x19aa98a3\n                /* \"Library.sol\":3259:3269  msg.sender */\n              caller\n                /* \"Library.sol\":3231:3270  userManager.getNumBorrowing(msg.sender) */\n              mload(0x40)\n              dup3\n              0xffffffff\n              and\n              0xe0\n              shl\n              dup2\n              mstore\n              0x04\n              add\n              tag_144\n              swap2\n              swap1\n              tag_46\n              jump\t// in\n            tag_144:\n              0x20\n              mload(0x40)\n              dup1\n              dup4\n              sub\n              dup2\n              dup7\n              gas\n              staticcall\n              iszero\n              dup1\n              iszero\n              tag_146\n              jumpi\n              returndatasize\n              0x00\n              dup1\n              returndatacopy\n              revert(0x00, returndatasize)\n            tag_146:\n              pop\n              pop\n              pop\n              pop\n              mload(0x40)\n              returndatasize\n              not(0x1f)\n              0x1f\n              dup3\n              add\n              and\n              dup3\n              add\n              dup1\n              0x40\n              mstore\n              pop\n              dup2\n              add\n              swap1\n              tag_147\n              swap2\n              swap1\n              tag_82\n              jump\t// in\n            tag_147:\n                /* \"Library.sol\":3211:3270  uint numBorrowing = userManager.getNumBorrowing(msg.sender) */\n              swap1\n              pop\n                /* \"Library.sol\":3288:3300  tokenIsAllow */\n              dup2\n                /* \"Library.sol\":3280:3301  require(tokenIsAllow) */\n              tag_148\n              jumpi\n              0x00\n              dup1\n              revert\n            tag_148:\n                /* \"Library.sol\":3334:3346  maxBorrowing */\n              sload(0x06)\n                /* \"Library.sol\":3319:3331  numBorrowing */\n              dup2\n                /* \"Library.sol\":3319:3346  numBorrowing < maxBorrowing */\n              lt\n                /* \"Library.sol\":3311:3347  require(numBorrowing < maxBorrowing) */\n              tag_149\n              jumpi\n              0x00\n              dup1\n              revert\n            tag_149:\n                /* \"Library.sol\":3373:3382  msg.value */\n              callvalue\n                /* \"Library.sol\":3365:3369  cost */\n              dup4\n                /* \"Library.sol\":3365:3382  cost == msg.value */\n              eq\n                /* \"Library.sol\":3357:3383  require(cost == msg.value) */\n              tag_150\n              jumpi\n              0x00\n              dup1\n              revert\n            tag_150:\n                /* \"Library.sol\":3393:3405  tokenManager */\n              0x04\n              0x00\n              swap1\n              sload\n              swap1\n              0x0100\n              exp\n              swap1\n              div\n              0xffffffffffffffffffffffffffffffffffffffff\n              and\n                /* \"Library.sol\":3393:3418  tokenManager.changeReader */\n              0xffffffffffffffffffffffffffffffffffffffff\n              and\n              0xab21a2be\n                /* \"Library.sol\":3419:3427  _tokenId */\n              dup6\n                /* \"Library.sol\":3429:3439  msg.sender */\n              caller\n                /* \"Library.sol\":3393:3440  tokenManager.changeReader(_tokenId, msg.sender) */\n              mload(0x40)\n              dup4\n              0xffffffff\n              and\n              0xe0\n              shl\n              dup2\n              mstore\n              0x04\n              add\n              tag_151\n              swap3\n              swap2\n              swap1\n              tag_152\n              jump\t// in\n            tag_151:\n              0x00\n              mload(0x40)\n              dup1\n              dup4\n              sub\n              dup2\n              0x00\n              dup8\n              dup1\n              extcodesize\n              iszero\n              dup1\n              iszero\n              tag_153\n              jumpi\n              0x00\n              dup1\n              revert\n            tag_153:\n              pop\n              gas\n              call\n              iszero\n              dup1\n              iszero\n              tag_155\n              jumpi\n              returndatasize\n              0x00\n              dup1\n              returndatacopy\n              revert(0x00, returndatasize)\n            tag_155:\n              pop\n              pop\n              pop\n              pop\n                /* \"Library.sol\":3450:3461  userManager */\n              0x03\n              0x00\n              swap1\n              sload\n              swap1\n              0x0100\n              exp\n              swap1\n              div\n              0xffffffffffffffffffffffffffffffffffffffff\n              and\n                /* \"Library.sol\":3450:3470  userManager.borrowed */\n              0xffffffffffffffffffffffffffffffffffffffff\n              and\n              0xa5a9c518\n                /* \"Library.sol\":3471:3481  msg.sender */\n              caller\n                /* \"Library.sol\":3483:3491  _tokenId */\n              dup7\n                /* \"Library.sol\":3450:3492  userManager.borrowed(msg.sender, _tokenId) */\n              mload(0x40)\n              dup4\n              0xffffffff\n              and\n              0xe0\n              shl\n              dup2\n              mstore\n              0x04\n              add\n              tag_156\n              swap3\n              swap2\n              swap1\n              tag_90\n              jump\t// in\n            tag_156:\n              0x00\n              mload(0x40)\n              dup1\n              dup4\n              sub\n              dup2\n              0x00\n              dup8\n              dup1\n              extcodesize\n              iszero\n              dup1\n              iszero\n              tag_157\n              jumpi\n              0x00\n              dup1\n              revert\n            tag_157:\n              pop\n              gas\n              call\n              iszero\n              dup1\n              iszero\n              tag_159\n              jumpi\n              returndatasize\n              0x00\n              dup1\n              returndatacopy\n              revert(0x00, returndatasize)\n            tag_159:\n              pop\n              pop\n              pop\n              pop\n                /* \"Library.sol\":3074:3499  {... */\n              pop\n              pop\n              pop\n                /* \"Library.sol\":3009:3499  function borrowBook(uint _tokenId) public userRestricted payable {... */\n              pop\n              jump\t// out\n                /* \"Library.sol\":552:572  address public owner */\n            tag_44:\n              0x00\n              dup1\n              sload\n              swap1\n              0x0100\n              exp\n              swap1\n              div\n              0xffffffffffffffffffffffffffffffffffffffff\n              and\n              dup2\n              jump\t// out\n                /* \"Library.sol\":766:790  uint public maxBorrowing */\n            tag_49:\n              sload(0x06)\n              dup2\n              jump\t// out\n                /* \"Library.sol\":3824:3941  function getManagerAddress() external restricted view returns(address[] memory){... */\n            tag_54:\n                /* \"Library.sol\":3886:3902  address[] memory */\n              0x60\n                /* \"Library.sol\":846:856  msg.sender */\n              caller\n                /* \"Library.sol\":837:856  owner == msg.sender */\n              0xffffffffffffffffffffffffffffffffffffffff\n              and\n                /* \"Library.sol\":837:842  owner */\n              0x00\n              dup1\n              sload\n              swap1\n              0x0100\n              exp\n              swap1\n              div\n              0xffffffffffffffffffffffffffffffffffffffff\n              and\n                /* \"Library.sol\":837:856  owner == msg.sender */\n              0xffffffffffffffffffffffffffffffffffffffff\n              and\n              eq\n                /* \"Library.sol\":829:857  require(owner == msg.sender) */\n              tag_161\n              jumpi\n              0x00\n              dup1\n              revert\n            tag_161:\n                /* \"Library.sol\":3920:3934  managerAddress */\n              0x05\n                /* \"Library.sol\":3913:3934  return managerAddress */\n              dup1\n              sload\n              dup1\n              0x20\n              mul\n              0x20\n              add\n              mload(0x40)\n              swap1\n              dup2\n              add\n              0x40\n              mstore\n              dup1\n              swap3\n              swap2\n              swap1\n              dup2\n              dup2\n              mstore\n              0x20\n              add\n              dup3\n              dup1\n              sload\n              dup1\n              iszero\n              tag_163\n              jumpi\n              0x20\n              mul\n              dup3\n              add\n              swap2\n              swap1\n              0x00\n              mstore\n              keccak256(0x00, 0x20)\n              swap1\n            tag_164:\n              dup2\n              0x00\n              swap1\n              sload\n              swap1\n              0x0100\n              exp\n              swap1\n              div\n              0xffffffffffffffffffffffffffffffffffffffff\n              and\n              0xffffffffffffffffffffffffffffffffffffffff\n              and\n              dup2\n              mstore\n              0x20\n              add\n              swap1\n              0x01\n              add\n              swap1\n              dup1\n              dup4\n              gt\n              tag_164\n              jumpi\n            tag_163:\n              pop\n              pop\n              pop\n              pop\n              pop\n              swap1\n              pop\n                /* \"Library.sol\":3824:3941  function getManagerAddress() external restricted view returns(address[] memory){... */\n              swap1\n              jump\t// out\n                /* \"Library.sol\":3524:3786  function returnBook(uint _tokenId) public userRestricted {... */\n            tag_60:\n                /* \"Library.sol\":924:935  userManager */\n              0x03\n              0x00\n              swap1\n              sload\n              swap1\n              0x0100\n              exp\n              swap1\n              div\n              0xffffffffffffffffffffffffffffffffffffffff\n              and\n                /* \"Library.sol\":924:950  userManager.getIsValidUser */\n              0xffffffffffffffffffffffffffffffffffffffff\n              and\n              0xecded204\n                /* \"Library.sol\":951:961  msg.sender */\n              caller\n                /* \"Library.sol\":924:962  userManager.getIsValidUser(msg.sender) */\n              mload(0x40)\n              dup3\n              0xffffffff\n              and\n              0xe0\n              shl\n              dup2\n              mstore\n              0x04\n              add\n              tag_166\n              swap2\n              swap1\n              tag_46\n              jump\t// in\n            tag_166:\n              0x20\n              mload(0x40)\n              dup1\n              dup4\n              sub\n              dup2\n              dup7\n              gas\n              staticcall\n              iszero\n              dup1\n              iszero\n              tag_168\n              jumpi\n              returndatasize\n              0x00\n              dup1\n              returndatacopy\n              revert(0x00, returndatasize)\n            tag_168:\n              pop\n              pop\n              pop\n              pop\n              mload(0x40)\n              returndatasize\n              not(0x1f)\n              0x1f\n              dup3\n              add\n              and\n              dup3\n              add\n              dup1\n              0x40\n              mstore\n              pop\n              dup2\n              add\n              swap1\n              tag_169\n              swap2\n              swap1\n              tag_75\n              jump\t// in\n            tag_169:\n                /* \"Library.sol\":916:963  require(userManager.getIsValidUser(msg.sender)) */\n              tag_170\n              jumpi\n              0x00\n              dup1\n              revert\n            tag_170:\n                /* \"Library.sol\":3591:3605  address reader */\n              0x00\n                /* \"Library.sol\":3608:3620  tokenManager */\n              0x04\n              0x00\n              swap1\n              sload\n              swap1\n              0x0100\n              exp\n              swap1\n              div\n              0xffffffffffffffffffffffffffffffffffffffff\n              and\n                /* \"Library.sol\":3608:3635  tokenManager.getTokenReader */\n              0xffffffffffffffffffffffffffffffffffffffff\n              and\n              0x3b2f7118\n                /* \"Library.sol\":3636:3644  _tokenId */\n              dup4\n                /* \"Library.sol\":3608:3645  tokenManager.getTokenReader(_tokenId) */\n              mload(0x40)\n              dup3\n              0xffffffff\n              and\n              0xe0\n              shl\n              dup2\n              mstore\n              0x04\n              add\n              tag_172\n              swap2\n              swap1\n              tag_51\n              jump\t// in\n            tag_172:\n              0x20\n              mload(0x40)\n              dup1\n              dup4\n              sub\n              dup2\n              dup7\n              gas\n              staticcall\n              iszero\n              dup1\n              iszero\n              tag_174\n              jumpi\n              returndatasize\n              0x00\n              dup1\n              returndatacopy\n              revert(0x00, returndatasize)\n            tag_174:\n              pop\n              pop\n              pop\n              pop\n              mload(0x40)\n              returndatasize\n              not(0x1f)\n              0x1f\n              dup3\n              add\n              and\n              dup3\n              add\n              dup1\n              0x40\n              mstore\n              pop\n              dup2\n              add\n              swap1\n              tag_175\n              swap2\n              swap1\n              tag_176\n              jump\t// in\n            tag_175:\n                /* \"Library.sol\":3591:3645  address reader = tokenManager.getTokenReader(_tokenId) */\n              swap1\n              pop\n                /* \"Library.sol\":3673:3683  msg.sender */\n              caller\n                /* \"Library.sol\":3663:3683  reader == msg.sender */\n              0xffffffffffffffffffffffffffffffffffffffff\n              and\n                /* \"Library.sol\":3663:3669  reader */\n              dup2\n                /* \"Library.sol\":3663:3683  reader == msg.sender */\n              0xffffffffffffffffffffffffffffffffffffffff\n              and\n              eq\n                /* \"Library.sol\":3655:3684  require(reader == msg.sender) */\n              tag_177\n              jumpi\n              0x00\n              dup1\n              revert\n            tag_177:\n                /* \"Library.sol\":3694:3706  tokenManager */\n              0x04\n              0x00\n              swap1\n              sload\n              swap1\n              0x0100\n              exp\n              swap1\n              div\n              0xffffffffffffffffffffffffffffffffffffffff\n              and\n                /* \"Library.sol\":3694:3717  tokenManager.returnBook */\n              0xffffffffffffffffffffffffffffffffffffffff\n              and\n              0xca5140c9\n                /* \"Library.sol\":3718:3726  _tokenId */\n              dup4\n                /* \"Library.sol\":3694:3727  tokenManager.returnBook(_tokenId) */\n              mload(0x40)\n              dup3\n              0xffffffff\n              and\n              0xe0\n              shl\n              dup2\n              mstore\n              0x04\n              add\n              tag_178\n              swap2\n              swap1\n              tag_51\n              jump\t// in\n            tag_178:\n              0x00\n              mload(0x40)\n              dup1\n              dup4\n              sub\n              dup2\n              0x00\n              dup8\n              dup1\n              extcodesize\n              iszero\n              dup1\n              iszero\n              tag_179\n              jumpi\n              0x00\n              dup1\n              revert\n            tag_179:\n              pop\n              gas\n              call\n              iszero\n              dup1\n              iszero\n              tag_181\n              jumpi\n              returndatasize\n              0x00\n              dup1\n              returndatacopy\n              revert(0x00, returndatasize)\n            tag_181:\n              pop\n              pop\n              pop\n              pop\n                /* \"Library.sol\":3737:3748  userManager */\n              0x03\n              0x00\n              swap1\n              sload\n              swap1\n              0x0100\n              exp\n              swap1\n              div\n              0xffffffffffffffffffffffffffffffffffffffff\n              and\n                /* \"Library.sol\":3737:3757  userManager.returned */\n              0xffffffffffffffffffffffffffffffffffffffff\n              and\n              0x4a09db4f\n                /* \"Library.sol\":3758:3768  msg.sender */\n              caller\n                /* \"Library.sol\":3770:3778  _tokenId */\n              dup5\n                /* \"Library.sol\":3737:3779  userManager.returned(msg.sender, _tokenId) */\n              mload(0x40)\n              dup4\n              0xffffffff\n              and\n              0xe0\n              shl\n              dup2\n              mstore\n              0x04\n              add\n              tag_182\n              swap3\n              swap2\n              swap1\n              tag_90\n              jump\t// in\n            tag_182:\n              0x00\n              mload(0x40)\n              dup1\n              dup4\n              sub\n              dup2\n              0x00\n              dup8\n              dup1\n              extcodesize\n              iszero\n              dup1\n              iszero\n              tag_183\n              jumpi\n              0x00\n              dup1\n              revert\n            tag_183:\n              pop\n              gas\n              call\n              iszero\n              dup1\n              iszero\n              tag_185\n              jumpi\n              returndatasize\n              0x00\n              dup1\n              returndatacopy\n              revert(0x00, returndatasize)\n            tag_185:\n              pop\n              pop\n              pop\n              pop\n                /* \"Library.sol\":3581:3786  {... */\n              pop\n                /* \"Library.sol\":3524:3786  function returnBook(uint _tokenId) public userRestricted {... */\n              pop\n              jump\t// out\n                /* \"Library.sol\":2066:2329  function modifyBook( uint _index, string memory _bookId, string memory _title, uint _price, address _authorAddress)... */\n            tag_65:\n                /* \"Library.sol\":2219:2224  staff */\n              0x01\n                /* \"Library.sol\":2219:2236  staff[msg.sender] */\n              0x00\n                /* \"Library.sol\":2225:2235  msg.sender */\n              caller\n                /* \"Library.sol\":2219:2236  staff[msg.sender] */\n              0xffffffffffffffffffffffffffffffffffffffff\n              and\n              0xffffffffffffffffffffffffffffffffffffffff\n              and\n              dup2\n              mstore\n              0x20\n              add\n              swap1\n              dup2\n              mstore\n              0x20\n              add\n              0x00\n              keccak256\n              0x00\n              swap1\n              sload\n              swap1\n              0x0100\n              exp\n              swap1\n              div\n              0xff\n              and\n                /* \"Library.sol\":2211:2237  require(staff[msg.sender]) */\n              tag_187\n              jumpi\n              0x00\n              dup1\n              revert\n            tag_187:\n                /* \"Library.sol\":2251:2262  bookManager */\n              0x02\n              0x00\n              swap1\n              sload\n              swap1\n              0x0100\n              exp\n              swap1\n              div\n              0xffffffffffffffffffffffffffffffffffffffff\n              and\n                /* \"Library.sol\":2251:2273  bookManager.modifyBook */\n              0xffffffffffffffffffffffffffffffffffffffff\n              and\n              0xd2c07e20\n                /* \"Library.sol\":2274:2280  _index */\n              dup7\n                /* \"Library.sol\":2282:2289  _bookId */\n              dup7\n                /* \"Library.sol\":2291:2297  _title */\n              dup7\n                /* \"Library.sol\":2299:2305  _price */\n              dup7\n                /* \"Library.sol\":2307:2321  _authorAddress */\n              dup7\n                /* \"Library.sol\":2251:2322  bookManager.modifyBook(_index, _bookId, _title, _price, _authorAddress) */\n              mload(0x40)\n              dup7\n              0xffffffff\n              and\n              0xe0\n              shl\n              dup2\n              mstore\n              0x04\n              add\n              tag_188\n              swap6\n              swap5\n              swap4\n              swap3\n              swap2\n              swap1\n              tag_189\n              jump\t// in\n            tag_188:\n              0x00\n              mload(0x40)\n              dup1\n              dup4\n              sub\n              dup2\n              0x00\n              dup8\n              dup1\n              extcodesize\n              iszero\n              dup1\n              iszero\n              tag_190\n              jumpi\n              0x00\n              dup1\n              revert\n            tag_190:\n              pop\n              gas\n              call\n              iszero\n              dup1\n              iszero\n              tag_192\n              jumpi\n              returndatasize\n              0x00\n              dup1\n              returndatacopy\n              revert(0x00, returndatasize)\n            tag_192:\n              pop\n              pop\n              pop\n              pop\n                /* \"Library.sol\":2066:2329  function modifyBook( uint _index, string memory _bookId, string memory _title, uint _price, address _authorAddress)... */\n              pop\n              pop\n              pop\n              pop\n              pop\n              jump\t// out\n                /* \"Library.sol\":1561:1666  function inviteStaff(address _staffAddress) public restricted{... */\n            tag_69:\n                /* \"Library.sol\":846:856  msg.sender */\n              caller\n                /* \"Library.sol\":837:856  owner == msg.sender */\n              0xffffffffffffffffffffffffffffffffffffffff\n              and\n                /* \"Library.sol\":837:842  owner */\n              0x00\n              dup1\n              sload\n              swap1\n              0x0100\n              exp\n              swap1\n              div\n              0xffffffffffffffffffffffffffffffffffffffff\n              and\n                /* \"Library.sol\":837:856  owner == msg.sender */\n              0xffffffffffffffffffffffffffffffffffffffff\n              and\n              eq\n                /* \"Library.sol\":829:857  require(owner == msg.sender) */\n              tag_194\n              jumpi\n              0x00\n              dup1\n              revert\n            tag_194:\n                /* \"Library.sol\":1655:1659  true */\n              0x01\n                /* \"Library.sol\":1632:1637  staff */\n              dup1\n                /* \"Library.sol\":1632:1652  staff[_staffAddress] */\n              0x00\n                /* \"Library.sol\":1638:1651  _staffAddress */\n              dup4\n                /* \"Library.sol\":1632:1652  staff[_staffAddress] */\n              0xffffffffffffffffffffffffffffffffffffffff\n              and\n              0xffffffffffffffffffffffffffffffffffffffff\n              and\n              dup2\n              mstore\n              0x20\n              add\n              swap1\n              dup2\n              mstore\n              0x20\n              add\n              0x00\n              keccak256\n              0x00\n                /* \"Library.sol\":1632:1659  staff[_staffAddress] = true */\n              0x0100\n              exp\n              dup2\n              sload\n              dup2\n              0xff\n              mul\n              not\n              and\n              swap1\n              dup4\n              iszero\n              iszero\n              mul\n              or\n              swap1\n              sstore\n              pop\n                /* \"Library.sol\":1561:1666  function inviteStaff(address _staffAddress) public restricted{... */\n              pop\n              jump\t// out\n                /* \"#utility.yul\":7:82   */\n            tag_196:\n                /* \"#utility.yul\":40:46   */\n              0x00\n                /* \"#utility.yul\":73:75   */\n              0x40\n                /* \"#utility.yul\":67:76   */\n              mload\n                /* \"#utility.yul\":57:76   */\n              swap1\n              pop\n                /* \"#utility.yul\":7:82   */\n              swap1\n              jump\t// out\n                /* \"#utility.yul\":88:205   */\n            tag_197:\n                /* \"#utility.yul\":197:198   */\n              0x00\n                /* \"#utility.yul\":194:195   */\n              dup1\n                /* \"#utility.yul\":187:199   */\n              revert\n                /* \"#utility.yul\":211:328   */\n            tag_198:\n                /* \"#utility.yul\":320:321   */\n              0x00\n                /* \"#utility.yul\":317:318   */\n              dup1\n                /* \"#utility.yul\":310:322   */\n              revert\n                /* \"#utility.yul\":334:411   */\n            tag_199:\n                /* \"#utility.yul\":371:378   */\n              0x00\n                /* \"#utility.yul\":400:405   */\n              dup2\n                /* \"#utility.yul\":389:405   */\n              swap1\n              pop\n                /* \"#utility.yul\":334:411   */\n              swap2\n              swap1\n              pop\n              jump\t// out\n                /* \"#utility.yul\":417:539   */\n            tag_200:\n                /* \"#utility.yul\":490:514   */\n              tag_242\n                /* \"#utility.yul\":508:513   */\n              dup2\n                /* \"#utility.yul\":490:514   */\n              tag_199\n              jump\t// in\n            tag_242:\n                /* \"#utility.yul\":483:488   */\n              dup2\n                /* \"#utility.yul\":480:515   */\n              eq\n                /* \"#utility.yul\":470:533   */\n              tag_243\n              jumpi\n                /* \"#utility.yul\":529:530   */\n              0x00\n                /* \"#utility.yul\":526:527   */\n              dup1\n                /* \"#utility.yul\":519:531   */\n              revert\n                /* \"#utility.yul\":470:533   */\n            tag_243:\n                /* \"#utility.yul\":417:539   */\n              pop\n              jump\t// out\n                /* \"#utility.yul\":545:684   */\n            tag_201:\n                /* \"#utility.yul\":591:596   */\n              0x00\n                /* \"#utility.yul\":629:635   */\n              dup2\n                /* \"#utility.yul\":616:636   */\n              calldataload\n                /* \"#utility.yul\":607:636   */\n              swap1\n              pop\n                /* \"#utility.yul\":645:678   */\n              tag_245\n                /* \"#utility.yul\":672:677   */\n              dup2\n                /* \"#utility.yul\":645:678   */\n              tag_200\n              jump\t// in\n            tag_245:\n                /* \"#utility.yul\":545:684   */\n              swap3\n              swap2\n              pop\n              pop\n              jump\t// out\n                /* \"#utility.yul\":690:1309   */\n            tag_17:\n                /* \"#utility.yul\":767:773   */\n              0x00\n                /* \"#utility.yul\":775:781   */\n              dup1\n                /* \"#utility.yul\":783:789   */\n              0x00\n                /* \"#utility.yul\":832:834   */\n              0x60\n                /* \"#utility.yul\":820:829   */\n              dup5\n                /* \"#utility.yul\":811:818   */\n              dup7\n                /* \"#utility.yul\":807:830   */\n              sub\n                /* \"#utility.yul\":803:835   */\n              slt\n                /* \"#utility.yul\":800:919   */\n              iszero\n              tag_247\n              jumpi\n                /* \"#utility.yul\":838:917   */\n              tag_248\n              tag_197\n              jump\t// in\n            tag_248:\n                /* \"#utility.yul\":800:919   */\n            tag_247:\n                /* \"#utility.yul\":958:959   */\n              0x00\n                /* \"#utility.yul\":983:1036   */\n              tag_249\n                /* \"#utility.yul\":1028:1035   */\n              dup7\n                /* \"#utility.yul\":1019:1025   */\n              dup3\n                /* \"#utility.yul\":1008:1017   */\n              dup8\n                /* \"#utility.yul\":1004:1026   */\n              add\n                /* \"#utility.yul\":983:1036   */\n              tag_201\n              jump\t// in\n            tag_249:\n                /* \"#utility.yul\":973:1036   */\n              swap4\n              pop\n                /* \"#utility.yul\":929:1046   */\n              pop\n                /* \"#utility.yul\":1085:1087   */\n              0x20\n                /* \"#utility.yul\":1111:1164   */\n              tag_250\n                /* \"#utility.yul\":1156:1163   */\n              dup7\n                /* \"#utility.yul\":1147:1153   */\n              dup3\n                /* \"#utility.yul\":1136:1145   */\n              dup8\n                /* \"#utility.yul\":1132:1154   */\n              add\n                /* \"#utility.yul\":1111:1164   */\n              tag_201\n              jump\t// in\n            tag_250:\n                /* \"#utility.yul\":1101:1164   */\n              swap3\n              pop\n                /* \"#utility.yul\":1056:1174   */\n              pop\n                /* \"#utility.yul\":1213:1215   */\n              0x40\n                /* \"#utility.yul\":1239:1292   */\n              tag_251\n                /* \"#utility.yul\":1284:1291   */\n              dup7\n                /* \"#utility.yul\":1275:1281   */\n              dup3\n                /* \"#utility.yul\":1264:1273   */\n              dup8\n                /* \"#utility.yul\":1260:1282   */\n              add\n                /* \"#utility.yul\":1239:1292   */\n              tag_201\n              jump\t// in\n            tag_251:\n                /* \"#utility.yul\":1229:1292   */\n              swap2\n              pop\n                /* \"#utility.yul\":1184:1302   */\n              pop\n                /* \"#utility.yul\":690:1309   */\n              swap3\n              pop\n              swap3\n              pop\n              swap3\n              jump\t// out\n                /* \"#utility.yul\":1315:1405   */\n            tag_202:\n                /* \"#utility.yul\":1349:1356   */\n              0x00\n                /* \"#utility.yul\":1392:1397   */\n              dup2\n                /* \"#utility.yul\":1385:1398   */\n              iszero\n                /* \"#utility.yul\":1378:1399   */\n              iszero\n                /* \"#utility.yul\":1367:1399   */\n              swap1\n              pop\n                /* \"#utility.yul\":1315:1405   */\n              swap2\n              swap1\n              pop\n              jump\t// out\n                /* \"#utility.yul\":1411:1527   */\n            tag_203:\n                /* \"#utility.yul\":1481:1502   */\n              tag_254\n                /* \"#utility.yul\":1496:1501   */\n              dup2\n                /* \"#utility.yul\":1481:1502   */\n              tag_202\n              jump\t// in\n            tag_254:\n                /* \"#utility.yul\":1474:1479   */\n              dup2\n                /* \"#utility.yul\":1471:1503   */\n              eq\n                /* \"#utility.yul\":1461:1521   */\n              tag_255\n              jumpi\n                /* \"#utility.yul\":1517:1518   */\n              0x00\n                /* \"#utility.yul\":1514:1515   */\n              dup1\n                /* \"#utility.yul\":1507:1519   */\n              revert\n                /* \"#utility.yul\":1461:1521   */\n            tag_255:\n                /* \"#utility.yul\":1411:1527   */\n              pop\n              jump\t// out\n                /* \"#utility.yul\":1533:1666   */\n            tag_204:\n                /* \"#utility.yul\":1576:1581   */\n              0x00\n                /* \"#utility.yul\":1614:1620   */\n              dup2\n                /* \"#utility.yul\":1601:1621   */\n              calldataload\n                /* \"#utility.yul\":1592:1621   */\n              swap1\n              pop\n                /* \"#utility.yul\":1630:1660   */\n              tag_257\n                /* \"#utility.yul\":1654:1659   */\n              dup2\n                /* \"#utility.yul\":1630:1660   */\n              tag_203\n              jump\t// in\n            tag_257:\n                /* \"#utility.yul\":1533:1666   */\n              swap3\n              swap2\n              pop\n              pop\n              jump\t// out\n                /* \"#utility.yul\":1672:2140   */\n            tag_21:\n                /* \"#utility.yul\":1737:1743   */\n              0x00\n                /* \"#utility.yul\":1745:1751   */\n              dup1\n                /* \"#utility.yul\":1794:1796   */\n              0x40\n                /* \"#utility.yul\":1782:1791   */\n              dup4\n                /* \"#utility.yul\":1773:1780   */\n              dup6\n                /* \"#utility.yul\":1769:1792   */\n              sub\n                /* \"#utility.yul\":1765:1797   */\n              slt\n                /* \"#utility.yul\":1762:1881   */\n              iszero\n              tag_259\n              jumpi\n                /* \"#utility.yul\":1800:1879   */\n              tag_260\n              tag_197\n              jump\t// in\n            tag_260:\n                /* \"#utility.yul\":1762:1881   */\n            tag_259:\n                /* \"#utility.yul\":1920:1921   */\n              0x00\n                /* \"#utility.yul\":1945:1998   */\n              tag_261\n                /* \"#utility.yul\":1990:1997   */\n              dup6\n                /* \"#utility.yul\":1981:1987   */\n              dup3\n                /* \"#utility.yul\":1970:1979   */\n              dup7\n                /* \"#utility.yul\":1966:1988   */\n              add\n                /* \"#utility.yul\":1945:1998   */\n              tag_201\n              jump\t// in\n            tag_261:\n                /* \"#utility.yul\":1935:1998   */\n              swap3\n              pop\n                /* \"#utility.yul\":1891:2008   */\n              pop\n                /* \"#utility.yul\":2047:2049   */\n              0x20\n                /* \"#utility.yul\":2073:2123   */\n              tag_262\n                /* \"#utility.yul\":2115:2122   */\n              dup6\n                /* \"#utility.yul\":2106:2112   */\n              dup3\n                /* \"#utility.yul\":2095:2104   */\n              dup7\n                /* \"#utility.yul\":2091:2113   */\n              add\n                /* \"#utility.yul\":2073:2123   */\n              tag_204\n              jump\t// in\n            tag_262:\n                /* \"#utility.yul\":2063:2123   */\n              swap2\n              pop\n                /* \"#utility.yul\":2018:2133   */\n              pop\n                /* \"#utility.yul\":1672:2140   */\n              swap3\n              pop\n              swap3\n              swap1\n              pop\n              jump\t// out\n                /* \"#utility.yul\":2146:2272   */\n            tag_205:\n                /* \"#utility.yul\":2183:2190   */\n              0x00\n                /* \"#utility.yul\":2223:2265   */\n              0xffffffffffffffffffffffffffffffffffffffff\n                /* \"#utility.yul\":2216:2221   */\n              dup3\n                /* \"#utility.yul\":2212:2266   */\n              and\n                /* \"#utility.yul\":2201:2266   */\n              swap1\n              pop\n                /* \"#utility.yul\":2146:2272   */\n              swap2\n              swap1\n              pop\n              jump\t// out\n                /* \"#utility.yul\":2278:2374   */\n            tag_206:\n                /* \"#utility.yul\":2315:2322   */\n              0x00\n                /* \"#utility.yul\":2344:2368   */\n              tag_265\n                /* \"#utility.yul\":2362:2367   */\n              dup3\n                /* \"#utility.yul\":2344:2368   */\n              tag_205\n              jump\t// in\n            tag_265:\n                /* \"#utility.yul\":2333:2368   */\n              swap1\n              pop\n                /* \"#utility.yul\":2278:2374   */\n              swap2\n              swap1\n              pop\n              jump\t// out\n                /* \"#utility.yul\":2380:2502   */\n            tag_207:\n                /* \"#utility.yul\":2453:2477   */\n              tag_267\n                /* \"#utility.yul\":2471:2476   */\n              dup2\n                /* \"#utility.yul\":2453:2477   */\n              tag_206\n              jump\t// in\n            tag_267:\n                /* \"#utility.yul\":2446:2451   */\n              dup2\n                /* \"#utility.yul\":2443:2478   */\n              eq\n                /* \"#utility.yul\":2433:2496   */\n              tag_268\n              jumpi\n                /* \"#utility.yul\":2492:2493   */\n              0x00\n                /* \"#utility.yul\":2489:2490   */\n              dup1\n                /* \"#utility.yul\":2482:2494   */\n              revert\n                /* \"#utility.yul\":2433:2496   */\n            tag_268:\n                /* \"#utility.yul\":2380:2502   */\n              pop\n              jump\t// out\n                /* \"#utility.yul\":2508:2647   */\n            tag_208:\n                /* \"#utility.yul\":2554:2559   */\n              0x00\n                /* \"#utility.yul\":2592:2598   */\n              dup2\n                /* \"#utility.yul\":2579:2599   */\n              calldataload\n                /* \"#utility.yul\":2570:2599   */\n              swap1\n              pop\n                /* \"#utility.yul\":2608:2641   */\n              tag_270\n                /* \"#utility.yul\":2635:2640   */\n              dup2\n                /* \"#utility.yul\":2608:2641   */\n              tag_207\n              jump\t// in\n            tag_270:\n                /* \"#utility.yul\":2508:2647   */\n              swap3\n              swap2\n              pop\n              pop\n              jump\t// out\n                /* \"#utility.yul\":2653:2982   */\n            tag_29:\n                /* \"#utility.yul\":2712:2718   */\n              0x00\n                /* \"#utility.yul\":2761:2763   */\n              0x20\n                /* \"#utility.yul\":2749:2758   */\n              dup3\n                /* \"#utility.yul\":2740:2747   */\n              dup5\n                /* \"#utility.yul\":2736:2759   */\n              sub\n                /* \"#utility.yul\":2732:2764   */\n              slt\n                /* \"#utility.yul\":2729:2848   */\n              iszero\n              tag_272\n              jumpi\n                /* \"#utility.yul\":2767:2846   */\n              tag_273\n              tag_197\n              jump\t// in\n            tag_273:\n                /* \"#utility.yul\":2729:2848   */\n            tag_272:\n                /* \"#utility.yul\":2887:2888   */\n              0x00\n                /* \"#utility.yul\":2912:2965   */\n              tag_274\n                /* \"#utility.yul\":2957:2964   */\n              dup5\n                /* \"#utility.yul\":2948:2954   */\n              dup3\n                /* \"#utility.yul\":2937:2946   */\n              dup6\n                /* \"#utility.yul\":2933:2955   */\n              add\n                /* \"#utility.yul\":2912:2965   */\n              tag_208\n              jump\t// in\n            tag_274:\n                /* \"#utility.yul\":2902:2965   */\n              swap2\n              pop\n                /* \"#utility.yul\":2858:2975   */\n              pop\n                /* \"#utility.yul\":2653:2982   */\n              swap3\n              swap2\n              pop\n              pop\n              jump\t// out\n                /* \"#utility.yul\":2988:3097   */\n            tag_209:\n                /* \"#utility.yul\":3069:3090   */\n              tag_276\n                /* \"#utility.yul\":3084:3089   */\n              dup2\n                /* \"#utility.yul\":3069:3090   */\n              tag_202\n              jump\t// in\n            tag_276:\n                /* \"#utility.yul\":3064:3067   */\n              dup3\n                /* \"#utility.yul\":3057:3091   */\n              mstore\n                /* \"#utility.yul\":2988:3097   */\n              pop\n              pop\n              jump\t// out\n                /* \"#utility.yul\":3103:3313   */\n            tag_32:\n                /* \"#utility.yul\":3190:3194   */\n              0x00\n                /* \"#utility.yul\":3228:3230   */\n              0x20\n                /* \"#utility.yul\":3217:3226   */\n              dup3\n                /* \"#utility.yul\":3213:3231   */\n              add\n                /* \"#utility.yul\":3205:3231   */\n              swap1\n              pop\n                /* \"#utility.yul\":3241:3306   */\n              tag_278\n                /* \"#utility.yul\":3303:3304   */\n              0x00\n                /* \"#utility.yul\":3292:3301   */\n              dup4\n                /* \"#utility.yul\":3288:3305   */\n              add\n                /* \"#utility.yul\":3279:3285   */\n              dup5\n                /* \"#utility.yul\":3241:3306   */\n              tag_209\n              jump\t// in\n            tag_278:\n                /* \"#utility.yul\":3103:3313   */\n              swap3\n              swap2\n              pop\n              pop\n              jump\t// out\n                /* \"#utility.yul\":3319:3436   */\n            tag_210:\n                /* \"#utility.yul\":3428:3429   */\n              0x00\n                /* \"#utility.yul\":3425:3426   */\n              dup1\n                /* \"#utility.yul\":3418:3430   */\n              revert\n                /* \"#utility.yul\":3442:3559   */\n            tag_211:\n                /* \"#utility.yul\":3551:3552   */\n              0x00\n                /* \"#utility.yul\":3548:3549   */\n              dup1\n                /* \"#utility.yul\":3541:3553   */\n              revert\n                /* \"#utility.yul\":3565:3667   */\n            tag_212:\n                /* \"#utility.yul\":3606:3612   */\n              0x00\n                /* \"#utility.yul\":3657:3659   */\n              0x1f\n                /* \"#utility.yul\":3653:3660   */\n              not\n                /* \"#utility.yul\":3648:3650   */\n              0x1f\n                /* \"#utility.yul\":3641:3646   */\n              dup4\n                /* \"#utility.yul\":3637:3651   */\n              add\n                /* \"#utility.yul\":3633:3661   */\n              and\n                /* \"#utility.yul\":3623:3661   */\n              swap1\n              pop\n                /* \"#utility.yul\":3565:3667   */\n              swap2\n              swap1\n              pop\n              jump\t// out\n                /* \"#utility.yul\":3673:3853   */\n            tag_213:\n                /* \"#utility.yul\":3721:3798   */\n              0x4e487b7100000000000000000000000000000000000000000000000000000000\n                /* \"#utility.yul\":3718:3719   */\n              0x00\n                /* \"#utility.yul\":3711:3799   */\n              mstore\n                /* \"#utility.yul\":3818:3822   */\n              0x41\n                /* \"#utility.yul\":3815:3816   */\n              0x04\n                /* \"#utility.yul\":3808:3823   */\n              mstore\n                /* \"#utility.yul\":3842:3846   */\n              0x24\n                /* \"#utility.yul\":3839:3840   */\n              0x00\n                /* \"#utility.yul\":3832:3847   */\n              revert\n                /* \"#utility.yul\":3859:4140   */\n            tag_214:\n                /* \"#utility.yul\":3942:3969   */\n              tag_284\n                /* \"#utility.yul\":3964:3968   */\n              dup3\n                /* \"#utility.yul\":3942:3969   */\n              tag_212\n              jump\t// in\n            tag_284:\n                /* \"#utility.yul\":3934:3940   */\n              dup2\n                /* \"#utility.yul\":3930:3970   */\n              add\n                /* \"#utility.yul\":4072:4078   */\n              dup2\n                /* \"#utility.yul\":4060:4070   */\n              dup2\n                /* \"#utility.yul\":4057:4079   */\n              lt\n                /* \"#utility.yul\":4036:4054   */\n              0xffffffffffffffff\n                /* \"#utility.yul\":4024:4034   */\n              dup3\n                /* \"#utility.yul\":4021:4055   */\n              gt\n                /* \"#utility.yul\":4018:4080   */\n              or\n                /* \"#utility.yul\":4015:4103   */\n              iszero\n              tag_285\n              jumpi\n                /* \"#utility.yul\":4083:4101   */\n              tag_286\n              tag_213\n              jump\t// in\n            tag_286:\n                /* \"#utility.yul\":4015:4103   */\n            tag_285:\n                /* \"#utility.yul\":4123:4133   */\n              dup1\n                /* \"#utility.yul\":4119:4121   */\n              0x40\n                /* \"#utility.yul\":4112:4134   */\n              mstore\n                /* \"#utility.yul\":3902:4140   */\n              pop\n                /* \"#utility.yul\":3859:4140   */\n              pop\n              pop\n              jump\t// out\n                /* \"#utility.yul\":4146:4275   */\n            tag_215:\n                /* \"#utility.yul\":4180:4186   */\n              0x00\n                /* \"#utility.yul\":4207:4227   */\n              tag_288\n              tag_196\n              jump\t// in\n            tag_288:\n                /* \"#utility.yul\":4197:4227   */\n              swap1\n              pop\n                /* \"#utility.yul\":4236:4269   */\n              tag_289\n                /* \"#utility.yul\":4264:4268   */\n              dup3\n                /* \"#utility.yul\":4256:4262   */\n              dup3\n                /* \"#utility.yul\":4236:4269   */\n              tag_214\n              jump\t// in\n            tag_289:\n                /* \"#utility.yul\":4146:4275   */\n              swap2\n              swap1\n              pop\n              jump\t// out\n                /* \"#utility.yul\":4281:4589   */\n            tag_216:\n                /* \"#utility.yul\":4343:4347   */\n              0x00\n                /* \"#utility.yul\":4433:4451   */\n              0xffffffffffffffff\n                /* \"#utility.yul\":4425:4431   */\n              dup3\n                /* \"#utility.yul\":4422:4452   */\n              gt\n                /* \"#utility.yul\":4419:4475   */\n              iszero\n              tag_291\n              jumpi\n                /* \"#utility.yul\":4455:4473   */\n              tag_292\n              tag_213\n              jump\t// in\n            tag_292:\n                /* \"#utility.yul\":4419:4475   */\n            tag_291:\n                /* \"#utility.yul\":4493:4522   */\n              tag_293\n                /* \"#utility.yul\":4515:4521   */\n              dup3\n                /* \"#utility.yul\":4493:4522   */\n              tag_212\n              jump\t// in\n            tag_293:\n                /* \"#utility.yul\":4485:4522   */\n              swap1\n              pop\n                /* \"#utility.yul\":4577:4581   */\n              0x20\n                /* \"#utility.yul\":4571:4575   */\n              dup2\n                /* \"#utility.yul\":4567:4582   */\n              add\n                /* \"#utility.yul\":4559:4582   */\n              swap1\n              pop\n                /* \"#utility.yul\":4281:4589   */\n              swap2\n              swap1\n              pop\n              jump\t// out\n                /* \"#utility.yul\":4595:4749   */\n            tag_217:\n                /* \"#utility.yul\":4679:4685   */\n              dup3\n                /* \"#utility.yul\":4674:4677   */\n              dup2\n                /* \"#utility.yul\":4669:4672   */\n              dup4\n                /* \"#utility.yul\":4656:4686   */\n              calldatacopy\n                /* \"#utility.yul\":4741:4742   */\n              0x00\n                /* \"#utility.yul\":4732:4738   */\n              dup4\n                /* \"#utility.yul\":4727:4730   */\n              dup4\n                /* \"#utility.yul\":4723:4739   */\n              add\n                /* \"#utility.yul\":4716:4743   */\n              mstore\n                /* \"#utility.yul\":4595:4749   */\n              pop\n              pop\n              pop\n              jump\t// out\n                /* \"#utility.yul\":4755:5167   */\n            tag_218:\n                /* \"#utility.yul\":4833:4838   */\n              0x00\n                /* \"#utility.yul\":4858:4924   */\n              tag_296\n                /* \"#utility.yul\":4874:4923   */\n              tag_297\n                /* \"#utility.yul\":4916:4922   */\n              dup5\n                /* \"#utility.yul\":4874:4923   */\n              tag_216\n              jump\t// in\n            tag_297:\n                /* \"#utility.yul\":4858:4924   */\n              tag_215\n              jump\t// in\n            tag_296:\n                /* \"#utility.yul\":4849:4924   */\n              swap1\n              pop\n                /* \"#utility.yul\":4947:4953   */\n              dup3\n                /* \"#utility.yul\":4940:4945   */\n              dup2\n                /* \"#utility.yul\":4933:4954   */\n              mstore\n                /* \"#utility.yul\":4985:4989   */\n              0x20\n                /* \"#utility.yul\":4978:4983   */\n              dup2\n                /* \"#utility.yul\":4974:4990   */\n              add\n                /* \"#utility.yul\":5023:5026   */\n              dup5\n                /* \"#utility.yul\":5014:5020   */\n              dup5\n                /* \"#utility.yul\":5009:5012   */\n              dup5\n                /* \"#utility.yul\":5005:5021   */\n              add\n                /* \"#utility.yul\":5002:5027   */\n              gt\n                /* \"#utility.yul\":4999:5111   */\n              iszero\n              tag_298\n              jumpi\n                /* \"#utility.yul\":5030:5109   */\n              tag_299\n              tag_211\n              jump\t// in\n            tag_299:\n                /* \"#utility.yul\":4999:5111   */\n            tag_298:\n                /* \"#utility.yul\":5120:5161   */\n              tag_300\n                /* \"#utility.yul\":5154:5160   */\n              dup5\n                /* \"#utility.yul\":5149:5152   */\n              dup3\n                /* \"#utility.yul\":5144:5147   */\n              dup6\n                /* \"#utility.yul\":5120:5161   */\n              tag_217\n              jump\t// in\n            tag_300:\n                /* \"#utility.yul\":4839:5167   */\n              pop\n                /* \"#utility.yul\":4755:5167   */\n              swap4\n              swap3\n              pop\n              pop\n              pop\n              jump\t// out\n                /* \"#utility.yul\":5187:5527   */\n            tag_219:\n                /* \"#utility.yul\":5243:5248   */\n              0x00\n                /* \"#utility.yul\":5292:5295   */\n              dup3\n                /* \"#utility.yul\":5285:5289   */\n              0x1f\n                /* \"#utility.yul\":5277:5283   */\n              dup4\n                /* \"#utility.yul\":5273:5290   */\n              add\n                /* \"#utility.yul\":5269:5296   */\n              slt\n                /* \"#utility.yul\":5259:5381   */\n              tag_302\n              jumpi\n                /* \"#utility.yul\":5300:5379   */\n              tag_303\n              tag_210\n              jump\t// in\n            tag_303:\n                /* \"#utility.yul\":5259:5381   */\n            tag_302:\n                /* \"#utility.yul\":5417:5423   */\n              dup2\n                /* \"#utility.yul\":5404:5424   */\n              calldataload\n                /* \"#utility.yul\":5442:5521   */\n              tag_304\n                /* \"#utility.yul\":5517:5520   */\n              dup5\n                /* \"#utility.yul\":5509:5515   */\n              dup3\n                /* \"#utility.yul\":5502:5506   */\n              0x20\n                /* \"#utility.yul\":5494:5500   */\n              dup7\n                /* \"#utility.yul\":5490:5507   */\n              add\n                /* \"#utility.yul\":5442:5521   */\n              tag_218\n              jump\t// in\n            tag_304:\n                /* \"#utility.yul\":5433:5521   */\n              swap2\n              pop\n                /* \"#utility.yul\":5249:5527   */\n              pop\n                /* \"#utility.yul\":5187:5527   */\n              swap3\n              swap2\n              pop\n              pop\n              jump\t// out\n                /* \"#utility.yul\":5533:6658   */\n            tag_36:\n                /* \"#utility.yul\":5639:5645   */\n              0x00\n                /* \"#utility.yul\":5647:5653   */\n              dup1\n                /* \"#utility.yul\":5655:5661   */\n              0x00\n                /* \"#utility.yul\":5663:5669   */\n              dup1\n                /* \"#utility.yul\":5712:5715   */\n              0x80\n                /* \"#utility.yul\":5700:5709   */\n              dup6\n                /* \"#utility.yul\":5691:5698   */\n              dup8\n                /* \"#utility.yul\":5687:5710   */\n              sub\n                /* \"#utility.yul\":5683:5716   */\n              slt\n                /* \"#utility.yul\":5680:5800   */\n              iszero\n              tag_306\n              jumpi\n                /* \"#utility.yul\":5719:5798   */\n              tag_307\n              tag_197\n              jump\t// in\n            tag_307:\n                /* \"#utility.yul\":5680:5800   */\n            tag_306:\n                /* \"#utility.yul\":5867:5868   */\n              0x00\n                /* \"#utility.yul\":5856:5865   */\n              dup6\n                /* \"#utility.yul\":5852:5869   */\n              add\n                /* \"#utility.yul\":5839:5870   */\n              calldataload\n                /* \"#utility.yul\":5897:5915   */\n              0xffffffffffffffff\n                /* \"#utility.yul\":5889:5895   */\n              dup2\n                /* \"#utility.yul\":5886:5916   */\n              gt\n                /* \"#utility.yul\":5883:6000   */\n              iszero\n              tag_308\n              jumpi\n                /* \"#utility.yul\":5919:5998   */\n              tag_309\n              tag_198\n              jump\t// in\n            tag_309:\n                /* \"#utility.yul\":5883:6000   */\n            tag_308:\n                /* \"#utility.yul\":6024:6087   */\n              tag_310\n                /* \"#utility.yul\":6079:6086   */\n              dup8\n                /* \"#utility.yul\":6070:6076   */\n              dup3\n                /* \"#utility.yul\":6059:6068   */\n              dup9\n                /* \"#utility.yul\":6055:6077   */\n              add\n                /* \"#utility.yul\":6024:6087   */\n              tag_219\n              jump\t// in\n            tag_310:\n                /* \"#utility.yul\":6014:6087   */\n              swap5\n              pop\n                /* \"#utility.yul\":5810:6097   */\n              pop\n                /* \"#utility.yul\":6164:6166   */\n              0x20\n                /* \"#utility.yul\":6153:6162   */\n              dup6\n                /* \"#utility.yul\":6149:6167   */\n              add\n                /* \"#utility.yul\":6136:6168   */\n              calldataload\n                /* \"#utility.yul\":6195:6213   */\n              0xffffffffffffffff\n                /* \"#utility.yul\":6187:6193   */\n              dup2\n                /* \"#utility.yul\":6184:6214   */\n              gt\n                /* \"#utility.yul\":6181:6298   */\n              iszero\n              tag_311\n              jumpi\n                /* \"#utility.yul\":6217:6296   */\n              tag_312\n              tag_198\n              jump\t// in\n            tag_312:\n                /* \"#utility.yul\":6181:6298   */\n            tag_311:\n                /* \"#utility.yul\":6322:6385   */\n              tag_313\n                /* \"#utility.yul\":6377:6384   */\n              dup8\n                /* \"#utility.yul\":6368:6374   */\n              dup3\n                /* \"#utility.yul\":6357:6366   */\n              dup9\n                /* \"#utility.yul\":6353:6375   */\n              add\n                /* \"#utility.yul\":6322:6385   */\n              tag_219\n              jump\t// in\n            tag_313:\n                /* \"#utility.yul\":6312:6385   */\n              swap4\n              pop\n                /* \"#utility.yul\":6107:6395   */\n              pop\n                /* \"#utility.yul\":6434:6436   */\n              0x40\n                /* \"#utility.yul\":6460:6513   */\n              tag_314\n                /* \"#utility.yul\":6505:6512   */\n              dup8\n                /* \"#utility.yul\":6496:6502   */\n              dup3\n                /* \"#utility.yul\":6485:6494   */\n              dup9\n                /* \"#utility.yul\":6481:6503   */\n              add\n                /* \"#utility.yul\":6460:6513   */\n              tag_201\n              jump\t// in\n            tag_314:\n                /* \"#utility.yul\":6450:6513   */\n              swap3\n              pop\n                /* \"#utility.yul\":6405:6523   */\n              pop\n                /* \"#utility.yul\":6562:6564   */\n              0x60\n                /* \"#utility.yul\":6588:6641   */\n              tag_315\n                /* \"#utility.yul\":6633:6640   */\n              dup8\n                /* \"#utility.yul\":6624:6630   */\n              dup3\n                /* \"#utility.yul\":6613:6622   */\n              dup9\n                /* \"#utility.yul\":6609:6631   */\n              add\n                /* \"#utility.yul\":6588:6641   */\n              tag_208\n              jump\t// in\n            tag_315:\n                /* \"#utility.yul\":6578:6641   */\n              swap2\n              pop\n                /* \"#utility.yul\":6533:6651   */\n              pop\n                /* \"#utility.yul\":5533:6658   */\n              swap3\n              swap6\n              swap2\n              swap5\n              pop\n              swap3\n              pop\n              jump\t// out\n                /* \"#utility.yul\":6664:6993   */\n            tag_40:\n                /* \"#utility.yul\":6723:6729   */\n              0x00\n                /* \"#utility.yul\":6772:6774   */\n              0x20\n                /* \"#utility.yul\":6760:6769   */\n              dup3\n                /* \"#utility.yul\":6751:6758   */\n              dup5\n                /* \"#utility.yul\":6747:6770   */\n              sub\n                /* \"#utility.yul\":6743:6775   */\n              slt\n                /* \"#utility.yul\":6740:6859   */\n              iszero\n              tag_317\n              jumpi\n                /* \"#utility.yul\":6778:6857   */\n              tag_318\n              tag_197\n              jump\t// in\n            tag_318:\n                /* \"#utility.yul\":6740:6859   */\n            tag_317:\n                /* \"#utility.yul\":6898:6899   */\n              0x00\n                /* \"#utility.yul\":6923:6976   */\n              tag_319\n                /* \"#utility.yul\":6968:6975   */\n              dup5\n                /* \"#utility.yul\":6959:6965   */\n              dup3\n                /* \"#utility.yul\":6948:6957   */\n              dup6\n                /* \"#utility.yul\":6944:6966   */\n              add\n                /* \"#utility.yul\":6923:6976   */\n              tag_201\n              jump\t// in\n            tag_319:\n                /* \"#utility.yul\":6913:6976   */\n              swap2\n              pop\n                /* \"#utility.yul\":6869:6986   */\n              pop\n                /* \"#utility.yul\":6664:6993   */\n              swap3\n              swap2\n              pop\n              pop\n              jump\t// out\n                /* \"#utility.yul\":6999:7117   */\n            tag_220:\n                /* \"#utility.yul\":7086:7110   */\n              tag_321\n                /* \"#utility.yul\":7104:7109   */\n              dup2\n                /* \"#utility.yul\":7086:7110   */\n              tag_206\n              jump\t// in\n            tag_321:\n                /* \"#utility.yul\":7081:7084   */\n              dup3\n                /* \"#utility.yul\":7074:7111   */\n              mstore\n                /* \"#utility.yul\":6999:7117   */\n              pop\n              pop\n              jump\t// out\n                /* \"#utility.yul\":7123:7345   */\n            tag_46:\n                /* \"#utility.yul\":7216:7220   */\n              0x00\n                /* \"#utility.yul\":7254:7256   */\n              0x20\n                /* \"#utility.yul\":7243:7252   */\n              dup3\n                /* \"#utility.yul\":7239:7257   */\n              add\n                /* \"#utility.yul\":7231:7257   */\n              swap1\n              pop\n                /* \"#utility.yul\":7267:7338   */\n              tag_323\n                /* \"#utility.yul\":7335:7336   */\n              0x00\n                /* \"#utility.yul\":7324:7333   */\n              dup4\n                /* \"#utility.yul\":7320:7337   */\n              add\n                /* \"#utility.yul\":7311:7317   */\n              dup5\n                /* \"#utility.yul\":7267:7338   */\n              tag_220\n              jump\t// in\n            tag_323:\n                /* \"#utility.yul\":7123:7345   */\n              swap3\n              swap2\n              pop\n              pop\n              jump\t// out\n                /* \"#utility.yul\":7351:7469   */\n            tag_221:\n                /* \"#utility.yul\":7438:7462   */\n              tag_325\n                /* \"#utility.yul\":7456:7461   */\n              dup2\n                /* \"#utility.yul\":7438:7462   */\n              tag_199\n              jump\t// in\n            tag_325:\n                /* \"#utility.yul\":7433:7436   */\n              dup3\n                /* \"#utility.yul\":7426:7463   */\n              mstore\n                /* \"#utility.yul\":7351:7469   */\n              pop\n              pop\n              jump\t// out\n                /* \"#utility.yul\":7475:7697   */\n            tag_51:\n                /* \"#utility.yul\":7568:7572   */\n              0x00\n                /* \"#utility.yul\":7606:7608   */\n              0x20\n                /* \"#utility.yul\":7595:7604   */\n              dup3\n                /* \"#utility.yul\":7591:7609   */\n              add\n                /* \"#utility.yul\":7583:7609   */\n              swap1\n              pop\n                /* \"#utility.yul\":7619:7690   */\n              tag_327\n                /* \"#utility.yul\":7687:7688   */\n              0x00\n                /* \"#utility.yul\":7676:7685   */\n              dup4\n                /* \"#utility.yul\":7672:7689   */\n              add\n                /* \"#utility.yul\":7663:7669   */\n              dup5\n                /* \"#utility.yul\":7619:7690   */\n              tag_221\n              jump\t// in\n            tag_327:\n                /* \"#utility.yul\":7475:7697   */\n              swap3\n              swap2\n              pop\n              pop\n              jump\t// out\n                /* \"#utility.yul\":7703:7817   */\n            tag_222:\n                /* \"#utility.yul\":7770:7776   */\n              0x00\n                /* \"#utility.yul\":7804:7809   */\n              dup2\n                /* \"#utility.yul\":7798:7810   */\n              mload\n                /* \"#utility.yul\":7788:7810   */\n              swap1\n              pop\n                /* \"#utility.yul\":7703:7817   */\n              swap2\n              swap1\n              pop\n              jump\t// out\n                /* \"#utility.yul\":7823:8007   */\n            tag_223:\n                /* \"#utility.yul\":7922:7933   */\n              0x00\n                /* \"#utility.yul\":7956:7962   */\n              dup3\n                /* \"#utility.yul\":7951:7954   */\n              dup3\n                /* \"#utility.yul\":7944:7963   */\n              mstore\n                /* \"#utility.yul\":7996:8000   */\n              0x20\n                /* \"#utility.yul\":7991:7994   */\n              dup3\n                /* \"#utility.yul\":7987:8001   */\n              add\n                /* \"#utility.yul\":7972:8001   */\n              swap1\n              pop\n                /* \"#utility.yul\":7823:8007   */\n              swap3\n              swap2\n              pop\n              pop\n              jump\t// out\n                /* \"#utility.yul\":8013:8145   */\n            tag_224:\n                /* \"#utility.yul\":8080:8084   */\n              0x00\n                /* \"#utility.yul\":8103:8106   */\n              dup2\n                /* \"#utility.yul\":8095:8106   */\n              swap1\n              pop\n                /* \"#utility.yul\":8133:8137   */\n              0x20\n                /* \"#utility.yul\":8128:8131   */\n              dup3\n                /* \"#utility.yul\":8124:8138   */\n              add\n                /* \"#utility.yul\":8116:8138   */\n              swap1\n              pop\n                /* \"#utility.yul\":8013:8145   */\n              swap2\n              swap1\n              pop\n              jump\t// out\n                /* \"#utility.yul\":8151:8259   */\n            tag_225:\n                /* \"#utility.yul\":8228:8252   */\n              tag_332\n                /* \"#utility.yul\":8246:8251   */\n              dup2\n                /* \"#utility.yul\":8228:8252   */\n              tag_206\n              jump\t// in\n            tag_332:\n                /* \"#utility.yul\":8223:8226   */\n              dup3\n                /* \"#utility.yul\":8216:8253   */\n              mstore\n                /* \"#utility.yul\":8151:8259   */\n              pop\n              pop\n              jump\t// out\n                /* \"#utility.yul\":8265:8444   */\n            tag_226:\n                /* \"#utility.yul\":8334:8344   */\n              0x00\n                /* \"#utility.yul\":8355:8401   */\n              tag_334\n                /* \"#utility.yul\":8397:8400   */\n              dup4\n                /* \"#utility.yul\":8389:8395   */\n              dup4\n                /* \"#utility.yul\":8355:8401   */\n              tag_225\n              jump\t// in\n            tag_334:\n                /* \"#utility.yul\":8433:8437   */\n              0x20\n                /* \"#utility.yul\":8428:8431   */\n              dup4\n                /* \"#utility.yul\":8424:8438   */\n              add\n                /* \"#utility.yul\":8410:8438   */\n              swap1\n              pop\n                /* \"#utility.yul\":8265:8444   */\n              swap3\n              swap2\n              pop\n              pop\n              jump\t// out\n                /* \"#utility.yul\":8450:8563   */\n            tag_227:\n                /* \"#utility.yul\":8520:8524   */\n              0x00\n                /* \"#utility.yul\":8552:8556   */\n              0x20\n                /* \"#utility.yul\":8547:8550   */\n              dup3\n                /* \"#utility.yul\":8543:8557   */\n              add\n                /* \"#utility.yul\":8535:8557   */\n              swap1\n              pop\n                /* \"#utility.yul\":8450:8563   */\n              swap2\n              swap1\n              pop\n              jump\t// out\n                /* \"#utility.yul\":8599:9331   */\n            tag_228:\n                /* \"#utility.yul\":8718:8721   */\n              0x00\n                /* \"#utility.yul\":8747:8801   */\n              tag_337\n                /* \"#utility.yul\":8795:8800   */\n              dup3\n                /* \"#utility.yul\":8747:8801   */\n              tag_222\n              jump\t// in\n            tag_337:\n                /* \"#utility.yul\":8817:8903   */\n              tag_338\n                /* \"#utility.yul\":8896:8902   */\n              dup2\n                /* \"#utility.yul\":8891:8894   */\n              dup6\n                /* \"#utility.yul\":8817:8903   */\n              tag_223\n              jump\t// in\n            tag_338:\n                /* \"#utility.yul\":8810:8903   */\n              swap4\n              pop\n                /* \"#utility.yul\":8927:8983   */\n              tag_339\n                /* \"#utility.yul\":8977:8982   */\n              dup4\n                /* \"#utility.yul\":8927:8983   */\n              tag_224\n              jump\t// in\n            tag_339:\n                /* \"#utility.yul\":9006:9013   */\n              dup1\n                /* \"#utility.yul\":9037:9038   */\n              0x00\n                /* \"#utility.yul\":9022:9306   */\n            tag_340:\n                /* \"#utility.yul\":9047:9053   */\n              dup4\n                /* \"#utility.yul\":9044:9045   */\n              dup2\n                /* \"#utility.yul\":9041:9054   */\n              lt\n                /* \"#utility.yul\":9022:9306   */\n              iszero\n              tag_342\n              jumpi\n                /* \"#utility.yul\":9123:9129   */\n              dup2\n                /* \"#utility.yul\":9117:9130   */\n              mload\n                /* \"#utility.yul\":9150:9213   */\n              tag_343\n                /* \"#utility.yul\":9209:9212   */\n              dup9\n                /* \"#utility.yul\":9194:9207   */\n              dup3\n                /* \"#utility.yul\":9150:9213   */\n              tag_226\n              jump\t// in\n            tag_343:\n                /* \"#utility.yul\":9143:9213   */\n              swap8\n              pop\n                /* \"#utility.yul\":9236:9296   */\n              tag_344\n                /* \"#utility.yul\":9289:9295   */\n              dup4\n                /* \"#utility.yul\":9236:9296   */\n              tag_227\n              jump\t// in\n            tag_344:\n                /* \"#utility.yul\":9226:9296   */\n              swap3\n              pop\n                /* \"#utility.yul\":9082:9306   */\n              pop\n                /* \"#utility.yul\":9069:9070   */\n              0x01\n                /* \"#utility.yul\":9066:9067   */\n              dup2\n                /* \"#utility.yul\":9062:9071   */\n              add\n                /* \"#utility.yul\":9057:9071   */\n              swap1\n              pop\n                /* \"#utility.yul\":9022:9306   */\n              jump(tag_340)\n            tag_342:\n                /* \"#utility.yul\":9026:9040   */\n              pop\n                /* \"#utility.yul\":9322:9325   */\n              dup6\n                /* \"#utility.yul\":9315:9325   */\n              swap4\n              pop\n                /* \"#utility.yul\":8723:9331   */\n              pop\n              pop\n              pop\n                /* \"#utility.yul\":8599:9331   */\n              swap3\n              swap2\n              pop\n              pop\n              jump\t// out\n                /* \"#utility.yul\":9337:9710   */\n            tag_56:\n                /* \"#utility.yul\":9480:9484   */\n              0x00\n                /* \"#utility.yul\":9518:9520   */\n              0x20\n                /* \"#utility.yul\":9507:9516   */\n              dup3\n                /* \"#utility.yul\":9503:9521   */\n              add\n                /* \"#utility.yul\":9495:9521   */\n              swap1\n              pop\n                /* \"#utility.yul\":9567:9576   */\n              dup2\n                /* \"#utility.yul\":9561:9565   */\n              dup2\n                /* \"#utility.yul\":9557:9577   */\n              sub\n                /* \"#utility.yul\":9553:9554   */\n              0x00\n                /* \"#utility.yul\":9542:9551   */\n              dup4\n                /* \"#utility.yul\":9538:9555   */\n              add\n                /* \"#utility.yul\":9531:9578   */\n              mstore\n                /* \"#utility.yul\":9595:9703   */\n              tag_346\n                /* \"#utility.yul\":9698:9702   */\n              dup2\n                /* \"#utility.yul\":9689:9695   */\n              dup5\n                /* \"#utility.yul\":9595:9703   */\n              tag_228\n              jump\t// in\n            tag_346:\n                /* \"#utility.yul\":9587:9703   */\n              swap1\n              pop\n                /* \"#utility.yul\":9337:9710   */\n              swap3\n              swap2\n              pop\n              pop\n              jump\t// out\n                /* \"#utility.yul\":9716:10987   */\n            tag_64:\n                /* \"#utility.yul\":9831:9837   */\n              0x00\n                /* \"#utility.yul\":9839:9845   */\n              dup1\n                /* \"#utility.yul\":9847:9853   */\n              0x00\n                /* \"#utility.yul\":9855:9861   */\n              dup1\n                /* \"#utility.yul\":9863:9869   */\n              0x00\n                /* \"#utility.yul\":9912:9915   */\n              0xa0\n                /* \"#utility.yul\":9900:9909   */\n              dup7\n                /* \"#utility.yul\":9891:9898   */\n              dup9\n                /* \"#utility.yul\":9887:9910   */\n              sub\n                /* \"#utility.yul\":9883:9916   */\n              slt\n                /* \"#utility.yul\":9880:10000   */\n              iszero\n              tag_348\n              jumpi\n                /* \"#utility.yul\":9919:9998   */\n              tag_349\n              tag_197\n              jump\t// in\n            tag_349:\n                /* \"#utility.yul\":9880:10000   */\n            tag_348:\n                /* \"#utility.yul\":10039:10040   */\n              0x00\n                /* \"#utility.yul\":10064:10117   */\n              tag_350\n                /* \"#utility.yul\":10109:10116   */\n              dup9\n                /* \"#utility.yul\":10100:10106   */\n              dup3\n                /* \"#utility.yul\":10089:10098   */\n              dup10\n                /* \"#utility.yul\":10085:10107   */\n              add\n                /* \"#utility.yul\":10064:10117   */\n              tag_201\n              jump\t// in\n            tag_350:\n                /* \"#utility.yul\":10054:10117   */\n              swap6\n              pop\n                /* \"#utility.yul\":10010:10127   */\n              pop\n                /* \"#utility.yul\":10194:10196   */\n              0x20\n                /* \"#utility.yul\":10183:10192   */\n              dup7\n                /* \"#utility.yul\":10179:10197   */\n              add\n                /* \"#utility.yul\":10166:10198   */\n              calldataload\n                /* \"#utility.yul\":10225:10243   */\n              0xffffffffffffffff\n                /* \"#utility.yul\":10217:10223   */\n              dup2\n                /* \"#utility.yul\":10214:10244   */\n              gt\n                /* \"#utility.yul\":10211:10328   */\n              iszero\n              tag_351\n              jumpi\n                /* \"#utility.yul\":10247:10326   */\n              tag_352\n              tag_198\n              jump\t// in\n            tag_352:\n                /* \"#utility.yul\":10211:10328   */\n            tag_351:\n                /* \"#utility.yul\":10352:10415   */\n              tag_353\n                /* \"#utility.yul\":10407:10414   */\n              dup9\n                /* \"#utility.yul\":10398:10404   */\n              dup3\n                /* \"#utility.yul\":10387:10396   */\n              dup10\n                /* \"#utility.yul\":10383:10405   */\n              add\n                /* \"#utility.yul\":10352:10415   */\n              tag_219\n              jump\t// in\n            tag_353:\n                /* \"#utility.yul\":10342:10415   */\n              swap5\n              pop\n                /* \"#utility.yul\":10137:10425   */\n              pop\n                /* \"#utility.yul\":10492:10494   */\n              0x40\n                /* \"#utility.yul\":10481:10490   */\n              dup7\n                /* \"#utility.yul\":10477:10495   */\n              add\n                /* \"#utility.yul\":10464:10496   */\n              calldataload\n                /* \"#utility.yul\":10523:10541   */\n              0xffffffffffffffff\n                /* \"#utility.yul\":10515:10521   */\n              dup2\n                /* \"#utility.yul\":10512:10542   */\n              gt\n                /* \"#utility.yul\":10509:10626   */\n              iszero\n              tag_354\n              jumpi\n                /* \"#utility.yul\":10545:10624   */\n              tag_355\n              tag_198\n              jump\t// in\n            tag_355:\n                /* \"#utility.yul\":10509:10626   */\n            tag_354:\n                /* \"#utility.yul\":10650:10713   */\n              tag_356\n                /* \"#utility.yul\":10705:10712   */\n              dup9\n                /* \"#utility.yul\":10696:10702   */\n              dup3\n                /* \"#utility.yul\":10685:10694   */\n              dup10\n                /* \"#utility.yul\":10681:10703   */\n              add\n                /* \"#utility.yul\":10650:10713   */\n              tag_219\n              jump\t// in\n            tag_356:\n                /* \"#utility.yul\":10640:10713   */\n              swap4\n              pop\n                /* \"#utility.yul\":10435:10723   */\n              pop\n                /* \"#utility.yul\":10762:10764   */\n              0x60\n                /* \"#utility.yul\":10788:10841   */\n              tag_357\n                /* \"#utility.yul\":10833:10840   */\n              dup9\n                /* \"#utility.yul\":10824:10830   */\n              dup3\n                /* \"#utility.yul\":10813:10822   */\n              dup10\n                /* \"#utility.yul\":10809:10831   */\n              add\n                /* \"#utility.yul\":10788:10841   */\n              tag_201\n              jump\t// in\n            tag_357:\n                /* \"#utility.yul\":10778:10841   */\n              swap3\n              pop\n                /* \"#utility.yul\":10733:10851   */\n              pop\n                /* \"#utility.yul\":10890:10893   */\n              0x80\n                /* \"#utility.yul\":10917:10970   */\n              tag_358\n                /* \"#utility.yul\":10962:10969   */\n              dup9\n                /* \"#utility.yul\":10953:10959   */\n              dup3\n                /* \"#utility.yul\":10942:10951   */\n              dup10\n                /* \"#utility.yul\":10938:10960   */\n              add\n                /* \"#utility.yul\":10917:10970   */\n              tag_208\n              jump\t// in\n            tag_358:\n                /* \"#utility.yul\":10907:10970   */\n              swap2\n              pop\n                /* \"#utility.yul\":10861:10980   */\n              pop\n                /* \"#utility.yul\":9716:10987   */\n              swap3\n              swap6\n              pop\n              swap3\n              swap6\n              swap1\n              swap4\n              pop\n              jump\t// out\n                /* \"#utility.yul\":10993:11130   */\n            tag_229:\n                /* \"#utility.yul\":11047:11052   */\n              0x00\n                /* \"#utility.yul\":11078:11084   */\n              dup2\n                /* \"#utility.yul\":11072:11085   */\n              mload\n                /* \"#utility.yul\":11063:11085   */\n              swap1\n              pop\n                /* \"#utility.yul\":11094:11124   */\n              tag_360\n                /* \"#utility.yul\":11118:11123   */\n              dup2\n                /* \"#utility.yul\":11094:11124   */\n              tag_203\n              jump\t// in\n            tag_360:\n                /* \"#utility.yul\":10993:11130   */\n              swap3\n              swap2\n              pop\n              pop\n              jump\t// out\n                /* \"#utility.yul\":11136:11481   */\n            tag_75:\n                /* \"#utility.yul\":11203:11209   */\n              0x00\n                /* \"#utility.yul\":11252:11254   */\n              0x20\n                /* \"#utility.yul\":11240:11249   */\n              dup3\n                /* \"#utility.yul\":11231:11238   */\n              dup5\n                /* \"#utility.yul\":11227:11250   */\n              sub\n                /* \"#utility.yul\":11223:11255   */\n              slt\n                /* \"#utility.yul\":11220:11339   */\n              iszero\n              tag_362\n              jumpi\n                /* \"#utility.yul\":11258:11337   */\n              tag_363\n              tag_197\n              jump\t// in\n            tag_363:\n                /* \"#utility.yul\":11220:11339   */\n            tag_362:\n                /* \"#utility.yul\":11378:11379   */\n              0x00\n                /* \"#utility.yul\":11403:11464   */\n              tag_364\n                /* \"#utility.yul\":11456:11463   */\n              dup5\n                /* \"#utility.yul\":11447:11453   */\n              dup3\n                /* \"#utility.yul\":11436:11445   */\n              dup6\n                /* \"#utility.yul\":11432:11454   */\n              add\n                /* \"#utility.yul\":11403:11464   */\n              tag_229\n              jump\t// in\n            tag_364:\n                /* \"#utility.yul\":11393:11464   */\n              swap2\n              pop\n                /* \"#utility.yul\":11349:11474   */\n              pop\n                /* \"#utility.yul\":11136:11481   */\n              swap3\n              swap2\n              pop\n              pop\n              jump\t// out\n                /* \"#utility.yul\":11487:11630   */\n            tag_230:\n                /* \"#utility.yul\":11544:11549   */\n              0x00\n                /* \"#utility.yul\":11575:11581   */\n              dup2\n                /* \"#utility.yul\":11569:11582   */\n              mload\n                /* \"#utility.yul\":11560:11582   */\n              swap1\n              pop\n                /* \"#utility.yul\":11591:11624   */\n              tag_366\n                /* \"#utility.yul\":11618:11623   */\n              dup2\n                /* \"#utility.yul\":11591:11624   */\n              tag_200\n              jump\t// in\n            tag_366:\n                /* \"#utility.yul\":11487:11630   */\n              swap3\n              swap2\n              pop\n              pop\n              jump\t// out\n                /* \"#utility.yul\":11636:11987   */\n            tag_82:\n                /* \"#utility.yul\":11706:11712   */\n              0x00\n                /* \"#utility.yul\":11755:11757   */\n              0x20\n                /* \"#utility.yul\":11743:11752   */\n              dup3\n                /* \"#utility.yul\":11734:11741   */\n              dup5\n                /* \"#utility.yul\":11730:11753   */\n              sub\n                /* \"#utility.yul\":11726:11758   */\n              slt\n                /* \"#utility.yul\":11723:11842   */\n              iszero\n              tag_368\n              jumpi\n                /* \"#utility.yul\":11761:11840   */\n              tag_369\n              tag_197\n              jump\t// in\n            tag_369:\n                /* \"#utility.yul\":11723:11842   */\n            tag_368:\n                /* \"#utility.yul\":11881:11882   */\n              0x00\n                /* \"#utility.yul\":11906:11970   */\n              tag_370\n                /* \"#utility.yul\":11962:11969   */\n              dup5\n                /* \"#utility.yul\":11953:11959   */\n              dup3\n                /* \"#utility.yul\":11942:11951   */\n              dup6\n                /* \"#utility.yul\":11938:11960   */\n              add\n                /* \"#utility.yul\":11906:11970   */\n              tag_230\n              jump\t// in\n            tag_370:\n                /* \"#utility.yul\":11896:11970   */\n              swap2\n              pop\n                /* \"#utility.yul\":11852:11980   */\n              pop\n                /* \"#utility.yul\":11636:11987   */\n              swap3\n              swap2\n              pop\n              pop\n              jump\t// out\n                /* \"#utility.yul\":11993:12546   */\n            tag_85:\n                /* \"#utility.yul\":12170:12174   */\n              0x00\n                /* \"#utility.yul\":12208:12211   */\n              0x80\n                /* \"#utility.yul\":12197:12206   */\n              dup3\n                /* \"#utility.yul\":12193:12212   */\n              add\n                /* \"#utility.yul\":12185:12212   */\n              swap1\n              pop\n                /* \"#utility.yul\":12222:12293   */\n              tag_372\n                /* \"#utility.yul\":12290:12291   */\n              0x00\n                /* \"#utility.yul\":12279:12288   */\n              dup4\n                /* \"#utility.yul\":12275:12292   */\n              add\n                /* \"#utility.yul\":12266:12272   */\n              dup8\n                /* \"#utility.yul\":12222:12293   */\n              tag_220\n              jump\t// in\n            tag_372:\n                /* \"#utility.yul\":12303:12375   */\n              tag_373\n                /* \"#utility.yul\":12371:12373   */\n              0x20\n                /* \"#utility.yul\":12360:12369   */\n              dup4\n                /* \"#utility.yul\":12356:12374   */\n              add\n                /* \"#utility.yul\":12347:12353   */\n              dup7\n                /* \"#utility.yul\":12303:12375   */\n              tag_221\n              jump\t// in\n            tag_373:\n                /* \"#utility.yul\":12385:12457   */\n              tag_374\n                /* \"#utility.yul\":12453:12455   */\n              0x40\n                /* \"#utility.yul\":12442:12451   */\n              dup4\n                /* \"#utility.yul\":12438:12456   */\n              add\n                /* \"#utility.yul\":12429:12435   */\n              dup6\n                /* \"#utility.yul\":12385:12457   */\n              tag_221\n              jump\t// in\n            tag_374:\n                /* \"#utility.yul\":12467:12539   */\n              tag_375\n                /* \"#utility.yul\":12535:12537   */\n              0x60\n                /* \"#utility.yul\":12524:12533   */\n              dup4\n                /* \"#utility.yul\":12520:12538   */\n              add\n                /* \"#utility.yul\":12511:12517   */\n              dup5\n                /* \"#utility.yul\":12467:12539   */\n              tag_221\n              jump\t// in\n            tag_375:\n                /* \"#utility.yul\":11993:12546   */\n              swap6\n              swap5\n              pop\n              pop\n              pop\n              pop\n              pop\n              jump\t// out\n                /* \"#utility.yul\":12552:12884   */\n            tag_90:\n                /* \"#utility.yul\":12673:12677   */\n              0x00\n                /* \"#utility.yul\":12711:12713   */\n              0x40\n                /* \"#utility.yul\":12700:12709   */\n              dup3\n                /* \"#utility.yul\":12696:12714   */\n              add\n                /* \"#utility.yul\":12688:12714   */\n              swap1\n              pop\n                /* \"#utility.yul\":12724:12795   */\n              tag_377\n                /* \"#utility.yul\":12792:12793   */\n              0x00\n                /* \"#utility.yul\":12781:12790   */\n              dup4\n                /* \"#utility.yul\":12777:12794   */\n              add\n                /* \"#utility.yul\":12768:12774   */\n              dup6\n                /* \"#utility.yul\":12724:12795   */\n              tag_220\n              jump\t// in\n            tag_377:\n                /* \"#utility.yul\":12805:12877   */\n              tag_378\n                /* \"#utility.yul\":12873:12875   */\n              0x20\n                /* \"#utility.yul\":12862:12871   */\n              dup4\n                /* \"#utility.yul\":12858:12876   */\n              add\n                /* \"#utility.yul\":12849:12855   */\n              dup5\n                /* \"#utility.yul\":12805:12877   */\n              tag_221\n              jump\t// in\n            tag_378:\n                /* \"#utility.yul\":12552:12884   */\n              swap4\n              swap3\n              pop\n              pop\n              pop\n              jump\t// out\n                /* \"#utility.yul\":12890:13210   */\n            tag_106:\n                /* \"#utility.yul\":13005:13009   */\n              0x00\n                /* \"#utility.yul\":13043:13045   */\n              0x40\n                /* \"#utility.yul\":13032:13041   */\n              dup3\n                /* \"#utility.yul\":13028:13046   */\n              add\n                /* \"#utility.yul\":13020:13046   */\n              swap1\n              pop\n                /* \"#utility.yul\":13056:13127   */\n              tag_380\n                /* \"#utility.yul\":13124:13125   */\n              0x00\n                /* \"#utility.yul\":13113:13122   */\n              dup4\n                /* \"#utility.yul\":13109:13126   */\n              add\n                /* \"#utility.yul\":13100:13106   */\n              dup6\n                /* \"#utility.yul\":13056:13127   */\n              tag_221\n              jump\t// in\n            tag_380:\n                /* \"#utility.yul\":13137:13203   */\n              tag_381\n                /* \"#utility.yul\":13199:13201   */\n              0x20\n                /* \"#utility.yul\":13188:13197   */\n              dup4\n                /* \"#utility.yul\":13184:13202   */\n              add\n                /* \"#utility.yul\":13175:13181   */\n              dup5\n                /* \"#utility.yul\":13137:13203   */\n              tag_209\n              jump\t// in\n            tag_381:\n                /* \"#utility.yul\":12890:13210   */\n              swap4\n              swap3\n              pop\n              pop\n              pop\n              jump\t// out\n                /* \"#utility.yul\":13216:13315   */\n            tag_231:\n                /* \"#utility.yul\":13268:13274   */\n              0x00\n                /* \"#utility.yul\":13302:13307   */\n              dup2\n                /* \"#utility.yul\":13296:13308   */\n              mload\n                /* \"#utility.yul\":13286:13308   */\n              swap1\n              pop\n                /* \"#utility.yul\":13216:13315   */\n              swap2\n              swap1\n              pop\n              jump\t// out\n                /* \"#utility.yul\":13321:13490   */\n            tag_232:\n                /* \"#utility.yul\":13405:13416   */\n              0x00\n                /* \"#utility.yul\":13439:13445   */\n              dup3\n                /* \"#utility.yul\":13434:13437   */\n              dup3\n                /* \"#utility.yul\":13427:13446   */\n              mstore\n                /* \"#utility.yul\":13479:13483   */\n              0x20\n                /* \"#utility.yul\":13474:13477   */\n              dup3\n                /* \"#utility.yul\":13470:13484   */\n              add\n                /* \"#utility.yul\":13455:13484   */\n              swap1\n              pop\n                /* \"#utility.yul\":13321:13490   */\n              swap3\n              swap2\n              pop\n              pop\n              jump\t// out\n                /* \"#utility.yul\":13496:13803   */\n            tag_233:\n                /* \"#utility.yul\":13564:13565   */\n              0x00\n                /* \"#utility.yul\":13574:13687   */\n            tag_385:\n                /* \"#utility.yul\":13588:13594   */\n              dup4\n                /* \"#utility.yul\":13585:13586   */\n              dup2\n                /* \"#utility.yul\":13582:13595   */\n              lt\n                /* \"#utility.yul\":13574:13687   */\n              iszero\n              tag_387\n              jumpi\n                /* \"#utility.yul\":13673:13674   */\n              dup1\n                /* \"#utility.yul\":13668:13671   */\n              dup3\n                /* \"#utility.yul\":13664:13675   */\n              add\n                /* \"#utility.yul\":13658:13676   */\n              mload\n                /* \"#utility.yul\":13654:13655   */\n              dup2\n                /* \"#utility.yul\":13649:13652   */\n              dup5\n                /* \"#utility.yul\":13645:13656   */\n              add\n                /* \"#utility.yul\":13638:13677   */\n              mstore\n                /* \"#utility.yul\":13610:13612   */\n              0x20\n                /* \"#utility.yul\":13607:13608   */\n              dup2\n                /* \"#utility.yul\":13603:13613   */\n              add\n                /* \"#utility.yul\":13598:13613   */\n              swap1\n              pop\n                /* \"#utility.yul\":13574:13687   */\n              jump(tag_385)\n            tag_387:\n                /* \"#utility.yul\":13705:13711   */\n              dup4\n                /* \"#utility.yul\":13702:13703   */\n              dup2\n                /* \"#utility.yul\":13699:13712   */\n              gt\n                /* \"#utility.yul\":13696:13797   */\n              iszero\n              tag_388\n              jumpi\n                /* \"#utility.yul\":13785:13786   */\n              0x00\n                /* \"#utility.yul\":13776:13782   */\n              dup5\n                /* \"#utility.yul\":13771:13774   */\n              dup5\n                /* \"#utility.yul\":13767:13783   */\n              add\n                /* \"#utility.yul\":13760:13787   */\n              mstore\n                /* \"#utility.yul\":13696:13797   */\n            tag_388:\n                /* \"#utility.yul\":13545:13803   */\n              pop\n                /* \"#utility.yul\":13496:13803   */\n              pop\n              pop\n              pop\n              jump\t// out\n                /* \"#utility.yul\":13809:14173   */\n            tag_234:\n                /* \"#utility.yul\":13897:13900   */\n              0x00\n                /* \"#utility.yul\":13925:13964   */\n              tag_390\n                /* \"#utility.yul\":13958:13963   */\n              dup3\n                /* \"#utility.yul\":13925:13964   */\n              tag_231\n              jump\t// in\n            tag_390:\n                /* \"#utility.yul\":13980:14051   */\n              tag_391\n                /* \"#utility.yul\":14044:14050   */\n              dup2\n                /* \"#utility.yul\":14039:14042   */\n              dup6\n                /* \"#utility.yul\":13980:14051   */\n              tag_232\n              jump\t// in\n            tag_391:\n                /* \"#utility.yul\":13973:14051   */\n              swap4\n              pop\n                /* \"#utility.yul\":14060:14112   */\n              tag_392\n                /* \"#utility.yul\":14105:14111   */\n              dup2\n                /* \"#utility.yul\":14100:14103   */\n              dup6\n                /* \"#utility.yul\":14093:14097   */\n              0x20\n                /* \"#utility.yul\":14086:14091   */\n              dup7\n                /* \"#utility.yul\":14082:14098   */\n              add\n                /* \"#utility.yul\":14060:14112   */\n              tag_233\n              jump\t// in\n            tag_392:\n                /* \"#utility.yul\":14137:14166   */\n              tag_393\n                /* \"#utility.yul\":14159:14165   */\n              dup2\n                /* \"#utility.yul\":14137:14166   */\n              tag_212\n              jump\t// in\n            tag_393:\n                /* \"#utility.yul\":14132:14135   */\n              dup5\n                /* \"#utility.yul\":14128:14167   */\n              add\n                /* \"#utility.yul\":14121:14167   */\n              swap2\n              pop\n                /* \"#utility.yul\":13901:14173   */\n              pop\n                /* \"#utility.yul\":13809:14173   */\n              swap3\n              swap2\n              pop\n              pop\n              jump\t// out\n                /* \"#utility.yul\":14179:14492   */\n            tag_119:\n                /* \"#utility.yul\":14292:14296   */\n              0x00\n                /* \"#utility.yul\":14330:14332   */\n              0x20\n                /* \"#utility.yul\":14319:14328   */\n              dup3\n                /* \"#utility.yul\":14315:14333   */\n              add\n                /* \"#utility.yul\":14307:14333   */\n              swap1\n              pop\n                /* \"#utility.yul\":14379:14388   */\n              dup2\n                /* \"#utility.yul\":14373:14377   */\n              dup2\n                /* \"#utility.yul\":14369:14389   */\n              sub\n                /* \"#utility.yul\":14365:14366   */\n              0x00\n                /* \"#utility.yul\":14354:14363   */\n              dup4\n                /* \"#utility.yul\":14350:14367   */\n              add\n                /* \"#utility.yul\":14343:14390   */\n              mstore\n                /* \"#utility.yul\":14407:14485   */\n              tag_395\n                /* \"#utility.yul\":14480:14484   */\n              dup2\n                /* \"#utility.yul\":14471:14477   */\n              dup5\n                /* \"#utility.yul\":14407:14485   */\n              tag_234\n              jump\t// in\n            tag_395:\n                /* \"#utility.yul\":14399:14485   */\n              swap1\n              pop\n                /* \"#utility.yul\":14179:14492   */\n              swap3\n              swap2\n              pop\n              pop\n              jump\t// out\n                /* \"#utility.yul\":14498:15233   */\n            tag_125:\n                /* \"#utility.yul\":14715:14719   */\n              0x00\n                /* \"#utility.yul\":14753:14756   */\n              0x80\n                /* \"#utility.yul\":14742:14751   */\n              dup3\n                /* \"#utility.yul\":14738:14757   */\n              add\n                /* \"#utility.yul\":14730:14757   */\n              swap1\n              pop\n                /* \"#utility.yul\":14803:14812   */\n              dup2\n                /* \"#utility.yul\":14797:14801   */\n              dup2\n                /* \"#utility.yul\":14793:14813   */\n              sub\n                /* \"#utility.yul\":14789:14790   */\n              0x00\n                /* \"#utility.yul\":14778:14787   */\n              dup4\n                /* \"#utility.yul\":14774:14791   */\n              add\n                /* \"#utility.yul\":14767:14814   */\n              mstore\n                /* \"#utility.yul\":14831:14909   */\n              tag_397\n                /* \"#utility.yul\":14904:14908   */\n              dup2\n                /* \"#utility.yul\":14895:14901   */\n              dup8\n                /* \"#utility.yul\":14831:14909   */\n              tag_234\n              jump\t// in\n            tag_397:\n                /* \"#utility.yul\":14823:14909   */\n              swap1\n              pop\n                /* \"#utility.yul\":14956:14965   */\n              dup2\n                /* \"#utility.yul\":14950:14954   */\n              dup2\n                /* \"#utility.yul\":14946:14966   */\n              sub\n                /* \"#utility.yul\":14941:14943   */\n              0x20\n                /* \"#utility.yul\":14930:14939   */\n              dup4\n                /* \"#utility.yul\":14926:14944   */\n              add\n                /* \"#utility.yul\":14919:14967   */\n              mstore\n                /* \"#utility.yul\":14984:15062   */\n              tag_398\n                /* \"#utility.yul\":15057:15061   */\n              dup2\n                /* \"#utility.yul\":15048:15054   */\n              dup7\n                /* \"#utility.yul\":14984:15062   */\n              tag_234\n              jump\t// in\n            tag_398:\n                /* \"#utility.yul\":14976:15062   */\n              swap1\n              pop\n                /* \"#utility.yul\":15072:15144   */\n              tag_399\n                /* \"#utility.yul\":15140:15142   */\n              0x40\n                /* \"#utility.yul\":15129:15138   */\n              dup4\n                /* \"#utility.yul\":15125:15143   */\n              add\n                /* \"#utility.yul\":15116:15122   */\n              dup6\n                /* \"#utility.yul\":15072:15144   */\n              tag_221\n              jump\t// in\n            tag_399:\n                /* \"#utility.yul\":15154:15226   */\n              tag_400\n                /* \"#utility.yul\":15222:15224   */\n              0x60\n                /* \"#utility.yul\":15211:15220   */\n              dup4\n                /* \"#utility.yul\":15207:15225   */\n              add\n                /* \"#utility.yul\":15198:15204   */\n              dup5\n                /* \"#utility.yul\":15154:15226   */\n              tag_220\n              jump\t// in\n            tag_400:\n                /* \"#utility.yul\":14498:15233   */\n              swap6\n              swap5\n              pop\n              pop\n              pop\n              pop\n              pop\n              jump\t// out\n                /* \"#utility.yul\":15239:15571   */\n            tag_152:\n                /* \"#utility.yul\":15360:15364   */\n              0x00\n                /* \"#utility.yul\":15398:15400   */\n              0x40\n                /* \"#utility.yul\":15387:15396   */\n              dup3\n                /* \"#utility.yul\":15383:15401   */\n              add\n                /* \"#utility.yul\":15375:15401   */\n              swap1\n              pop\n                /* \"#utility.yul\":15411:15482   */\n              tag_402\n                /* \"#utility.yul\":15479:15480   */\n              0x00\n                /* \"#utility.yul\":15468:15477   */\n              dup4\n                /* \"#utility.yul\":15464:15481   */\n              add\n                /* \"#utility.yul\":15455:15461   */\n              dup6\n                /* \"#utility.yul\":15411:15482   */\n              tag_221\n              jump\t// in\n            tag_402:\n                /* \"#utility.yul\":15492:15564   */\n              tag_403\n                /* \"#utility.yul\":15560:15562   */\n              0x20\n                /* \"#utility.yul\":15549:15558   */\n              dup4\n                /* \"#utility.yul\":15545:15563   */\n              add\n                /* \"#utility.yul\":15536:15542   */\n              dup5\n                /* \"#utility.yul\":15492:15564   */\n              tag_220\n              jump\t// in\n            tag_403:\n                /* \"#utility.yul\":15239:15571   */\n              swap4\n              swap3\n              pop\n              pop\n              pop\n              jump\t// out\n                /* \"#utility.yul\":15577:15720   */\n            tag_235:\n                /* \"#utility.yul\":15634:15639   */\n              0x00\n                /* \"#utility.yul\":15665:15671   */\n              dup2\n                /* \"#utility.yul\":15659:15672   */\n              mload\n                /* \"#utility.yul\":15650:15672   */\n              swap1\n              pop\n                /* \"#utility.yul\":15681:15714   */\n              tag_405\n                /* \"#utility.yul\":15708:15713   */\n              dup2\n                /* \"#utility.yul\":15681:15714   */\n              tag_207\n              jump\t// in\n            tag_405:\n                /* \"#utility.yul\":15577:15720   */\n              swap3\n              swap2\n              pop\n              pop\n              jump\t// out\n                /* \"#utility.yul\":15726:16077   */\n            tag_176:\n                /* \"#utility.yul\":15796:15802   */\n              0x00\n                /* \"#utility.yul\":15845:15847   */\n              0x20\n                /* \"#utility.yul\":15833:15842   */\n              dup3\n                /* \"#utility.yul\":15824:15831   */\n              dup5\n                /* \"#utility.yul\":15820:15843   */\n              sub\n                /* \"#utility.yul\":15816:15848   */\n              slt\n                /* \"#utility.yul\":15813:15932   */\n              iszero\n              tag_407\n              jumpi\n                /* \"#utility.yul\":15851:15930   */\n              tag_408\n              tag_197\n              jump\t// in\n            tag_408:\n                /* \"#utility.yul\":15813:15932   */\n            tag_407:\n                /* \"#utility.yul\":15971:15972   */\n              0x00\n                /* \"#utility.yul\":15996:16060   */\n              tag_409\n                /* \"#utility.yul\":16052:16059   */\n              dup5\n                /* \"#utility.yul\":16043:16049   */\n              dup3\n                /* \"#utility.yul\":16032:16041   */\n              dup6\n                /* \"#utility.yul\":16028:16050   */\n              add\n                /* \"#utility.yul\":15996:16060   */\n              tag_235\n              jump\t// in\n            tag_409:\n                /* \"#utility.yul\":15986:16060   */\n              swap2\n              pop\n                /* \"#utility.yul\":15942:16070   */\n              pop\n                /* \"#utility.yul\":15726:16077   */\n              swap3\n              swap2\n              pop\n              pop\n              jump\t// out\n                /* \"#utility.yul\":16083:16929   */\n            tag_189:\n                /* \"#utility.yul\":16328:16332   */\n              0x00\n                /* \"#utility.yul\":16366:16369   */\n              0xa0\n                /* \"#utility.yul\":16355:16364   */\n              dup3\n                /* \"#utility.yul\":16351:16370   */\n              add\n                /* \"#utility.yul\":16343:16370   */\n              swap1\n              pop\n                /* \"#utility.yul\":16380:16451   */\n              tag_411\n                /* \"#utility.yul\":16448:16449   */\n              0x00\n                /* \"#utility.yul\":16437:16446   */\n              dup4\n                /* \"#utility.yul\":16433:16450   */\n              add\n                /* \"#utility.yul\":16424:16430   */\n              dup9\n                /* \"#utility.yul\":16380:16451   */\n              tag_221\n              jump\t// in\n            tag_411:\n                /* \"#utility.yul\":16498:16507   */\n              dup2\n                /* \"#utility.yul\":16492:16496   */\n              dup2\n                /* \"#utility.yul\":16488:16508   */\n              sub\n                /* \"#utility.yul\":16483:16485   */\n              0x20\n                /* \"#utility.yul\":16472:16481   */\n              dup4\n                /* \"#utility.yul\":16468:16486   */\n              add\n                /* \"#utility.yul\":16461:16509   */\n              mstore\n                /* \"#utility.yul\":16526:16604   */\n              tag_412\n                /* \"#utility.yul\":16599:16603   */\n              dup2\n                /* \"#utility.yul\":16590:16596   */\n              dup8\n                /* \"#utility.yul\":16526:16604   */\n              tag_234\n              jump\t// in\n            tag_412:\n                /* \"#utility.yul\":16518:16604   */\n              swap1\n              pop\n                /* \"#utility.yul\":16651:16660   */\n              dup2\n                /* \"#utility.yul\":16645:16649   */\n              dup2\n                /* \"#utility.yul\":16641:16661   */\n              sub\n                /* \"#utility.yul\":16636:16638   */\n              0x40\n                /* \"#utility.yul\":16625:16634   */\n              dup4\n                /* \"#utility.yul\":16621:16639   */\n              add\n                /* \"#utility.yul\":16614:16662   */\n              mstore\n                /* \"#utility.yul\":16679:16757   */\n              tag_413\n                /* \"#utility.yul\":16752:16756   */\n              dup2\n                /* \"#utility.yul\":16743:16749   */\n              dup7\n                /* \"#utility.yul\":16679:16757   */\n              tag_234\n              jump\t// in\n            tag_413:\n                /* \"#utility.yul\":16671:16757   */\n              swap1\n              pop\n                /* \"#utility.yul\":16767:16839   */\n              tag_414\n                /* \"#utility.yul\":16835:16837   */\n              0x60\n                /* \"#utility.yul\":16824:16833   */\n              dup4\n                /* \"#utility.yul\":16820:16838   */\n              add\n                /* \"#utility.yul\":16811:16817   */\n              dup6\n                /* \"#utility.yul\":16767:16839   */\n              tag_221\n              jump\t// in\n            tag_414:\n                /* \"#utility.yul\":16849:16922   */\n              tag_415\n                /* \"#utility.yul\":16917:16920   */\n              0x80\n                /* \"#utility.yul\":16906:16915   */\n              dup4\n                /* \"#utility.yul\":16902:16921   */\n              add\n                /* \"#utility.yul\":16893:16899   */\n              dup5\n                /* \"#utility.yul\":16849:16922   */\n              tag_220\n              jump\t// in\n            tag_415:\n                /* \"#utility.yul\":16083:16929   */\n              swap7\n              swap6\n              pop\n              pop\n              pop\n              pop\n              pop\n              pop\n              jump\t// out\n\n            auxdata: 0xa2646970667358221220d857e059c2772834fbe559ec6755d9e7ede63c12e6d7bc98cb6acbb93cceb8ab64736f6c634300080a0033\n        }\n\n        sub_1: assembly {\n                /* \"devs/BookManager.sol\":706:3015   */\n              mstore(0x40, 0x80)\n                /* \"devs/BookManager.sol\":1081:1192   */\n              callvalue\n              dup1\n              iszero\n              tag_1\n              jumpi\n              0x00\n              dup1\n              revert\n            tag_1:\n              pop\n              mload(0x40)\n              sub(codesize, bytecodeSize)\n              dup1\n              bytecodeSize\n              dup4\n              codecopy\n              dup2\n              dup2\n              add\n              0x40\n              mstore\n              dup2\n              add\n              swap1\n              tag_2\n              swap2\n              swap1\n              tag_3\n              jump\t// in\n            tag_2:\n                /* \"devs/BookManager.sol\":1134:1147   */\n              dup1\n                /* \"devs/BookManager.sol\":1126:1131   */\n              0x00\n              dup1\n                /* \"devs/BookManager.sol\":1126:1147   */\n              0x0100\n              exp\n              dup2\n              sload\n              dup2\n              0xffffffffffffffffffffffffffffffffffffffff\n              mul\n              not\n              and\n              swap1\n              dup4\n              0xffffffffffffffffffffffffffffffffffffffff\n              and\n              mul\n              or\n              swap1\n              sstore\n              pop\n                /* \"devs/BookManager.sol\":1175:1185   */\n              caller\n                /* \"devs/BookManager.sol\":1157:1172   */\n              0x01\n              0x00\n                /* \"devs/BookManager.sol\":1157:1185   */\n              0x0100\n              exp\n              dup2\n              sload\n              dup2\n              0xffffffffffffffffffffffffffffffffffffffff\n              mul\n              not\n              and\n              swap1\n              dup4\n              0xffffffffffffffffffffffffffffffffffffffff\n              and\n              mul\n              or\n              swap1\n              sstore\n              pop\n                /* \"devs/BookManager.sol\":1081:1192   */\n              pop\n                /* \"devs/BookManager.sol\":706:3015   */\n              jump(tag_6)\n                /* \"#utility.yul\":88:205   */\n            tag_8:\n                /* \"#utility.yul\":197:198   */\n              0x00\n                /* \"#utility.yul\":194:195   */\n              dup1\n                /* \"#utility.yul\":187:199   */\n              revert\n                /* \"#utility.yul\":334:460   */\n            tag_10:\n                /* \"#utility.yul\":371:378   */\n              0x00\n                /* \"#utility.yul\":411:453   */\n              0xffffffffffffffffffffffffffffffffffffffff\n                /* \"#utility.yul\":404:409   */\n              dup3\n                /* \"#utility.yul\":400:454   */\n              and\n                /* \"#utility.yul\":389:454   */\n              swap1\n              pop\n                /* \"#utility.yul\":334:460   */\n              swap2\n              swap1\n              pop\n              jump\t// out\n                /* \"#utility.yul\":466:562   */\n            tag_11:\n                /* \"#utility.yul\":503:510   */\n              0x00\n                /* \"#utility.yul\":532:556   */\n              tag_20\n                /* \"#utility.yul\":550:555   */\n              dup3\n                /* \"#utility.yul\":532:556   */\n              tag_10\n              jump\t// in\n            tag_20:\n                /* \"#utility.yul\":521:556   */\n              swap1\n              pop\n                /* \"#utility.yul\":466:562   */\n              swap2\n              swap1\n              pop\n              jump\t// out\n                /* \"#utility.yul\":568:690   */\n            tag_12:\n                /* \"#utility.yul\":641:665   */\n              tag_22\n                /* \"#utility.yul\":659:664   */\n              dup2\n                /* \"#utility.yul\":641:665   */\n              tag_11\n              jump\t// in\n            tag_22:\n                /* \"#utility.yul\":634:639   */\n              dup2\n                /* \"#utility.yul\":631:666   */\n              eq\n                /* \"#utility.yul\":621:684   */\n              tag_23\n              jumpi\n                /* \"#utility.yul\":680:681   */\n              0x00\n                /* \"#utility.yul\":677:678   */\n              dup1\n                /* \"#utility.yul\":670:682   */\n              revert\n                /* \"#utility.yul\":621:684   */\n            tag_23:\n                /* \"#utility.yul\":568:690   */\n              pop\n              jump\t// out\n                /* \"#utility.yul\":696:839   */\n            tag_13:\n                /* \"#utility.yul\":753:758   */\n              0x00\n                /* \"#utility.yul\":784:790   */\n              dup2\n                /* \"#utility.yul\":778:791   */\n              mload\n                /* \"#utility.yul\":769:791   */\n              swap1\n              pop\n                /* \"#utility.yul\":800:833   */\n              tag_25\n                /* \"#utility.yul\":827:832   */\n              dup2\n                /* \"#utility.yul\":800:833   */\n              tag_12\n              jump\t// in\n            tag_25:\n                /* \"#utility.yul\":696:839   */\n              swap3\n              swap2\n              pop\n              pop\n              jump\t// out\n                /* \"#utility.yul\":845:1196   */\n            tag_3:\n                /* \"#utility.yul\":915:921   */\n              0x00\n                /* \"#utility.yul\":964:966   */\n              0x20\n                /* \"#utility.yul\":952:961   */\n              dup3\n                /* \"#utility.yul\":943:950   */\n              dup5\n                /* \"#utility.yul\":939:962   */\n              sub\n                /* \"#utility.yul\":935:967   */\n              slt\n                /* \"#utility.yul\":932:1051   */\n              iszero\n              tag_27\n              jumpi\n                /* \"#utility.yul\":970:1049   */\n              tag_28\n              tag_8\n              jump\t// in\n            tag_28:\n                /* \"#utility.yul\":932:1051   */\n            tag_27:\n                /* \"#utility.yul\":1090:1091   */\n              0x00\n                /* \"#utility.yul\":1115:1179   */\n              tag_29\n                /* \"#utility.yul\":1171:1178   */\n              dup5\n                /* \"#utility.yul\":1162:1168   */\n              dup3\n                /* \"#utility.yul\":1151:1160   */\n              dup6\n                /* \"#utility.yul\":1147:1169   */\n              add\n                /* \"#utility.yul\":1115:1179   */\n              tag_13\n              jump\t// in\n            tag_29:\n                /* \"#utility.yul\":1105:1179   */\n              swap2\n              pop\n                /* \"#utility.yul\":1061:1189   */\n              pop\n                /* \"#utility.yul\":845:1196   */\n              swap3\n              swap2\n              pop\n              pop\n              jump\t// out\n                /* \"devs/BookManager.sol\":706:3015   */\n            tag_6:\n              dataSize(sub_0)\n              dup1\n              dataOffset(sub_0)\n              0x00\n              codecopy\n              0x00\n              return\n            stop\n\n            sub_0: assembly {\n                    /* \"devs/BookManager.sol\":706:3015   */\n                  mstore(0x40, 0x80)\n                  callvalue\n                  dup1\n                  iszero\n                  tag_1\n                  jumpi\n                  0x00\n                  dup1\n                  revert\n                tag_1:\n                  pop\n                  jumpi(tag_2, lt(calldatasize, 0x04))\n                  shr(0xe0, calldataload(0x00))\n                  dup1\n                  0x98fbce79\n                  gt\n                  tag_13\n                  jumpi\n                  dup1\n                  0x98fbce79\n                  eq\n                  tag_8\n                  jumpi\n                  dup1\n                  0xd2c07e20\n                  eq\n                  tag_9\n                  jumpi\n                  dup1\n                  0xd9ff0cf1\n                  eq\n                  tag_10\n                  jumpi\n                  dup1\n                  0xe71448a9\n                  eq\n                  tag_11\n                  jumpi\n                  dup1\n                  0xf76ebe1c\n                  eq\n                  tag_12\n                  jumpi\n                  jump(tag_2)\n                tag_13:\n                  dup1\n                  0x0a6b2a25\n                  eq\n                  tag_3\n                  jumpi\n                  dup1\n                  0x1cb71ed5\n                  eq\n                  tag_4\n                  jumpi\n                  dup1\n                  0x687564ae\n                  eq\n                  tag_5\n                  jumpi\n                  dup1\n                  0x6c230eef\n                  eq\n                  tag_6\n                  jumpi\n                  dup1\n                  0x8da5cb5b\n                  eq\n                  tag_7\n                  jumpi\n                tag_2:\n                  0x00\n                  dup1\n                  revert\n                    /* \"devs/BookManager.sol\":2842:3013   */\n                tag_3:\n                  tag_14\n                  0x04\n                  dup1\n                  calldatasize\n                  sub\n                  dup2\n                  add\n                  swap1\n                  tag_15\n                  swap2\n                  swap1\n                  tag_16\n                  jump\t// in\n                tag_15:\n                  tag_17\n                  jump\t// in\n                tag_14:\n                  stop\n                    /* \"devs/BookManager.sol\":938:981   */\n                tag_4:\n                  tag_18\n                  0x04\n                  dup1\n                  calldatasize\n                  sub\n                  dup2\n                  add\n                  swap1\n                  tag_19\n                  swap2\n                  swap1\n                  tag_20\n                  jump\t// in\n                tag_19:\n                  tag_21\n                  jump\t// in\n                tag_18:\n                  mload(0x40)\n                  tag_22\n                  swap2\n                  swap1\n                  tag_23\n                  jump\t// in\n                tag_22:\n                  mload(0x40)\n                  dup1\n                  swap2\n                  sub\n                  swap1\n                  return\n                    /* \"devs/BookManager.sol\":1198:1600   */\n                tag_5:\n                  tag_24\n                  0x04\n                  dup1\n                  calldatasize\n                  sub\n                  dup2\n                  add\n                  swap1\n                  tag_25\n                  swap2\n                  swap1\n                  tag_26\n                  jump\t// in\n                tag_25:\n                  tag_27\n                  jump\t// in\n                tag_24:\n                  stop\n                    /* \"devs/BookManager.sol\":2056:2246   */\n                tag_6:\n                  tag_28\n                  0x04\n                  dup1\n                  calldatasize\n                  sub\n                  dup2\n                  add\n                  swap1\n                  tag_29\n                  swap2\n                  swap1\n                  tag_16\n                  jump\t// in\n                tag_29:\n                  tag_30\n                  jump\t// in\n                tag_28:\n                  mload(0x40)\n                  tag_31\n                  swap2\n                  swap1\n                  tag_32\n                  jump\t// in\n                tag_31:\n                  mload(0x40)\n                  dup1\n                  swap2\n                  sub\n                  swap1\n                  return\n                    /* \"devs/BookManager.sol\":757:777   */\n                tag_7:\n                  tag_33\n                  tag_34\n                  jump\t// in\n                tag_33:\n                  mload(0x40)\n                  tag_35\n                  swap2\n                  swap1\n                  tag_36\n                  jump\t// in\n                tag_35:\n                  mload(0x40)\n                  dup1\n                  swap2\n                  sub\n                  swap1\n                  return\n                    /* \"devs/BookManager.sol\":2252:2710   */\n                tag_8:\n                  tag_37\n                  0x04\n                  dup1\n                  calldatasize\n                  sub\n                  dup2\n                  add\n                  swap1\n                  tag_38\n                  swap2\n                  swap1\n                  tag_16\n                  jump\t// in\n                tag_38:\n                  tag_39\n                  jump\t// in\n                tag_37:\n                  mload(0x40)\n                  tag_40\n                  swap6\n                  swap5\n                  swap4\n                  swap3\n                  swap2\n                  swap1\n                  tag_41\n                  jump\t// in\n                tag_40:\n                  mload(0x40)\n                  dup1\n                  swap2\n                  sub\n                  swap1\n                  return\n                    /* \"devs/BookManager.sol\":1606:2024   */\n                tag_9:\n                  tag_42\n                  0x04\n                  dup1\n                  calldatasize\n                  sub\n                  dup2\n                  add\n                  swap1\n                  tag_43\n                  swap2\n                  swap1\n                  tag_44\n                  jump\t// in\n                tag_43:\n                  tag_45\n                  jump\t// in\n                tag_42:\n                  stop\n                    /* \"devs/BookManager.sol\":846:902   */\n                tag_10:\n                  tag_46\n                  0x04\n                  dup1\n                  calldatasize\n                  sub\n                  dup2\n                  add\n                  swap1\n                  tag_47\n                  swap2\n                  swap1\n                  tag_16\n                  jump\t// in\n                tag_47:\n                  tag_48\n                  jump\t// in\n                tag_46:\n                  mload(0x40)\n                  tag_49\n                  swap6\n                  swap5\n                  swap4\n                  swap3\n                  swap2\n                  swap1\n                  tag_41\n                  jump\t// in\n                tag_49:\n                  mload(0x40)\n                  dup1\n                  swap2\n                  sub\n                  swap1\n                  return\n                    /* \"devs/BookManager.sol\":2716:2836   */\n                tag_11:\n                  tag_50\n                  0x04\n                  dup1\n                  calldatasize\n                  sub\n                  dup2\n                  add\n                  swap1\n                  tag_51\n                  swap2\n                  swap1\n                  tag_20\n                  jump\t// in\n                tag_51:\n                  tag_52\n                  jump\t// in\n                tag_50:\n                  mload(0x40)\n                  tag_53\n                  swap2\n                  swap1\n                  tag_23\n                  jump\t// in\n                tag_53:\n                  mload(0x40)\n                  dup1\n                  swap2\n                  sub\n                  swap1\n                  return\n                    /* \"devs/BookManager.sol\":821:840   */\n                tag_12:\n                  tag_54\n                  tag_55\n                  jump\t// in\n                tag_54:\n                  mload(0x40)\n                  tag_56\n                  swap2\n                  swap1\n                  tag_32\n                  jump\t// in\n                tag_56:\n                  mload(0x40)\n                  dup1\n                  swap2\n                  sub\n                  swap1\n                  return\n                    /* \"devs/BookManager.sol\":2842:3013   */\n                tag_17:\n                    /* \"devs/BookManager.sol\":2900:2939   */\n                  0x00\n                    /* \"devs/BookManager.sol\":2942:2958   */\n                  0x03\n                    /* \"devs/BookManager.sol\":2942:2970   */\n                  0x00\n                    /* \"devs/BookManager.sol\":2959:2969   */\n                  dup4\n                    /* \"devs/BookManager.sol\":2942:2970   */\n                  dup2\n                  mstore\n                  0x20\n                  add\n                  swap1\n                  dup2\n                  mstore\n                  0x20\n                  add\n                  0x00\n                  keccak256\n                    /* \"devs/BookManager.sol\":2900:2970   */\n                  swap1\n                  pop\n                    /* \"devs/BookManager.sol\":2980:2995   */\n                  dup1\n                    /* \"devs/BookManager.sol\":2980:3004   */\n                  0x03\n                  add\n                  0x00\n                    /* \"devs/BookManager.sol\":2980:3006   */\n                  dup2\n                  sload\n                  dup1\n                  swap3\n                  swap2\n                  swap1\n                  tag_58\n                  swap1\n                  tag_59\n                  jump\t// in\n                tag_58:\n                  swap2\n                  swap1\n                  pop\n                  sstore\n                  pop\n                    /* \"devs/BookManager.sol\":2890:3013   */\n                  pop\n                    /* \"devs/BookManager.sol\":2842:3013   */\n                  pop\n                  jump\t// out\n                    /* \"devs/BookManager.sol\":938:981   */\n                tag_21:\n                  0x04\n                  dup2\n                  dup1\n                  mload\n                  0x20\n                  dup2\n                  add\n                  dup3\n                  add\n                  dup1\n                  mload\n                  dup5\n                  dup3\n                  mstore\n                  0x20\n                  dup4\n                  add\n                  0x20\n                  dup6\n                  add\n                  keccak256\n                  dup2\n                  dup4\n                  mstore\n                  dup1\n                  swap6\n                  pop\n                  pop\n                  pop\n                  pop\n                  pop\n                  pop\n                  0x00\n                  swap2\n                  pop\n                  sload\n                  swap1\n                  0x0100\n                  exp\n                  swap1\n                  div\n                  0xff\n                  and\n                  dup2\n                  jump\t// out\n                    /* \"devs/BookManager.sol\":1198:1600   */\n                tag_27:\n                    /* \"devs/BookManager.sol\":1046:1056   */\n                  caller\n                    /* \"devs/BookManager.sol\":1027:1056   */\n                  0xffffffffffffffffffffffffffffffffffffffff\n                  and\n                    /* \"devs/BookManager.sol\":1027:1042   */\n                  0x01\n                  0x00\n                  swap1\n                  sload\n                  swap1\n                  0x0100\n                  exp\n                  swap1\n                  div\n                  0xffffffffffffffffffffffffffffffffffffffff\n                  and\n                    /* \"devs/BookManager.sol\":1027:1056   */\n                  0xffffffffffffffffffffffffffffffffffffffff\n                  and\n                  eq\n                    /* \"devs/BookManager.sol\":1019:1057   */\n                  tag_61\n                  jumpi\n                  0x00\n                  dup1\n                  revert\n                tag_61:\n                    /* \"devs/BookManager.sol\":1335:1363   */\n                  0x00\n                    /* \"devs/BookManager.sol\":1366:1382   */\n                  0x03\n                    /* \"devs/BookManager.sol\":1366:1393   */\n                  0x00\n                    /* \"devs/BookManager.sol\":1383:1390   */\n                  0x02\n                  0x00\n                    /* \"devs/BookManager.sol\":1383:1392   */\n                  dup2\n                  sload\n                  dup1\n                  swap3\n                  swap2\n                  swap1\n                  tag_63\n                  swap1\n                  tag_59\n                  jump\t// in\n                tag_63:\n                  swap2\n                  swap1\n                  pop\n                  sstore\n                    /* \"devs/BookManager.sol\":1366:1393   */\n                  dup2\n                  mstore\n                  0x20\n                  add\n                  swap1\n                  dup2\n                  mstore\n                  0x20\n                  add\n                  0x00\n                  keccak256\n                    /* \"devs/BookManager.sol\":1335:1393   */\n                  swap1\n                  pop\n                    /* \"devs/BookManager.sol\":1417:1424   */\n                  dup5\n                    /* \"devs/BookManager.sol\":1403:1407   */\n                  dup2\n                    /* \"devs/BookManager.sol\":1403:1414   */\n                  0x00\n                  add\n                    /* \"devs/BookManager.sol\":1403:1424   */\n                  swap1\n                  dup1\n                  mload\n                  swap1\n                  0x20\n                  add\n                  swap1\n                  tag_64\n                  swap3\n                  swap2\n                  swap1\n                  tag_65\n                  jump\t// in\n                tag_64:\n                  pop\n                    /* \"devs/BookManager.sol\":1447:1453   */\n                  dup4\n                    /* \"devs/BookManager.sol\":1434:1438   */\n                  dup2\n                    /* \"devs/BookManager.sol\":1434:1444   */\n                  0x01\n                  add\n                    /* \"devs/BookManager.sol\":1434:1453   */\n                  swap1\n                  dup1\n                  mload\n                  swap1\n                  0x20\n                  add\n                  swap1\n                  tag_66\n                  swap3\n                  swap2\n                  swap1\n                  tag_65\n                  jump\t// in\n                tag_66:\n                  pop\n                    /* \"devs/BookManager.sol\":1476:1482   */\n                  dup3\n                    /* \"devs/BookManager.sol\":1463:1467   */\n                  dup2\n                    /* \"devs/BookManager.sol\":1463:1473   */\n                  0x02\n                  add\n                    /* \"devs/BookManager.sol\":1463:1482   */\n                  dup2\n                  swap1\n                  sstore\n                  pop\n                    /* \"devs/BookManager.sol\":1508:1509   */\n                  0x00\n                    /* \"devs/BookManager.sol\":1492:1496   */\n                  dup2\n                    /* \"devs/BookManager.sol\":1492:1505   */\n                  0x03\n                  add\n                    /* \"devs/BookManager.sol\":1492:1509   */\n                  dup2\n                  swap1\n                  sstore\n                  pop\n                    /* \"devs/BookManager.sol\":1540:1554   */\n                  dup2\n                    /* \"devs/BookManager.sol\":1519:1523   */\n                  dup2\n                    /* \"devs/BookManager.sol\":1519:1537   */\n                  0x04\n                  add\n                  0x00\n                    /* \"devs/BookManager.sol\":1519:1554   */\n                  0x0100\n                  exp\n                  dup2\n                  sload\n                  dup2\n                  0xffffffffffffffffffffffffffffffffffffffff\n                  mul\n                  not\n                  and\n                  swap1\n                  dup4\n                  0xffffffffffffffffffffffffffffffffffffffff\n                  and\n                  mul\n                  or\n                  swap1\n                  sstore\n                  pop\n                    /* \"devs/BookManager.sol\":1589:1593   */\n                  0x01\n                    /* \"devs/BookManager.sol\":1565:1577   */\n                  0x04\n                    /* \"devs/BookManager.sol\":1578:1585   */\n                  dup7\n                    /* \"devs/BookManager.sol\":1565:1586   */\n                  mload(0x40)\n                  tag_67\n                  swap2\n                  swap1\n                  tag_68\n                  jump\t// in\n                tag_67:\n                  swap1\n                  dup2\n                  mstore\n                  0x20\n                  add\n                  mload(0x40)\n                  dup1\n                  swap2\n                  sub\n                  swap1\n                  keccak256\n                  0x00\n                    /* \"devs/BookManager.sol\":1565:1593   */\n                  0x0100\n                  exp\n                  dup2\n                  sload\n                  dup2\n                  0xff\n                  mul\n                  not\n                  and\n                  swap1\n                  dup4\n                  iszero\n                  iszero\n                  mul\n                  or\n                  swap1\n                  sstore\n                  pop\n                    /* \"devs/BookManager.sol\":1325:1600   */\n                  pop\n                    /* \"devs/BookManager.sol\":1198:1600   */\n                  pop\n                  pop\n                  pop\n                  pop\n                  jump\t// out\n                    /* \"devs/BookManager.sol\":2056:2246   */\n                tag_30:\n                    /* \"devs/BookManager.sol\":2117:2121   */\n                  0x00\n                    /* \"devs/BookManager.sol\":2132:2170   */\n                  dup1\n                    /* \"devs/BookManager.sol\":2173:2189   */\n                  0x03\n                    /* \"devs/BookManager.sol\":2173:2201   */\n                  0x00\n                    /* \"devs/BookManager.sol\":2190:2200   */\n                  dup5\n                    /* \"devs/BookManager.sol\":2173:2201   */\n                  dup2\n                  mstore\n                  0x20\n                  add\n                  swap1\n                  dup2\n                  mstore\n                  0x20\n                  add\n                  0x00\n                  keccak256\n                    /* \"devs/BookManager.sol\":2132:2201   */\n                  mload(0x40)\n                  dup1\n                  0xa0\n                  add\n                  0x40\n                  mstore\n                  swap1\n                  dup2\n                  0x00\n                  dup3\n                  add\n                  dup1\n                  sload\n                  tag_70\n                  swap1\n                  tag_71\n                  jump\t// in\n                tag_70:\n                  dup1\n                  0x1f\n                  add\n                  0x20\n                  dup1\n                  swap2\n                  div\n                  mul\n                  0x20\n                  add\n                  mload(0x40)\n                  swap1\n                  dup2\n                  add\n                  0x40\n                  mstore\n                  dup1\n                  swap3\n                  swap2\n                  swap1\n                  dup2\n                  dup2\n                  mstore\n                  0x20\n                  add\n                  dup3\n                  dup1\n                  sload\n                  tag_72\n                  swap1\n                  tag_71\n                  jump\t// in\n                tag_72:\n                  dup1\n                  iszero\n                  tag_73\n                  jumpi\n                  dup1\n                  0x1f\n                  lt\n                  tag_74\n                  jumpi\n                  0x0100\n                  dup1\n                  dup4\n                  sload\n                  div\n                  mul\n                  dup4\n                  mstore\n                  swap2\n                  0x20\n                  add\n                  swap2\n                  jump(tag_73)\n                tag_74:\n                  dup3\n                  add\n                  swap2\n                  swap1\n                  0x00\n                  mstore\n                  keccak256(0x00, 0x20)\n                  swap1\n                tag_75:\n                  dup2\n                  sload\n                  dup2\n                  mstore\n                  swap1\n                  0x01\n                  add\n                  swap1\n                  0x20\n                  add\n                  dup1\n                  dup4\n                  gt\n                  tag_75\n                  jumpi\n                  dup3\n                  swap1\n                  sub\n                  0x1f\n                  and\n                  dup3\n                  add\n                  swap2\n                tag_73:\n                  pop\n                  pop\n                  pop\n                  pop\n                  pop\n                  dup2\n                  mstore\n                  0x20\n                  add\n                  0x01\n                  dup3\n                  add\n                  dup1\n                  sload\n                  tag_76\n                  swap1\n                  tag_71\n                  jump\t// in\n                tag_76:\n                  dup1\n                  0x1f\n                  add\n                  0x20\n                  dup1\n                  swap2\n                  div\n                  mul\n                  0x20\n                  add\n                  mload(0x40)\n                  swap1\n                  dup2\n                  add\n                  0x40\n                  mstore\n                  dup1\n                  swap3\n                  swap2\n                  swap1\n                  dup2\n                  dup2\n                  mstore\n                  0x20\n                  add\n                  dup3\n                  dup1\n                  sload\n                  tag_77\n                  swap1\n                  tag_71\n                  jump\t// in\n                tag_77:\n                  dup1\n                  iszero\n                  tag_78\n                  jumpi\n                  dup1\n                  0x1f\n                  lt\n                  tag_79\n                  jumpi\n                  0x0100\n                  dup1\n                  dup4\n                  sload\n                  div\n                  mul\n                  dup4\n                  mstore\n                  swap2\n                  0x20\n                  add\n                  swap2\n                  jump(tag_78)\n                tag_79:\n                  dup3\n                  add\n                  swap2\n                  swap1\n                  0x00\n                  mstore\n                  keccak256(0x00, 0x20)\n                  swap1\n                tag_80:\n                  dup2\n                  sload\n                  dup2\n                  mstore\n                  swap1\n                  0x01\n                  add\n                  swap1\n                  0x20\n                  add\n                  dup1\n                  dup4\n                  gt\n                  tag_80\n                  jumpi\n                  dup3\n                  swap1\n                  sub\n                  0x1f\n                  and\n                  dup3\n                  add\n                  swap2\n                tag_78:\n                  pop\n                  pop\n                  pop\n                  pop\n                  pop\n                  dup2\n                  mstore\n                  0x20\n                  add\n                  0x02\n                  dup3\n                  add\n                  sload\n                  dup2\n                  mstore\n                  0x20\n                  add\n                  0x03\n                  dup3\n                  add\n                  sload\n                  dup2\n                  mstore\n                  0x20\n                  add\n                  0x04\n                  dup3\n                  add\n                  0x00\n                  swap1\n                  sload\n                  swap1\n                  0x0100\n                  exp\n                  swap1\n                  div\n                  0xffffffffffffffffffffffffffffffffffffffff\n                  and\n                  0xffffffffffffffffffffffffffffffffffffffff\n                  and\n                  0xffffffffffffffffffffffffffffffffffffffff\n                  and\n                  dup2\n                  mstore\n                  pop\n                  pop\n                  swap1\n                  pop\n                    /* \"devs/BookManager.sol\":2218:2233   */\n                  dup1\n                    /* \"devs/BookManager.sol\":2218:2239   */\n                  0x40\n                  add\n                  mload\n                    /* \"devs/BookManager.sol\":2211:2239   */\n                  swap2\n                  pop\n                  pop\n                    /* \"devs/BookManager.sol\":2056:2246   */\n                  swap2\n                  swap1\n                  pop\n                  jump\t// out\n                    /* \"devs/BookManager.sol\":757:777   */\n                tag_34:\n                  0x00\n                  dup1\n                  sload\n                  swap1\n                  0x0100\n                  exp\n                  swap1\n                  div\n                  0xffffffffffffffffffffffffffffffffffffffff\n                  and\n                  dup2\n                  jump\t// out\n                    /* \"devs/BookManager.sol\":2252:2710   */\n                tag_39:\n                    /* \"devs/BookManager.sol\":2328:2341   */\n                  0x60\n                    /* \"devs/BookManager.sol\":2343:2356   */\n                  dup1\n                    /* \"devs/BookManager.sol\":2358:2362   */\n                  0x00\n                    /* \"devs/BookManager.sol\":2364:2368   */\n                  dup1\n                    /* \"devs/BookManager.sol\":2370:2377   */\n                  0x00\n                    /* \"devs/BookManager.sol\":2392:2430   */\n                  dup1\n                    /* \"devs/BookManager.sol\":2433:2449   */\n                  0x03\n                    /* \"devs/BookManager.sol\":2433:2461   */\n                  0x00\n                    /* \"devs/BookManager.sol\":2450:2460   */\n                  dup9\n                    /* \"devs/BookManager.sol\":2433:2461   */\n                  dup2\n                  mstore\n                  0x20\n                  add\n                  swap1\n                  dup2\n                  mstore\n                  0x20\n                  add\n                  0x00\n                  keccak256\n                    /* \"devs/BookManager.sol\":2392:2461   */\n                  mload(0x40)\n                  dup1\n                  0xa0\n                  add\n                  0x40\n                  mstore\n                  swap1\n                  dup2\n                  0x00\n                  dup3\n                  add\n                  dup1\n                  sload\n                  tag_82\n                  swap1\n                  tag_71\n                  jump\t// in\n                tag_82:\n                  dup1\n                  0x1f\n                  add\n                  0x20\n                  dup1\n                  swap2\n                  div\n                  mul\n                  0x20\n                  add\n                  mload(0x40)\n                  swap1\n                  dup2\n                  add\n                  0x40\n                  mstore\n                  dup1\n                  swap3\n                  swap2\n                  swap1\n                  dup2\n                  dup2\n                  mstore\n                  0x20\n                  add\n                  dup3\n                  dup1\n                  sload\n                  tag_83\n                  swap1\n                  tag_71\n                  jump\t// in\n                tag_83:\n                  dup1\n                  iszero\n                  tag_84\n                  jumpi\n                  dup1\n                  0x1f\n                  lt\n                  tag_85\n                  jumpi\n                  0x0100\n                  dup1\n                  dup4\n                  sload\n                  div\n                  mul\n                  dup4\n                  mstore\n                  swap2\n                  0x20\n                  add\n                  swap2\n                  jump(tag_84)\n                tag_85:\n                  dup3\n                  add\n                  swap2\n                  swap1\n                  0x00\n                  mstore\n                  keccak256(0x00, 0x20)\n                  swap1\n                tag_86:\n                  dup2\n                  sload\n                  dup2\n                  mstore\n                  swap1\n                  0x01\n                  add\n                  swap1\n                  0x20\n                  add\n                  dup1\n                  dup4\n                  gt\n                  tag_86\n                  jumpi\n                  dup3\n                  swap1\n                  sub\n                  0x1f\n                  and\n                  dup3\n                  add\n                  swap2\n                tag_84:\n                  pop\n                  pop\n                  pop\n                  pop\n                  pop\n                  dup2\n                  mstore\n                  0x20\n                  add\n                  0x01\n                  dup3\n                  add\n                  dup1\n                  sload\n                  tag_87\n                  swap1\n                  tag_71\n                  jump\t// in\n                tag_87:\n                  dup1\n                  0x1f\n                  add\n                  0x20\n                  dup1\n                  swap2\n                  div\n                  mul\n                  0x20\n                  add\n                  mload(0x40)\n                  swap1\n                  dup2\n                  add\n                  0x40\n                  mstore\n                  dup1\n                  swap3\n                  swap2\n                  swap1\n                  dup2\n                  dup2\n                  mstore\n                  0x20\n                  add\n                  dup3\n                  dup1\n                  sload\n                  tag_88\n                  swap1\n                  tag_71\n                  jump\t// in\n                tag_88:\n                  dup1\n                  iszero\n                  tag_89\n                  jumpi\n                  dup1\n                  0x1f\n                  lt\n                  tag_90\n                  jumpi\n                  0x0100\n                  dup1\n                  dup4\n                  sload\n                  div\n                  mul\n                  dup4\n                  mstore\n                  swap2\n                  0x20\n                  add\n                  swap2\n                  jump(tag_89)\n                tag_90:\n                  dup3\n                  add\n                  swap2\n                  swap1\n                  0x00\n                  mstore\n                  keccak256(0x00, 0x20)\n                  swap1\n                tag_91:\n                  dup2\n                  sload\n                  dup2\n                  mstore\n                  swap1\n                  0x01\n                  add\n                  swap1\n                  0x20\n                  add\n                  dup1\n                  dup4\n                  gt\n                  tag_91\n                  jumpi\n                  dup3\n                  swap1\n                  sub\n                  0x1f\n                  and\n                  dup3\n                  add\n                  swap2\n                tag_89:\n                  pop\n                  pop\n                  pop\n                  pop\n                  pop\n                  dup2\n                  mstore\n                  0x20\n                  add\n                  0x02\n                  dup3\n                  add\n                  sload\n                  dup2\n                  mstore\n                  0x20\n                  add\n                  0x03\n                  dup3\n                  add\n                  sload\n                  dup2\n                  mstore\n                  0x20\n                  add\n                  0x04\n                  dup3\n                  add\n                  0x00\n                  swap1\n                  sload\n                  swap1\n                  0x0100\n                  exp\n                  swap1\n                  div\n                  0xffffffffffffffffffffffffffffffffffffffff\n                  and\n                  0xffffffffffffffffffffffffffffffffffffffff\n                  and\n                  0xffffffffffffffffffffffffffffffffffffffff\n                  and\n                  dup2\n                  mstore\n                  pop\n                  pop\n                  swap1\n                  pop\n                    /* \"devs/BookManager.sol\":2500:2515   */\n                  dup1\n                    /* \"devs/BookManager.sol\":2500:2522   */\n                  0x00\n                  add\n                  mload\n                    /* \"devs/BookManager.sol\":2540:2555   */\n                  dup2\n                    /* \"devs/BookManager.sol\":2540:2561   */\n                  0x20\n                  add\n                  mload\n                    /* \"devs/BookManager.sol\":2579:2594   */\n                  dup3\n                    /* \"devs/BookManager.sol\":2579:2600   */\n                  0x40\n                  add\n                  mload\n                    /* \"devs/BookManager.sol\":2618:2633   */\n                  dup4\n                    /* \"devs/BookManager.sol\":2618:2642   */\n                  0x60\n                  add\n                  mload\n                    /* \"devs/BookManager.sol\":2660:2675   */\n                  dup5\n                    /* \"devs/BookManager.sol\":2660:2689   */\n                  0x80\n                  add\n                  mload\n                    /* \"devs/BookManager.sol\":2475:2703   */\n                  swap6\n                  pop\n                  swap6\n                  pop\n                  swap6\n                  pop\n                  swap6\n                  pop\n                  swap6\n                  pop\n                  pop\n                    /* \"devs/BookManager.sol\":2252:2710   */\n                  swap2\n                  swap4\n                  swap6\n                  swap1\n                  swap3\n                  swap5\n                  pop\n                  jump\t// out\n                    /* \"devs/BookManager.sol\":1606:2024   */\n                tag_45:\n                    /* \"devs/BookManager.sol\":1046:1056   */\n                  caller\n                    /* \"devs/BookManager.sol\":1027:1056   */\n                  0xffffffffffffffffffffffffffffffffffffffff\n                  and\n                    /* \"devs/BookManager.sol\":1027:1042   */\n                  0x01\n                  0x00\n                  swap1\n                  sload\n                  swap1\n                  0x0100\n                  exp\n                  swap1\n                  div\n                  0xffffffffffffffffffffffffffffffffffffffff\n                  and\n                    /* \"devs/BookManager.sol\":1027:1056   */\n                  0xffffffffffffffffffffffffffffffffffffffff\n                  and\n                  eq\n                    /* \"devs/BookManager.sol\":1019:1057   */\n                  tag_93\n                  jumpi\n                  0x00\n                  dup1\n                  revert\n                tag_93:\n                    /* \"devs/BookManager.sol\":1797:1825   */\n                  0x00\n                    /* \"devs/BookManager.sol\":1828:1844   */\n                  0x03\n                    /* \"devs/BookManager.sol\":1828:1856   */\n                  0x00\n                    /* \"devs/BookManager.sol\":1845:1855   */\n                  dup8\n                    /* \"devs/BookManager.sol\":1828:1856   */\n                  dup2\n                  mstore\n                  0x20\n                  add\n                  swap1\n                  dup2\n                  mstore\n                  0x20\n                  add\n                  0x00\n                  keccak256\n                    /* \"devs/BookManager.sol\":1797:1856   */\n                  swap1\n                  pop\n                    /* \"devs/BookManager.sol\":1880:1887   */\n                  dup5\n                    /* \"devs/BookManager.sol\":1866:1870   */\n                  dup2\n                    /* \"devs/BookManager.sol\":1866:1877   */\n                  0x00\n                  add\n                    /* \"devs/BookManager.sol\":1866:1887   */\n                  swap1\n                  dup1\n                  mload\n                  swap1\n                  0x20\n                  add\n                  swap1\n                  tag_95\n                  swap3\n                  swap2\n                  swap1\n                  tag_65\n                  jump\t// in\n                tag_95:\n                  pop\n                    /* \"devs/BookManager.sol\":1910:1916   */\n                  dup4\n                    /* \"devs/BookManager.sol\":1897:1901   */\n                  dup2\n                    /* \"devs/BookManager.sol\":1897:1907   */\n                  0x01\n                  add\n                    /* \"devs/BookManager.sol\":1897:1916   */\n                  swap1\n                  dup1\n                  mload\n                  swap1\n                  0x20\n                  add\n                  swap1\n                  tag_96\n                  swap3\n                  swap2\n                  swap1\n                  tag_65\n                  jump\t// in\n                tag_96:\n                  pop\n                    /* \"devs/BookManager.sol\":1939:1945   */\n                  dup3\n                    /* \"devs/BookManager.sol\":1926:1930   */\n                  dup2\n                    /* \"devs/BookManager.sol\":1926:1936   */\n                  0x02\n                  add\n                    /* \"devs/BookManager.sol\":1926:1945   */\n                  dup2\n                  swap1\n                  sstore\n                  pop\n                    /* \"devs/BookManager.sol\":1971:1972   */\n                  0x00\n                    /* \"devs/BookManager.sol\":1955:1959   */\n                  dup2\n                    /* \"devs/BookManager.sol\":1955:1968   */\n                  0x03\n                  add\n                    /* \"devs/BookManager.sol\":1955:1972   */\n                  dup2\n                  swap1\n                  sstore\n                  pop\n                    /* \"devs/BookManager.sol\":2003:2017   */\n                  dup2\n                    /* \"devs/BookManager.sol\":1982:1986   */\n                  dup2\n                    /* \"devs/BookManager.sol\":1982:2000   */\n                  0x04\n                  add\n                  0x00\n                    /* \"devs/BookManager.sol\":1982:2017   */\n                  0x0100\n                  exp\n                  dup2\n                  sload\n                  dup2\n                  0xffffffffffffffffffffffffffffffffffffffff\n                  mul\n                  not\n                  and\n                  swap1\n                  dup4\n                  0xffffffffffffffffffffffffffffffffffffffff\n                  and\n                  mul\n                  or\n                  swap1\n                  sstore\n                  pop\n                    /* \"devs/BookManager.sol\":1752:2024   */\n                  pop\n                    /* \"devs/BookManager.sol\":1606:2024   */\n                  pop\n                  pop\n                  pop\n                  pop\n                  pop\n                  jump\t// out\n                    /* \"devs/BookManager.sol\":846:902   */\n                tag_48:\n                  mstore(0x20, 0x03)\n                  dup1\n                  0x00\n                  mstore\n                  keccak256(0x00, 0x40)\n                  0x00\n                  swap2\n                  pop\n                  swap1\n                  pop\n                  dup1\n                  0x00\n                  add\n                  dup1\n                  sload\n                  tag_97\n                  swap1\n                  tag_71\n                  jump\t// in\n                tag_97:\n                  dup1\n                  0x1f\n                  add\n                  0x20\n                  dup1\n                  swap2\n                  div\n                  mul\n                  0x20\n                  add\n                  mload(0x40)\n                  swap1\n                  dup2\n                  add\n                  0x40\n                  mstore\n                  dup1\n                  swap3\n                  swap2\n                  swap1\n                  dup2\n                  dup2\n                  mstore\n                  0x20\n                  add\n                  dup3\n                  dup1\n                  sload\n                  tag_98\n                  swap1\n                  tag_71\n                  jump\t// in\n                tag_98:\n                  dup1\n                  iszero\n                  tag_99\n                  jumpi\n                  dup1\n                  0x1f\n                  lt\n                  tag_100\n                  jumpi\n                  0x0100\n                  dup1\n                  dup4\n                  sload\n                  div\n                  mul\n                  dup4\n                  mstore\n                  swap2\n                  0x20\n                  add\n                  swap2\n                  jump(tag_99)\n                tag_100:\n                  dup3\n                  add\n                  swap2\n                  swap1\n                  0x00\n                  mstore\n                  keccak256(0x00, 0x20)\n                  swap1\n                tag_101:\n                  dup2\n                  sload\n                  dup2\n                  mstore\n                  swap1\n                  0x01\n                  add\n                  swap1\n                  0x20\n                  add\n                  dup1\n                  dup4\n                  gt\n                  tag_101\n                  jumpi\n                  dup3\n                  swap1\n                  sub\n                  0x1f\n                  and\n                  dup3\n                  add\n                  swap2\n                tag_99:\n                  pop\n                  pop\n                  pop\n                  pop\n                  pop\n                  swap1\n                  dup1\n                  0x01\n                  add\n                  dup1\n                  sload\n                  tag_102\n                  swap1\n                  tag_71\n                  jump\t// in\n                tag_102:\n                  dup1\n                  0x1f\n                  add\n                  0x20\n                  dup1\n                  swap2\n                  div\n                  mul\n                  0x20\n                  add\n                  mload(0x40)\n                  swap1\n                  dup2\n                  add\n                  0x40\n                  mstore\n                  dup1\n                  swap3\n                  swap2\n                  swap1\n                  dup2\n                  dup2\n                  mstore\n                  0x20\n                  add\n                  dup3\n                  dup1\n                  sload\n                  tag_103\n                  swap1\n                  tag_71\n                  jump\t// in\n                tag_103:\n                  dup1\n                  iszero\n                  tag_104\n                  jumpi\n                  dup1\n                  0x1f\n                  lt\n                  tag_105\n                  jumpi\n                  0x0100\n                  dup1\n                  dup4\n                  sload\n                  div\n                  mul\n                  dup4\n                  mstore\n                  swap2\n                  0x20\n                  add\n                  swap2\n                  jump(tag_104)\n                tag_105:\n                  dup3\n                  add\n                  swap2\n                  swap1\n                  0x00\n                  mstore\n                  keccak256(0x00, 0x20)\n                  swap1\n                tag_106:\n                  dup2\n                  sload\n                  dup2\n                  mstore\n                  swap1\n                  0x01\n                  add\n                  swap1\n                  0x20\n                  add\n                  dup1\n                  dup4\n                  gt\n                  tag_106\n                  jumpi\n                  dup3\n                  swap1\n                  sub\n                  0x1f\n                  and\n                  dup3\n                  add\n                  swap2\n                tag_104:\n                  pop\n                  pop\n                  pop\n                  pop\n                  pop\n                  swap1\n                  dup1\n                  0x02\n                  add\n                  sload\n                  swap1\n                  dup1\n                  0x03\n                  add\n                  sload\n                  swap1\n                  dup1\n                  0x04\n                  add\n                  0x00\n                  swap1\n                  sload\n                  swap1\n                  0x0100\n                  exp\n                  swap1\n                  div\n                  0xffffffffffffffffffffffffffffffffffffffff\n                  and\n                  swap1\n                  pop\n                  dup6\n                  jump\t// out\n                    /* \"devs/BookManager.sol\":2716:2836   */\n                tag_52:\n                    /* \"devs/BookManager.sol\":2786:2790   */\n                  0x00\n                    /* \"devs/BookManager.sol\":2808:2820   */\n                  0x04\n                    /* \"devs/BookManager.sol\":2821:2828   */\n                  dup3\n                    /* \"devs/BookManager.sol\":2808:2829   */\n                  mload(0x40)\n                  tag_108\n                  swap2\n                  swap1\n                  tag_68\n                  jump\t// in\n                tag_108:\n                  swap1\n                  dup2\n                  mstore\n                  0x20\n                  add\n                  mload(0x40)\n                  dup1\n                  swap2\n                  sub\n                  swap1\n                  keccak256\n                  0x00\n                  swap1\n                  sload\n                  swap1\n                  0x0100\n                  exp\n                  swap1\n                  div\n                  0xff\n                  and\n                    /* \"devs/BookManager.sol\":2801:2829   */\n                  swap1\n                  pop\n                    /* \"devs/BookManager.sol\":2716:2836   */\n                  swap2\n                  swap1\n                  pop\n                  jump\t// out\n                    /* \"devs/BookManager.sol\":821:840   */\n                tag_55:\n                  sload(0x02)\n                  dup2\n                  jump\t// out\n                tag_65:\n                  dup3\n                  dup1\n                  sload\n                  tag_109\n                  swap1\n                  tag_71\n                  jump\t// in\n                tag_109:\n                  swap1\n                  0x00\n                  mstore\n                  keccak256(0x00, 0x20)\n                  swap1\n                  0x1f\n                  add\n                  0x20\n                  swap1\n                  div\n                  dup2\n                  add\n                  swap3\n                  dup3\n                  tag_111\n                  jumpi\n                  0x00\n                  dup6\n                  sstore\n                  jump(tag_110)\n                tag_111:\n                  dup3\n                  0x1f\n                  lt\n                  tag_112\n                  jumpi\n                  dup1\n                  mload\n                  not(0xff)\n                  and\n                  dup4\n                  dup1\n                  add\n                  or\n                  dup6\n                  sstore\n                  jump(tag_110)\n                tag_112:\n                  dup3\n                  dup1\n                  add\n                  0x01\n                  add\n                  dup6\n                  sstore\n                  dup3\n                  iszero\n                  tag_110\n                  jumpi\n                  swap2\n                  dup3\n                  add\n                tag_113:\n                  dup3\n                  dup2\n                  gt\n                  iszero\n                  tag_114\n                  jumpi\n                  dup3\n                  mload\n                  dup3\n                  sstore\n                  swap2\n                  0x20\n                  add\n                  swap2\n                  swap1\n                  0x01\n                  add\n                  swap1\n                  jump(tag_113)\n                tag_114:\n                tag_110:\n                  pop\n                  swap1\n                  pop\n                  tag_115\n                  swap2\n                  swap1\n                  tag_116\n                  jump\t// in\n                tag_115:\n                  pop\n                  swap1\n                  jump\t// out\n                tag_116:\n                tag_117:\n                  dup1\n                  dup3\n                  gt\n                  iszero\n                  tag_118\n                  jumpi\n                  0x00\n                  dup2\n                  0x00\n                  swap1\n                  sstore\n                  pop\n                  0x01\n                  add\n                  jump(tag_117)\n                tag_118:\n                  pop\n                  swap1\n                  jump\t// out\n                    /* \"#utility.yul\":7:82   */\n                tag_119:\n                    /* \"#utility.yul\":40:46   */\n                  0x00\n                    /* \"#utility.yul\":73:75   */\n                  0x40\n                    /* \"#utility.yul\":67:76   */\n                  mload\n                    /* \"#utility.yul\":57:76   */\n                  swap1\n                  pop\n                    /* \"#utility.yul\":7:82   */\n                  swap1\n                  jump\t// out\n                    /* \"#utility.yul\":88:205   */\n                tag_120:\n                    /* \"#utility.yul\":197:198   */\n                  0x00\n                    /* \"#utility.yul\":194:195   */\n                  dup1\n                    /* \"#utility.yul\":187:199   */\n                  revert\n                    /* \"#utility.yul\":211:328   */\n                tag_121:\n                    /* \"#utility.yul\":320:321   */\n                  0x00\n                    /* \"#utility.yul\":317:318   */\n                  dup1\n                    /* \"#utility.yul\":310:322   */\n                  revert\n                    /* \"#utility.yul\":334:411   */\n                tag_122:\n                    /* \"#utility.yul\":371:378   */\n                  0x00\n                    /* \"#utility.yul\":400:405   */\n                  dup2\n                    /* \"#utility.yul\":389:405   */\n                  swap1\n                  pop\n                    /* \"#utility.yul\":334:411   */\n                  swap2\n                  swap1\n                  pop\n                  jump\t// out\n                    /* \"#utility.yul\":417:539   */\n                tag_123:\n                    /* \"#utility.yul\":490:514   */\n                  tag_157\n                    /* \"#utility.yul\":508:513   */\n                  dup2\n                    /* \"#utility.yul\":490:514   */\n                  tag_122\n                  jump\t// in\n                tag_157:\n                    /* \"#utility.yul\":483:488   */\n                  dup2\n                    /* \"#utility.yul\":480:515   */\n                  eq\n                    /* \"#utility.yul\":470:533   */\n                  tag_158\n                  jumpi\n                    /* \"#utility.yul\":529:530   */\n                  0x00\n                    /* \"#utility.yul\":526:527   */\n                  dup1\n                    /* \"#utility.yul\":519:531   */\n                  revert\n                    /* \"#utility.yul\":470:533   */\n                tag_158:\n                    /* \"#utility.yul\":417:539   */\n                  pop\n                  jump\t// out\n                    /* \"#utility.yul\":545:684   */\n                tag_124:\n                    /* \"#utility.yul\":591:596   */\n                  0x00\n                    /* \"#utility.yul\":629:635   */\n                  dup2\n                    /* \"#utility.yul\":616:636   */\n                  calldataload\n                    /* \"#utility.yul\":607:636   */\n                  swap1\n                  pop\n                    /* \"#utility.yul\":645:678   */\n                  tag_160\n                    /* \"#utility.yul\":672:677   */\n                  dup2\n                    /* \"#utility.yul\":645:678   */\n                  tag_123\n                  jump\t// in\n                tag_160:\n                    /* \"#utility.yul\":545:684   */\n                  swap3\n                  swap2\n                  pop\n                  pop\n                  jump\t// out\n                    /* \"#utility.yul\":690:1019   */\n                tag_16:\n                    /* \"#utility.yul\":749:755   */\n                  0x00\n                    /* \"#utility.yul\":798:800   */\n                  0x20\n                    /* \"#utility.yul\":786:795   */\n                  dup3\n                    /* \"#utility.yul\":777:784   */\n                  dup5\n                    /* \"#utility.yul\":773:796   */\n                  sub\n                    /* \"#utility.yul\":769:801   */\n                  slt\n                    /* \"#utility.yul\":766:885   */\n                  iszero\n                  tag_162\n                  jumpi\n                    /* \"#utility.yul\":804:883   */\n                  tag_163\n                  tag_120\n                  jump\t// in\n                tag_163:\n                    /* \"#utility.yul\":766:885   */\n                tag_162:\n                    /* \"#utility.yul\":924:925   */\n                  0x00\n                    /* \"#utility.yul\":949:1002   */\n                  tag_164\n                    /* \"#utility.yul\":994:1001   */\n                  dup5\n                    /* \"#utility.yul\":985:991   */\n                  dup3\n                    /* \"#utility.yul\":974:983   */\n                  dup6\n                    /* \"#utility.yul\":970:992   */\n                  add\n                    /* \"#utility.yul\":949:1002   */\n                  tag_124\n                  jump\t// in\n                tag_164:\n                    /* \"#utility.yul\":939:1002   */\n                  swap2\n                  pop\n                    /* \"#utility.yul\":895:1012   */\n                  pop\n                    /* \"#utility.yul\":690:1019   */\n                  swap3\n                  swap2\n                  pop\n                  pop\n                  jump\t// out\n                    /* \"#utility.yul\":1025:1142   */\n                tag_125:\n                    /* \"#utility.yul\":1134:1135   */\n                  0x00\n                    /* \"#utility.yul\":1131:1132   */\n                  dup1\n                    /* \"#utility.yul\":1124:1136   */\n                  revert\n                    /* \"#utility.yul\":1148:1265   */\n                tag_126:\n                    /* \"#utility.yul\":1257:1258   */\n                  0x00\n                    /* \"#utility.yul\":1254:1255   */\n                  dup1\n                    /* \"#utility.yul\":1247:1259   */\n                  revert\n                    /* \"#utility.yul\":1271:1373   */\n                tag_127:\n                    /* \"#utility.yul\":1312:1318   */\n                  0x00\n                    /* \"#utility.yul\":1363:1365   */\n                  0x1f\n                    /* \"#utility.yul\":1359:1366   */\n                  not\n                    /* \"#utility.yul\":1354:1356   */\n                  0x1f\n                    /* \"#utility.yul\":1347:1352   */\n                  dup4\n                    /* \"#utility.yul\":1343:1357   */\n                  add\n                    /* \"#utility.yul\":1339:1367   */\n                  and\n                    /* \"#utility.yul\":1329:1367   */\n                  swap1\n                  pop\n                    /* \"#utility.yul\":1271:1373   */\n                  swap2\n                  swap1\n                  pop\n                  jump\t// out\n                    /* \"#utility.yul\":1379:1559   */\n                tag_128:\n                    /* \"#utility.yul\":1427:1504   */\n                  0x4e487b7100000000000000000000000000000000000000000000000000000000\n                    /* \"#utility.yul\":1424:1425   */\n                  0x00\n                    /* \"#utility.yul\":1417:1505   */\n                  mstore\n                    /* \"#utility.yul\":1524:1528   */\n                  0x41\n                    /* \"#utility.yul\":1521:1522   */\n                  0x04\n                    /* \"#utility.yul\":1514:1529   */\n                  mstore\n                    /* \"#utility.yul\":1548:1552   */\n                  0x24\n                    /* \"#utility.yul\":1545:1546   */\n                  0x00\n                    /* \"#utility.yul\":1538:1553   */\n                  revert\n                    /* \"#utility.yul\":1565:1846   */\n                tag_129:\n                    /* \"#utility.yul\":1648:1675   */\n                  tag_170\n                    /* \"#utility.yul\":1670:1674   */\n                  dup3\n                    /* \"#utility.yul\":1648:1675   */\n                  tag_127\n                  jump\t// in\n                tag_170:\n                    /* \"#utility.yul\":1640:1646   */\n                  dup2\n                    /* \"#utility.yul\":1636:1676   */\n                  add\n                    /* \"#utility.yul\":1778:1784   */\n                  dup2\n                    /* \"#utility.yul\":1766:1776   */\n                  dup2\n                    /* \"#utility.yul\":1763:1785   */\n                  lt\n                    /* \"#utility.yul\":1742:1760   */\n                  0xffffffffffffffff\n                    /* \"#utility.yul\":1730:1740   */\n                  dup3\n                    /* \"#utility.yul\":1727:1761   */\n                  gt\n                    /* \"#utility.yul\":1724:1786   */\n                  or\n                    /* \"#utility.yul\":1721:1809   */\n                  iszero\n                  tag_171\n                  jumpi\n                    /* \"#utility.yul\":1789:1807   */\n                  tag_172\n                  tag_128\n                  jump\t// in\n                tag_172:\n                    /* \"#utility.yul\":1721:1809   */\n                tag_171:\n                    /* \"#utility.yul\":1829:1839   */\n                  dup1\n                    /* \"#utility.yul\":1825:1827   */\n                  0x40\n                    /* \"#utility.yul\":1818:1840   */\n                  mstore\n                    /* \"#utility.yul\":1608:1846   */\n                  pop\n                    /* \"#utility.yul\":1565:1846   */\n                  pop\n                  pop\n                  jump\t// out\n                    /* \"#utility.yul\":1852:1981   */\n                tag_130:\n                    /* \"#utility.yul\":1886:1892   */\n                  0x00\n                    /* \"#utility.yul\":1913:1933   */\n                  tag_174\n                  tag_119\n                  jump\t// in\n                tag_174:\n                    /* \"#utility.yul\":1903:1933   */\n                  swap1\n                  pop\n                    /* \"#utility.yul\":1942:1975   */\n                  tag_175\n                    /* \"#utility.yul\":1970:1974   */\n                  dup3\n                    /* \"#utility.yul\":1962:1968   */\n                  dup3\n                    /* \"#utility.yul\":1942:1975   */\n                  tag_129\n                  jump\t// in\n                tag_175:\n                    /* \"#utility.yul\":1852:1981   */\n                  swap2\n                  swap1\n                  pop\n                  jump\t// out\n                    /* \"#utility.yul\":1987:2295   */\n                tag_131:\n                    /* \"#utility.yul\":2049:2053   */\n                  0x00\n                    /* \"#utility.yul\":2139:2157   */\n                  0xffffffffffffffff\n                    /* \"#utility.yul\":2131:2137   */\n                  dup3\n                    /* \"#utility.yul\":2128:2158   */\n                  gt\n                    /* \"#utility.yul\":2125:2181   */\n                  iszero\n                  tag_177\n                  jumpi\n                    /* \"#utility.yul\":2161:2179   */\n                  tag_178\n                  tag_128\n                  jump\t// in\n                tag_178:\n                    /* \"#utility.yul\":2125:2181   */\n                tag_177:\n                    /* \"#utility.yul\":2199:2228   */\n                  tag_179\n                    /* \"#utility.yul\":2221:2227   */\n                  dup3\n                    /* \"#utility.yul\":2199:2228   */\n                  tag_127\n                  jump\t// in\n                tag_179:\n                    /* \"#utility.yul\":2191:2228   */\n                  swap1\n                  pop\n                    /* \"#utility.yul\":2283:2287   */\n                  0x20\n                    /* \"#utility.yul\":2277:2281   */\n                  dup2\n                    /* \"#utility.yul\":2273:2288   */\n                  add\n                    /* \"#utility.yul\":2265:2288   */\n                  swap1\n                  pop\n                    /* \"#utility.yul\":1987:2295   */\n                  swap2\n                  swap1\n                  pop\n                  jump\t// out\n                    /* \"#utility.yul\":2301:2455   */\n                tag_132:\n                    /* \"#utility.yul\":2385:2391   */\n                  dup3\n                    /* \"#utility.yul\":2380:2383   */\n                  dup2\n                    /* \"#utility.yul\":2375:2378   */\n                  dup4\n                    /* \"#utility.yul\":2362:2392   */\n                  calldatacopy\n                    /* \"#utility.yul\":2447:2448   */\n                  0x00\n                    /* \"#utility.yul\":2438:2444   */\n                  dup4\n                    /* \"#utility.yul\":2433:2436   */\n                  dup4\n                    /* \"#utility.yul\":2429:2445   */\n                  add\n                    /* \"#utility.yul\":2422:2449   */\n                  mstore\n                    /* \"#utility.yul\":2301:2455   */\n                  pop\n                  pop\n                  pop\n                  jump\t// out\n                    /* \"#utility.yul\":2461:2873   */\n                tag_133:\n                    /* \"#utility.yul\":2539:2544   */\n                  0x00\n                    /* \"#utility.yul\":2564:2630   */\n                  tag_182\n                    /* \"#utility.yul\":2580:2629   */\n                  tag_183\n                    /* \"#utility.yul\":2622:2628   */\n                  dup5\n                    /* \"#utility.yul\":2580:2629   */\n                  tag_131\n                  jump\t// in\n                tag_183:\n                    /* \"#utility.yul\":2564:2630   */\n                  tag_130\n                  jump\t// in\n                tag_182:\n                    /* \"#utility.yul\":2555:2630   */\n                  swap1\n                  pop\n                    /* \"#utility.yul\":2653:2659   */\n                  dup3\n                    /* \"#utility.yul\":2646:2651   */\n                  dup2\n                    /* \"#utility.yul\":2639:2660   */\n                  mstore\n                    /* \"#utility.yul\":2691:2695   */\n                  0x20\n                    /* \"#utility.yul\":2684:2689   */\n                  dup2\n                    /* \"#utility.yul\":2680:2696   */\n                  add\n                    /* \"#utility.yul\":2729:2732   */\n                  dup5\n                    /* \"#utility.yul\":2720:2726   */\n                  dup5\n                    /* \"#utility.yul\":2715:2718   */\n                  dup5\n                    /* \"#utility.yul\":2711:2727   */\n                  add\n                    /* \"#utility.yul\":2708:2733   */\n                  gt\n                    /* \"#utility.yul\":2705:2817   */\n                  iszero\n                  tag_184\n                  jumpi\n                    /* \"#utility.yul\":2736:2815   */\n                  tag_185\n                  tag_126\n                  jump\t// in\n                tag_185:\n                    /* \"#utility.yul\":2705:2817   */\n                tag_184:\n                    /* \"#utility.yul\":2826:2867   */\n                  tag_186\n                    /* \"#utility.yul\":2860:2866   */\n                  dup5\n                    /* \"#utility.yul\":2855:2858   */\n                  dup3\n                    /* \"#utility.yul\":2850:2853   */\n                  dup6\n                    /* \"#utility.yul\":2826:2867   */\n                  tag_132\n                  jump\t// in\n                tag_186:\n                    /* \"#utility.yul\":2545:2873   */\n                  pop\n                    /* \"#utility.yul\":2461:2873   */\n                  swap4\n                  swap3\n                  pop\n                  pop\n                  pop\n                  jump\t// out\n                    /* \"#utility.yul\":2893:3233   */\n                tag_134:\n                    /* \"#utility.yul\":2949:2954   */\n                  0x00\n                    /* \"#utility.yul\":2998:3001   */\n                  dup3\n                    /* \"#utility.yul\":2991:2995   */\n                  0x1f\n                    /* \"#utility.yul\":2983:2989   */\n                  dup4\n                    /* \"#utility.yul\":2979:2996   */\n                  add\n                    /* \"#utility.yul\":2975:3002   */\n                  slt\n                    /* \"#utility.yul\":2965:3087   */\n                  tag_188\n                  jumpi\n                    /* \"#utility.yul\":3006:3085   */\n                  tag_189\n                  tag_125\n                  jump\t// in\n                tag_189:\n                    /* \"#utility.yul\":2965:3087   */\n                tag_188:\n                    /* \"#utility.yul\":3123:3129   */\n                  dup2\n                    /* \"#utility.yul\":3110:3130   */\n                  calldataload\n                    /* \"#utility.yul\":3148:3227   */\n                  tag_190\n                    /* \"#utility.yul\":3223:3226   */\n                  dup5\n                    /* \"#utility.yul\":3215:3221   */\n                  dup3\n                    /* \"#utility.yul\":3208:3212   */\n                  0x20\n                    /* \"#utility.yul\":3200:3206   */\n                  dup7\n                    /* \"#utility.yul\":3196:3213   */\n                  add\n                    /* \"#utility.yul\":3148:3227   */\n                  tag_133\n                  jump\t// in\n                tag_190:\n                    /* \"#utility.yul\":3139:3227   */\n                  swap2\n                  pop\n                    /* \"#utility.yul\":2955:3233   */\n                  pop\n                    /* \"#utility.yul\":2893:3233   */\n                  swap3\n                  swap2\n                  pop\n                  pop\n                  jump\t// out\n                    /* \"#utility.yul\":3239:3748   */\n                tag_20:\n                    /* \"#utility.yul\":3308:3314   */\n                  0x00\n                    /* \"#utility.yul\":3357:3359   */\n                  0x20\n                    /* \"#utility.yul\":3345:3354   */\n                  dup3\n                    /* \"#utility.yul\":3336:3343   */\n                  dup5\n                    /* \"#utility.yul\":3332:3355   */\n                  sub\n                    /* \"#utility.yul\":3328:3360   */\n                  slt\n                    /* \"#utility.yul\":3325:3444   */\n                  iszero\n                  tag_192\n                  jumpi\n                    /* \"#utility.yul\":3363:3442   */\n                  tag_193\n                  tag_120\n                  jump\t// in\n                tag_193:\n                    /* \"#utility.yul\":3325:3444   */\n                tag_192:\n                    /* \"#utility.yul\":3511:3512   */\n                  0x00\n                    /* \"#utility.yul\":3500:3509   */\n                  dup3\n                    /* \"#utility.yul\":3496:3513   */\n                  add\n                    /* \"#utility.yul\":3483:3514   */\n                  calldataload\n                    /* \"#utility.yul\":3541:3559   */\n                  0xffffffffffffffff\n                    /* \"#utility.yul\":3533:3539   */\n                  dup2\n                    /* \"#utility.yul\":3530:3560   */\n                  gt\n                    /* \"#utility.yul\":3527:3644   */\n                  iszero\n                  tag_194\n                  jumpi\n                    /* \"#utility.yul\":3563:3642   */\n                  tag_195\n                  tag_121\n                  jump\t// in\n                tag_195:\n                    /* \"#utility.yul\":3527:3644   */\n                tag_194:\n                    /* \"#utility.yul\":3668:3731   */\n                  tag_196\n                    /* \"#utility.yul\":3723:3730   */\n                  dup5\n                    /* \"#utility.yul\":3714:3720   */\n                  dup3\n                    /* \"#utility.yul\":3703:3712   */\n                  dup6\n                    /* \"#utility.yul\":3699:3721   */\n                  add\n                    /* \"#utility.yul\":3668:3731   */\n                  tag_134\n                  jump\t// in\n                tag_196:\n                    /* \"#utility.yul\":3658:3731   */\n                  swap2\n                  pop\n                    /* \"#utility.yul\":3454:3741   */\n                  pop\n                    /* \"#utility.yul\":3239:3748   */\n                  swap3\n                  swap2\n                  pop\n                  pop\n                  jump\t// out\n                    /* \"#utility.yul\":3754:3844   */\n                tag_135:\n                    /* \"#utility.yul\":3788:3795   */\n                  0x00\n                    /* \"#utility.yul\":3831:3836   */\n                  dup2\n                    /* \"#utility.yul\":3824:3837   */\n                  iszero\n                    /* \"#utility.yul\":3817:3838   */\n                  iszero\n                    /* \"#utility.yul\":3806:3838   */\n                  swap1\n                  pop\n                    /* \"#utility.yul\":3754:3844   */\n                  swap2\n                  swap1\n                  pop\n                  jump\t// out\n                    /* \"#utility.yul\":3850:3959   */\n                tag_136:\n                    /* \"#utility.yul\":3931:3952   */\n                  tag_199\n                    /* \"#utility.yul\":3946:3951   */\n                  dup2\n                    /* \"#utility.yul\":3931:3952   */\n                  tag_135\n                  jump\t// in\n                tag_199:\n                    /* \"#utility.yul\":3926:3929   */\n                  dup3\n                    /* \"#utility.yul\":3919:3953   */\n                  mstore\n                    /* \"#utility.yul\":3850:3959   */\n                  pop\n                  pop\n                  jump\t// out\n                    /* \"#utility.yul\":3965:4175   */\n                tag_23:\n                    /* \"#utility.yul\":4052:4056   */\n                  0x00\n                    /* \"#utility.yul\":4090:4092   */\n                  0x20\n                    /* \"#utility.yul\":4079:4088   */\n                  dup3\n                    /* \"#utility.yul\":4075:4093   */\n                  add\n                    /* \"#utility.yul\":4067:4093   */\n                  swap1\n                  pop\n                    /* \"#utility.yul\":4103:4168   */\n                  tag_201\n                    /* \"#utility.yul\":4165:4166   */\n                  0x00\n                    /* \"#utility.yul\":4154:4163   */\n                  dup4\n                    /* \"#utility.yul\":4150:4167   */\n                  add\n                    /* \"#utility.yul\":4141:4147   */\n                  dup5\n                    /* \"#utility.yul\":4103:4168   */\n                  tag_136\n                  jump\t// in\n                tag_201:\n                    /* \"#utility.yul\":3965:4175   */\n                  swap3\n                  swap2\n                  pop\n                  pop\n                  jump\t// out\n                    /* \"#utility.yul\":4181:4307   */\n                tag_137:\n                    /* \"#utility.yul\":4218:4225   */\n                  0x00\n                    /* \"#utility.yul\":4258:4300   */\n                  0xffffffffffffffffffffffffffffffffffffffff\n                    /* \"#utility.yul\":4251:4256   */\n                  dup3\n                    /* \"#utility.yul\":4247:4301   */\n                  and\n                    /* \"#utility.yul\":4236:4301   */\n                  swap1\n                  pop\n                    /* \"#utility.yul\":4181:4307   */\n                  swap2\n                  swap1\n                  pop\n                  jump\t// out\n                    /* \"#utility.yul\":4313:4409   */\n                tag_138:\n                    /* \"#utility.yul\":4350:4357   */\n                  0x00\n                    /* \"#utility.yul\":4379:4403   */\n                  tag_204\n                    /* \"#utility.yul\":4397:4402   */\n                  dup3\n                    /* \"#utility.yul\":4379:4403   */\n                  tag_137\n                  jump\t// in\n                tag_204:\n                    /* \"#utility.yul\":4368:4403   */\n                  swap1\n                  pop\n                    /* \"#utility.yul\":4313:4409   */\n                  swap2\n                  swap1\n                  pop\n                  jump\t// out\n                    /* \"#utility.yul\":4415:4537   */\n                tag_139:\n                    /* \"#utility.yul\":4488:4512   */\n                  tag_206\n                    /* \"#utility.yul\":4506:4511   */\n                  dup2\n                    /* \"#utility.yul\":4488:4512   */\n                  tag_138\n                  jump\t// in\n                tag_206:\n                    /* \"#utility.yul\":4481:4486   */\n                  dup2\n                    /* \"#utility.yul\":4478:4513   */\n                  eq\n                    /* \"#utility.yul\":4468:4531   */\n                  tag_207\n                  jumpi\n                    /* \"#utility.yul\":4527:4528   */\n                  0x00\n                    /* \"#utility.yul\":4524:4525   */\n                  dup1\n                    /* \"#utility.yul\":4517:4529   */\n                  revert\n                    /* \"#utility.yul\":4468:4531   */\n                tag_207:\n                    /* \"#utility.yul\":4415:4537   */\n                  pop\n                  jump\t// out\n                    /* \"#utility.yul\":4543:4682   */\n                tag_140:\n                    /* \"#utility.yul\":4589:4594   */\n                  0x00\n                    /* \"#utility.yul\":4627:4633   */\n                  dup2\n                    /* \"#utility.yul\":4614:4634   */\n                  calldataload\n                    /* \"#utility.yul\":4605:4634   */\n                  swap1\n                  pop\n                    /* \"#utility.yul\":4643:4676   */\n                  tag_209\n                    /* \"#utility.yul\":4670:4675   */\n                  dup2\n                    /* \"#utility.yul\":4643:4676   */\n                  tag_139\n                  jump\t// in\n                tag_209:\n                    /* \"#utility.yul\":4543:4682   */\n                  swap3\n                  swap2\n                  pop\n                  pop\n                  jump\t// out\n                    /* \"#utility.yul\":4688:5813   */\n                tag_26:\n                    /* \"#utility.yul\":4794:4800   */\n                  0x00\n                    /* \"#utility.yul\":4802:4808   */\n                  dup1\n                    /* \"#utility.yul\":4810:4816   */\n                  0x00\n                    /* \"#utility.yul\":4818:4824   */\n                  dup1\n                    /* \"#utility.yul\":4867:4870   */\n                  0x80\n                    /* \"#utility.yul\":4855:4864   */\n                  dup6\n                    /* \"#utility.yul\":4846:4853   */\n                  dup8\n                    /* \"#utility.yul\":4842:4865   */\n                  sub\n                    /* \"#utility.yul\":4838:4871   */\n                  slt\n                    /* \"#utility.yul\":4835:4955   */\n                  iszero\n                  tag_211\n                  jumpi\n                    /* \"#utility.yul\":4874:4953   */\n                  tag_212\n                  tag_120\n                  jump\t// in\n                tag_212:\n                    /* \"#utility.yul\":4835:4955   */\n                tag_211:\n                    /* \"#utility.yul\":5022:5023   */\n                  0x00\n                    /* \"#utility.yul\":5011:5020   */\n                  dup6\n                    /* \"#utility.yul\":5007:5024   */\n                  add\n                    /* \"#utility.yul\":4994:5025   */\n                  calldataload\n                    /* \"#utility.yul\":5052:5070   */\n                  0xffffffffffffffff\n                    /* \"#utility.yul\":5044:5050   */\n                  dup2\n                    /* \"#utility.yul\":5041:5071   */\n                  gt\n                    /* \"#utility.yul\":5038:5155   */\n                  iszero\n                  tag_213\n                  jumpi\n                    /* \"#utility.yul\":5074:5153   */\n                  tag_214\n                  tag_121\n                  jump\t// in\n                tag_214:\n                    /* \"#utility.yul\":5038:5155   */\n                tag_213:\n                    /* \"#utility.yul\":5179:5242   */\n                  tag_215\n                    /* \"#utility.yul\":5234:5241   */\n                  dup8\n                    /* \"#utility.yul\":5225:5231   */\n                  dup3\n                    /* \"#utility.yul\":5214:5223   */\n                  dup9\n                    /* \"#utility.yul\":5210:5232   */\n                  add\n                    /* \"#utility.yul\":5179:5242   */\n                  tag_134\n                  jump\t// in\n                tag_215:\n                    /* \"#utility.yul\":5169:5242   */\n                  swap5\n                  pop\n                    /* \"#utility.yul\":4965:5252   */\n                  pop\n                    /* \"#utility.yul\":5319:5321   */\n                  0x20\n                    /* \"#utility.yul\":5308:5317   */\n                  dup6\n                    /* \"#utility.yul\":5304:5322   */\n                  add\n                    /* \"#utility.yul\":5291:5323   */\n                  calldataload\n                    /* \"#utility.yul\":5350:5368   */\n                  0xffffffffffffffff\n                    /* \"#utility.yul\":5342:5348   */\n                  dup2\n                    /* \"#utility.yul\":5339:5369   */\n                  gt\n                    /* \"#utility.yul\":5336:5453   */\n                  iszero\n                  tag_216\n                  jumpi\n                    /* \"#utility.yul\":5372:5451   */\n                  tag_217\n                  tag_121\n                  jump\t// in\n                tag_217:\n                    /* \"#utility.yul\":5336:5453   */\n                tag_216:\n                    /* \"#utility.yul\":5477:5540   */\n                  tag_218\n                    /* \"#utility.yul\":5532:5539   */\n                  dup8\n                    /* \"#utility.yul\":5523:5529   */\n                  dup3\n                    /* \"#utility.yul\":5512:5521   */\n                  dup9\n                    /* \"#utility.yul\":5508:5530   */\n                  add\n                    /* \"#utility.yul\":5477:5540   */\n                  tag_134\n                  jump\t// in\n                tag_218:\n                    /* \"#utility.yul\":5467:5540   */\n                  swap4\n                  pop\n                    /* \"#utility.yul\":5262:5550   */\n                  pop\n                    /* \"#utility.yul\":5589:5591   */\n                  0x40\n                    /* \"#utility.yul\":5615:5668   */\n                  tag_219\n                    /* \"#utility.yul\":5660:5667   */\n                  dup8\n                    /* \"#utility.yul\":5651:5657   */\n                  dup3\n                    /* \"#utility.yul\":5640:5649   */\n                  dup9\n                    /* \"#utility.yul\":5636:5658   */\n                  add\n                    /* \"#utility.yul\":5615:5668   */\n                  tag_124\n                  jump\t// in\n                tag_219:\n                    /* \"#utility.yul\":5605:5668   */\n                  swap3\n                  pop\n                    /* \"#utility.yul\":5560:5678   */\n                  pop\n                    /* \"#utility.yul\":5717:5719   */\n                  0x60\n                    /* \"#utility.yul\":5743:5796   */\n                  tag_220\n                    /* \"#utility.yul\":5788:5795   */\n                  dup8\n                    /* \"#utility.yul\":5779:5785   */\n                  dup3\n                    /* \"#utility.yul\":5768:5777   */\n                  dup9\n                    /* \"#utility.yul\":5764:5786   */\n                  add\n                    /* \"#utility.yul\":5743:5796   */\n                  tag_140\n                  jump\t// in\n                tag_220:\n                    /* \"#utility.yul\":5733:5796   */\n                  swap2\n                  pop\n                    /* \"#utility.yul\":5688:5806   */\n                  pop\n                    /* \"#utility.yul\":4688:5813   */\n                  swap3\n                  swap6\n                  swap2\n                  swap5\n                  pop\n                  swap3\n                  pop\n                  jump\t// out\n                    /* \"#utility.yul\":5819:5937   */\n                tag_141:\n                    /* \"#utility.yul\":5906:5930   */\n                  tag_222\n                    /* \"#utility.yul\":5924:5929   */\n                  dup2\n                    /* \"#utility.yul\":5906:5930   */\n                  tag_122\n                  jump\t// in\n                tag_222:\n                    /* \"#utility.yul\":5901:5904   */\n                  dup3\n                    /* \"#utility.yul\":5894:5931   */\n                  mstore\n                    /* \"#utility.yul\":5819:5937   */\n                  pop\n                  pop\n                  jump\t// out\n                    /* \"#utility.yul\":5943:6165   */\n                tag_32:\n                    /* \"#utility.yul\":6036:6040   */\n                  0x00\n                    /* \"#utility.yul\":6074:6076   */\n                  0x20\n                    /* \"#utility.yul\":6063:6072   */\n                  dup3\n                    /* \"#utility.yul\":6059:6077   */\n                  add\n                    /* \"#utility.yul\":6051:6077   */\n                  swap1\n                  pop\n                    /* \"#utility.yul\":6087:6158   */\n                  tag_224\n                    /* \"#utility.yul\":6155:6156   */\n                  0x00\n                    /* \"#utility.yul\":6144:6153   */\n                  dup4\n                    /* \"#utility.yul\":6140:6157   */\n                  add\n                    /* \"#utility.yul\":6131:6137   */\n                  dup5\n                    /* \"#utility.yul\":6087:6158   */\n                  tag_141\n                  jump\t// in\n                tag_224:\n                    /* \"#utility.yul\":5943:6165   */\n                  swap3\n                  swap2\n                  pop\n                  pop\n                  jump\t// out\n                    /* \"#utility.yul\":6171:6289   */\n                tag_142:\n                    /* \"#utility.yul\":6258:6282   */\n                  tag_226\n                    /* \"#utility.yul\":6276:6281   */\n                  dup2\n                    /* \"#utility.yul\":6258:6282   */\n                  tag_138\n                  jump\t// in\n                tag_226:\n                    /* \"#utility.yul\":6253:6256   */\n                  dup3\n                    /* \"#utility.yul\":6246:6283   */\n                  mstore\n                    /* \"#utility.yul\":6171:6289   */\n                  pop\n                  pop\n                  jump\t// out\n                    /* \"#utility.yul\":6295:6517   */\n                tag_36:\n                    /* \"#utility.yul\":6388:6392   */\n                  0x00\n                    /* \"#utility.yul\":6426:6428   */\n                  0x20\n                    /* \"#utility.yul\":6415:6424   */\n                  dup3\n                    /* \"#utility.yul\":6411:6429   */\n                  add\n                    /* \"#utility.yul\":6403:6429   */\n                  swap1\n                  pop\n                    /* \"#utility.yul\":6439:6510   */\n                  tag_228\n                    /* \"#utility.yul\":6507:6508   */\n                  0x00\n                    /* \"#utility.yul\":6496:6505   */\n                  dup4\n                    /* \"#utility.yul\":6492:6509   */\n                  add\n                    /* \"#utility.yul\":6483:6489   */\n                  dup5\n                    /* \"#utility.yul\":6439:6510   */\n                  tag_142\n                  jump\t// in\n                tag_228:\n                    /* \"#utility.yul\":6295:6517   */\n                  swap3\n                  swap2\n                  pop\n                  pop\n                  jump\t// out\n                    /* \"#utility.yul\":6523:6622   */\n                tag_143:\n                    /* \"#utility.yul\":6575:6581   */\n                  0x00\n                    /* \"#utility.yul\":6609:6614   */\n                  dup2\n                    /* \"#utility.yul\":6603:6615   */\n                  mload\n                    /* \"#utility.yul\":6593:6615   */\n                  swap1\n                  pop\n                    /* \"#utility.yul\":6523:6622   */\n                  swap2\n                  swap1\n                  pop\n                  jump\t// out\n                    /* \"#utility.yul\":6628:6797   */\n                tag_144:\n                    /* \"#utility.yul\":6712:6723   */\n                  0x00\n                    /* \"#utility.yul\":6746:6752   */\n                  dup3\n                    /* \"#utility.yul\":6741:6744   */\n                  dup3\n                    /* \"#utility.yul\":6734:6753   */\n                  mstore\n                    /* \"#utility.yul\":6786:6790   */\n                  0x20\n                    /* \"#utility.yul\":6781:6784   */\n                  dup3\n                    /* \"#utility.yul\":6777:6791   */\n                  add\n                    /* \"#utility.yul\":6762:6791   */\n                  swap1\n                  pop\n                    /* \"#utility.yul\":6628:6797   */\n                  swap3\n                  swap2\n                  pop\n                  pop\n                  jump\t// out\n                    /* \"#utility.yul\":6803:7110   */\n                tag_145:\n                    /* \"#utility.yul\":6871:6872   */\n                  0x00\n                    /* \"#utility.yul\":6881:6994   */\n                tag_232:\n                    /* \"#utility.yul\":6895:6901   */\n                  dup4\n                    /* \"#utility.yul\":6892:6893   */\n                  dup2\n                    /* \"#utility.yul\":6889:6902   */\n                  lt\n                    /* \"#utility.yul\":6881:6994   */\n                  iszero\n                  tag_234\n                  jumpi\n                    /* \"#utility.yul\":6980:6981   */\n                  dup1\n                    /* \"#utility.yul\":6975:6978   */\n                  dup3\n                    /* \"#utility.yul\":6971:6982   */\n                  add\n                    /* \"#utility.yul\":6965:6983   */\n                  mload\n                    /* \"#utility.yul\":6961:6962   */\n                  dup2\n                    /* \"#utility.yul\":6956:6959   */\n                  dup5\n                    /* \"#utility.yul\":6952:6963   */\n                  add\n                    /* \"#utility.yul\":6945:6984   */\n                  mstore\n                    /* \"#utility.yul\":6917:6919   */\n                  0x20\n                    /* \"#utility.yul\":6914:6915   */\n                  dup2\n                    /* \"#utility.yul\":6910:6920   */\n                  add\n                    /* \"#utility.yul\":6905:6920   */\n                  swap1\n                  pop\n                    /* \"#utility.yul\":6881:6994   */\n                  jump(tag_232)\n                tag_234:\n                    /* \"#utility.yul\":7012:7018   */\n                  dup4\n                    /* \"#utility.yul\":7009:7010   */\n                  dup2\n                    /* \"#utility.yul\":7006:7019   */\n                  gt\n                    /* \"#utility.yul\":7003:7104   */\n                  iszero\n                  tag_235\n                  jumpi\n                    /* \"#utility.yul\":7092:7093   */\n                  0x00\n                    /* \"#utility.yul\":7083:7089   */\n                  dup5\n                    /* \"#utility.yul\":7078:7081   */\n                  dup5\n                    /* \"#utility.yul\":7074:7090   */\n                  add\n                    /* \"#utility.yul\":7067:7094   */\n                  mstore\n                    /* \"#utility.yul\":7003:7104   */\n                tag_235:\n                    /* \"#utility.yul\":6852:7110   */\n                  pop\n                    /* \"#utility.yul\":6803:7110   */\n                  pop\n                  pop\n                  pop\n                  jump\t// out\n                    /* \"#utility.yul\":7116:7480   */\n                tag_146:\n                    /* \"#utility.yul\":7204:7207   */\n                  0x00\n                    /* \"#utility.yul\":7232:7271   */\n                  tag_237\n                    /* \"#utility.yul\":7265:7270   */\n                  dup3\n                    /* \"#utility.yul\":7232:7271   */\n                  tag_143\n                  jump\t// in\n                tag_237:\n                    /* \"#utility.yul\":7287:7358   */\n                  tag_238\n                    /* \"#utility.yul\":7351:7357   */\n                  dup2\n                    /* \"#utility.yul\":7346:7349   */\n                  dup6\n                    /* \"#utility.yul\":7287:7358   */\n                  tag_144\n                  jump\t// in\n                tag_238:\n                    /* \"#utility.yul\":7280:7358   */\n                  swap4\n                  pop\n                    /* \"#utility.yul\":7367:7419   */\n                  tag_239\n                    /* \"#utility.yul\":7412:7418   */\n                  dup2\n                    /* \"#utility.yul\":7407:7410   */\n                  dup6\n                    /* \"#utility.yul\":7400:7404   */\n                  0x20\n                    /* \"#utility.yul\":7393:7398   */\n                  dup7\n                    /* \"#utility.yul\":7389:7405   */\n                  add\n                    /* \"#utility.yul\":7367:7419   */\n                  tag_145\n                  jump\t// in\n                tag_239:\n                    /* \"#utility.yul\":7444:7473   */\n                  tag_240\n                    /* \"#utility.yul\":7466:7472   */\n                  dup2\n                    /* \"#utility.yul\":7444:7473   */\n                  tag_127\n                  jump\t// in\n                tag_240:\n                    /* \"#utility.yul\":7439:7442   */\n                  dup5\n                    /* \"#utility.yul\":7435:7474   */\n                  add\n                    /* \"#utility.yul\":7428:7474   */\n                  swap2\n                  pop\n                    /* \"#utility.yul\":7208:7480   */\n                  pop\n                    /* \"#utility.yul\":7116:7480   */\n                  swap3\n                  swap2\n                  pop\n                  pop\n                  jump\t// out\n                    /* \"#utility.yul\":7486:8332   */\n                tag_41:\n                    /* \"#utility.yul\":7731:7735   */\n                  0x00\n                    /* \"#utility.yul\":7769:7772   */\n                  0xa0\n                    /* \"#utility.yul\":7758:7767   */\n                  dup3\n                    /* \"#utility.yul\":7754:7773   */\n                  add\n                    /* \"#utility.yul\":7746:7773   */\n                  swap1\n                  pop\n                    /* \"#utility.yul\":7819:7828   */\n                  dup2\n                    /* \"#utility.yul\":7813:7817   */\n                  dup2\n                    /* \"#utility.yul\":7809:7829   */\n                  sub\n                    /* \"#utility.yul\":7805:7806   */\n                  0x00\n                    /* \"#utility.yul\":7794:7803   */\n                  dup4\n                    /* \"#utility.yul\":7790:7807   */\n                  add\n                    /* \"#utility.yul\":7783:7830   */\n                  mstore\n                    /* \"#utility.yul\":7847:7925   */\n                  tag_242\n                    /* \"#utility.yul\":7920:7924   */\n                  dup2\n                    /* \"#utility.yul\":7911:7917   */\n                  dup9\n                    /* \"#utility.yul\":7847:7925   */\n                  tag_146\n                  jump\t// in\n                tag_242:\n                    /* \"#utility.yul\":7839:7925   */\n                  swap1\n                  pop\n                    /* \"#utility.yul\":7972:7981   */\n                  dup2\n                    /* \"#utility.yul\":7966:7970   */\n                  dup2\n                    /* \"#utility.yul\":7962:7982   */\n                  sub\n                    /* \"#utility.yul\":7957:7959   */\n                  0x20\n                    /* \"#utility.yul\":7946:7955   */\n                  dup4\n                    /* \"#utility.yul\":7942:7960   */\n                  add\n                    /* \"#utility.yul\":7935:7983   */\n                  mstore\n                    /* \"#utility.yul\":8000:8078   */\n                  tag_243\n                    /* \"#utility.yul\":8073:8077   */\n                  dup2\n                    /* \"#utility.yul\":8064:8070   */\n                  dup8\n                    /* \"#utility.yul\":8000:8078   */\n                  tag_146\n                  jump\t// in\n                tag_243:\n                    /* \"#utility.yul\":7992:8078   */\n                  swap1\n                  pop\n                    /* \"#utility.yul\":8088:8160   */\n                  tag_244\n                    /* \"#utility.yul\":8156:8158   */\n                  0x40\n                    /* \"#utility.yul\":8145:8154   */\n                  dup4\n                    /* \"#utility.yul\":8141:8159   */\n                  add\n                    /* \"#utility.yul\":8132:8138   */\n                  dup7\n                    /* \"#utility.yul\":8088:8160   */\n                  tag_141\n                  jump\t// in\n                tag_244:\n                    /* \"#utility.yul\":8170:8242   */\n                  tag_245\n                    /* \"#utility.yul\":8238:8240   */\n                  0x60\n                    /* \"#utility.yul\":8227:8236   */\n                  dup4\n                    /* \"#utility.yul\":8223:8241   */\n                  add\n                    /* \"#utility.yul\":8214:8220   */\n                  dup6\n                    /* \"#utility.yul\":8170:8242   */\n                  tag_141\n                  jump\t// in\n                tag_245:\n                    /* \"#utility.yul\":8252:8325   */\n                  tag_246\n                    /* \"#utility.yul\":8320:8323   */\n                  0x80\n                    /* \"#utility.yul\":8309:8318   */\n                  dup4\n                    /* \"#utility.yul\":8305:8324   */\n                  add\n                    /* \"#utility.yul\":8296:8302   */\n                  dup5\n                    /* \"#utility.yul\":8252:8325   */\n                  tag_142\n                  jump\t// in\n                tag_246:\n                    /* \"#utility.yul\":7486:8332   */\n                  swap7\n                  swap6\n                  pop\n                  pop\n                  pop\n                  pop\n                  pop\n                  pop\n                  jump\t// out\n                    /* \"#utility.yul\":8338:9609   */\n                tag_44:\n                    /* \"#utility.yul\":8453:8459   */\n                  0x00\n                    /* \"#utility.yul\":8461:8467   */\n                  dup1\n                    /* \"#utility.yul\":8469:8475   */\n                  0x00\n                    /* \"#utility.yul\":8477:8483   */\n                  dup1\n                    /* \"#utility.yul\":8485:8491   */\n                  0x00\n                    /* \"#utility.yul\":8534:8537   */\n                  0xa0\n                    /* \"#utility.yul\":8522:8531   */\n                  dup7\n                    /* \"#utility.yul\":8513:8520   */\n                  dup9\n                    /* \"#utility.yul\":8509:8532   */\n                  sub\n                    /* \"#utility.yul\":8505:8538   */\n                  slt\n                    /* \"#utility.yul\":8502:8622   */\n                  iszero\n                  tag_248\n                  jumpi\n                    /* \"#utility.yul\":8541:8620   */\n                  tag_249\n                  tag_120\n                  jump\t// in\n                tag_249:\n                    /* \"#utility.yul\":8502:8622   */\n                tag_248:\n                    /* \"#utility.yul\":8661:8662   */\n                  0x00\n                    /* \"#utility.yul\":8686:8739   */\n                  tag_250\n                    /* \"#utility.yul\":8731:8738   */\n                  dup9\n                    /* \"#utility.yul\":8722:8728   */\n                  dup3\n                    /* \"#utility.yul\":8711:8720   */\n                  dup10\n                    /* \"#utility.yul\":8707:8729   */\n                  add\n                    /* \"#utility.yul\":8686:8739   */\n                  tag_124\n                  jump\t// in\n                tag_250:\n                    /* \"#utility.yul\":8676:8739   */\n                  swap6\n                  pop\n                    /* \"#utility.yul\":8632:8749   */\n                  pop\n                    /* \"#utility.yul\":8816:8818   */\n                  0x20\n                    /* \"#utility.yul\":8805:8814   */\n                  dup7\n                    /* \"#utility.yul\":8801:8819   */\n                  add\n                    /* \"#utility.yul\":8788:8820   */\n                  calldataload\n                    /* \"#utility.yul\":8847:8865   */\n                  0xffffffffffffffff\n                    /* \"#utility.yul\":8839:8845   */\n                  dup2\n                    /* \"#utility.yul\":8836:8866   */\n                  gt\n                    /* \"#utility.yul\":8833:8950   */\n                  iszero\n                  tag_251\n                  jumpi\n                    /* \"#utility.yul\":8869:8948   */\n                  tag_252\n                  tag_121\n                  jump\t// in\n                tag_252:\n                    /* \"#utility.yul\":8833:8950   */\n                tag_251:\n                    /* \"#utility.yul\":8974:9037   */\n                  tag_253\n                    /* \"#utility.yul\":9029:9036   */\n                  dup9\n                    /* \"#utility.yul\":9020:9026   */\n                  dup3\n                    /* \"#utility.yul\":9009:9018   */\n                  dup10\n                    /* \"#utility.yul\":9005:9027   */\n                  add\n                    /* \"#utility.yul\":8974:9037   */\n                  tag_134\n                  jump\t// in\n                tag_253:\n                    /* \"#utility.yul\":8964:9037   */\n                  swap5\n                  pop\n                    /* \"#utility.yul\":8759:9047   */\n                  pop\n                    /* \"#utility.yul\":9114:9116   */\n                  0x40\n                    /* \"#utility.yul\":9103:9112   */\n                  dup7\n                    /* \"#utility.yul\":9099:9117   */\n                  add\n                    /* \"#utility.yul\":9086:9118   */\n                  calldataload\n                    /* \"#utility.yul\":9145:9163   */\n                  0xffffffffffffffff\n                    /* \"#utility.yul\":9137:9143   */\n                  dup2\n                    /* \"#utility.yul\":9134:9164   */\n                  gt\n                    /* \"#utility.yul\":9131:9248   */\n                  iszero\n                  tag_254\n                  jumpi\n                    /* \"#utility.yul\":9167:9246   */\n                  tag_255\n                  tag_121\n                  jump\t// in\n                tag_255:\n                    /* \"#utility.yul\":9131:9248   */\n                tag_254:\n                    /* \"#utility.yul\":9272:9335   */\n                  tag_256\n                    /* \"#utility.yul\":9327:9334   */\n                  dup9\n                    /* \"#utility.yul\":9318:9324   */\n                  dup3\n                    /* \"#utility.yul\":9307:9316   */\n                  dup10\n                    /* \"#utility.yul\":9303:9325   */\n                  add\n                    /* \"#utility.yul\":9272:9335   */\n                  tag_134\n                  jump\t// in\n                tag_256:\n                    /* \"#utility.yul\":9262:9335   */\n                  swap4\n                  pop\n                    /* \"#utility.yul\":9057:9345   */\n                  pop\n                    /* \"#utility.yul\":9384:9386   */\n                  0x60\n                    /* \"#utility.yul\":9410:9463   */\n                  tag_257\n                    /* \"#utility.yul\":9455:9462   */\n                  dup9\n                    /* \"#utility.yul\":9446:9452   */\n                  dup3\n                    /* \"#utility.yul\":9435:9444   */\n                  dup10\n                    /* \"#utility.yul\":9431:9453   */\n                  add\n                    /* \"#utility.yul\":9410:9463   */\n                  tag_124\n                  jump\t// in\n                tag_257:\n                    /* \"#utility.yul\":9400:9463   */\n                  swap3\n                  pop\n                    /* \"#utility.yul\":9355:9473   */\n                  pop\n                    /* \"#utility.yul\":9512:9515   */\n                  0x80\n                    /* \"#utility.yul\":9539:9592   */\n                  tag_258\n                    /* \"#utility.yul\":9584:9591   */\n                  dup9\n                    /* \"#utility.yul\":9575:9581   */\n                  dup3\n                    /* \"#utility.yul\":9564:9573   */\n                  dup10\n                    /* \"#utility.yul\":9560:9582   */\n                  add\n                    /* \"#utility.yul\":9539:9592   */\n                  tag_140\n                  jump\t// in\n                tag_258:\n                    /* \"#utility.yul\":9529:9592   */\n                  swap2\n                  pop\n                    /* \"#utility.yul\":9483:9602   */\n                  pop\n                    /* \"#utility.yul\":8338:9609   */\n                  swap3\n                  swap6\n                  pop\n                  swap3\n                  swap6\n                  swap1\n                  swap4\n                  pop\n                  jump\t// out\n                    /* \"#utility.yul\":9615:9795   */\n                tag_147:\n                    /* \"#utility.yul\":9663:9740   */\n                  0x4e487b7100000000000000000000000000000000000000000000000000000000\n                    /* \"#utility.yul\":9660:9661   */\n                  0x00\n                    /* \"#utility.yul\":9653:9741   */\n                  mstore\n                    /* \"#utility.yul\":9760:9764   */\n                  0x11\n                    /* \"#utility.yul\":9757:9758   */\n                  0x04\n                    /* \"#utility.yul\":9750:9765   */\n                  mstore\n                    /* \"#utility.yul\":9784:9788   */\n                  0x24\n                    /* \"#utility.yul\":9781:9782   */\n                  0x00\n                    /* \"#utility.yul\":9774:9789   */\n                  revert\n                    /* \"#utility.yul\":9801:10034   */\n                tag_59:\n                    /* \"#utility.yul\":9840:9843   */\n                  0x00\n                    /* \"#utility.yul\":9863:9887   */\n                  tag_261\n                    /* \"#utility.yul\":9881:9886   */\n                  dup3\n                    /* \"#utility.yul\":9863:9887   */\n                  tag_122\n                  jump\t// in\n                tag_261:\n                    /* \"#utility.yul\":9854:9887   */\n                  swap2\n                  pop\n                    /* \"#utility.yul\":9909:9975   */\n                  0xffffffffffffffffffffffffffffffffffffffffffffffffffffffffffffffff\n                    /* \"#utility.yul\":9902:9907   */\n                  dup3\n                    /* \"#utility.yul\":9899:9976   */\n                  eq\n                    /* \"#utility.yul\":9896:9999   */\n                  iszero\n                  tag_262\n                  jumpi\n                    /* \"#utility.yul\":9979:9997   */\n                  tag_263\n                  tag_147\n                  jump\t// in\n                tag_263:\n                    /* \"#utility.yul\":9896:9999   */\n                tag_262:\n                    /* \"#utility.yul\":10026:10027   */\n                  0x01\n                    /* \"#utility.yul\":10019:10024   */\n                  dup3\n                    /* \"#utility.yul\":10015:10028   */\n                  add\n                    /* \"#utility.yul\":10008:10028   */\n                  swap1\n                  pop\n                    /* \"#utility.yul\":9801:10034   */\n                  swap2\n                  swap1\n                  pop\n                  jump\t// out\n                    /* \"#utility.yul\":10040:10188   */\n                tag_148:\n                    /* \"#utility.yul\":10142:10153   */\n                  0x00\n                    /* \"#utility.yul\":10179:10182   */\n                  dup2\n                    /* \"#utility.yul\":10164:10182   */\n                  swap1\n                  pop\n                    /* \"#utility.yul\":10040:10188   */\n                  swap3\n                  swap2\n                  pop\n                  pop\n                  jump\t// out\n                    /* \"#utility.yul\":10194:10571   */\n                tag_149:\n                    /* \"#utility.yul\":10300:10303   */\n                  0x00\n                    /* \"#utility.yul\":10328:10367   */\n                  tag_266\n                    /* \"#utility.yul\":10361:10366   */\n                  dup3\n                    /* \"#utility.yul\":10328:10367   */\n                  tag_143\n                  jump\t// in\n                tag_266:\n                    /* \"#utility.yul\":10383:10472   */\n                  tag_267\n                    /* \"#utility.yul\":10465:10471   */\n                  dup2\n                    /* \"#utility.yul\":10460:10463   */\n                  dup6\n                    /* \"#utility.yul\":10383:10472   */\n                  tag_148\n                  jump\t// in\n                tag_267:\n                    /* \"#utility.yul\":10376:10472   */\n                  swap4\n                  pop\n                    /* \"#utility.yul\":10481:10533   */\n                  tag_268\n                    /* \"#utility.yul\":10526:10532   */\n                  dup2\n                    /* \"#utility.yul\":10521:10524   */\n                  dup6\n                    /* \"#utility.yul\":10514:10518   */\n                  0x20\n                    /* \"#utility.yul\":10507:10512   */\n                  dup7\n                    /* \"#utility.yul\":10503:10519   */\n                  add\n                    /* \"#utility.yul\":10481:10533   */\n                  tag_145\n                  jump\t// in\n                tag_268:\n                    /* \"#utility.yul\":10558:10564   */\n                  dup1\n                    /* \"#utility.yul\":10553:10556   */\n                  dup5\n                    /* \"#utility.yul\":10549:10565   */\n                  add\n                    /* \"#utility.yul\":10542:10565   */\n                  swap2\n                  pop\n                    /* \"#utility.yul\":10304:10571   */\n                  pop\n                    /* \"#utility.yul\":10194:10571   */\n                  swap3\n                  swap2\n                  pop\n                  pop\n                  jump\t// out\n                    /* \"#utility.yul\":10577:10852   */\n                tag_68:\n                    /* \"#utility.yul\":10709:10712   */\n                  0x00\n                    /* \"#utility.yul\":10731:10826   */\n                  tag_270\n                    /* \"#utility.yul\":10822:10825   */\n                  dup3\n                    /* \"#utility.yul\":10813:10819   */\n                  dup5\n                    /* \"#utility.yul\":10731:10826   */\n                  tag_149\n                  jump\t// in\n                tag_270:\n                    /* \"#utility.yul\":10724:10826   */\n                  swap2\n                  pop\n                    /* \"#utility.yul\":10843:10846   */\n                  dup2\n                    /* \"#utility.yul\":10836:10846   */\n                  swap1\n                  pop\n                    /* \"#utility.yul\":10577:10852   */\n                  swap3\n                  swap2\n                  pop\n                  pop\n                  jump\t// out\n                    /* \"#utility.yul\":10858:11038   */\n                tag_150:\n                    /* \"#utility.yul\":10906:10983   */\n                  0x4e487b7100000000000000000000000000000000000000000000000000000000\n                    /* \"#utility.yul\":10903:10904   */\n                  0x00\n                    /* \"#utility.yul\":10896:10984   */\n                  mstore\n                    /* \"#utility.yul\":11003:11007   */\n                  0x22\n                    /* \"#utility.yul\":11000:11001   */\n                  0x04\n                    /* \"#utility.yul\":10993:11008   */\n                  mstore\n                    /* \"#utility.yul\":11027:11031   */\n                  0x24\n                    /* \"#utility.yul\":11024:11025   */\n                  0x00\n                    /* \"#utility.yul\":11017:11032   */\n                  revert\n                    /* \"#utility.yul\":11044:11364   */\n                tag_71:\n                    /* \"#utility.yul\":11088:11094   */\n                  0x00\n                    /* \"#utility.yul\":11125:11126   */\n                  0x02\n                    /* \"#utility.yul\":11119:11123   */\n                  dup3\n                    /* \"#utility.yul\":11115:11127   */\n                  div\n                    /* \"#utility.yul\":11105:11127   */\n                  swap1\n                  pop\n                    /* \"#utility.yul\":11172:11173   */\n                  0x01\n                    /* \"#utility.yul\":11166:11170   */\n                  dup3\n                    /* \"#utility.yul\":11162:11174   */\n                  and\n                    /* \"#utility.yul\":11193:11211   */\n                  dup1\n                    /* \"#utility.yul\":11183:11264   */\n                  tag_273\n                  jumpi\n                    /* \"#utility.yul\":11249:11253   */\n                  0x7f\n                    /* \"#utility.yul\":11241:11247   */\n                  dup3\n                    /* \"#utility.yul\":11237:11254   */\n                  and\n                    /* \"#utility.yul\":11227:11254   */\n                  swap2\n                  pop\n                    /* \"#utility.yul\":11183:11264   */\n                tag_273:\n                    /* \"#utility.yul\":11311:11313   */\n                  0x20\n                    /* \"#utility.yul\":11303:11309   */\n                  dup3\n                    /* \"#utility.yul\":11300:11314   */\n                  lt\n                    /* \"#utility.yul\":11280:11298   */\n                  dup2\n                    /* \"#utility.yul\":11277:11315   */\n                  eq\n                    /* \"#utility.yul\":11274:11358   */\n                  iszero\n                  tag_274\n                  jumpi\n                    /* \"#utility.yul\":11330:11348   */\n                  tag_275\n                  tag_150\n                  jump\t// in\n                tag_275:\n                    /* \"#utility.yul\":11274:11358   */\n                tag_274:\n                    /* \"#utility.yul\":11095:11364   */\n                  pop\n                    /* \"#utility.yul\":11044:11364   */\n                  swap2\n                  swap1\n                  pop\n                  jump\t// out\n\n                auxdata: 0xa264697066735822122060397ee0588d0b47d7a31ecf97f70613583ee1a3f04694a366944803c34d196464736f6c634300080a0033\n            }\n        }\n\n        sub_2: assembly {\n                /* \"devs/UserManager.sol\":788:3352   */\n              mstore(0x40, 0x80)\n                /* \"devs/UserManager.sol\":1296:1407   */\n              callvalue\n              dup1\n              iszero\n              tag_1\n              jumpi\n              0x00\n              dup1\n              revert\n            tag_1:\n              pop\n              mload(0x40)\n              sub(codesize, bytecodeSize)\n              dup1\n              bytecodeSize\n              dup4\n              codecopy\n              dup2\n              dup2\n              add\n              0x40\n              mstore\n              dup2\n              add\n              swap1\n              tag_2\n              swap2\n              swap1\n              tag_3\n              jump\t// in\n            tag_2:\n                /* \"devs/UserManager.sol\":1349:1362   */\n              dup1\n                /* \"devs/UserManager.sol\":1341:1346   */\n              0x00\n              dup1\n                /* \"devs/UserManager.sol\":1341:1362   */\n              0x0100\n              exp\n              dup2\n              sload\n              dup2\n              0xffffffffffffffffffffffffffffffffffffffff\n              mul\n              not\n              and\n              swap1\n              dup4\n              0xffffffffffffffffffffffffffffffffffffffff\n              and\n              mul\n              or\n              swap1\n              sstore\n              pop\n                /* \"devs/UserManager.sol\":1390:1400   */\n              caller\n                /* \"devs/UserManager.sol\":1372:1387   */\n              0x01\n              0x00\n                /* \"devs/UserManager.sol\":1372:1400   */\n              0x0100\n              exp\n              dup2\n              sload\n              dup2\n              0xffffffffffffffffffffffffffffffffffffffff\n              mul\n              not\n              and\n              swap1\n              dup4\n              0xffffffffffffffffffffffffffffffffffffffff\n              and\n              mul\n              or\n              swap1\n              sstore\n              pop\n                /* \"devs/UserManager.sol\":1296:1407   */\n              pop\n                /* \"devs/UserManager.sol\":788:3352   */\n              jump(tag_6)\n                /* \"#utility.yul\":88:205   */\n            tag_8:\n                /* \"#utility.yul\":197:198   */\n              0x00\n                /* \"#utility.yul\":194:195   */\n              dup1\n                /* \"#utility.yul\":187:199   */\n              revert\n                /* \"#utility.yul\":334:460   */\n            tag_10:\n                /* \"#utility.yul\":371:378   */\n              0x00\n                /* \"#utility.yul\":411:453   */\n              0xffffffffffffffffffffffffffffffffffffffff\n                /* \"#utility.yul\":404:409   */\n              dup3\n                /* \"#utility.yul\":400:454   */\n              and\n                /* \"#utility.yul\":389:454   */\n              swap1\n              pop\n                /* \"#utility.yul\":334:460   */\n              swap2\n              swap1\n              pop\n              jump\t// out\n                /* \"#utility.yul\":466:562   */\n            tag_11:\n                /* \"#utility.yul\":503:510   */\n              0x00\n                /* \"#utility.yul\":532:556   */\n              tag_20\n                /* \"#utility.yul\":550:555   */\n              dup3\n                /* \"#utility.yul\":532:556   */\n              tag_10\n              jump\t// in\n            tag_20:\n                /* \"#utility.yul\":521:556   */\n              swap1\n              pop\n                /* \"#utility.yul\":466:562   */\n              swap2\n              swap1\n              pop\n              jump\t// out\n                /* \"#utility.yul\":568:690   */\n            tag_12:\n                /* \"#utility.yul\":641:665   */\n              tag_22\n                /* \"#utility.yul\":659:664   */\n              dup2\n                /* \"#utility.yul\":641:665   */\n              tag_11\n              jump\t// in\n            tag_22:\n                /* \"#utility.yul\":634:639   */\n              dup2\n                /* \"#utility.yul\":631:666   */\n              eq\n                /* \"#utility.yul\":621:684   */\n              tag_23\n              jumpi\n                /* \"#utility.yul\":680:681   */\n              0x00\n                /* \"#utility.yul\":677:678   */\n              dup1\n                /* \"#utility.yul\":670:682   */\n              revert\n                /* \"#utility.yul\":621:684   */\n            tag_23:\n                /* \"#utility.yul\":568:690   */\n              pop\n              jump\t// out\n                /* \"#utility.yul\":696:839   */\n            tag_13:\n                /* \"#utility.yul\":753:758   */\n              0x00\n                /* \"#utility.yul\":784:790   */\n              dup2\n                /* \"#utility.yul\":778:791   */\n              mload\n                /* \"#utility.yul\":769:791   */\n              swap1\n              pop\n                /* \"#utility.yul\":800:833   */\n              tag_25\n                /* \"#utility.yul\":827:832   */\n              dup2\n                /* \"#utility.yul\":800:833   */\n              tag_12\n              jump\t// in\n            tag_25:\n                /* \"#utility.yul\":696:839   */\n              swap3\n              swap2\n              pop\n              pop\n              jump\t// out\n                /* \"#utility.yul\":845:1196   */\n            tag_3:\n                /* \"#utility.yul\":915:921   */\n              0x00\n                /* \"#utility.yul\":964:966   */\n              0x20\n                /* \"#utility.yul\":952:961   */\n              dup3\n                /* \"#utility.yul\":943:950   */\n              dup5\n                /* \"#utility.yul\":939:962   */\n              sub\n                /* \"#utility.yul\":935:967   */\n              slt\n                /* \"#utility.yul\":932:1051   */\n              iszero\n              tag_27\n              jumpi\n                /* \"#utility.yul\":970:1049   */\n              tag_28\n              tag_8\n              jump\t// in\n            tag_28:\n                /* \"#utility.yul\":932:1051   */\n            tag_27:\n                /* \"#utility.yul\":1090:1091   */\n              0x00\n                /* \"#utility.yul\":1115:1179   */\n              tag_29\n                /* \"#utility.yul\":1171:1178   */\n              dup5\n                /* \"#utility.yul\":1162:1168   */\n              dup3\n                /* \"#utility.yul\":1151:1160   */\n              dup6\n                /* \"#utility.yul\":1147:1169   */\n              add\n                /* \"#utility.yul\":1115:1179   */\n              tag_13\n              jump\t// in\n            tag_29:\n                /* \"#utility.yul\":1105:1179   */\n              swap2\n              pop\n                /* \"#utility.yul\":1061:1189   */\n              pop\n                /* \"#utility.yul\":845:1196   */\n              swap3\n              swap2\n              pop\n              pop\n              jump\t// out\n                /* \"devs/UserManager.sol\":788:3352   */\n            tag_6:\n              dataSize(sub_0)\n              dup1\n              dataOffset(sub_0)\n              0x00\n              codecopy\n              0x00\n              return\n            stop\n\n            sub_0: assembly {\n                    /* \"devs/UserManager.sol\":788:3352   */\n                  mstore(0x40, 0x80)\n                  callvalue\n                  dup1\n                  iszero\n                  tag_1\n                  jumpi\n                  0x00\n                  dup1\n                  revert\n                tag_1:\n                  pop\n                  jumpi(tag_2, lt(calldatasize, 0x04))\n                  shr(0xe0, calldataload(0x00))\n                  dup1\n                  0x7c4dd96d\n                  gt\n                  tag_18\n                  jumpi\n                  dup1\n                  0xe3e1f001\n                  gt\n                  tag_19\n                  jumpi\n                  dup1\n                  0xe3e1f001\n                  eq\n                  tag_14\n                  jumpi\n                  dup1\n                  0xe597ef12\n                  eq\n                  tag_15\n                  jumpi\n                  dup1\n                  0xecded204\n                  eq\n                  tag_16\n                  jumpi\n                  dup1\n                  0xf3c95c60\n                  eq\n                  tag_17\n                  jumpi\n                  jump(tag_2)\n                tag_19:\n                  dup1\n                  0x7c4dd96d\n                  eq\n                  tag_10\n                  jumpi\n                  dup1\n                  0x8da5cb5b\n                  eq\n                  tag_11\n                  jumpi\n                  dup1\n                  0xa5a9c518\n                  eq\n                  tag_12\n                  jumpi\n                  dup1\n                  0xa87430ba\n                  eq\n                  tag_13\n                  jumpi\n                  jump(tag_2)\n                tag_18:\n                  dup1\n                  0x4172fb89\n                  gt\n                  tag_20\n                  jumpi\n                  dup1\n                  0x4172fb89\n                  eq\n                  tag_6\n                  jumpi\n                  dup1\n                  0x4420e486\n                  eq\n                  tag_7\n                  jumpi\n                  dup1\n                  0x4a09db4f\n                  eq\n                  tag_8\n                  jumpi\n                  dup1\n                  0x6350280e\n                  eq\n                  tag_9\n                  jumpi\n                  jump(tag_2)\n                tag_20:\n                  dup1\n                  0x19aa98a3\n                  eq\n                  tag_3\n                  jumpi\n                  dup1\n                  0x371e91ca\n                  eq\n                  tag_4\n                  jumpi\n                  dup1\n                  0x3cbdec03\n                  eq\n                  tag_5\n                  jumpi\n                tag_2:\n                  0x00\n                  dup1\n                  revert\n                    /* \"devs/UserManager.sol\":3028:3192   */\n                tag_3:\n                  tag_21\n                  0x04\n                  dup1\n                  calldatasize\n                  sub\n                  dup2\n                  add\n                  swap1\n                  tag_22\n                  swap2\n                  swap1\n                  tag_23\n                  jump\t// in\n                tag_22:\n                  tag_24\n                  jump\t// in\n                tag_21:\n                  mload(0x40)\n                  tag_25\n                  swap2\n                  swap1\n                  tag_26\n                  jump\t// in\n                tag_25:\n                  mload(0x40)\n                  dup1\n                  swap2\n                  sub\n                  swap1\n                  return\n                    /* \"devs/UserManager.sol\":3198:3350   */\n                tag_4:\n                  tag_27\n                  0x04\n                  dup1\n                  calldatasize\n                  sub\n                  dup2\n                  add\n                  swap1\n                  tag_28\n                  swap2\n                  swap1\n                  tag_29\n                  jump\t// in\n                tag_28:\n                  tag_30\n                  jump\t// in\n                tag_27:\n                  mload(0x40)\n                  tag_31\n                  swap2\n                  swap1\n                  tag_32\n                  jump\t// in\n                tag_31:\n                  mload(0x40)\n                  dup1\n                  swap2\n                  sub\n                  swap1\n                  return\n                    /* \"devs/UserManager.sol\":1066:1131   */\n                tag_5:\n                  tag_33\n                  0x04\n                  dup1\n                  calldatasize\n                  sub\n                  dup2\n                  add\n                  swap1\n                  tag_34\n                  swap2\n                  swap1\n                  tag_29\n                  jump\t// in\n                tag_34:\n                  tag_35\n                  jump\t// in\n                tag_33:\n                  mload(0x40)\n                  tag_36\n                  swap2\n                  swap1\n                  tag_32\n                  jump\t// in\n                tag_36:\n                  mload(0x40)\n                  dup1\n                  swap2\n                  sub\n                  swap1\n                  return\n                    /* \"devs/UserManager.sol\":2906:3022   */\n                tag_6:\n                  tag_37\n                  0x04\n                  dup1\n                  calldatasize\n                  sub\n                  dup2\n                  add\n                  swap1\n                  tag_38\n                  swap2\n                  swap1\n                  tag_23\n                  jump\t// in\n                tag_38:\n                  tag_39\n                  jump\t// in\n                tag_37:\n                  mload(0x40)\n                  tag_40\n                  swap2\n                  swap1\n                  tag_32\n                  jump\t// in\n                tag_40:\n                  mload(0x40)\n                  dup1\n                  swap2\n                  sub\n                  swap1\n                  return\n                    /* \"devs/UserManager.sol\":1413:1723   */\n                tag_7:\n                  tag_41\n                  0x04\n                  dup1\n                  calldatasize\n                  sub\n                  dup2\n                  add\n                  swap1\n                  tag_42\n                  swap2\n                  swap1\n                  tag_23\n                  jump\t// in\n                tag_42:\n                  tag_43\n                  jump\t// in\n                tag_41:\n                  stop\n                    /* \"devs/UserManager.sol\":2198:2437   */\n                tag_8:\n                  tag_44\n                  0x04\n                  dup1\n                  calldatasize\n                  sub\n                  dup2\n                  add\n                  swap1\n                  tag_45\n                  swap2\n                  swap1\n                  tag_29\n                  jump\t// in\n                tag_45:\n                  tag_46\n                  jump\t// in\n                tag_44:\n                  stop\n                    /* \"devs/UserManager.sol\":1138:1158   */\n                tag_9:\n                  tag_47\n                  tag_48\n                  jump\t// in\n                tag_47:\n                  mload(0x40)\n                  tag_49\n                  swap2\n                  swap1\n                  tag_26\n                  jump\t// in\n                tag_49:\n                  mload(0x40)\n                  dup1\n                  swap2\n                  sub\n                  swap1\n                  return\n                    /* \"devs/UserManager.sol\":1729:1837   */\n                tag_10:\n                  tag_50\n                  0x04\n                  dup1\n                  calldatasize\n                  sub\n                  dup2\n                  add\n                  swap1\n                  tag_51\n                  swap2\n                  swap1\n                  tag_23\n                  jump\t// in\n                tag_51:\n                  tag_52\n                  jump\t// in\n                tag_50:\n                  stop\n                    /* \"devs/UserManager.sol\":838:858   */\n                tag_11:\n                  tag_53\n                  tag_54\n                  jump\t// in\n                tag_53:\n                  mload(0x40)\n                  tag_55\n                  swap2\n                  swap1\n                  tag_56\n                  jump\t// in\n                tag_55:\n                  mload(0x40)\n                  dup1\n                  swap2\n                  sub\n                  swap1\n                  return\n                    /* \"devs/UserManager.sol\":1925:2192   */\n                tag_12:\n                  tag_57\n                  0x04\n                  dup1\n                  calldatasize\n                  sub\n                  dup2\n                  add\n                  swap1\n                  tag_58\n                  swap2\n                  swap1\n                  tag_29\n                  jump\t// in\n                tag_58:\n                  tag_59\n                  jump\t// in\n                tag_57:\n                  stop\n                    /* \"devs/UserManager.sol\":927:964   */\n                tag_13:\n                  tag_60\n                  0x04\n                  dup1\n                  calldatasize\n                  sub\n                  dup2\n                  add\n                  swap1\n                  tag_61\n                  swap2\n                  swap1\n                  tag_23\n                  jump\t// in\n                tag_61:\n                  tag_62\n                  jump\t// in\n                tag_60:\n                  mload(0x40)\n                  tag_63\n                  swap6\n                  swap5\n                  swap4\n                  swap3\n                  swap2\n                  swap1\n                  tag_64\n                  jump\t// in\n                tag_63:\n                  mload(0x40)\n                  dup1\n                  swap2\n                  sub\n                  swap1\n                  return\n                    /* \"devs/UserManager.sol\":902:921   */\n                tag_14:\n                  tag_65\n                  tag_66\n                  jump\t// in\n                tag_65:\n                  mload(0x40)\n                  tag_67\n                  swap2\n                  swap1\n                  tag_26\n                  jump\t// in\n                tag_67:\n                  mload(0x40)\n                  dup1\n                  swap2\n                  sub\n                  swap1\n                  return\n                    /* \"devs/UserManager.sol\":2443:2746   */\n                tag_15:\n                  tag_68\n                  0x04\n                  dup1\n                  calldatasize\n                  sub\n                  dup2\n                  add\n                  swap1\n                  tag_69\n                  swap2\n                  swap1\n                  tag_29\n                  jump\t// in\n                tag_69:\n                  tag_70\n                  jump\t// in\n                tag_68:\n                  stop\n                    /* \"devs/UserManager.sol\":2778:2900   */\n                tag_16:\n                  tag_71\n                  0x04\n                  dup1\n                  calldatasize\n                  sub\n                  dup2\n                  add\n                  swap1\n                  tag_72\n                  swap2\n                  swap1\n                  tag_23\n                  jump\t// in\n                tag_72:\n                  tag_73\n                  jump\t// in\n                tag_71:\n                  mload(0x40)\n                  tag_74\n                  swap2\n                  swap1\n                  tag_32\n                  jump\t// in\n                tag_74:\n                  mload(0x40)\n                  dup1\n                  swap2\n                  sub\n                  swap1\n                  return\n                    /* \"devs/UserManager.sol\":970:1013   */\n                tag_17:\n                  tag_75\n                  0x04\n                  dup1\n                  calldatasize\n                  sub\n                  dup2\n                  add\n                  swap1\n                  tag_76\n                  swap2\n                  swap1\n                  tag_23\n                  jump\t// in\n                tag_76:\n                  tag_77\n                  jump\t// in\n                tag_75:\n                  mload(0x40)\n                  tag_78\n                  swap2\n                  swap1\n                  tag_32\n                  jump\t// in\n                tag_78:\n                  mload(0x40)\n                  dup1\n                  swap2\n                  sub\n                  swap1\n                  return\n                    /* \"devs/UserManager.sol\":3028:3192   */\n                tag_24:\n                    /* \"devs/UserManager.sol\":3097:3101   */\n                  0x00\n                    /* \"devs/UserManager.sol\":3112:3129   */\n                  dup1\n                    /* \"devs/UserManager.sol\":3132:3137   */\n                  0x03\n                    /* \"devs/UserManager.sol\":3132:3151   */\n                  0x00\n                    /* \"devs/UserManager.sol\":3138:3150   */\n                  dup5\n                    /* \"devs/UserManager.sol\":3132:3151   */\n                  0xffffffffffffffffffffffffffffffffffffffff\n                  and\n                  0xffffffffffffffffffffffffffffffffffffffff\n                  and\n                  dup2\n                  mstore\n                  0x20\n                  add\n                  swap1\n                  dup2\n                  mstore\n                  0x20\n                  add\n                  0x00\n                  keccak256\n                    /* \"devs/UserManager.sol\":3112:3151   */\n                  swap1\n                  pop\n                    /* \"devs/UserManager.sol\":3168:3172   */\n                  dup1\n                    /* \"devs/UserManager.sol\":3168:3185   */\n                  0x02\n                  add\n                  sload\n                    /* \"devs/UserManager.sol\":3161:3185   */\n                  swap2\n                  pop\n                  pop\n                    /* \"devs/UserManager.sol\":3028:3192   */\n                  swap2\n                  swap1\n                  pop\n                  jump\t// out\n                    /* \"devs/UserManager.sol\":3198:3350   */\n                tag_30:\n                    /* \"devs/UserManager.sol\":3281:3285   */\n                  0x00\n                    /* \"devs/UserManager.sol\":3303:3319   */\n                  0x05\n                    /* \"devs/UserManager.sol\":3303:3333   */\n                  0x00\n                    /* \"devs/UserManager.sol\":3320:3332   */\n                  dup5\n                    /* \"devs/UserManager.sol\":3303:3333   */\n                  0xffffffffffffffffffffffffffffffffffffffff\n                  and\n                  0xffffffffffffffffffffffffffffffffffffffff\n                  and\n                  dup2\n                  mstore\n                  0x20\n                  add\n                  swap1\n                  dup2\n                  mstore\n                  0x20\n                  add\n                  0x00\n                  keccak256\n                    /* \"devs/UserManager.sol\":3303:3343   */\n                  0x00\n                    /* \"devs/UserManager.sol\":3334:3342   */\n                  dup4\n                    /* \"devs/UserManager.sol\":3303:3343   */\n                  dup2\n                  mstore\n                  0x20\n                  add\n                  swap1\n                  dup2\n                  mstore\n                  0x20\n                  add\n                  0x00\n                  keccak256\n                  0x00\n                  swap1\n                  sload\n                  swap1\n                  0x0100\n                  exp\n                  swap1\n                  div\n                  0xff\n                  and\n                    /* \"devs/UserManager.sol\":3296:3343   */\n                  swap1\n                  pop\n                    /* \"devs/UserManager.sol\":3198:3350   */\n                  swap3\n                  swap2\n                  pop\n                  pop\n                  jump\t// out\n                    /* \"devs/UserManager.sol\":1066:1131   */\n                tag_35:\n                  mstore(0x20, 0x05)\n                  dup2\n                  0x00\n                  mstore\n                  mstore(0x20, keccak256(0x00, 0x40))\n                  dup1\n                  0x00\n                  mstore\n                  keccak256(0x00, 0x40)\n                  0x00\n                  swap2\n                  pop\n                  swap2\n                  pop\n                  swap1\n                  sload\n                  swap1\n                  0x0100\n                  exp\n                  swap1\n                  div\n                  0xff\n                  and\n                  dup2\n                  jump\t// out\n                    /* \"devs/UserManager.sol\":2906:3022   */\n                tag_39:\n                    /* \"devs/UserManager.sol\":2971:2975   */\n                  0x00\n                    /* \"devs/UserManager.sol\":2993:3000   */\n                  0x07\n                    /* \"devs/UserManager.sol\":2993:3015   */\n                  0x00\n                    /* \"devs/UserManager.sol\":3001:3014   */\n                  dup4\n                    /* \"devs/UserManager.sol\":2993:3015   */\n                  0xffffffffffffffffffffffffffffffffffffffff\n                  and\n                  0xffffffffffffffffffffffffffffffffffffffff\n                  and\n                  dup2\n                  mstore\n                  0x20\n                  add\n                  swap1\n                  dup2\n                  mstore\n                  0x20\n                  add\n                  0x00\n                  keccak256\n                  0x00\n                  swap1\n                  sload\n                  swap1\n                  0x0100\n                  exp\n                  swap1\n                  div\n                  0xff\n                  and\n                    /* \"devs/UserManager.sol\":2986:3015   */\n                  swap1\n                  pop\n                    /* \"devs/UserManager.sol\":2906:3022   */\n                  swap2\n                  swap1\n                  pop\n                  jump\t// out\n                    /* \"devs/UserManager.sol\":1413:1723   */\n                tag_43:\n                    /* \"devs/UserManager.sol\":1261:1271   */\n                  caller\n                    /* \"devs/UserManager.sol\":1242:1271   */\n                  0xffffffffffffffffffffffffffffffffffffffff\n                  and\n                    /* \"devs/UserManager.sol\":1242:1257   */\n                  0x01\n                  0x00\n                  swap1\n                  sload\n                  swap1\n                  0x0100\n                  exp\n                  swap1\n                  div\n                  0xffffffffffffffffffffffffffffffffffffffff\n                  and\n                    /* \"devs/UserManager.sol\":1242:1271   */\n                  0xffffffffffffffffffffffffffffffffffffffff\n                  and\n                  eq\n                    /* \"devs/UserManager.sol\":1234:1272   */\n                  tag_83\n                  jumpi\n                  0x00\n                  dup1\n                  revert\n                tag_83:\n                    /* \"devs/UserManager.sol\":1485:1496   */\n                  0x04\n                    /* \"devs/UserManager.sol\":1485:1505   */\n                  0x00\n                    /* \"devs/UserManager.sol\":1497:1504   */\n                  dup3\n                    /* \"devs/UserManager.sol\":1485:1505   */\n                  0xffffffffffffffffffffffffffffffffffffffff\n                  and\n                  0xffffffffffffffffffffffffffffffffffffffff\n                  and\n                  dup2\n                  mstore\n                  0x20\n                  add\n                  swap1\n                  dup2\n                  mstore\n                  0x20\n                  add\n                  0x00\n                  keccak256\n                  0x00\n                  swap1\n                  sload\n                  swap1\n                  0x0100\n                  exp\n                  swap1\n                  div\n                  0xff\n                  and\n                    /* \"devs/UserManager.sol\":1484:1505   */\n                  iszero\n                    /* \"devs/UserManager.sol\":1476:1506   */\n                  tag_85\n                  jumpi\n                  0x00\n                  dup1\n                  revert\n                tag_85:\n                    /* \"devs/UserManager.sol\":1539:1543   */\n                  0x01\n                    /* \"devs/UserManager.sol\":1516:1527   */\n                  0x04\n                    /* \"devs/UserManager.sol\":1516:1536   */\n                  0x00\n                    /* \"devs/UserManager.sol\":1528:1535   */\n                  dup4\n                    /* \"devs/UserManager.sol\":1516:1536   */\n                  0xffffffffffffffffffffffffffffffffffffffff\n                  and\n                  0xffffffffffffffffffffffffffffffffffffffff\n                  and\n                  dup2\n                  mstore\n                  0x20\n                  add\n                  swap1\n                  dup2\n                  mstore\n                  0x20\n                  add\n                  0x00\n                  keccak256\n                  0x00\n                    /* \"devs/UserManager.sol\":1516:1543   */\n                  0x0100\n                  exp\n                  dup2\n                  sload\n                  dup2\n                  0xff\n                  mul\n                  not\n                  and\n                  swap1\n                  dup4\n                  iszero\n                  iszero\n                  mul\n                  or\n                  swap1\n                  sstore\n                  pop\n                    /* \"devs/UserManager.sol\":1553:1570   */\n                  0x00\n                    /* \"devs/UserManager.sol\":1573:1578   */\n                  0x03\n                    /* \"devs/UserManager.sol\":1573:1587   */\n                  0x00\n                    /* \"devs/UserManager.sol\":1579:1586   */\n                  dup4\n                    /* \"devs/UserManager.sol\":1573:1587   */\n                  0xffffffffffffffffffffffffffffffffffffffff\n                  and\n                  0xffffffffffffffffffffffffffffffffffffffff\n                  and\n                  dup2\n                  mstore\n                  0x20\n                  add\n                  swap1\n                  dup2\n                  mstore\n                  0x20\n                  add\n                  0x00\n                  keccak256\n                    /* \"devs/UserManager.sol\":1553:1587   */\n                  swap1\n                  pop\n                    /* \"devs/UserManager.sol\":1616:1623   */\n                  dup2\n                    /* \"devs/UserManager.sol\":1597:1601   */\n                  dup2\n                    /* \"devs/UserManager.sol\":1597:1613   */\n                  0x00\n                  add\n                  0x00\n                    /* \"devs/UserManager.sol\":1597:1623   */\n                  0x0100\n                  exp\n                  dup2\n                  sload\n                  dup2\n                  0xffffffffffffffffffffffffffffffffffffffff\n                  mul\n                  not\n                  and\n                  swap1\n                  dup4\n                  0xffffffffffffffffffffffffffffffffffffffff\n                  and\n                  mul\n                  or\n                  swap1\n                  sstore\n                  pop\n                    /* \"devs/UserManager.sol\":1653:1654   */\n                  0x00\n                    /* \"devs/UserManager.sol\":1633:1637   */\n                  dup2\n                    /* \"devs/UserManager.sol\":1633:1650   */\n                  0x02\n                  add\n                    /* \"devs/UserManager.sol\":1633:1654   */\n                  dup2\n                  swap1\n                  sstore\n                  pop\n                    /* \"devs/UserManager.sol\":1684:1685   */\n                  0x00\n                    /* \"devs/UserManager.sol\":1664:1668   */\n                  dup2\n                    /* \"devs/UserManager.sol\":1664:1680   */\n                  0x03\n                  add\n                    /* \"devs/UserManager.sol\":1664:1685   */\n                  dup2\n                  swap1\n                  sstore\n                  pop\n                    /* \"devs/UserManager.sol\":1715:1716   */\n                  0x00\n                    /* \"devs/UserManager.sol\":1695:1699   */\n                  dup2\n                    /* \"devs/UserManager.sol\":1695:1712   */\n                  0x05\n                  add\n                    /* \"devs/UserManager.sol\":1695:1716   */\n                  dup2\n                  swap1\n                  sstore\n                  pop\n                    /* \"devs/UserManager.sol\":1466:1723   */\n                  pop\n                    /* \"devs/UserManager.sol\":1413:1723   */\n                  pop\n                  jump\t// out\n                    /* \"devs/UserManager.sol\":2198:2437   */\n                tag_46:\n                    /* \"devs/UserManager.sol\":1261:1271   */\n                  caller\n                    /* \"devs/UserManager.sol\":1242:1271   */\n                  0xffffffffffffffffffffffffffffffffffffffff\n                  and\n                    /* \"devs/UserManager.sol\":1242:1257   */\n                  0x01\n                  0x00\n                  swap1\n                  sload\n                  swap1\n                  0x0100\n                  exp\n                  swap1\n                  div\n                  0xffffffffffffffffffffffffffffffffffffffff\n                  and\n                    /* \"devs/UserManager.sol\":1242:1271   */\n                  0xffffffffffffffffffffffffffffffffffffffff\n                  and\n                  eq\n                    /* \"devs/UserManager.sol\":1234:1272   */\n                  tag_87\n                  jumpi\n                  0x00\n                  dup1\n                  revert\n                tag_87:\n                    /* \"devs/UserManager.sol\":2283:2294   */\n                  0x04\n                    /* \"devs/UserManager.sol\":2283:2303   */\n                  0x00\n                    /* \"devs/UserManager.sol\":2295:2302   */\n                  dup4\n                    /* \"devs/UserManager.sol\":2283:2303   */\n                  0xffffffffffffffffffffffffffffffffffffffff\n                  and\n                  0xffffffffffffffffffffffffffffffffffffffff\n                  and\n                  dup2\n                  mstore\n                  0x20\n                  add\n                  swap1\n                  dup2\n                  mstore\n                  0x20\n                  add\n                  0x00\n                  keccak256\n                  0x00\n                  swap1\n                  sload\n                  swap1\n                  0x0100\n                  exp\n                  swap1\n                  div\n                  0xff\n                  and\n                    /* \"devs/UserManager.sol\":2275:2304   */\n                  tag_89\n                  jumpi\n                  0x00\n                  dup1\n                  revert\n                tag_89:\n                    /* \"devs/UserManager.sol\":2314:2331   */\n                  0x00\n                    /* \"devs/UserManager.sol\":2334:2339   */\n                  0x03\n                    /* \"devs/UserManager.sol\":2334:2348   */\n                  0x00\n                    /* \"devs/UserManager.sol\":2340:2347   */\n                  dup5\n                    /* \"devs/UserManager.sol\":2334:2348   */\n                  0xffffffffffffffffffffffffffffffffffffffff\n                  and\n                  0xffffffffffffffffffffffffffffffffffffffff\n                  and\n                  dup2\n                  mstore\n                  0x20\n                  add\n                  swap1\n                  dup2\n                  mstore\n                  0x20\n                  add\n                  0x00\n                  keccak256\n                    /* \"devs/UserManager.sol\":2314:2348   */\n                  swap1\n                  pop\n                    /* \"devs/UserManager.sol\":2396:2401   */\n                  0x00\n                    /* \"devs/UserManager.sol\":2358:2374   */\n                  0x05\n                    /* \"devs/UserManager.sol\":2358:2383   */\n                  0x00\n                    /* \"devs/UserManager.sol\":2375:2382   */\n                  dup6\n                    /* \"devs/UserManager.sol\":2358:2383   */\n                  0xffffffffffffffffffffffffffffffffffffffff\n                  and\n                  0xffffffffffffffffffffffffffffffffffffffff\n                  and\n                  dup2\n                  mstore\n                  0x20\n                  add\n                  swap1\n                  dup2\n                  mstore\n                  0x20\n                  add\n                  0x00\n                  keccak256\n                    /* \"devs/UserManager.sol\":2358:2393   */\n                  0x00\n                    /* \"devs/UserManager.sol\":2384:2392   */\n                  dup5\n                    /* \"devs/UserManager.sol\":2358:2393   */\n                  dup2\n                  mstore\n                  0x20\n                  add\n                  swap1\n                  dup2\n                  mstore\n                  0x20\n                  add\n                  0x00\n                  keccak256\n                  0x00\n                    /* \"devs/UserManager.sol\":2358:2401   */\n                  0x0100\n                  exp\n                  dup2\n                  sload\n                  dup2\n                  0xff\n                  mul\n                  not\n                  and\n                  swap1\n                  dup4\n                  iszero\n                  iszero\n                  mul\n                  or\n                  swap1\n                  sstore\n                  pop\n                    /* \"devs/UserManager.sol\":2411:2415   */\n                  dup1\n                    /* \"devs/UserManager.sol\":2411:2428   */\n                  0x02\n                  add\n                  0x00\n                    /* \"devs/UserManager.sol\":2411:2430   */\n                  dup2\n                  sload\n                  dup1\n                  swap3\n                  swap2\n                  swap1\n                  tag_90\n                  swap1\n                  tag_91\n                  jump\t// in\n                tag_90:\n                  swap2\n                  swap1\n                  pop\n                  sstore\n                  pop\n                    /* \"devs/UserManager.sol\":2265:2437   */\n                  pop\n                    /* \"devs/UserManager.sol\":2198:2437   */\n                  pop\n                  pop\n                  jump\t// out\n                    /* \"devs/UserManager.sol\":1138:1158   */\n                tag_48:\n                  sload(0x06)\n                  dup2\n                  jump\t// out\n                    /* \"devs/UserManager.sol\":1729:1837   */\n                tag_52:\n                    /* \"devs/UserManager.sol\":1261:1271   */\n                  caller\n                    /* \"devs/UserManager.sol\":1242:1271   */\n                  0xffffffffffffffffffffffffffffffffffffffff\n                  and\n                    /* \"devs/UserManager.sol\":1242:1257   */\n                  0x01\n                  0x00\n                  swap1\n                  sload\n                  swap1\n                  0x0100\n                  exp\n                  swap1\n                  div\n                  0xffffffffffffffffffffffffffffffffffffffff\n                  and\n                    /* \"devs/UserManager.sol\":1242:1271   */\n                  0xffffffffffffffffffffffffffffffffffffffff\n                  and\n                  eq\n                    /* \"devs/UserManager.sol\":1234:1272   */\n                  tag_93\n                  jumpi\n                  0x00\n                  dup1\n                  revert\n                tag_93:\n                    /* \"devs/UserManager.sol\":1826:1830   */\n                  0x01\n                    /* \"devs/UserManager.sol\":1801:1808   */\n                  0x07\n                    /* \"devs/UserManager.sol\":1801:1823   */\n                  0x00\n                    /* \"devs/UserManager.sol\":1809:1822   */\n                  dup4\n                    /* \"devs/UserManager.sol\":1801:1823   */\n                  0xffffffffffffffffffffffffffffffffffffffff\n                  and\n                  0xffffffffffffffffffffffffffffffffffffffff\n                  and\n                  dup2\n                  mstore\n                  0x20\n                  add\n                  swap1\n                  dup2\n                  mstore\n                  0x20\n                  add\n                  0x00\n                  keccak256\n                  0x00\n                    /* \"devs/UserManager.sol\":1801:1830   */\n                  0x0100\n                  exp\n                  dup2\n                  sload\n                  dup2\n                  0xff\n                  mul\n                  not\n                  and\n                  swap1\n                  dup4\n                  iszero\n                  iszero\n                  mul\n                  or\n                  swap1\n                  sstore\n                  pop\n                    /* \"devs/UserManager.sol\":1729:1837   */\n                  pop\n                  jump\t// out\n                    /* \"devs/UserManager.sol\":838:858   */\n                tag_54:\n                  0x00\n                  dup1\n                  sload\n                  swap1\n                  0x0100\n                  exp\n                  swap1\n                  div\n                  0xffffffffffffffffffffffffffffffffffffffff\n                  and\n                  dup2\n                  jump\t// out\n                    /* \"devs/UserManager.sol\":1925:2192   */\n                tag_59:\n                    /* \"devs/UserManager.sol\":1261:1271   */\n                  caller\n                    /* \"devs/UserManager.sol\":1242:1271   */\n                  0xffffffffffffffffffffffffffffffffffffffff\n                  and\n                    /* \"devs/UserManager.sol\":1242:1257   */\n                  0x01\n                  0x00\n                  swap1\n                  sload\n                  swap1\n                  0x0100\n                  exp\n                  swap1\n                  div\n                  0xffffffffffffffffffffffffffffffffffffffff\n                  and\n                    /* \"devs/UserManager.sol\":1242:1271   */\n                  0xffffffffffffffffffffffffffffffffffffffff\n                  and\n                  eq\n                    /* \"devs/UserManager.sol\":1234:1272   */\n                  tag_96\n                  jumpi\n                  0x00\n                  dup1\n                  revert\n                tag_96:\n                    /* \"devs/UserManager.sol\":2010:2021   */\n                  0x04\n                    /* \"devs/UserManager.sol\":2010:2030   */\n                  0x00\n                    /* \"devs/UserManager.sol\":2022:2029   */\n                  dup4\n                    /* \"devs/UserManager.sol\":2010:2030   */\n                  0xffffffffffffffffffffffffffffffffffffffff\n                  and\n                  0xffffffffffffffffffffffffffffffffffffffff\n                  and\n                  dup2\n                  mstore\n                  0x20\n                  add\n                  swap1\n                  dup2\n                  mstore\n                  0x20\n                  add\n                  0x00\n                  keccak256\n                  0x00\n                  swap1\n                  sload\n                  swap1\n                  0x0100\n                  exp\n                  swap1\n                  div\n                  0xff\n                  and\n                    /* \"devs/UserManager.sol\":2002:2031   */\n                  tag_98\n                  jumpi\n                  0x00\n                  dup1\n                  revert\n                tag_98:\n                    /* \"devs/UserManager.sol\":2042:2059   */\n                  0x00\n                    /* \"devs/UserManager.sol\":2062:2067   */\n                  0x03\n                    /* \"devs/UserManager.sol\":2062:2076   */\n                  0x00\n                    /* \"devs/UserManager.sol\":2068:2075   */\n                  dup5\n                    /* \"devs/UserManager.sol\":2062:2076   */\n                  0xffffffffffffffffffffffffffffffffffffffff\n                  and\n                  0xffffffffffffffffffffffffffffffffffffffff\n                  and\n                  dup2\n                  mstore\n                  0x20\n                  add\n                  swap1\n                  dup2\n                  mstore\n                  0x20\n                  add\n                  0x00\n                  keccak256\n                    /* \"devs/UserManager.sol\":2042:2076   */\n                  swap1\n                  pop\n                    /* \"devs/UserManager.sol\":2124:2128   */\n                  0x01\n                    /* \"devs/UserManager.sol\":2086:2102   */\n                  0x05\n                    /* \"devs/UserManager.sol\":2086:2111   */\n                  0x00\n                    /* \"devs/UserManager.sol\":2103:2110   */\n                  dup6\n                    /* \"devs/UserManager.sol\":2086:2111   */\n                  0xffffffffffffffffffffffffffffffffffffffff\n                  and\n                  0xffffffffffffffffffffffffffffffffffffffff\n                  and\n                  dup2\n                  mstore\n                  0x20\n                  add\n                  swap1\n                  dup2\n                  mstore\n                  0x20\n                  add\n                  0x00\n                  keccak256\n                    /* \"devs/UserManager.sol\":2086:2121   */\n                  0x00\n                    /* \"devs/UserManager.sol\":2112:2120   */\n                  dup5\n                    /* \"devs/UserManager.sol\":2086:2121   */\n                  dup2\n                  mstore\n                  0x20\n                  add\n                  swap1\n                  dup2\n                  mstore\n                  0x20\n                  add\n                  0x00\n                  keccak256\n                  0x00\n                    /* \"devs/UserManager.sol\":2086:2128   */\n                  0x0100\n                  exp\n                  dup2\n                  sload\n                  dup2\n                  0xff\n                  mul\n                  not\n                  and\n                  swap1\n                  dup4\n                  iszero\n                  iszero\n                  mul\n                  or\n                  swap1\n                  sstore\n                  pop\n                    /* \"devs/UserManager.sol\":2138:2142   */\n                  dup1\n                    /* \"devs/UserManager.sol\":2138:2155   */\n                  0x02\n                  add\n                  0x00\n                    /* \"devs/UserManager.sol\":2138:2157   */\n                  dup2\n                  sload\n                  dup1\n                  swap3\n                  swap2\n                  swap1\n                  tag_99\n                  swap1\n                  tag_100\n                  jump\t// in\n                tag_99:\n                  swap2\n                  swap1\n                  pop\n                  sstore\n                  pop\n                    /* \"devs/UserManager.sol\":2167:2171   */\n                  dup1\n                    /* \"devs/UserManager.sol\":2167:2183   */\n                  0x03\n                  add\n                  0x00\n                    /* \"devs/UserManager.sol\":2167:2185   */\n                  dup2\n                  sload\n                  dup1\n                  swap3\n                  swap2\n                  swap1\n                  tag_101\n                  swap1\n                  tag_100\n                  jump\t// in\n                tag_101:\n                  swap2\n                  swap1\n                  pop\n                  sstore\n                  pop\n                    /* \"devs/UserManager.sol\":1992:2192   */\n                  pop\n                    /* \"devs/UserManager.sol\":1925:2192   */\n                  pop\n                  pop\n                  jump\t// out\n                    /* \"devs/UserManager.sol\":927:964   */\n                tag_62:\n                  mstore(0x20, 0x03)\n                  dup1\n                  0x00\n                  mstore\n                  keccak256(0x00, 0x40)\n                  0x00\n                  swap2\n                  pop\n                  swap1\n                  pop\n                  dup1\n                  0x00\n                  add\n                  0x00\n                  swap1\n                  sload\n                  swap1\n                  0x0100\n                  exp\n                  swap1\n                  div\n                  0xffffffffffffffffffffffffffffffffffffffff\n                  and\n                  swap1\n                  dup1\n                  0x01\n                  add\n                  sload\n                  swap1\n                  dup1\n                  0x02\n                  add\n                  sload\n                  swap1\n                  dup1\n                  0x03\n                  add\n                  sload\n                  swap1\n                  dup1\n                  0x05\n                  add\n                  sload\n                  swap1\n                  pop\n                  dup6\n                  jump\t// out\n                    /* \"devs/UserManager.sol\":902:921   */\n                tag_66:\n                  sload(0x02)\n                  dup2\n                  jump\t// out\n                    /* \"devs/UserManager.sol\":2443:2746   */\n                tag_70:\n                    /* \"devs/UserManager.sol\":1261:1271   */\n                  caller\n                    /* \"devs/UserManager.sol\":1242:1271   */\n                  0xffffffffffffffffffffffffffffffffffffffff\n                  and\n                    /* \"devs/UserManager.sol\":1242:1257   */\n                  0x01\n                  0x00\n                  swap1\n                  sload\n                  swap1\n                  0x0100\n                  exp\n                  swap1\n                  div\n                  0xffffffffffffffffffffffffffffffffffffffff\n                  and\n                    /* \"devs/UserManager.sol\":1242:1271   */\n                  0xffffffffffffffffffffffffffffffffffffffff\n                  and\n                  eq\n                    /* \"devs/UserManager.sol\":1234:1272   */\n                  tag_103\n                  jumpi\n                  0x00\n                  dup1\n                  revert\n                tag_103:\n                    /* \"devs/UserManager.sol\":2529:2540   */\n                  0x04\n                    /* \"devs/UserManager.sol\":2529:2549   */\n                  0x00\n                    /* \"devs/UserManager.sol\":2541:2548   */\n                  dup4\n                    /* \"devs/UserManager.sol\":2529:2549   */\n                  0xffffffffffffffffffffffffffffffffffffffff\n                  and\n                  0xffffffffffffffffffffffffffffffffffffffff\n                  and\n                  dup2\n                  mstore\n                  0x20\n                  add\n                  swap1\n                  dup2\n                  mstore\n                  0x20\n                  add\n                  0x00\n                  keccak256\n                  0x00\n                  swap1\n                  sload\n                  swap1\n                  0x0100\n                  exp\n                  swap1\n                  div\n                  0xff\n                  and\n                    /* \"devs/UserManager.sol\":2521:2550   */\n                  tag_105\n                  jumpi\n                  0x00\n                  dup1\n                  revert\n                tag_105:\n                    /* \"devs/UserManager.sol\":2561:2578   */\n                  0x00\n                    /* \"devs/UserManager.sol\":2581:2586   */\n                  0x03\n                    /* \"devs/UserManager.sol\":2581:2595   */\n                  0x00\n                    /* \"devs/UserManager.sol\":2587:2594   */\n                  dup5\n                    /* \"devs/UserManager.sol\":2581:2595   */\n                  0xffffffffffffffffffffffffffffffffffffffff\n                  and\n                  0xffffffffffffffffffffffffffffffffffffffff\n                  and\n                  dup2\n                  mstore\n                  0x20\n                  add\n                  swap1\n                  dup2\n                  mstore\n                  0x20\n                  add\n                  0x00\n                  keccak256\n                    /* \"devs/UserManager.sol\":2561:2595   */\n                  swap1\n                  pop\n                    /* \"devs/UserManager.sol\":2605:2609   */\n                  dup1\n                    /* \"devs/UserManager.sol\":2605:2626   */\n                  0x06\n                  add\n                    /* \"devs/UserManager.sol\":2632:2640   */\n                  dup3\n                    /* \"devs/UserManager.sol\":2605:2641   */\n                  swap1\n                  dup1\n                  0x01\n                  dup2\n                  sload\n                  add\n                  dup1\n                  dup3\n                  sstore\n                  dup1\n                  swap2\n                  pop\n                  pop\n                  0x01\n                  swap1\n                  sub\n                  swap1\n                  0x00\n                  mstore\n                  keccak256(0x00, 0x20)\n                  add\n                  0x00\n                  swap1\n                  swap2\n                  swap1\n                  swap2\n                  swap1\n                  swap2\n                  pop\n                  sstore\n                    /* \"devs/UserManager.sol\":2693:2697   */\n                  dup1\n                    /* \"devs/UserManager.sol\":2693:2710   */\n                  0x05\n                  add\n                  sload\n                    /* \"devs/UserManager.sol\":2651:2655   */\n                  dup2\n                    /* \"devs/UserManager.sol\":2651:2680   */\n                  0x07\n                  add\n                    /* \"devs/UserManager.sol\":2651:2690   */\n                  0x00\n                    /* \"devs/UserManager.sol\":2681:2689   */\n                  dup5\n                    /* \"devs/UserManager.sol\":2651:2690   */\n                  dup2\n                  mstore\n                  0x20\n                  add\n                  swap1\n                  dup2\n                  mstore\n                  0x20\n                  add\n                  0x00\n                  keccak256\n                    /* \"devs/UserManager.sol\":2651:2710   */\n                  dup2\n                  swap1\n                  sstore\n                  pop\n                    /* \"devs/UserManager.sol\":2720:2724   */\n                  dup1\n                    /* \"devs/UserManager.sol\":2720:2737   */\n                  0x05\n                  add\n                  0x00\n                    /* \"devs/UserManager.sol\":2720:2739   */\n                  dup2\n                  sload\n                  dup1\n                  swap3\n                  swap2\n                  swap1\n                  tag_107\n                  swap1\n                  tag_100\n                  jump\t// in\n                tag_107:\n                  swap2\n                  swap1\n                  pop\n                  sstore\n                  pop\n                    /* \"devs/UserManager.sol\":2511:2746   */\n                  pop\n                    /* \"devs/UserManager.sol\":2443:2746   */\n                  pop\n                  pop\n                  jump\t// out\n                    /* \"devs/UserManager.sol\":2778:2900   */\n                tag_73:\n                    /* \"devs/UserManager.sol\":2846:2850   */\n                  0x00\n                    /* \"devs/UserManager.sol\":2868:2879   */\n                  0x04\n                    /* \"devs/UserManager.sol\":2868:2893   */\n                  0x00\n                    /* \"devs/UserManager.sol\":2880:2892   */\n                  dup4\n                    /* \"devs/UserManager.sol\":2868:2893   */\n                  0xffffffffffffffffffffffffffffffffffffffff\n                  and\n                  0xffffffffffffffffffffffffffffffffffffffff\n                  and\n                  dup2\n                  mstore\n                  0x20\n                  add\n                  swap1\n                  dup2\n                  mstore\n                  0x20\n                  add\n                  0x00\n                  keccak256\n                  0x00\n                  swap1\n                  sload\n                  swap1\n                  0x0100\n                  exp\n                  swap1\n                  div\n                  0xff\n                  and\n                    /* \"devs/UserManager.sol\":2861:2893   */\n                  swap1\n                  pop\n                    /* \"devs/UserManager.sol\":2778:2900   */\n                  swap2\n                  swap1\n                  pop\n                  jump\t// out\n                    /* \"devs/UserManager.sol\":970:1013   */\n                tag_77:\n                  mstore(0x20, 0x04)\n                  dup1\n                  0x00\n                  mstore\n                  keccak256(0x00, 0x40)\n                  0x00\n                  swap2\n                  pop\n                  sload\n                  swap1\n                  0x0100\n                  exp\n                  swap1\n                  div\n                  0xff\n                  and\n                  dup2\n                  jump\t// out\n                    /* \"#utility.yul\":88:205   */\n                tag_110:\n                    /* \"#utility.yul\":197:198   */\n                  0x00\n                    /* \"#utility.yul\":194:195   */\n                  dup1\n                    /* \"#utility.yul\":187:199   */\n                  revert\n                    /* \"#utility.yul\":334:460   */\n                tag_112:\n                    /* \"#utility.yul\":371:378   */\n                  0x00\n                    /* \"#utility.yul\":411:453   */\n                  0xffffffffffffffffffffffffffffffffffffffff\n                    /* \"#utility.yul\":404:409   */\n                  dup3\n                    /* \"#utility.yul\":400:454   */\n                  and\n                    /* \"#utility.yul\":389:454   */\n                  swap1\n                  pop\n                    /* \"#utility.yul\":334:460   */\n                  swap2\n                  swap1\n                  pop\n                  jump\t// out\n                    /* \"#utility.yul\":466:562   */\n                tag_113:\n                    /* \"#utility.yul\":503:510   */\n                  0x00\n                    /* \"#utility.yul\":532:556   */\n                  tag_130\n                    /* \"#utility.yul\":550:555   */\n                  dup3\n                    /* \"#utility.yul\":532:556   */\n                  tag_112\n                  jump\t// in\n                tag_130:\n                    /* \"#utility.yul\":521:556   */\n                  swap1\n                  pop\n                    /* \"#utility.yul\":466:562   */\n                  swap2\n                  swap1\n                  pop\n                  jump\t// out\n                    /* \"#utility.yul\":568:690   */\n                tag_114:\n                    /* \"#utility.yul\":641:665   */\n                  tag_132\n                    /* \"#utility.yul\":659:664   */\n                  dup2\n                    /* \"#utility.yul\":641:665   */\n                  tag_113\n                  jump\t// in\n                tag_132:\n                    /* \"#utility.yul\":634:639   */\n                  dup2\n                    /* \"#utility.yul\":631:666   */\n                  eq\n                    /* \"#utility.yul\":621:684   */\n                  tag_133\n                  jumpi\n                    /* \"#utility.yul\":680:681   */\n                  0x00\n                    /* \"#utility.yul\":677:678   */\n                  dup1\n                    /* \"#utility.yul\":670:682   */\n                  revert\n                    /* \"#utility.yul\":621:684   */\n                tag_133:\n                    /* \"#utility.yul\":568:690   */\n                  pop\n                  jump\t// out\n                    /* \"#utility.yul\":696:835   */\n                tag_115:\n                    /* \"#utility.yul\":742:747   */\n                  0x00\n                    /* \"#utility.yul\":780:786   */\n                  dup2\n                    /* \"#utility.yul\":767:787   */\n                  calldataload\n                    /* \"#utility.yul\":758:787   */\n                  swap1\n                  pop\n                    /* \"#utility.yul\":796:829   */\n                  tag_135\n                    /* \"#utility.yul\":823:828   */\n                  dup2\n                    /* \"#utility.yul\":796:829   */\n                  tag_114\n                  jump\t// in\n                tag_135:\n                    /* \"#utility.yul\":696:835   */\n                  swap3\n                  swap2\n                  pop\n                  pop\n                  jump\t// out\n                    /* \"#utility.yul\":841:1170   */\n                tag_23:\n                    /* \"#utility.yul\":900:906   */\n                  0x00\n                    /* \"#utility.yul\":949:951   */\n                  0x20\n                    /* \"#utility.yul\":937:946   */\n                  dup3\n                    /* \"#utility.yul\":928:935   */\n                  dup5\n                    /* \"#utility.yul\":924:947   */\n                  sub\n                    /* \"#utility.yul\":920:952   */\n                  slt\n                    /* \"#utility.yul\":917:1036   */\n                  iszero\n                  tag_137\n                  jumpi\n                    /* \"#utility.yul\":955:1034   */\n                  tag_138\n                  tag_110\n                  jump\t// in\n                tag_138:\n                    /* \"#utility.yul\":917:1036   */\n                tag_137:\n                    /* \"#utility.yul\":1075:1076   */\n                  0x00\n                    /* \"#utility.yul\":1100:1153   */\n                  tag_139\n                    /* \"#utility.yul\":1145:1152   */\n                  dup5\n                    /* \"#utility.yul\":1136:1142   */\n                  dup3\n                    /* \"#utility.yul\":1125:1134   */\n                  dup6\n                    /* \"#utility.yul\":1121:1143   */\n                  add\n                    /* \"#utility.yul\":1100:1153   */\n                  tag_115\n                  jump\t// in\n                tag_139:\n                    /* \"#utility.yul\":1090:1153   */\n                  swap2\n                  pop\n                    /* \"#utility.yul\":1046:1163   */\n                  pop\n                    /* \"#utility.yul\":841:1170   */\n                  swap3\n                  swap2\n                  pop\n                  pop\n                  jump\t// out\n                    /* \"#utility.yul\":1176:1253   */\n                tag_116:\n                    /* \"#utility.yul\":1213:1220   */\n                  0x00\n                    /* \"#utility.yul\":1242:1247   */\n                  dup2\n                    /* \"#utility.yul\":1231:1247   */\n                  swap1\n                  pop\n                    /* \"#utility.yul\":1176:1253   */\n                  swap2\n                  swap1\n                  pop\n                  jump\t// out\n                    /* \"#utility.yul\":1259:1377   */\n                tag_117:\n                    /* \"#utility.yul\":1346:1370   */\n                  tag_142\n                    /* \"#utility.yul\":1364:1369   */\n                  dup2\n                    /* \"#utility.yul\":1346:1370   */\n                  tag_116\n                  jump\t// in\n                tag_142:\n                    /* \"#utility.yul\":1341:1344   */\n                  dup3\n                    /* \"#utility.yul\":1334:1371   */\n                  mstore\n                    /* \"#utility.yul\":1259:1377   */\n                  pop\n                  pop\n                  jump\t// out\n                    /* \"#utility.yul\":1383:1605   */\n                tag_26:\n                    /* \"#utility.yul\":1476:1480   */\n                  0x00\n                    /* \"#utility.yul\":1514:1516   */\n                  0x20\n                    /* \"#utility.yul\":1503:1512   */\n                  dup3\n                    /* \"#utility.yul\":1499:1517   */\n                  add\n                    /* \"#utility.yul\":1491:1517   */\n                  swap1\n                  pop\n                    /* \"#utility.yul\":1527:1598   */\n                  tag_144\n                    /* \"#utility.yul\":1595:1596   */\n                  0x00\n                    /* \"#utility.yul\":1584:1593   */\n                  dup4\n                    /* \"#utility.yul\":1580:1597   */\n                  add\n                    /* \"#utility.yul\":1571:1577   */\n                  dup5\n                    /* \"#utility.yul\":1527:1598   */\n                  tag_117\n                  jump\t// in\n                tag_144:\n                    /* \"#utility.yul\":1383:1605   */\n                  swap3\n                  swap2\n                  pop\n                  pop\n                  jump\t// out\n                    /* \"#utility.yul\":1611:1733   */\n                tag_118:\n                    /* \"#utility.yul\":1684:1708   */\n                  tag_146\n                    /* \"#utility.yul\":1702:1707   */\n                  dup2\n                    /* \"#utility.yul\":1684:1708   */\n                  tag_116\n                  jump\t// in\n                tag_146:\n                    /* \"#utility.yul\":1677:1682   */\n                  dup2\n                    /* \"#utility.yul\":1674:1709   */\n                  eq\n                    /* \"#utility.yul\":1664:1727   */\n                  tag_147\n                  jumpi\n                    /* \"#utility.yul\":1723:1724   */\n                  0x00\n                    /* \"#utility.yul\":1720:1721   */\n                  dup1\n                    /* \"#utility.yul\":1713:1725   */\n                  revert\n                    /* \"#utility.yul\":1664:1727   */\n                tag_147:\n                    /* \"#utility.yul\":1611:1733   */\n                  pop\n                  jump\t// out\n                    /* \"#utility.yul\":1739:1878   */\n                tag_119:\n                    /* \"#utility.yul\":1785:1790   */\n                  0x00\n                    /* \"#utility.yul\":1823:1829   */\n                  dup2\n                    /* \"#utility.yul\":1810:1830   */\n                  calldataload\n                    /* \"#utility.yul\":1801:1830   */\n                  swap1\n                  pop\n                    /* \"#utility.yul\":1839:1872   */\n                  tag_149\n                    /* \"#utility.yul\":1866:1871   */\n                  dup2\n                    /* \"#utility.yul\":1839:1872   */\n                  tag_118\n                  jump\t// in\n                tag_149:\n                    /* \"#utility.yul\":1739:1878   */\n                  swap3\n                  swap2\n                  pop\n                  pop\n                  jump\t// out\n                    /* \"#utility.yul\":1884:2358   */\n                tag_29:\n                    /* \"#utility.yul\":1952:1958   */\n                  0x00\n                    /* \"#utility.yul\":1960:1966   */\n                  dup1\n                    /* \"#utility.yul\":2009:2011   */\n                  0x40\n                    /* \"#utility.yul\":1997:2006   */\n                  dup4\n                    /* \"#utility.yul\":1988:1995   */\n                  dup6\n                    /* \"#utility.yul\":1984:2007   */\n                  sub\n                    /* \"#utility.yul\":1980:2012   */\n                  slt\n                    /* \"#utility.yul\":1977:2096   */\n                  iszero\n                  tag_151\n                  jumpi\n                    /* \"#utility.yul\":2015:2094   */\n                  tag_152\n                  tag_110\n                  jump\t// in\n                tag_152:\n                    /* \"#utility.yul\":1977:2096   */\n                tag_151:\n                    /* \"#utility.yul\":2135:2136   */\n                  0x00\n                    /* \"#utility.yul\":2160:2213   */\n                  tag_153\n                    /* \"#utility.yul\":2205:2212   */\n                  dup6\n                    /* \"#utility.yul\":2196:2202   */\n                  dup3\n                    /* \"#utility.yul\":2185:2194   */\n                  dup7\n                    /* \"#utility.yul\":2181:2203   */\n                  add\n                    /* \"#utility.yul\":2160:2213   */\n                  tag_115\n                  jump\t// in\n                tag_153:\n                    /* \"#utility.yul\":2150:2213   */\n                  swap3\n                  pop\n                    /* \"#utility.yul\":2106:2223   */\n                  pop\n                    /* \"#utility.yul\":2262:2264   */\n                  0x20\n                    /* \"#utility.yul\":2288:2341   */\n                  tag_154\n                    /* \"#utility.yul\":2333:2340   */\n                  dup6\n                    /* \"#utility.yul\":2324:2330   */\n                  dup3\n                    /* \"#utility.yul\":2313:2322   */\n                  dup7\n                    /* \"#utility.yul\":2309:2331   */\n                  add\n                    /* \"#utility.yul\":2288:2341   */\n                  tag_119\n                  jump\t// in\n                tag_154:\n                    /* \"#utility.yul\":2278:2341   */\n                  swap2\n                  pop\n                    /* \"#utility.yul\":2233:2351   */\n                  pop\n                    /* \"#utility.yul\":1884:2358   */\n                  swap3\n                  pop\n                  swap3\n                  swap1\n                  pop\n                  jump\t// out\n                    /* \"#utility.yul\":2364:2454   */\n                tag_120:\n                    /* \"#utility.yul\":2398:2405   */\n                  0x00\n                    /* \"#utility.yul\":2441:2446   */\n                  dup2\n                    /* \"#utility.yul\":2434:2447   */\n                  iszero\n                    /* \"#utility.yul\":2427:2448   */\n                  iszero\n                    /* \"#utility.yul\":2416:2448   */\n                  swap1\n                  pop\n                    /* \"#utility.yul\":2364:2454   */\n                  swap2\n                  swap1\n                  pop\n                  jump\t// out\n                    /* \"#utility.yul\":2460:2569   */\n                tag_121:\n                    /* \"#utility.yul\":2541:2562   */\n                  tag_157\n                    /* \"#utility.yul\":2556:2561   */\n                  dup2\n                    /* \"#utility.yul\":2541:2562   */\n                  tag_120\n                  jump\t// in\n                tag_157:\n                    /* \"#utility.yul\":2536:2539   */\n                  dup3\n                    /* \"#utility.yul\":2529:2563   */\n                  mstore\n                    /* \"#utility.yul\":2460:2569   */\n                  pop\n                  pop\n                  jump\t// out\n                    /* \"#utility.yul\":2575:2785   */\n                tag_32:\n                    /* \"#utility.yul\":2662:2666   */\n                  0x00\n                    /* \"#utility.yul\":2700:2702   */\n                  0x20\n                    /* \"#utility.yul\":2689:2698   */\n                  dup3\n                    /* \"#utility.yul\":2685:2703   */\n                  add\n                    /* \"#utility.yul\":2677:2703   */\n                  swap1\n                  pop\n                    /* \"#utility.yul\":2713:2778   */\n                  tag_159\n                    /* \"#utility.yul\":2775:2776   */\n                  0x00\n                    /* \"#utility.yul\":2764:2773   */\n                  dup4\n                    /* \"#utility.yul\":2760:2777   */\n                  add\n                    /* \"#utility.yul\":2751:2757   */\n                  dup5\n                    /* \"#utility.yul\":2713:2778   */\n                  tag_121\n                  jump\t// in\n                tag_159:\n                    /* \"#utility.yul\":2575:2785   */\n                  swap3\n                  swap2\n                  pop\n                  pop\n                  jump\t// out\n                    /* \"#utility.yul\":2791:2909   */\n                tag_122:\n                    /* \"#utility.yul\":2878:2902   */\n                  tag_161\n                    /* \"#utility.yul\":2896:2901   */\n                  dup2\n                    /* \"#utility.yul\":2878:2902   */\n                  tag_113\n                  jump\t// in\n                tag_161:\n                    /* \"#utility.yul\":2873:2876   */\n                  dup3\n                    /* \"#utility.yul\":2866:2903   */\n                  mstore\n                    /* \"#utility.yul\":2791:2909   */\n                  pop\n                  pop\n                  jump\t// out\n                    /* \"#utility.yul\":2915:3137   */\n                tag_56:\n                    /* \"#utility.yul\":3008:3012   */\n                  0x00\n                    /* \"#utility.yul\":3046:3048   */\n                  0x20\n                    /* \"#utility.yul\":3035:3044   */\n                  dup3\n                    /* \"#utility.yul\":3031:3049   */\n                  add\n                    /* \"#utility.yul\":3023:3049   */\n                  swap1\n                  pop\n                    /* \"#utility.yul\":3059:3130   */\n                  tag_163\n                    /* \"#utility.yul\":3127:3128   */\n                  0x00\n                    /* \"#utility.yul\":3116:3125   */\n                  dup4\n                    /* \"#utility.yul\":3112:3129   */\n                  add\n                    /* \"#utility.yul\":3103:3109   */\n                  dup5\n                    /* \"#utility.yul\":3059:3130   */\n                  tag_122\n                  jump\t// in\n                tag_163:\n                    /* \"#utility.yul\":2915:3137   */\n                  swap3\n                  swap2\n                  pop\n                  pop\n                  jump\t// out\n                    /* \"#utility.yul\":3143:3807   */\n                tag_64:\n                    /* \"#utility.yul\":3348:3352   */\n                  0x00\n                    /* \"#utility.yul\":3386:3389   */\n                  0xa0\n                    /* \"#utility.yul\":3375:3384   */\n                  dup3\n                    /* \"#utility.yul\":3371:3390   */\n                  add\n                    /* \"#utility.yul\":3363:3390   */\n                  swap1\n                  pop\n                    /* \"#utility.yul\":3400:3471   */\n                  tag_165\n                    /* \"#utility.yul\":3468:3469   */\n                  0x00\n                    /* \"#utility.yul\":3457:3466   */\n                  dup4\n                    /* \"#utility.yul\":3453:3470   */\n                  add\n                    /* \"#utility.yul\":3444:3450   */\n                  dup9\n                    /* \"#utility.yul\":3400:3471   */\n                  tag_122\n                  jump\t// in\n                tag_165:\n                    /* \"#utility.yul\":3481:3553   */\n                  tag_166\n                    /* \"#utility.yul\":3549:3551   */\n                  0x20\n                    /* \"#utility.yul\":3538:3547   */\n                  dup4\n                    /* \"#utility.yul\":3534:3552   */\n                  add\n                    /* \"#utility.yul\":3525:3531   */\n                  dup8\n                    /* \"#utility.yul\":3481:3553   */\n                  tag_117\n                  jump\t// in\n                tag_166:\n                    /* \"#utility.yul\":3563:3635   */\n                  tag_167\n                    /* \"#utility.yul\":3631:3633   */\n                  0x40\n                    /* \"#utility.yul\":3620:3629   */\n                  dup4\n                    /* \"#utility.yul\":3616:3634   */\n                  add\n                    /* \"#utility.yul\":3607:3613   */\n                  dup7\n                    /* \"#utility.yul\":3563:3635   */\n                  tag_117\n                  jump\t// in\n                tag_167:\n                    /* \"#utility.yul\":3645:3717   */\n                  tag_168\n                    /* \"#utility.yul\":3713:3715   */\n                  0x60\n                    /* \"#utility.yul\":3702:3711   */\n                  dup4\n                    /* \"#utility.yul\":3698:3716   */\n                  add\n                    /* \"#utility.yul\":3689:3695   */\n                  dup6\n                    /* \"#utility.yul\":3645:3717   */\n                  tag_117\n                  jump\t// in\n                tag_168:\n                    /* \"#utility.yul\":3727:3800   */\n                  tag_169\n                    /* \"#utility.yul\":3795:3798   */\n                  0x80\n                    /* \"#utility.yul\":3784:3793   */\n                  dup4\n                    /* \"#utility.yul\":3780:3799   */\n                  add\n                    /* \"#utility.yul\":3771:3777   */\n                  dup5\n                    /* \"#utility.yul\":3727:3800   */\n                  tag_117\n                  jump\t// in\n                tag_169:\n                    /* \"#utility.yul\":3143:3807   */\n                  swap7\n                  swap6\n                  pop\n                  pop\n                  pop\n                  pop\n                  pop\n                  pop\n                  jump\t// out\n                    /* \"#utility.yul\":3813:3993   */\n                tag_123:\n                    /* \"#utility.yul\":3861:3938   */\n                  0x4e487b7100000000000000000000000000000000000000000000000000000000\n                    /* \"#utility.yul\":3858:3859   */\n                  0x00\n                    /* \"#utility.yul\":3851:3939   */\n                  mstore\n                    /* \"#utility.yul\":3958:3962   */\n                  0x11\n                    /* \"#utility.yul\":3955:3956   */\n                  0x04\n                    /* \"#utility.yul\":3948:3963   */\n                  mstore\n                    /* \"#utility.yul\":3982:3986   */\n                  0x24\n                    /* \"#utility.yul\":3979:3980   */\n                  0x00\n                    /* \"#utility.yul\":3972:3987   */\n                  revert\n                    /* \"#utility.yul\":3999:4170   */\n                tag_91:\n                    /* \"#utility.yul\":4038:4041   */\n                  0x00\n                    /* \"#utility.yul\":4061:4085   */\n                  tag_172\n                    /* \"#utility.yul\":4079:4084   */\n                  dup3\n                    /* \"#utility.yul\":4061:4085   */\n                  tag_116\n                  jump\t// in\n                tag_172:\n                    /* \"#utility.yul\":4052:4085   */\n                  swap2\n                  pop\n                    /* \"#utility.yul\":4107:4111   */\n                  0x00\n                    /* \"#utility.yul\":4100:4105   */\n                  dup3\n                    /* \"#utility.yul\":4097:4112   */\n                  eq\n                    /* \"#utility.yul\":4094:4135   */\n                  iszero\n                  tag_173\n                  jumpi\n                    /* \"#utility.yul\":4115:4133   */\n                  tag_174\n                  tag_123\n                  jump\t// in\n                tag_174:\n                    /* \"#utility.yul\":4094:4135   */\n                tag_173:\n                    /* \"#utility.yul\":4162:4163   */\n                  0x01\n                    /* \"#utility.yul\":4155:4160   */\n                  dup3\n                    /* \"#utility.yul\":4151:4164   */\n                  sub\n                    /* \"#utility.yul\":4144:4164   */\n                  swap1\n                  pop\n                    /* \"#utility.yul\":3999:4170   */\n                  swap2\n                  swap1\n                  pop\n                  jump\t// out\n                    /* \"#utility.yul\":4176:4409   */\n                tag_100:\n                    /* \"#utility.yul\":4215:4218   */\n                  0x00\n                    /* \"#utility.yul\":4238:4262   */\n                  tag_176\n                    /* \"#utility.yul\":4256:4261   */\n                  dup3\n                    /* \"#utility.yul\":4238:4262   */\n                  tag_116\n                  jump\t// in\n                tag_176:\n                    /* \"#utility.yul\":4229:4262   */\n                  swap2\n                  pop\n                    /* \"#utility.yul\":4284:4350   */\n                  0xffffffffffffffffffffffffffffffffffffffffffffffffffffffffffffffff\n                    /* \"#utility.yul\":4277:4282   */\n                  dup3\n                    /* \"#utility.yul\":4274:4351   */\n                  eq\n                    /* \"#utility.yul\":4271:4374   */\n                  iszero\n                  tag_177\n                  jumpi\n                    /* \"#utility.yul\":4354:4372   */\n                  tag_178\n                  tag_123\n                  jump\t// in\n                tag_178:\n                    /* \"#utility.yul\":4271:4374   */\n                tag_177:\n                    /* \"#utility.yul\":4401:4402   */\n                  0x01\n                    /* \"#utility.yul\":4394:4399   */\n                  dup3\n                    /* \"#utility.yul\":4390:4403   */\n                  add\n                    /* \"#utility.yul\":4383:4403   */\n                  swap1\n                  pop\n                    /* \"#utility.yul\":4176:4409   */\n                  swap2\n                  swap1\n                  pop\n                  jump\t// out\n\n                auxdata: 0xa26469706673582212202e8c5e61787c07045dc0e969e3ab27634ec2d54e98d9ccc787d8e8af5a5f046764736f6c634300080a0033\n            }\n        }\n\n        sub_3: assembly {\n                /* \"devs/TokenManager.sol\":843:3646   */\n              mstore(0x40, 0x80)\n                /* \"devs/TokenManager.sol\":1232:1343   */\n              callvalue\n              dup1\n              iszero\n              tag_1\n              jumpi\n              0x00\n              dup1\n              revert\n            tag_1:\n              pop\n              mload(0x40)\n              sub(codesize, bytecodeSize)\n              dup1\n              bytecodeSize\n              dup4\n              codecopy\n              dup2\n              dup2\n              add\n              0x40\n              mstore\n              dup2\n              add\n              swap1\n              tag_2\n              swap2\n              swap1\n              tag_3\n              jump\t// in\n            tag_2:\n                /* \"devs/TokenManager.sol\":1285:1298   */\n              dup1\n                /* \"devs/TokenManager.sol\":1277:1282   */\n              0x00\n              dup1\n                /* \"devs/TokenManager.sol\":1277:1298   */\n              0x0100\n              exp\n              dup2\n              sload\n              dup2\n              0xffffffffffffffffffffffffffffffffffffffff\n              mul\n              not\n              and\n              swap1\n              dup4\n              0xffffffffffffffffffffffffffffffffffffffff\n              and\n              mul\n              or\n              swap1\n              sstore\n              pop\n                /* \"devs/TokenManager.sol\":1326:1336   */\n              caller\n                /* \"devs/TokenManager.sol\":1308:1323   */\n              0x01\n              0x00\n                /* \"devs/TokenManager.sol\":1308:1336   */\n              0x0100\n              exp\n              dup2\n              sload\n              dup2\n              0xffffffffffffffffffffffffffffffffffffffff\n              mul\n              not\n              and\n              swap1\n              dup4\n              0xffffffffffffffffffffffffffffffffffffffff\n              and\n              mul\n              or\n              swap1\n              sstore\n              pop\n                /* \"devs/TokenManager.sol\":1232:1343   */\n              pop\n                /* \"devs/TokenManager.sol\":843:3646   */\n              jump(tag_6)\n                /* \"#utility.yul\":88:205   */\n            tag_8:\n                /* \"#utility.yul\":197:198   */\n              0x00\n                /* \"#utility.yul\":194:195   */\n              dup1\n                /* \"#utility.yul\":187:199   */\n              revert\n                /* \"#utility.yul\":334:460   */\n            tag_10:\n                /* \"#utility.yul\":371:378   */\n              0x00\n                /* \"#utility.yul\":411:453   */\n              0xffffffffffffffffffffffffffffffffffffffff\n                /* \"#utility.yul\":404:409   */\n              dup3\n                /* \"#utility.yul\":400:454   */\n              and\n                /* \"#utility.yul\":389:454   */\n              swap1\n              pop\n                /* \"#utility.yul\":334:460   */\n              swap2\n              swap1\n              pop\n              jump\t// out\n                /* \"#utility.yul\":466:562   */\n            tag_11:\n                /* \"#utility.yul\":503:510   */\n              0x00\n                /* \"#utility.yul\":532:556   */\n              tag_20\n                /* \"#utility.yul\":550:555   */\n              dup3\n                /* \"#utility.yul\":532:556   */\n              tag_10\n              jump\t// in\n            tag_20:\n                /* \"#utility.yul\":521:556   */\n              swap1\n              pop\n                /* \"#utility.yul\":466:562   */\n              swap2\n              swap1\n              pop\n              jump\t// out\n                /* \"#utility.yul\":568:690   */\n            tag_12:\n                /* \"#utility.yul\":641:665   */\n              tag_22\n                /* \"#utility.yul\":659:664   */\n              dup2\n                /* \"#utility.yul\":641:665   */\n              tag_11\n              jump\t// in\n            tag_22:\n                /* \"#utility.yul\":634:639   */\n              dup2\n                /* \"#utility.yul\":631:666   */\n              eq\n                /* \"#utility.yul\":621:684   */\n              tag_23\n              jumpi\n                /* \"#utility.yul\":680:681   */\n              0x00\n                /* \"#utility.yul\":677:678   */\n              dup1\n                /* \"#utility.yul\":670:682   */\n              revert\n                /* \"#utility.yul\":621:684   */\n            tag_23:\n                /* \"#utility.yul\":568:690   */\n              pop\n              jump\t// out\n                /* \"#utility.yul\":696:839   */\n            tag_13:\n                /* \"#utility.yul\":753:758   */\n              0x00\n                /* \"#utility.yul\":784:790   */\n              dup2\n                /* \"#utility.yul\":778:791   */\n              mload\n                /* \"#utility.yul\":769:791   */\n              swap1\n              pop\n                /* \"#utility.yul\":800:833   */\n              tag_25\n                /* \"#utility.yul\":827:832   */\n              dup2\n                /* \"#utility.yul\":800:833   */\n              tag_12\n              jump\t// in\n            tag_25:\n                /* \"#utility.yul\":696:839   */\n              swap3\n              swap2\n              pop\n              pop\n              jump\t// out\n                /* \"#utility.yul\":845:1196   */\n            tag_3:\n                /* \"#utility.yul\":915:921   */\n              0x00\n                /* \"#utility.yul\":964:966   */\n              0x20\n                /* \"#utility.yul\":952:961   */\n              dup3\n                /* \"#utility.yul\":943:950   */\n              dup5\n                /* \"#utility.yul\":939:962   */\n              sub\n                /* \"#utility.yul\":935:967   */\n              slt\n                /* \"#utility.yul\":932:1051   */\n              iszero\n              tag_27\n              jumpi\n                /* \"#utility.yul\":970:1049   */\n              tag_28\n              tag_8\n              jump\t// in\n            tag_28:\n                /* \"#utility.yul\":932:1051   */\n            tag_27:\n                /* \"#utility.yul\":1090:1091   */\n              0x00\n                /* \"#utility.yul\":1115:1179   */\n              tag_29\n                /* \"#utility.yul\":1171:1178   */\n              dup5\n                /* \"#utility.yul\":1162:1168   */\n              dup3\n                /* \"#utility.yul\":1151:1160   */\n              dup6\n                /* \"#utility.yul\":1147:1169   */\n              add\n                /* \"#utility.yul\":1115:1179   */\n              tag_13\n              jump\t// in\n            tag_29:\n                /* \"#utility.yul\":1105:1179   */\n              swap2\n              pop\n                /* \"#utility.yul\":1061:1189   */\n              pop\n                /* \"#utility.yul\":845:1196   */\n              swap3\n              swap2\n              pop\n              pop\n              jump\t// out\n                /* \"devs/TokenManager.sol\":843:3646   */\n            tag_6:\n              dataSize(sub_0)\n              dup1\n              dataOffset(sub_0)\n              0x00\n              codecopy\n              0x00\n              return\n            stop\n\n            sub_0: assembly {\n                    /* \"devs/TokenManager.sol\":843:3646   */\n                  mstore(0x40, 0x80)\n                  callvalue\n                  dup1\n                  iszero\n                  tag_1\n                  jumpi\n                  0x00\n                  dup1\n                  revert\n                tag_1:\n                  pop\n                  jumpi(tag_2, lt(calldatasize, 0x04))\n                  shr(0xe0, calldataload(0x00))\n                  dup1\n                  0x921c47b1\n                  gt\n                  tag_16\n                  jumpi\n                  dup1\n                  0xab21a2be\n                  gt\n                  tag_17\n                  jumpi\n                  dup1\n                  0xab21a2be\n                  eq\n                  tag_12\n                  jumpi\n                  dup1\n                  0xca5140c9\n                  eq\n                  tag_13\n                  jumpi\n                  dup1\n                  0xef228c92\n                  eq\n                  tag_14\n                  jumpi\n                  dup1\n                  0xf6b4dfb4\n                  eq\n                  tag_15\n                  jumpi\n                  jump(tag_2)\n                tag_17:\n                  dup1\n                  0x921c47b1\n                  eq\n                  tag_9\n                  jumpi\n                  dup1\n                  0x98af1f07\n                  eq\n                  tag_10\n                  jumpi\n                  dup1\n                  0xa46d8ac7\n                  eq\n                  tag_11\n                  jumpi\n                  jump(tag_2)\n                tag_16:\n                  dup1\n                  0x1ce06944\n                  eq\n                  tag_3\n                  jumpi\n                  dup1\n                  0x3b2f7118\n                  eq\n                  tag_4\n                  jumpi\n                  dup1\n                  0x67615ad5\n                  eq\n                  tag_5\n                  jumpi\n                  dup1\n                  0x83b65cb4\n                  eq\n                  tag_6\n                  jumpi\n                  dup1\n                  0x8da5cb5b\n                  eq\n                  tag_7\n                  jumpi\n                  dup1\n                  0x8dbbfbde\n                  eq\n                  tag_8\n                  jumpi\n                tag_2:\n                  0x00\n                  dup1\n                  revert\n                    /* \"devs/TokenManager.sol\":2951:3112   */\n                tag_3:\n                  tag_18\n                  0x04\n                  dup1\n                  calldatasize\n                  sub\n                  dup2\n                  add\n                  swap1\n                  tag_19\n                  swap2\n                  swap1\n                  tag_20\n                  jump\t// in\n                tag_19:\n                  tag_21\n                  jump\t// in\n                tag_18:\n                  mload(0x40)\n                  tag_22\n                  swap2\n                  swap1\n                  tag_23\n                  jump\t// in\n                tag_22:\n                  mload(0x40)\n                  dup1\n                  swap2\n                  sub\n                  swap1\n                  return\n                    /* \"devs/TokenManager.sol\":3118:3286   */\n                tag_4:\n                  tag_24\n                  0x04\n                  dup1\n                  calldatasize\n                  sub\n                  dup2\n                  add\n                  swap1\n                  tag_25\n                  swap2\n                  swap1\n                  tag_20\n                  jump\t// in\n                tag_25:\n                  tag_26\n                  jump\t// in\n                tag_24:\n                  mload(0x40)\n                  tag_27\n                  swap2\n                  swap1\n                  tag_28\n                  jump\t// in\n                tag_27:\n                  mload(0x40)\n                  dup1\n                  swap2\n                  sub\n                  swap1\n                  return\n                    /* \"devs/TokenManager.sol\":3475:3643   */\n                tag_5:\n                  tag_29\n                  0x04\n                  dup1\n                  calldatasize\n                  sub\n                  dup2\n                  add\n                  swap1\n                  tag_30\n                  swap2\n                  swap1\n                  tag_20\n                  jump\t// in\n                tag_30:\n                  tag_31\n                  jump\t// in\n                tag_29:\n                  mload(0x40)\n                  tag_32\n                  swap2\n                  swap1\n                  tag_23\n                  jump\t// in\n                tag_32:\n                  mload(0x40)\n                  dup1\n                  swap2\n                  sub\n                  swap1\n                  return\n                    /* \"devs/TokenManager.sol\":989:1033   */\n                tag_6:\n                  tag_33\n                  0x04\n                  dup1\n                  calldatasize\n                  sub\n                  dup2\n                  add\n                  swap1\n                  tag_34\n                  swap2\n                  swap1\n                  tag_20\n                  jump\t// in\n                tag_34:\n                  tag_35\n                  jump\t// in\n                tag_33:\n                  mload(0x40)\n                  tag_36\n                  swap8\n                  swap7\n                  swap6\n                  swap5\n                  swap4\n                  swap3\n                  swap2\n                  swap1\n                  tag_37\n                  jump\t// in\n                tag_36:\n                  mload(0x40)\n                  dup1\n                  swap2\n                  sub\n                  swap1\n                  return\n                    /* \"devs/TokenManager.sol\":896:916   */\n                tag_7:\n                  tag_38\n                  tag_39\n                  jump\t// in\n                tag_38:\n                  mload(0x40)\n                  tag_40\n                  swap2\n                  swap1\n                  tag_28\n                  jump\t// in\n                tag_40:\n                  mload(0x40)\n                  dup1\n                  swap2\n                  sub\n                  swap1\n                  return\n                    /* \"devs/TokenManager.sol\":2276:2521   */\n                tag_8:\n                  tag_41\n                  0x04\n                  dup1\n                  calldatasize\n                  sub\n                  dup2\n                  add\n                  swap1\n                  tag_42\n                  swap2\n                  swap1\n                  tag_43\n                  jump\t// in\n                tag_42:\n                  tag_44\n                  jump\t// in\n                tag_41:\n                  stop\n                    /* \"devs/TokenManager.sol\":959:983   */\n                tag_9:\n                  tag_45\n                  tag_46\n                  jump\t// in\n                tag_45:\n                  mload(0x40)\n                  tag_47\n                  swap2\n                  swap1\n                  tag_23\n                  jump\t// in\n                tag_47:\n                  mload(0x40)\n                  dup1\n                  swap2\n                  sub\n                  swap1\n                  return\n                    /* \"devs/TokenManager.sol\":3292:3469   */\n                tag_10:\n                  tag_48\n                  0x04\n                  dup1\n                  calldatasize\n                  sub\n                  dup2\n                  add\n                  swap1\n                  tag_49\n                  swap2\n                  swap1\n                  tag_20\n                  jump\t// in\n                tag_49:\n                  tag_50\n                  jump\t// in\n                tag_48:\n                  mload(0x40)\n                  tag_51\n                  swap2\n                  swap1\n                  tag_52\n                  jump\t// in\n                tag_51:\n                  mload(0x40)\n                  dup1\n                  swap2\n                  sub\n                  swap1\n                  return\n                    /* \"devs/TokenManager.sol\":1439:1951   */\n                tag_11:\n                  tag_53\n                  0x04\n                  dup1\n                  calldatasize\n                  sub\n                  dup2\n                  add\n                  swap1\n                  tag_54\n                  swap2\n                  swap1\n                  tag_55\n                  jump\t// in\n                tag_54:\n                  tag_56\n                  jump\t// in\n                tag_53:\n                  mload(0x40)\n                  tag_57\n                  swap2\n                  swap1\n                  tag_23\n                  jump\t// in\n                tag_57:\n                  mload(0x40)\n                  dup1\n                  swap2\n                  sub\n                  swap1\n                  return\n                    /* \"devs/TokenManager.sol\":2527:2723   */\n                tag_12:\n                  tag_58\n                  0x04\n                  dup1\n                  calldatasize\n                  sub\n                  dup2\n                  add\n                  swap1\n                  tag_59\n                  swap2\n                  swap1\n                  tag_60\n                  jump\t// in\n                tag_59:\n                  tag_61\n                  jump\t// in\n                tag_58:\n                  stop\n                    /* \"devs/TokenManager.sol\":2729:2919   */\n                tag_13:\n                  tag_62\n                  0x04\n                  dup1\n                  calldatasize\n                  sub\n                  dup2\n                  add\n                  swap1\n                  tag_63\n                  swap2\n                  swap1\n                  tag_20\n                  jump\t// in\n                tag_63:\n                  tag_64\n                  jump\t// in\n                tag_62:\n                  stop\n                    /* \"devs/TokenManager.sol\":2056:2270   */\n                tag_14:\n                  tag_65\n                  0x04\n                  dup1\n                  calldatasize\n                  sub\n                  dup2\n                  add\n                  swap1\n                  tag_66\n                  swap2\n                  swap1\n                  tag_67\n                  jump\t// in\n                tag_66:\n                  tag_68\n                  jump\t// in\n                tag_65:\n                  stop\n                    /* \"devs/TokenManager.sol\":922:952   */\n                tag_15:\n                  tag_69\n                  tag_70\n                  jump\t// in\n                tag_69:\n                  mload(0x40)\n                  tag_71\n                  swap2\n                  swap1\n                  tag_28\n                  jump\t// in\n                tag_71:\n                  mload(0x40)\n                  dup1\n                  swap2\n                  sub\n                  swap1\n                  return\n                    /* \"devs/TokenManager.sol\":2951:3112   */\n                tag_21:\n                    /* \"devs/TokenManager.sol\":3010:3014   */\n                  0x00\n                    /* \"devs/TokenManager.sol\":3025:3051   */\n                  dup1\n                    /* \"devs/TokenManager.sol\":3054:3064   */\n                  0x03\n                    /* \"devs/TokenManager.sol\":3054:3074   */\n                  0x00\n                    /* \"devs/TokenManager.sol\":3065:3073   */\n                  dup5\n                    /* \"devs/TokenManager.sol\":3054:3074   */\n                  dup2\n                  mstore\n                  0x20\n                  add\n                  swap1\n                  dup2\n                  mstore\n                  0x20\n                  add\n                  0x00\n                  keccak256\n                    /* \"devs/TokenManager.sol\":3025:3074   */\n                  mload(0x40)\n                  dup1\n                  0xe0\n                  add\n                  0x40\n                  mstore\n                  swap1\n                  dup2\n                  0x00\n                  dup3\n                  add\n                  sload\n                  dup2\n                  mstore\n                  0x20\n                  add\n                  0x01\n                  dup3\n                  add\n                  0x00\n                  swap1\n                  sload\n                  swap1\n                  0x0100\n                  exp\n                  swap1\n                  div\n                  0xffffffffffffffffffffffffffffffffffffffff\n                  and\n                  0xffffffffffffffffffffffffffffffffffffffff\n                  and\n                  0xffffffffffffffffffffffffffffffffffffffff\n                  and\n                  dup2\n                  mstore\n                  0x20\n                  add\n                  0x02\n                  dup3\n                  add\n                  sload\n                  dup2\n                  mstore\n                  0x20\n                  add\n                  0x03\n                  dup3\n                  add\n                  0x00\n                  swap1\n                  sload\n                  swap1\n                  0x0100\n                  exp\n                  swap1\n                  div\n                  0xffffffffffffffffffffffffffffffffffffffff\n                  and\n                  0xffffffffffffffffffffffffffffffffffffffff\n                  and\n                  0xffffffffffffffffffffffffffffffffffffffff\n                  and\n                  dup2\n                  mstore\n                  0x20\n                  add\n                  0x03\n                  dup3\n                  add\n                  0x14\n                  swap1\n                  sload\n                  swap1\n                  0x0100\n                  exp\n                  swap1\n                  div\n                  0xff\n                  and\n                  iszero\n                  iszero\n                  iszero\n                  iszero\n                  dup2\n                  mstore\n                  0x20\n                  add\n                  0x04\n                  dup3\n                  add\n                  sload\n                  dup2\n                  mstore\n                  0x20\n                  add\n                  0x05\n                  dup3\n                  add\n                  sload\n                  dup2\n                  mstore\n                  pop\n                  pop\n                  swap1\n                  pop\n                    /* \"devs/TokenManager.sol\":3091:3100   */\n                  dup1\n                    /* \"devs/TokenManager.sol\":3091:3105   */\n                  0xc0\n                  add\n                  mload\n                    /* \"devs/TokenManager.sol\":3084:3105   */\n                  swap2\n                  pop\n                  pop\n                    /* \"devs/TokenManager.sol\":2951:3112   */\n                  swap2\n                  swap1\n                  pop\n                  jump\t// out\n                    /* \"devs/TokenManager.sol\":3118:3286   */\n                tag_26:\n                    /* \"devs/TokenManager.sol\":3179:3186   */\n                  0x00\n                    /* \"devs/TokenManager.sol\":3197:3223   */\n                  dup1\n                    /* \"devs/TokenManager.sol\":3226:3236   */\n                  0x03\n                    /* \"devs/TokenManager.sol\":3226:3246   */\n                  0x00\n                    /* \"devs/TokenManager.sol\":3237:3245   */\n                  dup5\n                    /* \"devs/TokenManager.sol\":3226:3246   */\n                  dup2\n                  mstore\n                  0x20\n                  add\n                  swap1\n                  dup2\n                  mstore\n                  0x20\n                  add\n                  0x00\n                  keccak256\n                    /* \"devs/TokenManager.sol\":3197:3246   */\n                  mload(0x40)\n                  dup1\n                  0xe0\n                  add\n                  0x40\n                  mstore\n                  swap1\n                  dup2\n                  0x00\n                  dup3\n                  add\n                  sload\n                  dup2\n                  mstore\n                  0x20\n                  add\n                  0x01\n                  dup3\n                  add\n                  0x00\n                  swap1\n                  sload\n                  swap1\n                  0x0100\n                  exp\n                  swap1\n                  div\n                  0xffffffffffffffffffffffffffffffffffffffff\n                  and\n                  0xffffffffffffffffffffffffffffffffffffffff\n                  and\n                  0xffffffffffffffffffffffffffffffffffffffff\n                  and\n                  dup2\n                  mstore\n                  0x20\n                  add\n                  0x02\n                  dup3\n                  add\n                  sload\n                  dup2\n                  mstore\n                  0x20\n                  add\n                  0x03\n                  dup3\n                  add\n                  0x00\n                  swap1\n                  sload\n                  swap1\n                  0x0100\n                  exp\n                  swap1\n                  div\n                  0xffffffffffffffffffffffffffffffffffffffff\n                  and\n                  0xffffffffffffffffffffffffffffffffffffffff\n                  and\n                  0xffffffffffffffffffffffffffffffffffffffff\n                  and\n                  dup2\n                  mstore\n                  0x20\n                  add\n                  0x03\n                  dup3\n                  add\n                  0x14\n                  swap1\n                  sload\n                  swap1\n                  0x0100\n                  exp\n                  swap1\n                  div\n                  0xff\n                  and\n                  iszero\n                  iszero\n                  iszero\n                  iszero\n                  dup2\n                  mstore\n                  0x20\n                  add\n                  0x04\n                  dup3\n                  add\n                  sload\n                  dup2\n                  mstore\n                  0x20\n                  add\n                  0x05\n                  dup3\n                  add\n                  sload\n                  dup2\n                  mstore\n                  pop\n                  pop\n                  swap1\n                  pop\n                    /* \"devs/TokenManager.sol\":3263:3272   */\n                  dup1\n                    /* \"devs/TokenManager.sol\":3263:3279   */\n                  0x60\n                  add\n                  mload\n                    /* \"devs/TokenManager.sol\":3256:3279   */\n                  swap2\n                  pop\n                  pop\n                    /* \"devs/TokenManager.sol\":3118:3286   */\n                  swap2\n                  swap1\n                  pop\n                  jump\t// out\n                    /* \"devs/TokenManager.sol\":3475:3643   */\n                tag_31:\n                    /* \"devs/TokenManager.sol\":3536:3540   */\n                  0x00\n                    /* \"devs/TokenManager.sol\":3551:3577   */\n                  dup1\n                    /* \"devs/TokenManager.sol\":3580:3590   */\n                  0x03\n                    /* \"devs/TokenManager.sol\":3580:3600   */\n                  0x00\n                    /* \"devs/TokenManager.sol\":3591:3599   */\n                  dup5\n                    /* \"devs/TokenManager.sol\":3580:3600   */\n                  dup2\n                  mstore\n                  0x20\n                  add\n                  swap1\n                  dup2\n                  mstore\n                  0x20\n                  add\n                  0x00\n                  keccak256\n                    /* \"devs/TokenManager.sol\":3551:3600   */\n                  mload(0x40)\n                  dup1\n                  0xe0\n                  add\n                  0x40\n                  mstore\n                  swap1\n                  dup2\n                  0x00\n                  dup3\n                  add\n                  sload\n                  dup2\n                  mstore\n                  0x20\n                  add\n                  0x01\n                  dup3\n                  add\n                  0x00\n                  swap1\n                  sload\n                  swap1\n                  0x0100\n                  exp\n                  swap1\n                  div\n                  0xffffffffffffffffffffffffffffffffffffffff\n                  and\n                  0xffffffffffffffffffffffffffffffffffffffff\n                  and\n                  0xffffffffffffffffffffffffffffffffffffffff\n                  and\n                  dup2\n                  mstore\n                  0x20\n                  add\n                  0x02\n                  dup3\n                  add\n                  sload\n                  dup2\n                  mstore\n                  0x20\n                  add\n                  0x03\n                  dup3\n                  add\n                  0x00\n                  swap1\n                  sload\n                  swap1\n                  0x0100\n                  exp\n                  swap1\n                  div\n                  0xffffffffffffffffffffffffffffffffffffffff\n                  and\n                  0xffffffffffffffffffffffffffffffffffffffff\n                  and\n                  0xffffffffffffffffffffffffffffffffffffffff\n                  and\n                  dup2\n                  mstore\n                  0x20\n                  add\n                  0x03\n                  dup3\n                  add\n                  0x14\n                  swap1\n                  sload\n                  swap1\n                  0x0100\n                  exp\n                  swap1\n                  div\n                  0xff\n                  and\n                  iszero\n                  iszero\n                  iszero\n                  iszero\n                  dup2\n                  mstore\n                  0x20\n                  add\n                  0x04\n                  dup3\n                  add\n                  sload\n                  dup2\n                  mstore\n                  0x20\n                  add\n                  0x05\n                  dup3\n                  add\n                  sload\n                  dup2\n                  mstore\n                  pop\n                  pop\n                  swap1\n                  pop\n                    /* \"devs/TokenManager.sol\":3617:3626   */\n                  dup1\n                    /* \"devs/TokenManager.sol\":3617:3636   */\n                  0x40\n                  add\n                  mload\n                    /* \"devs/TokenManager.sol\":3610:3636   */\n                  swap2\n                  pop\n                  pop\n                    /* \"devs/TokenManager.sol\":3475:3643   */\n                  swap2\n                  swap1\n                  pop\n                  jump\t// out\n                    /* \"devs/TokenManager.sol\":989:1033   */\n                tag_35:\n                  mstore(0x20, 0x03)\n                  dup1\n                  0x00\n                  mstore\n                  keccak256(0x00, 0x40)\n                  0x00\n                  swap2\n                  pop\n                  swap1\n                  pop\n                  dup1\n                  0x00\n                  add\n                  sload\n                  swap1\n                  dup1\n                  0x01\n                  add\n                  0x00\n                  swap1\n                  sload\n                  swap1\n                  0x0100\n                  exp\n                  swap1\n                  div\n                  0xffffffffffffffffffffffffffffffffffffffff\n                  and\n                  swap1\n                  dup1\n                  0x02\n                  add\n                  sload\n                  swap1\n                  dup1\n                  0x03\n                  add\n                  0x00\n                  swap1\n                  sload\n                  swap1\n                  0x0100\n                  exp\n                  swap1\n                  div\n                  0xffffffffffffffffffffffffffffffffffffffff\n                  and\n                  swap1\n                  dup1\n                  0x03\n                  add\n                  0x14\n                  swap1\n                  sload\n                  swap1\n                  0x0100\n                  exp\n                  swap1\n                  div\n                  0xff\n                  and\n                  swap1\n                  dup1\n                  0x04\n                  add\n                  sload\n                  swap1\n                  dup1\n                  0x05\n                  add\n                  sload\n                  swap1\n                  pop\n                  dup8\n                  jump\t// out\n                    /* \"devs/TokenManager.sol\":896:916   */\n                tag_39:\n                  0x00\n                  dup1\n                  sload\n                  swap1\n                  0x0100\n                  exp\n                  swap1\n                  div\n                  0xffffffffffffffffffffffffffffffffffffffff\n                  and\n                  dup2\n                  jump\t// out\n                    /* \"devs/TokenManager.sol\":2276:2521   */\n                tag_44:\n                    /* \"devs/TokenManager.sol\":2366:2374   */\n                  dup3\n                    /* \"devs/TokenManager.sol\":1195:1207   */\n                  sload(0x02)\n                    /* \"devs/TokenManager.sol\":1185:1192   */\n                  dup2\n                    /* \"devs/TokenManager.sol\":1185:1207   */\n                  lt\n                    /* \"devs/TokenManager.sol\":1177:1208   */\n                  tag_76\n                  jumpi\n                  0x00\n                  dup1\n                  revert\n                tag_76:\n                    /* \"devs/TokenManager.sol\":1098:1108   */\n                  caller\n                    /* \"devs/TokenManager.sol\":1079:1108   */\n                  0xffffffffffffffffffffffffffffffffffffffff\n                  and\n                    /* \"devs/TokenManager.sol\":1079:1094   */\n                  0x01\n                  0x00\n                  swap1\n                  sload\n                  swap1\n                  0x0100\n                  exp\n                  swap1\n                  div\n                  0xffffffffffffffffffffffffffffffffffffffff\n                  and\n                    /* \"devs/TokenManager.sol\":1079:1108   */\n                  0xffffffffffffffffffffffffffffffffffffffff\n                  and\n                  eq\n                    /* \"devs/TokenManager.sol\":1071:1109   */\n                  tag_78\n                  jumpi\n                  0x00\n                  dup1\n                  revert\n                tag_78:\n                    /* \"devs/TokenManager.sol\":2396:2423   */\n                  0x00\n                    /* \"devs/TokenManager.sol\":2426:2436   */\n                  0x03\n                    /* \"devs/TokenManager.sol\":2426:2446   */\n                  0x00\n                    /* \"devs/TokenManager.sol\":2437:2445   */\n                  dup7\n                    /* \"devs/TokenManager.sol\":2426:2446   */\n                  dup2\n                  mstore\n                  0x20\n                  add\n                  swap1\n                  dup2\n                  mstore\n                  0x20\n                  add\n                  0x00\n                  keccak256\n                    /* \"devs/TokenManager.sol\":2396:2446   */\n                  swap1\n                  pop\n                    /* \"devs/TokenManager.sol\":2475:2482   */\n                  dup4\n                    /* \"devs/TokenManager.sol\":2456:2465   */\n                  dup2\n                    /* \"devs/TokenManager.sol\":2456:2472   */\n                  0x04\n                  add\n                    /* \"devs/TokenManager.sol\":2456:2482   */\n                  dup2\n                  swap1\n                  sstore\n                  pop\n                    /* \"devs/TokenManager.sol\":2509:2514   */\n                  dup3\n                    /* \"devs/TokenManager.sol\":2492:2501   */\n                  dup2\n                    /* \"devs/TokenManager.sol\":2492:2506   */\n                  0x05\n                  add\n                    /* \"devs/TokenManager.sol\":2492:2514   */\n                  dup2\n                  swap1\n                  sstore\n                  pop\n                    /* \"devs/TokenManager.sol\":2386:2521   */\n                  pop\n                    /* \"devs/TokenManager.sol\":2276:2521   */\n                  pop\n                  pop\n                  pop\n                  pop\n                  jump\t// out\n                    /* \"devs/TokenManager.sol\":959:983   */\n                tag_46:\n                  sload(0x02)\n                  dup2\n                  jump\t// out\n                    /* \"devs/TokenManager.sol\":3292:3469   */\n                tag_50:\n                    /* \"devs/TokenManager.sol\":3356:3360   */\n                  0x00\n                    /* \"devs/TokenManager.sol\":3371:3397   */\n                  dup1\n                    /* \"devs/TokenManager.sol\":3400:3410   */\n                  0x03\n                    /* \"devs/TokenManager.sol\":3400:3420   */\n                  0x00\n                    /* \"devs/TokenManager.sol\":3411:3419   */\n                  dup5\n                    /* \"devs/TokenManager.sol\":3400:3420   */\n                  dup2\n                  mstore\n                  0x20\n                  add\n                  swap1\n                  dup2\n                  mstore\n                  0x20\n                  add\n                  0x00\n                  keccak256\n                    /* \"devs/TokenManager.sol\":3371:3420   */\n                  mload(0x40)\n                  dup1\n                  0xe0\n                  add\n                  0x40\n                  mstore\n                  swap1\n                  dup2\n                  0x00\n                  dup3\n                  add\n                  sload\n                  dup2\n                  mstore\n                  0x20\n                  add\n                  0x01\n                  dup3\n                  add\n                  0x00\n                  swap1\n                  sload\n                  swap1\n                  0x0100\n                  exp\n                  swap1\n                  div\n                  0xffffffffffffffffffffffffffffffffffffffff\n                  and\n                  0xffffffffffffffffffffffffffffffffffffffff\n                  and\n                  0xffffffffffffffffffffffffffffffffffffffff\n                  and\n                  dup2\n                  mstore\n                  0x20\n                  add\n                  0x02\n                  dup3\n                  add\n                  sload\n                  dup2\n                  mstore\n                  0x20\n                  add\n                  0x03\n                  dup3\n                  add\n                  0x00\n                  swap1\n                  sload\n                  swap1\n                  0x0100\n                  exp\n                  swap1\n                  div\n                  0xffffffffffffffffffffffffffffffffffffffff\n                  and\n                  0xffffffffffffffffffffffffffffffffffffffff\n                  and\n                  0xffffffffffffffffffffffffffffffffffffffff\n                  and\n                  dup2\n                  mstore\n                  0x20\n                  add\n                  0x03\n                  dup3\n                  add\n                  0x14\n                  swap1\n                  sload\n                  swap1\n                  0x0100\n                  exp\n                  swap1\n                  div\n                  0xff\n                  and\n                  iszero\n                  iszero\n                  iszero\n                  iszero\n                  dup2\n                  mstore\n                  0x20\n                  add\n                  0x04\n                  dup3\n                  add\n                  sload\n                  dup2\n                  mstore\n                  0x20\n                  add\n                  0x05\n                  dup3\n                  add\n                  sload\n                  dup2\n                  mstore\n                  pop\n                  pop\n                  swap1\n                  pop\n                    /* \"devs/TokenManager.sol\":3437:3446   */\n                  dup1\n                    /* \"devs/TokenManager.sol\":3437:3462   */\n                  0x80\n                  add\n                  mload\n                    /* \"devs/TokenManager.sol\":3430:3462   */\n                  swap2\n                  pop\n                  pop\n                    /* \"devs/TokenManager.sol\":3292:3469   */\n                  swap2\n                  swap1\n                  pop\n                  jump\t// out\n                    /* \"devs/TokenManager.sol\":1439:1951   */\n                tag_56:\n                    /* \"devs/TokenManager.sol\":1551:1555   */\n                  0x00\n                    /* \"devs/TokenManager.sol\":1098:1108   */\n                  caller\n                    /* \"devs/TokenManager.sol\":1079:1108   */\n                  0xffffffffffffffffffffffffffffffffffffffff\n                  and\n                    /* \"devs/TokenManager.sol\":1079:1094   */\n                  0x01\n                  0x00\n                  swap1\n                  sload\n                  swap1\n                  0x0100\n                  exp\n                  swap1\n                  div\n                  0xffffffffffffffffffffffffffffffffffffffff\n                  and\n                    /* \"devs/TokenManager.sol\":1079:1108   */\n                  0xffffffffffffffffffffffffffffffffffffffff\n                  and\n                  eq\n                    /* \"devs/TokenManager.sol\":1071:1109   */\n                  tag_82\n                  jumpi\n                  0x00\n                  dup1\n                  revert\n                tag_82:\n                    /* \"devs/TokenManager.sol\":1566:1593   */\n                  0x00\n                    /* \"devs/TokenManager.sol\":1596:1606   */\n                  0x03\n                    /* \"devs/TokenManager.sol\":1596:1620   */\n                  0x00\n                    /* \"devs/TokenManager.sol\":1607:1619   */\n                  sload(0x02)\n                    /* \"devs/TokenManager.sol\":1596:1620   */\n                  dup2\n                  mstore\n                  0x20\n                  add\n                  swap1\n                  dup2\n                  mstore\n                  0x20\n                  add\n                  0x00\n                  keccak256\n                    /* \"devs/TokenManager.sol\":1566:1620   */\n                  swap1\n                  pop\n                    /* \"devs/TokenManager.sol\":1650:1662   */\n                  sload(0x02)\n                    /* \"devs/TokenManager.sol\":1630:1639   */\n                  dup2\n                    /* \"devs/TokenManager.sol\":1630:1647   */\n                  0x00\n                  add\n                    /* \"devs/TokenManager.sol\":1630:1662   */\n                  dup2\n                  swap1\n                  sstore\n                  pop\n                    /* \"devs/TokenManager.sol\":1694:1704   */\n                  dup5\n                    /* \"devs/TokenManager.sol\":1672:1681   */\n                  dup2\n                    /* \"devs/TokenManager.sol\":1672:1691   */\n                  0x02\n                  add\n                    /* \"devs/TokenManager.sol\":1672:1704   */\n                  dup2\n                  swap1\n                  sstore\n                  pop\n                    /* \"devs/TokenManager.sol\":1732:1739   */\n                  dup6\n                    /* \"devs/TokenManager.sol\":1714:1723   */\n                  dup2\n                    /* \"devs/TokenManager.sol\":1714:1729   */\n                  0x01\n                  add\n                  0x00\n                    /* \"devs/TokenManager.sol\":1714:1739   */\n                  0x0100\n                  exp\n                  dup2\n                  sload\n                  dup2\n                  0xffffffffffffffffffffffffffffffffffffffff\n                  mul\n                  not\n                  and\n                  swap1\n                  dup4\n                  0xffffffffffffffffffffffffffffffffffffffff\n                  and\n                  mul\n                  or\n                  swap1\n                  sstore\n                  pop\n                    /* \"devs/TokenManager.sol\":1768:1775   */\n                  dup6\n                    /* \"devs/TokenManager.sol\":1749:1758   */\n                  dup2\n                    /* \"devs/TokenManager.sol\":1749:1765   */\n                  0x03\n                  add\n                  0x00\n                    /* \"devs/TokenManager.sol\":1749:1775   */\n                  0x0100\n                  exp\n                  dup2\n                  sload\n                  dup2\n                  0xffffffffffffffffffffffffffffffffffffffff\n                  mul\n                  not\n                  and\n                  swap1\n                  dup4\n                  0xffffffffffffffffffffffffffffffffffffffff\n                  and\n                  mul\n                  or\n                  swap1\n                  sstore\n                  pop\n                    /* \"devs/TokenManager.sol\":1813:1818   */\n                  0x00\n                    /* \"devs/TokenManager.sol\":1785:1794   */\n                  dup2\n                    /* \"devs/TokenManager.sol\":1785:1810   */\n                  0x03\n                  add\n                  0x14\n                    /* \"devs/TokenManager.sol\":1785:1818   */\n                  0x0100\n                  exp\n                  dup2\n                  sload\n                  dup2\n                  0xff\n                  mul\n                  not\n                  and\n                  swap1\n                  dup4\n                  iszero\n                  iszero\n                  mul\n                  or\n                  swap1\n                  sstore\n                  pop\n                    /* \"devs/TokenManager.sol\":1847:1854   */\n                  dup4\n                    /* \"devs/TokenManager.sol\":1828:1837   */\n                  dup2\n                    /* \"devs/TokenManager.sol\":1828:1844   */\n                  0x04\n                  add\n                    /* \"devs/TokenManager.sol\":1828:1854   */\n                  dup2\n                  swap1\n                  sstore\n                  pop\n                    /* \"devs/TokenManager.sol\":1881:1886   */\n                  dup3\n                    /* \"devs/TokenManager.sol\":1864:1873   */\n                  dup2\n                    /* \"devs/TokenManager.sol\":1864:1878   */\n                  0x05\n                  add\n                    /* \"devs/TokenManager.sol\":1864:1886   */\n                  dup2\n                  swap1\n                  sstore\n                  pop\n                    /* \"devs/TokenManager.sol\":1896:1908   */\n                  0x02\n                  0x00\n                    /* \"devs/TokenManager.sol\":1896:1910   */\n                  dup2\n                  sload\n                  dup1\n                  swap3\n                  swap2\n                  swap1\n                  tag_84\n                  swap1\n                  tag_85\n                  jump\t// in\n                tag_84:\n                  swap2\n                  swap1\n                  pop\n                  sstore\n                  pop\n                    /* \"devs/TokenManager.sol\":1927:1936   */\n                  dup1\n                    /* \"devs/TokenManager.sol\":1927:1944   */\n                  0x00\n                  add\n                  sload\n                    /* \"devs/TokenManager.sol\":1920:1944   */\n                  swap2\n                  pop\n                  pop\n                    /* \"devs/TokenManager.sol\":1439:1951   */\n                  swap5\n                  swap4\n                  pop\n                  pop\n                  pop\n                  pop\n                  jump\t// out\n                    /* \"devs/TokenManager.sol\":2527:2723   */\n                tag_61:\n                    /* \"devs/TokenManager.sol\":2600:2608   */\n                  dup2\n                    /* \"devs/TokenManager.sol\":1195:1207   */\n                  sload(0x02)\n                    /* \"devs/TokenManager.sol\":1185:1192   */\n                  dup2\n                    /* \"devs/TokenManager.sol\":1185:1207   */\n                  lt\n                    /* \"devs/TokenManager.sol\":1177:1208   */\n                  tag_87\n                  jumpi\n                  0x00\n                  dup1\n                  revert\n                tag_87:\n                    /* \"devs/TokenManager.sol\":1098:1108   */\n                  caller\n                    /* \"devs/TokenManager.sol\":1079:1108   */\n                  0xffffffffffffffffffffffffffffffffffffffff\n                  and\n                    /* \"devs/TokenManager.sol\":1079:1094   */\n                  0x01\n                  0x00\n                  swap1\n                  sload\n                  swap1\n                  0x0100\n                  exp\n                  swap1\n                  div\n                  0xffffffffffffffffffffffffffffffffffffffff\n                  and\n                    /* \"devs/TokenManager.sol\":1079:1108   */\n                  0xffffffffffffffffffffffffffffffffffffffff\n                  and\n                  eq\n                    /* \"devs/TokenManager.sol\":1071:1109   */\n                  tag_89\n                  jumpi\n                  0x00\n                  dup1\n                  revert\n                tag_89:\n                    /* \"devs/TokenManager.sol\":2630:2657   */\n                  0x00\n                    /* \"devs/TokenManager.sol\":2660:2670   */\n                  0x03\n                    /* \"devs/TokenManager.sol\":2660:2680   */\n                  0x00\n                    /* \"devs/TokenManager.sol\":2671:2679   */\n                  dup6\n                    /* \"devs/TokenManager.sol\":2660:2680   */\n                  dup2\n                  mstore\n                  0x20\n                  add\n                  swap1\n                  dup2\n                  mstore\n                  0x20\n                  add\n                  0x00\n                  keccak256\n                    /* \"devs/TokenManager.sol\":2630:2680   */\n                  swap1\n                  pop\n                    /* \"devs/TokenManager.sol\":2709:2716   */\n                  dup3\n                    /* \"devs/TokenManager.sol\":2690:2699   */\n                  dup2\n                    /* \"devs/TokenManager.sol\":2690:2706   */\n                  0x03\n                  add\n                  0x00\n                    /* \"devs/TokenManager.sol\":2690:2716   */\n                  0x0100\n                  exp\n                  dup2\n                  sload\n                  dup2\n                  0xffffffffffffffffffffffffffffffffffffffff\n                  mul\n                  not\n                  and\n                  swap1\n                  dup4\n                  0xffffffffffffffffffffffffffffffffffffffff\n                  and\n                  mul\n                  or\n                  swap1\n                  sstore\n                  pop\n                    /* \"devs/TokenManager.sol\":2620:2723   */\n                  pop\n                    /* \"devs/TokenManager.sol\":2527:2723   */\n                  pop\n                  pop\n                  pop\n                  jump\t// out\n                    /* \"devs/TokenManager.sol\":2729:2919   */\n                tag_64:\n                    /* \"devs/TokenManager.sol\":2783:2791   */\n                  dup1\n                    /* \"devs/TokenManager.sol\":1195:1207   */\n                  sload(0x02)\n                    /* \"devs/TokenManager.sol\":1185:1192   */\n                  dup2\n                    /* \"devs/TokenManager.sol\":1185:1207   */\n                  lt\n                    /* \"devs/TokenManager.sol\":1177:1208   */\n                  tag_92\n                  jumpi\n                  0x00\n                  dup1\n                  revert\n                tag_92:\n                    /* \"devs/TokenManager.sol\":1098:1108   */\n                  caller\n                    /* \"devs/TokenManager.sol\":1079:1108   */\n                  0xffffffffffffffffffffffffffffffffffffffff\n                  and\n                    /* \"devs/TokenManager.sol\":1079:1094   */\n                  0x01\n                  0x00\n                  swap1\n                  sload\n                  swap1\n                  0x0100\n                  exp\n                  swap1\n                  div\n                  0xffffffffffffffffffffffffffffffffffffffff\n                  and\n                    /* \"devs/TokenManager.sol\":1079:1108   */\n                  0xffffffffffffffffffffffffffffffffffffffff\n                  and\n                  eq\n                    /* \"devs/TokenManager.sol\":1071:1109   */\n                  tag_94\n                  jumpi\n                  0x00\n                  dup1\n                  revert\n                tag_94:\n                    /* \"devs/TokenManager.sol\":2813:2840   */\n                  0x00\n                    /* \"devs/TokenManager.sol\":2843:2853   */\n                  0x03\n                    /* \"devs/TokenManager.sol\":2843:2863   */\n                  0x00\n                    /* \"devs/TokenManager.sol\":2854:2862   */\n                  dup5\n                    /* \"devs/TokenManager.sol\":2843:2863   */\n                  dup2\n                  mstore\n                  0x20\n                  add\n                  swap1\n                  dup2\n                  mstore\n                  0x20\n                  add\n                  0x00\n                  keccak256\n                    /* \"devs/TokenManager.sol\":2813:2863   */\n                  swap1\n                  pop\n                    /* \"devs/TokenManager.sol\":2873:2912   */\n                  tag_96\n                    /* \"devs/TokenManager.sol\":2886:2894   */\n                  dup4\n                    /* \"devs/TokenManager.sol\":2896:2905   */\n                  dup3\n                    /* \"devs/TokenManager.sol\":2896:2911   */\n                  0x01\n                  add\n                  0x00\n                  swap1\n                  sload\n                  swap1\n                  0x0100\n                  exp\n                  swap1\n                  div\n                  0xffffffffffffffffffffffffffffffffffffffff\n                  and\n                    /* \"devs/TokenManager.sol\":2873:2885   */\n                  tag_61\n                    /* \"devs/TokenManager.sol\":2873:2912   */\n                  jump\t// in\n                tag_96:\n                    /* \"devs/TokenManager.sol\":2803:2919   */\n                  pop\n                    /* \"devs/TokenManager.sol\":2729:2919   */\n                  pop\n                  pop\n                  jump\t// out\n                    /* \"devs/TokenManager.sol\":2056:2270   */\n                tag_68:\n                    /* \"devs/TokenManager.sol\":2138:2146   */\n                  dup2\n                    /* \"devs/TokenManager.sol\":1195:1207   */\n                  sload(0x02)\n                    /* \"devs/TokenManager.sol\":1185:1192   */\n                  dup2\n                    /* \"devs/TokenManager.sol\":1185:1207   */\n                  lt\n                    /* \"devs/TokenManager.sol\":1177:1208   */\n                  tag_98\n                  jumpi\n                  0x00\n                  dup1\n                  revert\n                tag_98:\n                    /* \"devs/TokenManager.sol\":1098:1108   */\n                  caller\n                    /* \"devs/TokenManager.sol\":1079:1108   */\n                  0xffffffffffffffffffffffffffffffffffffffff\n                  and\n                    /* \"devs/TokenManager.sol\":1079:1094   */\n                  0x01\n                  0x00\n                  swap1\n                  sload\n                  swap1\n                  0x0100\n                  exp\n                  swap1\n                  div\n                  0xffffffffffffffffffffffffffffffffffffffff\n                  and\n                    /* \"devs/TokenManager.sol\":1079:1108   */\n                  0xffffffffffffffffffffffffffffffffffffffff\n                  and\n                  eq\n                    /* \"devs/TokenManager.sol\":1071:1109   */\n                  tag_100\n                  jumpi\n                  0x00\n                  dup1\n                  revert\n                tag_100:\n                    /* \"devs/TokenManager.sol\":2168:2195   */\n                  0x00\n                    /* \"devs/TokenManager.sol\":2198:2208   */\n                  0x03\n                    /* \"devs/TokenManager.sol\":2198:2218   */\n                  0x00\n                    /* \"devs/TokenManager.sol\":2209:2217   */\n                  dup6\n                    /* \"devs/TokenManager.sol\":2198:2218   */\n                  dup2\n                  mstore\n                  0x20\n                  add\n                  swap1\n                  dup2\n                  mstore\n                  0x20\n                  add\n                  0x00\n                  keccak256\n                    /* \"devs/TokenManager.sol\":2168:2218   */\n                  swap1\n                  pop\n                    /* \"devs/TokenManager.sol\":2256:2263   */\n                  dup3\n                    /* \"devs/TokenManager.sol\":2228:2237   */\n                  dup2\n                    /* \"devs/TokenManager.sol\":2228:2253   */\n                  0x03\n                  add\n                  0x14\n                    /* \"devs/TokenManager.sol\":2228:2263   */\n                  0x0100\n                  exp\n                  dup2\n                  sload\n                  dup2\n                  0xff\n                  mul\n                  not\n                  and\n                  swap1\n                  dup4\n                  iszero\n                  iszero\n                  mul\n                  or\n                  swap1\n                  sstore\n                  pop\n                    /* \"devs/TokenManager.sol\":2158:2270   */\n                  pop\n                    /* \"devs/TokenManager.sol\":2056:2270   */\n                  pop\n                  pop\n                  pop\n                  jump\t// out\n                    /* \"devs/TokenManager.sol\":922:952   */\n                tag_70:\n                  0x01\n                  0x00\n                  swap1\n                  sload\n                  swap1\n                  0x0100\n                  exp\n                  swap1\n                  div\n                  0xffffffffffffffffffffffffffffffffffffffff\n                  and\n                  dup2\n                  jump\t// out\n                    /* \"#utility.yul\":88:205   */\n                tag_103:\n                    /* \"#utility.yul\":197:198   */\n                  0x00\n                    /* \"#utility.yul\":194:195   */\n                  dup1\n                    /* \"#utility.yul\":187:199   */\n                  revert\n                    /* \"#utility.yul\":334:411   */\n                tag_105:\n                    /* \"#utility.yul\":371:378   */\n                  0x00\n                    /* \"#utility.yul\":400:405   */\n                  dup2\n                    /* \"#utility.yul\":389:405   */\n                  swap1\n                  pop\n                    /* \"#utility.yul\":334:411   */\n                  swap2\n                  swap1\n                  pop\n                  jump\t// out\n                    /* \"#utility.yul\":417:539   */\n                tag_106:\n                    /* \"#utility.yul\":490:514   */\n                  tag_125\n                    /* \"#utility.yul\":508:513   */\n                  dup2\n                    /* \"#utility.yul\":490:514   */\n                  tag_105\n                  jump\t// in\n                tag_125:\n                    /* \"#utility.yul\":483:488   */\n                  dup2\n                    /* \"#utility.yul\":480:515   */\n                  eq\n                    /* \"#utility.yul\":470:533   */\n                  tag_126\n                  jumpi\n                    /* \"#utility.yul\":529:530   */\n                  0x00\n                    /* \"#utility.yul\":526:527   */\n                  dup1\n                    /* \"#utility.yul\":519:531   */\n                  revert\n                    /* \"#utility.yul\":470:533   */\n                tag_126:\n                    /* \"#utility.yul\":417:539   */\n                  pop\n                  jump\t// out\n                    /* \"#utility.yul\":545:684   */\n                tag_107:\n                    /* \"#utility.yul\":591:596   */\n                  0x00\n                    /* \"#utility.yul\":629:635   */\n                  dup2\n                    /* \"#utility.yul\":616:636   */\n                  calldataload\n                    /* \"#utility.yul\":607:636   */\n                  swap1\n                  pop\n                    /* \"#utility.yul\":645:678   */\n                  tag_128\n                    /* \"#utility.yul\":672:677   */\n                  dup2\n                    /* \"#utility.yul\":645:678   */\n                  tag_106\n                  jump\t// in\n                tag_128:\n                    /* \"#utility.yul\":545:684   */\n                  swap3\n                  swap2\n                  pop\n                  pop\n                  jump\t// out\n                    /* \"#utility.yul\":690:1019   */\n                tag_20:\n                    /* \"#utility.yul\":749:755   */\n                  0x00\n                    /* \"#utility.yul\":798:800   */\n                  0x20\n                    /* \"#utility.yul\":786:795   */\n                  dup3\n                    /* \"#utility.yul\":777:784   */\n                  dup5\n                    /* \"#utility.yul\":773:796   */\n                  sub\n                    /* \"#utility.yul\":769:801   */\n                  slt\n                    /* \"#utility.yul\":766:885   */\n                  iszero\n                  tag_130\n                  jumpi\n                    /* \"#utility.yul\":804:883   */\n                  tag_131\n                  tag_103\n                  jump\t// in\n                tag_131:\n                    /* \"#utility.yul\":766:885   */\n                tag_130:\n                    /* \"#utility.yul\":924:925   */\n                  0x00\n                    /* \"#utility.yul\":949:1002   */\n                  tag_132\n                    /* \"#utility.yul\":994:1001   */\n                  dup5\n                    /* \"#utility.yul\":985:991   */\n                  dup3\n                    /* \"#utility.yul\":974:983   */\n                  dup6\n                    /* \"#utility.yul\":970:992   */\n                  add\n                    /* \"#utility.yul\":949:1002   */\n                  tag_107\n                  jump\t// in\n                tag_132:\n                    /* \"#utility.yul\":939:1002   */\n                  swap2\n                  pop\n                    /* \"#utility.yul\":895:1012   */\n                  pop\n                    /* \"#utility.yul\":690:1019   */\n                  swap3\n                  swap2\n                  pop\n                  pop\n                  jump\t// out\n                    /* \"#utility.yul\":1025:1143   */\n                tag_108:\n                    /* \"#utility.yul\":1112:1136   */\n                  tag_134\n                    /* \"#utility.yul\":1130:1135   */\n                  dup2\n                    /* \"#utility.yul\":1112:1136   */\n                  tag_105\n                  jump\t// in\n                tag_134:\n                    /* \"#utility.yul\":1107:1110   */\n                  dup3\n                    /* \"#utility.yul\":1100:1137   */\n                  mstore\n                    /* \"#utility.yul\":1025:1143   */\n                  pop\n                  pop\n                  jump\t// out\n                    /* \"#utility.yul\":1149:1371   */\n                tag_23:\n                    /* \"#utility.yul\":1242:1246   */\n                  0x00\n                    /* \"#utility.yul\":1280:1282   */\n                  0x20\n                    /* \"#utility.yul\":1269:1278   */\n                  dup3\n                    /* \"#utility.yul\":1265:1283   */\n                  add\n                    /* \"#utility.yul\":1257:1283   */\n                  swap1\n                  pop\n                    /* \"#utility.yul\":1293:1364   */\n                  tag_136\n                    /* \"#utility.yul\":1361:1362   */\n                  0x00\n                    /* \"#utility.yul\":1350:1359   */\n                  dup4\n                    /* \"#utility.yul\":1346:1363   */\n                  add\n                    /* \"#utility.yul\":1337:1343   */\n                  dup5\n                    /* \"#utility.yul\":1293:1364   */\n                  tag_108\n                  jump\t// in\n                tag_136:\n                    /* \"#utility.yul\":1149:1371   */\n                  swap3\n                  swap2\n                  pop\n                  pop\n                  jump\t// out\n                    /* \"#utility.yul\":1377:1503   */\n                tag_109:\n                    /* \"#utility.yul\":1414:1421   */\n                  0x00\n                    /* \"#utility.yul\":1454:1496   */\n                  0xffffffffffffffffffffffffffffffffffffffff\n                    /* \"#utility.yul\":1447:1452   */\n                  dup3\n                    /* \"#utility.yul\":1443:1497   */\n                  and\n                    /* \"#utility.yul\":1432:1497   */\n                  swap1\n                  pop\n                    /* \"#utility.yul\":1377:1503   */\n                  swap2\n                  swap1\n                  pop\n                  jump\t// out\n                    /* \"#utility.yul\":1509:1605   */\n                tag_110:\n                    /* \"#utility.yul\":1546:1553   */\n                  0x00\n                    /* \"#utility.yul\":1575:1599   */\n                  tag_139\n                    /* \"#utility.yul\":1593:1598   */\n                  dup3\n                    /* \"#utility.yul\":1575:1599   */\n                  tag_109\n                  jump\t// in\n                tag_139:\n                    /* \"#utility.yul\":1564:1599   */\n                  swap1\n                  pop\n                    /* \"#utility.yul\":1509:1605   */\n                  swap2\n                  swap1\n                  pop\n                  jump\t// out\n                    /* \"#utility.yul\":1611:1729   */\n                tag_111:\n                    /* \"#utility.yul\":1698:1722   */\n                  tag_141\n                    /* \"#utility.yul\":1716:1721   */\n                  dup2\n                    /* \"#utility.yul\":1698:1722   */\n                  tag_110\n                  jump\t// in\n                tag_141:\n                    /* \"#utility.yul\":1693:1696   */\n                  dup3\n                    /* \"#utility.yul\":1686:1723   */\n                  mstore\n                    /* \"#utility.yul\":1611:1729   */\n                  pop\n                  pop\n                  jump\t// out\n                    /* \"#utility.yul\":1735:1957   */\n                tag_28:\n                    /* \"#utility.yul\":1828:1832   */\n                  0x00\n                    /* \"#utility.yul\":1866:1868   */\n                  0x20\n                    /* \"#utility.yul\":1855:1864   */\n                  dup3\n                    /* \"#utility.yul\":1851:1869   */\n                  add\n                    /* \"#utility.yul\":1843:1869   */\n                  swap1\n                  pop\n                    /* \"#utility.yul\":1879:1950   */\n                  tag_143\n                    /* \"#utility.yul\":1947:1948   */\n                  0x00\n                    /* \"#utility.yul\":1936:1945   */\n                  dup4\n                    /* \"#utility.yul\":1932:1949   */\n                  add\n                    /* \"#utility.yul\":1923:1929   */\n                  dup5\n                    /* \"#utility.yul\":1879:1950   */\n                  tag_111\n                  jump\t// in\n                tag_143:\n                    /* \"#utility.yul\":1735:1957   */\n                  swap3\n                  swap2\n                  pop\n                  pop\n                  jump\t// out\n                    /* \"#utility.yul\":1963:2053   */\n                tag_112:\n                    /* \"#utility.yul\":1997:2004   */\n                  0x00\n                    /* \"#utility.yul\":2040:2045   */\n                  dup2\n                    /* \"#utility.yul\":2033:2046   */\n                  iszero\n                    /* \"#utility.yul\":2026:2047   */\n                  iszero\n                    /* \"#utility.yul\":2015:2047   */\n                  swap1\n                  pop\n                    /* \"#utility.yul\":1963:2053   */\n                  swap2\n                  swap1\n                  pop\n                  jump\t// out\n                    /* \"#utility.yul\":2059:2168   */\n                tag_113:\n                    /* \"#utility.yul\":2140:2161   */\n                  tag_146\n                    /* \"#utility.yul\":2155:2160   */\n                  dup2\n                    /* \"#utility.yul\":2140:2161   */\n                  tag_112\n                  jump\t// in\n                tag_146:\n                    /* \"#utility.yul\":2135:2138   */\n                  dup3\n                    /* \"#utility.yul\":2128:2162   */\n                  mstore\n                    /* \"#utility.yul\":2059:2168   */\n                  pop\n                  pop\n                  jump\t// out\n                    /* \"#utility.yul\":2174:3048   */\n                tag_37:\n                    /* \"#utility.yul\":2429:2433   */\n                  0x00\n                    /* \"#utility.yul\":2467:2470   */\n                  0xe0\n                    /* \"#utility.yul\":2456:2465   */\n                  dup3\n                    /* \"#utility.yul\":2452:2471   */\n                  add\n                    /* \"#utility.yul\":2444:2471   */\n                  swap1\n                  pop\n                    /* \"#utility.yul\":2481:2552   */\n                  tag_148\n                    /* \"#utility.yul\":2549:2550   */\n                  0x00\n                    /* \"#utility.yul\":2538:2547   */\n                  dup4\n                    /* \"#utility.yul\":2534:2551   */\n                  add\n                    /* \"#utility.yul\":2525:2531   */\n                  dup11\n                    /* \"#utility.yul\":2481:2552   */\n                  tag_108\n                  jump\t// in\n                tag_148:\n                    /* \"#utility.yul\":2562:2634   */\n                  tag_149\n                    /* \"#utility.yul\":2630:2632   */\n                  0x20\n                    /* \"#utility.yul\":2619:2628   */\n                  dup4\n                    /* \"#utility.yul\":2615:2633   */\n                  add\n                    /* \"#utility.yul\":2606:2612   */\n                  dup10\n                    /* \"#utility.yul\":2562:2634   */\n                  tag_111\n                  jump\t// in\n                tag_149:\n                    /* \"#utility.yul\":2644:2716   */\n                  tag_150\n                    /* \"#utility.yul\":2712:2714   */\n                  0x40\n                    /* \"#utility.yul\":2701:2710   */\n                  dup4\n                    /* \"#utility.yul\":2697:2715   */\n                  add\n                    /* \"#utility.yul\":2688:2694   */\n                  dup9\n                    /* \"#utility.yul\":2644:2716   */\n                  tag_108\n                  jump\t// in\n                tag_150:\n                    /* \"#utility.yul\":2726:2798   */\n                  tag_151\n                    /* \"#utility.yul\":2794:2796   */\n                  0x60\n                    /* \"#utility.yul\":2783:2792   */\n                  dup4\n                    /* \"#utility.yul\":2779:2797   */\n                  add\n                    /* \"#utility.yul\":2770:2776   */\n                  dup8\n                    /* \"#utility.yul\":2726:2798   */\n                  tag_111\n                  jump\t// in\n                tag_151:\n                    /* \"#utility.yul\":2808:2875   */\n                  tag_152\n                    /* \"#utility.yul\":2870:2873   */\n                  0x80\n                    /* \"#utility.yul\":2859:2868   */\n                  dup4\n                    /* \"#utility.yul\":2855:2874   */\n                  add\n                    /* \"#utility.yul\":2846:2852   */\n                  dup7\n                    /* \"#utility.yul\":2808:2875   */\n                  tag_113\n                  jump\t// in\n                tag_152:\n                    /* \"#utility.yul\":2885:2958   */\n                  tag_153\n                    /* \"#utility.yul\":2953:2956   */\n                  0xa0\n                    /* \"#utility.yul\":2942:2951   */\n                  dup4\n                    /* \"#utility.yul\":2938:2957   */\n                  add\n                    /* \"#utility.yul\":2929:2935   */\n                  dup6\n                    /* \"#utility.yul\":2885:2958   */\n                  tag_108\n                  jump\t// in\n                tag_153:\n                    /* \"#utility.yul\":2968:3041   */\n                  tag_154\n                    /* \"#utility.yul\":3036:3039   */\n                  0xc0\n                    /* \"#utility.yul\":3025:3034   */\n                  dup4\n                    /* \"#utility.yul\":3021:3040   */\n                  add\n                    /* \"#utility.yul\":3012:3018   */\n                  dup5\n                    /* \"#utility.yul\":2968:3041   */\n                  tag_108\n                  jump\t// in\n                tag_154:\n                    /* \"#utility.yul\":2174:3048   */\n                  swap9\n                  swap8\n                  pop\n                  pop\n                  pop\n                  pop\n                  pop\n                  pop\n                  pop\n                  pop\n                  jump\t// out\n                    /* \"#utility.yul\":3054:3673   */\n                tag_43:\n                    /* \"#utility.yul\":3131:3137   */\n                  0x00\n                    /* \"#utility.yul\":3139:3145   */\n                  dup1\n                    /* \"#utility.yul\":3147:3153   */\n                  0x00\n                    /* \"#utility.yul\":3196:3198   */\n                  0x60\n                    /* \"#utility.yul\":3184:3193   */\n                  dup5\n                    /* \"#utility.yul\":3175:3182   */\n                  dup7\n                    /* \"#utility.yul\":3171:3194   */\n                  sub\n                    /* \"#utility.yul\":3167:3199   */\n                  slt\n                    /* \"#utility.yul\":3164:3283   */\n                  iszero\n                  tag_156\n                  jumpi\n                    /* \"#utility.yul\":3202:3281   */\n                  tag_157\n                  tag_103\n                  jump\t// in\n                tag_157:\n                    /* \"#utility.yul\":3164:3283   */\n                tag_156:\n                    /* \"#utility.yul\":3322:3323   */\n                  0x00\n                    /* \"#utility.yul\":3347:3400   */\n                  tag_158\n                    /* \"#utility.yul\":3392:3399   */\n                  dup7\n                    /* \"#utility.yul\":3383:3389   */\n                  dup3\n                    /* \"#utility.yul\":3372:3381   */\n                  dup8\n                    /* \"#utility.yul\":3368:3390   */\n                  add\n                    /* \"#utility.yul\":3347:3400   */\n                  tag_107\n                  jump\t// in\n                tag_158:\n                    /* \"#utility.yul\":3337:3400   */\n                  swap4\n                  pop\n                    /* \"#utility.yul\":3293:3410   */\n                  pop\n                    /* \"#utility.yul\":3449:3451   */\n                  0x20\n                    /* \"#utility.yul\":3475:3528   */\n                  tag_159\n                    /* \"#utility.yul\":3520:3527   */\n                  dup7\n                    /* \"#utility.yul\":3511:3517   */\n                  dup3\n                    /* \"#utility.yul\":3500:3509   */\n                  dup8\n                    /* \"#utility.yul\":3496:3518   */\n                  add\n                    /* \"#utility.yul\":3475:3528   */\n                  tag_107\n                  jump\t// in\n                tag_159:\n                    /* \"#utility.yul\":3465:3528   */\n                  swap3\n                  pop\n                    /* \"#utility.yul\":3420:3538   */\n                  pop\n                    /* \"#utility.yul\":3577:3579   */\n                  0x40\n                    /* \"#utility.yul\":3603:3656   */\n                  tag_160\n                    /* \"#utility.yul\":3648:3655   */\n                  dup7\n                    /* \"#utility.yul\":3639:3645   */\n                  dup3\n                    /* \"#utility.yul\":3628:3637   */\n                  dup8\n                    /* \"#utility.yul\":3624:3646   */\n                  add\n                    /* \"#utility.yul\":3603:3656   */\n                  tag_107\n                  jump\t// in\n                tag_160:\n                    /* \"#utility.yul\":3593:3656   */\n                  swap2\n                  pop\n                    /* \"#utility.yul\":3548:3666   */\n                  pop\n                    /* \"#utility.yul\":3054:3673   */\n                  swap3\n                  pop\n                  swap3\n                  pop\n                  swap3\n                  jump\t// out\n                    /* \"#utility.yul\":3679:3889   */\n                tag_52:\n                    /* \"#utility.yul\":3766:3770   */\n                  0x00\n                    /* \"#utility.yul\":3804:3806   */\n                  0x20\n                    /* \"#utility.yul\":3793:3802   */\n                  dup3\n                    /* \"#utility.yul\":3789:3807   */\n                  add\n                    /* \"#utility.yul\":3781:3807   */\n                  swap1\n                  pop\n                    /* \"#utility.yul\":3817:3882   */\n                  tag_162\n                    /* \"#utility.yul\":3879:3880   */\n                  0x00\n                    /* \"#utility.yul\":3868:3877   */\n                  dup4\n                    /* \"#utility.yul\":3864:3881   */\n                  add\n                    /* \"#utility.yul\":3855:3861   */\n                  dup5\n                    /* \"#utility.yul\":3817:3882   */\n                  tag_113\n                  jump\t// in\n                tag_162:\n                    /* \"#utility.yul\":3679:3889   */\n                  swap3\n                  swap2\n                  pop\n                  pop\n                  jump\t// out\n                    /* \"#utility.yul\":3895:4017   */\n                tag_114:\n                    /* \"#utility.yul\":3968:3992   */\n                  tag_164\n                    /* \"#utility.yul\":3986:3991   */\n                  dup2\n                    /* \"#utility.yul\":3968:3992   */\n                  tag_110\n                  jump\t// in\n                tag_164:\n                    /* \"#utility.yul\":3961:3966   */\n                  dup2\n                    /* \"#utility.yul\":3958:3993   */\n                  eq\n                    /* \"#utility.yul\":3948:4011   */\n                  tag_165\n                  jumpi\n                    /* \"#utility.yul\":4007:4008   */\n                  0x00\n                    /* \"#utility.yul\":4004:4005   */\n                  dup1\n                    /* \"#utility.yul\":3997:4009   */\n                  revert\n                    /* \"#utility.yul\":3948:4011   */\n                tag_165:\n                    /* \"#utility.yul\":3895:4017   */\n                  pop\n                  jump\t// out\n                    /* \"#utility.yul\":4023:4162   */\n                tag_115:\n                    /* \"#utility.yul\":4069:4074   */\n                  0x00\n                    /* \"#utility.yul\":4107:4113   */\n                  dup2\n                    /* \"#utility.yul\":4094:4114   */\n                  calldataload\n                    /* \"#utility.yul\":4085:4114   */\n                  swap1\n                  pop\n                    /* \"#utility.yul\":4123:4156   */\n                  tag_167\n                    /* \"#utility.yul\":4150:4155   */\n                  dup2\n                    /* \"#utility.yul\":4123:4156   */\n                  tag_114\n                  jump\t// in\n                tag_167:\n                    /* \"#utility.yul\":4023:4162   */\n                  swap3\n                  swap2\n                  pop\n                  pop\n                  jump\t// out\n                    /* \"#utility.yul\":4168:4933   */\n                tag_55:\n                    /* \"#utility.yul\":4254:4260   */\n                  0x00\n                    /* \"#utility.yul\":4262:4268   */\n                  dup1\n                    /* \"#utility.yul\":4270:4276   */\n                  0x00\n                    /* \"#utility.yul\":4278:4284   */\n                  dup1\n                    /* \"#utility.yul\":4327:4330   */\n                  0x80\n                    /* \"#utility.yul\":4315:4324   */\n                  dup6\n                    /* \"#utility.yul\":4306:4313   */\n                  dup8\n                    /* \"#utility.yul\":4302:4325   */\n                  sub\n                    /* \"#utility.yul\":4298:4331   */\n                  slt\n                    /* \"#utility.yul\":4295:4415   */\n                  iszero\n                  tag_169\n                  jumpi\n                    /* \"#utility.yul\":4334:4413   */\n                  tag_170\n                  tag_103\n                  jump\t// in\n                tag_170:\n                    /* \"#utility.yul\":4295:4415   */\n                tag_169:\n                    /* \"#utility.yul\":4454:4455   */\n                  0x00\n                    /* \"#utility.yul\":4479:4532   */\n                  tag_171\n                    /* \"#utility.yul\":4524:4531   */\n                  dup8\n                    /* \"#utility.yul\":4515:4521   */\n                  dup3\n                    /* \"#utility.yul\":4504:4513   */\n                  dup9\n                    /* \"#utility.yul\":4500:4522   */\n                  add\n                    /* \"#utility.yul\":4479:4532   */\n                  tag_115\n                  jump\t// in\n                tag_171:\n                    /* \"#utility.yul\":4469:4532   */\n                  swap5\n                  pop\n                    /* \"#utility.yul\":4425:4542   */\n                  pop\n                    /* \"#utility.yul\":4581:4583   */\n                  0x20\n                    /* \"#utility.yul\":4607:4660   */\n                  tag_172\n                    /* \"#utility.yul\":4652:4659   */\n                  dup8\n                    /* \"#utility.yul\":4643:4649   */\n                  dup3\n                    /* \"#utility.yul\":4632:4641   */\n                  dup9\n                    /* \"#utility.yul\":4628:4650   */\n                  add\n                    /* \"#utility.yul\":4607:4660   */\n                  tag_107\n                  jump\t// in\n                tag_172:\n                    /* \"#utility.yul\":4597:4660   */\n                  swap4\n                  pop\n                    /* \"#utility.yul\":4552:4670   */\n                  pop\n                    /* \"#utility.yul\":4709:4711   */\n                  0x40\n                    /* \"#utility.yul\":4735:4788   */\n                  tag_173\n                    /* \"#utility.yul\":4780:4787   */\n                  dup8\n                    /* \"#utility.yul\":4771:4777   */\n                  dup3\n                    /* \"#utility.yul\":4760:4769   */\n                  dup9\n                    /* \"#utility.yul\":4756:4778   */\n                  add\n                    /* \"#utility.yul\":4735:4788   */\n                  tag_107\n                  jump\t// in\n                tag_173:\n                    /* \"#utility.yul\":4725:4788   */\n                  swap3\n                  pop\n                    /* \"#utility.yul\":4680:4798   */\n                  pop\n                    /* \"#utility.yul\":4837:4839   */\n                  0x60\n                    /* \"#utility.yul\":4863:4916   */\n                  tag_174\n                    /* \"#utility.yul\":4908:4915   */\n                  dup8\n                    /* \"#utility.yul\":4899:4905   */\n                  dup3\n                    /* \"#utility.yul\":4888:4897   */\n                  dup9\n                    /* \"#utility.yul\":4884:4906   */\n                  add\n                    /* \"#utility.yul\":4863:4916   */\n                  tag_107\n                  jump\t// in\n                tag_174:\n                    /* \"#utility.yul\":4853:4916   */\n                  swap2\n                  pop\n                    /* \"#utility.yul\":4808:4926   */\n                  pop\n                    /* \"#utility.yul\":4168:4933   */\n                  swap3\n                  swap6\n                  swap2\n                  swap5\n                  pop\n                  swap3\n                  pop\n                  jump\t// out\n                    /* \"#utility.yul\":4939:5413   */\n                tag_60:\n                    /* \"#utility.yul\":5007:5013   */\n                  0x00\n                    /* \"#utility.yul\":5015:5021   */\n                  dup1\n                    /* \"#utility.yul\":5064:5066   */\n                  0x40\n                    /* \"#utility.yul\":5052:5061   */\n                  dup4\n                    /* \"#utility.yul\":5043:5050   */\n                  dup6\n                    /* \"#utility.yul\":5039:5062   */\n                  sub\n                    /* \"#utility.yul\":5035:5067   */\n                  slt\n                    /* \"#utility.yul\":5032:5151   */\n                  iszero\n                  tag_176\n                  jumpi\n                    /* \"#utility.yul\":5070:5149   */\n                  tag_177\n                  tag_103\n                  jump\t// in\n                tag_177:\n                    /* \"#utility.yul\":5032:5151   */\n                tag_176:\n                    /* \"#utility.yul\":5190:5191   */\n                  0x00\n                    /* \"#utility.yul\":5215:5268   */\n                  tag_178\n                    /* \"#utility.yul\":5260:5267   */\n                  dup6\n                    /* \"#utility.yul\":5251:5257   */\n                  dup3\n                    /* \"#utility.yul\":5240:5249   */\n                  dup7\n                    /* \"#utility.yul\":5236:5258   */\n                  add\n                    /* \"#utility.yul\":5215:5268   */\n                  tag_107\n                  jump\t// in\n                tag_178:\n                    /* \"#utility.yul\":5205:5268   */\n                  swap3\n                  pop\n                    /* \"#utility.yul\":5161:5278   */\n                  pop\n                    /* \"#utility.yul\":5317:5319   */\n                  0x20\n                    /* \"#utility.yul\":5343:5396   */\n                  tag_179\n                    /* \"#utility.yul\":5388:5395   */\n                  dup6\n                    /* \"#utility.yul\":5379:5385   */\n                  dup3\n                    /* \"#utility.yul\":5368:5377   */\n                  dup7\n                    /* \"#utility.yul\":5364:5386   */\n                  add\n                    /* \"#utility.yul\":5343:5396   */\n                  tag_115\n                  jump\t// in\n                tag_179:\n                    /* \"#utility.yul\":5333:5396   */\n                  swap2\n                  pop\n                    /* \"#utility.yul\":5288:5406   */\n                  pop\n                    /* \"#utility.yul\":4939:5413   */\n                  swap3\n                  pop\n                  swap3\n                  swap1\n                  pop\n                  jump\t// out\n                    /* \"#utility.yul\":5419:5535   */\n                tag_116:\n                    /* \"#utility.yul\":5489:5510   */\n                  tag_181\n                    /* \"#utility.yul\":5504:5509   */\n                  dup2\n                    /* \"#utility.yul\":5489:5510   */\n                  tag_112\n                  jump\t// in\n                tag_181:\n                    /* \"#utility.yul\":5482:5487   */\n                  dup2\n                    /* \"#utility.yul\":5479:5511   */\n                  eq\n                    /* \"#utility.yul\":5469:5529   */\n                  tag_182\n                  jumpi\n                    /* \"#utility.yul\":5525:5526   */\n                  0x00\n                    /* \"#utility.yul\":5522:5523   */\n                  dup1\n                    /* \"#utility.yul\":5515:5527   */\n                  revert\n                    /* \"#utility.yul\":5469:5529   */\n                tag_182:\n                    /* \"#utility.yul\":5419:5535   */\n                  pop\n                  jump\t// out\n                    /* \"#utility.yul\":5541:5674   */\n                tag_117:\n                    /* \"#utility.yul\":5584:5589   */\n                  0x00\n                    /* \"#utility.yul\":5622:5628   */\n                  dup2\n                    /* \"#utility.yul\":5609:5629   */\n                  calldataload\n                    /* \"#utility.yul\":5600:5629   */\n                  swap1\n                  pop\n                    /* \"#utility.yul\":5638:5668   */\n                  tag_184\n                    /* \"#utility.yul\":5662:5667   */\n                  dup2\n                    /* \"#utility.yul\":5638:5668   */\n                  tag_116\n                  jump\t// in\n                tag_184:\n                    /* \"#utility.yul\":5541:5674   */\n                  swap3\n                  swap2\n                  pop\n                  pop\n                  jump\t// out\n                    /* \"#utility.yul\":5680:6148   */\n                tag_67:\n                    /* \"#utility.yul\":5745:5751   */\n                  0x00\n                    /* \"#utility.yul\":5753:5759   */\n                  dup1\n                    /* \"#utility.yul\":5802:5804   */\n                  0x40\n                    /* \"#utility.yul\":5790:5799   */\n                  dup4\n                    /* \"#utility.yul\":5781:5788   */\n                  dup6\n                    /* \"#utility.yul\":5777:5800   */\n                  sub\n                    /* \"#utility.yul\":5773:5805   */\n                  slt\n                    /* \"#utility.yul\":5770:5889   */\n                  iszero\n                  tag_186\n                  jumpi\n                    /* \"#utility.yul\":5808:5887   */\n                  tag_187\n                  tag_103\n                  jump\t// in\n                tag_187:\n                    /* \"#utility.yul\":5770:5889   */\n                tag_186:\n                    /* \"#utility.yul\":5928:5929   */\n                  0x00\n                    /* \"#utility.yul\":5953:6006   */\n                  tag_188\n                    /* \"#utility.yul\":5998:6005   */\n                  dup6\n                    /* \"#utility.yul\":5989:5995   */\n                  dup3\n                    /* \"#utility.yul\":5978:5987   */\n                  dup7\n                    /* \"#utility.yul\":5974:5996   */\n                  add\n                    /* \"#utility.yul\":5953:6006   */\n                  tag_107\n                  jump\t// in\n                tag_188:\n                    /* \"#utility.yul\":5943:6006   */\n                  swap3\n                  pop\n                    /* \"#utility.yul\":5899:6016   */\n                  pop\n                    /* \"#utility.yul\":6055:6057   */\n                  0x20\n                    /* \"#utility.yul\":6081:6131   */\n                  tag_189\n                    /* \"#utility.yul\":6123:6130   */\n                  dup6\n                    /* \"#utility.yul\":6114:6120   */\n                  dup3\n                    /* \"#utility.yul\":6103:6112   */\n                  dup7\n                    /* \"#utility.yul\":6099:6121   */\n                  add\n                    /* \"#utility.yul\":6081:6131   */\n                  tag_117\n                  jump\t// in\n                tag_189:\n                    /* \"#utility.yul\":6071:6131   */\n                  swap2\n                  pop\n                    /* \"#utility.yul\":6026:6141   */\n                  pop\n                    /* \"#utility.yul\":5680:6148   */\n                  swap3\n                  pop\n                  swap3\n                  swap1\n                  pop\n                  jump\t// out\n                    /* \"#utility.yul\":6154:6334   */\n                tag_118:\n                    /* \"#utility.yul\":6202:6279   */\n                  0x4e487b7100000000000000000000000000000000000000000000000000000000\n                    /* \"#utility.yul\":6199:6200   */\n                  0x00\n                    /* \"#utility.yul\":6192:6280   */\n                  mstore\n                    /* \"#utility.yul\":6299:6303   */\n                  0x11\n                    /* \"#utility.yul\":6296:6297   */\n                  0x04\n                    /* \"#utility.yul\":6289:6304   */\n                  mstore\n                    /* \"#utility.yul\":6323:6327   */\n                  0x24\n                    /* \"#utility.yul\":6320:6321   */\n                  0x00\n                    /* \"#utility.yul\":6313:6328   */\n                  revert\n                    /* \"#utility.yul\":6340:6573   */\n                tag_85:\n                    /* \"#utility.yul\":6379:6382   */\n                  0x00\n                    /* \"#utility.yul\":6402:6426   */\n                  tag_192\n                    /* \"#utility.yul\":6420:6425   */\n                  dup3\n                    /* \"#utility.yul\":6402:6426   */\n                  tag_105\n                  jump\t// in\n                tag_192:\n                    /* \"#utility.yul\":6393:6426   */\n                  swap2\n                  pop\n                    /* \"#utility.yul\":6448:6514   */\n                  0xffffffffffffffffffffffffffffffffffffffffffffffffffffffffffffffff\n                    /* \"#utility.yul\":6441:6446   */\n                  dup3\n                    /* \"#utility.yul\":6438:6515   */\n                  eq\n                    /* \"#utility.yul\":6435:6538   */\n                  iszero\n                  tag_193\n                  jumpi\n                    /* \"#utility.yul\":6518:6536   */\n                  tag_194\n                  tag_118\n                  jump\t// in\n                tag_194:\n                    /* \"#utility.yul\":6435:6538   */\n                tag_193:\n                    /* \"#utility.yul\":6565:6566   */\n                  0x01\n                    /* \"#utility.yul\":6558:6563   */\n                  dup3\n                    /* \"#utility.yul\":6554:6567   */\n                  add\n                    /* \"#utility.yul\":6547:6567   */\n                  swap1\n                  pop\n                    /* \"#utility.yul\":6340:6573   */\n                  swap2\n                  swap1\n                  pop\n                  jump\t// out\n\n                auxdata: 0xa264697066735822122094bb1268f636dc54664e57f48315f20feecf31084178cb0666b50a280f4b2b8464736f6c634300080a0033\n            }\n        }\n    }\n\n    auxdata: 0xa26469706673582212202655ad745542a79adf85ad26b232fb82ada93a523d5c0ff499e5280a9b15277464736f6c634300080a0033\n}\n","bytecode":{"linkReferences":{},"object":"608060405234801561001057600080fd5b506159ee806100206000396000f3fe60806040523480156200001157600080fd5b5060043610620000465760003560e01c806373b1be38146200004b57806398fe1356146200006b578063f4b2b9b014620000a1575b600080fd5b62000069600480360381019062000063919062000287565b620000c3565b005b62000089600480360381019062000083919062000287565b62000169565b604051620000989190620002fe565b60405180910390f35b620000ab620001a9565b604051620000ba9190620003e9565b60405180910390f35b60008133604051620000d59062000239565b620000e29291906200041e565b604051809103906000f080158015620000ff573d6000803e3d6000fd5b5090506000819080600181540180825580915050600190039060005260206000200160009091909190916101000a81548173ffffffffffffffffffffffffffffffffffffffff021916908373ffffffffffffffffffffffffffffffffffffffff1602179055505050565b600081815481106200017a57600080fd5b906000526020600020016000915054906101000a900473ffffffffffffffffffffffffffffffffffffffff1681565b606060008054806020026020016040519081016040528092919081815260200182805480156200022f57602002820191906000526020600020905b8160009054906101000a900473ffffffffffffffffffffffffffffffffffffffff1673ffffffffffffffffffffffffffffffffffffffff1681526020019060010190808311620001e4575b5050505050905090565b61556d806200044c83390190565b600080fd5b6000819050919050565b62000261816200024c565b81146200026d57600080fd5b50565b600081359050620002818162000256565b92915050565b600060208284031215620002a0576200029f62000247565b5b6000620002b08482850162000270565b91505092915050565b600073ffffffffffffffffffffffffffffffffffffffff82169050919050565b6000620002e682620002b9565b9050919050565b620002f881620002d9565b82525050565b6000602082019050620003156000830184620002ed565b92915050565b600081519050919050565b600082825260208201905092915050565b6000819050602082019050919050565b6200035281620002d9565b82525050565b600062000366838362000347565b60208301905092915050565b6000602082019050919050565b60006200038c826200031b565b62000398818562000326565b9350620003a58362000337565b8060005b83811015620003dc578151620003c0888262000358565b9750620003cd8362000372565b925050600181019050620003a9565b5085935050505092915050565b600060208201905081810360008301526200040581846200037f565b905092915050565b62000418816200024c565b82525050565b60006040820190506200043560008301856200040d565b620004446020830184620002ed565b939250505056fe60806040523480156200001157600080fd5b506040516200556d3803806200556d833981810160405281019062000037919062000527565b806000806101000a81548173ffffffffffffffffffffffffffffffffffffffff021916908373ffffffffffffffffffffffffffffffffffffffff16021790555060018060008060009054906101000a900473ffffffffffffffffffffffffffffffffffffffff1673ffffffffffffffffffffffffffffffffffffffff1673ffffffffffffffffffffffffffffffffffffffff16815260200190815260200160002060006101000a81548160ff02191690831515021790555060008054906101000a900473ffffffffffffffffffffffffffffffffffffffff166040516200011e9062000458565b6200012a91906200057f565b604051809103906000f08015801562000147573d6000803e3d6000fd5b50600260006101000a81548173ffffffffffffffffffffffffffffffffffffffff021916908373ffffffffffffffffffffffffffffffffffffffff16021790555060008054906101000a900473ffffffffffffffffffffffffffffffffffffffff16604051620001b79062000466565b620001c391906200057f565b604051809103906000f080158015620001e0573d6000803e3d6000fd5b50600360006101000a81548173ffffffffffffffffffffffffffffffffffffffff021916908373ffffffffffffffffffffffffffffffffffffffff16021790555060008054906101000a900473ffffffffffffffffffffffffffffffffffffffff16604051620002509062000474565b6200025c91906200057f565b604051809103906000f08015801562000279573d6000803e3d6000fd5b50600460006101000a81548173ffffffffffffffffffffffffffffffffffffffff021916908373ffffffffffffffffffffffffffffffffffffffff1602179055506005600260009054906101000a900473ffffffffffffffffffffffffffffffffffffffff169080600181540180825580915050600190039060005260206000200160009091909190916101000a81548173ffffffffffffffffffffffffffffffffffffffff021916908373ffffffffffffffffffffffffffffffffffffffff1602179055506005600360009054906101000a900473ffffffffffffffffffffffffffffffffffffffff169080600181540180825580915050600190039060005260206000200160009091909190916101000a81548173ffffffffffffffffffffffffffffffffffffffff021916908373ffffffffffffffffffffffffffffffffffffffff1602179055506005600460009054906101000a900473ffffffffffffffffffffffffffffffffffffffff169080600181540180825580915050600190039060005260206000200160009091909190916101000a81548173ffffffffffffffffffffffffffffffffffffffff021916908373ffffffffffffffffffffffffffffffffffffffff1602179055508160068190555050506200059c565b6112e480620020ba83390190565b611055806200339e83390190565b61117a80620043f383390190565b600080fd5b6000819050919050565b6200049c8162000487565b8114620004a857600080fd5b50565b600081519050620004bc8162000491565b92915050565b600073ffffffffffffffffffffffffffffffffffffffff82169050919050565b6000620004ef82620004c2565b9050919050565b6200050181620004e2565b81146200050d57600080fd5b50565b6000815190506200052181620004f6565b92915050565b6000806040838503121562000541576200054062000482565b5b60006200055185828601620004ab565b9250506020620005648582860162000510565b9150509250929050565b6200057981620004e2565b82525050565b60006020820190506200059660008301846200056e565b92915050565b611b0e80620005ac6000396000f3fe6080604052600436106100a75760003560e01c80638da5cb5b116100645780638da5cb5b1461017d57806390272dff146101a8578063c162d7da146101d3578063ca5140c9146101fe578063d2c07e2014610227578063fe69494b14610250576100a7565b80631973db46146100ac5780631a8c3eec146100c85780631aa3a008146100e45780634f83158a146100fb578063687564ae146101385780637e490a9e14610161575b600080fd5b6100c660048036038101906100c1919061127b565b610279565b005b6100e260048036038101906100dd9190611306565b610595565b005b3480156100f057600080fd5b506100f96106cd565b005b34801561010757600080fd5b50610122600480360381019061011d91906113a4565b61075c565b60405161012f91906113e0565b60405180910390f35b34801561014457600080fd5b5061015f600480360381019061015a9190611541565b61077c565b005b61017b600480360381019061017691906115e0565b610913565b005b34801561018957600080fd5b50610192610ce0565b60405161019f919061161c565b60405180910390f35b3480156101b457600080fd5b506101bd610d04565b6040516101ca9190611646565b60405180910390f35b3480156101df57600080fd5b506101e8610d0a565b6040516101f5919061171f565b60405180910390f35b34801561020a57600080fd5b50610225600480360381019061022091906115e0565b610df0565b005b34801561023357600080fd5b5061024e60048036038101906102499190611741565b61108d565b005b34801561025c57600080fd5b50610277600480360381019061027291906113a4565b61117f565b005b600360009054906101000a900473ffffffffffffffffffffffffffffffffffffffff1673ffffffffffffffffffffffffffffffffffffffff1663ecded204336040518263ffffffff1660e01b81526004016102d4919061161c565b602060405180830381865afa1580156102f1573d6000803e3d6000fd5b505050506040513d601f19601f820116820180604052508101906103159190611809565b61031e57600080fd5b6000600260009054906101000a900473ffffffffffffffffffffffffffffffffffffffff1673ffffffffffffffffffffffffffffffffffffffff16636c230eef856040518263ffffffff1660e01b815260040161037b9190611646565b602060405180830381865afa158015610398573d6000803e3d6000fd5b505050506040513d601f19601f820116820180604052508101906103bc919061184b565b90503481146103ca57600080fd5b6000600460009054906101000a900473ffffffffffffffffffffffffffffffffffffffff1673ffffffffffffffffffffffffffffffffffffffff1663a46d8ac7338787876040518563ffffffff1660e01b815260040161042d9493929190611878565b6020604051808303816000875af115801561044c573d6000803e3d6000fd5b505050506040513d601f19601f82011682018060405250810190610470919061184b565b9050600360009054906101000a900473ffffffffffffffffffffffffffffffffffffffff1673ffffffffffffffffffffffffffffffffffffffff1663e597ef1233836040518363ffffffff1660e01b81526004016104cf9291906118bd565b600060405180830381600087803b1580156104e957600080fd5b505af11580156104fd573d6000803e3d6000fd5b50505050600260009054906101000a900473ffffffffffffffffffffffffffffffffffffffff1673ffffffffffffffffffffffffffffffffffffffff16630a6b2a25866040518263ffffffff1660e01b815260040161055c9190611646565b600060405180830381600087803b15801561057657600080fd5b505af115801561058a573d6000803e3d6000fd5b505050505050505050565b600360009054906101000a900473ffffffffffffffffffffffffffffffffffffffff1673ffffffffffffffffffffffffffffffffffffffff1663ecded204336040518263ffffffff1660e01b81526004016105f0919061161c565b602060405180830381865afa15801561060d573d6000803e3d6000fd5b505050506040513d601f19601f820116820180604052508101906106319190611809565b61063a57600080fd5b600460009054906101000a900473ffffffffffffffffffffffffffffffffffffffff1673ffffffffffffffffffffffffffffffffffffffff1663ef228c9283836040518363ffffffff1660e01b81526004016106979291906118e6565b600060405180830381600087803b1580156106b157600080fd5b505af11580156106c5573d6000803e3d6000fd5b505050505050565b600360009054906101000a900473ffffffffffffffffffffffffffffffffffffffff1673ffffffffffffffffffffffffffffffffffffffff16634420e486336040518263ffffffff1660e01b8152600401610728919061161c565b600060405180830381600087803b15801561074257600080fd5b505af1158015610756573d6000803e3d6000fd5b50505050565b60016020528060005260406000206000915054906101000a900460ff1681565b3373ffffffffffffffffffffffffffffffffffffffff1660008054906101000a900473ffffffffffffffffffffffffffffffffffffffff1673ffffffffffffffffffffffffffffffffffffffff16146107d457600080fd5b600260009054906101000a900473ffffffffffffffffffffffffffffffffffffffff1673ffffffffffffffffffffffffffffffffffffffff1663e71448a9856040518263ffffffff1660e01b815260040161082f9190611997565b602060405180830381865afa15801561084c573d6000803e3d6000fd5b505050506040513d601f19601f820116820180604052508101906108709190611809565b1561087a57600080fd5b600260009054906101000a900473ffffffffffffffffffffffffffffffffffffffff1673ffffffffffffffffffffffffffffffffffffffff1663687564ae858585856040518563ffffffff1660e01b81526004016108db94939291906119b9565b600060405180830381600087803b1580156108f557600080fd5b505af1158015610909573d6000803e3d6000fd5b5050505050505050565b600360009054906101000a900473ffffffffffffffffffffffffffffffffffffffff1673ffffffffffffffffffffffffffffffffffffffff1663ecded204336040518263ffffffff1660e01b815260040161096e919061161c565b602060405180830381865afa15801561098b573d6000803e3d6000fd5b505050506040513d601f19601f820116820180604052508101906109af9190611809565b6109b857600080fd5b6000600460009054906101000a900473ffffffffffffffffffffffffffffffffffffffff1673ffffffffffffffffffffffffffffffffffffffff16631ce06944836040518263ffffffff1660e01b8152600401610a159190611646565b602060405180830381865afa158015610a32573d6000803e3d6000fd5b505050506040513d601f19601f82011682018060405250810190610a56919061184b565b90506000600460009054906101000a900473ffffffffffffffffffffffffffffffffffffffff1673ffffffffffffffffffffffffffffffffffffffff166398af1f07846040518263ffffffff1660e01b8152600401610ab59190611646565b602060405180830381865afa158015610ad2573d6000803e3d6000fd5b505050506040513d601f19601f82011682018060405250810190610af69190611809565b90506000600360009054906101000a900473ffffffffffffffffffffffffffffffffffffffff1673ffffffffffffffffffffffffffffffffffffffff166319aa98a3336040518263ffffffff1660e01b8152600401610b55919061161c565b602060405180830381865afa158015610b72573d6000803e3d6000fd5b505050506040513d601f19601f82011682018060405250810190610b96919061184b565b905081610ba257600080fd5b6006548110610bb057600080fd5b348314610bbc57600080fd5b600460009054906101000a900473ffffffffffffffffffffffffffffffffffffffff1673ffffffffffffffffffffffffffffffffffffffff1663ab21a2be85336040518363ffffffff1660e01b8152600401610c19929190611a0c565b600060405180830381600087803b158015610c3357600080fd5b505af1158015610c47573d6000803e3d6000fd5b50505050600360009054906101000a900473ffffffffffffffffffffffffffffffffffffffff1673ffffffffffffffffffffffffffffffffffffffff1663a5a9c51833866040518363ffffffff1660e01b8152600401610ca89291906118bd565b600060405180830381600087803b158015610cc257600080fd5b505af1158015610cd6573d6000803e3d6000fd5b5050505050505050565b60008054906101000a900473ffffffffffffffffffffffffffffffffffffffff1681565b60065481565b60603373ffffffffffffffffffffffffffffffffffffffff1660008054906101000a900473ffffffffffffffffffffffffffffffffffffffff1673ffffffffffffffffffffffffffffffffffffffff1614610d6457600080fd5b6005805480602002602001604051908101604052809291908181526020018280548015610de657602002820191906000526020600020905b8160009054906101000a900473ffffffffffffffffffffffffffffffffffffffff1673ffffffffffffffffffffffffffffffffffffffff1681526020019060010190808311610d9c575b5050505050905090565b600360009054906101000a900473ffffffffffffffffffffffffffffffffffffffff1673ffffffffffffffffffffffffffffffffffffffff1663ecded204336040518263ffffffff1660e01b8152600401610e4b919061161c565b602060405180830381865afa158015610e68573d6000803e3d6000fd5b505050506040513d601f19601f82011682018060405250810190610e8c9190611809565b610e9557600080fd5b6000600460009054906101000a900473ffffffffffffffffffffffffffffffffffffffff1673ffffffffffffffffffffffffffffffffffffffff16633b2f7118836040518263ffffffff1660e01b8152600401610ef29190611646565b602060405180830381865afa158015610f0f573d6000803e3d6000fd5b505050506040513d601f19601f82011682018060405250810190610f339190611a4a565b90503373ffffffffffffffffffffffffffffffffffffffff168173ffffffffffffffffffffffffffffffffffffffff1614610f6d57600080fd5b600460009054906101000a900473ffffffffffffffffffffffffffffffffffffffff1673ffffffffffffffffffffffffffffffffffffffff1663ca5140c9836040518263ffffffff1660e01b8152600401610fc89190611646565b600060405180830381600087803b158015610fe257600080fd5b505af1158015610ff6573d6000803e3d6000fd5b50505050600360009054906101000a900473ffffffffffffffffffffffffffffffffffffffff1673ffffffffffffffffffffffffffffffffffffffff16634a09db4f33846040518363ffffffff1660e01b81526004016110579291906118bd565b600060405180830381600087803b15801561107157600080fd5b505af1158015611085573d6000803e3d6000fd5b505050505050565b600160003373ffffffffffffffffffffffffffffffffffffffff1673ffffffffffffffffffffffffffffffffffffffff16815260200190815260200160002060009054906101000a900460ff166110e357600080fd5b600260009054906101000a900473ffffffffffffffffffffffffffffffffffffffff1673ffffffffffffffffffffffffffffffffffffffff1663d2c07e2086868686866040518663ffffffff1660e01b8152600401611146959493929190611a77565b600060405180830381600087803b15801561116057600080fd5b505af1158015611174573d6000803e3d6000fd5b505050505050505050565b3373ffffffffffffffffffffffffffffffffffffffff1660008054906101000a900473ffffffffffffffffffffffffffffffffffffffff1673ffffffffffffffffffffffffffffffffffffffff16146111d757600080fd5b60018060008373ffffffffffffffffffffffffffffffffffffffff1673ffffffffffffffffffffffffffffffffffffffff16815260200190815260200160002060006101000a81548160ff02191690831515021790555050565b6000604051905090565b600080fd5b600080fd5b6000819050919050565b61125881611245565b811461126357600080fd5b50565b6000813590506112758161124f565b92915050565b6000806000606084860312156112945761129361123b565b5b60006112a286828701611266565b93505060206112b386828701611266565b92505060406112c486828701611266565b9150509250925092565b60008115159050919050565b6112e3816112ce565b81146112ee57600080fd5b50565b600081359050611300816112da565b92915050565b6000806040838503121561131d5761131c61123b565b5b600061132b85828601611266565b925050602061133c858286016112f1565b9150509250929050565b600073ffffffffffffffffffffffffffffffffffffffff82169050919050565b600061137182611346565b9050919050565b61138181611366565b811461138c57600080fd5b50565b60008135905061139e81611378565b92915050565b6000602082840312156113ba576113b961123b565b5b60006113c88482850161138f565b91505092915050565b6113da816112ce565b82525050565b60006020820190506113f560008301846113d1565b92915050565b600080fd5b600080fd5b6000601f19601f8301169050919050565b7f4e487b7100000000000000000000000000000000000000000000000000000000600052604160045260246000fd5b61144e82611405565b810181811067ffffffffffffffff8211171561146d5761146c611416565b5b80604052505050565b6000611480611231565b905061148c8282611445565b919050565b600067ffffffffffffffff8211156114ac576114ab611416565b5b6114b582611405565b9050602081019050919050565b82818337600083830152505050565b60006114e46114df84611491565b611476565b905082815260208101848484011115611500576114ff611400565b5b61150b8482856114c2565b509392505050565b600082601f830112611528576115276113fb565b5b81356115388482602086016114d1565b91505092915050565b6000806000806080858703121561155b5761155a61123b565b5b600085013567ffffffffffffffff81111561157957611578611240565b5b61158587828801611513565b945050602085013567ffffffffffffffff8111156115a6576115a5611240565b5b6115b287828801611513565b93505060406115c387828801611266565b92505060606115d48782880161138f565b91505092959194509250565b6000602082840312156115f6576115f561123b565b5b600061160484828501611266565b91505092915050565b61161681611366565b82525050565b6000602082019050611631600083018461160d565b92915050565b61164081611245565b82525050565b600060208201905061165b6000830184611637565b92915050565b600081519050919050565b600082825260208201905092915050565b6000819050602082019050919050565b61169681611366565b82525050565b60006116a8838361168d565b60208301905092915050565b6000602082019050919050565b60006116cc82611661565b6116d6818561166c565b93506116e18361167d565b8060005b838110156117125781516116f9888261169c565b9750611704836116b4565b9250506001810190506116e5565b5085935050505092915050565b6000602082019050818103600083015261173981846116c1565b905092915050565b600080600080600060a0868803121561175d5761175c61123b565b5b600061176b88828901611266565b955050602086013567ffffffffffffffff81111561178c5761178b611240565b5b61179888828901611513565b945050604086013567ffffffffffffffff8111156117b9576117b8611240565b5b6117c588828901611513565b93505060606117d688828901611266565b92505060806117e78882890161138f565b9150509295509295909350565b600081519050611803816112da565b92915050565b60006020828403121561181f5761181e61123b565b5b600061182d848285016117f4565b91505092915050565b6000815190506118458161124f565b92915050565b6000602082840312156118615761186061123b565b5b600061186f84828501611836565b91505092915050565b600060808201905061188d600083018761160d565b61189a6020830186611637565b6118a76040830185611637565b6118b46060830184611637565b95945050505050565b60006040820190506118d2600083018561160d565b6118df6020830184611637565b9392505050565b60006040820190506118fb6000830185611637565b61190860208301846113d1565b9392505050565b600081519050919050565b600082825260208201905092915050565b60005b8381101561194957808201518184015260208101905061192e565b83811115611958576000848401525b50505050565b60006119698261190f565b611973818561191a565b935061198381856020860161192b565b61198c81611405565b840191505092915050565b600060208201905081810360008301526119b1818461195e565b905092915050565b600060808201905081810360008301526119d3818761195e565b905081810360208301526119e7818661195e565b90506119f66040830185611637565b611a03606083018461160d565b95945050505050565b6000604082019050611a216000830185611637565b611a2e602083018461160d565b9392505050565b600081519050611a4481611378565b92915050565b600060208284031215611a6057611a5f61123b565b5b6000611a6e84828501611a35565b91505092915050565b600060a082019050611a8c6000830188611637565b8181036020830152611a9e818761195e565b90508181036040830152611ab2818661195e565b9050611ac16060830185611637565b611ace608083018461160d565b969550505050505056fea2646970667358221220d857e059c2772834fbe559ec6755d9e7ede63c12e6d7bc98cb6acbb93cceb8ab64736f6c634300080a003360806040523480156200001157600080fd5b50604051620012e4380380620012e4833981810160405281019062000037919062000129565b806000806101000a81548173ffffffffffffffffffffffffffffffffffffffff021916908373ffffffffffffffffffffffffffffffffffffffff16021790555033600160006101000a81548173ffffffffffffffffffffffffffffffffffffffff021916908373ffffffffffffffffffffffffffffffffffffffff160217905550506200015b565b600080fd5b600073ffffffffffffffffffffffffffffffffffffffff82169050919050565b6000620000f182620000c4565b9050919050565b6200010381620000e4565b81146200010f57600080fd5b50565b6000815190506200012381620000f8565b92915050565b600060208284031215620001425762000141620000bf565b5b6000620001528482850162000112565b91505092915050565b611179806200016b6000396000f3fe608060405234801561001057600080fd5b506004361061009e5760003560e01c806398fbce791161006657806398fbce7914610159578063d2c07e201461018d578063d9ff0cf1146101a9578063e71448a9146101dd578063f76ebe1c1461020d5761009e565b80630a6b2a25146100a35780631cb71ed5146100bf578063687564ae146100ef5780636c230eef1461010b5780638da5cb5b1461013b575b600080fd5b6100bd60048036038101906100b89190610b38565b61022b565b005b6100d960048036038101906100d49190610cab565b610260565b6040516100e69190610d0f565b60405180910390f35b61010960048036038101906101049190610d88565b610296565b005b61012560048036038101906101209190610b38565b6103e3565b6040516101329190610e36565b60405180910390f35b6101436105a1565b6040516101509190610e60565b60405180910390f35b610173600480360381019061016e9190610b38565b6105c5565b604051610184959493929190610f03565b60405180910390f35b6101a760048036038101906101a29190610f64565b6107a9565b005b6101c360048036038101906101be9190610b38565b6108aa565b6040516101d4959493929190610f03565b60405180910390f35b6101f760048036038101906101f29190610cab565b610a10565b6040516102049190610d0f565b60405180910390f35b610215610a45565b6040516102229190610e36565b60405180910390f35b600060036000838152602001908152602001600020905080600301600081548092919061025790611046565b91905055505050565b6004818051602081018201805184825260208301602085012081835280955050505050506000915054906101000a900460ff1681565b3373ffffffffffffffffffffffffffffffffffffffff16600160009054906101000a900473ffffffffffffffffffffffffffffffffffffffff1673ffffffffffffffffffffffffffffffffffffffff16146102f057600080fd5b6000600360006002600081548092919061030990611046565b919050558152602001908152602001600020905084816000019080519060200190610335929190610a4b565b508381600101908051906020019061034e929190610a4b565b5082816002018190555060008160030181905550818160040160006101000a81548173ffffffffffffffffffffffffffffffffffffffff021916908373ffffffffffffffffffffffffffffffffffffffff16021790555060016004866040516103b791906110cb565b908152602001604051809103902060006101000a81548160ff0219169083151502179055505050505050565b600080600360008481526020019081526020016000206040518060a001604052908160008201805461041490611111565b80601f016020809104026020016040519081016040528092919081815260200182805461044090611111565b801561048d5780601f106104625761010080835404028352916020019161048d565b820191906000526020600020905b81548152906001019060200180831161047057829003601f168201915b505050505081526020016001820180546104a690611111565b80601f01602080910402602001604051908101604052809291908181526020018280546104d290611111565b801561051f5780601f106104f45761010080835404028352916020019161051f565b820191906000526020600020905b81548152906001019060200180831161050257829003601f168201915b5050505050815260200160028201548152602001600382015481526020016004820160009054906101000a900473ffffffffffffffffffffffffffffffffffffffff1673ffffffffffffffffffffffffffffffffffffffff1673ffffffffffffffffffffffffffffffffffffffff168152505090508060400151915050919050565b60008054906101000a900473ffffffffffffffffffffffffffffffffffffffff1681565b606080600080600080600360008881526020019081526020016000206040518060a00160405290816000820180546105fc90611111565b80601f016020809104026020016040519081016040528092919081815260200182805461062890611111565b80156106755780601f1061064a57610100808354040283529160200191610675565b820191906000526020600020905b81548152906001019060200180831161065857829003601f168201915b5050505050815260200160018201805461068e90611111565b80601f01602080910402602001604051908101604052809291908181526020018280546106ba90611111565b80156107075780601f106106dc57610100808354040283529160200191610707565b820191906000526020600020905b8154815290600101906020018083116106ea57829003601f168201915b5050505050815260200160028201548152602001600382015481526020016004820160009054906101000a900473ffffffffffffffffffffffffffffffffffffffff1673ffffffffffffffffffffffffffffffffffffffff1673ffffffffffffffffffffffffffffffffffffffff1681525050905080600001518160200151826040015183606001518460800151955095509550955095505091939590929450565b3373ffffffffffffffffffffffffffffffffffffffff16600160009054906101000a900473ffffffffffffffffffffffffffffffffffffffff1673ffffffffffffffffffffffffffffffffffffffff161461080357600080fd5b600060036000878152602001908152602001600020905084816000019080519060200190610832929190610a4b565b508381600101908051906020019061084b929190610a4b565b5082816002018190555060008160030181905550818160040160006101000a81548173ffffffffffffffffffffffffffffffffffffffff021916908373ffffffffffffffffffffffffffffffffffffffff160217905550505050505050565b60036020528060005260406000206000915090508060000180546108cd90611111565b80601f01602080910402602001604051908101604052809291908181526020018280546108f990611111565b80156109465780601f1061091b57610100808354040283529160200191610946565b820191906000526020600020905b81548152906001019060200180831161092957829003601f168201915b50505050509080600101805461095b90611111565b80601f016020809104026020016040519081016040528092919081815260200182805461098790611111565b80156109d45780601f106109a9576101008083540402835291602001916109d4565b820191906000526020600020905b8154815290600101906020018083116109b757829003601f168201915b5050505050908060020154908060030154908060040160009054906101000a900473ffffffffffffffffffffffffffffffffffffffff16905085565b6000600482604051610a2291906110cb565b908152602001604051809103902060009054906101000a900460ff169050919050565b60025481565b828054610a5790611111565b90600052602060002090601f016020900481019282610a795760008555610ac0565b82601f10610a9257805160ff1916838001178555610ac0565b82800160010185558215610ac0579182015b82811115610abf578251825591602001919060010190610aa4565b5b509050610acd9190610ad1565b5090565b5b80821115610aea576000816000905550600101610ad2565b5090565b6000604051905090565b600080fd5b600080fd5b6000819050919050565b610b1581610b02565b8114610b2057600080fd5b50565b600081359050610b3281610b0c565b92915050565b600060208284031215610b4e57610b4d610af8565b5b6000610b5c84828501610b23565b91505092915050565b600080fd5b600080fd5b6000601f19601f8301169050919050565b7f4e487b7100000000000000000000000000000000000000000000000000000000600052604160045260246000fd5b610bb882610b6f565b810181811067ffffffffffffffff82111715610bd757610bd6610b80565b5b80604052505050565b6000610bea610aee565b9050610bf68282610baf565b919050565b600067ffffffffffffffff821115610c1657610c15610b80565b5b610c1f82610b6f565b9050602081019050919050565b82818337600083830152505050565b6000610c4e610c4984610bfb565b610be0565b905082815260208101848484011115610c6a57610c69610b6a565b5b610c75848285610c2c565b509392505050565b600082601f830112610c9257610c91610b65565b5b8135610ca2848260208601610c3b565b91505092915050565b600060208284031215610cc157610cc0610af8565b5b600082013567ffffffffffffffff811115610cdf57610cde610afd565b5b610ceb84828501610c7d565b91505092915050565b60008115159050919050565b610d0981610cf4565b82525050565b6000602082019050610d246000830184610d00565b92915050565b600073ffffffffffffffffffffffffffffffffffffffff82169050919050565b6000610d5582610d2a565b9050919050565b610d6581610d4a565b8114610d7057600080fd5b50565b600081359050610d8281610d5c565b92915050565b60008060008060808587031215610da257610da1610af8565b5b600085013567ffffffffffffffff811115610dc057610dbf610afd565b5b610dcc87828801610c7d565b945050602085013567ffffffffffffffff811115610ded57610dec610afd565b5b610df987828801610c7d565b9350506040610e0a87828801610b23565b9250506060610e1b87828801610d73565b91505092959194509250565b610e3081610b02565b82525050565b6000602082019050610e4b6000830184610e27565b92915050565b610e5a81610d4a565b82525050565b6000602082019050610e756000830184610e51565b92915050565b600081519050919050565b600082825260208201905092915050565b60005b83811015610eb5578082015181840152602081019050610e9a565b83811115610ec4576000848401525b50505050565b6000610ed582610e7b565b610edf8185610e86565b9350610eef818560208601610e97565b610ef881610b6f565b840191505092915050565b600060a0820190508181036000830152610f1d8188610eca565b90508181036020830152610f318187610eca565b9050610f406040830186610e27565b610f4d6060830185610e27565b610f5a6080830184610e51565b9695505050505050565b600080600080600060a08688031215610f8057610f7f610af8565b5b6000610f8e88828901610b23565b955050602086013567ffffffffffffffff811115610faf57610fae610afd565b5b610fbb88828901610c7d565b945050604086013567ffffffffffffffff811115610fdc57610fdb610afd565b5b610fe888828901610c7d565b9350506060610ff988828901610b23565b925050608061100a88828901610d73565b9150509295509295909350565b7f4e487b7100000000000000000000000000000000000000000000000000000000600052601160045260246000fd5b600061105182610b02565b91507fffffffffffffffffffffffffffffffffffffffffffffffffffffffffffffffff82141561108457611083611017565b5b600182019050919050565b600081905092915050565b60006110a582610e7b565b6110af818561108f565b93506110bf818560208601610e97565b80840191505092915050565b60006110d7828461109a565b915081905092915050565b7f4e487b7100000000000000000000000000000000000000000000000000000000600052602260045260246000fd5b6000600282049050600182168061112957607f821691505b6020821081141561113d5761113c6110e2565b5b5091905056fea264697066735822122060397ee0588d0b47d7a31ecf97f70613583ee1a3f04694a366944803c34d196464736f6c634300080a0033608060405234801561001057600080fd5b5060405162001055380380620010558339818101604052810190610034919061011e565b806000806101000a81548173ffffffffffffffffffffffffffffffffffffffff021916908373ffffffffffffffffffffffffffffffffffffffff16021790555033600160006101000a81548173ffffffffffffffffffffffffffffffffffffffff021916908373ffffffffffffffffffffffffffffffffffffffff1602179055505061014b565b600080fd5b600073ffffffffffffffffffffffffffffffffffffffff82169050919050565b60006100eb826100c0565b9050919050565b6100fb816100e0565b811461010657600080fd5b50565b600081519050610118816100f2565b92915050565b600060208284031215610134576101336100bb565b5b600061014284828501610109565b91505092915050565b610efa806200015b6000396000f3fe608060405234801561001057600080fd5b50600436106100f55760003560e01c80637c4dd96d11610097578063e3e1f00111610066578063e3e1f0011461029a578063e597ef12146102b8578063ecded204146102d4578063f3c95c6014610304576100f5565b80637c4dd96d146102105780638da5cb5b1461022c578063a5a9c5181461024a578063a87430ba14610266576100f5565b80634172fb89116100d35780634172fb891461018a5780634420e486146101ba5780634a09db4f146101d65780636350280e146101f2576100f5565b806319aa98a3146100fa578063371e91ca1461012a5780633cbdec031461015a575b600080fd5b610114600480360381019061010f9190610ca2565b610334565b6040516101219190610ce8565b60405180910390f35b610144600480360381019061013f9190610d2f565b610385565b6040516101519190610d8a565b60405180910390f35b610174600480360381019061016f9190610d2f565b6103ed565b6040516101819190610d8a565b60405180910390f35b6101a4600480360381019061019f9190610ca2565b61041c565b6040516101b19190610d8a565b60405180910390f35b6101d460048036038101906101cf9190610ca2565b610472565b005b6101f060048036038101906101eb9190610d2f565b610623565b005b6101fa61079e565b6040516102079190610ce8565b60405180910390f35b61022a60048036038101906102259190610ca2565b6107a4565b005b610234610859565b6040516102419190610db4565b60405180910390f35b610264600480360381019061025f9190610d2f565b61087d565b005b610280600480360381019061027b9190610ca2565b610a12565b604051610291959493929190610dcf565b60405180910390f35b6102a2610a68565b6040516102af9190610ce8565b60405180910390f35b6102d260048036038101906102cd9190610d2f565b610a6e565b005b6102ee60048036038101906102e99190610ca2565b610bc9565b6040516102fb9190610d8a565b60405180910390f35b61031e60048036038101906103199190610ca2565b610c1f565b60405161032b9190610d8a565b60405180910390f35b600080600360008473ffffffffffffffffffffffffffffffffffffffff1673ffffffffffffffffffffffffffffffffffffffff16815260200190815260200160002090508060020154915050919050565b6000600560008473ffffffffffffffffffffffffffffffffffffffff1673ffffffffffffffffffffffffffffffffffffffff168152602001908152602001600020600083815260200190815260200160002060009054906101000a900460ff16905092915050565b60056020528160005260406000206020528060005260406000206000915091509054906101000a900460ff1681565b6000600760008373ffffffffffffffffffffffffffffffffffffffff1673ffffffffffffffffffffffffffffffffffffffff16815260200190815260200160002060009054906101000a900460ff169050919050565b3373ffffffffffffffffffffffffffffffffffffffff16600160009054906101000a900473ffffffffffffffffffffffffffffffffffffffff1673ffffffffffffffffffffffffffffffffffffffff16146104cc57600080fd5b600460008273ffffffffffffffffffffffffffffffffffffffff1673ffffffffffffffffffffffffffffffffffffffff16815260200190815260200160002060009054906101000a900460ff161561052357600080fd5b6001600460008373ffffffffffffffffffffffffffffffffffffffff1673ffffffffffffffffffffffffffffffffffffffff16815260200190815260200160002060006101000a81548160ff0219169083151502179055506000600360008373ffffffffffffffffffffffffffffffffffffffff1673ffffffffffffffffffffffffffffffffffffffff1681526020019081526020016000209050818160000160006101000a81548173ffffffffffffffffffffffffffffffffffffffff021916908373ffffffffffffffffffffffffffffffffffffffff1602179055506000816002018190555060008160030181905550600081600501819055505050565b3373ffffffffffffffffffffffffffffffffffffffff16600160009054906101000a900473ffffffffffffffffffffffffffffffffffffffff1673ffffffffffffffffffffffffffffffffffffffff161461067d57600080fd5b600460008373ffffffffffffffffffffffffffffffffffffffff1673ffffffffffffffffffffffffffffffffffffffff16815260200190815260200160002060009054906101000a900460ff166106d357600080fd5b6000600360008473ffffffffffffffffffffffffffffffffffffffff1673ffffffffffffffffffffffffffffffffffffffff16815260200190815260200160002090506000600560008573ffffffffffffffffffffffffffffffffffffffff1673ffffffffffffffffffffffffffffffffffffffff168152602001908152602001600020600084815260200190815260200160002060006101000a81548160ff02191690831515021790555080600201600081548092919061079490610e51565b9190505550505050565b60065481565b3373ffffffffffffffffffffffffffffffffffffffff16600160009054906101000a900473ffffffffffffffffffffffffffffffffffffffff1673ffffffffffffffffffffffffffffffffffffffff16146107fe57600080fd5b6001600760008373ffffffffffffffffffffffffffffffffffffffff1673ffffffffffffffffffffffffffffffffffffffff16815260200190815260200160002060006101000a81548160ff02191690831515021790555050565b60008054906101000a900473ffffffffffffffffffffffffffffffffffffffff1681565b3373ffffffffffffffffffffffffffffffffffffffff16600160009054906101000a900473ffffffffffffffffffffffffffffffffffffffff1673ffffffffffffffffffffffffffffffffffffffff16146108d757600080fd5b600460008373ffffffffffffffffffffffffffffffffffffffff1673ffffffffffffffffffffffffffffffffffffffff16815260200190815260200160002060009054906101000a900460ff1661092d57600080fd5b6000600360008473ffffffffffffffffffffffffffffffffffffffff1673ffffffffffffffffffffffffffffffffffffffff16815260200190815260200160002090506001600560008573ffffffffffffffffffffffffffffffffffffffff1673ffffffffffffffffffffffffffffffffffffffff168152602001908152602001600020600084815260200190815260200160002060006101000a81548160ff0219169083151502179055508060020160008154809291906109ee90610e7b565b9190505550806003016000815480929190610a0890610e7b565b9190505550505050565b60036020528060005260406000206000915090508060000160009054906101000a900473ffffffffffffffffffffffffffffffffffffffff16908060010154908060020154908060030154908060050154905085565b60025481565b3373ffffffffffffffffffffffffffffffffffffffff16600160009054906101000a900473ffffffffffffffffffffffffffffffffffffffff1673ffffffffffffffffffffffffffffffffffffffff1614610ac857600080fd5b600460008373ffffffffffffffffffffffffffffffffffffffff1673ffffffffffffffffffffffffffffffffffffffff16815260200190815260200160002060009054906101000a900460ff16610b1e57600080fd5b6000600360008473ffffffffffffffffffffffffffffffffffffffff1673ffffffffffffffffffffffffffffffffffffffff168152602001908152602001600020905080600601829080600181540180825580915050600190039060005260206000200160009091909190915055806005015481600701600084815260200190815260200160002081905550806005016000815480929190610bbf90610e7b565b9190505550505050565b6000600460008373ffffffffffffffffffffffffffffffffffffffff1673ffffffffffffffffffffffffffffffffffffffff16815260200190815260200160002060009054906101000a900460ff169050919050565b60046020528060005260406000206000915054906101000a900460ff1681565b600080fd5b600073ffffffffffffffffffffffffffffffffffffffff82169050919050565b6000610c6f82610c44565b9050919050565b610c7f81610c64565b8114610c8a57600080fd5b50565b600081359050610c9c81610c76565b92915050565b600060208284031215610cb857610cb7610c3f565b5b6000610cc684828501610c8d565b91505092915050565b6000819050919050565b610ce281610ccf565b82525050565b6000602082019050610cfd6000830184610cd9565b92915050565b610d0c81610ccf565b8114610d1757600080fd5b50565b600081359050610d2981610d03565b92915050565b60008060408385031215610d4657610d45610c3f565b5b6000610d5485828601610c8d565b9250506020610d6585828601610d1a565b9150509250929050565b60008115159050919050565b610d8481610d6f565b82525050565b6000602082019050610d9f6000830184610d7b565b92915050565b610dae81610c64565b82525050565b6000602082019050610dc96000830184610da5565b92915050565b600060a082019050610de46000830188610da5565b610df16020830187610cd9565b610dfe6040830186610cd9565b610e0b6060830185610cd9565b610e186080830184610cd9565b9695505050505050565b7f4e487b7100000000000000000000000000000000000000000000000000000000600052601160045260246000fd5b6000610e5c82610ccf565b91506000821415610e7057610e6f610e22565b5b600182039050919050565b6000610e8682610ccf565b91507fffffffffffffffffffffffffffffffffffffffffffffffffffffffffffffffff821415610eb957610eb8610e22565b5b60018201905091905056fea26469706673582212202e8c5e61787c07045dc0e969e3ab27634ec2d54e98d9ccc787d8e8af5a5f046764736f6c634300080a003360806040523480156200001157600080fd5b506040516200117a3803806200117a833981810160405281019062000037919062000129565b806000806101000a81548173ffffffffffffffffffffffffffffffffffffffff021916908373ffffffffffffffffffffffffffffffffffffffff16021790555033600160006101000a81548173ffffffffffffffffffffffffffffffffffffffff021916908373ffffffffffffffffffffffffffffffffffffffff160217905550506200015b565b600080fd5b600073ffffffffffffffffffffffffffffffffffffffff82169050919050565b6000620000f182620000c4565b9050919050565b6200010381620000e4565b81146200010f57600080fd5b50565b6000815190506200012381620000f8565b92915050565b600060208284031215620001425762000141620000bf565b5b6000620001528482850162000112565b91505092915050565b61100f806200016b6000396000f3fe608060405234801561001057600080fd5b50600436106100cf5760003560e01c8063921c47b11161008c578063ab21a2be11610066578063ab21a2be14610252578063ca5140c91461026e578063ef228c921461028a578063f6b4dfb4146102a6576100cf565b8063921c47b1146101d457806398af1f07146101f2578063a46d8ac714610222576100cf565b80631ce06944146100d45780633b2f71181461010457806367615ad51461013457806383b65cb4146101645780638da5cb5b1461019a5780638dbbfbde146101b8575b600080fd5b6100ee60048036038101906100e99190610c77565b6102c4565b6040516100fb9190610cb3565b60405180910390f35b61011e60048036038101906101199190610c77565b6103e3565b60405161012b9190610d0f565b60405180910390f35b61014e60048036038101906101499190610c77565b610502565b60405161015b9190610cb3565b60405180910390f35b61017e60048036038101906101799190610c77565b610621565b6040516101919796959493929190610d45565b60405180910390f35b6101a26106b0565b6040516101af9190610d0f565b60405180910390f35b6101d260048036038101906101cd9190610db4565b6106d4565b005b6101dc61076d565b6040516101e99190610cb3565b60405180910390f35b61020c60048036038101906102079190610c77565b610773565b6040516102199190610e07565b60405180910390f35b61023c60048036038101906102379190610e4e565b610892565b6040516102499190610cb3565b60405180910390f35b61026c60048036038101906102679190610eb5565b6109f8565b005b61028860048036038101906102839190610c77565b610ac1565b005b6102a4600480360381019061029f9190610f21565b610b74565b005b6102ae610c16565b6040516102bb9190610d0f565b60405180910390f35b600080600360008481526020019081526020016000206040518060e0016040529081600082015481526020016001820160009054906101000a900473ffffffffffffffffffffffffffffffffffffffff1673ffffffffffffffffffffffffffffffffffffffff1673ffffffffffffffffffffffffffffffffffffffff168152602001600282015481526020016003820160009054906101000a900473ffffffffffffffffffffffffffffffffffffffff1673ffffffffffffffffffffffffffffffffffffffff1673ffffffffffffffffffffffffffffffffffffffff1681526020016003820160149054906101000a900460ff161515151581526020016004820154815260200160058201548152505090508060c00151915050919050565b600080600360008481526020019081526020016000206040518060e0016040529081600082015481526020016001820160009054906101000a900473ffffffffffffffffffffffffffffffffffffffff1673ffffffffffffffffffffffffffffffffffffffff1673ffffffffffffffffffffffffffffffffffffffff168152602001600282015481526020016003820160009054906101000a900473ffffffffffffffffffffffffffffffffffffffff1673ffffffffffffffffffffffffffffffffffffffff1673ffffffffffffffffffffffffffffffffffffffff1681526020016003820160149054906101000a900460ff161515151581526020016004820154815260200160058201548152505090508060600151915050919050565b600080600360008481526020019081526020016000206040518060e0016040529081600082015481526020016001820160009054906101000a900473ffffffffffffffffffffffffffffffffffffffff1673ffffffffffffffffffffffffffffffffffffffff1673ffffffffffffffffffffffffffffffffffffffff168152602001600282015481526020016003820160009054906101000a900473ffffffffffffffffffffffffffffffffffffffff1673ffffffffffffffffffffffffffffffffffffffff1673ffffffffffffffffffffffffffffffffffffffff1681526020016003820160149054906101000a900460ff161515151581526020016004820154815260200160058201548152505090508060400151915050919050565b60036020528060005260406000206000915090508060000154908060010160009054906101000a900473ffffffffffffffffffffffffffffffffffffffff16908060020154908060030160009054906101000a900473ffffffffffffffffffffffffffffffffffffffff16908060030160149054906101000a900460ff16908060040154908060050154905087565b60008054906101000a900473ffffffffffffffffffffffffffffffffffffffff1681565b8260025481106106e357600080fd5b3373ffffffffffffffffffffffffffffffffffffffff16600160009054906101000a900473ffffffffffffffffffffffffffffffffffffffff1673ffffffffffffffffffffffffffffffffffffffff161461073d57600080fd5b60006003600086815260200190815260200160002090508381600401819055508281600501819055505050505050565b60025481565b600080600360008481526020019081526020016000206040518060e0016040529081600082015481526020016001820160009054906101000a900473ffffffffffffffffffffffffffffffffffffffff1673ffffffffffffffffffffffffffffffffffffffff1673ffffffffffffffffffffffffffffffffffffffff168152602001600282015481526020016003820160009054906101000a900473ffffffffffffffffffffffffffffffffffffffff1673ffffffffffffffffffffffffffffffffffffffff1673ffffffffffffffffffffffffffffffffffffffff1681526020016003820160149054906101000a900460ff161515151581526020016004820154815260200160058201548152505090508060800151915050919050565b60003373ffffffffffffffffffffffffffffffffffffffff16600160009054906101000a900473ffffffffffffffffffffffffffffffffffffffff1673ffffffffffffffffffffffffffffffffffffffff16146108ee57600080fd5b600060036000600254815260200190815260200160002090506002548160000181905550848160020181905550858160010160006101000a81548173ffffffffffffffffffffffffffffffffffffffff021916908373ffffffffffffffffffffffffffffffffffffffff160217905550858160030160006101000a81548173ffffffffffffffffffffffffffffffffffffffff021916908373ffffffffffffffffffffffffffffffffffffffff16021790555060008160030160146101000a81548160ff021916908315150217905550838160040181905550828160050181905550600260008154809291906109e390610f90565b91905055508060000154915050949350505050565b816002548110610a0757600080fd5b3373ffffffffffffffffffffffffffffffffffffffff16600160009054906101000a900473ffffffffffffffffffffffffffffffffffffffff1673ffffffffffffffffffffffffffffffffffffffff1614610a6157600080fd5b6000600360008581526020019081526020016000209050828160030160006101000a81548173ffffffffffffffffffffffffffffffffffffffff021916908373ffffffffffffffffffffffffffffffffffffffff16021790555050505050565b806002548110610ad057600080fd5b3373ffffffffffffffffffffffffffffffffffffffff16600160009054906101000a900473ffffffffffffffffffffffffffffffffffffffff1673ffffffffffffffffffffffffffffffffffffffff1614610b2a57600080fd5b6000600360008481526020019081526020016000209050610b6f838260010160009054906101000a900473ffffffffffffffffffffffffffffffffffffffff166109f8565b505050565b816002548110610b8357600080fd5b3373ffffffffffffffffffffffffffffffffffffffff16600160009054906101000a900473ffffffffffffffffffffffffffffffffffffffff1673ffffffffffffffffffffffffffffffffffffffff1614610bdd57600080fd5b6000600360008581526020019081526020016000209050828160030160146101000a81548160ff02191690831515021790555050505050565b600160009054906101000a900473ffffffffffffffffffffffffffffffffffffffff1681565b600080fd5b6000819050919050565b610c5481610c41565b8114610c5f57600080fd5b50565b600081359050610c7181610c4b565b92915050565b600060208284031215610c8d57610c8c610c3c565b5b6000610c9b84828501610c62565b91505092915050565b610cad81610c41565b82525050565b6000602082019050610cc86000830184610ca4565b92915050565b600073ffffffffffffffffffffffffffffffffffffffff82169050919050565b6000610cf982610cce565b9050919050565b610d0981610cee565b82525050565b6000602082019050610d246000830184610d00565b92915050565b60008115159050919050565b610d3f81610d2a565b82525050565b600060e082019050610d5a600083018a610ca4565b610d676020830189610d00565b610d746040830188610ca4565b610d816060830187610d00565b610d8e6080830186610d36565b610d9b60a0830185610ca4565b610da860c0830184610ca4565b98975050505050505050565b600080600060608486031215610dcd57610dcc610c3c565b5b6000610ddb86828701610c62565b9350506020610dec86828701610c62565b9250506040610dfd86828701610c62565b9150509250925092565b6000602082019050610e1c6000830184610d36565b92915050565b610e2b81610cee565b8114610e3657600080fd5b50565b600081359050610e4881610e22565b92915050565b60008060008060808587031215610e6857610e67610c3c565b5b6000610e7687828801610e39565b9450506020610e8787828801610c62565b9350506040610e9887828801610c62565b9250506060610ea987828801610c62565b91505092959194509250565b60008060408385031215610ecc57610ecb610c3c565b5b6000610eda85828601610c62565b9250506020610eeb85828601610e39565b9150509250929050565b610efe81610d2a565b8114610f0957600080fd5b50565b600081359050610f1b81610ef5565b92915050565b60008060408385031215610f3857610f37610c3c565b5b6000610f4685828601610c62565b9250506020610f5785828601610f0c565b9150509250929050565b7f4e487b7100000000000000000000000000000000000000000000000000000000600052601160045260246000fd5b6000610f9b82610c41565b91507fffffffffffffffffffffffffffffffffffffffffffffffffffffffffffffffff821415610fce57610fcd610f61565b5b60018201905091905056fea264697066735822122094bb1268f636dc54664e57f48315f20feecf31084178cb0666b50a280f4b2b8464736f6c634300080a0033a26469706673582212202655ad745542a79adf85ad26b232fb82ada93a523d5c0ff499e5280a9b15277464736f6c634300080a0033","opcodes":"PUSH1 0x80 PUSH1 0x40 MSTORE CALLVALUE DUP1 ISZERO PUSH2 0x10 JUMPI PUSH1 0x0 DUP1 REVERT JUMPDEST POP PUSH2 0x59EE DUP1 PUSH2 0x20 PUSH1 0x0 CODECOPY PUSH1 0x0 RETURN INVALID PUSH1 0x80 PUSH1 0x40 MSTORE CALLVALUE DUP1 ISZERO PUSH3 0x11 JUMPI PUSH1 0x0 DUP1 REVERT JUMPDEST POP PUSH1 0x4 CALLDATASIZE LT PUSH3 0x46 JUMPI PUSH1 0x0 CALLDATALOAD PUSH1 0xE0 SHR DUP1 PUSH4 0x73B1BE38 EQ PUSH3 0x4B JUMPI DUP1 PUSH4 0x98FE1356 EQ PUSH3 0x6B JUMPI DUP1 PUSH4 0xF4B2B9B0 EQ PUSH3 0xA1 JUMPI JUMPDEST PUSH1 0x0 DUP1 REVERT JUMPDEST PUSH3 0x69 PUSH1 0x4 DUP1 CALLDATASIZE SUB DUP2 ADD SWAP1 PUSH3 0x63 SWAP2 SWAP1 PUSH3 0x287 JUMP JUMPDEST PUSH3 0xC3 JUMP JUMPDEST STOP JUMPDEST PUSH3 0x89 PUSH1 0x4 DUP1 CALLDATASIZE SUB DUP2 ADD SWAP1 PUSH3 0x83 SWAP2 SWAP1 PUSH3 0x287 JUMP JUMPDEST PUSH3 0x169 JUMP JUMPDEST PUSH1 0x40 MLOAD PUSH3 0x98 SWAP2 SWAP1 PUSH3 0x2FE JUMP JUMPDEST PUSH1 0x40 MLOAD DUP1 SWAP2 SUB SWAP1 RETURN JUMPDEST PUSH3 0xAB PUSH3 0x1A9 JUMP JUMPDEST PUSH1 0x40 MLOAD PUSH3 0xBA SWAP2 SWAP1 PUSH3 0x3E9 JUMP JUMPDEST PUSH1 0x40 MLOAD DUP1 SWAP2 SUB SWAP1 RETURN JUMPDEST PUSH1 0x0 DUP2 CALLER PUSH1 0x40 MLOAD PUSH3 0xD5 SWAP1 PUSH3 0x239 JUMP JUMPDEST PUSH3 0xE2 SWAP3 SWAP2 SWAP1 PUSH3 0x41E JUMP JUMPDEST PUSH1 0x40 MLOAD DUP1 SWAP2 SUB SWAP1 PUSH1 0x0 CREATE DUP1 ISZERO DUP1 ISZERO PUSH3 0xFF JUMPI RETURNDATASIZE PUSH1 0x0 DUP1 RETURNDATACOPY RETURNDATASIZE PUSH1 0x0 REVERT JUMPDEST POP SWAP1 POP PUSH1 0x0 DUP2 SWAP1 DUP1 PUSH1 0x1 DUP2 SLOAD ADD DUP1 DUP3 SSTORE DUP1 SWAP2 POP POP PUSH1 0x1 SWAP1 SUB SWAP1 PUSH1 0x0 MSTORE PUSH1 0x20 PUSH1 0x0 KECCAK256 ADD PUSH1 0x0 SWAP1 SWAP2 SWAP1 SWAP2 SWAP1 SWAP2 PUSH2 0x100 EXP DUP2 SLOAD DUP2 PUSH20 0xFFFFFFFFFFFFFFFFFFFFFFFFFFFFFFFFFFFFFFFF MUL NOT AND SWAP1 DUP4 PUSH20 0xFFFFFFFFFFFFFFFFFFFFFFFFFFFFFFFFFFFFFFFF AND MUL OR SWAP1 SSTORE POP POP POP JUMP JUMPDEST PUSH1 0x0 DUP2 DUP2 SLOAD DUP2 LT PUSH3 0x17A JUMPI PUSH1 0x0 DUP1 REVERT JUMPDEST SWAP1 PUSH1 0x0 MSTORE PUSH1 0x20 PUSH1 0x0 KECCAK256 ADD PUSH1 0x0 SWAP2 POP SLOAD SWAP1 PUSH2 0x100 EXP SWAP1 DIV PUSH20 0xFFFFFFFFFFFFFFFFFFFFFFFFFFFFFFFFFFFFFFFF AND DUP2 JUMP JUMPDEST PUSH1 0x60 PUSH1 0x0 DUP1 SLOAD DUP1 PUSH1 0x20 MUL PUSH1 0x20 ADD PUSH1 0x40 MLOAD SWAP1 DUP2 ADD PUSH1 0x40 MSTORE DUP1 SWAP3 SWAP2 SWAP1 DUP2 DUP2 MSTORE PUSH1 0x20 ADD DUP3 DUP1 SLOAD DUP1 ISZERO PUSH3 0x22F JUMPI PUSH1 0x20 MUL DUP3 ADD SWAP2 SWAP1 PUSH1 0x0 MSTORE PUSH1 0x20 PUSH1 0x0 KECCAK256 SWAP1 JUMPDEST DUP2 PUSH1 0x0 SWAP1 SLOAD SWAP1 PUSH2 0x100 EXP SWAP1 DIV PUSH20 0xFFFFFFFFFFFFFFFFFFFFFFFFFFFFFFFFFFFFFFFF AND PUSH20 0xFFFFFFFFFFFFFFFFFFFFFFFFFFFFFFFFFFFFFFFF AND DUP2 MSTORE PUSH1 0x20 ADD SWAP1 PUSH1 0x1 ADD SWAP1 DUP1 DUP4 GT PUSH3 0x1E4 JUMPI JUMPDEST POP POP POP POP POP SWAP1 POP SWAP1 JUMP JUMPDEST PUSH2 0x556D DUP1 PUSH3 0x44C DUP4 CODECOPY ADD SWAP1 JUMP JUMPDEST PUSH1 0x0 DUP1 REVERT JUMPDEST PUSH1 0x0 DUP2 SWAP1 POP SWAP2 SWAP1 POP JUMP JUMPDEST PUSH3 0x261 DUP2 PUSH3 0x24C JUMP JUMPDEST DUP2 EQ PUSH3 0x26D JUMPI PUSH1 0x0 DUP1 REVERT JUMPDEST POP JUMP JUMPDEST PUSH1 0x0 DUP2 CALLDATALOAD SWAP1 POP PUSH3 0x281 DUP2 PUSH3 0x256 JUMP JUMPDEST SWAP3 SWAP2 POP POP JUMP JUMPDEST PUSH1 0x0 PUSH1 0x20 DUP3 DUP5 SUB SLT ISZERO PUSH3 0x2A0 JUMPI PUSH3 0x29F PUSH3 0x247 JUMP JUMPDEST JUMPDEST PUSH1 0x0 PUSH3 0x2B0 DUP5 DUP3 DUP6 ADD PUSH3 0x270 JUMP JUMPDEST SWAP2 POP POP SWAP3 SWAP2 POP POP JUMP JUMPDEST PUSH1 0x0 PUSH20 0xFFFFFFFFFFFFFFFFFFFFFFFFFFFFFFFFFFFFFFFF DUP3 AND SWAP1 POP SWAP2 SWAP1 POP JUMP JUMPDEST PUSH1 0x0 PUSH3 0x2E6 DUP3 PUSH3 0x2B9 JUMP JUMPDEST SWAP1 POP SWAP2 SWAP1 POP JUMP JUMPDEST PUSH3 0x2F8 DUP2 PUSH3 0x2D9 JUMP JUMPDEST DUP3 MSTORE POP POP JUMP JUMPDEST PUSH1 0x0 PUSH1 0x20 DUP3 ADD SWAP1 POP PUSH3 0x315 PUSH1 0x0 DUP4 ADD DUP5 PUSH3 0x2ED JUMP JUMPDEST SWAP3 SWAP2 POP POP JUMP JUMPDEST PUSH1 0x0 DUP2 MLOAD SWAP1 POP SWAP2 SWAP1 POP JUMP JUMPDEST PUSH1 0x0 DUP3 DUP3 MSTORE PUSH1 0x20 DUP3 ADD SWAP1 POP SWAP3 SWAP2 POP POP JUMP JUMPDEST PUSH1 0x0 DUP2 SWAP1 POP PUSH1 0x20 DUP3 ADD SWAP1 POP SWAP2 SWAP1 POP JUMP JUMPDEST PUSH3 0x352 DUP2 PUSH3 0x2D9 JUMP JUMPDEST DUP3 MSTORE POP POP JUMP JUMPDEST PUSH1 0x0 PUSH3 0x366 DUP4 DUP4 PUSH3 0x347 JUMP JUMPDEST PUSH1 0x20 DUP4 ADD SWAP1 POP SWAP3 SWAP2 POP POP JUMP JUMPDEST PUSH1 0x0 PUSH1 0x20 DUP3 ADD SWAP1 POP SWAP2 SWAP1 POP JUMP JUMPDEST PUSH1 0x0 PUSH3 0x38C DUP3 PUSH3 0x31B JUMP JUMPDEST PUSH3 0x398 DUP2 DUP6 PUSH3 0x326 JUMP JUMPDEST SWAP4 POP PUSH3 0x3A5 DUP4 PUSH3 0x337 JUMP JUMPDEST DUP1 PUSH1 0x0 JUMPDEST DUP4 DUP2 LT ISZERO PUSH3 0x3DC JUMPI DUP2 MLOAD PUSH3 0x3C0 DUP9 DUP3 PUSH3 0x358 JUMP JUMPDEST SWAP8 POP PUSH3 0x3CD DUP4 PUSH3 0x372 JUMP JUMPDEST SWAP3 POP POP PUSH1 0x1 DUP2 ADD SWAP1 POP PUSH3 0x3A9 JUMP JUMPDEST POP DUP6 SWAP4 POP POP POP POP SWAP3 SWAP2 POP POP JUMP JUMPDEST PUSH1 0x0 PUSH1 0x20 DUP3 ADD SWAP1 POP DUP2 DUP2 SUB PUSH1 0x0 DUP4 ADD MSTORE PUSH3 0x405 DUP2 DUP5 PUSH3 0x37F JUMP JUMPDEST SWAP1 POP SWAP3 SWAP2 POP POP JUMP JUMPDEST PUSH3 0x418 DUP2 PUSH3 0x24C JUMP JUMPDEST DUP3 MSTORE POP POP JUMP JUMPDEST PUSH1 0x0 PUSH1 0x40 DUP3 ADD SWAP1 POP PUSH3 0x435 PUSH1 0x0 DUP4 ADD DUP6 PUSH3 0x40D JUMP JUMPDEST PUSH3 0x444 PUSH1 0x20 DUP4 ADD DUP5 PUSH3 0x2ED JUMP JUMPDEST SWAP4 SWAP3 POP POP POP JUMP INVALID PUSH1 0x80 PUSH1 0x40 MSTORE CALLVALUE DUP1 ISZERO PUSH3 0x11 JUMPI PUSH1 0x0 DUP1 REVERT JUMPDEST POP PUSH1 0x40 MLOAD PUSH3 0x556D CODESIZE SUB DUP1 PUSH3 0x556D DUP4 CODECOPY DUP2 DUP2 ADD PUSH1 0x40 MSTORE DUP2 ADD SWAP1 PUSH3 0x37 SWAP2 SWAP1 PUSH3 0x527 JUMP JUMPDEST DUP1 PUSH1 0x0 DUP1 PUSH2 0x100 EXP DUP2 SLOAD DUP2 PUSH20 0xFFFFFFFFFFFFFFFFFFFFFFFFFFFFFFFFFFFFFFFF MUL NOT AND SWAP1 DUP4 PUSH20 0xFFFFFFFFFFFFFFFFFFFFFFFFFFFFFFFFFFFFFFFF AND MUL OR SWAP1 SSTORE POP PUSH1 0x1 DUP1 PUSH1 0x0 DUP1 PUSH1 0x0 SWAP1 SLOAD SWAP1 PUSH2 0x100 EXP SWAP1 DIV PUSH20 0xFFFFFFFFFFFFFFFFFFFFFFFFFFFFFFFFFFFFFFFF AND PUSH20 0xFFFFFFFFFFFFFFFFFFFFFFFFFFFFFFFFFFFFFFFF AND PUSH20 0xFFFFFFFFFFFFFFFFFFFFFFFFFFFFFFFFFFFFFFFF AND DUP2 MSTORE PUSH1 0x20 ADD SWAP1 DUP2 MSTORE PUSH1 0x20 ADD PUSH1 0x0 KECCAK256 PUSH1 0x0 PUSH2 0x100 EXP DUP2 SLOAD DUP2 PUSH1 0xFF MUL NOT AND SWAP1 DUP4 ISZERO ISZERO MUL OR SWAP1 SSTORE POP PUSH1 0x0 DUP1 SLOAD SWAP1 PUSH2 0x100 EXP SWAP1 DIV PUSH20 0xFFFFFFFFFFFFFFFFFFFFFFFFFFFFFFFFFFFFFFFF AND PUSH1 0x40 MLOAD PUSH3 0x11E SWAP1 PUSH3 0x458 JUMP JUMPDEST PUSH3 0x12A SWAP2 SWAP1 PUSH3 0x57F JUMP JUMPDEST PUSH1 0x40 MLOAD DUP1 SWAP2 SUB SWAP1 PUSH1 0x0 CREATE DUP1 ISZERO DUP1 ISZERO PUSH3 0x147 JUMPI RETURNDATASIZE PUSH1 0x0 DUP1 RETURNDATACOPY RETURNDATASIZE PUSH1 0x0 REVERT JUMPDEST POP PUSH1 0x2 PUSH1 0x0 PUSH2 0x100 EXP DUP2 SLOAD DUP2 PUSH20 0xFFFFFFFFFFFFFFFFFFFFFFFFFFFFFFFFFFFFFFFF MUL NOT AND SWAP1 DUP4 PUSH20 0xFFFFFFFFFFFFFFFFFFFFFFFFFFFFFFFFFFFFFFFF AND MUL OR SWAP1 SSTORE POP PUSH1 0x0 DUP1 SLOAD SWAP1 PUSH2 0x100 EXP SWAP1 DIV PUSH20 0xFFFFFFFFFFFFFFFFFFFFFFFFFFFFFFFFFFFFFFFF AND PUSH1 0x40 MLOAD PUSH3 0x1B7 SWAP1 PUSH3 0x466 JUMP JUMPDEST PUSH3 0x1C3 SWAP2 SWAP1 PUSH3 0x57F JUMP JUMPDEST PUSH1 0x40 MLOAD DUP1 SWAP2 SUB SWAP1 PUSH1 0x0 CREATE DUP1 ISZERO DUP1 ISZERO PUSH3 0x1E0 JUMPI RETURNDATASIZE PUSH1 0x0 DUP1 RETURNDATACOPY RETURNDATASIZE PUSH1 0x0 REVERT JUMPDEST POP PUSH1 0x3 PUSH1 0x0 PUSH2 0x100 EXP DUP2 SLOAD DUP2 PUSH20 0xFFFFFFFFFFFFFFFFFFFFFFFFFFFFFFFFFFFFFFFF MUL NOT AND SWAP1 DUP4 PUSH20 0xFFFFFFFFFFFFFFFFFFFFFFFFFFFFFFFFFFFFFFFF AND MUL OR SWAP1 SSTORE POP PUSH1 0x0 DUP1 SLOAD SWAP1 PUSH2 0x100 EXP SWAP1 DIV PUSH20 0xFFFFFFFFFFFFFFFFFFFFFFFFFFFFFFFFFFFFFFFF AND PUSH1 0x40 MLOAD PUSH3 0x250 SWAP1 PUSH3 0x474 JUMP JUMPDEST PUSH3 0x25C SWAP2 SWAP1 PUSH3 0x57F JUMP JUMPDEST PUSH1 0x40 MLOAD DUP1 SWAP2 SUB SWAP1 PUSH1 0x0 CREATE DUP1 ISZERO DUP1 ISZERO PUSH3 0x279 JUMPI RETURNDATASIZE PUSH1 0x0 DUP1 RETURNDATACOPY RETURNDATASIZE PUSH1 0x0 REVERT JUMPDEST POP PUSH1 0x4 PUSH1 0x0 PUSH2 0x100 EXP DUP2 SLOAD DUP2 PUSH20 0xFFFFFFFFFFFFFFFFFFFFFFFFFFFFFFFFFFFFFFFF MUL NOT AND SWAP1 DUP4 PUSH20 0xFFFFFFFFFFFFFFFFFFFFFFFFFFFFFFFFFFFFFFFF AND MUL OR SWAP1 SSTORE POP PUSH1 0x5 PUSH1 0x2 PUSH1 0x0 SWAP1 SLOAD SWAP1 PUSH2 0x100 EXP SWAP1 DIV PUSH20 0xFFFFFFFFFFFFFFFFFFFFFFFFFFFFFFFFFFFFFFFF AND SWAP1 DUP1 PUSH1 0x1 DUP2 SLOAD ADD DUP1 DUP3 SSTORE DUP1 SWAP2 POP POP PUSH1 0x1 SWAP1 SUB SWAP1 PUSH1 0x0 MSTORE PUSH1 0x20 PUSH1 0x0 KECCAK256 ADD PUSH1 0x0 SWAP1 SWAP2 SWAP1 SWAP2 SWAP1 SWAP2 PUSH2 0x100 EXP DUP2 SLOAD DUP2 PUSH20 0xFFFFFFFFFFFFFFFFFFFFFFFFFFFFFFFFFFFFFFFF MUL NOT AND SWAP1 DUP4 PUSH20 0xFFFFFFFFFFFFFFFFFFFFFFFFFFFFFFFFFFFFFFFF AND MUL OR SWAP1 SSTORE POP PUSH1 0x5 PUSH1 0x3 PUSH1 0x0 SWAP1 SLOAD SWAP1 PUSH2 0x100 EXP SWAP1 DIV PUSH20 0xFFFFFFFFFFFFFFFFFFFFFFFFFFFFFFFFFFFFFFFF AND SWAP1 DUP1 PUSH1 0x1 DUP2 SLOAD ADD DUP1 DUP3 SSTORE DUP1 SWAP2 POP POP PUSH1 0x1 SWAP1 SUB SWAP1 PUSH1 0x0 MSTORE PUSH1 0x20 PUSH1 0x0 KECCAK256 ADD PUSH1 0x0 SWAP1 SWAP2 SWAP1 SWAP2 SWAP1 SWAP2 PUSH2 0x100 EXP DUP2 SLOAD DUP2 PUSH20 0xFFFFFFFFFFFFFFFFFFFFFFFFFFFFFFFFFFFFFFFF MUL NOT AND SWAP1 DUP4 PUSH20 0xFFFFFFFFFFFFFFFFFFFFFFFFFFFFFFFFFFFFFFFF AND MUL OR SWAP1 SSTORE POP PUSH1 0x5 PUSH1 0x4 PUSH1 0x0 SWAP1 SLOAD SWAP1 PUSH2 0x100 EXP SWAP1 DIV PUSH20 0xFFFFFFFFFFFFFFFFFFFFFFFFFFFFFFFFFFFFFFFF AND SWAP1 DUP1 PUSH1 0x1 DUP2 SLOAD ADD DUP1 DUP3 SSTORE DUP1 SWAP2 POP POP PUSH1 0x1 SWAP1 SUB SWAP1 PUSH1 0x0 MSTORE PUSH1 0x20 PUSH1 0x0 KECCAK256 ADD PUSH1 0x0 SWAP1 SWAP2 SWAP1 SWAP2 SWAP1 SWAP2 PUSH2 0x100 EXP DUP2 SLOAD DUP2 PUSH20 0xFFFFFFFFFFFFFFFFFFFFFFFFFFFFFFFFFFFFFFFF MUL NOT AND SWAP1 DUP4 PUSH20 0xFFFFFFFFFFFFFFFFFFFFFFFFFFFFFFFFFFFFFFFF AND MUL OR SWAP1 SSTORE POP DUP2 PUSH1 0x6 DUP2 SWAP1 SSTORE POP POP POP PUSH3 0x59C JUMP JUMPDEST PUSH2 0x12E4 DUP1 PUSH3 0x20BA DUP4 CODECOPY ADD SWAP1 JUMP JUMPDEST PUSH2 0x1055 DUP1 PUSH3 0x339E DUP4 CODECOPY ADD SWAP1 JUMP JUMPDEST PUSH2 0x117A DUP1 PUSH3 0x43F3 DUP4 CODECOPY ADD SWAP1 JUMP JUMPDEST PUSH1 0x0 DUP1 REVERT JUMPDEST PUSH1 0x0 DUP2 SWAP1 POP SWAP2 SWAP1 POP JUMP JUMPDEST PUSH3 0x49C DUP2 PUSH3 0x487 JUMP JUMPDEST DUP2 EQ PUSH3 0x4A8 JUMPI PUSH1 0x0 DUP1 REVERT JUMPDEST POP JUMP JUMPDEST PUSH1 0x0 DUP2 MLOAD SWAP1 POP PUSH3 0x4BC DUP2 PUSH3 0x491 JUMP JUMPDEST SWAP3 SWAP2 POP POP JUMP JUMPDEST PUSH1 0x0 PUSH20 0xFFFFFFFFFFFFFFFFFFFFFFFFFFFFFFFFFFFFFFFF DUP3 AND SWAP1 POP SWAP2 SWAP1 POP JUMP JUMPDEST PUSH1 0x0 PUSH3 0x4EF DUP3 PUSH3 0x4C2 JUMP JUMPDEST SWAP1 POP SWAP2 SWAP1 POP JUMP JUMPDEST PUSH3 0x501 DUP2 PUSH3 0x4E2 JUMP JUMPDEST DUP2 EQ PUSH3 0x50D JUMPI PUSH1 0x0 DUP1 REVERT JUMPDEST POP JUMP JUMPDEST PUSH1 0x0 DUP2 MLOAD SWAP1 POP PUSH3 0x521 DUP2 PUSH3 0x4F6 JUMP JUMPDEST SWAP3 SWAP2 POP POP JUMP JUMPDEST PUSH1 0x0 DUP1 PUSH1 0x40 DUP4 DUP6 SUB SLT ISZERO PUSH3 0x541 JUMPI PUSH3 0x540 PUSH3 0x482 JUMP JUMPDEST JUMPDEST PUSH1 0x0 PUSH3 0x551 DUP6 DUP3 DUP7 ADD PUSH3 0x4AB JUMP JUMPDEST SWAP3 POP POP PUSH1 0x20 PUSH3 0x564 DUP6 DUP3 DUP7 ADD PUSH3 0x510 JUMP JUMPDEST SWAP2 POP POP SWAP3 POP SWAP3 SWAP1 POP JUMP JUMPDEST PUSH3 0x579 DUP2 PUSH3 0x4E2 JUMP JUMPDEST DUP3 MSTORE POP POP JUMP JUMPDEST PUSH1 0x0 PUSH1 0x20 DUP3 ADD SWAP1 POP PUSH3 0x596 PUSH1 0x0 DUP4 ADD DUP5 PUSH3 0x56E JUMP JUMPDEST SWAP3 SWAP2 POP POP JUMP JUMPDEST PUSH2 0x1B0E DUP1 PUSH3 0x5AC PUSH1 0x0 CODECOPY PUSH1 0x0 RETURN INVALID PUSH1 0x80 PUSH1 0x40 MSTORE PUSH1 0x4 CALLDATASIZE LT PUSH2 0xA7 JUMPI PUSH1 0x0 CALLDATALOAD PUSH1 0xE0 SHR DUP1 PUSH4 0x8DA5CB5B GT PUSH2 0x64 JUMPI DUP1 PUSH4 0x8DA5CB5B EQ PUSH2 0x17D JUMPI DUP1 PUSH4 0x90272DFF EQ PUSH2 0x1A8 JUMPI DUP1 PUSH4 0xC162D7DA EQ PUSH2 0x1D3 JUMPI DUP1 PUSH4 0xCA5140C9 EQ PUSH2 0x1FE JUMPI DUP1 PUSH4 0xD2C07E20 EQ PUSH2 0x227 JUMPI DUP1 PUSH4 0xFE69494B EQ PUSH2 0x250 JUMPI PUSH2 0xA7 JUMP JUMPDEST DUP1 PUSH4 0x1973DB46 EQ PUSH2 0xAC JUMPI DUP1 PUSH4 0x1A8C3EEC EQ PUSH2 0xC8 JUMPI DUP1 PUSH4 0x1AA3A008 EQ PUSH2 0xE4 JUMPI DUP1 PUSH4 0x4F83158A EQ PUSH2 0xFB JUMPI DUP1 PUSH4 0x687564AE EQ PUSH2 0x138 JUMPI DUP1 PUSH4 0x7E490A9E EQ PUSH2 0x161 JUMPI JUMPDEST PUSH1 0x0 DUP1 REVERT JUMPDEST PUSH2 0xC6 PUSH1 0x4 DUP1 CALLDATASIZE SUB DUP2 ADD SWAP1 PUSH2 0xC1 SWAP2 SWAP1 PUSH2 0x127B JUMP JUMPDEST PUSH2 0x279 JUMP JUMPDEST STOP JUMPDEST PUSH2 0xE2 PUSH1 0x4 DUP1 CALLDATASIZE SUB DUP2 ADD SWAP1 PUSH2 0xDD SWAP2 SWAP1 PUSH2 0x1306 JUMP JUMPDEST PUSH2 0x595 JUMP JUMPDEST STOP JUMPDEST CALLVALUE DUP1 ISZERO PUSH2 0xF0 JUMPI PUSH1 0x0 DUP1 REVERT JUMPDEST POP PUSH2 0xF9 PUSH2 0x6CD JUMP JUMPDEST STOP JUMPDEST CALLVALUE DUP1 ISZERO PUSH2 0x107 JUMPI PUSH1 0x0 DUP1 REVERT JUMPDEST POP PUSH2 0x122 PUSH1 0x4 DUP1 CALLDATASIZE SUB DUP2 ADD SWAP1 PUSH2 0x11D SWAP2 SWAP1 PUSH2 0x13A4 JUMP JUMPDEST PUSH2 0x75C JUMP JUMPDEST PUSH1 0x40 MLOAD PUSH2 0x12F SWAP2 SWAP1 PUSH2 0x13E0 JUMP JUMPDEST PUSH1 0x40 MLOAD DUP1 SWAP2 SUB SWAP1 RETURN JUMPDEST CALLVALUE DUP1 ISZERO PUSH2 0x144 JUMPI PUSH1 0x0 DUP1 REVERT JUMPDEST POP PUSH2 0x15F PUSH1 0x4 DUP1 CALLDATASIZE SUB DUP2 ADD SWAP1 PUSH2 0x15A SWAP2 SWAP1 PUSH2 0x1541 JUMP JUMPDEST PUSH2 0x77C JUMP JUMPDEST STOP JUMPDEST PUSH2 0x17B PUSH1 0x4 DUP1 CALLDATASIZE SUB DUP2 ADD SWAP1 PUSH2 0x176 SWAP2 SWAP1 PUSH2 0x15E0 JUMP JUMPDEST PUSH2 0x913 JUMP JUMPDEST STOP JUMPDEST CALLVALUE DUP1 ISZERO PUSH2 0x189 JUMPI PUSH1 0x0 DUP1 REVERT JUMPDEST POP PUSH2 0x192 PUSH2 0xCE0 JUMP JUMPDEST PUSH1 0x40 MLOAD PUSH2 0x19F SWAP2 SWAP1 PUSH2 0x161C JUMP JUMPDEST PUSH1 0x40 MLOAD DUP1 SWAP2 SUB SWAP1 RETURN JUMPDEST CALLVALUE DUP1 ISZERO PUSH2 0x1B4 JUMPI PUSH1 0x0 DUP1 REVERT JUMPDEST POP PUSH2 0x1BD PUSH2 0xD04 JUMP JUMPDEST PUSH1 0x40 MLOAD PUSH2 0x1CA SWAP2 SWAP1 PUSH2 0x1646 JUMP JUMPDEST PUSH1 0x40 MLOAD DUP1 SWAP2 SUB SWAP1 RETURN JUMPDEST CALLVALUE DUP1 ISZERO PUSH2 0x1DF JUMPI PUSH1 0x0 DUP1 REVERT JUMPDEST POP PUSH2 0x1E8 PUSH2 0xD0A JUMP JUMPDEST PUSH1 0x40 MLOAD PUSH2 0x1F5 SWAP2 SWAP1 PUSH2 0x171F JUMP JUMPDEST PUSH1 0x40 MLOAD DUP1 SWAP2 SUB SWAP1 RETURN JUMPDEST CALLVALUE DUP1 ISZERO PUSH2 0x20A JUMPI PUSH1 0x0 DUP1 REVERT JUMPDEST POP PUSH2 0x225 PUSH1 0x4 DUP1 CALLDATASIZE SUB DUP2 ADD SWAP1 PUSH2 0x220 SWAP2 SWAP1 PUSH2 0x15E0 JUMP JUMPDEST PUSH2 0xDF0 JUMP JUMPDEST STOP JUMPDEST CALLVALUE DUP1 ISZERO PUSH2 0x233 JUMPI PUSH1 0x0 DUP1 REVERT JUMPDEST POP PUSH2 0x24E PUSH1 0x4 DUP1 CALLDATASIZE SUB DUP2 ADD SWAP1 PUSH2 0x249 SWAP2 SWAP1 PUSH2 0x1741 JUMP JUMPDEST PUSH2 0x108D JUMP JUMPDEST STOP JUMPDEST CALLVALUE DUP1 ISZERO PUSH2 0x25C JUMPI PUSH1 0x0 DUP1 REVERT JUMPDEST POP PUSH2 0x277 PUSH1 0x4 DUP1 CALLDATASIZE SUB DUP2 ADD SWAP1 PUSH2 0x272 SWAP2 SWAP1 PUSH2 0x13A4 JUMP JUMPDEST PUSH2 0x117F JUMP JUMPDEST STOP JUMPDEST PUSH1 0x3 PUSH1 0x0 SWAP1 SLOAD SWAP1 PUSH2 0x100 EXP SWAP1 DIV PUSH20 0xFFFFFFFFFFFFFFFFFFFFFFFFFFFFFFFFFFFFFFFF AND PUSH20 0xFFFFFFFFFFFFFFFFFFFFFFFFFFFFFFFFFFFFFFFF AND PUSH4 0xECDED204 CALLER PUSH1 0x40 MLOAD DUP3 PUSH4 0xFFFFFFFF AND PUSH1 0xE0 SHL DUP2 MSTORE PUSH1 0x4 ADD PUSH2 0x2D4 SWAP2 SWAP1 PUSH2 0x161C JUMP JUMPDEST PUSH1 0x20 PUSH1 0x40 MLOAD DUP1 DUP4 SUB DUP2 DUP7 GAS STATICCALL ISZERO DUP1 ISZERO PUSH2 0x2F1 JUMPI RETURNDATASIZE PUSH1 0x0 DUP1 RETURNDATACOPY RETURNDATASIZE PUSH1 0x0 REVERT JUMPDEST POP POP POP POP PUSH1 0x40 MLOAD RETURNDATASIZE PUSH1 0x1F NOT PUSH1 0x1F DUP3 ADD AND DUP3 ADD DUP1 PUSH1 0x40 MSTORE POP DUP2 ADD SWAP1 PUSH2 0x315 SWAP2 SWAP1 PUSH2 0x1809 JUMP JUMPDEST PUSH2 0x31E JUMPI PUSH1 0x0 DUP1 REVERT JUMPDEST PUSH1 0x0 PUSH1 0x2 PUSH1 0x0 SWAP1 SLOAD SWAP1 PUSH2 0x100 EXP SWAP1 DIV PUSH20 0xFFFFFFFFFFFFFFFFFFFFFFFFFFFFFFFFFFFFFFFF AND PUSH20 0xFFFFFFFFFFFFFFFFFFFFFFFFFFFFFFFFFFFFFFFF AND PUSH4 0x6C230EEF DUP6 PUSH1 0x40 MLOAD DUP3 PUSH4 0xFFFFFFFF AND PUSH1 0xE0 SHL DUP2 MSTORE PUSH1 0x4 ADD PUSH2 0x37B SWAP2 SWAP1 PUSH2 0x1646 JUMP JUMPDEST PUSH1 0x20 PUSH1 0x40 MLOAD DUP1 DUP4 SUB DUP2 DUP7 GAS STATICCALL ISZERO DUP1 ISZERO PUSH2 0x398 JUMPI RETURNDATASIZE PUSH1 0x0 DUP1 RETURNDATACOPY RETURNDATASIZE PUSH1 0x0 REVERT JUMPDEST POP POP POP POP PUSH1 0x40 MLOAD RETURNDATASIZE PUSH1 0x1F NOT PUSH1 0x1F DUP3 ADD AND DUP3 ADD DUP1 PUSH1 0x40 MSTORE POP DUP2 ADD SWAP1 PUSH2 0x3BC SWAP2 SWAP1 PUSH2 0x184B JUMP JUMPDEST SWAP1 POP CALLVALUE DUP2 EQ PUSH2 0x3CA JUMPI PUSH1 0x0 DUP1 REVERT JUMPDEST PUSH1 0x0 PUSH1 0x4 PUSH1 0x0 SWAP1 SLOAD SWAP1 PUSH2 0x100 EXP SWAP1 DIV PUSH20 0xFFFFFFFFFFFFFFFFFFFFFFFFFFFFFFFFFFFFFFFF AND PUSH20 0xFFFFFFFFFFFFFFFFFFFFFFFFFFFFFFFFFFFFFFFF AND PUSH4 0xA46D8AC7 CALLER DUP8 DUP8 DUP8 PUSH1 0x40 MLOAD DUP6 PUSH4 0xFFFFFFFF AND PUSH1 0xE0 SHL DUP2 MSTORE PUSH1 0x4 ADD PUSH2 0x42D SWAP5 SWAP4 SWAP3 SWAP2 SWAP1 PUSH2 0x1878 JUMP JUMPDEST PUSH1 0x20 PUSH1 0x40 MLOAD DUP1 DUP4 SUB DUP2 PUSH1 0x0 DUP8 GAS CALL ISZERO DUP1 ISZERO PUSH2 0x44C JUMPI RETURNDATASIZE PUSH1 0x0 DUP1 RETURNDATACOPY RETURNDATASIZE PUSH1 0x0 REVERT JUMPDEST POP POP POP POP PUSH1 0x40 MLOAD RETURNDATASIZE PUSH1 0x1F NOT PUSH1 0x1F DUP3 ADD AND DUP3 ADD DUP1 PUSH1 0x40 MSTORE POP DUP2 ADD SWAP1 PUSH2 0x470 SWAP2 SWAP1 PUSH2 0x184B JUMP JUMPDEST SWAP1 POP PUSH1 0x3 PUSH1 0x0 SWAP1 SLOAD SWAP1 PUSH2 0x100 EXP SWAP1 DIV PUSH20 0xFFFFFFFFFFFFFFFFFFFFFFFFFFFFFFFFFFFFFFFF AND PUSH20 0xFFFFFFFFFFFFFFFFFFFFFFFFFFFFFFFFFFFFFFFF AND PUSH4 0xE597EF12 CALLER DUP4 PUSH1 0x40 MLOAD DUP4 PUSH4 0xFFFFFFFF AND PUSH1 0xE0 SHL DUP2 MSTORE PUSH1 0x4 ADD PUSH2 0x4CF SWAP3 SWAP2 SWAP1 PUSH2 0x18BD JUMP JUMPDEST PUSH1 0x0 PUSH1 0x40 MLOAD DUP1 DUP4 SUB DUP2 PUSH1 0x0 DUP8 DUP1 EXTCODESIZE ISZERO DUP1 ISZERO PUSH2 0x4E9 JUMPI PUSH1 0x0 DUP1 REVERT JUMPDEST POP GAS CALL ISZERO DUP1 ISZERO PUSH2 0x4FD JUMPI RETURNDATASIZE PUSH1 0x0 DUP1 RETURNDATACOPY RETURNDATASIZE PUSH1 0x0 REVERT JUMPDEST POP POP POP POP PUSH1 0x2 PUSH1 0x0 SWAP1 SLOAD SWAP1 PUSH2 0x100 EXP SWAP1 DIV PUSH20 0xFFFFFFFFFFFFFFFFFFFFFFFFFFFFFFFFFFFFFFFF AND PUSH20 0xFFFFFFFFFFFFFFFFFFFFFFFFFFFFFFFFFFFFFFFF AND PUSH4 0xA6B2A25 DUP7 PUSH1 0x40 MLOAD DUP3 PUSH4 0xFFFFFFFF AND PUSH1 0xE0 SHL DUP2 MSTORE PUSH1 0x4 ADD PUSH2 0x55C SWAP2 SWAP1 PUSH2 0x1646 JUMP JUMPDEST PUSH1 0x0 PUSH1 0x40 MLOAD DUP1 DUP4 SUB DUP2 PUSH1 0x0 DUP8 DUP1 EXTCODESIZE ISZERO DUP1 ISZERO PUSH2 0x576 JUMPI PUSH1 0x0 DUP1 REVERT JUMPDEST POP GAS CALL ISZERO DUP1 ISZERO PUSH2 0x58A JUMPI RETURNDATASIZE PUSH1 0x0 DUP1 RETURNDATACOPY RETURNDATASIZE PUSH1 0x0 REVERT JUMPDEST POP POP POP POP POP POP POP POP POP JUMP JUMPDEST PUSH1 0x3 PUSH1 0x0 SWAP1 SLOAD SWAP1 PUSH2 0x100 EXP SWAP1 DIV PUSH20 0xFFFFFFFFFFFFFFFFFFFFFFFFFFFFFFFFFFFFFFFF AND PUSH20 0xFFFFFFFFFFFFFFFFFFFFFFFFFFFFFFFFFFFFFFFF AND PUSH4 0xECDED204 CALLER PUSH1 0x40 MLOAD DUP3 PUSH4 0xFFFFFFFF AND PUSH1 0xE0 SHL DUP2 MSTORE PUSH1 0x4 ADD PUSH2 0x5F0 SWAP2 SWAP1 PUSH2 0x161C JUMP JUMPDEST PUSH1 0x20 PUSH1 0x40 MLOAD DUP1 DUP4 SUB DUP2 DUP7 GAS STATICCALL ISZERO DUP1 ISZERO PUSH2 0x60D JUMPI RETURNDATASIZE PUSH1 0x0 DUP1 RETURNDATACOPY RETURNDATASIZE PUSH1 0x0 REVERT JUMPDEST POP POP POP POP PUSH1 0x40 MLOAD RETURNDATASIZE PUSH1 0x1F NOT PUSH1 0x1F DUP3 ADD AND DUP3 ADD DUP1 PUSH1 0x40 MSTORE POP DUP2 ADD SWAP1 PUSH2 0x631 SWAP2 SWAP1 PUSH2 0x1809 JUMP JUMPDEST PUSH2 0x63A JUMPI PUSH1 0x0 DUP1 REVERT JUMPDEST PUSH1 0x4 PUSH1 0x0 SWAP1 SLOAD SWAP1 PUSH2 0x100 EXP SWAP1 DIV PUSH20 0xFFFFFFFFFFFFFFFFFFFFFFFFFFFFFFFFFFFFFFFF AND PUSH20 0xFFFFFFFFFFFFFFFFFFFFFFFFFFFFFFFFFFFFFFFF AND PUSH4 0xEF228C92 DUP4 DUP4 PUSH1 0x40 MLOAD DUP4 PUSH4 0xFFFFFFFF AND PUSH1 0xE0 SHL DUP2 MSTORE PUSH1 0x4 ADD PUSH2 0x697 SWAP3 SWAP2 SWAP1 PUSH2 0x18E6 JUMP JUMPDEST PUSH1 0x0 PUSH1 0x40 MLOAD DUP1 DUP4 SUB DUP2 PUSH1 0x0 DUP8 DUP1 EXTCODESIZE ISZERO DUP1 ISZERO PUSH2 0x6B1 JUMPI PUSH1 0x0 DUP1 REVERT JUMPDEST POP GAS CALL ISZERO DUP1 ISZERO PUSH2 0x6C5 JUMPI RETURNDATASIZE PUSH1 0x0 DUP1 RETURNDATACOPY RETURNDATASIZE PUSH1 0x0 REVERT JUMPDEST POP POP POP POP POP POP JUMP JUMPDEST PUSH1 0x3 PUSH1 0x0 SWAP1 SLOAD SWAP1 PUSH2 0x100 EXP SWAP1 DIV PUSH20 0xFFFFFFFFFFFFFFFFFFFFFFFFFFFFFFFFFFFFFFFF AND PUSH20 0xFFFFFFFFFFFFFFFFFFFFFFFFFFFFFFFFFFFFFFFF AND PUSH4 0x4420E486 CALLER PUSH1 0x40 MLOAD DUP3 PUSH4 0xFFFFFFFF AND PUSH1 0xE0 SHL DUP2 MSTORE PUSH1 0x4 ADD PUSH2 0x728 SWAP2 SWAP1 PUSH2 0x161C JUMP JUMPDEST PUSH1 0x0 PUSH1 0x40 MLOAD DUP1 DUP4 SUB DUP2 PUSH1 0x0 DUP8 DUP1 EXTCODESIZE ISZERO DUP1 ISZERO PUSH2 0x742 JUMPI PUSH1 0x0 DUP1 REVERT JUMPDEST POP GAS CALL ISZERO DUP1 ISZERO PUSH2 0x756 JUMPI RETURNDATASIZE PUSH1 0x0 DUP1 RETURNDATACOPY RETURNDATASIZE PUSH1 0x0 REVERT JUMPDEST POP POP POP POP JUMP JUMPDEST PUSH1 0x1 PUSH1 0x20 MSTORE DUP1 PUSH1 0x0 MSTORE PUSH1 0x40 PUSH1 0x0 KECCAK256 PUSH1 0x0 SWAP2 POP SLOAD SWAP1 PUSH2 0x100 EXP SWAP1 DIV PUSH1 0xFF AND DUP2 JUMP JUMPDEST CALLER PUSH20 0xFFFFFFFFFFFFFFFFFFFFFFFFFFFFFFFFFFFFFFFF AND PUSH1 0x0 DUP1 SLOAD SWAP1 PUSH2 0x100 EXP SWAP1 DIV PUSH20 0xFFFFFFFFFFFFFFFFFFFFFFFFFFFFFFFFFFFFFFFF AND PUSH20 0xFFFFFFFFFFFFFFFFFFFFFFFFFFFFFFFFFFFFFFFF AND EQ PUSH2 0x7D4 JUMPI PUSH1 0x0 DUP1 REVERT JUMPDEST PUSH1 0x2 PUSH1 0x0 SWAP1 SLOAD SWAP1 PUSH2 0x100 EXP SWAP1 DIV PUSH20 0xFFFFFFFFFFFFFFFFFFFFFFFFFFFFFFFFFFFFFFFF AND PUSH20 0xFFFFFFFFFFFFFFFFFFFFFFFFFFFFFFFFFFFFFFFF AND PUSH4 0xE71448A9 DUP6 PUSH1 0x40 MLOAD DUP3 PUSH4 0xFFFFFFFF AND PUSH1 0xE0 SHL DUP2 MSTORE PUSH1 0x4 ADD PUSH2 0x82F SWAP2 SWAP1 PUSH2 0x1997 JUMP JUMPDEST PUSH1 0x20 PUSH1 0x40 MLOAD DUP1 DUP4 SUB DUP2 DUP7 GAS STATICCALL ISZERO DUP1 ISZERO PUSH2 0x84C JUMPI RETURNDATASIZE PUSH1 0x0 DUP1 RETURNDATACOPY RETURNDATASIZE PUSH1 0x0 REVERT JUMPDEST POP POP POP POP PUSH1 0x40 MLOAD RETURNDATASIZE PUSH1 0x1F NOT PUSH1 0x1F DUP3 ADD AND DUP3 ADD DUP1 PUSH1 0x40 MSTORE POP DUP2 ADD SWAP1 PUSH2 0x870 SWAP2 SWAP1 PUSH2 0x1809 JUMP JUMPDEST ISZERO PUSH2 0x87A JUMPI PUSH1 0x0 DUP1 REVERT JUMPDEST PUSH1 0x2 PUSH1 0x0 SWAP1 SLOAD SWAP1 PUSH2 0x100 EXP SWAP1 DIV PUSH20 0xFFFFFFFFFFFFFFFFFFFFFFFFFFFFFFFFFFFFFFFF AND PUSH20 0xFFFFFFFFFFFFFFFFFFFFFFFFFFFFFFFFFFFFFFFF AND PUSH4 0x687564AE DUP6 DUP6 DUP6 DUP6 PUSH1 0x40 MLOAD DUP6 PUSH4 0xFFFFFFFF AND PUSH1 0xE0 SHL DUP2 MSTORE PUSH1 0x4 ADD PUSH2 0x8DB SWAP5 SWAP4 SWAP3 SWAP2 SWAP1 PUSH2 0x19B9 JUMP JUMPDEST PUSH1 0x0 PUSH1 0x40 MLOAD DUP1 DUP4 SUB DUP2 PUSH1 0x0 DUP8 DUP1 EXTCODESIZE ISZERO DUP1 ISZERO PUSH2 0x8F5 JUMPI PUSH1 0x0 DUP1 REVERT JUMPDEST POP GAS CALL ISZERO DUP1 ISZERO PUSH2 0x909 JUMPI RETURNDATASIZE PUSH1 0x0 DUP1 RETURNDATACOPY RETURNDATASIZE PUSH1 0x0 REVERT JUMPDEST POP POP POP POP POP POP POP POP JUMP JUMPDEST PUSH1 0x3 PUSH1 0x0 SWAP1 SLOAD SWAP1 PUSH2 0x100 EXP SWAP1 DIV PUSH20 0xFFFFFFFFFFFFFFFFFFFFFFFFFFFFFFFFFFFFFFFF AND PUSH20 0xFFFFFFFFFFFFFFFFFFFFFFFFFFFFFFFFFFFFFFFF AND PUSH4 0xECDED204 CALLER PUSH1 0x40 MLOAD DUP3 PUSH4 0xFFFFFFFF AND PUSH1 0xE0 SHL DUP2 MSTORE PUSH1 0x4 ADD PUSH2 0x96E SWAP2 SWAP1 PUSH2 0x161C JUMP JUMPDEST PUSH1 0x20 PUSH1 0x40 MLOAD DUP1 DUP4 SUB DUP2 DUP7 GAS STATICCALL ISZERO DUP1 ISZERO PUSH2 0x98B JUMPI RETURNDATASIZE PUSH1 0x0 DUP1 RETURNDATACOPY RETURNDATASIZE PUSH1 0x0 REVERT JUMPDEST POP POP POP POP PUSH1 0x40 MLOAD RETURNDATASIZE PUSH1 0x1F NOT PUSH1 0x1F DUP3 ADD AND DUP3 ADD DUP1 PUSH1 0x40 MSTORE POP DUP2 ADD SWAP1 PUSH2 0x9AF SWAP2 SWAP1 PUSH2 0x1809 JUMP JUMPDEST PUSH2 0x9B8 JUMPI PUSH1 0x0 DUP1 REVERT JUMPDEST PUSH1 0x0 PUSH1 0x4 PUSH1 0x0 SWAP1 SLOAD SWAP1 PUSH2 0x100 EXP SWAP1 DIV PUSH20 0xFFFFFFFFFFFFFFFFFFFFFFFFFFFFFFFFFFFFFFFF AND PUSH20 0xFFFFFFFFFFFFFFFFFFFFFFFFFFFFFFFFFFFFFFFF AND PUSH4 0x1CE06944 DUP4 PUSH1 0x40 MLOAD DUP3 PUSH4 0xFFFFFFFF AND PUSH1 0xE0 SHL DUP2 MSTORE PUSH1 0x4 ADD PUSH2 0xA15 SWAP2 SWAP1 PUSH2 0x1646 JUMP JUMPDEST PUSH1 0x20 PUSH1 0x40 MLOAD DUP1 DUP4 SUB DUP2 DUP7 GAS STATICCALL ISZERO DUP1 ISZERO PUSH2 0xA32 JUMPI RETURNDATASIZE PUSH1 0x0 DUP1 RETURNDATACOPY RETURNDATASIZE PUSH1 0x0 REVERT JUMPDEST POP POP POP POP PUSH1 0x40 MLOAD RETURNDATASIZE PUSH1 0x1F NOT PUSH1 0x1F DUP3 ADD AND DUP3 ADD DUP1 PUSH1 0x40 MSTORE POP DUP2 ADD SWAP1 PUSH2 0xA56 SWAP2 SWAP1 PUSH2 0x184B JUMP JUMPDEST SWAP1 POP PUSH1 0x0 PUSH1 0x4 PUSH1 0x0 SWAP1 SLOAD SWAP1 PUSH2 0x100 EXP SWAP1 DIV PUSH20 0xFFFFFFFFFFFFFFFFFFFFFFFFFFFFFFFFFFFFFFFF AND PUSH20 0xFFFFFFFFFFFFFFFFFFFFFFFFFFFFFFFFFFFFFFFF AND PUSH4 0x98AF1F07 DUP5 PUSH1 0x40 MLOAD DUP3 PUSH4 0xFFFFFFFF AND PUSH1 0xE0 SHL DUP2 MSTORE PUSH1 0x4 ADD PUSH2 0xAB5 SWAP2 SWAP1 PUSH2 0x1646 JUMP JUMPDEST PUSH1 0x20 PUSH1 0x40 MLOAD DUP1 DUP4 SUB DUP2 DUP7 GAS STATICCALL ISZERO DUP1 ISZERO PUSH2 0xAD2 JUMPI RETURNDATASIZE PUSH1 0x0 DUP1 RETURNDATACOPY RETURNDATASIZE PUSH1 0x0 REVERT JUMPDEST POP POP POP POP PUSH1 0x40 MLOAD RETURNDATASIZE PUSH1 0x1F NOT PUSH1 0x1F DUP3 ADD AND DUP3 ADD DUP1 PUSH1 0x40 MSTORE POP DUP2 ADD SWAP1 PUSH2 0xAF6 SWAP2 SWAP1 PUSH2 0x1809 JUMP JUMPDEST SWAP1 POP PUSH1 0x0 PUSH1 0x3 PUSH1 0x0 SWAP1 SLOAD SWAP1 PUSH2 0x100 EXP SWAP1 DIV PUSH20 0xFFFFFFFFFFFFFFFFFFFFFFFFFFFFFFFFFFFFFFFF AND PUSH20 0xFFFFFFFFFFFFFFFFFFFFFFFFFFFFFFFFFFFFFFFF AND PUSH4 0x19AA98A3 CALLER PUSH1 0x40 MLOAD DUP3 PUSH4 0xFFFFFFFF AND PUSH1 0xE0 SHL DUP2 MSTORE PUSH1 0x4 ADD PUSH2 0xB55 SWAP2 SWAP1 PUSH2 0x161C JUMP JUMPDEST PUSH1 0x20 PUSH1 0x40 MLOAD DUP1 DUP4 SUB DUP2 DUP7 GAS STATICCALL ISZERO DUP1 ISZERO PUSH2 0xB72 JUMPI RETURNDATASIZE PUSH1 0x0 DUP1 RETURNDATACOPY RETURNDATASIZE PUSH1 0x0 REVERT JUMPDEST POP POP POP POP PUSH1 0x40 MLOAD RETURNDATASIZE PUSH1 0x1F NOT PUSH1 0x1F DUP3 ADD AND DUP3 ADD DUP1 PUSH1 0x40 MSTORE POP DUP2 ADD SWAP1 PUSH2 0xB96 SWAP2 SWAP1 PUSH2 0x184B JUMP JUMPDEST SWAP1 POP DUP2 PUSH2 0xBA2 JUMPI PUSH1 0x0 DUP1 REVERT JUMPDEST PUSH1 0x6 SLOAD DUP2 LT PUSH2 0xBB0 JUMPI PUSH1 0x0 DUP1 REVERT JUMPDEST CALLVALUE DUP4 EQ PUSH2 0xBBC JUMPI PUSH1 0x0 DUP1 REVERT JUMPDEST PUSH1 0x4 PUSH1 0x0 SWAP1 SLOAD SWAP1 PUSH2 0x100 EXP SWAP1 DIV PUSH20 0xFFFFFFFFFFFFFFFFFFFFFFFFFFFFFFFFFFFFFFFF AND PUSH20 0xFFFFFFFFFFFFFFFFFFFFFFFFFFFFFFFFFFFFFFFF AND PUSH4 0xAB21A2BE DUP6 CALLER PUSH1 0x40 MLOAD DUP4 PUSH4 0xFFFFFFFF AND PUSH1 0xE0 SHL DUP2 MSTORE PUSH1 0x4 ADD PUSH2 0xC19 SWAP3 SWAP2 SWAP1 PUSH2 0x1A0C JUMP JUMPDEST PUSH1 0x0 PUSH1 0x40 MLOAD DUP1 DUP4 SUB DUP2 PUSH1 0x0 DUP8 DUP1 EXTCODESIZE ISZERO DUP1 ISZERO PUSH2 0xC33 JUMPI PUSH1 0x0 DUP1 REVERT JUMPDEST POP GAS CALL ISZERO DUP1 ISZERO PUSH2 0xC47 JUMPI RETURNDATASIZE PUSH1 0x0 DUP1 RETURNDATACOPY RETURNDATASIZE PUSH1 0x0 REVERT JUMPDEST POP POP POP POP PUSH1 0x3 PUSH1 0x0 SWAP1 SLOAD SWAP1 PUSH2 0x100 EXP SWAP1 DIV PUSH20 0xFFFFFFFFFFFFFFFFFFFFFFFFFFFFFFFFFFFFFFFF AND PUSH20 0xFFFFFFFFFFFFFFFFFFFFFFFFFFFFFFFFFFFFFFFF AND PUSH4 0xA5A9C518 CALLER DUP7 PUSH1 0x40 MLOAD DUP4 PUSH4 0xFFFFFFFF AND PUSH1 0xE0 SHL DUP2 MSTORE PUSH1 0x4 ADD PUSH2 0xCA8 SWAP3 SWAP2 SWAP1 PUSH2 0x18BD JUMP JUMPDEST PUSH1 0x0 PUSH1 0x40 MLOAD DUP1 DUP4 SUB DUP2 PUSH1 0x0 DUP8 DUP1 EXTCODESIZE ISZERO DUP1 ISZERO PUSH2 0xCC2 JUMPI PUSH1 0x0 DUP1 REVERT JUMPDEST POP GAS CALL ISZERO DUP1 ISZERO PUSH2 0xCD6 JUMPI RETURNDATASIZE PUSH1 0x0 DUP1 RETURNDATACOPY RETURNDATASIZE PUSH1 0x0 REVERT JUMPDEST POP POP POP POP POP POP POP POP JUMP JUMPDEST PUSH1 0x0 DUP1 SLOAD SWAP1 PUSH2 0x100 EXP SWAP1 DIV PUSH20 0xFFFFFFFFFFFFFFFFFFFFFFFFFFFFFFFFFFFFFFFF AND DUP2 JUMP JUMPDEST PUSH1 0x6 SLOAD DUP2 JUMP JUMPDEST PUSH1 0x60 CALLER PUSH20 0xFFFFFFFFFFFFFFFFFFFFFFFFFFFFFFFFFFFFFFFF AND PUSH1 0x0 DUP1 SLOAD SWAP1 PUSH2 0x100 EXP SWAP1 DIV PUSH20 0xFFFFFFFFFFFFFFFFFFFFFFFFFFFFFFFFFFFFFFFF AND PUSH20 0xFFFFFFFFFFFFFFFFFFFFFFFFFFFFFFFFFFFFFFFF AND EQ PUSH2 0xD64 JUMPI PUSH1 0x0 DUP1 REVERT JUMPDEST PUSH1 0x5 DUP1 SLOAD DUP1 PUSH1 0x20 MUL PUSH1 0x20 ADD PUSH1 0x40 MLOAD SWAP1 DUP2 ADD PUSH1 0x40 MSTORE DUP1 SWAP3 SWAP2 SWAP1 DUP2 DUP2 MSTORE PUSH1 0x20 ADD DUP3 DUP1 SLOAD DUP1 ISZERO PUSH2 0xDE6 JUMPI PUSH1 0x20 MUL DUP3 ADD SWAP2 SWAP1 PUSH1 0x0 MSTORE PUSH1 0x20 PUSH1 0x0 KECCAK256 SWAP1 JUMPDEST DUP2 PUSH1 0x0 SWAP1 SLOAD SWAP1 PUSH2 0x100 EXP SWAP1 DIV PUSH20 0xFFFFFFFFFFFFFFFFFFFFFFFFFFFFFFFFFFFFFFFF AND PUSH20 0xFFFFFFFFFFFFFFFFFFFFFFFFFFFFFFFFFFFFFFFF AND DUP2 MSTORE PUSH1 0x20 ADD SWAP1 PUSH1 0x1 ADD SWAP1 DUP1 DUP4 GT PUSH2 0xD9C JUMPI JUMPDEST POP POP POP POP POP SWAP1 POP SWAP1 JUMP JUMPDEST PUSH1 0x3 PUSH1 0x0 SWAP1 SLOAD SWAP1 PUSH2 0x100 EXP SWAP1 DIV PUSH20 0xFFFFFFFFFFFFFFFFFFFFFFFFFFFFFFFFFFFFFFFF AND PUSH20 0xFFFFFFFFFFFFFFFFFFFFFFFFFFFFFFFFFFFFFFFF AND PUSH4 0xECDED204 CALLER PUSH1 0x40 MLOAD DUP3 PUSH4 0xFFFFFFFF AND PUSH1 0xE0 SHL DUP2 MSTORE PUSH1 0x4 ADD PUSH2 0xE4B SWAP2 SWAP1 PUSH2 0x161C JUMP JUMPDEST PUSH1 0x20 PUSH1 0x40 MLOAD DUP1 DUP4 SUB DUP2 DUP7 GAS STATICCALL ISZERO DUP1 ISZERO PUSH2 0xE68 JUMPI RETURNDATASIZE PUSH1 0x0 DUP1 RETURNDATACOPY RETURNDATASIZE PUSH1 0x0 REVERT JUMPDEST POP POP POP POP PUSH1 0x40 MLOAD RETURNDATASIZE PUSH1 0x1F NOT PUSH1 0x1F DUP3 ADD AND DUP3 ADD DUP1 PUSH1 0x40 MSTORE POP DUP2 ADD SWAP1 PUSH2 0xE8C SWAP2 SWAP1 PUSH2 0x1809 JUMP JUMPDEST PUSH2 0xE95 JUMPI PUSH1 0x0 DUP1 REVERT JUMPDEST PUSH1 0x0 PUSH1 0x4 PUSH1 0x0 SWAP1 SLOAD SWAP1 PUSH2 0x100 EXP SWAP1 DIV PUSH20 0xFFFFFFFFFFFFFFFFFFFFFFFFFFFFFFFFFFFFFFFF AND PUSH20 0xFFFFFFFFFFFFFFFFFFFFFFFFFFFFFFFFFFFFFFFF AND PUSH4 0x3B2F7118 DUP4 PUSH1 0x40 MLOAD DUP3 PUSH4 0xFFFFFFFF AND PUSH1 0xE0 SHL DUP2 MSTORE PUSH1 0x4 ADD PUSH2 0xEF2 SWAP2 SWAP1 PUSH2 0x1646 JUMP JUMPDEST PUSH1 0x20 PUSH1 0x40 MLOAD DUP1 DUP4 SUB DUP2 DUP7 GAS STATICCALL ISZERO DUP1 ISZERO PUSH2 0xF0F JUMPI RETURNDATASIZE PUSH1 0x0 DUP1 RETURNDATACOPY RETURNDATASIZE PUSH1 0x0 REVERT JUMPDEST POP POP POP POP PUSH1 0x40 MLOAD RETURNDATASIZE PUSH1 0x1F NOT PUSH1 0x1F DUP3 ADD AND DUP3 ADD DUP1 PUSH1 0x40 MSTORE POP DUP2 ADD SWAP1 PUSH2 0xF33 SWAP2 SWAP1 PUSH2 0x1A4A JUMP JUMPDEST SWAP1 POP CALLER PUSH20 0xFFFFFFFFFFFFFFFFFFFFFFFFFFFFFFFFFFFFFFFF AND DUP2 PUSH20 0xFFFFFFFFFFFFFFFFFFFFFFFFFFFFFFFFFFFFFFFF AND EQ PUSH2 0xF6D JUMPI PUSH1 0x0 DUP1 REVERT JUMPDEST PUSH1 0x4 PUSH1 0x0 SWAP1 SLOAD SWAP1 PUSH2 0x100 EXP SWAP1 DIV PUSH20 0xFFFFFFFFFFFFFFFFFFFFFFFFFFFFFFFFFFFFFFFF AND PUSH20 0xFFFFFFFFFFFFFFFFFFFFFFFFFFFFFFFFFFFFFFFF AND PUSH4 0xCA5140C9 DUP4 PUSH1 0x40 MLOAD DUP3 PUSH4 0xFFFFFFFF AND PUSH1 0xE0 SHL DUP2 MSTORE PUSH1 0x4 ADD PUSH2 0xFC8 SWAP2 SWAP1 PUSH2 0x1646 JUMP JUMPDEST PUSH1 0x0 PUSH1 0x40 MLOAD DUP1 DUP4 SUB DUP2 PUSH1 0x0 DUP8 DUP1 EXTCODESIZE ISZERO DUP1 ISZERO PUSH2 0xFE2 JUMPI PUSH1 0x0 DUP1 REVERT JUMPDEST POP GAS CALL ISZERO DUP1 ISZERO PUSH2 0xFF6 JUMPI RETURNDATASIZE PUSH1 0x0 DUP1 RETURNDATACOPY RETURNDATASIZE PUSH1 0x0 REVERT JUMPDEST POP POP POP POP PUSH1 0x3 PUSH1 0x0 SWAP1 SLOAD SWAP1 PUSH2 0x100 EXP SWAP1 DIV PUSH20 0xFFFFFFFFFFFFFFFFFFFFFFFFFFFFFFFFFFFFFFFF AND PUSH20 0xFFFFFFFFFFFFFFFFFFFFFFFFFFFFFFFFFFFFFFFF AND PUSH4 0x4A09DB4F CALLER DUP5 PUSH1 0x40 MLOAD DUP4 PUSH4 0xFFFFFFFF AND PUSH1 0xE0 SHL DUP2 MSTORE PUSH1 0x4 ADD PUSH2 0x1057 SWAP3 SWAP2 SWAP1 PUSH2 0x18BD JUMP JUMPDEST PUSH1 0x0 PUSH1 0x40 MLOAD DUP1 DUP4 SUB DUP2 PUSH1 0x0 DUP8 DUP1 EXTCODESIZE ISZERO DUP1 ISZERO PUSH2 0x1071 JUMPI PUSH1 0x0 DUP1 REVERT JUMPDEST POP GAS CALL ISZERO DUP1 ISZERO PUSH2 0x1085 JUMPI RETURNDATASIZE PUSH1 0x0 DUP1 RETURNDATACOPY RETURNDATASIZE PUSH1 0x0 REVERT JUMPDEST POP POP POP POP POP POP JUMP JUMPDEST PUSH1 0x1 PUSH1 0x0 CALLER PUSH20 0xFFFFFFFFFFFFFFFFFFFFFFFFFFFFFFFFFFFFFFFF AND PUSH20 0xFFFFFFFFFFFFFFFFFFFFFFFFFFFFFFFFFFFFFFFF AND DUP2 MSTORE PUSH1 0x20 ADD SWAP1 DUP2 MSTORE PUSH1 0x20 ADD PUSH1 0x0 KECCAK256 PUSH1 0x0 SWAP1 SLOAD SWAP1 PUSH2 0x100 EXP SWAP1 DIV PUSH1 0xFF AND PUSH2 0x10E3 JUMPI PUSH1 0x0 DUP1 REVERT JUMPDEST PUSH1 0x2 PUSH1 0x0 SWAP1 SLOAD SWAP1 PUSH2 0x100 EXP SWAP1 DIV PUSH20 0xFFFFFFFFFFFFFFFFFFFFFFFFFFFFFFFFFFFFFFFF AND PUSH20 0xFFFFFFFFFFFFFFFFFFFFFFFFFFFFFFFFFFFFFFFF AND PUSH4 0xD2C07E20 DUP7 DUP7 DUP7 DUP7 DUP7 PUSH1 0x40 MLOAD DUP7 PUSH4 0xFFFFFFFF AND PUSH1 0xE0 SHL DUP2 MSTORE PUSH1 0x4 ADD PUSH2 0x1146 SWAP6 SWAP5 SWAP4 SWAP3 SWAP2 SWAP1 PUSH2 0x1A77 JUMP JUMPDEST PUSH1 0x0 PUSH1 0x40 MLOAD DUP1 DUP4 SUB DUP2 PUSH1 0x0 DUP8 DUP1 EXTCODESIZE ISZERO DUP1 ISZERO PUSH2 0x1160 JUMPI PUSH1 0x0 DUP1 REVERT JUMPDEST POP GAS CALL ISZERO DUP1 ISZERO PUSH2 0x1174 JUMPI RETURNDATASIZE PUSH1 0x0 DUP1 RETURNDATACOPY RETURNDATASIZE PUSH1 0x0 REVERT JUMPDEST POP POP POP POP POP POP POP POP POP JUMP JUMPDEST CALLER PUSH20 0xFFFFFFFFFFFFFFFFFFFFFFFFFFFFFFFFFFFFFFFF AND PUSH1 0x0 DUP1 SLOAD SWAP1 PUSH2 0x100 EXP SWAP1 DIV PUSH20 0xFFFFFFFFFFFFFFFFFFFFFFFFFFFFFFFFFFFFFFFF AND PUSH20 0xFFFFFFFFFFFFFFFFFFFFFFFFFFFFFFFFFFFFFFFF AND EQ PUSH2 0x11D7 JUMPI PUSH1 0x0 DUP1 REVERT JUMPDEST PUSH1 0x1 DUP1 PUSH1 0x0 DUP4 PUSH20 0xFFFFFFFFFFFFFFFFFFFFFFFFFFFFFFFFFFFFFFFF AND PUSH20 0xFFFFFFFFFFFFFFFFFFFFFFFFFFFFFFFFFFFFFFFF AND DUP2 MSTORE PUSH1 0x20 ADD SWAP1 DUP2 MSTORE PUSH1 0x20 ADD PUSH1 0x0 KECCAK256 PUSH1 0x0 PUSH2 0x100 EXP DUP2 SLOAD DUP2 PUSH1 0xFF MUL NOT AND SWAP1 DUP4 ISZERO ISZERO MUL OR SWAP1 SSTORE POP POP JUMP JUMPDEST PUSH1 0x0 PUSH1 0x40 MLOAD SWAP1 POP SWAP1 JUMP JUMPDEST PUSH1 0x0 DUP1 REVERT JUMPDEST PUSH1 0x0 DUP1 REVERT JUMPDEST PUSH1 0x0 DUP2 SWAP1 POP SWAP2 SWAP1 POP JUMP JUMPDEST PUSH2 0x1258 DUP2 PUSH2 0x1245 JUMP JUMPDEST DUP2 EQ PUSH2 0x1263 JUMPI PUSH1 0x0 DUP1 REVERT JUMPDEST POP JUMP JUMPDEST PUSH1 0x0 DUP2 CALLDATALOAD SWAP1 POP PUSH2 0x1275 DUP2 PUSH2 0x124F JUMP JUMPDEST SWAP3 SWAP2 POP POP JUMP JUMPDEST PUSH1 0x0 DUP1 PUSH1 0x0 PUSH1 0x60 DUP5 DUP7 SUB SLT ISZERO PUSH2 0x1294 JUMPI PUSH2 0x1293 PUSH2 0x123B JUMP JUMPDEST JUMPDEST PUSH1 0x0 PUSH2 0x12A2 DUP7 DUP3 DUP8 ADD PUSH2 0x1266 JUMP JUMPDEST SWAP4 POP POP PUSH1 0x20 PUSH2 0x12B3 DUP7 DUP3 DUP8 ADD PUSH2 0x1266 JUMP JUMPDEST SWAP3 POP POP PUSH1 0x40 PUSH2 0x12C4 DUP7 DUP3 DUP8 ADD PUSH2 0x1266 JUMP JUMPDEST SWAP2 POP POP SWAP3 POP SWAP3 POP SWAP3 JUMP JUMPDEST PUSH1 0x0 DUP2 ISZERO ISZERO SWAP1 POP SWAP2 SWAP1 POP JUMP JUMPDEST PUSH2 0x12E3 DUP2 PUSH2 0x12CE JUMP JUMPDEST DUP2 EQ PUSH2 0x12EE JUMPI PUSH1 0x0 DUP1 REVERT JUMPDEST POP JUMP JUMPDEST PUSH1 0x0 DUP2 CALLDATALOAD SWAP1 POP PUSH2 0x1300 DUP2 PUSH2 0x12DA JUMP JUMPDEST SWAP3 SWAP2 POP POP JUMP JUMPDEST PUSH1 0x0 DUP1 PUSH1 0x40 DUP4 DUP6 SUB SLT ISZERO PUSH2 0x131D JUMPI PUSH2 0x131C PUSH2 0x123B JUMP JUMPDEST JUMPDEST PUSH1 0x0 PUSH2 0x132B DUP6 DUP3 DUP7 ADD PUSH2 0x1266 JUMP JUMPDEST SWAP3 POP POP PUSH1 0x20 PUSH2 0x133C DUP6 DUP3 DUP7 ADD PUSH2 0x12F1 JUMP JUMPDEST SWAP2 POP POP SWAP3 POP SWAP3 SWAP1 POP JUMP JUMPDEST PUSH1 0x0 PUSH20 0xFFFFFFFFFFFFFFFFFFFFFFFFFFFFFFFFFFFFFFFF DUP3 AND SWAP1 POP SWAP2 SWAP1 POP JUMP JUMPDEST PUSH1 0x0 PUSH2 0x1371 DUP3 PUSH2 0x1346 JUMP JUMPDEST SWAP1 POP SWAP2 SWAP1 POP JUMP JUMPDEST PUSH2 0x1381 DUP2 PUSH2 0x1366 JUMP JUMPDEST DUP2 EQ PUSH2 0x138C JUMPI PUSH1 0x0 DUP1 REVERT JUMPDEST POP JUMP JUMPDEST PUSH1 0x0 DUP2 CALLDATALOAD SWAP1 POP PUSH2 0x139E DUP2 PUSH2 0x1378 JUMP JUMPDEST SWAP3 SWAP2 POP POP JUMP JUMPDEST PUSH1 0x0 PUSH1 0x20 DUP3 DUP5 SUB SLT ISZERO PUSH2 0x13BA JUMPI PUSH2 0x13B9 PUSH2 0x123B JUMP JUMPDEST JUMPDEST PUSH1 0x0 PUSH2 0x13C8 DUP5 DUP3 DUP6 ADD PUSH2 0x138F JUMP JUMPDEST SWAP2 POP POP SWAP3 SWAP2 POP POP JUMP JUMPDEST PUSH2 0x13DA DUP2 PUSH2 0x12CE JUMP JUMPDEST DUP3 MSTORE POP POP JUMP JUMPDEST PUSH1 0x0 PUSH1 0x20 DUP3 ADD SWAP1 POP PUSH2 0x13F5 PUSH1 0x0 DUP4 ADD DUP5 PUSH2 0x13D1 JUMP JUMPDEST SWAP3 SWAP2 POP POP JUMP JUMPDEST PUSH1 0x0 DUP1 REVERT JUMPDEST PUSH1 0x0 DUP1 REVERT JUMPDEST PUSH1 0x0 PUSH1 0x1F NOT PUSH1 0x1F DUP4 ADD AND SWAP1 POP SWAP2 SWAP1 POP JUMP JUMPDEST PUSH32 0x4E487B7100000000000000000000000000000000000000000000000000000000 PUSH1 0x0 MSTORE PUSH1 0x41 PUSH1 0x4 MSTORE PUSH1 0x24 PUSH1 0x0 REVERT JUMPDEST PUSH2 0x144E DUP3 PUSH2 0x1405 JUMP JUMPDEST DUP2 ADD DUP2 DUP2 LT PUSH8 0xFFFFFFFFFFFFFFFF DUP3 GT OR ISZERO PUSH2 0x146D JUMPI PUSH2 0x146C PUSH2 0x1416 JUMP JUMPDEST JUMPDEST DUP1 PUSH1 0x40 MSTORE POP POP POP JUMP JUMPDEST PUSH1 0x0 PUSH2 0x1480 PUSH2 0x1231 JUMP JUMPDEST SWAP1 POP PUSH2 0x148C DUP3 DUP3 PUSH2 0x1445 JUMP JUMPDEST SWAP2 SWAP1 POP JUMP JUMPDEST PUSH1 0x0 PUSH8 0xFFFFFFFFFFFFFFFF DUP3 GT ISZERO PUSH2 0x14AC JUMPI PUSH2 0x14AB PUSH2 0x1416 JUMP JUMPDEST JUMPDEST PUSH2 0x14B5 DUP3 PUSH2 0x1405 JUMP JUMPDEST SWAP1 POP PUSH1 0x20 DUP2 ADD SWAP1 POP SWAP2 SWAP1 POP JUMP JUMPDEST DUP3 DUP2 DUP4 CALLDATACOPY PUSH1 0x0 DUP4 DUP4 ADD MSTORE POP POP POP JUMP JUMPDEST PUSH1 0x0 PUSH2 0x14E4 PUSH2 0x14DF DUP5 PUSH2 0x1491 JUMP JUMPDEST PUSH2 0x1476 JUMP JUMPDEST SWAP1 POP DUP3 DUP2 MSTORE PUSH1 0x20 DUP2 ADD DUP5 DUP5 DUP5 ADD GT ISZERO PUSH2 0x1500 JUMPI PUSH2 0x14FF PUSH2 0x1400 JUMP JUMPDEST JUMPDEST PUSH2 0x150B DUP5 DUP3 DUP6 PUSH2 0x14C2 JUMP JUMPDEST POP SWAP4 SWAP3 POP POP POP JUMP JUMPDEST PUSH1 0x0 DUP3 PUSH1 0x1F DUP4 ADD SLT PUSH2 0x1528 JUMPI PUSH2 0x1527 PUSH2 0x13FB JUMP JUMPDEST JUMPDEST DUP2 CALLDATALOAD PUSH2 0x1538 DUP5 DUP3 PUSH1 0x20 DUP7 ADD PUSH2 0x14D1 JUMP JUMPDEST SWAP2 POP POP SWAP3 SWAP2 POP POP JUMP JUMPDEST PUSH1 0x0 DUP1 PUSH1 0x0 DUP1 PUSH1 0x80 DUP6 DUP8 SUB SLT ISZERO PUSH2 0x155B JUMPI PUSH2 0x155A PUSH2 0x123B JUMP JUMPDEST JUMPDEST PUSH1 0x0 DUP6 ADD CALLDATALOAD PUSH8 0xFFFFFFFFFFFFFFFF DUP2 GT ISZERO PUSH2 0x1579 JUMPI PUSH2 0x1578 PUSH2 0x1240 JUMP JUMPDEST JUMPDEST PUSH2 0x1585 DUP8 DUP3 DUP9 ADD PUSH2 0x1513 JUMP JUMPDEST SWAP5 POP POP PUSH1 0x20 DUP6 ADD CALLDATALOAD PUSH8 0xFFFFFFFFFFFFFFFF DUP2 GT ISZERO PUSH2 0x15A6 JUMPI PUSH2 0x15A5 PUSH2 0x1240 JUMP JUMPDEST JUMPDEST PUSH2 0x15B2 DUP8 DUP3 DUP9 ADD PUSH2 0x1513 JUMP JUMPDEST SWAP4 POP POP PUSH1 0x40 PUSH2 0x15C3 DUP8 DUP3 DUP9 ADD PUSH2 0x1266 JUMP JUMPDEST SWAP3 POP POP PUSH1 0x60 PUSH2 0x15D4 DUP8 DUP3 DUP9 ADD PUSH2 0x138F JUMP JUMPDEST SWAP2 POP POP SWAP3 SWAP6 SWAP2 SWAP5 POP SWAP3 POP JUMP JUMPDEST PUSH1 0x0 PUSH1 0x20 DUP3 DUP5 SUB SLT ISZERO PUSH2 0x15F6 JUMPI PUSH2 0x15F5 PUSH2 0x123B JUMP JUMPDEST JUMPDEST PUSH1 0x0 PUSH2 0x1604 DUP5 DUP3 DUP6 ADD PUSH2 0x1266 JUMP JUMPDEST SWAP2 POP POP SWAP3 SWAP2 POP POP JUMP JUMPDEST PUSH2 0x1616 DUP2 PUSH2 0x1366 JUMP JUMPDEST DUP3 MSTORE POP POP JUMP JUMPDEST PUSH1 0x0 PUSH1 0x20 DUP3 ADD SWAP1 POP PUSH2 0x1631 PUSH1 0x0 DUP4 ADD DUP5 PUSH2 0x160D JUMP JUMPDEST SWAP3 SWAP2 POP POP JUMP JUMPDEST PUSH2 0x1640 DUP2 PUSH2 0x1245 JUMP JUMPDEST DUP3 MSTORE POP POP JUMP JUMPDEST PUSH1 0x0 PUSH1 0x20 DUP3 ADD SWAP1 POP PUSH2 0x165B PUSH1 0x0 DUP4 ADD DUP5 PUSH2 0x1637 JUMP JUMPDEST SWAP3 SWAP2 POP POP JUMP JUMPDEST PUSH1 0x0 DUP2 MLOAD SWAP1 POP SWAP2 SWAP1 POP JUMP JUMPDEST PUSH1 0x0 DUP3 DUP3 MSTORE PUSH1 0x20 DUP3 ADD SWAP1 POP SWAP3 SWAP2 POP POP JUMP JUMPDEST PUSH1 0x0 DUP2 SWAP1 POP PUSH1 0x20 DUP3 ADD SWAP1 POP SWAP2 SWAP1 POP JUMP JUMPDEST PUSH2 0x1696 DUP2 PUSH2 0x1366 JUMP JUMPDEST DUP3 MSTORE POP POP JUMP JUMPDEST PUSH1 0x0 PUSH2 0x16A8 DUP4 DUP4 PUSH2 0x168D JUMP JUMPDEST PUSH1 0x20 DUP4 ADD SWAP1 POP SWAP3 SWAP2 POP POP JUMP JUMPDEST PUSH1 0x0 PUSH1 0x20 DUP3 ADD SWAP1 POP SWAP2 SWAP1 POP JUMP JUMPDEST PUSH1 0x0 PUSH2 0x16CC DUP3 PUSH2 0x1661 JUMP JUMPDEST PUSH2 0x16D6 DUP2 DUP6 PUSH2 0x166C JUMP JUMPDEST SWAP4 POP PUSH2 0x16E1 DUP4 PUSH2 0x167D JUMP JUMPDEST DUP1 PUSH1 0x0 JUMPDEST DUP4 DUP2 LT ISZERO PUSH2 0x1712 JUMPI DUP2 MLOAD PUSH2 0x16F9 DUP9 DUP3 PUSH2 0x169C JUMP JUMPDEST SWAP8 POP PUSH2 0x1704 DUP4 PUSH2 0x16B4 JUMP JUMPDEST SWAP3 POP POP PUSH1 0x1 DUP2 ADD SWAP1 POP PUSH2 0x16E5 JUMP JUMPDEST POP DUP6 SWAP4 POP POP POP POP SWAP3 SWAP2 POP POP JUMP JUMPDEST PUSH1 0x0 PUSH1 0x20 DUP3 ADD SWAP1 POP DUP2 DUP2 SUB PUSH1 0x0 DUP4 ADD MSTORE PUSH2 0x1739 DUP2 DUP5 PUSH2 0x16C1 JUMP JUMPDEST SWAP1 POP SWAP3 SWAP2 POP POP JUMP JUMPDEST PUSH1 0x0 DUP1 PUSH1 0x0 DUP1 PUSH1 0x0 PUSH1 0xA0 DUP7 DUP9 SUB SLT ISZERO PUSH2 0x175D JUMPI PUSH2 0x175C PUSH2 0x123B JUMP JUMPDEST JUMPDEST PUSH1 0x0 PUSH2 0x176B DUP9 DUP3 DUP10 ADD PUSH2 0x1266 JUMP JUMPDEST SWAP6 POP POP PUSH1 0x20 DUP7 ADD CALLDATALOAD PUSH8 0xFFFFFFFFFFFFFFFF DUP2 GT ISZERO PUSH2 0x178C JUMPI PUSH2 0x178B PUSH2 0x1240 JUMP JUMPDEST JUMPDEST PUSH2 0x1798 DUP9 DUP3 DUP10 ADD PUSH2 0x1513 JUMP JUMPDEST SWAP5 POP POP PUSH1 0x40 DUP7 ADD CALLDATALOAD PUSH8 0xFFFFFFFFFFFFFFFF DUP2 GT ISZERO PUSH2 0x17B9 JUMPI PUSH2 0x17B8 PUSH2 0x1240 JUMP JUMPDEST JUMPDEST PUSH2 0x17C5 DUP9 DUP3 DUP10 ADD PUSH2 0x1513 JUMP JUMPDEST SWAP4 POP POP PUSH1 0x60 PUSH2 0x17D6 DUP9 DUP3 DUP10 ADD PUSH2 0x1266 JUMP JUMPDEST SWAP3 POP POP PUSH1 0x80 PUSH2 0x17E7 DUP9 DUP3 DUP10 ADD PUSH2 0x138F JUMP JUMPDEST SWAP2 POP POP SWAP3 SWAP6 POP SWAP3 SWAP6 SWAP1 SWAP4 POP JUMP JUMPDEST PUSH1 0x0 DUP2 MLOAD SWAP1 POP PUSH2 0x1803 DUP2 PUSH2 0x12DA JUMP JUMPDEST SWAP3 SWAP2 POP POP JUMP JUMPDEST PUSH1 0x0 PUSH1 0x20 DUP3 DUP5 SUB SLT ISZERO PUSH2 0x181F JUMPI PUSH2 0x181E PUSH2 0x123B JUMP JUMPDEST JUMPDEST PUSH1 0x0 PUSH2 0x182D DUP5 DUP3 DUP6 ADD PUSH2 0x17F4 JUMP JUMPDEST SWAP2 POP POP SWAP3 SWAP2 POP POP JUMP JUMPDEST PUSH1 0x0 DUP2 MLOAD SWAP1 POP PUSH2 0x1845 DUP2 PUSH2 0x124F JUMP JUMPDEST SWAP3 SWAP2 POP POP JUMP JUMPDEST PUSH1 0x0 PUSH1 0x20 DUP3 DUP5 SUB SLT ISZERO PUSH2 0x1861 JUMPI PUSH2 0x1860 PUSH2 0x123B JUMP JUMPDEST JUMPDEST PUSH1 0x0 PUSH2 0x186F DUP5 DUP3 DUP6 ADD PUSH2 0x1836 JUMP JUMPDEST SWAP2 POP POP SWAP3 SWAP2 POP POP JUMP JUMPDEST PUSH1 0x0 PUSH1 0x80 DUP3 ADD SWAP1 POP PUSH2 0x188D PUSH1 0x0 DUP4 ADD DUP8 PUSH2 0x160D JUMP JUMPDEST PUSH2 0x189A PUSH1 0x20 DUP4 ADD DUP7 PUSH2 0x1637 JUMP JUMPDEST PUSH2 0x18A7 PUSH1 0x40 DUP4 ADD DUP6 PUSH2 0x1637 JUMP JUMPDEST PUSH2 0x18B4 PUSH1 0x60 DUP4 ADD DUP5 PUSH2 0x1637 JUMP JUMPDEST SWAP6 SWAP5 POP POP POP POP POP JUMP JUMPDEST PUSH1 0x0 PUSH1 0x40 DUP3 ADD SWAP1 POP PUSH2 0x18D2 PUSH1 0x0 DUP4 ADD DUP6 PUSH2 0x160D JUMP JUMPDEST PUSH2 0x18DF PUSH1 0x20 DUP4 ADD DUP5 PUSH2 0x1637 JUMP JUMPDEST SWAP4 SWAP3 POP POP POP JUMP JUMPDEST PUSH1 0x0 PUSH1 0x40 DUP3 ADD SWAP1 POP PUSH2 0x18FB PUSH1 0x0 DUP4 ADD DUP6 PUSH2 0x1637 JUMP JUMPDEST PUSH2 0x1908 PUSH1 0x20 DUP4 ADD DUP5 PUSH2 0x13D1 JUMP JUMPDEST SWAP4 SWAP3 POP POP POP JUMP JUMPDEST PUSH1 0x0 DUP2 MLOAD SWAP1 POP SWAP2 SWAP1 POP JUMP JUMPDEST PUSH1 0x0 DUP3 DUP3 MSTORE PUSH1 0x20 DUP3 ADD SWAP1 POP SWAP3 SWAP2 POP POP JUMP JUMPDEST PUSH1 0x0 JUMPDEST DUP4 DUP2 LT ISZERO PUSH2 0x1949 JUMPI DUP1 DUP3 ADD MLOAD DUP2 DUP5 ADD MSTORE PUSH1 0x20 DUP2 ADD SWAP1 POP PUSH2 0x192E JUMP JUMPDEST DUP4 DUP2 GT ISZERO PUSH2 0x1958 JUMPI PUSH1 0x0 DUP5 DUP5 ADD MSTORE JUMPDEST POP POP POP POP JUMP JUMPDEST PUSH1 0x0 PUSH2 0x1969 DUP3 PUSH2 0x190F JUMP JUMPDEST PUSH2 0x1973 DUP2 DUP6 PUSH2 0x191A JUMP JUMPDEST SWAP4 POP PUSH2 0x1983 DUP2 DUP6 PUSH1 0x20 DUP7 ADD PUSH2 0x192B JUMP JUMPDEST PUSH2 0x198C DUP2 PUSH2 0x1405 JUMP JUMPDEST DUP5 ADD SWAP2 POP POP SWAP3 SWAP2 POP POP JUMP JUMPDEST PUSH1 0x0 PUSH1 0x20 DUP3 ADD SWAP1 POP DUP2 DUP2 SUB PUSH1 0x0 DUP4 ADD MSTORE PUSH2 0x19B1 DUP2 DUP5 PUSH2 0x195E JUMP JUMPDEST SWAP1 POP SWAP3 SWAP2 POP POP JUMP JUMPDEST PUSH1 0x0 PUSH1 0x80 DUP3 ADD SWAP1 POP DUP2 DUP2 SUB PUSH1 0x0 DUP4 ADD MSTORE PUSH2 0x19D3 DUP2 DUP8 PUSH2 0x195E JUMP JUMPDEST SWAP1 POP DUP2 DUP2 SUB PUSH1 0x20 DUP4 ADD MSTORE PUSH2 0x19E7 DUP2 DUP7 PUSH2 0x195E JUMP JUMPDEST SWAP1 POP PUSH2 0x19F6 PUSH1 0x40 DUP4 ADD DUP6 PUSH2 0x1637 JUMP JUMPDEST PUSH2 0x1A03 PUSH1 0x60 DUP4 ADD DUP5 PUSH2 0x160D JUMP JUMPDEST SWAP6 SWAP5 POP POP POP POP POP JUMP JUMPDEST PUSH1 0x0 PUSH1 0x40 DUP3 ADD SWAP1 POP PUSH2 0x1A21 PUSH1 0x0 DUP4 ADD DUP6 PUSH2 0x1637 JUMP JUMPDEST PUSH2 0x1A2E PUSH1 0x20 DUP4 ADD DUP5 PUSH2 0x160D JUMP JUMPDEST SWAP4 SWAP3 POP POP POP JUMP JUMPDEST PUSH1 0x0 DUP2 MLOAD SWAP1 POP PUSH2 0x1A44 DUP2 PUSH2 0x1378 JUMP JUMPDEST SWAP3 SWAP2 POP POP JUMP JUMPDEST PUSH1 0x0 PUSH1 0x20 DUP3 DUP5 SUB SLT ISZERO PUSH2 0x1A60 JUMPI PUSH2 0x1A5F PUSH2 0x123B JUMP JUMPDEST JUMPDEST PUSH1 0x0 PUSH2 0x1A6E DUP5 DUP3 DUP6 ADD PUSH2 0x1A35 JUMP JUMPDEST SWAP2 POP POP SWAP3 SWAP2 POP POP JUMP JUMPDEST PUSH1 0x0 PUSH1 0xA0 DUP3 ADD SWAP1 POP PUSH2 0x1A8C PUSH1 0x0 DUP4 ADD DUP9 PUSH2 0x1637 JUMP JUMPDEST DUP2 DUP2 SUB PUSH1 0x20 DUP4 ADD MSTORE PUSH2 0x1A9E DUP2 DUP8 PUSH2 0x195E JUMP JUMPDEST SWAP1 POP DUP2 DUP2 SUB PUSH1 0x40 DUP4 ADD MSTORE PUSH2 0x1AB2 DUP2 DUP7 PUSH2 0x195E JUMP JUMPDEST SWAP1 POP PUSH2 0x1AC1 PUSH1 0x60 DUP4 ADD DUP6 PUSH2 0x1637 JUMP JUMPDEST PUSH2 0x1ACE PUSH1 0x80 DUP4 ADD DUP5 PUSH2 0x160D JUMP JUMPDEST SWAP7 SWAP6 POP POP POP POP POP POP JUMP INVALID LOG2 PUSH5 0x6970667358 0x22 SLT KECCAK256 0xD8 JUMPI 0xE0 MSIZE 0xC2 PUSH24 0x2834FBE559EC6755D9E7EDE63C12E6D7BC98CB6ACBB93CCE 0xB8 0xAB PUSH5 0x736F6C6343 STOP ADDMOD EXP STOP CALLER PUSH1 0x80 PUSH1 0x40 MSTORE CALLVALUE DUP1 ISZERO PUSH3 0x11 JUMPI PUSH1 0x0 DUP1 REVERT JUMPDEST POP PUSH1 0x40 MLOAD PUSH3 0x12E4 CODESIZE SUB DUP1 PUSH3 0x12E4 DUP4 CODECOPY DUP2 DUP2 ADD PUSH1 0x40 MSTORE DUP2 ADD SWAP1 PUSH3 0x37 SWAP2 SWAP1 PUSH3 0x129 JUMP JUMPDEST DUP1 PUSH1 0x0 DUP1 PUSH2 0x100 EXP DUP2 SLOAD DUP2 PUSH20 0xFFFFFFFFFFFFFFFFFFFFFFFFFFFFFFFFFFFFFFFF MUL NOT AND SWAP1 DUP4 PUSH20 0xFFFFFFFFFFFFFFFFFFFFFFFFFFFFFFFFFFFFFFFF AND MUL OR SWAP1 SSTORE POP CALLER PUSH1 0x1 PUSH1 0x0 PUSH2 0x100 EXP DUP2 SLOAD DUP2 PUSH20 0xFFFFFFFFFFFFFFFFFFFFFFFFFFFFFFFFFFFFFFFF MUL NOT AND SWAP1 DUP4 PUSH20 0xFFFFFFFFFFFFFFFFFFFFFFFFFFFFFFFFFFFFFFFF AND MUL OR SWAP1 SSTORE POP POP PUSH3 0x15B JUMP JUMPDEST PUSH1 0x0 DUP1 REVERT JUMPDEST PUSH1 0x0 PUSH20 0xFFFFFFFFFFFFFFFFFFFFFFFFFFFFFFFFFFFFFFFF DUP3 AND SWAP1 POP SWAP2 SWAP1 POP JUMP JUMPDEST PUSH1 0x0 PUSH3 0xF1 DUP3 PUSH3 0xC4 JUMP JUMPDEST SWAP1 POP SWAP2 SWAP1 POP JUMP JUMPDEST PUSH3 0x103 DUP2 PUSH3 0xE4 JUMP JUMPDEST DUP2 EQ PUSH3 0x10F JUMPI PUSH1 0x0 DUP1 REVERT JUMPDEST POP JUMP JUMPDEST PUSH1 0x0 DUP2 MLOAD SWAP1 POP PUSH3 0x123 DUP2 PUSH3 0xF8 JUMP JUMPDEST SWAP3 SWAP2 POP POP JUMP JUMPDEST PUSH1 0x0 PUSH1 0x20 DUP3 DUP5 SUB SLT ISZERO PUSH3 0x142 JUMPI PUSH3 0x141 PUSH3 0xBF JUMP JUMPDEST JUMPDEST PUSH1 0x0 PUSH3 0x152 DUP5 DUP3 DUP6 ADD PUSH3 0x112 JUMP JUMPDEST SWAP2 POP POP SWAP3 SWAP2 POP POP JUMP JUMPDEST PUSH2 0x1179 DUP1 PUSH3 0x16B PUSH1 0x0 CODECOPY PUSH1 0x0 RETURN INVALID PUSH1 0x80 PUSH1 0x40 MSTORE CALLVALUE DUP1 ISZERO PUSH2 0x10 JUMPI PUSH1 0x0 DUP1 REVERT JUMPDEST POP PUSH1 0x4 CALLDATASIZE LT PUSH2 0x9E JUMPI PUSH1 0x0 CALLDATALOAD PUSH1 0xE0 SHR DUP1 PUSH4 0x98FBCE79 GT PUSH2 0x66 JUMPI DUP1 PUSH4 0x98FBCE79 EQ PUSH2 0x159 JUMPI DUP1 PUSH4 0xD2C07E20 EQ PUSH2 0x18D JUMPI DUP1 PUSH4 0xD9FF0CF1 EQ PUSH2 0x1A9 JUMPI DUP1 PUSH4 0xE71448A9 EQ PUSH2 0x1DD JUMPI DUP1 PUSH4 0xF76EBE1C EQ PUSH2 0x20D JUMPI PUSH2 0x9E JUMP JUMPDEST DUP1 PUSH4 0xA6B2A25 EQ PUSH2 0xA3 JUMPI DUP1 PUSH4 0x1CB71ED5 EQ PUSH2 0xBF JUMPI DUP1 PUSH4 0x687564AE EQ PUSH2 0xEF JUMPI DUP1 PUSH4 0x6C230EEF EQ PUSH2 0x10B JUMPI DUP1 PUSH4 0x8DA5CB5B EQ PUSH2 0x13B JUMPI JUMPDEST PUSH1 0x0 DUP1 REVERT JUMPDEST PUSH2 0xBD PUSH1 0x4 DUP1 CALLDATASIZE SUB DUP2 ADD SWAP1 PUSH2 0xB8 SWAP2 SWAP1 PUSH2 0xB38 JUMP JUMPDEST PUSH2 0x22B JUMP JUMPDEST STOP JUMPDEST PUSH2 0xD9 PUSH1 0x4 DUP1 CALLDATASIZE SUB DUP2 ADD SWAP1 PUSH2 0xD4 SWAP2 SWAP1 PUSH2 0xCAB JUMP JUMPDEST PUSH2 0x260 JUMP JUMPDEST PUSH1 0x40 MLOAD PUSH2 0xE6 SWAP2 SWAP1 PUSH2 0xD0F JUMP JUMPDEST PUSH1 0x40 MLOAD DUP1 SWAP2 SUB SWAP1 RETURN JUMPDEST PUSH2 0x109 PUSH1 0x4 DUP1 CALLDATASIZE SUB DUP2 ADD SWAP1 PUSH2 0x104 SWAP2 SWAP1 PUSH2 0xD88 JUMP JUMPDEST PUSH2 0x296 JUMP JUMPDEST STOP JUMPDEST PUSH2 0x125 PUSH1 0x4 DUP1 CALLDATASIZE SUB DUP2 ADD SWAP1 PUSH2 0x120 SWAP2 SWAP1 PUSH2 0xB38 JUMP JUMPDEST PUSH2 0x3E3 JUMP JUMPDEST PUSH1 0x40 MLOAD PUSH2 0x132 SWAP2 SWAP1 PUSH2 0xE36 JUMP JUMPDEST PUSH1 0x40 MLOAD DUP1 SWAP2 SUB SWAP1 RETURN JUMPDEST PUSH2 0x143 PUSH2 0x5A1 JUMP JUMPDEST PUSH1 0x40 MLOAD PUSH2 0x150 SWAP2 SWAP1 PUSH2 0xE60 JUMP JUMPDEST PUSH1 0x40 MLOAD DUP1 SWAP2 SUB SWAP1 RETURN JUMPDEST PUSH2 0x173 PUSH1 0x4 DUP1 CALLDATASIZE SUB DUP2 ADD SWAP1 PUSH2 0x16E SWAP2 SWAP1 PUSH2 0xB38 JUMP JUMPDEST PUSH2 0x5C5 JUMP JUMPDEST PUSH1 0x40 MLOAD PUSH2 0x184 SWAP6 SWAP5 SWAP4 SWAP3 SWAP2 SWAP1 PUSH2 0xF03 JUMP JUMPDEST PUSH1 0x40 MLOAD DUP1 SWAP2 SUB SWAP1 RETURN JUMPDEST PUSH2 0x1A7 PUSH1 0x4 DUP1 CALLDATASIZE SUB DUP2 ADD SWAP1 PUSH2 0x1A2 SWAP2 SWAP1 PUSH2 0xF64 JUMP JUMPDEST PUSH2 0x7A9 JUMP JUMPDEST STOP JUMPDEST PUSH2 0x1C3 PUSH1 0x4 DUP1 CALLDATASIZE SUB DUP2 ADD SWAP1 PUSH2 0x1BE SWAP2 SWAP1 PUSH2 0xB38 JUMP JUMPDEST PUSH2 0x8AA JUMP JUMPDEST PUSH1 0x40 MLOAD PUSH2 0x1D4 SWAP6 SWAP5 SWAP4 SWAP3 SWAP2 SWAP1 PUSH2 0xF03 JUMP JUMPDEST PUSH1 0x40 MLOAD DUP1 SWAP2 SUB SWAP1 RETURN JUMPDEST PUSH2 0x1F7 PUSH1 0x4 DUP1 CALLDATASIZE SUB DUP2 ADD SWAP1 PUSH2 0x1F2 SWAP2 SWAP1 PUSH2 0xCAB JUMP JUMPDEST PUSH2 0xA10 JUMP JUMPDEST PUSH1 0x40 MLOAD PUSH2 0x204 SWAP2 SWAP1 PUSH2 0xD0F JUMP JUMPDEST PUSH1 0x40 MLOAD DUP1 SWAP2 SUB SWAP1 RETURN JUMPDEST PUSH2 0x215 PUSH2 0xA45 JUMP JUMPDEST PUSH1 0x40 MLOAD PUSH2 0x222 SWAP2 SWAP1 PUSH2 0xE36 JUMP JUMPDEST PUSH1 0x40 MLOAD DUP1 SWAP2 SUB SWAP1 RETURN JUMPDEST PUSH1 0x0 PUSH1 0x3 PUSH1 0x0 DUP4 DUP2 MSTORE PUSH1 0x20 ADD SWAP1 DUP2 MSTORE PUSH1 0x20 ADD PUSH1 0x0 KECCAK256 SWAP1 POP DUP1 PUSH1 0x3 ADD PUSH1 0x0 DUP2 SLOAD DUP1 SWAP3 SWAP2 SWAP1 PUSH2 0x257 SWAP1 PUSH2 0x1046 JUMP JUMPDEST SWAP2 SWAP1 POP SSTORE POP POP POP JUMP JUMPDEST PUSH1 0x4 DUP2 DUP1 MLOAD PUSH1 0x20 DUP2 ADD DUP3 ADD DUP1 MLOAD DUP5 DUP3 MSTORE PUSH1 0x20 DUP4 ADD PUSH1 0x20 DUP6 ADD KECCAK256 DUP2 DUP4 MSTORE DUP1 SWAP6 POP POP POP POP POP POP PUSH1 0x0 SWAP2 POP SLOAD SWAP1 PUSH2 0x100 EXP SWAP1 DIV PUSH1 0xFF AND DUP2 JUMP JUMPDEST CALLER PUSH20 0xFFFFFFFFFFFFFFFFFFFFFFFFFFFFFFFFFFFFFFFF AND PUSH1 0x1 PUSH1 0x0 SWAP1 SLOAD SWAP1 PUSH2 0x100 EXP SWAP1 DIV PUSH20 0xFFFFFFFFFFFFFFFFFFFFFFFFFFFFFFFFFFFFFFFF AND PUSH20 0xFFFFFFFFFFFFFFFFFFFFFFFFFFFFFFFFFFFFFFFF AND EQ PUSH2 0x2F0 JUMPI PUSH1 0x0 DUP1 REVERT JUMPDEST PUSH1 0x0 PUSH1 0x3 PUSH1 0x0 PUSH1 0x2 PUSH1 0x0 DUP2 SLOAD DUP1 SWAP3 SWAP2 SWAP1 PUSH2 0x309 SWAP1 PUSH2 0x1046 JUMP JUMPDEST SWAP2 SWAP1 POP SSTORE DUP2 MSTORE PUSH1 0x20 ADD SWAP1 DUP2 MSTORE PUSH1 0x20 ADD PUSH1 0x0 KECCAK256 SWAP1 POP DUP5 DUP2 PUSH1 0x0 ADD SWAP1 DUP1 MLOAD SWAP1 PUSH1 0x20 ADD SWAP1 PUSH2 0x335 SWAP3 SWAP2 SWAP1 PUSH2 0xA4B JUMP JUMPDEST POP DUP4 DUP2 PUSH1 0x1 ADD SWAP1 DUP1 MLOAD SWAP1 PUSH1 0x20 ADD SWAP1 PUSH2 0x34E SWAP3 SWAP2 SWAP1 PUSH2 0xA4B JUMP JUMPDEST POP DUP3 DUP2 PUSH1 0x2 ADD DUP2 SWAP1 SSTORE POP PUSH1 0x0 DUP2 PUSH1 0x3 ADD DUP2 SWAP1 SSTORE POP DUP2 DUP2 PUSH1 0x4 ADD PUSH1 0x0 PUSH2 0x100 EXP DUP2 SLOAD DUP2 PUSH20 0xFFFFFFFFFFFFFFFFFFFFFFFFFFFFFFFFFFFFFFFF MUL NOT AND SWAP1 DUP4 PUSH20 0xFFFFFFFFFFFFFFFFFFFFFFFFFFFFFFFFFFFFFFFF AND MUL OR SWAP1 SSTORE POP PUSH1 0x1 PUSH1 0x4 DUP7 PUSH1 0x40 MLOAD PUSH2 0x3B7 SWAP2 SWAP1 PUSH2 0x10CB JUMP JUMPDEST SWAP1 DUP2 MSTORE PUSH1 0x20 ADD PUSH1 0x40 MLOAD DUP1 SWAP2 SUB SWAP1 KECCAK256 PUSH1 0x0 PUSH2 0x100 EXP DUP2 SLOAD DUP2 PUSH1 0xFF MUL NOT AND SWAP1 DUP4 ISZERO ISZERO MUL OR SWAP1 SSTORE POP POP POP POP POP POP JUMP JUMPDEST PUSH1 0x0 DUP1 PUSH1 0x3 PUSH1 0x0 DUP5 DUP2 MSTORE PUSH1 0x20 ADD SWAP1 DUP2 MSTORE PUSH1 0x20 ADD PUSH1 0x0 KECCAK256 PUSH1 0x40 MLOAD DUP1 PUSH1 0xA0 ADD PUSH1 0x40 MSTORE SWAP1 DUP2 PUSH1 0x0 DUP3 ADD DUP1 SLOAD PUSH2 0x414 SWAP1 PUSH2 0x1111 JUMP JUMPDEST DUP1 PUSH1 0x1F ADD PUSH1 0x20 DUP1 SWAP2 DIV MUL PUSH1 0x20 ADD PUSH1 0x40 MLOAD SWAP1 DUP2 ADD PUSH1 0x40 MSTORE DUP1 SWAP3 SWAP2 SWAP1 DUP2 DUP2 MSTORE PUSH1 0x20 ADD DUP3 DUP1 SLOAD PUSH2 0x440 SWAP1 PUSH2 0x1111 JUMP JUMPDEST DUP1 ISZERO PUSH2 0x48D JUMPI DUP1 PUSH1 0x1F LT PUSH2 0x462 JUMPI PUSH2 0x100 DUP1 DUP4 SLOAD DIV MUL DUP4 MSTORE SWAP2 PUSH1 0x20 ADD SWAP2 PUSH2 0x48D JUMP JUMPDEST DUP3 ADD SWAP2 SWAP1 PUSH1 0x0 MSTORE PUSH1 0x20 PUSH1 0x0 KECCAK256 SWAP1 JUMPDEST DUP2 SLOAD DUP2 MSTORE SWAP1 PUSH1 0x1 ADD SWAP1 PUSH1 0x20 ADD DUP1 DUP4 GT PUSH2 0x470 JUMPI DUP3 SWAP1 SUB PUSH1 0x1F AND DUP3 ADD SWAP2 JUMPDEST POP POP POP POP POP DUP2 MSTORE PUSH1 0x20 ADD PUSH1 0x1 DUP3 ADD DUP1 SLOAD PUSH2 0x4A6 SWAP1 PUSH2 0x1111 JUMP JUMPDEST DUP1 PUSH1 0x1F ADD PUSH1 0x20 DUP1 SWAP2 DIV MUL PUSH1 0x20 ADD PUSH1 0x40 MLOAD SWAP1 DUP2 ADD PUSH1 0x40 MSTORE DUP1 SWAP3 SWAP2 SWAP1 DUP2 DUP2 MSTORE PUSH1 0x20 ADD DUP3 DUP1 SLOAD PUSH2 0x4D2 SWAP1 PUSH2 0x1111 JUMP JUMPDEST DUP1 ISZERO PUSH2 0x51F JUMPI DUP1 PUSH1 0x1F LT PUSH2 0x4F4 JUMPI PUSH2 0x100 DUP1 DUP4 SLOAD DIV MUL DUP4 MSTORE SWAP2 PUSH1 0x20 ADD SWAP2 PUSH2 0x51F JUMP JUMPDEST DUP3 ADD SWAP2 SWAP1 PUSH1 0x0 MSTORE PUSH1 0x20 PUSH1 0x0 KECCAK256 SWAP1 JUMPDEST DUP2 SLOAD DUP2 MSTORE SWAP1 PUSH1 0x1 ADD SWAP1 PUSH1 0x20 ADD DUP1 DUP4 GT PUSH2 0x502 JUMPI DUP3 SWAP1 SUB PUSH1 0x1F AND DUP3 ADD SWAP2 JUMPDEST POP POP POP POP POP DUP2 MSTORE PUSH1 0x20 ADD PUSH1 0x2 DUP3 ADD SLOAD DUP2 MSTORE PUSH1 0x20 ADD PUSH1 0x3 DUP3 ADD SLOAD DUP2 MSTORE PUSH1 0x20 ADD PUSH1 0x4 DUP3 ADD PUSH1 0x0 SWAP1 SLOAD SWAP1 PUSH2 0x100 EXP SWAP1 DIV PUSH20 0xFFFFFFFFFFFFFFFFFFFFFFFFFFFFFFFFFFFFFFFF AND PUSH20 0xFFFFFFFFFFFFFFFFFFFFFFFFFFFFFFFFFFFFFFFF AND PUSH20 0xFFFFFFFFFFFFFFFFFFFFFFFFFFFFFFFFFFFFFFFF AND DUP2 MSTORE POP POP SWAP1 POP DUP1 PUSH1 0x40 ADD MLOAD SWAP2 POP POP SWAP2 SWAP1 POP JUMP JUMPDEST PUSH1 0x0 DUP1 SLOAD SWAP1 PUSH2 0x100 EXP SWAP1 DIV PUSH20 0xFFFFFFFFFFFFFFFFFFFFFFFFFFFFFFFFFFFFFFFF AND DUP2 JUMP JUMPDEST PUSH1 0x60 DUP1 PUSH1 0x0 DUP1 PUSH1 0x0 DUP1 PUSH1 0x3 PUSH1 0x0 DUP9 DUP2 MSTORE PUSH1 0x20 ADD SWAP1 DUP2 MSTORE PUSH1 0x20 ADD PUSH1 0x0 KECCAK256 PUSH1 0x40 MLOAD DUP1 PUSH1 0xA0 ADD PUSH1 0x40 MSTORE SWAP1 DUP2 PUSH1 0x0 DUP3 ADD DUP1 SLOAD PUSH2 0x5FC SWAP1 PUSH2 0x1111 JUMP JUMPDEST DUP1 PUSH1 0x1F ADD PUSH1 0x20 DUP1 SWAP2 DIV MUL PUSH1 0x20 ADD PUSH1 0x40 MLOAD SWAP1 DUP2 ADD PUSH1 0x40 MSTORE DUP1 SWAP3 SWAP2 SWAP1 DUP2 DUP2 MSTORE PUSH1 0x20 ADD DUP3 DUP1 SLOAD PUSH2 0x628 SWAP1 PUSH2 0x1111 JUMP JUMPDEST DUP1 ISZERO PUSH2 0x675 JUMPI DUP1 PUSH1 0x1F LT PUSH2 0x64A JUMPI PUSH2 0x100 DUP1 DUP4 SLOAD DIV MUL DUP4 MSTORE SWAP2 PUSH1 0x20 ADD SWAP2 PUSH2 0x675 JUMP JUMPDEST DUP3 ADD SWAP2 SWAP1 PUSH1 0x0 MSTORE PUSH1 0x20 PUSH1 0x0 KECCAK256 SWAP1 JUMPDEST DUP2 SLOAD DUP2 MSTORE SWAP1 PUSH1 0x1 ADD SWAP1 PUSH1 0x20 ADD DUP1 DUP4 GT PUSH2 0x658 JUMPI DUP3 SWAP1 SUB PUSH1 0x1F AND DUP3 ADD SWAP2 JUMPDEST POP POP POP POP POP DUP2 MSTORE PUSH1 0x20 ADD PUSH1 0x1 DUP3 ADD DUP1 SLOAD PUSH2 0x68E SWAP1 PUSH2 0x1111 JUMP JUMPDEST DUP1 PUSH1 0x1F ADD PUSH1 0x20 DUP1 SWAP2 DIV MUL PUSH1 0x20 ADD PUSH1 0x40 MLOAD SWAP1 DUP2 ADD PUSH1 0x40 MSTORE DUP1 SWAP3 SWAP2 SWAP1 DUP2 DUP2 MSTORE PUSH1 0x20 ADD DUP3 DUP1 SLOAD PUSH2 0x6BA SWAP1 PUSH2 0x1111 JUMP JUMPDEST DUP1 ISZERO PUSH2 0x707 JUMPI DUP1 PUSH1 0x1F LT PUSH2 0x6DC JUMPI PUSH2 0x100 DUP1 DUP4 SLOAD DIV MUL DUP4 MSTORE SWAP2 PUSH1 0x20 ADD SWAP2 PUSH2 0x707 JUMP JUMPDEST DUP3 ADD SWAP2 SWAP1 PUSH1 0x0 MSTORE PUSH1 0x20 PUSH1 0x0 KECCAK256 SWAP1 JUMPDEST DUP2 SLOAD DUP2 MSTORE SWAP1 PUSH1 0x1 ADD SWAP1 PUSH1 0x20 ADD DUP1 DUP4 GT PUSH2 0x6EA JUMPI DUP3 SWAP1 SUB PUSH1 0x1F AND DUP3 ADD SWAP2 JUMPDEST POP POP POP POP POP DUP2 MSTORE PUSH1 0x20 ADD PUSH1 0x2 DUP3 ADD SLOAD DUP2 MSTORE PUSH1 0x20 ADD PUSH1 0x3 DUP3 ADD SLOAD DUP2 MSTORE PUSH1 0x20 ADD PUSH1 0x4 DUP3 ADD PUSH1 0x0 SWAP1 SLOAD SWAP1 PUSH2 0x100 EXP SWAP1 DIV PUSH20 0xFFFFFFFFFFFFFFFFFFFFFFFFFFFFFFFFFFFFFFFF AND PUSH20 0xFFFFFFFFFFFFFFFFFFFFFFFFFFFFFFFFFFFFFFFF AND PUSH20 0xFFFFFFFFFFFFFFFFFFFFFFFFFFFFFFFFFFFFFFFF AND DUP2 MSTORE POP POP SWAP1 POP DUP1 PUSH1 0x0 ADD MLOAD DUP2 PUSH1 0x20 ADD MLOAD DUP3 PUSH1 0x40 ADD MLOAD DUP4 PUSH1 0x60 ADD MLOAD DUP5 PUSH1 0x80 ADD MLOAD SWAP6 POP SWAP6 POP SWAP6 POP SWAP6 POP SWAP6 POP POP SWAP2 SWAP4 SWAP6 SWAP1 SWAP3 SWAP5 POP JUMP JUMPDEST CALLER PUSH20 0xFFFFFFFFFFFFFFFFFFFFFFFFFFFFFFFFFFFFFFFF AND PUSH1 0x1 PUSH1 0x0 SWAP1 SLOAD SWAP1 PUSH2 0x100 EXP SWAP1 DIV PUSH20 0xFFFFFFFFFFFFFFFFFFFFFFFFFFFFFFFFFFFFFFFF AND PUSH20 0xFFFFFFFFFFFFFFFFFFFFFFFFFFFFFFFFFFFFFFFF AND EQ PUSH2 0x803 JUMPI PUSH1 0x0 DUP1 REVERT JUMPDEST PUSH1 0x0 PUSH1 0x3 PUSH1 0x0 DUP8 DUP2 MSTORE PUSH1 0x20 ADD SWAP1 DUP2 MSTORE PUSH1 0x20 ADD PUSH1 0x0 KECCAK256 SWAP1 POP DUP5 DUP2 PUSH1 0x0 ADD SWAP1 DUP1 MLOAD SWAP1 PUSH1 0x20 ADD SWAP1 PUSH2 0x832 SWAP3 SWAP2 SWAP1 PUSH2 0xA4B JUMP JUMPDEST POP DUP4 DUP2 PUSH1 0x1 ADD SWAP1 DUP1 MLOAD SWAP1 PUSH1 0x20 ADD SWAP1 PUSH2 0x84B SWAP3 SWAP2 SWAP1 PUSH2 0xA4B JUMP JUMPDEST POP DUP3 DUP2 PUSH1 0x2 ADD DUP2 SWAP1 SSTORE POP PUSH1 0x0 DUP2 PUSH1 0x3 ADD DUP2 SWAP1 SSTORE POP DUP2 DUP2 PUSH1 0x4 ADD PUSH1 0x0 PUSH2 0x100 EXP DUP2 SLOAD DUP2 PUSH20 0xFFFFFFFFFFFFFFFFFFFFFFFFFFFFFFFFFFFFFFFF MUL NOT AND SWAP1 DUP4 PUSH20 0xFFFFFFFFFFFFFFFFFFFFFFFFFFFFFFFFFFFFFFFF AND MUL OR SWAP1 SSTORE POP POP POP POP POP POP POP JUMP JUMPDEST PUSH1 0x3 PUSH1 0x20 MSTORE DUP1 PUSH1 0x0 MSTORE PUSH1 0x40 PUSH1 0x0 KECCAK256 PUSH1 0x0 SWAP2 POP SWAP1 POP DUP1 PUSH1 0x0 ADD DUP1 SLOAD PUSH2 0x8CD SWAP1 PUSH2 0x1111 JUMP JUMPDEST DUP1 PUSH1 0x1F ADD PUSH1 0x20 DUP1 SWAP2 DIV MUL PUSH1 0x20 ADD PUSH1 0x40 MLOAD SWAP1 DUP2 ADD PUSH1 0x40 MSTORE DUP1 SWAP3 SWAP2 SWAP1 DUP2 DUP2 MSTORE PUSH1 0x20 ADD DUP3 DUP1 SLOAD PUSH2 0x8F9 SWAP1 PUSH2 0x1111 JUMP JUMPDEST DUP1 ISZERO PUSH2 0x946 JUMPI DUP1 PUSH1 0x1F LT PUSH2 0x91B JUMPI PUSH2 0x100 DUP1 DUP4 SLOAD DIV MUL DUP4 MSTORE SWAP2 PUSH1 0x20 ADD SWAP2 PUSH2 0x946 JUMP JUMPDEST DUP3 ADD SWAP2 SWAP1 PUSH1 0x0 MSTORE PUSH1 0x20 PUSH1 0x0 KECCAK256 SWAP1 JUMPDEST DUP2 SLOAD DUP2 MSTORE SWAP1 PUSH1 0x1 ADD SWAP1 PUSH1 0x20 ADD DUP1 DUP4 GT PUSH2 0x929 JUMPI DUP3 SWAP1 SUB PUSH1 0x1F AND DUP3 ADD SWAP2 JUMPDEST POP POP POP POP POP SWAP1 DUP1 PUSH1 0x1 ADD DUP1 SLOAD PUSH2 0x95B SWAP1 PUSH2 0x1111 JUMP JUMPDEST DUP1 PUSH1 0x1F ADD PUSH1 0x20 DUP1 SWAP2 DIV MUL PUSH1 0x20 ADD PUSH1 0x40 MLOAD SWAP1 DUP2 ADD PUSH1 0x40 MSTORE DUP1 SWAP3 SWAP2 SWAP1 DUP2 DUP2 MSTORE PUSH1 0x20 ADD DUP3 DUP1 SLOAD PUSH2 0x987 SWAP1 PUSH2 0x1111 JUMP JUMPDEST DUP1 ISZERO PUSH2 0x9D4 JUMPI DUP1 PUSH1 0x1F LT PUSH2 0x9A9 JUMPI PUSH2 0x100 DUP1 DUP4 SLOAD DIV MUL DUP4 MSTORE SWAP2 PUSH1 0x20 ADD SWAP2 PUSH2 0x9D4 JUMP JUMPDEST DUP3 ADD SWAP2 SWAP1 PUSH1 0x0 MSTORE PUSH1 0x20 PUSH1 0x0 KECCAK256 SWAP1 JUMPDEST DUP2 SLOAD DUP2 MSTORE SWAP1 PUSH1 0x1 ADD SWAP1 PUSH1 0x20 ADD DUP1 DUP4 GT PUSH2 0x9B7 JUMPI DUP3 SWAP1 SUB PUSH1 0x1F AND DUP3 ADD SWAP2 JUMPDEST POP POP POP POP POP SWAP1 DUP1 PUSH1 0x2 ADD SLOAD SWAP1 DUP1 PUSH1 0x3 ADD SLOAD SWAP1 DUP1 PUSH1 0x4 ADD PUSH1 0x0 SWAP1 SLOAD SWAP1 PUSH2 0x100 EXP SWAP1 DIV PUSH20 0xFFFFFFFFFFFFFFFFFFFFFFFFFFFFFFFFFFFFFFFF AND SWAP1 POP DUP6 JUMP JUMPDEST PUSH1 0x0 PUSH1 0x4 DUP3 PUSH1 0x40 MLOAD PUSH2 0xA22 SWAP2 SWAP1 PUSH2 0x10CB JUMP JUMPDEST SWAP1 DUP2 MSTORE PUSH1 0x20 ADD PUSH1 0x40 MLOAD DUP1 SWAP2 SUB SWAP1 KECCAK256 PUSH1 0x0 SWAP1 SLOAD SWAP1 PUSH2 0x100 EXP SWAP1 DIV PUSH1 0xFF AND SWAP1 POP SWAP2 SWAP1 POP JUMP JUMPDEST PUSH1 0x2 SLOAD DUP2 JUMP JUMPDEST DUP3 DUP1 SLOAD PUSH2 0xA57 SWAP1 PUSH2 0x1111 JUMP JUMPDEST SWAP1 PUSH1 0x0 MSTORE PUSH1 0x20 PUSH1 0x0 KECCAK256 SWAP1 PUSH1 0x1F ADD PUSH1 0x20 SWAP1 DIV DUP2 ADD SWAP3 DUP3 PUSH2 0xA79 JUMPI PUSH1 0x0 DUP6 SSTORE PUSH2 0xAC0 JUMP JUMPDEST DUP3 PUSH1 0x1F LT PUSH2 0xA92 JUMPI DUP1 MLOAD PUSH1 0xFF NOT AND DUP4 DUP1 ADD OR DUP6 SSTORE PUSH2 0xAC0 JUMP JUMPDEST DUP3 DUP1 ADD PUSH1 0x1 ADD DUP6 SSTORE DUP3 ISZERO PUSH2 0xAC0 JUMPI SWAP2 DUP3 ADD JUMPDEST DUP3 DUP2 GT ISZERO PUSH2 0xABF JUMPI DUP3 MLOAD DUP3 SSTORE SWAP2 PUSH1 0x20 ADD SWAP2 SWAP1 PUSH1 0x1 ADD SWAP1 PUSH2 0xAA4 JUMP JUMPDEST JUMPDEST POP SWAP1 POP PUSH2 0xACD SWAP2 SWAP1 PUSH2 0xAD1 JUMP JUMPDEST POP SWAP1 JUMP JUMPDEST JUMPDEST DUP1 DUP3 GT ISZERO PUSH2 0xAEA JUMPI PUSH1 0x0 DUP2 PUSH1 0x0 SWAP1 SSTORE POP PUSH1 0x1 ADD PUSH2 0xAD2 JUMP JUMPDEST POP SWAP1 JUMP JUMPDEST PUSH1 0x0 PUSH1 0x40 MLOAD SWAP1 POP SWAP1 JUMP JUMPDEST PUSH1 0x0 DUP1 REVERT JUMPDEST PUSH1 0x0 DUP1 REVERT JUMPDEST PUSH1 0x0 DUP2 SWAP1 POP SWAP2 SWAP1 POP JUMP JUMPDEST PUSH2 0xB15 DUP2 PUSH2 0xB02 JUMP JUMPDEST DUP2 EQ PUSH2 0xB20 JUMPI PUSH1 0x0 DUP1 REVERT JUMPDEST POP JUMP JUMPDEST PUSH1 0x0 DUP2 CALLDATALOAD SWAP1 POP PUSH2 0xB32 DUP2 PUSH2 0xB0C JUMP JUMPDEST SWAP3 SWAP2 POP POP JUMP JUMPDEST PUSH1 0x0 PUSH1 0x20 DUP3 DUP5 SUB SLT ISZERO PUSH2 0xB4E JUMPI PUSH2 0xB4D PUSH2 0xAF8 JUMP JUMPDEST JUMPDEST PUSH1 0x0 PUSH2 0xB5C DUP5 DUP3 DUP6 ADD PUSH2 0xB23 JUMP JUMPDEST SWAP2 POP POP SWAP3 SWAP2 POP POP JUMP JUMPDEST PUSH1 0x0 DUP1 REVERT JUMPDEST PUSH1 0x0 DUP1 REVERT JUMPDEST PUSH1 0x0 PUSH1 0x1F NOT PUSH1 0x1F DUP4 ADD AND SWAP1 POP SWAP2 SWAP1 POP JUMP JUMPDEST PUSH32 0x4E487B7100000000000000000000000000000000000000000000000000000000 PUSH1 0x0 MSTORE PUSH1 0x41 PUSH1 0x4 MSTORE PUSH1 0x24 PUSH1 0x0 REVERT JUMPDEST PUSH2 0xBB8 DUP3 PUSH2 0xB6F JUMP JUMPDEST DUP2 ADD DUP2 DUP2 LT PUSH8 0xFFFFFFFFFFFFFFFF DUP3 GT OR ISZERO PUSH2 0xBD7 JUMPI PUSH2 0xBD6 PUSH2 0xB80 JUMP JUMPDEST JUMPDEST DUP1 PUSH1 0x40 MSTORE POP POP POP JUMP JUMPDEST PUSH1 0x0 PUSH2 0xBEA PUSH2 0xAEE JUMP JUMPDEST SWAP1 POP PUSH2 0xBF6 DUP3 DUP3 PUSH2 0xBAF JUMP JUMPDEST SWAP2 SWAP1 POP JUMP JUMPDEST PUSH1 0x0 PUSH8 0xFFFFFFFFFFFFFFFF DUP3 GT ISZERO PUSH2 0xC16 JUMPI PUSH2 0xC15 PUSH2 0xB80 JUMP JUMPDEST JUMPDEST PUSH2 0xC1F DUP3 PUSH2 0xB6F JUMP JUMPDEST SWAP1 POP PUSH1 0x20 DUP2 ADD SWAP1 POP SWAP2 SWAP1 POP JUMP JUMPDEST DUP3 DUP2 DUP4 CALLDATACOPY PUSH1 0x0 DUP4 DUP4 ADD MSTORE POP POP POP JUMP JUMPDEST PUSH1 0x0 PUSH2 0xC4E PUSH2 0xC49 DUP5 PUSH2 0xBFB JUMP JUMPDEST PUSH2 0xBE0 JUMP JUMPDEST SWAP1 POP DUP3 DUP2 MSTORE PUSH1 0x20 DUP2 ADD DUP5 DUP5 DUP5 ADD GT ISZERO PUSH2 0xC6A JUMPI PUSH2 0xC69 PUSH2 0xB6A JUMP JUMPDEST JUMPDEST PUSH2 0xC75 DUP5 DUP3 DUP6 PUSH2 0xC2C JUMP JUMPDEST POP SWAP4 SWAP3 POP POP POP JUMP JUMPDEST PUSH1 0x0 DUP3 PUSH1 0x1F DUP4 ADD SLT PUSH2 0xC92 JUMPI PUSH2 0xC91 PUSH2 0xB65 JUMP JUMPDEST JUMPDEST DUP2 CALLDATALOAD PUSH2 0xCA2 DUP5 DUP3 PUSH1 0x20 DUP7 ADD PUSH2 0xC3B JUMP JUMPDEST SWAP2 POP POP SWAP3 SWAP2 POP POP JUMP JUMPDEST PUSH1 0x0 PUSH1 0x20 DUP3 DUP5 SUB SLT ISZERO PUSH2 0xCC1 JUMPI PUSH2 0xCC0 PUSH2 0xAF8 JUMP JUMPDEST JUMPDEST PUSH1 0x0 DUP3 ADD CALLDATALOAD PUSH8 0xFFFFFFFFFFFFFFFF DUP2 GT ISZERO PUSH2 0xCDF JUMPI PUSH2 0xCDE PUSH2 0xAFD JUMP JUMPDEST JUMPDEST PUSH2 0xCEB DUP5 DUP3 DUP6 ADD PUSH2 0xC7D JUMP JUMPDEST SWAP2 POP POP SWAP3 SWAP2 POP POP JUMP JUMPDEST PUSH1 0x0 DUP2 ISZERO ISZERO SWAP1 POP SWAP2 SWAP1 POP JUMP JUMPDEST PUSH2 0xD09 DUP2 PUSH2 0xCF4 JUMP JUMPDEST DUP3 MSTORE POP POP JUMP JUMPDEST PUSH1 0x0 PUSH1 0x20 DUP3 ADD SWAP1 POP PUSH2 0xD24 PUSH1 0x0 DUP4 ADD DUP5 PUSH2 0xD00 JUMP JUMPDEST SWAP3 SWAP2 POP POP JUMP JUMPDEST PUSH1 0x0 PUSH20 0xFFFFFFFFFFFFFFFFFFFFFFFFFFFFFFFFFFFFFFFF DUP3 AND SWAP1 POP SWAP2 SWAP1 POP JUMP JUMPDEST PUSH1 0x0 PUSH2 0xD55 DUP3 PUSH2 0xD2A JUMP JUMPDEST SWAP1 POP SWAP2 SWAP1 POP JUMP JUMPDEST PUSH2 0xD65 DUP2 PUSH2 0xD4A JUMP JUMPDEST DUP2 EQ PUSH2 0xD70 JUMPI PUSH1 0x0 DUP1 REVERT JUMPDEST POP JUMP JUMPDEST PUSH1 0x0 DUP2 CALLDATALOAD SWAP1 POP PUSH2 0xD82 DUP2 PUSH2 0xD5C JUMP JUMPDEST SWAP3 SWAP2 POP POP JUMP JUMPDEST PUSH1 0x0 DUP1 PUSH1 0x0 DUP1 PUSH1 0x80 DUP6 DUP8 SUB SLT ISZERO PUSH2 0xDA2 JUMPI PUSH2 0xDA1 PUSH2 0xAF8 JUMP JUMPDEST JUMPDEST PUSH1 0x0 DUP6 ADD CALLDATALOAD PUSH8 0xFFFFFFFFFFFFFFFF DUP2 GT ISZERO PUSH2 0xDC0 JUMPI PUSH2 0xDBF PUSH2 0xAFD JUMP JUMPDEST JUMPDEST PUSH2 0xDCC DUP8 DUP3 DUP9 ADD PUSH2 0xC7D JUMP JUMPDEST SWAP5 POP POP PUSH1 0x20 DUP6 ADD CALLDATALOAD PUSH8 0xFFFFFFFFFFFFFFFF DUP2 GT ISZERO PUSH2 0xDED JUMPI PUSH2 0xDEC PUSH2 0xAFD JUMP JUMPDEST JUMPDEST PUSH2 0xDF9 DUP8 DUP3 DUP9 ADD PUSH2 0xC7D JUMP JUMPDEST SWAP4 POP POP PUSH1 0x40 PUSH2 0xE0A DUP8 DUP3 DUP9 ADD PUSH2 0xB23 JUMP JUMPDEST SWAP3 POP POP PUSH1 0x60 PUSH2 0xE1B DUP8 DUP3 DUP9 ADD PUSH2 0xD73 JUMP JUMPDEST SWAP2 POP POP SWAP3 SWAP6 SWAP2 SWAP5 POP SWAP3 POP JUMP JUMPDEST PUSH2 0xE30 DUP2 PUSH2 0xB02 JUMP JUMPDEST DUP3 MSTORE POP POP JUMP JUMPDEST PUSH1 0x0 PUSH1 0x20 DUP3 ADD SWAP1 POP PUSH2 0xE4B PUSH1 0x0 DUP4 ADD DUP5 PUSH2 0xE27 JUMP JUMPDEST SWAP3 SWAP2 POP POP JUMP JUMPDEST PUSH2 0xE5A DUP2 PUSH2 0xD4A JUMP JUMPDEST DUP3 MSTORE POP POP JUMP JUMPDEST PUSH1 0x0 PUSH1 0x20 DUP3 ADD SWAP1 POP PUSH2 0xE75 PUSH1 0x0 DUP4 ADD DUP5 PUSH2 0xE51 JUMP JUMPDEST SWAP3 SWAP2 POP POP JUMP JUMPDEST PUSH1 0x0 DUP2 MLOAD SWAP1 POP SWAP2 SWAP1 POP JUMP JUMPDEST PUSH1 0x0 DUP3 DUP3 MSTORE PUSH1 0x20 DUP3 ADD SWAP1 POP SWAP3 SWAP2 POP POP JUMP JUMPDEST PUSH1 0x0 JUMPDEST DUP4 DUP2 LT ISZERO PUSH2 0xEB5 JUMPI DUP1 DUP3 ADD MLOAD DUP2 DUP5 ADD MSTORE PUSH1 0x20 DUP2 ADD SWAP1 POP PUSH2 0xE9A JUMP JUMPDEST DUP4 DUP2 GT ISZERO PUSH2 0xEC4 JUMPI PUSH1 0x0 DUP5 DUP5 ADD MSTORE JUMPDEST POP POP POP POP JUMP JUMPDEST PUSH1 0x0 PUSH2 0xED5 DUP3 PUSH2 0xE7B JUMP JUMPDEST PUSH2 0xEDF DUP2 DUP6 PUSH2 0xE86 JUMP JUMPDEST SWAP4 POP PUSH2 0xEEF DUP2 DUP6 PUSH1 0x20 DUP7 ADD PUSH2 0xE97 JUMP JUMPDEST PUSH2 0xEF8 DUP2 PUSH2 0xB6F JUMP JUMPDEST DUP5 ADD SWAP2 POP POP SWAP3 SWAP2 POP POP JUMP JUMPDEST PUSH1 0x0 PUSH1 0xA0 DUP3 ADD SWAP1 POP DUP2 DUP2 SUB PUSH1 0x0 DUP4 ADD MSTORE PUSH2 0xF1D DUP2 DUP9 PUSH2 0xECA JUMP JUMPDEST SWAP1 POP DUP2 DUP2 SUB PUSH1 0x20 DUP4 ADD MSTORE PUSH2 0xF31 DUP2 DUP8 PUSH2 0xECA JUMP JUMPDEST SWAP1 POP PUSH2 0xF40 PUSH1 0x40 DUP4 ADD DUP7 PUSH2 0xE27 JUMP JUMPDEST PUSH2 0xF4D PUSH1 0x60 DUP4 ADD DUP6 PUSH2 0xE27 JUMP JUMPDEST PUSH2 0xF5A PUSH1 0x80 DUP4 ADD DUP5 PUSH2 0xE51 JUMP JUMPDEST SWAP7 SWAP6 POP POP POP POP POP POP JUMP JUMPDEST PUSH1 0x0 DUP1 PUSH1 0x0 DUP1 PUSH1 0x0 PUSH1 0xA0 DUP7 DUP9 SUB SLT ISZERO PUSH2 0xF80 JUMPI PUSH2 0xF7F PUSH2 0xAF8 JUMP JUMPDEST JUMPDEST PUSH1 0x0 PUSH2 0xF8E DUP9 DUP3 DUP10 ADD PUSH2 0xB23 JUMP JUMPDEST SWAP6 POP POP PUSH1 0x20 DUP7 ADD CALLDATALOAD PUSH8 0xFFFFFFFFFFFFFFFF DUP2 GT ISZERO PUSH2 0xFAF JUMPI PUSH2 0xFAE PUSH2 0xAFD JUMP JUMPDEST JUMPDEST PUSH2 0xFBB DUP9 DUP3 DUP10 ADD PUSH2 0xC7D JUMP JUMPDEST SWAP5 POP POP PUSH1 0x40 DUP7 ADD CALLDATALOAD PUSH8 0xFFFFFFFFFFFFFFFF DUP2 GT ISZERO PUSH2 0xFDC JUMPI PUSH2 0xFDB PUSH2 0xAFD JUMP JUMPDEST JUMPDEST PUSH2 0xFE8 DUP9 DUP3 DUP10 ADD PUSH2 0xC7D JUMP JUMPDEST SWAP4 POP POP PUSH1 0x60 PUSH2 0xFF9 DUP9 DUP3 DUP10 ADD PUSH2 0xB23 JUMP JUMPDEST SWAP3 POP POP PUSH1 0x80 PUSH2 0x100A DUP9 DUP3 DUP10 ADD PUSH2 0xD73 JUMP JUMPDEST SWAP2 POP POP SWAP3 SWAP6 POP SWAP3 SWAP6 SWAP1 SWAP4 POP JUMP JUMPDEST PUSH32 0x4E487B7100000000000000000000000000000000000000000000000000000000 PUSH1 0x0 MSTORE PUSH1 0x11 PUSH1 0x4 MSTORE PUSH1 0x24 PUSH1 0x0 REVERT JUMPDEST PUSH1 0x0 PUSH2 0x1051 DUP3 PUSH2 0xB02 JUMP JUMPDEST SWAP2 POP PUSH32 0xFFFFFFFFFFFFFFFFFFFFFFFFFFFFFFFFFFFFFFFFFFFFFFFFFFFFFFFFFFFFFFFF DUP3 EQ ISZERO PUSH2 0x1084 JUMPI PUSH2 0x1083 PUSH2 0x1017 JUMP JUMPDEST JUMPDEST PUSH1 0x1 DUP3 ADD SWAP1 POP SWAP2 SWAP1 POP JUMP JUMPDEST PUSH1 0x0 DUP2 SWAP1 POP SWAP3 SWAP2 POP POP JUMP JUMPDEST PUSH1 0x0 PUSH2 0x10A5 DUP3 PUSH2 0xE7B JUMP JUMPDEST PUSH2 0x10AF DUP2 DUP6 PUSH2 0x108F JUMP JUMPDEST SWAP4 POP PUSH2 0x10BF DUP2 DUP6 PUSH1 0x20 DUP7 ADD PUSH2 0xE97 JUMP JUMPDEST DUP1 DUP5 ADD SWAP2 POP POP SWAP3 SWAP2 POP POP JUMP JUMPDEST PUSH1 0x0 PUSH2 0x10D7 DUP3 DUP5 PUSH2 0x109A JUMP JUMPDEST SWAP2 POP DUP2 SWAP1 POP SWAP3 SWAP2 POP POP JUMP JUMPDEST PUSH32 0x4E487B7100000000000000000000000000000000000000000000000000000000 PUSH1 0x0 MSTORE PUSH1 0x22 PUSH1 0x4 MSTORE PUSH1 0x24 PUSH1 0x0 REVERT JUMPDEST PUSH1 0x0 PUSH1 0x2 DUP3 DIV SWAP1 POP PUSH1 0x1 DUP3 AND DUP1 PUSH2 0x1129 JUMPI PUSH1 0x7F DUP3 AND SWAP2 POP JUMPDEST PUSH1 0x20 DUP3 LT DUP2 EQ ISZERO PUSH2 0x113D JUMPI PUSH2 0x113C PUSH2 0x10E2 JUMP JUMPDEST JUMPDEST POP SWAP2 SWAP1 POP JUMP INVALID LOG2 PUSH5 0x6970667358 0x22 SLT KECCAK256 PUSH1 0x39 PUSH31 0xE0588D0B47D7A31ECF97F70613583EE1A3F04694A366944803C34D19646473 PUSH16 0x6C634300080A00336080604052348015 PUSH2 0x10 JUMPI PUSH1 0x0 DUP1 REVERT JUMPDEST POP PUSH1 0x40 MLOAD PUSH3 0x1055 CODESIZE SUB DUP1 PUSH3 0x1055 DUP4 CODECOPY DUP2 DUP2 ADD PUSH1 0x40 MSTORE DUP2 ADD SWAP1 PUSH2 0x34 SWAP2 SWAP1 PUSH2 0x11E JUMP JUMPDEST DUP1 PUSH1 0x0 DUP1 PUSH2 0x100 EXP DUP2 SLOAD DUP2 PUSH20 0xFFFFFFFFFFFFFFFFFFFFFFFFFFFFFFFFFFFFFFFF MUL NOT AND SWAP1 DUP4 PUSH20 0xFFFFFFFFFFFFFFFFFFFFFFFFFFFFFFFFFFFFFFFF AND MUL OR SWAP1 SSTORE POP CALLER PUSH1 0x1 PUSH1 0x0 PUSH2 0x100 EXP DUP2 SLOAD DUP2 PUSH20 0xFFFFFFFFFFFFFFFFFFFFFFFFFFFFFFFFFFFFFFFF MUL NOT AND SWAP1 DUP4 PUSH20 0xFFFFFFFFFFFFFFFFFFFFFFFFFFFFFFFFFFFFFFFF AND MUL OR SWAP1 SSTORE POP POP PUSH2 0x14B JUMP JUMPDEST PUSH1 0x0 DUP1 REVERT JUMPDEST PUSH1 0x0 PUSH20 0xFFFFFFFFFFFFFFFFFFFFFFFFFFFFFFFFFFFFFFFF DUP3 AND SWAP1 POP SWAP2 SWAP1 POP JUMP JUMPDEST PUSH1 0x0 PUSH2 0xEB DUP3 PUSH2 0xC0 JUMP JUMPDEST SWAP1 POP SWAP2 SWAP1 POP JUMP JUMPDEST PUSH2 0xFB DUP2 PUSH2 0xE0 JUMP JUMPDEST DUP2 EQ PUSH2 0x106 JUMPI PUSH1 0x0 DUP1 REVERT JUMPDEST POP JUMP JUMPDEST PUSH1 0x0 DUP2 MLOAD SWAP1 POP PUSH2 0x118 DUP2 PUSH2 0xF2 JUMP JUMPDEST SWAP3 SWAP2 POP POP JUMP JUMPDEST PUSH1 0x0 PUSH1 0x20 DUP3 DUP5 SUB SLT ISZERO PUSH2 0x134 JUMPI PUSH2 0x133 PUSH2 0xBB JUMP JUMPDEST JUMPDEST PUSH1 0x0 PUSH2 0x142 DUP5 DUP3 DUP6 ADD PUSH2 0x109 JUMP JUMPDEST SWAP2 POP POP SWAP3 SWAP2 POP POP JUMP JUMPDEST PUSH2 0xEFA DUP1 PUSH3 0x15B PUSH1 0x0 CODECOPY PUSH1 0x0 RETURN INVALID PUSH1 0x80 PUSH1 0x40 MSTORE CALLVALUE DUP1 ISZERO PUSH2 0x10 JUMPI PUSH1 0x0 DUP1 REVERT JUMPDEST POP PUSH1 0x4 CALLDATASIZE LT PUSH2 0xF5 JUMPI PUSH1 0x0 CALLDATALOAD PUSH1 0xE0 SHR DUP1 PUSH4 0x7C4DD96D GT PUSH2 0x97 JUMPI DUP1 PUSH4 0xE3E1F001 GT PUSH2 0x66 JUMPI DUP1 PUSH4 0xE3E1F001 EQ PUSH2 0x29A JUMPI DUP1 PUSH4 0xE597EF12 EQ PUSH2 0x2B8 JUMPI DUP1 PUSH4 0xECDED204 EQ PUSH2 0x2D4 JUMPI DUP1 PUSH4 0xF3C95C60 EQ PUSH2 0x304 JUMPI PUSH2 0xF5 JUMP JUMPDEST DUP1 PUSH4 0x7C4DD96D EQ PUSH2 0x210 JUMPI DUP1 PUSH4 0x8DA5CB5B EQ PUSH2 0x22C JUMPI DUP1 PUSH4 0xA5A9C518 EQ PUSH2 0x24A JUMPI DUP1 PUSH4 0xA87430BA EQ PUSH2 0x266 JUMPI PUSH2 0xF5 JUMP JUMPDEST DUP1 PUSH4 0x4172FB89 GT PUSH2 0xD3 JUMPI DUP1 PUSH4 0x4172FB89 EQ PUSH2 0x18A JUMPI DUP1 PUSH4 0x4420E486 EQ PUSH2 0x1BA JUMPI DUP1 PUSH4 0x4A09DB4F EQ PUSH2 0x1D6 JUMPI DUP1 PUSH4 0x6350280E EQ PUSH2 0x1F2 JUMPI PUSH2 0xF5 JUMP JUMPDEST DUP1 PUSH4 0x19AA98A3 EQ PUSH2 0xFA JUMPI DUP1 PUSH4 0x371E91CA EQ PUSH2 0x12A JUMPI DUP1 PUSH4 0x3CBDEC03 EQ PUSH2 0x15A JUMPI JUMPDEST PUSH1 0x0 DUP1 REVERT JUMPDEST PUSH2 0x114 PUSH1 0x4 DUP1 CALLDATASIZE SUB DUP2 ADD SWAP1 PUSH2 0x10F SWAP2 SWAP1 PUSH2 0xCA2 JUMP JUMPDEST PUSH2 0x334 JUMP JUMPDEST PUSH1 0x40 MLOAD PUSH2 0x121 SWAP2 SWAP1 PUSH2 0xCE8 JUMP JUMPDEST PUSH1 0x40 MLOAD DUP1 SWAP2 SUB SWAP1 RETURN JUMPDEST PUSH2 0x144 PUSH1 0x4 DUP1 CALLDATASIZE SUB DUP2 ADD SWAP1 PUSH2 0x13F SWAP2 SWAP1 PUSH2 0xD2F JUMP JUMPDEST PUSH2 0x385 JUMP JUMPDEST PUSH1 0x40 MLOAD PUSH2 0x151 SWAP2 SWAP1 PUSH2 0xD8A JUMP JUMPDEST PUSH1 0x40 MLOAD DUP1 SWAP2 SUB SWAP1 RETURN JUMPDEST PUSH2 0x174 PUSH1 0x4 DUP1 CALLDATASIZE SUB DUP2 ADD SWAP1 PUSH2 0x16F SWAP2 SWAP1 PUSH2 0xD2F JUMP JUMPDEST PUSH2 0x3ED JUMP JUMPDEST PUSH1 0x40 MLOAD PUSH2 0x181 SWAP2 SWAP1 PUSH2 0xD8A JUMP JUMPDEST PUSH1 0x40 MLOAD DUP1 SWAP2 SUB SWAP1 RETURN JUMPDEST PUSH2 0x1A4 PUSH1 0x4 DUP1 CALLDATASIZE SUB DUP2 ADD SWAP1 PUSH2 0x19F SWAP2 SWAP1 PUSH2 0xCA2 JUMP JUMPDEST PUSH2 0x41C JUMP JUMPDEST PUSH1 0x40 MLOAD PUSH2 0x1B1 SWAP2 SWAP1 PUSH2 0xD8A JUMP JUMPDEST PUSH1 0x40 MLOAD DUP1 SWAP2 SUB SWAP1 RETURN JUMPDEST PUSH2 0x1D4 PUSH1 0x4 DUP1 CALLDATASIZE SUB DUP2 ADD SWAP1 PUSH2 0x1CF SWAP2 SWAP1 PUSH2 0xCA2 JUMP JUMPDEST PUSH2 0x472 JUMP JUMPDEST STOP JUMPDEST PUSH2 0x1F0 PUSH1 0x4 DUP1 CALLDATASIZE SUB DUP2 ADD SWAP1 PUSH2 0x1EB SWAP2 SWAP1 PUSH2 0xD2F JUMP JUMPDEST PUSH2 0x623 JUMP JUMPDEST STOP JUMPDEST PUSH2 0x1FA PUSH2 0x79E JUMP JUMPDEST PUSH1 0x40 MLOAD PUSH2 0x207 SWAP2 SWAP1 PUSH2 0xCE8 JUMP JUMPDEST PUSH1 0x40 MLOAD DUP1 SWAP2 SUB SWAP1 RETURN JUMPDEST PUSH2 0x22A PUSH1 0x4 DUP1 CALLDATASIZE SUB DUP2 ADD SWAP1 PUSH2 0x225 SWAP2 SWAP1 PUSH2 0xCA2 JUMP JUMPDEST PUSH2 0x7A4 JUMP JUMPDEST STOP JUMPDEST PUSH2 0x234 PUSH2 0x859 JUMP JUMPDEST PUSH1 0x40 MLOAD PUSH2 0x241 SWAP2 SWAP1 PUSH2 0xDB4 JUMP JUMPDEST PUSH1 0x40 MLOAD DUP1 SWAP2 SUB SWAP1 RETURN JUMPDEST PUSH2 0x264 PUSH1 0x4 DUP1 CALLDATASIZE SUB DUP2 ADD SWAP1 PUSH2 0x25F SWAP2 SWAP1 PUSH2 0xD2F JUMP JUMPDEST PUSH2 0x87D JUMP JUMPDEST STOP JUMPDEST PUSH2 0x280 PUSH1 0x4 DUP1 CALLDATASIZE SUB DUP2 ADD SWAP1 PUSH2 0x27B SWAP2 SWAP1 PUSH2 0xCA2 JUMP JUMPDEST PUSH2 0xA12 JUMP JUMPDEST PUSH1 0x40 MLOAD PUSH2 0x291 SWAP6 SWAP5 SWAP4 SWAP3 SWAP2 SWAP1 PUSH2 0xDCF JUMP JUMPDEST PUSH1 0x40 MLOAD DUP1 SWAP2 SUB SWAP1 RETURN JUMPDEST PUSH2 0x2A2 PUSH2 0xA68 JUMP JUMPDEST PUSH1 0x40 MLOAD PUSH2 0x2AF SWAP2 SWAP1 PUSH2 0xCE8 JUMP JUMPDEST PUSH1 0x40 MLOAD DUP1 SWAP2 SUB SWAP1 RETURN JUMPDEST PUSH2 0x2D2 PUSH1 0x4 DUP1 CALLDATASIZE SUB DUP2 ADD SWAP1 PUSH2 0x2CD SWAP2 SWAP1 PUSH2 0xD2F JUMP JUMPDEST PUSH2 0xA6E JUMP JUMPDEST STOP JUMPDEST PUSH2 0x2EE PUSH1 0x4 DUP1 CALLDATASIZE SUB DUP2 ADD SWAP1 PUSH2 0x2E9 SWAP2 SWAP1 PUSH2 0xCA2 JUMP JUMPDEST PUSH2 0xBC9 JUMP JUMPDEST PUSH1 0x40 MLOAD PUSH2 0x2FB SWAP2 SWAP1 PUSH2 0xD8A JUMP JUMPDEST PUSH1 0x40 MLOAD DUP1 SWAP2 SUB SWAP1 RETURN JUMPDEST PUSH2 0x31E PUSH1 0x4 DUP1 CALLDATASIZE SUB DUP2 ADD SWAP1 PUSH2 0x319 SWAP2 SWAP1 PUSH2 0xCA2 JUMP JUMPDEST PUSH2 0xC1F JUMP JUMPDEST PUSH1 0x40 MLOAD PUSH2 0x32B SWAP2 SWAP1 PUSH2 0xD8A JUMP JUMPDEST PUSH1 0x40 MLOAD DUP1 SWAP2 SUB SWAP1 RETURN JUMPDEST PUSH1 0x0 DUP1 PUSH1 0x3 PUSH1 0x0 DUP5 PUSH20 0xFFFFFFFFFFFFFFFFFFFFFFFFFFFFFFFFFFFFFFFF AND PUSH20 0xFFFFFFFFFFFFFFFFFFFFFFFFFFFFFFFFFFFFFFFF AND DUP2 MSTORE PUSH1 0x20 ADD SWAP1 DUP2 MSTORE PUSH1 0x20 ADD PUSH1 0x0 KECCAK256 SWAP1 POP DUP1 PUSH1 0x2 ADD SLOAD SWAP2 POP POP SWAP2 SWAP1 POP JUMP JUMPDEST PUSH1 0x0 PUSH1 0x5 PUSH1 0x0 DUP5 PUSH20 0xFFFFFFFFFFFFFFFFFFFFFFFFFFFFFFFFFFFFFFFF AND PUSH20 0xFFFFFFFFFFFFFFFFFFFFFFFFFFFFFFFFFFFFFFFF AND DUP2 MSTORE PUSH1 0x20 ADD SWAP1 DUP2 MSTORE PUSH1 0x20 ADD PUSH1 0x0 KECCAK256 PUSH1 0x0 DUP4 DUP2 MSTORE PUSH1 0x20 ADD SWAP1 DUP2 MSTORE PUSH1 0x20 ADD PUSH1 0x0 KECCAK256 PUSH1 0x0 SWAP1 SLOAD SWAP1 PUSH2 0x100 EXP SWAP1 DIV PUSH1 0xFF AND SWAP1 POP SWAP3 SWAP2 POP POP JUMP JUMPDEST PUSH1 0x5 PUSH1 0x20 MSTORE DUP2 PUSH1 0x0 MSTORE PUSH1 0x40 PUSH1 0x0 KECCAK256 PUSH1 0x20 MSTORE DUP1 PUSH1 0x0 MSTORE PUSH1 0x40 PUSH1 0x0 KECCAK256 PUSH1 0x0 SWAP2 POP SWAP2 POP SWAP1 SLOAD SWAP1 PUSH2 0x100 EXP SWAP1 DIV PUSH1 0xFF AND DUP2 JUMP JUMPDEST PUSH1 0x0 PUSH1 0x7 PUSH1 0x0 DUP4 PUSH20 0xFFFFFFFFFFFFFFFFFFFFFFFFFFFFFFFFFFFFFFFF AND PUSH20 0xFFFFFFFFFFFFFFFFFFFFFFFFFFFFFFFFFFFFFFFF AND DUP2 MSTORE PUSH1 0x20 ADD SWAP1 DUP2 MSTORE PUSH1 0x20 ADD PUSH1 0x0 KECCAK256 PUSH1 0x0 SWAP1 SLOAD SWAP1 PUSH2 0x100 EXP SWAP1 DIV PUSH1 0xFF AND SWAP1 POP SWAP2 SWAP1 POP JUMP JUMPDEST CALLER PUSH20 0xFFFFFFFFFFFFFFFFFFFFFFFFFFFFFFFFFFFFFFFF AND PUSH1 0x1 PUSH1 0x0 SWAP1 SLOAD SWAP1 PUSH2 0x100 EXP SWAP1 DIV PUSH20 0xFFFFFFFFFFFFFFFFFFFFFFFFFFFFFFFFFFFFFFFF AND PUSH20 0xFFFFFFFFFFFFFFFFFFFFFFFFFFFFFFFFFFFFFFFF AND EQ PUSH2 0x4CC JUMPI PUSH1 0x0 DUP1 REVERT JUMPDEST PUSH1 0x4 PUSH1 0x0 DUP3 PUSH20 0xFFFFFFFFFFFFFFFFFFFFFFFFFFFFFFFFFFFFFFFF AND PUSH20 0xFFFFFFFFFFFFFFFFFFFFFFFFFFFFFFFFFFFFFFFF AND DUP2 MSTORE PUSH1 0x20 ADD SWAP1 DUP2 MSTORE PUSH1 0x20 ADD PUSH1 0x0 KECCAK256 PUSH1 0x0 SWAP1 SLOAD SWAP1 PUSH2 0x100 EXP SWAP1 DIV PUSH1 0xFF AND ISZERO PUSH2 0x523 JUMPI PUSH1 0x0 DUP1 REVERT JUMPDEST PUSH1 0x1 PUSH1 0x4 PUSH1 0x0 DUP4 PUSH20 0xFFFFFFFFFFFFFFFFFFFFFFFFFFFFFFFFFFFFFFFF AND PUSH20 0xFFFFFFFFFFFFFFFFFFFFFFFFFFFFFFFFFFFFFFFF AND DUP2 MSTORE PUSH1 0x20 ADD SWAP1 DUP2 MSTORE PUSH1 0x20 ADD PUSH1 0x0 KECCAK256 PUSH1 0x0 PUSH2 0x100 EXP DUP2 SLOAD DUP2 PUSH1 0xFF MUL NOT AND SWAP1 DUP4 ISZERO ISZERO MUL OR SWAP1 SSTORE POP PUSH1 0x0 PUSH1 0x3 PUSH1 0x0 DUP4 PUSH20 0xFFFFFFFFFFFFFFFFFFFFFFFFFFFFFFFFFFFFFFFF AND PUSH20 0xFFFFFFFFFFFFFFFFFFFFFFFFFFFFFFFFFFFFFFFF AND DUP2 MSTORE PUSH1 0x20 ADD SWAP1 DUP2 MSTORE PUSH1 0x20 ADD PUSH1 0x0 KECCAK256 SWAP1 POP DUP2 DUP2 PUSH1 0x0 ADD PUSH1 0x0 PUSH2 0x100 EXP DUP2 SLOAD DUP2 PUSH20 0xFFFFFFFFFFFFFFFFFFFFFFFFFFFFFFFFFFFFFFFF MUL NOT AND SWAP1 DUP4 PUSH20 0xFFFFFFFFFFFFFFFFFFFFFFFFFFFFFFFFFFFFFFFF AND MUL OR SWAP1 SSTORE POP PUSH1 0x0 DUP2 PUSH1 0x2 ADD DUP2 SWAP1 SSTORE POP PUSH1 0x0 DUP2 PUSH1 0x3 ADD DUP2 SWAP1 SSTORE POP PUSH1 0x0 DUP2 PUSH1 0x5 ADD DUP2 SWAP1 SSTORE POP POP POP JUMP JUMPDEST CALLER PUSH20 0xFFFFFFFFFFFFFFFFFFFFFFFFFFFFFFFFFFFFFFFF AND PUSH1 0x1 PUSH1 0x0 SWAP1 SLOAD SWAP1 PUSH2 0x100 EXP SWAP1 DIV PUSH20 0xFFFFFFFFFFFFFFFFFFFFFFFFFFFFFFFFFFFFFFFF AND PUSH20 0xFFFFFFFFFFFFFFFFFFFFFFFFFFFFFFFFFFFFFFFF AND EQ PUSH2 0x67D JUMPI PUSH1 0x0 DUP1 REVERT JUMPDEST PUSH1 0x4 PUSH1 0x0 DUP4 PUSH20 0xFFFFFFFFFFFFFFFFFFFFFFFFFFFFFFFFFFFFFFFF AND PUSH20 0xFFFFFFFFFFFFFFFFFFFFFFFFFFFFFFFFFFFFFFFF AND DUP2 MSTORE PUSH1 0x20 ADD SWAP1 DUP2 MSTORE PUSH1 0x20 ADD PUSH1 0x0 KECCAK256 PUSH1 0x0 SWAP1 SLOAD SWAP1 PUSH2 0x100 EXP SWAP1 DIV PUSH1 0xFF AND PUSH2 0x6D3 JUMPI PUSH1 0x0 DUP1 REVERT JUMPDEST PUSH1 0x0 PUSH1 0x3 PUSH1 0x0 DUP5 PUSH20 0xFFFFFFFFFFFFFFFFFFFFFFFFFFFFFFFFFFFFFFFF AND PUSH20 0xFFFFFFFFFFFFFFFFFFFFFFFFFFFFFFFFFFFFFFFF AND DUP2 MSTORE PUSH1 0x20 ADD SWAP1 DUP2 MSTORE PUSH1 0x20 ADD PUSH1 0x0 KECCAK256 SWAP1 POP PUSH1 0x0 PUSH1 0x5 PUSH1 0x0 DUP6 PUSH20 0xFFFFFFFFFFFFFFFFFFFFFFFFFFFFFFFFFFFFFFFF AND PUSH20 0xFFFFFFFFFFFFFFFFFFFFFFFFFFFFFFFFFFFFFFFF AND DUP2 MSTORE PUSH1 0x20 ADD SWAP1 DUP2 MSTORE PUSH1 0x20 ADD PUSH1 0x0 KECCAK256 PUSH1 0x0 DUP5 DUP2 MSTORE PUSH1 0x20 ADD SWAP1 DUP2 MSTORE PUSH1 0x20 ADD PUSH1 0x0 KECCAK256 PUSH1 0x0 PUSH2 0x100 EXP DUP2 SLOAD DUP2 PUSH1 0xFF MUL NOT AND SWAP1 DUP4 ISZERO ISZERO MUL OR SWAP1 SSTORE POP DUP1 PUSH1 0x2 ADD PUSH1 0x0 DUP2 SLOAD DUP1 SWAP3 SWAP2 SWAP1 PUSH2 0x794 SWAP1 PUSH2 0xE51 JUMP JUMPDEST SWAP2 SWAP1 POP SSTORE POP POP POP POP JUMP JUMPDEST PUSH1 0x6 SLOAD DUP2 JUMP JUMPDEST CALLER PUSH20 0xFFFFFFFFFFFFFFFFFFFFFFFFFFFFFFFFFFFFFFFF AND PUSH1 0x1 PUSH1 0x0 SWAP1 SLOAD SWAP1 PUSH2 0x100 EXP SWAP1 DIV PUSH20 0xFFFFFFFFFFFFFFFFFFFFFFFFFFFFFFFFFFFFFFFF AND PUSH20 0xFFFFFFFFFFFFFFFFFFFFFFFFFFFFFFFFFFFFFFFF AND EQ PUSH2 0x7FE JUMPI PUSH1 0x0 DUP1 REVERT JUMPDEST PUSH1 0x1 PUSH1 0x7 PUSH1 0x0 DUP4 PUSH20 0xFFFFFFFFFFFFFFFFFFFFFFFFFFFFFFFFFFFFFFFF AND PUSH20 0xFFFFFFFFFFFFFFFFFFFFFFFFFFFFFFFFFFFFFFFF AND DUP2 MSTORE PUSH1 0x20 ADD SWAP1 DUP2 MSTORE PUSH1 0x20 ADD PUSH1 0x0 KECCAK256 PUSH1 0x0 PUSH2 0x100 EXP DUP2 SLOAD DUP2 PUSH1 0xFF MUL NOT AND SWAP1 DUP4 ISZERO ISZERO MUL OR SWAP1 SSTORE POP POP JUMP JUMPDEST PUSH1 0x0 DUP1 SLOAD SWAP1 PUSH2 0x100 EXP SWAP1 DIV PUSH20 0xFFFFFFFFFFFFFFFFFFFFFFFFFFFFFFFFFFFFFFFF AND DUP2 JUMP JUMPDEST CALLER PUSH20 0xFFFFFFFFFFFFFFFFFFFFFFFFFFFFFFFFFFFFFFFF AND PUSH1 0x1 PUSH1 0x0 SWAP1 SLOAD SWAP1 PUSH2 0x100 EXP SWAP1 DIV PUSH20 0xFFFFFFFFFFFFFFFFFFFFFFFFFFFFFFFFFFFFFFFF AND PUSH20 0xFFFFFFFFFFFFFFFFFFFFFFFFFFFFFFFFFFFFFFFF AND EQ PUSH2 0x8D7 JUMPI PUSH1 0x0 DUP1 REVERT JUMPDEST PUSH1 0x4 PUSH1 0x0 DUP4 PUSH20 0xFFFFFFFFFFFFFFFFFFFFFFFFFFFFFFFFFFFFFFFF AND PUSH20 0xFFFFFFFFFFFFFFFFFFFFFFFFFFFFFFFFFFFFFFFF AND DUP2 MSTORE PUSH1 0x20 ADD SWAP1 DUP2 MSTORE PUSH1 0x20 ADD PUSH1 0x0 KECCAK256 PUSH1 0x0 SWAP1 SLOAD SWAP1 PUSH2 0x100 EXP SWAP1 DIV PUSH1 0xFF AND PUSH2 0x92D JUMPI PUSH1 0x0 DUP1 REVERT JUMPDEST PUSH1 0x0 PUSH1 0x3 PUSH1 0x0 DUP5 PUSH20 0xFFFFFFFFFFFFFFFFFFFFFFFFFFFFFFFFFFFFFFFF AND PUSH20 0xFFFFFFFFFFFFFFFFFFFFFFFFFFFFFFFFFFFFFFFF AND DUP2 MSTORE PUSH1 0x20 ADD SWAP1 DUP2 MSTORE PUSH1 0x20 ADD PUSH1 0x0 KECCAK256 SWAP1 POP PUSH1 0x1 PUSH1 0x5 PUSH1 0x0 DUP6 PUSH20 0xFFFFFFFFFFFFFFFFFFFFFFFFFFFFFFFFFFFFFFFF AND PUSH20 0xFFFFFFFFFFFFFFFFFFFFFFFFFFFFFFFFFFFFFFFF AND DUP2 MSTORE PUSH1 0x20 ADD SWAP1 DUP2 MSTORE PUSH1 0x20 ADD PUSH1 0x0 KECCAK256 PUSH1 0x0 DUP5 DUP2 MSTORE PUSH1 0x20 ADD SWAP1 DUP2 MSTORE PUSH1 0x20 ADD PUSH1 0x0 KECCAK256 PUSH1 0x0 PUSH2 0x100 EXP DUP2 SLOAD DUP2 PUSH1 0xFF MUL NOT AND SWAP1 DUP4 ISZERO ISZERO MUL OR SWAP1 SSTORE POP DUP1 PUSH1 0x2 ADD PUSH1 0x0 DUP2 SLOAD DUP1 SWAP3 SWAP2 SWAP1 PUSH2 0x9EE SWAP1 PUSH2 0xE7B JUMP JUMPDEST SWAP2 SWAP1 POP SSTORE POP DUP1 PUSH1 0x3 ADD PUSH1 0x0 DUP2 SLOAD DUP1 SWAP3 SWAP2 SWAP1 PUSH2 0xA08 SWAP1 PUSH2 0xE7B JUMP JUMPDEST SWAP2 SWAP1 POP SSTORE POP POP POP POP JUMP JUMPDEST PUSH1 0x3 PUSH1 0x20 MSTORE DUP1 PUSH1 0x0 MSTORE PUSH1 0x40 PUSH1 0x0 KECCAK256 PUSH1 0x0 SWAP2 POP SWAP1 POP DUP1 PUSH1 0x0 ADD PUSH1 0x0 SWAP1 SLOAD SWAP1 PUSH2 0x100 EXP SWAP1 DIV PUSH20 0xFFFFFFFFFFFFFFFFFFFFFFFFFFFFFFFFFFFFFFFF AND SWAP1 DUP1 PUSH1 0x1 ADD SLOAD SWAP1 DUP1 PUSH1 0x2 ADD SLOAD SWAP1 DUP1 PUSH1 0x3 ADD SLOAD SWAP1 DUP1 PUSH1 0x5 ADD SLOAD SWAP1 POP DUP6 JUMP JUMPDEST PUSH1 0x2 SLOAD DUP2 JUMP JUMPDEST CALLER PUSH20 0xFFFFFFFFFFFFFFFFFFFFFFFFFFFFFFFFFFFFFFFF AND PUSH1 0x1 PUSH1 0x0 SWAP1 SLOAD SWAP1 PUSH2 0x100 EXP SWAP1 DIV PUSH20 0xFFFFFFFFFFFFFFFFFFFFFFFFFFFFFFFFFFFFFFFF AND PUSH20 0xFFFFFFFFFFFFFFFFFFFFFFFFFFFFFFFFFFFFFFFF AND EQ PUSH2 0xAC8 JUMPI PUSH1 0x0 DUP1 REVERT JUMPDEST PUSH1 0x4 PUSH1 0x0 DUP4 PUSH20 0xFFFFFFFFFFFFFFFFFFFFFFFFFFFFFFFFFFFFFFFF AND PUSH20 0xFFFFFFFFFFFFFFFFFFFFFFFFFFFFFFFFFFFFFFFF AND DUP2 MSTORE PUSH1 0x20 ADD SWAP1 DUP2 MSTORE PUSH1 0x20 ADD PUSH1 0x0 KECCAK256 PUSH1 0x0 SWAP1 SLOAD SWAP1 PUSH2 0x100 EXP SWAP1 DIV PUSH1 0xFF AND PUSH2 0xB1E JUMPI PUSH1 0x0 DUP1 REVERT JUMPDEST PUSH1 0x0 PUSH1 0x3 PUSH1 0x0 DUP5 PUSH20 0xFFFFFFFFFFFFFFFFFFFFFFFFFFFFFFFFFFFFFFFF AND PUSH20 0xFFFFFFFFFFFFFFFFFFFFFFFFFFFFFFFFFFFFFFFF AND DUP2 MSTORE PUSH1 0x20 ADD SWAP1 DUP2 MSTORE PUSH1 0x20 ADD PUSH1 0x0 KECCAK256 SWAP1 POP DUP1 PUSH1 0x6 ADD DUP3 SWAP1 DUP1 PUSH1 0x1 DUP2 SLOAD ADD DUP1 DUP3 SSTORE DUP1 SWAP2 POP POP PUSH1 0x1 SWAP1 SUB SWAP1 PUSH1 0x0 MSTORE PUSH1 0x20 PUSH1 0x0 KECCAK256 ADD PUSH1 0x0 SWAP1 SWAP2 SWAP1 SWAP2 SWAP1 SWAP2 POP SSTORE DUP1 PUSH1 0x5 ADD SLOAD DUP2 PUSH1 0x7 ADD PUSH1 0x0 DUP5 DUP2 MSTORE PUSH1 0x20 ADD SWAP1 DUP2 MSTORE PUSH1 0x20 ADD PUSH1 0x0 KECCAK256 DUP2 SWAP1 SSTORE POP DUP1 PUSH1 0x5 ADD PUSH1 0x0 DUP2 SLOAD DUP1 SWAP3 SWAP2 SWAP1 PUSH2 0xBBF SWAP1 PUSH2 0xE7B JUMP JUMPDEST SWAP2 SWAP1 POP SSTORE POP POP POP POP JUMP JUMPDEST PUSH1 0x0 PUSH1 0x4 PUSH1 0x0 DUP4 PUSH20 0xFFFFFFFFFFFFFFFFFFFFFFFFFFFFFFFFFFFFFFFF AND PUSH20 0xFFFFFFFFFFFFFFFFFFFFFFFFFFFFFFFFFFFFFFFF AND DUP2 MSTORE PUSH1 0x20 ADD SWAP1 DUP2 MSTORE PUSH1 0x20 ADD PUSH1 0x0 KECCAK256 PUSH1 0x0 SWAP1 SLOAD SWAP1 PUSH2 0x100 EXP SWAP1 DIV PUSH1 0xFF AND SWAP1 POP SWAP2 SWAP1 POP JUMP JUMPDEST PUSH1 0x4 PUSH1 0x20 MSTORE DUP1 PUSH1 0x0 MSTORE PUSH1 0x40 PUSH1 0x0 KECCAK256 PUSH1 0x0 SWAP2 POP SLOAD SWAP1 PUSH2 0x100 EXP SWAP1 DIV PUSH1 0xFF AND DUP2 JUMP JUMPDEST PUSH1 0x0 DUP1 REVERT JUMPDEST PUSH1 0x0 PUSH20 0xFFFFFFFFFFFFFFFFFFFFFFFFFFFFFFFFFFFFFFFF DUP3 AND SWAP1 POP SWAP2 SWAP1 POP JUMP JUMPDEST PUSH1 0x0 PUSH2 0xC6F DUP3 PUSH2 0xC44 JUMP JUMPDEST SWAP1 POP SWAP2 SWAP1 POP JUMP JUMPDEST PUSH2 0xC7F DUP2 PUSH2 0xC64 JUMP JUMPDEST DUP2 EQ PUSH2 0xC8A JUMPI PUSH1 0x0 DUP1 REVERT JUMPDEST POP JUMP JUMPDEST PUSH1 0x0 DUP2 CALLDATALOAD SWAP1 POP PUSH2 0xC9C DUP2 PUSH2 0xC76 JUMP JUMPDEST SWAP3 SWAP2 POP POP JUMP JUMPDEST PUSH1 0x0 PUSH1 0x20 DUP3 DUP5 SUB SLT ISZERO PUSH2 0xCB8 JUMPI PUSH2 0xCB7 PUSH2 0xC3F JUMP JUMPDEST JUMPDEST PUSH1 0x0 PUSH2 0xCC6 DUP5 DUP3 DUP6 ADD PUSH2 0xC8D JUMP JUMPDEST SWAP2 POP POP SWAP3 SWAP2 POP POP JUMP JUMPDEST PUSH1 0x0 DUP2 SWAP1 POP SWAP2 SWAP1 POP JUMP JUMPDEST PUSH2 0xCE2 DUP2 PUSH2 0xCCF JUMP JUMPDEST DUP3 MSTORE POP POP JUMP JUMPDEST PUSH1 0x0 PUSH1 0x20 DUP3 ADD SWAP1 POP PUSH2 0xCFD PUSH1 0x0 DUP4 ADD DUP5 PUSH2 0xCD9 JUMP JUMPDEST SWAP3 SWAP2 POP POP JUMP JUMPDEST PUSH2 0xD0C DUP2 PUSH2 0xCCF JUMP JUMPDEST DUP2 EQ PUSH2 0xD17 JUMPI PUSH1 0x0 DUP1 REVERT JUMPDEST POP JUMP JUMPDEST PUSH1 0x0 DUP2 CALLDATALOAD SWAP1 POP PUSH2 0xD29 DUP2 PUSH2 0xD03 JUMP JUMPDEST SWAP3 SWAP2 POP POP JUMP JUMPDEST PUSH1 0x0 DUP1 PUSH1 0x40 DUP4 DUP6 SUB SLT ISZERO PUSH2 0xD46 JUMPI PUSH2 0xD45 PUSH2 0xC3F JUMP JUMPDEST JUMPDEST PUSH1 0x0 PUSH2 0xD54 DUP6 DUP3 DUP7 ADD PUSH2 0xC8D JUMP JUMPDEST SWAP3 POP POP PUSH1 0x20 PUSH2 0xD65 DUP6 DUP3 DUP7 ADD PUSH2 0xD1A JUMP JUMPDEST SWAP2 POP POP SWAP3 POP SWAP3 SWAP1 POP JUMP JUMPDEST PUSH1 0x0 DUP2 ISZERO ISZERO SWAP1 POP SWAP2 SWAP1 POP JUMP JUMPDEST PUSH2 0xD84 DUP2 PUSH2 0xD6F JUMP JUMPDEST DUP3 MSTORE POP POP JUMP JUMPDEST PUSH1 0x0 PUSH1 0x20 DUP3 ADD SWAP1 POP PUSH2 0xD9F PUSH1 0x0 DUP4 ADD DUP5 PUSH2 0xD7B JUMP JUMPDEST SWAP3 SWAP2 POP POP JUMP JUMPDEST PUSH2 0xDAE DUP2 PUSH2 0xC64 JUMP JUMPDEST DUP3 MSTORE POP POP JUMP JUMPDEST PUSH1 0x0 PUSH1 0x20 DUP3 ADD SWAP1 POP PUSH2 0xDC9 PUSH1 0x0 DUP4 ADD DUP5 PUSH2 0xDA5 JUMP JUMPDEST SWAP3 SWAP2 POP POP JUMP JUMPDEST PUSH1 0x0 PUSH1 0xA0 DUP3 ADD SWAP1 POP PUSH2 0xDE4 PUSH1 0x0 DUP4 ADD DUP9 PUSH2 0xDA5 JUMP JUMPDEST PUSH2 0xDF1 PUSH1 0x20 DUP4 ADD DUP8 PUSH2 0xCD9 JUMP JUMPDEST PUSH2 0xDFE PUSH1 0x40 DUP4 ADD DUP7 PUSH2 0xCD9 JUMP JUMPDEST PUSH2 0xE0B PUSH1 0x60 DUP4 ADD DUP6 PUSH2 0xCD9 JUMP JUMPDEST PUSH2 0xE18 PUSH1 0x80 DUP4 ADD DUP5 PUSH2 0xCD9 JUMP JUMPDEST SWAP7 SWAP6 POP POP POP POP POP POP JUMP JUMPDEST PUSH32 0x4E487B7100000000000000000000000000000000000000000000000000000000 PUSH1 0x0 MSTORE PUSH1 0x11 PUSH1 0x4 MSTORE PUSH1 0x24 PUSH1 0x0 REVERT JUMPDEST PUSH1 0x0 PUSH2 0xE5C DUP3 PUSH2 0xCCF JUMP JUMPDEST SWAP2 POP PUSH1 0x0 DUP3 EQ ISZERO PUSH2 0xE70 JUMPI PUSH2 0xE6F PUSH2 0xE22 JUMP JUMPDEST JUMPDEST PUSH1 0x1 DUP3 SUB SWAP1 POP SWAP2 SWAP1 POP JUMP JUMPDEST PUSH1 0x0 PUSH2 0xE86 DUP3 PUSH2 0xCCF JUMP JUMPDEST SWAP2 POP PUSH32 0xFFFFFFFFFFFFFFFFFFFFFFFFFFFFFFFFFFFFFFFFFFFFFFFFFFFFFFFFFFFFFFFF DUP3 EQ ISZERO PUSH2 0xEB9 JUMPI PUSH2 0xEB8 PUSH2 0xE22 JUMP JUMPDEST JUMPDEST PUSH1 0x1 DUP3 ADD SWAP1 POP SWAP2 SWAP1 POP JUMP INVALID LOG2 PUSH5 0x6970667358 0x22 SLT KECCAK256 0x2E DUP13 0x5E PUSH2 0x787C SMOD DIV 0x5D 0xC0 0xE9 PUSH10 0xE3AB27634EC2D54E98D9 0xCC 0xC7 DUP8 0xD8 0xE8 0xAF GAS 0x5F DIV PUSH8 0x64736F6C63430008 EXP STOP CALLER PUSH1 0x80 PUSH1 0x40 MSTORE CALLVALUE DUP1 ISZERO PUSH3 0x11 JUMPI PUSH1 0x0 DUP1 REVERT JUMPDEST POP PUSH1 0x40 MLOAD PUSH3 0x117A CODESIZE SUB DUP1 PUSH3 0x117A DUP4 CODECOPY DUP2 DUP2 ADD PUSH1 0x40 MSTORE DUP2 ADD SWAP1 PUSH3 0x37 SWAP2 SWAP1 PUSH3 0x129 JUMP JUMPDEST DUP1 PUSH1 0x0 DUP1 PUSH2 0x100 EXP DUP2 SLOAD DUP2 PUSH20 0xFFFFFFFFFFFFFFFFFFFFFFFFFFFFFFFFFFFFFFFF MUL NOT AND SWAP1 DUP4 PUSH20 0xFFFFFFFFFFFFFFFFFFFFFFFFFFFFFFFFFFFFFFFF AND MUL OR SWAP1 SSTORE POP CALLER PUSH1 0x1 PUSH1 0x0 PUSH2 0x100 EXP DUP2 SLOAD DUP2 PUSH20 0xFFFFFFFFFFFFFFFFFFFFFFFFFFFFFFFFFFFFFFFF MUL NOT AND SWAP1 DUP4 PUSH20 0xFFFFFFFFFFFFFFFFFFFFFFFFFFFFFFFFFFFFFFFF AND MUL OR SWAP1 SSTORE POP POP PUSH3 0x15B JUMP JUMPDEST PUSH1 0x0 DUP1 REVERT JUMPDEST PUSH1 0x0 PUSH20 0xFFFFFFFFFFFFFFFFFFFFFFFFFFFFFFFFFFFFFFFF DUP3 AND SWAP1 POP SWAP2 SWAP1 POP JUMP JUMPDEST PUSH1 0x0 PUSH3 0xF1 DUP3 PUSH3 0xC4 JUMP JUMPDEST SWAP1 POP SWAP2 SWAP1 POP JUMP JUMPDEST PUSH3 0x103 DUP2 PUSH3 0xE4 JUMP JUMPDEST DUP2 EQ PUSH3 0x10F JUMPI PUSH1 0x0 DUP1 REVERT JUMPDEST POP JUMP JUMPDEST PUSH1 0x0 DUP2 MLOAD SWAP1 POP PUSH3 0x123 DUP2 PUSH3 0xF8 JUMP JUMPDEST SWAP3 SWAP2 POP POP JUMP JUMPDEST PUSH1 0x0 PUSH1 0x20 DUP3 DUP5 SUB SLT ISZERO PUSH3 0x142 JUMPI PUSH3 0x141 PUSH3 0xBF JUMP JUMPDEST JUMPDEST PUSH1 0x0 PUSH3 0x152 DUP5 DUP3 DUP6 ADD PUSH3 0x112 JUMP JUMPDEST SWAP2 POP POP SWAP3 SWAP2 POP POP JUMP JUMPDEST PUSH2 0x100F DUP1 PUSH3 0x16B PUSH1 0x0 CODECOPY PUSH1 0x0 RETURN INVALID PUSH1 0x80 PUSH1 0x40 MSTORE CALLVALUE DUP1 ISZERO PUSH2 0x10 JUMPI PUSH1 0x0 DUP1 REVERT JUMPDEST POP PUSH1 0x4 CALLDATASIZE LT PUSH2 0xCF JUMPI PUSH1 0x0 CALLDATALOAD PUSH1 0xE0 SHR DUP1 PUSH4 0x921C47B1 GT PUSH2 0x8C JUMPI DUP1 PUSH4 0xAB21A2BE GT PUSH2 0x66 JUMPI DUP1 PUSH4 0xAB21A2BE EQ PUSH2 0x252 JUMPI DUP1 PUSH4 0xCA5140C9 EQ PUSH2 0x26E JUMPI DUP1 PUSH4 0xEF228C92 EQ PUSH2 0x28A JUMPI DUP1 PUSH4 0xF6B4DFB4 EQ PUSH2 0x2A6 JUMPI PUSH2 0xCF JUMP JUMPDEST DUP1 PUSH4 0x921C47B1 EQ PUSH2 0x1D4 JUMPI DUP1 PUSH4 0x98AF1F07 EQ PUSH2 0x1F2 JUMPI DUP1 PUSH4 0xA46D8AC7 EQ PUSH2 0x222 JUMPI PUSH2 0xCF JUMP JUMPDEST DUP1 PUSH4 0x1CE06944 EQ PUSH2 0xD4 JUMPI DUP1 PUSH4 0x3B2F7118 EQ PUSH2 0x104 JUMPI DUP1 PUSH4 0x67615AD5 EQ PUSH2 0x134 JUMPI DUP1 PUSH4 0x83B65CB4 EQ PUSH2 0x164 JUMPI DUP1 PUSH4 0x8DA5CB5B EQ PUSH2 0x19A JUMPI DUP1 PUSH4 0x8DBBFBDE EQ PUSH2 0x1B8 JUMPI JUMPDEST PUSH1 0x0 DUP1 REVERT JUMPDEST PUSH2 0xEE PUSH1 0x4 DUP1 CALLDATASIZE SUB DUP2 ADD SWAP1 PUSH2 0xE9 SWAP2 SWAP1 PUSH2 0xC77 JUMP JUMPDEST PUSH2 0x2C4 JUMP JUMPDEST PUSH1 0x40 MLOAD PUSH2 0xFB SWAP2 SWAP1 PUSH2 0xCB3 JUMP JUMPDEST PUSH1 0x40 MLOAD DUP1 SWAP2 SUB SWAP1 RETURN JUMPDEST PUSH2 0x11E PUSH1 0x4 DUP1 CALLDATASIZE SUB DUP2 ADD SWAP1 PUSH2 0x119 SWAP2 SWAP1 PUSH2 0xC77 JUMP JUMPDEST PUSH2 0x3E3 JUMP JUMPDEST PUSH1 0x40 MLOAD PUSH2 0x12B SWAP2 SWAP1 PUSH2 0xD0F JUMP JUMPDEST PUSH1 0x40 MLOAD DUP1 SWAP2 SUB SWAP1 RETURN JUMPDEST PUSH2 0x14E PUSH1 0x4 DUP1 CALLDATASIZE SUB DUP2 ADD SWAP1 PUSH2 0x149 SWAP2 SWAP1 PUSH2 0xC77 JUMP JUMPDEST PUSH2 0x502 JUMP JUMPDEST PUSH1 0x40 MLOAD PUSH2 0x15B SWAP2 SWAP1 PUSH2 0xCB3 JUMP JUMPDEST PUSH1 0x40 MLOAD DUP1 SWAP2 SUB SWAP1 RETURN JUMPDEST PUSH2 0x17E PUSH1 0x4 DUP1 CALLDATASIZE SUB DUP2 ADD SWAP1 PUSH2 0x179 SWAP2 SWAP1 PUSH2 0xC77 JUMP JUMPDEST PUSH2 0x621 JUMP JUMPDEST PUSH1 0x40 MLOAD PUSH2 0x191 SWAP8 SWAP7 SWAP6 SWAP5 SWAP4 SWAP3 SWAP2 SWAP1 PUSH2 0xD45 JUMP JUMPDEST PUSH1 0x40 MLOAD DUP1 SWAP2 SUB SWAP1 RETURN JUMPDEST PUSH2 0x1A2 PUSH2 0x6B0 JUMP JUMPDEST PUSH1 0x40 MLOAD PUSH2 0x1AF SWAP2 SWAP1 PUSH2 0xD0F JUMP JUMPDEST PUSH1 0x40 MLOAD DUP1 SWAP2 SUB SWAP1 RETURN JUMPDEST PUSH2 0x1D2 PUSH1 0x4 DUP1 CALLDATASIZE SUB DUP2 ADD SWAP1 PUSH2 0x1CD SWAP2 SWAP1 PUSH2 0xDB4 JUMP JUMPDEST PUSH2 0x6D4 JUMP JUMPDEST STOP JUMPDEST PUSH2 0x1DC PUSH2 0x76D JUMP JUMPDEST PUSH1 0x40 MLOAD PUSH2 0x1E9 SWAP2 SWAP1 PUSH2 0xCB3 JUMP JUMPDEST PUSH1 0x40 MLOAD DUP1 SWAP2 SUB SWAP1 RETURN JUMPDEST PUSH2 0x20C PUSH1 0x4 DUP1 CALLDATASIZE SUB DUP2 ADD SWAP1 PUSH2 0x207 SWAP2 SWAP1 PUSH2 0xC77 JUMP JUMPDEST PUSH2 0x773 JUMP JUMPDEST PUSH1 0x40 MLOAD PUSH2 0x219 SWAP2 SWAP1 PUSH2 0xE07 JUMP JUMPDEST PUSH1 0x40 MLOAD DUP1 SWAP2 SUB SWAP1 RETURN JUMPDEST PUSH2 0x23C PUSH1 0x4 DUP1 CALLDATASIZE SUB DUP2 ADD SWAP1 PUSH2 0x237 SWAP2 SWAP1 PUSH2 0xE4E JUMP JUMPDEST PUSH2 0x892 JUMP JUMPDEST PUSH1 0x40 MLOAD PUSH2 0x249 SWAP2 SWAP1 PUSH2 0xCB3 JUMP JUMPDEST PUSH1 0x40 MLOAD DUP1 SWAP2 SUB SWAP1 RETURN JUMPDEST PUSH2 0x26C PUSH1 0x4 DUP1 CALLDATASIZE SUB DUP2 ADD SWAP1 PUSH2 0x267 SWAP2 SWAP1 PUSH2 0xEB5 JUMP JUMPDEST PUSH2 0x9F8 JUMP JUMPDEST STOP JUMPDEST PUSH2 0x288 PUSH1 0x4 DUP1 CALLDATASIZE SUB DUP2 ADD SWAP1 PUSH2 0x283 SWAP2 SWAP1 PUSH2 0xC77 JUMP JUMPDEST PUSH2 0xAC1 JUMP JUMPDEST STOP JUMPDEST PUSH2 0x2A4 PUSH1 0x4 DUP1 CALLDATASIZE SUB DUP2 ADD SWAP1 PUSH2 0x29F SWAP2 SWAP1 PUSH2 0xF21 JUMP JUMPDEST PUSH2 0xB74 JUMP JUMPDEST STOP JUMPDEST PUSH2 0x2AE PUSH2 0xC16 JUMP JUMPDEST PUSH1 0x40 MLOAD PUSH2 0x2BB SWAP2 SWAP1 PUSH2 0xD0F JUMP JUMPDEST PUSH1 0x40 MLOAD DUP1 SWAP2 SUB SWAP1 RETURN JUMPDEST PUSH1 0x0 DUP1 PUSH1 0x3 PUSH1 0x0 DUP5 DUP2 MSTORE PUSH1 0x20 ADD SWAP1 DUP2 MSTORE PUSH1 0x20 ADD PUSH1 0x0 KECCAK256 PUSH1 0x40 MLOAD DUP1 PUSH1 0xE0 ADD PUSH1 0x40 MSTORE SWAP1 DUP2 PUSH1 0x0 DUP3 ADD SLOAD DUP2 MSTORE PUSH1 0x20 ADD PUSH1 0x1 DUP3 ADD PUSH1 0x0 SWAP1 SLOAD SWAP1 PUSH2 0x100 EXP SWAP1 DIV PUSH20 0xFFFFFFFFFFFFFFFFFFFFFFFFFFFFFFFFFFFFFFFF AND PUSH20 0xFFFFFFFFFFFFFFFFFFFFFFFFFFFFFFFFFFFFFFFF AND PUSH20 0xFFFFFFFFFFFFFFFFFFFFFFFFFFFFFFFFFFFFFFFF AND DUP2 MSTORE PUSH1 0x20 ADD PUSH1 0x2 DUP3 ADD SLOAD DUP2 MSTORE PUSH1 0x20 ADD PUSH1 0x3 DUP3 ADD PUSH1 0x0 SWAP1 SLOAD SWAP1 PUSH2 0x100 EXP SWAP1 DIV PUSH20 0xFFFFFFFFFFFFFFFFFFFFFFFFFFFFFFFFFFFFFFFF AND PUSH20 0xFFFFFFFFFFFFFFFFFFFFFFFFFFFFFFFFFFFFFFFF AND PUSH20 0xFFFFFFFFFFFFFFFFFFFFFFFFFFFFFFFFFFFFFFFF AND DUP2 MSTORE PUSH1 0x20 ADD PUSH1 0x3 DUP3 ADD PUSH1 0x14 SWAP1 SLOAD SWAP1 PUSH2 0x100 EXP SWAP1 DIV PUSH1 0xFF AND ISZERO ISZERO ISZERO ISZERO DUP2 MSTORE PUSH1 0x20 ADD PUSH1 0x4 DUP3 ADD SLOAD DUP2 MSTORE PUSH1 0x20 ADD PUSH1 0x5 DUP3 ADD SLOAD DUP2 MSTORE POP POP SWAP1 POP DUP1 PUSH1 0xC0 ADD MLOAD SWAP2 POP POP SWAP2 SWAP1 POP JUMP JUMPDEST PUSH1 0x0 DUP1 PUSH1 0x3 PUSH1 0x0 DUP5 DUP2 MSTORE PUSH1 0x20 ADD SWAP1 DUP2 MSTORE PUSH1 0x20 ADD PUSH1 0x0 KECCAK256 PUSH1 0x40 MLOAD DUP1 PUSH1 0xE0 ADD PUSH1 0x40 MSTORE SWAP1 DUP2 PUSH1 0x0 DUP3 ADD SLOAD DUP2 MSTORE PUSH1 0x20 ADD PUSH1 0x1 DUP3 ADD PUSH1 0x0 SWAP1 SLOAD SWAP1 PUSH2 0x100 EXP SWAP1 DIV PUSH20 0xFFFFFFFFFFFFFFFFFFFFFFFFFFFFFFFFFFFFFFFF AND PUSH20 0xFFFFFFFFFFFFFFFFFFFFFFFFFFFFFFFFFFFFFFFF AND PUSH20 0xFFFFFFFFFFFFFFFFFFFFFFFFFFFFFFFFFFFFFFFF AND DUP2 MSTORE PUSH1 0x20 ADD PUSH1 0x2 DUP3 ADD SLOAD DUP2 MSTORE PUSH1 0x20 ADD PUSH1 0x3 DUP3 ADD PUSH1 0x0 SWAP1 SLOAD SWAP1 PUSH2 0x100 EXP SWAP1 DIV PUSH20 0xFFFFFFFFFFFFFFFFFFFFFFFFFFFFFFFFFFFFFFFF AND PUSH20 0xFFFFFFFFFFFFFFFFFFFFFFFFFFFFFFFFFFFFFFFF AND PUSH20 0xFFFFFFFFFFFFFFFFFFFFFFFFFFFFFFFFFFFFFFFF AND DUP2 MSTORE PUSH1 0x20 ADD PUSH1 0x3 DUP3 ADD PUSH1 0x14 SWAP1 SLOAD SWAP1 PUSH2 0x100 EXP SWAP1 DIV PUSH1 0xFF AND ISZERO ISZERO ISZERO ISZERO DUP2 MSTORE PUSH1 0x20 ADD PUSH1 0x4 DUP3 ADD SLOAD DUP2 MSTORE PUSH1 0x20 ADD PUSH1 0x5 DUP3 ADD SLOAD DUP2 MSTORE POP POP SWAP1 POP DUP1 PUSH1 0x60 ADD MLOAD SWAP2 POP POP SWAP2 SWAP1 POP JUMP JUMPDEST PUSH1 0x0 DUP1 PUSH1 0x3 PUSH1 0x0 DUP5 DUP2 MSTORE PUSH1 0x20 ADD SWAP1 DUP2 MSTORE PUSH1 0x20 ADD PUSH1 0x0 KECCAK256 PUSH1 0x40 MLOAD DUP1 PUSH1 0xE0 ADD PUSH1 0x40 MSTORE SWAP1 DUP2 PUSH1 0x0 DUP3 ADD SLOAD DUP2 MSTORE PUSH1 0x20 ADD PUSH1 0x1 DUP3 ADD PUSH1 0x0 SWAP1 SLOAD SWAP1 PUSH2 0x100 EXP SWAP1 DIV PUSH20 0xFFFFFFFFFFFFFFFFFFFFFFFFFFFFFFFFFFFFFFFF AND PUSH20 0xFFFFFFFFFFFFFFFFFFFFFFFFFFFFFFFFFFFFFFFF AND PUSH20 0xFFFFFFFFFFFFFFFFFFFFFFFFFFFFFFFFFFFFFFFF AND DUP2 MSTORE PUSH1 0x20 ADD PUSH1 0x2 DUP3 ADD SLOAD DUP2 MSTORE PUSH1 0x20 ADD PUSH1 0x3 DUP3 ADD PUSH1 0x0 SWAP1 SLOAD SWAP1 PUSH2 0x100 EXP SWAP1 DIV PUSH20 0xFFFFFFFFFFFFFFFFFFFFFFFFFFFFFFFFFFFFFFFF AND PUSH20 0xFFFFFFFFFFFFFFFFFFFFFFFFFFFFFFFFFFFFFFFF AND PUSH20 0xFFFFFFFFFFFFFFFFFFFFFFFFFFFFFFFFFFFFFFFF AND DUP2 MSTORE PUSH1 0x20 ADD PUSH1 0x3 DUP3 ADD PUSH1 0x14 SWAP1 SLOAD SWAP1 PUSH2 0x100 EXP SWAP1 DIV PUSH1 0xFF AND ISZERO ISZERO ISZERO ISZERO DUP2 MSTORE PUSH1 0x20 ADD PUSH1 0x4 DUP3 ADD SLOAD DUP2 MSTORE PUSH1 0x20 ADD PUSH1 0x5 DUP3 ADD SLOAD DUP2 MSTORE POP POP SWAP1 POP DUP1 PUSH1 0x40 ADD MLOAD SWAP2 POP POP SWAP2 SWAP1 POP JUMP JUMPDEST PUSH1 0x3 PUSH1 0x20 MSTORE DUP1 PUSH1 0x0 MSTORE PUSH1 0x40 PUSH1 0x0 KECCAK256 PUSH1 0x0 SWAP2 POP SWAP1 POP DUP1 PUSH1 0x0 ADD SLOAD SWAP1 DUP1 PUSH1 0x1 ADD PUSH1 0x0 SWAP1 SLOAD SWAP1 PUSH2 0x100 EXP SWAP1 DIV PUSH20 0xFFFFFFFFFFFFFFFFFFFFFFFFFFFFFFFFFFFFFFFF AND SWAP1 DUP1 PUSH1 0x2 ADD SLOAD SWAP1 DUP1 PUSH1 0x3 ADD PUSH1 0x0 SWAP1 SLOAD SWAP1 PUSH2 0x100 EXP SWAP1 DIV PUSH20 0xFFFFFFFFFFFFFFFFFFFFFFFFFFFFFFFFFFFFFFFF AND SWAP1 DUP1 PUSH1 0x3 ADD PUSH1 0x14 SWAP1 SLOAD SWAP1 PUSH2 0x100 EXP SWAP1 DIV PUSH1 0xFF AND SWAP1 DUP1 PUSH1 0x4 ADD SLOAD SWAP1 DUP1 PUSH1 0x5 ADD SLOAD SWAP1 POP DUP8 JUMP JUMPDEST PUSH1 0x0 DUP1 SLOAD SWAP1 PUSH2 0x100 EXP SWAP1 DIV PUSH20 0xFFFFFFFFFFFFFFFFFFFFFFFFFFFFFFFFFFFFFFFF AND DUP2 JUMP JUMPDEST DUP3 PUSH1 0x2 SLOAD DUP2 LT PUSH2 0x6E3 JUMPI PUSH1 0x0 DUP1 REVERT JUMPDEST CALLER PUSH20 0xFFFFFFFFFFFFFFFFFFFFFFFFFFFFFFFFFFFFFFFF AND PUSH1 0x1 PUSH1 0x0 SWAP1 SLOAD SWAP1 PUSH2 0x100 EXP SWAP1 DIV PUSH20 0xFFFFFFFFFFFFFFFFFFFFFFFFFFFFFFFFFFFFFFFF AND PUSH20 0xFFFFFFFFFFFFFFFFFFFFFFFFFFFFFFFFFFFFFFFF AND EQ PUSH2 0x73D JUMPI PUSH1 0x0 DUP1 REVERT JUMPDEST PUSH1 0x0 PUSH1 0x3 PUSH1 0x0 DUP7 DUP2 MSTORE PUSH1 0x20 ADD SWAP1 DUP2 MSTORE PUSH1 0x20 ADD PUSH1 0x0 KECCAK256 SWAP1 POP DUP4 DUP2 PUSH1 0x4 ADD DUP2 SWAP1 SSTORE POP DUP3 DUP2 PUSH1 0x5 ADD DUP2 SWAP1 SSTORE POP POP POP POP POP POP JUMP JUMPDEST PUSH1 0x2 SLOAD DUP2 JUMP JUMPDEST PUSH1 0x0 DUP1 PUSH1 0x3 PUSH1 0x0 DUP5 DUP2 MSTORE PUSH1 0x20 ADD SWAP1 DUP2 MSTORE PUSH1 0x20 ADD PUSH1 0x0 KECCAK256 PUSH1 0x40 MLOAD DUP1 PUSH1 0xE0 ADD PUSH1 0x40 MSTORE SWAP1 DUP2 PUSH1 0x0 DUP3 ADD SLOAD DUP2 MSTORE PUSH1 0x20 ADD PUSH1 0x1 DUP3 ADD PUSH1 0x0 SWAP1 SLOAD SWAP1 PUSH2 0x100 EXP SWAP1 DIV PUSH20 0xFFFFFFFFFFFFFFFFFFFFFFFFFFFFFFFFFFFFFFFF AND PUSH20 0xFFFFFFFFFFFFFFFFFFFFFFFFFFFFFFFFFFFFFFFF AND PUSH20 0xFFFFFFFFFFFFFFFFFFFFFFFFFFFFFFFFFFFFFFFF AND DUP2 MSTORE PUSH1 0x20 ADD PUSH1 0x2 DUP3 ADD SLOAD DUP2 MSTORE PUSH1 0x20 ADD PUSH1 0x3 DUP3 ADD PUSH1 0x0 SWAP1 SLOAD SWAP1 PUSH2 0x100 EXP SWAP1 DIV PUSH20 0xFFFFFFFFFFFFFFFFFFFFFFFFFFFFFFFFFFFFFFFF AND PUSH20 0xFFFFFFFFFFFFFFFFFFFFFFFFFFFFFFFFFFFFFFFF AND PUSH20 0xFFFFFFFFFFFFFFFFFFFFFFFFFFFFFFFFFFFFFFFF AND DUP2 MSTORE PUSH1 0x20 ADD PUSH1 0x3 DUP3 ADD PUSH1 0x14 SWAP1 SLOAD SWAP1 PUSH2 0x100 EXP SWAP1 DIV PUSH1 0xFF AND ISZERO ISZERO ISZERO ISZERO DUP2 MSTORE PUSH1 0x20 ADD PUSH1 0x4 DUP3 ADD SLOAD DUP2 MSTORE PUSH1 0x20 ADD PUSH1 0x5 DUP3 ADD SLOAD DUP2 MSTORE POP POP SWAP1 POP DUP1 PUSH1 0x80 ADD MLOAD SWAP2 POP POP SWAP2 SWAP1 POP JUMP JUMPDEST PUSH1 0x0 CALLER PUSH20 0xFFFFFFFFFFFFFFFFFFFFFFFFFFFFFFFFFFFFFFFF AND PUSH1 0x1 PUSH1 0x0 SWAP1 SLOAD SWAP1 PUSH2 0x100 EXP SWAP1 DIV PUSH20 0xFFFFFFFFFFFFFFFFFFFFFFFFFFFFFFFFFFFFFFFF AND PUSH20 0xFFFFFFFFFFFFFFFFFFFFFFFFFFFFFFFFFFFFFFFF AND EQ PUSH2 0x8EE JUMPI PUSH1 0x0 DUP1 REVERT JUMPDEST PUSH1 0x0 PUSH1 0x3 PUSH1 0x0 PUSH1 0x2 SLOAD DUP2 MSTORE PUSH1 0x20 ADD SWAP1 DUP2 MSTORE PUSH1 0x20 ADD PUSH1 0x0 KECCAK256 SWAP1 POP PUSH1 0x2 SLOAD DUP2 PUSH1 0x0 ADD DUP2 SWAP1 SSTORE POP DUP5 DUP2 PUSH1 0x2 ADD DUP2 SWAP1 SSTORE POP DUP6 DUP2 PUSH1 0x1 ADD PUSH1 0x0 PUSH2 0x100 EXP DUP2 SLOAD DUP2 PUSH20 0xFFFFFFFFFFFFFFFFFFFFFFFFFFFFFFFFFFFFFFFF MUL NOT AND SWAP1 DUP4 PUSH20 0xFFFFFFFFFFFFFFFFFFFFFFFFFFFFFFFFFFFFFFFF AND MUL OR SWAP1 SSTORE POP DUP6 DUP2 PUSH1 0x3 ADD PUSH1 0x0 PUSH2 0x100 EXP DUP2 SLOAD DUP2 PUSH20 0xFFFFFFFFFFFFFFFFFFFFFFFFFFFFFFFFFFFFFFFF MUL NOT AND SWAP1 DUP4 PUSH20 0xFFFFFFFFFFFFFFFFFFFFFFFFFFFFFFFFFFFFFFFF AND MUL OR SWAP1 SSTORE POP PUSH1 0x0 DUP2 PUSH1 0x3 ADD PUSH1 0x14 PUSH2 0x100 EXP DUP2 SLOAD DUP2 PUSH1 0xFF MUL NOT AND SWAP1 DUP4 ISZERO ISZERO MUL OR SWAP1 SSTORE POP DUP4 DUP2 PUSH1 0x4 ADD DUP2 SWAP1 SSTORE POP DUP3 DUP2 PUSH1 0x5 ADD DUP2 SWAP1 SSTORE POP PUSH1 0x2 PUSH1 0x0 DUP2 SLOAD DUP1 SWAP3 SWAP2 SWAP1 PUSH2 0x9E3 SWAP1 PUSH2 0xF90 JUMP JUMPDEST SWAP2 SWAP1 POP SSTORE POP DUP1 PUSH1 0x0 ADD SLOAD SWAP2 POP POP SWAP5 SWAP4 POP POP POP POP JUMP JUMPDEST DUP2 PUSH1 0x2 SLOAD DUP2 LT PUSH2 0xA07 JUMPI PUSH1 0x0 DUP1 REVERT JUMPDEST CALLER PUSH20 0xFFFFFFFFFFFFFFFFFFFFFFFFFFFFFFFFFFFFFFFF AND PUSH1 0x1 PUSH1 0x0 SWAP1 SLOAD SWAP1 PUSH2 0x100 EXP SWAP1 DIV PUSH20 0xFFFFFFFFFFFFFFFFFFFFFFFFFFFFFFFFFFFFFFFF AND PUSH20 0xFFFFFFFFFFFFFFFFFFFFFFFFFFFFFFFFFFFFFFFF AND EQ PUSH2 0xA61 JUMPI PUSH1 0x0 DUP1 REVERT JUMPDEST PUSH1 0x0 PUSH1 0x3 PUSH1 0x0 DUP6 DUP2 MSTORE PUSH1 0x20 ADD SWAP1 DUP2 MSTORE PUSH1 0x20 ADD PUSH1 0x0 KECCAK256 SWAP1 POP DUP3 DUP2 PUSH1 0x3 ADD PUSH1 0x0 PUSH2 0x100 EXP DUP2 SLOAD DUP2 PUSH20 0xFFFFFFFFFFFFFFFFFFFFFFFFFFFFFFFFFFFFFFFF MUL NOT AND SWAP1 DUP4 PUSH20 0xFFFFFFFFFFFFFFFFFFFFFFFFFFFFFFFFFFFFFFFF AND MUL OR SWAP1 SSTORE POP POP POP POP POP JUMP JUMPDEST DUP1 PUSH1 0x2 SLOAD DUP2 LT PUSH2 0xAD0 JUMPI PUSH1 0x0 DUP1 REVERT JUMPDEST CALLER PUSH20 0xFFFFFFFFFFFFFFFFFFFFFFFFFFFFFFFFFFFFFFFF AND PUSH1 0x1 PUSH1 0x0 SWAP1 SLOAD SWAP1 PUSH2 0x100 EXP SWAP1 DIV PUSH20 0xFFFFFFFFFFFFFFFFFFFFFFFFFFFFFFFFFFFFFFFF AND PUSH20 0xFFFFFFFFFFFFFFFFFFFFFFFFFFFFFFFFFFFFFFFF AND EQ PUSH2 0xB2A JUMPI PUSH1 0x0 DUP1 REVERT JUMPDEST PUSH1 0x0 PUSH1 0x3 PUSH1 0x0 DUP5 DUP2 MSTORE PUSH1 0x20 ADD SWAP1 DUP2 MSTORE PUSH1 0x20 ADD PUSH1 0x0 KECCAK256 SWAP1 POP PUSH2 0xB6F DUP4 DUP3 PUSH1 0x1 ADD PUSH1 0x0 SWAP1 SLOAD SWAP1 PUSH2 0x100 EXP SWAP1 DIV PUSH20 0xFFFFFFFFFFFFFFFFFFFFFFFFFFFFFFFFFFFFFFFF AND PUSH2 0x9F8 JUMP JUMPDEST POP POP POP JUMP JUMPDEST DUP2 PUSH1 0x2 SLOAD DUP2 LT PUSH2 0xB83 JUMPI PUSH1 0x0 DUP1 REVERT JUMPDEST CALLER PUSH20 0xFFFFFFFFFFFFFFFFFFFFFFFFFFFFFFFFFFFFFFFF AND PUSH1 0x1 PUSH1 0x0 SWAP1 SLOAD SWAP1 PUSH2 0x100 EXP SWAP1 DIV PUSH20 0xFFFFFFFFFFFFFFFFFFFFFFFFFFFFFFFFFFFFFFFF AND PUSH20 0xFFFFFFFFFFFFFFFFFFFFFFFFFFFFFFFFFFFFFFFF AND EQ PUSH2 0xBDD JUMPI PUSH1 0x0 DUP1 REVERT JUMPDEST PUSH1 0x0 PUSH1 0x3 PUSH1 0x0 DUP6 DUP2 MSTORE PUSH1 0x20 ADD SWAP1 DUP2 MSTORE PUSH1 0x20 ADD PUSH1 0x0 KECCAK256 SWAP1 POP DUP3 DUP2 PUSH1 0x3 ADD PUSH1 0x14 PUSH2 0x100 EXP DUP2 SLOAD DUP2 PUSH1 0xFF MUL NOT AND SWAP1 DUP4 ISZERO ISZERO MUL OR SWAP1 SSTORE POP POP POP POP POP JUMP JUMPDEST PUSH1 0x1 PUSH1 0x0 SWAP1 SLOAD SWAP1 PUSH2 0x100 EXP SWAP1 DIV PUSH20 0xFFFFFFFFFFFFFFFFFFFFFFFFFFFFFFFFFFFFFFFF AND DUP2 JUMP JUMPDEST PUSH1 0x0 DUP1 REVERT JUMPDEST PUSH1 0x0 DUP2 SWAP1 POP SWAP2 SWAP1 POP JUMP JUMPDEST PUSH2 0xC54 DUP2 PUSH2 0xC41 JUMP JUMPDEST DUP2 EQ PUSH2 0xC5F JUMPI PUSH1 0x0 DUP1 REVERT JUMPDEST POP JUMP JUMPDEST PUSH1 0x0 DUP2 CALLDATALOAD SWAP1 POP PUSH2 0xC71 DUP2 PUSH2 0xC4B JUMP JUMPDEST SWAP3 SWAP2 POP POP JUMP JUMPDEST PUSH1 0x0 PUSH1 0x20 DUP3 DUP5 SUB SLT ISZERO PUSH2 0xC8D JUMPI PUSH2 0xC8C PUSH2 0xC3C JUMP JUMPDEST JUMPDEST PUSH1 0x0 PUSH2 0xC9B DUP5 DUP3 DUP6 ADD PUSH2 0xC62 JUMP JUMPDEST SWAP2 POP POP SWAP3 SWAP2 POP POP JUMP JUMPDEST PUSH2 0xCAD DUP2 PUSH2 0xC41 JUMP JUMPDEST DUP3 MSTORE POP POP JUMP JUMPDEST PUSH1 0x0 PUSH1 0x20 DUP3 ADD SWAP1 POP PUSH2 0xCC8 PUSH1 0x0 DUP4 ADD DUP5 PUSH2 0xCA4 JUMP JUMPDEST SWAP3 SWAP2 POP POP JUMP JUMPDEST PUSH1 0x0 PUSH20 0xFFFFFFFFFFFFFFFFFFFFFFFFFFFFFFFFFFFFFFFF DUP3 AND SWAP1 POP SWAP2 SWAP1 POP JUMP JUMPDEST PUSH1 0x0 PUSH2 0xCF9 DUP3 PUSH2 0xCCE JUMP JUMPDEST SWAP1 POP SWAP2 SWAP1 POP JUMP JUMPDEST PUSH2 0xD09 DUP2 PUSH2 0xCEE JUMP JUMPDEST DUP3 MSTORE POP POP JUMP JUMPDEST PUSH1 0x0 PUSH1 0x20 DUP3 ADD SWAP1 POP PUSH2 0xD24 PUSH1 0x0 DUP4 ADD DUP5 PUSH2 0xD00 JUMP JUMPDEST SWAP3 SWAP2 POP POP JUMP JUMPDEST PUSH1 0x0 DUP2 ISZERO ISZERO SWAP1 POP SWAP2 SWAP1 POP JUMP JUMPDEST PUSH2 0xD3F DUP2 PUSH2 0xD2A JUMP JUMPDEST DUP3 MSTORE POP POP JUMP JUMPDEST PUSH1 0x0 PUSH1 0xE0 DUP3 ADD SWAP1 POP PUSH2 0xD5A PUSH1 0x0 DUP4 ADD DUP11 PUSH2 0xCA4 JUMP JUMPDEST PUSH2 0xD67 PUSH1 0x20 DUP4 ADD DUP10 PUSH2 0xD00 JUMP JUMPDEST PUSH2 0xD74 PUSH1 0x40 DUP4 ADD DUP9 PUSH2 0xCA4 JUMP JUMPDEST PUSH2 0xD81 PUSH1 0x60 DUP4 ADD DUP8 PUSH2 0xD00 JUMP JUMPDEST PUSH2 0xD8E PUSH1 0x80 DUP4 ADD DUP7 PUSH2 0xD36 JUMP JUMPDEST PUSH2 0xD9B PUSH1 0xA0 DUP4 ADD DUP6 PUSH2 0xCA4 JUMP JUMPDEST PUSH2 0xDA8 PUSH1 0xC0 DUP4 ADD DUP5 PUSH2 0xCA4 JUMP JUMPDEST SWAP9 SWAP8 POP POP POP POP POP POP POP POP JUMP JUMPDEST PUSH1 0x0 DUP1 PUSH1 0x0 PUSH1 0x60 DUP5 DUP7 SUB SLT ISZERO PUSH2 0xDCD JUMPI PUSH2 0xDCC PUSH2 0xC3C JUMP JUMPDEST JUMPDEST PUSH1 0x0 PUSH2 0xDDB DUP7 DUP3 DUP8 ADD PUSH2 0xC62 JUMP JUMPDEST SWAP4 POP POP PUSH1 0x20 PUSH2 0xDEC DUP7 DUP3 DUP8 ADD PUSH2 0xC62 JUMP JUMPDEST SWAP3 POP POP PUSH1 0x40 PUSH2 0xDFD DUP7 DUP3 DUP8 ADD PUSH2 0xC62 JUMP JUMPDEST SWAP2 POP POP SWAP3 POP SWAP3 POP SWAP3 JUMP JUMPDEST PUSH1 0x0 PUSH1 0x20 DUP3 ADD SWAP1 POP PUSH2 0xE1C PUSH1 0x0 DUP4 ADD DUP5 PUSH2 0xD36 JUMP JUMPDEST SWAP3 SWAP2 POP POP JUMP JUMPDEST PUSH2 0xE2B DUP2 PUSH2 0xCEE JUMP JUMPDEST DUP2 EQ PUSH2 0xE36 JUMPI PUSH1 0x0 DUP1 REVERT JUMPDEST POP JUMP JUMPDEST PUSH1 0x0 DUP2 CALLDATALOAD SWAP1 POP PUSH2 0xE48 DUP2 PUSH2 0xE22 JUMP JUMPDEST SWAP3 SWAP2 POP POP JUMP JUMPDEST PUSH1 0x0 DUP1 PUSH1 0x0 DUP1 PUSH1 0x80 DUP6 DUP8 SUB SLT ISZERO PUSH2 0xE68 JUMPI PUSH2 0xE67 PUSH2 0xC3C JUMP JUMPDEST JUMPDEST PUSH1 0x0 PUSH2 0xE76 DUP8 DUP3 DUP9 ADD PUSH2 0xE39 JUMP JUMPDEST SWAP5 POP POP PUSH1 0x20 PUSH2 0xE87 DUP8 DUP3 DUP9 ADD PUSH2 0xC62 JUMP JUMPDEST SWAP4 POP POP PUSH1 0x40 PUSH2 0xE98 DUP8 DUP3 DUP9 ADD PUSH2 0xC62 JUMP JUMPDEST SWAP3 POP POP PUSH1 0x60 PUSH2 0xEA9 DUP8 DUP3 DUP9 ADD PUSH2 0xC62 JUMP JUMPDEST SWAP2 POP POP SWAP3 SWAP6 SWAP2 SWAP5 POP SWAP3 POP JUMP JUMPDEST PUSH1 0x0 DUP1 PUSH1 0x40 DUP4 DUP6 SUB SLT ISZERO PUSH2 0xECC JUMPI PUSH2 0xECB PUSH2 0xC3C JUMP JUMPDEST JUMPDEST PUSH1 0x0 PUSH2 0xEDA DUP6 DUP3 DUP7 ADD PUSH2 0xC62 JUMP JUMPDEST SWAP3 POP POP PUSH1 0x20 PUSH2 0xEEB DUP6 DUP3 DUP7 ADD PUSH2 0xE39 JUMP JUMPDEST SWAP2 POP POP SWAP3 POP SWAP3 SWAP1 POP JUMP JUMPDEST PUSH2 0xEFE DUP2 PUSH2 0xD2A JUMP JUMPDEST DUP2 EQ PUSH2 0xF09 JUMPI PUSH1 0x0 DUP1 REVERT JUMPDEST POP JUMP JUMPDEST PUSH1 0x0 DUP2 CALLDATALOAD SWAP1 POP PUSH2 0xF1B DUP2 PUSH2 0xEF5 JUMP JUMPDEST SWAP3 SWAP2 POP POP JUMP JUMPDEST PUSH1 0x0 DUP1 PUSH1 0x40 DUP4 DUP6 SUB SLT ISZERO PUSH2 0xF38 JUMPI PUSH2 0xF37 PUSH2 0xC3C JUMP JUMPDEST JUMPDEST PUSH1 0x0 PUSH2 0xF46 DUP6 DUP3 DUP7 ADD PUSH2 0xC62 JUMP JUMPDEST SWAP3 POP POP PUSH1 0x20 PUSH2 0xF57 DUP6 DUP3 DUP7 ADD PUSH2 0xF0C JUMP JUMPDEST SWAP2 POP POP SWAP3 POP SWAP3 SWAP1 POP JUMP JUMPDEST PUSH32 0x4E487B7100000000000000000000000000000000000000000000000000000000 PUSH1 0x0 MSTORE PUSH1 0x11 PUSH1 0x4 MSTORE PUSH1 0x24 PUSH1 0x0 REVERT JUMPDEST PUSH1 0x0 PUSH2 0xF9B DUP3 PUSH2 0xC41 JUMP JUMPDEST SWAP2 POP PUSH32 0xFFFFFFFFFFFFFFFFFFFFFFFFFFFFFFFFFFFFFFFFFFFFFFFFFFFFFFFFFFFFFFFF DUP3 EQ ISZERO PUSH2 0xFCE JUMPI PUSH2 0xFCD PUSH2 0xF61 JUMP JUMPDEST JUMPDEST PUSH1 0x1 DUP3 ADD SWAP1 POP SWAP2 SWAP1 POP JUMP INVALID LOG2 PUSH5 0x6970667358 0x22 SLT KECCAK256 SWAP5 0xBB SLT PUSH9 0xF636DC54664E57F483 ISZERO CALLCODE 0xF 0xEE 0xCF BALANCE ADDMOD COINBASE PUSH25 0xCB0666B50A280F4B2B8464736F6C634300080A0033A2646970 PUSH7 0x73582212202655 0xAD PUSH21 0x5542A79ADF85AD26B232FB82ADA93A523D5C0FF499 0xE5 0x28 EXP SWAP12 ISZERO 0x27 PUSH21 0x64736F6C634300080A003300000000000000000000 "},"gasEstimates":{"creation":{"codeDepositCost":"4604400","executionCost":"5383","totalCost":"4609783"},"external":{"createLibrary(uint256)":"infinite","deployedLibraries(uint256)":"4956","getDeployedLibraries()":"infinite"}},"methodIdentifiers":{"createLibrary(uint256)":"73b1be38","deployedLibraries(uint256)":"98fe1356","getDeployedLibraries()":"f4b2b9b0"}},"storageLayout":{"storage":[{"astId":7,"contract":"Library.sol:LibraryFactory","label":"deployedLibraries","offset":0,"slot":"0","type":"t_array(t_address)dyn_storage"}],"types":{"t_address":{"encoding":"inplace","label":"address","numberOfBytes":"20"},"t_array(t_address)dyn_storage":{"base":"t_address","encoding":"dynamic_array","label":"address[]","numberOfBytes":"32"}}},"userdoc":{"kind":"user","methods":{},"version":1}}