{"abi":[{"inputs":[{"internalType":"uint256","name":"_maxBorrowing","type":"uint256"}],"stateMutability":"nonpayable","type":"constructor"},{"inputs":[{"internalType":"string","name":"_bookId","type":"string"},{"internalType":"string","name":"_title","type":"string"},{"internalType":"uint256","name":"_price","type":"uint256"},{"internalType":"address","name":"_authorAddress","type":"address"}],"name":"addBook","outputs":[],"stateMutability":"nonpayable","type":"function"},{"inputs":[{"internalType":"uint256","name":"_tokenId","type":"uint256"}],"name":"borrowBook","outputs":[],"stateMutability":"payable","type":"function"},{"inputs":[{"internalType":"uint256","name":"_bookIndex","type":"uint256"},{"internalType":"uint256","name":"_period","type":"uint256"},{"internalType":"uint256","name":"_cost","type":"uint256"}],"name":"createBookToken","outputs":[],"stateMutability":"payable","type":"function"},{"inputs":[],"name":"getManagerAddress","outputs":[{"internalType":"address[]","name":"","type":"address[]"}],"stateMutability":"view","type":"function"},{"inputs":[{"internalType":"address","name":"_staffAddress","type":"address"}],"name":"inviteStaff","outputs":[],"stateMutability":"nonpayable","type":"function"},{"inputs":[],"name":"maxBorrowing","outputs":[{"internalType":"uint256","name":"","type":"uint256"}],"stateMutability":"view","type":"function"},{"inputs":[{"internalType":"uint256","name":"_index","type":"uint256"},{"internalType":"string","name":"_bookId","type":"string"},{"internalType":"string","name":"_title","type":"string"},{"internalType":"uint256","name":"_price","type":"uint256"},{"internalType":"address","name":"_authorAddress","type":"address"}],"name":"modifyBook","outputs":[],"stateMutability":"nonpayable","type":"function"},{"inputs":[],"name":"owner","outputs":[{"internalType":"address","name":"","type":"address"}],"stateMutability":"view","type":"function"},{"inputs":[],"name":"register","outputs":[],"stateMutability":"nonpayable","type":"function"},{"inputs":[{"internalType":"uint256","name":"_tokenId","type":"uint256"}],"name":"returnBook","outputs":[],"stateMutability":"nonpayable","type":"function"},{"inputs":[{"internalType":"address","name":"","type":"address"}],"name":"staff","outputs":[{"internalType":"bool","name":"","type":"bool"}],"stateMutability":"view","type":"function"}],"devdoc":{"kind":"dev","methods":{},"version":1},"evm":{"assembly":"    /* \"Library.sol\":157:3226  contract Library {... */\n  mstore(0x40, 0x80)\n    /* \"Library.sol\":718:1147  constructor (uint _maxBorrowing) {... */\n  callvalue\n  dup1\n  iszero\n  tag_1\n  jumpi\n  0x00\n  dup1\n  revert\ntag_1:\n  pop\n  mload(0x40)\n  sub(codesize, bytecodeSize)\n  dup1\n  bytecodeSize\n  dup4\n  codecopy\n  dup2\n  dup2\n  add\n  0x40\n  mstore\n  dup2\n  add\n  swap1\n  tag_2\n  swap2\n  swap1\n  tag_3\n  jump\t// in\ntag_2:\n    /* \"Library.sol\":769:779  msg.sender */\n  caller\n    /* \"Library.sol\":761:766  owner */\n  0x00\n  dup1\n    /* \"Library.sol\":761:779  owner = msg.sender */\n  0x0100\n  exp\n  dup2\n  sload\n  dup2\n  0xffffffffffffffffffffffffffffffffffffffff\n  mul\n  not\n  and\n  swap1\n  dup4\n  0xffffffffffffffffffffffffffffffffffffffff\n  and\n  mul\n  or\n  swap1\n  sstore\n  pop\n    /* \"Library.sol\":804:808  true */\n  0x01\n    /* \"Library.sol\":789:794  staff */\n  dup1\n    /* \"Library.sol\":789:801  staff[owner] */\n  0x00\n    /* \"Library.sol\":795:800  owner */\n  dup1\n  0x00\n  swap1\n  sload\n  swap1\n  0x0100\n  exp\n  swap1\n  div\n  0xffffffffffffffffffffffffffffffffffffffff\n  and\n    /* \"Library.sol\":789:801  staff[owner] */\n  0xffffffffffffffffffffffffffffffffffffffff\n  and\n  0xffffffffffffffffffffffffffffffffffffffff\n  and\n  dup2\n  mstore\n  0x20\n  add\n  swap1\n  dup2\n  mstore\n  0x20\n  add\n  0x00\n  keccak256\n  0x00\n    /* \"Library.sol\":789:808  staff[owner] = true */\n  0x0100\n  exp\n  dup2\n  sload\n  dup2\n  0xff\n  mul\n  not\n  and\n  swap1\n  dup4\n  iszero\n  iszero\n  mul\n  or\n  swap1\n  sstore\n  pop\n    /* \"Library.sol\":848:853  owner */\n  0x00\n  dup1\n  sload\n  swap1\n  0x0100\n  exp\n  swap1\n  div\n  0xffffffffffffffffffffffffffffffffffffffff\n  and\n    /* \"Library.sol\":832:854  new BookManager(owner) */\n  mload(0x40)\n  tag_6\n  swap1\n  tag_7\n  jump\t// in\ntag_6:\n  tag_8\n  swap2\n  swap1\n  tag_9\n  jump\t// in\ntag_8:\n  mload(0x40)\n  dup1\n  swap2\n  sub\n  swap1\n  0x00\n  create\n  dup1\n  iszero\n  dup1\n  iszero\n  tag_10\n  jumpi\n  returndatasize\n  0x00\n  dup1\n  returndatacopy\n  revert(0x00, returndatasize)\ntag_10:\n  pop\n    /* \"Library.sol\":818:829  bookManager */\n  0x02\n  0x00\n    /* \"Library.sol\":818:854  bookManager = new BookManager(owner) */\n  0x0100\n  exp\n  dup2\n  sload\n  dup2\n  0xffffffffffffffffffffffffffffffffffffffff\n  mul\n  not\n  and\n  swap1\n  dup4\n  0xffffffffffffffffffffffffffffffffffffffff\n  and\n  mul\n  or\n  swap1\n  sstore\n  pop\n    /* \"Library.sol\":894:899  owner */\n  0x00\n  dup1\n  sload\n  swap1\n  0x0100\n  exp\n  swap1\n  div\n  0xffffffffffffffffffffffffffffffffffffffff\n  and\n    /* \"Library.sol\":878:900  new UserManager(owner) */\n  mload(0x40)\n  tag_11\n  swap1\n  tag_12\n  jump\t// in\ntag_11:\n  tag_13\n  swap2\n  swap1\n  tag_9\n  jump\t// in\ntag_13:\n  mload(0x40)\n  dup1\n  swap2\n  sub\n  swap1\n  0x00\n  create\n  dup1\n  iszero\n  dup1\n  iszero\n  tag_14\n  jumpi\n  returndatasize\n  0x00\n  dup1\n  returndatacopy\n  revert(0x00, returndatasize)\ntag_14:\n  pop\n    /* \"Library.sol\":864:875  userManager */\n  0x03\n  0x00\n    /* \"Library.sol\":864:900  userManager = new UserManager(owner) */\n  0x0100\n  exp\n  dup2\n  sload\n  dup2\n  0xffffffffffffffffffffffffffffffffffffffff\n  mul\n  not\n  and\n  swap1\n  dup4\n  0xffffffffffffffffffffffffffffffffffffffff\n  and\n  mul\n  or\n  swap1\n  sstore\n  pop\n    /* \"Library.sol\":942:947  owner */\n  0x00\n  dup1\n  sload\n  swap1\n  0x0100\n  exp\n  swap1\n  div\n  0xffffffffffffffffffffffffffffffffffffffff\n  and\n    /* \"Library.sol\":925:948  new TokenManager(owner) */\n  mload(0x40)\n  tag_15\n  swap1\n  tag_16\n  jump\t// in\ntag_15:\n  tag_17\n  swap2\n  swap1\n  tag_9\n  jump\t// in\ntag_17:\n  mload(0x40)\n  dup1\n  swap2\n  sub\n  swap1\n  0x00\n  create\n  dup1\n  iszero\n  dup1\n  iszero\n  tag_18\n  jumpi\n  returndatasize\n  0x00\n  dup1\n  returndatacopy\n  revert(0x00, returndatasize)\ntag_18:\n  pop\n    /* \"Library.sol\":910:922  tokenManager */\n  0x04\n  0x00\n    /* \"Library.sol\":910:948  tokenManager = new TokenManager(owner) */\n  0x0100\n  exp\n  dup2\n  sload\n  dup2\n  0xffffffffffffffffffffffffffffffffffffffff\n  mul\n  not\n  and\n  swap1\n  dup4\n  0xffffffffffffffffffffffffffffffffffffffff\n  and\n  mul\n  or\n  swap1\n  sstore\n  pop\n    /* \"Library.sol\":958:972  managerAddress */\n  0x05\n    /* \"Library.sol\":986:997  bookManager */\n  0x02\n  0x00\n  swap1\n  sload\n  swap1\n  0x0100\n  exp\n  swap1\n  div\n  0xffffffffffffffffffffffffffffffffffffffff\n  and\n    /* \"Library.sol\":958:999  managerAddress.push(address(bookManager)) */\n  swap1\n  dup1\n  0x01\n  dup2\n  sload\n  add\n  dup1\n  dup3\n  sstore\n  dup1\n  swap2\n  pop\n  pop\n  0x01\n  swap1\n  sub\n  swap1\n  0x00\n  mstore\n  keccak256(0x00, 0x20)\n  add\n  0x00\n  swap1\n  swap2\n  swap1\n  swap2\n  swap1\n  swap2\n  0x0100\n  exp\n  dup2\n  sload\n  dup2\n  0xffffffffffffffffffffffffffffffffffffffff\n  mul\n  not\n  and\n  swap1\n  dup4\n  0xffffffffffffffffffffffffffffffffffffffff\n  and\n  mul\n  or\n  swap1\n  sstore\n  pop\n    /* \"Library.sol\":1009:1023  managerAddress */\n  0x05\n    /* \"Library.sol\":1037:1048  userManager */\n  0x03\n  0x00\n  swap1\n  sload\n  swap1\n  0x0100\n  exp\n  swap1\n  div\n  0xffffffffffffffffffffffffffffffffffffffff\n  and\n    /* \"Library.sol\":1009:1050  managerAddress.push(address(userManager)) */\n  swap1\n  dup1\n  0x01\n  dup2\n  sload\n  add\n  dup1\n  dup3\n  sstore\n  dup1\n  swap2\n  pop\n  pop\n  0x01\n  swap1\n  sub\n  swap1\n  0x00\n  mstore\n  keccak256(0x00, 0x20)\n  add\n  0x00\n  swap1\n  swap2\n  swap1\n  swap2\n  swap1\n  swap2\n  0x0100\n  exp\n  dup2\n  sload\n  dup2\n  0xffffffffffffffffffffffffffffffffffffffff\n  mul\n  not\n  and\n  swap1\n  dup4\n  0xffffffffffffffffffffffffffffffffffffffff\n  and\n  mul\n  or\n  swap1\n  sstore\n  pop\n    /* \"Library.sol\":1060:1074  managerAddress */\n  0x05\n    /* \"Library.sol\":1088:1100  tokenManager */\n  0x04\n  0x00\n  swap1\n  sload\n  swap1\n  0x0100\n  exp\n  swap1\n  div\n  0xffffffffffffffffffffffffffffffffffffffff\n  and\n    /* \"Library.sol\":1060:1102  managerAddress.push(address(tokenManager)) */\n  swap1\n  dup1\n  0x01\n  dup2\n  sload\n  add\n  dup1\n  dup3\n  sstore\n  dup1\n  swap2\n  pop\n  pop\n  0x01\n  swap1\n  sub\n  swap1\n  0x00\n  mstore\n  keccak256(0x00, 0x20)\n  add\n  0x00\n  swap1\n  swap2\n  swap1\n  swap2\n  swap1\n  swap2\n  0x0100\n  exp\n  dup2\n  sload\n  dup2\n  0xffffffffffffffffffffffffffffffffffffffff\n  mul\n  not\n  and\n  swap1\n  dup4\n  0xffffffffffffffffffffffffffffffffffffffff\n  and\n  mul\n  or\n  swap1\n  sstore\n  pop\n    /* \"Library.sol\":1127:1140  _maxBorrowing */\n  dup1\n    /* \"Library.sol\":1112:1124  maxBorrowing */\n  0x06\n    /* \"Library.sol\":1112:1140  maxBorrowing = _maxBorrowing */\n  dup2\n  swap1\n  sstore\n  pop\n    /* \"Library.sol\":718:1147  constructor (uint _maxBorrowing) {... */\n  pop\n    /* \"Library.sol\":157:3226  contract Library {... */\n  jump(tag_22)\ntag_7:\n  dataSize(sub_1)\n  dup1\n  dataOffset(sub_1)\n  dup4\n  codecopy\n  add\n  swap1\n  jump\t// out\ntag_12:\n  dataSize(sub_2)\n  dup1\n  dataOffset(sub_2)\n  dup4\n  codecopy\n  add\n  swap1\n  jump\t// out\ntag_16:\n  dataSize(sub_3)\n  dup1\n  dataOffset(sub_3)\n  dup4\n  codecopy\n  add\n  swap1\n  jump\t// out\n    /* \"#utility.yul\":88:205   */\ntag_24:\n    /* \"#utility.yul\":197:198   */\n  0x00\n    /* \"#utility.yul\":194:195   */\n  dup1\n    /* \"#utility.yul\":187:199   */\n  revert\n    /* \"#utility.yul\":334:411   */\ntag_26:\n    /* \"#utility.yul\":371:378   */\n  0x00\n    /* \"#utility.yul\":400:405   */\n  dup2\n    /* \"#utility.yul\":389:405   */\n  swap1\n  pop\n    /* \"#utility.yul\":334:411   */\n  swap2\n  swap1\n  pop\n  jump\t// out\n    /* \"#utility.yul\":417:539   */\ntag_27:\n    /* \"#utility.yul\":490:514   */\n  tag_38\n    /* \"#utility.yul\":508:513   */\n  dup2\n    /* \"#utility.yul\":490:514   */\n  tag_26\n  jump\t// in\ntag_38:\n    /* \"#utility.yul\":483:488   */\n  dup2\n    /* \"#utility.yul\":480:515   */\n  eq\n    /* \"#utility.yul\":470:533   */\n  tag_39\n  jumpi\n    /* \"#utility.yul\":529:530   */\n  0x00\n    /* \"#utility.yul\":526:527   */\n  dup1\n    /* \"#utility.yul\":519:531   */\n  revert\n    /* \"#utility.yul\":470:533   */\ntag_39:\n    /* \"#utility.yul\":417:539   */\n  pop\n  jump\t// out\n    /* \"#utility.yul\":545:688   */\ntag_28:\n    /* \"#utility.yul\":602:607   */\n  0x00\n    /* \"#utility.yul\":633:639   */\n  dup2\n    /* \"#utility.yul\":627:640   */\n  mload\n    /* \"#utility.yul\":618:640   */\n  swap1\n  pop\n    /* \"#utility.yul\":649:682   */\n  tag_41\n    /* \"#utility.yul\":676:681   */\n  dup2\n    /* \"#utility.yul\":649:682   */\n  tag_27\n  jump\t// in\ntag_41:\n    /* \"#utility.yul\":545:688   */\n  swap3\n  swap2\n  pop\n  pop\n  jump\t// out\n    /* \"#utility.yul\":694:1045   */\ntag_3:\n    /* \"#utility.yul\":764:770   */\n  0x00\n    /* \"#utility.yul\":813:815   */\n  0x20\n    /* \"#utility.yul\":801:810   */\n  dup3\n    /* \"#utility.yul\":792:799   */\n  dup5\n    /* \"#utility.yul\":788:811   */\n  sub\n    /* \"#utility.yul\":784:816   */\n  slt\n    /* \"#utility.yul\":781:900   */\n  iszero\n  tag_43\n  jumpi\n    /* \"#utility.yul\":819:898   */\n  tag_44\n  tag_24\n  jump\t// in\ntag_44:\n    /* \"#utility.yul\":781:900   */\ntag_43:\n    /* \"#utility.yul\":939:940   */\n  0x00\n    /* \"#utility.yul\":964:1028   */\n  tag_45\n    /* \"#utility.yul\":1020:1027   */\n  dup5\n    /* \"#utility.yul\":1011:1017   */\n  dup3\n    /* \"#utility.yul\":1000:1009   */\n  dup6\n    /* \"#utility.yul\":996:1018   */\n  add\n    /* \"#utility.yul\":964:1028   */\n  tag_28\n  jump\t// in\ntag_45:\n    /* \"#utility.yul\":954:1028   */\n  swap2\n  pop\n    /* \"#utility.yul\":910:1038   */\n  pop\n    /* \"#utility.yul\":694:1045   */\n  swap3\n  swap2\n  pop\n  pop\n  jump\t// out\n    /* \"#utility.yul\":1051:1177   */\ntag_29:\n    /* \"#utility.yul\":1088:1095   */\n  0x00\n    /* \"#utility.yul\":1128:1170   */\n  0xffffffffffffffffffffffffffffffffffffffff\n    /* \"#utility.yul\":1121:1126   */\n  dup3\n    /* \"#utility.yul\":1117:1171   */\n  and\n    /* \"#utility.yul\":1106:1171   */\n  swap1\n  pop\n    /* \"#utility.yul\":1051:1177   */\n  swap2\n  swap1\n  pop\n  jump\t// out\n    /* \"#utility.yul\":1183:1279   */\ntag_30:\n    /* \"#utility.yul\":1220:1227   */\n  0x00\n    /* \"#utility.yul\":1249:1273   */\n  tag_48\n    /* \"#utility.yul\":1267:1272   */\n  dup3\n    /* \"#utility.yul\":1249:1273   */\n  tag_29\n  jump\t// in\ntag_48:\n    /* \"#utility.yul\":1238:1273   */\n  swap1\n  pop\n    /* \"#utility.yul\":1183:1279   */\n  swap2\n  swap1\n  pop\n  jump\t// out\n    /* \"#utility.yul\":1285:1403   */\ntag_31:\n    /* \"#utility.yul\":1372:1396   */\n  tag_50\n    /* \"#utility.yul\":1390:1395   */\n  dup2\n    /* \"#utility.yul\":1372:1396   */\n  tag_30\n  jump\t// in\ntag_50:\n    /* \"#utility.yul\":1367:1370   */\n  dup3\n    /* \"#utility.yul\":1360:1397   */\n  mstore\n    /* \"#utility.yul\":1285:1403   */\n  pop\n  pop\n  jump\t// out\n    /* \"#utility.yul\":1409:1631   */\ntag_9:\n    /* \"#utility.yul\":1502:1506   */\n  0x00\n    /* \"#utility.yul\":1540:1542   */\n  0x20\n    /* \"#utility.yul\":1529:1538   */\n  dup3\n    /* \"#utility.yul\":1525:1543   */\n  add\n    /* \"#utility.yul\":1517:1543   */\n  swap1\n  pop\n    /* \"#utility.yul\":1553:1624   */\n  tag_52\n    /* \"#utility.yul\":1621:1622   */\n  0x00\n    /* \"#utility.yul\":1610:1619   */\n  dup4\n    /* \"#utility.yul\":1606:1623   */\n  add\n    /* \"#utility.yul\":1597:1603   */\n  dup5\n    /* \"#utility.yul\":1553:1624   */\n  tag_31\n  jump\t// in\ntag_52:\n    /* \"#utility.yul\":1409:1631   */\n  swap3\n  swap2\n  pop\n  pop\n  jump\t// out\n    /* \"Library.sol\":157:3226  contract Library {... */\ntag_22:\n  dataSize(sub_0)\n  dup1\n  dataOffset(sub_0)\n  0x00\n  codecopy\n  0x00\n  return\nstop\n\nsub_0: assembly {\n        /* \"Library.sol\":157:3226  contract Library {... */\n      mstore(0x40, 0x80)\n      jumpi(tag_1, lt(calldatasize, 0x04))\n      shr(0xe0, calldataload(0x00))\n      dup1\n      0x8da5cb5b\n      gt\n      tag_13\n      jumpi\n      dup1\n      0x8da5cb5b\n      eq\n      tag_7\n      jumpi\n      dup1\n      0x90272dff\n      eq\n      tag_8\n      jumpi\n      dup1\n      0xc162d7da\n      eq\n      tag_9\n      jumpi\n      dup1\n      0xca5140c9\n      eq\n      tag_10\n      jumpi\n      dup1\n      0xd2c07e20\n      eq\n      tag_11\n      jumpi\n      dup1\n      0xfe69494b\n      eq\n      tag_12\n      jumpi\n      jump(tag_1)\n    tag_13:\n      dup1\n      0x1973db46\n      eq\n      tag_2\n      jumpi\n      dup1\n      0x1aa3a008\n      eq\n      tag_3\n      jumpi\n      dup1\n      0x4f83158a\n      eq\n      tag_4\n      jumpi\n      dup1\n      0x687564ae\n      eq\n      tag_5\n      jumpi\n      dup1\n      0x7e490a9e\n      eq\n      tag_6\n      jumpi\n    tag_1:\n      0x00\n      dup1\n      revert\n        /* \"Library.sol\":1973:2368  function createBookToken(uint _bookIndex, uint _period, uint _cost) public userRestricted payable {... */\n    tag_2:\n      tag_14\n      0x04\n      dup1\n      calldatasize\n      sub\n      dup2\n      add\n      swap1\n      tag_15\n      swap2\n      swap1\n      tag_16\n      jump\t// in\n    tag_15:\n      tag_17\n      jump\t// in\n    tag_14:\n      stop\n        /* \"Library.sol\":1305:1381  function register() public {... */\n    tag_3:\n      callvalue\n      dup1\n      iszero\n      tag_18\n      jumpi\n      0x00\n      dup1\n      revert\n    tag_18:\n      pop\n      tag_19\n      tag_20\n      jump\t// in\n    tag_19:\n      stop\n        /* \"Library.sol\":206:243  mapping(address => bool) public staff */\n    tag_4:\n      callvalue\n      dup1\n      iszero\n      tag_21\n      jumpi\n      0x00\n      dup1\n      revert\n    tag_21:\n      pop\n      tag_22\n      0x04\n      dup1\n      calldatasize\n      sub\n      dup2\n      add\n      swap1\n      tag_23\n      swap2\n      swap1\n      tag_24\n      jump\t// in\n    tag_23:\n      tag_25\n      jump\t// in\n    tag_22:\n      mload(0x40)\n      tag_26\n      swap2\n      swap1\n      tag_27\n      jump\t// in\n    tag_26:\n      mload(0x40)\n      dup1\n      swap2\n      sub\n      swap1\n      return\n        /* \"Library.sol\":1403:1653  function addBook(string memory _bookId, string memory _title, uint _price, address _authorAddress) public restricted {... */\n    tag_5:\n      callvalue\n      dup1\n      iszero\n      tag_28\n      jumpi\n      0x00\n      dup1\n      revert\n    tag_28:\n      pop\n      tag_29\n      0x04\n      dup1\n      calldatasize\n      sub\n      dup2\n      add\n      swap1\n      tag_30\n      swap2\n      swap1\n      tag_31\n      jump\t// in\n    tag_30:\n      tag_32\n      jump\t// in\n    tag_29:\n      stop\n        /* \"Library.sol\":2393:2782  function borrowBook(uint _tokenId) public userRestricted payable {... */\n    tag_6:\n      tag_33\n      0x04\n      dup1\n      calldatasize\n      sub\n      dup2\n      add\n      swap1\n      tag_34\n      swap2\n      swap1\n      tag_35\n      jump\t// in\n    tag_34:\n      tag_36\n      jump\t// in\n    tag_33:\n      stop\n        /* \"Library.sol\":180:200  address public owner */\n    tag_7:\n      callvalue\n      dup1\n      iszero\n      tag_37\n      jumpi\n      0x00\n      dup1\n      revert\n    tag_37:\n      pop\n      tag_38\n      tag_39\n      jump\t// in\n    tag_38:\n      mload(0x40)\n      tag_40\n      swap2\n      swap1\n      tag_41\n      jump\t// in\n    tag_40:\n      mload(0x40)\n      dup1\n      swap2\n      sub\n      swap1\n      return\n        /* \"Library.sol\":394:418  uint public maxBorrowing */\n    tag_8:\n      callvalue\n      dup1\n      iszero\n      tag_42\n      jumpi\n      0x00\n      dup1\n      revert\n    tag_42:\n      pop\n      tag_43\n      tag_44\n      jump\t// in\n    tag_43:\n      mload(0x40)\n      tag_45\n      swap2\n      swap1\n      tag_46\n      jump\t// in\n    tag_45:\n      mload(0x40)\n      dup1\n      swap2\n      sub\n      swap1\n      return\n        /* \"Library.sol\":3107:3224  function getManagerAddress() external restricted view returns(address[] memory){... */\n    tag_9:\n      callvalue\n      dup1\n      iszero\n      tag_47\n      jumpi\n      0x00\n      dup1\n      revert\n    tag_47:\n      pop\n      tag_48\n      tag_49\n      jump\t// in\n    tag_48:\n      mload(0x40)\n      tag_50\n      swap2\n      swap1\n      tag_51\n      jump\t// in\n    tag_50:\n      mload(0x40)\n      dup1\n      swap2\n      sub\n      swap1\n      return\n        /* \"Library.sol\":2807:3069  function returnBook(uint _tokenId) public userRestricted {... */\n    tag_10:\n      callvalue\n      dup1\n      iszero\n      tag_52\n      jumpi\n      0x00\n      dup1\n      revert\n    tag_52:\n      pop\n      tag_53\n      0x04\n      dup1\n      calldatasize\n      sub\n      dup2\n      add\n      swap1\n      tag_54\n      swap2\n      swap1\n      tag_35\n      jump\t// in\n    tag_54:\n      tag_55\n      jump\t// in\n    tag_53:\n      stop\n        /* \"Library.sol\":1678:1941  function modifyBook( uint _index, string memory _bookId, string memory _title, uint _price, address _authorAddress)... */\n    tag_11:\n      callvalue\n      dup1\n      iszero\n      tag_56\n      jumpi\n      0x00\n      dup1\n      revert\n    tag_56:\n      pop\n      tag_57\n      0x04\n      dup1\n      calldatasize\n      sub\n      dup2\n      add\n      swap1\n      tag_58\n      swap2\n      swap1\n      tag_59\n      jump\t// in\n    tag_58:\n      tag_60\n      jump\t// in\n    tag_57:\n      stop\n        /* \"Library.sol\":1173:1278  function inviteStaff(address _staffAddress) public restricted{... */\n    tag_12:\n      callvalue\n      dup1\n      iszero\n      tag_61\n      jumpi\n      0x00\n      dup1\n      revert\n    tag_61:\n      pop\n      tag_62\n      0x04\n      dup1\n      calldatasize\n      sub\n      dup2\n      add\n      swap1\n      tag_63\n      swap2\n      swap1\n      tag_24\n      jump\t// in\n    tag_63:\n      tag_64\n      jump\t// in\n    tag_62:\n      stop\n        /* \"Library.sol\":1973:2368  function createBookToken(uint _bookIndex, uint _period, uint _cost) public userRestricted payable {... */\n    tag_17:\n        /* \"Library.sol\":552:563  userManager */\n      0x03\n      0x00\n      swap1\n      sload\n      swap1\n      0x0100\n      exp\n      swap1\n      div\n      0xffffffffffffffffffffffffffffffffffffffff\n      and\n        /* \"Library.sol\":552:578  userManager.getIsValidUser */\n      0xffffffffffffffffffffffffffffffffffffffff\n      and\n      0xecded204\n        /* \"Library.sol\":579:589  msg.sender */\n      caller\n        /* \"Library.sol\":552:590  userManager.getIsValidUser(msg.sender) */\n      mload(0x40)\n      dup3\n      0xffffffff\n      and\n      0xe0\n      shl\n      dup2\n      mstore\n      0x04\n      add\n      tag_66\n      swap2\n      swap1\n      tag_41\n      jump\t// in\n    tag_66:\n      0x20\n      mload(0x40)\n      dup1\n      dup4\n      sub\n      dup2\n      dup7\n      gas\n      staticcall\n      iszero\n      dup1\n      iszero\n      tag_68\n      jumpi\n      returndatasize\n      0x00\n      dup1\n      returndatacopy\n      revert(0x00, returndatasize)\n    tag_68:\n      pop\n      pop\n      pop\n      pop\n      mload(0x40)\n      returndatasize\n      not(0x1f)\n      0x1f\n      dup3\n      add\n      and\n      dup3\n      add\n      dup1\n      0x40\n      mstore\n      pop\n      dup2\n      add\n      swap1\n      tag_69\n      swap2\n      swap1\n      tag_70\n      jump\t// in\n    tag_69:\n        /* \"Library.sol\":544:591  require(userManager.getIsValidUser(msg.sender)) */\n      tag_71\n      jumpi\n      0x00\n      dup1\n      revert\n    tag_71:\n        /* \"Library.sol\":2081:2091  uint price */\n      0x00\n        /* \"Library.sol\":2094:2105  bookManager */\n      0x02\n      0x00\n      swap1\n      sload\n      swap1\n      0x0100\n      exp\n      swap1\n      div\n      0xffffffffffffffffffffffffffffffffffffffff\n      and\n        /* \"Library.sol\":2094:2118  bookManager.getBookPrice */\n      0xffffffffffffffffffffffffffffffffffffffff\n      and\n      0x6c230eef\n        /* \"Library.sol\":2119:2129  _bookIndex */\n      dup6\n        /* \"Library.sol\":2094:2130  bookManager.getBookPrice(_bookIndex) */\n      mload(0x40)\n      dup3\n      0xffffffff\n      and\n      0xe0\n      shl\n      dup2\n      mstore\n      0x04\n      add\n      tag_73\n      swap2\n      swap1\n      tag_46\n      jump\t// in\n    tag_73:\n      0x20\n      mload(0x40)\n      dup1\n      dup4\n      sub\n      dup2\n      dup7\n      gas\n      staticcall\n      iszero\n      dup1\n      iszero\n      tag_75\n      jumpi\n      returndatasize\n      0x00\n      dup1\n      returndatacopy\n      revert(0x00, returndatasize)\n    tag_75:\n      pop\n      pop\n      pop\n      pop\n      mload(0x40)\n      returndatasize\n      not(0x1f)\n      0x1f\n      dup3\n      add\n      and\n      dup3\n      add\n      dup1\n      0x40\n      mstore\n      pop\n      dup2\n      add\n      swap1\n      tag_76\n      swap2\n      swap1\n      tag_77\n      jump\t// in\n    tag_76:\n        /* \"Library.sol\":2081:2130  uint price = bookManager.getBookPrice(_bookIndex) */\n      swap1\n      pop\n        /* \"Library.sol\":2157:2166  msg.value */\n      callvalue\n        /* \"Library.sol\":2148:2153  price */\n      dup2\n        /* \"Library.sol\":2148:2166  price == msg.value */\n      eq\n        /* \"Library.sol\":2140:2167  require(price == msg.value) */\n      tag_78\n      jumpi\n      0x00\n      dup1\n      revert\n    tag_78:\n        /* \"Library.sol\":2177:2189  uint tokenId */\n      0x00\n        /* \"Library.sol\":2192:2204  tokenManager */\n      0x04\n      0x00\n      swap1\n      sload\n      swap1\n      0x0100\n      exp\n      swap1\n      div\n      0xffffffffffffffffffffffffffffffffffffffff\n      and\n        /* \"Library.sol\":2192:2220  tokenManager.createBookToken */\n      0xffffffffffffffffffffffffffffffffffffffff\n      and\n      0xa46d8ac7\n        /* \"Library.sol\":2221:2231  msg.sender */\n      caller\n        /* \"Library.sol\":2233:2243  _bookIndex */\n      dup8\n        /* \"Library.sol\":2245:2252  _period */\n      dup8\n        /* \"Library.sol\":2254:2259  _cost */\n      dup8\n        /* \"Library.sol\":2192:2260  tokenManager.createBookToken(msg.sender, _bookIndex, _period, _cost) */\n      mload(0x40)\n      dup6\n      0xffffffff\n      and\n      0xe0\n      shl\n      dup2\n      mstore\n      0x04\n      add\n      tag_79\n      swap5\n      swap4\n      swap3\n      swap2\n      swap1\n      tag_80\n      jump\t// in\n    tag_79:\n      0x20\n      mload(0x40)\n      dup1\n      dup4\n      sub\n      dup2\n      0x00\n      dup8\n      gas\n      call\n      iszero\n      dup1\n      iszero\n      tag_82\n      jumpi\n      returndatasize\n      0x00\n      dup1\n      returndatacopy\n      revert(0x00, returndatasize)\n    tag_82:\n      pop\n      pop\n      pop\n      pop\n      mload(0x40)\n      returndatasize\n      not(0x1f)\n      0x1f\n      dup3\n      add\n      and\n      dup3\n      add\n      dup1\n      0x40\n      mstore\n      pop\n      dup2\n      add\n      swap1\n      tag_83\n      swap2\n      swap1\n      tag_77\n      jump\t// in\n    tag_83:\n        /* \"Library.sol\":2177:2260  uint tokenId = tokenManager.createBookToken(msg.sender, _bookIndex, _period, _cost) */\n      swap1\n      pop\n        /* \"Library.sol\":2270:2281  userManager */\n      0x03\n      0x00\n      swap1\n      sload\n      swap1\n      0x0100\n      exp\n      swap1\n      div\n      0xffffffffffffffffffffffffffffffffffffffff\n      and\n        /* \"Library.sol\":2270:2291  userManager.purchased */\n      0xffffffffffffffffffffffffffffffffffffffff\n      and\n      0xe597ef12\n        /* \"Library.sol\":2292:2302  msg.sender */\n      caller\n        /* \"Library.sol\":2304:2311  tokenId */\n      dup4\n        /* \"Library.sol\":2270:2312  userManager.purchased(msg.sender, tokenId) */\n      mload(0x40)\n      dup4\n      0xffffffff\n      and\n      0xe0\n      shl\n      dup2\n      mstore\n      0x04\n      add\n      tag_84\n      swap3\n      swap2\n      swap1\n      tag_85\n      jump\t// in\n    tag_84:\n      0x00\n      mload(0x40)\n      dup1\n      dup4\n      sub\n      dup2\n      0x00\n      dup8\n      dup1\n      extcodesize\n      iszero\n      dup1\n      iszero\n      tag_86\n      jumpi\n      0x00\n      dup1\n      revert\n    tag_86:\n      pop\n      gas\n      call\n      iszero\n      dup1\n      iszero\n      tag_88\n      jumpi\n      returndatasize\n      0x00\n      dup1\n      returndatacopy\n      revert(0x00, returndatasize)\n    tag_88:\n      pop\n      pop\n      pop\n      pop\n        /* \"Library.sol\":2322:2333  bookManager */\n      0x02\n      0x00\n      swap1\n      sload\n      swap1\n      0x0100\n      exp\n      swap1\n      div\n      0xffffffffffffffffffffffffffffffffffffffff\n      and\n        /* \"Library.sol\":2322:2346  bookManager.tokenCreated */\n      0xffffffffffffffffffffffffffffffffffffffff\n      and\n      0x0a6b2a25\n        /* \"Library.sol\":2347:2357  _bookIndex */\n      dup7\n        /* \"Library.sol\":2322:2358  bookManager.tokenCreated(_bookIndex) */\n      mload(0x40)\n      dup3\n      0xffffffff\n      and\n      0xe0\n      shl\n      dup2\n      mstore\n      0x04\n      add\n      tag_89\n      swap2\n      swap1\n      tag_46\n      jump\t// in\n    tag_89:\n      0x00\n      mload(0x40)\n      dup1\n      dup4\n      sub\n      dup2\n      0x00\n      dup8\n      dup1\n      extcodesize\n      iszero\n      dup1\n      iszero\n      tag_90\n      jumpi\n      0x00\n      dup1\n      revert\n    tag_90:\n      pop\n      gas\n      call\n      iszero\n      dup1\n      iszero\n      tag_92\n      jumpi\n      returndatasize\n      0x00\n      dup1\n      returndatacopy\n      revert(0x00, returndatasize)\n    tag_92:\n      pop\n      pop\n      pop\n      pop\n        /* \"Library.sol\":2071:2368  {... */\n      pop\n      pop\n        /* \"Library.sol\":1973:2368  function createBookToken(uint _bookIndex, uint _period, uint _cost) public userRestricted payable {... */\n      pop\n      pop\n      pop\n      jump\t// out\n        /* \"Library.sol\":1305:1381  function register() public {... */\n    tag_20:\n        /* \"Library.sol\":1342:1353  userManager */\n      0x03\n      0x00\n      swap1\n      sload\n      swap1\n      0x0100\n      exp\n      swap1\n      div\n      0xffffffffffffffffffffffffffffffffffffffff\n      and\n        /* \"Library.sol\":1342:1362  userManager.register */\n      0xffffffffffffffffffffffffffffffffffffffff\n      and\n      0x4420e486\n        /* \"Library.sol\":1363:1373  msg.sender */\n      caller\n        /* \"Library.sol\":1342:1374  userManager.register(msg.sender) */\n      mload(0x40)\n      dup3\n      0xffffffff\n      and\n      0xe0\n      shl\n      dup2\n      mstore\n      0x04\n      add\n      tag_94\n      swap2\n      swap1\n      tag_41\n      jump\t// in\n    tag_94:\n      0x00\n      mload(0x40)\n      dup1\n      dup4\n      sub\n      dup2\n      0x00\n      dup8\n      dup1\n      extcodesize\n      iszero\n      dup1\n      iszero\n      tag_95\n      jumpi\n      0x00\n      dup1\n      revert\n    tag_95:\n      pop\n      gas\n      call\n      iszero\n      dup1\n      iszero\n      tag_97\n      jumpi\n      returndatasize\n      0x00\n      dup1\n      returndatacopy\n      revert(0x00, returndatasize)\n    tag_97:\n      pop\n      pop\n      pop\n      pop\n        /* \"Library.sol\":1305:1381  function register() public {... */\n      jump\t// out\n        /* \"Library.sol\":206:243  mapping(address => bool) public staff */\n    tag_25:\n      mstore(0x20, 0x01)\n      dup1\n      0x00\n      mstore\n      keccak256(0x00, 0x40)\n      0x00\n      swap2\n      pop\n      sload\n      swap1\n      0x0100\n      exp\n      swap1\n      div\n      0xff\n      and\n      dup2\n      jump\t// out\n        /* \"Library.sol\":1403:1653  function addBook(string memory _bookId, string memory _title, uint _price, address _authorAddress) public restricted {... */\n    tag_32:\n        /* \"Library.sol\":474:484  msg.sender */\n      caller\n        /* \"Library.sol\":465:484  owner == msg.sender */\n      0xffffffffffffffffffffffffffffffffffffffff\n      and\n        /* \"Library.sol\":465:470  owner */\n      0x00\n      dup1\n      sload\n      swap1\n      0x0100\n      exp\n      swap1\n      div\n      0xffffffffffffffffffffffffffffffffffffffff\n      and\n        /* \"Library.sol\":465:484  owner == msg.sender */\n      0xffffffffffffffffffffffffffffffffffffffff\n      and\n      eq\n        /* \"Library.sol\":457:485  require(owner == msg.sender) */\n      tag_99\n      jumpi\n      0x00\n      dup1\n      revert\n    tag_99:\n        /* \"Library.sol\":1539:1550  bookManager */\n      0x02\n      0x00\n      swap1\n      sload\n      swap1\n      0x0100\n      exp\n      swap1\n      div\n      0xffffffffffffffffffffffffffffffffffffffff\n      and\n        /* \"Library.sol\":1539:1566  bookManager.getIsStoredBook */\n      0xffffffffffffffffffffffffffffffffffffffff\n      and\n      0xe71448a9\n        /* \"Library.sol\":1567:1574  _bookId */\n      dup6\n        /* \"Library.sol\":1539:1575  bookManager.getIsStoredBook(_bookId) */\n      mload(0x40)\n      dup3\n      0xffffffff\n      and\n      0xe0\n      shl\n      dup2\n      mstore\n      0x04\n      add\n      tag_101\n      swap2\n      swap1\n      tag_102\n      jump\t// in\n    tag_101:\n      0x20\n      mload(0x40)\n      dup1\n      dup4\n      sub\n      dup2\n      dup7\n      gas\n      staticcall\n      iszero\n      dup1\n      iszero\n      tag_104\n      jumpi\n      returndatasize\n      0x00\n      dup1\n      returndatacopy\n      revert(0x00, returndatasize)\n    tag_104:\n      pop\n      pop\n      pop\n      pop\n      mload(0x40)\n      returndatasize\n      not(0x1f)\n      0x1f\n      dup3\n      add\n      and\n      dup3\n      add\n      dup1\n      0x40\n      mstore\n      pop\n      dup2\n      add\n      swap1\n      tag_105\n      swap2\n      swap1\n      tag_70\n      jump\t// in\n    tag_105:\n        /* \"Library.sol\":1538:1575  !bookManager.getIsStoredBook(_bookId) */\n      iszero\n        /* \"Library.sol\":1530:1576  require(!bookManager.getIsStoredBook(_bookId)) */\n      tag_106\n      jumpi\n      0x00\n      dup1\n      revert\n    tag_106:\n        /* \"Library.sol\":1586:1597  bookManager */\n      0x02\n      0x00\n      swap1\n      sload\n      swap1\n      0x0100\n      exp\n      swap1\n      div\n      0xffffffffffffffffffffffffffffffffffffffff\n      and\n        /* \"Library.sol\":1586:1605  bookManager.addBook */\n      0xffffffffffffffffffffffffffffffffffffffff\n      and\n      0x687564ae\n        /* \"Library.sol\":1606:1613  _bookId */\n      dup6\n        /* \"Library.sol\":1615:1621  _title */\n      dup6\n        /* \"Library.sol\":1623:1629  _price */\n      dup6\n        /* \"Library.sol\":1631:1645  _authorAddress */\n      dup6\n        /* \"Library.sol\":1586:1646  bookManager.addBook(_bookId, _title, _price, _authorAddress) */\n      mload(0x40)\n      dup6\n      0xffffffff\n      and\n      0xe0\n      shl\n      dup2\n      mstore\n      0x04\n      add\n      tag_107\n      swap5\n      swap4\n      swap3\n      swap2\n      swap1\n      tag_108\n      jump\t// in\n    tag_107:\n      0x00\n      mload(0x40)\n      dup1\n      dup4\n      sub\n      dup2\n      0x00\n      dup8\n      dup1\n      extcodesize\n      iszero\n      dup1\n      iszero\n      tag_109\n      jumpi\n      0x00\n      dup1\n      revert\n    tag_109:\n      pop\n      gas\n      call\n      iszero\n      dup1\n      iszero\n      tag_111\n      jumpi\n      returndatasize\n      0x00\n      dup1\n      returndatacopy\n      revert(0x00, returndatasize)\n    tag_111:\n      pop\n      pop\n      pop\n      pop\n        /* \"Library.sol\":1403:1653  function addBook(string memory _bookId, string memory _title, uint _price, address _authorAddress) public restricted {... */\n      pop\n      pop\n      pop\n      pop\n      jump\t// out\n        /* \"Library.sol\":2393:2782  function borrowBook(uint _tokenId) public userRestricted payable {... */\n    tag_36:\n        /* \"Library.sol\":552:563  userManager */\n      0x03\n      0x00\n      swap1\n      sload\n      swap1\n      0x0100\n      exp\n      swap1\n      div\n      0xffffffffffffffffffffffffffffffffffffffff\n      and\n        /* \"Library.sol\":552:578  userManager.getIsValidUser */\n      0xffffffffffffffffffffffffffffffffffffffff\n      and\n      0xecded204\n        /* \"Library.sol\":579:589  msg.sender */\n      caller\n        /* \"Library.sol\":552:590  userManager.getIsValidUser(msg.sender) */\n      mload(0x40)\n      dup3\n      0xffffffff\n      and\n      0xe0\n      shl\n      dup2\n      mstore\n      0x04\n      add\n      tag_113\n      swap2\n      swap1\n      tag_41\n      jump\t// in\n    tag_113:\n      0x20\n      mload(0x40)\n      dup1\n      dup4\n      sub\n      dup2\n      dup7\n      gas\n      staticcall\n      iszero\n      dup1\n      iszero\n      tag_115\n      jumpi\n      returndatasize\n      0x00\n      dup1\n      returndatacopy\n      revert(0x00, returndatasize)\n    tag_115:\n      pop\n      pop\n      pop\n      pop\n      mload(0x40)\n      returndatasize\n      not(0x1f)\n      0x1f\n      dup3\n      add\n      and\n      dup3\n      add\n      dup1\n      0x40\n      mstore\n      pop\n      dup2\n      add\n      swap1\n      tag_116\n      swap2\n      swap1\n      tag_70\n      jump\t// in\n    tag_116:\n        /* \"Library.sol\":544:591  require(userManager.getIsValidUser(msg.sender)) */\n      tag_117\n      jumpi\n      0x00\n      dup1\n      revert\n    tag_117:\n        /* \"Library.sol\":2468:2477  uint cost */\n      0x00\n        /* \"Library.sol\":2480:2492  tokenManager */\n      0x04\n      0x00\n      swap1\n      sload\n      swap1\n      0x0100\n      exp\n      swap1\n      div\n      0xffffffffffffffffffffffffffffffffffffffff\n      and\n        /* \"Library.sol\":2480:2505  tokenManager.getTokenCost */\n      0xffffffffffffffffffffffffffffffffffffffff\n      and\n      0x1ce06944\n        /* \"Library.sol\":2506:2514  _tokenId */\n      dup4\n        /* \"Library.sol\":2480:2515  tokenManager.getTokenCost(_tokenId) */\n      mload(0x40)\n      dup3\n      0xffffffff\n      and\n      0xe0\n      shl\n      dup2\n      mstore\n      0x04\n      add\n      tag_119\n      swap2\n      swap1\n      tag_46\n      jump\t// in\n    tag_119:\n      0x20\n      mload(0x40)\n      dup1\n      dup4\n      sub\n      dup2\n      dup7\n      gas\n      staticcall\n      iszero\n      dup1\n      iszero\n      tag_121\n      jumpi\n      returndatasize\n      0x00\n      dup1\n      returndatacopy\n      revert(0x00, returndatasize)\n    tag_121:\n      pop\n      pop\n      pop\n      pop\n      mload(0x40)\n      returndatasize\n      not(0x1f)\n      0x1f\n      dup3\n      add\n      and\n      dup3\n      add\n      dup1\n      0x40\n      mstore\n      pop\n      dup2\n      add\n      swap1\n      tag_122\n      swap2\n      swap1\n      tag_77\n      jump\t// in\n    tag_122:\n        /* \"Library.sol\":2468:2515  uint cost = tokenManager.getTokenCost(_tokenId) */\n      swap1\n      pop\n        /* \"Library.sol\":2525:2542  uint numBorrowing */\n      0x00\n        /* \"Library.sol\":2545:2556  userManager */\n      0x03\n      0x00\n      swap1\n      sload\n      swap1\n      0x0100\n      exp\n      swap1\n      div\n      0xffffffffffffffffffffffffffffffffffffffff\n      and\n        /* \"Library.sol\":2545:2572  userManager.getNumBorrowing */\n      0xffffffffffffffffffffffffffffffffffffffff\n      and\n      0x19aa98a3\n        /* \"Library.sol\":2573:2583  msg.sender */\n      caller\n        /* \"Library.sol\":2545:2584  userManager.getNumBorrowing(msg.sender) */\n      mload(0x40)\n      dup3\n      0xffffffff\n      and\n      0xe0\n      shl\n      dup2\n      mstore\n      0x04\n      add\n      tag_123\n      swap2\n      swap1\n      tag_41\n      jump\t// in\n    tag_123:\n      0x20\n      mload(0x40)\n      dup1\n      dup4\n      sub\n      dup2\n      dup7\n      gas\n      staticcall\n      iszero\n      dup1\n      iszero\n      tag_125\n      jumpi\n      returndatasize\n      0x00\n      dup1\n      returndatacopy\n      revert(0x00, returndatasize)\n    tag_125:\n      pop\n      pop\n      pop\n      pop\n      mload(0x40)\n      returndatasize\n      not(0x1f)\n      0x1f\n      dup3\n      add\n      and\n      dup3\n      add\n      dup1\n      0x40\n      mstore\n      pop\n      dup2\n      add\n      swap1\n      tag_126\n      swap2\n      swap1\n      tag_77\n      jump\t// in\n    tag_126:\n        /* \"Library.sol\":2525:2584  uint numBorrowing = userManager.getNumBorrowing(msg.sender) */\n      swap1\n      pop\n        /* \"Library.sol\":2617:2629  maxBorrowing */\n      sload(0x06)\n        /* \"Library.sol\":2602:2614  numBorrowing */\n      dup2\n        /* \"Library.sol\":2602:2629  numBorrowing < maxBorrowing */\n      lt\n        /* \"Library.sol\":2594:2630  require(numBorrowing < maxBorrowing) */\n      tag_127\n      jumpi\n      0x00\n      dup1\n      revert\n    tag_127:\n        /* \"Library.sol\":2656:2665  msg.value */\n      callvalue\n        /* \"Library.sol\":2648:2652  cost */\n      dup3\n        /* \"Library.sol\":2648:2665  cost == msg.value */\n      eq\n        /* \"Library.sol\":2640:2666  require(cost == msg.value) */\n      tag_128\n      jumpi\n      0x00\n      dup1\n      revert\n    tag_128:\n        /* \"Library.sol\":2676:2688  tokenManager */\n      0x04\n      0x00\n      swap1\n      sload\n      swap1\n      0x0100\n      exp\n      swap1\n      div\n      0xffffffffffffffffffffffffffffffffffffffff\n      and\n        /* \"Library.sol\":2676:2701  tokenManager.changeReader */\n      0xffffffffffffffffffffffffffffffffffffffff\n      and\n      0xab21a2be\n        /* \"Library.sol\":2702:2710  _tokenId */\n      dup5\n        /* \"Library.sol\":2712:2722  msg.sender */\n      caller\n        /* \"Library.sol\":2676:2723  tokenManager.changeReader(_tokenId, msg.sender) */\n      mload(0x40)\n      dup4\n      0xffffffff\n      and\n      0xe0\n      shl\n      dup2\n      mstore\n      0x04\n      add\n      tag_129\n      swap3\n      swap2\n      swap1\n      tag_130\n      jump\t// in\n    tag_129:\n      0x00\n      mload(0x40)\n      dup1\n      dup4\n      sub\n      dup2\n      0x00\n      dup8\n      dup1\n      extcodesize\n      iszero\n      dup1\n      iszero\n      tag_131\n      jumpi\n      0x00\n      dup1\n      revert\n    tag_131:\n      pop\n      gas\n      call\n      iszero\n      dup1\n      iszero\n      tag_133\n      jumpi\n      returndatasize\n      0x00\n      dup1\n      returndatacopy\n      revert(0x00, returndatasize)\n    tag_133:\n      pop\n      pop\n      pop\n      pop\n        /* \"Library.sol\":2733:2744  userManager */\n      0x03\n      0x00\n      swap1\n      sload\n      swap1\n      0x0100\n      exp\n      swap1\n      div\n      0xffffffffffffffffffffffffffffffffffffffff\n      and\n        /* \"Library.sol\":2733:2753  userManager.borrowed */\n      0xffffffffffffffffffffffffffffffffffffffff\n      and\n      0xa5a9c518\n        /* \"Library.sol\":2754:2764  msg.sender */\n      caller\n        /* \"Library.sol\":2766:2774  _tokenId */\n      dup6\n        /* \"Library.sol\":2733:2775  userManager.borrowed(msg.sender, _tokenId) */\n      mload(0x40)\n      dup4\n      0xffffffff\n      and\n      0xe0\n      shl\n      dup2\n      mstore\n      0x04\n      add\n      tag_134\n      swap3\n      swap2\n      swap1\n      tag_85\n      jump\t// in\n    tag_134:\n      0x00\n      mload(0x40)\n      dup1\n      dup4\n      sub\n      dup2\n      0x00\n      dup8\n      dup1\n      extcodesize\n      iszero\n      dup1\n      iszero\n      tag_135\n      jumpi\n      0x00\n      dup1\n      revert\n    tag_135:\n      pop\n      gas\n      call\n      iszero\n      dup1\n      iszero\n      tag_137\n      jumpi\n      returndatasize\n      0x00\n      dup1\n      returndatacopy\n      revert(0x00, returndatasize)\n    tag_137:\n      pop\n      pop\n      pop\n      pop\n        /* \"Library.sol\":2458:2782  {... */\n      pop\n      pop\n        /* \"Library.sol\":2393:2782  function borrowBook(uint _tokenId) public userRestricted payable {... */\n      pop\n      jump\t// out\n        /* \"Library.sol\":180:200  address public owner */\n    tag_39:\n      0x00\n      dup1\n      sload\n      swap1\n      0x0100\n      exp\n      swap1\n      div\n      0xffffffffffffffffffffffffffffffffffffffff\n      and\n      dup2\n      jump\t// out\n        /* \"Library.sol\":394:418  uint public maxBorrowing */\n    tag_44:\n      sload(0x06)\n      dup2\n      jump\t// out\n        /* \"Library.sol\":3107:3224  function getManagerAddress() external restricted view returns(address[] memory){... */\n    tag_49:\n        /* \"Library.sol\":3169:3185  address[] memory */\n      0x60\n        /* \"Library.sol\":474:484  msg.sender */\n      caller\n        /* \"Library.sol\":465:484  owner == msg.sender */\n      0xffffffffffffffffffffffffffffffffffffffff\n      and\n        /* \"Library.sol\":465:470  owner */\n      0x00\n      dup1\n      sload\n      swap1\n      0x0100\n      exp\n      swap1\n      div\n      0xffffffffffffffffffffffffffffffffffffffff\n      and\n        /* \"Library.sol\":465:484  owner == msg.sender */\n      0xffffffffffffffffffffffffffffffffffffffff\n      and\n      eq\n        /* \"Library.sol\":457:485  require(owner == msg.sender) */\n      tag_139\n      jumpi\n      0x00\n      dup1\n      revert\n    tag_139:\n        /* \"Library.sol\":3203:3217  managerAddress */\n      0x05\n        /* \"Library.sol\":3196:3217  return managerAddress */\n      dup1\n      sload\n      dup1\n      0x20\n      mul\n      0x20\n      add\n      mload(0x40)\n      swap1\n      dup2\n      add\n      0x40\n      mstore\n      dup1\n      swap3\n      swap2\n      swap1\n      dup2\n      dup2\n      mstore\n      0x20\n      add\n      dup3\n      dup1\n      sload\n      dup1\n      iszero\n      tag_141\n      jumpi\n      0x20\n      mul\n      dup3\n      add\n      swap2\n      swap1\n      0x00\n      mstore\n      keccak256(0x00, 0x20)\n      swap1\n    tag_142:\n      dup2\n      0x00\n      swap1\n      sload\n      swap1\n      0x0100\n      exp\n      swap1\n      div\n      0xffffffffffffffffffffffffffffffffffffffff\n      and\n      0xffffffffffffffffffffffffffffffffffffffff\n      and\n      dup2\n      mstore\n      0x20\n      add\n      swap1\n      0x01\n      add\n      swap1\n      dup1\n      dup4\n      gt\n      tag_142\n      jumpi\n    tag_141:\n      pop\n      pop\n      pop\n      pop\n      pop\n      swap1\n      pop\n        /* \"Library.sol\":3107:3224  function getManagerAddress() external restricted view returns(address[] memory){... */\n      swap1\n      jump\t// out\n        /* \"Library.sol\":2807:3069  function returnBook(uint _tokenId) public userRestricted {... */\n    tag_55:\n        /* \"Library.sol\":552:563  userManager */\n      0x03\n      0x00\n      swap1\n      sload\n      swap1\n      0x0100\n      exp\n      swap1\n      div\n      0xffffffffffffffffffffffffffffffffffffffff\n      and\n        /* \"Library.sol\":552:578  userManager.getIsValidUser */\n      0xffffffffffffffffffffffffffffffffffffffff\n      and\n      0xecded204\n        /* \"Library.sol\":579:589  msg.sender */\n      caller\n        /* \"Library.sol\":552:590  userManager.getIsValidUser(msg.sender) */\n      mload(0x40)\n      dup3\n      0xffffffff\n      and\n      0xe0\n      shl\n      dup2\n      mstore\n      0x04\n      add\n      tag_144\n      swap2\n      swap1\n      tag_41\n      jump\t// in\n    tag_144:\n      0x20\n      mload(0x40)\n      dup1\n      dup4\n      sub\n      dup2\n      dup7\n      gas\n      staticcall\n      iszero\n      dup1\n      iszero\n      tag_146\n      jumpi\n      returndatasize\n      0x00\n      dup1\n      returndatacopy\n      revert(0x00, returndatasize)\n    tag_146:\n      pop\n      pop\n      pop\n      pop\n      mload(0x40)\n      returndatasize\n      not(0x1f)\n      0x1f\n      dup3\n      add\n      and\n      dup3\n      add\n      dup1\n      0x40\n      mstore\n      pop\n      dup2\n      add\n      swap1\n      tag_147\n      swap2\n      swap1\n      tag_70\n      jump\t// in\n    tag_147:\n        /* \"Library.sol\":544:591  require(userManager.getIsValidUser(msg.sender)) */\n      tag_148\n      jumpi\n      0x00\n      dup1\n      revert\n    tag_148:\n        /* \"Library.sol\":2874:2888  address reader */\n      0x00\n        /* \"Library.sol\":2891:2903  tokenManager */\n      0x04\n      0x00\n      swap1\n      sload\n      swap1\n      0x0100\n      exp\n      swap1\n      div\n      0xffffffffffffffffffffffffffffffffffffffff\n      and\n        /* \"Library.sol\":2891:2918  tokenManager.getTokenReader */\n      0xffffffffffffffffffffffffffffffffffffffff\n      and\n      0x3b2f7118\n        /* \"Library.sol\":2919:2927  _tokenId */\n      dup4\n        /* \"Library.sol\":2891:2928  tokenManager.getTokenReader(_tokenId) */\n      mload(0x40)\n      dup3\n      0xffffffff\n      and\n      0xe0\n      shl\n      dup2\n      mstore\n      0x04\n      add\n      tag_150\n      swap2\n      swap1\n      tag_46\n      jump\t// in\n    tag_150:\n      0x20\n      mload(0x40)\n      dup1\n      dup4\n      sub\n      dup2\n      dup7\n      gas\n      staticcall\n      iszero\n      dup1\n      iszero\n      tag_152\n      jumpi\n      returndatasize\n      0x00\n      dup1\n      returndatacopy\n      revert(0x00, returndatasize)\n    tag_152:\n      pop\n      pop\n      pop\n      pop\n      mload(0x40)\n      returndatasize\n      not(0x1f)\n      0x1f\n      dup3\n      add\n      and\n      dup3\n      add\n      dup1\n      0x40\n      mstore\n      pop\n      dup2\n      add\n      swap1\n      tag_153\n      swap2\n      swap1\n      tag_154\n      jump\t// in\n    tag_153:\n        /* \"Library.sol\":2874:2928  address reader = tokenManager.getTokenReader(_tokenId) */\n      swap1\n      pop\n        /* \"Library.sol\":2956:2966  msg.sender */\n      caller\n        /* \"Library.sol\":2946:2966  reader == msg.sender */\n      0xffffffffffffffffffffffffffffffffffffffff\n      and\n        /* \"Library.sol\":2946:2952  reader */\n      dup2\n        /* \"Library.sol\":2946:2966  reader == msg.sender */\n      0xffffffffffffffffffffffffffffffffffffffff\n      and\n      eq\n        /* \"Library.sol\":2938:2967  require(reader == msg.sender) */\n      tag_155\n      jumpi\n      0x00\n      dup1\n      revert\n    tag_155:\n        /* \"Library.sol\":2977:2989  tokenManager */\n      0x04\n      0x00\n      swap1\n      sload\n      swap1\n      0x0100\n      exp\n      swap1\n      div\n      0xffffffffffffffffffffffffffffffffffffffff\n      and\n        /* \"Library.sol\":2977:3000  tokenManager.returnBook */\n      0xffffffffffffffffffffffffffffffffffffffff\n      and\n      0xca5140c9\n        /* \"Library.sol\":3001:3009  _tokenId */\n      dup4\n        /* \"Library.sol\":2977:3010  tokenManager.returnBook(_tokenId) */\n      mload(0x40)\n      dup3\n      0xffffffff\n      and\n      0xe0\n      shl\n      dup2\n      mstore\n      0x04\n      add\n      tag_156\n      swap2\n      swap1\n      tag_46\n      jump\t// in\n    tag_156:\n      0x00\n      mload(0x40)\n      dup1\n      dup4\n      sub\n      dup2\n      0x00\n      dup8\n      dup1\n      extcodesize\n      iszero\n      dup1\n      iszero\n      tag_157\n      jumpi\n      0x00\n      dup1\n      revert\n    tag_157:\n      pop\n      gas\n      call\n      iszero\n      dup1\n      iszero\n      tag_159\n      jumpi\n      returndatasize\n      0x00\n      dup1\n      returndatacopy\n      revert(0x00, returndatasize)\n    tag_159:\n      pop\n      pop\n      pop\n      pop\n        /* \"Library.sol\":3020:3031  userManager */\n      0x03\n      0x00\n      swap1\n      sload\n      swap1\n      0x0100\n      exp\n      swap1\n      div\n      0xffffffffffffffffffffffffffffffffffffffff\n      and\n        /* \"Library.sol\":3020:3040  userManager.returned */\n      0xffffffffffffffffffffffffffffffffffffffff\n      and\n      0x4a09db4f\n        /* \"Library.sol\":3041:3051  msg.sender */\n      caller\n        /* \"Library.sol\":3053:3061  _tokenId */\n      dup5\n        /* \"Library.sol\":3020:3062  userManager.returned(msg.sender, _tokenId) */\n      mload(0x40)\n      dup4\n      0xffffffff\n      and\n      0xe0\n      shl\n      dup2\n      mstore\n      0x04\n      add\n      tag_160\n      swap3\n      swap2\n      swap1\n      tag_85\n      jump\t// in\n    tag_160:\n      0x00\n      mload(0x40)\n      dup1\n      dup4\n      sub\n      dup2\n      0x00\n      dup8\n      dup1\n      extcodesize\n      iszero\n      dup1\n      iszero\n      tag_161\n      jumpi\n      0x00\n      dup1\n      revert\n    tag_161:\n      pop\n      gas\n      call\n      iszero\n      dup1\n      iszero\n      tag_163\n      jumpi\n      returndatasize\n      0x00\n      dup1\n      returndatacopy\n      revert(0x00, returndatasize)\n    tag_163:\n      pop\n      pop\n      pop\n      pop\n        /* \"Library.sol\":2864:3069  {... */\n      pop\n        /* \"Library.sol\":2807:3069  function returnBook(uint _tokenId) public userRestricted {... */\n      pop\n      jump\t// out\n        /* \"Library.sol\":1678:1941  function modifyBook( uint _index, string memory _bookId, string memory _title, uint _price, address _authorAddress)... */\n    tag_60:\n        /* \"Library.sol\":1831:1836  staff */\n      0x01\n        /* \"Library.sol\":1831:1848  staff[msg.sender] */\n      0x00\n        /* \"Library.sol\":1837:1847  msg.sender */\n      caller\n        /* \"Library.sol\":1831:1848  staff[msg.sender] */\n      0xffffffffffffffffffffffffffffffffffffffff\n      and\n      0xffffffffffffffffffffffffffffffffffffffff\n      and\n      dup2\n      mstore\n      0x20\n      add\n      swap1\n      dup2\n      mstore\n      0x20\n      add\n      0x00\n      keccak256\n      0x00\n      swap1\n      sload\n      swap1\n      0x0100\n      exp\n      swap1\n      div\n      0xff\n      and\n        /* \"Library.sol\":1823:1849  require(staff[msg.sender]) */\n      tag_165\n      jumpi\n      0x00\n      dup1\n      revert\n    tag_165:\n        /* \"Library.sol\":1863:1874  bookManager */\n      0x02\n      0x00\n      swap1\n      sload\n      swap1\n      0x0100\n      exp\n      swap1\n      div\n      0xffffffffffffffffffffffffffffffffffffffff\n      and\n        /* \"Library.sol\":1863:1885  bookManager.modifyBook */\n      0xffffffffffffffffffffffffffffffffffffffff\n      and\n      0xd2c07e20\n        /* \"Library.sol\":1886:1892  _index */\n      dup7\n        /* \"Library.sol\":1894:1901  _bookId */\n      dup7\n        /* \"Library.sol\":1903:1909  _title */\n      dup7\n        /* \"Library.sol\":1911:1917  _price */\n      dup7\n        /* \"Library.sol\":1919:1933  _authorAddress */\n      dup7\n        /* \"Library.sol\":1863:1934  bookManager.modifyBook(_index, _bookId, _title, _price, _authorAddress) */\n      mload(0x40)\n      dup7\n      0xffffffff\n      and\n      0xe0\n      shl\n      dup2\n      mstore\n      0x04\n      add\n      tag_166\n      swap6\n      swap5\n      swap4\n      swap3\n      swap2\n      swap1\n      tag_167\n      jump\t// in\n    tag_166:\n      0x00\n      mload(0x40)\n      dup1\n      dup4\n      sub\n      dup2\n      0x00\n      dup8\n      dup1\n      extcodesize\n      iszero\n      dup1\n      iszero\n      tag_168\n      jumpi\n      0x00\n      dup1\n      revert\n    tag_168:\n      pop\n      gas\n      call\n      iszero\n      dup1\n      iszero\n      tag_170\n      jumpi\n      returndatasize\n      0x00\n      dup1\n      returndatacopy\n      revert(0x00, returndatasize)\n    tag_170:\n      pop\n      pop\n      pop\n      pop\n        /* \"Library.sol\":1678:1941  function modifyBook( uint _index, string memory _bookId, string memory _title, uint _price, address _authorAddress)... */\n      pop\n      pop\n      pop\n      pop\n      pop\n      jump\t// out\n        /* \"Library.sol\":1173:1278  function inviteStaff(address _staffAddress) public restricted{... */\n    tag_64:\n        /* \"Library.sol\":474:484  msg.sender */\n      caller\n        /* \"Library.sol\":465:484  owner == msg.sender */\n      0xffffffffffffffffffffffffffffffffffffffff\n      and\n        /* \"Library.sol\":465:470  owner */\n      0x00\n      dup1\n      sload\n      swap1\n      0x0100\n      exp\n      swap1\n      div\n      0xffffffffffffffffffffffffffffffffffffffff\n      and\n        /* \"Library.sol\":465:484  owner == msg.sender */\n      0xffffffffffffffffffffffffffffffffffffffff\n      and\n      eq\n        /* \"Library.sol\":457:485  require(owner == msg.sender) */\n      tag_172\n      jumpi\n      0x00\n      dup1\n      revert\n    tag_172:\n        /* \"Library.sol\":1267:1271  true */\n      0x01\n        /* \"Library.sol\":1244:1249  staff */\n      dup1\n        /* \"Library.sol\":1244:1264  staff[_staffAddress] */\n      0x00\n        /* \"Library.sol\":1250:1263  _staffAddress */\n      dup4\n        /* \"Library.sol\":1244:1264  staff[_staffAddress] */\n      0xffffffffffffffffffffffffffffffffffffffff\n      and\n      0xffffffffffffffffffffffffffffffffffffffff\n      and\n      dup2\n      mstore\n      0x20\n      add\n      swap1\n      dup2\n      mstore\n      0x20\n      add\n      0x00\n      keccak256\n      0x00\n        /* \"Library.sol\":1244:1271  staff[_staffAddress] = true */\n      0x0100\n      exp\n      dup2\n      sload\n      dup2\n      0xff\n      mul\n      not\n      and\n      swap1\n      dup4\n      iszero\n      iszero\n      mul\n      or\n      swap1\n      sstore\n      pop\n        /* \"Library.sol\":1173:1278  function inviteStaff(address _staffAddress) public restricted{... */\n      pop\n      jump\t// out\n        /* \"#utility.yul\":7:82   */\n    tag_174:\n        /* \"#utility.yul\":40:46   */\n      0x00\n        /* \"#utility.yul\":73:75   */\n      0x40\n        /* \"#utility.yul\":67:76   */\n      mload\n        /* \"#utility.yul\":57:76   */\n      swap1\n      pop\n        /* \"#utility.yul\":7:82   */\n      swap1\n      jump\t// out\n        /* \"#utility.yul\":88:205   */\n    tag_175:\n        /* \"#utility.yul\":197:198   */\n      0x00\n        /* \"#utility.yul\":194:195   */\n      dup1\n        /* \"#utility.yul\":187:199   */\n      revert\n        /* \"#utility.yul\":211:328   */\n    tag_176:\n        /* \"#utility.yul\":320:321   */\n      0x00\n        /* \"#utility.yul\":317:318   */\n      dup1\n        /* \"#utility.yul\":310:322   */\n      revert\n        /* \"#utility.yul\":334:411   */\n    tag_177:\n        /* \"#utility.yul\":371:378   */\n      0x00\n        /* \"#utility.yul\":400:405   */\n      dup2\n        /* \"#utility.yul\":389:405   */\n      swap1\n      pop\n        /* \"#utility.yul\":334:411   */\n      swap2\n      swap1\n      pop\n      jump\t// out\n        /* \"#utility.yul\":417:539   */\n    tag_178:\n        /* \"#utility.yul\":490:514   */\n      tag_219\n        /* \"#utility.yul\":508:513   */\n      dup2\n        /* \"#utility.yul\":490:514   */\n      tag_177\n      jump\t// in\n    tag_219:\n        /* \"#utility.yul\":483:488   */\n      dup2\n        /* \"#utility.yul\":480:515   */\n      eq\n        /* \"#utility.yul\":470:533   */\n      tag_220\n      jumpi\n        /* \"#utility.yul\":529:530   */\n      0x00\n        /* \"#utility.yul\":526:527   */\n      dup1\n        /* \"#utility.yul\":519:531   */\n      revert\n        /* \"#utility.yul\":470:533   */\n    tag_220:\n        /* \"#utility.yul\":417:539   */\n      pop\n      jump\t// out\n        /* \"#utility.yul\":545:684   */\n    tag_179:\n        /* \"#utility.yul\":591:596   */\n      0x00\n        /* \"#utility.yul\":629:635   */\n      dup2\n        /* \"#utility.yul\":616:636   */\n      calldataload\n        /* \"#utility.yul\":607:636   */\n      swap1\n      pop\n        /* \"#utility.yul\":645:678   */\n      tag_222\n        /* \"#utility.yul\":672:677   */\n      dup2\n        /* \"#utility.yul\":645:678   */\n      tag_178\n      jump\t// in\n    tag_222:\n        /* \"#utility.yul\":545:684   */\n      swap3\n      swap2\n      pop\n      pop\n      jump\t// out\n        /* \"#utility.yul\":690:1309   */\n    tag_16:\n        /* \"#utility.yul\":767:773   */\n      0x00\n        /* \"#utility.yul\":775:781   */\n      dup1\n        /* \"#utility.yul\":783:789   */\n      0x00\n        /* \"#utility.yul\":832:834   */\n      0x60\n        /* \"#utility.yul\":820:829   */\n      dup5\n        /* \"#utility.yul\":811:818   */\n      dup7\n        /* \"#utility.yul\":807:830   */\n      sub\n        /* \"#utility.yul\":803:835   */\n      slt\n        /* \"#utility.yul\":800:919   */\n      iszero\n      tag_224\n      jumpi\n        /* \"#utility.yul\":838:917   */\n      tag_225\n      tag_175\n      jump\t// in\n    tag_225:\n        /* \"#utility.yul\":800:919   */\n    tag_224:\n        /* \"#utility.yul\":958:959   */\n      0x00\n        /* \"#utility.yul\":983:1036   */\n      tag_226\n        /* \"#utility.yul\":1028:1035   */\n      dup7\n        /* \"#utility.yul\":1019:1025   */\n      dup3\n        /* \"#utility.yul\":1008:1017   */\n      dup8\n        /* \"#utility.yul\":1004:1026   */\n      add\n        /* \"#utility.yul\":983:1036   */\n      tag_179\n      jump\t// in\n    tag_226:\n        /* \"#utility.yul\":973:1036   */\n      swap4\n      pop\n        /* \"#utility.yul\":929:1046   */\n      pop\n        /* \"#utility.yul\":1085:1087   */\n      0x20\n        /* \"#utility.yul\":1111:1164   */\n      tag_227\n        /* \"#utility.yul\":1156:1163   */\n      dup7\n        /* \"#utility.yul\":1147:1153   */\n      dup3\n        /* \"#utility.yul\":1136:1145   */\n      dup8\n        /* \"#utility.yul\":1132:1154   */\n      add\n        /* \"#utility.yul\":1111:1164   */\n      tag_179\n      jump\t// in\n    tag_227:\n        /* \"#utility.yul\":1101:1164   */\n      swap3\n      pop\n        /* \"#utility.yul\":1056:1174   */\n      pop\n        /* \"#utility.yul\":1213:1215   */\n      0x40\n        /* \"#utility.yul\":1239:1292   */\n      tag_228\n        /* \"#utility.yul\":1284:1291   */\n      dup7\n        /* \"#utility.yul\":1275:1281   */\n      dup3\n        /* \"#utility.yul\":1264:1273   */\n      dup8\n        /* \"#utility.yul\":1260:1282   */\n      add\n        /* \"#utility.yul\":1239:1292   */\n      tag_179\n      jump\t// in\n    tag_228:\n        /* \"#utility.yul\":1229:1292   */\n      swap2\n      pop\n        /* \"#utility.yul\":1184:1302   */\n      pop\n        /* \"#utility.yul\":690:1309   */\n      swap3\n      pop\n      swap3\n      pop\n      swap3\n      jump\t// out\n        /* \"#utility.yul\":1315:1441   */\n    tag_180:\n        /* \"#utility.yul\":1352:1359   */\n      0x00\n        /* \"#utility.yul\":1392:1434   */\n      0xffffffffffffffffffffffffffffffffffffffff\n        /* \"#utility.yul\":1385:1390   */\n      dup3\n        /* \"#utility.yul\":1381:1435   */\n      and\n        /* \"#utility.yul\":1370:1435   */\n      swap1\n      pop\n        /* \"#utility.yul\":1315:1441   */\n      swap2\n      swap1\n      pop\n      jump\t// out\n        /* \"#utility.yul\":1447:1543   */\n    tag_181:\n        /* \"#utility.yul\":1484:1491   */\n      0x00\n        /* \"#utility.yul\":1513:1537   */\n      tag_231\n        /* \"#utility.yul\":1531:1536   */\n      dup3\n        /* \"#utility.yul\":1513:1537   */\n      tag_180\n      jump\t// in\n    tag_231:\n        /* \"#utility.yul\":1502:1537   */\n      swap1\n      pop\n        /* \"#utility.yul\":1447:1543   */\n      swap2\n      swap1\n      pop\n      jump\t// out\n        /* \"#utility.yul\":1549:1671   */\n    tag_182:\n        /* \"#utility.yul\":1622:1646   */\n      tag_233\n        /* \"#utility.yul\":1640:1645   */\n      dup2\n        /* \"#utility.yul\":1622:1646   */\n      tag_181\n      jump\t// in\n    tag_233:\n        /* \"#utility.yul\":1615:1620   */\n      dup2\n        /* \"#utility.yul\":1612:1647   */\n      eq\n        /* \"#utility.yul\":1602:1665   */\n      tag_234\n      jumpi\n        /* \"#utility.yul\":1661:1662   */\n      0x00\n        /* \"#utility.yul\":1658:1659   */\n      dup1\n        /* \"#utility.yul\":1651:1663   */\n      revert\n        /* \"#utility.yul\":1602:1665   */\n    tag_234:\n        /* \"#utility.yul\":1549:1671   */\n      pop\n      jump\t// out\n        /* \"#utility.yul\":1677:1816   */\n    tag_183:\n        /* \"#utility.yul\":1723:1728   */\n      0x00\n        /* \"#utility.yul\":1761:1767   */\n      dup2\n        /* \"#utility.yul\":1748:1768   */\n      calldataload\n        /* \"#utility.yul\":1739:1768   */\n      swap1\n      pop\n        /* \"#utility.yul\":1777:1810   */\n      tag_236\n        /* \"#utility.yul\":1804:1809   */\n      dup2\n        /* \"#utility.yul\":1777:1810   */\n      tag_182\n      jump\t// in\n    tag_236:\n        /* \"#utility.yul\":1677:1816   */\n      swap3\n      swap2\n      pop\n      pop\n      jump\t// out\n        /* \"#utility.yul\":1822:2151   */\n    tag_24:\n        /* \"#utility.yul\":1881:1887   */\n      0x00\n        /* \"#utility.yul\":1930:1932   */\n      0x20\n        /* \"#utility.yul\":1918:1927   */\n      dup3\n        /* \"#utility.yul\":1909:1916   */\n      dup5\n        /* \"#utility.yul\":1905:1928   */\n      sub\n        /* \"#utility.yul\":1901:1933   */\n      slt\n        /* \"#utility.yul\":1898:2017   */\n      iszero\n      tag_238\n      jumpi\n        /* \"#utility.yul\":1936:2015   */\n      tag_239\n      tag_175\n      jump\t// in\n    tag_239:\n        /* \"#utility.yul\":1898:2017   */\n    tag_238:\n        /* \"#utility.yul\":2056:2057   */\n      0x00\n        /* \"#utility.yul\":2081:2134   */\n      tag_240\n        /* \"#utility.yul\":2126:2133   */\n      dup5\n        /* \"#utility.yul\":2117:2123   */\n      dup3\n        /* \"#utility.yul\":2106:2115   */\n      dup6\n        /* \"#utility.yul\":2102:2124   */\n      add\n        /* \"#utility.yul\":2081:2134   */\n      tag_183\n      jump\t// in\n    tag_240:\n        /* \"#utility.yul\":2071:2134   */\n      swap2\n      pop\n        /* \"#utility.yul\":2027:2144   */\n      pop\n        /* \"#utility.yul\":1822:2151   */\n      swap3\n      swap2\n      pop\n      pop\n      jump\t// out\n        /* \"#utility.yul\":2157:2247   */\n    tag_184:\n        /* \"#utility.yul\":2191:2198   */\n      0x00\n        /* \"#utility.yul\":2234:2239   */\n      dup2\n        /* \"#utility.yul\":2227:2240   */\n      iszero\n        /* \"#utility.yul\":2220:2241   */\n      iszero\n        /* \"#utility.yul\":2209:2241   */\n      swap1\n      pop\n        /* \"#utility.yul\":2157:2247   */\n      swap2\n      swap1\n      pop\n      jump\t// out\n        /* \"#utility.yul\":2253:2362   */\n    tag_185:\n        /* \"#utility.yul\":2334:2355   */\n      tag_243\n        /* \"#utility.yul\":2349:2354   */\n      dup2\n        /* \"#utility.yul\":2334:2355   */\n      tag_184\n      jump\t// in\n    tag_243:\n        /* \"#utility.yul\":2329:2332   */\n      dup3\n        /* \"#utility.yul\":2322:2356   */\n      mstore\n        /* \"#utility.yul\":2253:2362   */\n      pop\n      pop\n      jump\t// out\n        /* \"#utility.yul\":2368:2578   */\n    tag_27:\n        /* \"#utility.yul\":2455:2459   */\n      0x00\n        /* \"#utility.yul\":2493:2495   */\n      0x20\n        /* \"#utility.yul\":2482:2491   */\n      dup3\n        /* \"#utility.yul\":2478:2496   */\n      add\n        /* \"#utility.yul\":2470:2496   */\n      swap1\n      pop\n        /* \"#utility.yul\":2506:2571   */\n      tag_245\n        /* \"#utility.yul\":2568:2569   */\n      0x00\n        /* \"#utility.yul\":2557:2566   */\n      dup4\n        /* \"#utility.yul\":2553:2570   */\n      add\n        /* \"#utility.yul\":2544:2550   */\n      dup5\n        /* \"#utility.yul\":2506:2571   */\n      tag_185\n      jump\t// in\n    tag_245:\n        /* \"#utility.yul\":2368:2578   */\n      swap3\n      swap2\n      pop\n      pop\n      jump\t// out\n        /* \"#utility.yul\":2584:2701   */\n    tag_186:\n        /* \"#utility.yul\":2693:2694   */\n      0x00\n        /* \"#utility.yul\":2690:2691   */\n      dup1\n        /* \"#utility.yul\":2683:2695   */\n      revert\n        /* \"#utility.yul\":2707:2824   */\n    tag_187:\n        /* \"#utility.yul\":2816:2817   */\n      0x00\n        /* \"#utility.yul\":2813:2814   */\n      dup1\n        /* \"#utility.yul\":2806:2818   */\n      revert\n        /* \"#utility.yul\":2830:2932   */\n    tag_188:\n        /* \"#utility.yul\":2871:2877   */\n      0x00\n        /* \"#utility.yul\":2922:2924   */\n      0x1f\n        /* \"#utility.yul\":2918:2925   */\n      not\n        /* \"#utility.yul\":2913:2915   */\n      0x1f\n        /* \"#utility.yul\":2906:2911   */\n      dup4\n        /* \"#utility.yul\":2902:2916   */\n      add\n        /* \"#utility.yul\":2898:2926   */\n      and\n        /* \"#utility.yul\":2888:2926   */\n      swap1\n      pop\n        /* \"#utility.yul\":2830:2932   */\n      swap2\n      swap1\n      pop\n      jump\t// out\n        /* \"#utility.yul\":2938:3118   */\n    tag_189:\n        /* \"#utility.yul\":2986:3063   */\n      0x4e487b7100000000000000000000000000000000000000000000000000000000\n        /* \"#utility.yul\":2983:2984   */\n      0x00\n        /* \"#utility.yul\":2976:3064   */\n      mstore\n        /* \"#utility.yul\":3083:3087   */\n      0x41\n        /* \"#utility.yul\":3080:3081   */\n      0x04\n        /* \"#utility.yul\":3073:3088   */\n      mstore\n        /* \"#utility.yul\":3107:3111   */\n      0x24\n        /* \"#utility.yul\":3104:3105   */\n      0x00\n        /* \"#utility.yul\":3097:3112   */\n      revert\n        /* \"#utility.yul\":3124:3405   */\n    tag_190:\n        /* \"#utility.yul\":3207:3234   */\n      tag_251\n        /* \"#utility.yul\":3229:3233   */\n      dup3\n        /* \"#utility.yul\":3207:3234   */\n      tag_188\n      jump\t// in\n    tag_251:\n        /* \"#utility.yul\":3199:3205   */\n      dup2\n        /* \"#utility.yul\":3195:3235   */\n      add\n        /* \"#utility.yul\":3337:3343   */\n      dup2\n        /* \"#utility.yul\":3325:3335   */\n      dup2\n        /* \"#utility.yul\":3322:3344   */\n      lt\n        /* \"#utility.yul\":3301:3319   */\n      0xffffffffffffffff\n        /* \"#utility.yul\":3289:3299   */\n      dup3\n        /* \"#utility.yul\":3286:3320   */\n      gt\n        /* \"#utility.yul\":3283:3345   */\n      or\n        /* \"#utility.yul\":3280:3368   */\n      iszero\n      tag_252\n      jumpi\n        /* \"#utility.yul\":3348:3366   */\n      tag_253\n      tag_189\n      jump\t// in\n    tag_253:\n        /* \"#utility.yul\":3280:3368   */\n    tag_252:\n        /* \"#utility.yul\":3388:3398   */\n      dup1\n        /* \"#utility.yul\":3384:3386   */\n      0x40\n        /* \"#utility.yul\":3377:3399   */\n      mstore\n        /* \"#utility.yul\":3167:3405   */\n      pop\n        /* \"#utility.yul\":3124:3405   */\n      pop\n      pop\n      jump\t// out\n        /* \"#utility.yul\":3411:3540   */\n    tag_191:\n        /* \"#utility.yul\":3445:3451   */\n      0x00\n        /* \"#utility.yul\":3472:3492   */\n      tag_255\n      tag_174\n      jump\t// in\n    tag_255:\n        /* \"#utility.yul\":3462:3492   */\n      swap1\n      pop\n        /* \"#utility.yul\":3501:3534   */\n      tag_256\n        /* \"#utility.yul\":3529:3533   */\n      dup3\n        /* \"#utility.yul\":3521:3527   */\n      dup3\n        /* \"#utility.yul\":3501:3534   */\n      tag_190\n      jump\t// in\n    tag_256:\n        /* \"#utility.yul\":3411:3540   */\n      swap2\n      swap1\n      pop\n      jump\t// out\n        /* \"#utility.yul\":3546:3854   */\n    tag_192:\n        /* \"#utility.yul\":3608:3612   */\n      0x00\n        /* \"#utility.yul\":3698:3716   */\n      0xffffffffffffffff\n        /* \"#utility.yul\":3690:3696   */\n      dup3\n        /* \"#utility.yul\":3687:3717   */\n      gt\n        /* \"#utility.yul\":3684:3740   */\n      iszero\n      tag_258\n      jumpi\n        /* \"#utility.yul\":3720:3738   */\n      tag_259\n      tag_189\n      jump\t// in\n    tag_259:\n        /* \"#utility.yul\":3684:3740   */\n    tag_258:\n        /* \"#utility.yul\":3758:3787   */\n      tag_260\n        /* \"#utility.yul\":3780:3786   */\n      dup3\n        /* \"#utility.yul\":3758:3787   */\n      tag_188\n      jump\t// in\n    tag_260:\n        /* \"#utility.yul\":3750:3787   */\n      swap1\n      pop\n        /* \"#utility.yul\":3842:3846   */\n      0x20\n        /* \"#utility.yul\":3836:3840   */\n      dup2\n        /* \"#utility.yul\":3832:3847   */\n      add\n        /* \"#utility.yul\":3824:3847   */\n      swap1\n      pop\n        /* \"#utility.yul\":3546:3854   */\n      swap2\n      swap1\n      pop\n      jump\t// out\n        /* \"#utility.yul\":3860:4014   */\n    tag_193:\n        /* \"#utility.yul\":3944:3950   */\n      dup3\n        /* \"#utility.yul\":3939:3942   */\n      dup2\n        /* \"#utility.yul\":3934:3937   */\n      dup4\n        /* \"#utility.yul\":3921:3951   */\n      calldatacopy\n        /* \"#utility.yul\":4006:4007   */\n      0x00\n        /* \"#utility.yul\":3997:4003   */\n      dup4\n        /* \"#utility.yul\":3992:3995   */\n      dup4\n        /* \"#utility.yul\":3988:4004   */\n      add\n        /* \"#utility.yul\":3981:4008   */\n      mstore\n        /* \"#utility.yul\":3860:4014   */\n      pop\n      pop\n      pop\n      jump\t// out\n        /* \"#utility.yul\":4020:4432   */\n    tag_194:\n        /* \"#utility.yul\":4098:4103   */\n      0x00\n        /* \"#utility.yul\":4123:4189   */\n      tag_263\n        /* \"#utility.yul\":4139:4188   */\n      tag_264\n        /* \"#utility.yul\":4181:4187   */\n      dup5\n        /* \"#utility.yul\":4139:4188   */\n      tag_192\n      jump\t// in\n    tag_264:\n        /* \"#utility.yul\":4123:4189   */\n      tag_191\n      jump\t// in\n    tag_263:\n        /* \"#utility.yul\":4114:4189   */\n      swap1\n      pop\n        /* \"#utility.yul\":4212:4218   */\n      dup3\n        /* \"#utility.yul\":4205:4210   */\n      dup2\n        /* \"#utility.yul\":4198:4219   */\n      mstore\n        /* \"#utility.yul\":4250:4254   */\n      0x20\n        /* \"#utility.yul\":4243:4248   */\n      dup2\n        /* \"#utility.yul\":4239:4255   */\n      add\n        /* \"#utility.yul\":4288:4291   */\n      dup5\n        /* \"#utility.yul\":4279:4285   */\n      dup5\n        /* \"#utility.yul\":4274:4277   */\n      dup5\n        /* \"#utility.yul\":4270:4286   */\n      add\n        /* \"#utility.yul\":4267:4292   */\n      gt\n        /* \"#utility.yul\":4264:4376   */\n      iszero\n      tag_265\n      jumpi\n        /* \"#utility.yul\":4295:4374   */\n      tag_266\n      tag_187\n      jump\t// in\n    tag_266:\n        /* \"#utility.yul\":4264:4376   */\n    tag_265:\n        /* \"#utility.yul\":4385:4426   */\n      tag_267\n        /* \"#utility.yul\":4419:4425   */\n      dup5\n        /* \"#utility.yul\":4414:4417   */\n      dup3\n        /* \"#utility.yul\":4409:4412   */\n      dup6\n        /* \"#utility.yul\":4385:4426   */\n      tag_193\n      jump\t// in\n    tag_267:\n        /* \"#utility.yul\":4104:4432   */\n      pop\n        /* \"#utility.yul\":4020:4432   */\n      swap4\n      swap3\n      pop\n      pop\n      pop\n      jump\t// out\n        /* \"#utility.yul\":4452:4792   */\n    tag_195:\n        /* \"#utility.yul\":4508:4513   */\n      0x00\n        /* \"#utility.yul\":4557:4560   */\n      dup3\n        /* \"#utility.yul\":4550:4554   */\n      0x1f\n        /* \"#utility.yul\":4542:4548   */\n      dup4\n        /* \"#utility.yul\":4538:4555   */\n      add\n        /* \"#utility.yul\":4534:4561   */\n      slt\n        /* \"#utility.yul\":4524:4646   */\n      tag_269\n      jumpi\n        /* \"#utility.yul\":4565:4644   */\n      tag_270\n      tag_186\n      jump\t// in\n    tag_270:\n        /* \"#utility.yul\":4524:4646   */\n    tag_269:\n        /* \"#utility.yul\":4682:4688   */\n      dup2\n        /* \"#utility.yul\":4669:4689   */\n      calldataload\n        /* \"#utility.yul\":4707:4786   */\n      tag_271\n        /* \"#utility.yul\":4782:4785   */\n      dup5\n        /* \"#utility.yul\":4774:4780   */\n      dup3\n        /* \"#utility.yul\":4767:4771   */\n      0x20\n        /* \"#utility.yul\":4759:4765   */\n      dup7\n        /* \"#utility.yul\":4755:4772   */\n      add\n        /* \"#utility.yul\":4707:4786   */\n      tag_194\n      jump\t// in\n    tag_271:\n        /* \"#utility.yul\":4698:4786   */\n      swap2\n      pop\n        /* \"#utility.yul\":4514:4792   */\n      pop\n        /* \"#utility.yul\":4452:4792   */\n      swap3\n      swap2\n      pop\n      pop\n      jump\t// out\n        /* \"#utility.yul\":4798:5923   */\n    tag_31:\n        /* \"#utility.yul\":4904:4910   */\n      0x00\n        /* \"#utility.yul\":4912:4918   */\n      dup1\n        /* \"#utility.yul\":4920:4926   */\n      0x00\n        /* \"#utility.yul\":4928:4934   */\n      dup1\n        /* \"#utility.yul\":4977:4980   */\n      0x80\n        /* \"#utility.yul\":4965:4974   */\n      dup6\n        /* \"#utility.yul\":4956:4963   */\n      dup8\n        /* \"#utility.yul\":4952:4975   */\n      sub\n        /* \"#utility.yul\":4948:4981   */\n      slt\n        /* \"#utility.yul\":4945:5065   */\n      iszero\n      tag_273\n      jumpi\n        /* \"#utility.yul\":4984:5063   */\n      tag_274\n      tag_175\n      jump\t// in\n    tag_274:\n        /* \"#utility.yul\":4945:5065   */\n    tag_273:\n        /* \"#utility.yul\":5132:5133   */\n      0x00\n        /* \"#utility.yul\":5121:5130   */\n      dup6\n        /* \"#utility.yul\":5117:5134   */\n      add\n        /* \"#utility.yul\":5104:5135   */\n      calldataload\n        /* \"#utility.yul\":5162:5180   */\n      0xffffffffffffffff\n        /* \"#utility.yul\":5154:5160   */\n      dup2\n        /* \"#utility.yul\":5151:5181   */\n      gt\n        /* \"#utility.yul\":5148:5265   */\n      iszero\n      tag_275\n      jumpi\n        /* \"#utility.yul\":5184:5263   */\n      tag_276\n      tag_176\n      jump\t// in\n    tag_276:\n        /* \"#utility.yul\":5148:5265   */\n    tag_275:\n        /* \"#utility.yul\":5289:5352   */\n      tag_277\n        /* \"#utility.yul\":5344:5351   */\n      dup8\n        /* \"#utility.yul\":5335:5341   */\n      dup3\n        /* \"#utility.yul\":5324:5333   */\n      dup9\n        /* \"#utility.yul\":5320:5342   */\n      add\n        /* \"#utility.yul\":5289:5352   */\n      tag_195\n      jump\t// in\n    tag_277:\n        /* \"#utility.yul\":5279:5352   */\n      swap5\n      pop\n        /* \"#utility.yul\":5075:5362   */\n      pop\n        /* \"#utility.yul\":5429:5431   */\n      0x20\n        /* \"#utility.yul\":5418:5427   */\n      dup6\n        /* \"#utility.yul\":5414:5432   */\n      add\n        /* \"#utility.yul\":5401:5433   */\n      calldataload\n        /* \"#utility.yul\":5460:5478   */\n      0xffffffffffffffff\n        /* \"#utility.yul\":5452:5458   */\n      dup2\n        /* \"#utility.yul\":5449:5479   */\n      gt\n        /* \"#utility.yul\":5446:5563   */\n      iszero\n      tag_278\n      jumpi\n        /* \"#utility.yul\":5482:5561   */\n      tag_279\n      tag_176\n      jump\t// in\n    tag_279:\n        /* \"#utility.yul\":5446:5563   */\n    tag_278:\n        /* \"#utility.yul\":5587:5650   */\n      tag_280\n        /* \"#utility.yul\":5642:5649   */\n      dup8\n        /* \"#utility.yul\":5633:5639   */\n      dup3\n        /* \"#utility.yul\":5622:5631   */\n      dup9\n        /* \"#utility.yul\":5618:5640   */\n      add\n        /* \"#utility.yul\":5587:5650   */\n      tag_195\n      jump\t// in\n    tag_280:\n        /* \"#utility.yul\":5577:5650   */\n      swap4\n      pop\n        /* \"#utility.yul\":5372:5660   */\n      pop\n        /* \"#utility.yul\":5699:5701   */\n      0x40\n        /* \"#utility.yul\":5725:5778   */\n      tag_281\n        /* \"#utility.yul\":5770:5777   */\n      dup8\n        /* \"#utility.yul\":5761:5767   */\n      dup3\n        /* \"#utility.yul\":5750:5759   */\n      dup9\n        /* \"#utility.yul\":5746:5768   */\n      add\n        /* \"#utility.yul\":5725:5778   */\n      tag_179\n      jump\t// in\n    tag_281:\n        /* \"#utility.yul\":5715:5778   */\n      swap3\n      pop\n        /* \"#utility.yul\":5670:5788   */\n      pop\n        /* \"#utility.yul\":5827:5829   */\n      0x60\n        /* \"#utility.yul\":5853:5906   */\n      tag_282\n        /* \"#utility.yul\":5898:5905   */\n      dup8\n        /* \"#utility.yul\":5889:5895   */\n      dup3\n        /* \"#utility.yul\":5878:5887   */\n      dup9\n        /* \"#utility.yul\":5874:5896   */\n      add\n        /* \"#utility.yul\":5853:5906   */\n      tag_183\n      jump\t// in\n    tag_282:\n        /* \"#utility.yul\":5843:5906   */\n      swap2\n      pop\n        /* \"#utility.yul\":5798:5916   */\n      pop\n        /* \"#utility.yul\":4798:5923   */\n      swap3\n      swap6\n      swap2\n      swap5\n      pop\n      swap3\n      pop\n      jump\t// out\n        /* \"#utility.yul\":5929:6258   */\n    tag_35:\n        /* \"#utility.yul\":5988:5994   */\n      0x00\n        /* \"#utility.yul\":6037:6039   */\n      0x20\n        /* \"#utility.yul\":6025:6034   */\n      dup3\n        /* \"#utility.yul\":6016:6023   */\n      dup5\n        /* \"#utility.yul\":6012:6035   */\n      sub\n        /* \"#utility.yul\":6008:6040   */\n      slt\n        /* \"#utility.yul\":6005:6124   */\n      iszero\n      tag_284\n      jumpi\n        /* \"#utility.yul\":6043:6122   */\n      tag_285\n      tag_175\n      jump\t// in\n    tag_285:\n        /* \"#utility.yul\":6005:6124   */\n    tag_284:\n        /* \"#utility.yul\":6163:6164   */\n      0x00\n        /* \"#utility.yul\":6188:6241   */\n      tag_286\n        /* \"#utility.yul\":6233:6240   */\n      dup5\n        /* \"#utility.yul\":6224:6230   */\n      dup3\n        /* \"#utility.yul\":6213:6222   */\n      dup6\n        /* \"#utility.yul\":6209:6231   */\n      add\n        /* \"#utility.yul\":6188:6241   */\n      tag_179\n      jump\t// in\n    tag_286:\n        /* \"#utility.yul\":6178:6241   */\n      swap2\n      pop\n        /* \"#utility.yul\":6134:6251   */\n      pop\n        /* \"#utility.yul\":5929:6258   */\n      swap3\n      swap2\n      pop\n      pop\n      jump\t// out\n        /* \"#utility.yul\":6264:6382   */\n    tag_196:\n        /* \"#utility.yul\":6351:6375   */\n      tag_288\n        /* \"#utility.yul\":6369:6374   */\n      dup2\n        /* \"#utility.yul\":6351:6375   */\n      tag_181\n      jump\t// in\n    tag_288:\n        /* \"#utility.yul\":6346:6349   */\n      dup3\n        /* \"#utility.yul\":6339:6376   */\n      mstore\n        /* \"#utility.yul\":6264:6382   */\n      pop\n      pop\n      jump\t// out\n        /* \"#utility.yul\":6388:6610   */\n    tag_41:\n        /* \"#utility.yul\":6481:6485   */\n      0x00\n        /* \"#utility.yul\":6519:6521   */\n      0x20\n        /* \"#utility.yul\":6508:6517   */\n      dup3\n        /* \"#utility.yul\":6504:6522   */\n      add\n        /* \"#utility.yul\":6496:6522   */\n      swap1\n      pop\n        /* \"#utility.yul\":6532:6603   */\n      tag_290\n        /* \"#utility.yul\":6600:6601   */\n      0x00\n        /* \"#utility.yul\":6589:6598   */\n      dup4\n        /* \"#utility.yul\":6585:6602   */\n      add\n        /* \"#utility.yul\":6576:6582   */\n      dup5\n        /* \"#utility.yul\":6532:6603   */\n      tag_196\n      jump\t// in\n    tag_290:\n        /* \"#utility.yul\":6388:6610   */\n      swap3\n      swap2\n      pop\n      pop\n      jump\t// out\n        /* \"#utility.yul\":6616:6734   */\n    tag_197:\n        /* \"#utility.yul\":6703:6727   */\n      tag_292\n        /* \"#utility.yul\":6721:6726   */\n      dup2\n        /* \"#utility.yul\":6703:6727   */\n      tag_177\n      jump\t// in\n    tag_292:\n        /* \"#utility.yul\":6698:6701   */\n      dup3\n        /* \"#utility.yul\":6691:6728   */\n      mstore\n        /* \"#utility.yul\":6616:6734   */\n      pop\n      pop\n      jump\t// out\n        /* \"#utility.yul\":6740:6962   */\n    tag_46:\n        /* \"#utility.yul\":6833:6837   */\n      0x00\n        /* \"#utility.yul\":6871:6873   */\n      0x20\n        /* \"#utility.yul\":6860:6869   */\n      dup3\n        /* \"#utility.yul\":6856:6874   */\n      add\n        /* \"#utility.yul\":6848:6874   */\n      swap1\n      pop\n        /* \"#utility.yul\":6884:6955   */\n      tag_294\n        /* \"#utility.yul\":6952:6953   */\n      0x00\n        /* \"#utility.yul\":6941:6950   */\n      dup4\n        /* \"#utility.yul\":6937:6954   */\n      add\n        /* \"#utility.yul\":6928:6934   */\n      dup5\n        /* \"#utility.yul\":6884:6955   */\n      tag_197\n      jump\t// in\n    tag_294:\n        /* \"#utility.yul\":6740:6962   */\n      swap3\n      swap2\n      pop\n      pop\n      jump\t// out\n        /* \"#utility.yul\":6968:7082   */\n    tag_198:\n        /* \"#utility.yul\":7035:7041   */\n      0x00\n        /* \"#utility.yul\":7069:7074   */\n      dup2\n        /* \"#utility.yul\":7063:7075   */\n      mload\n        /* \"#utility.yul\":7053:7075   */\n      swap1\n      pop\n        /* \"#utility.yul\":6968:7082   */\n      swap2\n      swap1\n      pop\n      jump\t// out\n        /* \"#utility.yul\":7088:7272   */\n    tag_199:\n        /* \"#utility.yul\":7187:7198   */\n      0x00\n        /* \"#utility.yul\":7221:7227   */\n      dup3\n        /* \"#utility.yul\":7216:7219   */\n      dup3\n        /* \"#utility.yul\":7209:7228   */\n      mstore\n        /* \"#utility.yul\":7261:7265   */\n      0x20\n        /* \"#utility.yul\":7256:7259   */\n      dup3\n        /* \"#utility.yul\":7252:7266   */\n      add\n        /* \"#utility.yul\":7237:7266   */\n      swap1\n      pop\n        /* \"#utility.yul\":7088:7272   */\n      swap3\n      swap2\n      pop\n      pop\n      jump\t// out\n        /* \"#utility.yul\":7278:7410   */\n    tag_200:\n        /* \"#utility.yul\":7345:7349   */\n      0x00\n        /* \"#utility.yul\":7368:7371   */\n      dup2\n        /* \"#utility.yul\":7360:7371   */\n      swap1\n      pop\n        /* \"#utility.yul\":7398:7402   */\n      0x20\n        /* \"#utility.yul\":7393:7396   */\n      dup3\n        /* \"#utility.yul\":7389:7403   */\n      add\n        /* \"#utility.yul\":7381:7403   */\n      swap1\n      pop\n        /* \"#utility.yul\":7278:7410   */\n      swap2\n      swap1\n      pop\n      jump\t// out\n        /* \"#utility.yul\":7416:7524   */\n    tag_201:\n        /* \"#utility.yul\":7493:7517   */\n      tag_299\n        /* \"#utility.yul\":7511:7516   */\n      dup2\n        /* \"#utility.yul\":7493:7517   */\n      tag_181\n      jump\t// in\n    tag_299:\n        /* \"#utility.yul\":7488:7491   */\n      dup3\n        /* \"#utility.yul\":7481:7518   */\n      mstore\n        /* \"#utility.yul\":7416:7524   */\n      pop\n      pop\n      jump\t// out\n        /* \"#utility.yul\":7530:7709   */\n    tag_202:\n        /* \"#utility.yul\":7599:7609   */\n      0x00\n        /* \"#utility.yul\":7620:7666   */\n      tag_301\n        /* \"#utility.yul\":7662:7665   */\n      dup4\n        /* \"#utility.yul\":7654:7660   */\n      dup4\n        /* \"#utility.yul\":7620:7666   */\n      tag_201\n      jump\t// in\n    tag_301:\n        /* \"#utility.yul\":7698:7702   */\n      0x20\n        /* \"#utility.yul\":7693:7696   */\n      dup4\n        /* \"#utility.yul\":7689:7703   */\n      add\n        /* \"#utility.yul\":7675:7703   */\n      swap1\n      pop\n        /* \"#utility.yul\":7530:7709   */\n      swap3\n      swap2\n      pop\n      pop\n      jump\t// out\n        /* \"#utility.yul\":7715:7828   */\n    tag_203:\n        /* \"#utility.yul\":7785:7789   */\n      0x00\n        /* \"#utility.yul\":7817:7821   */\n      0x20\n        /* \"#utility.yul\":7812:7815   */\n      dup3\n        /* \"#utility.yul\":7808:7822   */\n      add\n        /* \"#utility.yul\":7800:7822   */\n      swap1\n      pop\n        /* \"#utility.yul\":7715:7828   */\n      swap2\n      swap1\n      pop\n      jump\t// out\n        /* \"#utility.yul\":7864:8596   */\n    tag_204:\n        /* \"#utility.yul\":7983:7986   */\n      0x00\n        /* \"#utility.yul\":8012:8066   */\n      tag_304\n        /* \"#utility.yul\":8060:8065   */\n      dup3\n        /* \"#utility.yul\":8012:8066   */\n      tag_198\n      jump\t// in\n    tag_304:\n        /* \"#utility.yul\":8082:8168   */\n      tag_305\n        /* \"#utility.yul\":8161:8167   */\n      dup2\n        /* \"#utility.yul\":8156:8159   */\n      dup6\n        /* \"#utility.yul\":8082:8168   */\n      tag_199\n      jump\t// in\n    tag_305:\n        /* \"#utility.yul\":8075:8168   */\n      swap4\n      pop\n        /* \"#utility.yul\":8192:8248   */\n      tag_306\n        /* \"#utility.yul\":8242:8247   */\n      dup4\n        /* \"#utility.yul\":8192:8248   */\n      tag_200\n      jump\t// in\n    tag_306:\n        /* \"#utility.yul\":8271:8278   */\n      dup1\n        /* \"#utility.yul\":8302:8303   */\n      0x00\n        /* \"#utility.yul\":8287:8571   */\n    tag_307:\n        /* \"#utility.yul\":8312:8318   */\n      dup4\n        /* \"#utility.yul\":8309:8310   */\n      dup2\n        /* \"#utility.yul\":8306:8319   */\n      lt\n        /* \"#utility.yul\":8287:8571   */\n      iszero\n      tag_309\n      jumpi\n        /* \"#utility.yul\":8388:8394   */\n      dup2\n        /* \"#utility.yul\":8382:8395   */\n      mload\n        /* \"#utility.yul\":8415:8478   */\n      tag_310\n        /* \"#utility.yul\":8474:8477   */\n      dup9\n        /* \"#utility.yul\":8459:8472   */\n      dup3\n        /* \"#utility.yul\":8415:8478   */\n      tag_202\n      jump\t// in\n    tag_310:\n        /* \"#utility.yul\":8408:8478   */\n      swap8\n      pop\n        /* \"#utility.yul\":8501:8561   */\n      tag_311\n        /* \"#utility.yul\":8554:8560   */\n      dup4\n        /* \"#utility.yul\":8501:8561   */\n      tag_203\n      jump\t// in\n    tag_311:\n        /* \"#utility.yul\":8491:8561   */\n      swap3\n      pop\n        /* \"#utility.yul\":8347:8571   */\n      pop\n        /* \"#utility.yul\":8334:8335   */\n      0x01\n        /* \"#utility.yul\":8331:8332   */\n      dup2\n        /* \"#utility.yul\":8327:8336   */\n      add\n        /* \"#utility.yul\":8322:8336   */\n      swap1\n      pop\n        /* \"#utility.yul\":8287:8571   */\n      jump(tag_307)\n    tag_309:\n        /* \"#utility.yul\":8291:8305   */\n      pop\n        /* \"#utility.yul\":8587:8590   */\n      dup6\n        /* \"#utility.yul\":8580:8590   */\n      swap4\n      pop\n        /* \"#utility.yul\":7988:8596   */\n      pop\n      pop\n      pop\n        /* \"#utility.yul\":7864:8596   */\n      swap3\n      swap2\n      pop\n      pop\n      jump\t// out\n        /* \"#utility.yul\":8602:8975   */\n    tag_51:\n        /* \"#utility.yul\":8745:8749   */\n      0x00\n        /* \"#utility.yul\":8783:8785   */\n      0x20\n        /* \"#utility.yul\":8772:8781   */\n      dup3\n        /* \"#utility.yul\":8768:8786   */\n      add\n        /* \"#utility.yul\":8760:8786   */\n      swap1\n      pop\n        /* \"#utility.yul\":8832:8841   */\n      dup2\n        /* \"#utility.yul\":8826:8830   */\n      dup2\n        /* \"#utility.yul\":8822:8842   */\n      sub\n        /* \"#utility.yul\":8818:8819   */\n      0x00\n        /* \"#utility.yul\":8807:8816   */\n      dup4\n        /* \"#utility.yul\":8803:8820   */\n      add\n        /* \"#utility.yul\":8796:8843   */\n      mstore\n        /* \"#utility.yul\":8860:8968   */\n      tag_313\n        /* \"#utility.yul\":8963:8967   */\n      dup2\n        /* \"#utility.yul\":8954:8960   */\n      dup5\n        /* \"#utility.yul\":8860:8968   */\n      tag_204\n      jump\t// in\n    tag_313:\n        /* \"#utility.yul\":8852:8968   */\n      swap1\n      pop\n        /* \"#utility.yul\":8602:8975   */\n      swap3\n      swap2\n      pop\n      pop\n      jump\t// out\n        /* \"#utility.yul\":8981:10252   */\n    tag_59:\n        /* \"#utility.yul\":9096:9102   */\n      0x00\n        /* \"#utility.yul\":9104:9110   */\n      dup1\n        /* \"#utility.yul\":9112:9118   */\n      0x00\n        /* \"#utility.yul\":9120:9126   */\n      dup1\n        /* \"#utility.yul\":9128:9134   */\n      0x00\n        /* \"#utility.yul\":9177:9180   */\n      0xa0\n        /* \"#utility.yul\":9165:9174   */\n      dup7\n        /* \"#utility.yul\":9156:9163   */\n      dup9\n        /* \"#utility.yul\":9152:9175   */\n      sub\n        /* \"#utility.yul\":9148:9181   */\n      slt\n        /* \"#utility.yul\":9145:9265   */\n      iszero\n      tag_315\n      jumpi\n        /* \"#utility.yul\":9184:9263   */\n      tag_316\n      tag_175\n      jump\t// in\n    tag_316:\n        /* \"#utility.yul\":9145:9265   */\n    tag_315:\n        /* \"#utility.yul\":9304:9305   */\n      0x00\n        /* \"#utility.yul\":9329:9382   */\n      tag_317\n        /* \"#utility.yul\":9374:9381   */\n      dup9\n        /* \"#utility.yul\":9365:9371   */\n      dup3\n        /* \"#utility.yul\":9354:9363   */\n      dup10\n        /* \"#utility.yul\":9350:9372   */\n      add\n        /* \"#utility.yul\":9329:9382   */\n      tag_179\n      jump\t// in\n    tag_317:\n        /* \"#utility.yul\":9319:9382   */\n      swap6\n      pop\n        /* \"#utility.yul\":9275:9392   */\n      pop\n        /* \"#utility.yul\":9459:9461   */\n      0x20\n        /* \"#utility.yul\":9448:9457   */\n      dup7\n        /* \"#utility.yul\":9444:9462   */\n      add\n        /* \"#utility.yul\":9431:9463   */\n      calldataload\n        /* \"#utility.yul\":9490:9508   */\n      0xffffffffffffffff\n        /* \"#utility.yul\":9482:9488   */\n      dup2\n        /* \"#utility.yul\":9479:9509   */\n      gt\n        /* \"#utility.yul\":9476:9593   */\n      iszero\n      tag_318\n      jumpi\n        /* \"#utility.yul\":9512:9591   */\n      tag_319\n      tag_176\n      jump\t// in\n    tag_319:\n        /* \"#utility.yul\":9476:9593   */\n    tag_318:\n        /* \"#utility.yul\":9617:9680   */\n      tag_320\n        /* \"#utility.yul\":9672:9679   */\n      dup9\n        /* \"#utility.yul\":9663:9669   */\n      dup3\n        /* \"#utility.yul\":9652:9661   */\n      dup10\n        /* \"#utility.yul\":9648:9670   */\n      add\n        /* \"#utility.yul\":9617:9680   */\n      tag_195\n      jump\t// in\n    tag_320:\n        /* \"#utility.yul\":9607:9680   */\n      swap5\n      pop\n        /* \"#utility.yul\":9402:9690   */\n      pop\n        /* \"#utility.yul\":9757:9759   */\n      0x40\n        /* \"#utility.yul\":9746:9755   */\n      dup7\n        /* \"#utility.yul\":9742:9760   */\n      add\n        /* \"#utility.yul\":9729:9761   */\n      calldataload\n        /* \"#utility.yul\":9788:9806   */\n      0xffffffffffffffff\n        /* \"#utility.yul\":9780:9786   */\n      dup2\n        /* \"#utility.yul\":9777:9807   */\n      gt\n        /* \"#utility.yul\":9774:9891   */\n      iszero\n      tag_321\n      jumpi\n        /* \"#utility.yul\":9810:9889   */\n      tag_322\n      tag_176\n      jump\t// in\n    tag_322:\n        /* \"#utility.yul\":9774:9891   */\n    tag_321:\n        /* \"#utility.yul\":9915:9978   */\n      tag_323\n        /* \"#utility.yul\":9970:9977   */\n      dup9\n        /* \"#utility.yul\":9961:9967   */\n      dup3\n        /* \"#utility.yul\":9950:9959   */\n      dup10\n        /* \"#utility.yul\":9946:9968   */\n      add\n        /* \"#utility.yul\":9915:9978   */\n      tag_195\n      jump\t// in\n    tag_323:\n        /* \"#utility.yul\":9905:9978   */\n      swap4\n      pop\n        /* \"#utility.yul\":9700:9988   */\n      pop\n        /* \"#utility.yul\":10027:10029   */\n      0x60\n        /* \"#utility.yul\":10053:10106   */\n      tag_324\n        /* \"#utility.yul\":10098:10105   */\n      dup9\n        /* \"#utility.yul\":10089:10095   */\n      dup3\n        /* \"#utility.yul\":10078:10087   */\n      dup10\n        /* \"#utility.yul\":10074:10096   */\n      add\n        /* \"#utility.yul\":10053:10106   */\n      tag_179\n      jump\t// in\n    tag_324:\n        /* \"#utility.yul\":10043:10106   */\n      swap3\n      pop\n        /* \"#utility.yul\":9998:10116   */\n      pop\n        /* \"#utility.yul\":10155:10158   */\n      0x80\n        /* \"#utility.yul\":10182:10235   */\n      tag_325\n        /* \"#utility.yul\":10227:10234   */\n      dup9\n        /* \"#utility.yul\":10218:10224   */\n      dup3\n        /* \"#utility.yul\":10207:10216   */\n      dup10\n        /* \"#utility.yul\":10203:10225   */\n      add\n        /* \"#utility.yul\":10182:10235   */\n      tag_183\n      jump\t// in\n    tag_325:\n        /* \"#utility.yul\":10172:10235   */\n      swap2\n      pop\n        /* \"#utility.yul\":10126:10245   */\n      pop\n        /* \"#utility.yul\":8981:10252   */\n      swap3\n      swap6\n      pop\n      swap3\n      swap6\n      swap1\n      swap4\n      pop\n      jump\t// out\n        /* \"#utility.yul\":10258:10374   */\n    tag_205:\n        /* \"#utility.yul\":10328:10349   */\n      tag_327\n        /* \"#utility.yul\":10343:10348   */\n      dup2\n        /* \"#utility.yul\":10328:10349   */\n      tag_184\n      jump\t// in\n    tag_327:\n        /* \"#utility.yul\":10321:10326   */\n      dup2\n        /* \"#utility.yul\":10318:10350   */\n      eq\n        /* \"#utility.yul\":10308:10368   */\n      tag_328\n      jumpi\n        /* \"#utility.yul\":10364:10365   */\n      0x00\n        /* \"#utility.yul\":10361:10362   */\n      dup1\n        /* \"#utility.yul\":10354:10366   */\n      revert\n        /* \"#utility.yul\":10308:10368   */\n    tag_328:\n        /* \"#utility.yul\":10258:10374   */\n      pop\n      jump\t// out\n        /* \"#utility.yul\":10380:10517   */\n    tag_206:\n        /* \"#utility.yul\":10434:10439   */\n      0x00\n        /* \"#utility.yul\":10465:10471   */\n      dup2\n        /* \"#utility.yul\":10459:10472   */\n      mload\n        /* \"#utility.yul\":10450:10472   */\n      swap1\n      pop\n        /* \"#utility.yul\":10481:10511   */\n      tag_330\n        /* \"#utility.yul\":10505:10510   */\n      dup2\n        /* \"#utility.yul\":10481:10511   */\n      tag_205\n      jump\t// in\n    tag_330:\n        /* \"#utility.yul\":10380:10517   */\n      swap3\n      swap2\n      pop\n      pop\n      jump\t// out\n        /* \"#utility.yul\":10523:10868   */\n    tag_70:\n        /* \"#utility.yul\":10590:10596   */\n      0x00\n        /* \"#utility.yul\":10639:10641   */\n      0x20\n        /* \"#utility.yul\":10627:10636   */\n      dup3\n        /* \"#utility.yul\":10618:10625   */\n      dup5\n        /* \"#utility.yul\":10614:10637   */\n      sub\n        /* \"#utility.yul\":10610:10642   */\n      slt\n        /* \"#utility.yul\":10607:10726   */\n      iszero\n      tag_332\n      jumpi\n        /* \"#utility.yul\":10645:10724   */\n      tag_333\n      tag_175\n      jump\t// in\n    tag_333:\n        /* \"#utility.yul\":10607:10726   */\n    tag_332:\n        /* \"#utility.yul\":10765:10766   */\n      0x00\n        /* \"#utility.yul\":10790:10851   */\n      tag_334\n        /* \"#utility.yul\":10843:10850   */\n      dup5\n        /* \"#utility.yul\":10834:10840   */\n      dup3\n        /* \"#utility.yul\":10823:10832   */\n      dup6\n        /* \"#utility.yul\":10819:10841   */\n      add\n        /* \"#utility.yul\":10790:10851   */\n      tag_206\n      jump\t// in\n    tag_334:\n        /* \"#utility.yul\":10780:10851   */\n      swap2\n      pop\n        /* \"#utility.yul\":10736:10861   */\n      pop\n        /* \"#utility.yul\":10523:10868   */\n      swap3\n      swap2\n      pop\n      pop\n      jump\t// out\n        /* \"#utility.yul\":10874:11017   */\n    tag_207:\n        /* \"#utility.yul\":10931:10936   */\n      0x00\n        /* \"#utility.yul\":10962:10968   */\n      dup2\n        /* \"#utility.yul\":10956:10969   */\n      mload\n        /* \"#utility.yul\":10947:10969   */\n      swap1\n      pop\n        /* \"#utility.yul\":10978:11011   */\n      tag_336\n        /* \"#utility.yul\":11005:11010   */\n      dup2\n        /* \"#utility.yul\":10978:11011   */\n      tag_178\n      jump\t// in\n    tag_336:\n        /* \"#utility.yul\":10874:11017   */\n      swap3\n      swap2\n      pop\n      pop\n      jump\t// out\n        /* \"#utility.yul\":11023:11374   */\n    tag_77:\n        /* \"#utility.yul\":11093:11099   */\n      0x00\n        /* \"#utility.yul\":11142:11144   */\n      0x20\n        /* \"#utility.yul\":11130:11139   */\n      dup3\n        /* \"#utility.yul\":11121:11128   */\n      dup5\n        /* \"#utility.yul\":11117:11140   */\n      sub\n        /* \"#utility.yul\":11113:11145   */\n      slt\n        /* \"#utility.yul\":11110:11229   */\n      iszero\n      tag_338\n      jumpi\n        /* \"#utility.yul\":11148:11227   */\n      tag_339\n      tag_175\n      jump\t// in\n    tag_339:\n        /* \"#utility.yul\":11110:11229   */\n    tag_338:\n        /* \"#utility.yul\":11268:11269   */\n      0x00\n        /* \"#utility.yul\":11293:11357   */\n      tag_340\n        /* \"#utility.yul\":11349:11356   */\n      dup5\n        /* \"#utility.yul\":11340:11346   */\n      dup3\n        /* \"#utility.yul\":11329:11338   */\n      dup6\n        /* \"#utility.yul\":11325:11347   */\n      add\n        /* \"#utility.yul\":11293:11357   */\n      tag_207\n      jump\t// in\n    tag_340:\n        /* \"#utility.yul\":11283:11357   */\n      swap2\n      pop\n        /* \"#utility.yul\":11239:11367   */\n      pop\n        /* \"#utility.yul\":11023:11374   */\n      swap3\n      swap2\n      pop\n      pop\n      jump\t// out\n        /* \"#utility.yul\":11380:11933   */\n    tag_80:\n        /* \"#utility.yul\":11557:11561   */\n      0x00\n        /* \"#utility.yul\":11595:11598   */\n      0x80\n        /* \"#utility.yul\":11584:11593   */\n      dup3\n        /* \"#utility.yul\":11580:11599   */\n      add\n        /* \"#utility.yul\":11572:11599   */\n      swap1\n      pop\n        /* \"#utility.yul\":11609:11680   */\n      tag_342\n        /* \"#utility.yul\":11677:11678   */\n      0x00\n        /* \"#utility.yul\":11666:11675   */\n      dup4\n        /* \"#utility.yul\":11662:11679   */\n      add\n        /* \"#utility.yul\":11653:11659   */\n      dup8\n        /* \"#utility.yul\":11609:11680   */\n      tag_196\n      jump\t// in\n    tag_342:\n        /* \"#utility.yul\":11690:11762   */\n      tag_343\n        /* \"#utility.yul\":11758:11760   */\n      0x20\n        /* \"#utility.yul\":11747:11756   */\n      dup4\n        /* \"#utility.yul\":11743:11761   */\n      add\n        /* \"#utility.yul\":11734:11740   */\n      dup7\n        /* \"#utility.yul\":11690:11762   */\n      tag_197\n      jump\t// in\n    tag_343:\n        /* \"#utility.yul\":11772:11844   */\n      tag_344\n        /* \"#utility.yul\":11840:11842   */\n      0x40\n        /* \"#utility.yul\":11829:11838   */\n      dup4\n        /* \"#utility.yul\":11825:11843   */\n      add\n        /* \"#utility.yul\":11816:11822   */\n      dup6\n        /* \"#utility.yul\":11772:11844   */\n      tag_197\n      jump\t// in\n    tag_344:\n        /* \"#utility.yul\":11854:11926   */\n      tag_345\n        /* \"#utility.yul\":11922:11924   */\n      0x60\n        /* \"#utility.yul\":11911:11920   */\n      dup4\n        /* \"#utility.yul\":11907:11925   */\n      add\n        /* \"#utility.yul\":11898:11904   */\n      dup5\n        /* \"#utility.yul\":11854:11926   */\n      tag_197\n      jump\t// in\n    tag_345:\n        /* \"#utility.yul\":11380:11933   */\n      swap6\n      swap5\n      pop\n      pop\n      pop\n      pop\n      pop\n      jump\t// out\n        /* \"#utility.yul\":11939:12271   */\n    tag_85:\n        /* \"#utility.yul\":12060:12064   */\n      0x00\n        /* \"#utility.yul\":12098:12100   */\n      0x40\n        /* \"#utility.yul\":12087:12096   */\n      dup3\n        /* \"#utility.yul\":12083:12101   */\n      add\n        /* \"#utility.yul\":12075:12101   */\n      swap1\n      pop\n        /* \"#utility.yul\":12111:12182   */\n      tag_347\n        /* \"#utility.yul\":12179:12180   */\n      0x00\n        /* \"#utility.yul\":12168:12177   */\n      dup4\n        /* \"#utility.yul\":12164:12181   */\n      add\n        /* \"#utility.yul\":12155:12161   */\n      dup6\n        /* \"#utility.yul\":12111:12182   */\n      tag_196\n      jump\t// in\n    tag_347:\n        /* \"#utility.yul\":12192:12264   */\n      tag_348\n        /* \"#utility.yul\":12260:12262   */\n      0x20\n        /* \"#utility.yul\":12249:12258   */\n      dup4\n        /* \"#utility.yul\":12245:12263   */\n      add\n        /* \"#utility.yul\":12236:12242   */\n      dup5\n        /* \"#utility.yul\":12192:12264   */\n      tag_197\n      jump\t// in\n    tag_348:\n        /* \"#utility.yul\":11939:12271   */\n      swap4\n      swap3\n      pop\n      pop\n      pop\n      jump\t// out\n        /* \"#utility.yul\":12277:12376   */\n    tag_208:\n        /* \"#utility.yul\":12329:12335   */\n      0x00\n        /* \"#utility.yul\":12363:12368   */\n      dup2\n        /* \"#utility.yul\":12357:12369   */\n      mload\n        /* \"#utility.yul\":12347:12369   */\n      swap1\n      pop\n        /* \"#utility.yul\":12277:12376   */\n      swap2\n      swap1\n      pop\n      jump\t// out\n        /* \"#utility.yul\":12382:12551   */\n    tag_209:\n        /* \"#utility.yul\":12466:12477   */\n      0x00\n        /* \"#utility.yul\":12500:12506   */\n      dup3\n        /* \"#utility.yul\":12495:12498   */\n      dup3\n        /* \"#utility.yul\":12488:12507   */\n      mstore\n        /* \"#utility.yul\":12540:12544   */\n      0x20\n        /* \"#utility.yul\":12535:12538   */\n      dup3\n        /* \"#utility.yul\":12531:12545   */\n      add\n        /* \"#utility.yul\":12516:12545   */\n      swap1\n      pop\n        /* \"#utility.yul\":12382:12551   */\n      swap3\n      swap2\n      pop\n      pop\n      jump\t// out\n        /* \"#utility.yul\":12557:12864   */\n    tag_210:\n        /* \"#utility.yul\":12625:12626   */\n      0x00\n        /* \"#utility.yul\":12635:12748   */\n    tag_352:\n        /* \"#utility.yul\":12649:12655   */\n      dup4\n        /* \"#utility.yul\":12646:12647   */\n      dup2\n        /* \"#utility.yul\":12643:12656   */\n      lt\n        /* \"#utility.yul\":12635:12748   */\n      iszero\n      tag_354\n      jumpi\n        /* \"#utility.yul\":12734:12735   */\n      dup1\n        /* \"#utility.yul\":12729:12732   */\n      dup3\n        /* \"#utility.yul\":12725:12736   */\n      add\n        /* \"#utility.yul\":12719:12737   */\n      mload\n        /* \"#utility.yul\":12715:12716   */\n      dup2\n        /* \"#utility.yul\":12710:12713   */\n      dup5\n        /* \"#utility.yul\":12706:12717   */\n      add\n        /* \"#utility.yul\":12699:12738   */\n      mstore\n        /* \"#utility.yul\":12671:12673   */\n      0x20\n        /* \"#utility.yul\":12668:12669   */\n      dup2\n        /* \"#utility.yul\":12664:12674   */\n      add\n        /* \"#utility.yul\":12659:12674   */\n      swap1\n      pop\n        /* \"#utility.yul\":12635:12748   */\n      jump(tag_352)\n    tag_354:\n        /* \"#utility.yul\":12766:12772   */\n      dup4\n        /* \"#utility.yul\":12763:12764   */\n      dup2\n        /* \"#utility.yul\":12760:12773   */\n      gt\n        /* \"#utility.yul\":12757:12858   */\n      iszero\n      tag_355\n      jumpi\n        /* \"#utility.yul\":12846:12847   */\n      0x00\n        /* \"#utility.yul\":12837:12843   */\n      dup5\n        /* \"#utility.yul\":12832:12835   */\n      dup5\n        /* \"#utility.yul\":12828:12844   */\n      add\n        /* \"#utility.yul\":12821:12848   */\n      mstore\n        /* \"#utility.yul\":12757:12858   */\n    tag_355:\n        /* \"#utility.yul\":12606:12864   */\n      pop\n        /* \"#utility.yul\":12557:12864   */\n      pop\n      pop\n      pop\n      jump\t// out\n        /* \"#utility.yul\":12870:13234   */\n    tag_211:\n        /* \"#utility.yul\":12958:12961   */\n      0x00\n        /* \"#utility.yul\":12986:13025   */\n      tag_357\n        /* \"#utility.yul\":13019:13024   */\n      dup3\n        /* \"#utility.yul\":12986:13025   */\n      tag_208\n      jump\t// in\n    tag_357:\n        /* \"#utility.yul\":13041:13112   */\n      tag_358\n        /* \"#utility.yul\":13105:13111   */\n      dup2\n        /* \"#utility.yul\":13100:13103   */\n      dup6\n        /* \"#utility.yul\":13041:13112   */\n      tag_209\n      jump\t// in\n    tag_358:\n        /* \"#utility.yul\":13034:13112   */\n      swap4\n      pop\n        /* \"#utility.yul\":13121:13173   */\n      tag_359\n        /* \"#utility.yul\":13166:13172   */\n      dup2\n        /* \"#utility.yul\":13161:13164   */\n      dup6\n        /* \"#utility.yul\":13154:13158   */\n      0x20\n        /* \"#utility.yul\":13147:13152   */\n      dup7\n        /* \"#utility.yul\":13143:13159   */\n      add\n        /* \"#utility.yul\":13121:13173   */\n      tag_210\n      jump\t// in\n    tag_359:\n        /* \"#utility.yul\":13198:13227   */\n      tag_360\n        /* \"#utility.yul\":13220:13226   */\n      dup2\n        /* \"#utility.yul\":13198:13227   */\n      tag_188\n      jump\t// in\n    tag_360:\n        /* \"#utility.yul\":13193:13196   */\n      dup5\n        /* \"#utility.yul\":13189:13228   */\n      add\n        /* \"#utility.yul\":13182:13228   */\n      swap2\n      pop\n        /* \"#utility.yul\":12962:13234   */\n      pop\n        /* \"#utility.yul\":12870:13234   */\n      swap3\n      swap2\n      pop\n      pop\n      jump\t// out\n        /* \"#utility.yul\":13240:13553   */\n    tag_102:\n        /* \"#utility.yul\":13353:13357   */\n      0x00\n        /* \"#utility.yul\":13391:13393   */\n      0x20\n        /* \"#utility.yul\":13380:13389   */\n      dup3\n        /* \"#utility.yul\":13376:13394   */\n      add\n        /* \"#utility.yul\":13368:13394   */\n      swap1\n      pop\n        /* \"#utility.yul\":13440:13449   */\n      dup2\n        /* \"#utility.yul\":13434:13438   */\n      dup2\n        /* \"#utility.yul\":13430:13450   */\n      sub\n        /* \"#utility.yul\":13426:13427   */\n      0x00\n        /* \"#utility.yul\":13415:13424   */\n      dup4\n        /* \"#utility.yul\":13411:13428   */\n      add\n        /* \"#utility.yul\":13404:13451   */\n      mstore\n        /* \"#utility.yul\":13468:13546   */\n      tag_362\n        /* \"#utility.yul\":13541:13545   */\n      dup2\n        /* \"#utility.yul\":13532:13538   */\n      dup5\n        /* \"#utility.yul\":13468:13546   */\n      tag_211\n      jump\t// in\n    tag_362:\n        /* \"#utility.yul\":13460:13546   */\n      swap1\n      pop\n        /* \"#utility.yul\":13240:13553   */\n      swap3\n      swap2\n      pop\n      pop\n      jump\t// out\n        /* \"#utility.yul\":13559:14294   */\n    tag_108:\n        /* \"#utility.yul\":13776:13780   */\n      0x00\n        /* \"#utility.yul\":13814:13817   */\n      0x80\n        /* \"#utility.yul\":13803:13812   */\n      dup3\n        /* \"#utility.yul\":13799:13818   */\n      add\n        /* \"#utility.yul\":13791:13818   */\n      swap1\n      pop\n        /* \"#utility.yul\":13864:13873   */\n      dup2\n        /* \"#utility.yul\":13858:13862   */\n      dup2\n        /* \"#utility.yul\":13854:13874   */\n      sub\n        /* \"#utility.yul\":13850:13851   */\n      0x00\n        /* \"#utility.yul\":13839:13848   */\n      dup4\n        /* \"#utility.yul\":13835:13852   */\n      add\n        /* \"#utility.yul\":13828:13875   */\n      mstore\n        /* \"#utility.yul\":13892:13970   */\n      tag_364\n        /* \"#utility.yul\":13965:13969   */\n      dup2\n        /* \"#utility.yul\":13956:13962   */\n      dup8\n        /* \"#utility.yul\":13892:13970   */\n      tag_211\n      jump\t// in\n    tag_364:\n        /* \"#utility.yul\":13884:13970   */\n      swap1\n      pop\n        /* \"#utility.yul\":14017:14026   */\n      dup2\n        /* \"#utility.yul\":14011:14015   */\n      dup2\n        /* \"#utility.yul\":14007:14027   */\n      sub\n        /* \"#utility.yul\":14002:14004   */\n      0x20\n        /* \"#utility.yul\":13991:14000   */\n      dup4\n        /* \"#utility.yul\":13987:14005   */\n      add\n        /* \"#utility.yul\":13980:14028   */\n      mstore\n        /* \"#utility.yul\":14045:14123   */\n      tag_365\n        /* \"#utility.yul\":14118:14122   */\n      dup2\n        /* \"#utility.yul\":14109:14115   */\n      dup7\n        /* \"#utility.yul\":14045:14123   */\n      tag_211\n      jump\t// in\n    tag_365:\n        /* \"#utility.yul\":14037:14123   */\n      swap1\n      pop\n        /* \"#utility.yul\":14133:14205   */\n      tag_366\n        /* \"#utility.yul\":14201:14203   */\n      0x40\n        /* \"#utility.yul\":14190:14199   */\n      dup4\n        /* \"#utility.yul\":14186:14204   */\n      add\n        /* \"#utility.yul\":14177:14183   */\n      dup6\n        /* \"#utility.yul\":14133:14205   */\n      tag_197\n      jump\t// in\n    tag_366:\n        /* \"#utility.yul\":14215:14287   */\n      tag_367\n        /* \"#utility.yul\":14283:14285   */\n      0x60\n        /* \"#utility.yul\":14272:14281   */\n      dup4\n        /* \"#utility.yul\":14268:14286   */\n      add\n        /* \"#utility.yul\":14259:14265   */\n      dup5\n        /* \"#utility.yul\":14215:14287   */\n      tag_196\n      jump\t// in\n    tag_367:\n        /* \"#utility.yul\":13559:14294   */\n      swap6\n      swap5\n      pop\n      pop\n      pop\n      pop\n      pop\n      jump\t// out\n        /* \"#utility.yul\":14300:14632   */\n    tag_130:\n        /* \"#utility.yul\":14421:14425   */\n      0x00\n        /* \"#utility.yul\":14459:14461   */\n      0x40\n        /* \"#utility.yul\":14448:14457   */\n      dup3\n        /* \"#utility.yul\":14444:14462   */\n      add\n        /* \"#utility.yul\":14436:14462   */\n      swap1\n      pop\n        /* \"#utility.yul\":14472:14543   */\n      tag_369\n        /* \"#utility.yul\":14540:14541   */\n      0x00\n        /* \"#utility.yul\":14529:14538   */\n      dup4\n        /* \"#utility.yul\":14525:14542   */\n      add\n        /* \"#utility.yul\":14516:14522   */\n      dup6\n        /* \"#utility.yul\":14472:14543   */\n      tag_197\n      jump\t// in\n    tag_369:\n        /* \"#utility.yul\":14553:14625   */\n      tag_370\n        /* \"#utility.yul\":14621:14623   */\n      0x20\n        /* \"#utility.yul\":14610:14619   */\n      dup4\n        /* \"#utility.yul\":14606:14624   */\n      add\n        /* \"#utility.yul\":14597:14603   */\n      dup5\n        /* \"#utility.yul\":14553:14625   */\n      tag_196\n      jump\t// in\n    tag_370:\n        /* \"#utility.yul\":14300:14632   */\n      swap4\n      swap3\n      pop\n      pop\n      pop\n      jump\t// out\n        /* \"#utility.yul\":14638:14781   */\n    tag_212:\n        /* \"#utility.yul\":14695:14700   */\n      0x00\n        /* \"#utility.yul\":14726:14732   */\n      dup2\n        /* \"#utility.yul\":14720:14733   */\n      mload\n        /* \"#utility.yul\":14711:14733   */\n      swap1\n      pop\n        /* \"#utility.yul\":14742:14775   */\n      tag_372\n        /* \"#utility.yul\":14769:14774   */\n      dup2\n        /* \"#utility.yul\":14742:14775   */\n      tag_182\n      jump\t// in\n    tag_372:\n        /* \"#utility.yul\":14638:14781   */\n      swap3\n      swap2\n      pop\n      pop\n      jump\t// out\n        /* \"#utility.yul\":14787:15138   */\n    tag_154:\n        /* \"#utility.yul\":14857:14863   */\n      0x00\n        /* \"#utility.yul\":14906:14908   */\n      0x20\n        /* \"#utility.yul\":14894:14903   */\n      dup3\n        /* \"#utility.yul\":14885:14892   */\n      dup5\n        /* \"#utility.yul\":14881:14904   */\n      sub\n        /* \"#utility.yul\":14877:14909   */\n      slt\n        /* \"#utility.yul\":14874:14993   */\n      iszero\n      tag_374\n      jumpi\n        /* \"#utility.yul\":14912:14991   */\n      tag_375\n      tag_175\n      jump\t// in\n    tag_375:\n        /* \"#utility.yul\":14874:14993   */\n    tag_374:\n        /* \"#utility.yul\":15032:15033   */\n      0x00\n        /* \"#utility.yul\":15057:15121   */\n      tag_376\n        /* \"#utility.yul\":15113:15120   */\n      dup5\n        /* \"#utility.yul\":15104:15110   */\n      dup3\n        /* \"#utility.yul\":15093:15102   */\n      dup6\n        /* \"#utility.yul\":15089:15111   */\n      add\n        /* \"#utility.yul\":15057:15121   */\n      tag_212\n      jump\t// in\n    tag_376:\n        /* \"#utility.yul\":15047:15121   */\n      swap2\n      pop\n        /* \"#utility.yul\":15003:15131   */\n      pop\n        /* \"#utility.yul\":14787:15138   */\n      swap3\n      swap2\n      pop\n      pop\n      jump\t// out\n        /* \"#utility.yul\":15144:15990   */\n    tag_167:\n        /* \"#utility.yul\":15389:15393   */\n      0x00\n        /* \"#utility.yul\":15427:15430   */\n      0xa0\n        /* \"#utility.yul\":15416:15425   */\n      dup3\n        /* \"#utility.yul\":15412:15431   */\n      add\n        /* \"#utility.yul\":15404:15431   */\n      swap1\n      pop\n        /* \"#utility.yul\":15441:15512   */\n      tag_378\n        /* \"#utility.yul\":15509:15510   */\n      0x00\n        /* \"#utility.yul\":15498:15507   */\n      dup4\n        /* \"#utility.yul\":15494:15511   */\n      add\n        /* \"#utility.yul\":15485:15491   */\n      dup9\n        /* \"#utility.yul\":15441:15512   */\n      tag_197\n      jump\t// in\n    tag_378:\n        /* \"#utility.yul\":15559:15568   */\n      dup2\n        /* \"#utility.yul\":15553:15557   */\n      dup2\n        /* \"#utility.yul\":15549:15569   */\n      sub\n        /* \"#utility.yul\":15544:15546   */\n      0x20\n        /* \"#utility.yul\":15533:15542   */\n      dup4\n        /* \"#utility.yul\":15529:15547   */\n      add\n        /* \"#utility.yul\":15522:15570   */\n      mstore\n        /* \"#utility.yul\":15587:15665   */\n      tag_379\n        /* \"#utility.yul\":15660:15664   */\n      dup2\n        /* \"#utility.yul\":15651:15657   */\n      dup8\n        /* \"#utility.yul\":15587:15665   */\n      tag_211\n      jump\t// in\n    tag_379:\n        /* \"#utility.yul\":15579:15665   */\n      swap1\n      pop\n        /* \"#utility.yul\":15712:15721   */\n      dup2\n        /* \"#utility.yul\":15706:15710   */\n      dup2\n        /* \"#utility.yul\":15702:15722   */\n      sub\n        /* \"#utility.yul\":15697:15699   */\n      0x40\n        /* \"#utility.yul\":15686:15695   */\n      dup4\n        /* \"#utility.yul\":15682:15700   */\n      add\n        /* \"#utility.yul\":15675:15723   */\n      mstore\n        /* \"#utility.yul\":15740:15818   */\n      tag_380\n        /* \"#utility.yul\":15813:15817   */\n      dup2\n        /* \"#utility.yul\":15804:15810   */\n      dup7\n        /* \"#utility.yul\":15740:15818   */\n      tag_211\n      jump\t// in\n    tag_380:\n        /* \"#utility.yul\":15732:15818   */\n      swap1\n      pop\n        /* \"#utility.yul\":15828:15900   */\n      tag_381\n        /* \"#utility.yul\":15896:15898   */\n      0x60\n        /* \"#utility.yul\":15885:15894   */\n      dup4\n        /* \"#utility.yul\":15881:15899   */\n      add\n        /* \"#utility.yul\":15872:15878   */\n      dup6\n        /* \"#utility.yul\":15828:15900   */\n      tag_197\n      jump\t// in\n    tag_381:\n        /* \"#utility.yul\":15910:15983   */\n      tag_382\n        /* \"#utility.yul\":15978:15981   */\n      0x80\n        /* \"#utility.yul\":15967:15976   */\n      dup4\n        /* \"#utility.yul\":15963:15982   */\n      add\n        /* \"#utility.yul\":15954:15960   */\n      dup5\n        /* \"#utility.yul\":15910:15983   */\n      tag_196\n      jump\t// in\n    tag_382:\n        /* \"#utility.yul\":15144:15990   */\n      swap7\n      swap6\n      pop\n      pop\n      pop\n      pop\n      pop\n      pop\n      jump\t// out\n\n    auxdata: 0xa26469706673582212204be01aa1612b8295f44e2e25cc18e31453a26439927067fe7e340b5d8df77e9064736f6c634300080a0033\n}\n\nsub_1: assembly {\n        /* \"devs/BookManager.sol\":706:3015   */\n      mstore(0x40, 0x80)\n        /* \"devs/BookManager.sol\":1081:1192   */\n      callvalue\n      dup1\n      iszero\n      tag_1\n      jumpi\n      0x00\n      dup1\n      revert\n    tag_1:\n      pop\n      mload(0x40)\n      sub(codesize, bytecodeSize)\n      dup1\n      bytecodeSize\n      dup4\n      codecopy\n      dup2\n      dup2\n      add\n      0x40\n      mstore\n      dup2\n      add\n      swap1\n      tag_2\n      swap2\n      swap1\n      tag_3\n      jump\t// in\n    tag_2:\n        /* \"devs/BookManager.sol\":1134:1147   */\n      dup1\n        /* \"devs/BookManager.sol\":1126:1131   */\n      0x00\n      dup1\n        /* \"devs/BookManager.sol\":1126:1147   */\n      0x0100\n      exp\n      dup2\n      sload\n      dup2\n      0xffffffffffffffffffffffffffffffffffffffff\n      mul\n      not\n      and\n      swap1\n      dup4\n      0xffffffffffffffffffffffffffffffffffffffff\n      and\n      mul\n      or\n      swap1\n      sstore\n      pop\n        /* \"devs/BookManager.sol\":1175:1185   */\n      caller\n        /* \"devs/BookManager.sol\":1157:1172   */\n      0x01\n      0x00\n        /* \"devs/BookManager.sol\":1157:1185   */\n      0x0100\n      exp\n      dup2\n      sload\n      dup2\n      0xffffffffffffffffffffffffffffffffffffffff\n      mul\n      not\n      and\n      swap1\n      dup4\n      0xffffffffffffffffffffffffffffffffffffffff\n      and\n      mul\n      or\n      swap1\n      sstore\n      pop\n        /* \"devs/BookManager.sol\":1081:1192   */\n      pop\n        /* \"devs/BookManager.sol\":706:3015   */\n      jump(tag_6)\n        /* \"#utility.yul\":88:205   */\n    tag_8:\n        /* \"#utility.yul\":197:198   */\n      0x00\n        /* \"#utility.yul\":194:195   */\n      dup1\n        /* \"#utility.yul\":187:199   */\n      revert\n        /* \"#utility.yul\":334:460   */\n    tag_10:\n        /* \"#utility.yul\":371:378   */\n      0x00\n        /* \"#utility.yul\":411:453   */\n      0xffffffffffffffffffffffffffffffffffffffff\n        /* \"#utility.yul\":404:409   */\n      dup3\n        /* \"#utility.yul\":400:454   */\n      and\n        /* \"#utility.yul\":389:454   */\n      swap1\n      pop\n        /* \"#utility.yul\":334:460   */\n      swap2\n      swap1\n      pop\n      jump\t// out\n        /* \"#utility.yul\":466:562   */\n    tag_11:\n        /* \"#utility.yul\":503:510   */\n      0x00\n        /* \"#utility.yul\":532:556   */\n      tag_20\n        /* \"#utility.yul\":550:555   */\n      dup3\n        /* \"#utility.yul\":532:556   */\n      tag_10\n      jump\t// in\n    tag_20:\n        /* \"#utility.yul\":521:556   */\n      swap1\n      pop\n        /* \"#utility.yul\":466:562   */\n      swap2\n      swap1\n      pop\n      jump\t// out\n        /* \"#utility.yul\":568:690   */\n    tag_12:\n        /* \"#utility.yul\":641:665   */\n      tag_22\n        /* \"#utility.yul\":659:664   */\n      dup2\n        /* \"#utility.yul\":641:665   */\n      tag_11\n      jump\t// in\n    tag_22:\n        /* \"#utility.yul\":634:639   */\n      dup2\n        /* \"#utility.yul\":631:666   */\n      eq\n        /* \"#utility.yul\":621:684   */\n      tag_23\n      jumpi\n        /* \"#utility.yul\":680:681   */\n      0x00\n        /* \"#utility.yul\":677:678   */\n      dup1\n        /* \"#utility.yul\":670:682   */\n      revert\n        /* \"#utility.yul\":621:684   */\n    tag_23:\n        /* \"#utility.yul\":568:690   */\n      pop\n      jump\t// out\n        /* \"#utility.yul\":696:839   */\n    tag_13:\n        /* \"#utility.yul\":753:758   */\n      0x00\n        /* \"#utility.yul\":784:790   */\n      dup2\n        /* \"#utility.yul\":778:791   */\n      mload\n        /* \"#utility.yul\":769:791   */\n      swap1\n      pop\n        /* \"#utility.yul\":800:833   */\n      tag_25\n        /* \"#utility.yul\":827:832   */\n      dup2\n        /* \"#utility.yul\":800:833   */\n      tag_12\n      jump\t// in\n    tag_25:\n        /* \"#utility.yul\":696:839   */\n      swap3\n      swap2\n      pop\n      pop\n      jump\t// out\n        /* \"#utility.yul\":845:1196   */\n    tag_3:\n        /* \"#utility.yul\":915:921   */\n      0x00\n        /* \"#utility.yul\":964:966   */\n      0x20\n        /* \"#utility.yul\":952:961   */\n      dup3\n        /* \"#utility.yul\":943:950   */\n      dup5\n        /* \"#utility.yul\":939:962   */\n      sub\n        /* \"#utility.yul\":935:967   */\n      slt\n        /* \"#utility.yul\":932:1051   */\n      iszero\n      tag_27\n      jumpi\n        /* \"#utility.yul\":970:1049   */\n      tag_28\n      tag_8\n      jump\t// in\n    tag_28:\n        /* \"#utility.yul\":932:1051   */\n    tag_27:\n        /* \"#utility.yul\":1090:1091   */\n      0x00\n        /* \"#utility.yul\":1115:1179   */\n      tag_29\n        /* \"#utility.yul\":1171:1178   */\n      dup5\n        /* \"#utility.yul\":1162:1168   */\n      dup3\n        /* \"#utility.yul\":1151:1160   */\n      dup6\n        /* \"#utility.yul\":1147:1169   */\n      add\n        /* \"#utility.yul\":1115:1179   */\n      tag_13\n      jump\t// in\n    tag_29:\n        /* \"#utility.yul\":1105:1179   */\n      swap2\n      pop\n        /* \"#utility.yul\":1061:1189   */\n      pop\n        /* \"#utility.yul\":845:1196   */\n      swap3\n      swap2\n      pop\n      pop\n      jump\t// out\n        /* \"devs/BookManager.sol\":706:3015   */\n    tag_6:\n      dataSize(sub_0)\n      dup1\n      dataOffset(sub_0)\n      0x00\n      codecopy\n      0x00\n      return\n    stop\n\n    sub_0: assembly {\n            /* \"devs/BookManager.sol\":706:3015   */\n          mstore(0x40, 0x80)\n          callvalue\n          dup1\n          iszero\n          tag_1\n          jumpi\n          0x00\n          dup1\n          revert\n        tag_1:\n          pop\n          jumpi(tag_2, lt(calldatasize, 0x04))\n          shr(0xe0, calldataload(0x00))\n          dup1\n          0x98fbce79\n          gt\n          tag_13\n          jumpi\n          dup1\n          0x98fbce79\n          eq\n          tag_8\n          jumpi\n          dup1\n          0xd2c07e20\n          eq\n          tag_9\n          jumpi\n          dup1\n          0xd9ff0cf1\n          eq\n          tag_10\n          jumpi\n          dup1\n          0xe71448a9\n          eq\n          tag_11\n          jumpi\n          dup1\n          0xf76ebe1c\n          eq\n          tag_12\n          jumpi\n          jump(tag_2)\n        tag_13:\n          dup1\n          0x0a6b2a25\n          eq\n          tag_3\n          jumpi\n          dup1\n          0x1cb71ed5\n          eq\n          tag_4\n          jumpi\n          dup1\n          0x687564ae\n          eq\n          tag_5\n          jumpi\n          dup1\n          0x6c230eef\n          eq\n          tag_6\n          jumpi\n          dup1\n          0x8da5cb5b\n          eq\n          tag_7\n          jumpi\n        tag_2:\n          0x00\n          dup1\n          revert\n            /* \"devs/BookManager.sol\":2842:3013   */\n        tag_3:\n          tag_14\n          0x04\n          dup1\n          calldatasize\n          sub\n          dup2\n          add\n          swap1\n          tag_15\n          swap2\n          swap1\n          tag_16\n          jump\t// in\n        tag_15:\n          tag_17\n          jump\t// in\n        tag_14:\n          stop\n            /* \"devs/BookManager.sol\":938:981   */\n        tag_4:\n          tag_18\n          0x04\n          dup1\n          calldatasize\n          sub\n          dup2\n          add\n          swap1\n          tag_19\n          swap2\n          swap1\n          tag_20\n          jump\t// in\n        tag_19:\n          tag_21\n          jump\t// in\n        tag_18:\n          mload(0x40)\n          tag_22\n          swap2\n          swap1\n          tag_23\n          jump\t// in\n        tag_22:\n          mload(0x40)\n          dup1\n          swap2\n          sub\n          swap1\n          return\n            /* \"devs/BookManager.sol\":1198:1600   */\n        tag_5:\n          tag_24\n          0x04\n          dup1\n          calldatasize\n          sub\n          dup2\n          add\n          swap1\n          tag_25\n          swap2\n          swap1\n          tag_26\n          jump\t// in\n        tag_25:\n          tag_27\n          jump\t// in\n        tag_24:\n          stop\n            /* \"devs/BookManager.sol\":2056:2246   */\n        tag_6:\n          tag_28\n          0x04\n          dup1\n          calldatasize\n          sub\n          dup2\n          add\n          swap1\n          tag_29\n          swap2\n          swap1\n          tag_16\n          jump\t// in\n        tag_29:\n          tag_30\n          jump\t// in\n        tag_28:\n          mload(0x40)\n          tag_31\n          swap2\n          swap1\n          tag_32\n          jump\t// in\n        tag_31:\n          mload(0x40)\n          dup1\n          swap2\n          sub\n          swap1\n          return\n            /* \"devs/BookManager.sol\":757:777   */\n        tag_7:\n          tag_33\n          tag_34\n          jump\t// in\n        tag_33:\n          mload(0x40)\n          tag_35\n          swap2\n          swap1\n          tag_36\n          jump\t// in\n        tag_35:\n          mload(0x40)\n          dup1\n          swap2\n          sub\n          swap1\n          return\n            /* \"devs/BookManager.sol\":2252:2710   */\n        tag_8:\n          tag_37\n          0x04\n          dup1\n          calldatasize\n          sub\n          dup2\n          add\n          swap1\n          tag_38\n          swap2\n          swap1\n          tag_16\n          jump\t// in\n        tag_38:\n          tag_39\n          jump\t// in\n        tag_37:\n          mload(0x40)\n          tag_40\n          swap6\n          swap5\n          swap4\n          swap3\n          swap2\n          swap1\n          tag_41\n          jump\t// in\n        tag_40:\n          mload(0x40)\n          dup1\n          swap2\n          sub\n          swap1\n          return\n            /* \"devs/BookManager.sol\":1606:2024   */\n        tag_9:\n          tag_42\n          0x04\n          dup1\n          calldatasize\n          sub\n          dup2\n          add\n          swap1\n          tag_43\n          swap2\n          swap1\n          tag_44\n          jump\t// in\n        tag_43:\n          tag_45\n          jump\t// in\n        tag_42:\n          stop\n            /* \"devs/BookManager.sol\":846:902   */\n        tag_10:\n          tag_46\n          0x04\n          dup1\n          calldatasize\n          sub\n          dup2\n          add\n          swap1\n          tag_47\n          swap2\n          swap1\n          tag_16\n          jump\t// in\n        tag_47:\n          tag_48\n          jump\t// in\n        tag_46:\n          mload(0x40)\n          tag_49\n          swap6\n          swap5\n          swap4\n          swap3\n          swap2\n          swap1\n          tag_41\n          jump\t// in\n        tag_49:\n          mload(0x40)\n          dup1\n          swap2\n          sub\n          swap1\n          return\n            /* \"devs/BookManager.sol\":2716:2836   */\n        tag_11:\n          tag_50\n          0x04\n          dup1\n          calldatasize\n          sub\n          dup2\n          add\n          swap1\n          tag_51\n          swap2\n          swap1\n          tag_20\n          jump\t// in\n        tag_51:\n          tag_52\n          jump\t// in\n        tag_50:\n          mload(0x40)\n          tag_53\n          swap2\n          swap1\n          tag_23\n          jump\t// in\n        tag_53:\n          mload(0x40)\n          dup1\n          swap2\n          sub\n          swap1\n          return\n            /* \"devs/BookManager.sol\":821:840   */\n        tag_12:\n          tag_54\n          tag_55\n          jump\t// in\n        tag_54:\n          mload(0x40)\n          tag_56\n          swap2\n          swap1\n          tag_32\n          jump\t// in\n        tag_56:\n          mload(0x40)\n          dup1\n          swap2\n          sub\n          swap1\n          return\n            /* \"devs/BookManager.sol\":2842:3013   */\n        tag_17:\n            /* \"devs/BookManager.sol\":2900:2939   */\n          0x00\n            /* \"devs/BookManager.sol\":2942:2958   */\n          0x03\n            /* \"devs/BookManager.sol\":2942:2970   */\n          0x00\n            /* \"devs/BookManager.sol\":2959:2969   */\n          dup4\n            /* \"devs/BookManager.sol\":2942:2970   */\n          dup2\n          mstore\n          0x20\n          add\n          swap1\n          dup2\n          mstore\n          0x20\n          add\n          0x00\n          keccak256\n            /* \"devs/BookManager.sol\":2900:2970   */\n          swap1\n          pop\n            /* \"devs/BookManager.sol\":2980:2995   */\n          dup1\n            /* \"devs/BookManager.sol\":2980:3004   */\n          0x03\n          add\n          0x00\n            /* \"devs/BookManager.sol\":2980:3006   */\n          dup2\n          sload\n          dup1\n          swap3\n          swap2\n          swap1\n          tag_58\n          swap1\n          tag_59\n          jump\t// in\n        tag_58:\n          swap2\n          swap1\n          pop\n          sstore\n          pop\n            /* \"devs/BookManager.sol\":2890:3013   */\n          pop\n            /* \"devs/BookManager.sol\":2842:3013   */\n          pop\n          jump\t// out\n            /* \"devs/BookManager.sol\":938:981   */\n        tag_21:\n          0x04\n          dup2\n          dup1\n          mload\n          0x20\n          dup2\n          add\n          dup3\n          add\n          dup1\n          mload\n          dup5\n          dup3\n          mstore\n          0x20\n          dup4\n          add\n          0x20\n          dup6\n          add\n          keccak256\n          dup2\n          dup4\n          mstore\n          dup1\n          swap6\n          pop\n          pop\n          pop\n          pop\n          pop\n          pop\n          0x00\n          swap2\n          pop\n          sload\n          swap1\n          0x0100\n          exp\n          swap1\n          div\n          0xff\n          and\n          dup2\n          jump\t// out\n            /* \"devs/BookManager.sol\":1198:1600   */\n        tag_27:\n            /* \"devs/BookManager.sol\":1046:1056   */\n          caller\n            /* \"devs/BookManager.sol\":1027:1056   */\n          0xffffffffffffffffffffffffffffffffffffffff\n          and\n            /* \"devs/BookManager.sol\":1027:1042   */\n          0x01\n          0x00\n          swap1\n          sload\n          swap1\n          0x0100\n          exp\n          swap1\n          div\n          0xffffffffffffffffffffffffffffffffffffffff\n          and\n            /* \"devs/BookManager.sol\":1027:1056   */\n          0xffffffffffffffffffffffffffffffffffffffff\n          and\n          eq\n            /* \"devs/BookManager.sol\":1019:1057   */\n          tag_61\n          jumpi\n          0x00\n          dup1\n          revert\n        tag_61:\n            /* \"devs/BookManager.sol\":1335:1363   */\n          0x00\n            /* \"devs/BookManager.sol\":1366:1382   */\n          0x03\n            /* \"devs/BookManager.sol\":1366:1393   */\n          0x00\n            /* \"devs/BookManager.sol\":1383:1390   */\n          0x02\n          0x00\n            /* \"devs/BookManager.sol\":1383:1392   */\n          dup2\n          sload\n          dup1\n          swap3\n          swap2\n          swap1\n          tag_63\n          swap1\n          tag_59\n          jump\t// in\n        tag_63:\n          swap2\n          swap1\n          pop\n          sstore\n            /* \"devs/BookManager.sol\":1366:1393   */\n          dup2\n          mstore\n          0x20\n          add\n          swap1\n          dup2\n          mstore\n          0x20\n          add\n          0x00\n          keccak256\n            /* \"devs/BookManager.sol\":1335:1393   */\n          swap1\n          pop\n            /* \"devs/BookManager.sol\":1417:1424   */\n          dup5\n            /* \"devs/BookManager.sol\":1403:1407   */\n          dup2\n            /* \"devs/BookManager.sol\":1403:1414   */\n          0x00\n          add\n            /* \"devs/BookManager.sol\":1403:1424   */\n          swap1\n          dup1\n          mload\n          swap1\n          0x20\n          add\n          swap1\n          tag_64\n          swap3\n          swap2\n          swap1\n          tag_65\n          jump\t// in\n        tag_64:\n          pop\n            /* \"devs/BookManager.sol\":1447:1453   */\n          dup4\n            /* \"devs/BookManager.sol\":1434:1438   */\n          dup2\n            /* \"devs/BookManager.sol\":1434:1444   */\n          0x01\n          add\n            /* \"devs/BookManager.sol\":1434:1453   */\n          swap1\n          dup1\n          mload\n          swap1\n          0x20\n          add\n          swap1\n          tag_66\n          swap3\n          swap2\n          swap1\n          tag_65\n          jump\t// in\n        tag_66:\n          pop\n            /* \"devs/BookManager.sol\":1476:1482   */\n          dup3\n            /* \"devs/BookManager.sol\":1463:1467   */\n          dup2\n            /* \"devs/BookManager.sol\":1463:1473   */\n          0x02\n          add\n            /* \"devs/BookManager.sol\":1463:1482   */\n          dup2\n          swap1\n          sstore\n          pop\n            /* \"devs/BookManager.sol\":1508:1509   */\n          0x00\n            /* \"devs/BookManager.sol\":1492:1496   */\n          dup2\n            /* \"devs/BookManager.sol\":1492:1505   */\n          0x03\n          add\n            /* \"devs/BookManager.sol\":1492:1509   */\n          dup2\n          swap1\n          sstore\n          pop\n            /* \"devs/BookManager.sol\":1540:1554   */\n          dup2\n            /* \"devs/BookManager.sol\":1519:1523   */\n          dup2\n            /* \"devs/BookManager.sol\":1519:1537   */\n          0x04\n          add\n          0x00\n            /* \"devs/BookManager.sol\":1519:1554   */\n          0x0100\n          exp\n          dup2\n          sload\n          dup2\n          0xffffffffffffffffffffffffffffffffffffffff\n          mul\n          not\n          and\n          swap1\n          dup4\n          0xffffffffffffffffffffffffffffffffffffffff\n          and\n          mul\n          or\n          swap1\n          sstore\n          pop\n            /* \"devs/BookManager.sol\":1589:1593   */\n          0x01\n            /* \"devs/BookManager.sol\":1565:1577   */\n          0x04\n            /* \"devs/BookManager.sol\":1578:1585   */\n          dup7\n            /* \"devs/BookManager.sol\":1565:1586   */\n          mload(0x40)\n          tag_67\n          swap2\n          swap1\n          tag_68\n          jump\t// in\n        tag_67:\n          swap1\n          dup2\n          mstore\n          0x20\n          add\n          mload(0x40)\n          dup1\n          swap2\n          sub\n          swap1\n          keccak256\n          0x00\n            /* \"devs/BookManager.sol\":1565:1593   */\n          0x0100\n          exp\n          dup2\n          sload\n          dup2\n          0xff\n          mul\n          not\n          and\n          swap1\n          dup4\n          iszero\n          iszero\n          mul\n          or\n          swap1\n          sstore\n          pop\n            /* \"devs/BookManager.sol\":1325:1600   */\n          pop\n            /* \"devs/BookManager.sol\":1198:1600   */\n          pop\n          pop\n          pop\n          pop\n          jump\t// out\n            /* \"devs/BookManager.sol\":2056:2246   */\n        tag_30:\n            /* \"devs/BookManager.sol\":2117:2121   */\n          0x00\n            /* \"devs/BookManager.sol\":2132:2170   */\n          dup1\n            /* \"devs/BookManager.sol\":2173:2189   */\n          0x03\n            /* \"devs/BookManager.sol\":2173:2201   */\n          0x00\n            /* \"devs/BookManager.sol\":2190:2200   */\n          dup5\n            /* \"devs/BookManager.sol\":2173:2201   */\n          dup2\n          mstore\n          0x20\n          add\n          swap1\n          dup2\n          mstore\n          0x20\n          add\n          0x00\n          keccak256\n            /* \"devs/BookManager.sol\":2132:2201   */\n          mload(0x40)\n          dup1\n          0xa0\n          add\n          0x40\n          mstore\n          swap1\n          dup2\n          0x00\n          dup3\n          add\n          dup1\n          sload\n          tag_70\n          swap1\n          tag_71\n          jump\t// in\n        tag_70:\n          dup1\n          0x1f\n          add\n          0x20\n          dup1\n          swap2\n          div\n          mul\n          0x20\n          add\n          mload(0x40)\n          swap1\n          dup2\n          add\n          0x40\n          mstore\n          dup1\n          swap3\n          swap2\n          swap1\n          dup2\n          dup2\n          mstore\n          0x20\n          add\n          dup3\n          dup1\n          sload\n          tag_72\n          swap1\n          tag_71\n          jump\t// in\n        tag_72:\n          dup1\n          iszero\n          tag_73\n          jumpi\n          dup1\n          0x1f\n          lt\n          tag_74\n          jumpi\n          0x0100\n          dup1\n          dup4\n          sload\n          div\n          mul\n          dup4\n          mstore\n          swap2\n          0x20\n          add\n          swap2\n          jump(tag_73)\n        tag_74:\n          dup3\n          add\n          swap2\n          swap1\n          0x00\n          mstore\n          keccak256(0x00, 0x20)\n          swap1\n        tag_75:\n          dup2\n          sload\n          dup2\n          mstore\n          swap1\n          0x01\n          add\n          swap1\n          0x20\n          add\n          dup1\n          dup4\n          gt\n          tag_75\n          jumpi\n          dup3\n          swap1\n          sub\n          0x1f\n          and\n          dup3\n          add\n          swap2\n        tag_73:\n          pop\n          pop\n          pop\n          pop\n          pop\n          dup2\n          mstore\n          0x20\n          add\n          0x01\n          dup3\n          add\n          dup1\n          sload\n          tag_76\n          swap1\n          tag_71\n          jump\t// in\n        tag_76:\n          dup1\n          0x1f\n          add\n          0x20\n          dup1\n          swap2\n          div\n          mul\n          0x20\n          add\n          mload(0x40)\n          swap1\n          dup2\n          add\n          0x40\n          mstore\n          dup1\n          swap3\n          swap2\n          swap1\n          dup2\n          dup2\n          mstore\n          0x20\n          add\n          dup3\n          dup1\n          sload\n          tag_77\n          swap1\n          tag_71\n          jump\t// in\n        tag_77:\n          dup1\n          iszero\n          tag_78\n          jumpi\n          dup1\n          0x1f\n          lt\n          tag_79\n          jumpi\n          0x0100\n          dup1\n          dup4\n          sload\n          div\n          mul\n          dup4\n          mstore\n          swap2\n          0x20\n          add\n          swap2\n          jump(tag_78)\n        tag_79:\n          dup3\n          add\n          swap2\n          swap1\n          0x00\n          mstore\n          keccak256(0x00, 0x20)\n          swap1\n        tag_80:\n          dup2\n          sload\n          dup2\n          mstore\n          swap1\n          0x01\n          add\n          swap1\n          0x20\n          add\n          dup1\n          dup4\n          gt\n          tag_80\n          jumpi\n          dup3\n          swap1\n          sub\n          0x1f\n          and\n          dup3\n          add\n          swap2\n        tag_78:\n          pop\n          pop\n          pop\n          pop\n          pop\n          dup2\n          mstore\n          0x20\n          add\n          0x02\n          dup3\n          add\n          sload\n          dup2\n          mstore\n          0x20\n          add\n          0x03\n          dup3\n          add\n          sload\n          dup2\n          mstore\n          0x20\n          add\n          0x04\n          dup3\n          add\n          0x00\n          swap1\n          sload\n          swap1\n          0x0100\n          exp\n          swap1\n          div\n          0xffffffffffffffffffffffffffffffffffffffff\n          and\n          0xffffffffffffffffffffffffffffffffffffffff\n          and\n          0xffffffffffffffffffffffffffffffffffffffff\n          and\n          dup2\n          mstore\n          pop\n          pop\n          swap1\n          pop\n            /* \"devs/BookManager.sol\":2218:2233   */\n          dup1\n            /* \"devs/BookManager.sol\":2218:2239   */\n          0x40\n          add\n          mload\n            /* \"devs/BookManager.sol\":2211:2239   */\n          swap2\n          pop\n          pop\n            /* \"devs/BookManager.sol\":2056:2246   */\n          swap2\n          swap1\n          pop\n          jump\t// out\n            /* \"devs/BookManager.sol\":757:777   */\n        tag_34:\n          0x00\n          dup1\n          sload\n          swap1\n          0x0100\n          exp\n          swap1\n          div\n          0xffffffffffffffffffffffffffffffffffffffff\n          and\n          dup2\n          jump\t// out\n            /* \"devs/BookManager.sol\":2252:2710   */\n        tag_39:\n            /* \"devs/BookManager.sol\":2328:2341   */\n          0x60\n            /* \"devs/BookManager.sol\":2343:2356   */\n          dup1\n            /* \"devs/BookManager.sol\":2358:2362   */\n          0x00\n            /* \"devs/BookManager.sol\":2364:2368   */\n          dup1\n            /* \"devs/BookManager.sol\":2370:2377   */\n          0x00\n            /* \"devs/BookManager.sol\":2392:2430   */\n          dup1\n            /* \"devs/BookManager.sol\":2433:2449   */\n          0x03\n            /* \"devs/BookManager.sol\":2433:2461   */\n          0x00\n            /* \"devs/BookManager.sol\":2450:2460   */\n          dup9\n            /* \"devs/BookManager.sol\":2433:2461   */\n          dup2\n          mstore\n          0x20\n          add\n          swap1\n          dup2\n          mstore\n          0x20\n          add\n          0x00\n          keccak256\n            /* \"devs/BookManager.sol\":2392:2461   */\n          mload(0x40)\n          dup1\n          0xa0\n          add\n          0x40\n          mstore\n          swap1\n          dup2\n          0x00\n          dup3\n          add\n          dup1\n          sload\n          tag_82\n          swap1\n          tag_71\n          jump\t// in\n        tag_82:\n          dup1\n          0x1f\n          add\n          0x20\n          dup1\n          swap2\n          div\n          mul\n          0x20\n          add\n          mload(0x40)\n          swap1\n          dup2\n          add\n          0x40\n          mstore\n          dup1\n          swap3\n          swap2\n          swap1\n          dup2\n          dup2\n          mstore\n          0x20\n          add\n          dup3\n          dup1\n          sload\n          tag_83\n          swap1\n          tag_71\n          jump\t// in\n        tag_83:\n          dup1\n          iszero\n          tag_84\n          jumpi\n          dup1\n          0x1f\n          lt\n          tag_85\n          jumpi\n          0x0100\n          dup1\n          dup4\n          sload\n          div\n          mul\n          dup4\n          mstore\n          swap2\n          0x20\n          add\n          swap2\n          jump(tag_84)\n        tag_85:\n          dup3\n          add\n          swap2\n          swap1\n          0x00\n          mstore\n          keccak256(0x00, 0x20)\n          swap1\n        tag_86:\n          dup2\n          sload\n          dup2\n          mstore\n          swap1\n          0x01\n          add\n          swap1\n          0x20\n          add\n          dup1\n          dup4\n          gt\n          tag_86\n          jumpi\n          dup3\n          swap1\n          sub\n          0x1f\n          and\n          dup3\n          add\n          swap2\n        tag_84:\n          pop\n          pop\n          pop\n          pop\n          pop\n          dup2\n          mstore\n          0x20\n          add\n          0x01\n          dup3\n          add\n          dup1\n          sload\n          tag_87\n          swap1\n          tag_71\n          jump\t// in\n        tag_87:\n          dup1\n          0x1f\n          add\n          0x20\n          dup1\n          swap2\n          div\n          mul\n          0x20\n          add\n          mload(0x40)\n          swap1\n          dup2\n          add\n          0x40\n          mstore\n          dup1\n          swap3\n          swap2\n          swap1\n          dup2\n          dup2\n          mstore\n          0x20\n          add\n          dup3\n          dup1\n          sload\n          tag_88\n          swap1\n          tag_71\n          jump\t// in\n        tag_88:\n          dup1\n          iszero\n          tag_89\n          jumpi\n          dup1\n          0x1f\n          lt\n          tag_90\n          jumpi\n          0x0100\n          dup1\n          dup4\n          sload\n          div\n          mul\n          dup4\n          mstore\n          swap2\n          0x20\n          add\n          swap2\n          jump(tag_89)\n        tag_90:\n          dup3\n          add\n          swap2\n          swap1\n          0x00\n          mstore\n          keccak256(0x00, 0x20)\n          swap1\n        tag_91:\n          dup2\n          sload\n          dup2\n          mstore\n          swap1\n          0x01\n          add\n          swap1\n          0x20\n          add\n          dup1\n          dup4\n          gt\n          tag_91\n          jumpi\n          dup3\n          swap1\n          sub\n          0x1f\n          and\n          dup3\n          add\n          swap2\n        tag_89:\n          pop\n          pop\n          pop\n          pop\n          pop\n          dup2\n          mstore\n          0x20\n          add\n          0x02\n          dup3\n          add\n          sload\n          dup2\n          mstore\n          0x20\n          add\n          0x03\n          dup3\n          add\n          sload\n          dup2\n          mstore\n          0x20\n          add\n          0x04\n          dup3\n          add\n          0x00\n          swap1\n          sload\n          swap1\n          0x0100\n          exp\n          swap1\n          div\n          0xffffffffffffffffffffffffffffffffffffffff\n          and\n          0xffffffffffffffffffffffffffffffffffffffff\n          and\n          0xffffffffffffffffffffffffffffffffffffffff\n          and\n          dup2\n          mstore\n          pop\n          pop\n          swap1\n          pop\n            /* \"devs/BookManager.sol\":2500:2515   */\n          dup1\n            /* \"devs/BookManager.sol\":2500:2522   */\n          0x00\n          add\n          mload\n            /* \"devs/BookManager.sol\":2540:2555   */\n          dup2\n            /* \"devs/BookManager.sol\":2540:2561   */\n          0x20\n          add\n          mload\n            /* \"devs/BookManager.sol\":2579:2594   */\n          dup3\n            /* \"devs/BookManager.sol\":2579:2600   */\n          0x40\n          add\n          mload\n            /* \"devs/BookManager.sol\":2618:2633   */\n          dup4\n            /* \"devs/BookManager.sol\":2618:2642   */\n          0x60\n          add\n          mload\n            /* \"devs/BookManager.sol\":2660:2675   */\n          dup5\n            /* \"devs/BookManager.sol\":2660:2689   */\n          0x80\n          add\n          mload\n            /* \"devs/BookManager.sol\":2475:2703   */\n          swap6\n          pop\n          swap6\n          pop\n          swap6\n          pop\n          swap6\n          pop\n          swap6\n          pop\n          pop\n            /* \"devs/BookManager.sol\":2252:2710   */\n          swap2\n          swap4\n          swap6\n          swap1\n          swap3\n          swap5\n          pop\n          jump\t// out\n            /* \"devs/BookManager.sol\":1606:2024   */\n        tag_45:\n            /* \"devs/BookManager.sol\":1046:1056   */\n          caller\n            /* \"devs/BookManager.sol\":1027:1056   */\n          0xffffffffffffffffffffffffffffffffffffffff\n          and\n            /* \"devs/BookManager.sol\":1027:1042   */\n          0x01\n          0x00\n          swap1\n          sload\n          swap1\n          0x0100\n          exp\n          swap1\n          div\n          0xffffffffffffffffffffffffffffffffffffffff\n          and\n            /* \"devs/BookManager.sol\":1027:1056   */\n          0xffffffffffffffffffffffffffffffffffffffff\n          and\n          eq\n            /* \"devs/BookManager.sol\":1019:1057   */\n          tag_93\n          jumpi\n          0x00\n          dup1\n          revert\n        tag_93:\n            /* \"devs/BookManager.sol\":1797:1825   */\n          0x00\n            /* \"devs/BookManager.sol\":1828:1844   */\n          0x03\n            /* \"devs/BookManager.sol\":1828:1856   */\n          0x00\n            /* \"devs/BookManager.sol\":1845:1855   */\n          dup8\n            /* \"devs/BookManager.sol\":1828:1856   */\n          dup2\n          mstore\n          0x20\n          add\n          swap1\n          dup2\n          mstore\n          0x20\n          add\n          0x00\n          keccak256\n            /* \"devs/BookManager.sol\":1797:1856   */\n          swap1\n          pop\n            /* \"devs/BookManager.sol\":1880:1887   */\n          dup5\n            /* \"devs/BookManager.sol\":1866:1870   */\n          dup2\n            /* \"devs/BookManager.sol\":1866:1877   */\n          0x00\n          add\n            /* \"devs/BookManager.sol\":1866:1887   */\n          swap1\n          dup1\n          mload\n          swap1\n          0x20\n          add\n          swap1\n          tag_95\n          swap3\n          swap2\n          swap1\n          tag_65\n          jump\t// in\n        tag_95:\n          pop\n            /* \"devs/BookManager.sol\":1910:1916   */\n          dup4\n            /* \"devs/BookManager.sol\":1897:1901   */\n          dup2\n            /* \"devs/BookManager.sol\":1897:1907   */\n          0x01\n          add\n            /* \"devs/BookManager.sol\":1897:1916   */\n          swap1\n          dup1\n          mload\n          swap1\n          0x20\n          add\n          swap1\n          tag_96\n          swap3\n          swap2\n          swap1\n          tag_65\n          jump\t// in\n        tag_96:\n          pop\n            /* \"devs/BookManager.sol\":1939:1945   */\n          dup3\n            /* \"devs/BookManager.sol\":1926:1930   */\n          dup2\n            /* \"devs/BookManager.sol\":1926:1936   */\n          0x02\n          add\n            /* \"devs/BookManager.sol\":1926:1945   */\n          dup2\n          swap1\n          sstore\n          pop\n            /* \"devs/BookManager.sol\":1971:1972   */\n          0x00\n            /* \"devs/BookManager.sol\":1955:1959   */\n          dup2\n            /* \"devs/BookManager.sol\":1955:1968   */\n          0x03\n          add\n            /* \"devs/BookManager.sol\":1955:1972   */\n          dup2\n          swap1\n          sstore\n          pop\n            /* \"devs/BookManager.sol\":2003:2017   */\n          dup2\n            /* \"devs/BookManager.sol\":1982:1986   */\n          dup2\n            /* \"devs/BookManager.sol\":1982:2000   */\n          0x04\n          add\n          0x00\n            /* \"devs/BookManager.sol\":1982:2017   */\n          0x0100\n          exp\n          dup2\n          sload\n          dup2\n          0xffffffffffffffffffffffffffffffffffffffff\n          mul\n          not\n          and\n          swap1\n          dup4\n          0xffffffffffffffffffffffffffffffffffffffff\n          and\n          mul\n          or\n          swap1\n          sstore\n          pop\n            /* \"devs/BookManager.sol\":1752:2024   */\n          pop\n            /* \"devs/BookManager.sol\":1606:2024   */\n          pop\n          pop\n          pop\n          pop\n          pop\n          jump\t// out\n            /* \"devs/BookManager.sol\":846:902   */\n        tag_48:\n          mstore(0x20, 0x03)\n          dup1\n          0x00\n          mstore\n          keccak256(0x00, 0x40)\n          0x00\n          swap2\n          pop\n          swap1\n          pop\n          dup1\n          0x00\n          add\n          dup1\n          sload\n          tag_97\n          swap1\n          tag_71\n          jump\t// in\n        tag_97:\n          dup1\n          0x1f\n          add\n          0x20\n          dup1\n          swap2\n          div\n          mul\n          0x20\n          add\n          mload(0x40)\n          swap1\n          dup2\n          add\n          0x40\n          mstore\n          dup1\n          swap3\n          swap2\n          swap1\n          dup2\n          dup2\n          mstore\n          0x20\n          add\n          dup3\n          dup1\n          sload\n          tag_98\n          swap1\n          tag_71\n          jump\t// in\n        tag_98:\n          dup1\n          iszero\n          tag_99\n          jumpi\n          dup1\n          0x1f\n          lt\n          tag_100\n          jumpi\n          0x0100\n          dup1\n          dup4\n          sload\n          div\n          mul\n          dup4\n          mstore\n          swap2\n          0x20\n          add\n          swap2\n          jump(tag_99)\n        tag_100:\n          dup3\n          add\n          swap2\n          swap1\n          0x00\n          mstore\n          keccak256(0x00, 0x20)\n          swap1\n        tag_101:\n          dup2\n          sload\n          dup2\n          mstore\n          swap1\n          0x01\n          add\n          swap1\n          0x20\n          add\n          dup1\n          dup4\n          gt\n          tag_101\n          jumpi\n          dup3\n          swap1\n          sub\n          0x1f\n          and\n          dup3\n          add\n          swap2\n        tag_99:\n          pop\n          pop\n          pop\n          pop\n          pop\n          swap1\n          dup1\n          0x01\n          add\n          dup1\n          sload\n          tag_102\n          swap1\n          tag_71\n          jump\t// in\n        tag_102:\n          dup1\n          0x1f\n          add\n          0x20\n          dup1\n          swap2\n          div\n          mul\n          0x20\n          add\n          mload(0x40)\n          swap1\n          dup2\n          add\n          0x40\n          mstore\n          dup1\n          swap3\n          swap2\n          swap1\n          dup2\n          dup2\n          mstore\n          0x20\n          add\n          dup3\n          dup1\n          sload\n          tag_103\n          swap1\n          tag_71\n          jump\t// in\n        tag_103:\n          dup1\n          iszero\n          tag_104\n          jumpi\n          dup1\n          0x1f\n          lt\n          tag_105\n          jumpi\n          0x0100\n          dup1\n          dup4\n          sload\n          div\n          mul\n          dup4\n          mstore\n          swap2\n          0x20\n          add\n          swap2\n          jump(tag_104)\n        tag_105:\n          dup3\n          add\n          swap2\n          swap1\n          0x00\n          mstore\n          keccak256(0x00, 0x20)\n          swap1\n        tag_106:\n          dup2\n          sload\n          dup2\n          mstore\n          swap1\n          0x01\n          add\n          swap1\n          0x20\n          add\n          dup1\n          dup4\n          gt\n          tag_106\n          jumpi\n          dup3\n          swap1\n          sub\n          0x1f\n          and\n          dup3\n          add\n          swap2\n        tag_104:\n          pop\n          pop\n          pop\n          pop\n          pop\n          swap1\n          dup1\n          0x02\n          add\n          sload\n          swap1\n          dup1\n          0x03\n          add\n          sload\n          swap1\n          dup1\n          0x04\n          add\n          0x00\n          swap1\n          sload\n          swap1\n          0x0100\n          exp\n          swap1\n          div\n          0xffffffffffffffffffffffffffffffffffffffff\n          and\n          swap1\n          pop\n          dup6\n          jump\t// out\n            /* \"devs/BookManager.sol\":2716:2836   */\n        tag_52:\n            /* \"devs/BookManager.sol\":2786:2790   */\n          0x00\n            /* \"devs/BookManager.sol\":2808:2820   */\n          0x04\n            /* \"devs/BookManager.sol\":2821:2828   */\n          dup3\n            /* \"devs/BookManager.sol\":2808:2829   */\n          mload(0x40)\n          tag_108\n          swap2\n          swap1\n          tag_68\n          jump\t// in\n        tag_108:\n          swap1\n          dup2\n          mstore\n          0x20\n          add\n          mload(0x40)\n          dup1\n          swap2\n          sub\n          swap1\n          keccak256\n          0x00\n          swap1\n          sload\n          swap1\n          0x0100\n          exp\n          swap1\n          div\n          0xff\n          and\n            /* \"devs/BookManager.sol\":2801:2829   */\n          swap1\n          pop\n            /* \"devs/BookManager.sol\":2716:2836   */\n          swap2\n          swap1\n          pop\n          jump\t// out\n            /* \"devs/BookManager.sol\":821:840   */\n        tag_55:\n          sload(0x02)\n          dup2\n          jump\t// out\n        tag_65:\n          dup3\n          dup1\n          sload\n          tag_109\n          swap1\n          tag_71\n          jump\t// in\n        tag_109:\n          swap1\n          0x00\n          mstore\n          keccak256(0x00, 0x20)\n          swap1\n          0x1f\n          add\n          0x20\n          swap1\n          div\n          dup2\n          add\n          swap3\n          dup3\n          tag_111\n          jumpi\n          0x00\n          dup6\n          sstore\n          jump(tag_110)\n        tag_111:\n          dup3\n          0x1f\n          lt\n          tag_112\n          jumpi\n          dup1\n          mload\n          not(0xff)\n          and\n          dup4\n          dup1\n          add\n          or\n          dup6\n          sstore\n          jump(tag_110)\n        tag_112:\n          dup3\n          dup1\n          add\n          0x01\n          add\n          dup6\n          sstore\n          dup3\n          iszero\n          tag_110\n          jumpi\n          swap2\n          dup3\n          add\n        tag_113:\n          dup3\n          dup2\n          gt\n          iszero\n          tag_114\n          jumpi\n          dup3\n          mload\n          dup3\n          sstore\n          swap2\n          0x20\n          add\n          swap2\n          swap1\n          0x01\n          add\n          swap1\n          jump(tag_113)\n        tag_114:\n        tag_110:\n          pop\n          swap1\n          pop\n          tag_115\n          swap2\n          swap1\n          tag_116\n          jump\t// in\n        tag_115:\n          pop\n          swap1\n          jump\t// out\n        tag_116:\n        tag_117:\n          dup1\n          dup3\n          gt\n          iszero\n          tag_118\n          jumpi\n          0x00\n          dup2\n          0x00\n          swap1\n          sstore\n          pop\n          0x01\n          add\n          jump(tag_117)\n        tag_118:\n          pop\n          swap1\n          jump\t// out\n            /* \"#utility.yul\":7:82   */\n        tag_119:\n            /* \"#utility.yul\":40:46   */\n          0x00\n            /* \"#utility.yul\":73:75   */\n          0x40\n            /* \"#utility.yul\":67:76   */\n          mload\n            /* \"#utility.yul\":57:76   */\n          swap1\n          pop\n            /* \"#utility.yul\":7:82   */\n          swap1\n          jump\t// out\n            /* \"#utility.yul\":88:205   */\n        tag_120:\n            /* \"#utility.yul\":197:198   */\n          0x00\n            /* \"#utility.yul\":194:195   */\n          dup1\n            /* \"#utility.yul\":187:199   */\n          revert\n            /* \"#utility.yul\":211:328   */\n        tag_121:\n            /* \"#utility.yul\":320:321   */\n          0x00\n            /* \"#utility.yul\":317:318   */\n          dup1\n            /* \"#utility.yul\":310:322   */\n          revert\n            /* \"#utility.yul\":334:411   */\n        tag_122:\n            /* \"#utility.yul\":371:378   */\n          0x00\n            /* \"#utility.yul\":400:405   */\n          dup2\n            /* \"#utility.yul\":389:405   */\n          swap1\n          pop\n            /* \"#utility.yul\":334:411   */\n          swap2\n          swap1\n          pop\n          jump\t// out\n            /* \"#utility.yul\":417:539   */\n        tag_123:\n            /* \"#utility.yul\":490:514   */\n          tag_157\n            /* \"#utility.yul\":508:513   */\n          dup2\n            /* \"#utility.yul\":490:514   */\n          tag_122\n          jump\t// in\n        tag_157:\n            /* \"#utility.yul\":483:488   */\n          dup2\n            /* \"#utility.yul\":480:515   */\n          eq\n            /* \"#utility.yul\":470:533   */\n          tag_158\n          jumpi\n            /* \"#utility.yul\":529:530   */\n          0x00\n            /* \"#utility.yul\":526:527   */\n          dup1\n            /* \"#utility.yul\":519:531   */\n          revert\n            /* \"#utility.yul\":470:533   */\n        tag_158:\n            /* \"#utility.yul\":417:539   */\n          pop\n          jump\t// out\n            /* \"#utility.yul\":545:684   */\n        tag_124:\n            /* \"#utility.yul\":591:596   */\n          0x00\n            /* \"#utility.yul\":629:635   */\n          dup2\n            /* \"#utility.yul\":616:636   */\n          calldataload\n            /* \"#utility.yul\":607:636   */\n          swap1\n          pop\n            /* \"#utility.yul\":645:678   */\n          tag_160\n            /* \"#utility.yul\":672:677   */\n          dup2\n            /* \"#utility.yul\":645:678   */\n          tag_123\n          jump\t// in\n        tag_160:\n            /* \"#utility.yul\":545:684   */\n          swap3\n          swap2\n          pop\n          pop\n          jump\t// out\n            /* \"#utility.yul\":690:1019   */\n        tag_16:\n            /* \"#utility.yul\":749:755   */\n          0x00\n            /* \"#utility.yul\":798:800   */\n          0x20\n            /* \"#utility.yul\":786:795   */\n          dup3\n            /* \"#utility.yul\":777:784   */\n          dup5\n            /* \"#utility.yul\":773:796   */\n          sub\n            /* \"#utility.yul\":769:801   */\n          slt\n            /* \"#utility.yul\":766:885   */\n          iszero\n          tag_162\n          jumpi\n            /* \"#utility.yul\":804:883   */\n          tag_163\n          tag_120\n          jump\t// in\n        tag_163:\n            /* \"#utility.yul\":766:885   */\n        tag_162:\n            /* \"#utility.yul\":924:925   */\n          0x00\n            /* \"#utility.yul\":949:1002   */\n          tag_164\n            /* \"#utility.yul\":994:1001   */\n          dup5\n            /* \"#utility.yul\":985:991   */\n          dup3\n            /* \"#utility.yul\":974:983   */\n          dup6\n            /* \"#utility.yul\":970:992   */\n          add\n            /* \"#utility.yul\":949:1002   */\n          tag_124\n          jump\t// in\n        tag_164:\n            /* \"#utility.yul\":939:1002   */\n          swap2\n          pop\n            /* \"#utility.yul\":895:1012   */\n          pop\n            /* \"#utility.yul\":690:1019   */\n          swap3\n          swap2\n          pop\n          pop\n          jump\t// out\n            /* \"#utility.yul\":1025:1142   */\n        tag_125:\n            /* \"#utility.yul\":1134:1135   */\n          0x00\n            /* \"#utility.yul\":1131:1132   */\n          dup1\n            /* \"#utility.yul\":1124:1136   */\n          revert\n            /* \"#utility.yul\":1148:1265   */\n        tag_126:\n            /* \"#utility.yul\":1257:1258   */\n          0x00\n            /* \"#utility.yul\":1254:1255   */\n          dup1\n            /* \"#utility.yul\":1247:1259   */\n          revert\n            /* \"#utility.yul\":1271:1373   */\n        tag_127:\n            /* \"#utility.yul\":1312:1318   */\n          0x00\n            /* \"#utility.yul\":1363:1365   */\n          0x1f\n            /* \"#utility.yul\":1359:1366   */\n          not\n            /* \"#utility.yul\":1354:1356   */\n          0x1f\n            /* \"#utility.yul\":1347:1352   */\n          dup4\n            /* \"#utility.yul\":1343:1357   */\n          add\n            /* \"#utility.yul\":1339:1367   */\n          and\n            /* \"#utility.yul\":1329:1367   */\n          swap1\n          pop\n            /* \"#utility.yul\":1271:1373   */\n          swap2\n          swap1\n          pop\n          jump\t// out\n            /* \"#utility.yul\":1379:1559   */\n        tag_128:\n            /* \"#utility.yul\":1427:1504   */\n          0x4e487b7100000000000000000000000000000000000000000000000000000000\n            /* \"#utility.yul\":1424:1425   */\n          0x00\n            /* \"#utility.yul\":1417:1505   */\n          mstore\n            /* \"#utility.yul\":1524:1528   */\n          0x41\n            /* \"#utility.yul\":1521:1522   */\n          0x04\n            /* \"#utility.yul\":1514:1529   */\n          mstore\n            /* \"#utility.yul\":1548:1552   */\n          0x24\n            /* \"#utility.yul\":1545:1546   */\n          0x00\n            /* \"#utility.yul\":1538:1553   */\n          revert\n            /* \"#utility.yul\":1565:1846   */\n        tag_129:\n            /* \"#utility.yul\":1648:1675   */\n          tag_170\n            /* \"#utility.yul\":1670:1674   */\n          dup3\n            /* \"#utility.yul\":1648:1675   */\n          tag_127\n          jump\t// in\n        tag_170:\n            /* \"#utility.yul\":1640:1646   */\n          dup2\n            /* \"#utility.yul\":1636:1676   */\n          add\n            /* \"#utility.yul\":1778:1784   */\n          dup2\n            /* \"#utility.yul\":1766:1776   */\n          dup2\n            /* \"#utility.yul\":1763:1785   */\n          lt\n            /* \"#utility.yul\":1742:1760   */\n          0xffffffffffffffff\n            /* \"#utility.yul\":1730:1740   */\n          dup3\n            /* \"#utility.yul\":1727:1761   */\n          gt\n            /* \"#utility.yul\":1724:1786   */\n          or\n            /* \"#utility.yul\":1721:1809   */\n          iszero\n          tag_171\n          jumpi\n            /* \"#utility.yul\":1789:1807   */\n          tag_172\n          tag_128\n          jump\t// in\n        tag_172:\n            /* \"#utility.yul\":1721:1809   */\n        tag_171:\n            /* \"#utility.yul\":1829:1839   */\n          dup1\n            /* \"#utility.yul\":1825:1827   */\n          0x40\n            /* \"#utility.yul\":1818:1840   */\n          mstore\n            /* \"#utility.yul\":1608:1846   */\n          pop\n            /* \"#utility.yul\":1565:1846   */\n          pop\n          pop\n          jump\t// out\n            /* \"#utility.yul\":1852:1981   */\n        tag_130:\n            /* \"#utility.yul\":1886:1892   */\n          0x00\n            /* \"#utility.yul\":1913:1933   */\n          tag_174\n          tag_119\n          jump\t// in\n        tag_174:\n            /* \"#utility.yul\":1903:1933   */\n          swap1\n          pop\n            /* \"#utility.yul\":1942:1975   */\n          tag_175\n            /* \"#utility.yul\":1970:1974   */\n          dup3\n            /* \"#utility.yul\":1962:1968   */\n          dup3\n            /* \"#utility.yul\":1942:1975   */\n          tag_129\n          jump\t// in\n        tag_175:\n            /* \"#utility.yul\":1852:1981   */\n          swap2\n          swap1\n          pop\n          jump\t// out\n            /* \"#utility.yul\":1987:2295   */\n        tag_131:\n            /* \"#utility.yul\":2049:2053   */\n          0x00\n            /* \"#utility.yul\":2139:2157   */\n          0xffffffffffffffff\n            /* \"#utility.yul\":2131:2137   */\n          dup3\n            /* \"#utility.yul\":2128:2158   */\n          gt\n            /* \"#utility.yul\":2125:2181   */\n          iszero\n          tag_177\n          jumpi\n            /* \"#utility.yul\":2161:2179   */\n          tag_178\n          tag_128\n          jump\t// in\n        tag_178:\n            /* \"#utility.yul\":2125:2181   */\n        tag_177:\n            /* \"#utility.yul\":2199:2228   */\n          tag_179\n            /* \"#utility.yul\":2221:2227   */\n          dup3\n            /* \"#utility.yul\":2199:2228   */\n          tag_127\n          jump\t// in\n        tag_179:\n            /* \"#utility.yul\":2191:2228   */\n          swap1\n          pop\n            /* \"#utility.yul\":2283:2287   */\n          0x20\n            /* \"#utility.yul\":2277:2281   */\n          dup2\n            /* \"#utility.yul\":2273:2288   */\n          add\n            /* \"#utility.yul\":2265:2288   */\n          swap1\n          pop\n            /* \"#utility.yul\":1987:2295   */\n          swap2\n          swap1\n          pop\n          jump\t// out\n            /* \"#utility.yul\":2301:2455   */\n        tag_132:\n            /* \"#utility.yul\":2385:2391   */\n          dup3\n            /* \"#utility.yul\":2380:2383   */\n          dup2\n            /* \"#utility.yul\":2375:2378   */\n          dup4\n            /* \"#utility.yul\":2362:2392   */\n          calldatacopy\n            /* \"#utility.yul\":2447:2448   */\n          0x00\n            /* \"#utility.yul\":2438:2444   */\n          dup4\n            /* \"#utility.yul\":2433:2436   */\n          dup4\n            /* \"#utility.yul\":2429:2445   */\n          add\n            /* \"#utility.yul\":2422:2449   */\n          mstore\n            /* \"#utility.yul\":2301:2455   */\n          pop\n          pop\n          pop\n          jump\t// out\n            /* \"#utility.yul\":2461:2873   */\n        tag_133:\n            /* \"#utility.yul\":2539:2544   */\n          0x00\n            /* \"#utility.yul\":2564:2630   */\n          tag_182\n            /* \"#utility.yul\":2580:2629   */\n          tag_183\n            /* \"#utility.yul\":2622:2628   */\n          dup5\n            /* \"#utility.yul\":2580:2629   */\n          tag_131\n          jump\t// in\n        tag_183:\n            /* \"#utility.yul\":2564:2630   */\n          tag_130\n          jump\t// in\n        tag_182:\n            /* \"#utility.yul\":2555:2630   */\n          swap1\n          pop\n            /* \"#utility.yul\":2653:2659   */\n          dup3\n            /* \"#utility.yul\":2646:2651   */\n          dup2\n            /* \"#utility.yul\":2639:2660   */\n          mstore\n            /* \"#utility.yul\":2691:2695   */\n          0x20\n            /* \"#utility.yul\":2684:2689   */\n          dup2\n            /* \"#utility.yul\":2680:2696   */\n          add\n            /* \"#utility.yul\":2729:2732   */\n          dup5\n            /* \"#utility.yul\":2720:2726   */\n          dup5\n            /* \"#utility.yul\":2715:2718   */\n          dup5\n            /* \"#utility.yul\":2711:2727   */\n          add\n            /* \"#utility.yul\":2708:2733   */\n          gt\n            /* \"#utility.yul\":2705:2817   */\n          iszero\n          tag_184\n          jumpi\n            /* \"#utility.yul\":2736:2815   */\n          tag_185\n          tag_126\n          jump\t// in\n        tag_185:\n            /* \"#utility.yul\":2705:2817   */\n        tag_184:\n            /* \"#utility.yul\":2826:2867   */\n          tag_186\n            /* \"#utility.yul\":2860:2866   */\n          dup5\n            /* \"#utility.yul\":2855:2858   */\n          dup3\n            /* \"#utility.yul\":2850:2853   */\n          dup6\n            /* \"#utility.yul\":2826:2867   */\n          tag_132\n          jump\t// in\n        tag_186:\n            /* \"#utility.yul\":2545:2873   */\n          pop\n            /* \"#utility.yul\":2461:2873   */\n          swap4\n          swap3\n          pop\n          pop\n          pop\n          jump\t// out\n            /* \"#utility.yul\":2893:3233   */\n        tag_134:\n            /* \"#utility.yul\":2949:2954   */\n          0x00\n            /* \"#utility.yul\":2998:3001   */\n          dup3\n            /* \"#utility.yul\":2991:2995   */\n          0x1f\n            /* \"#utility.yul\":2983:2989   */\n          dup4\n            /* \"#utility.yul\":2979:2996   */\n          add\n            /* \"#utility.yul\":2975:3002   */\n          slt\n            /* \"#utility.yul\":2965:3087   */\n          tag_188\n          jumpi\n            /* \"#utility.yul\":3006:3085   */\n          tag_189\n          tag_125\n          jump\t// in\n        tag_189:\n            /* \"#utility.yul\":2965:3087   */\n        tag_188:\n            /* \"#utility.yul\":3123:3129   */\n          dup2\n            /* \"#utility.yul\":3110:3130   */\n          calldataload\n            /* \"#utility.yul\":3148:3227   */\n          tag_190\n            /* \"#utility.yul\":3223:3226   */\n          dup5\n            /* \"#utility.yul\":3215:3221   */\n          dup3\n            /* \"#utility.yul\":3208:3212   */\n          0x20\n            /* \"#utility.yul\":3200:3206   */\n          dup7\n            /* \"#utility.yul\":3196:3213   */\n          add\n            /* \"#utility.yul\":3148:3227   */\n          tag_133\n          jump\t// in\n        tag_190:\n            /* \"#utility.yul\":3139:3227   */\n          swap2\n          pop\n            /* \"#utility.yul\":2955:3233   */\n          pop\n            /* \"#utility.yul\":2893:3233   */\n          swap3\n          swap2\n          pop\n          pop\n          jump\t// out\n            /* \"#utility.yul\":3239:3748   */\n        tag_20:\n            /* \"#utility.yul\":3308:3314   */\n          0x00\n            /* \"#utility.yul\":3357:3359   */\n          0x20\n            /* \"#utility.yul\":3345:3354   */\n          dup3\n            /* \"#utility.yul\":3336:3343   */\n          dup5\n            /* \"#utility.yul\":3332:3355   */\n          sub\n            /* \"#utility.yul\":3328:3360   */\n          slt\n            /* \"#utility.yul\":3325:3444   */\n          iszero\n          tag_192\n          jumpi\n            /* \"#utility.yul\":3363:3442   */\n          tag_193\n          tag_120\n          jump\t// in\n        tag_193:\n            /* \"#utility.yul\":3325:3444   */\n        tag_192:\n            /* \"#utility.yul\":3511:3512   */\n          0x00\n            /* \"#utility.yul\":3500:3509   */\n          dup3\n            /* \"#utility.yul\":3496:3513   */\n          add\n            /* \"#utility.yul\":3483:3514   */\n          calldataload\n            /* \"#utility.yul\":3541:3559   */\n          0xffffffffffffffff\n            /* \"#utility.yul\":3533:3539   */\n          dup2\n            /* \"#utility.yul\":3530:3560   */\n          gt\n            /* \"#utility.yul\":3527:3644   */\n          iszero\n          tag_194\n          jumpi\n            /* \"#utility.yul\":3563:3642   */\n          tag_195\n          tag_121\n          jump\t// in\n        tag_195:\n            /* \"#utility.yul\":3527:3644   */\n        tag_194:\n            /* \"#utility.yul\":3668:3731   */\n          tag_196\n            /* \"#utility.yul\":3723:3730   */\n          dup5\n            /* \"#utility.yul\":3714:3720   */\n          dup3\n            /* \"#utility.yul\":3703:3712   */\n          dup6\n            /* \"#utility.yul\":3699:3721   */\n          add\n            /* \"#utility.yul\":3668:3731   */\n          tag_134\n          jump\t// in\n        tag_196:\n            /* \"#utility.yul\":3658:3731   */\n          swap2\n          pop\n            /* \"#utility.yul\":3454:3741   */\n          pop\n            /* \"#utility.yul\":3239:3748   */\n          swap3\n          swap2\n          pop\n          pop\n          jump\t// out\n            /* \"#utility.yul\":3754:3844   */\n        tag_135:\n            /* \"#utility.yul\":3788:3795   */\n          0x00\n            /* \"#utility.yul\":3831:3836   */\n          dup2\n            /* \"#utility.yul\":3824:3837   */\n          iszero\n            /* \"#utility.yul\":3817:3838   */\n          iszero\n            /* \"#utility.yul\":3806:3838   */\n          swap1\n          pop\n            /* \"#utility.yul\":3754:3844   */\n          swap2\n          swap1\n          pop\n          jump\t// out\n            /* \"#utility.yul\":3850:3959   */\n        tag_136:\n            /* \"#utility.yul\":3931:3952   */\n          tag_199\n            /* \"#utility.yul\":3946:3951   */\n          dup2\n            /* \"#utility.yul\":3931:3952   */\n          tag_135\n          jump\t// in\n        tag_199:\n            /* \"#utility.yul\":3926:3929   */\n          dup3\n            /* \"#utility.yul\":3919:3953   */\n          mstore\n            /* \"#utility.yul\":3850:3959   */\n          pop\n          pop\n          jump\t// out\n            /* \"#utility.yul\":3965:4175   */\n        tag_23:\n            /* \"#utility.yul\":4052:4056   */\n          0x00\n            /* \"#utility.yul\":4090:4092   */\n          0x20\n            /* \"#utility.yul\":4079:4088   */\n          dup3\n            /* \"#utility.yul\":4075:4093   */\n          add\n            /* \"#utility.yul\":4067:4093   */\n          swap1\n          pop\n            /* \"#utility.yul\":4103:4168   */\n          tag_201\n            /* \"#utility.yul\":4165:4166   */\n          0x00\n            /* \"#utility.yul\":4154:4163   */\n          dup4\n            /* \"#utility.yul\":4150:4167   */\n          add\n            /* \"#utility.yul\":4141:4147   */\n          dup5\n            /* \"#utility.yul\":4103:4168   */\n          tag_136\n          jump\t// in\n        tag_201:\n            /* \"#utility.yul\":3965:4175   */\n          swap3\n          swap2\n          pop\n          pop\n          jump\t// out\n            /* \"#utility.yul\":4181:4307   */\n        tag_137:\n            /* \"#utility.yul\":4218:4225   */\n          0x00\n            /* \"#utility.yul\":4258:4300   */\n          0xffffffffffffffffffffffffffffffffffffffff\n            /* \"#utility.yul\":4251:4256   */\n          dup3\n            /* \"#utility.yul\":4247:4301   */\n          and\n            /* \"#utility.yul\":4236:4301   */\n          swap1\n          pop\n            /* \"#utility.yul\":4181:4307   */\n          swap2\n          swap1\n          pop\n          jump\t// out\n            /* \"#utility.yul\":4313:4409   */\n        tag_138:\n            /* \"#utility.yul\":4350:4357   */\n          0x00\n            /* \"#utility.yul\":4379:4403   */\n          tag_204\n            /* \"#utility.yul\":4397:4402   */\n          dup3\n            /* \"#utility.yul\":4379:4403   */\n          tag_137\n          jump\t// in\n        tag_204:\n            /* \"#utility.yul\":4368:4403   */\n          swap1\n          pop\n            /* \"#utility.yul\":4313:4409   */\n          swap2\n          swap1\n          pop\n          jump\t// out\n            /* \"#utility.yul\":4415:4537   */\n        tag_139:\n            /* \"#utility.yul\":4488:4512   */\n          tag_206\n            /* \"#utility.yul\":4506:4511   */\n          dup2\n            /* \"#utility.yul\":4488:4512   */\n          tag_138\n          jump\t// in\n        tag_206:\n            /* \"#utility.yul\":4481:4486   */\n          dup2\n            /* \"#utility.yul\":4478:4513   */\n          eq\n            /* \"#utility.yul\":4468:4531   */\n          tag_207\n          jumpi\n            /* \"#utility.yul\":4527:4528   */\n          0x00\n            /* \"#utility.yul\":4524:4525   */\n          dup1\n            /* \"#utility.yul\":4517:4529   */\n          revert\n            /* \"#utility.yul\":4468:4531   */\n        tag_207:\n            /* \"#utility.yul\":4415:4537   */\n          pop\n          jump\t// out\n            /* \"#utility.yul\":4543:4682   */\n        tag_140:\n            /* \"#utility.yul\":4589:4594   */\n          0x00\n            /* \"#utility.yul\":4627:4633   */\n          dup2\n            /* \"#utility.yul\":4614:4634   */\n          calldataload\n            /* \"#utility.yul\":4605:4634   */\n          swap1\n          pop\n            /* \"#utility.yul\":4643:4676   */\n          tag_209\n            /* \"#utility.yul\":4670:4675   */\n          dup2\n            /* \"#utility.yul\":4643:4676   */\n          tag_139\n          jump\t// in\n        tag_209:\n            /* \"#utility.yul\":4543:4682   */\n          swap3\n          swap2\n          pop\n          pop\n          jump\t// out\n            /* \"#utility.yul\":4688:5813   */\n        tag_26:\n            /* \"#utility.yul\":4794:4800   */\n          0x00\n            /* \"#utility.yul\":4802:4808   */\n          dup1\n            /* \"#utility.yul\":4810:4816   */\n          0x00\n            /* \"#utility.yul\":4818:4824   */\n          dup1\n            /* \"#utility.yul\":4867:4870   */\n          0x80\n            /* \"#utility.yul\":4855:4864   */\n          dup6\n            /* \"#utility.yul\":4846:4853   */\n          dup8\n            /* \"#utility.yul\":4842:4865   */\n          sub\n            /* \"#utility.yul\":4838:4871   */\n          slt\n            /* \"#utility.yul\":4835:4955   */\n          iszero\n          tag_211\n          jumpi\n            /* \"#utility.yul\":4874:4953   */\n          tag_212\n          tag_120\n          jump\t// in\n        tag_212:\n            /* \"#utility.yul\":4835:4955   */\n        tag_211:\n            /* \"#utility.yul\":5022:5023   */\n          0x00\n            /* \"#utility.yul\":5011:5020   */\n          dup6\n            /* \"#utility.yul\":5007:5024   */\n          add\n            /* \"#utility.yul\":4994:5025   */\n          calldataload\n            /* \"#utility.yul\":5052:5070   */\n          0xffffffffffffffff\n            /* \"#utility.yul\":5044:5050   */\n          dup2\n            /* \"#utility.yul\":5041:5071   */\n          gt\n            /* \"#utility.yul\":5038:5155   */\n          iszero\n          tag_213\n          jumpi\n            /* \"#utility.yul\":5074:5153   */\n          tag_214\n          tag_121\n          jump\t// in\n        tag_214:\n            /* \"#utility.yul\":5038:5155   */\n        tag_213:\n            /* \"#utility.yul\":5179:5242   */\n          tag_215\n            /* \"#utility.yul\":5234:5241   */\n          dup8\n            /* \"#utility.yul\":5225:5231   */\n          dup3\n            /* \"#utility.yul\":5214:5223   */\n          dup9\n            /* \"#utility.yul\":5210:5232   */\n          add\n            /* \"#utility.yul\":5179:5242   */\n          tag_134\n          jump\t// in\n        tag_215:\n            /* \"#utility.yul\":5169:5242   */\n          swap5\n          pop\n            /* \"#utility.yul\":4965:5252   */\n          pop\n            /* \"#utility.yul\":5319:5321   */\n          0x20\n            /* \"#utility.yul\":5308:5317   */\n          dup6\n            /* \"#utility.yul\":5304:5322   */\n          add\n            /* \"#utility.yul\":5291:5323   */\n          calldataload\n            /* \"#utility.yul\":5350:5368   */\n          0xffffffffffffffff\n            /* \"#utility.yul\":5342:5348   */\n          dup2\n            /* \"#utility.yul\":5339:5369   */\n          gt\n            /* \"#utility.yul\":5336:5453   */\n          iszero\n          tag_216\n          jumpi\n            /* \"#utility.yul\":5372:5451   */\n          tag_217\n          tag_121\n          jump\t// in\n        tag_217:\n            /* \"#utility.yul\":5336:5453   */\n        tag_216:\n            /* \"#utility.yul\":5477:5540   */\n          tag_218\n            /* \"#utility.yul\":5532:5539   */\n          dup8\n            /* \"#utility.yul\":5523:5529   */\n          dup3\n            /* \"#utility.yul\":5512:5521   */\n          dup9\n            /* \"#utility.yul\":5508:5530   */\n          add\n            /* \"#utility.yul\":5477:5540   */\n          tag_134\n          jump\t// in\n        tag_218:\n            /* \"#utility.yul\":5467:5540   */\n          swap4\n          pop\n            /* \"#utility.yul\":5262:5550   */\n          pop\n            /* \"#utility.yul\":5589:5591   */\n          0x40\n            /* \"#utility.yul\":5615:5668   */\n          tag_219\n            /* \"#utility.yul\":5660:5667   */\n          dup8\n            /* \"#utility.yul\":5651:5657   */\n          dup3\n            /* \"#utility.yul\":5640:5649   */\n          dup9\n            /* \"#utility.yul\":5636:5658   */\n          add\n            /* \"#utility.yul\":5615:5668   */\n          tag_124\n          jump\t// in\n        tag_219:\n            /* \"#utility.yul\":5605:5668   */\n          swap3\n          pop\n            /* \"#utility.yul\":5560:5678   */\n          pop\n            /* \"#utility.yul\":5717:5719   */\n          0x60\n            /* \"#utility.yul\":5743:5796   */\n          tag_220\n            /* \"#utility.yul\":5788:5795   */\n          dup8\n            /* \"#utility.yul\":5779:5785   */\n          dup3\n            /* \"#utility.yul\":5768:5777   */\n          dup9\n            /* \"#utility.yul\":5764:5786   */\n          add\n            /* \"#utility.yul\":5743:5796   */\n          tag_140\n          jump\t// in\n        tag_220:\n            /* \"#utility.yul\":5733:5796   */\n          swap2\n          pop\n            /* \"#utility.yul\":5688:5806   */\n          pop\n            /* \"#utility.yul\":4688:5813   */\n          swap3\n          swap6\n          swap2\n          swap5\n          pop\n          swap3\n          pop\n          jump\t// out\n            /* \"#utility.yul\":5819:5937   */\n        tag_141:\n            /* \"#utility.yul\":5906:5930   */\n          tag_222\n            /* \"#utility.yul\":5924:5929   */\n          dup2\n            /* \"#utility.yul\":5906:5930   */\n          tag_122\n          jump\t// in\n        tag_222:\n            /* \"#utility.yul\":5901:5904   */\n          dup3\n            /* \"#utility.yul\":5894:5931   */\n          mstore\n            /* \"#utility.yul\":5819:5937   */\n          pop\n          pop\n          jump\t// out\n            /* \"#utility.yul\":5943:6165   */\n        tag_32:\n            /* \"#utility.yul\":6036:6040   */\n          0x00\n            /* \"#utility.yul\":6074:6076   */\n          0x20\n            /* \"#utility.yul\":6063:6072   */\n          dup3\n            /* \"#utility.yul\":6059:6077   */\n          add\n            /* \"#utility.yul\":6051:6077   */\n          swap1\n          pop\n            /* \"#utility.yul\":6087:6158   */\n          tag_224\n            /* \"#utility.yul\":6155:6156   */\n          0x00\n            /* \"#utility.yul\":6144:6153   */\n          dup4\n            /* \"#utility.yul\":6140:6157   */\n          add\n            /* \"#utility.yul\":6131:6137   */\n          dup5\n            /* \"#utility.yul\":6087:6158   */\n          tag_141\n          jump\t// in\n        tag_224:\n            /* \"#utility.yul\":5943:6165   */\n          swap3\n          swap2\n          pop\n          pop\n          jump\t// out\n            /* \"#utility.yul\":6171:6289   */\n        tag_142:\n            /* \"#utility.yul\":6258:6282   */\n          tag_226\n            /* \"#utility.yul\":6276:6281   */\n          dup2\n            /* \"#utility.yul\":6258:6282   */\n          tag_138\n          jump\t// in\n        tag_226:\n            /* \"#utility.yul\":6253:6256   */\n          dup3\n            /* \"#utility.yul\":6246:6283   */\n          mstore\n            /* \"#utility.yul\":6171:6289   */\n          pop\n          pop\n          jump\t// out\n            /* \"#utility.yul\":6295:6517   */\n        tag_36:\n            /* \"#utility.yul\":6388:6392   */\n          0x00\n            /* \"#utility.yul\":6426:6428   */\n          0x20\n            /* \"#utility.yul\":6415:6424   */\n          dup3\n            /* \"#utility.yul\":6411:6429   */\n          add\n            /* \"#utility.yul\":6403:6429   */\n          swap1\n          pop\n            /* \"#utility.yul\":6439:6510   */\n          tag_228\n            /* \"#utility.yul\":6507:6508   */\n          0x00\n            /* \"#utility.yul\":6496:6505   */\n          dup4\n            /* \"#utility.yul\":6492:6509   */\n          add\n            /* \"#utility.yul\":6483:6489   */\n          dup5\n            /* \"#utility.yul\":6439:6510   */\n          tag_142\n          jump\t// in\n        tag_228:\n            /* \"#utility.yul\":6295:6517   */\n          swap3\n          swap2\n          pop\n          pop\n          jump\t// out\n            /* \"#utility.yul\":6523:6622   */\n        tag_143:\n            /* \"#utility.yul\":6575:6581   */\n          0x00\n            /* \"#utility.yul\":6609:6614   */\n          dup2\n            /* \"#utility.yul\":6603:6615   */\n          mload\n            /* \"#utility.yul\":6593:6615   */\n          swap1\n          pop\n            /* \"#utility.yul\":6523:6622   */\n          swap2\n          swap1\n          pop\n          jump\t// out\n            /* \"#utility.yul\":6628:6797   */\n        tag_144:\n            /* \"#utility.yul\":6712:6723   */\n          0x00\n            /* \"#utility.yul\":6746:6752   */\n          dup3\n            /* \"#utility.yul\":6741:6744   */\n          dup3\n            /* \"#utility.yul\":6734:6753   */\n          mstore\n            /* \"#utility.yul\":6786:6790   */\n          0x20\n            /* \"#utility.yul\":6781:6784   */\n          dup3\n            /* \"#utility.yul\":6777:6791   */\n          add\n            /* \"#utility.yul\":6762:6791   */\n          swap1\n          pop\n            /* \"#utility.yul\":6628:6797   */\n          swap3\n          swap2\n          pop\n          pop\n          jump\t// out\n            /* \"#utility.yul\":6803:7110   */\n        tag_145:\n            /* \"#utility.yul\":6871:6872   */\n          0x00\n            /* \"#utility.yul\":6881:6994   */\n        tag_232:\n            /* \"#utility.yul\":6895:6901   */\n          dup4\n            /* \"#utility.yul\":6892:6893   */\n          dup2\n            /* \"#utility.yul\":6889:6902   */\n          lt\n            /* \"#utility.yul\":6881:6994   */\n          iszero\n          tag_234\n          jumpi\n            /* \"#utility.yul\":6980:6981   */\n          dup1\n            /* \"#utility.yul\":6975:6978   */\n          dup3\n            /* \"#utility.yul\":6971:6982   */\n          add\n            /* \"#utility.yul\":6965:6983   */\n          mload\n            /* \"#utility.yul\":6961:6962   */\n          dup2\n            /* \"#utility.yul\":6956:6959   */\n          dup5\n            /* \"#utility.yul\":6952:6963   */\n          add\n            /* \"#utility.yul\":6945:6984   */\n          mstore\n            /* \"#utility.yul\":6917:6919   */\n          0x20\n            /* \"#utility.yul\":6914:6915   */\n          dup2\n            /* \"#utility.yul\":6910:6920   */\n          add\n            /* \"#utility.yul\":6905:6920   */\n          swap1\n          pop\n            /* \"#utility.yul\":6881:6994   */\n          jump(tag_232)\n        tag_234:\n            /* \"#utility.yul\":7012:7018   */\n          dup4\n            /* \"#utility.yul\":7009:7010   */\n          dup2\n            /* \"#utility.yul\":7006:7019   */\n          gt\n            /* \"#utility.yul\":7003:7104   */\n          iszero\n          tag_235\n          jumpi\n            /* \"#utility.yul\":7092:7093   */\n          0x00\n            /* \"#utility.yul\":7083:7089   */\n          dup5\n            /* \"#utility.yul\":7078:7081   */\n          dup5\n            /* \"#utility.yul\":7074:7090   */\n          add\n            /* \"#utility.yul\":7067:7094   */\n          mstore\n            /* \"#utility.yul\":7003:7104   */\n        tag_235:\n            /* \"#utility.yul\":6852:7110   */\n          pop\n            /* \"#utility.yul\":6803:7110   */\n          pop\n          pop\n          pop\n          jump\t// out\n            /* \"#utility.yul\":7116:7480   */\n        tag_146:\n            /* \"#utility.yul\":7204:7207   */\n          0x00\n            /* \"#utility.yul\":7232:7271   */\n          tag_237\n            /* \"#utility.yul\":7265:7270   */\n          dup3\n            /* \"#utility.yul\":7232:7271   */\n          tag_143\n          jump\t// in\n        tag_237:\n            /* \"#utility.yul\":7287:7358   */\n          tag_238\n            /* \"#utility.yul\":7351:7357   */\n          dup2\n            /* \"#utility.yul\":7346:7349   */\n          dup6\n            /* \"#utility.yul\":7287:7358   */\n          tag_144\n          jump\t// in\n        tag_238:\n            /* \"#utility.yul\":7280:7358   */\n          swap4\n          pop\n            /* \"#utility.yul\":7367:7419   */\n          tag_239\n            /* \"#utility.yul\":7412:7418   */\n          dup2\n            /* \"#utility.yul\":7407:7410   */\n          dup6\n            /* \"#utility.yul\":7400:7404   */\n          0x20\n            /* \"#utility.yul\":7393:7398   */\n          dup7\n            /* \"#utility.yul\":7389:7405   */\n          add\n            /* \"#utility.yul\":7367:7419   */\n          tag_145\n          jump\t// in\n        tag_239:\n            /* \"#utility.yul\":7444:7473   */\n          tag_240\n            /* \"#utility.yul\":7466:7472   */\n          dup2\n            /* \"#utility.yul\":7444:7473   */\n          tag_127\n          jump\t// in\n        tag_240:\n            /* \"#utility.yul\":7439:7442   */\n          dup5\n            /* \"#utility.yul\":7435:7474   */\n          add\n            /* \"#utility.yul\":7428:7474   */\n          swap2\n          pop\n            /* \"#utility.yul\":7208:7480   */\n          pop\n            /* \"#utility.yul\":7116:7480   */\n          swap3\n          swap2\n          pop\n          pop\n          jump\t// out\n            /* \"#utility.yul\":7486:8332   */\n        tag_41:\n            /* \"#utility.yul\":7731:7735   */\n          0x00\n            /* \"#utility.yul\":7769:7772   */\n          0xa0\n            /* \"#utility.yul\":7758:7767   */\n          dup3\n            /* \"#utility.yul\":7754:7773   */\n          add\n            /* \"#utility.yul\":7746:7773   */\n          swap1\n          pop\n            /* \"#utility.yul\":7819:7828   */\n          dup2\n            /* \"#utility.yul\":7813:7817   */\n          dup2\n            /* \"#utility.yul\":7809:7829   */\n          sub\n            /* \"#utility.yul\":7805:7806   */\n          0x00\n            /* \"#utility.yul\":7794:7803   */\n          dup4\n            /* \"#utility.yul\":7790:7807   */\n          add\n            /* \"#utility.yul\":7783:7830   */\n          mstore\n            /* \"#utility.yul\":7847:7925   */\n          tag_242\n            /* \"#utility.yul\":7920:7924   */\n          dup2\n            /* \"#utility.yul\":7911:7917   */\n          dup9\n            /* \"#utility.yul\":7847:7925   */\n          tag_146\n          jump\t// in\n        tag_242:\n            /* \"#utility.yul\":7839:7925   */\n          swap1\n          pop\n            /* \"#utility.yul\":7972:7981   */\n          dup2\n            /* \"#utility.yul\":7966:7970   */\n          dup2\n            /* \"#utility.yul\":7962:7982   */\n          sub\n            /* \"#utility.yul\":7957:7959   */\n          0x20\n            /* \"#utility.yul\":7946:7955   */\n          dup4\n            /* \"#utility.yul\":7942:7960   */\n          add\n            /* \"#utility.yul\":7935:7983   */\n          mstore\n            /* \"#utility.yul\":8000:8078   */\n          tag_243\n            /* \"#utility.yul\":8073:8077   */\n          dup2\n            /* \"#utility.yul\":8064:8070   */\n          dup8\n            /* \"#utility.yul\":8000:8078   */\n          tag_146\n          jump\t// in\n        tag_243:\n            /* \"#utility.yul\":7992:8078   */\n          swap1\n          pop\n            /* \"#utility.yul\":8088:8160   */\n          tag_244\n            /* \"#utility.yul\":8156:8158   */\n          0x40\n            /* \"#utility.yul\":8145:8154   */\n          dup4\n            /* \"#utility.yul\":8141:8159   */\n          add\n            /* \"#utility.yul\":8132:8138   */\n          dup7\n            /* \"#utility.yul\":8088:8160   */\n          tag_141\n          jump\t// in\n        tag_244:\n            /* \"#utility.yul\":8170:8242   */\n          tag_245\n            /* \"#utility.yul\":8238:8240   */\n          0x60\n            /* \"#utility.yul\":8227:8236   */\n          dup4\n            /* \"#utility.yul\":8223:8241   */\n          add\n            /* \"#utility.yul\":8214:8220   */\n          dup6\n            /* \"#utility.yul\":8170:8242   */\n          tag_141\n          jump\t// in\n        tag_245:\n            /* \"#utility.yul\":8252:8325   */\n          tag_246\n            /* \"#utility.yul\":8320:8323   */\n          0x80\n            /* \"#utility.yul\":8309:8318   */\n          dup4\n            /* \"#utility.yul\":8305:8324   */\n          add\n            /* \"#utility.yul\":8296:8302   */\n          dup5\n            /* \"#utility.yul\":8252:8325   */\n          tag_142\n          jump\t// in\n        tag_246:\n            /* \"#utility.yul\":7486:8332   */\n          swap7\n          swap6\n          pop\n          pop\n          pop\n          pop\n          pop\n          pop\n          jump\t// out\n            /* \"#utility.yul\":8338:9609   */\n        tag_44:\n            /* \"#utility.yul\":8453:8459   */\n          0x00\n            /* \"#utility.yul\":8461:8467   */\n          dup1\n            /* \"#utility.yul\":8469:8475   */\n          0x00\n            /* \"#utility.yul\":8477:8483   */\n          dup1\n            /* \"#utility.yul\":8485:8491   */\n          0x00\n            /* \"#utility.yul\":8534:8537   */\n          0xa0\n            /* \"#utility.yul\":8522:8531   */\n          dup7\n            /* \"#utility.yul\":8513:8520   */\n          dup9\n            /* \"#utility.yul\":8509:8532   */\n          sub\n            /* \"#utility.yul\":8505:8538   */\n          slt\n            /* \"#utility.yul\":8502:8622   */\n          iszero\n          tag_248\n          jumpi\n            /* \"#utility.yul\":8541:8620   */\n          tag_249\n          tag_120\n          jump\t// in\n        tag_249:\n            /* \"#utility.yul\":8502:8622   */\n        tag_248:\n            /* \"#utility.yul\":8661:8662   */\n          0x00\n            /* \"#utility.yul\":8686:8739   */\n          tag_250\n            /* \"#utility.yul\":8731:8738   */\n          dup9\n            /* \"#utility.yul\":8722:8728   */\n          dup3\n            /* \"#utility.yul\":8711:8720   */\n          dup10\n            /* \"#utility.yul\":8707:8729   */\n          add\n            /* \"#utility.yul\":8686:8739   */\n          tag_124\n          jump\t// in\n        tag_250:\n            /* \"#utility.yul\":8676:8739   */\n          swap6\n          pop\n            /* \"#utility.yul\":8632:8749   */\n          pop\n            /* \"#utility.yul\":8816:8818   */\n          0x20\n            /* \"#utility.yul\":8805:8814   */\n          dup7\n            /* \"#utility.yul\":8801:8819   */\n          add\n            /* \"#utility.yul\":8788:8820   */\n          calldataload\n            /* \"#utility.yul\":8847:8865   */\n          0xffffffffffffffff\n            /* \"#utility.yul\":8839:8845   */\n          dup2\n            /* \"#utility.yul\":8836:8866   */\n          gt\n            /* \"#utility.yul\":8833:8950   */\n          iszero\n          tag_251\n          jumpi\n            /* \"#utility.yul\":8869:8948   */\n          tag_252\n          tag_121\n          jump\t// in\n        tag_252:\n            /* \"#utility.yul\":8833:8950   */\n        tag_251:\n            /* \"#utility.yul\":8974:9037   */\n          tag_253\n            /* \"#utility.yul\":9029:9036   */\n          dup9\n            /* \"#utility.yul\":9020:9026   */\n          dup3\n            /* \"#utility.yul\":9009:9018   */\n          dup10\n            /* \"#utility.yul\":9005:9027   */\n          add\n            /* \"#utility.yul\":8974:9037   */\n          tag_134\n          jump\t// in\n        tag_253:\n            /* \"#utility.yul\":8964:9037   */\n          swap5\n          pop\n            /* \"#utility.yul\":8759:9047   */\n          pop\n            /* \"#utility.yul\":9114:9116   */\n          0x40\n            /* \"#utility.yul\":9103:9112   */\n          dup7\n            /* \"#utility.yul\":9099:9117   */\n          add\n            /* \"#utility.yul\":9086:9118   */\n          calldataload\n            /* \"#utility.yul\":9145:9163   */\n          0xffffffffffffffff\n            /* \"#utility.yul\":9137:9143   */\n          dup2\n            /* \"#utility.yul\":9134:9164   */\n          gt\n            /* \"#utility.yul\":9131:9248   */\n          iszero\n          tag_254\n          jumpi\n            /* \"#utility.yul\":9167:9246   */\n          tag_255\n          tag_121\n          jump\t// in\n        tag_255:\n            /* \"#utility.yul\":9131:9248   */\n        tag_254:\n            /* \"#utility.yul\":9272:9335   */\n          tag_256\n            /* \"#utility.yul\":9327:9334   */\n          dup9\n            /* \"#utility.yul\":9318:9324   */\n          dup3\n            /* \"#utility.yul\":9307:9316   */\n          dup10\n            /* \"#utility.yul\":9303:9325   */\n          add\n            /* \"#utility.yul\":9272:9335   */\n          tag_134\n          jump\t// in\n        tag_256:\n            /* \"#utility.yul\":9262:9335   */\n          swap4\n          pop\n            /* \"#utility.yul\":9057:9345   */\n          pop\n            /* \"#utility.yul\":9384:9386   */\n          0x60\n            /* \"#utility.yul\":9410:9463   */\n          tag_257\n            /* \"#utility.yul\":9455:9462   */\n          dup9\n            /* \"#utility.yul\":9446:9452   */\n          dup3\n            /* \"#utility.yul\":9435:9444   */\n          dup10\n            /* \"#utility.yul\":9431:9453   */\n          add\n            /* \"#utility.yul\":9410:9463   */\n          tag_124\n          jump\t// in\n        tag_257:\n            /* \"#utility.yul\":9400:9463   */\n          swap3\n          pop\n            /* \"#utility.yul\":9355:9473   */\n          pop\n            /* \"#utility.yul\":9512:9515   */\n          0x80\n            /* \"#utility.yul\":9539:9592   */\n          tag_258\n            /* \"#utility.yul\":9584:9591   */\n          dup9\n            /* \"#utility.yul\":9575:9581   */\n          dup3\n            /* \"#utility.yul\":9564:9573   */\n          dup10\n            /* \"#utility.yul\":9560:9582   */\n          add\n            /* \"#utility.yul\":9539:9592   */\n          tag_140\n          jump\t// in\n        tag_258:\n            /* \"#utility.yul\":9529:9592   */\n          swap2\n          pop\n            /* \"#utility.yul\":9483:9602   */\n          pop\n            /* \"#utility.yul\":8338:9609   */\n          swap3\n          swap6\n          pop\n          swap3\n          swap6\n          swap1\n          swap4\n          pop\n          jump\t// out\n            /* \"#utility.yul\":9615:9795   */\n        tag_147:\n            /* \"#utility.yul\":9663:9740   */\n          0x4e487b7100000000000000000000000000000000000000000000000000000000\n            /* \"#utility.yul\":9660:9661   */\n          0x00\n            /* \"#utility.yul\":9653:9741   */\n          mstore\n            /* \"#utility.yul\":9760:9764   */\n          0x11\n            /* \"#utility.yul\":9757:9758   */\n          0x04\n            /* \"#utility.yul\":9750:9765   */\n          mstore\n            /* \"#utility.yul\":9784:9788   */\n          0x24\n            /* \"#utility.yul\":9781:9782   */\n          0x00\n            /* \"#utility.yul\":9774:9789   */\n          revert\n            /* \"#utility.yul\":9801:10034   */\n        tag_59:\n            /* \"#utility.yul\":9840:9843   */\n          0x00\n            /* \"#utility.yul\":9863:9887   */\n          tag_261\n            /* \"#utility.yul\":9881:9886   */\n          dup3\n            /* \"#utility.yul\":9863:9887   */\n          tag_122\n          jump\t// in\n        tag_261:\n            /* \"#utility.yul\":9854:9887   */\n          swap2\n          pop\n            /* \"#utility.yul\":9909:9975   */\n          0xffffffffffffffffffffffffffffffffffffffffffffffffffffffffffffffff\n            /* \"#utility.yul\":9902:9907   */\n          dup3\n            /* \"#utility.yul\":9899:9976   */\n          eq\n            /* \"#utility.yul\":9896:9999   */\n          iszero\n          tag_262\n          jumpi\n            /* \"#utility.yul\":9979:9997   */\n          tag_263\n          tag_147\n          jump\t// in\n        tag_263:\n            /* \"#utility.yul\":9896:9999   */\n        tag_262:\n            /* \"#utility.yul\":10026:10027   */\n          0x01\n            /* \"#utility.yul\":10019:10024   */\n          dup3\n            /* \"#utility.yul\":10015:10028   */\n          add\n            /* \"#utility.yul\":10008:10028   */\n          swap1\n          pop\n            /* \"#utility.yul\":9801:10034   */\n          swap2\n          swap1\n          pop\n          jump\t// out\n            /* \"#utility.yul\":10040:10188   */\n        tag_148:\n            /* \"#utility.yul\":10142:10153   */\n          0x00\n            /* \"#utility.yul\":10179:10182   */\n          dup2\n            /* \"#utility.yul\":10164:10182   */\n          swap1\n          pop\n            /* \"#utility.yul\":10040:10188   */\n          swap3\n          swap2\n          pop\n          pop\n          jump\t// out\n            /* \"#utility.yul\":10194:10571   */\n        tag_149:\n            /* \"#utility.yul\":10300:10303   */\n          0x00\n            /* \"#utility.yul\":10328:10367   */\n          tag_266\n            /* \"#utility.yul\":10361:10366   */\n          dup3\n            /* \"#utility.yul\":10328:10367   */\n          tag_143\n          jump\t// in\n        tag_266:\n            /* \"#utility.yul\":10383:10472   */\n          tag_267\n            /* \"#utility.yul\":10465:10471   */\n          dup2\n            /* \"#utility.yul\":10460:10463   */\n          dup6\n            /* \"#utility.yul\":10383:10472   */\n          tag_148\n          jump\t// in\n        tag_267:\n            /* \"#utility.yul\":10376:10472   */\n          swap4\n          pop\n            /* \"#utility.yul\":10481:10533   */\n          tag_268\n            /* \"#utility.yul\":10526:10532   */\n          dup2\n            /* \"#utility.yul\":10521:10524   */\n          dup6\n            /* \"#utility.yul\":10514:10518   */\n          0x20\n            /* \"#utility.yul\":10507:10512   */\n          dup7\n            /* \"#utility.yul\":10503:10519   */\n          add\n            /* \"#utility.yul\":10481:10533   */\n          tag_145\n          jump\t// in\n        tag_268:\n            /* \"#utility.yul\":10558:10564   */\n          dup1\n            /* \"#utility.yul\":10553:10556   */\n          dup5\n            /* \"#utility.yul\":10549:10565   */\n          add\n            /* \"#utility.yul\":10542:10565   */\n          swap2\n          pop\n            /* \"#utility.yul\":10304:10571   */\n          pop\n            /* \"#utility.yul\":10194:10571   */\n          swap3\n          swap2\n          pop\n          pop\n          jump\t// out\n            /* \"#utility.yul\":10577:10852   */\n        tag_68:\n            /* \"#utility.yul\":10709:10712   */\n          0x00\n            /* \"#utility.yul\":10731:10826   */\n          tag_270\n            /* \"#utility.yul\":10822:10825   */\n          dup3\n            /* \"#utility.yul\":10813:10819   */\n          dup5\n            /* \"#utility.yul\":10731:10826   */\n          tag_149\n          jump\t// in\n        tag_270:\n            /* \"#utility.yul\":10724:10826   */\n          swap2\n          pop\n            /* \"#utility.yul\":10843:10846   */\n          dup2\n            /* \"#utility.yul\":10836:10846   */\n          swap1\n          pop\n            /* \"#utility.yul\":10577:10852   */\n          swap3\n          swap2\n          pop\n          pop\n          jump\t// out\n            /* \"#utility.yul\":10858:11038   */\n        tag_150:\n            /* \"#utility.yul\":10906:10983   */\n          0x4e487b7100000000000000000000000000000000000000000000000000000000\n            /* \"#utility.yul\":10903:10904   */\n          0x00\n            /* \"#utility.yul\":10896:10984   */\n          mstore\n            /* \"#utility.yul\":11003:11007   */\n          0x22\n            /* \"#utility.yul\":11000:11001   */\n          0x04\n            /* \"#utility.yul\":10993:11008   */\n          mstore\n            /* \"#utility.yul\":11027:11031   */\n          0x24\n            /* \"#utility.yul\":11024:11025   */\n          0x00\n            /* \"#utility.yul\":11017:11032   */\n          revert\n            /* \"#utility.yul\":11044:11364   */\n        tag_71:\n            /* \"#utility.yul\":11088:11094   */\n          0x00\n            /* \"#utility.yul\":11125:11126   */\n          0x02\n            /* \"#utility.yul\":11119:11123   */\n          dup3\n            /* \"#utility.yul\":11115:11127   */\n          div\n            /* \"#utility.yul\":11105:11127   */\n          swap1\n          pop\n            /* \"#utility.yul\":11172:11173   */\n          0x01\n            /* \"#utility.yul\":11166:11170   */\n          dup3\n            /* \"#utility.yul\":11162:11174   */\n          and\n            /* \"#utility.yul\":11193:11211   */\n          dup1\n            /* \"#utility.yul\":11183:11264   */\n          tag_273\n          jumpi\n            /* \"#utility.yul\":11249:11253   */\n          0x7f\n            /* \"#utility.yul\":11241:11247   */\n          dup3\n            /* \"#utility.yul\":11237:11254   */\n          and\n            /* \"#utility.yul\":11227:11254   */\n          swap2\n          pop\n            /* \"#utility.yul\":11183:11264   */\n        tag_273:\n            /* \"#utility.yul\":11311:11313   */\n          0x20\n            /* \"#utility.yul\":11303:11309   */\n          dup3\n            /* \"#utility.yul\":11300:11314   */\n          lt\n            /* \"#utility.yul\":11280:11298   */\n          dup2\n            /* \"#utility.yul\":11277:11315   */\n          eq\n            /* \"#utility.yul\":11274:11358   */\n          iszero\n          tag_274\n          jumpi\n            /* \"#utility.yul\":11330:11348   */\n          tag_275\n          tag_150\n          jump\t// in\n        tag_275:\n            /* \"#utility.yul\":11274:11358   */\n        tag_274:\n            /* \"#utility.yul\":11095:11364   */\n          pop\n            /* \"#utility.yul\":11044:11364   */\n          swap2\n          swap1\n          pop\n          jump\t// out\n\n        auxdata: 0xa264697066735822122060397ee0588d0b47d7a31ecf97f70613583ee1a3f04694a366944803c34d196464736f6c634300080a0033\n    }\n}\n\nsub_2: assembly {\n        /* \"devs/UserManager.sol\":788:3352   */\n      mstore(0x40, 0x80)\n        /* \"devs/UserManager.sol\":1296:1407   */\n      callvalue\n      dup1\n      iszero\n      tag_1\n      jumpi\n      0x00\n      dup1\n      revert\n    tag_1:\n      pop\n      mload(0x40)\n      sub(codesize, bytecodeSize)\n      dup1\n      bytecodeSize\n      dup4\n      codecopy\n      dup2\n      dup2\n      add\n      0x40\n      mstore\n      dup2\n      add\n      swap1\n      tag_2\n      swap2\n      swap1\n      tag_3\n      jump\t// in\n    tag_2:\n        /* \"devs/UserManager.sol\":1349:1362   */\n      dup1\n        /* \"devs/UserManager.sol\":1341:1346   */\n      0x00\n      dup1\n        /* \"devs/UserManager.sol\":1341:1362   */\n      0x0100\n      exp\n      dup2\n      sload\n      dup2\n      0xffffffffffffffffffffffffffffffffffffffff\n      mul\n      not\n      and\n      swap1\n      dup4\n      0xffffffffffffffffffffffffffffffffffffffff\n      and\n      mul\n      or\n      swap1\n      sstore\n      pop\n        /* \"devs/UserManager.sol\":1390:1400   */\n      caller\n        /* \"devs/UserManager.sol\":1372:1387   */\n      0x01\n      0x00\n        /* \"devs/UserManager.sol\":1372:1400   */\n      0x0100\n      exp\n      dup2\n      sload\n      dup2\n      0xffffffffffffffffffffffffffffffffffffffff\n      mul\n      not\n      and\n      swap1\n      dup4\n      0xffffffffffffffffffffffffffffffffffffffff\n      and\n      mul\n      or\n      swap1\n      sstore\n      pop\n        /* \"devs/UserManager.sol\":1296:1407   */\n      pop\n        /* \"devs/UserManager.sol\":788:3352   */\n      jump(tag_6)\n        /* \"#utility.yul\":88:205   */\n    tag_8:\n        /* \"#utility.yul\":197:198   */\n      0x00\n        /* \"#utility.yul\":194:195   */\n      dup1\n        /* \"#utility.yul\":187:199   */\n      revert\n        /* \"#utility.yul\":334:460   */\n    tag_10:\n        /* \"#utility.yul\":371:378   */\n      0x00\n        /* \"#utility.yul\":411:453   */\n      0xffffffffffffffffffffffffffffffffffffffff\n        /* \"#utility.yul\":404:409   */\n      dup3\n        /* \"#utility.yul\":400:454   */\n      and\n        /* \"#utility.yul\":389:454   */\n      swap1\n      pop\n        /* \"#utility.yul\":334:460   */\n      swap2\n      swap1\n      pop\n      jump\t// out\n        /* \"#utility.yul\":466:562   */\n    tag_11:\n        /* \"#utility.yul\":503:510   */\n      0x00\n        /* \"#utility.yul\":532:556   */\n      tag_20\n        /* \"#utility.yul\":550:555   */\n      dup3\n        /* \"#utility.yul\":532:556   */\n      tag_10\n      jump\t// in\n    tag_20:\n        /* \"#utility.yul\":521:556   */\n      swap1\n      pop\n        /* \"#utility.yul\":466:562   */\n      swap2\n      swap1\n      pop\n      jump\t// out\n        /* \"#utility.yul\":568:690   */\n    tag_12:\n        /* \"#utility.yul\":641:665   */\n      tag_22\n        /* \"#utility.yul\":659:664   */\n      dup2\n        /* \"#utility.yul\":641:665   */\n      tag_11\n      jump\t// in\n    tag_22:\n        /* \"#utility.yul\":634:639   */\n      dup2\n        /* \"#utility.yul\":631:666   */\n      eq\n        /* \"#utility.yul\":621:684   */\n      tag_23\n      jumpi\n        /* \"#utility.yul\":680:681   */\n      0x00\n        /* \"#utility.yul\":677:678   */\n      dup1\n        /* \"#utility.yul\":670:682   */\n      revert\n        /* \"#utility.yul\":621:684   */\n    tag_23:\n        /* \"#utility.yul\":568:690   */\n      pop\n      jump\t// out\n        /* \"#utility.yul\":696:839   */\n    tag_13:\n        /* \"#utility.yul\":753:758   */\n      0x00\n        /* \"#utility.yul\":784:790   */\n      dup2\n        /* \"#utility.yul\":778:791   */\n      mload\n        /* \"#utility.yul\":769:791   */\n      swap1\n      pop\n        /* \"#utility.yul\":800:833   */\n      tag_25\n        /* \"#utility.yul\":827:832   */\n      dup2\n        /* \"#utility.yul\":800:833   */\n      tag_12\n      jump\t// in\n    tag_25:\n        /* \"#utility.yul\":696:839   */\n      swap3\n      swap2\n      pop\n      pop\n      jump\t// out\n        /* \"#utility.yul\":845:1196   */\n    tag_3:\n        /* \"#utility.yul\":915:921   */\n      0x00\n        /* \"#utility.yul\":964:966   */\n      0x20\n        /* \"#utility.yul\":952:961   */\n      dup3\n        /* \"#utility.yul\":943:950   */\n      dup5\n        /* \"#utility.yul\":939:962   */\n      sub\n        /* \"#utility.yul\":935:967   */\n      slt\n        /* \"#utility.yul\":932:1051   */\n      iszero\n      tag_27\n      jumpi\n        /* \"#utility.yul\":970:1049   */\n      tag_28\n      tag_8\n      jump\t// in\n    tag_28:\n        /* \"#utility.yul\":932:1051   */\n    tag_27:\n        /* \"#utility.yul\":1090:1091   */\n      0x00\n        /* \"#utility.yul\":1115:1179   */\n      tag_29\n        /* \"#utility.yul\":1171:1178   */\n      dup5\n        /* \"#utility.yul\":1162:1168   */\n      dup3\n        /* \"#utility.yul\":1151:1160   */\n      dup6\n        /* \"#utility.yul\":1147:1169   */\n      add\n        /* \"#utility.yul\":1115:1179   */\n      tag_13\n      jump\t// in\n    tag_29:\n        /* \"#utility.yul\":1105:1179   */\n      swap2\n      pop\n        /* \"#utility.yul\":1061:1189   */\n      pop\n        /* \"#utility.yul\":845:1196   */\n      swap3\n      swap2\n      pop\n      pop\n      jump\t// out\n        /* \"devs/UserManager.sol\":788:3352   */\n    tag_6:\n      dataSize(sub_0)\n      dup1\n      dataOffset(sub_0)\n      0x00\n      codecopy\n      0x00\n      return\n    stop\n\n    sub_0: assembly {\n            /* \"devs/UserManager.sol\":788:3352   */\n          mstore(0x40, 0x80)\n          callvalue\n          dup1\n          iszero\n          tag_1\n          jumpi\n          0x00\n          dup1\n          revert\n        tag_1:\n          pop\n          jumpi(tag_2, lt(calldatasize, 0x04))\n          shr(0xe0, calldataload(0x00))\n          dup1\n          0x7c4dd96d\n          gt\n          tag_18\n          jumpi\n          dup1\n          0xe3e1f001\n          gt\n          tag_19\n          jumpi\n          dup1\n          0xe3e1f001\n          eq\n          tag_14\n          jumpi\n          dup1\n          0xe597ef12\n          eq\n          tag_15\n          jumpi\n          dup1\n          0xecded204\n          eq\n          tag_16\n          jumpi\n          dup1\n          0xf3c95c60\n          eq\n          tag_17\n          jumpi\n          jump(tag_2)\n        tag_19:\n          dup1\n          0x7c4dd96d\n          eq\n          tag_10\n          jumpi\n          dup1\n          0x8da5cb5b\n          eq\n          tag_11\n          jumpi\n          dup1\n          0xa5a9c518\n          eq\n          tag_12\n          jumpi\n          dup1\n          0xa87430ba\n          eq\n          tag_13\n          jumpi\n          jump(tag_2)\n        tag_18:\n          dup1\n          0x4172fb89\n          gt\n          tag_20\n          jumpi\n          dup1\n          0x4172fb89\n          eq\n          tag_6\n          jumpi\n          dup1\n          0x4420e486\n          eq\n          tag_7\n          jumpi\n          dup1\n          0x4a09db4f\n          eq\n          tag_8\n          jumpi\n          dup1\n          0x6350280e\n          eq\n          tag_9\n          jumpi\n          jump(tag_2)\n        tag_20:\n          dup1\n          0x19aa98a3\n          eq\n          tag_3\n          jumpi\n          dup1\n          0x371e91ca\n          eq\n          tag_4\n          jumpi\n          dup1\n          0x3cbdec03\n          eq\n          tag_5\n          jumpi\n        tag_2:\n          0x00\n          dup1\n          revert\n            /* \"devs/UserManager.sol\":3028:3192   */\n        tag_3:\n          tag_21\n          0x04\n          dup1\n          calldatasize\n          sub\n          dup2\n          add\n          swap1\n          tag_22\n          swap2\n          swap1\n          tag_23\n          jump\t// in\n        tag_22:\n          tag_24\n          jump\t// in\n        tag_21:\n          mload(0x40)\n          tag_25\n          swap2\n          swap1\n          tag_26\n          jump\t// in\n        tag_25:\n          mload(0x40)\n          dup1\n          swap2\n          sub\n          swap1\n          return\n            /* \"devs/UserManager.sol\":3198:3350   */\n        tag_4:\n          tag_27\n          0x04\n          dup1\n          calldatasize\n          sub\n          dup2\n          add\n          swap1\n          tag_28\n          swap2\n          swap1\n          tag_29\n          jump\t// in\n        tag_28:\n          tag_30\n          jump\t// in\n        tag_27:\n          mload(0x40)\n          tag_31\n          swap2\n          swap1\n          tag_32\n          jump\t// in\n        tag_31:\n          mload(0x40)\n          dup1\n          swap2\n          sub\n          swap1\n          return\n            /* \"devs/UserManager.sol\":1066:1131   */\n        tag_5:\n          tag_33\n          0x04\n          dup1\n          calldatasize\n          sub\n          dup2\n          add\n          swap1\n          tag_34\n          swap2\n          swap1\n          tag_29\n          jump\t// in\n        tag_34:\n          tag_35\n          jump\t// in\n        tag_33:\n          mload(0x40)\n          tag_36\n          swap2\n          swap1\n          tag_32\n          jump\t// in\n        tag_36:\n          mload(0x40)\n          dup1\n          swap2\n          sub\n          swap1\n          return\n            /* \"devs/UserManager.sol\":2906:3022   */\n        tag_6:\n          tag_37\n          0x04\n          dup1\n          calldatasize\n          sub\n          dup2\n          add\n          swap1\n          tag_38\n          swap2\n          swap1\n          tag_23\n          jump\t// in\n        tag_38:\n          tag_39\n          jump\t// in\n        tag_37:\n          mload(0x40)\n          tag_40\n          swap2\n          swap1\n          tag_32\n          jump\t// in\n        tag_40:\n          mload(0x40)\n          dup1\n          swap2\n          sub\n          swap1\n          return\n            /* \"devs/UserManager.sol\":1413:1723   */\n        tag_7:\n          tag_41\n          0x04\n          dup1\n          calldatasize\n          sub\n          dup2\n          add\n          swap1\n          tag_42\n          swap2\n          swap1\n          tag_23\n          jump\t// in\n        tag_42:\n          tag_43\n          jump\t// in\n        tag_41:\n          stop\n            /* \"devs/UserManager.sol\":2198:2437   */\n        tag_8:\n          tag_44\n          0x04\n          dup1\n          calldatasize\n          sub\n          dup2\n          add\n          swap1\n          tag_45\n          swap2\n          swap1\n          tag_29\n          jump\t// in\n        tag_45:\n          tag_46\n          jump\t// in\n        tag_44:\n          stop\n            /* \"devs/UserManager.sol\":1138:1158   */\n        tag_9:\n          tag_47\n          tag_48\n          jump\t// in\n        tag_47:\n          mload(0x40)\n          tag_49\n          swap2\n          swap1\n          tag_26\n          jump\t// in\n        tag_49:\n          mload(0x40)\n          dup1\n          swap2\n          sub\n          swap1\n          return\n            /* \"devs/UserManager.sol\":1729:1837   */\n        tag_10:\n          tag_50\n          0x04\n          dup1\n          calldatasize\n          sub\n          dup2\n          add\n          swap1\n          tag_51\n          swap2\n          swap1\n          tag_23\n          jump\t// in\n        tag_51:\n          tag_52\n          jump\t// in\n        tag_50:\n          stop\n            /* \"devs/UserManager.sol\":838:858   */\n        tag_11:\n          tag_53\n          tag_54\n          jump\t// in\n        tag_53:\n          mload(0x40)\n          tag_55\n          swap2\n          swap1\n          tag_56\n          jump\t// in\n        tag_55:\n          mload(0x40)\n          dup1\n          swap2\n          sub\n          swap1\n          return\n            /* \"devs/UserManager.sol\":1925:2192   */\n        tag_12:\n          tag_57\n          0x04\n          dup1\n          calldatasize\n          sub\n          dup2\n          add\n          swap1\n          tag_58\n          swap2\n          swap1\n          tag_29\n          jump\t// in\n        tag_58:\n          tag_59\n          jump\t// in\n        tag_57:\n          stop\n            /* \"devs/UserManager.sol\":927:964   */\n        tag_13:\n          tag_60\n          0x04\n          dup1\n          calldatasize\n          sub\n          dup2\n          add\n          swap1\n          tag_61\n          swap2\n          swap1\n          tag_23\n          jump\t// in\n        tag_61:\n          tag_62\n          jump\t// in\n        tag_60:\n          mload(0x40)\n          tag_63\n          swap6\n          swap5\n          swap4\n          swap3\n          swap2\n          swap1\n          tag_64\n          jump\t// in\n        tag_63:\n          mload(0x40)\n          dup1\n          swap2\n          sub\n          swap1\n          return\n            /* \"devs/UserManager.sol\":902:921   */\n        tag_14:\n          tag_65\n          tag_66\n          jump\t// in\n        tag_65:\n          mload(0x40)\n          tag_67\n          swap2\n          swap1\n          tag_26\n          jump\t// in\n        tag_67:\n          mload(0x40)\n          dup1\n          swap2\n          sub\n          swap1\n          return\n            /* \"devs/UserManager.sol\":2443:2746   */\n        tag_15:\n          tag_68\n          0x04\n          dup1\n          calldatasize\n          sub\n          dup2\n          add\n          swap1\n          tag_69\n          swap2\n          swap1\n          tag_29\n          jump\t// in\n        tag_69:\n          tag_70\n          jump\t// in\n        tag_68:\n          stop\n            /* \"devs/UserManager.sol\":2778:2900   */\n        tag_16:\n          tag_71\n          0x04\n          dup1\n          calldatasize\n          sub\n          dup2\n          add\n          swap1\n          tag_72\n          swap2\n          swap1\n          tag_23\n          jump\t// in\n        tag_72:\n          tag_73\n          jump\t// in\n        tag_71:\n          mload(0x40)\n          tag_74\n          swap2\n          swap1\n          tag_32\n          jump\t// in\n        tag_74:\n          mload(0x40)\n          dup1\n          swap2\n          sub\n          swap1\n          return\n            /* \"devs/UserManager.sol\":970:1013   */\n        tag_17:\n          tag_75\n          0x04\n          dup1\n          calldatasize\n          sub\n          dup2\n          add\n          swap1\n          tag_76\n          swap2\n          swap1\n          tag_23\n          jump\t// in\n        tag_76:\n          tag_77\n          jump\t// in\n        tag_75:\n          mload(0x40)\n          tag_78\n          swap2\n          swap1\n          tag_32\n          jump\t// in\n        tag_78:\n          mload(0x40)\n          dup1\n          swap2\n          sub\n          swap1\n          return\n            /* \"devs/UserManager.sol\":3028:3192   */\n        tag_24:\n            /* \"devs/UserManager.sol\":3097:3101   */\n          0x00\n            /* \"devs/UserManager.sol\":3112:3129   */\n          dup1\n            /* \"devs/UserManager.sol\":3132:3137   */\n          0x03\n            /* \"devs/UserManager.sol\":3132:3151   */\n          0x00\n            /* \"devs/UserManager.sol\":3138:3150   */\n          dup5\n            /* \"devs/UserManager.sol\":3132:3151   */\n          0xffffffffffffffffffffffffffffffffffffffff\n          and\n          0xffffffffffffffffffffffffffffffffffffffff\n          and\n          dup2\n          mstore\n          0x20\n          add\n          swap1\n          dup2\n          mstore\n          0x20\n          add\n          0x00\n          keccak256\n            /* \"devs/UserManager.sol\":3112:3151   */\n          swap1\n          pop\n            /* \"devs/UserManager.sol\":3168:3172   */\n          dup1\n            /* \"devs/UserManager.sol\":3168:3185   */\n          0x02\n          add\n          sload\n            /* \"devs/UserManager.sol\":3161:3185   */\n          swap2\n          pop\n          pop\n            /* \"devs/UserManager.sol\":3028:3192   */\n          swap2\n          swap1\n          pop\n          jump\t// out\n            /* \"devs/UserManager.sol\":3198:3350   */\n        tag_30:\n            /* \"devs/UserManager.sol\":3281:3285   */\n          0x00\n            /* \"devs/UserManager.sol\":3303:3319   */\n          0x05\n            /* \"devs/UserManager.sol\":3303:3333   */\n          0x00\n            /* \"devs/UserManager.sol\":3320:3332   */\n          dup5\n            /* \"devs/UserManager.sol\":3303:3333   */\n          0xffffffffffffffffffffffffffffffffffffffff\n          and\n          0xffffffffffffffffffffffffffffffffffffffff\n          and\n          dup2\n          mstore\n          0x20\n          add\n          swap1\n          dup2\n          mstore\n          0x20\n          add\n          0x00\n          keccak256\n            /* \"devs/UserManager.sol\":3303:3343   */\n          0x00\n            /* \"devs/UserManager.sol\":3334:3342   */\n          dup4\n            /* \"devs/UserManager.sol\":3303:3343   */\n          dup2\n          mstore\n          0x20\n          add\n          swap1\n          dup2\n          mstore\n          0x20\n          add\n          0x00\n          keccak256\n          0x00\n          swap1\n          sload\n          swap1\n          0x0100\n          exp\n          swap1\n          div\n          0xff\n          and\n            /* \"devs/UserManager.sol\":3296:3343   */\n          swap1\n          pop\n            /* \"devs/UserManager.sol\":3198:3350   */\n          swap3\n          swap2\n          pop\n          pop\n          jump\t// out\n            /* \"devs/UserManager.sol\":1066:1131   */\n        tag_35:\n          mstore(0x20, 0x05)\n          dup2\n          0x00\n          mstore\n          mstore(0x20, keccak256(0x00, 0x40))\n          dup1\n          0x00\n          mstore\n          keccak256(0x00, 0x40)\n          0x00\n          swap2\n          pop\n          swap2\n          pop\n          swap1\n          sload\n          swap1\n          0x0100\n          exp\n          swap1\n          div\n          0xff\n          and\n          dup2\n          jump\t// out\n            /* \"devs/UserManager.sol\":2906:3022   */\n        tag_39:\n            /* \"devs/UserManager.sol\":2971:2975   */\n          0x00\n            /* \"devs/UserManager.sol\":2993:3000   */\n          0x07\n            /* \"devs/UserManager.sol\":2993:3015   */\n          0x00\n            /* \"devs/UserManager.sol\":3001:3014   */\n          dup4\n            /* \"devs/UserManager.sol\":2993:3015   */\n          0xffffffffffffffffffffffffffffffffffffffff\n          and\n          0xffffffffffffffffffffffffffffffffffffffff\n          and\n          dup2\n          mstore\n          0x20\n          add\n          swap1\n          dup2\n          mstore\n          0x20\n          add\n          0x00\n          keccak256\n          0x00\n          swap1\n          sload\n          swap1\n          0x0100\n          exp\n          swap1\n          div\n          0xff\n          and\n            /* \"devs/UserManager.sol\":2986:3015   */\n          swap1\n          pop\n            /* \"devs/UserManager.sol\":2906:3022   */\n          swap2\n          swap1\n          pop\n          jump\t// out\n            /* \"devs/UserManager.sol\":1413:1723   */\n        tag_43:\n            /* \"devs/UserManager.sol\":1261:1271   */\n          caller\n            /* \"devs/UserManager.sol\":1242:1271   */\n          0xffffffffffffffffffffffffffffffffffffffff\n          and\n            /* \"devs/UserManager.sol\":1242:1257   */\n          0x01\n          0x00\n          swap1\n          sload\n          swap1\n          0x0100\n          exp\n          swap1\n          div\n          0xffffffffffffffffffffffffffffffffffffffff\n          and\n            /* \"devs/UserManager.sol\":1242:1271   */\n          0xffffffffffffffffffffffffffffffffffffffff\n          and\n          eq\n            /* \"devs/UserManager.sol\":1234:1272   */\n          tag_83\n          jumpi\n          0x00\n          dup1\n          revert\n        tag_83:\n            /* \"devs/UserManager.sol\":1485:1496   */\n          0x04\n            /* \"devs/UserManager.sol\":1485:1505   */\n          0x00\n            /* \"devs/UserManager.sol\":1497:1504   */\n          dup3\n            /* \"devs/UserManager.sol\":1485:1505   */\n          0xffffffffffffffffffffffffffffffffffffffff\n          and\n          0xffffffffffffffffffffffffffffffffffffffff\n          and\n          dup2\n          mstore\n          0x20\n          add\n          swap1\n          dup2\n          mstore\n          0x20\n          add\n          0x00\n          keccak256\n          0x00\n          swap1\n          sload\n          swap1\n          0x0100\n          exp\n          swap1\n          div\n          0xff\n          and\n            /* \"devs/UserManager.sol\":1484:1505   */\n          iszero\n            /* \"devs/UserManager.sol\":1476:1506   */\n          tag_85\n          jumpi\n          0x00\n          dup1\n          revert\n        tag_85:\n            /* \"devs/UserManager.sol\":1539:1543   */\n          0x01\n            /* \"devs/UserManager.sol\":1516:1527   */\n          0x04\n            /* \"devs/UserManager.sol\":1516:1536   */\n          0x00\n            /* \"devs/UserManager.sol\":1528:1535   */\n          dup4\n            /* \"devs/UserManager.sol\":1516:1536   */\n          0xffffffffffffffffffffffffffffffffffffffff\n          and\n          0xffffffffffffffffffffffffffffffffffffffff\n          and\n          dup2\n          mstore\n          0x20\n          add\n          swap1\n          dup2\n          mstore\n          0x20\n          add\n          0x00\n          keccak256\n          0x00\n            /* \"devs/UserManager.sol\":1516:1543   */\n          0x0100\n          exp\n          dup2\n          sload\n          dup2\n          0xff\n          mul\n          not\n          and\n          swap1\n          dup4\n          iszero\n          iszero\n          mul\n          or\n          swap1\n          sstore\n          pop\n            /* \"devs/UserManager.sol\":1553:1570   */\n          0x00\n            /* \"devs/UserManager.sol\":1573:1578   */\n          0x03\n            /* \"devs/UserManager.sol\":1573:1587   */\n          0x00\n            /* \"devs/UserManager.sol\":1579:1586   */\n          dup4\n            /* \"devs/UserManager.sol\":1573:1587   */\n          0xffffffffffffffffffffffffffffffffffffffff\n          and\n          0xffffffffffffffffffffffffffffffffffffffff\n          and\n          dup2\n          mstore\n          0x20\n          add\n          swap1\n          dup2\n          mstore\n          0x20\n          add\n          0x00\n          keccak256\n            /* \"devs/UserManager.sol\":1553:1587   */\n          swap1\n          pop\n            /* \"devs/UserManager.sol\":1616:1623   */\n          dup2\n            /* \"devs/UserManager.sol\":1597:1601   */\n          dup2\n            /* \"devs/UserManager.sol\":1597:1613   */\n          0x00\n          add\n          0x00\n            /* \"devs/UserManager.sol\":1597:1623   */\n          0x0100\n          exp\n          dup2\n          sload\n          dup2\n          0xffffffffffffffffffffffffffffffffffffffff\n          mul\n          not\n          and\n          swap1\n          dup4\n          0xffffffffffffffffffffffffffffffffffffffff\n          and\n          mul\n          or\n          swap1\n          sstore\n          pop\n            /* \"devs/UserManager.sol\":1653:1654   */\n          0x00\n            /* \"devs/UserManager.sol\":1633:1637   */\n          dup2\n            /* \"devs/UserManager.sol\":1633:1650   */\n          0x02\n          add\n            /* \"devs/UserManager.sol\":1633:1654   */\n          dup2\n          swap1\n          sstore\n          pop\n            /* \"devs/UserManager.sol\":1684:1685   */\n          0x00\n            /* \"devs/UserManager.sol\":1664:1668   */\n          dup2\n            /* \"devs/UserManager.sol\":1664:1680   */\n          0x03\n          add\n            /* \"devs/UserManager.sol\":1664:1685   */\n          dup2\n          swap1\n          sstore\n          pop\n            /* \"devs/UserManager.sol\":1715:1716   */\n          0x00\n            /* \"devs/UserManager.sol\":1695:1699   */\n          dup2\n            /* \"devs/UserManager.sol\":1695:1712   */\n          0x05\n          add\n            /* \"devs/UserManager.sol\":1695:1716   */\n          dup2\n          swap1\n          sstore\n          pop\n            /* \"devs/UserManager.sol\":1466:1723   */\n          pop\n            /* \"devs/UserManager.sol\":1413:1723   */\n          pop\n          jump\t// out\n            /* \"devs/UserManager.sol\":2198:2437   */\n        tag_46:\n            /* \"devs/UserManager.sol\":1261:1271   */\n          caller\n            /* \"devs/UserManager.sol\":1242:1271   */\n          0xffffffffffffffffffffffffffffffffffffffff\n          and\n            /* \"devs/UserManager.sol\":1242:1257   */\n          0x01\n          0x00\n          swap1\n          sload\n          swap1\n          0x0100\n          exp\n          swap1\n          div\n          0xffffffffffffffffffffffffffffffffffffffff\n          and\n            /* \"devs/UserManager.sol\":1242:1271   */\n          0xffffffffffffffffffffffffffffffffffffffff\n          and\n          eq\n            /* \"devs/UserManager.sol\":1234:1272   */\n          tag_87\n          jumpi\n          0x00\n          dup1\n          revert\n        tag_87:\n            /* \"devs/UserManager.sol\":2283:2294   */\n          0x04\n            /* \"devs/UserManager.sol\":2283:2303   */\n          0x00\n            /* \"devs/UserManager.sol\":2295:2302   */\n          dup4\n            /* \"devs/UserManager.sol\":2283:2303   */\n          0xffffffffffffffffffffffffffffffffffffffff\n          and\n          0xffffffffffffffffffffffffffffffffffffffff\n          and\n          dup2\n          mstore\n          0x20\n          add\n          swap1\n          dup2\n          mstore\n          0x20\n          add\n          0x00\n          keccak256\n          0x00\n          swap1\n          sload\n          swap1\n          0x0100\n          exp\n          swap1\n          div\n          0xff\n          and\n            /* \"devs/UserManager.sol\":2275:2304   */\n          tag_89\n          jumpi\n          0x00\n          dup1\n          revert\n        tag_89:\n            /* \"devs/UserManager.sol\":2314:2331   */\n          0x00\n            /* \"devs/UserManager.sol\":2334:2339   */\n          0x03\n            /* \"devs/UserManager.sol\":2334:2348   */\n          0x00\n            /* \"devs/UserManager.sol\":2340:2347   */\n          dup5\n            /* \"devs/UserManager.sol\":2334:2348   */\n          0xffffffffffffffffffffffffffffffffffffffff\n          and\n          0xffffffffffffffffffffffffffffffffffffffff\n          and\n          dup2\n          mstore\n          0x20\n          add\n          swap1\n          dup2\n          mstore\n          0x20\n          add\n          0x00\n          keccak256\n            /* \"devs/UserManager.sol\":2314:2348   */\n          swap1\n          pop\n            /* \"devs/UserManager.sol\":2396:2401   */\n          0x00\n            /* \"devs/UserManager.sol\":2358:2374   */\n          0x05\n            /* \"devs/UserManager.sol\":2358:2383   */\n          0x00\n            /* \"devs/UserManager.sol\":2375:2382   */\n          dup6\n            /* \"devs/UserManager.sol\":2358:2383   */\n          0xffffffffffffffffffffffffffffffffffffffff\n          and\n          0xffffffffffffffffffffffffffffffffffffffff\n          and\n          dup2\n          mstore\n          0x20\n          add\n          swap1\n          dup2\n          mstore\n          0x20\n          add\n          0x00\n          keccak256\n            /* \"devs/UserManager.sol\":2358:2393   */\n          0x00\n            /* \"devs/UserManager.sol\":2384:2392   */\n          dup5\n            /* \"devs/UserManager.sol\":2358:2393   */\n          dup2\n          mstore\n          0x20\n          add\n          swap1\n          dup2\n          mstore\n          0x20\n          add\n          0x00\n          keccak256\n          0x00\n            /* \"devs/UserManager.sol\":2358:2401   */\n          0x0100\n          exp\n          dup2\n          sload\n          dup2\n          0xff\n          mul\n          not\n          and\n          swap1\n          dup4\n          iszero\n          iszero\n          mul\n          or\n          swap1\n          sstore\n          pop\n            /* \"devs/UserManager.sol\":2411:2415   */\n          dup1\n            /* \"devs/UserManager.sol\":2411:2428   */\n          0x02\n          add\n          0x00\n            /* \"devs/UserManager.sol\":2411:2430   */\n          dup2\n          sload\n          dup1\n          swap3\n          swap2\n          swap1\n          tag_90\n          swap1\n          tag_91\n          jump\t// in\n        tag_90:\n          swap2\n          swap1\n          pop\n          sstore\n          pop\n            /* \"devs/UserManager.sol\":2265:2437   */\n          pop\n            /* \"devs/UserManager.sol\":2198:2437   */\n          pop\n          pop\n          jump\t// out\n            /* \"devs/UserManager.sol\":1138:1158   */\n        tag_48:\n          sload(0x06)\n          dup2\n          jump\t// out\n            /* \"devs/UserManager.sol\":1729:1837   */\n        tag_52:\n            /* \"devs/UserManager.sol\":1261:1271   */\n          caller\n            /* \"devs/UserManager.sol\":1242:1271   */\n          0xffffffffffffffffffffffffffffffffffffffff\n          and\n            /* \"devs/UserManager.sol\":1242:1257   */\n          0x01\n          0x00\n          swap1\n          sload\n          swap1\n          0x0100\n          exp\n          swap1\n          div\n          0xffffffffffffffffffffffffffffffffffffffff\n          and\n            /* \"devs/UserManager.sol\":1242:1271   */\n          0xffffffffffffffffffffffffffffffffffffffff\n          and\n          eq\n            /* \"devs/UserManager.sol\":1234:1272   */\n          tag_93\n          jumpi\n          0x00\n          dup1\n          revert\n        tag_93:\n            /* \"devs/UserManager.sol\":1826:1830   */\n          0x01\n            /* \"devs/UserManager.sol\":1801:1808   */\n          0x07\n            /* \"devs/UserManager.sol\":1801:1823   */\n          0x00\n            /* \"devs/UserManager.sol\":1809:1822   */\n          dup4\n            /* \"devs/UserManager.sol\":1801:1823   */\n          0xffffffffffffffffffffffffffffffffffffffff\n          and\n          0xffffffffffffffffffffffffffffffffffffffff\n          and\n          dup2\n          mstore\n          0x20\n          add\n          swap1\n          dup2\n          mstore\n          0x20\n          add\n          0x00\n          keccak256\n          0x00\n            /* \"devs/UserManager.sol\":1801:1830   */\n          0x0100\n          exp\n          dup2\n          sload\n          dup2\n          0xff\n          mul\n          not\n          and\n          swap1\n          dup4\n          iszero\n          iszero\n          mul\n          or\n          swap1\n          sstore\n          pop\n            /* \"devs/UserManager.sol\":1729:1837   */\n          pop\n          jump\t// out\n            /* \"devs/UserManager.sol\":838:858   */\n        tag_54:\n          0x00\n          dup1\n          sload\n          swap1\n          0x0100\n          exp\n          swap1\n          div\n          0xffffffffffffffffffffffffffffffffffffffff\n          and\n          dup2\n          jump\t// out\n            /* \"devs/UserManager.sol\":1925:2192   */\n        tag_59:\n            /* \"devs/UserManager.sol\":1261:1271   */\n          caller\n            /* \"devs/UserManager.sol\":1242:1271   */\n          0xffffffffffffffffffffffffffffffffffffffff\n          and\n            /* \"devs/UserManager.sol\":1242:1257   */\n          0x01\n          0x00\n          swap1\n          sload\n          swap1\n          0x0100\n          exp\n          swap1\n          div\n          0xffffffffffffffffffffffffffffffffffffffff\n          and\n            /* \"devs/UserManager.sol\":1242:1271   */\n          0xffffffffffffffffffffffffffffffffffffffff\n          and\n          eq\n            /* \"devs/UserManager.sol\":1234:1272   */\n          tag_96\n          jumpi\n          0x00\n          dup1\n          revert\n        tag_96:\n            /* \"devs/UserManager.sol\":2010:2021   */\n          0x04\n            /* \"devs/UserManager.sol\":2010:2030   */\n          0x00\n            /* \"devs/UserManager.sol\":2022:2029   */\n          dup4\n            /* \"devs/UserManager.sol\":2010:2030   */\n          0xffffffffffffffffffffffffffffffffffffffff\n          and\n          0xffffffffffffffffffffffffffffffffffffffff\n          and\n          dup2\n          mstore\n          0x20\n          add\n          swap1\n          dup2\n          mstore\n          0x20\n          add\n          0x00\n          keccak256\n          0x00\n          swap1\n          sload\n          swap1\n          0x0100\n          exp\n          swap1\n          div\n          0xff\n          and\n            /* \"devs/UserManager.sol\":2002:2031   */\n          tag_98\n          jumpi\n          0x00\n          dup1\n          revert\n        tag_98:\n            /* \"devs/UserManager.sol\":2042:2059   */\n          0x00\n            /* \"devs/UserManager.sol\":2062:2067   */\n          0x03\n            /* \"devs/UserManager.sol\":2062:2076   */\n          0x00\n            /* \"devs/UserManager.sol\":2068:2075   */\n          dup5\n            /* \"devs/UserManager.sol\":2062:2076   */\n          0xffffffffffffffffffffffffffffffffffffffff\n          and\n          0xffffffffffffffffffffffffffffffffffffffff\n          and\n          dup2\n          mstore\n          0x20\n          add\n          swap1\n          dup2\n          mstore\n          0x20\n          add\n          0x00\n          keccak256\n            /* \"devs/UserManager.sol\":2042:2076   */\n          swap1\n          pop\n            /* \"devs/UserManager.sol\":2124:2128   */\n          0x01\n            /* \"devs/UserManager.sol\":2086:2102   */\n          0x05\n            /* \"devs/UserManager.sol\":2086:2111   */\n          0x00\n            /* \"devs/UserManager.sol\":2103:2110   */\n          dup6\n            /* \"devs/UserManager.sol\":2086:2111   */\n          0xffffffffffffffffffffffffffffffffffffffff\n          and\n          0xffffffffffffffffffffffffffffffffffffffff\n          and\n          dup2\n          mstore\n          0x20\n          add\n          swap1\n          dup2\n          mstore\n          0x20\n          add\n          0x00\n          keccak256\n            /* \"devs/UserManager.sol\":2086:2121   */\n          0x00\n            /* \"devs/UserManager.sol\":2112:2120   */\n          dup5\n            /* \"devs/UserManager.sol\":2086:2121   */\n          dup2\n          mstore\n          0x20\n          add\n          swap1\n          dup2\n          mstore\n          0x20\n          add\n          0x00\n          keccak256\n          0x00\n            /* \"devs/UserManager.sol\":2086:2128   */\n          0x0100\n          exp\n          dup2\n          sload\n          dup2\n          0xff\n          mul\n          not\n          and\n          swap1\n          dup4\n          iszero\n          iszero\n          mul\n          or\n          swap1\n          sstore\n          pop\n            /* \"devs/UserManager.sol\":2138:2142   */\n          dup1\n            /* \"devs/UserManager.sol\":2138:2155   */\n          0x02\n          add\n          0x00\n            /* \"devs/UserManager.sol\":2138:2157   */\n          dup2\n          sload\n          dup1\n          swap3\n          swap2\n          swap1\n          tag_99\n          swap1\n          tag_100\n          jump\t// in\n        tag_99:\n          swap2\n          swap1\n          pop\n          sstore\n          pop\n            /* \"devs/UserManager.sol\":2167:2171   */\n          dup1\n            /* \"devs/UserManager.sol\":2167:2183   */\n          0x03\n          add\n          0x00\n            /* \"devs/UserManager.sol\":2167:2185   */\n          dup2\n          sload\n          dup1\n          swap3\n          swap2\n          swap1\n          tag_101\n          swap1\n          tag_100\n          jump\t// in\n        tag_101:\n          swap2\n          swap1\n          pop\n          sstore\n          pop\n            /* \"devs/UserManager.sol\":1992:2192   */\n          pop\n            /* \"devs/UserManager.sol\":1925:2192   */\n          pop\n          pop\n          jump\t// out\n            /* \"devs/UserManager.sol\":927:964   */\n        tag_62:\n          mstore(0x20, 0x03)\n          dup1\n          0x00\n          mstore\n          keccak256(0x00, 0x40)\n          0x00\n          swap2\n          pop\n          swap1\n          pop\n          dup1\n          0x00\n          add\n          0x00\n          swap1\n          sload\n          swap1\n          0x0100\n          exp\n          swap1\n          div\n          0xffffffffffffffffffffffffffffffffffffffff\n          and\n          swap1\n          dup1\n          0x01\n          add\n          sload\n          swap1\n          dup1\n          0x02\n          add\n          sload\n          swap1\n          dup1\n          0x03\n          add\n          sload\n          swap1\n          dup1\n          0x05\n          add\n          sload\n          swap1\n          pop\n          dup6\n          jump\t// out\n            /* \"devs/UserManager.sol\":902:921   */\n        tag_66:\n          sload(0x02)\n          dup2\n          jump\t// out\n            /* \"devs/UserManager.sol\":2443:2746   */\n        tag_70:\n            /* \"devs/UserManager.sol\":1261:1271   */\n          caller\n            /* \"devs/UserManager.sol\":1242:1271   */\n          0xffffffffffffffffffffffffffffffffffffffff\n          and\n            /* \"devs/UserManager.sol\":1242:1257   */\n          0x01\n          0x00\n          swap1\n          sload\n          swap1\n          0x0100\n          exp\n          swap1\n          div\n          0xffffffffffffffffffffffffffffffffffffffff\n          and\n            /* \"devs/UserManager.sol\":1242:1271   */\n          0xffffffffffffffffffffffffffffffffffffffff\n          and\n          eq\n            /* \"devs/UserManager.sol\":1234:1272   */\n          tag_103\n          jumpi\n          0x00\n          dup1\n          revert\n        tag_103:\n            /* \"devs/UserManager.sol\":2529:2540   */\n          0x04\n            /* \"devs/UserManager.sol\":2529:2549   */\n          0x00\n            /* \"devs/UserManager.sol\":2541:2548   */\n          dup4\n            /* \"devs/UserManager.sol\":2529:2549   */\n          0xffffffffffffffffffffffffffffffffffffffff\n          and\n          0xffffffffffffffffffffffffffffffffffffffff\n          and\n          dup2\n          mstore\n          0x20\n          add\n          swap1\n          dup2\n          mstore\n          0x20\n          add\n          0x00\n          keccak256\n          0x00\n          swap1\n          sload\n          swap1\n          0x0100\n          exp\n          swap1\n          div\n          0xff\n          and\n            /* \"devs/UserManager.sol\":2521:2550   */\n          tag_105\n          jumpi\n          0x00\n          dup1\n          revert\n        tag_105:\n            /* \"devs/UserManager.sol\":2561:2578   */\n          0x00\n            /* \"devs/UserManager.sol\":2581:2586   */\n          0x03\n            /* \"devs/UserManager.sol\":2581:2595   */\n          0x00\n            /* \"devs/UserManager.sol\":2587:2594   */\n          dup5\n            /* \"devs/UserManager.sol\":2581:2595   */\n          0xffffffffffffffffffffffffffffffffffffffff\n          and\n          0xffffffffffffffffffffffffffffffffffffffff\n          and\n          dup2\n          mstore\n          0x20\n          add\n          swap1\n          dup2\n          mstore\n          0x20\n          add\n          0x00\n          keccak256\n            /* \"devs/UserManager.sol\":2561:2595   */\n          swap1\n          pop\n            /* \"devs/UserManager.sol\":2605:2609   */\n          dup1\n            /* \"devs/UserManager.sol\":2605:2626   */\n          0x06\n          add\n            /* \"devs/UserManager.sol\":2632:2640   */\n          dup3\n            /* \"devs/UserManager.sol\":2605:2641   */\n          swap1\n          dup1\n          0x01\n          dup2\n          sload\n          add\n          dup1\n          dup3\n          sstore\n          dup1\n          swap2\n          pop\n          pop\n          0x01\n          swap1\n          sub\n          swap1\n          0x00\n          mstore\n          keccak256(0x00, 0x20)\n          add\n          0x00\n          swap1\n          swap2\n          swap1\n          swap2\n          swap1\n          swap2\n          pop\n          sstore\n            /* \"devs/UserManager.sol\":2693:2697   */\n          dup1\n            /* \"devs/UserManager.sol\":2693:2710   */\n          0x05\n          add\n          sload\n            /* \"devs/UserManager.sol\":2651:2655   */\n          dup2\n            /* \"devs/UserManager.sol\":2651:2680   */\n          0x07\n          add\n            /* \"devs/UserManager.sol\":2651:2690   */\n          0x00\n            /* \"devs/UserManager.sol\":2681:2689   */\n          dup5\n            /* \"devs/UserManager.sol\":2651:2690   */\n          dup2\n          mstore\n          0x20\n          add\n          swap1\n          dup2\n          mstore\n          0x20\n          add\n          0x00\n          keccak256\n            /* \"devs/UserManager.sol\":2651:2710   */\n          dup2\n          swap1\n          sstore\n          pop\n            /* \"devs/UserManager.sol\":2720:2724   */\n          dup1\n            /* \"devs/UserManager.sol\":2720:2737   */\n          0x05\n          add\n          0x00\n            /* \"devs/UserManager.sol\":2720:2739   */\n          dup2\n          sload\n          dup1\n          swap3\n          swap2\n          swap1\n          tag_107\n          swap1\n          tag_100\n          jump\t// in\n        tag_107:\n          swap2\n          swap1\n          pop\n          sstore\n          pop\n            /* \"devs/UserManager.sol\":2511:2746   */\n          pop\n            /* \"devs/UserManager.sol\":2443:2746   */\n          pop\n          pop\n          jump\t// out\n            /* \"devs/UserManager.sol\":2778:2900   */\n        tag_73:\n            /* \"devs/UserManager.sol\":2846:2850   */\n          0x00\n            /* \"devs/UserManager.sol\":2868:2879   */\n          0x04\n            /* \"devs/UserManager.sol\":2868:2893   */\n          0x00\n            /* \"devs/UserManager.sol\":2880:2892   */\n          dup4\n            /* \"devs/UserManager.sol\":2868:2893   */\n          0xffffffffffffffffffffffffffffffffffffffff\n          and\n          0xffffffffffffffffffffffffffffffffffffffff\n          and\n          dup2\n          mstore\n          0x20\n          add\n          swap1\n          dup2\n          mstore\n          0x20\n          add\n          0x00\n          keccak256\n          0x00\n          swap1\n          sload\n          swap1\n          0x0100\n          exp\n          swap1\n          div\n          0xff\n          and\n            /* \"devs/UserManager.sol\":2861:2893   */\n          swap1\n          pop\n            /* \"devs/UserManager.sol\":2778:2900   */\n          swap2\n          swap1\n          pop\n          jump\t// out\n            /* \"devs/UserManager.sol\":970:1013   */\n        tag_77:\n          mstore(0x20, 0x04)\n          dup1\n          0x00\n          mstore\n          keccak256(0x00, 0x40)\n          0x00\n          swap2\n          pop\n          sload\n          swap1\n          0x0100\n          exp\n          swap1\n          div\n          0xff\n          and\n          dup2\n          jump\t// out\n            /* \"#utility.yul\":88:205   */\n        tag_110:\n            /* \"#utility.yul\":197:198   */\n          0x00\n            /* \"#utility.yul\":194:195   */\n          dup1\n            /* \"#utility.yul\":187:199   */\n          revert\n            /* \"#utility.yul\":334:460   */\n        tag_112:\n            /* \"#utility.yul\":371:378   */\n          0x00\n            /* \"#utility.yul\":411:453   */\n          0xffffffffffffffffffffffffffffffffffffffff\n            /* \"#utility.yul\":404:409   */\n          dup3\n            /* \"#utility.yul\":400:454   */\n          and\n            /* \"#utility.yul\":389:454   */\n          swap1\n          pop\n            /* \"#utility.yul\":334:460   */\n          swap2\n          swap1\n          pop\n          jump\t// out\n            /* \"#utility.yul\":466:562   */\n        tag_113:\n            /* \"#utility.yul\":503:510   */\n          0x00\n            /* \"#utility.yul\":532:556   */\n          tag_130\n            /* \"#utility.yul\":550:555   */\n          dup3\n            /* \"#utility.yul\":532:556   */\n          tag_112\n          jump\t// in\n        tag_130:\n            /* \"#utility.yul\":521:556   */\n          swap1\n          pop\n            /* \"#utility.yul\":466:562   */\n          swap2\n          swap1\n          pop\n          jump\t// out\n            /* \"#utility.yul\":568:690   */\n        tag_114:\n            /* \"#utility.yul\":641:665   */\n          tag_132\n            /* \"#utility.yul\":659:664   */\n          dup2\n            /* \"#utility.yul\":641:665   */\n          tag_113\n          jump\t// in\n        tag_132:\n            /* \"#utility.yul\":634:639   */\n          dup2\n            /* \"#utility.yul\":631:666   */\n          eq\n            /* \"#utility.yul\":621:684   */\n          tag_133\n          jumpi\n            /* \"#utility.yul\":680:681   */\n          0x00\n            /* \"#utility.yul\":677:678   */\n          dup1\n            /* \"#utility.yul\":670:682   */\n          revert\n            /* \"#utility.yul\":621:684   */\n        tag_133:\n            /* \"#utility.yul\":568:690   */\n          pop\n          jump\t// out\n            /* \"#utility.yul\":696:835   */\n        tag_115:\n            /* \"#utility.yul\":742:747   */\n          0x00\n            /* \"#utility.yul\":780:786   */\n          dup2\n            /* \"#utility.yul\":767:787   */\n          calldataload\n            /* \"#utility.yul\":758:787   */\n          swap1\n          pop\n            /* \"#utility.yul\":796:829   */\n          tag_135\n            /* \"#utility.yul\":823:828   */\n          dup2\n            /* \"#utility.yul\":796:829   */\n          tag_114\n          jump\t// in\n        tag_135:\n            /* \"#utility.yul\":696:835   */\n          swap3\n          swap2\n          pop\n          pop\n          jump\t// out\n            /* \"#utility.yul\":841:1170   */\n        tag_23:\n            /* \"#utility.yul\":900:906   */\n          0x00\n            /* \"#utility.yul\":949:951   */\n          0x20\n            /* \"#utility.yul\":937:946   */\n          dup3\n            /* \"#utility.yul\":928:935   */\n          dup5\n            /* \"#utility.yul\":924:947   */\n          sub\n            /* \"#utility.yul\":920:952   */\n          slt\n            /* \"#utility.yul\":917:1036   */\n          iszero\n          tag_137\n          jumpi\n            /* \"#utility.yul\":955:1034   */\n          tag_138\n          tag_110\n          jump\t// in\n        tag_138:\n            /* \"#utility.yul\":917:1036   */\n        tag_137:\n            /* \"#utility.yul\":1075:1076   */\n          0x00\n            /* \"#utility.yul\":1100:1153   */\n          tag_139\n            /* \"#utility.yul\":1145:1152   */\n          dup5\n            /* \"#utility.yul\":1136:1142   */\n          dup3\n            /* \"#utility.yul\":1125:1134   */\n          dup6\n            /* \"#utility.yul\":1121:1143   */\n          add\n            /* \"#utility.yul\":1100:1153   */\n          tag_115\n          jump\t// in\n        tag_139:\n            /* \"#utility.yul\":1090:1153   */\n          swap2\n          pop\n            /* \"#utility.yul\":1046:1163   */\n          pop\n            /* \"#utility.yul\":841:1170   */\n          swap3\n          swap2\n          pop\n          pop\n          jump\t// out\n            /* \"#utility.yul\":1176:1253   */\n        tag_116:\n            /* \"#utility.yul\":1213:1220   */\n          0x00\n            /* \"#utility.yul\":1242:1247   */\n          dup2\n            /* \"#utility.yul\":1231:1247   */\n          swap1\n          pop\n            /* \"#utility.yul\":1176:1253   */\n          swap2\n          swap1\n          pop\n          jump\t// out\n            /* \"#utility.yul\":1259:1377   */\n        tag_117:\n            /* \"#utility.yul\":1346:1370   */\n          tag_142\n            /* \"#utility.yul\":1364:1369   */\n          dup2\n            /* \"#utility.yul\":1346:1370   */\n          tag_116\n          jump\t// in\n        tag_142:\n            /* \"#utility.yul\":1341:1344   */\n          dup3\n            /* \"#utility.yul\":1334:1371   */\n          mstore\n            /* \"#utility.yul\":1259:1377   */\n          pop\n          pop\n          jump\t// out\n            /* \"#utility.yul\":1383:1605   */\n        tag_26:\n            /* \"#utility.yul\":1476:1480   */\n          0x00\n            /* \"#utility.yul\":1514:1516   */\n          0x20\n            /* \"#utility.yul\":1503:1512   */\n          dup3\n            /* \"#utility.yul\":1499:1517   */\n          add\n            /* \"#utility.yul\":1491:1517   */\n          swap1\n          pop\n            /* \"#utility.yul\":1527:1598   */\n          tag_144\n            /* \"#utility.yul\":1595:1596   */\n          0x00\n            /* \"#utility.yul\":1584:1593   */\n          dup4\n            /* \"#utility.yul\":1580:1597   */\n          add\n            /* \"#utility.yul\":1571:1577   */\n          dup5\n            /* \"#utility.yul\":1527:1598   */\n          tag_117\n          jump\t// in\n        tag_144:\n            /* \"#utility.yul\":1383:1605   */\n          swap3\n          swap2\n          pop\n          pop\n          jump\t// out\n            /* \"#utility.yul\":1611:1733   */\n        tag_118:\n            /* \"#utility.yul\":1684:1708   */\n          tag_146\n            /* \"#utility.yul\":1702:1707   */\n          dup2\n            /* \"#utility.yul\":1684:1708   */\n          tag_116\n          jump\t// in\n        tag_146:\n            /* \"#utility.yul\":1677:1682   */\n          dup2\n            /* \"#utility.yul\":1674:1709   */\n          eq\n            /* \"#utility.yul\":1664:1727   */\n          tag_147\n          jumpi\n            /* \"#utility.yul\":1723:1724   */\n          0x00\n            /* \"#utility.yul\":1720:1721   */\n          dup1\n            /* \"#utility.yul\":1713:1725   */\n          revert\n            /* \"#utility.yul\":1664:1727   */\n        tag_147:\n            /* \"#utility.yul\":1611:1733   */\n          pop\n          jump\t// out\n            /* \"#utility.yul\":1739:1878   */\n        tag_119:\n            /* \"#utility.yul\":1785:1790   */\n          0x00\n            /* \"#utility.yul\":1823:1829   */\n          dup2\n            /* \"#utility.yul\":1810:1830   */\n          calldataload\n            /* \"#utility.yul\":1801:1830   */\n          swap1\n          pop\n            /* \"#utility.yul\":1839:1872   */\n          tag_149\n            /* \"#utility.yul\":1866:1871   */\n          dup2\n            /* \"#utility.yul\":1839:1872   */\n          tag_118\n          jump\t// in\n        tag_149:\n            /* \"#utility.yul\":1739:1878   */\n          swap3\n          swap2\n          pop\n          pop\n          jump\t// out\n            /* \"#utility.yul\":1884:2358   */\n        tag_29:\n            /* \"#utility.yul\":1952:1958   */\n          0x00\n            /* \"#utility.yul\":1960:1966   */\n          dup1\n            /* \"#utility.yul\":2009:2011   */\n          0x40\n            /* \"#utility.yul\":1997:2006   */\n          dup4\n            /* \"#utility.yul\":1988:1995   */\n          dup6\n            /* \"#utility.yul\":1984:2007   */\n          sub\n            /* \"#utility.yul\":1980:2012   */\n          slt\n            /* \"#utility.yul\":1977:2096   */\n          iszero\n          tag_151\n          jumpi\n            /* \"#utility.yul\":2015:2094   */\n          tag_152\n          tag_110\n          jump\t// in\n        tag_152:\n            /* \"#utility.yul\":1977:2096   */\n        tag_151:\n            /* \"#utility.yul\":2135:2136   */\n          0x00\n            /* \"#utility.yul\":2160:2213   */\n          tag_153\n            /* \"#utility.yul\":2205:2212   */\n          dup6\n            /* \"#utility.yul\":2196:2202   */\n          dup3\n            /* \"#utility.yul\":2185:2194   */\n          dup7\n            /* \"#utility.yul\":2181:2203   */\n          add\n            /* \"#utility.yul\":2160:2213   */\n          tag_115\n          jump\t// in\n        tag_153:\n            /* \"#utility.yul\":2150:2213   */\n          swap3\n          pop\n            /* \"#utility.yul\":2106:2223   */\n          pop\n            /* \"#utility.yul\":2262:2264   */\n          0x20\n            /* \"#utility.yul\":2288:2341   */\n          tag_154\n            /* \"#utility.yul\":2333:2340   */\n          dup6\n            /* \"#utility.yul\":2324:2330   */\n          dup3\n            /* \"#utility.yul\":2313:2322   */\n          dup7\n            /* \"#utility.yul\":2309:2331   */\n          add\n            /* \"#utility.yul\":2288:2341   */\n          tag_119\n          jump\t// in\n        tag_154:\n            /* \"#utility.yul\":2278:2341   */\n          swap2\n          pop\n            /* \"#utility.yul\":2233:2351   */\n          pop\n            /* \"#utility.yul\":1884:2358   */\n          swap3\n          pop\n          swap3\n          swap1\n          pop\n          jump\t// out\n            /* \"#utility.yul\":2364:2454   */\n        tag_120:\n            /* \"#utility.yul\":2398:2405   */\n          0x00\n            /* \"#utility.yul\":2441:2446   */\n          dup2\n            /* \"#utility.yul\":2434:2447   */\n          iszero\n            /* \"#utility.yul\":2427:2448   */\n          iszero\n            /* \"#utility.yul\":2416:2448   */\n          swap1\n          pop\n            /* \"#utility.yul\":2364:2454   */\n          swap2\n          swap1\n          pop\n          jump\t// out\n            /* \"#utility.yul\":2460:2569   */\n        tag_121:\n            /* \"#utility.yul\":2541:2562   */\n          tag_157\n            /* \"#utility.yul\":2556:2561   */\n          dup2\n            /* \"#utility.yul\":2541:2562   */\n          tag_120\n          jump\t// in\n        tag_157:\n            /* \"#utility.yul\":2536:2539   */\n          dup3\n            /* \"#utility.yul\":2529:2563   */\n          mstore\n            /* \"#utility.yul\":2460:2569   */\n          pop\n          pop\n          jump\t// out\n            /* \"#utility.yul\":2575:2785   */\n        tag_32:\n            /* \"#utility.yul\":2662:2666   */\n          0x00\n            /* \"#utility.yul\":2700:2702   */\n          0x20\n            /* \"#utility.yul\":2689:2698   */\n          dup3\n            /* \"#utility.yul\":2685:2703   */\n          add\n            /* \"#utility.yul\":2677:2703   */\n          swap1\n          pop\n            /* \"#utility.yul\":2713:2778   */\n          tag_159\n            /* \"#utility.yul\":2775:2776   */\n          0x00\n            /* \"#utility.yul\":2764:2773   */\n          dup4\n            /* \"#utility.yul\":2760:2777   */\n          add\n            /* \"#utility.yul\":2751:2757   */\n          dup5\n            /* \"#utility.yul\":2713:2778   */\n          tag_121\n          jump\t// in\n        tag_159:\n            /* \"#utility.yul\":2575:2785   */\n          swap3\n          swap2\n          pop\n          pop\n          jump\t// out\n            /* \"#utility.yul\":2791:2909   */\n        tag_122:\n            /* \"#utility.yul\":2878:2902   */\n          tag_161\n            /* \"#utility.yul\":2896:2901   */\n          dup2\n            /* \"#utility.yul\":2878:2902   */\n          tag_113\n          jump\t// in\n        tag_161:\n            /* \"#utility.yul\":2873:2876   */\n          dup3\n            /* \"#utility.yul\":2866:2903   */\n          mstore\n            /* \"#utility.yul\":2791:2909   */\n          pop\n          pop\n          jump\t// out\n            /* \"#utility.yul\":2915:3137   */\n        tag_56:\n            /* \"#utility.yul\":3008:3012   */\n          0x00\n            /* \"#utility.yul\":3046:3048   */\n          0x20\n            /* \"#utility.yul\":3035:3044   */\n          dup3\n            /* \"#utility.yul\":3031:3049   */\n          add\n            /* \"#utility.yul\":3023:3049   */\n          swap1\n          pop\n            /* \"#utility.yul\":3059:3130   */\n          tag_163\n            /* \"#utility.yul\":3127:3128   */\n          0x00\n            /* \"#utility.yul\":3116:3125   */\n          dup4\n            /* \"#utility.yul\":3112:3129   */\n          add\n            /* \"#utility.yul\":3103:3109   */\n          dup5\n            /* \"#utility.yul\":3059:3130   */\n          tag_122\n          jump\t// in\n        tag_163:\n            /* \"#utility.yul\":2915:3137   */\n          swap3\n          swap2\n          pop\n          pop\n          jump\t// out\n            /* \"#utility.yul\":3143:3807   */\n        tag_64:\n            /* \"#utility.yul\":3348:3352   */\n          0x00\n            /* \"#utility.yul\":3386:3389   */\n          0xa0\n            /* \"#utility.yul\":3375:3384   */\n          dup3\n            /* \"#utility.yul\":3371:3390   */\n          add\n            /* \"#utility.yul\":3363:3390   */\n          swap1\n          pop\n            /* \"#utility.yul\":3400:3471   */\n          tag_165\n            /* \"#utility.yul\":3468:3469   */\n          0x00\n            /* \"#utility.yul\":3457:3466   */\n          dup4\n            /* \"#utility.yul\":3453:3470   */\n          add\n            /* \"#utility.yul\":3444:3450   */\n          dup9\n            /* \"#utility.yul\":3400:3471   */\n          tag_122\n          jump\t// in\n        tag_165:\n            /* \"#utility.yul\":3481:3553   */\n          tag_166\n            /* \"#utility.yul\":3549:3551   */\n          0x20\n            /* \"#utility.yul\":3538:3547   */\n          dup4\n            /* \"#utility.yul\":3534:3552   */\n          add\n            /* \"#utility.yul\":3525:3531   */\n          dup8\n            /* \"#utility.yul\":3481:3553   */\n          tag_117\n          jump\t// in\n        tag_166:\n            /* \"#utility.yul\":3563:3635   */\n          tag_167\n            /* \"#utility.yul\":3631:3633   */\n          0x40\n            /* \"#utility.yul\":3620:3629   */\n          dup4\n            /* \"#utility.yul\":3616:3634   */\n          add\n            /* \"#utility.yul\":3607:3613   */\n          dup7\n            /* \"#utility.yul\":3563:3635   */\n          tag_117\n          jump\t// in\n        tag_167:\n            /* \"#utility.yul\":3645:3717   */\n          tag_168\n            /* \"#utility.yul\":3713:3715   */\n          0x60\n            /* \"#utility.yul\":3702:3711   */\n          dup4\n            /* \"#utility.yul\":3698:3716   */\n          add\n            /* \"#utility.yul\":3689:3695   */\n          dup6\n            /* \"#utility.yul\":3645:3717   */\n          tag_117\n          jump\t// in\n        tag_168:\n            /* \"#utility.yul\":3727:3800   */\n          tag_169\n            /* \"#utility.yul\":3795:3798   */\n          0x80\n            /* \"#utility.yul\":3784:3793   */\n          dup4\n            /* \"#utility.yul\":3780:3799   */\n          add\n            /* \"#utility.yul\":3771:3777   */\n          dup5\n            /* \"#utility.yul\":3727:3800   */\n          tag_117\n          jump\t// in\n        tag_169:\n            /* \"#utility.yul\":3143:3807   */\n          swap7\n          swap6\n          pop\n          pop\n          pop\n          pop\n          pop\n          pop\n          jump\t// out\n            /* \"#utility.yul\":3813:3993   */\n        tag_123:\n            /* \"#utility.yul\":3861:3938   */\n          0x4e487b7100000000000000000000000000000000000000000000000000000000\n            /* \"#utility.yul\":3858:3859   */\n          0x00\n            /* \"#utility.yul\":3851:3939   */\n          mstore\n            /* \"#utility.yul\":3958:3962   */\n          0x11\n            /* \"#utility.yul\":3955:3956   */\n          0x04\n            /* \"#utility.yul\":3948:3963   */\n          mstore\n            /* \"#utility.yul\":3982:3986   */\n          0x24\n            /* \"#utility.yul\":3979:3980   */\n          0x00\n            /* \"#utility.yul\":3972:3987   */\n          revert\n            /* \"#utility.yul\":3999:4170   */\n        tag_91:\n            /* \"#utility.yul\":4038:4041   */\n          0x00\n            /* \"#utility.yul\":4061:4085   */\n          tag_172\n            /* \"#utility.yul\":4079:4084   */\n          dup3\n            /* \"#utility.yul\":4061:4085   */\n          tag_116\n          jump\t// in\n        tag_172:\n            /* \"#utility.yul\":4052:4085   */\n          swap2\n          pop\n            /* \"#utility.yul\":4107:4111   */\n          0x00\n            /* \"#utility.yul\":4100:4105   */\n          dup3\n            /* \"#utility.yul\":4097:4112   */\n          eq\n            /* \"#utility.yul\":4094:4135   */\n          iszero\n          tag_173\n          jumpi\n            /* \"#utility.yul\":4115:4133   */\n          tag_174\n          tag_123\n          jump\t// in\n        tag_174:\n            /* \"#utility.yul\":4094:4135   */\n        tag_173:\n            /* \"#utility.yul\":4162:4163   */\n          0x01\n            /* \"#utility.yul\":4155:4160   */\n          dup3\n            /* \"#utility.yul\":4151:4164   */\n          sub\n            /* \"#utility.yul\":4144:4164   */\n          swap1\n          pop\n            /* \"#utility.yul\":3999:4170   */\n          swap2\n          swap1\n          pop\n          jump\t// out\n            /* \"#utility.yul\":4176:4409   */\n        tag_100:\n            /* \"#utility.yul\":4215:4218   */\n          0x00\n            /* \"#utility.yul\":4238:4262   */\n          tag_176\n            /* \"#utility.yul\":4256:4261   */\n          dup3\n            /* \"#utility.yul\":4238:4262   */\n          tag_116\n          jump\t// in\n        tag_176:\n            /* \"#utility.yul\":4229:4262   */\n          swap2\n          pop\n            /* \"#utility.yul\":4284:4350   */\n          0xffffffffffffffffffffffffffffffffffffffffffffffffffffffffffffffff\n            /* \"#utility.yul\":4277:4282   */\n          dup3\n            /* \"#utility.yul\":4274:4351   */\n          eq\n            /* \"#utility.yul\":4271:4374   */\n          iszero\n          tag_177\n          jumpi\n            /* \"#utility.yul\":4354:4372   */\n          tag_178\n          tag_123\n          jump\t// in\n        tag_178:\n            /* \"#utility.yul\":4271:4374   */\n        tag_177:\n            /* \"#utility.yul\":4401:4402   */\n          0x01\n            /* \"#utility.yul\":4394:4399   */\n          dup3\n            /* \"#utility.yul\":4390:4403   */\n          add\n            /* \"#utility.yul\":4383:4403   */\n          swap1\n          pop\n            /* \"#utility.yul\":4176:4409   */\n          swap2\n          swap1\n          pop\n          jump\t// out\n\n        auxdata: 0xa26469706673582212202e8c5e61787c07045dc0e969e3ab27634ec2d54e98d9ccc787d8e8af5a5f046764736f6c634300080a0033\n    }\n}\n\nsub_3: assembly {\n        /* \"devs/TokenManager.sol\":843:3463   */\n      mstore(0x40, 0x80)\n        /* \"devs/TokenManager.sol\":1232:1343   */\n      callvalue\n      dup1\n      iszero\n      tag_1\n      jumpi\n      0x00\n      dup1\n      revert\n    tag_1:\n      pop\n      mload(0x40)\n      sub(codesize, bytecodeSize)\n      dup1\n      bytecodeSize\n      dup4\n      codecopy\n      dup2\n      dup2\n      add\n      0x40\n      mstore\n      dup2\n      add\n      swap1\n      tag_2\n      swap2\n      swap1\n      tag_3\n      jump\t// in\n    tag_2:\n        /* \"devs/TokenManager.sol\":1285:1298   */\n      dup1\n        /* \"devs/TokenManager.sol\":1277:1282   */\n      0x00\n      dup1\n        /* \"devs/TokenManager.sol\":1277:1298   */\n      0x0100\n      exp\n      dup2\n      sload\n      dup2\n      0xffffffffffffffffffffffffffffffffffffffff\n      mul\n      not\n      and\n      swap1\n      dup4\n      0xffffffffffffffffffffffffffffffffffffffff\n      and\n      mul\n      or\n      swap1\n      sstore\n      pop\n        /* \"devs/TokenManager.sol\":1326:1336   */\n      caller\n        /* \"devs/TokenManager.sol\":1308:1323   */\n      0x01\n      0x00\n        /* \"devs/TokenManager.sol\":1308:1336   */\n      0x0100\n      exp\n      dup2\n      sload\n      dup2\n      0xffffffffffffffffffffffffffffffffffffffff\n      mul\n      not\n      and\n      swap1\n      dup4\n      0xffffffffffffffffffffffffffffffffffffffff\n      and\n      mul\n      or\n      swap1\n      sstore\n      pop\n        /* \"devs/TokenManager.sol\":1232:1343   */\n      pop\n        /* \"devs/TokenManager.sol\":843:3463   */\n      jump(tag_6)\n        /* \"#utility.yul\":88:205   */\n    tag_8:\n        /* \"#utility.yul\":197:198   */\n      0x00\n        /* \"#utility.yul\":194:195   */\n      dup1\n        /* \"#utility.yul\":187:199   */\n      revert\n        /* \"#utility.yul\":334:460   */\n    tag_10:\n        /* \"#utility.yul\":371:378   */\n      0x00\n        /* \"#utility.yul\":411:453   */\n      0xffffffffffffffffffffffffffffffffffffffff\n        /* \"#utility.yul\":404:409   */\n      dup3\n        /* \"#utility.yul\":400:454   */\n      and\n        /* \"#utility.yul\":389:454   */\n      swap1\n      pop\n        /* \"#utility.yul\":334:460   */\n      swap2\n      swap1\n      pop\n      jump\t// out\n        /* \"#utility.yul\":466:562   */\n    tag_11:\n        /* \"#utility.yul\":503:510   */\n      0x00\n        /* \"#utility.yul\":532:556   */\n      tag_20\n        /* \"#utility.yul\":550:555   */\n      dup3\n        /* \"#utility.yul\":532:556   */\n      tag_10\n      jump\t// in\n    tag_20:\n        /* \"#utility.yul\":521:556   */\n      swap1\n      pop\n        /* \"#utility.yul\":466:562   */\n      swap2\n      swap1\n      pop\n      jump\t// out\n        /* \"#utility.yul\":568:690   */\n    tag_12:\n        /* \"#utility.yul\":641:665   */\n      tag_22\n        /* \"#utility.yul\":659:664   */\n      dup2\n        /* \"#utility.yul\":641:665   */\n      tag_11\n      jump\t// in\n    tag_22:\n        /* \"#utility.yul\":634:639   */\n      dup2\n        /* \"#utility.yul\":631:666   */\n      eq\n        /* \"#utility.yul\":621:684   */\n      tag_23\n      jumpi\n        /* \"#utility.yul\":680:681   */\n      0x00\n        /* \"#utility.yul\":677:678   */\n      dup1\n        /* \"#utility.yul\":670:682   */\n      revert\n        /* \"#utility.yul\":621:684   */\n    tag_23:\n        /* \"#utility.yul\":568:690   */\n      pop\n      jump\t// out\n        /* \"#utility.yul\":696:839   */\n    tag_13:\n        /* \"#utility.yul\":753:758   */\n      0x00\n        /* \"#utility.yul\":784:790   */\n      dup2\n        /* \"#utility.yul\":778:791   */\n      mload\n        /* \"#utility.yul\":769:791   */\n      swap1\n      pop\n        /* \"#utility.yul\":800:833   */\n      tag_25\n        /* \"#utility.yul\":827:832   */\n      dup2\n        /* \"#utility.yul\":800:833   */\n      tag_12\n      jump\t// in\n    tag_25:\n        /* \"#utility.yul\":696:839   */\n      swap3\n      swap2\n      pop\n      pop\n      jump\t// out\n        /* \"#utility.yul\":845:1196   */\n    tag_3:\n        /* \"#utility.yul\":915:921   */\n      0x00\n        /* \"#utility.yul\":964:966   */\n      0x20\n        /* \"#utility.yul\":952:961   */\n      dup3\n        /* \"#utility.yul\":943:950   */\n      dup5\n        /* \"#utility.yul\":939:962   */\n      sub\n        /* \"#utility.yul\":935:967   */\n      slt\n        /* \"#utility.yul\":932:1051   */\n      iszero\n      tag_27\n      jumpi\n        /* \"#utility.yul\":970:1049   */\n      tag_28\n      tag_8\n      jump\t// in\n    tag_28:\n        /* \"#utility.yul\":932:1051   */\n    tag_27:\n        /* \"#utility.yul\":1090:1091   */\n      0x00\n        /* \"#utility.yul\":1115:1179   */\n      tag_29\n        /* \"#utility.yul\":1171:1178   */\n      dup5\n        /* \"#utility.yul\":1162:1168   */\n      dup3\n        /* \"#utility.yul\":1151:1160   */\n      dup6\n        /* \"#utility.yul\":1147:1169   */\n      add\n        /* \"#utility.yul\":1115:1179   */\n      tag_13\n      jump\t// in\n    tag_29:\n        /* \"#utility.yul\":1105:1179   */\n      swap2\n      pop\n        /* \"#utility.yul\":1061:1189   */\n      pop\n        /* \"#utility.yul\":845:1196   */\n      swap3\n      swap2\n      pop\n      pop\n      jump\t// out\n        /* \"devs/TokenManager.sol\":843:3463   */\n    tag_6:\n      dataSize(sub_0)\n      dup1\n      dataOffset(sub_0)\n      0x00\n      codecopy\n      0x00\n      return\n    stop\n\n    sub_0: assembly {\n            /* \"devs/TokenManager.sol\":843:3463   */\n          mstore(0x40, 0x80)\n          callvalue\n          dup1\n          iszero\n          tag_1\n          jumpi\n          0x00\n          dup1\n          revert\n        tag_1:\n          pop\n          jumpi(tag_2, lt(calldatasize, 0x04))\n          shr(0xe0, calldataload(0x00))\n          dup1\n          0x921c47b1\n          gt\n          tag_15\n          jumpi\n          dup1\n          0x921c47b1\n          eq\n          tag_9\n          jumpi\n          dup1\n          0xa46d8ac7\n          eq\n          tag_10\n          jumpi\n          dup1\n          0xab21a2be\n          eq\n          tag_11\n          jumpi\n          dup1\n          0xca5140c9\n          eq\n          tag_12\n          jumpi\n          dup1\n          0xef228c92\n          eq\n          tag_13\n          jumpi\n          dup1\n          0xf6b4dfb4\n          eq\n          tag_14\n          jumpi\n          jump(tag_2)\n        tag_15:\n          dup1\n          0x1ce06944\n          eq\n          tag_3\n          jumpi\n          dup1\n          0x3b2f7118\n          eq\n          tag_4\n          jumpi\n          dup1\n          0x67615ad5\n          eq\n          tag_5\n          jumpi\n          dup1\n          0x83b65cb4\n          eq\n          tag_6\n          jumpi\n          dup1\n          0x8da5cb5b\n          eq\n          tag_7\n          jumpi\n          dup1\n          0x8dbbfbde\n          eq\n          tag_8\n          jumpi\n        tag_2:\n          0x00\n          dup1\n          revert\n            /* \"devs/TokenManager.sol\":2951:3112   */\n        tag_3:\n          tag_16\n          0x04\n          dup1\n          calldatasize\n          sub\n          dup2\n          add\n          swap1\n          tag_17\n          swap2\n          swap1\n          tag_18\n          jump\t// in\n        tag_17:\n          tag_19\n          jump\t// in\n        tag_16:\n          mload(0x40)\n          tag_20\n          swap2\n          swap1\n          tag_21\n          jump\t// in\n        tag_20:\n          mload(0x40)\n          dup1\n          swap2\n          sub\n          swap1\n          return\n            /* \"devs/TokenManager.sol\":3118:3286   */\n        tag_4:\n          tag_22\n          0x04\n          dup1\n          calldatasize\n          sub\n          dup2\n          add\n          swap1\n          tag_23\n          swap2\n          swap1\n          tag_18\n          jump\t// in\n        tag_23:\n          tag_24\n          jump\t// in\n        tag_22:\n          mload(0x40)\n          tag_25\n          swap2\n          swap1\n          tag_26\n          jump\t// in\n        tag_25:\n          mload(0x40)\n          dup1\n          swap2\n          sub\n          swap1\n          return\n            /* \"devs/TokenManager.sol\":3292:3460   */\n        tag_5:\n          tag_27\n          0x04\n          dup1\n          calldatasize\n          sub\n          dup2\n          add\n          swap1\n          tag_28\n          swap2\n          swap1\n          tag_18\n          jump\t// in\n        tag_28:\n          tag_29\n          jump\t// in\n        tag_27:\n          mload(0x40)\n          tag_30\n          swap2\n          swap1\n          tag_21\n          jump\t// in\n        tag_30:\n          mload(0x40)\n          dup1\n          swap2\n          sub\n          swap1\n          return\n            /* \"devs/TokenManager.sol\":989:1033   */\n        tag_6:\n          tag_31\n          0x04\n          dup1\n          calldatasize\n          sub\n          dup2\n          add\n          swap1\n          tag_32\n          swap2\n          swap1\n          tag_18\n          jump\t// in\n        tag_32:\n          tag_33\n          jump\t// in\n        tag_31:\n          mload(0x40)\n          tag_34\n          swap8\n          swap7\n          swap6\n          swap5\n          swap4\n          swap3\n          swap2\n          swap1\n          tag_35\n          jump\t// in\n        tag_34:\n          mload(0x40)\n          dup1\n          swap2\n          sub\n          swap1\n          return\n            /* \"devs/TokenManager.sol\":896:916   */\n        tag_7:\n          tag_36\n          tag_37\n          jump\t// in\n        tag_36:\n          mload(0x40)\n          tag_38\n          swap2\n          swap1\n          tag_26\n          jump\t// in\n        tag_38:\n          mload(0x40)\n          dup1\n          swap2\n          sub\n          swap1\n          return\n            /* \"devs/TokenManager.sol\":2276:2521   */\n        tag_8:\n          tag_39\n          0x04\n          dup1\n          calldatasize\n          sub\n          dup2\n          add\n          swap1\n          tag_40\n          swap2\n          swap1\n          tag_41\n          jump\t// in\n        tag_40:\n          tag_42\n          jump\t// in\n        tag_39:\n          stop\n            /* \"devs/TokenManager.sol\":959:983   */\n        tag_9:\n          tag_43\n          tag_44\n          jump\t// in\n        tag_43:\n          mload(0x40)\n          tag_45\n          swap2\n          swap1\n          tag_21\n          jump\t// in\n        tag_45:\n          mload(0x40)\n          dup1\n          swap2\n          sub\n          swap1\n          return\n            /* \"devs/TokenManager.sol\":1439:1951   */\n        tag_10:\n          tag_46\n          0x04\n          dup1\n          calldatasize\n          sub\n          dup2\n          add\n          swap1\n          tag_47\n          swap2\n          swap1\n          tag_48\n          jump\t// in\n        tag_47:\n          tag_49\n          jump\t// in\n        tag_46:\n          mload(0x40)\n          tag_50\n          swap2\n          swap1\n          tag_21\n          jump\t// in\n        tag_50:\n          mload(0x40)\n          dup1\n          swap2\n          sub\n          swap1\n          return\n            /* \"devs/TokenManager.sol\":2527:2723   */\n        tag_11:\n          tag_51\n          0x04\n          dup1\n          calldatasize\n          sub\n          dup2\n          add\n          swap1\n          tag_52\n          swap2\n          swap1\n          tag_53\n          jump\t// in\n        tag_52:\n          tag_54\n          jump\t// in\n        tag_51:\n          stop\n            /* \"devs/TokenManager.sol\":2729:2919   */\n        tag_12:\n          tag_55\n          0x04\n          dup1\n          calldatasize\n          sub\n          dup2\n          add\n          swap1\n          tag_56\n          swap2\n          swap1\n          tag_18\n          jump\t// in\n        tag_56:\n          tag_57\n          jump\t// in\n        tag_55:\n          stop\n            /* \"devs/TokenManager.sol\":2056:2270   */\n        tag_13:\n          tag_58\n          0x04\n          dup1\n          calldatasize\n          sub\n          dup2\n          add\n          swap1\n          tag_59\n          swap2\n          swap1\n          tag_60\n          jump\t// in\n        tag_59:\n          tag_61\n          jump\t// in\n        tag_58:\n          stop\n            /* \"devs/TokenManager.sol\":922:952   */\n        tag_14:\n          tag_62\n          tag_63\n          jump\t// in\n        tag_62:\n          mload(0x40)\n          tag_64\n          swap2\n          swap1\n          tag_26\n          jump\t// in\n        tag_64:\n          mload(0x40)\n          dup1\n          swap2\n          sub\n          swap1\n          return\n            /* \"devs/TokenManager.sol\":2951:3112   */\n        tag_19:\n            /* \"devs/TokenManager.sol\":3010:3014   */\n          0x00\n            /* \"devs/TokenManager.sol\":3025:3051   */\n          dup1\n            /* \"devs/TokenManager.sol\":3054:3064   */\n          0x03\n            /* \"devs/TokenManager.sol\":3054:3074   */\n          0x00\n            /* \"devs/TokenManager.sol\":3065:3073   */\n          dup5\n            /* \"devs/TokenManager.sol\":3054:3074   */\n          dup2\n          mstore\n          0x20\n          add\n          swap1\n          dup2\n          mstore\n          0x20\n          add\n          0x00\n          keccak256\n            /* \"devs/TokenManager.sol\":3025:3074   */\n          mload(0x40)\n          dup1\n          0xe0\n          add\n          0x40\n          mstore\n          swap1\n          dup2\n          0x00\n          dup3\n          add\n          sload\n          dup2\n          mstore\n          0x20\n          add\n          0x01\n          dup3\n          add\n          0x00\n          swap1\n          sload\n          swap1\n          0x0100\n          exp\n          swap1\n          div\n          0xffffffffffffffffffffffffffffffffffffffff\n          and\n          0xffffffffffffffffffffffffffffffffffffffff\n          and\n          0xffffffffffffffffffffffffffffffffffffffff\n          and\n          dup2\n          mstore\n          0x20\n          add\n          0x02\n          dup3\n          add\n          sload\n          dup2\n          mstore\n          0x20\n          add\n          0x03\n          dup3\n          add\n          0x00\n          swap1\n          sload\n          swap1\n          0x0100\n          exp\n          swap1\n          div\n          0xffffffffffffffffffffffffffffffffffffffff\n          and\n          0xffffffffffffffffffffffffffffffffffffffff\n          and\n          0xffffffffffffffffffffffffffffffffffffffff\n          and\n          dup2\n          mstore\n          0x20\n          add\n          0x03\n          dup3\n          add\n          0x14\n          swap1\n          sload\n          swap1\n          0x0100\n          exp\n          swap1\n          div\n          0xff\n          and\n          iszero\n          iszero\n          iszero\n          iszero\n          dup2\n          mstore\n          0x20\n          add\n          0x04\n          dup3\n          add\n          sload\n          dup2\n          mstore\n          0x20\n          add\n          0x05\n          dup3\n          add\n          sload\n          dup2\n          mstore\n          pop\n          pop\n          swap1\n          pop\n            /* \"devs/TokenManager.sol\":3091:3100   */\n          dup1\n            /* \"devs/TokenManager.sol\":3091:3105   */\n          0xc0\n          add\n          mload\n            /* \"devs/TokenManager.sol\":3084:3105   */\n          swap2\n          pop\n          pop\n            /* \"devs/TokenManager.sol\":2951:3112   */\n          swap2\n          swap1\n          pop\n          jump\t// out\n            /* \"devs/TokenManager.sol\":3118:3286   */\n        tag_24:\n            /* \"devs/TokenManager.sol\":3179:3186   */\n          0x00\n            /* \"devs/TokenManager.sol\":3197:3223   */\n          dup1\n            /* \"devs/TokenManager.sol\":3226:3236   */\n          0x03\n            /* \"devs/TokenManager.sol\":3226:3246   */\n          0x00\n            /* \"devs/TokenManager.sol\":3237:3245   */\n          dup5\n            /* \"devs/TokenManager.sol\":3226:3246   */\n          dup2\n          mstore\n          0x20\n          add\n          swap1\n          dup2\n          mstore\n          0x20\n          add\n          0x00\n          keccak256\n            /* \"devs/TokenManager.sol\":3197:3246   */\n          mload(0x40)\n          dup1\n          0xe0\n          add\n          0x40\n          mstore\n          swap1\n          dup2\n          0x00\n          dup3\n          add\n          sload\n          dup2\n          mstore\n          0x20\n          add\n          0x01\n          dup3\n          add\n          0x00\n          swap1\n          sload\n          swap1\n          0x0100\n          exp\n          swap1\n          div\n          0xffffffffffffffffffffffffffffffffffffffff\n          and\n          0xffffffffffffffffffffffffffffffffffffffff\n          and\n          0xffffffffffffffffffffffffffffffffffffffff\n          and\n          dup2\n          mstore\n          0x20\n          add\n          0x02\n          dup3\n          add\n          sload\n          dup2\n          mstore\n          0x20\n          add\n          0x03\n          dup3\n          add\n          0x00\n          swap1\n          sload\n          swap1\n          0x0100\n          exp\n          swap1\n          div\n          0xffffffffffffffffffffffffffffffffffffffff\n          and\n          0xffffffffffffffffffffffffffffffffffffffff\n          and\n          0xffffffffffffffffffffffffffffffffffffffff\n          and\n          dup2\n          mstore\n          0x20\n          add\n          0x03\n          dup3\n          add\n          0x14\n          swap1\n          sload\n          swap1\n          0x0100\n          exp\n          swap1\n          div\n          0xff\n          and\n          iszero\n          iszero\n          iszero\n          iszero\n          dup2\n          mstore\n          0x20\n          add\n          0x04\n          dup3\n          add\n          sload\n          dup2\n          mstore\n          0x20\n          add\n          0x05\n          dup3\n          add\n          sload\n          dup2\n          mstore\n          pop\n          pop\n          swap1\n          pop\n            /* \"devs/TokenManager.sol\":3263:3272   */\n          dup1\n            /* \"devs/TokenManager.sol\":3263:3279   */\n          0x60\n          add\n          mload\n            /* \"devs/TokenManager.sol\":3256:3279   */\n          swap2\n          pop\n          pop\n            /* \"devs/TokenManager.sol\":3118:3286   */\n          swap2\n          swap1\n          pop\n          jump\t// out\n            /* \"devs/TokenManager.sol\":3292:3460   */\n        tag_29:\n            /* \"devs/TokenManager.sol\":3353:3357   */\n          0x00\n            /* \"devs/TokenManager.sol\":3368:3394   */\n          dup1\n            /* \"devs/TokenManager.sol\":3397:3407   */\n          0x03\n            /* \"devs/TokenManager.sol\":3397:3417   */\n          0x00\n            /* \"devs/TokenManager.sol\":3408:3416   */\n          dup5\n            /* \"devs/TokenManager.sol\":3397:3417   */\n          dup2\n          mstore\n          0x20\n          add\n          swap1\n          dup2\n          mstore\n          0x20\n          add\n          0x00\n          keccak256\n            /* \"devs/TokenManager.sol\":3368:3417   */\n          mload(0x40)\n          dup1\n          0xe0\n          add\n          0x40\n          mstore\n          swap1\n          dup2\n          0x00\n          dup3\n          add\n          sload\n          dup2\n          mstore\n          0x20\n          add\n          0x01\n          dup3\n          add\n          0x00\n          swap1\n          sload\n          swap1\n          0x0100\n          exp\n          swap1\n          div\n          0xffffffffffffffffffffffffffffffffffffffff\n          and\n          0xffffffffffffffffffffffffffffffffffffffff\n          and\n          0xffffffffffffffffffffffffffffffffffffffff\n          and\n          dup2\n          mstore\n          0x20\n          add\n          0x02\n          dup3\n          add\n          sload\n          dup2\n          mstore\n          0x20\n          add\n          0x03\n          dup3\n          add\n          0x00\n          swap1\n          sload\n          swap1\n          0x0100\n          exp\n          swap1\n          div\n          0xffffffffffffffffffffffffffffffffffffffff\n          and\n          0xffffffffffffffffffffffffffffffffffffffff\n          and\n          0xffffffffffffffffffffffffffffffffffffffff\n          and\n          dup2\n          mstore\n          0x20\n          add\n          0x03\n          dup3\n          add\n          0x14\n          swap1\n          sload\n          swap1\n          0x0100\n          exp\n          swap1\n          div\n          0xff\n          and\n          iszero\n          iszero\n          iszero\n          iszero\n          dup2\n          mstore\n          0x20\n          add\n          0x04\n          dup3\n          add\n          sload\n          dup2\n          mstore\n          0x20\n          add\n          0x05\n          dup3\n          add\n          sload\n          dup2\n          mstore\n          pop\n          pop\n          swap1\n          pop\n            /* \"devs/TokenManager.sol\":3434:3443   */\n          dup1\n            /* \"devs/TokenManager.sol\":3434:3453   */\n          0x40\n          add\n          mload\n            /* \"devs/TokenManager.sol\":3427:3453   */\n          swap2\n          pop\n          pop\n            /* \"devs/TokenManager.sol\":3292:3460   */\n          swap2\n          swap1\n          pop\n          jump\t// out\n            /* \"devs/TokenManager.sol\":989:1033   */\n        tag_33:\n          mstore(0x20, 0x03)\n          dup1\n          0x00\n          mstore\n          keccak256(0x00, 0x40)\n          0x00\n          swap2\n          pop\n          swap1\n          pop\n          dup1\n          0x00\n          add\n          sload\n          swap1\n          dup1\n          0x01\n          add\n          0x00\n          swap1\n          sload\n          swap1\n          0x0100\n          exp\n          swap1\n          div\n          0xffffffffffffffffffffffffffffffffffffffff\n          and\n          swap1\n          dup1\n          0x02\n          add\n          sload\n          swap1\n          dup1\n          0x03\n          add\n          0x00\n          swap1\n          sload\n          swap1\n          0x0100\n          exp\n          swap1\n          div\n          0xffffffffffffffffffffffffffffffffffffffff\n          and\n          swap1\n          dup1\n          0x03\n          add\n          0x14\n          swap1\n          sload\n          swap1\n          0x0100\n          exp\n          swap1\n          div\n          0xff\n          and\n          swap1\n          dup1\n          0x04\n          add\n          sload\n          swap1\n          dup1\n          0x05\n          add\n          sload\n          swap1\n          pop\n          dup8\n          jump\t// out\n            /* \"devs/TokenManager.sol\":896:916   */\n        tag_37:\n          0x00\n          dup1\n          sload\n          swap1\n          0x0100\n          exp\n          swap1\n          div\n          0xffffffffffffffffffffffffffffffffffffffff\n          and\n          dup2\n          jump\t// out\n            /* \"devs/TokenManager.sol\":2276:2521   */\n        tag_42:\n            /* \"devs/TokenManager.sol\":2366:2374   */\n          dup3\n            /* \"devs/TokenManager.sol\":1195:1207   */\n          sload(0x02)\n            /* \"devs/TokenManager.sol\":1185:1192   */\n          dup2\n            /* \"devs/TokenManager.sol\":1185:1207   */\n          lt\n            /* \"devs/TokenManager.sol\":1177:1208   */\n          tag_69\n          jumpi\n          0x00\n          dup1\n          revert\n        tag_69:\n            /* \"devs/TokenManager.sol\":1098:1108   */\n          caller\n            /* \"devs/TokenManager.sol\":1079:1108   */\n          0xffffffffffffffffffffffffffffffffffffffff\n          and\n            /* \"devs/TokenManager.sol\":1079:1094   */\n          0x01\n          0x00\n          swap1\n          sload\n          swap1\n          0x0100\n          exp\n          swap1\n          div\n          0xffffffffffffffffffffffffffffffffffffffff\n          and\n            /* \"devs/TokenManager.sol\":1079:1108   */\n          0xffffffffffffffffffffffffffffffffffffffff\n          and\n          eq\n            /* \"devs/TokenManager.sol\":1071:1109   */\n          tag_71\n          jumpi\n          0x00\n          dup1\n          revert\n        tag_71:\n            /* \"devs/TokenManager.sol\":2396:2423   */\n          0x00\n            /* \"devs/TokenManager.sol\":2426:2436   */\n          0x03\n            /* \"devs/TokenManager.sol\":2426:2446   */\n          0x00\n            /* \"devs/TokenManager.sol\":2437:2445   */\n          dup7\n            /* \"devs/TokenManager.sol\":2426:2446   */\n          dup2\n          mstore\n          0x20\n          add\n          swap1\n          dup2\n          mstore\n          0x20\n          add\n          0x00\n          keccak256\n            /* \"devs/TokenManager.sol\":2396:2446   */\n          swap1\n          pop\n            /* \"devs/TokenManager.sol\":2475:2482   */\n          dup4\n            /* \"devs/TokenManager.sol\":2456:2465   */\n          dup2\n            /* \"devs/TokenManager.sol\":2456:2472   */\n          0x04\n          add\n            /* \"devs/TokenManager.sol\":2456:2482   */\n          dup2\n          swap1\n          sstore\n          pop\n            /* \"devs/TokenManager.sol\":2509:2514   */\n          dup3\n            /* \"devs/TokenManager.sol\":2492:2501   */\n          dup2\n            /* \"devs/TokenManager.sol\":2492:2506   */\n          0x05\n          add\n            /* \"devs/TokenManager.sol\":2492:2514   */\n          dup2\n          swap1\n          sstore\n          pop\n            /* \"devs/TokenManager.sol\":2386:2521   */\n          pop\n            /* \"devs/TokenManager.sol\":2276:2521   */\n          pop\n          pop\n          pop\n          pop\n          jump\t// out\n            /* \"devs/TokenManager.sol\":959:983   */\n        tag_44:\n          sload(0x02)\n          dup2\n          jump\t// out\n            /* \"devs/TokenManager.sol\":1439:1951   */\n        tag_49:\n            /* \"devs/TokenManager.sol\":1551:1555   */\n          0x00\n            /* \"devs/TokenManager.sol\":1098:1108   */\n          caller\n            /* \"devs/TokenManager.sol\":1079:1108   */\n          0xffffffffffffffffffffffffffffffffffffffff\n          and\n            /* \"devs/TokenManager.sol\":1079:1094   */\n          0x01\n          0x00\n          swap1\n          sload\n          swap1\n          0x0100\n          exp\n          swap1\n          div\n          0xffffffffffffffffffffffffffffffffffffffff\n          and\n            /* \"devs/TokenManager.sol\":1079:1108   */\n          0xffffffffffffffffffffffffffffffffffffffff\n          and\n          eq\n            /* \"devs/TokenManager.sol\":1071:1109   */\n          tag_74\n          jumpi\n          0x00\n          dup1\n          revert\n        tag_74:\n            /* \"devs/TokenManager.sol\":1566:1593   */\n          0x00\n            /* \"devs/TokenManager.sol\":1596:1606   */\n          0x03\n            /* \"devs/TokenManager.sol\":1596:1620   */\n          0x00\n            /* \"devs/TokenManager.sol\":1607:1619   */\n          sload(0x02)\n            /* \"devs/TokenManager.sol\":1596:1620   */\n          dup2\n          mstore\n          0x20\n          add\n          swap1\n          dup2\n          mstore\n          0x20\n          add\n          0x00\n          keccak256\n            /* \"devs/TokenManager.sol\":1566:1620   */\n          swap1\n          pop\n            /* \"devs/TokenManager.sol\":1650:1662   */\n          sload(0x02)\n            /* \"devs/TokenManager.sol\":1630:1639   */\n          dup2\n            /* \"devs/TokenManager.sol\":1630:1647   */\n          0x00\n          add\n            /* \"devs/TokenManager.sol\":1630:1662   */\n          dup2\n          swap1\n          sstore\n          pop\n            /* \"devs/TokenManager.sol\":1694:1704   */\n          dup5\n            /* \"devs/TokenManager.sol\":1672:1681   */\n          dup2\n            /* \"devs/TokenManager.sol\":1672:1691   */\n          0x02\n          add\n            /* \"devs/TokenManager.sol\":1672:1704   */\n          dup2\n          swap1\n          sstore\n          pop\n            /* \"devs/TokenManager.sol\":1732:1739   */\n          dup6\n            /* \"devs/TokenManager.sol\":1714:1723   */\n          dup2\n            /* \"devs/TokenManager.sol\":1714:1729   */\n          0x01\n          add\n          0x00\n            /* \"devs/TokenManager.sol\":1714:1739   */\n          0x0100\n          exp\n          dup2\n          sload\n          dup2\n          0xffffffffffffffffffffffffffffffffffffffff\n          mul\n          not\n          and\n          swap1\n          dup4\n          0xffffffffffffffffffffffffffffffffffffffff\n          and\n          mul\n          or\n          swap1\n          sstore\n          pop\n            /* \"devs/TokenManager.sol\":1768:1775   */\n          dup6\n            /* \"devs/TokenManager.sol\":1749:1758   */\n          dup2\n            /* \"devs/TokenManager.sol\":1749:1765   */\n          0x03\n          add\n          0x00\n            /* \"devs/TokenManager.sol\":1749:1775   */\n          0x0100\n          exp\n          dup2\n          sload\n          dup2\n          0xffffffffffffffffffffffffffffffffffffffff\n          mul\n          not\n          and\n          swap1\n          dup4\n          0xffffffffffffffffffffffffffffffffffffffff\n          and\n          mul\n          or\n          swap1\n          sstore\n          pop\n            /* \"devs/TokenManager.sol\":1813:1818   */\n          0x00\n            /* \"devs/TokenManager.sol\":1785:1794   */\n          dup2\n            /* \"devs/TokenManager.sol\":1785:1810   */\n          0x03\n          add\n          0x14\n            /* \"devs/TokenManager.sol\":1785:1818   */\n          0x0100\n          exp\n          dup2\n          sload\n          dup2\n          0xff\n          mul\n          not\n          and\n          swap1\n          dup4\n          iszero\n          iszero\n          mul\n          or\n          swap1\n          sstore\n          pop\n            /* \"devs/TokenManager.sol\":1847:1854   */\n          dup4\n            /* \"devs/TokenManager.sol\":1828:1837   */\n          dup2\n            /* \"devs/TokenManager.sol\":1828:1844   */\n          0x04\n          add\n            /* \"devs/TokenManager.sol\":1828:1854   */\n          dup2\n          swap1\n          sstore\n          pop\n            /* \"devs/TokenManager.sol\":1881:1886   */\n          dup3\n            /* \"devs/TokenManager.sol\":1864:1873   */\n          dup2\n            /* \"devs/TokenManager.sol\":1864:1878   */\n          0x05\n          add\n            /* \"devs/TokenManager.sol\":1864:1886   */\n          dup2\n          swap1\n          sstore\n          pop\n            /* \"devs/TokenManager.sol\":1896:1908   */\n          0x02\n          0x00\n            /* \"devs/TokenManager.sol\":1896:1910   */\n          dup2\n          sload\n          dup1\n          swap3\n          swap2\n          swap1\n          tag_76\n          swap1\n          tag_77\n          jump\t// in\n        tag_76:\n          swap2\n          swap1\n          pop\n          sstore\n          pop\n            /* \"devs/TokenManager.sol\":1927:1936   */\n          dup1\n            /* \"devs/TokenManager.sol\":1927:1944   */\n          0x00\n          add\n          sload\n            /* \"devs/TokenManager.sol\":1920:1944   */\n          swap2\n          pop\n          pop\n            /* \"devs/TokenManager.sol\":1439:1951   */\n          swap5\n          swap4\n          pop\n          pop\n          pop\n          pop\n          jump\t// out\n            /* \"devs/TokenManager.sol\":2527:2723   */\n        tag_54:\n            /* \"devs/TokenManager.sol\":2600:2608   */\n          dup2\n            /* \"devs/TokenManager.sol\":1195:1207   */\n          sload(0x02)\n            /* \"devs/TokenManager.sol\":1185:1192   */\n          dup2\n            /* \"devs/TokenManager.sol\":1185:1207   */\n          lt\n            /* \"devs/TokenManager.sol\":1177:1208   */\n          tag_79\n          jumpi\n          0x00\n          dup1\n          revert\n        tag_79:\n            /* \"devs/TokenManager.sol\":1098:1108   */\n          caller\n            /* \"devs/TokenManager.sol\":1079:1108   */\n          0xffffffffffffffffffffffffffffffffffffffff\n          and\n            /* \"devs/TokenManager.sol\":1079:1094   */\n          0x01\n          0x00\n          swap1\n          sload\n          swap1\n          0x0100\n          exp\n          swap1\n          div\n          0xffffffffffffffffffffffffffffffffffffffff\n          and\n            /* \"devs/TokenManager.sol\":1079:1108   */\n          0xffffffffffffffffffffffffffffffffffffffff\n          and\n          eq\n            /* \"devs/TokenManager.sol\":1071:1109   */\n          tag_81\n          jumpi\n          0x00\n          dup1\n          revert\n        tag_81:\n            /* \"devs/TokenManager.sol\":2630:2657   */\n          0x00\n            /* \"devs/TokenManager.sol\":2660:2670   */\n          0x03\n            /* \"devs/TokenManager.sol\":2660:2680   */\n          0x00\n            /* \"devs/TokenManager.sol\":2671:2679   */\n          dup6\n            /* \"devs/TokenManager.sol\":2660:2680   */\n          dup2\n          mstore\n          0x20\n          add\n          swap1\n          dup2\n          mstore\n          0x20\n          add\n          0x00\n          keccak256\n            /* \"devs/TokenManager.sol\":2630:2680   */\n          swap1\n          pop\n            /* \"devs/TokenManager.sol\":2709:2716   */\n          dup3\n            /* \"devs/TokenManager.sol\":2690:2699   */\n          dup2\n            /* \"devs/TokenManager.sol\":2690:2706   */\n          0x03\n          add\n          0x00\n            /* \"devs/TokenManager.sol\":2690:2716   */\n          0x0100\n          exp\n          dup2\n          sload\n          dup2\n          0xffffffffffffffffffffffffffffffffffffffff\n          mul\n          not\n          and\n          swap1\n          dup4\n          0xffffffffffffffffffffffffffffffffffffffff\n          and\n          mul\n          or\n          swap1\n          sstore\n          pop\n            /* \"devs/TokenManager.sol\":2620:2723   */\n          pop\n            /* \"devs/TokenManager.sol\":2527:2723   */\n          pop\n          pop\n          pop\n          jump\t// out\n            /* \"devs/TokenManager.sol\":2729:2919   */\n        tag_57:\n            /* \"devs/TokenManager.sol\":2783:2791   */\n          dup1\n            /* \"devs/TokenManager.sol\":1195:1207   */\n          sload(0x02)\n            /* \"devs/TokenManager.sol\":1185:1192   */\n          dup2\n            /* \"devs/TokenManager.sol\":1185:1207   */\n          lt\n            /* \"devs/TokenManager.sol\":1177:1208   */\n          tag_84\n          jumpi\n          0x00\n          dup1\n          revert\n        tag_84:\n            /* \"devs/TokenManager.sol\":1098:1108   */\n          caller\n            /* \"devs/TokenManager.sol\":1079:1108   */\n          0xffffffffffffffffffffffffffffffffffffffff\n          and\n            /* \"devs/TokenManager.sol\":1079:1094   */\n          0x01\n          0x00\n          swap1\n          sload\n          swap1\n          0x0100\n          exp\n          swap1\n          div\n          0xffffffffffffffffffffffffffffffffffffffff\n          and\n            /* \"devs/TokenManager.sol\":1079:1108   */\n          0xffffffffffffffffffffffffffffffffffffffff\n          and\n          eq\n            /* \"devs/TokenManager.sol\":1071:1109   */\n          tag_86\n          jumpi\n          0x00\n          dup1\n          revert\n        tag_86:\n            /* \"devs/TokenManager.sol\":2813:2840   */\n          0x00\n            /* \"devs/TokenManager.sol\":2843:2853   */\n          0x03\n            /* \"devs/TokenManager.sol\":2843:2863   */\n          0x00\n            /* \"devs/TokenManager.sol\":2854:2862   */\n          dup5\n            /* \"devs/TokenManager.sol\":2843:2863   */\n          dup2\n          mstore\n          0x20\n          add\n          swap1\n          dup2\n          mstore\n          0x20\n          add\n          0x00\n          keccak256\n            /* \"devs/TokenManager.sol\":2813:2863   */\n          swap1\n          pop\n            /* \"devs/TokenManager.sol\":2873:2912   */\n          tag_88\n            /* \"devs/TokenManager.sol\":2886:2894   */\n          dup4\n            /* \"devs/TokenManager.sol\":2896:2905   */\n          dup3\n            /* \"devs/TokenManager.sol\":2896:2911   */\n          0x01\n          add\n          0x00\n          swap1\n          sload\n          swap1\n          0x0100\n          exp\n          swap1\n          div\n          0xffffffffffffffffffffffffffffffffffffffff\n          and\n            /* \"devs/TokenManager.sol\":2873:2885   */\n          tag_54\n            /* \"devs/TokenManager.sol\":2873:2912   */\n          jump\t// in\n        tag_88:\n            /* \"devs/TokenManager.sol\":2803:2919   */\n          pop\n            /* \"devs/TokenManager.sol\":2729:2919   */\n          pop\n          pop\n          jump\t// out\n            /* \"devs/TokenManager.sol\":2056:2270   */\n        tag_61:\n            /* \"devs/TokenManager.sol\":2138:2146   */\n          dup2\n            /* \"devs/TokenManager.sol\":1195:1207   */\n          sload(0x02)\n            /* \"devs/TokenManager.sol\":1185:1192   */\n          dup2\n            /* \"devs/TokenManager.sol\":1185:1207   */\n          lt\n            /* \"devs/TokenManager.sol\":1177:1208   */\n          tag_90\n          jumpi\n          0x00\n          dup1\n          revert\n        tag_90:\n            /* \"devs/TokenManager.sol\":1098:1108   */\n          caller\n            /* \"devs/TokenManager.sol\":1079:1108   */\n          0xffffffffffffffffffffffffffffffffffffffff\n          and\n            /* \"devs/TokenManager.sol\":1079:1094   */\n          0x01\n          0x00\n          swap1\n          sload\n          swap1\n          0x0100\n          exp\n          swap1\n          div\n          0xffffffffffffffffffffffffffffffffffffffff\n          and\n            /* \"devs/TokenManager.sol\":1079:1108   */\n          0xffffffffffffffffffffffffffffffffffffffff\n          and\n          eq\n            /* \"devs/TokenManager.sol\":1071:1109   */\n          tag_92\n          jumpi\n          0x00\n          dup1\n          revert\n        tag_92:\n            /* \"devs/TokenManager.sol\":2168:2195   */\n          0x00\n            /* \"devs/TokenManager.sol\":2198:2208   */\n          0x03\n            /* \"devs/TokenManager.sol\":2198:2218   */\n          0x00\n            /* \"devs/TokenManager.sol\":2209:2217   */\n          dup6\n            /* \"devs/TokenManager.sol\":2198:2218   */\n          dup2\n          mstore\n          0x20\n          add\n          swap1\n          dup2\n          mstore\n          0x20\n          add\n          0x00\n          keccak256\n            /* \"devs/TokenManager.sol\":2168:2218   */\n          swap1\n          pop\n            /* \"devs/TokenManager.sol\":2256:2263   */\n          dup3\n            /* \"devs/TokenManager.sol\":2228:2237   */\n          dup2\n            /* \"devs/TokenManager.sol\":2228:2253   */\n          0x03\n          add\n          0x14\n            /* \"devs/TokenManager.sol\":2228:2263   */\n          0x0100\n          exp\n          dup2\n          sload\n          dup2\n          0xff\n          mul\n          not\n          and\n          swap1\n          dup4\n          iszero\n          iszero\n          mul\n          or\n          swap1\n          sstore\n          pop\n            /* \"devs/TokenManager.sol\":2158:2270   */\n          pop\n            /* \"devs/TokenManager.sol\":2056:2270   */\n          pop\n          pop\n          pop\n          jump\t// out\n            /* \"devs/TokenManager.sol\":922:952   */\n        tag_63:\n          0x01\n          0x00\n          swap1\n          sload\n          swap1\n          0x0100\n          exp\n          swap1\n          div\n          0xffffffffffffffffffffffffffffffffffffffff\n          and\n          dup2\n          jump\t// out\n            /* \"#utility.yul\":88:205   */\n        tag_95:\n            /* \"#utility.yul\":197:198   */\n          0x00\n            /* \"#utility.yul\":194:195   */\n          dup1\n            /* \"#utility.yul\":187:199   */\n          revert\n            /* \"#utility.yul\":334:411   */\n        tag_97:\n            /* \"#utility.yul\":371:378   */\n          0x00\n            /* \"#utility.yul\":400:405   */\n          dup2\n            /* \"#utility.yul\":389:405   */\n          swap1\n          pop\n            /* \"#utility.yul\":334:411   */\n          swap2\n          swap1\n          pop\n          jump\t// out\n            /* \"#utility.yul\":417:539   */\n        tag_98:\n            /* \"#utility.yul\":490:514   */\n          tag_117\n            /* \"#utility.yul\":508:513   */\n          dup2\n            /* \"#utility.yul\":490:514   */\n          tag_97\n          jump\t// in\n        tag_117:\n            /* \"#utility.yul\":483:488   */\n          dup2\n            /* \"#utility.yul\":480:515   */\n          eq\n            /* \"#utility.yul\":470:533   */\n          tag_118\n          jumpi\n            /* \"#utility.yul\":529:530   */\n          0x00\n            /* \"#utility.yul\":526:527   */\n          dup1\n            /* \"#utility.yul\":519:531   */\n          revert\n            /* \"#utility.yul\":470:533   */\n        tag_118:\n            /* \"#utility.yul\":417:539   */\n          pop\n          jump\t// out\n            /* \"#utility.yul\":545:684   */\n        tag_99:\n            /* \"#utility.yul\":591:596   */\n          0x00\n            /* \"#utility.yul\":629:635   */\n          dup2\n            /* \"#utility.yul\":616:636   */\n          calldataload\n            /* \"#utility.yul\":607:636   */\n          swap1\n          pop\n            /* \"#utility.yul\":645:678   */\n          tag_120\n            /* \"#utility.yul\":672:677   */\n          dup2\n            /* \"#utility.yul\":645:678   */\n          tag_98\n          jump\t// in\n        tag_120:\n            /* \"#utility.yul\":545:684   */\n          swap3\n          swap2\n          pop\n          pop\n          jump\t// out\n            /* \"#utility.yul\":690:1019   */\n        tag_18:\n            /* \"#utility.yul\":749:755   */\n          0x00\n            /* \"#utility.yul\":798:800   */\n          0x20\n            /* \"#utility.yul\":786:795   */\n          dup3\n            /* \"#utility.yul\":777:784   */\n          dup5\n            /* \"#utility.yul\":773:796   */\n          sub\n            /* \"#utility.yul\":769:801   */\n          slt\n            /* \"#utility.yul\":766:885   */\n          iszero\n          tag_122\n          jumpi\n            /* \"#utility.yul\":804:883   */\n          tag_123\n          tag_95\n          jump\t// in\n        tag_123:\n            /* \"#utility.yul\":766:885   */\n        tag_122:\n            /* \"#utility.yul\":924:925   */\n          0x00\n            /* \"#utility.yul\":949:1002   */\n          tag_124\n            /* \"#utility.yul\":994:1001   */\n          dup5\n            /* \"#utility.yul\":985:991   */\n          dup3\n            /* \"#utility.yul\":974:983   */\n          dup6\n            /* \"#utility.yul\":970:992   */\n          add\n            /* \"#utility.yul\":949:1002   */\n          tag_99\n          jump\t// in\n        tag_124:\n            /* \"#utility.yul\":939:1002   */\n          swap2\n          pop\n            /* \"#utility.yul\":895:1012   */\n          pop\n            /* \"#utility.yul\":690:1019   */\n          swap3\n          swap2\n          pop\n          pop\n          jump\t// out\n            /* \"#utility.yul\":1025:1143   */\n        tag_100:\n            /* \"#utility.yul\":1112:1136   */\n          tag_126\n            /* \"#utility.yul\":1130:1135   */\n          dup2\n            /* \"#utility.yul\":1112:1136   */\n          tag_97\n          jump\t// in\n        tag_126:\n            /* \"#utility.yul\":1107:1110   */\n          dup3\n            /* \"#utility.yul\":1100:1137   */\n          mstore\n            /* \"#utility.yul\":1025:1143   */\n          pop\n          pop\n          jump\t// out\n            /* \"#utility.yul\":1149:1371   */\n        tag_21:\n            /* \"#utility.yul\":1242:1246   */\n          0x00\n            /* \"#utility.yul\":1280:1282   */\n          0x20\n            /* \"#utility.yul\":1269:1278   */\n          dup3\n            /* \"#utility.yul\":1265:1283   */\n          add\n            /* \"#utility.yul\":1257:1283   */\n          swap1\n          pop\n            /* \"#utility.yul\":1293:1364   */\n          tag_128\n            /* \"#utility.yul\":1361:1362   */\n          0x00\n            /* \"#utility.yul\":1350:1359   */\n          dup4\n            /* \"#utility.yul\":1346:1363   */\n          add\n            /* \"#utility.yul\":1337:1343   */\n          dup5\n            /* \"#utility.yul\":1293:1364   */\n          tag_100\n          jump\t// in\n        tag_128:\n            /* \"#utility.yul\":1149:1371   */\n          swap3\n          swap2\n          pop\n          pop\n          jump\t// out\n            /* \"#utility.yul\":1377:1503   */\n        tag_101:\n            /* \"#utility.yul\":1414:1421   */\n          0x00\n            /* \"#utility.yul\":1454:1496   */\n          0xffffffffffffffffffffffffffffffffffffffff\n            /* \"#utility.yul\":1447:1452   */\n          dup3\n            /* \"#utility.yul\":1443:1497   */\n          and\n            /* \"#utility.yul\":1432:1497   */\n          swap1\n          pop\n            /* \"#utility.yul\":1377:1503   */\n          swap2\n          swap1\n          pop\n          jump\t// out\n            /* \"#utility.yul\":1509:1605   */\n        tag_102:\n            /* \"#utility.yul\":1546:1553   */\n          0x00\n            /* \"#utility.yul\":1575:1599   */\n          tag_131\n            /* \"#utility.yul\":1593:1598   */\n          dup3\n            /* \"#utility.yul\":1575:1599   */\n          tag_101\n          jump\t// in\n        tag_131:\n            /* \"#utility.yul\":1564:1599   */\n          swap1\n          pop\n            /* \"#utility.yul\":1509:1605   */\n          swap2\n          swap1\n          pop\n          jump\t// out\n            /* \"#utility.yul\":1611:1729   */\n        tag_103:\n            /* \"#utility.yul\":1698:1722   */\n          tag_133\n            /* \"#utility.yul\":1716:1721   */\n          dup2\n            /* \"#utility.yul\":1698:1722   */\n          tag_102\n          jump\t// in\n        tag_133:\n            /* \"#utility.yul\":1693:1696   */\n          dup3\n            /* \"#utility.yul\":1686:1723   */\n          mstore\n            /* \"#utility.yul\":1611:1729   */\n          pop\n          pop\n          jump\t// out\n            /* \"#utility.yul\":1735:1957   */\n        tag_26:\n            /* \"#utility.yul\":1828:1832   */\n          0x00\n            /* \"#utility.yul\":1866:1868   */\n          0x20\n            /* \"#utility.yul\":1855:1864   */\n          dup3\n            /* \"#utility.yul\":1851:1869   */\n          add\n            /* \"#utility.yul\":1843:1869   */\n          swap1\n          pop\n            /* \"#utility.yul\":1879:1950   */\n          tag_135\n            /* \"#utility.yul\":1947:1948   */\n          0x00\n            /* \"#utility.yul\":1936:1945   */\n          dup4\n            /* \"#utility.yul\":1932:1949   */\n          add\n            /* \"#utility.yul\":1923:1929   */\n          dup5\n            /* \"#utility.yul\":1879:1950   */\n          tag_103\n          jump\t// in\n        tag_135:\n            /* \"#utility.yul\":1735:1957   */\n          swap3\n          swap2\n          pop\n          pop\n          jump\t// out\n            /* \"#utility.yul\":1963:2053   */\n        tag_104:\n            /* \"#utility.yul\":1997:2004   */\n          0x00\n            /* \"#utility.yul\":2040:2045   */\n          dup2\n            /* \"#utility.yul\":2033:2046   */\n          iszero\n            /* \"#utility.yul\":2026:2047   */\n          iszero\n            /* \"#utility.yul\":2015:2047   */\n          swap1\n          pop\n            /* \"#utility.yul\":1963:2053   */\n          swap2\n          swap1\n          pop\n          jump\t// out\n            /* \"#utility.yul\":2059:2168   */\n        tag_105:\n            /* \"#utility.yul\":2140:2161   */\n          tag_138\n            /* \"#utility.yul\":2155:2160   */\n          dup2\n            /* \"#utility.yul\":2140:2161   */\n          tag_104\n          jump\t// in\n        tag_138:\n            /* \"#utility.yul\":2135:2138   */\n          dup3\n            /* \"#utility.yul\":2128:2162   */\n          mstore\n            /* \"#utility.yul\":2059:2168   */\n          pop\n          pop\n          jump\t// out\n            /* \"#utility.yul\":2174:3048   */\n        tag_35:\n            /* \"#utility.yul\":2429:2433   */\n          0x00\n            /* \"#utility.yul\":2467:2470   */\n          0xe0\n            /* \"#utility.yul\":2456:2465   */\n          dup3\n            /* \"#utility.yul\":2452:2471   */\n          add\n            /* \"#utility.yul\":2444:2471   */\n          swap1\n          pop\n            /* \"#utility.yul\":2481:2552   */\n          tag_140\n            /* \"#utility.yul\":2549:2550   */\n          0x00\n            /* \"#utility.yul\":2538:2547   */\n          dup4\n            /* \"#utility.yul\":2534:2551   */\n          add\n            /* \"#utility.yul\":2525:2531   */\n          dup11\n            /* \"#utility.yul\":2481:2552   */\n          tag_100\n          jump\t// in\n        tag_140:\n            /* \"#utility.yul\":2562:2634   */\n          tag_141\n            /* \"#utility.yul\":2630:2632   */\n          0x20\n            /* \"#utility.yul\":2619:2628   */\n          dup4\n            /* \"#utility.yul\":2615:2633   */\n          add\n            /* \"#utility.yul\":2606:2612   */\n          dup10\n            /* \"#utility.yul\":2562:2634   */\n          tag_103\n          jump\t// in\n        tag_141:\n            /* \"#utility.yul\":2644:2716   */\n          tag_142\n            /* \"#utility.yul\":2712:2714   */\n          0x40\n            /* \"#utility.yul\":2701:2710   */\n          dup4\n            /* \"#utility.yul\":2697:2715   */\n          add\n            /* \"#utility.yul\":2688:2694   */\n          dup9\n            /* \"#utility.yul\":2644:2716   */\n          tag_100\n          jump\t// in\n        tag_142:\n            /* \"#utility.yul\":2726:2798   */\n          tag_143\n            /* \"#utility.yul\":2794:2796   */\n          0x60\n            /* \"#utility.yul\":2783:2792   */\n          dup4\n            /* \"#utility.yul\":2779:2797   */\n          add\n            /* \"#utility.yul\":2770:2776   */\n          dup8\n            /* \"#utility.yul\":2726:2798   */\n          tag_103\n          jump\t// in\n        tag_143:\n            /* \"#utility.yul\":2808:2875   */\n          tag_144\n            /* \"#utility.yul\":2870:2873   */\n          0x80\n            /* \"#utility.yul\":2859:2868   */\n          dup4\n            /* \"#utility.yul\":2855:2874   */\n          add\n            /* \"#utility.yul\":2846:2852   */\n          dup7\n            /* \"#utility.yul\":2808:2875   */\n          tag_105\n          jump\t// in\n        tag_144:\n            /* \"#utility.yul\":2885:2958   */\n          tag_145\n            /* \"#utility.yul\":2953:2956   */\n          0xa0\n            /* \"#utility.yul\":2942:2951   */\n          dup4\n            /* \"#utility.yul\":2938:2957   */\n          add\n            /* \"#utility.yul\":2929:2935   */\n          dup6\n            /* \"#utility.yul\":2885:2958   */\n          tag_100\n          jump\t// in\n        tag_145:\n            /* \"#utility.yul\":2968:3041   */\n          tag_146\n            /* \"#utility.yul\":3036:3039   */\n          0xc0\n            /* \"#utility.yul\":3025:3034   */\n          dup4\n            /* \"#utility.yul\":3021:3040   */\n          add\n            /* \"#utility.yul\":3012:3018   */\n          dup5\n            /* \"#utility.yul\":2968:3041   */\n          tag_100\n          jump\t// in\n        tag_146:\n            /* \"#utility.yul\":2174:3048   */\n          swap9\n          swap8\n          pop\n          pop\n          pop\n          pop\n          pop\n          pop\n          pop\n          pop\n          jump\t// out\n            /* \"#utility.yul\":3054:3673   */\n        tag_41:\n            /* \"#utility.yul\":3131:3137   */\n          0x00\n            /* \"#utility.yul\":3139:3145   */\n          dup1\n            /* \"#utility.yul\":3147:3153   */\n          0x00\n            /* \"#utility.yul\":3196:3198   */\n          0x60\n            /* \"#utility.yul\":3184:3193   */\n          dup5\n            /* \"#utility.yul\":3175:3182   */\n          dup7\n            /* \"#utility.yul\":3171:3194   */\n          sub\n            /* \"#utility.yul\":3167:3199   */\n          slt\n            /* \"#utility.yul\":3164:3283   */\n          iszero\n          tag_148\n          jumpi\n            /* \"#utility.yul\":3202:3281   */\n          tag_149\n          tag_95\n          jump\t// in\n        tag_149:\n            /* \"#utility.yul\":3164:3283   */\n        tag_148:\n            /* \"#utility.yul\":3322:3323   */\n          0x00\n            /* \"#utility.yul\":3347:3400   */\n          tag_150\n            /* \"#utility.yul\":3392:3399   */\n          dup7\n            /* \"#utility.yul\":3383:3389   */\n          dup3\n            /* \"#utility.yul\":3372:3381   */\n          dup8\n            /* \"#utility.yul\":3368:3390   */\n          add\n            /* \"#utility.yul\":3347:3400   */\n          tag_99\n          jump\t// in\n        tag_150:\n            /* \"#utility.yul\":3337:3400   */\n          swap4\n          pop\n            /* \"#utility.yul\":3293:3410   */\n          pop\n            /* \"#utility.yul\":3449:3451   */\n          0x20\n            /* \"#utility.yul\":3475:3528   */\n          tag_151\n            /* \"#utility.yul\":3520:3527   */\n          dup7\n            /* \"#utility.yul\":3511:3517   */\n          dup3\n            /* \"#utility.yul\":3500:3509   */\n          dup8\n            /* \"#utility.yul\":3496:3518   */\n          add\n            /* \"#utility.yul\":3475:3528   */\n          tag_99\n          jump\t// in\n        tag_151:\n            /* \"#utility.yul\":3465:3528   */\n          swap3\n          pop\n            /* \"#utility.yul\":3420:3538   */\n          pop\n            /* \"#utility.yul\":3577:3579   */\n          0x40\n            /* \"#utility.yul\":3603:3656   */\n          tag_152\n            /* \"#utility.yul\":3648:3655   */\n          dup7\n            /* \"#utility.yul\":3639:3645   */\n          dup3\n            /* \"#utility.yul\":3628:3637   */\n          dup8\n            /* \"#utility.yul\":3624:3646   */\n          add\n            /* \"#utility.yul\":3603:3656   */\n          tag_99\n          jump\t// in\n        tag_152:\n            /* \"#utility.yul\":3593:3656   */\n          swap2\n          pop\n            /* \"#utility.yul\":3548:3666   */\n          pop\n            /* \"#utility.yul\":3054:3673   */\n          swap3\n          pop\n          swap3\n          pop\n          swap3\n          jump\t// out\n            /* \"#utility.yul\":3679:3801   */\n        tag_106:\n            /* \"#utility.yul\":3752:3776   */\n          tag_154\n            /* \"#utility.yul\":3770:3775   */\n          dup2\n            /* \"#utility.yul\":3752:3776   */\n          tag_102\n          jump\t// in\n        tag_154:\n            /* \"#utility.yul\":3745:3750   */\n          dup2\n            /* \"#utility.yul\":3742:3777   */\n          eq\n            /* \"#utility.yul\":3732:3795   */\n          tag_155\n          jumpi\n            /* \"#utility.yul\":3791:3792   */\n          0x00\n            /* \"#utility.yul\":3788:3789   */\n          dup1\n            /* \"#utility.yul\":3781:3793   */\n          revert\n            /* \"#utility.yul\":3732:3795   */\n        tag_155:\n            /* \"#utility.yul\":3679:3801   */\n          pop\n          jump\t// out\n            /* \"#utility.yul\":3807:3946   */\n        tag_107:\n            /* \"#utility.yul\":3853:3858   */\n          0x00\n            /* \"#utility.yul\":3891:3897   */\n          dup2\n            /* \"#utility.yul\":3878:3898   */\n          calldataload\n            /* \"#utility.yul\":3869:3898   */\n          swap1\n          pop\n            /* \"#utility.yul\":3907:3940   */\n          tag_157\n            /* \"#utility.yul\":3934:3939   */\n          dup2\n            /* \"#utility.yul\":3907:3940   */\n          tag_106\n          jump\t// in\n        tag_157:\n            /* \"#utility.yul\":3807:3946   */\n          swap3\n          swap2\n          pop\n          pop\n          jump\t// out\n            /* \"#utility.yul\":3952:4717   */\n        tag_48:\n            /* \"#utility.yul\":4038:4044   */\n          0x00\n            /* \"#utility.yul\":4046:4052   */\n          dup1\n            /* \"#utility.yul\":4054:4060   */\n          0x00\n            /* \"#utility.yul\":4062:4068   */\n          dup1\n            /* \"#utility.yul\":4111:4114   */\n          0x80\n            /* \"#utility.yul\":4099:4108   */\n          dup6\n            /* \"#utility.yul\":4090:4097   */\n          dup8\n            /* \"#utility.yul\":4086:4109   */\n          sub\n            /* \"#utility.yul\":4082:4115   */\n          slt\n            /* \"#utility.yul\":4079:4199   */\n          iszero\n          tag_159\n          jumpi\n            /* \"#utility.yul\":4118:4197   */\n          tag_160\n          tag_95\n          jump\t// in\n        tag_160:\n            /* \"#utility.yul\":4079:4199   */\n        tag_159:\n            /* \"#utility.yul\":4238:4239   */\n          0x00\n            /* \"#utility.yul\":4263:4316   */\n          tag_161\n            /* \"#utility.yul\":4308:4315   */\n          dup8\n            /* \"#utility.yul\":4299:4305   */\n          dup3\n            /* \"#utility.yul\":4288:4297   */\n          dup9\n            /* \"#utility.yul\":4284:4306   */\n          add\n            /* \"#utility.yul\":4263:4316   */\n          tag_107\n          jump\t// in\n        tag_161:\n            /* \"#utility.yul\":4253:4316   */\n          swap5\n          pop\n            /* \"#utility.yul\":4209:4326   */\n          pop\n            /* \"#utility.yul\":4365:4367   */\n          0x20\n            /* \"#utility.yul\":4391:4444   */\n          tag_162\n            /* \"#utility.yul\":4436:4443   */\n          dup8\n            /* \"#utility.yul\":4427:4433   */\n          dup3\n            /* \"#utility.yul\":4416:4425   */\n          dup9\n            /* \"#utility.yul\":4412:4434   */\n          add\n            /* \"#utility.yul\":4391:4444   */\n          tag_99\n          jump\t// in\n        tag_162:\n            /* \"#utility.yul\":4381:4444   */\n          swap4\n          pop\n            /* \"#utility.yul\":4336:4454   */\n          pop\n            /* \"#utility.yul\":4493:4495   */\n          0x40\n            /* \"#utility.yul\":4519:4572   */\n          tag_163\n            /* \"#utility.yul\":4564:4571   */\n          dup8\n            /* \"#utility.yul\":4555:4561   */\n          dup3\n            /* \"#utility.yul\":4544:4553   */\n          dup9\n            /* \"#utility.yul\":4540:4562   */\n          add\n            /* \"#utility.yul\":4519:4572   */\n          tag_99\n          jump\t// in\n        tag_163:\n            /* \"#utility.yul\":4509:4572   */\n          swap3\n          pop\n            /* \"#utility.yul\":4464:4582   */\n          pop\n            /* \"#utility.yul\":4621:4623   */\n          0x60\n            /* \"#utility.yul\":4647:4700   */\n          tag_164\n            /* \"#utility.yul\":4692:4699   */\n          dup8\n            /* \"#utility.yul\":4683:4689   */\n          dup3\n            /* \"#utility.yul\":4672:4681   */\n          dup9\n            /* \"#utility.yul\":4668:4690   */\n          add\n            /* \"#utility.yul\":4647:4700   */\n          tag_99\n          jump\t// in\n        tag_164:\n            /* \"#utility.yul\":4637:4700   */\n          swap2\n          pop\n            /* \"#utility.yul\":4592:4710   */\n          pop\n            /* \"#utility.yul\":3952:4717   */\n          swap3\n          swap6\n          swap2\n          swap5\n          pop\n          swap3\n          pop\n          jump\t// out\n            /* \"#utility.yul\":4723:5197   */\n        tag_53:\n            /* \"#utility.yul\":4791:4797   */\n          0x00\n            /* \"#utility.yul\":4799:4805   */\n          dup1\n            /* \"#utility.yul\":4848:4850   */\n          0x40\n            /* \"#utility.yul\":4836:4845   */\n          dup4\n            /* \"#utility.yul\":4827:4834   */\n          dup6\n            /* \"#utility.yul\":4823:4846   */\n          sub\n            /* \"#utility.yul\":4819:4851   */\n          slt\n            /* \"#utility.yul\":4816:4935   */\n          iszero\n          tag_166\n          jumpi\n            /* \"#utility.yul\":4854:4933   */\n          tag_167\n          tag_95\n          jump\t// in\n        tag_167:\n            /* \"#utility.yul\":4816:4935   */\n        tag_166:\n            /* \"#utility.yul\":4974:4975   */\n          0x00\n            /* \"#utility.yul\":4999:5052   */\n          tag_168\n            /* \"#utility.yul\":5044:5051   */\n          dup6\n            /* \"#utility.yul\":5035:5041   */\n          dup3\n            /* \"#utility.yul\":5024:5033   */\n          dup7\n            /* \"#utility.yul\":5020:5042   */\n          add\n            /* \"#utility.yul\":4999:5052   */\n          tag_99\n          jump\t// in\n        tag_168:\n            /* \"#utility.yul\":4989:5052   */\n          swap3\n          pop\n            /* \"#utility.yul\":4945:5062   */\n          pop\n            /* \"#utility.yul\":5101:5103   */\n          0x20\n            /* \"#utility.yul\":5127:5180   */\n          tag_169\n            /* \"#utility.yul\":5172:5179   */\n          dup6\n            /* \"#utility.yul\":5163:5169   */\n          dup3\n            /* \"#utility.yul\":5152:5161   */\n          dup7\n            /* \"#utility.yul\":5148:5170   */\n          add\n            /* \"#utility.yul\":5127:5180   */\n          tag_107\n          jump\t// in\n        tag_169:\n            /* \"#utility.yul\":5117:5180   */\n          swap2\n          pop\n            /* \"#utility.yul\":5072:5190   */\n          pop\n            /* \"#utility.yul\":4723:5197   */\n          swap3\n          pop\n          swap3\n          swap1\n          pop\n          jump\t// out\n            /* \"#utility.yul\":5203:5319   */\n        tag_108:\n            /* \"#utility.yul\":5273:5294   */\n          tag_171\n            /* \"#utility.yul\":5288:5293   */\n          dup2\n            /* \"#utility.yul\":5273:5294   */\n          tag_104\n          jump\t// in\n        tag_171:\n            /* \"#utility.yul\":5266:5271   */\n          dup2\n            /* \"#utility.yul\":5263:5295   */\n          eq\n            /* \"#utility.yul\":5253:5313   */\n          tag_172\n          jumpi\n            /* \"#utility.yul\":5309:5310   */\n          0x00\n            /* \"#utility.yul\":5306:5307   */\n          dup1\n            /* \"#utility.yul\":5299:5311   */\n          revert\n            /* \"#utility.yul\":5253:5313   */\n        tag_172:\n            /* \"#utility.yul\":5203:5319   */\n          pop\n          jump\t// out\n            /* \"#utility.yul\":5325:5458   */\n        tag_109:\n            /* \"#utility.yul\":5368:5373   */\n          0x00\n            /* \"#utility.yul\":5406:5412   */\n          dup2\n            /* \"#utility.yul\":5393:5413   */\n          calldataload\n            /* \"#utility.yul\":5384:5413   */\n          swap1\n          pop\n            /* \"#utility.yul\":5422:5452   */\n          tag_174\n            /* \"#utility.yul\":5446:5451   */\n          dup2\n            /* \"#utility.yul\":5422:5452   */\n          tag_108\n          jump\t// in\n        tag_174:\n            /* \"#utility.yul\":5325:5458   */\n          swap3\n          swap2\n          pop\n          pop\n          jump\t// out\n            /* \"#utility.yul\":5464:5932   */\n        tag_60:\n            /* \"#utility.yul\":5529:5535   */\n          0x00\n            /* \"#utility.yul\":5537:5543   */\n          dup1\n            /* \"#utility.yul\":5586:5588   */\n          0x40\n            /* \"#utility.yul\":5574:5583   */\n          dup4\n            /* \"#utility.yul\":5565:5572   */\n          dup6\n            /* \"#utility.yul\":5561:5584   */\n          sub\n            /* \"#utility.yul\":5557:5589   */\n          slt\n            /* \"#utility.yul\":5554:5673   */\n          iszero\n          tag_176\n          jumpi\n            /* \"#utility.yul\":5592:5671   */\n          tag_177\n          tag_95\n          jump\t// in\n        tag_177:\n            /* \"#utility.yul\":5554:5673   */\n        tag_176:\n            /* \"#utility.yul\":5712:5713   */\n          0x00\n            /* \"#utility.yul\":5737:5790   */\n          tag_178\n            /* \"#utility.yul\":5782:5789   */\n          dup6\n            /* \"#utility.yul\":5773:5779   */\n          dup3\n            /* \"#utility.yul\":5762:5771   */\n          dup7\n            /* \"#utility.yul\":5758:5780   */\n          add\n            /* \"#utility.yul\":5737:5790   */\n          tag_99\n          jump\t// in\n        tag_178:\n            /* \"#utility.yul\":5727:5790   */\n          swap3\n          pop\n            /* \"#utility.yul\":5683:5800   */\n          pop\n            /* \"#utility.yul\":5839:5841   */\n          0x20\n            /* \"#utility.yul\":5865:5915   */\n          tag_179\n            /* \"#utility.yul\":5907:5914   */\n          dup6\n            /* \"#utility.yul\":5898:5904   */\n          dup3\n            /* \"#utility.yul\":5887:5896   */\n          dup7\n            /* \"#utility.yul\":5883:5905   */\n          add\n            /* \"#utility.yul\":5865:5915   */\n          tag_109\n          jump\t// in\n        tag_179:\n            /* \"#utility.yul\":5855:5915   */\n          swap2\n          pop\n            /* \"#utility.yul\":5810:5925   */\n          pop\n            /* \"#utility.yul\":5464:5932   */\n          swap3\n          pop\n          swap3\n          swap1\n          pop\n          jump\t// out\n            /* \"#utility.yul\":5938:6118   */\n        tag_110:\n            /* \"#utility.yul\":5986:6063   */\n          0x4e487b7100000000000000000000000000000000000000000000000000000000\n            /* \"#utility.yul\":5983:5984   */\n          0x00\n            /* \"#utility.yul\":5976:6064   */\n          mstore\n            /* \"#utility.yul\":6083:6087   */\n          0x11\n            /* \"#utility.yul\":6080:6081   */\n          0x04\n            /* \"#utility.yul\":6073:6088   */\n          mstore\n            /* \"#utility.yul\":6107:6111   */\n          0x24\n            /* \"#utility.yul\":6104:6105   */\n          0x00\n            /* \"#utility.yul\":6097:6112   */\n          revert\n            /* \"#utility.yul\":6124:6357   */\n        tag_77:\n            /* \"#utility.yul\":6163:6166   */\n          0x00\n            /* \"#utility.yul\":6186:6210   */\n          tag_182\n            /* \"#utility.yul\":6204:6209   */\n          dup3\n            /* \"#utility.yul\":6186:6210   */\n          tag_97\n          jump\t// in\n        tag_182:\n            /* \"#utility.yul\":6177:6210   */\n          swap2\n          pop\n            /* \"#utility.yul\":6232:6298   */\n          0xffffffffffffffffffffffffffffffffffffffffffffffffffffffffffffffff\n            /* \"#utility.yul\":6225:6230   */\n          dup3\n            /* \"#utility.yul\":6222:6299   */\n          eq\n            /* \"#utility.yul\":6219:6322   */\n          iszero\n          tag_183\n          jumpi\n            /* \"#utility.yul\":6302:6320   */\n          tag_184\n          tag_110\n          jump\t// in\n        tag_184:\n            /* \"#utility.yul\":6219:6322   */\n        tag_183:\n            /* \"#utility.yul\":6349:6350   */\n          0x01\n            /* \"#utility.yul\":6342:6347   */\n          dup3\n            /* \"#utility.yul\":6338:6351   */\n          add\n            /* \"#utility.yul\":6331:6351   */\n          swap1\n          pop\n            /* \"#utility.yul\":6124:6357   */\n          swap2\n          swap1\n          pop\n          jump\t// out\n\n        auxdata: 0xa2646970667358221220be57c9497222e4cafff449b5e92bcc2a3ffc5b2cc30f31b0faf34d8e97cacc4b64736f6c634300080a0033\n    }\n}\n","bytecode":{"linkReferences":{},"object":"60806040523480156200001157600080fd5b5060405162005109380380620051098339818101604052810190620000379190620004c1565b336000806101000a81548173ffffffffffffffffffffffffffffffffffffffff021916908373ffffffffffffffffffffffffffffffffffffffff16021790555060018060008060009054906101000a900473ffffffffffffffffffffffffffffffffffffffff1673ffffffffffffffffffffffffffffffffffffffff1673ffffffffffffffffffffffffffffffffffffffff16815260200190815260200160002060006101000a81548160ff02191690831515021790555060008054906101000a900473ffffffffffffffffffffffffffffffffffffffff166040516200011e9062000457565b6200012a919062000538565b604051809103906000f08015801562000147573d6000803e3d6000fd5b50600260006101000a81548173ffffffffffffffffffffffffffffffffffffffff021916908373ffffffffffffffffffffffffffffffffffffffff16021790555060008054906101000a900473ffffffffffffffffffffffffffffffffffffffff16604051620001b79062000465565b620001c3919062000538565b604051809103906000f080158015620001e0573d6000803e3d6000fd5b50600360006101000a81548173ffffffffffffffffffffffffffffffffffffffff021916908373ffffffffffffffffffffffffffffffffffffffff16021790555060008054906101000a900473ffffffffffffffffffffffffffffffffffffffff16604051620002509062000473565b6200025c919062000538565b604051809103906000f08015801562000279573d6000803e3d6000fd5b50600460006101000a81548173ffffffffffffffffffffffffffffffffffffffff021916908373ffffffffffffffffffffffffffffffffffffffff1602179055506005600260009054906101000a900473ffffffffffffffffffffffffffffffffffffffff169080600181540180825580915050600190039060005260206000200160009091909190916101000a81548173ffffffffffffffffffffffffffffffffffffffff021916908373ffffffffffffffffffffffffffffffffffffffff1602179055506005600360009054906101000a900473ffffffffffffffffffffffffffffffffffffffff169080600181540180825580915050600190039060005260206000200160009091909190916101000a81548173ffffffffffffffffffffffffffffffffffffffff021916908373ffffffffffffffffffffffffffffffffffffffff1602179055506005600460009054906101000a900473ffffffffffffffffffffffffffffffffffffffff169080600181540180825580915050600190039060005260206000200160009091909190916101000a81548173ffffffffffffffffffffffffffffffffffffffff021916908373ffffffffffffffffffffffffffffffffffffffff160217905550806006819055505062000555565b6112e48062001deb83390190565b61105580620030cf83390190565b610fe5806200412483390190565b600080fd5b6000819050919050565b6200049b8162000486565b8114620004a757600080fd5b50565b600081519050620004bb8162000490565b92915050565b600060208284031215620004da57620004d962000481565b5b6000620004ea84828501620004aa565b91505092915050565b600073ffffffffffffffffffffffffffffffffffffffff82169050919050565b60006200052082620004f3565b9050919050565b620005328162000513565b82525050565b60006020820190506200054f600083018462000527565b92915050565b61188680620005656000396000f3fe60806040526004361061009c5760003560e01c80638da5cb5b116100645780638da5cb5b1461015657806390272dff14610181578063c162d7da146101ac578063ca5140c9146101d7578063d2c07e2014610200578063fe69494b146102295761009c565b80631973db46146100a15780631aa3a008146100bd5780634f83158a146100d4578063687564ae146101115780637e490a9e1461013a575b600080fd5b6100bb60048036038101906100b69190611071565b610252565b005b3480156100c957600080fd5b506100d261056e565b005b3480156100e057600080fd5b506100fb60048036038101906100f69190611122565b6105fd565b604051610108919061116a565b60405180910390f35b34801561011d57600080fd5b50610138600480360381019061013391906112cb565b61061d565b005b610154600480360381019061014f919061136a565b6107b4565b005b34801561016257600080fd5b5061016b610ad6565b60405161017891906113a6565b60405180910390f35b34801561018d57600080fd5b50610196610afa565b6040516101a391906113d0565b60405180910390f35b3480156101b857600080fd5b506101c1610b00565b6040516101ce91906114a9565b60405180910390f35b3480156101e357600080fd5b506101fe60048036038101906101f9919061136a565b610be6565b005b34801561020c57600080fd5b50610227600480360381019061022291906114cb565b610e83565b005b34801561023557600080fd5b50610250600480360381019061024b9190611122565b610f75565b005b600360009054906101000a900473ffffffffffffffffffffffffffffffffffffffff1673ffffffffffffffffffffffffffffffffffffffff1663ecded204336040518263ffffffff1660e01b81526004016102ad91906113a6565b602060405180830381865afa1580156102ca573d6000803e3d6000fd5b505050506040513d601f19601f820116820180604052508101906102ee91906115aa565b6102f757600080fd5b6000600260009054906101000a900473ffffffffffffffffffffffffffffffffffffffff1673ffffffffffffffffffffffffffffffffffffffff16636c230eef856040518263ffffffff1660e01b815260040161035491906113d0565b602060405180830381865afa158015610371573d6000803e3d6000fd5b505050506040513d601f19601f8201168201806040525081019061039591906115ec565b90503481146103a357600080fd5b6000600460009054906101000a900473ffffffffffffffffffffffffffffffffffffffff1673ffffffffffffffffffffffffffffffffffffffff1663a46d8ac7338787876040518563ffffffff1660e01b81526004016104069493929190611619565b6020604051808303816000875af1158015610425573d6000803e3d6000fd5b505050506040513d601f19601f8201168201806040525081019061044991906115ec565b9050600360009054906101000a900473ffffffffffffffffffffffffffffffffffffffff1673ffffffffffffffffffffffffffffffffffffffff1663e597ef1233836040518363ffffffff1660e01b81526004016104a892919061165e565b600060405180830381600087803b1580156104c257600080fd5b505af11580156104d6573d6000803e3d6000fd5b50505050600260009054906101000a900473ffffffffffffffffffffffffffffffffffffffff1673ffffffffffffffffffffffffffffffffffffffff16630a6b2a25866040518263ffffffff1660e01b815260040161053591906113d0565b600060405180830381600087803b15801561054f57600080fd5b505af1158015610563573d6000803e3d6000fd5b505050505050505050565b600360009054906101000a900473ffffffffffffffffffffffffffffffffffffffff1673ffffffffffffffffffffffffffffffffffffffff16634420e486336040518263ffffffff1660e01b81526004016105c991906113a6565b600060405180830381600087803b1580156105e357600080fd5b505af11580156105f7573d6000803e3d6000fd5b50505050565b60016020528060005260406000206000915054906101000a900460ff1681565b3373ffffffffffffffffffffffffffffffffffffffff1660008054906101000a900473ffffffffffffffffffffffffffffffffffffffff1673ffffffffffffffffffffffffffffffffffffffff161461067557600080fd5b600260009054906101000a900473ffffffffffffffffffffffffffffffffffffffff1673ffffffffffffffffffffffffffffffffffffffff1663e71448a9856040518263ffffffff1660e01b81526004016106d0919061170f565b602060405180830381865afa1580156106ed573d6000803e3d6000fd5b505050506040513d601f19601f8201168201806040525081019061071191906115aa565b1561071b57600080fd5b600260009054906101000a900473ffffffffffffffffffffffffffffffffffffffff1673ffffffffffffffffffffffffffffffffffffffff1663687564ae858585856040518563ffffffff1660e01b815260040161077c9493929190611731565b600060405180830381600087803b15801561079657600080fd5b505af11580156107aa573d6000803e3d6000fd5b5050505050505050565b600360009054906101000a900473ffffffffffffffffffffffffffffffffffffffff1673ffffffffffffffffffffffffffffffffffffffff1663ecded204336040518263ffffffff1660e01b815260040161080f91906113a6565b602060405180830381865afa15801561082c573d6000803e3d6000fd5b505050506040513d601f19601f8201168201806040525081019061085091906115aa565b61085957600080fd5b6000600460009054906101000a900473ffffffffffffffffffffffffffffffffffffffff1673ffffffffffffffffffffffffffffffffffffffff16631ce06944836040518263ffffffff1660e01b81526004016108b691906113d0565b602060405180830381865afa1580156108d3573d6000803e3d6000fd5b505050506040513d601f19601f820116820180604052508101906108f791906115ec565b90506000600360009054906101000a900473ffffffffffffffffffffffffffffffffffffffff1673ffffffffffffffffffffffffffffffffffffffff166319aa98a3336040518263ffffffff1660e01b815260040161095691906113a6565b602060405180830381865afa158015610973573d6000803e3d6000fd5b505050506040513d601f19601f8201168201806040525081019061099791906115ec565b905060065481106109a757600080fd5b3482146109b357600080fd5b600460009054906101000a900473ffffffffffffffffffffffffffffffffffffffff1673ffffffffffffffffffffffffffffffffffffffff1663ab21a2be84336040518363ffffffff1660e01b8152600401610a10929190611784565b600060405180830381600087803b158015610a2a57600080fd5b505af1158015610a3e573d6000803e3d6000fd5b50505050600360009054906101000a900473ffffffffffffffffffffffffffffffffffffffff1673ffffffffffffffffffffffffffffffffffffffff1663a5a9c51833856040518363ffffffff1660e01b8152600401610a9f92919061165e565b600060405180830381600087803b158015610ab957600080fd5b505af1158015610acd573d6000803e3d6000fd5b50505050505050565b60008054906101000a900473ffffffffffffffffffffffffffffffffffffffff1681565b60065481565b60603373ffffffffffffffffffffffffffffffffffffffff1660008054906101000a900473ffffffffffffffffffffffffffffffffffffffff1673ffffffffffffffffffffffffffffffffffffffff1614610b5a57600080fd5b6005805480602002602001604051908101604052809291908181526020018280548015610bdc57602002820191906000526020600020905b8160009054906101000a900473ffffffffffffffffffffffffffffffffffffffff1673ffffffffffffffffffffffffffffffffffffffff1681526020019060010190808311610b92575b5050505050905090565b600360009054906101000a900473ffffffffffffffffffffffffffffffffffffffff1673ffffffffffffffffffffffffffffffffffffffff1663ecded204336040518263ffffffff1660e01b8152600401610c4191906113a6565b602060405180830381865afa158015610c5e573d6000803e3d6000fd5b505050506040513d601f19601f82011682018060405250810190610c8291906115aa565b610c8b57600080fd5b6000600460009054906101000a900473ffffffffffffffffffffffffffffffffffffffff1673ffffffffffffffffffffffffffffffffffffffff16633b2f7118836040518263ffffffff1660e01b8152600401610ce891906113d0565b602060405180830381865afa158015610d05573d6000803e3d6000fd5b505050506040513d601f19601f82011682018060405250810190610d2991906117c2565b90503373ffffffffffffffffffffffffffffffffffffffff168173ffffffffffffffffffffffffffffffffffffffff1614610d6357600080fd5b600460009054906101000a900473ffffffffffffffffffffffffffffffffffffffff1673ffffffffffffffffffffffffffffffffffffffff1663ca5140c9836040518263ffffffff1660e01b8152600401610dbe91906113d0565b600060405180830381600087803b158015610dd857600080fd5b505af1158015610dec573d6000803e3d6000fd5b50505050600360009054906101000a900473ffffffffffffffffffffffffffffffffffffffff1673ffffffffffffffffffffffffffffffffffffffff16634a09db4f33846040518363ffffffff1660e01b8152600401610e4d92919061165e565b600060405180830381600087803b158015610e6757600080fd5b505af1158015610e7b573d6000803e3d6000fd5b505050505050565b600160003373ffffffffffffffffffffffffffffffffffffffff1673ffffffffffffffffffffffffffffffffffffffff16815260200190815260200160002060009054906101000a900460ff16610ed957600080fd5b600260009054906101000a900473ffffffffffffffffffffffffffffffffffffffff1673ffffffffffffffffffffffffffffffffffffffff1663d2c07e2086868686866040518663ffffffff1660e01b8152600401610f3c9594939291906117ef565b600060405180830381600087803b158015610f5657600080fd5b505af1158015610f6a573d6000803e3d6000fd5b505050505050505050565b3373ffffffffffffffffffffffffffffffffffffffff1660008054906101000a900473ffffffffffffffffffffffffffffffffffffffff1673ffffffffffffffffffffffffffffffffffffffff1614610fcd57600080fd5b60018060008373ffffffffffffffffffffffffffffffffffffffff1673ffffffffffffffffffffffffffffffffffffffff16815260200190815260200160002060006101000a81548160ff02191690831515021790555050565b6000604051905090565b600080fd5b600080fd5b6000819050919050565b61104e8161103b565b811461105957600080fd5b50565b60008135905061106b81611045565b92915050565b60008060006060848603121561108a57611089611031565b5b60006110988682870161105c565b93505060206110a98682870161105c565b92505060406110ba8682870161105c565b9150509250925092565b600073ffffffffffffffffffffffffffffffffffffffff82169050919050565b60006110ef826110c4565b9050919050565b6110ff816110e4565b811461110a57600080fd5b50565b60008135905061111c816110f6565b92915050565b60006020828403121561113857611137611031565b5b60006111468482850161110d565b91505092915050565b60008115159050919050565b6111648161114f565b82525050565b600060208201905061117f600083018461115b565b92915050565b600080fd5b600080fd5b6000601f19601f8301169050919050565b7f4e487b7100000000000000000000000000000000000000000000000000000000600052604160045260246000fd5b6111d88261118f565b810181811067ffffffffffffffff821117156111f7576111f66111a0565b5b80604052505050565b600061120a611027565b905061121682826111cf565b919050565b600067ffffffffffffffff821115611236576112356111a0565b5b61123f8261118f565b9050602081019050919050565b82818337600083830152505050565b600061126e6112698461121b565b611200565b90508281526020810184848401111561128a5761128961118a565b5b61129584828561124c565b509392505050565b600082601f8301126112b2576112b1611185565b5b81356112c284826020860161125b565b91505092915050565b600080600080608085870312156112e5576112e4611031565b5b600085013567ffffffffffffffff81111561130357611302611036565b5b61130f8782880161129d565b945050602085013567ffffffffffffffff8111156113305761132f611036565b5b61133c8782880161129d565b935050604061134d8782880161105c565b925050606061135e8782880161110d565b91505092959194509250565b6000602082840312156113805761137f611031565b5b600061138e8482850161105c565b91505092915050565b6113a0816110e4565b82525050565b60006020820190506113bb6000830184611397565b92915050565b6113ca8161103b565b82525050565b60006020820190506113e560008301846113c1565b92915050565b600081519050919050565b600082825260208201905092915050565b6000819050602082019050919050565b611420816110e4565b82525050565b60006114328383611417565b60208301905092915050565b6000602082019050919050565b6000611456826113eb565b61146081856113f6565b935061146b83611407565b8060005b8381101561149c5781516114838882611426565b975061148e8361143e565b92505060018101905061146f565b5085935050505092915050565b600060208201905081810360008301526114c3818461144b565b905092915050565b600080600080600060a086880312156114e7576114e6611031565b5b60006114f58882890161105c565b955050602086013567ffffffffffffffff81111561151657611515611036565b5b6115228882890161129d565b945050604086013567ffffffffffffffff81111561154357611542611036565b5b61154f8882890161129d565b93505060606115608882890161105c565b92505060806115718882890161110d565b9150509295509295909350565b6115878161114f565b811461159257600080fd5b50565b6000815190506115a48161157e565b92915050565b6000602082840312156115c0576115bf611031565b5b60006115ce84828501611595565b91505092915050565b6000815190506115e681611045565b92915050565b60006020828403121561160257611601611031565b5b6000611610848285016115d7565b91505092915050565b600060808201905061162e6000830187611397565b61163b60208301866113c1565b61164860408301856113c1565b61165560608301846113c1565b95945050505050565b60006040820190506116736000830185611397565b61168060208301846113c1565b9392505050565b600081519050919050565b600082825260208201905092915050565b60005b838110156116c15780820151818401526020810190506116a6565b838111156116d0576000848401525b50505050565b60006116e182611687565b6116eb8185611692565b93506116fb8185602086016116a3565b6117048161118f565b840191505092915050565b6000602082019050818103600083015261172981846116d6565b905092915050565b6000608082019050818103600083015261174b81876116d6565b9050818103602083015261175f81866116d6565b905061176e60408301856113c1565b61177b6060830184611397565b95945050505050565b600060408201905061179960008301856113c1565b6117a66020830184611397565b9392505050565b6000815190506117bc816110f6565b92915050565b6000602082840312156117d8576117d7611031565b5b60006117e6848285016117ad565b91505092915050565b600060a08201905061180460008301886113c1565b818103602083015261181681876116d6565b9050818103604083015261182a81866116d6565b905061183960608301856113c1565b6118466080830184611397565b969550505050505056fea26469706673582212204be01aa1612b8295f44e2e25cc18e31453a26439927067fe7e340b5d8df77e9064736f6c634300080a003360806040523480156200001157600080fd5b50604051620012e4380380620012e4833981810160405281019062000037919062000129565b806000806101000a81548173ffffffffffffffffffffffffffffffffffffffff021916908373ffffffffffffffffffffffffffffffffffffffff16021790555033600160006101000a81548173ffffffffffffffffffffffffffffffffffffffff021916908373ffffffffffffffffffffffffffffffffffffffff160217905550506200015b565b600080fd5b600073ffffffffffffffffffffffffffffffffffffffff82169050919050565b6000620000f182620000c4565b9050919050565b6200010381620000e4565b81146200010f57600080fd5b50565b6000815190506200012381620000f8565b92915050565b600060208284031215620001425762000141620000bf565b5b6000620001528482850162000112565b91505092915050565b611179806200016b6000396000f3fe608060405234801561001057600080fd5b506004361061009e5760003560e01c806398fbce791161006657806398fbce7914610159578063d2c07e201461018d578063d9ff0cf1146101a9578063e71448a9146101dd578063f76ebe1c1461020d5761009e565b80630a6b2a25146100a35780631cb71ed5146100bf578063687564ae146100ef5780636c230eef1461010b5780638da5cb5b1461013b575b600080fd5b6100bd60048036038101906100b89190610b38565b61022b565b005b6100d960048036038101906100d49190610cab565b610260565b6040516100e69190610d0f565b60405180910390f35b61010960048036038101906101049190610d88565b610296565b005b61012560048036038101906101209190610b38565b6103e3565b6040516101329190610e36565b60405180910390f35b6101436105a1565b6040516101509190610e60565b60405180910390f35b610173600480360381019061016e9190610b38565b6105c5565b604051610184959493929190610f03565b60405180910390f35b6101a760048036038101906101a29190610f64565b6107a9565b005b6101c360048036038101906101be9190610b38565b6108aa565b6040516101d4959493929190610f03565b60405180910390f35b6101f760048036038101906101f29190610cab565b610a10565b6040516102049190610d0f565b60405180910390f35b610215610a45565b6040516102229190610e36565b60405180910390f35b600060036000838152602001908152602001600020905080600301600081548092919061025790611046565b91905055505050565b6004818051602081018201805184825260208301602085012081835280955050505050506000915054906101000a900460ff1681565b3373ffffffffffffffffffffffffffffffffffffffff16600160009054906101000a900473ffffffffffffffffffffffffffffffffffffffff1673ffffffffffffffffffffffffffffffffffffffff16146102f057600080fd5b6000600360006002600081548092919061030990611046565b919050558152602001908152602001600020905084816000019080519060200190610335929190610a4b565b508381600101908051906020019061034e929190610a4b565b5082816002018190555060008160030181905550818160040160006101000a81548173ffffffffffffffffffffffffffffffffffffffff021916908373ffffffffffffffffffffffffffffffffffffffff16021790555060016004866040516103b791906110cb565b908152602001604051809103902060006101000a81548160ff0219169083151502179055505050505050565b600080600360008481526020019081526020016000206040518060a001604052908160008201805461041490611111565b80601f016020809104026020016040519081016040528092919081815260200182805461044090611111565b801561048d5780601f106104625761010080835404028352916020019161048d565b820191906000526020600020905b81548152906001019060200180831161047057829003601f168201915b505050505081526020016001820180546104a690611111565b80601f01602080910402602001604051908101604052809291908181526020018280546104d290611111565b801561051f5780601f106104f45761010080835404028352916020019161051f565b820191906000526020600020905b81548152906001019060200180831161050257829003601f168201915b5050505050815260200160028201548152602001600382015481526020016004820160009054906101000a900473ffffffffffffffffffffffffffffffffffffffff1673ffffffffffffffffffffffffffffffffffffffff1673ffffffffffffffffffffffffffffffffffffffff168152505090508060400151915050919050565b60008054906101000a900473ffffffffffffffffffffffffffffffffffffffff1681565b606080600080600080600360008881526020019081526020016000206040518060a00160405290816000820180546105fc90611111565b80601f016020809104026020016040519081016040528092919081815260200182805461062890611111565b80156106755780601f1061064a57610100808354040283529160200191610675565b820191906000526020600020905b81548152906001019060200180831161065857829003601f168201915b5050505050815260200160018201805461068e90611111565b80601f01602080910402602001604051908101604052809291908181526020018280546106ba90611111565b80156107075780601f106106dc57610100808354040283529160200191610707565b820191906000526020600020905b8154815290600101906020018083116106ea57829003601f168201915b5050505050815260200160028201548152602001600382015481526020016004820160009054906101000a900473ffffffffffffffffffffffffffffffffffffffff1673ffffffffffffffffffffffffffffffffffffffff1673ffffffffffffffffffffffffffffffffffffffff1681525050905080600001518160200151826040015183606001518460800151955095509550955095505091939590929450565b3373ffffffffffffffffffffffffffffffffffffffff16600160009054906101000a900473ffffffffffffffffffffffffffffffffffffffff1673ffffffffffffffffffffffffffffffffffffffff161461080357600080fd5b600060036000878152602001908152602001600020905084816000019080519060200190610832929190610a4b565b508381600101908051906020019061084b929190610a4b565b5082816002018190555060008160030181905550818160040160006101000a81548173ffffffffffffffffffffffffffffffffffffffff021916908373ffffffffffffffffffffffffffffffffffffffff160217905550505050505050565b60036020528060005260406000206000915090508060000180546108cd90611111565b80601f01602080910402602001604051908101604052809291908181526020018280546108f990611111565b80156109465780601f1061091b57610100808354040283529160200191610946565b820191906000526020600020905b81548152906001019060200180831161092957829003601f168201915b50505050509080600101805461095b90611111565b80601f016020809104026020016040519081016040528092919081815260200182805461098790611111565b80156109d45780601f106109a9576101008083540402835291602001916109d4565b820191906000526020600020905b8154815290600101906020018083116109b757829003601f168201915b5050505050908060020154908060030154908060040160009054906101000a900473ffffffffffffffffffffffffffffffffffffffff16905085565b6000600482604051610a2291906110cb565b908152602001604051809103902060009054906101000a900460ff169050919050565b60025481565b828054610a5790611111565b90600052602060002090601f016020900481019282610a795760008555610ac0565b82601f10610a9257805160ff1916838001178555610ac0565b82800160010185558215610ac0579182015b82811115610abf578251825591602001919060010190610aa4565b5b509050610acd9190610ad1565b5090565b5b80821115610aea576000816000905550600101610ad2565b5090565b6000604051905090565b600080fd5b600080fd5b6000819050919050565b610b1581610b02565b8114610b2057600080fd5b50565b600081359050610b3281610b0c565b92915050565b600060208284031215610b4e57610b4d610af8565b5b6000610b5c84828501610b23565b91505092915050565b600080fd5b600080fd5b6000601f19601f8301169050919050565b7f4e487b7100000000000000000000000000000000000000000000000000000000600052604160045260246000fd5b610bb882610b6f565b810181811067ffffffffffffffff82111715610bd757610bd6610b80565b5b80604052505050565b6000610bea610aee565b9050610bf68282610baf565b919050565b600067ffffffffffffffff821115610c1657610c15610b80565b5b610c1f82610b6f565b9050602081019050919050565b82818337600083830152505050565b6000610c4e610c4984610bfb565b610be0565b905082815260208101848484011115610c6a57610c69610b6a565b5b610c75848285610c2c565b509392505050565b600082601f830112610c9257610c91610b65565b5b8135610ca2848260208601610c3b565b91505092915050565b600060208284031215610cc157610cc0610af8565b5b600082013567ffffffffffffffff811115610cdf57610cde610afd565b5b610ceb84828501610c7d565b91505092915050565b60008115159050919050565b610d0981610cf4565b82525050565b6000602082019050610d246000830184610d00565b92915050565b600073ffffffffffffffffffffffffffffffffffffffff82169050919050565b6000610d5582610d2a565b9050919050565b610d6581610d4a565b8114610d7057600080fd5b50565b600081359050610d8281610d5c565b92915050565b60008060008060808587031215610da257610da1610af8565b5b600085013567ffffffffffffffff811115610dc057610dbf610afd565b5b610dcc87828801610c7d565b945050602085013567ffffffffffffffff811115610ded57610dec610afd565b5b610df987828801610c7d565b9350506040610e0a87828801610b23565b9250506060610e1b87828801610d73565b91505092959194509250565b610e3081610b02565b82525050565b6000602082019050610e4b6000830184610e27565b92915050565b610e5a81610d4a565b82525050565b6000602082019050610e756000830184610e51565b92915050565b600081519050919050565b600082825260208201905092915050565b60005b83811015610eb5578082015181840152602081019050610e9a565b83811115610ec4576000848401525b50505050565b6000610ed582610e7b565b610edf8185610e86565b9350610eef818560208601610e97565b610ef881610b6f565b840191505092915050565b600060a0820190508181036000830152610f1d8188610eca565b90508181036020830152610f318187610eca565b9050610f406040830186610e27565b610f4d6060830185610e27565b610f5a6080830184610e51565b9695505050505050565b600080600080600060a08688031215610f8057610f7f610af8565b5b6000610f8e88828901610b23565b955050602086013567ffffffffffffffff811115610faf57610fae610afd565b5b610fbb88828901610c7d565b945050604086013567ffffffffffffffff811115610fdc57610fdb610afd565b5b610fe888828901610c7d565b9350506060610ff988828901610b23565b925050608061100a88828901610d73565b9150509295509295909350565b7f4e487b7100000000000000000000000000000000000000000000000000000000600052601160045260246000fd5b600061105182610b02565b91507fffffffffffffffffffffffffffffffffffffffffffffffffffffffffffffffff82141561108457611083611017565b5b600182019050919050565b600081905092915050565b60006110a582610e7b565b6110af818561108f565b93506110bf818560208601610e97565b80840191505092915050565b60006110d7828461109a565b915081905092915050565b7f4e487b7100000000000000000000000000000000000000000000000000000000600052602260045260246000fd5b6000600282049050600182168061112957607f821691505b6020821081141561113d5761113c6110e2565b5b5091905056fea264697066735822122060397ee0588d0b47d7a31ecf97f70613583ee1a3f04694a366944803c34d196464736f6c634300080a0033608060405234801561001057600080fd5b5060405162001055380380620010558339818101604052810190610034919061011e565b806000806101000a81548173ffffffffffffffffffffffffffffffffffffffff021916908373ffffffffffffffffffffffffffffffffffffffff16021790555033600160006101000a81548173ffffffffffffffffffffffffffffffffffffffff021916908373ffffffffffffffffffffffffffffffffffffffff1602179055505061014b565b600080fd5b600073ffffffffffffffffffffffffffffffffffffffff82169050919050565b60006100eb826100c0565b9050919050565b6100fb816100e0565b811461010657600080fd5b50565b600081519050610118816100f2565b92915050565b600060208284031215610134576101336100bb565b5b600061014284828501610109565b91505092915050565b610efa806200015b6000396000f3fe608060405234801561001057600080fd5b50600436106100f55760003560e01c80637c4dd96d11610097578063e3e1f00111610066578063e3e1f0011461029a578063e597ef12146102b8578063ecded204146102d4578063f3c95c6014610304576100f5565b80637c4dd96d146102105780638da5cb5b1461022c578063a5a9c5181461024a578063a87430ba14610266576100f5565b80634172fb89116100d35780634172fb891461018a5780634420e486146101ba5780634a09db4f146101d65780636350280e146101f2576100f5565b806319aa98a3146100fa578063371e91ca1461012a5780633cbdec031461015a575b600080fd5b610114600480360381019061010f9190610ca2565b610334565b6040516101219190610ce8565b60405180910390f35b610144600480360381019061013f9190610d2f565b610385565b6040516101519190610d8a565b60405180910390f35b610174600480360381019061016f9190610d2f565b6103ed565b6040516101819190610d8a565b60405180910390f35b6101a4600480360381019061019f9190610ca2565b61041c565b6040516101b19190610d8a565b60405180910390f35b6101d460048036038101906101cf9190610ca2565b610472565b005b6101f060048036038101906101eb9190610d2f565b610623565b005b6101fa61079e565b6040516102079190610ce8565b60405180910390f35b61022a60048036038101906102259190610ca2565b6107a4565b005b610234610859565b6040516102419190610db4565b60405180910390f35b610264600480360381019061025f9190610d2f565b61087d565b005b610280600480360381019061027b9190610ca2565b610a12565b604051610291959493929190610dcf565b60405180910390f35b6102a2610a68565b6040516102af9190610ce8565b60405180910390f35b6102d260048036038101906102cd9190610d2f565b610a6e565b005b6102ee60048036038101906102e99190610ca2565b610bc9565b6040516102fb9190610d8a565b60405180910390f35b61031e60048036038101906103199190610ca2565b610c1f565b60405161032b9190610d8a565b60405180910390f35b600080600360008473ffffffffffffffffffffffffffffffffffffffff1673ffffffffffffffffffffffffffffffffffffffff16815260200190815260200160002090508060020154915050919050565b6000600560008473ffffffffffffffffffffffffffffffffffffffff1673ffffffffffffffffffffffffffffffffffffffff168152602001908152602001600020600083815260200190815260200160002060009054906101000a900460ff16905092915050565b60056020528160005260406000206020528060005260406000206000915091509054906101000a900460ff1681565b6000600760008373ffffffffffffffffffffffffffffffffffffffff1673ffffffffffffffffffffffffffffffffffffffff16815260200190815260200160002060009054906101000a900460ff169050919050565b3373ffffffffffffffffffffffffffffffffffffffff16600160009054906101000a900473ffffffffffffffffffffffffffffffffffffffff1673ffffffffffffffffffffffffffffffffffffffff16146104cc57600080fd5b600460008273ffffffffffffffffffffffffffffffffffffffff1673ffffffffffffffffffffffffffffffffffffffff16815260200190815260200160002060009054906101000a900460ff161561052357600080fd5b6001600460008373ffffffffffffffffffffffffffffffffffffffff1673ffffffffffffffffffffffffffffffffffffffff16815260200190815260200160002060006101000a81548160ff0219169083151502179055506000600360008373ffffffffffffffffffffffffffffffffffffffff1673ffffffffffffffffffffffffffffffffffffffff1681526020019081526020016000209050818160000160006101000a81548173ffffffffffffffffffffffffffffffffffffffff021916908373ffffffffffffffffffffffffffffffffffffffff1602179055506000816002018190555060008160030181905550600081600501819055505050565b3373ffffffffffffffffffffffffffffffffffffffff16600160009054906101000a900473ffffffffffffffffffffffffffffffffffffffff1673ffffffffffffffffffffffffffffffffffffffff161461067d57600080fd5b600460008373ffffffffffffffffffffffffffffffffffffffff1673ffffffffffffffffffffffffffffffffffffffff16815260200190815260200160002060009054906101000a900460ff166106d357600080fd5b6000600360008473ffffffffffffffffffffffffffffffffffffffff1673ffffffffffffffffffffffffffffffffffffffff16815260200190815260200160002090506000600560008573ffffffffffffffffffffffffffffffffffffffff1673ffffffffffffffffffffffffffffffffffffffff168152602001908152602001600020600084815260200190815260200160002060006101000a81548160ff02191690831515021790555080600201600081548092919061079490610e51565b9190505550505050565b60065481565b3373ffffffffffffffffffffffffffffffffffffffff16600160009054906101000a900473ffffffffffffffffffffffffffffffffffffffff1673ffffffffffffffffffffffffffffffffffffffff16146107fe57600080fd5b6001600760008373ffffffffffffffffffffffffffffffffffffffff1673ffffffffffffffffffffffffffffffffffffffff16815260200190815260200160002060006101000a81548160ff02191690831515021790555050565b60008054906101000a900473ffffffffffffffffffffffffffffffffffffffff1681565b3373ffffffffffffffffffffffffffffffffffffffff16600160009054906101000a900473ffffffffffffffffffffffffffffffffffffffff1673ffffffffffffffffffffffffffffffffffffffff16146108d757600080fd5b600460008373ffffffffffffffffffffffffffffffffffffffff1673ffffffffffffffffffffffffffffffffffffffff16815260200190815260200160002060009054906101000a900460ff1661092d57600080fd5b6000600360008473ffffffffffffffffffffffffffffffffffffffff1673ffffffffffffffffffffffffffffffffffffffff16815260200190815260200160002090506001600560008573ffffffffffffffffffffffffffffffffffffffff1673ffffffffffffffffffffffffffffffffffffffff168152602001908152602001600020600084815260200190815260200160002060006101000a81548160ff0219169083151502179055508060020160008154809291906109ee90610e7b565b9190505550806003016000815480929190610a0890610e7b565b9190505550505050565b60036020528060005260406000206000915090508060000160009054906101000a900473ffffffffffffffffffffffffffffffffffffffff16908060010154908060020154908060030154908060050154905085565b60025481565b3373ffffffffffffffffffffffffffffffffffffffff16600160009054906101000a900473ffffffffffffffffffffffffffffffffffffffff1673ffffffffffffffffffffffffffffffffffffffff1614610ac857600080fd5b600460008373ffffffffffffffffffffffffffffffffffffffff1673ffffffffffffffffffffffffffffffffffffffff16815260200190815260200160002060009054906101000a900460ff16610b1e57600080fd5b6000600360008473ffffffffffffffffffffffffffffffffffffffff1673ffffffffffffffffffffffffffffffffffffffff168152602001908152602001600020905080600601829080600181540180825580915050600190039060005260206000200160009091909190915055806005015481600701600084815260200190815260200160002081905550806005016000815480929190610bbf90610e7b565b9190505550505050565b6000600460008373ffffffffffffffffffffffffffffffffffffffff1673ffffffffffffffffffffffffffffffffffffffff16815260200190815260200160002060009054906101000a900460ff169050919050565b60046020528060005260406000206000915054906101000a900460ff1681565b600080fd5b600073ffffffffffffffffffffffffffffffffffffffff82169050919050565b6000610c6f82610c44565b9050919050565b610c7f81610c64565b8114610c8a57600080fd5b50565b600081359050610c9c81610c76565b92915050565b600060208284031215610cb857610cb7610c3f565b5b6000610cc684828501610c8d565b91505092915050565b6000819050919050565b610ce281610ccf565b82525050565b6000602082019050610cfd6000830184610cd9565b92915050565b610d0c81610ccf565b8114610d1757600080fd5b50565b600081359050610d2981610d03565b92915050565b60008060408385031215610d4657610d45610c3f565b5b6000610d5485828601610c8d565b9250506020610d6585828601610d1a565b9150509250929050565b60008115159050919050565b610d8481610d6f565b82525050565b6000602082019050610d9f6000830184610d7b565b92915050565b610dae81610c64565b82525050565b6000602082019050610dc96000830184610da5565b92915050565b600060a082019050610de46000830188610da5565b610df16020830187610cd9565b610dfe6040830186610cd9565b610e0b6060830185610cd9565b610e186080830184610cd9565b9695505050505050565b7f4e487b7100000000000000000000000000000000000000000000000000000000600052601160045260246000fd5b6000610e5c82610ccf565b91506000821415610e7057610e6f610e22565b5b600182039050919050565b6000610e8682610ccf565b91507fffffffffffffffffffffffffffffffffffffffffffffffffffffffffffffffff821415610eb957610eb8610e22565b5b60018201905091905056fea26469706673582212202e8c5e61787c07045dc0e969e3ab27634ec2d54e98d9ccc787d8e8af5a5f046764736f6c634300080a0033608060405234801561001057600080fd5b5060405162000fe538038062000fe58339818101604052810190610034919061011e565b806000806101000a81548173ffffffffffffffffffffffffffffffffffffffff021916908373ffffffffffffffffffffffffffffffffffffffff16021790555033600160006101000a81548173ffffffffffffffffffffffffffffffffffffffff021916908373ffffffffffffffffffffffffffffffffffffffff1602179055505061014b565b600080fd5b600073ffffffffffffffffffffffffffffffffffffffff82169050919050565b60006100eb826100c0565b9050919050565b6100fb816100e0565b811461010657600080fd5b50565b600081519050610118816100f2565b92915050565b600060208284031215610134576101336100bb565b5b600061014284828501610109565b91505092915050565b610e8a806200015b6000396000f3fe608060405234801561001057600080fd5b50600436106100b45760003560e01c8063921c47b111610071578063921c47b1146101b9578063a46d8ac7146101d7578063ab21a2be14610207578063ca5140c914610223578063ef228c921461023f578063f6b4dfb41461025b576100b4565b80631ce06944146100b95780633b2f7118146100e957806367615ad51461011957806383b65cb4146101495780638da5cb5b1461017f5780638dbbfbde1461019d575b600080fd5b6100d360048036038101906100ce9190610b0d565b610279565b6040516100e09190610b49565b60405180910390f35b61010360048036038101906100fe9190610b0d565b610398565b6040516101109190610ba5565b60405180910390f35b610133600480360381019061012e9190610b0d565b6104b7565b6040516101409190610b49565b60405180910390f35b610163600480360381019061015e9190610b0d565b6105d6565b6040516101769796959493929190610bdb565b60405180910390f35b610187610665565b6040516101949190610ba5565b60405180910390f35b6101b760048036038101906101b29190610c4a565b610689565b005b6101c1610722565b6040516101ce9190610b49565b60405180910390f35b6101f160048036038101906101ec9190610cc9565b610728565b6040516101fe9190610b49565b60405180910390f35b610221600480360381019061021c9190610d30565b61088e565b005b61023d60048036038101906102389190610b0d565b610957565b005b61025960048036038101906102549190610d9c565b610a0a565b005b610263610aac565b6040516102709190610ba5565b60405180910390f35b600080600360008481526020019081526020016000206040518060e0016040529081600082015481526020016001820160009054906101000a900473ffffffffffffffffffffffffffffffffffffffff1673ffffffffffffffffffffffffffffffffffffffff1673ffffffffffffffffffffffffffffffffffffffff168152602001600282015481526020016003820160009054906101000a900473ffffffffffffffffffffffffffffffffffffffff1673ffffffffffffffffffffffffffffffffffffffff1673ffffffffffffffffffffffffffffffffffffffff1681526020016003820160149054906101000a900460ff161515151581526020016004820154815260200160058201548152505090508060c00151915050919050565b600080600360008481526020019081526020016000206040518060e0016040529081600082015481526020016001820160009054906101000a900473ffffffffffffffffffffffffffffffffffffffff1673ffffffffffffffffffffffffffffffffffffffff1673ffffffffffffffffffffffffffffffffffffffff168152602001600282015481526020016003820160009054906101000a900473ffffffffffffffffffffffffffffffffffffffff1673ffffffffffffffffffffffffffffffffffffffff1673ffffffffffffffffffffffffffffffffffffffff1681526020016003820160149054906101000a900460ff161515151581526020016004820154815260200160058201548152505090508060600151915050919050565b600080600360008481526020019081526020016000206040518060e0016040529081600082015481526020016001820160009054906101000a900473ffffffffffffffffffffffffffffffffffffffff1673ffffffffffffffffffffffffffffffffffffffff1673ffffffffffffffffffffffffffffffffffffffff168152602001600282015481526020016003820160009054906101000a900473ffffffffffffffffffffffffffffffffffffffff1673ffffffffffffffffffffffffffffffffffffffff1673ffffffffffffffffffffffffffffffffffffffff1681526020016003820160149054906101000a900460ff161515151581526020016004820154815260200160058201548152505090508060400151915050919050565b60036020528060005260406000206000915090508060000154908060010160009054906101000a900473ffffffffffffffffffffffffffffffffffffffff16908060020154908060030160009054906101000a900473ffffffffffffffffffffffffffffffffffffffff16908060030160149054906101000a900460ff16908060040154908060050154905087565b60008054906101000a900473ffffffffffffffffffffffffffffffffffffffff1681565b82600254811061069857600080fd5b3373ffffffffffffffffffffffffffffffffffffffff16600160009054906101000a900473ffffffffffffffffffffffffffffffffffffffff1673ffffffffffffffffffffffffffffffffffffffff16146106f257600080fd5b60006003600086815260200190815260200160002090508381600401819055508281600501819055505050505050565b60025481565b60003373ffffffffffffffffffffffffffffffffffffffff16600160009054906101000a900473ffffffffffffffffffffffffffffffffffffffff1673ffffffffffffffffffffffffffffffffffffffff161461078457600080fd5b600060036000600254815260200190815260200160002090506002548160000181905550848160020181905550858160010160006101000a81548173ffffffffffffffffffffffffffffffffffffffff021916908373ffffffffffffffffffffffffffffffffffffffff160217905550858160030160006101000a81548173ffffffffffffffffffffffffffffffffffffffff021916908373ffffffffffffffffffffffffffffffffffffffff16021790555060008160030160146101000a81548160ff0219169083151502179055508381600401819055508281600501819055506002600081548092919061087990610e0b565b91905055508060000154915050949350505050565b81600254811061089d57600080fd5b3373ffffffffffffffffffffffffffffffffffffffff16600160009054906101000a900473ffffffffffffffffffffffffffffffffffffffff1673ffffffffffffffffffffffffffffffffffffffff16146108f757600080fd5b6000600360008581526020019081526020016000209050828160030160006101000a81548173ffffffffffffffffffffffffffffffffffffffff021916908373ffffffffffffffffffffffffffffffffffffffff16021790555050505050565b80600254811061096657600080fd5b3373ffffffffffffffffffffffffffffffffffffffff16600160009054906101000a900473ffffffffffffffffffffffffffffffffffffffff1673ffffffffffffffffffffffffffffffffffffffff16146109c057600080fd5b6000600360008481526020019081526020016000209050610a05838260010160009054906101000a900473ffffffffffffffffffffffffffffffffffffffff1661088e565b505050565b816002548110610a1957600080fd5b3373ffffffffffffffffffffffffffffffffffffffff16600160009054906101000a900473ffffffffffffffffffffffffffffffffffffffff1673ffffffffffffffffffffffffffffffffffffffff1614610a7357600080fd5b6000600360008581526020019081526020016000209050828160030160146101000a81548160ff02191690831515021790555050505050565b600160009054906101000a900473ffffffffffffffffffffffffffffffffffffffff1681565b600080fd5b6000819050919050565b610aea81610ad7565b8114610af557600080fd5b50565b600081359050610b0781610ae1565b92915050565b600060208284031215610b2357610b22610ad2565b5b6000610b3184828501610af8565b91505092915050565b610b4381610ad7565b82525050565b6000602082019050610b5e6000830184610b3a565b92915050565b600073ffffffffffffffffffffffffffffffffffffffff82169050919050565b6000610b8f82610b64565b9050919050565b610b9f81610b84565b82525050565b6000602082019050610bba6000830184610b96565b92915050565b60008115159050919050565b610bd581610bc0565b82525050565b600060e082019050610bf0600083018a610b3a565b610bfd6020830189610b96565b610c0a6040830188610b3a565b610c176060830187610b96565b610c246080830186610bcc565b610c3160a0830185610b3a565b610c3e60c0830184610b3a565b98975050505050505050565b600080600060608486031215610c6357610c62610ad2565b5b6000610c7186828701610af8565b9350506020610c8286828701610af8565b9250506040610c9386828701610af8565b9150509250925092565b610ca681610b84565b8114610cb157600080fd5b50565b600081359050610cc381610c9d565b92915050565b60008060008060808587031215610ce357610ce2610ad2565b5b6000610cf187828801610cb4565b9450506020610d0287828801610af8565b9350506040610d1387828801610af8565b9250506060610d2487828801610af8565b91505092959194509250565b60008060408385031215610d4757610d46610ad2565b5b6000610d5585828601610af8565b9250506020610d6685828601610cb4565b9150509250929050565b610d7981610bc0565b8114610d8457600080fd5b50565b600081359050610d9681610d70565b92915050565b60008060408385031215610db357610db2610ad2565b5b6000610dc185828601610af8565b9250506020610dd285828601610d87565b9150509250929050565b7f4e487b7100000000000000000000000000000000000000000000000000000000600052601160045260246000fd5b6000610e1682610ad7565b91507fffffffffffffffffffffffffffffffffffffffffffffffffffffffffffffffff821415610e4957610e48610ddc565b5b60018201905091905056fea2646970667358221220be57c9497222e4cafff449b5e92bcc2a3ffc5b2cc30f31b0faf34d8e97cacc4b64736f6c634300080a0033","opcodes":"PUSH1 0x80 PUSH1 0x40 MSTORE CALLVALUE DUP1 ISZERO PUSH3 0x11 JUMPI PUSH1 0x0 DUP1 REVERT JUMPDEST POP PUSH1 0x40 MLOAD PUSH3 0x5109 CODESIZE SUB DUP1 PUSH3 0x5109 DUP4 CODECOPY DUP2 DUP2 ADD PUSH1 0x40 MSTORE DUP2 ADD SWAP1 PUSH3 0x37 SWAP2 SWAP1 PUSH3 0x4C1 JUMP JUMPDEST CALLER PUSH1 0x0 DUP1 PUSH2 0x100 EXP DUP2 SLOAD DUP2 PUSH20 0xFFFFFFFFFFFFFFFFFFFFFFFFFFFFFFFFFFFFFFFF MUL NOT AND SWAP1 DUP4 PUSH20 0xFFFFFFFFFFFFFFFFFFFFFFFFFFFFFFFFFFFFFFFF AND MUL OR SWAP1 SSTORE POP PUSH1 0x1 DUP1 PUSH1 0x0 DUP1 PUSH1 0x0 SWAP1 SLOAD SWAP1 PUSH2 0x100 EXP SWAP1 DIV PUSH20 0xFFFFFFFFFFFFFFFFFFFFFFFFFFFFFFFFFFFFFFFF AND PUSH20 0xFFFFFFFFFFFFFFFFFFFFFFFFFFFFFFFFFFFFFFFF AND PUSH20 0xFFFFFFFFFFFFFFFFFFFFFFFFFFFFFFFFFFFFFFFF AND DUP2 MSTORE PUSH1 0x20 ADD SWAP1 DUP2 MSTORE PUSH1 0x20 ADD PUSH1 0x0 KECCAK256 PUSH1 0x0 PUSH2 0x100 EXP DUP2 SLOAD DUP2 PUSH1 0xFF MUL NOT AND SWAP1 DUP4 ISZERO ISZERO MUL OR SWAP1 SSTORE POP PUSH1 0x0 DUP1 SLOAD SWAP1 PUSH2 0x100 EXP SWAP1 DIV PUSH20 0xFFFFFFFFFFFFFFFFFFFFFFFFFFFFFFFFFFFFFFFF AND PUSH1 0x40 MLOAD PUSH3 0x11E SWAP1 PUSH3 0x457 JUMP JUMPDEST PUSH3 0x12A SWAP2 SWAP1 PUSH3 0x538 JUMP JUMPDEST PUSH1 0x40 MLOAD DUP1 SWAP2 SUB SWAP1 PUSH1 0x0 CREATE DUP1 ISZERO DUP1 ISZERO PUSH3 0x147 JUMPI RETURNDATASIZE PUSH1 0x0 DUP1 RETURNDATACOPY RETURNDATASIZE PUSH1 0x0 REVERT JUMPDEST POP PUSH1 0x2 PUSH1 0x0 PUSH2 0x100 EXP DUP2 SLOAD DUP2 PUSH20 0xFFFFFFFFFFFFFFFFFFFFFFFFFFFFFFFFFFFFFFFF MUL NOT AND SWAP1 DUP4 PUSH20 0xFFFFFFFFFFFFFFFFFFFFFFFFFFFFFFFFFFFFFFFF AND MUL OR SWAP1 SSTORE POP PUSH1 0x0 DUP1 SLOAD SWAP1 PUSH2 0x100 EXP SWAP1 DIV PUSH20 0xFFFFFFFFFFFFFFFFFFFFFFFFFFFFFFFFFFFFFFFF AND PUSH1 0x40 MLOAD PUSH3 0x1B7 SWAP1 PUSH3 0x465 JUMP JUMPDEST PUSH3 0x1C3 SWAP2 SWAP1 PUSH3 0x538 JUMP JUMPDEST PUSH1 0x40 MLOAD DUP1 SWAP2 SUB SWAP1 PUSH1 0x0 CREATE DUP1 ISZERO DUP1 ISZERO PUSH3 0x1E0 JUMPI RETURNDATASIZE PUSH1 0x0 DUP1 RETURNDATACOPY RETURNDATASIZE PUSH1 0x0 REVERT JUMPDEST POP PUSH1 0x3 PUSH1 0x0 PUSH2 0x100 EXP DUP2 SLOAD DUP2 PUSH20 0xFFFFFFFFFFFFFFFFFFFFFFFFFFFFFFFFFFFFFFFF MUL NOT AND SWAP1 DUP4 PUSH20 0xFFFFFFFFFFFFFFFFFFFFFFFFFFFFFFFFFFFFFFFF AND MUL OR SWAP1 SSTORE POP PUSH1 0x0 DUP1 SLOAD SWAP1 PUSH2 0x100 EXP SWAP1 DIV PUSH20 0xFFFFFFFFFFFFFFFFFFFFFFFFFFFFFFFFFFFFFFFF AND PUSH1 0x40 MLOAD PUSH3 0x250 SWAP1 PUSH3 0x473 JUMP JUMPDEST PUSH3 0x25C SWAP2 SWAP1 PUSH3 0x538 JUMP JUMPDEST PUSH1 0x40 MLOAD DUP1 SWAP2 SUB SWAP1 PUSH1 0x0 CREATE DUP1 ISZERO DUP1 ISZERO PUSH3 0x279 JUMPI RETURNDATASIZE PUSH1 0x0 DUP1 RETURNDATACOPY RETURNDATASIZE PUSH1 0x0 REVERT JUMPDEST POP PUSH1 0x4 PUSH1 0x0 PUSH2 0x100 EXP DUP2 SLOAD DUP2 PUSH20 0xFFFFFFFFFFFFFFFFFFFFFFFFFFFFFFFFFFFFFFFF MUL NOT AND SWAP1 DUP4 PUSH20 0xFFFFFFFFFFFFFFFFFFFFFFFFFFFFFFFFFFFFFFFF AND MUL OR SWAP1 SSTORE POP PUSH1 0x5 PUSH1 0x2 PUSH1 0x0 SWAP1 SLOAD SWAP1 PUSH2 0x100 EXP SWAP1 DIV PUSH20 0xFFFFFFFFFFFFFFFFFFFFFFFFFFFFFFFFFFFFFFFF AND SWAP1 DUP1 PUSH1 0x1 DUP2 SLOAD ADD DUP1 DUP3 SSTORE DUP1 SWAP2 POP POP PUSH1 0x1 SWAP1 SUB SWAP1 PUSH1 0x0 MSTORE PUSH1 0x20 PUSH1 0x0 KECCAK256 ADD PUSH1 0x0 SWAP1 SWAP2 SWAP1 SWAP2 SWAP1 SWAP2 PUSH2 0x100 EXP DUP2 SLOAD DUP2 PUSH20 0xFFFFFFFFFFFFFFFFFFFFFFFFFFFFFFFFFFFFFFFF MUL NOT AND SWAP1 DUP4 PUSH20 0xFFFFFFFFFFFFFFFFFFFFFFFFFFFFFFFFFFFFFFFF AND MUL OR SWAP1 SSTORE POP PUSH1 0x5 PUSH1 0x3 PUSH1 0x0 SWAP1 SLOAD SWAP1 PUSH2 0x100 EXP SWAP1 DIV PUSH20 0xFFFFFFFFFFFFFFFFFFFFFFFFFFFFFFFFFFFFFFFF AND SWAP1 DUP1 PUSH1 0x1 DUP2 SLOAD ADD DUP1 DUP3 SSTORE DUP1 SWAP2 POP POP PUSH1 0x1 SWAP1 SUB SWAP1 PUSH1 0x0 MSTORE PUSH1 0x20 PUSH1 0x0 KECCAK256 ADD PUSH1 0x0 SWAP1 SWAP2 SWAP1 SWAP2 SWAP1 SWAP2 PUSH2 0x100 EXP DUP2 SLOAD DUP2 PUSH20 0xFFFFFFFFFFFFFFFFFFFFFFFFFFFFFFFFFFFFFFFF MUL NOT AND SWAP1 DUP4 PUSH20 0xFFFFFFFFFFFFFFFFFFFFFFFFFFFFFFFFFFFFFFFF AND MUL OR SWAP1 SSTORE POP PUSH1 0x5 PUSH1 0x4 PUSH1 0x0 SWAP1 SLOAD SWAP1 PUSH2 0x100 EXP SWAP1 DIV PUSH20 0xFFFFFFFFFFFFFFFFFFFFFFFFFFFFFFFFFFFFFFFF AND SWAP1 DUP1 PUSH1 0x1 DUP2 SLOAD ADD DUP1 DUP3 SSTORE DUP1 SWAP2 POP POP PUSH1 0x1 SWAP1 SUB SWAP1 PUSH1 0x0 MSTORE PUSH1 0x20 PUSH1 0x0 KECCAK256 ADD PUSH1 0x0 SWAP1 SWAP2 SWAP1 SWAP2 SWAP1 SWAP2 PUSH2 0x100 EXP DUP2 SLOAD DUP2 PUSH20 0xFFFFFFFFFFFFFFFFFFFFFFFFFFFFFFFFFFFFFFFF MUL NOT AND SWAP1 DUP4 PUSH20 0xFFFFFFFFFFFFFFFFFFFFFFFFFFFFFFFFFFFFFFFF AND MUL OR SWAP1 SSTORE POP DUP1 PUSH1 0x6 DUP2 SWAP1 SSTORE POP POP PUSH3 0x555 JUMP JUMPDEST PUSH2 0x12E4 DUP1 PUSH3 0x1DEB DUP4 CODECOPY ADD SWAP1 JUMP JUMPDEST PUSH2 0x1055 DUP1 PUSH3 0x30CF DUP4 CODECOPY ADD SWAP1 JUMP JUMPDEST PUSH2 0xFE5 DUP1 PUSH3 0x4124 DUP4 CODECOPY ADD SWAP1 JUMP JUMPDEST PUSH1 0x0 DUP1 REVERT JUMPDEST PUSH1 0x0 DUP2 SWAP1 POP SWAP2 SWAP1 POP JUMP JUMPDEST PUSH3 0x49B DUP2 PUSH3 0x486 JUMP JUMPDEST DUP2 EQ PUSH3 0x4A7 JUMPI PUSH1 0x0 DUP1 REVERT JUMPDEST POP JUMP JUMPDEST PUSH1 0x0 DUP2 MLOAD SWAP1 POP PUSH3 0x4BB DUP2 PUSH3 0x490 JUMP JUMPDEST SWAP3 SWAP2 POP POP JUMP JUMPDEST PUSH1 0x0 PUSH1 0x20 DUP3 DUP5 SUB SLT ISZERO PUSH3 0x4DA JUMPI PUSH3 0x4D9 PUSH3 0x481 JUMP JUMPDEST JUMPDEST PUSH1 0x0 PUSH3 0x4EA DUP5 DUP3 DUP6 ADD PUSH3 0x4AA JUMP JUMPDEST SWAP2 POP POP SWAP3 SWAP2 POP POP JUMP JUMPDEST PUSH1 0x0 PUSH20 0xFFFFFFFFFFFFFFFFFFFFFFFFFFFFFFFFFFFFFFFF DUP3 AND SWAP1 POP SWAP2 SWAP1 POP JUMP JUMPDEST PUSH1 0x0 PUSH3 0x520 DUP3 PUSH3 0x4F3 JUMP JUMPDEST SWAP1 POP SWAP2 SWAP1 POP JUMP JUMPDEST PUSH3 0x532 DUP2 PUSH3 0x513 JUMP JUMPDEST DUP3 MSTORE POP POP JUMP JUMPDEST PUSH1 0x0 PUSH1 0x20 DUP3 ADD SWAP1 POP PUSH3 0x54F PUSH1 0x0 DUP4 ADD DUP5 PUSH3 0x527 JUMP JUMPDEST SWAP3 SWAP2 POP POP JUMP JUMPDEST PUSH2 0x1886 DUP1 PUSH3 0x565 PUSH1 0x0 CODECOPY PUSH1 0x0 RETURN INVALID PUSH1 0x80 PUSH1 0x40 MSTORE PUSH1 0x4 CALLDATASIZE LT PUSH2 0x9C JUMPI PUSH1 0x0 CALLDATALOAD PUSH1 0xE0 SHR DUP1 PUSH4 0x8DA5CB5B GT PUSH2 0x64 JUMPI DUP1 PUSH4 0x8DA5CB5B EQ PUSH2 0x156 JUMPI DUP1 PUSH4 0x90272DFF EQ PUSH2 0x181 JUMPI DUP1 PUSH4 0xC162D7DA EQ PUSH2 0x1AC JUMPI DUP1 PUSH4 0xCA5140C9 EQ PUSH2 0x1D7 JUMPI DUP1 PUSH4 0xD2C07E20 EQ PUSH2 0x200 JUMPI DUP1 PUSH4 0xFE69494B EQ PUSH2 0x229 JUMPI PUSH2 0x9C JUMP JUMPDEST DUP1 PUSH4 0x1973DB46 EQ PUSH2 0xA1 JUMPI DUP1 PUSH4 0x1AA3A008 EQ PUSH2 0xBD JUMPI DUP1 PUSH4 0x4F83158A EQ PUSH2 0xD4 JUMPI DUP1 PUSH4 0x687564AE EQ PUSH2 0x111 JUMPI DUP1 PUSH4 0x7E490A9E EQ PUSH2 0x13A JUMPI JUMPDEST PUSH1 0x0 DUP1 REVERT JUMPDEST PUSH2 0xBB PUSH1 0x4 DUP1 CALLDATASIZE SUB DUP2 ADD SWAP1 PUSH2 0xB6 SWAP2 SWAP1 PUSH2 0x1071 JUMP JUMPDEST PUSH2 0x252 JUMP JUMPDEST STOP JUMPDEST CALLVALUE DUP1 ISZERO PUSH2 0xC9 JUMPI PUSH1 0x0 DUP1 REVERT JUMPDEST POP PUSH2 0xD2 PUSH2 0x56E JUMP JUMPDEST STOP JUMPDEST CALLVALUE DUP1 ISZERO PUSH2 0xE0 JUMPI PUSH1 0x0 DUP1 REVERT JUMPDEST POP PUSH2 0xFB PUSH1 0x4 DUP1 CALLDATASIZE SUB DUP2 ADD SWAP1 PUSH2 0xF6 SWAP2 SWAP1 PUSH2 0x1122 JUMP JUMPDEST PUSH2 0x5FD JUMP JUMPDEST PUSH1 0x40 MLOAD PUSH2 0x108 SWAP2 SWAP1 PUSH2 0x116A JUMP JUMPDEST PUSH1 0x40 MLOAD DUP1 SWAP2 SUB SWAP1 RETURN JUMPDEST CALLVALUE DUP1 ISZERO PUSH2 0x11D JUMPI PUSH1 0x0 DUP1 REVERT JUMPDEST POP PUSH2 0x138 PUSH1 0x4 DUP1 CALLDATASIZE SUB DUP2 ADD SWAP1 PUSH2 0x133 SWAP2 SWAP1 PUSH2 0x12CB JUMP JUMPDEST PUSH2 0x61D JUMP JUMPDEST STOP JUMPDEST PUSH2 0x154 PUSH1 0x4 DUP1 CALLDATASIZE SUB DUP2 ADD SWAP1 PUSH2 0x14F SWAP2 SWAP1 PUSH2 0x136A JUMP JUMPDEST PUSH2 0x7B4 JUMP JUMPDEST STOP JUMPDEST CALLVALUE DUP1 ISZERO PUSH2 0x162 JUMPI PUSH1 0x0 DUP1 REVERT JUMPDEST POP PUSH2 0x16B PUSH2 0xAD6 JUMP JUMPDEST PUSH1 0x40 MLOAD PUSH2 0x178 SWAP2 SWAP1 PUSH2 0x13A6 JUMP JUMPDEST PUSH1 0x40 MLOAD DUP1 SWAP2 SUB SWAP1 RETURN JUMPDEST CALLVALUE DUP1 ISZERO PUSH2 0x18D JUMPI PUSH1 0x0 DUP1 REVERT JUMPDEST POP PUSH2 0x196 PUSH2 0xAFA JUMP JUMPDEST PUSH1 0x40 MLOAD PUSH2 0x1A3 SWAP2 SWAP1 PUSH2 0x13D0 JUMP JUMPDEST PUSH1 0x40 MLOAD DUP1 SWAP2 SUB SWAP1 RETURN JUMPDEST CALLVALUE DUP1 ISZERO PUSH2 0x1B8 JUMPI PUSH1 0x0 DUP1 REVERT JUMPDEST POP PUSH2 0x1C1 PUSH2 0xB00 JUMP JUMPDEST PUSH1 0x40 MLOAD PUSH2 0x1CE SWAP2 SWAP1 PUSH2 0x14A9 JUMP JUMPDEST PUSH1 0x40 MLOAD DUP1 SWAP2 SUB SWAP1 RETURN JUMPDEST CALLVALUE DUP1 ISZERO PUSH2 0x1E3 JUMPI PUSH1 0x0 DUP1 REVERT JUMPDEST POP PUSH2 0x1FE PUSH1 0x4 DUP1 CALLDATASIZE SUB DUP2 ADD SWAP1 PUSH2 0x1F9 SWAP2 SWAP1 PUSH2 0x136A JUMP JUMPDEST PUSH2 0xBE6 JUMP JUMPDEST STOP JUMPDEST CALLVALUE DUP1 ISZERO PUSH2 0x20C JUMPI PUSH1 0x0 DUP1 REVERT JUMPDEST POP PUSH2 0x227 PUSH1 0x4 DUP1 CALLDATASIZE SUB DUP2 ADD SWAP1 PUSH2 0x222 SWAP2 SWAP1 PUSH2 0x14CB JUMP JUMPDEST PUSH2 0xE83 JUMP JUMPDEST STOP JUMPDEST CALLVALUE DUP1 ISZERO PUSH2 0x235 JUMPI PUSH1 0x0 DUP1 REVERT JUMPDEST POP PUSH2 0x250 PUSH1 0x4 DUP1 CALLDATASIZE SUB DUP2 ADD SWAP1 PUSH2 0x24B SWAP2 SWAP1 PUSH2 0x1122 JUMP JUMPDEST PUSH2 0xF75 JUMP JUMPDEST STOP JUMPDEST PUSH1 0x3 PUSH1 0x0 SWAP1 SLOAD SWAP1 PUSH2 0x100 EXP SWAP1 DIV PUSH20 0xFFFFFFFFFFFFFFFFFFFFFFFFFFFFFFFFFFFFFFFF AND PUSH20 0xFFFFFFFFFFFFFFFFFFFFFFFFFFFFFFFFFFFFFFFF AND PUSH4 0xECDED204 CALLER PUSH1 0x40 MLOAD DUP3 PUSH4 0xFFFFFFFF AND PUSH1 0xE0 SHL DUP2 MSTORE PUSH1 0x4 ADD PUSH2 0x2AD SWAP2 SWAP1 PUSH2 0x13A6 JUMP JUMPDEST PUSH1 0x20 PUSH1 0x40 MLOAD DUP1 DUP4 SUB DUP2 DUP7 GAS STATICCALL ISZERO DUP1 ISZERO PUSH2 0x2CA JUMPI RETURNDATASIZE PUSH1 0x0 DUP1 RETURNDATACOPY RETURNDATASIZE PUSH1 0x0 REVERT JUMPDEST POP POP POP POP PUSH1 0x40 MLOAD RETURNDATASIZE PUSH1 0x1F NOT PUSH1 0x1F DUP3 ADD AND DUP3 ADD DUP1 PUSH1 0x40 MSTORE POP DUP2 ADD SWAP1 PUSH2 0x2EE SWAP2 SWAP1 PUSH2 0x15AA JUMP JUMPDEST PUSH2 0x2F7 JUMPI PUSH1 0x0 DUP1 REVERT JUMPDEST PUSH1 0x0 PUSH1 0x2 PUSH1 0x0 SWAP1 SLOAD SWAP1 PUSH2 0x100 EXP SWAP1 DIV PUSH20 0xFFFFFFFFFFFFFFFFFFFFFFFFFFFFFFFFFFFFFFFF AND PUSH20 0xFFFFFFFFFFFFFFFFFFFFFFFFFFFFFFFFFFFFFFFF AND PUSH4 0x6C230EEF DUP6 PUSH1 0x40 MLOAD DUP3 PUSH4 0xFFFFFFFF AND PUSH1 0xE0 SHL DUP2 MSTORE PUSH1 0x4 ADD PUSH2 0x354 SWAP2 SWAP1 PUSH2 0x13D0 JUMP JUMPDEST PUSH1 0x20 PUSH1 0x40 MLOAD DUP1 DUP4 SUB DUP2 DUP7 GAS STATICCALL ISZERO DUP1 ISZERO PUSH2 0x371 JUMPI RETURNDATASIZE PUSH1 0x0 DUP1 RETURNDATACOPY RETURNDATASIZE PUSH1 0x0 REVERT JUMPDEST POP POP POP POP PUSH1 0x40 MLOAD RETURNDATASIZE PUSH1 0x1F NOT PUSH1 0x1F DUP3 ADD AND DUP3 ADD DUP1 PUSH1 0x40 MSTORE POP DUP2 ADD SWAP1 PUSH2 0x395 SWAP2 SWAP1 PUSH2 0x15EC JUMP JUMPDEST SWAP1 POP CALLVALUE DUP2 EQ PUSH2 0x3A3 JUMPI PUSH1 0x0 DUP1 REVERT JUMPDEST PUSH1 0x0 PUSH1 0x4 PUSH1 0x0 SWAP1 SLOAD SWAP1 PUSH2 0x100 EXP SWAP1 DIV PUSH20 0xFFFFFFFFFFFFFFFFFFFFFFFFFFFFFFFFFFFFFFFF AND PUSH20 0xFFFFFFFFFFFFFFFFFFFFFFFFFFFFFFFFFFFFFFFF AND PUSH4 0xA46D8AC7 CALLER DUP8 DUP8 DUP8 PUSH1 0x40 MLOAD DUP6 PUSH4 0xFFFFFFFF AND PUSH1 0xE0 SHL DUP2 MSTORE PUSH1 0x4 ADD PUSH2 0x406 SWAP5 SWAP4 SWAP3 SWAP2 SWAP1 PUSH2 0x1619 JUMP JUMPDEST PUSH1 0x20 PUSH1 0x40 MLOAD DUP1 DUP4 SUB DUP2 PUSH1 0x0 DUP8 GAS CALL ISZERO DUP1 ISZERO PUSH2 0x425 JUMPI RETURNDATASIZE PUSH1 0x0 DUP1 RETURNDATACOPY RETURNDATASIZE PUSH1 0x0 REVERT JUMPDEST POP POP POP POP PUSH1 0x40 MLOAD RETURNDATASIZE PUSH1 0x1F NOT PUSH1 0x1F DUP3 ADD AND DUP3 ADD DUP1 PUSH1 0x40 MSTORE POP DUP2 ADD SWAP1 PUSH2 0x449 SWAP2 SWAP1 PUSH2 0x15EC JUMP JUMPDEST SWAP1 POP PUSH1 0x3 PUSH1 0x0 SWAP1 SLOAD SWAP1 PUSH2 0x100 EXP SWAP1 DIV PUSH20 0xFFFFFFFFFFFFFFFFFFFFFFFFFFFFFFFFFFFFFFFF AND PUSH20 0xFFFFFFFFFFFFFFFFFFFFFFFFFFFFFFFFFFFFFFFF AND PUSH4 0xE597EF12 CALLER DUP4 PUSH1 0x40 MLOAD DUP4 PUSH4 0xFFFFFFFF AND PUSH1 0xE0 SHL DUP2 MSTORE PUSH1 0x4 ADD PUSH2 0x4A8 SWAP3 SWAP2 SWAP1 PUSH2 0x165E JUMP JUMPDEST PUSH1 0x0 PUSH1 0x40 MLOAD DUP1 DUP4 SUB DUP2 PUSH1 0x0 DUP8 DUP1 EXTCODESIZE ISZERO DUP1 ISZERO PUSH2 0x4C2 JUMPI PUSH1 0x0 DUP1 REVERT JUMPDEST POP GAS CALL ISZERO DUP1 ISZERO PUSH2 0x4D6 JUMPI RETURNDATASIZE PUSH1 0x0 DUP1 RETURNDATACOPY RETURNDATASIZE PUSH1 0x0 REVERT JUMPDEST POP POP POP POP PUSH1 0x2 PUSH1 0x0 SWAP1 SLOAD SWAP1 PUSH2 0x100 EXP SWAP1 DIV PUSH20 0xFFFFFFFFFFFFFFFFFFFFFFFFFFFFFFFFFFFFFFFF AND PUSH20 0xFFFFFFFFFFFFFFFFFFFFFFFFFFFFFFFFFFFFFFFF AND PUSH4 0xA6B2A25 DUP7 PUSH1 0x40 MLOAD DUP3 PUSH4 0xFFFFFFFF AND PUSH1 0xE0 SHL DUP2 MSTORE PUSH1 0x4 ADD PUSH2 0x535 SWAP2 SWAP1 PUSH2 0x13D0 JUMP JUMPDEST PUSH1 0x0 PUSH1 0x40 MLOAD DUP1 DUP4 SUB DUP2 PUSH1 0x0 DUP8 DUP1 EXTCODESIZE ISZERO DUP1 ISZERO PUSH2 0x54F JUMPI PUSH1 0x0 DUP1 REVERT JUMPDEST POP GAS CALL ISZERO DUP1 ISZERO PUSH2 0x563 JUMPI RETURNDATASIZE PUSH1 0x0 DUP1 RETURNDATACOPY RETURNDATASIZE PUSH1 0x0 REVERT JUMPDEST POP POP POP POP POP POP POP POP POP JUMP JUMPDEST PUSH1 0x3 PUSH1 0x0 SWAP1 SLOAD SWAP1 PUSH2 0x100 EXP SWAP1 DIV PUSH20 0xFFFFFFFFFFFFFFFFFFFFFFFFFFFFFFFFFFFFFFFF AND PUSH20 0xFFFFFFFFFFFFFFFFFFFFFFFFFFFFFFFFFFFFFFFF AND PUSH4 0x4420E486 CALLER PUSH1 0x40 MLOAD DUP3 PUSH4 0xFFFFFFFF AND PUSH1 0xE0 SHL DUP2 MSTORE PUSH1 0x4 ADD PUSH2 0x5C9 SWAP2 SWAP1 PUSH2 0x13A6 JUMP JUMPDEST PUSH1 0x0 PUSH1 0x40 MLOAD DUP1 DUP4 SUB DUP2 PUSH1 0x0 DUP8 DUP1 EXTCODESIZE ISZERO DUP1 ISZERO PUSH2 0x5E3 JUMPI PUSH1 0x0 DUP1 REVERT JUMPDEST POP GAS CALL ISZERO DUP1 ISZERO PUSH2 0x5F7 JUMPI RETURNDATASIZE PUSH1 0x0 DUP1 RETURNDATACOPY RETURNDATASIZE PUSH1 0x0 REVERT JUMPDEST POP POP POP POP JUMP JUMPDEST PUSH1 0x1 PUSH1 0x20 MSTORE DUP1 PUSH1 0x0 MSTORE PUSH1 0x40 PUSH1 0x0 KECCAK256 PUSH1 0x0 SWAP2 POP SLOAD SWAP1 PUSH2 0x100 EXP SWAP1 DIV PUSH1 0xFF AND DUP2 JUMP JUMPDEST CALLER PUSH20 0xFFFFFFFFFFFFFFFFFFFFFFFFFFFFFFFFFFFFFFFF AND PUSH1 0x0 DUP1 SLOAD SWAP1 PUSH2 0x100 EXP SWAP1 DIV PUSH20 0xFFFFFFFFFFFFFFFFFFFFFFFFFFFFFFFFFFFFFFFF AND PUSH20 0xFFFFFFFFFFFFFFFFFFFFFFFFFFFFFFFFFFFFFFFF AND EQ PUSH2 0x675 JUMPI PUSH1 0x0 DUP1 REVERT JUMPDEST PUSH1 0x2 PUSH1 0x0 SWAP1 SLOAD SWAP1 PUSH2 0x100 EXP SWAP1 DIV PUSH20 0xFFFFFFFFFFFFFFFFFFFFFFFFFFFFFFFFFFFFFFFF AND PUSH20 0xFFFFFFFFFFFFFFFFFFFFFFFFFFFFFFFFFFFFFFFF AND PUSH4 0xE71448A9 DUP6 PUSH1 0x40 MLOAD DUP3 PUSH4 0xFFFFFFFF AND PUSH1 0xE0 SHL DUP2 MSTORE PUSH1 0x4 ADD PUSH2 0x6D0 SWAP2 SWAP1 PUSH2 0x170F JUMP JUMPDEST PUSH1 0x20 PUSH1 0x40 MLOAD DUP1 DUP4 SUB DUP2 DUP7 GAS STATICCALL ISZERO DUP1 ISZERO PUSH2 0x6ED JUMPI RETURNDATASIZE PUSH1 0x0 DUP1 RETURNDATACOPY RETURNDATASIZE PUSH1 0x0 REVERT JUMPDEST POP POP POP POP PUSH1 0x40 MLOAD RETURNDATASIZE PUSH1 0x1F NOT PUSH1 0x1F DUP3 ADD AND DUP3 ADD DUP1 PUSH1 0x40 MSTORE POP DUP2 ADD SWAP1 PUSH2 0x711 SWAP2 SWAP1 PUSH2 0x15AA JUMP JUMPDEST ISZERO PUSH2 0x71B JUMPI PUSH1 0x0 DUP1 REVERT JUMPDEST PUSH1 0x2 PUSH1 0x0 SWAP1 SLOAD SWAP1 PUSH2 0x100 EXP SWAP1 DIV PUSH20 0xFFFFFFFFFFFFFFFFFFFFFFFFFFFFFFFFFFFFFFFF AND PUSH20 0xFFFFFFFFFFFFFFFFFFFFFFFFFFFFFFFFFFFFFFFF AND PUSH4 0x687564AE DUP6 DUP6 DUP6 DUP6 PUSH1 0x40 MLOAD DUP6 PUSH4 0xFFFFFFFF AND PUSH1 0xE0 SHL DUP2 MSTORE PUSH1 0x4 ADD PUSH2 0x77C SWAP5 SWAP4 SWAP3 SWAP2 SWAP1 PUSH2 0x1731 JUMP JUMPDEST PUSH1 0x0 PUSH1 0x40 MLOAD DUP1 DUP4 SUB DUP2 PUSH1 0x0 DUP8 DUP1 EXTCODESIZE ISZERO DUP1 ISZERO PUSH2 0x796 JUMPI PUSH1 0x0 DUP1 REVERT JUMPDEST POP GAS CALL ISZERO DUP1 ISZERO PUSH2 0x7AA JUMPI RETURNDATASIZE PUSH1 0x0 DUP1 RETURNDATACOPY RETURNDATASIZE PUSH1 0x0 REVERT JUMPDEST POP POP POP POP POP POP POP POP JUMP JUMPDEST PUSH1 0x3 PUSH1 0x0 SWAP1 SLOAD SWAP1 PUSH2 0x100 EXP SWAP1 DIV PUSH20 0xFFFFFFFFFFFFFFFFFFFFFFFFFFFFFFFFFFFFFFFF AND PUSH20 0xFFFFFFFFFFFFFFFFFFFFFFFFFFFFFFFFFFFFFFFF AND PUSH4 0xECDED204 CALLER PUSH1 0x40 MLOAD DUP3 PUSH4 0xFFFFFFFF AND PUSH1 0xE0 SHL DUP2 MSTORE PUSH1 0x4 ADD PUSH2 0x80F SWAP2 SWAP1 PUSH2 0x13A6 JUMP JUMPDEST PUSH1 0x20 PUSH1 0x40 MLOAD DUP1 DUP4 SUB DUP2 DUP7 GAS STATICCALL ISZERO DUP1 ISZERO PUSH2 0x82C JUMPI RETURNDATASIZE PUSH1 0x0 DUP1 RETURNDATACOPY RETURNDATASIZE PUSH1 0x0 REVERT JUMPDEST POP POP POP POP PUSH1 0x40 MLOAD RETURNDATASIZE PUSH1 0x1F NOT PUSH1 0x1F DUP3 ADD AND DUP3 ADD DUP1 PUSH1 0x40 MSTORE POP DUP2 ADD SWAP1 PUSH2 0x850 SWAP2 SWAP1 PUSH2 0x15AA JUMP JUMPDEST PUSH2 0x859 JUMPI PUSH1 0x0 DUP1 REVERT JUMPDEST PUSH1 0x0 PUSH1 0x4 PUSH1 0x0 SWAP1 SLOAD SWAP1 PUSH2 0x100 EXP SWAP1 DIV PUSH20 0xFFFFFFFFFFFFFFFFFFFFFFFFFFFFFFFFFFFFFFFF AND PUSH20 0xFFFFFFFFFFFFFFFFFFFFFFFFFFFFFFFFFFFFFFFF AND PUSH4 0x1CE06944 DUP4 PUSH1 0x40 MLOAD DUP3 PUSH4 0xFFFFFFFF AND PUSH1 0xE0 SHL DUP2 MSTORE PUSH1 0x4 ADD PUSH2 0x8B6 SWAP2 SWAP1 PUSH2 0x13D0 JUMP JUMPDEST PUSH1 0x20 PUSH1 0x40 MLOAD DUP1 DUP4 SUB DUP2 DUP7 GAS STATICCALL ISZERO DUP1 ISZERO PUSH2 0x8D3 JUMPI RETURNDATASIZE PUSH1 0x0 DUP1 RETURNDATACOPY RETURNDATASIZE PUSH1 0x0 REVERT JUMPDEST POP POP POP POP PUSH1 0x40 MLOAD RETURNDATASIZE PUSH1 0x1F NOT PUSH1 0x1F DUP3 ADD AND DUP3 ADD DUP1 PUSH1 0x40 MSTORE POP DUP2 ADD SWAP1 PUSH2 0x8F7 SWAP2 SWAP1 PUSH2 0x15EC JUMP JUMPDEST SWAP1 POP PUSH1 0x0 PUSH1 0x3 PUSH1 0x0 SWAP1 SLOAD SWAP1 PUSH2 0x100 EXP SWAP1 DIV PUSH20 0xFFFFFFFFFFFFFFFFFFFFFFFFFFFFFFFFFFFFFFFF AND PUSH20 0xFFFFFFFFFFFFFFFFFFFFFFFFFFFFFFFFFFFFFFFF AND PUSH4 0x19AA98A3 CALLER PUSH1 0x40 MLOAD DUP3 PUSH4 0xFFFFFFFF AND PUSH1 0xE0 SHL DUP2 MSTORE PUSH1 0x4 ADD PUSH2 0x956 SWAP2 SWAP1 PUSH2 0x13A6 JUMP JUMPDEST PUSH1 0x20 PUSH1 0x40 MLOAD DUP1 DUP4 SUB DUP2 DUP7 GAS STATICCALL ISZERO DUP1 ISZERO PUSH2 0x973 JUMPI RETURNDATASIZE PUSH1 0x0 DUP1 RETURNDATACOPY RETURNDATASIZE PUSH1 0x0 REVERT JUMPDEST POP POP POP POP PUSH1 0x40 MLOAD RETURNDATASIZE PUSH1 0x1F NOT PUSH1 0x1F DUP3 ADD AND DUP3 ADD DUP1 PUSH1 0x40 MSTORE POP DUP2 ADD SWAP1 PUSH2 0x997 SWAP2 SWAP1 PUSH2 0x15EC JUMP JUMPDEST SWAP1 POP PUSH1 0x6 SLOAD DUP2 LT PUSH2 0x9A7 JUMPI PUSH1 0x0 DUP1 REVERT JUMPDEST CALLVALUE DUP3 EQ PUSH2 0x9B3 JUMPI PUSH1 0x0 DUP1 REVERT JUMPDEST PUSH1 0x4 PUSH1 0x0 SWAP1 SLOAD SWAP1 PUSH2 0x100 EXP SWAP1 DIV PUSH20 0xFFFFFFFFFFFFFFFFFFFFFFFFFFFFFFFFFFFFFFFF AND PUSH20 0xFFFFFFFFFFFFFFFFFFFFFFFFFFFFFFFFFFFFFFFF AND PUSH4 0xAB21A2BE DUP5 CALLER PUSH1 0x40 MLOAD DUP4 PUSH4 0xFFFFFFFF AND PUSH1 0xE0 SHL DUP2 MSTORE PUSH1 0x4 ADD PUSH2 0xA10 SWAP3 SWAP2 SWAP1 PUSH2 0x1784 JUMP JUMPDEST PUSH1 0x0 PUSH1 0x40 MLOAD DUP1 DUP4 SUB DUP2 PUSH1 0x0 DUP8 DUP1 EXTCODESIZE ISZERO DUP1 ISZERO PUSH2 0xA2A JUMPI PUSH1 0x0 DUP1 REVERT JUMPDEST POP GAS CALL ISZERO DUP1 ISZERO PUSH2 0xA3E JUMPI RETURNDATASIZE PUSH1 0x0 DUP1 RETURNDATACOPY RETURNDATASIZE PUSH1 0x0 REVERT JUMPDEST POP POP POP POP PUSH1 0x3 PUSH1 0x0 SWAP1 SLOAD SWAP1 PUSH2 0x100 EXP SWAP1 DIV PUSH20 0xFFFFFFFFFFFFFFFFFFFFFFFFFFFFFFFFFFFFFFFF AND PUSH20 0xFFFFFFFFFFFFFFFFFFFFFFFFFFFFFFFFFFFFFFFF AND PUSH4 0xA5A9C518 CALLER DUP6 PUSH1 0x40 MLOAD DUP4 PUSH4 0xFFFFFFFF AND PUSH1 0xE0 SHL DUP2 MSTORE PUSH1 0x4 ADD PUSH2 0xA9F SWAP3 SWAP2 SWAP1 PUSH2 0x165E JUMP JUMPDEST PUSH1 0x0 PUSH1 0x40 MLOAD DUP1 DUP4 SUB DUP2 PUSH1 0x0 DUP8 DUP1 EXTCODESIZE ISZERO DUP1 ISZERO PUSH2 0xAB9 JUMPI PUSH1 0x0 DUP1 REVERT JUMPDEST POP GAS CALL ISZERO DUP1 ISZERO PUSH2 0xACD JUMPI RETURNDATASIZE PUSH1 0x0 DUP1 RETURNDATACOPY RETURNDATASIZE PUSH1 0x0 REVERT JUMPDEST POP POP POP POP POP POP POP JUMP JUMPDEST PUSH1 0x0 DUP1 SLOAD SWAP1 PUSH2 0x100 EXP SWAP1 DIV PUSH20 0xFFFFFFFFFFFFFFFFFFFFFFFFFFFFFFFFFFFFFFFF AND DUP2 JUMP JUMPDEST PUSH1 0x6 SLOAD DUP2 JUMP JUMPDEST PUSH1 0x60 CALLER PUSH20 0xFFFFFFFFFFFFFFFFFFFFFFFFFFFFFFFFFFFFFFFF AND PUSH1 0x0 DUP1 SLOAD SWAP1 PUSH2 0x100 EXP SWAP1 DIV PUSH20 0xFFFFFFFFFFFFFFFFFFFFFFFFFFFFFFFFFFFFFFFF AND PUSH20 0xFFFFFFFFFFFFFFFFFFFFFFFFFFFFFFFFFFFFFFFF AND EQ PUSH2 0xB5A JUMPI PUSH1 0x0 DUP1 REVERT JUMPDEST PUSH1 0x5 DUP1 SLOAD DUP1 PUSH1 0x20 MUL PUSH1 0x20 ADD PUSH1 0x40 MLOAD SWAP1 DUP2 ADD PUSH1 0x40 MSTORE DUP1 SWAP3 SWAP2 SWAP1 DUP2 DUP2 MSTORE PUSH1 0x20 ADD DUP3 DUP1 SLOAD DUP1 ISZERO PUSH2 0xBDC JUMPI PUSH1 0x20 MUL DUP3 ADD SWAP2 SWAP1 PUSH1 0x0 MSTORE PUSH1 0x20 PUSH1 0x0 KECCAK256 SWAP1 JUMPDEST DUP2 PUSH1 0x0 SWAP1 SLOAD SWAP1 PUSH2 0x100 EXP SWAP1 DIV PUSH20 0xFFFFFFFFFFFFFFFFFFFFFFFFFFFFFFFFFFFFFFFF AND PUSH20 0xFFFFFFFFFFFFFFFFFFFFFFFFFFFFFFFFFFFFFFFF AND DUP2 MSTORE PUSH1 0x20 ADD SWAP1 PUSH1 0x1 ADD SWAP1 DUP1 DUP4 GT PUSH2 0xB92 JUMPI JUMPDEST POP POP POP POP POP SWAP1 POP SWAP1 JUMP JUMPDEST PUSH1 0x3 PUSH1 0x0 SWAP1 SLOAD SWAP1 PUSH2 0x100 EXP SWAP1 DIV PUSH20 0xFFFFFFFFFFFFFFFFFFFFFFFFFFFFFFFFFFFFFFFF AND PUSH20 0xFFFFFFFFFFFFFFFFFFFFFFFFFFFFFFFFFFFFFFFF AND PUSH4 0xECDED204 CALLER PUSH1 0x40 MLOAD DUP3 PUSH4 0xFFFFFFFF AND PUSH1 0xE0 SHL DUP2 MSTORE PUSH1 0x4 ADD PUSH2 0xC41 SWAP2 SWAP1 PUSH2 0x13A6 JUMP JUMPDEST PUSH1 0x20 PUSH1 0x40 MLOAD DUP1 DUP4 SUB DUP2 DUP7 GAS STATICCALL ISZERO DUP1 ISZERO PUSH2 0xC5E JUMPI RETURNDATASIZE PUSH1 0x0 DUP1 RETURNDATACOPY RETURNDATASIZE PUSH1 0x0 REVERT JUMPDEST POP POP POP POP PUSH1 0x40 MLOAD RETURNDATASIZE PUSH1 0x1F NOT PUSH1 0x1F DUP3 ADD AND DUP3 ADD DUP1 PUSH1 0x40 MSTORE POP DUP2 ADD SWAP1 PUSH2 0xC82 SWAP2 SWAP1 PUSH2 0x15AA JUMP JUMPDEST PUSH2 0xC8B JUMPI PUSH1 0x0 DUP1 REVERT JUMPDEST PUSH1 0x0 PUSH1 0x4 PUSH1 0x0 SWAP1 SLOAD SWAP1 PUSH2 0x100 EXP SWAP1 DIV PUSH20 0xFFFFFFFFFFFFFFFFFFFFFFFFFFFFFFFFFFFFFFFF AND PUSH20 0xFFFFFFFFFFFFFFFFFFFFFFFFFFFFFFFFFFFFFFFF AND PUSH4 0x3B2F7118 DUP4 PUSH1 0x40 MLOAD DUP3 PUSH4 0xFFFFFFFF AND PUSH1 0xE0 SHL DUP2 MSTORE PUSH1 0x4 ADD PUSH2 0xCE8 SWAP2 SWAP1 PUSH2 0x13D0 JUMP JUMPDEST PUSH1 0x20 PUSH1 0x40 MLOAD DUP1 DUP4 SUB DUP2 DUP7 GAS STATICCALL ISZERO DUP1 ISZERO PUSH2 0xD05 JUMPI RETURNDATASIZE PUSH1 0x0 DUP1 RETURNDATACOPY RETURNDATASIZE PUSH1 0x0 REVERT JUMPDEST POP POP POP POP PUSH1 0x40 MLOAD RETURNDATASIZE PUSH1 0x1F NOT PUSH1 0x1F DUP3 ADD AND DUP3 ADD DUP1 PUSH1 0x40 MSTORE POP DUP2 ADD SWAP1 PUSH2 0xD29 SWAP2 SWAP1 PUSH2 0x17C2 JUMP JUMPDEST SWAP1 POP CALLER PUSH20 0xFFFFFFFFFFFFFFFFFFFFFFFFFFFFFFFFFFFFFFFF AND DUP2 PUSH20 0xFFFFFFFFFFFFFFFFFFFFFFFFFFFFFFFFFFFFFFFF AND EQ PUSH2 0xD63 JUMPI PUSH1 0x0 DUP1 REVERT JUMPDEST PUSH1 0x4 PUSH1 0x0 SWAP1 SLOAD SWAP1 PUSH2 0x100 EXP SWAP1 DIV PUSH20 0xFFFFFFFFFFFFFFFFFFFFFFFFFFFFFFFFFFFFFFFF AND PUSH20 0xFFFFFFFFFFFFFFFFFFFFFFFFFFFFFFFFFFFFFFFF AND PUSH4 0xCA5140C9 DUP4 PUSH1 0x40 MLOAD DUP3 PUSH4 0xFFFFFFFF AND PUSH1 0xE0 SHL DUP2 MSTORE PUSH1 0x4 ADD PUSH2 0xDBE SWAP2 SWAP1 PUSH2 0x13D0 JUMP JUMPDEST PUSH1 0x0 PUSH1 0x40 MLOAD DUP1 DUP4 SUB DUP2 PUSH1 0x0 DUP8 DUP1 EXTCODESIZE ISZERO DUP1 ISZERO PUSH2 0xDD8 JUMPI PUSH1 0x0 DUP1 REVERT JUMPDEST POP GAS CALL ISZERO DUP1 ISZERO PUSH2 0xDEC JUMPI RETURNDATASIZE PUSH1 0x0 DUP1 RETURNDATACOPY RETURNDATASIZE PUSH1 0x0 REVERT JUMPDEST POP POP POP POP PUSH1 0x3 PUSH1 0x0 SWAP1 SLOAD SWAP1 PUSH2 0x100 EXP SWAP1 DIV PUSH20 0xFFFFFFFFFFFFFFFFFFFFFFFFFFFFFFFFFFFFFFFF AND PUSH20 0xFFFFFFFFFFFFFFFFFFFFFFFFFFFFFFFFFFFFFFFF AND PUSH4 0x4A09DB4F CALLER DUP5 PUSH1 0x40 MLOAD DUP4 PUSH4 0xFFFFFFFF AND PUSH1 0xE0 SHL DUP2 MSTORE PUSH1 0x4 ADD PUSH2 0xE4D SWAP3 SWAP2 SWAP1 PUSH2 0x165E JUMP JUMPDEST PUSH1 0x0 PUSH1 0x40 MLOAD DUP1 DUP4 SUB DUP2 PUSH1 0x0 DUP8 DUP1 EXTCODESIZE ISZERO DUP1 ISZERO PUSH2 0xE67 JUMPI PUSH1 0x0 DUP1 REVERT JUMPDEST POP GAS CALL ISZERO DUP1 ISZERO PUSH2 0xE7B JUMPI RETURNDATASIZE PUSH1 0x0 DUP1 RETURNDATACOPY RETURNDATASIZE PUSH1 0x0 REVERT JUMPDEST POP POP POP POP POP POP JUMP JUMPDEST PUSH1 0x1 PUSH1 0x0 CALLER PUSH20 0xFFFFFFFFFFFFFFFFFFFFFFFFFFFFFFFFFFFFFFFF AND PUSH20 0xFFFFFFFFFFFFFFFFFFFFFFFFFFFFFFFFFFFFFFFF AND DUP2 MSTORE PUSH1 0x20 ADD SWAP1 DUP2 MSTORE PUSH1 0x20 ADD PUSH1 0x0 KECCAK256 PUSH1 0x0 SWAP1 SLOAD SWAP1 PUSH2 0x100 EXP SWAP1 DIV PUSH1 0xFF AND PUSH2 0xED9 JUMPI PUSH1 0x0 DUP1 REVERT JUMPDEST PUSH1 0x2 PUSH1 0x0 SWAP1 SLOAD SWAP1 PUSH2 0x100 EXP SWAP1 DIV PUSH20 0xFFFFFFFFFFFFFFFFFFFFFFFFFFFFFFFFFFFFFFFF AND PUSH20 0xFFFFFFFFFFFFFFFFFFFFFFFFFFFFFFFFFFFFFFFF AND PUSH4 0xD2C07E20 DUP7 DUP7 DUP7 DUP7 DUP7 PUSH1 0x40 MLOAD DUP7 PUSH4 0xFFFFFFFF AND PUSH1 0xE0 SHL DUP2 MSTORE PUSH1 0x4 ADD PUSH2 0xF3C SWAP6 SWAP5 SWAP4 SWAP3 SWAP2 SWAP1 PUSH2 0x17EF JUMP JUMPDEST PUSH1 0x0 PUSH1 0x40 MLOAD DUP1 DUP4 SUB DUP2 PUSH1 0x0 DUP8 DUP1 EXTCODESIZE ISZERO DUP1 ISZERO PUSH2 0xF56 JUMPI PUSH1 0x0 DUP1 REVERT JUMPDEST POP GAS CALL ISZERO DUP1 ISZERO PUSH2 0xF6A JUMPI RETURNDATASIZE PUSH1 0x0 DUP1 RETURNDATACOPY RETURNDATASIZE PUSH1 0x0 REVERT JUMPDEST POP POP POP POP POP POP POP POP POP JUMP JUMPDEST CALLER PUSH20 0xFFFFFFFFFFFFFFFFFFFFFFFFFFFFFFFFFFFFFFFF AND PUSH1 0x0 DUP1 SLOAD SWAP1 PUSH2 0x100 EXP SWAP1 DIV PUSH20 0xFFFFFFFFFFFFFFFFFFFFFFFFFFFFFFFFFFFFFFFF AND PUSH20 0xFFFFFFFFFFFFFFFFFFFFFFFFFFFFFFFFFFFFFFFF AND EQ PUSH2 0xFCD JUMPI PUSH1 0x0 DUP1 REVERT JUMPDEST PUSH1 0x1 DUP1 PUSH1 0x0 DUP4 PUSH20 0xFFFFFFFFFFFFFFFFFFFFFFFFFFFFFFFFFFFFFFFF AND PUSH20 0xFFFFFFFFFFFFFFFFFFFFFFFFFFFFFFFFFFFFFFFF AND DUP2 MSTORE PUSH1 0x20 ADD SWAP1 DUP2 MSTORE PUSH1 0x20 ADD PUSH1 0x0 KECCAK256 PUSH1 0x0 PUSH2 0x100 EXP DUP2 SLOAD DUP2 PUSH1 0xFF MUL NOT AND SWAP1 DUP4 ISZERO ISZERO MUL OR SWAP1 SSTORE POP POP JUMP JUMPDEST PUSH1 0x0 PUSH1 0x40 MLOAD SWAP1 POP SWAP1 JUMP JUMPDEST PUSH1 0x0 DUP1 REVERT JUMPDEST PUSH1 0x0 DUP1 REVERT JUMPDEST PUSH1 0x0 DUP2 SWAP1 POP SWAP2 SWAP1 POP JUMP JUMPDEST PUSH2 0x104E DUP2 PUSH2 0x103B JUMP JUMPDEST DUP2 EQ PUSH2 0x1059 JUMPI PUSH1 0x0 DUP1 REVERT JUMPDEST POP JUMP JUMPDEST PUSH1 0x0 DUP2 CALLDATALOAD SWAP1 POP PUSH2 0x106B DUP2 PUSH2 0x1045 JUMP JUMPDEST SWAP3 SWAP2 POP POP JUMP JUMPDEST PUSH1 0x0 DUP1 PUSH1 0x0 PUSH1 0x60 DUP5 DUP7 SUB SLT ISZERO PUSH2 0x108A JUMPI PUSH2 0x1089 PUSH2 0x1031 JUMP JUMPDEST JUMPDEST PUSH1 0x0 PUSH2 0x1098 DUP7 DUP3 DUP8 ADD PUSH2 0x105C JUMP JUMPDEST SWAP4 POP POP PUSH1 0x20 PUSH2 0x10A9 DUP7 DUP3 DUP8 ADD PUSH2 0x105C JUMP JUMPDEST SWAP3 POP POP PUSH1 0x40 PUSH2 0x10BA DUP7 DUP3 DUP8 ADD PUSH2 0x105C JUMP JUMPDEST SWAP2 POP POP SWAP3 POP SWAP3 POP SWAP3 JUMP JUMPDEST PUSH1 0x0 PUSH20 0xFFFFFFFFFFFFFFFFFFFFFFFFFFFFFFFFFFFFFFFF DUP3 AND SWAP1 POP SWAP2 SWAP1 POP JUMP JUMPDEST PUSH1 0x0 PUSH2 0x10EF DUP3 PUSH2 0x10C4 JUMP JUMPDEST SWAP1 POP SWAP2 SWAP1 POP JUMP JUMPDEST PUSH2 0x10FF DUP2 PUSH2 0x10E4 JUMP JUMPDEST DUP2 EQ PUSH2 0x110A JUMPI PUSH1 0x0 DUP1 REVERT JUMPDEST POP JUMP JUMPDEST PUSH1 0x0 DUP2 CALLDATALOAD SWAP1 POP PUSH2 0x111C DUP2 PUSH2 0x10F6 JUMP JUMPDEST SWAP3 SWAP2 POP POP JUMP JUMPDEST PUSH1 0x0 PUSH1 0x20 DUP3 DUP5 SUB SLT ISZERO PUSH2 0x1138 JUMPI PUSH2 0x1137 PUSH2 0x1031 JUMP JUMPDEST JUMPDEST PUSH1 0x0 PUSH2 0x1146 DUP5 DUP3 DUP6 ADD PUSH2 0x110D JUMP JUMPDEST SWAP2 POP POP SWAP3 SWAP2 POP POP JUMP JUMPDEST PUSH1 0x0 DUP2 ISZERO ISZERO SWAP1 POP SWAP2 SWAP1 POP JUMP JUMPDEST PUSH2 0x1164 DUP2 PUSH2 0x114F JUMP JUMPDEST DUP3 MSTORE POP POP JUMP JUMPDEST PUSH1 0x0 PUSH1 0x20 DUP3 ADD SWAP1 POP PUSH2 0x117F PUSH1 0x0 DUP4 ADD DUP5 PUSH2 0x115B JUMP JUMPDEST SWAP3 SWAP2 POP POP JUMP JUMPDEST PUSH1 0x0 DUP1 REVERT JUMPDEST PUSH1 0x0 DUP1 REVERT JUMPDEST PUSH1 0x0 PUSH1 0x1F NOT PUSH1 0x1F DUP4 ADD AND SWAP1 POP SWAP2 SWAP1 POP JUMP JUMPDEST PUSH32 0x4E487B7100000000000000000000000000000000000000000000000000000000 PUSH1 0x0 MSTORE PUSH1 0x41 PUSH1 0x4 MSTORE PUSH1 0x24 PUSH1 0x0 REVERT JUMPDEST PUSH2 0x11D8 DUP3 PUSH2 0x118F JUMP JUMPDEST DUP2 ADD DUP2 DUP2 LT PUSH8 0xFFFFFFFFFFFFFFFF DUP3 GT OR ISZERO PUSH2 0x11F7 JUMPI PUSH2 0x11F6 PUSH2 0x11A0 JUMP JUMPDEST JUMPDEST DUP1 PUSH1 0x40 MSTORE POP POP POP JUMP JUMPDEST PUSH1 0x0 PUSH2 0x120A PUSH2 0x1027 JUMP JUMPDEST SWAP1 POP PUSH2 0x1216 DUP3 DUP3 PUSH2 0x11CF JUMP JUMPDEST SWAP2 SWAP1 POP JUMP JUMPDEST PUSH1 0x0 PUSH8 0xFFFFFFFFFFFFFFFF DUP3 GT ISZERO PUSH2 0x1236 JUMPI PUSH2 0x1235 PUSH2 0x11A0 JUMP JUMPDEST JUMPDEST PUSH2 0x123F DUP3 PUSH2 0x118F JUMP JUMPDEST SWAP1 POP PUSH1 0x20 DUP2 ADD SWAP1 POP SWAP2 SWAP1 POP JUMP JUMPDEST DUP3 DUP2 DUP4 CALLDATACOPY PUSH1 0x0 DUP4 DUP4 ADD MSTORE POP POP POP JUMP JUMPDEST PUSH1 0x0 PUSH2 0x126E PUSH2 0x1269 DUP5 PUSH2 0x121B JUMP JUMPDEST PUSH2 0x1200 JUMP JUMPDEST SWAP1 POP DUP3 DUP2 MSTORE PUSH1 0x20 DUP2 ADD DUP5 DUP5 DUP5 ADD GT ISZERO PUSH2 0x128A JUMPI PUSH2 0x1289 PUSH2 0x118A JUMP JUMPDEST JUMPDEST PUSH2 0x1295 DUP5 DUP3 DUP6 PUSH2 0x124C JUMP JUMPDEST POP SWAP4 SWAP3 POP POP POP JUMP JUMPDEST PUSH1 0x0 DUP3 PUSH1 0x1F DUP4 ADD SLT PUSH2 0x12B2 JUMPI PUSH2 0x12B1 PUSH2 0x1185 JUMP JUMPDEST JUMPDEST DUP2 CALLDATALOAD PUSH2 0x12C2 DUP5 DUP3 PUSH1 0x20 DUP7 ADD PUSH2 0x125B JUMP JUMPDEST SWAP2 POP POP SWAP3 SWAP2 POP POP JUMP JUMPDEST PUSH1 0x0 DUP1 PUSH1 0x0 DUP1 PUSH1 0x80 DUP6 DUP8 SUB SLT ISZERO PUSH2 0x12E5 JUMPI PUSH2 0x12E4 PUSH2 0x1031 JUMP JUMPDEST JUMPDEST PUSH1 0x0 DUP6 ADD CALLDATALOAD PUSH8 0xFFFFFFFFFFFFFFFF DUP2 GT ISZERO PUSH2 0x1303 JUMPI PUSH2 0x1302 PUSH2 0x1036 JUMP JUMPDEST JUMPDEST PUSH2 0x130F DUP8 DUP3 DUP9 ADD PUSH2 0x129D JUMP JUMPDEST SWAP5 POP POP PUSH1 0x20 DUP6 ADD CALLDATALOAD PUSH8 0xFFFFFFFFFFFFFFFF DUP2 GT ISZERO PUSH2 0x1330 JUMPI PUSH2 0x132F PUSH2 0x1036 JUMP JUMPDEST JUMPDEST PUSH2 0x133C DUP8 DUP3 DUP9 ADD PUSH2 0x129D JUMP JUMPDEST SWAP4 POP POP PUSH1 0x40 PUSH2 0x134D DUP8 DUP3 DUP9 ADD PUSH2 0x105C JUMP JUMPDEST SWAP3 POP POP PUSH1 0x60 PUSH2 0x135E DUP8 DUP3 DUP9 ADD PUSH2 0x110D JUMP JUMPDEST SWAP2 POP POP SWAP3 SWAP6 SWAP2 SWAP5 POP SWAP3 POP JUMP JUMPDEST PUSH1 0x0 PUSH1 0x20 DUP3 DUP5 SUB SLT ISZERO PUSH2 0x1380 JUMPI PUSH2 0x137F PUSH2 0x1031 JUMP JUMPDEST JUMPDEST PUSH1 0x0 PUSH2 0x138E DUP5 DUP3 DUP6 ADD PUSH2 0x105C JUMP JUMPDEST SWAP2 POP POP SWAP3 SWAP2 POP POP JUMP JUMPDEST PUSH2 0x13A0 DUP2 PUSH2 0x10E4 JUMP JUMPDEST DUP3 MSTORE POP POP JUMP JUMPDEST PUSH1 0x0 PUSH1 0x20 DUP3 ADD SWAP1 POP PUSH2 0x13BB PUSH1 0x0 DUP4 ADD DUP5 PUSH2 0x1397 JUMP JUMPDEST SWAP3 SWAP2 POP POP JUMP JUMPDEST PUSH2 0x13CA DUP2 PUSH2 0x103B JUMP JUMPDEST DUP3 MSTORE POP POP JUMP JUMPDEST PUSH1 0x0 PUSH1 0x20 DUP3 ADD SWAP1 POP PUSH2 0x13E5 PUSH1 0x0 DUP4 ADD DUP5 PUSH2 0x13C1 JUMP JUMPDEST SWAP3 SWAP2 POP POP JUMP JUMPDEST PUSH1 0x0 DUP2 MLOAD SWAP1 POP SWAP2 SWAP1 POP JUMP JUMPDEST PUSH1 0x0 DUP3 DUP3 MSTORE PUSH1 0x20 DUP3 ADD SWAP1 POP SWAP3 SWAP2 POP POP JUMP JUMPDEST PUSH1 0x0 DUP2 SWAP1 POP PUSH1 0x20 DUP3 ADD SWAP1 POP SWAP2 SWAP1 POP JUMP JUMPDEST PUSH2 0x1420 DUP2 PUSH2 0x10E4 JUMP JUMPDEST DUP3 MSTORE POP POP JUMP JUMPDEST PUSH1 0x0 PUSH2 0x1432 DUP4 DUP4 PUSH2 0x1417 JUMP JUMPDEST PUSH1 0x20 DUP4 ADD SWAP1 POP SWAP3 SWAP2 POP POP JUMP JUMPDEST PUSH1 0x0 PUSH1 0x20 DUP3 ADD SWAP1 POP SWAP2 SWAP1 POP JUMP JUMPDEST PUSH1 0x0 PUSH2 0x1456 DUP3 PUSH2 0x13EB JUMP JUMPDEST PUSH2 0x1460 DUP2 DUP6 PUSH2 0x13F6 JUMP JUMPDEST SWAP4 POP PUSH2 0x146B DUP4 PUSH2 0x1407 JUMP JUMPDEST DUP1 PUSH1 0x0 JUMPDEST DUP4 DUP2 LT ISZERO PUSH2 0x149C JUMPI DUP2 MLOAD PUSH2 0x1483 DUP9 DUP3 PUSH2 0x1426 JUMP JUMPDEST SWAP8 POP PUSH2 0x148E DUP4 PUSH2 0x143E JUMP JUMPDEST SWAP3 POP POP PUSH1 0x1 DUP2 ADD SWAP1 POP PUSH2 0x146F JUMP JUMPDEST POP DUP6 SWAP4 POP POP POP POP SWAP3 SWAP2 POP POP JUMP JUMPDEST PUSH1 0x0 PUSH1 0x20 DUP3 ADD SWAP1 POP DUP2 DUP2 SUB PUSH1 0x0 DUP4 ADD MSTORE PUSH2 0x14C3 DUP2 DUP5 PUSH2 0x144B JUMP JUMPDEST SWAP1 POP SWAP3 SWAP2 POP POP JUMP JUMPDEST PUSH1 0x0 DUP1 PUSH1 0x0 DUP1 PUSH1 0x0 PUSH1 0xA0 DUP7 DUP9 SUB SLT ISZERO PUSH2 0x14E7 JUMPI PUSH2 0x14E6 PUSH2 0x1031 JUMP JUMPDEST JUMPDEST PUSH1 0x0 PUSH2 0x14F5 DUP9 DUP3 DUP10 ADD PUSH2 0x105C JUMP JUMPDEST SWAP6 POP POP PUSH1 0x20 DUP7 ADD CALLDATALOAD PUSH8 0xFFFFFFFFFFFFFFFF DUP2 GT ISZERO PUSH2 0x1516 JUMPI PUSH2 0x1515 PUSH2 0x1036 JUMP JUMPDEST JUMPDEST PUSH2 0x1522 DUP9 DUP3 DUP10 ADD PUSH2 0x129D JUMP JUMPDEST SWAP5 POP POP PUSH1 0x40 DUP7 ADD CALLDATALOAD PUSH8 0xFFFFFFFFFFFFFFFF DUP2 GT ISZERO PUSH2 0x1543 JUMPI PUSH2 0x1542 PUSH2 0x1036 JUMP JUMPDEST JUMPDEST PUSH2 0x154F DUP9 DUP3 DUP10 ADD PUSH2 0x129D JUMP JUMPDEST SWAP4 POP POP PUSH1 0x60 PUSH2 0x1560 DUP9 DUP3 DUP10 ADD PUSH2 0x105C JUMP JUMPDEST SWAP3 POP POP PUSH1 0x80 PUSH2 0x1571 DUP9 DUP3 DUP10 ADD PUSH2 0x110D JUMP JUMPDEST SWAP2 POP POP SWAP3 SWAP6 POP SWAP3 SWAP6 SWAP1 SWAP4 POP JUMP JUMPDEST PUSH2 0x1587 DUP2 PUSH2 0x114F JUMP JUMPDEST DUP2 EQ PUSH2 0x1592 JUMPI PUSH1 0x0 DUP1 REVERT JUMPDEST POP JUMP JUMPDEST PUSH1 0x0 DUP2 MLOAD SWAP1 POP PUSH2 0x15A4 DUP2 PUSH2 0x157E JUMP JUMPDEST SWAP3 SWAP2 POP POP JUMP JUMPDEST PUSH1 0x0 PUSH1 0x20 DUP3 DUP5 SUB SLT ISZERO PUSH2 0x15C0 JUMPI PUSH2 0x15BF PUSH2 0x1031 JUMP JUMPDEST JUMPDEST PUSH1 0x0 PUSH2 0x15CE DUP5 DUP3 DUP6 ADD PUSH2 0x1595 JUMP JUMPDEST SWAP2 POP POP SWAP3 SWAP2 POP POP JUMP JUMPDEST PUSH1 0x0 DUP2 MLOAD SWAP1 POP PUSH2 0x15E6 DUP2 PUSH2 0x1045 JUMP JUMPDEST SWAP3 SWAP2 POP POP JUMP JUMPDEST PUSH1 0x0 PUSH1 0x20 DUP3 DUP5 SUB SLT ISZERO PUSH2 0x1602 JUMPI PUSH2 0x1601 PUSH2 0x1031 JUMP JUMPDEST JUMPDEST PUSH1 0x0 PUSH2 0x1610 DUP5 DUP3 DUP6 ADD PUSH2 0x15D7 JUMP JUMPDEST SWAP2 POP POP SWAP3 SWAP2 POP POP JUMP JUMPDEST PUSH1 0x0 PUSH1 0x80 DUP3 ADD SWAP1 POP PUSH2 0x162E PUSH1 0x0 DUP4 ADD DUP8 PUSH2 0x1397 JUMP JUMPDEST PUSH2 0x163B PUSH1 0x20 DUP4 ADD DUP7 PUSH2 0x13C1 JUMP JUMPDEST PUSH2 0x1648 PUSH1 0x40 DUP4 ADD DUP6 PUSH2 0x13C1 JUMP JUMPDEST PUSH2 0x1655 PUSH1 0x60 DUP4 ADD DUP5 PUSH2 0x13C1 JUMP JUMPDEST SWAP6 SWAP5 POP POP POP POP POP JUMP JUMPDEST PUSH1 0x0 PUSH1 0x40 DUP3 ADD SWAP1 POP PUSH2 0x1673 PUSH1 0x0 DUP4 ADD DUP6 PUSH2 0x1397 JUMP JUMPDEST PUSH2 0x1680 PUSH1 0x20 DUP4 ADD DUP5 PUSH2 0x13C1 JUMP JUMPDEST SWAP4 SWAP3 POP POP POP JUMP JUMPDEST PUSH1 0x0 DUP2 MLOAD SWAP1 POP SWAP2 SWAP1 POP JUMP JUMPDEST PUSH1 0x0 DUP3 DUP3 MSTORE PUSH1 0x20 DUP3 ADD SWAP1 POP SWAP3 SWAP2 POP POP JUMP JUMPDEST PUSH1 0x0 JUMPDEST DUP4 DUP2 LT ISZERO PUSH2 0x16C1 JUMPI DUP1 DUP3 ADD MLOAD DUP2 DUP5 ADD MSTORE PUSH1 0x20 DUP2 ADD SWAP1 POP PUSH2 0x16A6 JUMP JUMPDEST DUP4 DUP2 GT ISZERO PUSH2 0x16D0 JUMPI PUSH1 0x0 DUP5 DUP5 ADD MSTORE JUMPDEST POP POP POP POP JUMP JUMPDEST PUSH1 0x0 PUSH2 0x16E1 DUP3 PUSH2 0x1687 JUMP JUMPDEST PUSH2 0x16EB DUP2 DUP6 PUSH2 0x1692 JUMP JUMPDEST SWAP4 POP PUSH2 0x16FB DUP2 DUP6 PUSH1 0x20 DUP7 ADD PUSH2 0x16A3 JUMP JUMPDEST PUSH2 0x1704 DUP2 PUSH2 0x118F JUMP JUMPDEST DUP5 ADD SWAP2 POP POP SWAP3 SWAP2 POP POP JUMP JUMPDEST PUSH1 0x0 PUSH1 0x20 DUP3 ADD SWAP1 POP DUP2 DUP2 SUB PUSH1 0x0 DUP4 ADD MSTORE PUSH2 0x1729 DUP2 DUP5 PUSH2 0x16D6 JUMP JUMPDEST SWAP1 POP SWAP3 SWAP2 POP POP JUMP JUMPDEST PUSH1 0x0 PUSH1 0x80 DUP3 ADD SWAP1 POP DUP2 DUP2 SUB PUSH1 0x0 DUP4 ADD MSTORE PUSH2 0x174B DUP2 DUP8 PUSH2 0x16D6 JUMP JUMPDEST SWAP1 POP DUP2 DUP2 SUB PUSH1 0x20 DUP4 ADD MSTORE PUSH2 0x175F DUP2 DUP7 PUSH2 0x16D6 JUMP JUMPDEST SWAP1 POP PUSH2 0x176E PUSH1 0x40 DUP4 ADD DUP6 PUSH2 0x13C1 JUMP JUMPDEST PUSH2 0x177B PUSH1 0x60 DUP4 ADD DUP5 PUSH2 0x1397 JUMP JUMPDEST SWAP6 SWAP5 POP POP POP POP POP JUMP JUMPDEST PUSH1 0x0 PUSH1 0x40 DUP3 ADD SWAP1 POP PUSH2 0x1799 PUSH1 0x0 DUP4 ADD DUP6 PUSH2 0x13C1 JUMP JUMPDEST PUSH2 0x17A6 PUSH1 0x20 DUP4 ADD DUP5 PUSH2 0x1397 JUMP JUMPDEST SWAP4 SWAP3 POP POP POP JUMP JUMPDEST PUSH1 0x0 DUP2 MLOAD SWAP1 POP PUSH2 0x17BC DUP2 PUSH2 0x10F6 JUMP JUMPDEST SWAP3 SWAP2 POP POP JUMP JUMPDEST PUSH1 0x0 PUSH1 0x20 DUP3 DUP5 SUB SLT ISZERO PUSH2 0x17D8 JUMPI PUSH2 0x17D7 PUSH2 0x1031 JUMP JUMPDEST JUMPDEST PUSH1 0x0 PUSH2 0x17E6 DUP5 DUP3 DUP6 ADD PUSH2 0x17AD JUMP JUMPDEST SWAP2 POP POP SWAP3 SWAP2 POP POP JUMP JUMPDEST PUSH1 0x0 PUSH1 0xA0 DUP3 ADD SWAP1 POP PUSH2 0x1804 PUSH1 0x0 DUP4 ADD DUP9 PUSH2 0x13C1 JUMP JUMPDEST DUP2 DUP2 SUB PUSH1 0x20 DUP4 ADD MSTORE PUSH2 0x1816 DUP2 DUP8 PUSH2 0x16D6 JUMP JUMPDEST SWAP1 POP DUP2 DUP2 SUB PUSH1 0x40 DUP4 ADD MSTORE PUSH2 0x182A DUP2 DUP7 PUSH2 0x16D6 JUMP JUMPDEST SWAP1 POP PUSH2 0x1839 PUSH1 0x60 DUP4 ADD DUP6 PUSH2 0x13C1 JUMP JUMPDEST PUSH2 0x1846 PUSH1 0x80 DUP4 ADD DUP5 PUSH2 0x1397 JUMP JUMPDEST SWAP7 SWAP6 POP POP POP POP POP POP JUMP INVALID LOG2 PUSH5 0x6970667358 0x22 SLT KECCAK256 0x4B 0xE0 BYTE LOG1 PUSH2 0x2B82 SWAP6 DELEGATECALL 0x4E 0x2E 0x25 0xCC XOR 0xE3 EQ MSTORE8 LOG2 PUSH5 0x39927067FE PUSH31 0x340B5D8DF77E9064736F6C634300080A003360806040523480156200001157 PUSH1 0x0 DUP1 REVERT JUMPDEST POP PUSH1 0x40 MLOAD PUSH3 0x12E4 CODESIZE SUB DUP1 PUSH3 0x12E4 DUP4 CODECOPY DUP2 DUP2 ADD PUSH1 0x40 MSTORE DUP2 ADD SWAP1 PUSH3 0x37 SWAP2 SWAP1 PUSH3 0x129 JUMP JUMPDEST DUP1 PUSH1 0x0 DUP1 PUSH2 0x100 EXP DUP2 SLOAD DUP2 PUSH20 0xFFFFFFFFFFFFFFFFFFFFFFFFFFFFFFFFFFFFFFFF MUL NOT AND SWAP1 DUP4 PUSH20 0xFFFFFFFFFFFFFFFFFFFFFFFFFFFFFFFFFFFFFFFF AND MUL OR SWAP1 SSTORE POP CALLER PUSH1 0x1 PUSH1 0x0 PUSH2 0x100 EXP DUP2 SLOAD DUP2 PUSH20 0xFFFFFFFFFFFFFFFFFFFFFFFFFFFFFFFFFFFFFFFF MUL NOT AND SWAP1 DUP4 PUSH20 0xFFFFFFFFFFFFFFFFFFFFFFFFFFFFFFFFFFFFFFFF AND MUL OR SWAP1 SSTORE POP POP PUSH3 0x15B JUMP JUMPDEST PUSH1 0x0 DUP1 REVERT JUMPDEST PUSH1 0x0 PUSH20 0xFFFFFFFFFFFFFFFFFFFFFFFFFFFFFFFFFFFFFFFF DUP3 AND SWAP1 POP SWAP2 SWAP1 POP JUMP JUMPDEST PUSH1 0x0 PUSH3 0xF1 DUP3 PUSH3 0xC4 JUMP JUMPDEST SWAP1 POP SWAP2 SWAP1 POP JUMP JUMPDEST PUSH3 0x103 DUP2 PUSH3 0xE4 JUMP JUMPDEST DUP2 EQ PUSH3 0x10F JUMPI PUSH1 0x0 DUP1 REVERT JUMPDEST POP JUMP JUMPDEST PUSH1 0x0 DUP2 MLOAD SWAP1 POP PUSH3 0x123 DUP2 PUSH3 0xF8 JUMP JUMPDEST SWAP3 SWAP2 POP POP JUMP JUMPDEST PUSH1 0x0 PUSH1 0x20 DUP3 DUP5 SUB SLT ISZERO PUSH3 0x142 JUMPI PUSH3 0x141 PUSH3 0xBF JUMP JUMPDEST JUMPDEST PUSH1 0x0 PUSH3 0x152 DUP5 DUP3 DUP6 ADD PUSH3 0x112 JUMP JUMPDEST SWAP2 POP POP SWAP3 SWAP2 POP POP JUMP JUMPDEST PUSH2 0x1179 DUP1 PUSH3 0x16B PUSH1 0x0 CODECOPY PUSH1 0x0 RETURN INVALID PUSH1 0x80 PUSH1 0x40 MSTORE CALLVALUE DUP1 ISZERO PUSH2 0x10 JUMPI PUSH1 0x0 DUP1 REVERT JUMPDEST POP PUSH1 0x4 CALLDATASIZE LT PUSH2 0x9E JUMPI PUSH1 0x0 CALLDATALOAD PUSH1 0xE0 SHR DUP1 PUSH4 0x98FBCE79 GT PUSH2 0x66 JUMPI DUP1 PUSH4 0x98FBCE79 EQ PUSH2 0x159 JUMPI DUP1 PUSH4 0xD2C07E20 EQ PUSH2 0x18D JUMPI DUP1 PUSH4 0xD9FF0CF1 EQ PUSH2 0x1A9 JUMPI DUP1 PUSH4 0xE71448A9 EQ PUSH2 0x1DD JUMPI DUP1 PUSH4 0xF76EBE1C EQ PUSH2 0x20D JUMPI PUSH2 0x9E JUMP JUMPDEST DUP1 PUSH4 0xA6B2A25 EQ PUSH2 0xA3 JUMPI DUP1 PUSH4 0x1CB71ED5 EQ PUSH2 0xBF JUMPI DUP1 PUSH4 0x687564AE EQ PUSH2 0xEF JUMPI DUP1 PUSH4 0x6C230EEF EQ PUSH2 0x10B JUMPI DUP1 PUSH4 0x8DA5CB5B EQ PUSH2 0x13B JUMPI JUMPDEST PUSH1 0x0 DUP1 REVERT JUMPDEST PUSH2 0xBD PUSH1 0x4 DUP1 CALLDATASIZE SUB DUP2 ADD SWAP1 PUSH2 0xB8 SWAP2 SWAP1 PUSH2 0xB38 JUMP JUMPDEST PUSH2 0x22B JUMP JUMPDEST STOP JUMPDEST PUSH2 0xD9 PUSH1 0x4 DUP1 CALLDATASIZE SUB DUP2 ADD SWAP1 PUSH2 0xD4 SWAP2 SWAP1 PUSH2 0xCAB JUMP JUMPDEST PUSH2 0x260 JUMP JUMPDEST PUSH1 0x40 MLOAD PUSH2 0xE6 SWAP2 SWAP1 PUSH2 0xD0F JUMP JUMPDEST PUSH1 0x40 MLOAD DUP1 SWAP2 SUB SWAP1 RETURN JUMPDEST PUSH2 0x109 PUSH1 0x4 DUP1 CALLDATASIZE SUB DUP2 ADD SWAP1 PUSH2 0x104 SWAP2 SWAP1 PUSH2 0xD88 JUMP JUMPDEST PUSH2 0x296 JUMP JUMPDEST STOP JUMPDEST PUSH2 0x125 PUSH1 0x4 DUP1 CALLDATASIZE SUB DUP2 ADD SWAP1 PUSH2 0x120 SWAP2 SWAP1 PUSH2 0xB38 JUMP JUMPDEST PUSH2 0x3E3 JUMP JUMPDEST PUSH1 0x40 MLOAD PUSH2 0x132 SWAP2 SWAP1 PUSH2 0xE36 JUMP JUMPDEST PUSH1 0x40 MLOAD DUP1 SWAP2 SUB SWAP1 RETURN JUMPDEST PUSH2 0x143 PUSH2 0x5A1 JUMP JUMPDEST PUSH1 0x40 MLOAD PUSH2 0x150 SWAP2 SWAP1 PUSH2 0xE60 JUMP JUMPDEST PUSH1 0x40 MLOAD DUP1 SWAP2 SUB SWAP1 RETURN JUMPDEST PUSH2 0x173 PUSH1 0x4 DUP1 CALLDATASIZE SUB DUP2 ADD SWAP1 PUSH2 0x16E SWAP2 SWAP1 PUSH2 0xB38 JUMP JUMPDEST PUSH2 0x5C5 JUMP JUMPDEST PUSH1 0x40 MLOAD PUSH2 0x184 SWAP6 SWAP5 SWAP4 SWAP3 SWAP2 SWAP1 PUSH2 0xF03 JUMP JUMPDEST PUSH1 0x40 MLOAD DUP1 SWAP2 SUB SWAP1 RETURN JUMPDEST PUSH2 0x1A7 PUSH1 0x4 DUP1 CALLDATASIZE SUB DUP2 ADD SWAP1 PUSH2 0x1A2 SWAP2 SWAP1 PUSH2 0xF64 JUMP JUMPDEST PUSH2 0x7A9 JUMP JUMPDEST STOP JUMPDEST PUSH2 0x1C3 PUSH1 0x4 DUP1 CALLDATASIZE SUB DUP2 ADD SWAP1 PUSH2 0x1BE SWAP2 SWAP1 PUSH2 0xB38 JUMP JUMPDEST PUSH2 0x8AA JUMP JUMPDEST PUSH1 0x40 MLOAD PUSH2 0x1D4 SWAP6 SWAP5 SWAP4 SWAP3 SWAP2 SWAP1 PUSH2 0xF03 JUMP JUMPDEST PUSH1 0x40 MLOAD DUP1 SWAP2 SUB SWAP1 RETURN JUMPDEST PUSH2 0x1F7 PUSH1 0x4 DUP1 CALLDATASIZE SUB DUP2 ADD SWAP1 PUSH2 0x1F2 SWAP2 SWAP1 PUSH2 0xCAB JUMP JUMPDEST PUSH2 0xA10 JUMP JUMPDEST PUSH1 0x40 MLOAD PUSH2 0x204 SWAP2 SWAP1 PUSH2 0xD0F JUMP JUMPDEST PUSH1 0x40 MLOAD DUP1 SWAP2 SUB SWAP1 RETURN JUMPDEST PUSH2 0x215 PUSH2 0xA45 JUMP JUMPDEST PUSH1 0x40 MLOAD PUSH2 0x222 SWAP2 SWAP1 PUSH2 0xE36 JUMP JUMPDEST PUSH1 0x40 MLOAD DUP1 SWAP2 SUB SWAP1 RETURN JUMPDEST PUSH1 0x0 PUSH1 0x3 PUSH1 0x0 DUP4 DUP2 MSTORE PUSH1 0x20 ADD SWAP1 DUP2 MSTORE PUSH1 0x20 ADD PUSH1 0x0 KECCAK256 SWAP1 POP DUP1 PUSH1 0x3 ADD PUSH1 0x0 DUP2 SLOAD DUP1 SWAP3 SWAP2 SWAP1 PUSH2 0x257 SWAP1 PUSH2 0x1046 JUMP JUMPDEST SWAP2 SWAP1 POP SSTORE POP POP POP JUMP JUMPDEST PUSH1 0x4 DUP2 DUP1 MLOAD PUSH1 0x20 DUP2 ADD DUP3 ADD DUP1 MLOAD DUP5 DUP3 MSTORE PUSH1 0x20 DUP4 ADD PUSH1 0x20 DUP6 ADD KECCAK256 DUP2 DUP4 MSTORE DUP1 SWAP6 POP POP POP POP POP POP PUSH1 0x0 SWAP2 POP SLOAD SWAP1 PUSH2 0x100 EXP SWAP1 DIV PUSH1 0xFF AND DUP2 JUMP JUMPDEST CALLER PUSH20 0xFFFFFFFFFFFFFFFFFFFFFFFFFFFFFFFFFFFFFFFF AND PUSH1 0x1 PUSH1 0x0 SWAP1 SLOAD SWAP1 PUSH2 0x100 EXP SWAP1 DIV PUSH20 0xFFFFFFFFFFFFFFFFFFFFFFFFFFFFFFFFFFFFFFFF AND PUSH20 0xFFFFFFFFFFFFFFFFFFFFFFFFFFFFFFFFFFFFFFFF AND EQ PUSH2 0x2F0 JUMPI PUSH1 0x0 DUP1 REVERT JUMPDEST PUSH1 0x0 PUSH1 0x3 PUSH1 0x0 PUSH1 0x2 PUSH1 0x0 DUP2 SLOAD DUP1 SWAP3 SWAP2 SWAP1 PUSH2 0x309 SWAP1 PUSH2 0x1046 JUMP JUMPDEST SWAP2 SWAP1 POP SSTORE DUP2 MSTORE PUSH1 0x20 ADD SWAP1 DUP2 MSTORE PUSH1 0x20 ADD PUSH1 0x0 KECCAK256 SWAP1 POP DUP5 DUP2 PUSH1 0x0 ADD SWAP1 DUP1 MLOAD SWAP1 PUSH1 0x20 ADD SWAP1 PUSH2 0x335 SWAP3 SWAP2 SWAP1 PUSH2 0xA4B JUMP JUMPDEST POP DUP4 DUP2 PUSH1 0x1 ADD SWAP1 DUP1 MLOAD SWAP1 PUSH1 0x20 ADD SWAP1 PUSH2 0x34E SWAP3 SWAP2 SWAP1 PUSH2 0xA4B JUMP JUMPDEST POP DUP3 DUP2 PUSH1 0x2 ADD DUP2 SWAP1 SSTORE POP PUSH1 0x0 DUP2 PUSH1 0x3 ADD DUP2 SWAP1 SSTORE POP DUP2 DUP2 PUSH1 0x4 ADD PUSH1 0x0 PUSH2 0x100 EXP DUP2 SLOAD DUP2 PUSH20 0xFFFFFFFFFFFFFFFFFFFFFFFFFFFFFFFFFFFFFFFF MUL NOT AND SWAP1 DUP4 PUSH20 0xFFFFFFFFFFFFFFFFFFFFFFFFFFFFFFFFFFFFFFFF AND MUL OR SWAP1 SSTORE POP PUSH1 0x1 PUSH1 0x4 DUP7 PUSH1 0x40 MLOAD PUSH2 0x3B7 SWAP2 SWAP1 PUSH2 0x10CB JUMP JUMPDEST SWAP1 DUP2 MSTORE PUSH1 0x20 ADD PUSH1 0x40 MLOAD DUP1 SWAP2 SUB SWAP1 KECCAK256 PUSH1 0x0 PUSH2 0x100 EXP DUP2 SLOAD DUP2 PUSH1 0xFF MUL NOT AND SWAP1 DUP4 ISZERO ISZERO MUL OR SWAP1 SSTORE POP POP POP POP POP POP JUMP JUMPDEST PUSH1 0x0 DUP1 PUSH1 0x3 PUSH1 0x0 DUP5 DUP2 MSTORE PUSH1 0x20 ADD SWAP1 DUP2 MSTORE PUSH1 0x20 ADD PUSH1 0x0 KECCAK256 PUSH1 0x40 MLOAD DUP1 PUSH1 0xA0 ADD PUSH1 0x40 MSTORE SWAP1 DUP2 PUSH1 0x0 DUP3 ADD DUP1 SLOAD PUSH2 0x414 SWAP1 PUSH2 0x1111 JUMP JUMPDEST DUP1 PUSH1 0x1F ADD PUSH1 0x20 DUP1 SWAP2 DIV MUL PUSH1 0x20 ADD PUSH1 0x40 MLOAD SWAP1 DUP2 ADD PUSH1 0x40 MSTORE DUP1 SWAP3 SWAP2 SWAP1 DUP2 DUP2 MSTORE PUSH1 0x20 ADD DUP3 DUP1 SLOAD PUSH2 0x440 SWAP1 PUSH2 0x1111 JUMP JUMPDEST DUP1 ISZERO PUSH2 0x48D JUMPI DUP1 PUSH1 0x1F LT PUSH2 0x462 JUMPI PUSH2 0x100 DUP1 DUP4 SLOAD DIV MUL DUP4 MSTORE SWAP2 PUSH1 0x20 ADD SWAP2 PUSH2 0x48D JUMP JUMPDEST DUP3 ADD SWAP2 SWAP1 PUSH1 0x0 MSTORE PUSH1 0x20 PUSH1 0x0 KECCAK256 SWAP1 JUMPDEST DUP2 SLOAD DUP2 MSTORE SWAP1 PUSH1 0x1 ADD SWAP1 PUSH1 0x20 ADD DUP1 DUP4 GT PUSH2 0x470 JUMPI DUP3 SWAP1 SUB PUSH1 0x1F AND DUP3 ADD SWAP2 JUMPDEST POP POP POP POP POP DUP2 MSTORE PUSH1 0x20 ADD PUSH1 0x1 DUP3 ADD DUP1 SLOAD PUSH2 0x4A6 SWAP1 PUSH2 0x1111 JUMP JUMPDEST DUP1 PUSH1 0x1F ADD PUSH1 0x20 DUP1 SWAP2 DIV MUL PUSH1 0x20 ADD PUSH1 0x40 MLOAD SWAP1 DUP2 ADD PUSH1 0x40 MSTORE DUP1 SWAP3 SWAP2 SWAP1 DUP2 DUP2 MSTORE PUSH1 0x20 ADD DUP3 DUP1 SLOAD PUSH2 0x4D2 SWAP1 PUSH2 0x1111 JUMP JUMPDEST DUP1 ISZERO PUSH2 0x51F JUMPI DUP1 PUSH1 0x1F LT PUSH2 0x4F4 JUMPI PUSH2 0x100 DUP1 DUP4 SLOAD DIV MUL DUP4 MSTORE SWAP2 PUSH1 0x20 ADD SWAP2 PUSH2 0x51F JUMP JUMPDEST DUP3 ADD SWAP2 SWAP1 PUSH1 0x0 MSTORE PUSH1 0x20 PUSH1 0x0 KECCAK256 SWAP1 JUMPDEST DUP2 SLOAD DUP2 MSTORE SWAP1 PUSH1 0x1 ADD SWAP1 PUSH1 0x20 ADD DUP1 DUP4 GT PUSH2 0x502 JUMPI DUP3 SWAP1 SUB PUSH1 0x1F AND DUP3 ADD SWAP2 JUMPDEST POP POP POP POP POP DUP2 MSTORE PUSH1 0x20 ADD PUSH1 0x2 DUP3 ADD SLOAD DUP2 MSTORE PUSH1 0x20 ADD PUSH1 0x3 DUP3 ADD SLOAD DUP2 MSTORE PUSH1 0x20 ADD PUSH1 0x4 DUP3 ADD PUSH1 0x0 SWAP1 SLOAD SWAP1 PUSH2 0x100 EXP SWAP1 DIV PUSH20 0xFFFFFFFFFFFFFFFFFFFFFFFFFFFFFFFFFFFFFFFF AND PUSH20 0xFFFFFFFFFFFFFFFFFFFFFFFFFFFFFFFFFFFFFFFF AND PUSH20 0xFFFFFFFFFFFFFFFFFFFFFFFFFFFFFFFFFFFFFFFF AND DUP2 MSTORE POP POP SWAP1 POP DUP1 PUSH1 0x40 ADD MLOAD SWAP2 POP POP SWAP2 SWAP1 POP JUMP JUMPDEST PUSH1 0x0 DUP1 SLOAD SWAP1 PUSH2 0x100 EXP SWAP1 DIV PUSH20 0xFFFFFFFFFFFFFFFFFFFFFFFFFFFFFFFFFFFFFFFF AND DUP2 JUMP JUMPDEST PUSH1 0x60 DUP1 PUSH1 0x0 DUP1 PUSH1 0x0 DUP1 PUSH1 0x3 PUSH1 0x0 DUP9 DUP2 MSTORE PUSH1 0x20 ADD SWAP1 DUP2 MSTORE PUSH1 0x20 ADD PUSH1 0x0 KECCAK256 PUSH1 0x40 MLOAD DUP1 PUSH1 0xA0 ADD PUSH1 0x40 MSTORE SWAP1 DUP2 PUSH1 0x0 DUP3 ADD DUP1 SLOAD PUSH2 0x5FC SWAP1 PUSH2 0x1111 JUMP JUMPDEST DUP1 PUSH1 0x1F ADD PUSH1 0x20 DUP1 SWAP2 DIV MUL PUSH1 0x20 ADD PUSH1 0x40 MLOAD SWAP1 DUP2 ADD PUSH1 0x40 MSTORE DUP1 SWAP3 SWAP2 SWAP1 DUP2 DUP2 MSTORE PUSH1 0x20 ADD DUP3 DUP1 SLOAD PUSH2 0x628 SWAP1 PUSH2 0x1111 JUMP JUMPDEST DUP1 ISZERO PUSH2 0x675 JUMPI DUP1 PUSH1 0x1F LT PUSH2 0x64A JUMPI PUSH2 0x100 DUP1 DUP4 SLOAD DIV MUL DUP4 MSTORE SWAP2 PUSH1 0x20 ADD SWAP2 PUSH2 0x675 JUMP JUMPDEST DUP3 ADD SWAP2 SWAP1 PUSH1 0x0 MSTORE PUSH1 0x20 PUSH1 0x0 KECCAK256 SWAP1 JUMPDEST DUP2 SLOAD DUP2 MSTORE SWAP1 PUSH1 0x1 ADD SWAP1 PUSH1 0x20 ADD DUP1 DUP4 GT PUSH2 0x658 JUMPI DUP3 SWAP1 SUB PUSH1 0x1F AND DUP3 ADD SWAP2 JUMPDEST POP POP POP POP POP DUP2 MSTORE PUSH1 0x20 ADD PUSH1 0x1 DUP3 ADD DUP1 SLOAD PUSH2 0x68E SWAP1 PUSH2 0x1111 JUMP JUMPDEST DUP1 PUSH1 0x1F ADD PUSH1 0x20 DUP1 SWAP2 DIV MUL PUSH1 0x20 ADD PUSH1 0x40 MLOAD SWAP1 DUP2 ADD PUSH1 0x40 MSTORE DUP1 SWAP3 SWAP2 SWAP1 DUP2 DUP2 MSTORE PUSH1 0x20 ADD DUP3 DUP1 SLOAD PUSH2 0x6BA SWAP1 PUSH2 0x1111 JUMP JUMPDEST DUP1 ISZERO PUSH2 0x707 JUMPI DUP1 PUSH1 0x1F LT PUSH2 0x6DC JUMPI PUSH2 0x100 DUP1 DUP4 SLOAD DIV MUL DUP4 MSTORE SWAP2 PUSH1 0x20 ADD SWAP2 PUSH2 0x707 JUMP JUMPDEST DUP3 ADD SWAP2 SWAP1 PUSH1 0x0 MSTORE PUSH1 0x20 PUSH1 0x0 KECCAK256 SWAP1 JUMPDEST DUP2 SLOAD DUP2 MSTORE SWAP1 PUSH1 0x1 ADD SWAP1 PUSH1 0x20 ADD DUP1 DUP4 GT PUSH2 0x6EA JUMPI DUP3 SWAP1 SUB PUSH1 0x1F AND DUP3 ADD SWAP2 JUMPDEST POP POP POP POP POP DUP2 MSTORE PUSH1 0x20 ADD PUSH1 0x2 DUP3 ADD SLOAD DUP2 MSTORE PUSH1 0x20 ADD PUSH1 0x3 DUP3 ADD SLOAD DUP2 MSTORE PUSH1 0x20 ADD PUSH1 0x4 DUP3 ADD PUSH1 0x0 SWAP1 SLOAD SWAP1 PUSH2 0x100 EXP SWAP1 DIV PUSH20 0xFFFFFFFFFFFFFFFFFFFFFFFFFFFFFFFFFFFFFFFF AND PUSH20 0xFFFFFFFFFFFFFFFFFFFFFFFFFFFFFFFFFFFFFFFF AND PUSH20 0xFFFFFFFFFFFFFFFFFFFFFFFFFFFFFFFFFFFFFFFF AND DUP2 MSTORE POP POP SWAP1 POP DUP1 PUSH1 0x0 ADD MLOAD DUP2 PUSH1 0x20 ADD MLOAD DUP3 PUSH1 0x40 ADD MLOAD DUP4 PUSH1 0x60 ADD MLOAD DUP5 PUSH1 0x80 ADD MLOAD SWAP6 POP SWAP6 POP SWAP6 POP SWAP6 POP SWAP6 POP POP SWAP2 SWAP4 SWAP6 SWAP1 SWAP3 SWAP5 POP JUMP JUMPDEST CALLER PUSH20 0xFFFFFFFFFFFFFFFFFFFFFFFFFFFFFFFFFFFFFFFF AND PUSH1 0x1 PUSH1 0x0 SWAP1 SLOAD SWAP1 PUSH2 0x100 EXP SWAP1 DIV PUSH20 0xFFFFFFFFFFFFFFFFFFFFFFFFFFFFFFFFFFFFFFFF AND PUSH20 0xFFFFFFFFFFFFFFFFFFFFFFFFFFFFFFFFFFFFFFFF AND EQ PUSH2 0x803 JUMPI PUSH1 0x0 DUP1 REVERT JUMPDEST PUSH1 0x0 PUSH1 0x3 PUSH1 0x0 DUP8 DUP2 MSTORE PUSH1 0x20 ADD SWAP1 DUP2 MSTORE PUSH1 0x20 ADD PUSH1 0x0 KECCAK256 SWAP1 POP DUP5 DUP2 PUSH1 0x0 ADD SWAP1 DUP1 MLOAD SWAP1 PUSH1 0x20 ADD SWAP1 PUSH2 0x832 SWAP3 SWAP2 SWAP1 PUSH2 0xA4B JUMP JUMPDEST POP DUP4 DUP2 PUSH1 0x1 ADD SWAP1 DUP1 MLOAD SWAP1 PUSH1 0x20 ADD SWAP1 PUSH2 0x84B SWAP3 SWAP2 SWAP1 PUSH2 0xA4B JUMP JUMPDEST POP DUP3 DUP2 PUSH1 0x2 ADD DUP2 SWAP1 SSTORE POP PUSH1 0x0 DUP2 PUSH1 0x3 ADD DUP2 SWAP1 SSTORE POP DUP2 DUP2 PUSH1 0x4 ADD PUSH1 0x0 PUSH2 0x100 EXP DUP2 SLOAD DUP2 PUSH20 0xFFFFFFFFFFFFFFFFFFFFFFFFFFFFFFFFFFFFFFFF MUL NOT AND SWAP1 DUP4 PUSH20 0xFFFFFFFFFFFFFFFFFFFFFFFFFFFFFFFFFFFFFFFF AND MUL OR SWAP1 SSTORE POP POP POP POP POP POP POP JUMP JUMPDEST PUSH1 0x3 PUSH1 0x20 MSTORE DUP1 PUSH1 0x0 MSTORE PUSH1 0x40 PUSH1 0x0 KECCAK256 PUSH1 0x0 SWAP2 POP SWAP1 POP DUP1 PUSH1 0x0 ADD DUP1 SLOAD PUSH2 0x8CD SWAP1 PUSH2 0x1111 JUMP JUMPDEST DUP1 PUSH1 0x1F ADD PUSH1 0x20 DUP1 SWAP2 DIV MUL PUSH1 0x20 ADD PUSH1 0x40 MLOAD SWAP1 DUP2 ADD PUSH1 0x40 MSTORE DUP1 SWAP3 SWAP2 SWAP1 DUP2 DUP2 MSTORE PUSH1 0x20 ADD DUP3 DUP1 SLOAD PUSH2 0x8F9 SWAP1 PUSH2 0x1111 JUMP JUMPDEST DUP1 ISZERO PUSH2 0x946 JUMPI DUP1 PUSH1 0x1F LT PUSH2 0x91B JUMPI PUSH2 0x100 DUP1 DUP4 SLOAD DIV MUL DUP4 MSTORE SWAP2 PUSH1 0x20 ADD SWAP2 PUSH2 0x946 JUMP JUMPDEST DUP3 ADD SWAP2 SWAP1 PUSH1 0x0 MSTORE PUSH1 0x20 PUSH1 0x0 KECCAK256 SWAP1 JUMPDEST DUP2 SLOAD DUP2 MSTORE SWAP1 PUSH1 0x1 ADD SWAP1 PUSH1 0x20 ADD DUP1 DUP4 GT PUSH2 0x929 JUMPI DUP3 SWAP1 SUB PUSH1 0x1F AND DUP3 ADD SWAP2 JUMPDEST POP POP POP POP POP SWAP1 DUP1 PUSH1 0x1 ADD DUP1 SLOAD PUSH2 0x95B SWAP1 PUSH2 0x1111 JUMP JUMPDEST DUP1 PUSH1 0x1F ADD PUSH1 0x20 DUP1 SWAP2 DIV MUL PUSH1 0x20 ADD PUSH1 0x40 MLOAD SWAP1 DUP2 ADD PUSH1 0x40 MSTORE DUP1 SWAP3 SWAP2 SWAP1 DUP2 DUP2 MSTORE PUSH1 0x20 ADD DUP3 DUP1 SLOAD PUSH2 0x987 SWAP1 PUSH2 0x1111 JUMP JUMPDEST DUP1 ISZERO PUSH2 0x9D4 JUMPI DUP1 PUSH1 0x1F LT PUSH2 0x9A9 JUMPI PUSH2 0x100 DUP1 DUP4 SLOAD DIV MUL DUP4 MSTORE SWAP2 PUSH1 0x20 ADD SWAP2 PUSH2 0x9D4 JUMP JUMPDEST DUP3 ADD SWAP2 SWAP1 PUSH1 0x0 MSTORE PUSH1 0x20 PUSH1 0x0 KECCAK256 SWAP1 JUMPDEST DUP2 SLOAD DUP2 MSTORE SWAP1 PUSH1 0x1 ADD SWAP1 PUSH1 0x20 ADD DUP1 DUP4 GT PUSH2 0x9B7 JUMPI DUP3 SWAP1 SUB PUSH1 0x1F AND DUP3 ADD SWAP2 JUMPDEST POP POP POP POP POP SWAP1 DUP1 PUSH1 0x2 ADD SLOAD SWAP1 DUP1 PUSH1 0x3 ADD SLOAD SWAP1 DUP1 PUSH1 0x4 ADD PUSH1 0x0 SWAP1 SLOAD SWAP1 PUSH2 0x100 EXP SWAP1 DIV PUSH20 0xFFFFFFFFFFFFFFFFFFFFFFFFFFFFFFFFFFFFFFFF AND SWAP1 POP DUP6 JUMP JUMPDEST PUSH1 0x0 PUSH1 0x4 DUP3 PUSH1 0x40 MLOAD PUSH2 0xA22 SWAP2 SWAP1 PUSH2 0x10CB JUMP JUMPDEST SWAP1 DUP2 MSTORE PUSH1 0x20 ADD PUSH1 0x40 MLOAD DUP1 SWAP2 SUB SWAP1 KECCAK256 PUSH1 0x0 SWAP1 SLOAD SWAP1 PUSH2 0x100 EXP SWAP1 DIV PUSH1 0xFF AND SWAP1 POP SWAP2 SWAP1 POP JUMP JUMPDEST PUSH1 0x2 SLOAD DUP2 JUMP JUMPDEST DUP3 DUP1 SLOAD PUSH2 0xA57 SWAP1 PUSH2 0x1111 JUMP JUMPDEST SWAP1 PUSH1 0x0 MSTORE PUSH1 0x20 PUSH1 0x0 KECCAK256 SWAP1 PUSH1 0x1F ADD PUSH1 0x20 SWAP1 DIV DUP2 ADD SWAP3 DUP3 PUSH2 0xA79 JUMPI PUSH1 0x0 DUP6 SSTORE PUSH2 0xAC0 JUMP JUMPDEST DUP3 PUSH1 0x1F LT PUSH2 0xA92 JUMPI DUP1 MLOAD PUSH1 0xFF NOT AND DUP4 DUP1 ADD OR DUP6 SSTORE PUSH2 0xAC0 JUMP JUMPDEST DUP3 DUP1 ADD PUSH1 0x1 ADD DUP6 SSTORE DUP3 ISZERO PUSH2 0xAC0 JUMPI SWAP2 DUP3 ADD JUMPDEST DUP3 DUP2 GT ISZERO PUSH2 0xABF JUMPI DUP3 MLOAD DUP3 SSTORE SWAP2 PUSH1 0x20 ADD SWAP2 SWAP1 PUSH1 0x1 ADD SWAP1 PUSH2 0xAA4 JUMP JUMPDEST JUMPDEST POP SWAP1 POP PUSH2 0xACD SWAP2 SWAP1 PUSH2 0xAD1 JUMP JUMPDEST POP SWAP1 JUMP JUMPDEST JUMPDEST DUP1 DUP3 GT ISZERO PUSH2 0xAEA JUMPI PUSH1 0x0 DUP2 PUSH1 0x0 SWAP1 SSTORE POP PUSH1 0x1 ADD PUSH2 0xAD2 JUMP JUMPDEST POP SWAP1 JUMP JUMPDEST PUSH1 0x0 PUSH1 0x40 MLOAD SWAP1 POP SWAP1 JUMP JUMPDEST PUSH1 0x0 DUP1 REVERT JUMPDEST PUSH1 0x0 DUP1 REVERT JUMPDEST PUSH1 0x0 DUP2 SWAP1 POP SWAP2 SWAP1 POP JUMP JUMPDEST PUSH2 0xB15 DUP2 PUSH2 0xB02 JUMP JUMPDEST DUP2 EQ PUSH2 0xB20 JUMPI PUSH1 0x0 DUP1 REVERT JUMPDEST POP JUMP JUMPDEST PUSH1 0x0 DUP2 CALLDATALOAD SWAP1 POP PUSH2 0xB32 DUP2 PUSH2 0xB0C JUMP JUMPDEST SWAP3 SWAP2 POP POP JUMP JUMPDEST PUSH1 0x0 PUSH1 0x20 DUP3 DUP5 SUB SLT ISZERO PUSH2 0xB4E JUMPI PUSH2 0xB4D PUSH2 0xAF8 JUMP JUMPDEST JUMPDEST PUSH1 0x0 PUSH2 0xB5C DUP5 DUP3 DUP6 ADD PUSH2 0xB23 JUMP JUMPDEST SWAP2 POP POP SWAP3 SWAP2 POP POP JUMP JUMPDEST PUSH1 0x0 DUP1 REVERT JUMPDEST PUSH1 0x0 DUP1 REVERT JUMPDEST PUSH1 0x0 PUSH1 0x1F NOT PUSH1 0x1F DUP4 ADD AND SWAP1 POP SWAP2 SWAP1 POP JUMP JUMPDEST PUSH32 0x4E487B7100000000000000000000000000000000000000000000000000000000 PUSH1 0x0 MSTORE PUSH1 0x41 PUSH1 0x4 MSTORE PUSH1 0x24 PUSH1 0x0 REVERT JUMPDEST PUSH2 0xBB8 DUP3 PUSH2 0xB6F JUMP JUMPDEST DUP2 ADD DUP2 DUP2 LT PUSH8 0xFFFFFFFFFFFFFFFF DUP3 GT OR ISZERO PUSH2 0xBD7 JUMPI PUSH2 0xBD6 PUSH2 0xB80 JUMP JUMPDEST JUMPDEST DUP1 PUSH1 0x40 MSTORE POP POP POP JUMP JUMPDEST PUSH1 0x0 PUSH2 0xBEA PUSH2 0xAEE JUMP JUMPDEST SWAP1 POP PUSH2 0xBF6 DUP3 DUP3 PUSH2 0xBAF JUMP JUMPDEST SWAP2 SWAP1 POP JUMP JUMPDEST PUSH1 0x0 PUSH8 0xFFFFFFFFFFFFFFFF DUP3 GT ISZERO PUSH2 0xC16 JUMPI PUSH2 0xC15 PUSH2 0xB80 JUMP JUMPDEST JUMPDEST PUSH2 0xC1F DUP3 PUSH2 0xB6F JUMP JUMPDEST SWAP1 POP PUSH1 0x20 DUP2 ADD SWAP1 POP SWAP2 SWAP1 POP JUMP JUMPDEST DUP3 DUP2 DUP4 CALLDATACOPY PUSH1 0x0 DUP4 DUP4 ADD MSTORE POP POP POP JUMP JUMPDEST PUSH1 0x0 PUSH2 0xC4E PUSH2 0xC49 DUP5 PUSH2 0xBFB JUMP JUMPDEST PUSH2 0xBE0 JUMP JUMPDEST SWAP1 POP DUP3 DUP2 MSTORE PUSH1 0x20 DUP2 ADD DUP5 DUP5 DUP5 ADD GT ISZERO PUSH2 0xC6A JUMPI PUSH2 0xC69 PUSH2 0xB6A JUMP JUMPDEST JUMPDEST PUSH2 0xC75 DUP5 DUP3 DUP6 PUSH2 0xC2C JUMP JUMPDEST POP SWAP4 SWAP3 POP POP POP JUMP JUMPDEST PUSH1 0x0 DUP3 PUSH1 0x1F DUP4 ADD SLT PUSH2 0xC92 JUMPI PUSH2 0xC91 PUSH2 0xB65 JUMP JUMPDEST JUMPDEST DUP2 CALLDATALOAD PUSH2 0xCA2 DUP5 DUP3 PUSH1 0x20 DUP7 ADD PUSH2 0xC3B JUMP JUMPDEST SWAP2 POP POP SWAP3 SWAP2 POP POP JUMP JUMPDEST PUSH1 0x0 PUSH1 0x20 DUP3 DUP5 SUB SLT ISZERO PUSH2 0xCC1 JUMPI PUSH2 0xCC0 PUSH2 0xAF8 JUMP JUMPDEST JUMPDEST PUSH1 0x0 DUP3 ADD CALLDATALOAD PUSH8 0xFFFFFFFFFFFFFFFF DUP2 GT ISZERO PUSH2 0xCDF JUMPI PUSH2 0xCDE PUSH2 0xAFD JUMP JUMPDEST JUMPDEST PUSH2 0xCEB DUP5 DUP3 DUP6 ADD PUSH2 0xC7D JUMP JUMPDEST SWAP2 POP POP SWAP3 SWAP2 POP POP JUMP JUMPDEST PUSH1 0x0 DUP2 ISZERO ISZERO SWAP1 POP SWAP2 SWAP1 POP JUMP JUMPDEST PUSH2 0xD09 DUP2 PUSH2 0xCF4 JUMP JUMPDEST DUP3 MSTORE POP POP JUMP JUMPDEST PUSH1 0x0 PUSH1 0x20 DUP3 ADD SWAP1 POP PUSH2 0xD24 PUSH1 0x0 DUP4 ADD DUP5 PUSH2 0xD00 JUMP JUMPDEST SWAP3 SWAP2 POP POP JUMP JUMPDEST PUSH1 0x0 PUSH20 0xFFFFFFFFFFFFFFFFFFFFFFFFFFFFFFFFFFFFFFFF DUP3 AND SWAP1 POP SWAP2 SWAP1 POP JUMP JUMPDEST PUSH1 0x0 PUSH2 0xD55 DUP3 PUSH2 0xD2A JUMP JUMPDEST SWAP1 POP SWAP2 SWAP1 POP JUMP JUMPDEST PUSH2 0xD65 DUP2 PUSH2 0xD4A JUMP JUMPDEST DUP2 EQ PUSH2 0xD70 JUMPI PUSH1 0x0 DUP1 REVERT JUMPDEST POP JUMP JUMPDEST PUSH1 0x0 DUP2 CALLDATALOAD SWAP1 POP PUSH2 0xD82 DUP2 PUSH2 0xD5C JUMP JUMPDEST SWAP3 SWAP2 POP POP JUMP JUMPDEST PUSH1 0x0 DUP1 PUSH1 0x0 DUP1 PUSH1 0x80 DUP6 DUP8 SUB SLT ISZERO PUSH2 0xDA2 JUMPI PUSH2 0xDA1 PUSH2 0xAF8 JUMP JUMPDEST JUMPDEST PUSH1 0x0 DUP6 ADD CALLDATALOAD PUSH8 0xFFFFFFFFFFFFFFFF DUP2 GT ISZERO PUSH2 0xDC0 JUMPI PUSH2 0xDBF PUSH2 0xAFD JUMP JUMPDEST JUMPDEST PUSH2 0xDCC DUP8 DUP3 DUP9 ADD PUSH2 0xC7D JUMP JUMPDEST SWAP5 POP POP PUSH1 0x20 DUP6 ADD CALLDATALOAD PUSH8 0xFFFFFFFFFFFFFFFF DUP2 GT ISZERO PUSH2 0xDED JUMPI PUSH2 0xDEC PUSH2 0xAFD JUMP JUMPDEST JUMPDEST PUSH2 0xDF9 DUP8 DUP3 DUP9 ADD PUSH2 0xC7D JUMP JUMPDEST SWAP4 POP POP PUSH1 0x40 PUSH2 0xE0A DUP8 DUP3 DUP9 ADD PUSH2 0xB23 JUMP JUMPDEST SWAP3 POP POP PUSH1 0x60 PUSH2 0xE1B DUP8 DUP3 DUP9 ADD PUSH2 0xD73 JUMP JUMPDEST SWAP2 POP POP SWAP3 SWAP6 SWAP2 SWAP5 POP SWAP3 POP JUMP JUMPDEST PUSH2 0xE30 DUP2 PUSH2 0xB02 JUMP JUMPDEST DUP3 MSTORE POP POP JUMP JUMPDEST PUSH1 0x0 PUSH1 0x20 DUP3 ADD SWAP1 POP PUSH2 0xE4B PUSH1 0x0 DUP4 ADD DUP5 PUSH2 0xE27 JUMP JUMPDEST SWAP3 SWAP2 POP POP JUMP JUMPDEST PUSH2 0xE5A DUP2 PUSH2 0xD4A JUMP JUMPDEST DUP3 MSTORE POP POP JUMP JUMPDEST PUSH1 0x0 PUSH1 0x20 DUP3 ADD SWAP1 POP PUSH2 0xE75 PUSH1 0x0 DUP4 ADD DUP5 PUSH2 0xE51 JUMP JUMPDEST SWAP3 SWAP2 POP POP JUMP JUMPDEST PUSH1 0x0 DUP2 MLOAD SWAP1 POP SWAP2 SWAP1 POP JUMP JUMPDEST PUSH1 0x0 DUP3 DUP3 MSTORE PUSH1 0x20 DUP3 ADD SWAP1 POP SWAP3 SWAP2 POP POP JUMP JUMPDEST PUSH1 0x0 JUMPDEST DUP4 DUP2 LT ISZERO PUSH2 0xEB5 JUMPI DUP1 DUP3 ADD MLOAD DUP2 DUP5 ADD MSTORE PUSH1 0x20 DUP2 ADD SWAP1 POP PUSH2 0xE9A JUMP JUMPDEST DUP4 DUP2 GT ISZERO PUSH2 0xEC4 JUMPI PUSH1 0x0 DUP5 DUP5 ADD MSTORE JUMPDEST POP POP POP POP JUMP JUMPDEST PUSH1 0x0 PUSH2 0xED5 DUP3 PUSH2 0xE7B JUMP JUMPDEST PUSH2 0xEDF DUP2 DUP6 PUSH2 0xE86 JUMP JUMPDEST SWAP4 POP PUSH2 0xEEF DUP2 DUP6 PUSH1 0x20 DUP7 ADD PUSH2 0xE97 JUMP JUMPDEST PUSH2 0xEF8 DUP2 PUSH2 0xB6F JUMP JUMPDEST DUP5 ADD SWAP2 POP POP SWAP3 SWAP2 POP POP JUMP JUMPDEST PUSH1 0x0 PUSH1 0xA0 DUP3 ADD SWAP1 POP DUP2 DUP2 SUB PUSH1 0x0 DUP4 ADD MSTORE PUSH2 0xF1D DUP2 DUP9 PUSH2 0xECA JUMP JUMPDEST SWAP1 POP DUP2 DUP2 SUB PUSH1 0x20 DUP4 ADD MSTORE PUSH2 0xF31 DUP2 DUP8 PUSH2 0xECA JUMP JUMPDEST SWAP1 POP PUSH2 0xF40 PUSH1 0x40 DUP4 ADD DUP7 PUSH2 0xE27 JUMP JUMPDEST PUSH2 0xF4D PUSH1 0x60 DUP4 ADD DUP6 PUSH2 0xE27 JUMP JUMPDEST PUSH2 0xF5A PUSH1 0x80 DUP4 ADD DUP5 PUSH2 0xE51 JUMP JUMPDEST SWAP7 SWAP6 POP POP POP POP POP POP JUMP JUMPDEST PUSH1 0x0 DUP1 PUSH1 0x0 DUP1 PUSH1 0x0 PUSH1 0xA0 DUP7 DUP9 SUB SLT ISZERO PUSH2 0xF80 JUMPI PUSH2 0xF7F PUSH2 0xAF8 JUMP JUMPDEST JUMPDEST PUSH1 0x0 PUSH2 0xF8E DUP9 DUP3 DUP10 ADD PUSH2 0xB23 JUMP JUMPDEST SWAP6 POP POP PUSH1 0x20 DUP7 ADD CALLDATALOAD PUSH8 0xFFFFFFFFFFFFFFFF DUP2 GT ISZERO PUSH2 0xFAF JUMPI PUSH2 0xFAE PUSH2 0xAFD JUMP JUMPDEST JUMPDEST PUSH2 0xFBB DUP9 DUP3 DUP10 ADD PUSH2 0xC7D JUMP JUMPDEST SWAP5 POP POP PUSH1 0x40 DUP7 ADD CALLDATALOAD PUSH8 0xFFFFFFFFFFFFFFFF DUP2 GT ISZERO PUSH2 0xFDC JUMPI PUSH2 0xFDB PUSH2 0xAFD JUMP JUMPDEST JUMPDEST PUSH2 0xFE8 DUP9 DUP3 DUP10 ADD PUSH2 0xC7D JUMP JUMPDEST SWAP4 POP POP PUSH1 0x60 PUSH2 0xFF9 DUP9 DUP3 DUP10 ADD PUSH2 0xB23 JUMP JUMPDEST SWAP3 POP POP PUSH1 0x80 PUSH2 0x100A DUP9 DUP3 DUP10 ADD PUSH2 0xD73 JUMP JUMPDEST SWAP2 POP POP SWAP3 SWAP6 POP SWAP3 SWAP6 SWAP1 SWAP4 POP JUMP JUMPDEST PUSH32 0x4E487B7100000000000000000000000000000000000000000000000000000000 PUSH1 0x0 MSTORE PUSH1 0x11 PUSH1 0x4 MSTORE PUSH1 0x24 PUSH1 0x0 REVERT JUMPDEST PUSH1 0x0 PUSH2 0x1051 DUP3 PUSH2 0xB02 JUMP JUMPDEST SWAP2 POP PUSH32 0xFFFFFFFFFFFFFFFFFFFFFFFFFFFFFFFFFFFFFFFFFFFFFFFFFFFFFFFFFFFFFFFF DUP3 EQ ISZERO PUSH2 0x1084 JUMPI PUSH2 0x1083 PUSH2 0x1017 JUMP JUMPDEST JUMPDEST PUSH1 0x1 DUP3 ADD SWAP1 POP SWAP2 SWAP1 POP JUMP JUMPDEST PUSH1 0x0 DUP2 SWAP1 POP SWAP3 SWAP2 POP POP JUMP JUMPDEST PUSH1 0x0 PUSH2 0x10A5 DUP3 PUSH2 0xE7B JUMP JUMPDEST PUSH2 0x10AF DUP2 DUP6 PUSH2 0x108F JUMP JUMPDEST SWAP4 POP PUSH2 0x10BF DUP2 DUP6 PUSH1 0x20 DUP7 ADD PUSH2 0xE97 JUMP JUMPDEST DUP1 DUP5 ADD SWAP2 POP POP SWAP3 SWAP2 POP POP JUMP JUMPDEST PUSH1 0x0 PUSH2 0x10D7 DUP3 DUP5 PUSH2 0x109A JUMP JUMPDEST SWAP2 POP DUP2 SWAP1 POP SWAP3 SWAP2 POP POP JUMP JUMPDEST PUSH32 0x4E487B7100000000000000000000000000000000000000000000000000000000 PUSH1 0x0 MSTORE PUSH1 0x22 PUSH1 0x4 MSTORE PUSH1 0x24 PUSH1 0x0 REVERT JUMPDEST PUSH1 0x0 PUSH1 0x2 DUP3 DIV SWAP1 POP PUSH1 0x1 DUP3 AND DUP1 PUSH2 0x1129 JUMPI PUSH1 0x7F DUP3 AND SWAP2 POP JUMPDEST PUSH1 0x20 DUP3 LT DUP2 EQ ISZERO PUSH2 0x113D JUMPI PUSH2 0x113C PUSH2 0x10E2 JUMP JUMPDEST JUMPDEST POP SWAP2 SWAP1 POP JUMP INVALID LOG2 PUSH5 0x6970667358 0x22 SLT KECCAK256 PUSH1 0x39 PUSH31 0xE0588D0B47D7A31ECF97F70613583EE1A3F04694A366944803C34D19646473 PUSH16 0x6C634300080A00336080604052348015 PUSH2 0x10 JUMPI PUSH1 0x0 DUP1 REVERT JUMPDEST POP PUSH1 0x40 MLOAD PUSH3 0x1055 CODESIZE SUB DUP1 PUSH3 0x1055 DUP4 CODECOPY DUP2 DUP2 ADD PUSH1 0x40 MSTORE DUP2 ADD SWAP1 PUSH2 0x34 SWAP2 SWAP1 PUSH2 0x11E JUMP JUMPDEST DUP1 PUSH1 0x0 DUP1 PUSH2 0x100 EXP DUP2 SLOAD DUP2 PUSH20 0xFFFFFFFFFFFFFFFFFFFFFFFFFFFFFFFFFFFFFFFF MUL NOT AND SWAP1 DUP4 PUSH20 0xFFFFFFFFFFFFFFFFFFFFFFFFFFFFFFFFFFFFFFFF AND MUL OR SWAP1 SSTORE POP CALLER PUSH1 0x1 PUSH1 0x0 PUSH2 0x100 EXP DUP2 SLOAD DUP2 PUSH20 0xFFFFFFFFFFFFFFFFFFFFFFFFFFFFFFFFFFFFFFFF MUL NOT AND SWAP1 DUP4 PUSH20 0xFFFFFFFFFFFFFFFFFFFFFFFFFFFFFFFFFFFFFFFF AND MUL OR SWAP1 SSTORE POP POP PUSH2 0x14B JUMP JUMPDEST PUSH1 0x0 DUP1 REVERT JUMPDEST PUSH1 0x0 PUSH20 0xFFFFFFFFFFFFFFFFFFFFFFFFFFFFFFFFFFFFFFFF DUP3 AND SWAP1 POP SWAP2 SWAP1 POP JUMP JUMPDEST PUSH1 0x0 PUSH2 0xEB DUP3 PUSH2 0xC0 JUMP JUMPDEST SWAP1 POP SWAP2 SWAP1 POP JUMP JUMPDEST PUSH2 0xFB DUP2 PUSH2 0xE0 JUMP JUMPDEST DUP2 EQ PUSH2 0x106 JUMPI PUSH1 0x0 DUP1 REVERT JUMPDEST POP JUMP JUMPDEST PUSH1 0x0 DUP2 MLOAD SWAP1 POP PUSH2 0x118 DUP2 PUSH2 0xF2 JUMP JUMPDEST SWAP3 SWAP2 POP POP JUMP JUMPDEST PUSH1 0x0 PUSH1 0x20 DUP3 DUP5 SUB SLT ISZERO PUSH2 0x134 JUMPI PUSH2 0x133 PUSH2 0xBB JUMP JUMPDEST JUMPDEST PUSH1 0x0 PUSH2 0x142 DUP5 DUP3 DUP6 ADD PUSH2 0x109 JUMP JUMPDEST SWAP2 POP POP SWAP3 SWAP2 POP POP JUMP JUMPDEST PUSH2 0xEFA DUP1 PUSH3 0x15B PUSH1 0x0 CODECOPY PUSH1 0x0 RETURN INVALID PUSH1 0x80 PUSH1 0x40 MSTORE CALLVALUE DUP1 ISZERO PUSH2 0x10 JUMPI PUSH1 0x0 DUP1 REVERT JUMPDEST POP PUSH1 0x4 CALLDATASIZE LT PUSH2 0xF5 JUMPI PUSH1 0x0 CALLDATALOAD PUSH1 0xE0 SHR DUP1 PUSH4 0x7C4DD96D GT PUSH2 0x97 JUMPI DUP1 PUSH4 0xE3E1F001 GT PUSH2 0x66 JUMPI DUP1 PUSH4 0xE3E1F001 EQ PUSH2 0x29A JUMPI DUP1 PUSH4 0xE597EF12 EQ PUSH2 0x2B8 JUMPI DUP1 PUSH4 0xECDED204 EQ PUSH2 0x2D4 JUMPI DUP1 PUSH4 0xF3C95C60 EQ PUSH2 0x304 JUMPI PUSH2 0xF5 JUMP JUMPDEST DUP1 PUSH4 0x7C4DD96D EQ PUSH2 0x210 JUMPI DUP1 PUSH4 0x8DA5CB5B EQ PUSH2 0x22C JUMPI DUP1 PUSH4 0xA5A9C518 EQ PUSH2 0x24A JUMPI DUP1 PUSH4 0xA87430BA EQ PUSH2 0x266 JUMPI PUSH2 0xF5 JUMP JUMPDEST DUP1 PUSH4 0x4172FB89 GT PUSH2 0xD3 JUMPI DUP1 PUSH4 0x4172FB89 EQ PUSH2 0x18A JUMPI DUP1 PUSH4 0x4420E486 EQ PUSH2 0x1BA JUMPI DUP1 PUSH4 0x4A09DB4F EQ PUSH2 0x1D6 JUMPI DUP1 PUSH4 0x6350280E EQ PUSH2 0x1F2 JUMPI PUSH2 0xF5 JUMP JUMPDEST DUP1 PUSH4 0x19AA98A3 EQ PUSH2 0xFA JUMPI DUP1 PUSH4 0x371E91CA EQ PUSH2 0x12A JUMPI DUP1 PUSH4 0x3CBDEC03 EQ PUSH2 0x15A JUMPI JUMPDEST PUSH1 0x0 DUP1 REVERT JUMPDEST PUSH2 0x114 PUSH1 0x4 DUP1 CALLDATASIZE SUB DUP2 ADD SWAP1 PUSH2 0x10F SWAP2 SWAP1 PUSH2 0xCA2 JUMP JUMPDEST PUSH2 0x334 JUMP JUMPDEST PUSH1 0x40 MLOAD PUSH2 0x121 SWAP2 SWAP1 PUSH2 0xCE8 JUMP JUMPDEST PUSH1 0x40 MLOAD DUP1 SWAP2 SUB SWAP1 RETURN JUMPDEST PUSH2 0x144 PUSH1 0x4 DUP1 CALLDATASIZE SUB DUP2 ADD SWAP1 PUSH2 0x13F SWAP2 SWAP1 PUSH2 0xD2F JUMP JUMPDEST PUSH2 0x385 JUMP JUMPDEST PUSH1 0x40 MLOAD PUSH2 0x151 SWAP2 SWAP1 PUSH2 0xD8A JUMP JUMPDEST PUSH1 0x40 MLOAD DUP1 SWAP2 SUB SWAP1 RETURN JUMPDEST PUSH2 0x174 PUSH1 0x4 DUP1 CALLDATASIZE SUB DUP2 ADD SWAP1 PUSH2 0x16F SWAP2 SWAP1 PUSH2 0xD2F JUMP JUMPDEST PUSH2 0x3ED JUMP JUMPDEST PUSH1 0x40 MLOAD PUSH2 0x181 SWAP2 SWAP1 PUSH2 0xD8A JUMP JUMPDEST PUSH1 0x40 MLOAD DUP1 SWAP2 SUB SWAP1 RETURN JUMPDEST PUSH2 0x1A4 PUSH1 0x4 DUP1 CALLDATASIZE SUB DUP2 ADD SWAP1 PUSH2 0x19F SWAP2 SWAP1 PUSH2 0xCA2 JUMP JUMPDEST PUSH2 0x41C JUMP JUMPDEST PUSH1 0x40 MLOAD PUSH2 0x1B1 SWAP2 SWAP1 PUSH2 0xD8A JUMP JUMPDEST PUSH1 0x40 MLOAD DUP1 SWAP2 SUB SWAP1 RETURN JUMPDEST PUSH2 0x1D4 PUSH1 0x4 DUP1 CALLDATASIZE SUB DUP2 ADD SWAP1 PUSH2 0x1CF SWAP2 SWAP1 PUSH2 0xCA2 JUMP JUMPDEST PUSH2 0x472 JUMP JUMPDEST STOP JUMPDEST PUSH2 0x1F0 PUSH1 0x4 DUP1 CALLDATASIZE SUB DUP2 ADD SWAP1 PUSH2 0x1EB SWAP2 SWAP1 PUSH2 0xD2F JUMP JUMPDEST PUSH2 0x623 JUMP JUMPDEST STOP JUMPDEST PUSH2 0x1FA PUSH2 0x79E JUMP JUMPDEST PUSH1 0x40 MLOAD PUSH2 0x207 SWAP2 SWAP1 PUSH2 0xCE8 JUMP JUMPDEST PUSH1 0x40 MLOAD DUP1 SWAP2 SUB SWAP1 RETURN JUMPDEST PUSH2 0x22A PUSH1 0x4 DUP1 CALLDATASIZE SUB DUP2 ADD SWAP1 PUSH2 0x225 SWAP2 SWAP1 PUSH2 0xCA2 JUMP JUMPDEST PUSH2 0x7A4 JUMP JUMPDEST STOP JUMPDEST PUSH2 0x234 PUSH2 0x859 JUMP JUMPDEST PUSH1 0x40 MLOAD PUSH2 0x241 SWAP2 SWAP1 PUSH2 0xDB4 JUMP JUMPDEST PUSH1 0x40 MLOAD DUP1 SWAP2 SUB SWAP1 RETURN JUMPDEST PUSH2 0x264 PUSH1 0x4 DUP1 CALLDATASIZE SUB DUP2 ADD SWAP1 PUSH2 0x25F SWAP2 SWAP1 PUSH2 0xD2F JUMP JUMPDEST PUSH2 0x87D JUMP JUMPDEST STOP JUMPDEST PUSH2 0x280 PUSH1 0x4 DUP1 CALLDATASIZE SUB DUP2 ADD SWAP1 PUSH2 0x27B SWAP2 SWAP1 PUSH2 0xCA2 JUMP JUMPDEST PUSH2 0xA12 JUMP JUMPDEST PUSH1 0x40 MLOAD PUSH2 0x291 SWAP6 SWAP5 SWAP4 SWAP3 SWAP2 SWAP1 PUSH2 0xDCF JUMP JUMPDEST PUSH1 0x40 MLOAD DUP1 SWAP2 SUB SWAP1 RETURN JUMPDEST PUSH2 0x2A2 PUSH2 0xA68 JUMP JUMPDEST PUSH1 0x40 MLOAD PUSH2 0x2AF SWAP2 SWAP1 PUSH2 0xCE8 JUMP JUMPDEST PUSH1 0x40 MLOAD DUP1 SWAP2 SUB SWAP1 RETURN JUMPDEST PUSH2 0x2D2 PUSH1 0x4 DUP1 CALLDATASIZE SUB DUP2 ADD SWAP1 PUSH2 0x2CD SWAP2 SWAP1 PUSH2 0xD2F JUMP JUMPDEST PUSH2 0xA6E JUMP JUMPDEST STOP JUMPDEST PUSH2 0x2EE PUSH1 0x4 DUP1 CALLDATASIZE SUB DUP2 ADD SWAP1 PUSH2 0x2E9 SWAP2 SWAP1 PUSH2 0xCA2 JUMP JUMPDEST PUSH2 0xBC9 JUMP JUMPDEST PUSH1 0x40 MLOAD PUSH2 0x2FB SWAP2 SWAP1 PUSH2 0xD8A JUMP JUMPDEST PUSH1 0x40 MLOAD DUP1 SWAP2 SUB SWAP1 RETURN JUMPDEST PUSH2 0x31E PUSH1 0x4 DUP1 CALLDATASIZE SUB DUP2 ADD SWAP1 PUSH2 0x319 SWAP2 SWAP1 PUSH2 0xCA2 JUMP JUMPDEST PUSH2 0xC1F JUMP JUMPDEST PUSH1 0x40 MLOAD PUSH2 0x32B SWAP2 SWAP1 PUSH2 0xD8A JUMP JUMPDEST PUSH1 0x40 MLOAD DUP1 SWAP2 SUB SWAP1 RETURN JUMPDEST PUSH1 0x0 DUP1 PUSH1 0x3 PUSH1 0x0 DUP5 PUSH20 0xFFFFFFFFFFFFFFFFFFFFFFFFFFFFFFFFFFFFFFFF AND PUSH20 0xFFFFFFFFFFFFFFFFFFFFFFFFFFFFFFFFFFFFFFFF AND DUP2 MSTORE PUSH1 0x20 ADD SWAP1 DUP2 MSTORE PUSH1 0x20 ADD PUSH1 0x0 KECCAK256 SWAP1 POP DUP1 PUSH1 0x2 ADD SLOAD SWAP2 POP POP SWAP2 SWAP1 POP JUMP JUMPDEST PUSH1 0x0 PUSH1 0x5 PUSH1 0x0 DUP5 PUSH20 0xFFFFFFFFFFFFFFFFFFFFFFFFFFFFFFFFFFFFFFFF AND PUSH20 0xFFFFFFFFFFFFFFFFFFFFFFFFFFFFFFFFFFFFFFFF AND DUP2 MSTORE PUSH1 0x20 ADD SWAP1 DUP2 MSTORE PUSH1 0x20 ADD PUSH1 0x0 KECCAK256 PUSH1 0x0 DUP4 DUP2 MSTORE PUSH1 0x20 ADD SWAP1 DUP2 MSTORE PUSH1 0x20 ADD PUSH1 0x0 KECCAK256 PUSH1 0x0 SWAP1 SLOAD SWAP1 PUSH2 0x100 EXP SWAP1 DIV PUSH1 0xFF AND SWAP1 POP SWAP3 SWAP2 POP POP JUMP JUMPDEST PUSH1 0x5 PUSH1 0x20 MSTORE DUP2 PUSH1 0x0 MSTORE PUSH1 0x40 PUSH1 0x0 KECCAK256 PUSH1 0x20 MSTORE DUP1 PUSH1 0x0 MSTORE PUSH1 0x40 PUSH1 0x0 KECCAK256 PUSH1 0x0 SWAP2 POP SWAP2 POP SWAP1 SLOAD SWAP1 PUSH2 0x100 EXP SWAP1 DIV PUSH1 0xFF AND DUP2 JUMP JUMPDEST PUSH1 0x0 PUSH1 0x7 PUSH1 0x0 DUP4 PUSH20 0xFFFFFFFFFFFFFFFFFFFFFFFFFFFFFFFFFFFFFFFF AND PUSH20 0xFFFFFFFFFFFFFFFFFFFFFFFFFFFFFFFFFFFFFFFF AND DUP2 MSTORE PUSH1 0x20 ADD SWAP1 DUP2 MSTORE PUSH1 0x20 ADD PUSH1 0x0 KECCAK256 PUSH1 0x0 SWAP1 SLOAD SWAP1 PUSH2 0x100 EXP SWAP1 DIV PUSH1 0xFF AND SWAP1 POP SWAP2 SWAP1 POP JUMP JUMPDEST CALLER PUSH20 0xFFFFFFFFFFFFFFFFFFFFFFFFFFFFFFFFFFFFFFFF AND PUSH1 0x1 PUSH1 0x0 SWAP1 SLOAD SWAP1 PUSH2 0x100 EXP SWAP1 DIV PUSH20 0xFFFFFFFFFFFFFFFFFFFFFFFFFFFFFFFFFFFFFFFF AND PUSH20 0xFFFFFFFFFFFFFFFFFFFFFFFFFFFFFFFFFFFFFFFF AND EQ PUSH2 0x4CC JUMPI PUSH1 0x0 DUP1 REVERT JUMPDEST PUSH1 0x4 PUSH1 0x0 DUP3 PUSH20 0xFFFFFFFFFFFFFFFFFFFFFFFFFFFFFFFFFFFFFFFF AND PUSH20 0xFFFFFFFFFFFFFFFFFFFFFFFFFFFFFFFFFFFFFFFF AND DUP2 MSTORE PUSH1 0x20 ADD SWAP1 DUP2 MSTORE PUSH1 0x20 ADD PUSH1 0x0 KECCAK256 PUSH1 0x0 SWAP1 SLOAD SWAP1 PUSH2 0x100 EXP SWAP1 DIV PUSH1 0xFF AND ISZERO PUSH2 0x523 JUMPI PUSH1 0x0 DUP1 REVERT JUMPDEST PUSH1 0x1 PUSH1 0x4 PUSH1 0x0 DUP4 PUSH20 0xFFFFFFFFFFFFFFFFFFFFFFFFFFFFFFFFFFFFFFFF AND PUSH20 0xFFFFFFFFFFFFFFFFFFFFFFFFFFFFFFFFFFFFFFFF AND DUP2 MSTORE PUSH1 0x20 ADD SWAP1 DUP2 MSTORE PUSH1 0x20 ADD PUSH1 0x0 KECCAK256 PUSH1 0x0 PUSH2 0x100 EXP DUP2 SLOAD DUP2 PUSH1 0xFF MUL NOT AND SWAP1 DUP4 ISZERO ISZERO MUL OR SWAP1 SSTORE POP PUSH1 0x0 PUSH1 0x3 PUSH1 0x0 DUP4 PUSH20 0xFFFFFFFFFFFFFFFFFFFFFFFFFFFFFFFFFFFFFFFF AND PUSH20 0xFFFFFFFFFFFFFFFFFFFFFFFFFFFFFFFFFFFFFFFF AND DUP2 MSTORE PUSH1 0x20 ADD SWAP1 DUP2 MSTORE PUSH1 0x20 ADD PUSH1 0x0 KECCAK256 SWAP1 POP DUP2 DUP2 PUSH1 0x0 ADD PUSH1 0x0 PUSH2 0x100 EXP DUP2 SLOAD DUP2 PUSH20 0xFFFFFFFFFFFFFFFFFFFFFFFFFFFFFFFFFFFFFFFF MUL NOT AND SWAP1 DUP4 PUSH20 0xFFFFFFFFFFFFFFFFFFFFFFFFFFFFFFFFFFFFFFFF AND MUL OR SWAP1 SSTORE POP PUSH1 0x0 DUP2 PUSH1 0x2 ADD DUP2 SWAP1 SSTORE POP PUSH1 0x0 DUP2 PUSH1 0x3 ADD DUP2 SWAP1 SSTORE POP PUSH1 0x0 DUP2 PUSH1 0x5 ADD DUP2 SWAP1 SSTORE POP POP POP JUMP JUMPDEST CALLER PUSH20 0xFFFFFFFFFFFFFFFFFFFFFFFFFFFFFFFFFFFFFFFF AND PUSH1 0x1 PUSH1 0x0 SWAP1 SLOAD SWAP1 PUSH2 0x100 EXP SWAP1 DIV PUSH20 0xFFFFFFFFFFFFFFFFFFFFFFFFFFFFFFFFFFFFFFFF AND PUSH20 0xFFFFFFFFFFFFFFFFFFFFFFFFFFFFFFFFFFFFFFFF AND EQ PUSH2 0x67D JUMPI PUSH1 0x0 DUP1 REVERT JUMPDEST PUSH1 0x4 PUSH1 0x0 DUP4 PUSH20 0xFFFFFFFFFFFFFFFFFFFFFFFFFFFFFFFFFFFFFFFF AND PUSH20 0xFFFFFFFFFFFFFFFFFFFFFFFFFFFFFFFFFFFFFFFF AND DUP2 MSTORE PUSH1 0x20 ADD SWAP1 DUP2 MSTORE PUSH1 0x20 ADD PUSH1 0x0 KECCAK256 PUSH1 0x0 SWAP1 SLOAD SWAP1 PUSH2 0x100 EXP SWAP1 DIV PUSH1 0xFF AND PUSH2 0x6D3 JUMPI PUSH1 0x0 DUP1 REVERT JUMPDEST PUSH1 0x0 PUSH1 0x3 PUSH1 0x0 DUP5 PUSH20 0xFFFFFFFFFFFFFFFFFFFFFFFFFFFFFFFFFFFFFFFF AND PUSH20 0xFFFFFFFFFFFFFFFFFFFFFFFFFFFFFFFFFFFFFFFF AND DUP2 MSTORE PUSH1 0x20 ADD SWAP1 DUP2 MSTORE PUSH1 0x20 ADD PUSH1 0x0 KECCAK256 SWAP1 POP PUSH1 0x0 PUSH1 0x5 PUSH1 0x0 DUP6 PUSH20 0xFFFFFFFFFFFFFFFFFFFFFFFFFFFFFFFFFFFFFFFF AND PUSH20 0xFFFFFFFFFFFFFFFFFFFFFFFFFFFFFFFFFFFFFFFF AND DUP2 MSTORE PUSH1 0x20 ADD SWAP1 DUP2 MSTORE PUSH1 0x20 ADD PUSH1 0x0 KECCAK256 PUSH1 0x0 DUP5 DUP2 MSTORE PUSH1 0x20 ADD SWAP1 DUP2 MSTORE PUSH1 0x20 ADD PUSH1 0x0 KECCAK256 PUSH1 0x0 PUSH2 0x100 EXP DUP2 SLOAD DUP2 PUSH1 0xFF MUL NOT AND SWAP1 DUP4 ISZERO ISZERO MUL OR SWAP1 SSTORE POP DUP1 PUSH1 0x2 ADD PUSH1 0x0 DUP2 SLOAD DUP1 SWAP3 SWAP2 SWAP1 PUSH2 0x794 SWAP1 PUSH2 0xE51 JUMP JUMPDEST SWAP2 SWAP1 POP SSTORE POP POP POP POP JUMP JUMPDEST PUSH1 0x6 SLOAD DUP2 JUMP JUMPDEST CALLER PUSH20 0xFFFFFFFFFFFFFFFFFFFFFFFFFFFFFFFFFFFFFFFF AND PUSH1 0x1 PUSH1 0x0 SWAP1 SLOAD SWAP1 PUSH2 0x100 EXP SWAP1 DIV PUSH20 0xFFFFFFFFFFFFFFFFFFFFFFFFFFFFFFFFFFFFFFFF AND PUSH20 0xFFFFFFFFFFFFFFFFFFFFFFFFFFFFFFFFFFFFFFFF AND EQ PUSH2 0x7FE JUMPI PUSH1 0x0 DUP1 REVERT JUMPDEST PUSH1 0x1 PUSH1 0x7 PUSH1 0x0 DUP4 PUSH20 0xFFFFFFFFFFFFFFFFFFFFFFFFFFFFFFFFFFFFFFFF AND PUSH20 0xFFFFFFFFFFFFFFFFFFFFFFFFFFFFFFFFFFFFFFFF AND DUP2 MSTORE PUSH1 0x20 ADD SWAP1 DUP2 MSTORE PUSH1 0x20 ADD PUSH1 0x0 KECCAK256 PUSH1 0x0 PUSH2 0x100 EXP DUP2 SLOAD DUP2 PUSH1 0xFF MUL NOT AND SWAP1 DUP4 ISZERO ISZERO MUL OR SWAP1 SSTORE POP POP JUMP JUMPDEST PUSH1 0x0 DUP1 SLOAD SWAP1 PUSH2 0x100 EXP SWAP1 DIV PUSH20 0xFFFFFFFFFFFFFFFFFFFFFFFFFFFFFFFFFFFFFFFF AND DUP2 JUMP JUMPDEST CALLER PUSH20 0xFFFFFFFFFFFFFFFFFFFFFFFFFFFFFFFFFFFFFFFF AND PUSH1 0x1 PUSH1 0x0 SWAP1 SLOAD SWAP1 PUSH2 0x100 EXP SWAP1 DIV PUSH20 0xFFFFFFFFFFFFFFFFFFFFFFFFFFFFFFFFFFFFFFFF AND PUSH20 0xFFFFFFFFFFFFFFFFFFFFFFFFFFFFFFFFFFFFFFFF AND EQ PUSH2 0x8D7 JUMPI PUSH1 0x0 DUP1 REVERT JUMPDEST PUSH1 0x4 PUSH1 0x0 DUP4 PUSH20 0xFFFFFFFFFFFFFFFFFFFFFFFFFFFFFFFFFFFFFFFF AND PUSH20 0xFFFFFFFFFFFFFFFFFFFFFFFFFFFFFFFFFFFFFFFF AND DUP2 MSTORE PUSH1 0x20 ADD SWAP1 DUP2 MSTORE PUSH1 0x20 ADD PUSH1 0x0 KECCAK256 PUSH1 0x0 SWAP1 SLOAD SWAP1 PUSH2 0x100 EXP SWAP1 DIV PUSH1 0xFF AND PUSH2 0x92D JUMPI PUSH1 0x0 DUP1 REVERT JUMPDEST PUSH1 0x0 PUSH1 0x3 PUSH1 0x0 DUP5 PUSH20 0xFFFFFFFFFFFFFFFFFFFFFFFFFFFFFFFFFFFFFFFF AND PUSH20 0xFFFFFFFFFFFFFFFFFFFFFFFFFFFFFFFFFFFFFFFF AND DUP2 MSTORE PUSH1 0x20 ADD SWAP1 DUP2 MSTORE PUSH1 0x20 ADD PUSH1 0x0 KECCAK256 SWAP1 POP PUSH1 0x1 PUSH1 0x5 PUSH1 0x0 DUP6 PUSH20 0xFFFFFFFFFFFFFFFFFFFFFFFFFFFFFFFFFFFFFFFF AND PUSH20 0xFFFFFFFFFFFFFFFFFFFFFFFFFFFFFFFFFFFFFFFF AND DUP2 MSTORE PUSH1 0x20 ADD SWAP1 DUP2 MSTORE PUSH1 0x20 ADD PUSH1 0x0 KECCAK256 PUSH1 0x0 DUP5 DUP2 MSTORE PUSH1 0x20 ADD SWAP1 DUP2 MSTORE PUSH1 0x20 ADD PUSH1 0x0 KECCAK256 PUSH1 0x0 PUSH2 0x100 EXP DUP2 SLOAD DUP2 PUSH1 0xFF MUL NOT AND SWAP1 DUP4 ISZERO ISZERO MUL OR SWAP1 SSTORE POP DUP1 PUSH1 0x2 ADD PUSH1 0x0 DUP2 SLOAD DUP1 SWAP3 SWAP2 SWAP1 PUSH2 0x9EE SWAP1 PUSH2 0xE7B JUMP JUMPDEST SWAP2 SWAP1 POP SSTORE POP DUP1 PUSH1 0x3 ADD PUSH1 0x0 DUP2 SLOAD DUP1 SWAP3 SWAP2 SWAP1 PUSH2 0xA08 SWAP1 PUSH2 0xE7B JUMP JUMPDEST SWAP2 SWAP1 POP SSTORE POP POP POP POP JUMP JUMPDEST PUSH1 0x3 PUSH1 0x20 MSTORE DUP1 PUSH1 0x0 MSTORE PUSH1 0x40 PUSH1 0x0 KECCAK256 PUSH1 0x0 SWAP2 POP SWAP1 POP DUP1 PUSH1 0x0 ADD PUSH1 0x0 SWAP1 SLOAD SWAP1 PUSH2 0x100 EXP SWAP1 DIV PUSH20 0xFFFFFFFFFFFFFFFFFFFFFFFFFFFFFFFFFFFFFFFF AND SWAP1 DUP1 PUSH1 0x1 ADD SLOAD SWAP1 DUP1 PUSH1 0x2 ADD SLOAD SWAP1 DUP1 PUSH1 0x3 ADD SLOAD SWAP1 DUP1 PUSH1 0x5 ADD SLOAD SWAP1 POP DUP6 JUMP JUMPDEST PUSH1 0x2 SLOAD DUP2 JUMP JUMPDEST CALLER PUSH20 0xFFFFFFFFFFFFFFFFFFFFFFFFFFFFFFFFFFFFFFFF AND PUSH1 0x1 PUSH1 0x0 SWAP1 SLOAD SWAP1 PUSH2 0x100 EXP SWAP1 DIV PUSH20 0xFFFFFFFFFFFFFFFFFFFFFFFFFFFFFFFFFFFFFFFF AND PUSH20 0xFFFFFFFFFFFFFFFFFFFFFFFFFFFFFFFFFFFFFFFF AND EQ PUSH2 0xAC8 JUMPI PUSH1 0x0 DUP1 REVERT JUMPDEST PUSH1 0x4 PUSH1 0x0 DUP4 PUSH20 0xFFFFFFFFFFFFFFFFFFFFFFFFFFFFFFFFFFFFFFFF AND PUSH20 0xFFFFFFFFFFFFFFFFFFFFFFFFFFFFFFFFFFFFFFFF AND DUP2 MSTORE PUSH1 0x20 ADD SWAP1 DUP2 MSTORE PUSH1 0x20 ADD PUSH1 0x0 KECCAK256 PUSH1 0x0 SWAP1 SLOAD SWAP1 PUSH2 0x100 EXP SWAP1 DIV PUSH1 0xFF AND PUSH2 0xB1E JUMPI PUSH1 0x0 DUP1 REVERT JUMPDEST PUSH1 0x0 PUSH1 0x3 PUSH1 0x0 DUP5 PUSH20 0xFFFFFFFFFFFFFFFFFFFFFFFFFFFFFFFFFFFFFFFF AND PUSH20 0xFFFFFFFFFFFFFFFFFFFFFFFFFFFFFFFFFFFFFFFF AND DUP2 MSTORE PUSH1 0x20 ADD SWAP1 DUP2 MSTORE PUSH1 0x20 ADD PUSH1 0x0 KECCAK256 SWAP1 POP DUP1 PUSH1 0x6 ADD DUP3 SWAP1 DUP1 PUSH1 0x1 DUP2 SLOAD ADD DUP1 DUP3 SSTORE DUP1 SWAP2 POP POP PUSH1 0x1 SWAP1 SUB SWAP1 PUSH1 0x0 MSTORE PUSH1 0x20 PUSH1 0x0 KECCAK256 ADD PUSH1 0x0 SWAP1 SWAP2 SWAP1 SWAP2 SWAP1 SWAP2 POP SSTORE DUP1 PUSH1 0x5 ADD SLOAD DUP2 PUSH1 0x7 ADD PUSH1 0x0 DUP5 DUP2 MSTORE PUSH1 0x20 ADD SWAP1 DUP2 MSTORE PUSH1 0x20 ADD PUSH1 0x0 KECCAK256 DUP2 SWAP1 SSTORE POP DUP1 PUSH1 0x5 ADD PUSH1 0x0 DUP2 SLOAD DUP1 SWAP3 SWAP2 SWAP1 PUSH2 0xBBF SWAP1 PUSH2 0xE7B JUMP JUMPDEST SWAP2 SWAP1 POP SSTORE POP POP POP POP JUMP JUMPDEST PUSH1 0x0 PUSH1 0x4 PUSH1 0x0 DUP4 PUSH20 0xFFFFFFFFFFFFFFFFFFFFFFFFFFFFFFFFFFFFFFFF AND PUSH20 0xFFFFFFFFFFFFFFFFFFFFFFFFFFFFFFFFFFFFFFFF AND DUP2 MSTORE PUSH1 0x20 ADD SWAP1 DUP2 MSTORE PUSH1 0x20 ADD PUSH1 0x0 KECCAK256 PUSH1 0x0 SWAP1 SLOAD SWAP1 PUSH2 0x100 EXP SWAP1 DIV PUSH1 0xFF AND SWAP1 POP SWAP2 SWAP1 POP JUMP JUMPDEST PUSH1 0x4 PUSH1 0x20 MSTORE DUP1 PUSH1 0x0 MSTORE PUSH1 0x40 PUSH1 0x0 KECCAK256 PUSH1 0x0 SWAP2 POP SLOAD SWAP1 PUSH2 0x100 EXP SWAP1 DIV PUSH1 0xFF AND DUP2 JUMP JUMPDEST PUSH1 0x0 DUP1 REVERT JUMPDEST PUSH1 0x0 PUSH20 0xFFFFFFFFFFFFFFFFFFFFFFFFFFFFFFFFFFFFFFFF DUP3 AND SWAP1 POP SWAP2 SWAP1 POP JUMP JUMPDEST PUSH1 0x0 PUSH2 0xC6F DUP3 PUSH2 0xC44 JUMP JUMPDEST SWAP1 POP SWAP2 SWAP1 POP JUMP JUMPDEST PUSH2 0xC7F DUP2 PUSH2 0xC64 JUMP JUMPDEST DUP2 EQ PUSH2 0xC8A JUMPI PUSH1 0x0 DUP1 REVERT JUMPDEST POP JUMP JUMPDEST PUSH1 0x0 DUP2 CALLDATALOAD SWAP1 POP PUSH2 0xC9C DUP2 PUSH2 0xC76 JUMP JUMPDEST SWAP3 SWAP2 POP POP JUMP JUMPDEST PUSH1 0x0 PUSH1 0x20 DUP3 DUP5 SUB SLT ISZERO PUSH2 0xCB8 JUMPI PUSH2 0xCB7 PUSH2 0xC3F JUMP JUMPDEST JUMPDEST PUSH1 0x0 PUSH2 0xCC6 DUP5 DUP3 DUP6 ADD PUSH2 0xC8D JUMP JUMPDEST SWAP2 POP POP SWAP3 SWAP2 POP POP JUMP JUMPDEST PUSH1 0x0 DUP2 SWAP1 POP SWAP2 SWAP1 POP JUMP JUMPDEST PUSH2 0xCE2 DUP2 PUSH2 0xCCF JUMP JUMPDEST DUP3 MSTORE POP POP JUMP JUMPDEST PUSH1 0x0 PUSH1 0x20 DUP3 ADD SWAP1 POP PUSH2 0xCFD PUSH1 0x0 DUP4 ADD DUP5 PUSH2 0xCD9 JUMP JUMPDEST SWAP3 SWAP2 POP POP JUMP JUMPDEST PUSH2 0xD0C DUP2 PUSH2 0xCCF JUMP JUMPDEST DUP2 EQ PUSH2 0xD17 JUMPI PUSH1 0x0 DUP1 REVERT JUMPDEST POP JUMP JUMPDEST PUSH1 0x0 DUP2 CALLDATALOAD SWAP1 POP PUSH2 0xD29 DUP2 PUSH2 0xD03 JUMP JUMPDEST SWAP3 SWAP2 POP POP JUMP JUMPDEST PUSH1 0x0 DUP1 PUSH1 0x40 DUP4 DUP6 SUB SLT ISZERO PUSH2 0xD46 JUMPI PUSH2 0xD45 PUSH2 0xC3F JUMP JUMPDEST JUMPDEST PUSH1 0x0 PUSH2 0xD54 DUP6 DUP3 DUP7 ADD PUSH2 0xC8D JUMP JUMPDEST SWAP3 POP POP PUSH1 0x20 PUSH2 0xD65 DUP6 DUP3 DUP7 ADD PUSH2 0xD1A JUMP JUMPDEST SWAP2 POP POP SWAP3 POP SWAP3 SWAP1 POP JUMP JUMPDEST PUSH1 0x0 DUP2 ISZERO ISZERO SWAP1 POP SWAP2 SWAP1 POP JUMP JUMPDEST PUSH2 0xD84 DUP2 PUSH2 0xD6F JUMP JUMPDEST DUP3 MSTORE POP POP JUMP JUMPDEST PUSH1 0x0 PUSH1 0x20 DUP3 ADD SWAP1 POP PUSH2 0xD9F PUSH1 0x0 DUP4 ADD DUP5 PUSH2 0xD7B JUMP JUMPDEST SWAP3 SWAP2 POP POP JUMP JUMPDEST PUSH2 0xDAE DUP2 PUSH2 0xC64 JUMP JUMPDEST DUP3 MSTORE POP POP JUMP JUMPDEST PUSH1 0x0 PUSH1 0x20 DUP3 ADD SWAP1 POP PUSH2 0xDC9 PUSH1 0x0 DUP4 ADD DUP5 PUSH2 0xDA5 JUMP JUMPDEST SWAP3 SWAP2 POP POP JUMP JUMPDEST PUSH1 0x0 PUSH1 0xA0 DUP3 ADD SWAP1 POP PUSH2 0xDE4 PUSH1 0x0 DUP4 ADD DUP9 PUSH2 0xDA5 JUMP JUMPDEST PUSH2 0xDF1 PUSH1 0x20 DUP4 ADD DUP8 PUSH2 0xCD9 JUMP JUMPDEST PUSH2 0xDFE PUSH1 0x40 DUP4 ADD DUP7 PUSH2 0xCD9 JUMP JUMPDEST PUSH2 0xE0B PUSH1 0x60 DUP4 ADD DUP6 PUSH2 0xCD9 JUMP JUMPDEST PUSH2 0xE18 PUSH1 0x80 DUP4 ADD DUP5 PUSH2 0xCD9 JUMP JUMPDEST SWAP7 SWAP6 POP POP POP POP POP POP JUMP JUMPDEST PUSH32 0x4E487B7100000000000000000000000000000000000000000000000000000000 PUSH1 0x0 MSTORE PUSH1 0x11 PUSH1 0x4 MSTORE PUSH1 0x24 PUSH1 0x0 REVERT JUMPDEST PUSH1 0x0 PUSH2 0xE5C DUP3 PUSH2 0xCCF JUMP JUMPDEST SWAP2 POP PUSH1 0x0 DUP3 EQ ISZERO PUSH2 0xE70 JUMPI PUSH2 0xE6F PUSH2 0xE22 JUMP JUMPDEST JUMPDEST PUSH1 0x1 DUP3 SUB SWAP1 POP SWAP2 SWAP1 POP JUMP JUMPDEST PUSH1 0x0 PUSH2 0xE86 DUP3 PUSH2 0xCCF JUMP JUMPDEST SWAP2 POP PUSH32 0xFFFFFFFFFFFFFFFFFFFFFFFFFFFFFFFFFFFFFFFFFFFFFFFFFFFFFFFFFFFFFFFF DUP3 EQ ISZERO PUSH2 0xEB9 JUMPI PUSH2 0xEB8 PUSH2 0xE22 JUMP JUMPDEST JUMPDEST PUSH1 0x1 DUP3 ADD SWAP1 POP SWAP2 SWAP1 POP JUMP INVALID LOG2 PUSH5 0x6970667358 0x22 SLT KECCAK256 0x2E DUP13 0x5E PUSH2 0x787C SMOD DIV 0x5D 0xC0 0xE9 PUSH10 0xE3AB27634EC2D54E98D9 0xCC 0xC7 DUP8 0xD8 0xE8 0xAF GAS 0x5F DIV PUSH8 0x64736F6C63430008 EXP STOP CALLER PUSH1 0x80 PUSH1 0x40 MSTORE CALLVALUE DUP1 ISZERO PUSH2 0x10 JUMPI PUSH1 0x0 DUP1 REVERT JUMPDEST POP PUSH1 0x40 MLOAD PUSH3 0xFE5 CODESIZE SUB DUP1 PUSH3 0xFE5 DUP4 CODECOPY DUP2 DUP2 ADD PUSH1 0x40 MSTORE DUP2 ADD SWAP1 PUSH2 0x34 SWAP2 SWAP1 PUSH2 0x11E JUMP JUMPDEST DUP1 PUSH1 0x0 DUP1 PUSH2 0x100 EXP DUP2 SLOAD DUP2 PUSH20 0xFFFFFFFFFFFFFFFFFFFFFFFFFFFFFFFFFFFFFFFF MUL NOT AND SWAP1 DUP4 PUSH20 0xFFFFFFFFFFFFFFFFFFFFFFFFFFFFFFFFFFFFFFFF AND MUL OR SWAP1 SSTORE POP CALLER PUSH1 0x1 PUSH1 0x0 PUSH2 0x100 EXP DUP2 SLOAD DUP2 PUSH20 0xFFFFFFFFFFFFFFFFFFFFFFFFFFFFFFFFFFFFFFFF MUL NOT AND SWAP1 DUP4 PUSH20 0xFFFFFFFFFFFFFFFFFFFFFFFFFFFFFFFFFFFFFFFF AND MUL OR SWAP1 SSTORE POP POP PUSH2 0x14B JUMP JUMPDEST PUSH1 0x0 DUP1 REVERT JUMPDEST PUSH1 0x0 PUSH20 0xFFFFFFFFFFFFFFFFFFFFFFFFFFFFFFFFFFFFFFFF DUP3 AND SWAP1 POP SWAP2 SWAP1 POP JUMP JUMPDEST PUSH1 0x0 PUSH2 0xEB DUP3 PUSH2 0xC0 JUMP JUMPDEST SWAP1 POP SWAP2 SWAP1 POP JUMP JUMPDEST PUSH2 0xFB DUP2 PUSH2 0xE0 JUMP JUMPDEST DUP2 EQ PUSH2 0x106 JUMPI PUSH1 0x0 DUP1 REVERT JUMPDEST POP JUMP JUMPDEST PUSH1 0x0 DUP2 MLOAD SWAP1 POP PUSH2 0x118 DUP2 PUSH2 0xF2 JUMP JUMPDEST SWAP3 SWAP2 POP POP JUMP JUMPDEST PUSH1 0x0 PUSH1 0x20 DUP3 DUP5 SUB SLT ISZERO PUSH2 0x134 JUMPI PUSH2 0x133 PUSH2 0xBB JUMP JUMPDEST JUMPDEST PUSH1 0x0 PUSH2 0x142 DUP5 DUP3 DUP6 ADD PUSH2 0x109 JUMP JUMPDEST SWAP2 POP POP SWAP3 SWAP2 POP POP JUMP JUMPDEST PUSH2 0xE8A DUP1 PUSH3 0x15B PUSH1 0x0 CODECOPY PUSH1 0x0 RETURN INVALID PUSH1 0x80 PUSH1 0x40 MSTORE CALLVALUE DUP1 ISZERO PUSH2 0x10 JUMPI PUSH1 0x0 DUP1 REVERT JUMPDEST POP PUSH1 0x4 CALLDATASIZE LT PUSH2 0xB4 JUMPI PUSH1 0x0 CALLDATALOAD PUSH1 0xE0 SHR DUP1 PUSH4 0x921C47B1 GT PUSH2 0x71 JUMPI DUP1 PUSH4 0x921C47B1 EQ PUSH2 0x1B9 JUMPI DUP1 PUSH4 0xA46D8AC7 EQ PUSH2 0x1D7 JUMPI DUP1 PUSH4 0xAB21A2BE EQ PUSH2 0x207 JUMPI DUP1 PUSH4 0xCA5140C9 EQ PUSH2 0x223 JUMPI DUP1 PUSH4 0xEF228C92 EQ PUSH2 0x23F JUMPI DUP1 PUSH4 0xF6B4DFB4 EQ PUSH2 0x25B JUMPI PUSH2 0xB4 JUMP JUMPDEST DUP1 PUSH4 0x1CE06944 EQ PUSH2 0xB9 JUMPI DUP1 PUSH4 0x3B2F7118 EQ PUSH2 0xE9 JUMPI DUP1 PUSH4 0x67615AD5 EQ PUSH2 0x119 JUMPI DUP1 PUSH4 0x83B65CB4 EQ PUSH2 0x149 JUMPI DUP1 PUSH4 0x8DA5CB5B EQ PUSH2 0x17F JUMPI DUP1 PUSH4 0x8DBBFBDE EQ PUSH2 0x19D JUMPI JUMPDEST PUSH1 0x0 DUP1 REVERT JUMPDEST PUSH2 0xD3 PUSH1 0x4 DUP1 CALLDATASIZE SUB DUP2 ADD SWAP1 PUSH2 0xCE SWAP2 SWAP1 PUSH2 0xB0D JUMP JUMPDEST PUSH2 0x279 JUMP JUMPDEST PUSH1 0x40 MLOAD PUSH2 0xE0 SWAP2 SWAP1 PUSH2 0xB49 JUMP JUMPDEST PUSH1 0x40 MLOAD DUP1 SWAP2 SUB SWAP1 RETURN JUMPDEST PUSH2 0x103 PUSH1 0x4 DUP1 CALLDATASIZE SUB DUP2 ADD SWAP1 PUSH2 0xFE SWAP2 SWAP1 PUSH2 0xB0D JUMP JUMPDEST PUSH2 0x398 JUMP JUMPDEST PUSH1 0x40 MLOAD PUSH2 0x110 SWAP2 SWAP1 PUSH2 0xBA5 JUMP JUMPDEST PUSH1 0x40 MLOAD DUP1 SWAP2 SUB SWAP1 RETURN JUMPDEST PUSH2 0x133 PUSH1 0x4 DUP1 CALLDATASIZE SUB DUP2 ADD SWAP1 PUSH2 0x12E SWAP2 SWAP1 PUSH2 0xB0D JUMP JUMPDEST PUSH2 0x4B7 JUMP JUMPDEST PUSH1 0x40 MLOAD PUSH2 0x140 SWAP2 SWAP1 PUSH2 0xB49 JUMP JUMPDEST PUSH1 0x40 MLOAD DUP1 SWAP2 SUB SWAP1 RETURN JUMPDEST PUSH2 0x163 PUSH1 0x4 DUP1 CALLDATASIZE SUB DUP2 ADD SWAP1 PUSH2 0x15E SWAP2 SWAP1 PUSH2 0xB0D JUMP JUMPDEST PUSH2 0x5D6 JUMP JUMPDEST PUSH1 0x40 MLOAD PUSH2 0x176 SWAP8 SWAP7 SWAP6 SWAP5 SWAP4 SWAP3 SWAP2 SWAP1 PUSH2 0xBDB JUMP JUMPDEST PUSH1 0x40 MLOAD DUP1 SWAP2 SUB SWAP1 RETURN JUMPDEST PUSH2 0x187 PUSH2 0x665 JUMP JUMPDEST PUSH1 0x40 MLOAD PUSH2 0x194 SWAP2 SWAP1 PUSH2 0xBA5 JUMP JUMPDEST PUSH1 0x40 MLOAD DUP1 SWAP2 SUB SWAP1 RETURN JUMPDEST PUSH2 0x1B7 PUSH1 0x4 DUP1 CALLDATASIZE SUB DUP2 ADD SWAP1 PUSH2 0x1B2 SWAP2 SWAP1 PUSH2 0xC4A JUMP JUMPDEST PUSH2 0x689 JUMP JUMPDEST STOP JUMPDEST PUSH2 0x1C1 PUSH2 0x722 JUMP JUMPDEST PUSH1 0x40 MLOAD PUSH2 0x1CE SWAP2 SWAP1 PUSH2 0xB49 JUMP JUMPDEST PUSH1 0x40 MLOAD DUP1 SWAP2 SUB SWAP1 RETURN JUMPDEST PUSH2 0x1F1 PUSH1 0x4 DUP1 CALLDATASIZE SUB DUP2 ADD SWAP1 PUSH2 0x1EC SWAP2 SWAP1 PUSH2 0xCC9 JUMP JUMPDEST PUSH2 0x728 JUMP JUMPDEST PUSH1 0x40 MLOAD PUSH2 0x1FE SWAP2 SWAP1 PUSH2 0xB49 JUMP JUMPDEST PUSH1 0x40 MLOAD DUP1 SWAP2 SUB SWAP1 RETURN JUMPDEST PUSH2 0x221 PUSH1 0x4 DUP1 CALLDATASIZE SUB DUP2 ADD SWAP1 PUSH2 0x21C SWAP2 SWAP1 PUSH2 0xD30 JUMP JUMPDEST PUSH2 0x88E JUMP JUMPDEST STOP JUMPDEST PUSH2 0x23D PUSH1 0x4 DUP1 CALLDATASIZE SUB DUP2 ADD SWAP1 PUSH2 0x238 SWAP2 SWAP1 PUSH2 0xB0D JUMP JUMPDEST PUSH2 0x957 JUMP JUMPDEST STOP JUMPDEST PUSH2 0x259 PUSH1 0x4 DUP1 CALLDATASIZE SUB DUP2 ADD SWAP1 PUSH2 0x254 SWAP2 SWAP1 PUSH2 0xD9C JUMP JUMPDEST PUSH2 0xA0A JUMP JUMPDEST STOP JUMPDEST PUSH2 0x263 PUSH2 0xAAC JUMP JUMPDEST PUSH1 0x40 MLOAD PUSH2 0x270 SWAP2 SWAP1 PUSH2 0xBA5 JUMP JUMPDEST PUSH1 0x40 MLOAD DUP1 SWAP2 SUB SWAP1 RETURN JUMPDEST PUSH1 0x0 DUP1 PUSH1 0x3 PUSH1 0x0 DUP5 DUP2 MSTORE PUSH1 0x20 ADD SWAP1 DUP2 MSTORE PUSH1 0x20 ADD PUSH1 0x0 KECCAK256 PUSH1 0x40 MLOAD DUP1 PUSH1 0xE0 ADD PUSH1 0x40 MSTORE SWAP1 DUP2 PUSH1 0x0 DUP3 ADD SLOAD DUP2 MSTORE PUSH1 0x20 ADD PUSH1 0x1 DUP3 ADD PUSH1 0x0 SWAP1 SLOAD SWAP1 PUSH2 0x100 EXP SWAP1 DIV PUSH20 0xFFFFFFFFFFFFFFFFFFFFFFFFFFFFFFFFFFFFFFFF AND PUSH20 0xFFFFFFFFFFFFFFFFFFFFFFFFFFFFFFFFFFFFFFFF AND PUSH20 0xFFFFFFFFFFFFFFFFFFFFFFFFFFFFFFFFFFFFFFFF AND DUP2 MSTORE PUSH1 0x20 ADD PUSH1 0x2 DUP3 ADD SLOAD DUP2 MSTORE PUSH1 0x20 ADD PUSH1 0x3 DUP3 ADD PUSH1 0x0 SWAP1 SLOAD SWAP1 PUSH2 0x100 EXP SWAP1 DIV PUSH20 0xFFFFFFFFFFFFFFFFFFFFFFFFFFFFFFFFFFFFFFFF AND PUSH20 0xFFFFFFFFFFFFFFFFFFFFFFFFFFFFFFFFFFFFFFFF AND PUSH20 0xFFFFFFFFFFFFFFFFFFFFFFFFFFFFFFFFFFFFFFFF AND DUP2 MSTORE PUSH1 0x20 ADD PUSH1 0x3 DUP3 ADD PUSH1 0x14 SWAP1 SLOAD SWAP1 PUSH2 0x100 EXP SWAP1 DIV PUSH1 0xFF AND ISZERO ISZERO ISZERO ISZERO DUP2 MSTORE PUSH1 0x20 ADD PUSH1 0x4 DUP3 ADD SLOAD DUP2 MSTORE PUSH1 0x20 ADD PUSH1 0x5 DUP3 ADD SLOAD DUP2 MSTORE POP POP SWAP1 POP DUP1 PUSH1 0xC0 ADD MLOAD SWAP2 POP POP SWAP2 SWAP1 POP JUMP JUMPDEST PUSH1 0x0 DUP1 PUSH1 0x3 PUSH1 0x0 DUP5 DUP2 MSTORE PUSH1 0x20 ADD SWAP1 DUP2 MSTORE PUSH1 0x20 ADD PUSH1 0x0 KECCAK256 PUSH1 0x40 MLOAD DUP1 PUSH1 0xE0 ADD PUSH1 0x40 MSTORE SWAP1 DUP2 PUSH1 0x0 DUP3 ADD SLOAD DUP2 MSTORE PUSH1 0x20 ADD PUSH1 0x1 DUP3 ADD PUSH1 0x0 SWAP1 SLOAD SWAP1 PUSH2 0x100 EXP SWAP1 DIV PUSH20 0xFFFFFFFFFFFFFFFFFFFFFFFFFFFFFFFFFFFFFFFF AND PUSH20 0xFFFFFFFFFFFFFFFFFFFFFFFFFFFFFFFFFFFFFFFF AND PUSH20 0xFFFFFFFFFFFFFFFFFFFFFFFFFFFFFFFFFFFFFFFF AND DUP2 MSTORE PUSH1 0x20 ADD PUSH1 0x2 DUP3 ADD SLOAD DUP2 MSTORE PUSH1 0x20 ADD PUSH1 0x3 DUP3 ADD PUSH1 0x0 SWAP1 SLOAD SWAP1 PUSH2 0x100 EXP SWAP1 DIV PUSH20 0xFFFFFFFFFFFFFFFFFFFFFFFFFFFFFFFFFFFFFFFF AND PUSH20 0xFFFFFFFFFFFFFFFFFFFFFFFFFFFFFFFFFFFFFFFF AND PUSH20 0xFFFFFFFFFFFFFFFFFFFFFFFFFFFFFFFFFFFFFFFF AND DUP2 MSTORE PUSH1 0x20 ADD PUSH1 0x3 DUP3 ADD PUSH1 0x14 SWAP1 SLOAD SWAP1 PUSH2 0x100 EXP SWAP1 DIV PUSH1 0xFF AND ISZERO ISZERO ISZERO ISZERO DUP2 MSTORE PUSH1 0x20 ADD PUSH1 0x4 DUP3 ADD SLOAD DUP2 MSTORE PUSH1 0x20 ADD PUSH1 0x5 DUP3 ADD SLOAD DUP2 MSTORE POP POP SWAP1 POP DUP1 PUSH1 0x60 ADD MLOAD SWAP2 POP POP SWAP2 SWAP1 POP JUMP JUMPDEST PUSH1 0x0 DUP1 PUSH1 0x3 PUSH1 0x0 DUP5 DUP2 MSTORE PUSH1 0x20 ADD SWAP1 DUP2 MSTORE PUSH1 0x20 ADD PUSH1 0x0 KECCAK256 PUSH1 0x40 MLOAD DUP1 PUSH1 0xE0 ADD PUSH1 0x40 MSTORE SWAP1 DUP2 PUSH1 0x0 DUP3 ADD SLOAD DUP2 MSTORE PUSH1 0x20 ADD PUSH1 0x1 DUP3 ADD PUSH1 0x0 SWAP1 SLOAD SWAP1 PUSH2 0x100 EXP SWAP1 DIV PUSH20 0xFFFFFFFFFFFFFFFFFFFFFFFFFFFFFFFFFFFFFFFF AND PUSH20 0xFFFFFFFFFFFFFFFFFFFFFFFFFFFFFFFFFFFFFFFF AND PUSH20 0xFFFFFFFFFFFFFFFFFFFFFFFFFFFFFFFFFFFFFFFF AND DUP2 MSTORE PUSH1 0x20 ADD PUSH1 0x2 DUP3 ADD SLOAD DUP2 MSTORE PUSH1 0x20 ADD PUSH1 0x3 DUP3 ADD PUSH1 0x0 SWAP1 SLOAD SWAP1 PUSH2 0x100 EXP SWAP1 DIV PUSH20 0xFFFFFFFFFFFFFFFFFFFFFFFFFFFFFFFFFFFFFFFF AND PUSH20 0xFFFFFFFFFFFFFFFFFFFFFFFFFFFFFFFFFFFFFFFF AND PUSH20 0xFFFFFFFFFFFFFFFFFFFFFFFFFFFFFFFFFFFFFFFF AND DUP2 MSTORE PUSH1 0x20 ADD PUSH1 0x3 DUP3 ADD PUSH1 0x14 SWAP1 SLOAD SWAP1 PUSH2 0x100 EXP SWAP1 DIV PUSH1 0xFF AND ISZERO ISZERO ISZERO ISZERO DUP2 MSTORE PUSH1 0x20 ADD PUSH1 0x4 DUP3 ADD SLOAD DUP2 MSTORE PUSH1 0x20 ADD PUSH1 0x5 DUP3 ADD SLOAD DUP2 MSTORE POP POP SWAP1 POP DUP1 PUSH1 0x40 ADD MLOAD SWAP2 POP POP SWAP2 SWAP1 POP JUMP JUMPDEST PUSH1 0x3 PUSH1 0x20 MSTORE DUP1 PUSH1 0x0 MSTORE PUSH1 0x40 PUSH1 0x0 KECCAK256 PUSH1 0x0 SWAP2 POP SWAP1 POP DUP1 PUSH1 0x0 ADD SLOAD SWAP1 DUP1 PUSH1 0x1 ADD PUSH1 0x0 SWAP1 SLOAD SWAP1 PUSH2 0x100 EXP SWAP1 DIV PUSH20 0xFFFFFFFFFFFFFFFFFFFFFFFFFFFFFFFFFFFFFFFF AND SWAP1 DUP1 PUSH1 0x2 ADD SLOAD SWAP1 DUP1 PUSH1 0x3 ADD PUSH1 0x0 SWAP1 SLOAD SWAP1 PUSH2 0x100 EXP SWAP1 DIV PUSH20 0xFFFFFFFFFFFFFFFFFFFFFFFFFFFFFFFFFFFFFFFF AND SWAP1 DUP1 PUSH1 0x3 ADD PUSH1 0x14 SWAP1 SLOAD SWAP1 PUSH2 0x100 EXP SWAP1 DIV PUSH1 0xFF AND SWAP1 DUP1 PUSH1 0x4 ADD SLOAD SWAP1 DUP1 PUSH1 0x5 ADD SLOAD SWAP1 POP DUP8 JUMP JUMPDEST PUSH1 0x0 DUP1 SLOAD SWAP1 PUSH2 0x100 EXP SWAP1 DIV PUSH20 0xFFFFFFFFFFFFFFFFFFFFFFFFFFFFFFFFFFFFFFFF AND DUP2 JUMP JUMPDEST DUP3 PUSH1 0x2 SLOAD DUP2 LT PUSH2 0x698 JUMPI PUSH1 0x0 DUP1 REVERT JUMPDEST CALLER PUSH20 0xFFFFFFFFFFFFFFFFFFFFFFFFFFFFFFFFFFFFFFFF AND PUSH1 0x1 PUSH1 0x0 SWAP1 SLOAD SWAP1 PUSH2 0x100 EXP SWAP1 DIV PUSH20 0xFFFFFFFFFFFFFFFFFFFFFFFFFFFFFFFFFFFFFFFF AND PUSH20 0xFFFFFFFFFFFFFFFFFFFFFFFFFFFFFFFFFFFFFFFF AND EQ PUSH2 0x6F2 JUMPI PUSH1 0x0 DUP1 REVERT JUMPDEST PUSH1 0x0 PUSH1 0x3 PUSH1 0x0 DUP7 DUP2 MSTORE PUSH1 0x20 ADD SWAP1 DUP2 MSTORE PUSH1 0x20 ADD PUSH1 0x0 KECCAK256 SWAP1 POP DUP4 DUP2 PUSH1 0x4 ADD DUP2 SWAP1 SSTORE POP DUP3 DUP2 PUSH1 0x5 ADD DUP2 SWAP1 SSTORE POP POP POP POP POP POP JUMP JUMPDEST PUSH1 0x2 SLOAD DUP2 JUMP JUMPDEST PUSH1 0x0 CALLER PUSH20 0xFFFFFFFFFFFFFFFFFFFFFFFFFFFFFFFFFFFFFFFF AND PUSH1 0x1 PUSH1 0x0 SWAP1 SLOAD SWAP1 PUSH2 0x100 EXP SWAP1 DIV PUSH20 0xFFFFFFFFFFFFFFFFFFFFFFFFFFFFFFFFFFFFFFFF AND PUSH20 0xFFFFFFFFFFFFFFFFFFFFFFFFFFFFFFFFFFFFFFFF AND EQ PUSH2 0x784 JUMPI PUSH1 0x0 DUP1 REVERT JUMPDEST PUSH1 0x0 PUSH1 0x3 PUSH1 0x0 PUSH1 0x2 SLOAD DUP2 MSTORE PUSH1 0x20 ADD SWAP1 DUP2 MSTORE PUSH1 0x20 ADD PUSH1 0x0 KECCAK256 SWAP1 POP PUSH1 0x2 SLOAD DUP2 PUSH1 0x0 ADD DUP2 SWAP1 SSTORE POP DUP5 DUP2 PUSH1 0x2 ADD DUP2 SWAP1 SSTORE POP DUP6 DUP2 PUSH1 0x1 ADD PUSH1 0x0 PUSH2 0x100 EXP DUP2 SLOAD DUP2 PUSH20 0xFFFFFFFFFFFFFFFFFFFFFFFFFFFFFFFFFFFFFFFF MUL NOT AND SWAP1 DUP4 PUSH20 0xFFFFFFFFFFFFFFFFFFFFFFFFFFFFFFFFFFFFFFFF AND MUL OR SWAP1 SSTORE POP DUP6 DUP2 PUSH1 0x3 ADD PUSH1 0x0 PUSH2 0x100 EXP DUP2 SLOAD DUP2 PUSH20 0xFFFFFFFFFFFFFFFFFFFFFFFFFFFFFFFFFFFFFFFF MUL NOT AND SWAP1 DUP4 PUSH20 0xFFFFFFFFFFFFFFFFFFFFFFFFFFFFFFFFFFFFFFFF AND MUL OR SWAP1 SSTORE POP PUSH1 0x0 DUP2 PUSH1 0x3 ADD PUSH1 0x14 PUSH2 0x100 EXP DUP2 SLOAD DUP2 PUSH1 0xFF MUL NOT AND SWAP1 DUP4 ISZERO ISZERO MUL OR SWAP1 SSTORE POP DUP4 DUP2 PUSH1 0x4 ADD DUP2 SWAP1 SSTORE POP DUP3 DUP2 PUSH1 0x5 ADD DUP2 SWAP1 SSTORE POP PUSH1 0x2 PUSH1 0x0 DUP2 SLOAD DUP1 SWAP3 SWAP2 SWAP1 PUSH2 0x879 SWAP1 PUSH2 0xE0B JUMP JUMPDEST SWAP2 SWAP1 POP SSTORE POP DUP1 PUSH1 0x0 ADD SLOAD SWAP2 POP POP SWAP5 SWAP4 POP POP POP POP JUMP JUMPDEST DUP2 PUSH1 0x2 SLOAD DUP2 LT PUSH2 0x89D JUMPI PUSH1 0x0 DUP1 REVERT JUMPDEST CALLER PUSH20 0xFFFFFFFFFFFFFFFFFFFFFFFFFFFFFFFFFFFFFFFF AND PUSH1 0x1 PUSH1 0x0 SWAP1 SLOAD SWAP1 PUSH2 0x100 EXP SWAP1 DIV PUSH20 0xFFFFFFFFFFFFFFFFFFFFFFFFFFFFFFFFFFFFFFFF AND PUSH20 0xFFFFFFFFFFFFFFFFFFFFFFFFFFFFFFFFFFFFFFFF AND EQ PUSH2 0x8F7 JUMPI PUSH1 0x0 DUP1 REVERT JUMPDEST PUSH1 0x0 PUSH1 0x3 PUSH1 0x0 DUP6 DUP2 MSTORE PUSH1 0x20 ADD SWAP1 DUP2 MSTORE PUSH1 0x20 ADD PUSH1 0x0 KECCAK256 SWAP1 POP DUP3 DUP2 PUSH1 0x3 ADD PUSH1 0x0 PUSH2 0x100 EXP DUP2 SLOAD DUP2 PUSH20 0xFFFFFFFFFFFFFFFFFFFFFFFFFFFFFFFFFFFFFFFF MUL NOT AND SWAP1 DUP4 PUSH20 0xFFFFFFFFFFFFFFFFFFFFFFFFFFFFFFFFFFFFFFFF AND MUL OR SWAP1 SSTORE POP POP POP POP POP JUMP JUMPDEST DUP1 PUSH1 0x2 SLOAD DUP2 LT PUSH2 0x966 JUMPI PUSH1 0x0 DUP1 REVERT JUMPDEST CALLER PUSH20 0xFFFFFFFFFFFFFFFFFFFFFFFFFFFFFFFFFFFFFFFF AND PUSH1 0x1 PUSH1 0x0 SWAP1 SLOAD SWAP1 PUSH2 0x100 EXP SWAP1 DIV PUSH20 0xFFFFFFFFFFFFFFFFFFFFFFFFFFFFFFFFFFFFFFFF AND PUSH20 0xFFFFFFFFFFFFFFFFFFFFFFFFFFFFFFFFFFFFFFFF AND EQ PUSH2 0x9C0 JUMPI PUSH1 0x0 DUP1 REVERT JUMPDEST PUSH1 0x0 PUSH1 0x3 PUSH1 0x0 DUP5 DUP2 MSTORE PUSH1 0x20 ADD SWAP1 DUP2 MSTORE PUSH1 0x20 ADD PUSH1 0x0 KECCAK256 SWAP1 POP PUSH2 0xA05 DUP4 DUP3 PUSH1 0x1 ADD PUSH1 0x0 SWAP1 SLOAD SWAP1 PUSH2 0x100 EXP SWAP1 DIV PUSH20 0xFFFFFFFFFFFFFFFFFFFFFFFFFFFFFFFFFFFFFFFF AND PUSH2 0x88E JUMP JUMPDEST POP POP POP JUMP JUMPDEST DUP2 PUSH1 0x2 SLOAD DUP2 LT PUSH2 0xA19 JUMPI PUSH1 0x0 DUP1 REVERT JUMPDEST CALLER PUSH20 0xFFFFFFFFFFFFFFFFFFFFFFFFFFFFFFFFFFFFFFFF AND PUSH1 0x1 PUSH1 0x0 SWAP1 SLOAD SWAP1 PUSH2 0x100 EXP SWAP1 DIV PUSH20 0xFFFFFFFFFFFFFFFFFFFFFFFFFFFFFFFFFFFFFFFF AND PUSH20 0xFFFFFFFFFFFFFFFFFFFFFFFFFFFFFFFFFFFFFFFF AND EQ PUSH2 0xA73 JUMPI PUSH1 0x0 DUP1 REVERT JUMPDEST PUSH1 0x0 PUSH1 0x3 PUSH1 0x0 DUP6 DUP2 MSTORE PUSH1 0x20 ADD SWAP1 DUP2 MSTORE PUSH1 0x20 ADD PUSH1 0x0 KECCAK256 SWAP1 POP DUP3 DUP2 PUSH1 0x3 ADD PUSH1 0x14 PUSH2 0x100 EXP DUP2 SLOAD DUP2 PUSH1 0xFF MUL NOT AND SWAP1 DUP4 ISZERO ISZERO MUL OR SWAP1 SSTORE POP POP POP POP POP JUMP JUMPDEST PUSH1 0x1 PUSH1 0x0 SWAP1 SLOAD SWAP1 PUSH2 0x100 EXP SWAP1 DIV PUSH20 0xFFFFFFFFFFFFFFFFFFFFFFFFFFFFFFFFFFFFFFFF AND DUP2 JUMP JUMPDEST PUSH1 0x0 DUP1 REVERT JUMPDEST PUSH1 0x0 DUP2 SWAP1 POP SWAP2 SWAP1 POP JUMP JUMPDEST PUSH2 0xAEA DUP2 PUSH2 0xAD7 JUMP JUMPDEST DUP2 EQ PUSH2 0xAF5 JUMPI PUSH1 0x0 DUP1 REVERT JUMPDEST POP JUMP JUMPDEST PUSH1 0x0 DUP2 CALLDATALOAD SWAP1 POP PUSH2 0xB07 DUP2 PUSH2 0xAE1 JUMP JUMPDEST SWAP3 SWAP2 POP POP JUMP JUMPDEST PUSH1 0x0 PUSH1 0x20 DUP3 DUP5 SUB SLT ISZERO PUSH2 0xB23 JUMPI PUSH2 0xB22 PUSH2 0xAD2 JUMP JUMPDEST JUMPDEST PUSH1 0x0 PUSH2 0xB31 DUP5 DUP3 DUP6 ADD PUSH2 0xAF8 JUMP JUMPDEST SWAP2 POP POP SWAP3 SWAP2 POP POP JUMP JUMPDEST PUSH2 0xB43 DUP2 PUSH2 0xAD7 JUMP JUMPDEST DUP3 MSTORE POP POP JUMP JUMPDEST PUSH1 0x0 PUSH1 0x20 DUP3 ADD SWAP1 POP PUSH2 0xB5E PUSH1 0x0 DUP4 ADD DUP5 PUSH2 0xB3A JUMP JUMPDEST SWAP3 SWAP2 POP POP JUMP JUMPDEST PUSH1 0x0 PUSH20 0xFFFFFFFFFFFFFFFFFFFFFFFFFFFFFFFFFFFFFFFF DUP3 AND SWAP1 POP SWAP2 SWAP1 POP JUMP JUMPDEST PUSH1 0x0 PUSH2 0xB8F DUP3 PUSH2 0xB64 JUMP JUMPDEST SWAP1 POP SWAP2 SWAP1 POP JUMP JUMPDEST PUSH2 0xB9F DUP2 PUSH2 0xB84 JUMP JUMPDEST DUP3 MSTORE POP POP JUMP JUMPDEST PUSH1 0x0 PUSH1 0x20 DUP3 ADD SWAP1 POP PUSH2 0xBBA PUSH1 0x0 DUP4 ADD DUP5 PUSH2 0xB96 JUMP JUMPDEST SWAP3 SWAP2 POP POP JUMP JUMPDEST PUSH1 0x0 DUP2 ISZERO ISZERO SWAP1 POP SWAP2 SWAP1 POP JUMP JUMPDEST PUSH2 0xBD5 DUP2 PUSH2 0xBC0 JUMP JUMPDEST DUP3 MSTORE POP POP JUMP JUMPDEST PUSH1 0x0 PUSH1 0xE0 DUP3 ADD SWAP1 POP PUSH2 0xBF0 PUSH1 0x0 DUP4 ADD DUP11 PUSH2 0xB3A JUMP JUMPDEST PUSH2 0xBFD PUSH1 0x20 DUP4 ADD DUP10 PUSH2 0xB96 JUMP JUMPDEST PUSH2 0xC0A PUSH1 0x40 DUP4 ADD DUP9 PUSH2 0xB3A JUMP JUMPDEST PUSH2 0xC17 PUSH1 0x60 DUP4 ADD DUP8 PUSH2 0xB96 JUMP JUMPDEST PUSH2 0xC24 PUSH1 0x80 DUP4 ADD DUP7 PUSH2 0xBCC JUMP JUMPDEST PUSH2 0xC31 PUSH1 0xA0 DUP4 ADD DUP6 PUSH2 0xB3A JUMP JUMPDEST PUSH2 0xC3E PUSH1 0xC0 DUP4 ADD DUP5 PUSH2 0xB3A JUMP JUMPDEST SWAP9 SWAP8 POP POP POP POP POP POP POP POP JUMP JUMPDEST PUSH1 0x0 DUP1 PUSH1 0x0 PUSH1 0x60 DUP5 DUP7 SUB SLT ISZERO PUSH2 0xC63 JUMPI PUSH2 0xC62 PUSH2 0xAD2 JUMP JUMPDEST JUMPDEST PUSH1 0x0 PUSH2 0xC71 DUP7 DUP3 DUP8 ADD PUSH2 0xAF8 JUMP JUMPDEST SWAP4 POP POP PUSH1 0x20 PUSH2 0xC82 DUP7 DUP3 DUP8 ADD PUSH2 0xAF8 JUMP JUMPDEST SWAP3 POP POP PUSH1 0x40 PUSH2 0xC93 DUP7 DUP3 DUP8 ADD PUSH2 0xAF8 JUMP JUMPDEST SWAP2 POP POP SWAP3 POP SWAP3 POP SWAP3 JUMP JUMPDEST PUSH2 0xCA6 DUP2 PUSH2 0xB84 JUMP JUMPDEST DUP2 EQ PUSH2 0xCB1 JUMPI PUSH1 0x0 DUP1 REVERT JUMPDEST POP JUMP JUMPDEST PUSH1 0x0 DUP2 CALLDATALOAD SWAP1 POP PUSH2 0xCC3 DUP2 PUSH2 0xC9D JUMP JUMPDEST SWAP3 SWAP2 POP POP JUMP JUMPDEST PUSH1 0x0 DUP1 PUSH1 0x0 DUP1 PUSH1 0x80 DUP6 DUP8 SUB SLT ISZERO PUSH2 0xCE3 JUMPI PUSH2 0xCE2 PUSH2 0xAD2 JUMP JUMPDEST JUMPDEST PUSH1 0x0 PUSH2 0xCF1 DUP8 DUP3 DUP9 ADD PUSH2 0xCB4 JUMP JUMPDEST SWAP5 POP POP PUSH1 0x20 PUSH2 0xD02 DUP8 DUP3 DUP9 ADD PUSH2 0xAF8 JUMP JUMPDEST SWAP4 POP POP PUSH1 0x40 PUSH2 0xD13 DUP8 DUP3 DUP9 ADD PUSH2 0xAF8 JUMP JUMPDEST SWAP3 POP POP PUSH1 0x60 PUSH2 0xD24 DUP8 DUP3 DUP9 ADD PUSH2 0xAF8 JUMP JUMPDEST SWAP2 POP POP SWAP3 SWAP6 SWAP2 SWAP5 POP SWAP3 POP JUMP JUMPDEST PUSH1 0x0 DUP1 PUSH1 0x40 DUP4 DUP6 SUB SLT ISZERO PUSH2 0xD47 JUMPI PUSH2 0xD46 PUSH2 0xAD2 JUMP JUMPDEST JUMPDEST PUSH1 0x0 PUSH2 0xD55 DUP6 DUP3 DUP7 ADD PUSH2 0xAF8 JUMP JUMPDEST SWAP3 POP POP PUSH1 0x20 PUSH2 0xD66 DUP6 DUP3 DUP7 ADD PUSH2 0xCB4 JUMP JUMPDEST SWAP2 POP POP SWAP3 POP SWAP3 SWAP1 POP JUMP JUMPDEST PUSH2 0xD79 DUP2 PUSH2 0xBC0 JUMP JUMPDEST DUP2 EQ PUSH2 0xD84 JUMPI PUSH1 0x0 DUP1 REVERT JUMPDEST POP JUMP JUMPDEST PUSH1 0x0 DUP2 CALLDATALOAD SWAP1 POP PUSH2 0xD96 DUP2 PUSH2 0xD70 JUMP JUMPDEST SWAP3 SWAP2 POP POP JUMP JUMPDEST PUSH1 0x0 DUP1 PUSH1 0x40 DUP4 DUP6 SUB SLT ISZERO PUSH2 0xDB3 JUMPI PUSH2 0xDB2 PUSH2 0xAD2 JUMP JUMPDEST JUMPDEST PUSH1 0x0 PUSH2 0xDC1 DUP6 DUP3 DUP7 ADD PUSH2 0xAF8 JUMP JUMPDEST SWAP3 POP POP PUSH1 0x20 PUSH2 0xDD2 DUP6 DUP3 DUP7 ADD PUSH2 0xD87 JUMP JUMPDEST SWAP2 POP POP SWAP3 POP SWAP3 SWAP1 POP JUMP JUMPDEST PUSH32 0x4E487B7100000000000000000000000000000000000000000000000000000000 PUSH1 0x0 MSTORE PUSH1 0x11 PUSH1 0x4 MSTORE PUSH1 0x24 PUSH1 0x0 REVERT JUMPDEST PUSH1 0x0 PUSH2 0xE16 DUP3 PUSH2 0xAD7 JUMP JUMPDEST SWAP2 POP PUSH32 0xFFFFFFFFFFFFFFFFFFFFFFFFFFFFFFFFFFFFFFFFFFFFFFFFFFFFFFFFFFFFFFFF DUP3 EQ ISZERO PUSH2 0xE49 JUMPI PUSH2 0xE48 PUSH2 0xDDC JUMP JUMPDEST JUMPDEST PUSH1 0x1 DUP3 ADD SWAP1 POP SWAP2 SWAP1 POP JUMP INVALID LOG2 PUSH5 0x6970667358 0x22 SLT KECCAK256 0xBE JUMPI 0xC9 0x49 PUSH19 0x22E4CAFFF449B5E92BCC2A3FFC5B2CC30F31B0 STATICCALL RETURN 0x4D DUP15 SWAP8 0xCA 0xCC 0x4B PUSH5 0x736F6C6343 STOP ADDMOD EXP STOP CALLER "},"gasEstimates":{"creation":{"codeDepositCost":"1255600","executionCost":"infinite","totalCost":"infinite"},"external":{"addBook(string,string,uint256,address)":"infinite","borrowBook(uint256)":"infinite","createBookToken(uint256,uint256,uint256)":"infinite","getManagerAddress()":"infinite","inviteStaff(address)":"27089","maxBorrowing()":"2451","modifyBook(uint256,string,string,uint256,address)":"infinite","owner()":"2511","register()":"infinite","returnBook(uint256)":"infinite","staff(address)":"2890"}},"methodIdentifiers":{"addBook(string,string,uint256,address)":"687564ae","borrowBook(uint256)":"7e490a9e","createBookToken(uint256,uint256,uint256)":"1973db46","getManagerAddress()":"c162d7da","inviteStaff(address)":"fe69494b","maxBorrowing()":"90272dff","modifyBook(uint256,string,string,uint256,address)":"d2c07e20","owner()":"8da5cb5b","register()":"1aa3a008","returnBook(uint256)":"ca5140c9","staff(address)":"4f83158a"}},"storageLayout":{"storage":[{"astId":6,"contract":"Library.sol:Library","label":"owner","offset":0,"slot":"0","type":"t_address"},{"astId":10,"contract":"Library.sol:Library","label":"staff","offset":0,"slot":"1","type":"t_mapping(t_address,t_bool)"},{"astId":13,"contract":"Library.sol:Library","label":"bookManager","offset":0,"slot":"2","type":"t_contract(BookManager)653"},{"astId":16,"contract":"Library.sol:Library","label":"userManager","offset":0,"slot":"3","type":"t_contract(UserManager)1352"},{"astId":19,"contract":"Library.sol:Library","label":"tokenManager","offset":0,"slot":"4","type":"t_contract(TokenManager)999"},{"astId":22,"contract":"Library.sol:Library","label":"managerAddress","offset":0,"slot":"5","type":"t_array(t_address)dyn_storage"},{"astId":24,"contract":"Library.sol:Library","label":"maxBorrowing","offset":0,"slot":"6","type":"t_uint256"}],"types":{"t_address":{"encoding":"inplace","label":"address","numberOfBytes":"20"},"t_array(t_address)dyn_storage":{"base":"t_address","encoding":"dynamic_array","label":"address[]","numberOfBytes":"32"},"t_bool":{"encoding":"inplace","label":"bool","numberOfBytes":"1"},"t_contract(BookManager)653":{"encoding":"inplace","label":"contract BookManager","numberOfBytes":"20"},"t_contract(TokenManager)999":{"encoding":"inplace","label":"contract TokenManager","numberOfBytes":"20"},"t_contract(UserManager)1352":{"encoding":"inplace","label":"contract UserManager","numberOfBytes":"20"},"t_mapping(t_address,t_bool)":{"encoding":"mapping","key":"t_address","label":"mapping(address => bool)","numberOfBytes":"32","value":"t_bool"},"t_uint256":{"encoding":"inplace","label":"uint256","numberOfBytes":"32"}}},"userdoc":{"kind":"user","methods":{},"version":1}}