{"abi":[{"inputs":[{"internalType":"address","name":"_ownerAddress","type":"address"}],"stateMutability":"nonpayable","type":"constructor"},{"inputs":[{"internalType":"uint256","name":"_tokenId","type":"uint256"},{"internalType":"bool","name":"_status","type":"bool"}],"name":"changeAllowabilityStatus","outputs":[],"stateMutability":"nonpayable","type":"function"},{"inputs":[{"internalType":"uint256","name":"_tokenId","type":"uint256"},{"internalType":"uint256","name":"_period","type":"uint256"},{"internalType":"uint256","name":"_cost","type":"uint256"}],"name":"changeContractStatus","outputs":[],"stateMutability":"nonpayable","type":"function"},{"inputs":[{"internalType":"uint256","name":"_tokenId","type":"uint256"},{"internalType":"address","name":"_reader","type":"address"}],"name":"changeReader","outputs":[],"stateMutability":"nonpayable","type":"function"},{"inputs":[],"name":"contractAddress","outputs":[{"internalType":"address","name":"","type":"address"}],"stateMutability":"view","type":"function"},{"inputs":[{"internalType":"address","name":"_sender","type":"address"},{"internalType":"uint256","name":"_bookIndex","type":"uint256"},{"internalType":"uint256","name":"_period","type":"uint256"},{"internalType":"uint256","name":"_cost","type":"uint256"}],"name":"createBookToken","outputs":[{"internalType":"uint256","name":"","type":"uint256"}],"stateMutability":"nonpayable","type":"function"},{"inputs":[{"internalType":"uint256","name":"_tokenId","type":"uint256"}],"name":"getTokenBookId","outputs":[{"internalType":"uint256","name":"","type":"uint256"}],"stateMutability":"view","type":"function"},{"inputs":[{"internalType":"uint256","name":"_tokenId","type":"uint256"}],"name":"getTokenCost","outputs":[{"internalType":"uint256","name":"","type":"uint256"}],"stateMutability":"view","type":"function"},{"inputs":[],"name":"numBookToken","outputs":[{"internalType":"uint256","name":"","type":"uint256"}],"stateMutability":"view","type":"function"},{"inputs":[],"name":"owner","outputs":[{"internalType":"address","name":"","type":"address"}],"stateMutability":"view","type":"function"},{"inputs":[{"internalType":"uint256","name":"_tokenId","type":"uint256"}],"name":"returnBook","outputs":[],"stateMutability":"nonpayable","type":"function"}],"devdoc":{"kind":"dev","methods":{},"version":1},"evm":{"assembly":"    /* \"devs/TokenManager.sol\":843:3282   */\n  mstore(0x40, 0x80)\n    /* \"devs/TokenManager.sol\":1225:1336   */\n  callvalue\n  dup1\n  iszero\n  tag_1\n  jumpi\n  0x00\n  dup1\n  revert\ntag_1:\n  pop\n  mload(0x40)\n  sub(codesize, bytecodeSize)\n  dup1\n  bytecodeSize\n  dup4\n  codecopy\n  dup2\n  dup2\n  add\n  0x40\n  mstore\n  dup2\n  add\n  swap1\n  tag_2\n  swap2\n  swap1\n  tag_3\n  jump\t// in\ntag_2:\n    /* \"devs/TokenManager.sol\":1278:1291   */\n  dup1\n    /* \"devs/TokenManager.sol\":1270:1275   */\n  0x00\n  dup1\n    /* \"devs/TokenManager.sol\":1270:1291   */\n  0x0100\n  exp\n  dup2\n  sload\n  dup2\n  0xffffffffffffffffffffffffffffffffffffffff\n  mul\n  not\n  and\n  swap1\n  dup4\n  0xffffffffffffffffffffffffffffffffffffffff\n  and\n  mul\n  or\n  swap1\n  sstore\n  pop\n    /* \"devs/TokenManager.sol\":1319:1329   */\n  caller\n    /* \"devs/TokenManager.sol\":1301:1316   */\n  0x01\n  0x00\n    /* \"devs/TokenManager.sol\":1301:1329   */\n  0x0100\n  exp\n  dup2\n  sload\n  dup2\n  0xffffffffffffffffffffffffffffffffffffffff\n  mul\n  not\n  and\n  swap1\n  dup4\n  0xffffffffffffffffffffffffffffffffffffffff\n  and\n  mul\n  or\n  swap1\n  sstore\n  pop\n    /* \"devs/TokenManager.sol\":1225:1336   */\n  pop\n    /* \"devs/TokenManager.sol\":843:3282   */\n  jump(tag_6)\n    /* \"#utility.yul\":88:205   */\ntag_8:\n    /* \"#utility.yul\":197:198   */\n  0x00\n    /* \"#utility.yul\":194:195   */\n  dup1\n    /* \"#utility.yul\":187:199   */\n  revert\n    /* \"#utility.yul\":334:460   */\ntag_10:\n    /* \"#utility.yul\":371:378   */\n  0x00\n    /* \"#utility.yul\":411:453   */\n  0xffffffffffffffffffffffffffffffffffffffff\n    /* \"#utility.yul\":404:409   */\n  dup3\n    /* \"#utility.yul\":400:454   */\n  and\n    /* \"#utility.yul\":389:454   */\n  swap1\n  pop\n    /* \"#utility.yul\":334:460   */\n  swap2\n  swap1\n  pop\n  jump\t// out\n    /* \"#utility.yul\":466:562   */\ntag_11:\n    /* \"#utility.yul\":503:510   */\n  0x00\n    /* \"#utility.yul\":532:556   */\n  tag_20\n    /* \"#utility.yul\":550:555   */\n  dup3\n    /* \"#utility.yul\":532:556   */\n  tag_10\n  jump\t// in\ntag_20:\n    /* \"#utility.yul\":521:556   */\n  swap1\n  pop\n    /* \"#utility.yul\":466:562   */\n  swap2\n  swap1\n  pop\n  jump\t// out\n    /* \"#utility.yul\":568:690   */\ntag_12:\n    /* \"#utility.yul\":641:665   */\n  tag_22\n    /* \"#utility.yul\":659:664   */\n  dup2\n    /* \"#utility.yul\":641:665   */\n  tag_11\n  jump\t// in\ntag_22:\n    /* \"#utility.yul\":634:639   */\n  dup2\n    /* \"#utility.yul\":631:666   */\n  eq\n    /* \"#utility.yul\":621:684   */\n  tag_23\n  jumpi\n    /* \"#utility.yul\":680:681   */\n  0x00\n    /* \"#utility.yul\":677:678   */\n  dup1\n    /* \"#utility.yul\":670:682   */\n  revert\n    /* \"#utility.yul\":621:684   */\ntag_23:\n    /* \"#utility.yul\":568:690   */\n  pop\n  jump\t// out\n    /* \"#utility.yul\":696:839   */\ntag_13:\n    /* \"#utility.yul\":753:758   */\n  0x00\n    /* \"#utility.yul\":784:790   */\n  dup2\n    /* \"#utility.yul\":778:791   */\n  mload\n    /* \"#utility.yul\":769:791   */\n  swap1\n  pop\n    /* \"#utility.yul\":800:833   */\n  tag_25\n    /* \"#utility.yul\":827:832   */\n  dup2\n    /* \"#utility.yul\":800:833   */\n  tag_12\n  jump\t// in\ntag_25:\n    /* \"#utility.yul\":696:839   */\n  swap3\n  swap2\n  pop\n  pop\n  jump\t// out\n    /* \"#utility.yul\":845:1196   */\ntag_3:\n    /* \"#utility.yul\":915:921   */\n  0x00\n    /* \"#utility.yul\":964:966   */\n  0x20\n    /* \"#utility.yul\":952:961   */\n  dup3\n    /* \"#utility.yul\":943:950   */\n  dup5\n    /* \"#utility.yul\":939:962   */\n  sub\n    /* \"#utility.yul\":935:967   */\n  slt\n    /* \"#utility.yul\":932:1051   */\n  iszero\n  tag_27\n  jumpi\n    /* \"#utility.yul\":970:1049   */\n  tag_28\n  tag_8\n  jump\t// in\ntag_28:\n    /* \"#utility.yul\":932:1051   */\ntag_27:\n    /* \"#utility.yul\":1090:1091   */\n  0x00\n    /* \"#utility.yul\":1115:1179   */\n  tag_29\n    /* \"#utility.yul\":1171:1178   */\n  dup5\n    /* \"#utility.yul\":1162:1168   */\n  dup3\n    /* \"#utility.yul\":1151:1160   */\n  dup6\n    /* \"#utility.yul\":1147:1169   */\n  add\n    /* \"#utility.yul\":1115:1179   */\n  tag_13\n  jump\t// in\ntag_29:\n    /* \"#utility.yul\":1105:1179   */\n  swap2\n  pop\n    /* \"#utility.yul\":1061:1189   */\n  pop\n    /* \"#utility.yul\":845:1196   */\n  swap3\n  swap2\n  pop\n  pop\n  jump\t// out\n    /* \"devs/TokenManager.sol\":843:3282   */\ntag_6:\n  dataSize(sub_0)\n  dup1\n  dataOffset(sub_0)\n  0x00\n  codecopy\n  0x00\n  return\nstop\n\nsub_0: assembly {\n        /* \"devs/TokenManager.sol\":843:3282   */\n      mstore(0x40, 0x80)\n      callvalue\n      dup1\n      iszero\n      tag_1\n      jumpi\n      0x00\n      dup1\n      revert\n    tag_1:\n      pop\n      jumpi(tag_2, lt(calldatasize, 0x04))\n      shr(0xe0, calldataload(0x00))\n      dup1\n      0xa46d8ac7\n      gt\n      tag_13\n      jumpi\n      dup1\n      0xa46d8ac7\n      eq\n      tag_8\n      jumpi\n      dup1\n      0xab21a2be\n      eq\n      tag_9\n      jumpi\n      dup1\n      0xca5140c9\n      eq\n      tag_10\n      jumpi\n      dup1\n      0xef228c92\n      eq\n      tag_11\n      jumpi\n      dup1\n      0xf6b4dfb4\n      eq\n      tag_12\n      jumpi\n      jump(tag_2)\n    tag_13:\n      dup1\n      0x1ce06944\n      eq\n      tag_3\n      jumpi\n      dup1\n      0x67615ad5\n      eq\n      tag_4\n      jumpi\n      dup1\n      0x8da5cb5b\n      eq\n      tag_5\n      jumpi\n      dup1\n      0x8dbbfbde\n      eq\n      tag_6\n      jumpi\n      dup1\n      0x921c47b1\n      eq\n      tag_7\n      jumpi\n    tag_2:\n      0x00\n      dup1\n      revert\n        /* \"devs/TokenManager.sol\":2944:3105   */\n    tag_3:\n      tag_14\n      0x04\n      dup1\n      calldatasize\n      sub\n      dup2\n      add\n      swap1\n      tag_15\n      swap2\n      swap1\n      tag_16\n      jump\t// in\n    tag_15:\n      tag_17\n      jump\t// in\n    tag_14:\n      mload(0x40)\n      tag_18\n      swap2\n      swap1\n      tag_19\n      jump\t// in\n    tag_18:\n      mload(0x40)\n      dup1\n      swap2\n      sub\n      swap1\n      return\n        /* \"devs/TokenManager.sol\":3111:3279   */\n    tag_4:\n      tag_20\n      0x04\n      dup1\n      calldatasize\n      sub\n      dup2\n      add\n      swap1\n      tag_21\n      swap2\n      swap1\n      tag_16\n      jump\t// in\n    tag_21:\n      tag_22\n      jump\t// in\n    tag_20:\n      mload(0x40)\n      tag_23\n      swap2\n      swap1\n      tag_19\n      jump\t// in\n    tag_23:\n      mload(0x40)\n      dup1\n      swap2\n      sub\n      swap1\n      return\n        /* \"devs/TokenManager.sol\":896:916   */\n    tag_5:\n      tag_24\n      tag_25\n      jump\t// in\n    tag_24:\n      mload(0x40)\n      tag_26\n      swap2\n      swap1\n      tag_27\n      jump\t// in\n    tag_26:\n      mload(0x40)\n      dup1\n      swap2\n      sub\n      swap1\n      return\n        /* \"devs/TokenManager.sol\":2269:2514   */\n    tag_6:\n      tag_28\n      0x04\n      dup1\n      calldatasize\n      sub\n      dup2\n      add\n      swap1\n      tag_29\n      swap2\n      swap1\n      tag_30\n      jump\t// in\n    tag_29:\n      tag_31\n      jump\t// in\n    tag_28:\n      stop\n        /* \"devs/TokenManager.sol\":959:983   */\n    tag_7:\n      tag_32\n      tag_33\n      jump\t// in\n    tag_32:\n      mload(0x40)\n      tag_34\n      swap2\n      swap1\n      tag_19\n      jump\t// in\n    tag_34:\n      mload(0x40)\n      dup1\n      swap2\n      sub\n      swap1\n      return\n        /* \"devs/TokenManager.sol\":1432:1944   */\n    tag_8:\n      tag_35\n      0x04\n      dup1\n      calldatasize\n      sub\n      dup2\n      add\n      swap1\n      tag_36\n      swap2\n      swap1\n      tag_37\n      jump\t// in\n    tag_36:\n      tag_38\n      jump\t// in\n    tag_35:\n      mload(0x40)\n      tag_39\n      swap2\n      swap1\n      tag_19\n      jump\t// in\n    tag_39:\n      mload(0x40)\n      dup1\n      swap2\n      sub\n      swap1\n      return\n        /* \"devs/TokenManager.sol\":2520:2716   */\n    tag_9:\n      tag_40\n      0x04\n      dup1\n      calldatasize\n      sub\n      dup2\n      add\n      swap1\n      tag_41\n      swap2\n      swap1\n      tag_42\n      jump\t// in\n    tag_41:\n      tag_43\n      jump\t// in\n    tag_40:\n      stop\n        /* \"devs/TokenManager.sol\":2722:2912   */\n    tag_10:\n      tag_44\n      0x04\n      dup1\n      calldatasize\n      sub\n      dup2\n      add\n      swap1\n      tag_45\n      swap2\n      swap1\n      tag_16\n      jump\t// in\n    tag_45:\n      tag_46\n      jump\t// in\n    tag_44:\n      stop\n        /* \"devs/TokenManager.sol\":2049:2263   */\n    tag_11:\n      tag_47\n      0x04\n      dup1\n      calldatasize\n      sub\n      dup2\n      add\n      swap1\n      tag_48\n      swap2\n      swap1\n      tag_49\n      jump\t// in\n    tag_48:\n      tag_50\n      jump\t// in\n    tag_47:\n      stop\n        /* \"devs/TokenManager.sol\":922:952   */\n    tag_12:\n      tag_51\n      tag_52\n      jump\t// in\n    tag_51:\n      mload(0x40)\n      tag_53\n      swap2\n      swap1\n      tag_27\n      jump\t// in\n    tag_53:\n      mload(0x40)\n      dup1\n      swap2\n      sub\n      swap1\n      return\n        /* \"devs/TokenManager.sol\":2944:3105   */\n    tag_17:\n        /* \"devs/TokenManager.sol\":3003:3007   */\n      0x00\n        /* \"devs/TokenManager.sol\":3018:3044   */\n      dup1\n        /* \"devs/TokenManager.sol\":3047:3057   */\n      0x03\n        /* \"devs/TokenManager.sol\":3047:3067   */\n      0x00\n        /* \"devs/TokenManager.sol\":3058:3066   */\n      dup5\n        /* \"devs/TokenManager.sol\":3047:3067   */\n      dup2\n      mstore\n      0x20\n      add\n      swap1\n      dup2\n      mstore\n      0x20\n      add\n      0x00\n      keccak256\n        /* \"devs/TokenManager.sol\":3018:3067   */\n      mload(0x40)\n      dup1\n      0xe0\n      add\n      0x40\n      mstore\n      swap1\n      dup2\n      0x00\n      dup3\n      add\n      sload\n      dup2\n      mstore\n      0x20\n      add\n      0x01\n      dup3\n      add\n      0x00\n      swap1\n      sload\n      swap1\n      0x0100\n      exp\n      swap1\n      div\n      0xffffffffffffffffffffffffffffffffffffffff\n      and\n      0xffffffffffffffffffffffffffffffffffffffff\n      and\n      0xffffffffffffffffffffffffffffffffffffffff\n      and\n      dup2\n      mstore\n      0x20\n      add\n      0x02\n      dup3\n      add\n      sload\n      dup2\n      mstore\n      0x20\n      add\n      0x03\n      dup3\n      add\n      0x00\n      swap1\n      sload\n      swap1\n      0x0100\n      exp\n      swap1\n      div\n      0xffffffffffffffffffffffffffffffffffffffff\n      and\n      0xffffffffffffffffffffffffffffffffffffffff\n      and\n      0xffffffffffffffffffffffffffffffffffffffff\n      and\n      dup2\n      mstore\n      0x20\n      add\n      0x03\n      dup3\n      add\n      0x14\n      swap1\n      sload\n      swap1\n      0x0100\n      exp\n      swap1\n      div\n      0xff\n      and\n      iszero\n      iszero\n      iszero\n      iszero\n      dup2\n      mstore\n      0x20\n      add\n      0x04\n      dup3\n      add\n      sload\n      dup2\n      mstore\n      0x20\n      add\n      0x05\n      dup3\n      add\n      sload\n      dup2\n      mstore\n      pop\n      pop\n      swap1\n      pop\n        /* \"devs/TokenManager.sol\":3084:3093   */\n      dup1\n        /* \"devs/TokenManager.sol\":3084:3098   */\n      0xc0\n      add\n      mload\n        /* \"devs/TokenManager.sol\":3077:3098   */\n      swap2\n      pop\n      pop\n        /* \"devs/TokenManager.sol\":2944:3105   */\n      swap2\n      swap1\n      pop\n      jump\t// out\n        /* \"devs/TokenManager.sol\":3111:3279   */\n    tag_22:\n        /* \"devs/TokenManager.sol\":3172:3176   */\n      0x00\n        /* \"devs/TokenManager.sol\":3187:3213   */\n      dup1\n        /* \"devs/TokenManager.sol\":3216:3226   */\n      0x03\n        /* \"devs/TokenManager.sol\":3216:3236   */\n      0x00\n        /* \"devs/TokenManager.sol\":3227:3235   */\n      dup5\n        /* \"devs/TokenManager.sol\":3216:3236   */\n      dup2\n      mstore\n      0x20\n      add\n      swap1\n      dup2\n      mstore\n      0x20\n      add\n      0x00\n      keccak256\n        /* \"devs/TokenManager.sol\":3187:3236   */\n      mload(0x40)\n      dup1\n      0xe0\n      add\n      0x40\n      mstore\n      swap1\n      dup2\n      0x00\n      dup3\n      add\n      sload\n      dup2\n      mstore\n      0x20\n      add\n      0x01\n      dup3\n      add\n      0x00\n      swap1\n      sload\n      swap1\n      0x0100\n      exp\n      swap1\n      div\n      0xffffffffffffffffffffffffffffffffffffffff\n      and\n      0xffffffffffffffffffffffffffffffffffffffff\n      and\n      0xffffffffffffffffffffffffffffffffffffffff\n      and\n      dup2\n      mstore\n      0x20\n      add\n      0x02\n      dup3\n      add\n      sload\n      dup2\n      mstore\n      0x20\n      add\n      0x03\n      dup3\n      add\n      0x00\n      swap1\n      sload\n      swap1\n      0x0100\n      exp\n      swap1\n      div\n      0xffffffffffffffffffffffffffffffffffffffff\n      and\n      0xffffffffffffffffffffffffffffffffffffffff\n      and\n      0xffffffffffffffffffffffffffffffffffffffff\n      and\n      dup2\n      mstore\n      0x20\n      add\n      0x03\n      dup3\n      add\n      0x14\n      swap1\n      sload\n      swap1\n      0x0100\n      exp\n      swap1\n      div\n      0xff\n      and\n      iszero\n      iszero\n      iszero\n      iszero\n      dup2\n      mstore\n      0x20\n      add\n      0x04\n      dup3\n      add\n      sload\n      dup2\n      mstore\n      0x20\n      add\n      0x05\n      dup3\n      add\n      sload\n      dup2\n      mstore\n      pop\n      pop\n      swap1\n      pop\n        /* \"devs/TokenManager.sol\":3253:3262   */\n      dup1\n        /* \"devs/TokenManager.sol\":3253:3272   */\n      0x40\n      add\n      mload\n        /* \"devs/TokenManager.sol\":3246:3272   */\n      swap2\n      pop\n      pop\n        /* \"devs/TokenManager.sol\":3111:3279   */\n      swap2\n      swap1\n      pop\n      jump\t// out\n        /* \"devs/TokenManager.sol\":896:916   */\n    tag_25:\n      0x00\n      dup1\n      sload\n      swap1\n      0x0100\n      exp\n      swap1\n      div\n      0xffffffffffffffffffffffffffffffffffffffff\n      and\n      dup2\n      jump\t// out\n        /* \"devs/TokenManager.sol\":2269:2514   */\n    tag_31:\n        /* \"devs/TokenManager.sol\":2359:2367   */\n      dup3\n        /* \"devs/TokenManager.sol\":1188:1200   */\n      sload(0x02)\n        /* \"devs/TokenManager.sol\":1178:1185   */\n      dup2\n        /* \"devs/TokenManager.sol\":1178:1200   */\n      lt\n        /* \"devs/TokenManager.sol\":1170:1201   */\n      tag_57\n      jumpi\n      0x00\n      dup1\n      revert\n    tag_57:\n        /* \"devs/TokenManager.sol\":1091:1101   */\n      caller\n        /* \"devs/TokenManager.sol\":1072:1101   */\n      0xffffffffffffffffffffffffffffffffffffffff\n      and\n        /* \"devs/TokenManager.sol\":1072:1087   */\n      0x01\n      0x00\n      swap1\n      sload\n      swap1\n      0x0100\n      exp\n      swap1\n      div\n      0xffffffffffffffffffffffffffffffffffffffff\n      and\n        /* \"devs/TokenManager.sol\":1072:1101   */\n      0xffffffffffffffffffffffffffffffffffffffff\n      and\n      eq\n        /* \"devs/TokenManager.sol\":1064:1102   */\n      tag_59\n      jumpi\n      0x00\n      dup1\n      revert\n    tag_59:\n        /* \"devs/TokenManager.sol\":2389:2416   */\n      0x00\n        /* \"devs/TokenManager.sol\":2419:2429   */\n      0x03\n        /* \"devs/TokenManager.sol\":2419:2439   */\n      0x00\n        /* \"devs/TokenManager.sol\":2430:2438   */\n      dup7\n        /* \"devs/TokenManager.sol\":2419:2439   */\n      dup2\n      mstore\n      0x20\n      add\n      swap1\n      dup2\n      mstore\n      0x20\n      add\n      0x00\n      keccak256\n        /* \"devs/TokenManager.sol\":2389:2439   */\n      swap1\n      pop\n        /* \"devs/TokenManager.sol\":2468:2475   */\n      dup4\n        /* \"devs/TokenManager.sol\":2449:2458   */\n      dup2\n        /* \"devs/TokenManager.sol\":2449:2465   */\n      0x04\n      add\n        /* \"devs/TokenManager.sol\":2449:2475   */\n      dup2\n      swap1\n      sstore\n      pop\n        /* \"devs/TokenManager.sol\":2502:2507   */\n      dup3\n        /* \"devs/TokenManager.sol\":2485:2494   */\n      dup2\n        /* \"devs/TokenManager.sol\":2485:2499   */\n      0x05\n      add\n        /* \"devs/TokenManager.sol\":2485:2507   */\n      dup2\n      swap1\n      sstore\n      pop\n        /* \"devs/TokenManager.sol\":2379:2514   */\n      pop\n        /* \"devs/TokenManager.sol\":2269:2514   */\n      pop\n      pop\n      pop\n      pop\n      jump\t// out\n        /* \"devs/TokenManager.sol\":959:983   */\n    tag_33:\n      sload(0x02)\n      dup2\n      jump\t// out\n        /* \"devs/TokenManager.sol\":1432:1944   */\n    tag_38:\n        /* \"devs/TokenManager.sol\":1544:1548   */\n      0x00\n        /* \"devs/TokenManager.sol\":1091:1101   */\n      caller\n        /* \"devs/TokenManager.sol\":1072:1101   */\n      0xffffffffffffffffffffffffffffffffffffffff\n      and\n        /* \"devs/TokenManager.sol\":1072:1087   */\n      0x01\n      0x00\n      swap1\n      sload\n      swap1\n      0x0100\n      exp\n      swap1\n      div\n      0xffffffffffffffffffffffffffffffffffffffff\n      and\n        /* \"devs/TokenManager.sol\":1072:1101   */\n      0xffffffffffffffffffffffffffffffffffffffff\n      and\n      eq\n        /* \"devs/TokenManager.sol\":1064:1102   */\n      tag_62\n      jumpi\n      0x00\n      dup1\n      revert\n    tag_62:\n        /* \"devs/TokenManager.sol\":1559:1586   */\n      0x00\n        /* \"devs/TokenManager.sol\":1589:1599   */\n      0x03\n        /* \"devs/TokenManager.sol\":1589:1613   */\n      0x00\n        /* \"devs/TokenManager.sol\":1600:1612   */\n      sload(0x02)\n        /* \"devs/TokenManager.sol\":1589:1613   */\n      dup2\n      mstore\n      0x20\n      add\n      swap1\n      dup2\n      mstore\n      0x20\n      add\n      0x00\n      keccak256\n        /* \"devs/TokenManager.sol\":1559:1613   */\n      swap1\n      pop\n        /* \"devs/TokenManager.sol\":1643:1655   */\n      sload(0x02)\n        /* \"devs/TokenManager.sol\":1623:1632   */\n      dup2\n        /* \"devs/TokenManager.sol\":1623:1640   */\n      0x00\n      add\n        /* \"devs/TokenManager.sol\":1623:1655   */\n      dup2\n      swap1\n      sstore\n      pop\n        /* \"devs/TokenManager.sol\":1687:1697   */\n      dup5\n        /* \"devs/TokenManager.sol\":1665:1674   */\n      dup2\n        /* \"devs/TokenManager.sol\":1665:1684   */\n      0x02\n      add\n        /* \"devs/TokenManager.sol\":1665:1697   */\n      dup2\n      swap1\n      sstore\n      pop\n        /* \"devs/TokenManager.sol\":1725:1732   */\n      dup6\n        /* \"devs/TokenManager.sol\":1707:1716   */\n      dup2\n        /* \"devs/TokenManager.sol\":1707:1722   */\n      0x01\n      add\n      0x00\n        /* \"devs/TokenManager.sol\":1707:1732   */\n      0x0100\n      exp\n      dup2\n      sload\n      dup2\n      0xffffffffffffffffffffffffffffffffffffffff\n      mul\n      not\n      and\n      swap1\n      dup4\n      0xffffffffffffffffffffffffffffffffffffffff\n      and\n      mul\n      or\n      swap1\n      sstore\n      pop\n        /* \"devs/TokenManager.sol\":1761:1768   */\n      dup6\n        /* \"devs/TokenManager.sol\":1742:1751   */\n      dup2\n        /* \"devs/TokenManager.sol\":1742:1758   */\n      0x03\n      add\n      0x00\n        /* \"devs/TokenManager.sol\":1742:1768   */\n      0x0100\n      exp\n      dup2\n      sload\n      dup2\n      0xffffffffffffffffffffffffffffffffffffffff\n      mul\n      not\n      and\n      swap1\n      dup4\n      0xffffffffffffffffffffffffffffffffffffffff\n      and\n      mul\n      or\n      swap1\n      sstore\n      pop\n        /* \"devs/TokenManager.sol\":1806:1811   */\n      0x00\n        /* \"devs/TokenManager.sol\":1778:1787   */\n      dup2\n        /* \"devs/TokenManager.sol\":1778:1803   */\n      0x03\n      add\n      0x14\n        /* \"devs/TokenManager.sol\":1778:1811   */\n      0x0100\n      exp\n      dup2\n      sload\n      dup2\n      0xff\n      mul\n      not\n      and\n      swap1\n      dup4\n      iszero\n      iszero\n      mul\n      or\n      swap1\n      sstore\n      pop\n        /* \"devs/TokenManager.sol\":1840:1847   */\n      dup4\n        /* \"devs/TokenManager.sol\":1821:1830   */\n      dup2\n        /* \"devs/TokenManager.sol\":1821:1837   */\n      0x04\n      add\n        /* \"devs/TokenManager.sol\":1821:1847   */\n      dup2\n      swap1\n      sstore\n      pop\n        /* \"devs/TokenManager.sol\":1874:1879   */\n      dup3\n        /* \"devs/TokenManager.sol\":1857:1866   */\n      dup2\n        /* \"devs/TokenManager.sol\":1857:1871   */\n      0x05\n      add\n        /* \"devs/TokenManager.sol\":1857:1879   */\n      dup2\n      swap1\n      sstore\n      pop\n        /* \"devs/TokenManager.sol\":1889:1901   */\n      0x02\n      0x00\n        /* \"devs/TokenManager.sol\":1889:1903   */\n      dup2\n      sload\n      dup1\n      swap3\n      swap2\n      swap1\n      tag_64\n      swap1\n      tag_65\n      jump\t// in\n    tag_64:\n      swap2\n      swap1\n      pop\n      sstore\n      pop\n        /* \"devs/TokenManager.sol\":1920:1929   */\n      dup1\n        /* \"devs/TokenManager.sol\":1920:1937   */\n      0x00\n      add\n      sload\n        /* \"devs/TokenManager.sol\":1913:1937   */\n      swap2\n      pop\n      pop\n        /* \"devs/TokenManager.sol\":1432:1944   */\n      swap5\n      swap4\n      pop\n      pop\n      pop\n      pop\n      jump\t// out\n        /* \"devs/TokenManager.sol\":2520:2716   */\n    tag_43:\n        /* \"devs/TokenManager.sol\":2593:2601   */\n      dup2\n        /* \"devs/TokenManager.sol\":1188:1200   */\n      sload(0x02)\n        /* \"devs/TokenManager.sol\":1178:1185   */\n      dup2\n        /* \"devs/TokenManager.sol\":1178:1200   */\n      lt\n        /* \"devs/TokenManager.sol\":1170:1201   */\n      tag_67\n      jumpi\n      0x00\n      dup1\n      revert\n    tag_67:\n        /* \"devs/TokenManager.sol\":1091:1101   */\n      caller\n        /* \"devs/TokenManager.sol\":1072:1101   */\n      0xffffffffffffffffffffffffffffffffffffffff\n      and\n        /* \"devs/TokenManager.sol\":1072:1087   */\n      0x01\n      0x00\n      swap1\n      sload\n      swap1\n      0x0100\n      exp\n      swap1\n      div\n      0xffffffffffffffffffffffffffffffffffffffff\n      and\n        /* \"devs/TokenManager.sol\":1072:1101   */\n      0xffffffffffffffffffffffffffffffffffffffff\n      and\n      eq\n        /* \"devs/TokenManager.sol\":1064:1102   */\n      tag_69\n      jumpi\n      0x00\n      dup1\n      revert\n    tag_69:\n        /* \"devs/TokenManager.sol\":2623:2650   */\n      0x00\n        /* \"devs/TokenManager.sol\":2653:2663   */\n      0x03\n        /* \"devs/TokenManager.sol\":2653:2673   */\n      0x00\n        /* \"devs/TokenManager.sol\":2664:2672   */\n      dup6\n        /* \"devs/TokenManager.sol\":2653:2673   */\n      dup2\n      mstore\n      0x20\n      add\n      swap1\n      dup2\n      mstore\n      0x20\n      add\n      0x00\n      keccak256\n        /* \"devs/TokenManager.sol\":2623:2673   */\n      swap1\n      pop\n        /* \"devs/TokenManager.sol\":2702:2709   */\n      dup3\n        /* \"devs/TokenManager.sol\":2683:2692   */\n      dup2\n        /* \"devs/TokenManager.sol\":2683:2699   */\n      0x03\n      add\n      0x00\n        /* \"devs/TokenManager.sol\":2683:2709   */\n      0x0100\n      exp\n      dup2\n      sload\n      dup2\n      0xffffffffffffffffffffffffffffffffffffffff\n      mul\n      not\n      and\n      swap1\n      dup4\n      0xffffffffffffffffffffffffffffffffffffffff\n      and\n      mul\n      or\n      swap1\n      sstore\n      pop\n        /* \"devs/TokenManager.sol\":2613:2716   */\n      pop\n        /* \"devs/TokenManager.sol\":2520:2716   */\n      pop\n      pop\n      pop\n      jump\t// out\n        /* \"devs/TokenManager.sol\":2722:2912   */\n    tag_46:\n        /* \"devs/TokenManager.sol\":2776:2784   */\n      dup1\n        /* \"devs/TokenManager.sol\":1188:1200   */\n      sload(0x02)\n        /* \"devs/TokenManager.sol\":1178:1185   */\n      dup2\n        /* \"devs/TokenManager.sol\":1178:1200   */\n      lt\n        /* \"devs/TokenManager.sol\":1170:1201   */\n      tag_72\n      jumpi\n      0x00\n      dup1\n      revert\n    tag_72:\n        /* \"devs/TokenManager.sol\":1091:1101   */\n      caller\n        /* \"devs/TokenManager.sol\":1072:1101   */\n      0xffffffffffffffffffffffffffffffffffffffff\n      and\n        /* \"devs/TokenManager.sol\":1072:1087   */\n      0x01\n      0x00\n      swap1\n      sload\n      swap1\n      0x0100\n      exp\n      swap1\n      div\n      0xffffffffffffffffffffffffffffffffffffffff\n      and\n        /* \"devs/TokenManager.sol\":1072:1101   */\n      0xffffffffffffffffffffffffffffffffffffffff\n      and\n      eq\n        /* \"devs/TokenManager.sol\":1064:1102   */\n      tag_74\n      jumpi\n      0x00\n      dup1\n      revert\n    tag_74:\n        /* \"devs/TokenManager.sol\":2806:2833   */\n      0x00\n        /* \"devs/TokenManager.sol\":2836:2846   */\n      0x03\n        /* \"devs/TokenManager.sol\":2836:2856   */\n      0x00\n        /* \"devs/TokenManager.sol\":2847:2855   */\n      dup5\n        /* \"devs/TokenManager.sol\":2836:2856   */\n      dup2\n      mstore\n      0x20\n      add\n      swap1\n      dup2\n      mstore\n      0x20\n      add\n      0x00\n      keccak256\n        /* \"devs/TokenManager.sol\":2806:2856   */\n      swap1\n      pop\n        /* \"devs/TokenManager.sol\":2866:2905   */\n      tag_76\n        /* \"devs/TokenManager.sol\":2879:2887   */\n      dup4\n        /* \"devs/TokenManager.sol\":2889:2898   */\n      dup3\n        /* \"devs/TokenManager.sol\":2889:2904   */\n      0x01\n      add\n      0x00\n      swap1\n      sload\n      swap1\n      0x0100\n      exp\n      swap1\n      div\n      0xffffffffffffffffffffffffffffffffffffffff\n      and\n        /* \"devs/TokenManager.sol\":2866:2878   */\n      tag_43\n        /* \"devs/TokenManager.sol\":2866:2905   */\n      jump\t// in\n    tag_76:\n        /* \"devs/TokenManager.sol\":2796:2912   */\n      pop\n        /* \"devs/TokenManager.sol\":2722:2912   */\n      pop\n      pop\n      jump\t// out\n        /* \"devs/TokenManager.sol\":2049:2263   */\n    tag_50:\n        /* \"devs/TokenManager.sol\":2131:2139   */\n      dup2\n        /* \"devs/TokenManager.sol\":1188:1200   */\n      sload(0x02)\n        /* \"devs/TokenManager.sol\":1178:1185   */\n      dup2\n        /* \"devs/TokenManager.sol\":1178:1200   */\n      lt\n        /* \"devs/TokenManager.sol\":1170:1201   */\n      tag_78\n      jumpi\n      0x00\n      dup1\n      revert\n    tag_78:\n        /* \"devs/TokenManager.sol\":1091:1101   */\n      caller\n        /* \"devs/TokenManager.sol\":1072:1101   */\n      0xffffffffffffffffffffffffffffffffffffffff\n      and\n        /* \"devs/TokenManager.sol\":1072:1087   */\n      0x01\n      0x00\n      swap1\n      sload\n      swap1\n      0x0100\n      exp\n      swap1\n      div\n      0xffffffffffffffffffffffffffffffffffffffff\n      and\n        /* \"devs/TokenManager.sol\":1072:1101   */\n      0xffffffffffffffffffffffffffffffffffffffff\n      and\n      eq\n        /* \"devs/TokenManager.sol\":1064:1102   */\n      tag_80\n      jumpi\n      0x00\n      dup1\n      revert\n    tag_80:\n        /* \"devs/TokenManager.sol\":2161:2188   */\n      0x00\n        /* \"devs/TokenManager.sol\":2191:2201   */\n      0x03\n        /* \"devs/TokenManager.sol\":2191:2211   */\n      0x00\n        /* \"devs/TokenManager.sol\":2202:2210   */\n      dup6\n        /* \"devs/TokenManager.sol\":2191:2211   */\n      dup2\n      mstore\n      0x20\n      add\n      swap1\n      dup2\n      mstore\n      0x20\n      add\n      0x00\n      keccak256\n        /* \"devs/TokenManager.sol\":2161:2211   */\n      swap1\n      pop\n        /* \"devs/TokenManager.sol\":2249:2256   */\n      dup3\n        /* \"devs/TokenManager.sol\":2221:2230   */\n      dup2\n        /* \"devs/TokenManager.sol\":2221:2246   */\n      0x03\n      add\n      0x14\n        /* \"devs/TokenManager.sol\":2221:2256   */\n      0x0100\n      exp\n      dup2\n      sload\n      dup2\n      0xff\n      mul\n      not\n      and\n      swap1\n      dup4\n      iszero\n      iszero\n      mul\n      or\n      swap1\n      sstore\n      pop\n        /* \"devs/TokenManager.sol\":2151:2263   */\n      pop\n        /* \"devs/TokenManager.sol\":2049:2263   */\n      pop\n      pop\n      pop\n      jump\t// out\n        /* \"devs/TokenManager.sol\":922:952   */\n    tag_52:\n      0x01\n      0x00\n      swap1\n      sload\n      swap1\n      0x0100\n      exp\n      swap1\n      div\n      0xffffffffffffffffffffffffffffffffffffffff\n      and\n      dup2\n      jump\t// out\n        /* \"#utility.yul\":88:205   */\n    tag_83:\n        /* \"#utility.yul\":197:198   */\n      0x00\n        /* \"#utility.yul\":194:195   */\n      dup1\n        /* \"#utility.yul\":187:199   */\n      revert\n        /* \"#utility.yul\":334:411   */\n    tag_85:\n        /* \"#utility.yul\":371:378   */\n      0x00\n        /* \"#utility.yul\":400:405   */\n      dup2\n        /* \"#utility.yul\":389:405   */\n      swap1\n      pop\n        /* \"#utility.yul\":334:411   */\n      swap2\n      swap1\n      pop\n      jump\t// out\n        /* \"#utility.yul\":417:539   */\n    tag_86:\n        /* \"#utility.yul\":490:514   */\n      tag_104\n        /* \"#utility.yul\":508:513   */\n      dup2\n        /* \"#utility.yul\":490:514   */\n      tag_85\n      jump\t// in\n    tag_104:\n        /* \"#utility.yul\":483:488   */\n      dup2\n        /* \"#utility.yul\":480:515   */\n      eq\n        /* \"#utility.yul\":470:533   */\n      tag_105\n      jumpi\n        /* \"#utility.yul\":529:530   */\n      0x00\n        /* \"#utility.yul\":526:527   */\n      dup1\n        /* \"#utility.yul\":519:531   */\n      revert\n        /* \"#utility.yul\":470:533   */\n    tag_105:\n        /* \"#utility.yul\":417:539   */\n      pop\n      jump\t// out\n        /* \"#utility.yul\":545:684   */\n    tag_87:\n        /* \"#utility.yul\":591:596   */\n      0x00\n        /* \"#utility.yul\":629:635   */\n      dup2\n        /* \"#utility.yul\":616:636   */\n      calldataload\n        /* \"#utility.yul\":607:636   */\n      swap1\n      pop\n        /* \"#utility.yul\":645:678   */\n      tag_107\n        /* \"#utility.yul\":672:677   */\n      dup2\n        /* \"#utility.yul\":645:678   */\n      tag_86\n      jump\t// in\n    tag_107:\n        /* \"#utility.yul\":545:684   */\n      swap3\n      swap2\n      pop\n      pop\n      jump\t// out\n        /* \"#utility.yul\":690:1019   */\n    tag_16:\n        /* \"#utility.yul\":749:755   */\n      0x00\n        /* \"#utility.yul\":798:800   */\n      0x20\n        /* \"#utility.yul\":786:795   */\n      dup3\n        /* \"#utility.yul\":777:784   */\n      dup5\n        /* \"#utility.yul\":773:796   */\n      sub\n        /* \"#utility.yul\":769:801   */\n      slt\n        /* \"#utility.yul\":766:885   */\n      iszero\n      tag_109\n      jumpi\n        /* \"#utility.yul\":804:883   */\n      tag_110\n      tag_83\n      jump\t// in\n    tag_110:\n        /* \"#utility.yul\":766:885   */\n    tag_109:\n        /* \"#utility.yul\":924:925   */\n      0x00\n        /* \"#utility.yul\":949:1002   */\n      tag_111\n        /* \"#utility.yul\":994:1001   */\n      dup5\n        /* \"#utility.yul\":985:991   */\n      dup3\n        /* \"#utility.yul\":974:983   */\n      dup6\n        /* \"#utility.yul\":970:992   */\n      add\n        /* \"#utility.yul\":949:1002   */\n      tag_87\n      jump\t// in\n    tag_111:\n        /* \"#utility.yul\":939:1002   */\n      swap2\n      pop\n        /* \"#utility.yul\":895:1012   */\n      pop\n        /* \"#utility.yul\":690:1019   */\n      swap3\n      swap2\n      pop\n      pop\n      jump\t// out\n        /* \"#utility.yul\":1025:1143   */\n    tag_88:\n        /* \"#utility.yul\":1112:1136   */\n      tag_113\n        /* \"#utility.yul\":1130:1135   */\n      dup2\n        /* \"#utility.yul\":1112:1136   */\n      tag_85\n      jump\t// in\n    tag_113:\n        /* \"#utility.yul\":1107:1110   */\n      dup3\n        /* \"#utility.yul\":1100:1137   */\n      mstore\n        /* \"#utility.yul\":1025:1143   */\n      pop\n      pop\n      jump\t// out\n        /* \"#utility.yul\":1149:1371   */\n    tag_19:\n        /* \"#utility.yul\":1242:1246   */\n      0x00\n        /* \"#utility.yul\":1280:1282   */\n      0x20\n        /* \"#utility.yul\":1269:1278   */\n      dup3\n        /* \"#utility.yul\":1265:1283   */\n      add\n        /* \"#utility.yul\":1257:1283   */\n      swap1\n      pop\n        /* \"#utility.yul\":1293:1364   */\n      tag_115\n        /* \"#utility.yul\":1361:1362   */\n      0x00\n        /* \"#utility.yul\":1350:1359   */\n      dup4\n        /* \"#utility.yul\":1346:1363   */\n      add\n        /* \"#utility.yul\":1337:1343   */\n      dup5\n        /* \"#utility.yul\":1293:1364   */\n      tag_88\n      jump\t// in\n    tag_115:\n        /* \"#utility.yul\":1149:1371   */\n      swap3\n      swap2\n      pop\n      pop\n      jump\t// out\n        /* \"#utility.yul\":1377:1503   */\n    tag_89:\n        /* \"#utility.yul\":1414:1421   */\n      0x00\n        /* \"#utility.yul\":1454:1496   */\n      0xffffffffffffffffffffffffffffffffffffffff\n        /* \"#utility.yul\":1447:1452   */\n      dup3\n        /* \"#utility.yul\":1443:1497   */\n      and\n        /* \"#utility.yul\":1432:1497   */\n      swap1\n      pop\n        /* \"#utility.yul\":1377:1503   */\n      swap2\n      swap1\n      pop\n      jump\t// out\n        /* \"#utility.yul\":1509:1605   */\n    tag_90:\n        /* \"#utility.yul\":1546:1553   */\n      0x00\n        /* \"#utility.yul\":1575:1599   */\n      tag_118\n        /* \"#utility.yul\":1593:1598   */\n      dup3\n        /* \"#utility.yul\":1575:1599   */\n      tag_89\n      jump\t// in\n    tag_118:\n        /* \"#utility.yul\":1564:1599   */\n      swap1\n      pop\n        /* \"#utility.yul\":1509:1605   */\n      swap2\n      swap1\n      pop\n      jump\t// out\n        /* \"#utility.yul\":1611:1729   */\n    tag_91:\n        /* \"#utility.yul\":1698:1722   */\n      tag_120\n        /* \"#utility.yul\":1716:1721   */\n      dup2\n        /* \"#utility.yul\":1698:1722   */\n      tag_90\n      jump\t// in\n    tag_120:\n        /* \"#utility.yul\":1693:1696   */\n      dup3\n        /* \"#utility.yul\":1686:1723   */\n      mstore\n        /* \"#utility.yul\":1611:1729   */\n      pop\n      pop\n      jump\t// out\n        /* \"#utility.yul\":1735:1957   */\n    tag_27:\n        /* \"#utility.yul\":1828:1832   */\n      0x00\n        /* \"#utility.yul\":1866:1868   */\n      0x20\n        /* \"#utility.yul\":1855:1864   */\n      dup3\n        /* \"#utility.yul\":1851:1869   */\n      add\n        /* \"#utility.yul\":1843:1869   */\n      swap1\n      pop\n        /* \"#utility.yul\":1879:1950   */\n      tag_122\n        /* \"#utility.yul\":1947:1948   */\n      0x00\n        /* \"#utility.yul\":1936:1945   */\n      dup4\n        /* \"#utility.yul\":1932:1949   */\n      add\n        /* \"#utility.yul\":1923:1929   */\n      dup5\n        /* \"#utility.yul\":1879:1950   */\n      tag_91\n      jump\t// in\n    tag_122:\n        /* \"#utility.yul\":1735:1957   */\n      swap3\n      swap2\n      pop\n      pop\n      jump\t// out\n        /* \"#utility.yul\":1963:2582   */\n    tag_30:\n        /* \"#utility.yul\":2040:2046   */\n      0x00\n        /* \"#utility.yul\":2048:2054   */\n      dup1\n        /* \"#utility.yul\":2056:2062   */\n      0x00\n        /* \"#utility.yul\":2105:2107   */\n      0x60\n        /* \"#utility.yul\":2093:2102   */\n      dup5\n        /* \"#utility.yul\":2084:2091   */\n      dup7\n        /* \"#utility.yul\":2080:2103   */\n      sub\n        /* \"#utility.yul\":2076:2108   */\n      slt\n        /* \"#utility.yul\":2073:2192   */\n      iszero\n      tag_124\n      jumpi\n        /* \"#utility.yul\":2111:2190   */\n      tag_125\n      tag_83\n      jump\t// in\n    tag_125:\n        /* \"#utility.yul\":2073:2192   */\n    tag_124:\n        /* \"#utility.yul\":2231:2232   */\n      0x00\n        /* \"#utility.yul\":2256:2309   */\n      tag_126\n        /* \"#utility.yul\":2301:2308   */\n      dup7\n        /* \"#utility.yul\":2292:2298   */\n      dup3\n        /* \"#utility.yul\":2281:2290   */\n      dup8\n        /* \"#utility.yul\":2277:2299   */\n      add\n        /* \"#utility.yul\":2256:2309   */\n      tag_87\n      jump\t// in\n    tag_126:\n        /* \"#utility.yul\":2246:2309   */\n      swap4\n      pop\n        /* \"#utility.yul\":2202:2319   */\n      pop\n        /* \"#utility.yul\":2358:2360   */\n      0x20\n        /* \"#utility.yul\":2384:2437   */\n      tag_127\n        /* \"#utility.yul\":2429:2436   */\n      dup7\n        /* \"#utility.yul\":2420:2426   */\n      dup3\n        /* \"#utility.yul\":2409:2418   */\n      dup8\n        /* \"#utility.yul\":2405:2427   */\n      add\n        /* \"#utility.yul\":2384:2437   */\n      tag_87\n      jump\t// in\n    tag_127:\n        /* \"#utility.yul\":2374:2437   */\n      swap3\n      pop\n        /* \"#utility.yul\":2329:2447   */\n      pop\n        /* \"#utility.yul\":2486:2488   */\n      0x40\n        /* \"#utility.yul\":2512:2565   */\n      tag_128\n        /* \"#utility.yul\":2557:2564   */\n      dup7\n        /* \"#utility.yul\":2548:2554   */\n      dup3\n        /* \"#utility.yul\":2537:2546   */\n      dup8\n        /* \"#utility.yul\":2533:2555   */\n      add\n        /* \"#utility.yul\":2512:2565   */\n      tag_87\n      jump\t// in\n    tag_128:\n        /* \"#utility.yul\":2502:2565   */\n      swap2\n      pop\n        /* \"#utility.yul\":2457:2575   */\n      pop\n        /* \"#utility.yul\":1963:2582   */\n      swap3\n      pop\n      swap3\n      pop\n      swap3\n      jump\t// out\n        /* \"#utility.yul\":2588:2710   */\n    tag_92:\n        /* \"#utility.yul\":2661:2685   */\n      tag_130\n        /* \"#utility.yul\":2679:2684   */\n      dup2\n        /* \"#utility.yul\":2661:2685   */\n      tag_90\n      jump\t// in\n    tag_130:\n        /* \"#utility.yul\":2654:2659   */\n      dup2\n        /* \"#utility.yul\":2651:2686   */\n      eq\n        /* \"#utility.yul\":2641:2704   */\n      tag_131\n      jumpi\n        /* \"#utility.yul\":2700:2701   */\n      0x00\n        /* \"#utility.yul\":2697:2698   */\n      dup1\n        /* \"#utility.yul\":2690:2702   */\n      revert\n        /* \"#utility.yul\":2641:2704   */\n    tag_131:\n        /* \"#utility.yul\":2588:2710   */\n      pop\n      jump\t// out\n        /* \"#utility.yul\":2716:2855   */\n    tag_93:\n        /* \"#utility.yul\":2762:2767   */\n      0x00\n        /* \"#utility.yul\":2800:2806   */\n      dup2\n        /* \"#utility.yul\":2787:2807   */\n      calldataload\n        /* \"#utility.yul\":2778:2807   */\n      swap1\n      pop\n        /* \"#utility.yul\":2816:2849   */\n      tag_133\n        /* \"#utility.yul\":2843:2848   */\n      dup2\n        /* \"#utility.yul\":2816:2849   */\n      tag_92\n      jump\t// in\n    tag_133:\n        /* \"#utility.yul\":2716:2855   */\n      swap3\n      swap2\n      pop\n      pop\n      jump\t// out\n        /* \"#utility.yul\":2861:3626   */\n    tag_37:\n        /* \"#utility.yul\":2947:2953   */\n      0x00\n        /* \"#utility.yul\":2955:2961   */\n      dup1\n        /* \"#utility.yul\":2963:2969   */\n      0x00\n        /* \"#utility.yul\":2971:2977   */\n      dup1\n        /* \"#utility.yul\":3020:3023   */\n      0x80\n        /* \"#utility.yul\":3008:3017   */\n      dup6\n        /* \"#utility.yul\":2999:3006   */\n      dup8\n        /* \"#utility.yul\":2995:3018   */\n      sub\n        /* \"#utility.yul\":2991:3024   */\n      slt\n        /* \"#utility.yul\":2988:3108   */\n      iszero\n      tag_135\n      jumpi\n        /* \"#utility.yul\":3027:3106   */\n      tag_136\n      tag_83\n      jump\t// in\n    tag_136:\n        /* \"#utility.yul\":2988:3108   */\n    tag_135:\n        /* \"#utility.yul\":3147:3148   */\n      0x00\n        /* \"#utility.yul\":3172:3225   */\n      tag_137\n        /* \"#utility.yul\":3217:3224   */\n      dup8\n        /* \"#utility.yul\":3208:3214   */\n      dup3\n        /* \"#utility.yul\":3197:3206   */\n      dup9\n        /* \"#utility.yul\":3193:3215   */\n      add\n        /* \"#utility.yul\":3172:3225   */\n      tag_93\n      jump\t// in\n    tag_137:\n        /* \"#utility.yul\":3162:3225   */\n      swap5\n      pop\n        /* \"#utility.yul\":3118:3235   */\n      pop\n        /* \"#utility.yul\":3274:3276   */\n      0x20\n        /* \"#utility.yul\":3300:3353   */\n      tag_138\n        /* \"#utility.yul\":3345:3352   */\n      dup8\n        /* \"#utility.yul\":3336:3342   */\n      dup3\n        /* \"#utility.yul\":3325:3334   */\n      dup9\n        /* \"#utility.yul\":3321:3343   */\n      add\n        /* \"#utility.yul\":3300:3353   */\n      tag_87\n      jump\t// in\n    tag_138:\n        /* \"#utility.yul\":3290:3353   */\n      swap4\n      pop\n        /* \"#utility.yul\":3245:3363   */\n      pop\n        /* \"#utility.yul\":3402:3404   */\n      0x40\n        /* \"#utility.yul\":3428:3481   */\n      tag_139\n        /* \"#utility.yul\":3473:3480   */\n      dup8\n        /* \"#utility.yul\":3464:3470   */\n      dup3\n        /* \"#utility.yul\":3453:3462   */\n      dup9\n        /* \"#utility.yul\":3449:3471   */\n      add\n        /* \"#utility.yul\":3428:3481   */\n      tag_87\n      jump\t// in\n    tag_139:\n        /* \"#utility.yul\":3418:3481   */\n      swap3\n      pop\n        /* \"#utility.yul\":3373:3491   */\n      pop\n        /* \"#utility.yul\":3530:3532   */\n      0x60\n        /* \"#utility.yul\":3556:3609   */\n      tag_140\n        /* \"#utility.yul\":3601:3608   */\n      dup8\n        /* \"#utility.yul\":3592:3598   */\n      dup3\n        /* \"#utility.yul\":3581:3590   */\n      dup9\n        /* \"#utility.yul\":3577:3599   */\n      add\n        /* \"#utility.yul\":3556:3609   */\n      tag_87\n      jump\t// in\n    tag_140:\n        /* \"#utility.yul\":3546:3609   */\n      swap2\n      pop\n        /* \"#utility.yul\":3501:3619   */\n      pop\n        /* \"#utility.yul\":2861:3626   */\n      swap3\n      swap6\n      swap2\n      swap5\n      pop\n      swap3\n      pop\n      jump\t// out\n        /* \"#utility.yul\":3632:4106   */\n    tag_42:\n        /* \"#utility.yul\":3700:3706   */\n      0x00\n        /* \"#utility.yul\":3708:3714   */\n      dup1\n        /* \"#utility.yul\":3757:3759   */\n      0x40\n        /* \"#utility.yul\":3745:3754   */\n      dup4\n        /* \"#utility.yul\":3736:3743   */\n      dup6\n        /* \"#utility.yul\":3732:3755   */\n      sub\n        /* \"#utility.yul\":3728:3760   */\n      slt\n        /* \"#utility.yul\":3725:3844   */\n      iszero\n      tag_142\n      jumpi\n        /* \"#utility.yul\":3763:3842   */\n      tag_143\n      tag_83\n      jump\t// in\n    tag_143:\n        /* \"#utility.yul\":3725:3844   */\n    tag_142:\n        /* \"#utility.yul\":3883:3884   */\n      0x00\n        /* \"#utility.yul\":3908:3961   */\n      tag_144\n        /* \"#utility.yul\":3953:3960   */\n      dup6\n        /* \"#utility.yul\":3944:3950   */\n      dup3\n        /* \"#utility.yul\":3933:3942   */\n      dup7\n        /* \"#utility.yul\":3929:3951   */\n      add\n        /* \"#utility.yul\":3908:3961   */\n      tag_87\n      jump\t// in\n    tag_144:\n        /* \"#utility.yul\":3898:3961   */\n      swap3\n      pop\n        /* \"#utility.yul\":3854:3971   */\n      pop\n        /* \"#utility.yul\":4010:4012   */\n      0x20\n        /* \"#utility.yul\":4036:4089   */\n      tag_145\n        /* \"#utility.yul\":4081:4088   */\n      dup6\n        /* \"#utility.yul\":4072:4078   */\n      dup3\n        /* \"#utility.yul\":4061:4070   */\n      dup7\n        /* \"#utility.yul\":4057:4079   */\n      add\n        /* \"#utility.yul\":4036:4089   */\n      tag_93\n      jump\t// in\n    tag_145:\n        /* \"#utility.yul\":4026:4089   */\n      swap2\n      pop\n        /* \"#utility.yul\":3981:4099   */\n      pop\n        /* \"#utility.yul\":3632:4106   */\n      swap3\n      pop\n      swap3\n      swap1\n      pop\n      jump\t// out\n        /* \"#utility.yul\":4112:4202   */\n    tag_94:\n        /* \"#utility.yul\":4146:4153   */\n      0x00\n        /* \"#utility.yul\":4189:4194   */\n      dup2\n        /* \"#utility.yul\":4182:4195   */\n      iszero\n        /* \"#utility.yul\":4175:4196   */\n      iszero\n        /* \"#utility.yul\":4164:4196   */\n      swap1\n      pop\n        /* \"#utility.yul\":4112:4202   */\n      swap2\n      swap1\n      pop\n      jump\t// out\n        /* \"#utility.yul\":4208:4324   */\n    tag_95:\n        /* \"#utility.yul\":4278:4299   */\n      tag_148\n        /* \"#utility.yul\":4293:4298   */\n      dup2\n        /* \"#utility.yul\":4278:4299   */\n      tag_94\n      jump\t// in\n    tag_148:\n        /* \"#utility.yul\":4271:4276   */\n      dup2\n        /* \"#utility.yul\":4268:4300   */\n      eq\n        /* \"#utility.yul\":4258:4318   */\n      tag_149\n      jumpi\n        /* \"#utility.yul\":4314:4315   */\n      0x00\n        /* \"#utility.yul\":4311:4312   */\n      dup1\n        /* \"#utility.yul\":4304:4316   */\n      revert\n        /* \"#utility.yul\":4258:4318   */\n    tag_149:\n        /* \"#utility.yul\":4208:4324   */\n      pop\n      jump\t// out\n        /* \"#utility.yul\":4330:4463   */\n    tag_96:\n        /* \"#utility.yul\":4373:4378   */\n      0x00\n        /* \"#utility.yul\":4411:4417   */\n      dup2\n        /* \"#utility.yul\":4398:4418   */\n      calldataload\n        /* \"#utility.yul\":4389:4418   */\n      swap1\n      pop\n        /* \"#utility.yul\":4427:4457   */\n      tag_151\n        /* \"#utility.yul\":4451:4456   */\n      dup2\n        /* \"#utility.yul\":4427:4457   */\n      tag_95\n      jump\t// in\n    tag_151:\n        /* \"#utility.yul\":4330:4463   */\n      swap3\n      swap2\n      pop\n      pop\n      jump\t// out\n        /* \"#utility.yul\":4469:4937   */\n    tag_49:\n        /* \"#utility.yul\":4534:4540   */\n      0x00\n        /* \"#utility.yul\":4542:4548   */\n      dup1\n        /* \"#utility.yul\":4591:4593   */\n      0x40\n        /* \"#utility.yul\":4579:4588   */\n      dup4\n        /* \"#utility.yul\":4570:4577   */\n      dup6\n        /* \"#utility.yul\":4566:4589   */\n      sub\n        /* \"#utility.yul\":4562:4594   */\n      slt\n        /* \"#utility.yul\":4559:4678   */\n      iszero\n      tag_153\n      jumpi\n        /* \"#utility.yul\":4597:4676   */\n      tag_154\n      tag_83\n      jump\t// in\n    tag_154:\n        /* \"#utility.yul\":4559:4678   */\n    tag_153:\n        /* \"#utility.yul\":4717:4718   */\n      0x00\n        /* \"#utility.yul\":4742:4795   */\n      tag_155\n        /* \"#utility.yul\":4787:4794   */\n      dup6\n        /* \"#utility.yul\":4778:4784   */\n      dup3\n        /* \"#utility.yul\":4767:4776   */\n      dup7\n        /* \"#utility.yul\":4763:4785   */\n      add\n        /* \"#utility.yul\":4742:4795   */\n      tag_87\n      jump\t// in\n    tag_155:\n        /* \"#utility.yul\":4732:4795   */\n      swap3\n      pop\n        /* \"#utility.yul\":4688:4805   */\n      pop\n        /* \"#utility.yul\":4844:4846   */\n      0x20\n        /* \"#utility.yul\":4870:4920   */\n      tag_156\n        /* \"#utility.yul\":4912:4919   */\n      dup6\n        /* \"#utility.yul\":4903:4909   */\n      dup3\n        /* \"#utility.yul\":4892:4901   */\n      dup7\n        /* \"#utility.yul\":4888:4910   */\n      add\n        /* \"#utility.yul\":4870:4920   */\n      tag_96\n      jump\t// in\n    tag_156:\n        /* \"#utility.yul\":4860:4920   */\n      swap2\n      pop\n        /* \"#utility.yul\":4815:4930   */\n      pop\n        /* \"#utility.yul\":4469:4937   */\n      swap3\n      pop\n      swap3\n      swap1\n      pop\n      jump\t// out\n        /* \"#utility.yul\":4943:5123   */\n    tag_97:\n        /* \"#utility.yul\":4991:5068   */\n      0x4e487b7100000000000000000000000000000000000000000000000000000000\n        /* \"#utility.yul\":4988:4989   */\n      0x00\n        /* \"#utility.yul\":4981:5069   */\n      mstore\n        /* \"#utility.yul\":5088:5092   */\n      0x11\n        /* \"#utility.yul\":5085:5086   */\n      0x04\n        /* \"#utility.yul\":5078:5093   */\n      mstore\n        /* \"#utility.yul\":5112:5116   */\n      0x24\n        /* \"#utility.yul\":5109:5110   */\n      0x00\n        /* \"#utility.yul\":5102:5117   */\n      revert\n        /* \"#utility.yul\":5129:5362   */\n    tag_65:\n        /* \"#utility.yul\":5168:5171   */\n      0x00\n        /* \"#utility.yul\":5191:5215   */\n      tag_159\n        /* \"#utility.yul\":5209:5214   */\n      dup3\n        /* \"#utility.yul\":5191:5215   */\n      tag_85\n      jump\t// in\n    tag_159:\n        /* \"#utility.yul\":5182:5215   */\n      swap2\n      pop\n        /* \"#utility.yul\":5237:5303   */\n      0xffffffffffffffffffffffffffffffffffffffffffffffffffffffffffffffff\n        /* \"#utility.yul\":5230:5235   */\n      dup3\n        /* \"#utility.yul\":5227:5304   */\n      eq\n        /* \"#utility.yul\":5224:5327   */\n      iszero\n      tag_160\n      jumpi\n        /* \"#utility.yul\":5307:5325   */\n      tag_161\n      tag_97\n      jump\t// in\n    tag_161:\n        /* \"#utility.yul\":5224:5327   */\n    tag_160:\n        /* \"#utility.yul\":5354:5355   */\n      0x01\n        /* \"#utility.yul\":5347:5352   */\n      dup3\n        /* \"#utility.yul\":5343:5356   */\n      add\n        /* \"#utility.yul\":5336:5356   */\n      swap1\n      pop\n        /* \"#utility.yul\":5129:5362   */\n      swap2\n      swap1\n      pop\n      jump\t// out\n\n    auxdata: 0xa26469706673582212200647c782d0e598eb579e7371187c7731cf59a7791a3f2f30cb0dd153bc9bb0cf64736f6c634300080a0033\n}\n","bytecode":{"linkReferences":{},"object":"608060405234801561001057600080fd5b50604051610d3a380380610d3a8339818101604052810190610032919061011c565b806000806101000a81548173ffffffffffffffffffffffffffffffffffffffff021916908373ffffffffffffffffffffffffffffffffffffffff16021790555033600160006101000a81548173ffffffffffffffffffffffffffffffffffffffff021916908373ffffffffffffffffffffffffffffffffffffffff16021790555050610149565b600080fd5b600073ffffffffffffffffffffffffffffffffffffffff82169050919050565b60006100e9826100be565b9050919050565b6100f9816100de565b811461010457600080fd5b50565b600081519050610116816100f0565b92915050565b600060208284031215610132576101316100b9565b5b600061014084828501610107565b91505092915050565b610be2806101586000396000f3fe608060405234801561001057600080fd5b506004361061009e5760003560e01c8063a46d8ac711610066578063a46d8ac71461015b578063ab21a2be1461018b578063ca5140c9146101a7578063ef228c92146101c3578063f6b4dfb4146101df5761009e565b80631ce06944146100a357806367615ad5146100d35780638da5cb5b146101035780638dbbfbde14610121578063921c47b11461013d575b600080fd5b6100bd60048036038101906100b891906108e3565b6101fd565b6040516100ca919061091f565b60405180910390f35b6100ed60048036038101906100e891906108e3565b61031c565b6040516100fa919061091f565b60405180910390f35b61010b61043b565b604051610118919061097b565b60405180910390f35b61013b60048036038101906101369190610996565b61045f565b005b6101456104f8565b604051610152919061091f565b60405180910390f35b61017560048036038101906101709190610a15565b6104fe565b604051610182919061091f565b60405180910390f35b6101a560048036038101906101a09190610a7c565b610664565b005b6101c160048036038101906101bc91906108e3565b61072d565b005b6101dd60048036038101906101d89190610af4565b6107e0565b005b6101e7610882565b6040516101f4919061097b565b60405180910390f35b600080600360008481526020019081526020016000206040518060e0016040529081600082015481526020016001820160009054906101000a900473ffffffffffffffffffffffffffffffffffffffff1673ffffffffffffffffffffffffffffffffffffffff1673ffffffffffffffffffffffffffffffffffffffff168152602001600282015481526020016003820160009054906101000a900473ffffffffffffffffffffffffffffffffffffffff1673ffffffffffffffffffffffffffffffffffffffff1673ffffffffffffffffffffffffffffffffffffffff1681526020016003820160149054906101000a900460ff161515151581526020016004820154815260200160058201548152505090508060c00151915050919050565b600080600360008481526020019081526020016000206040518060e0016040529081600082015481526020016001820160009054906101000a900473ffffffffffffffffffffffffffffffffffffffff1673ffffffffffffffffffffffffffffffffffffffff1673ffffffffffffffffffffffffffffffffffffffff168152602001600282015481526020016003820160009054906101000a900473ffffffffffffffffffffffffffffffffffffffff1673ffffffffffffffffffffffffffffffffffffffff1673ffffffffffffffffffffffffffffffffffffffff1681526020016003820160149054906101000a900460ff161515151581526020016004820154815260200160058201548152505090508060400151915050919050565b60008054906101000a900473ffffffffffffffffffffffffffffffffffffffff1681565b82600254811061046e57600080fd5b3373ffffffffffffffffffffffffffffffffffffffff16600160009054906101000a900473ffffffffffffffffffffffffffffffffffffffff1673ffffffffffffffffffffffffffffffffffffffff16146104c857600080fd5b60006003600086815260200190815260200160002090508381600401819055508281600501819055505050505050565b60025481565b60003373ffffffffffffffffffffffffffffffffffffffff16600160009054906101000a900473ffffffffffffffffffffffffffffffffffffffff1673ffffffffffffffffffffffffffffffffffffffff161461055a57600080fd5b600060036000600254815260200190815260200160002090506002548160000181905550848160020181905550858160010160006101000a81548173ffffffffffffffffffffffffffffffffffffffff021916908373ffffffffffffffffffffffffffffffffffffffff160217905550858160030160006101000a81548173ffffffffffffffffffffffffffffffffffffffff021916908373ffffffffffffffffffffffffffffffffffffffff16021790555060008160030160146101000a81548160ff0219169083151502179055508381600401819055508281600501819055506002600081548092919061064f90610b63565b91905055508060000154915050949350505050565b81600254811061067357600080fd5b3373ffffffffffffffffffffffffffffffffffffffff16600160009054906101000a900473ffffffffffffffffffffffffffffffffffffffff1673ffffffffffffffffffffffffffffffffffffffff16146106cd57600080fd5b6000600360008581526020019081526020016000209050828160030160006101000a81548173ffffffffffffffffffffffffffffffffffffffff021916908373ffffffffffffffffffffffffffffffffffffffff16021790555050505050565b80600254811061073c57600080fd5b3373ffffffffffffffffffffffffffffffffffffffff16600160009054906101000a900473ffffffffffffffffffffffffffffffffffffffff1673ffffffffffffffffffffffffffffffffffffffff161461079657600080fd5b60006003600084815260200190815260200160002090506107db838260010160009054906101000a900473ffffffffffffffffffffffffffffffffffffffff16610664565b505050565b8160025481106107ef57600080fd5b3373ffffffffffffffffffffffffffffffffffffffff16600160009054906101000a900473ffffffffffffffffffffffffffffffffffffffff1673ffffffffffffffffffffffffffffffffffffffff161461084957600080fd5b6000600360008581526020019081526020016000209050828160030160146101000a81548160ff02191690831515021790555050505050565b600160009054906101000a900473ffffffffffffffffffffffffffffffffffffffff1681565b600080fd5b6000819050919050565b6108c0816108ad565b81146108cb57600080fd5b50565b6000813590506108dd816108b7565b92915050565b6000602082840312156108f9576108f86108a8565b5b6000610907848285016108ce565b91505092915050565b610919816108ad565b82525050565b60006020820190506109346000830184610910565b92915050565b600073ffffffffffffffffffffffffffffffffffffffff82169050919050565b60006109658261093a565b9050919050565b6109758161095a565b82525050565b6000602082019050610990600083018461096c565b92915050565b6000806000606084860312156109af576109ae6108a8565b5b60006109bd868287016108ce565b93505060206109ce868287016108ce565b92505060406109df868287016108ce565b9150509250925092565b6109f28161095a565b81146109fd57600080fd5b50565b600081359050610a0f816109e9565b92915050565b60008060008060808587031215610a2f57610a2e6108a8565b5b6000610a3d87828801610a00565b9450506020610a4e878288016108ce565b9350506040610a5f878288016108ce565b9250506060610a70878288016108ce565b91505092959194509250565b60008060408385031215610a9357610a926108a8565b5b6000610aa1858286016108ce565b9250506020610ab285828601610a00565b9150509250929050565b60008115159050919050565b610ad181610abc565b8114610adc57600080fd5b50565b600081359050610aee81610ac8565b92915050565b60008060408385031215610b0b57610b0a6108a8565b5b6000610b19858286016108ce565b9250506020610b2a85828601610adf565b9150509250929050565b7f4e487b7100000000000000000000000000000000000000000000000000000000600052601160045260246000fd5b6000610b6e826108ad565b91507fffffffffffffffffffffffffffffffffffffffffffffffffffffffffffffffff821415610ba157610ba0610b34565b5b60018201905091905056fea26469706673582212200647c782d0e598eb579e7371187c7731cf59a7791a3f2f30cb0dd153bc9bb0cf64736f6c634300080a0033","opcodes":"PUSH1 0x80 PUSH1 0x40 MSTORE CALLVALUE DUP1 ISZERO PUSH2 0x10 JUMPI PUSH1 0x0 DUP1 REVERT JUMPDEST POP PUSH1 0x40 MLOAD PUSH2 0xD3A CODESIZE SUB DUP1 PUSH2 0xD3A DUP4 CODECOPY DUP2 DUP2 ADD PUSH1 0x40 MSTORE DUP2 ADD SWAP1 PUSH2 0x32 SWAP2 SWAP1 PUSH2 0x11C JUMP JUMPDEST DUP1 PUSH1 0x0 DUP1 PUSH2 0x100 EXP DUP2 SLOAD DUP2 PUSH20 0xFFFFFFFFFFFFFFFFFFFFFFFFFFFFFFFFFFFFFFFF MUL NOT AND SWAP1 DUP4 PUSH20 0xFFFFFFFFFFFFFFFFFFFFFFFFFFFFFFFFFFFFFFFF AND MUL OR SWAP1 SSTORE POP CALLER PUSH1 0x1 PUSH1 0x0 PUSH2 0x100 EXP DUP2 SLOAD DUP2 PUSH20 0xFFFFFFFFFFFFFFFFFFFFFFFFFFFFFFFFFFFFFFFF MUL NOT AND SWAP1 DUP4 PUSH20 0xFFFFFFFFFFFFFFFFFFFFFFFFFFFFFFFFFFFFFFFF AND MUL OR SWAP1 SSTORE POP POP PUSH2 0x149 JUMP JUMPDEST PUSH1 0x0 DUP1 REVERT JUMPDEST PUSH1 0x0 PUSH20 0xFFFFFFFFFFFFFFFFFFFFFFFFFFFFFFFFFFFFFFFF DUP3 AND SWAP1 POP SWAP2 SWAP1 POP JUMP JUMPDEST PUSH1 0x0 PUSH2 0xE9 DUP3 PUSH2 0xBE JUMP JUMPDEST SWAP1 POP SWAP2 SWAP1 POP JUMP JUMPDEST PUSH2 0xF9 DUP2 PUSH2 0xDE JUMP JUMPDEST DUP2 EQ PUSH2 0x104 JUMPI PUSH1 0x0 DUP1 REVERT JUMPDEST POP JUMP JUMPDEST PUSH1 0x0 DUP2 MLOAD SWAP1 POP PUSH2 0x116 DUP2 PUSH2 0xF0 JUMP JUMPDEST SWAP3 SWAP2 POP POP JUMP JUMPDEST PUSH1 0x0 PUSH1 0x20 DUP3 DUP5 SUB SLT ISZERO PUSH2 0x132 JUMPI PUSH2 0x131 PUSH2 0xB9 JUMP JUMPDEST JUMPDEST PUSH1 0x0 PUSH2 0x140 DUP5 DUP3 DUP6 ADD PUSH2 0x107 JUMP JUMPDEST SWAP2 POP POP SWAP3 SWAP2 POP POP JUMP JUMPDEST PUSH2 0xBE2 DUP1 PUSH2 0x158 PUSH1 0x0 CODECOPY PUSH1 0x0 RETURN INVALID PUSH1 0x80 PUSH1 0x40 MSTORE CALLVALUE DUP1 ISZERO PUSH2 0x10 JUMPI PUSH1 0x0 DUP1 REVERT JUMPDEST POP PUSH1 0x4 CALLDATASIZE LT PUSH2 0x9E JUMPI PUSH1 0x0 CALLDATALOAD PUSH1 0xE0 SHR DUP1 PUSH4 0xA46D8AC7 GT PUSH2 0x66 JUMPI DUP1 PUSH4 0xA46D8AC7 EQ PUSH2 0x15B JUMPI DUP1 PUSH4 0xAB21A2BE EQ PUSH2 0x18B JUMPI DUP1 PUSH4 0xCA5140C9 EQ PUSH2 0x1A7 JUMPI DUP1 PUSH4 0xEF228C92 EQ PUSH2 0x1C3 JUMPI DUP1 PUSH4 0xF6B4DFB4 EQ PUSH2 0x1DF JUMPI PUSH2 0x9E JUMP JUMPDEST DUP1 PUSH4 0x1CE06944 EQ PUSH2 0xA3 JUMPI DUP1 PUSH4 0x67615AD5 EQ PUSH2 0xD3 JUMPI DUP1 PUSH4 0x8DA5CB5B EQ PUSH2 0x103 JUMPI DUP1 PUSH4 0x8DBBFBDE EQ PUSH2 0x121 JUMPI DUP1 PUSH4 0x921C47B1 EQ PUSH2 0x13D JUMPI JUMPDEST PUSH1 0x0 DUP1 REVERT JUMPDEST PUSH2 0xBD PUSH1 0x4 DUP1 CALLDATASIZE SUB DUP2 ADD SWAP1 PUSH2 0xB8 SWAP2 SWAP1 PUSH2 0x8E3 JUMP JUMPDEST PUSH2 0x1FD JUMP JUMPDEST PUSH1 0x40 MLOAD PUSH2 0xCA SWAP2 SWAP1 PUSH2 0x91F JUMP JUMPDEST PUSH1 0x40 MLOAD DUP1 SWAP2 SUB SWAP1 RETURN JUMPDEST PUSH2 0xED PUSH1 0x4 DUP1 CALLDATASIZE SUB DUP2 ADD SWAP1 PUSH2 0xE8 SWAP2 SWAP1 PUSH2 0x8E3 JUMP JUMPDEST PUSH2 0x31C JUMP JUMPDEST PUSH1 0x40 MLOAD PUSH2 0xFA SWAP2 SWAP1 PUSH2 0x91F JUMP JUMPDEST PUSH1 0x40 MLOAD DUP1 SWAP2 SUB SWAP1 RETURN JUMPDEST PUSH2 0x10B PUSH2 0x43B JUMP JUMPDEST PUSH1 0x40 MLOAD PUSH2 0x118 SWAP2 SWAP1 PUSH2 0x97B JUMP JUMPDEST PUSH1 0x40 MLOAD DUP1 SWAP2 SUB SWAP1 RETURN JUMPDEST PUSH2 0x13B PUSH1 0x4 DUP1 CALLDATASIZE SUB DUP2 ADD SWAP1 PUSH2 0x136 SWAP2 SWAP1 PUSH2 0x996 JUMP JUMPDEST PUSH2 0x45F JUMP JUMPDEST STOP JUMPDEST PUSH2 0x145 PUSH2 0x4F8 JUMP JUMPDEST PUSH1 0x40 MLOAD PUSH2 0x152 SWAP2 SWAP1 PUSH2 0x91F JUMP JUMPDEST PUSH1 0x40 MLOAD DUP1 SWAP2 SUB SWAP1 RETURN JUMPDEST PUSH2 0x175 PUSH1 0x4 DUP1 CALLDATASIZE SUB DUP2 ADD SWAP1 PUSH2 0x170 SWAP2 SWAP1 PUSH2 0xA15 JUMP JUMPDEST PUSH2 0x4FE JUMP JUMPDEST PUSH1 0x40 MLOAD PUSH2 0x182 SWAP2 SWAP1 PUSH2 0x91F JUMP JUMPDEST PUSH1 0x40 MLOAD DUP1 SWAP2 SUB SWAP1 RETURN JUMPDEST PUSH2 0x1A5 PUSH1 0x4 DUP1 CALLDATASIZE SUB DUP2 ADD SWAP1 PUSH2 0x1A0 SWAP2 SWAP1 PUSH2 0xA7C JUMP JUMPDEST PUSH2 0x664 JUMP JUMPDEST STOP JUMPDEST PUSH2 0x1C1 PUSH1 0x4 DUP1 CALLDATASIZE SUB DUP2 ADD SWAP1 PUSH2 0x1BC SWAP2 SWAP1 PUSH2 0x8E3 JUMP JUMPDEST PUSH2 0x72D JUMP JUMPDEST STOP JUMPDEST PUSH2 0x1DD PUSH1 0x4 DUP1 CALLDATASIZE SUB DUP2 ADD SWAP1 PUSH2 0x1D8 SWAP2 SWAP1 PUSH2 0xAF4 JUMP JUMPDEST PUSH2 0x7E0 JUMP JUMPDEST STOP JUMPDEST PUSH2 0x1E7 PUSH2 0x882 JUMP JUMPDEST PUSH1 0x40 MLOAD PUSH2 0x1F4 SWAP2 SWAP1 PUSH2 0x97B JUMP JUMPDEST PUSH1 0x40 MLOAD DUP1 SWAP2 SUB SWAP1 RETURN JUMPDEST PUSH1 0x0 DUP1 PUSH1 0x3 PUSH1 0x0 DUP5 DUP2 MSTORE PUSH1 0x20 ADD SWAP1 DUP2 MSTORE PUSH1 0x20 ADD PUSH1 0x0 KECCAK256 PUSH1 0x40 MLOAD DUP1 PUSH1 0xE0 ADD PUSH1 0x40 MSTORE SWAP1 DUP2 PUSH1 0x0 DUP3 ADD SLOAD DUP2 MSTORE PUSH1 0x20 ADD PUSH1 0x1 DUP3 ADD PUSH1 0x0 SWAP1 SLOAD SWAP1 PUSH2 0x100 EXP SWAP1 DIV PUSH20 0xFFFFFFFFFFFFFFFFFFFFFFFFFFFFFFFFFFFFFFFF AND PUSH20 0xFFFFFFFFFFFFFFFFFFFFFFFFFFFFFFFFFFFFFFFF AND PUSH20 0xFFFFFFFFFFFFFFFFFFFFFFFFFFFFFFFFFFFFFFFF AND DUP2 MSTORE PUSH1 0x20 ADD PUSH1 0x2 DUP3 ADD SLOAD DUP2 MSTORE PUSH1 0x20 ADD PUSH1 0x3 DUP3 ADD PUSH1 0x0 SWAP1 SLOAD SWAP1 PUSH2 0x100 EXP SWAP1 DIV PUSH20 0xFFFFFFFFFFFFFFFFFFFFFFFFFFFFFFFFFFFFFFFF AND PUSH20 0xFFFFFFFFFFFFFFFFFFFFFFFFFFFFFFFFFFFFFFFF AND PUSH20 0xFFFFFFFFFFFFFFFFFFFFFFFFFFFFFFFFFFFFFFFF AND DUP2 MSTORE PUSH1 0x20 ADD PUSH1 0x3 DUP3 ADD PUSH1 0x14 SWAP1 SLOAD SWAP1 PUSH2 0x100 EXP SWAP1 DIV PUSH1 0xFF AND ISZERO ISZERO ISZERO ISZERO DUP2 MSTORE PUSH1 0x20 ADD PUSH1 0x4 DUP3 ADD SLOAD DUP2 MSTORE PUSH1 0x20 ADD PUSH1 0x5 DUP3 ADD SLOAD DUP2 MSTORE POP POP SWAP1 POP DUP1 PUSH1 0xC0 ADD MLOAD SWAP2 POP POP SWAP2 SWAP1 POP JUMP JUMPDEST PUSH1 0x0 DUP1 PUSH1 0x3 PUSH1 0x0 DUP5 DUP2 MSTORE PUSH1 0x20 ADD SWAP1 DUP2 MSTORE PUSH1 0x20 ADD PUSH1 0x0 KECCAK256 PUSH1 0x40 MLOAD DUP1 PUSH1 0xE0 ADD PUSH1 0x40 MSTORE SWAP1 DUP2 PUSH1 0x0 DUP3 ADD SLOAD DUP2 MSTORE PUSH1 0x20 ADD PUSH1 0x1 DUP3 ADD PUSH1 0x0 SWAP1 SLOAD SWAP1 PUSH2 0x100 EXP SWAP1 DIV PUSH20 0xFFFFFFFFFFFFFFFFFFFFFFFFFFFFFFFFFFFFFFFF AND PUSH20 0xFFFFFFFFFFFFFFFFFFFFFFFFFFFFFFFFFFFFFFFF AND PUSH20 0xFFFFFFFFFFFFFFFFFFFFFFFFFFFFFFFFFFFFFFFF AND DUP2 MSTORE PUSH1 0x20 ADD PUSH1 0x2 DUP3 ADD SLOAD DUP2 MSTORE PUSH1 0x20 ADD PUSH1 0x3 DUP3 ADD PUSH1 0x0 SWAP1 SLOAD SWAP1 PUSH2 0x100 EXP SWAP1 DIV PUSH20 0xFFFFFFFFFFFFFFFFFFFFFFFFFFFFFFFFFFFFFFFF AND PUSH20 0xFFFFFFFFFFFFFFFFFFFFFFFFFFFFFFFFFFFFFFFF AND PUSH20 0xFFFFFFFFFFFFFFFFFFFFFFFFFFFFFFFFFFFFFFFF AND DUP2 MSTORE PUSH1 0x20 ADD PUSH1 0x3 DUP3 ADD PUSH1 0x14 SWAP1 SLOAD SWAP1 PUSH2 0x100 EXP SWAP1 DIV PUSH1 0xFF AND ISZERO ISZERO ISZERO ISZERO DUP2 MSTORE PUSH1 0x20 ADD PUSH1 0x4 DUP3 ADD SLOAD DUP2 MSTORE PUSH1 0x20 ADD PUSH1 0x5 DUP3 ADD SLOAD DUP2 MSTORE POP POP SWAP1 POP DUP1 PUSH1 0x40 ADD MLOAD SWAP2 POP POP SWAP2 SWAP1 POP JUMP JUMPDEST PUSH1 0x0 DUP1 SLOAD SWAP1 PUSH2 0x100 EXP SWAP1 DIV PUSH20 0xFFFFFFFFFFFFFFFFFFFFFFFFFFFFFFFFFFFFFFFF AND DUP2 JUMP JUMPDEST DUP3 PUSH1 0x2 SLOAD DUP2 LT PUSH2 0x46E JUMPI PUSH1 0x0 DUP1 REVERT JUMPDEST CALLER PUSH20 0xFFFFFFFFFFFFFFFFFFFFFFFFFFFFFFFFFFFFFFFF AND PUSH1 0x1 PUSH1 0x0 SWAP1 SLOAD SWAP1 PUSH2 0x100 EXP SWAP1 DIV PUSH20 0xFFFFFFFFFFFFFFFFFFFFFFFFFFFFFFFFFFFFFFFF AND PUSH20 0xFFFFFFFFFFFFFFFFFFFFFFFFFFFFFFFFFFFFFFFF AND EQ PUSH2 0x4C8 JUMPI PUSH1 0x0 DUP1 REVERT JUMPDEST PUSH1 0x0 PUSH1 0x3 PUSH1 0x0 DUP7 DUP2 MSTORE PUSH1 0x20 ADD SWAP1 DUP2 MSTORE PUSH1 0x20 ADD PUSH1 0x0 KECCAK256 SWAP1 POP DUP4 DUP2 PUSH1 0x4 ADD DUP2 SWAP1 SSTORE POP DUP3 DUP2 PUSH1 0x5 ADD DUP2 SWAP1 SSTORE POP POP POP POP POP POP JUMP JUMPDEST PUSH1 0x2 SLOAD DUP2 JUMP JUMPDEST PUSH1 0x0 CALLER PUSH20 0xFFFFFFFFFFFFFFFFFFFFFFFFFFFFFFFFFFFFFFFF AND PUSH1 0x1 PUSH1 0x0 SWAP1 SLOAD SWAP1 PUSH2 0x100 EXP SWAP1 DIV PUSH20 0xFFFFFFFFFFFFFFFFFFFFFFFFFFFFFFFFFFFFFFFF AND PUSH20 0xFFFFFFFFFFFFFFFFFFFFFFFFFFFFFFFFFFFFFFFF AND EQ PUSH2 0x55A JUMPI PUSH1 0x0 DUP1 REVERT JUMPDEST PUSH1 0x0 PUSH1 0x3 PUSH1 0x0 PUSH1 0x2 SLOAD DUP2 MSTORE PUSH1 0x20 ADD SWAP1 DUP2 MSTORE PUSH1 0x20 ADD PUSH1 0x0 KECCAK256 SWAP1 POP PUSH1 0x2 SLOAD DUP2 PUSH1 0x0 ADD DUP2 SWAP1 SSTORE POP DUP5 DUP2 PUSH1 0x2 ADD DUP2 SWAP1 SSTORE POP DUP6 DUP2 PUSH1 0x1 ADD PUSH1 0x0 PUSH2 0x100 EXP DUP2 SLOAD DUP2 PUSH20 0xFFFFFFFFFFFFFFFFFFFFFFFFFFFFFFFFFFFFFFFF MUL NOT AND SWAP1 DUP4 PUSH20 0xFFFFFFFFFFFFFFFFFFFFFFFFFFFFFFFFFFFFFFFF AND MUL OR SWAP1 SSTORE POP DUP6 DUP2 PUSH1 0x3 ADD PUSH1 0x0 PUSH2 0x100 EXP DUP2 SLOAD DUP2 PUSH20 0xFFFFFFFFFFFFFFFFFFFFFFFFFFFFFFFFFFFFFFFF MUL NOT AND SWAP1 DUP4 PUSH20 0xFFFFFFFFFFFFFFFFFFFFFFFFFFFFFFFFFFFFFFFF AND MUL OR SWAP1 SSTORE POP PUSH1 0x0 DUP2 PUSH1 0x3 ADD PUSH1 0x14 PUSH2 0x100 EXP DUP2 SLOAD DUP2 PUSH1 0xFF MUL NOT AND SWAP1 DUP4 ISZERO ISZERO MUL OR SWAP1 SSTORE POP DUP4 DUP2 PUSH1 0x4 ADD DUP2 SWAP1 SSTORE POP DUP3 DUP2 PUSH1 0x5 ADD DUP2 SWAP1 SSTORE POP PUSH1 0x2 PUSH1 0x0 DUP2 SLOAD DUP1 SWAP3 SWAP2 SWAP1 PUSH2 0x64F SWAP1 PUSH2 0xB63 JUMP JUMPDEST SWAP2 SWAP1 POP SSTORE POP DUP1 PUSH1 0x0 ADD SLOAD SWAP2 POP POP SWAP5 SWAP4 POP POP POP POP JUMP JUMPDEST DUP2 PUSH1 0x2 SLOAD DUP2 LT PUSH2 0x673 JUMPI PUSH1 0x0 DUP1 REVERT JUMPDEST CALLER PUSH20 0xFFFFFFFFFFFFFFFFFFFFFFFFFFFFFFFFFFFFFFFF AND PUSH1 0x1 PUSH1 0x0 SWAP1 SLOAD SWAP1 PUSH2 0x100 EXP SWAP1 DIV PUSH20 0xFFFFFFFFFFFFFFFFFFFFFFFFFFFFFFFFFFFFFFFF AND PUSH20 0xFFFFFFFFFFFFFFFFFFFFFFFFFFFFFFFFFFFFFFFF AND EQ PUSH2 0x6CD JUMPI PUSH1 0x0 DUP1 REVERT JUMPDEST PUSH1 0x0 PUSH1 0x3 PUSH1 0x0 DUP6 DUP2 MSTORE PUSH1 0x20 ADD SWAP1 DUP2 MSTORE PUSH1 0x20 ADD PUSH1 0x0 KECCAK256 SWAP1 POP DUP3 DUP2 PUSH1 0x3 ADD PUSH1 0x0 PUSH2 0x100 EXP DUP2 SLOAD DUP2 PUSH20 0xFFFFFFFFFFFFFFFFFFFFFFFFFFFFFFFFFFFFFFFF MUL NOT AND SWAP1 DUP4 PUSH20 0xFFFFFFFFFFFFFFFFFFFFFFFFFFFFFFFFFFFFFFFF AND MUL OR SWAP1 SSTORE POP POP POP POP POP JUMP JUMPDEST DUP1 PUSH1 0x2 SLOAD DUP2 LT PUSH2 0x73C JUMPI PUSH1 0x0 DUP1 REVERT JUMPDEST CALLER PUSH20 0xFFFFFFFFFFFFFFFFFFFFFFFFFFFFFFFFFFFFFFFF AND PUSH1 0x1 PUSH1 0x0 SWAP1 SLOAD SWAP1 PUSH2 0x100 EXP SWAP1 DIV PUSH20 0xFFFFFFFFFFFFFFFFFFFFFFFFFFFFFFFFFFFFFFFF AND PUSH20 0xFFFFFFFFFFFFFFFFFFFFFFFFFFFFFFFFFFFFFFFF AND EQ PUSH2 0x796 JUMPI PUSH1 0x0 DUP1 REVERT JUMPDEST PUSH1 0x0 PUSH1 0x3 PUSH1 0x0 DUP5 DUP2 MSTORE PUSH1 0x20 ADD SWAP1 DUP2 MSTORE PUSH1 0x20 ADD PUSH1 0x0 KECCAK256 SWAP1 POP PUSH2 0x7DB DUP4 DUP3 PUSH1 0x1 ADD PUSH1 0x0 SWAP1 SLOAD SWAP1 PUSH2 0x100 EXP SWAP1 DIV PUSH20 0xFFFFFFFFFFFFFFFFFFFFFFFFFFFFFFFFFFFFFFFF AND PUSH2 0x664 JUMP JUMPDEST POP POP POP JUMP JUMPDEST DUP2 PUSH1 0x2 SLOAD DUP2 LT PUSH2 0x7EF JUMPI PUSH1 0x0 DUP1 REVERT JUMPDEST CALLER PUSH20 0xFFFFFFFFFFFFFFFFFFFFFFFFFFFFFFFFFFFFFFFF AND PUSH1 0x1 PUSH1 0x0 SWAP1 SLOAD SWAP1 PUSH2 0x100 EXP SWAP1 DIV PUSH20 0xFFFFFFFFFFFFFFFFFFFFFFFFFFFFFFFFFFFFFFFF AND PUSH20 0xFFFFFFFFFFFFFFFFFFFFFFFFFFFFFFFFFFFFFFFF AND EQ PUSH2 0x849 JUMPI PUSH1 0x0 DUP1 REVERT JUMPDEST PUSH1 0x0 PUSH1 0x3 PUSH1 0x0 DUP6 DUP2 MSTORE PUSH1 0x20 ADD SWAP1 DUP2 MSTORE PUSH1 0x20 ADD PUSH1 0x0 KECCAK256 SWAP1 POP DUP3 DUP2 PUSH1 0x3 ADD PUSH1 0x14 PUSH2 0x100 EXP DUP2 SLOAD DUP2 PUSH1 0xFF MUL NOT AND SWAP1 DUP4 ISZERO ISZERO MUL OR SWAP1 SSTORE POP POP POP POP POP JUMP JUMPDEST PUSH1 0x1 PUSH1 0x0 SWAP1 SLOAD SWAP1 PUSH2 0x100 EXP SWAP1 DIV PUSH20 0xFFFFFFFFFFFFFFFFFFFFFFFFFFFFFFFFFFFFFFFF AND DUP2 JUMP JUMPDEST PUSH1 0x0 DUP1 REVERT JUMPDEST PUSH1 0x0 DUP2 SWAP1 POP SWAP2 SWAP1 POP JUMP JUMPDEST PUSH2 0x8C0 DUP2 PUSH2 0x8AD JUMP JUMPDEST DUP2 EQ PUSH2 0x8CB JUMPI PUSH1 0x0 DUP1 REVERT JUMPDEST POP JUMP JUMPDEST PUSH1 0x0 DUP2 CALLDATALOAD SWAP1 POP PUSH2 0x8DD DUP2 PUSH2 0x8B7 JUMP JUMPDEST SWAP3 SWAP2 POP POP JUMP JUMPDEST PUSH1 0x0 PUSH1 0x20 DUP3 DUP5 SUB SLT ISZERO PUSH2 0x8F9 JUMPI PUSH2 0x8F8 PUSH2 0x8A8 JUMP JUMPDEST JUMPDEST PUSH1 0x0 PUSH2 0x907 DUP5 DUP3 DUP6 ADD PUSH2 0x8CE JUMP JUMPDEST SWAP2 POP POP SWAP3 SWAP2 POP POP JUMP JUMPDEST PUSH2 0x919 DUP2 PUSH2 0x8AD JUMP JUMPDEST DUP3 MSTORE POP POP JUMP JUMPDEST PUSH1 0x0 PUSH1 0x20 DUP3 ADD SWAP1 POP PUSH2 0x934 PUSH1 0x0 DUP4 ADD DUP5 PUSH2 0x910 JUMP JUMPDEST SWAP3 SWAP2 POP POP JUMP JUMPDEST PUSH1 0x0 PUSH20 0xFFFFFFFFFFFFFFFFFFFFFFFFFFFFFFFFFFFFFFFF DUP3 AND SWAP1 POP SWAP2 SWAP1 POP JUMP JUMPDEST PUSH1 0x0 PUSH2 0x965 DUP3 PUSH2 0x93A JUMP JUMPDEST SWAP1 POP SWAP2 SWAP1 POP JUMP JUMPDEST PUSH2 0x975 DUP2 PUSH2 0x95A JUMP JUMPDEST DUP3 MSTORE POP POP JUMP JUMPDEST PUSH1 0x0 PUSH1 0x20 DUP3 ADD SWAP1 POP PUSH2 0x990 PUSH1 0x0 DUP4 ADD DUP5 PUSH2 0x96C JUMP JUMPDEST SWAP3 SWAP2 POP POP JUMP JUMPDEST PUSH1 0x0 DUP1 PUSH1 0x0 PUSH1 0x60 DUP5 DUP7 SUB SLT ISZERO PUSH2 0x9AF JUMPI PUSH2 0x9AE PUSH2 0x8A8 JUMP JUMPDEST JUMPDEST PUSH1 0x0 PUSH2 0x9BD DUP7 DUP3 DUP8 ADD PUSH2 0x8CE JUMP JUMPDEST SWAP4 POP POP PUSH1 0x20 PUSH2 0x9CE DUP7 DUP3 DUP8 ADD PUSH2 0x8CE JUMP JUMPDEST SWAP3 POP POP PUSH1 0x40 PUSH2 0x9DF DUP7 DUP3 DUP8 ADD PUSH2 0x8CE JUMP JUMPDEST SWAP2 POP POP SWAP3 POP SWAP3 POP SWAP3 JUMP JUMPDEST PUSH2 0x9F2 DUP2 PUSH2 0x95A JUMP JUMPDEST DUP2 EQ PUSH2 0x9FD JUMPI PUSH1 0x0 DUP1 REVERT JUMPDEST POP JUMP JUMPDEST PUSH1 0x0 DUP2 CALLDATALOAD SWAP1 POP PUSH2 0xA0F DUP2 PUSH2 0x9E9 JUMP JUMPDEST SWAP3 SWAP2 POP POP JUMP JUMPDEST PUSH1 0x0 DUP1 PUSH1 0x0 DUP1 PUSH1 0x80 DUP6 DUP8 SUB SLT ISZERO PUSH2 0xA2F JUMPI PUSH2 0xA2E PUSH2 0x8A8 JUMP JUMPDEST JUMPDEST PUSH1 0x0 PUSH2 0xA3D DUP8 DUP3 DUP9 ADD PUSH2 0xA00 JUMP JUMPDEST SWAP5 POP POP PUSH1 0x20 PUSH2 0xA4E DUP8 DUP3 DUP9 ADD PUSH2 0x8CE JUMP JUMPDEST SWAP4 POP POP PUSH1 0x40 PUSH2 0xA5F DUP8 DUP3 DUP9 ADD PUSH2 0x8CE JUMP JUMPDEST SWAP3 POP POP PUSH1 0x60 PUSH2 0xA70 DUP8 DUP3 DUP9 ADD PUSH2 0x8CE JUMP JUMPDEST SWAP2 POP POP SWAP3 SWAP6 SWAP2 SWAP5 POP SWAP3 POP JUMP JUMPDEST PUSH1 0x0 DUP1 PUSH1 0x40 DUP4 DUP6 SUB SLT ISZERO PUSH2 0xA93 JUMPI PUSH2 0xA92 PUSH2 0x8A8 JUMP JUMPDEST JUMPDEST PUSH1 0x0 PUSH2 0xAA1 DUP6 DUP3 DUP7 ADD PUSH2 0x8CE JUMP JUMPDEST SWAP3 POP POP PUSH1 0x20 PUSH2 0xAB2 DUP6 DUP3 DUP7 ADD PUSH2 0xA00 JUMP JUMPDEST SWAP2 POP POP SWAP3 POP SWAP3 SWAP1 POP JUMP JUMPDEST PUSH1 0x0 DUP2 ISZERO ISZERO SWAP1 POP SWAP2 SWAP1 POP JUMP JUMPDEST PUSH2 0xAD1 DUP2 PUSH2 0xABC JUMP JUMPDEST DUP2 EQ PUSH2 0xADC JUMPI PUSH1 0x0 DUP1 REVERT JUMPDEST POP JUMP JUMPDEST PUSH1 0x0 DUP2 CALLDATALOAD SWAP1 POP PUSH2 0xAEE DUP2 PUSH2 0xAC8 JUMP JUMPDEST SWAP3 SWAP2 POP POP JUMP JUMPDEST PUSH1 0x0 DUP1 PUSH1 0x40 DUP4 DUP6 SUB SLT ISZERO PUSH2 0xB0B JUMPI PUSH2 0xB0A PUSH2 0x8A8 JUMP JUMPDEST JUMPDEST PUSH1 0x0 PUSH2 0xB19 DUP6 DUP3 DUP7 ADD PUSH2 0x8CE JUMP JUMPDEST SWAP3 POP POP PUSH1 0x20 PUSH2 0xB2A DUP6 DUP3 DUP7 ADD PUSH2 0xADF JUMP JUMPDEST SWAP2 POP POP SWAP3 POP SWAP3 SWAP1 POP JUMP JUMPDEST PUSH32 0x4E487B7100000000000000000000000000000000000000000000000000000000 PUSH1 0x0 MSTORE PUSH1 0x11 PUSH1 0x4 MSTORE PUSH1 0x24 PUSH1 0x0 REVERT JUMPDEST PUSH1 0x0 PUSH2 0xB6E DUP3 PUSH2 0x8AD JUMP JUMPDEST SWAP2 POP PUSH32 0xFFFFFFFFFFFFFFFFFFFFFFFFFFFFFFFFFFFFFFFFFFFFFFFFFFFFFFFFFFFFFFFF DUP3 EQ ISZERO PUSH2 0xBA1 JUMPI PUSH2 0xBA0 PUSH2 0xB34 JUMP JUMPDEST JUMPDEST PUSH1 0x1 DUP3 ADD SWAP1 POP SWAP2 SWAP1 POP JUMP INVALID LOG2 PUSH5 0x6970667358 0x22 SLT KECCAK256 MOD SELFBALANCE 0xC7 DUP3 0xD0 0xE5 SWAP9 0xEB JUMPI SWAP15 PUSH20 0x71187C7731CF59A7791A3F2F30CB0DD153BC9BB0 0xCF PUSH5 0x736F6C6343 STOP ADDMOD EXP STOP CALLER "},"gasEstimates":{"creation":{"codeDepositCost":"608400","executionCost":"infinite","totalCost":"infinite"},"external":{"changeAllowabilityStatus(uint256,bool)":"29363","changeContractStatus(uint256,uint256,uint256)":"infinite","changeReader(uint256,address)":"29312","contractAddress()":"2602","createBookToken(address,uint256,uint256,uint256)":"infinite","getTokenBookId(uint256)":"infinite","getTokenCost(uint256)":"infinite","numBookToken()":"2518","owner()":"2556","returnBook(uint256)":"35677"}},"methodIdentifiers":{"changeAllowabilityStatus(uint256,bool)":"ef228c92","changeContractStatus(uint256,uint256,uint256)":"8dbbfbde","changeReader(uint256,address)":"ab21a2be","contractAddress()":"f6b4dfb4","createBookToken(address,uint256,uint256,uint256)":"a46d8ac7","getTokenBookId(uint256)":"67615ad5","getTokenCost(uint256)":"1ce06944","numBookToken()":"921c47b1","owner()":"8da5cb5b","returnBook(uint256)":"ca5140c9"}},"storageLayout":{"storage":[{"astId":607,"contract":"devs/TokenManager.sol:TokenManager","label":"owner","offset":0,"slot":"0","type":"t_address"},{"astId":609,"contract":"devs/TokenManager.sol:TokenManager","label":"contractAddress","offset":0,"slot":"1","type":"t_address"},{"astId":611,"contract":"devs/TokenManager.sol:TokenManager","label":"numBookToken","offset":0,"slot":"2","type":"t_uint256"},{"astId":616,"contract":"devs/TokenManager.sol:TokenManager","label":"bookTokens","offset":0,"slot":"3","type":"t_mapping(t_uint256,t_struct(BookToken)561_storage)"}],"types":{"t_address":{"encoding":"inplace","label":"address","numberOfBytes":"20"},"t_bool":{"encoding":"inplace","label":"bool","numberOfBytes":"1"},"t_mapping(t_uint256,t_struct(BookToken)561_storage)":{"encoding":"mapping","key":"t_uint256","label":"mapping(uint256 => struct TokenManagerInterface.BookToken)","numberOfBytes":"32","value":"t_struct(BookToken)561_storage"},"t_struct(BookToken)561_storage":{"encoding":"inplace","label":"struct TokenManagerInterface.BookToken","members":[{"astId":548,"contract":"devs/TokenManager.sol:TokenManager","label":"tokenId","offset":0,"slot":"0","type":"t_uint256"},{"astId":550,"contract":"devs/TokenManager.sol:TokenManager","label":"owner","offset":0,"slot":"1","type":"t_address"},{"astId":552,"contract":"devs/TokenManager.sol:TokenManager","label":"bookIndex","offset":0,"slot":"2","type":"t_uint256"},{"astId":554,"contract":"devs/TokenManager.sol:TokenManager","label":"reader","offset":0,"slot":"3","type":"t_address"},{"astId":556,"contract":"devs/TokenManager.sol:TokenManager","label":"allowToContract","offset":20,"slot":"3","type":"t_bool"},{"astId":558,"contract":"devs/TokenManager.sol:TokenManager","label":"period","offset":0,"slot":"4","type":"t_uint256"},{"astId":560,"contract":"devs/TokenManager.sol:TokenManager","label":"cost","offset":0,"slot":"5","type":"t_uint256"}],"numberOfBytes":"192"},"t_uint256":{"encoding":"inplace","label":"uint256","numberOfBytes":"32"}}},"userdoc":{"kind":"user","methods":{},"version":1}}