{"abi":[{"inputs":[{"internalType":"address","name":"_ownerAddress","type":"address"}],"stateMutability":"nonpayable","type":"constructor"},{"inputs":[{"internalType":"uint256","name":"","type":"uint256"}],"name":"bookTokens","outputs":[{"internalType":"uint256","name":"tokenId","type":"uint256"},{"internalType":"address","name":"owner","type":"address"},{"internalType":"uint256","name":"bookIndex","type":"uint256"},{"internalType":"address","name":"reader","type":"address"},{"internalType":"bool","name":"allowToContract","type":"bool"},{"internalType":"uint256","name":"period","type":"uint256"},{"internalType":"uint256","name":"cost","type":"uint256"}],"stateMutability":"view","type":"function"},{"inputs":[{"internalType":"uint256","name":"_tokenId","type":"uint256"},{"internalType":"bool","name":"_status","type":"bool"}],"name":"changeAllowabilityStatus","outputs":[],"stateMutability":"nonpayable","type":"function"},{"inputs":[{"internalType":"uint256","name":"_tokenId","type":"uint256"},{"internalType":"uint256","name":"_period","type":"uint256"},{"internalType":"uint256","name":"_cost","type":"uint256"}],"name":"changeContractStatus","outputs":[],"stateMutability":"nonpayable","type":"function"},{"inputs":[{"internalType":"uint256","name":"_tokenId","type":"uint256"},{"internalType":"address","name":"_reader","type":"address"}],"name":"changeReader","outputs":[],"stateMutability":"nonpayable","type":"function"},{"inputs":[],"name":"contractAddress","outputs":[{"internalType":"address","name":"","type":"address"}],"stateMutability":"view","type":"function"},{"inputs":[{"internalType":"address","name":"_sender","type":"address"},{"internalType":"uint256","name":"_bookIndex","type":"uint256"},{"internalType":"uint256","name":"_period","type":"uint256"},{"internalType":"uint256","name":"_cost","type":"uint256"}],"name":"createBookToken","outputs":[{"internalType":"uint256","name":"","type":"uint256"}],"stateMutability":"nonpayable","type":"function"},{"inputs":[{"internalType":"uint256","name":"_tokenId","type":"uint256"}],"name":"getTokenBookId","outputs":[{"internalType":"uint256","name":"","type":"uint256"}],"stateMutability":"view","type":"function"},{"inputs":[{"internalType":"uint256","name":"_tokenId","type":"uint256"}],"name":"getTokenCost","outputs":[{"internalType":"uint256","name":"","type":"uint256"}],"stateMutability":"view","type":"function"},{"inputs":[{"internalType":"uint256","name":"_tokenId","type":"uint256"}],"name":"getTokenReader","outputs":[{"internalType":"address","name":"","type":"address"}],"stateMutability":"view","type":"function"},{"inputs":[],"name":"numBookToken","outputs":[{"internalType":"uint256","name":"","type":"uint256"}],"stateMutability":"view","type":"function"},{"inputs":[],"name":"owner","outputs":[{"internalType":"address","name":"","type":"address"}],"stateMutability":"view","type":"function"},{"inputs":[{"internalType":"uint256","name":"_tokenId","type":"uint256"}],"name":"returnBook","outputs":[],"stateMutability":"nonpayable","type":"function"}],"devdoc":{"kind":"dev","methods":{},"version":1},"evm":{"assembly":"    /* \"devs/TokenManager.sol\":843:3463   */\n  mstore(0x40, 0x80)\n    /* \"devs/TokenManager.sol\":1232:1343   */\n  callvalue\n  dup1\n  iszero\n  tag_1\n  jumpi\n  0x00\n  dup1\n  revert\ntag_1:\n  pop\n  mload(0x40)\n  sub(codesize, bytecodeSize)\n  dup1\n  bytecodeSize\n  dup4\n  codecopy\n  dup2\n  dup2\n  add\n  0x40\n  mstore\n  dup2\n  add\n  swap1\n  tag_2\n  swap2\n  swap1\n  tag_3\n  jump\t// in\ntag_2:\n    /* \"devs/TokenManager.sol\":1285:1298   */\n  dup1\n    /* \"devs/TokenManager.sol\":1277:1282   */\n  0x00\n  dup1\n    /* \"devs/TokenManager.sol\":1277:1298   */\n  0x0100\n  exp\n  dup2\n  sload\n  dup2\n  0xffffffffffffffffffffffffffffffffffffffff\n  mul\n  not\n  and\n  swap1\n  dup4\n  0xffffffffffffffffffffffffffffffffffffffff\n  and\n  mul\n  or\n  swap1\n  sstore\n  pop\n    /* \"devs/TokenManager.sol\":1326:1336   */\n  caller\n    /* \"devs/TokenManager.sol\":1308:1323   */\n  0x01\n  0x00\n    /* \"devs/TokenManager.sol\":1308:1336   */\n  0x0100\n  exp\n  dup2\n  sload\n  dup2\n  0xffffffffffffffffffffffffffffffffffffffff\n  mul\n  not\n  and\n  swap1\n  dup4\n  0xffffffffffffffffffffffffffffffffffffffff\n  and\n  mul\n  or\n  swap1\n  sstore\n  pop\n    /* \"devs/TokenManager.sol\":1232:1343   */\n  pop\n    /* \"devs/TokenManager.sol\":843:3463   */\n  jump(tag_6)\n    /* \"#utility.yul\":88:205   */\ntag_8:\n    /* \"#utility.yul\":197:198   */\n  0x00\n    /* \"#utility.yul\":194:195   */\n  dup1\n    /* \"#utility.yul\":187:199   */\n  revert\n    /* \"#utility.yul\":334:460   */\ntag_10:\n    /* \"#utility.yul\":371:378   */\n  0x00\n    /* \"#utility.yul\":411:453   */\n  0xffffffffffffffffffffffffffffffffffffffff\n    /* \"#utility.yul\":404:409   */\n  dup3\n    /* \"#utility.yul\":400:454   */\n  and\n    /* \"#utility.yul\":389:454   */\n  swap1\n  pop\n    /* \"#utility.yul\":334:460   */\n  swap2\n  swap1\n  pop\n  jump\t// out\n    /* \"#utility.yul\":466:562   */\ntag_11:\n    /* \"#utility.yul\":503:510   */\n  0x00\n    /* \"#utility.yul\":532:556   */\n  tag_20\n    /* \"#utility.yul\":550:555   */\n  dup3\n    /* \"#utility.yul\":532:556   */\n  tag_10\n  jump\t// in\ntag_20:\n    /* \"#utility.yul\":521:556   */\n  swap1\n  pop\n    /* \"#utility.yul\":466:562   */\n  swap2\n  swap1\n  pop\n  jump\t// out\n    /* \"#utility.yul\":568:690   */\ntag_12:\n    /* \"#utility.yul\":641:665   */\n  tag_22\n    /* \"#utility.yul\":659:664   */\n  dup2\n    /* \"#utility.yul\":641:665   */\n  tag_11\n  jump\t// in\ntag_22:\n    /* \"#utility.yul\":634:639   */\n  dup2\n    /* \"#utility.yul\":631:666   */\n  eq\n    /* \"#utility.yul\":621:684   */\n  tag_23\n  jumpi\n    /* \"#utility.yul\":680:681   */\n  0x00\n    /* \"#utility.yul\":677:678   */\n  dup1\n    /* \"#utility.yul\":670:682   */\n  revert\n    /* \"#utility.yul\":621:684   */\ntag_23:\n    /* \"#utility.yul\":568:690   */\n  pop\n  jump\t// out\n    /* \"#utility.yul\":696:839   */\ntag_13:\n    /* \"#utility.yul\":753:758   */\n  0x00\n    /* \"#utility.yul\":784:790   */\n  dup2\n    /* \"#utility.yul\":778:791   */\n  mload\n    /* \"#utility.yul\":769:791   */\n  swap1\n  pop\n    /* \"#utility.yul\":800:833   */\n  tag_25\n    /* \"#utility.yul\":827:832   */\n  dup2\n    /* \"#utility.yul\":800:833   */\n  tag_12\n  jump\t// in\ntag_25:\n    /* \"#utility.yul\":696:839   */\n  swap3\n  swap2\n  pop\n  pop\n  jump\t// out\n    /* \"#utility.yul\":845:1196   */\ntag_3:\n    /* \"#utility.yul\":915:921   */\n  0x00\n    /* \"#utility.yul\":964:966   */\n  0x20\n    /* \"#utility.yul\":952:961   */\n  dup3\n    /* \"#utility.yul\":943:950   */\n  dup5\n    /* \"#utility.yul\":939:962   */\n  sub\n    /* \"#utility.yul\":935:967   */\n  slt\n    /* \"#utility.yul\":932:1051   */\n  iszero\n  tag_27\n  jumpi\n    /* \"#utility.yul\":970:1049   */\n  tag_28\n  tag_8\n  jump\t// in\ntag_28:\n    /* \"#utility.yul\":932:1051   */\ntag_27:\n    /* \"#utility.yul\":1090:1091   */\n  0x00\n    /* \"#utility.yul\":1115:1179   */\n  tag_29\n    /* \"#utility.yul\":1171:1178   */\n  dup5\n    /* \"#utility.yul\":1162:1168   */\n  dup3\n    /* \"#utility.yul\":1151:1160   */\n  dup6\n    /* \"#utility.yul\":1147:1169   */\n  add\n    /* \"#utility.yul\":1115:1179   */\n  tag_13\n  jump\t// in\ntag_29:\n    /* \"#utility.yul\":1105:1179   */\n  swap2\n  pop\n    /* \"#utility.yul\":1061:1189   */\n  pop\n    /* \"#utility.yul\":845:1196   */\n  swap3\n  swap2\n  pop\n  pop\n  jump\t// out\n    /* \"devs/TokenManager.sol\":843:3463   */\ntag_6:\n  dataSize(sub_0)\n  dup1\n  dataOffset(sub_0)\n  0x00\n  codecopy\n  0x00\n  return\nstop\n\nsub_0: assembly {\n        /* \"devs/TokenManager.sol\":843:3463   */\n      mstore(0x40, 0x80)\n      callvalue\n      dup1\n      iszero\n      tag_1\n      jumpi\n      0x00\n      dup1\n      revert\n    tag_1:\n      pop\n      jumpi(tag_2, lt(calldatasize, 0x04))\n      shr(0xe0, calldataload(0x00))\n      dup1\n      0x921c47b1\n      gt\n      tag_15\n      jumpi\n      dup1\n      0x921c47b1\n      eq\n      tag_9\n      jumpi\n      dup1\n      0xa46d8ac7\n      eq\n      tag_10\n      jumpi\n      dup1\n      0xab21a2be\n      eq\n      tag_11\n      jumpi\n      dup1\n      0xca5140c9\n      eq\n      tag_12\n      jumpi\n      dup1\n      0xef228c92\n      eq\n      tag_13\n      jumpi\n      dup1\n      0xf6b4dfb4\n      eq\n      tag_14\n      jumpi\n      jump(tag_2)\n    tag_15:\n      dup1\n      0x1ce06944\n      eq\n      tag_3\n      jumpi\n      dup1\n      0x3b2f7118\n      eq\n      tag_4\n      jumpi\n      dup1\n      0x67615ad5\n      eq\n      tag_5\n      jumpi\n      dup1\n      0x83b65cb4\n      eq\n      tag_6\n      jumpi\n      dup1\n      0x8da5cb5b\n      eq\n      tag_7\n      jumpi\n      dup1\n      0x8dbbfbde\n      eq\n      tag_8\n      jumpi\n    tag_2:\n      0x00\n      dup1\n      revert\n        /* \"devs/TokenManager.sol\":2951:3112   */\n    tag_3:\n      tag_16\n      0x04\n      dup1\n      calldatasize\n      sub\n      dup2\n      add\n      swap1\n      tag_17\n      swap2\n      swap1\n      tag_18\n      jump\t// in\n    tag_17:\n      tag_19\n      jump\t// in\n    tag_16:\n      mload(0x40)\n      tag_20\n      swap2\n      swap1\n      tag_21\n      jump\t// in\n    tag_20:\n      mload(0x40)\n      dup1\n      swap2\n      sub\n      swap1\n      return\n        /* \"devs/TokenManager.sol\":3118:3286   */\n    tag_4:\n      tag_22\n      0x04\n      dup1\n      calldatasize\n      sub\n      dup2\n      add\n      swap1\n      tag_23\n      swap2\n      swap1\n      tag_18\n      jump\t// in\n    tag_23:\n      tag_24\n      jump\t// in\n    tag_22:\n      mload(0x40)\n      tag_25\n      swap2\n      swap1\n      tag_26\n      jump\t// in\n    tag_25:\n      mload(0x40)\n      dup1\n      swap2\n      sub\n      swap1\n      return\n        /* \"devs/TokenManager.sol\":3292:3460   */\n    tag_5:\n      tag_27\n      0x04\n      dup1\n      calldatasize\n      sub\n      dup2\n      add\n      swap1\n      tag_28\n      swap2\n      swap1\n      tag_18\n      jump\t// in\n    tag_28:\n      tag_29\n      jump\t// in\n    tag_27:\n      mload(0x40)\n      tag_30\n      swap2\n      swap1\n      tag_21\n      jump\t// in\n    tag_30:\n      mload(0x40)\n      dup1\n      swap2\n      sub\n      swap1\n      return\n        /* \"devs/TokenManager.sol\":989:1033   */\n    tag_6:\n      tag_31\n      0x04\n      dup1\n      calldatasize\n      sub\n      dup2\n      add\n      swap1\n      tag_32\n      swap2\n      swap1\n      tag_18\n      jump\t// in\n    tag_32:\n      tag_33\n      jump\t// in\n    tag_31:\n      mload(0x40)\n      tag_34\n      swap8\n      swap7\n      swap6\n      swap5\n      swap4\n      swap3\n      swap2\n      swap1\n      tag_35\n      jump\t// in\n    tag_34:\n      mload(0x40)\n      dup1\n      swap2\n      sub\n      swap1\n      return\n        /* \"devs/TokenManager.sol\":896:916   */\n    tag_7:\n      tag_36\n      tag_37\n      jump\t// in\n    tag_36:\n      mload(0x40)\n      tag_38\n      swap2\n      swap1\n      tag_26\n      jump\t// in\n    tag_38:\n      mload(0x40)\n      dup1\n      swap2\n      sub\n      swap1\n      return\n        /* \"devs/TokenManager.sol\":2276:2521   */\n    tag_8:\n      tag_39\n      0x04\n      dup1\n      calldatasize\n      sub\n      dup2\n      add\n      swap1\n      tag_40\n      swap2\n      swap1\n      tag_41\n      jump\t// in\n    tag_40:\n      tag_42\n      jump\t// in\n    tag_39:\n      stop\n        /* \"devs/TokenManager.sol\":959:983   */\n    tag_9:\n      tag_43\n      tag_44\n      jump\t// in\n    tag_43:\n      mload(0x40)\n      tag_45\n      swap2\n      swap1\n      tag_21\n      jump\t// in\n    tag_45:\n      mload(0x40)\n      dup1\n      swap2\n      sub\n      swap1\n      return\n        /* \"devs/TokenManager.sol\":1439:1951   */\n    tag_10:\n      tag_46\n      0x04\n      dup1\n      calldatasize\n      sub\n      dup2\n      add\n      swap1\n      tag_47\n      swap2\n      swap1\n      tag_48\n      jump\t// in\n    tag_47:\n      tag_49\n      jump\t// in\n    tag_46:\n      mload(0x40)\n      tag_50\n      swap2\n      swap1\n      tag_21\n      jump\t// in\n    tag_50:\n      mload(0x40)\n      dup1\n      swap2\n      sub\n      swap1\n      return\n        /* \"devs/TokenManager.sol\":2527:2723   */\n    tag_11:\n      tag_51\n      0x04\n      dup1\n      calldatasize\n      sub\n      dup2\n      add\n      swap1\n      tag_52\n      swap2\n      swap1\n      tag_53\n      jump\t// in\n    tag_52:\n      tag_54\n      jump\t// in\n    tag_51:\n      stop\n        /* \"devs/TokenManager.sol\":2729:2919   */\n    tag_12:\n      tag_55\n      0x04\n      dup1\n      calldatasize\n      sub\n      dup2\n      add\n      swap1\n      tag_56\n      swap2\n      swap1\n      tag_18\n      jump\t// in\n    tag_56:\n      tag_57\n      jump\t// in\n    tag_55:\n      stop\n        /* \"devs/TokenManager.sol\":2056:2270   */\n    tag_13:\n      tag_58\n      0x04\n      dup1\n      calldatasize\n      sub\n      dup2\n      add\n      swap1\n      tag_59\n      swap2\n      swap1\n      tag_60\n      jump\t// in\n    tag_59:\n      tag_61\n      jump\t// in\n    tag_58:\n      stop\n        /* \"devs/TokenManager.sol\":922:952   */\n    tag_14:\n      tag_62\n      tag_63\n      jump\t// in\n    tag_62:\n      mload(0x40)\n      tag_64\n      swap2\n      swap1\n      tag_26\n      jump\t// in\n    tag_64:\n      mload(0x40)\n      dup1\n      swap2\n      sub\n      swap1\n      return\n        /* \"devs/TokenManager.sol\":2951:3112   */\n    tag_19:\n        /* \"devs/TokenManager.sol\":3010:3014   */\n      0x00\n        /* \"devs/TokenManager.sol\":3025:3051   */\n      dup1\n        /* \"devs/TokenManager.sol\":3054:3064   */\n      0x03\n        /* \"devs/TokenManager.sol\":3054:3074   */\n      0x00\n        /* \"devs/TokenManager.sol\":3065:3073   */\n      dup5\n        /* \"devs/TokenManager.sol\":3054:3074   */\n      dup2\n      mstore\n      0x20\n      add\n      swap1\n      dup2\n      mstore\n      0x20\n      add\n      0x00\n      keccak256\n        /* \"devs/TokenManager.sol\":3025:3074   */\n      mload(0x40)\n      dup1\n      0xe0\n      add\n      0x40\n      mstore\n      swap1\n      dup2\n      0x00\n      dup3\n      add\n      sload\n      dup2\n      mstore\n      0x20\n      add\n      0x01\n      dup3\n      add\n      0x00\n      swap1\n      sload\n      swap1\n      0x0100\n      exp\n      swap1\n      div\n      0xffffffffffffffffffffffffffffffffffffffff\n      and\n      0xffffffffffffffffffffffffffffffffffffffff\n      and\n      0xffffffffffffffffffffffffffffffffffffffff\n      and\n      dup2\n      mstore\n      0x20\n      add\n      0x02\n      dup3\n      add\n      sload\n      dup2\n      mstore\n      0x20\n      add\n      0x03\n      dup3\n      add\n      0x00\n      swap1\n      sload\n      swap1\n      0x0100\n      exp\n      swap1\n      div\n      0xffffffffffffffffffffffffffffffffffffffff\n      and\n      0xffffffffffffffffffffffffffffffffffffffff\n      and\n      0xffffffffffffffffffffffffffffffffffffffff\n      and\n      dup2\n      mstore\n      0x20\n      add\n      0x03\n      dup3\n      add\n      0x14\n      swap1\n      sload\n      swap1\n      0x0100\n      exp\n      swap1\n      div\n      0xff\n      and\n      iszero\n      iszero\n      iszero\n      iszero\n      dup2\n      mstore\n      0x20\n      add\n      0x04\n      dup3\n      add\n      sload\n      dup2\n      mstore\n      0x20\n      add\n      0x05\n      dup3\n      add\n      sload\n      dup2\n      mstore\n      pop\n      pop\n      swap1\n      pop\n        /* \"devs/TokenManager.sol\":3091:3100   */\n      dup1\n        /* \"devs/TokenManager.sol\":3091:3105   */\n      0xc0\n      add\n      mload\n        /* \"devs/TokenManager.sol\":3084:3105   */\n      swap2\n      pop\n      pop\n        /* \"devs/TokenManager.sol\":2951:3112   */\n      swap2\n      swap1\n      pop\n      jump\t// out\n        /* \"devs/TokenManager.sol\":3118:3286   */\n    tag_24:\n        /* \"devs/TokenManager.sol\":3179:3186   */\n      0x00\n        /* \"devs/TokenManager.sol\":3197:3223   */\n      dup1\n        /* \"devs/TokenManager.sol\":3226:3236   */\n      0x03\n        /* \"devs/TokenManager.sol\":3226:3246   */\n      0x00\n        /* \"devs/TokenManager.sol\":3237:3245   */\n      dup5\n        /* \"devs/TokenManager.sol\":3226:3246   */\n      dup2\n      mstore\n      0x20\n      add\n      swap1\n      dup2\n      mstore\n      0x20\n      add\n      0x00\n      keccak256\n        /* \"devs/TokenManager.sol\":3197:3246   */\n      mload(0x40)\n      dup1\n      0xe0\n      add\n      0x40\n      mstore\n      swap1\n      dup2\n      0x00\n      dup3\n      add\n      sload\n      dup2\n      mstore\n      0x20\n      add\n      0x01\n      dup3\n      add\n      0x00\n      swap1\n      sload\n      swap1\n      0x0100\n      exp\n      swap1\n      div\n      0xffffffffffffffffffffffffffffffffffffffff\n      and\n      0xffffffffffffffffffffffffffffffffffffffff\n      and\n      0xffffffffffffffffffffffffffffffffffffffff\n      and\n      dup2\n      mstore\n      0x20\n      add\n      0x02\n      dup3\n      add\n      sload\n      dup2\n      mstore\n      0x20\n      add\n      0x03\n      dup3\n      add\n      0x00\n      swap1\n      sload\n      swap1\n      0x0100\n      exp\n      swap1\n      div\n      0xffffffffffffffffffffffffffffffffffffffff\n      and\n      0xffffffffffffffffffffffffffffffffffffffff\n      and\n      0xffffffffffffffffffffffffffffffffffffffff\n      and\n      dup2\n      mstore\n      0x20\n      add\n      0x03\n      dup3\n      add\n      0x14\n      swap1\n      sload\n      swap1\n      0x0100\n      exp\n      swap1\n      div\n      0xff\n      and\n      iszero\n      iszero\n      iszero\n      iszero\n      dup2\n      mstore\n      0x20\n      add\n      0x04\n      dup3\n      add\n      sload\n      dup2\n      mstore\n      0x20\n      add\n      0x05\n      dup3\n      add\n      sload\n      dup2\n      mstore\n      pop\n      pop\n      swap1\n      pop\n        /* \"devs/TokenManager.sol\":3263:3272   */\n      dup1\n        /* \"devs/TokenManager.sol\":3263:3279   */\n      0x60\n      add\n      mload\n        /* \"devs/TokenManager.sol\":3256:3279   */\n      swap2\n      pop\n      pop\n        /* \"devs/TokenManager.sol\":3118:3286   */\n      swap2\n      swap1\n      pop\n      jump\t// out\n        /* \"devs/TokenManager.sol\":3292:3460   */\n    tag_29:\n        /* \"devs/TokenManager.sol\":3353:3357   */\n      0x00\n        /* \"devs/TokenManager.sol\":3368:3394   */\n      dup1\n        /* \"devs/TokenManager.sol\":3397:3407   */\n      0x03\n        /* \"devs/TokenManager.sol\":3397:3417   */\n      0x00\n        /* \"devs/TokenManager.sol\":3408:3416   */\n      dup5\n        /* \"devs/TokenManager.sol\":3397:3417   */\n      dup2\n      mstore\n      0x20\n      add\n      swap1\n      dup2\n      mstore\n      0x20\n      add\n      0x00\n      keccak256\n        /* \"devs/TokenManager.sol\":3368:3417   */\n      mload(0x40)\n      dup1\n      0xe0\n      add\n      0x40\n      mstore\n      swap1\n      dup2\n      0x00\n      dup3\n      add\n      sload\n      dup2\n      mstore\n      0x20\n      add\n      0x01\n      dup3\n      add\n      0x00\n      swap1\n      sload\n      swap1\n      0x0100\n      exp\n      swap1\n      div\n      0xffffffffffffffffffffffffffffffffffffffff\n      and\n      0xffffffffffffffffffffffffffffffffffffffff\n      and\n      0xffffffffffffffffffffffffffffffffffffffff\n      and\n      dup2\n      mstore\n      0x20\n      add\n      0x02\n      dup3\n      add\n      sload\n      dup2\n      mstore\n      0x20\n      add\n      0x03\n      dup3\n      add\n      0x00\n      swap1\n      sload\n      swap1\n      0x0100\n      exp\n      swap1\n      div\n      0xffffffffffffffffffffffffffffffffffffffff\n      and\n      0xffffffffffffffffffffffffffffffffffffffff\n      and\n      0xffffffffffffffffffffffffffffffffffffffff\n      and\n      dup2\n      mstore\n      0x20\n      add\n      0x03\n      dup3\n      add\n      0x14\n      swap1\n      sload\n      swap1\n      0x0100\n      exp\n      swap1\n      div\n      0xff\n      and\n      iszero\n      iszero\n      iszero\n      iszero\n      dup2\n      mstore\n      0x20\n      add\n      0x04\n      dup3\n      add\n      sload\n      dup2\n      mstore\n      0x20\n      add\n      0x05\n      dup3\n      add\n      sload\n      dup2\n      mstore\n      pop\n      pop\n      swap1\n      pop\n        /* \"devs/TokenManager.sol\":3434:3443   */\n      dup1\n        /* \"devs/TokenManager.sol\":3434:3453   */\n      0x40\n      add\n      mload\n        /* \"devs/TokenManager.sol\":3427:3453   */\n      swap2\n      pop\n      pop\n        /* \"devs/TokenManager.sol\":3292:3460   */\n      swap2\n      swap1\n      pop\n      jump\t// out\n        /* \"devs/TokenManager.sol\":989:1033   */\n    tag_33:\n      mstore(0x20, 0x03)\n      dup1\n      0x00\n      mstore\n      keccak256(0x00, 0x40)\n      0x00\n      swap2\n      pop\n      swap1\n      pop\n      dup1\n      0x00\n      add\n      sload\n      swap1\n      dup1\n      0x01\n      add\n      0x00\n      swap1\n      sload\n      swap1\n      0x0100\n      exp\n      swap1\n      div\n      0xffffffffffffffffffffffffffffffffffffffff\n      and\n      swap1\n      dup1\n      0x02\n      add\n      sload\n      swap1\n      dup1\n      0x03\n      add\n      0x00\n      swap1\n      sload\n      swap1\n      0x0100\n      exp\n      swap1\n      div\n      0xffffffffffffffffffffffffffffffffffffffff\n      and\n      swap1\n      dup1\n      0x03\n      add\n      0x14\n      swap1\n      sload\n      swap1\n      0x0100\n      exp\n      swap1\n      div\n      0xff\n      and\n      swap1\n      dup1\n      0x04\n      add\n      sload\n      swap1\n      dup1\n      0x05\n      add\n      sload\n      swap1\n      pop\n      dup8\n      jump\t// out\n        /* \"devs/TokenManager.sol\":896:916   */\n    tag_37:\n      0x00\n      dup1\n      sload\n      swap1\n      0x0100\n      exp\n      swap1\n      div\n      0xffffffffffffffffffffffffffffffffffffffff\n      and\n      dup2\n      jump\t// out\n        /* \"devs/TokenManager.sol\":2276:2521   */\n    tag_42:\n        /* \"devs/TokenManager.sol\":2366:2374   */\n      dup3\n        /* \"devs/TokenManager.sol\":1195:1207   */\n      sload(0x02)\n        /* \"devs/TokenManager.sol\":1185:1192   */\n      dup2\n        /* \"devs/TokenManager.sol\":1185:1207   */\n      lt\n        /* \"devs/TokenManager.sol\":1177:1208   */\n      tag_69\n      jumpi\n      0x00\n      dup1\n      revert\n    tag_69:\n        /* \"devs/TokenManager.sol\":1098:1108   */\n      caller\n        /* \"devs/TokenManager.sol\":1079:1108   */\n      0xffffffffffffffffffffffffffffffffffffffff\n      and\n        /* \"devs/TokenManager.sol\":1079:1094   */\n      0x01\n      0x00\n      swap1\n      sload\n      swap1\n      0x0100\n      exp\n      swap1\n      div\n      0xffffffffffffffffffffffffffffffffffffffff\n      and\n        /* \"devs/TokenManager.sol\":1079:1108   */\n      0xffffffffffffffffffffffffffffffffffffffff\n      and\n      eq\n        /* \"devs/TokenManager.sol\":1071:1109   */\n      tag_71\n      jumpi\n      0x00\n      dup1\n      revert\n    tag_71:\n        /* \"devs/TokenManager.sol\":2396:2423   */\n      0x00\n        /* \"devs/TokenManager.sol\":2426:2436   */\n      0x03\n        /* \"devs/TokenManager.sol\":2426:2446   */\n      0x00\n        /* \"devs/TokenManager.sol\":2437:2445   */\n      dup7\n        /* \"devs/TokenManager.sol\":2426:2446   */\n      dup2\n      mstore\n      0x20\n      add\n      swap1\n      dup2\n      mstore\n      0x20\n      add\n      0x00\n      keccak256\n        /* \"devs/TokenManager.sol\":2396:2446   */\n      swap1\n      pop\n        /* \"devs/TokenManager.sol\":2475:2482   */\n      dup4\n        /* \"devs/TokenManager.sol\":2456:2465   */\n      dup2\n        /* \"devs/TokenManager.sol\":2456:2472   */\n      0x04\n      add\n        /* \"devs/TokenManager.sol\":2456:2482   */\n      dup2\n      swap1\n      sstore\n      pop\n        /* \"devs/TokenManager.sol\":2509:2514   */\n      dup3\n        /* \"devs/TokenManager.sol\":2492:2501   */\n      dup2\n        /* \"devs/TokenManager.sol\":2492:2506   */\n      0x05\n      add\n        /* \"devs/TokenManager.sol\":2492:2514   */\n      dup2\n      swap1\n      sstore\n      pop\n        /* \"devs/TokenManager.sol\":2386:2521   */\n      pop\n        /* \"devs/TokenManager.sol\":2276:2521   */\n      pop\n      pop\n      pop\n      pop\n      jump\t// out\n        /* \"devs/TokenManager.sol\":959:983   */\n    tag_44:\n      sload(0x02)\n      dup2\n      jump\t// out\n        /* \"devs/TokenManager.sol\":1439:1951   */\n    tag_49:\n        /* \"devs/TokenManager.sol\":1551:1555   */\n      0x00\n        /* \"devs/TokenManager.sol\":1098:1108   */\n      caller\n        /* \"devs/TokenManager.sol\":1079:1108   */\n      0xffffffffffffffffffffffffffffffffffffffff\n      and\n        /* \"devs/TokenManager.sol\":1079:1094   */\n      0x01\n      0x00\n      swap1\n      sload\n      swap1\n      0x0100\n      exp\n      swap1\n      div\n      0xffffffffffffffffffffffffffffffffffffffff\n      and\n        /* \"devs/TokenManager.sol\":1079:1108   */\n      0xffffffffffffffffffffffffffffffffffffffff\n      and\n      eq\n        /* \"devs/TokenManager.sol\":1071:1109   */\n      tag_74\n      jumpi\n      0x00\n      dup1\n      revert\n    tag_74:\n        /* \"devs/TokenManager.sol\":1566:1593   */\n      0x00\n        /* \"devs/TokenManager.sol\":1596:1606   */\n      0x03\n        /* \"devs/TokenManager.sol\":1596:1620   */\n      0x00\n        /* \"devs/TokenManager.sol\":1607:1619   */\n      sload(0x02)\n        /* \"devs/TokenManager.sol\":1596:1620   */\n      dup2\n      mstore\n      0x20\n      add\n      swap1\n      dup2\n      mstore\n      0x20\n      add\n      0x00\n      keccak256\n        /* \"devs/TokenManager.sol\":1566:1620   */\n      swap1\n      pop\n        /* \"devs/TokenManager.sol\":1650:1662   */\n      sload(0x02)\n        /* \"devs/TokenManager.sol\":1630:1639   */\n      dup2\n        /* \"devs/TokenManager.sol\":1630:1647   */\n      0x00\n      add\n        /* \"devs/TokenManager.sol\":1630:1662   */\n      dup2\n      swap1\n      sstore\n      pop\n        /* \"devs/TokenManager.sol\":1694:1704   */\n      dup5\n        /* \"devs/TokenManager.sol\":1672:1681   */\n      dup2\n        /* \"devs/TokenManager.sol\":1672:1691   */\n      0x02\n      add\n        /* \"devs/TokenManager.sol\":1672:1704   */\n      dup2\n      swap1\n      sstore\n      pop\n        /* \"devs/TokenManager.sol\":1732:1739   */\n      dup6\n        /* \"devs/TokenManager.sol\":1714:1723   */\n      dup2\n        /* \"devs/TokenManager.sol\":1714:1729   */\n      0x01\n      add\n      0x00\n        /* \"devs/TokenManager.sol\":1714:1739   */\n      0x0100\n      exp\n      dup2\n      sload\n      dup2\n      0xffffffffffffffffffffffffffffffffffffffff\n      mul\n      not\n      and\n      swap1\n      dup4\n      0xffffffffffffffffffffffffffffffffffffffff\n      and\n      mul\n      or\n      swap1\n      sstore\n      pop\n        /* \"devs/TokenManager.sol\":1768:1775   */\n      dup6\n        /* \"devs/TokenManager.sol\":1749:1758   */\n      dup2\n        /* \"devs/TokenManager.sol\":1749:1765   */\n      0x03\n      add\n      0x00\n        /* \"devs/TokenManager.sol\":1749:1775   */\n      0x0100\n      exp\n      dup2\n      sload\n      dup2\n      0xffffffffffffffffffffffffffffffffffffffff\n      mul\n      not\n      and\n      swap1\n      dup4\n      0xffffffffffffffffffffffffffffffffffffffff\n      and\n      mul\n      or\n      swap1\n      sstore\n      pop\n        /* \"devs/TokenManager.sol\":1813:1818   */\n      0x00\n        /* \"devs/TokenManager.sol\":1785:1794   */\n      dup2\n        /* \"devs/TokenManager.sol\":1785:1810   */\n      0x03\n      add\n      0x14\n        /* \"devs/TokenManager.sol\":1785:1818   */\n      0x0100\n      exp\n      dup2\n      sload\n      dup2\n      0xff\n      mul\n      not\n      and\n      swap1\n      dup4\n      iszero\n      iszero\n      mul\n      or\n      swap1\n      sstore\n      pop\n        /* \"devs/TokenManager.sol\":1847:1854   */\n      dup4\n        /* \"devs/TokenManager.sol\":1828:1837   */\n      dup2\n        /* \"devs/TokenManager.sol\":1828:1844   */\n      0x04\n      add\n        /* \"devs/TokenManager.sol\":1828:1854   */\n      dup2\n      swap1\n      sstore\n      pop\n        /* \"devs/TokenManager.sol\":1881:1886   */\n      dup3\n        /* \"devs/TokenManager.sol\":1864:1873   */\n      dup2\n        /* \"devs/TokenManager.sol\":1864:1878   */\n      0x05\n      add\n        /* \"devs/TokenManager.sol\":1864:1886   */\n      dup2\n      swap1\n      sstore\n      pop\n        /* \"devs/TokenManager.sol\":1896:1908   */\n      0x02\n      0x00\n        /* \"devs/TokenManager.sol\":1896:1910   */\n      dup2\n      sload\n      dup1\n      swap3\n      swap2\n      swap1\n      tag_76\n      swap1\n      tag_77\n      jump\t// in\n    tag_76:\n      swap2\n      swap1\n      pop\n      sstore\n      pop\n        /* \"devs/TokenManager.sol\":1927:1936   */\n      dup1\n        /* \"devs/TokenManager.sol\":1927:1944   */\n      0x00\n      add\n      sload\n        /* \"devs/TokenManager.sol\":1920:1944   */\n      swap2\n      pop\n      pop\n        /* \"devs/TokenManager.sol\":1439:1951   */\n      swap5\n      swap4\n      pop\n      pop\n      pop\n      pop\n      jump\t// out\n        /* \"devs/TokenManager.sol\":2527:2723   */\n    tag_54:\n        /* \"devs/TokenManager.sol\":2600:2608   */\n      dup2\n        /* \"devs/TokenManager.sol\":1195:1207   */\n      sload(0x02)\n        /* \"devs/TokenManager.sol\":1185:1192   */\n      dup2\n        /* \"devs/TokenManager.sol\":1185:1207   */\n      lt\n        /* \"devs/TokenManager.sol\":1177:1208   */\n      tag_79\n      jumpi\n      0x00\n      dup1\n      revert\n    tag_79:\n        /* \"devs/TokenManager.sol\":1098:1108   */\n      caller\n        /* \"devs/TokenManager.sol\":1079:1108   */\n      0xffffffffffffffffffffffffffffffffffffffff\n      and\n        /* \"devs/TokenManager.sol\":1079:1094   */\n      0x01\n      0x00\n      swap1\n      sload\n      swap1\n      0x0100\n      exp\n      swap1\n      div\n      0xffffffffffffffffffffffffffffffffffffffff\n      and\n        /* \"devs/TokenManager.sol\":1079:1108   */\n      0xffffffffffffffffffffffffffffffffffffffff\n      and\n      eq\n        /* \"devs/TokenManager.sol\":1071:1109   */\n      tag_81\n      jumpi\n      0x00\n      dup1\n      revert\n    tag_81:\n        /* \"devs/TokenManager.sol\":2630:2657   */\n      0x00\n        /* \"devs/TokenManager.sol\":2660:2670   */\n      0x03\n        /* \"devs/TokenManager.sol\":2660:2680   */\n      0x00\n        /* \"devs/TokenManager.sol\":2671:2679   */\n      dup6\n        /* \"devs/TokenManager.sol\":2660:2680   */\n      dup2\n      mstore\n      0x20\n      add\n      swap1\n      dup2\n      mstore\n      0x20\n      add\n      0x00\n      keccak256\n        /* \"devs/TokenManager.sol\":2630:2680   */\n      swap1\n      pop\n        /* \"devs/TokenManager.sol\":2709:2716   */\n      dup3\n        /* \"devs/TokenManager.sol\":2690:2699   */\n      dup2\n        /* \"devs/TokenManager.sol\":2690:2706   */\n      0x03\n      add\n      0x00\n        /* \"devs/TokenManager.sol\":2690:2716   */\n      0x0100\n      exp\n      dup2\n      sload\n      dup2\n      0xffffffffffffffffffffffffffffffffffffffff\n      mul\n      not\n      and\n      swap1\n      dup4\n      0xffffffffffffffffffffffffffffffffffffffff\n      and\n      mul\n      or\n      swap1\n      sstore\n      pop\n        /* \"devs/TokenManager.sol\":2620:2723   */\n      pop\n        /* \"devs/TokenManager.sol\":2527:2723   */\n      pop\n      pop\n      pop\n      jump\t// out\n        /* \"devs/TokenManager.sol\":2729:2919   */\n    tag_57:\n        /* \"devs/TokenManager.sol\":2783:2791   */\n      dup1\n        /* \"devs/TokenManager.sol\":1195:1207   */\n      sload(0x02)\n        /* \"devs/TokenManager.sol\":1185:1192   */\n      dup2\n        /* \"devs/TokenManager.sol\":1185:1207   */\n      lt\n        /* \"devs/TokenManager.sol\":1177:1208   */\n      tag_84\n      jumpi\n      0x00\n      dup1\n      revert\n    tag_84:\n        /* \"devs/TokenManager.sol\":1098:1108   */\n      caller\n        /* \"devs/TokenManager.sol\":1079:1108   */\n      0xffffffffffffffffffffffffffffffffffffffff\n      and\n        /* \"devs/TokenManager.sol\":1079:1094   */\n      0x01\n      0x00\n      swap1\n      sload\n      swap1\n      0x0100\n      exp\n      swap1\n      div\n      0xffffffffffffffffffffffffffffffffffffffff\n      and\n        /* \"devs/TokenManager.sol\":1079:1108   */\n      0xffffffffffffffffffffffffffffffffffffffff\n      and\n      eq\n        /* \"devs/TokenManager.sol\":1071:1109   */\n      tag_86\n      jumpi\n      0x00\n      dup1\n      revert\n    tag_86:\n        /* \"devs/TokenManager.sol\":2813:2840   */\n      0x00\n        /* \"devs/TokenManager.sol\":2843:2853   */\n      0x03\n        /* \"devs/TokenManager.sol\":2843:2863   */\n      0x00\n        /* \"devs/TokenManager.sol\":2854:2862   */\n      dup5\n        /* \"devs/TokenManager.sol\":2843:2863   */\n      dup2\n      mstore\n      0x20\n      add\n      swap1\n      dup2\n      mstore\n      0x20\n      add\n      0x00\n      keccak256\n        /* \"devs/TokenManager.sol\":2813:2863   */\n      swap1\n      pop\n        /* \"devs/TokenManager.sol\":2873:2912   */\n      tag_88\n        /* \"devs/TokenManager.sol\":2886:2894   */\n      dup4\n        /* \"devs/TokenManager.sol\":2896:2905   */\n      dup3\n        /* \"devs/TokenManager.sol\":2896:2911   */\n      0x01\n      add\n      0x00\n      swap1\n      sload\n      swap1\n      0x0100\n      exp\n      swap1\n      div\n      0xffffffffffffffffffffffffffffffffffffffff\n      and\n        /* \"devs/TokenManager.sol\":2873:2885   */\n      tag_54\n        /* \"devs/TokenManager.sol\":2873:2912   */\n      jump\t// in\n    tag_88:\n        /* \"devs/TokenManager.sol\":2803:2919   */\n      pop\n        /* \"devs/TokenManager.sol\":2729:2919   */\n      pop\n      pop\n      jump\t// out\n        /* \"devs/TokenManager.sol\":2056:2270   */\n    tag_61:\n        /* \"devs/TokenManager.sol\":2138:2146   */\n      dup2\n        /* \"devs/TokenManager.sol\":1195:1207   */\n      sload(0x02)\n        /* \"devs/TokenManager.sol\":1185:1192   */\n      dup2\n        /* \"devs/TokenManager.sol\":1185:1207   */\n      lt\n        /* \"devs/TokenManager.sol\":1177:1208   */\n      tag_90\n      jumpi\n      0x00\n      dup1\n      revert\n    tag_90:\n        /* \"devs/TokenManager.sol\":1098:1108   */\n      caller\n        /* \"devs/TokenManager.sol\":1079:1108   */\n      0xffffffffffffffffffffffffffffffffffffffff\n      and\n        /* \"devs/TokenManager.sol\":1079:1094   */\n      0x01\n      0x00\n      swap1\n      sload\n      swap1\n      0x0100\n      exp\n      swap1\n      div\n      0xffffffffffffffffffffffffffffffffffffffff\n      and\n        /* \"devs/TokenManager.sol\":1079:1108   */\n      0xffffffffffffffffffffffffffffffffffffffff\n      and\n      eq\n        /* \"devs/TokenManager.sol\":1071:1109   */\n      tag_92\n      jumpi\n      0x00\n      dup1\n      revert\n    tag_92:\n        /* \"devs/TokenManager.sol\":2168:2195   */\n      0x00\n        /* \"devs/TokenManager.sol\":2198:2208   */\n      0x03\n        /* \"devs/TokenManager.sol\":2198:2218   */\n      0x00\n        /* \"devs/TokenManager.sol\":2209:2217   */\n      dup6\n        /* \"devs/TokenManager.sol\":2198:2218   */\n      dup2\n      mstore\n      0x20\n      add\n      swap1\n      dup2\n      mstore\n      0x20\n      add\n      0x00\n      keccak256\n        /* \"devs/TokenManager.sol\":2168:2218   */\n      swap1\n      pop\n        /* \"devs/TokenManager.sol\":2256:2263   */\n      dup3\n        /* \"devs/TokenManager.sol\":2228:2237   */\n      dup2\n        /* \"devs/TokenManager.sol\":2228:2253   */\n      0x03\n      add\n      0x14\n        /* \"devs/TokenManager.sol\":2228:2263   */\n      0x0100\n      exp\n      dup2\n      sload\n      dup2\n      0xff\n      mul\n      not\n      and\n      swap1\n      dup4\n      iszero\n      iszero\n      mul\n      or\n      swap1\n      sstore\n      pop\n        /* \"devs/TokenManager.sol\":2158:2270   */\n      pop\n        /* \"devs/TokenManager.sol\":2056:2270   */\n      pop\n      pop\n      pop\n      jump\t// out\n        /* \"devs/TokenManager.sol\":922:952   */\n    tag_63:\n      0x01\n      0x00\n      swap1\n      sload\n      swap1\n      0x0100\n      exp\n      swap1\n      div\n      0xffffffffffffffffffffffffffffffffffffffff\n      and\n      dup2\n      jump\t// out\n        /* \"#utility.yul\":88:205   */\n    tag_95:\n        /* \"#utility.yul\":197:198   */\n      0x00\n        /* \"#utility.yul\":194:195   */\n      dup1\n        /* \"#utility.yul\":187:199   */\n      revert\n        /* \"#utility.yul\":334:411   */\n    tag_97:\n        /* \"#utility.yul\":371:378   */\n      0x00\n        /* \"#utility.yul\":400:405   */\n      dup2\n        /* \"#utility.yul\":389:405   */\n      swap1\n      pop\n        /* \"#utility.yul\":334:411   */\n      swap2\n      swap1\n      pop\n      jump\t// out\n        /* \"#utility.yul\":417:539   */\n    tag_98:\n        /* \"#utility.yul\":490:514   */\n      tag_117\n        /* \"#utility.yul\":508:513   */\n      dup2\n        /* \"#utility.yul\":490:514   */\n      tag_97\n      jump\t// in\n    tag_117:\n        /* \"#utility.yul\":483:488   */\n      dup2\n        /* \"#utility.yul\":480:515   */\n      eq\n        /* \"#utility.yul\":470:533   */\n      tag_118\n      jumpi\n        /* \"#utility.yul\":529:530   */\n      0x00\n        /* \"#utility.yul\":526:527   */\n      dup1\n        /* \"#utility.yul\":519:531   */\n      revert\n        /* \"#utility.yul\":470:533   */\n    tag_118:\n        /* \"#utility.yul\":417:539   */\n      pop\n      jump\t// out\n        /* \"#utility.yul\":545:684   */\n    tag_99:\n        /* \"#utility.yul\":591:596   */\n      0x00\n        /* \"#utility.yul\":629:635   */\n      dup2\n        /* \"#utility.yul\":616:636   */\n      calldataload\n        /* \"#utility.yul\":607:636   */\n      swap1\n      pop\n        /* \"#utility.yul\":645:678   */\n      tag_120\n        /* \"#utility.yul\":672:677   */\n      dup2\n        /* \"#utility.yul\":645:678   */\n      tag_98\n      jump\t// in\n    tag_120:\n        /* \"#utility.yul\":545:684   */\n      swap3\n      swap2\n      pop\n      pop\n      jump\t// out\n        /* \"#utility.yul\":690:1019   */\n    tag_18:\n        /* \"#utility.yul\":749:755   */\n      0x00\n        /* \"#utility.yul\":798:800   */\n      0x20\n        /* \"#utility.yul\":786:795   */\n      dup3\n        /* \"#utility.yul\":777:784   */\n      dup5\n        /* \"#utility.yul\":773:796   */\n      sub\n        /* \"#utility.yul\":769:801   */\n      slt\n        /* \"#utility.yul\":766:885   */\n      iszero\n      tag_122\n      jumpi\n        /* \"#utility.yul\":804:883   */\n      tag_123\n      tag_95\n      jump\t// in\n    tag_123:\n        /* \"#utility.yul\":766:885   */\n    tag_122:\n        /* \"#utility.yul\":924:925   */\n      0x00\n        /* \"#utility.yul\":949:1002   */\n      tag_124\n        /* \"#utility.yul\":994:1001   */\n      dup5\n        /* \"#utility.yul\":985:991   */\n      dup3\n        /* \"#utility.yul\":974:983   */\n      dup6\n        /* \"#utility.yul\":970:992   */\n      add\n        /* \"#utility.yul\":949:1002   */\n      tag_99\n      jump\t// in\n    tag_124:\n        /* \"#utility.yul\":939:1002   */\n      swap2\n      pop\n        /* \"#utility.yul\":895:1012   */\n      pop\n        /* \"#utility.yul\":690:1019   */\n      swap3\n      swap2\n      pop\n      pop\n      jump\t// out\n        /* \"#utility.yul\":1025:1143   */\n    tag_100:\n        /* \"#utility.yul\":1112:1136   */\n      tag_126\n        /* \"#utility.yul\":1130:1135   */\n      dup2\n        /* \"#utility.yul\":1112:1136   */\n      tag_97\n      jump\t// in\n    tag_126:\n        /* \"#utility.yul\":1107:1110   */\n      dup3\n        /* \"#utility.yul\":1100:1137   */\n      mstore\n        /* \"#utility.yul\":1025:1143   */\n      pop\n      pop\n      jump\t// out\n        /* \"#utility.yul\":1149:1371   */\n    tag_21:\n        /* \"#utility.yul\":1242:1246   */\n      0x00\n        /* \"#utility.yul\":1280:1282   */\n      0x20\n        /* \"#utility.yul\":1269:1278   */\n      dup3\n        /* \"#utility.yul\":1265:1283   */\n      add\n        /* \"#utility.yul\":1257:1283   */\n      swap1\n      pop\n        /* \"#utility.yul\":1293:1364   */\n      tag_128\n        /* \"#utility.yul\":1361:1362   */\n      0x00\n        /* \"#utility.yul\":1350:1359   */\n      dup4\n        /* \"#utility.yul\":1346:1363   */\n      add\n        /* \"#utility.yul\":1337:1343   */\n      dup5\n        /* \"#utility.yul\":1293:1364   */\n      tag_100\n      jump\t// in\n    tag_128:\n        /* \"#utility.yul\":1149:1371   */\n      swap3\n      swap2\n      pop\n      pop\n      jump\t// out\n        /* \"#utility.yul\":1377:1503   */\n    tag_101:\n        /* \"#utility.yul\":1414:1421   */\n      0x00\n        /* \"#utility.yul\":1454:1496   */\n      0xffffffffffffffffffffffffffffffffffffffff\n        /* \"#utility.yul\":1447:1452   */\n      dup3\n        /* \"#utility.yul\":1443:1497   */\n      and\n        /* \"#utility.yul\":1432:1497   */\n      swap1\n      pop\n        /* \"#utility.yul\":1377:1503   */\n      swap2\n      swap1\n      pop\n      jump\t// out\n        /* \"#utility.yul\":1509:1605   */\n    tag_102:\n        /* \"#utility.yul\":1546:1553   */\n      0x00\n        /* \"#utility.yul\":1575:1599   */\n      tag_131\n        /* \"#utility.yul\":1593:1598   */\n      dup3\n        /* \"#utility.yul\":1575:1599   */\n      tag_101\n      jump\t// in\n    tag_131:\n        /* \"#utility.yul\":1564:1599   */\n      swap1\n      pop\n        /* \"#utility.yul\":1509:1605   */\n      swap2\n      swap1\n      pop\n      jump\t// out\n        /* \"#utility.yul\":1611:1729   */\n    tag_103:\n        /* \"#utility.yul\":1698:1722   */\n      tag_133\n        /* \"#utility.yul\":1716:1721   */\n      dup2\n        /* \"#utility.yul\":1698:1722   */\n      tag_102\n      jump\t// in\n    tag_133:\n        /* \"#utility.yul\":1693:1696   */\n      dup3\n        /* \"#utility.yul\":1686:1723   */\n      mstore\n        /* \"#utility.yul\":1611:1729   */\n      pop\n      pop\n      jump\t// out\n        /* \"#utility.yul\":1735:1957   */\n    tag_26:\n        /* \"#utility.yul\":1828:1832   */\n      0x00\n        /* \"#utility.yul\":1866:1868   */\n      0x20\n        /* \"#utility.yul\":1855:1864   */\n      dup3\n        /* \"#utility.yul\":1851:1869   */\n      add\n        /* \"#utility.yul\":1843:1869   */\n      swap1\n      pop\n        /* \"#utility.yul\":1879:1950   */\n      tag_135\n        /* \"#utility.yul\":1947:1948   */\n      0x00\n        /* \"#utility.yul\":1936:1945   */\n      dup4\n        /* \"#utility.yul\":1932:1949   */\n      add\n        /* \"#utility.yul\":1923:1929   */\n      dup5\n        /* \"#utility.yul\":1879:1950   */\n      tag_103\n      jump\t// in\n    tag_135:\n        /* \"#utility.yul\":1735:1957   */\n      swap3\n      swap2\n      pop\n      pop\n      jump\t// out\n        /* \"#utility.yul\":1963:2053   */\n    tag_104:\n        /* \"#utility.yul\":1997:2004   */\n      0x00\n        /* \"#utility.yul\":2040:2045   */\n      dup2\n        /* \"#utility.yul\":2033:2046   */\n      iszero\n        /* \"#utility.yul\":2026:2047   */\n      iszero\n        /* \"#utility.yul\":2015:2047   */\n      swap1\n      pop\n        /* \"#utility.yul\":1963:2053   */\n      swap2\n      swap1\n      pop\n      jump\t// out\n        /* \"#utility.yul\":2059:2168   */\n    tag_105:\n        /* \"#utility.yul\":2140:2161   */\n      tag_138\n        /* \"#utility.yul\":2155:2160   */\n      dup2\n        /* \"#utility.yul\":2140:2161   */\n      tag_104\n      jump\t// in\n    tag_138:\n        /* \"#utility.yul\":2135:2138   */\n      dup3\n        /* \"#utility.yul\":2128:2162   */\n      mstore\n        /* \"#utility.yul\":2059:2168   */\n      pop\n      pop\n      jump\t// out\n        /* \"#utility.yul\":2174:3048   */\n    tag_35:\n        /* \"#utility.yul\":2429:2433   */\n      0x00\n        /* \"#utility.yul\":2467:2470   */\n      0xe0\n        /* \"#utility.yul\":2456:2465   */\n      dup3\n        /* \"#utility.yul\":2452:2471   */\n      add\n        /* \"#utility.yul\":2444:2471   */\n      swap1\n      pop\n        /* \"#utility.yul\":2481:2552   */\n      tag_140\n        /* \"#utility.yul\":2549:2550   */\n      0x00\n        /* \"#utility.yul\":2538:2547   */\n      dup4\n        /* \"#utility.yul\":2534:2551   */\n      add\n        /* \"#utility.yul\":2525:2531   */\n      dup11\n        /* \"#utility.yul\":2481:2552   */\n      tag_100\n      jump\t// in\n    tag_140:\n        /* \"#utility.yul\":2562:2634   */\n      tag_141\n        /* \"#utility.yul\":2630:2632   */\n      0x20\n        /* \"#utility.yul\":2619:2628   */\n      dup4\n        /* \"#utility.yul\":2615:2633   */\n      add\n        /* \"#utility.yul\":2606:2612   */\n      dup10\n        /* \"#utility.yul\":2562:2634   */\n      tag_103\n      jump\t// in\n    tag_141:\n        /* \"#utility.yul\":2644:2716   */\n      tag_142\n        /* \"#utility.yul\":2712:2714   */\n      0x40\n        /* \"#utility.yul\":2701:2710   */\n      dup4\n        /* \"#utility.yul\":2697:2715   */\n      add\n        /* \"#utility.yul\":2688:2694   */\n      dup9\n        /* \"#utility.yul\":2644:2716   */\n      tag_100\n      jump\t// in\n    tag_142:\n        /* \"#utility.yul\":2726:2798   */\n      tag_143\n        /* \"#utility.yul\":2794:2796   */\n      0x60\n        /* \"#utility.yul\":2783:2792   */\n      dup4\n        /* \"#utility.yul\":2779:2797   */\n      add\n        /* \"#utility.yul\":2770:2776   */\n      dup8\n        /* \"#utility.yul\":2726:2798   */\n      tag_103\n      jump\t// in\n    tag_143:\n        /* \"#utility.yul\":2808:2875   */\n      tag_144\n        /* \"#utility.yul\":2870:2873   */\n      0x80\n        /* \"#utility.yul\":2859:2868   */\n      dup4\n        /* \"#utility.yul\":2855:2874   */\n      add\n        /* \"#utility.yul\":2846:2852   */\n      dup7\n        /* \"#utility.yul\":2808:2875   */\n      tag_105\n      jump\t// in\n    tag_144:\n        /* \"#utility.yul\":2885:2958   */\n      tag_145\n        /* \"#utility.yul\":2953:2956   */\n      0xa0\n        /* \"#utility.yul\":2942:2951   */\n      dup4\n        /* \"#utility.yul\":2938:2957   */\n      add\n        /* \"#utility.yul\":2929:2935   */\n      dup6\n        /* \"#utility.yul\":2885:2958   */\n      tag_100\n      jump\t// in\n    tag_145:\n        /* \"#utility.yul\":2968:3041   */\n      tag_146\n        /* \"#utility.yul\":3036:3039   */\n      0xc0\n        /* \"#utility.yul\":3025:3034   */\n      dup4\n        /* \"#utility.yul\":3021:3040   */\n      add\n        /* \"#utility.yul\":3012:3018   */\n      dup5\n        /* \"#utility.yul\":2968:3041   */\n      tag_100\n      jump\t// in\n    tag_146:\n        /* \"#utility.yul\":2174:3048   */\n      swap9\n      swap8\n      pop\n      pop\n      pop\n      pop\n      pop\n      pop\n      pop\n      pop\n      jump\t// out\n        /* \"#utility.yul\":3054:3673   */\n    tag_41:\n        /* \"#utility.yul\":3131:3137   */\n      0x00\n        /* \"#utility.yul\":3139:3145   */\n      dup1\n        /* \"#utility.yul\":3147:3153   */\n      0x00\n        /* \"#utility.yul\":3196:3198   */\n      0x60\n        /* \"#utility.yul\":3184:3193   */\n      dup5\n        /* \"#utility.yul\":3175:3182   */\n      dup7\n        /* \"#utility.yul\":3171:3194   */\n      sub\n        /* \"#utility.yul\":3167:3199   */\n      slt\n        /* \"#utility.yul\":3164:3283   */\n      iszero\n      tag_148\n      jumpi\n        /* \"#utility.yul\":3202:3281   */\n      tag_149\n      tag_95\n      jump\t// in\n    tag_149:\n        /* \"#utility.yul\":3164:3283   */\n    tag_148:\n        /* \"#utility.yul\":3322:3323   */\n      0x00\n        /* \"#utility.yul\":3347:3400   */\n      tag_150\n        /* \"#utility.yul\":3392:3399   */\n      dup7\n        /* \"#utility.yul\":3383:3389   */\n      dup3\n        /* \"#utility.yul\":3372:3381   */\n      dup8\n        /* \"#utility.yul\":3368:3390   */\n      add\n        /* \"#utility.yul\":3347:3400   */\n      tag_99\n      jump\t// in\n    tag_150:\n        /* \"#utility.yul\":3337:3400   */\n      swap4\n      pop\n        /* \"#utility.yul\":3293:3410   */\n      pop\n        /* \"#utility.yul\":3449:3451   */\n      0x20\n        /* \"#utility.yul\":3475:3528   */\n      tag_151\n        /* \"#utility.yul\":3520:3527   */\n      dup7\n        /* \"#utility.yul\":3511:3517   */\n      dup3\n        /* \"#utility.yul\":3500:3509   */\n      dup8\n        /* \"#utility.yul\":3496:3518   */\n      add\n        /* \"#utility.yul\":3475:3528   */\n      tag_99\n      jump\t// in\n    tag_151:\n        /* \"#utility.yul\":3465:3528   */\n      swap3\n      pop\n        /* \"#utility.yul\":3420:3538   */\n      pop\n        /* \"#utility.yul\":3577:3579   */\n      0x40\n        /* \"#utility.yul\":3603:3656   */\n      tag_152\n        /* \"#utility.yul\":3648:3655   */\n      dup7\n        /* \"#utility.yul\":3639:3645   */\n      dup3\n        /* \"#utility.yul\":3628:3637   */\n      dup8\n        /* \"#utility.yul\":3624:3646   */\n      add\n        /* \"#utility.yul\":3603:3656   */\n      tag_99\n      jump\t// in\n    tag_152:\n        /* \"#utility.yul\":3593:3656   */\n      swap2\n      pop\n        /* \"#utility.yul\":3548:3666   */\n      pop\n        /* \"#utility.yul\":3054:3673   */\n      swap3\n      pop\n      swap3\n      pop\n      swap3\n      jump\t// out\n        /* \"#utility.yul\":3679:3801   */\n    tag_106:\n        /* \"#utility.yul\":3752:3776   */\n      tag_154\n        /* \"#utility.yul\":3770:3775   */\n      dup2\n        /* \"#utility.yul\":3752:3776   */\n      tag_102\n      jump\t// in\n    tag_154:\n        /* \"#utility.yul\":3745:3750   */\n      dup2\n        /* \"#utility.yul\":3742:3777   */\n      eq\n        /* \"#utility.yul\":3732:3795   */\n      tag_155\n      jumpi\n        /* \"#utility.yul\":3791:3792   */\n      0x00\n        /* \"#utility.yul\":3788:3789   */\n      dup1\n        /* \"#utility.yul\":3781:3793   */\n      revert\n        /* \"#utility.yul\":3732:3795   */\n    tag_155:\n        /* \"#utility.yul\":3679:3801   */\n      pop\n      jump\t// out\n        /* \"#utility.yul\":3807:3946   */\n    tag_107:\n        /* \"#utility.yul\":3853:3858   */\n      0x00\n        /* \"#utility.yul\":3891:3897   */\n      dup2\n        /* \"#utility.yul\":3878:3898   */\n      calldataload\n        /* \"#utility.yul\":3869:3898   */\n      swap1\n      pop\n        /* \"#utility.yul\":3907:3940   */\n      tag_157\n        /* \"#utility.yul\":3934:3939   */\n      dup2\n        /* \"#utility.yul\":3907:3940   */\n      tag_106\n      jump\t// in\n    tag_157:\n        /* \"#utility.yul\":3807:3946   */\n      swap3\n      swap2\n      pop\n      pop\n      jump\t// out\n        /* \"#utility.yul\":3952:4717   */\n    tag_48:\n        /* \"#utility.yul\":4038:4044   */\n      0x00\n        /* \"#utility.yul\":4046:4052   */\n      dup1\n        /* \"#utility.yul\":4054:4060   */\n      0x00\n        /* \"#utility.yul\":4062:4068   */\n      dup1\n        /* \"#utility.yul\":4111:4114   */\n      0x80\n        /* \"#utility.yul\":4099:4108   */\n      dup6\n        /* \"#utility.yul\":4090:4097   */\n      dup8\n        /* \"#utility.yul\":4086:4109   */\n      sub\n        /* \"#utility.yul\":4082:4115   */\n      slt\n        /* \"#utility.yul\":4079:4199   */\n      iszero\n      tag_159\n      jumpi\n        /* \"#utility.yul\":4118:4197   */\n      tag_160\n      tag_95\n      jump\t// in\n    tag_160:\n        /* \"#utility.yul\":4079:4199   */\n    tag_159:\n        /* \"#utility.yul\":4238:4239   */\n      0x00\n        /* \"#utility.yul\":4263:4316   */\n      tag_161\n        /* \"#utility.yul\":4308:4315   */\n      dup8\n        /* \"#utility.yul\":4299:4305   */\n      dup3\n        /* \"#utility.yul\":4288:4297   */\n      dup9\n        /* \"#utility.yul\":4284:4306   */\n      add\n        /* \"#utility.yul\":4263:4316   */\n      tag_107\n      jump\t// in\n    tag_161:\n        /* \"#utility.yul\":4253:4316   */\n      swap5\n      pop\n        /* \"#utility.yul\":4209:4326   */\n      pop\n        /* \"#utility.yul\":4365:4367   */\n      0x20\n        /* \"#utility.yul\":4391:4444   */\n      tag_162\n        /* \"#utility.yul\":4436:4443   */\n      dup8\n        /* \"#utility.yul\":4427:4433   */\n      dup3\n        /* \"#utility.yul\":4416:4425   */\n      dup9\n        /* \"#utility.yul\":4412:4434   */\n      add\n        /* \"#utility.yul\":4391:4444   */\n      tag_99\n      jump\t// in\n    tag_162:\n        /* \"#utility.yul\":4381:4444   */\n      swap4\n      pop\n        /* \"#utility.yul\":4336:4454   */\n      pop\n        /* \"#utility.yul\":4493:4495   */\n      0x40\n        /* \"#utility.yul\":4519:4572   */\n      tag_163\n        /* \"#utility.yul\":4564:4571   */\n      dup8\n        /* \"#utility.yul\":4555:4561   */\n      dup3\n        /* \"#utility.yul\":4544:4553   */\n      dup9\n        /* \"#utility.yul\":4540:4562   */\n      add\n        /* \"#utility.yul\":4519:4572   */\n      tag_99\n      jump\t// in\n    tag_163:\n        /* \"#utility.yul\":4509:4572   */\n      swap3\n      pop\n        /* \"#utility.yul\":4464:4582   */\n      pop\n        /* \"#utility.yul\":4621:4623   */\n      0x60\n        /* \"#utility.yul\":4647:4700   */\n      tag_164\n        /* \"#utility.yul\":4692:4699   */\n      dup8\n        /* \"#utility.yul\":4683:4689   */\n      dup3\n        /* \"#utility.yul\":4672:4681   */\n      dup9\n        /* \"#utility.yul\":4668:4690   */\n      add\n        /* \"#utility.yul\":4647:4700   */\n      tag_99\n      jump\t// in\n    tag_164:\n        /* \"#utility.yul\":4637:4700   */\n      swap2\n      pop\n        /* \"#utility.yul\":4592:4710   */\n      pop\n        /* \"#utility.yul\":3952:4717   */\n      swap3\n      swap6\n      swap2\n      swap5\n      pop\n      swap3\n      pop\n      jump\t// out\n        /* \"#utility.yul\":4723:5197   */\n    tag_53:\n        /* \"#utility.yul\":4791:4797   */\n      0x00\n        /* \"#utility.yul\":4799:4805   */\n      dup1\n        /* \"#utility.yul\":4848:4850   */\n      0x40\n        /* \"#utility.yul\":4836:4845   */\n      dup4\n        /* \"#utility.yul\":4827:4834   */\n      dup6\n        /* \"#utility.yul\":4823:4846   */\n      sub\n        /* \"#utility.yul\":4819:4851   */\n      slt\n        /* \"#utility.yul\":4816:4935   */\n      iszero\n      tag_166\n      jumpi\n        /* \"#utility.yul\":4854:4933   */\n      tag_167\n      tag_95\n      jump\t// in\n    tag_167:\n        /* \"#utility.yul\":4816:4935   */\n    tag_166:\n        /* \"#utility.yul\":4974:4975   */\n      0x00\n        /* \"#utility.yul\":4999:5052   */\n      tag_168\n        /* \"#utility.yul\":5044:5051   */\n      dup6\n        /* \"#utility.yul\":5035:5041   */\n      dup3\n        /* \"#utility.yul\":5024:5033   */\n      dup7\n        /* \"#utility.yul\":5020:5042   */\n      add\n        /* \"#utility.yul\":4999:5052   */\n      tag_99\n      jump\t// in\n    tag_168:\n        /* \"#utility.yul\":4989:5052   */\n      swap3\n      pop\n        /* \"#utility.yul\":4945:5062   */\n      pop\n        /* \"#utility.yul\":5101:5103   */\n      0x20\n        /* \"#utility.yul\":5127:5180   */\n      tag_169\n        /* \"#utility.yul\":5172:5179   */\n      dup6\n        /* \"#utility.yul\":5163:5169   */\n      dup3\n        /* \"#utility.yul\":5152:5161   */\n      dup7\n        /* \"#utility.yul\":5148:5170   */\n      add\n        /* \"#utility.yul\":5127:5180   */\n      tag_107\n      jump\t// in\n    tag_169:\n        /* \"#utility.yul\":5117:5180   */\n      swap2\n      pop\n        /* \"#utility.yul\":5072:5190   */\n      pop\n        /* \"#utility.yul\":4723:5197   */\n      swap3\n      pop\n      swap3\n      swap1\n      pop\n      jump\t// out\n        /* \"#utility.yul\":5203:5319   */\n    tag_108:\n        /* \"#utility.yul\":5273:5294   */\n      tag_171\n        /* \"#utility.yul\":5288:5293   */\n      dup2\n        /* \"#utility.yul\":5273:5294   */\n      tag_104\n      jump\t// in\n    tag_171:\n        /* \"#utility.yul\":5266:5271   */\n      dup2\n        /* \"#utility.yul\":5263:5295   */\n      eq\n        /* \"#utility.yul\":5253:5313   */\n      tag_172\n      jumpi\n        /* \"#utility.yul\":5309:5310   */\n      0x00\n        /* \"#utility.yul\":5306:5307   */\n      dup1\n        /* \"#utility.yul\":5299:5311   */\n      revert\n        /* \"#utility.yul\":5253:5313   */\n    tag_172:\n        /* \"#utility.yul\":5203:5319   */\n      pop\n      jump\t// out\n        /* \"#utility.yul\":5325:5458   */\n    tag_109:\n        /* \"#utility.yul\":5368:5373   */\n      0x00\n        /* \"#utility.yul\":5406:5412   */\n      dup2\n        /* \"#utility.yul\":5393:5413   */\n      calldataload\n        /* \"#utility.yul\":5384:5413   */\n      swap1\n      pop\n        /* \"#utility.yul\":5422:5452   */\n      tag_174\n        /* \"#utility.yul\":5446:5451   */\n      dup2\n        /* \"#utility.yul\":5422:5452   */\n      tag_108\n      jump\t// in\n    tag_174:\n        /* \"#utility.yul\":5325:5458   */\n      swap3\n      swap2\n      pop\n      pop\n      jump\t// out\n        /* \"#utility.yul\":5464:5932   */\n    tag_60:\n        /* \"#utility.yul\":5529:5535   */\n      0x00\n        /* \"#utility.yul\":5537:5543   */\n      dup1\n        /* \"#utility.yul\":5586:5588   */\n      0x40\n        /* \"#utility.yul\":5574:5583   */\n      dup4\n        /* \"#utility.yul\":5565:5572   */\n      dup6\n        /* \"#utility.yul\":5561:5584   */\n      sub\n        /* \"#utility.yul\":5557:5589   */\n      slt\n        /* \"#utility.yul\":5554:5673   */\n      iszero\n      tag_176\n      jumpi\n        /* \"#utility.yul\":5592:5671   */\n      tag_177\n      tag_95\n      jump\t// in\n    tag_177:\n        /* \"#utility.yul\":5554:5673   */\n    tag_176:\n        /* \"#utility.yul\":5712:5713   */\n      0x00\n        /* \"#utility.yul\":5737:5790   */\n      tag_178\n        /* \"#utility.yul\":5782:5789   */\n      dup6\n        /* \"#utility.yul\":5773:5779   */\n      dup3\n        /* \"#utility.yul\":5762:5771   */\n      dup7\n        /* \"#utility.yul\":5758:5780   */\n      add\n        /* \"#utility.yul\":5737:5790   */\n      tag_99\n      jump\t// in\n    tag_178:\n        /* \"#utility.yul\":5727:5790   */\n      swap3\n      pop\n        /* \"#utility.yul\":5683:5800   */\n      pop\n        /* \"#utility.yul\":5839:5841   */\n      0x20\n        /* \"#utility.yul\":5865:5915   */\n      tag_179\n        /* \"#utility.yul\":5907:5914   */\n      dup6\n        /* \"#utility.yul\":5898:5904   */\n      dup3\n        /* \"#utility.yul\":5887:5896   */\n      dup7\n        /* \"#utility.yul\":5883:5905   */\n      add\n        /* \"#utility.yul\":5865:5915   */\n      tag_109\n      jump\t// in\n    tag_179:\n        /* \"#utility.yul\":5855:5915   */\n      swap2\n      pop\n        /* \"#utility.yul\":5810:5925   */\n      pop\n        /* \"#utility.yul\":5464:5932   */\n      swap3\n      pop\n      swap3\n      swap1\n      pop\n      jump\t// out\n        /* \"#utility.yul\":5938:6118   */\n    tag_110:\n        /* \"#utility.yul\":5986:6063   */\n      0x4e487b7100000000000000000000000000000000000000000000000000000000\n        /* \"#utility.yul\":5983:5984   */\n      0x00\n        /* \"#utility.yul\":5976:6064   */\n      mstore\n        /* \"#utility.yul\":6083:6087   */\n      0x11\n        /* \"#utility.yul\":6080:6081   */\n      0x04\n        /* \"#utility.yul\":6073:6088   */\n      mstore\n        /* \"#utility.yul\":6107:6111   */\n      0x24\n        /* \"#utility.yul\":6104:6105   */\n      0x00\n        /* \"#utility.yul\":6097:6112   */\n      revert\n        /* \"#utility.yul\":6124:6357   */\n    tag_77:\n        /* \"#utility.yul\":6163:6166   */\n      0x00\n        /* \"#utility.yul\":6186:6210   */\n      tag_182\n        /* \"#utility.yul\":6204:6209   */\n      dup3\n        /* \"#utility.yul\":6186:6210   */\n      tag_97\n      jump\t// in\n    tag_182:\n        /* \"#utility.yul\":6177:6210   */\n      swap2\n      pop\n        /* \"#utility.yul\":6232:6298   */\n      0xffffffffffffffffffffffffffffffffffffffffffffffffffffffffffffffff\n        /* \"#utility.yul\":6225:6230   */\n      dup3\n        /* \"#utility.yul\":6222:6299   */\n      eq\n        /* \"#utility.yul\":6219:6322   */\n      iszero\n      tag_183\n      jumpi\n        /* \"#utility.yul\":6302:6320   */\n      tag_184\n      tag_110\n      jump\t// in\n    tag_184:\n        /* \"#utility.yul\":6219:6322   */\n    tag_183:\n        /* \"#utility.yul\":6349:6350   */\n      0x01\n        /* \"#utility.yul\":6342:6347   */\n      dup3\n        /* \"#utility.yul\":6338:6351   */\n      add\n        /* \"#utility.yul\":6331:6351   */\n      swap1\n      pop\n        /* \"#utility.yul\":6124:6357   */\n      swap2\n      swap1\n      pop\n      jump\t// out\n\n    auxdata: 0xa2646970667358221220be57c9497222e4cafff449b5e92bcc2a3ffc5b2cc30f31b0faf34d8e97cacc4b64736f6c634300080a0033\n}\n","bytecode":{"linkReferences":{},"object":"608060405234801561001057600080fd5b5060405162000fe538038062000fe58339818101604052810190610034919061011e565b806000806101000a81548173ffffffffffffffffffffffffffffffffffffffff021916908373ffffffffffffffffffffffffffffffffffffffff16021790555033600160006101000a81548173ffffffffffffffffffffffffffffffffffffffff021916908373ffffffffffffffffffffffffffffffffffffffff1602179055505061014b565b600080fd5b600073ffffffffffffffffffffffffffffffffffffffff82169050919050565b60006100eb826100c0565b9050919050565b6100fb816100e0565b811461010657600080fd5b50565b600081519050610118816100f2565b92915050565b600060208284031215610134576101336100bb565b5b600061014284828501610109565b91505092915050565b610e8a806200015b6000396000f3fe608060405234801561001057600080fd5b50600436106100b45760003560e01c8063921c47b111610071578063921c47b1146101b9578063a46d8ac7146101d7578063ab21a2be14610207578063ca5140c914610223578063ef228c921461023f578063f6b4dfb41461025b576100b4565b80631ce06944146100b95780633b2f7118146100e957806367615ad51461011957806383b65cb4146101495780638da5cb5b1461017f5780638dbbfbde1461019d575b600080fd5b6100d360048036038101906100ce9190610b0d565b610279565b6040516100e09190610b49565b60405180910390f35b61010360048036038101906100fe9190610b0d565b610398565b6040516101109190610ba5565b60405180910390f35b610133600480360381019061012e9190610b0d565b6104b7565b6040516101409190610b49565b60405180910390f35b610163600480360381019061015e9190610b0d565b6105d6565b6040516101769796959493929190610bdb565b60405180910390f35b610187610665565b6040516101949190610ba5565b60405180910390f35b6101b760048036038101906101b29190610c4a565b610689565b005b6101c1610722565b6040516101ce9190610b49565b60405180910390f35b6101f160048036038101906101ec9190610cc9565b610728565b6040516101fe9190610b49565b60405180910390f35b610221600480360381019061021c9190610d30565b61088e565b005b61023d60048036038101906102389190610b0d565b610957565b005b61025960048036038101906102549190610d9c565b610a0a565b005b610263610aac565b6040516102709190610ba5565b60405180910390f35b600080600360008481526020019081526020016000206040518060e0016040529081600082015481526020016001820160009054906101000a900473ffffffffffffffffffffffffffffffffffffffff1673ffffffffffffffffffffffffffffffffffffffff1673ffffffffffffffffffffffffffffffffffffffff168152602001600282015481526020016003820160009054906101000a900473ffffffffffffffffffffffffffffffffffffffff1673ffffffffffffffffffffffffffffffffffffffff1673ffffffffffffffffffffffffffffffffffffffff1681526020016003820160149054906101000a900460ff161515151581526020016004820154815260200160058201548152505090508060c00151915050919050565b600080600360008481526020019081526020016000206040518060e0016040529081600082015481526020016001820160009054906101000a900473ffffffffffffffffffffffffffffffffffffffff1673ffffffffffffffffffffffffffffffffffffffff1673ffffffffffffffffffffffffffffffffffffffff168152602001600282015481526020016003820160009054906101000a900473ffffffffffffffffffffffffffffffffffffffff1673ffffffffffffffffffffffffffffffffffffffff1673ffffffffffffffffffffffffffffffffffffffff1681526020016003820160149054906101000a900460ff161515151581526020016004820154815260200160058201548152505090508060600151915050919050565b600080600360008481526020019081526020016000206040518060e0016040529081600082015481526020016001820160009054906101000a900473ffffffffffffffffffffffffffffffffffffffff1673ffffffffffffffffffffffffffffffffffffffff1673ffffffffffffffffffffffffffffffffffffffff168152602001600282015481526020016003820160009054906101000a900473ffffffffffffffffffffffffffffffffffffffff1673ffffffffffffffffffffffffffffffffffffffff1673ffffffffffffffffffffffffffffffffffffffff1681526020016003820160149054906101000a900460ff161515151581526020016004820154815260200160058201548152505090508060400151915050919050565b60036020528060005260406000206000915090508060000154908060010160009054906101000a900473ffffffffffffffffffffffffffffffffffffffff16908060020154908060030160009054906101000a900473ffffffffffffffffffffffffffffffffffffffff16908060030160149054906101000a900460ff16908060040154908060050154905087565b60008054906101000a900473ffffffffffffffffffffffffffffffffffffffff1681565b82600254811061069857600080fd5b3373ffffffffffffffffffffffffffffffffffffffff16600160009054906101000a900473ffffffffffffffffffffffffffffffffffffffff1673ffffffffffffffffffffffffffffffffffffffff16146106f257600080fd5b60006003600086815260200190815260200160002090508381600401819055508281600501819055505050505050565b60025481565b60003373ffffffffffffffffffffffffffffffffffffffff16600160009054906101000a900473ffffffffffffffffffffffffffffffffffffffff1673ffffffffffffffffffffffffffffffffffffffff161461078457600080fd5b600060036000600254815260200190815260200160002090506002548160000181905550848160020181905550858160010160006101000a81548173ffffffffffffffffffffffffffffffffffffffff021916908373ffffffffffffffffffffffffffffffffffffffff160217905550858160030160006101000a81548173ffffffffffffffffffffffffffffffffffffffff021916908373ffffffffffffffffffffffffffffffffffffffff16021790555060008160030160146101000a81548160ff0219169083151502179055508381600401819055508281600501819055506002600081548092919061087990610e0b565b91905055508060000154915050949350505050565b81600254811061089d57600080fd5b3373ffffffffffffffffffffffffffffffffffffffff16600160009054906101000a900473ffffffffffffffffffffffffffffffffffffffff1673ffffffffffffffffffffffffffffffffffffffff16146108f757600080fd5b6000600360008581526020019081526020016000209050828160030160006101000a81548173ffffffffffffffffffffffffffffffffffffffff021916908373ffffffffffffffffffffffffffffffffffffffff16021790555050505050565b80600254811061096657600080fd5b3373ffffffffffffffffffffffffffffffffffffffff16600160009054906101000a900473ffffffffffffffffffffffffffffffffffffffff1673ffffffffffffffffffffffffffffffffffffffff16146109c057600080fd5b6000600360008481526020019081526020016000209050610a05838260010160009054906101000a900473ffffffffffffffffffffffffffffffffffffffff1661088e565b505050565b816002548110610a1957600080fd5b3373ffffffffffffffffffffffffffffffffffffffff16600160009054906101000a900473ffffffffffffffffffffffffffffffffffffffff1673ffffffffffffffffffffffffffffffffffffffff1614610a7357600080fd5b6000600360008581526020019081526020016000209050828160030160146101000a81548160ff02191690831515021790555050505050565b600160009054906101000a900473ffffffffffffffffffffffffffffffffffffffff1681565b600080fd5b6000819050919050565b610aea81610ad7565b8114610af557600080fd5b50565b600081359050610b0781610ae1565b92915050565b600060208284031215610b2357610b22610ad2565b5b6000610b3184828501610af8565b91505092915050565b610b4381610ad7565b82525050565b6000602082019050610b5e6000830184610b3a565b92915050565b600073ffffffffffffffffffffffffffffffffffffffff82169050919050565b6000610b8f82610b64565b9050919050565b610b9f81610b84565b82525050565b6000602082019050610bba6000830184610b96565b92915050565b60008115159050919050565b610bd581610bc0565b82525050565b600060e082019050610bf0600083018a610b3a565b610bfd6020830189610b96565b610c0a6040830188610b3a565b610c176060830187610b96565b610c246080830186610bcc565b610c3160a0830185610b3a565b610c3e60c0830184610b3a565b98975050505050505050565b600080600060608486031215610c6357610c62610ad2565b5b6000610c7186828701610af8565b9350506020610c8286828701610af8565b9250506040610c9386828701610af8565b9150509250925092565b610ca681610b84565b8114610cb157600080fd5b50565b600081359050610cc381610c9d565b92915050565b60008060008060808587031215610ce357610ce2610ad2565b5b6000610cf187828801610cb4565b9450506020610d0287828801610af8565b9350506040610d1387828801610af8565b9250506060610d2487828801610af8565b91505092959194509250565b60008060408385031215610d4757610d46610ad2565b5b6000610d5585828601610af8565b9250506020610d6685828601610cb4565b9150509250929050565b610d7981610bc0565b8114610d8457600080fd5b50565b600081359050610d9681610d70565b92915050565b60008060408385031215610db357610db2610ad2565b5b6000610dc185828601610af8565b9250506020610dd285828601610d87565b9150509250929050565b7f4e487b7100000000000000000000000000000000000000000000000000000000600052601160045260246000fd5b6000610e1682610ad7565b91507fffffffffffffffffffffffffffffffffffffffffffffffffffffffffffffffff821415610e4957610e48610ddc565b5b60018201905091905056fea2646970667358221220be57c9497222e4cafff449b5e92bcc2a3ffc5b2cc30f31b0faf34d8e97cacc4b64736f6c634300080a0033","opcodes":"PUSH1 0x80 PUSH1 0x40 MSTORE CALLVALUE DUP1 ISZERO PUSH2 0x10 JUMPI PUSH1 0x0 DUP1 REVERT JUMPDEST POP PUSH1 0x40 MLOAD PUSH3 0xFE5 CODESIZE SUB DUP1 PUSH3 0xFE5 DUP4 CODECOPY DUP2 DUP2 ADD PUSH1 0x40 MSTORE DUP2 ADD SWAP1 PUSH2 0x34 SWAP2 SWAP1 PUSH2 0x11E JUMP JUMPDEST DUP1 PUSH1 0x0 DUP1 PUSH2 0x100 EXP DUP2 SLOAD DUP2 PUSH20 0xFFFFFFFFFFFFFFFFFFFFFFFFFFFFFFFFFFFFFFFF MUL NOT AND SWAP1 DUP4 PUSH20 0xFFFFFFFFFFFFFFFFFFFFFFFFFFFFFFFFFFFFFFFF AND MUL OR SWAP1 SSTORE POP CALLER PUSH1 0x1 PUSH1 0x0 PUSH2 0x100 EXP DUP2 SLOAD DUP2 PUSH20 0xFFFFFFFFFFFFFFFFFFFFFFFFFFFFFFFFFFFFFFFF MUL NOT AND SWAP1 DUP4 PUSH20 0xFFFFFFFFFFFFFFFFFFFFFFFFFFFFFFFFFFFFFFFF AND MUL OR SWAP1 SSTORE POP POP PUSH2 0x14B JUMP JUMPDEST PUSH1 0x0 DUP1 REVERT JUMPDEST PUSH1 0x0 PUSH20 0xFFFFFFFFFFFFFFFFFFFFFFFFFFFFFFFFFFFFFFFF DUP3 AND SWAP1 POP SWAP2 SWAP1 POP JUMP JUMPDEST PUSH1 0x0 PUSH2 0xEB DUP3 PUSH2 0xC0 JUMP JUMPDEST SWAP1 POP SWAP2 SWAP1 POP JUMP JUMPDEST PUSH2 0xFB DUP2 PUSH2 0xE0 JUMP JUMPDEST DUP2 EQ PUSH2 0x106 JUMPI PUSH1 0x0 DUP1 REVERT JUMPDEST POP JUMP JUMPDEST PUSH1 0x0 DUP2 MLOAD SWAP1 POP PUSH2 0x118 DUP2 PUSH2 0xF2 JUMP JUMPDEST SWAP3 SWAP2 POP POP JUMP JUMPDEST PUSH1 0x0 PUSH1 0x20 DUP3 DUP5 SUB SLT ISZERO PUSH2 0x134 JUMPI PUSH2 0x133 PUSH2 0xBB JUMP JUMPDEST JUMPDEST PUSH1 0x0 PUSH2 0x142 DUP5 DUP3 DUP6 ADD PUSH2 0x109 JUMP JUMPDEST SWAP2 POP POP SWAP3 SWAP2 POP POP JUMP JUMPDEST PUSH2 0xE8A DUP1 PUSH3 0x15B PUSH1 0x0 CODECOPY PUSH1 0x0 RETURN INVALID PUSH1 0x80 PUSH1 0x40 MSTORE CALLVALUE DUP1 ISZERO PUSH2 0x10 JUMPI PUSH1 0x0 DUP1 REVERT JUMPDEST POP PUSH1 0x4 CALLDATASIZE LT PUSH2 0xB4 JUMPI PUSH1 0x0 CALLDATALOAD PUSH1 0xE0 SHR DUP1 PUSH4 0x921C47B1 GT PUSH2 0x71 JUMPI DUP1 PUSH4 0x921C47B1 EQ PUSH2 0x1B9 JUMPI DUP1 PUSH4 0xA46D8AC7 EQ PUSH2 0x1D7 JUMPI DUP1 PUSH4 0xAB21A2BE EQ PUSH2 0x207 JUMPI DUP1 PUSH4 0xCA5140C9 EQ PUSH2 0x223 JUMPI DUP1 PUSH4 0xEF228C92 EQ PUSH2 0x23F JUMPI DUP1 PUSH4 0xF6B4DFB4 EQ PUSH2 0x25B JUMPI PUSH2 0xB4 JUMP JUMPDEST DUP1 PUSH4 0x1CE06944 EQ PUSH2 0xB9 JUMPI DUP1 PUSH4 0x3B2F7118 EQ PUSH2 0xE9 JUMPI DUP1 PUSH4 0x67615AD5 EQ PUSH2 0x119 JUMPI DUP1 PUSH4 0x83B65CB4 EQ PUSH2 0x149 JUMPI DUP1 PUSH4 0x8DA5CB5B EQ PUSH2 0x17F JUMPI DUP1 PUSH4 0x8DBBFBDE EQ PUSH2 0x19D JUMPI JUMPDEST PUSH1 0x0 DUP1 REVERT JUMPDEST PUSH2 0xD3 PUSH1 0x4 DUP1 CALLDATASIZE SUB DUP2 ADD SWAP1 PUSH2 0xCE SWAP2 SWAP1 PUSH2 0xB0D JUMP JUMPDEST PUSH2 0x279 JUMP JUMPDEST PUSH1 0x40 MLOAD PUSH2 0xE0 SWAP2 SWAP1 PUSH2 0xB49 JUMP JUMPDEST PUSH1 0x40 MLOAD DUP1 SWAP2 SUB SWAP1 RETURN JUMPDEST PUSH2 0x103 PUSH1 0x4 DUP1 CALLDATASIZE SUB DUP2 ADD SWAP1 PUSH2 0xFE SWAP2 SWAP1 PUSH2 0xB0D JUMP JUMPDEST PUSH2 0x398 JUMP JUMPDEST PUSH1 0x40 MLOAD PUSH2 0x110 SWAP2 SWAP1 PUSH2 0xBA5 JUMP JUMPDEST PUSH1 0x40 MLOAD DUP1 SWAP2 SUB SWAP1 RETURN JUMPDEST PUSH2 0x133 PUSH1 0x4 DUP1 CALLDATASIZE SUB DUP2 ADD SWAP1 PUSH2 0x12E SWAP2 SWAP1 PUSH2 0xB0D JUMP JUMPDEST PUSH2 0x4B7 JUMP JUMPDEST PUSH1 0x40 MLOAD PUSH2 0x140 SWAP2 SWAP1 PUSH2 0xB49 JUMP JUMPDEST PUSH1 0x40 MLOAD DUP1 SWAP2 SUB SWAP1 RETURN JUMPDEST PUSH2 0x163 PUSH1 0x4 DUP1 CALLDATASIZE SUB DUP2 ADD SWAP1 PUSH2 0x15E SWAP2 SWAP1 PUSH2 0xB0D JUMP JUMPDEST PUSH2 0x5D6 JUMP JUMPDEST PUSH1 0x40 MLOAD PUSH2 0x176 SWAP8 SWAP7 SWAP6 SWAP5 SWAP4 SWAP3 SWAP2 SWAP1 PUSH2 0xBDB JUMP JUMPDEST PUSH1 0x40 MLOAD DUP1 SWAP2 SUB SWAP1 RETURN JUMPDEST PUSH2 0x187 PUSH2 0x665 JUMP JUMPDEST PUSH1 0x40 MLOAD PUSH2 0x194 SWAP2 SWAP1 PUSH2 0xBA5 JUMP JUMPDEST PUSH1 0x40 MLOAD DUP1 SWAP2 SUB SWAP1 RETURN JUMPDEST PUSH2 0x1B7 PUSH1 0x4 DUP1 CALLDATASIZE SUB DUP2 ADD SWAP1 PUSH2 0x1B2 SWAP2 SWAP1 PUSH2 0xC4A JUMP JUMPDEST PUSH2 0x689 JUMP JUMPDEST STOP JUMPDEST PUSH2 0x1C1 PUSH2 0x722 JUMP JUMPDEST PUSH1 0x40 MLOAD PUSH2 0x1CE SWAP2 SWAP1 PUSH2 0xB49 JUMP JUMPDEST PUSH1 0x40 MLOAD DUP1 SWAP2 SUB SWAP1 RETURN JUMPDEST PUSH2 0x1F1 PUSH1 0x4 DUP1 CALLDATASIZE SUB DUP2 ADD SWAP1 PUSH2 0x1EC SWAP2 SWAP1 PUSH2 0xCC9 JUMP JUMPDEST PUSH2 0x728 JUMP JUMPDEST PUSH1 0x40 MLOAD PUSH2 0x1FE SWAP2 SWAP1 PUSH2 0xB49 JUMP JUMPDEST PUSH1 0x40 MLOAD DUP1 SWAP2 SUB SWAP1 RETURN JUMPDEST PUSH2 0x221 PUSH1 0x4 DUP1 CALLDATASIZE SUB DUP2 ADD SWAP1 PUSH2 0x21C SWAP2 SWAP1 PUSH2 0xD30 JUMP JUMPDEST PUSH2 0x88E JUMP JUMPDEST STOP JUMPDEST PUSH2 0x23D PUSH1 0x4 DUP1 CALLDATASIZE SUB DUP2 ADD SWAP1 PUSH2 0x238 SWAP2 SWAP1 PUSH2 0xB0D JUMP JUMPDEST PUSH2 0x957 JUMP JUMPDEST STOP JUMPDEST PUSH2 0x259 PUSH1 0x4 DUP1 CALLDATASIZE SUB DUP2 ADD SWAP1 PUSH2 0x254 SWAP2 SWAP1 PUSH2 0xD9C JUMP JUMPDEST PUSH2 0xA0A JUMP JUMPDEST STOP JUMPDEST PUSH2 0x263 PUSH2 0xAAC JUMP JUMPDEST PUSH1 0x40 MLOAD PUSH2 0x270 SWAP2 SWAP1 PUSH2 0xBA5 JUMP JUMPDEST PUSH1 0x40 MLOAD DUP1 SWAP2 SUB SWAP1 RETURN JUMPDEST PUSH1 0x0 DUP1 PUSH1 0x3 PUSH1 0x0 DUP5 DUP2 MSTORE PUSH1 0x20 ADD SWAP1 DUP2 MSTORE PUSH1 0x20 ADD PUSH1 0x0 KECCAK256 PUSH1 0x40 MLOAD DUP1 PUSH1 0xE0 ADD PUSH1 0x40 MSTORE SWAP1 DUP2 PUSH1 0x0 DUP3 ADD SLOAD DUP2 MSTORE PUSH1 0x20 ADD PUSH1 0x1 DUP3 ADD PUSH1 0x0 SWAP1 SLOAD SWAP1 PUSH2 0x100 EXP SWAP1 DIV PUSH20 0xFFFFFFFFFFFFFFFFFFFFFFFFFFFFFFFFFFFFFFFF AND PUSH20 0xFFFFFFFFFFFFFFFFFFFFFFFFFFFFFFFFFFFFFFFF AND PUSH20 0xFFFFFFFFFFFFFFFFFFFFFFFFFFFFFFFFFFFFFFFF AND DUP2 MSTORE PUSH1 0x20 ADD PUSH1 0x2 DUP3 ADD SLOAD DUP2 MSTORE PUSH1 0x20 ADD PUSH1 0x3 DUP3 ADD PUSH1 0x0 SWAP1 SLOAD SWAP1 PUSH2 0x100 EXP SWAP1 DIV PUSH20 0xFFFFFFFFFFFFFFFFFFFFFFFFFFFFFFFFFFFFFFFF AND PUSH20 0xFFFFFFFFFFFFFFFFFFFFFFFFFFFFFFFFFFFFFFFF AND PUSH20 0xFFFFFFFFFFFFFFFFFFFFFFFFFFFFFFFFFFFFFFFF AND DUP2 MSTORE PUSH1 0x20 ADD PUSH1 0x3 DUP3 ADD PUSH1 0x14 SWAP1 SLOAD SWAP1 PUSH2 0x100 EXP SWAP1 DIV PUSH1 0xFF AND ISZERO ISZERO ISZERO ISZERO DUP2 MSTORE PUSH1 0x20 ADD PUSH1 0x4 DUP3 ADD SLOAD DUP2 MSTORE PUSH1 0x20 ADD PUSH1 0x5 DUP3 ADD SLOAD DUP2 MSTORE POP POP SWAP1 POP DUP1 PUSH1 0xC0 ADD MLOAD SWAP2 POP POP SWAP2 SWAP1 POP JUMP JUMPDEST PUSH1 0x0 DUP1 PUSH1 0x3 PUSH1 0x0 DUP5 DUP2 MSTORE PUSH1 0x20 ADD SWAP1 DUP2 MSTORE PUSH1 0x20 ADD PUSH1 0x0 KECCAK256 PUSH1 0x40 MLOAD DUP1 PUSH1 0xE0 ADD PUSH1 0x40 MSTORE SWAP1 DUP2 PUSH1 0x0 DUP3 ADD SLOAD DUP2 MSTORE PUSH1 0x20 ADD PUSH1 0x1 DUP3 ADD PUSH1 0x0 SWAP1 SLOAD SWAP1 PUSH2 0x100 EXP SWAP1 DIV PUSH20 0xFFFFFFFFFFFFFFFFFFFFFFFFFFFFFFFFFFFFFFFF AND PUSH20 0xFFFFFFFFFFFFFFFFFFFFFFFFFFFFFFFFFFFFFFFF AND PUSH20 0xFFFFFFFFFFFFFFFFFFFFFFFFFFFFFFFFFFFFFFFF AND DUP2 MSTORE PUSH1 0x20 ADD PUSH1 0x2 DUP3 ADD SLOAD DUP2 MSTORE PUSH1 0x20 ADD PUSH1 0x3 DUP3 ADD PUSH1 0x0 SWAP1 SLOAD SWAP1 PUSH2 0x100 EXP SWAP1 DIV PUSH20 0xFFFFFFFFFFFFFFFFFFFFFFFFFFFFFFFFFFFFFFFF AND PUSH20 0xFFFFFFFFFFFFFFFFFFFFFFFFFFFFFFFFFFFFFFFF AND PUSH20 0xFFFFFFFFFFFFFFFFFFFFFFFFFFFFFFFFFFFFFFFF AND DUP2 MSTORE PUSH1 0x20 ADD PUSH1 0x3 DUP3 ADD PUSH1 0x14 SWAP1 SLOAD SWAP1 PUSH2 0x100 EXP SWAP1 DIV PUSH1 0xFF AND ISZERO ISZERO ISZERO ISZERO DUP2 MSTORE PUSH1 0x20 ADD PUSH1 0x4 DUP3 ADD SLOAD DUP2 MSTORE PUSH1 0x20 ADD PUSH1 0x5 DUP3 ADD SLOAD DUP2 MSTORE POP POP SWAP1 POP DUP1 PUSH1 0x60 ADD MLOAD SWAP2 POP POP SWAP2 SWAP1 POP JUMP JUMPDEST PUSH1 0x0 DUP1 PUSH1 0x3 PUSH1 0x0 DUP5 DUP2 MSTORE PUSH1 0x20 ADD SWAP1 DUP2 MSTORE PUSH1 0x20 ADD PUSH1 0x0 KECCAK256 PUSH1 0x40 MLOAD DUP1 PUSH1 0xE0 ADD PUSH1 0x40 MSTORE SWAP1 DUP2 PUSH1 0x0 DUP3 ADD SLOAD DUP2 MSTORE PUSH1 0x20 ADD PUSH1 0x1 DUP3 ADD PUSH1 0x0 SWAP1 SLOAD SWAP1 PUSH2 0x100 EXP SWAP1 DIV PUSH20 0xFFFFFFFFFFFFFFFFFFFFFFFFFFFFFFFFFFFFFFFF AND PUSH20 0xFFFFFFFFFFFFFFFFFFFFFFFFFFFFFFFFFFFFFFFF AND PUSH20 0xFFFFFFFFFFFFFFFFFFFFFFFFFFFFFFFFFFFFFFFF AND DUP2 MSTORE PUSH1 0x20 ADD PUSH1 0x2 DUP3 ADD SLOAD DUP2 MSTORE PUSH1 0x20 ADD PUSH1 0x3 DUP3 ADD PUSH1 0x0 SWAP1 SLOAD SWAP1 PUSH2 0x100 EXP SWAP1 DIV PUSH20 0xFFFFFFFFFFFFFFFFFFFFFFFFFFFFFFFFFFFFFFFF AND PUSH20 0xFFFFFFFFFFFFFFFFFFFFFFFFFFFFFFFFFFFFFFFF AND PUSH20 0xFFFFFFFFFFFFFFFFFFFFFFFFFFFFFFFFFFFFFFFF AND DUP2 MSTORE PUSH1 0x20 ADD PUSH1 0x3 DUP3 ADD PUSH1 0x14 SWAP1 SLOAD SWAP1 PUSH2 0x100 EXP SWAP1 DIV PUSH1 0xFF AND ISZERO ISZERO ISZERO ISZERO DUP2 MSTORE PUSH1 0x20 ADD PUSH1 0x4 DUP3 ADD SLOAD DUP2 MSTORE PUSH1 0x20 ADD PUSH1 0x5 DUP3 ADD SLOAD DUP2 MSTORE POP POP SWAP1 POP DUP1 PUSH1 0x40 ADD MLOAD SWAP2 POP POP SWAP2 SWAP1 POP JUMP JUMPDEST PUSH1 0x3 PUSH1 0x20 MSTORE DUP1 PUSH1 0x0 MSTORE PUSH1 0x40 PUSH1 0x0 KECCAK256 PUSH1 0x0 SWAP2 POP SWAP1 POP DUP1 PUSH1 0x0 ADD SLOAD SWAP1 DUP1 PUSH1 0x1 ADD PUSH1 0x0 SWAP1 SLOAD SWAP1 PUSH2 0x100 EXP SWAP1 DIV PUSH20 0xFFFFFFFFFFFFFFFFFFFFFFFFFFFFFFFFFFFFFFFF AND SWAP1 DUP1 PUSH1 0x2 ADD SLOAD SWAP1 DUP1 PUSH1 0x3 ADD PUSH1 0x0 SWAP1 SLOAD SWAP1 PUSH2 0x100 EXP SWAP1 DIV PUSH20 0xFFFFFFFFFFFFFFFFFFFFFFFFFFFFFFFFFFFFFFFF AND SWAP1 DUP1 PUSH1 0x3 ADD PUSH1 0x14 SWAP1 SLOAD SWAP1 PUSH2 0x100 EXP SWAP1 DIV PUSH1 0xFF AND SWAP1 DUP1 PUSH1 0x4 ADD SLOAD SWAP1 DUP1 PUSH1 0x5 ADD SLOAD SWAP1 POP DUP8 JUMP JUMPDEST PUSH1 0x0 DUP1 SLOAD SWAP1 PUSH2 0x100 EXP SWAP1 DIV PUSH20 0xFFFFFFFFFFFFFFFFFFFFFFFFFFFFFFFFFFFFFFFF AND DUP2 JUMP JUMPDEST DUP3 PUSH1 0x2 SLOAD DUP2 LT PUSH2 0x698 JUMPI PUSH1 0x0 DUP1 REVERT JUMPDEST CALLER PUSH20 0xFFFFFFFFFFFFFFFFFFFFFFFFFFFFFFFFFFFFFFFF AND PUSH1 0x1 PUSH1 0x0 SWAP1 SLOAD SWAP1 PUSH2 0x100 EXP SWAP1 DIV PUSH20 0xFFFFFFFFFFFFFFFFFFFFFFFFFFFFFFFFFFFFFFFF AND PUSH20 0xFFFFFFFFFFFFFFFFFFFFFFFFFFFFFFFFFFFFFFFF AND EQ PUSH2 0x6F2 JUMPI PUSH1 0x0 DUP1 REVERT JUMPDEST PUSH1 0x0 PUSH1 0x3 PUSH1 0x0 DUP7 DUP2 MSTORE PUSH1 0x20 ADD SWAP1 DUP2 MSTORE PUSH1 0x20 ADD PUSH1 0x0 KECCAK256 SWAP1 POP DUP4 DUP2 PUSH1 0x4 ADD DUP2 SWAP1 SSTORE POP DUP3 DUP2 PUSH1 0x5 ADD DUP2 SWAP1 SSTORE POP POP POP POP POP POP JUMP JUMPDEST PUSH1 0x2 SLOAD DUP2 JUMP JUMPDEST PUSH1 0x0 CALLER PUSH20 0xFFFFFFFFFFFFFFFFFFFFFFFFFFFFFFFFFFFFFFFF AND PUSH1 0x1 PUSH1 0x0 SWAP1 SLOAD SWAP1 PUSH2 0x100 EXP SWAP1 DIV PUSH20 0xFFFFFFFFFFFFFFFFFFFFFFFFFFFFFFFFFFFFFFFF AND PUSH20 0xFFFFFFFFFFFFFFFFFFFFFFFFFFFFFFFFFFFFFFFF AND EQ PUSH2 0x784 JUMPI PUSH1 0x0 DUP1 REVERT JUMPDEST PUSH1 0x0 PUSH1 0x3 PUSH1 0x0 PUSH1 0x2 SLOAD DUP2 MSTORE PUSH1 0x20 ADD SWAP1 DUP2 MSTORE PUSH1 0x20 ADD PUSH1 0x0 KECCAK256 SWAP1 POP PUSH1 0x2 SLOAD DUP2 PUSH1 0x0 ADD DUP2 SWAP1 SSTORE POP DUP5 DUP2 PUSH1 0x2 ADD DUP2 SWAP1 SSTORE POP DUP6 DUP2 PUSH1 0x1 ADD PUSH1 0x0 PUSH2 0x100 EXP DUP2 SLOAD DUP2 PUSH20 0xFFFFFFFFFFFFFFFFFFFFFFFFFFFFFFFFFFFFFFFF MUL NOT AND SWAP1 DUP4 PUSH20 0xFFFFFFFFFFFFFFFFFFFFFFFFFFFFFFFFFFFFFFFF AND MUL OR SWAP1 SSTORE POP DUP6 DUP2 PUSH1 0x3 ADD PUSH1 0x0 PUSH2 0x100 EXP DUP2 SLOAD DUP2 PUSH20 0xFFFFFFFFFFFFFFFFFFFFFFFFFFFFFFFFFFFFFFFF MUL NOT AND SWAP1 DUP4 PUSH20 0xFFFFFFFFFFFFFFFFFFFFFFFFFFFFFFFFFFFFFFFF AND MUL OR SWAP1 SSTORE POP PUSH1 0x0 DUP2 PUSH1 0x3 ADD PUSH1 0x14 PUSH2 0x100 EXP DUP2 SLOAD DUP2 PUSH1 0xFF MUL NOT AND SWAP1 DUP4 ISZERO ISZERO MUL OR SWAP1 SSTORE POP DUP4 DUP2 PUSH1 0x4 ADD DUP2 SWAP1 SSTORE POP DUP3 DUP2 PUSH1 0x5 ADD DUP2 SWAP1 SSTORE POP PUSH1 0x2 PUSH1 0x0 DUP2 SLOAD DUP1 SWAP3 SWAP2 SWAP1 PUSH2 0x879 SWAP1 PUSH2 0xE0B JUMP JUMPDEST SWAP2 SWAP1 POP SSTORE POP DUP1 PUSH1 0x0 ADD SLOAD SWAP2 POP POP SWAP5 SWAP4 POP POP POP POP JUMP JUMPDEST DUP2 PUSH1 0x2 SLOAD DUP2 LT PUSH2 0x89D JUMPI PUSH1 0x0 DUP1 REVERT JUMPDEST CALLER PUSH20 0xFFFFFFFFFFFFFFFFFFFFFFFFFFFFFFFFFFFFFFFF AND PUSH1 0x1 PUSH1 0x0 SWAP1 SLOAD SWAP1 PUSH2 0x100 EXP SWAP1 DIV PUSH20 0xFFFFFFFFFFFFFFFFFFFFFFFFFFFFFFFFFFFFFFFF AND PUSH20 0xFFFFFFFFFFFFFFFFFFFFFFFFFFFFFFFFFFFFFFFF AND EQ PUSH2 0x8F7 JUMPI PUSH1 0x0 DUP1 REVERT JUMPDEST PUSH1 0x0 PUSH1 0x3 PUSH1 0x0 DUP6 DUP2 MSTORE PUSH1 0x20 ADD SWAP1 DUP2 MSTORE PUSH1 0x20 ADD PUSH1 0x0 KECCAK256 SWAP1 POP DUP3 DUP2 PUSH1 0x3 ADD PUSH1 0x0 PUSH2 0x100 EXP DUP2 SLOAD DUP2 PUSH20 0xFFFFFFFFFFFFFFFFFFFFFFFFFFFFFFFFFFFFFFFF MUL NOT AND SWAP1 DUP4 PUSH20 0xFFFFFFFFFFFFFFFFFFFFFFFFFFFFFFFFFFFFFFFF AND MUL OR SWAP1 SSTORE POP POP POP POP POP JUMP JUMPDEST DUP1 PUSH1 0x2 SLOAD DUP2 LT PUSH2 0x966 JUMPI PUSH1 0x0 DUP1 REVERT JUMPDEST CALLER PUSH20 0xFFFFFFFFFFFFFFFFFFFFFFFFFFFFFFFFFFFFFFFF AND PUSH1 0x1 PUSH1 0x0 SWAP1 SLOAD SWAP1 PUSH2 0x100 EXP SWAP1 DIV PUSH20 0xFFFFFFFFFFFFFFFFFFFFFFFFFFFFFFFFFFFFFFFF AND PUSH20 0xFFFFFFFFFFFFFFFFFFFFFFFFFFFFFFFFFFFFFFFF AND EQ PUSH2 0x9C0 JUMPI PUSH1 0x0 DUP1 REVERT JUMPDEST PUSH1 0x0 PUSH1 0x3 PUSH1 0x0 DUP5 DUP2 MSTORE PUSH1 0x20 ADD SWAP1 DUP2 MSTORE PUSH1 0x20 ADD PUSH1 0x0 KECCAK256 SWAP1 POP PUSH2 0xA05 DUP4 DUP3 PUSH1 0x1 ADD PUSH1 0x0 SWAP1 SLOAD SWAP1 PUSH2 0x100 EXP SWAP1 DIV PUSH20 0xFFFFFFFFFFFFFFFFFFFFFFFFFFFFFFFFFFFFFFFF AND PUSH2 0x88E JUMP JUMPDEST POP POP POP JUMP JUMPDEST DUP2 PUSH1 0x2 SLOAD DUP2 LT PUSH2 0xA19 JUMPI PUSH1 0x0 DUP1 REVERT JUMPDEST CALLER PUSH20 0xFFFFFFFFFFFFFFFFFFFFFFFFFFFFFFFFFFFFFFFF AND PUSH1 0x1 PUSH1 0x0 SWAP1 SLOAD SWAP1 PUSH2 0x100 EXP SWAP1 DIV PUSH20 0xFFFFFFFFFFFFFFFFFFFFFFFFFFFFFFFFFFFFFFFF AND PUSH20 0xFFFFFFFFFFFFFFFFFFFFFFFFFFFFFFFFFFFFFFFF AND EQ PUSH2 0xA73 JUMPI PUSH1 0x0 DUP1 REVERT JUMPDEST PUSH1 0x0 PUSH1 0x3 PUSH1 0x0 DUP6 DUP2 MSTORE PUSH1 0x20 ADD SWAP1 DUP2 MSTORE PUSH1 0x20 ADD PUSH1 0x0 KECCAK256 SWAP1 POP DUP3 DUP2 PUSH1 0x3 ADD PUSH1 0x14 PUSH2 0x100 EXP DUP2 SLOAD DUP2 PUSH1 0xFF MUL NOT AND SWAP1 DUP4 ISZERO ISZERO MUL OR SWAP1 SSTORE POP POP POP POP POP JUMP JUMPDEST PUSH1 0x1 PUSH1 0x0 SWAP1 SLOAD SWAP1 PUSH2 0x100 EXP SWAP1 DIV PUSH20 0xFFFFFFFFFFFFFFFFFFFFFFFFFFFFFFFFFFFFFFFF AND DUP2 JUMP JUMPDEST PUSH1 0x0 DUP1 REVERT JUMPDEST PUSH1 0x0 DUP2 SWAP1 POP SWAP2 SWAP1 POP JUMP JUMPDEST PUSH2 0xAEA DUP2 PUSH2 0xAD7 JUMP JUMPDEST DUP2 EQ PUSH2 0xAF5 JUMPI PUSH1 0x0 DUP1 REVERT JUMPDEST POP JUMP JUMPDEST PUSH1 0x0 DUP2 CALLDATALOAD SWAP1 POP PUSH2 0xB07 DUP2 PUSH2 0xAE1 JUMP JUMPDEST SWAP3 SWAP2 POP POP JUMP JUMPDEST PUSH1 0x0 PUSH1 0x20 DUP3 DUP5 SUB SLT ISZERO PUSH2 0xB23 JUMPI PUSH2 0xB22 PUSH2 0xAD2 JUMP JUMPDEST JUMPDEST PUSH1 0x0 PUSH2 0xB31 DUP5 DUP3 DUP6 ADD PUSH2 0xAF8 JUMP JUMPDEST SWAP2 POP POP SWAP3 SWAP2 POP POP JUMP JUMPDEST PUSH2 0xB43 DUP2 PUSH2 0xAD7 JUMP JUMPDEST DUP3 MSTORE POP POP JUMP JUMPDEST PUSH1 0x0 PUSH1 0x20 DUP3 ADD SWAP1 POP PUSH2 0xB5E PUSH1 0x0 DUP4 ADD DUP5 PUSH2 0xB3A JUMP JUMPDEST SWAP3 SWAP2 POP POP JUMP JUMPDEST PUSH1 0x0 PUSH20 0xFFFFFFFFFFFFFFFFFFFFFFFFFFFFFFFFFFFFFFFF DUP3 AND SWAP1 POP SWAP2 SWAP1 POP JUMP JUMPDEST PUSH1 0x0 PUSH2 0xB8F DUP3 PUSH2 0xB64 JUMP JUMPDEST SWAP1 POP SWAP2 SWAP1 POP JUMP JUMPDEST PUSH2 0xB9F DUP2 PUSH2 0xB84 JUMP JUMPDEST DUP3 MSTORE POP POP JUMP JUMPDEST PUSH1 0x0 PUSH1 0x20 DUP3 ADD SWAP1 POP PUSH2 0xBBA PUSH1 0x0 DUP4 ADD DUP5 PUSH2 0xB96 JUMP JUMPDEST SWAP3 SWAP2 POP POP JUMP JUMPDEST PUSH1 0x0 DUP2 ISZERO ISZERO SWAP1 POP SWAP2 SWAP1 POP JUMP JUMPDEST PUSH2 0xBD5 DUP2 PUSH2 0xBC0 JUMP JUMPDEST DUP3 MSTORE POP POP JUMP JUMPDEST PUSH1 0x0 PUSH1 0xE0 DUP3 ADD SWAP1 POP PUSH2 0xBF0 PUSH1 0x0 DUP4 ADD DUP11 PUSH2 0xB3A JUMP JUMPDEST PUSH2 0xBFD PUSH1 0x20 DUP4 ADD DUP10 PUSH2 0xB96 JUMP JUMPDEST PUSH2 0xC0A PUSH1 0x40 DUP4 ADD DUP9 PUSH2 0xB3A JUMP JUMPDEST PUSH2 0xC17 PUSH1 0x60 DUP4 ADD DUP8 PUSH2 0xB96 JUMP JUMPDEST PUSH2 0xC24 PUSH1 0x80 DUP4 ADD DUP7 PUSH2 0xBCC JUMP JUMPDEST PUSH2 0xC31 PUSH1 0xA0 DUP4 ADD DUP6 PUSH2 0xB3A JUMP JUMPDEST PUSH2 0xC3E PUSH1 0xC0 DUP4 ADD DUP5 PUSH2 0xB3A JUMP JUMPDEST SWAP9 SWAP8 POP POP POP POP POP POP POP POP JUMP JUMPDEST PUSH1 0x0 DUP1 PUSH1 0x0 PUSH1 0x60 DUP5 DUP7 SUB SLT ISZERO PUSH2 0xC63 JUMPI PUSH2 0xC62 PUSH2 0xAD2 JUMP JUMPDEST JUMPDEST PUSH1 0x0 PUSH2 0xC71 DUP7 DUP3 DUP8 ADD PUSH2 0xAF8 JUMP JUMPDEST SWAP4 POP POP PUSH1 0x20 PUSH2 0xC82 DUP7 DUP3 DUP8 ADD PUSH2 0xAF8 JUMP JUMPDEST SWAP3 POP POP PUSH1 0x40 PUSH2 0xC93 DUP7 DUP3 DUP8 ADD PUSH2 0xAF8 JUMP JUMPDEST SWAP2 POP POP SWAP3 POP SWAP3 POP SWAP3 JUMP JUMPDEST PUSH2 0xCA6 DUP2 PUSH2 0xB84 JUMP JUMPDEST DUP2 EQ PUSH2 0xCB1 JUMPI PUSH1 0x0 DUP1 REVERT JUMPDEST POP JUMP JUMPDEST PUSH1 0x0 DUP2 CALLDATALOAD SWAP1 POP PUSH2 0xCC3 DUP2 PUSH2 0xC9D JUMP JUMPDEST SWAP3 SWAP2 POP POP JUMP JUMPDEST PUSH1 0x0 DUP1 PUSH1 0x0 DUP1 PUSH1 0x80 DUP6 DUP8 SUB SLT ISZERO PUSH2 0xCE3 JUMPI PUSH2 0xCE2 PUSH2 0xAD2 JUMP JUMPDEST JUMPDEST PUSH1 0x0 PUSH2 0xCF1 DUP8 DUP3 DUP9 ADD PUSH2 0xCB4 JUMP JUMPDEST SWAP5 POP POP PUSH1 0x20 PUSH2 0xD02 DUP8 DUP3 DUP9 ADD PUSH2 0xAF8 JUMP JUMPDEST SWAP4 POP POP PUSH1 0x40 PUSH2 0xD13 DUP8 DUP3 DUP9 ADD PUSH2 0xAF8 JUMP JUMPDEST SWAP3 POP POP PUSH1 0x60 PUSH2 0xD24 DUP8 DUP3 DUP9 ADD PUSH2 0xAF8 JUMP JUMPDEST SWAP2 POP POP SWAP3 SWAP6 SWAP2 SWAP5 POP SWAP3 POP JUMP JUMPDEST PUSH1 0x0 DUP1 PUSH1 0x40 DUP4 DUP6 SUB SLT ISZERO PUSH2 0xD47 JUMPI PUSH2 0xD46 PUSH2 0xAD2 JUMP JUMPDEST JUMPDEST PUSH1 0x0 PUSH2 0xD55 DUP6 DUP3 DUP7 ADD PUSH2 0xAF8 JUMP JUMPDEST SWAP3 POP POP PUSH1 0x20 PUSH2 0xD66 DUP6 DUP3 DUP7 ADD PUSH2 0xCB4 JUMP JUMPDEST SWAP2 POP POP SWAP3 POP SWAP3 SWAP1 POP JUMP JUMPDEST PUSH2 0xD79 DUP2 PUSH2 0xBC0 JUMP JUMPDEST DUP2 EQ PUSH2 0xD84 JUMPI PUSH1 0x0 DUP1 REVERT JUMPDEST POP JUMP JUMPDEST PUSH1 0x0 DUP2 CALLDATALOAD SWAP1 POP PUSH2 0xD96 DUP2 PUSH2 0xD70 JUMP JUMPDEST SWAP3 SWAP2 POP POP JUMP JUMPDEST PUSH1 0x0 DUP1 PUSH1 0x40 DUP4 DUP6 SUB SLT ISZERO PUSH2 0xDB3 JUMPI PUSH2 0xDB2 PUSH2 0xAD2 JUMP JUMPDEST JUMPDEST PUSH1 0x0 PUSH2 0xDC1 DUP6 DUP3 DUP7 ADD PUSH2 0xAF8 JUMP JUMPDEST SWAP3 POP POP PUSH1 0x20 PUSH2 0xDD2 DUP6 DUP3 DUP7 ADD PUSH2 0xD87 JUMP JUMPDEST SWAP2 POP POP SWAP3 POP SWAP3 SWAP1 POP JUMP JUMPDEST PUSH32 0x4E487B7100000000000000000000000000000000000000000000000000000000 PUSH1 0x0 MSTORE PUSH1 0x11 PUSH1 0x4 MSTORE PUSH1 0x24 PUSH1 0x0 REVERT JUMPDEST PUSH1 0x0 PUSH2 0xE16 DUP3 PUSH2 0xAD7 JUMP JUMPDEST SWAP2 POP PUSH32 0xFFFFFFFFFFFFFFFFFFFFFFFFFFFFFFFFFFFFFFFFFFFFFFFFFFFFFFFFFFFFFFFF DUP3 EQ ISZERO PUSH2 0xE49 JUMPI PUSH2 0xE48 PUSH2 0xDDC JUMP JUMPDEST JUMPDEST PUSH1 0x1 DUP3 ADD SWAP1 POP SWAP2 SWAP1 POP JUMP INVALID LOG2 PUSH5 0x6970667358 0x22 SLT KECCAK256 0xBE JUMPI 0xC9 0x49 PUSH19 0x22E4CAFFF449B5E92BCC2A3FFC5B2CC30F31B0 STATICCALL RETURN 0x4D DUP15 SWAP8 0xCA 0xCC 0x4B PUSH5 0x736F6C6343 STOP ADDMOD EXP STOP CALLER "},"gasEstimates":{"creation":{"codeDepositCost":"744400","executionCost":"infinite","totalCost":"infinite"},"external":{"bookTokens(uint256)":"infinite","changeAllowabilityStatus(uint256,bool)":"29385","changeContractStatus(uint256,uint256,uint256)":"infinite","changeReader(uint256,address)":"29334","contractAddress()":"2624","createBookToken(address,uint256,uint256,uint256)":"infinite","getTokenBookId(uint256)":"infinite","getTokenCost(uint256)":"infinite","getTokenReader(uint256)":"15861","numBookToken()":"2429","owner()":"2600","returnBook(uint256)":"35699"}},"methodIdentifiers":{"bookTokens(uint256)":"83b65cb4","changeAllowabilityStatus(uint256,bool)":"ef228c92","changeContractStatus(uint256,uint256,uint256)":"8dbbfbde","changeReader(uint256,address)":"ab21a2be","contractAddress()":"f6b4dfb4","createBookToken(address,uint256,uint256,uint256)":"a46d8ac7","getTokenBookId(uint256)":"67615ad5","getTokenCost(uint256)":"1ce06944","getTokenReader(uint256)":"3b2f7118","numBookToken()":"921c47b1","owner()":"8da5cb5b","returnBook(uint256)":"ca5140c9"}},"storageLayout":{"storage":[{"astId":715,"contract":"devs/TokenManager.sol:TokenManager","label":"owner","offset":0,"slot":"0","type":"t_address"},{"astId":717,"contract":"devs/TokenManager.sol:TokenManager","label":"contractAddress","offset":0,"slot":"1","type":"t_address"},{"astId":719,"contract":"devs/TokenManager.sol:TokenManager","label":"numBookToken","offset":0,"slot":"2","type":"t_uint256"},{"astId":724,"contract":"devs/TokenManager.sol:TokenManager","label":"bookTokens","offset":0,"slot":"3","type":"t_mapping(t_uint256,t_struct(BookToken)669_storage)"}],"types":{"t_address":{"encoding":"inplace","label":"address","numberOfBytes":"20"},"t_bool":{"encoding":"inplace","label":"bool","numberOfBytes":"1"},"t_mapping(t_uint256,t_struct(BookToken)669_storage)":{"encoding":"mapping","key":"t_uint256","label":"mapping(uint256 => struct TokenManagerInterface.BookToken)","numberOfBytes":"32","value":"t_struct(BookToken)669_storage"},"t_struct(BookToken)669_storage":{"encoding":"inplace","label":"struct TokenManagerInterface.BookToken","members":[{"astId":656,"contract":"devs/TokenManager.sol:TokenManager","label":"tokenId","offset":0,"slot":"0","type":"t_uint256"},{"astId":658,"contract":"devs/TokenManager.sol:TokenManager","label":"owner","offset":0,"slot":"1","type":"t_address"},{"astId":660,"contract":"devs/TokenManager.sol:TokenManager","label":"bookIndex","offset":0,"slot":"2","type":"t_uint256"},{"astId":662,"contract":"devs/TokenManager.sol:TokenManager","label":"reader","offset":0,"slot":"3","type":"t_address"},{"astId":664,"contract":"devs/TokenManager.sol:TokenManager","label":"allowToContract","offset":20,"slot":"3","type":"t_bool"},{"astId":666,"contract":"devs/TokenManager.sol:TokenManager","label":"period","offset":0,"slot":"4","type":"t_uint256"},{"astId":668,"contract":"devs/TokenManager.sol:TokenManager","label":"cost","offset":0,"slot":"5","type":"t_uint256"}],"numberOfBytes":"192"},"t_uint256":{"encoding":"inplace","label":"uint256","numberOfBytes":"32"}}},"userdoc":{"kind":"user","methods":{},"version":1}}