{"abi":[{"inputs":[{"internalType":"address","name":"_ownerAddress","type":"address"}],"stateMutability":"nonpayable","type":"constructor"},{"inputs":[{"internalType":"address","name":"_sender","type":"address"},{"internalType":"uint256","name":"_tokenId","type":"uint256"}],"name":"borrowed","outputs":[],"stateMutability":"nonpayable","type":"function"},{"inputs":[{"internalType":"address","name":"_userAddress","type":"address"},{"internalType":"uint256","name":"_tokenId","type":"uint256"}],"name":"getIsBorrowing","outputs":[{"internalType":"bool","name":"","type":"bool"}],"stateMutability":"view","type":"function"},{"inputs":[{"internalType":"address","name":"_staffAddress","type":"address"}],"name":"getIsStaff","outputs":[{"internalType":"bool","name":"","type":"bool"}],"stateMutability":"view","type":"function"},{"inputs":[{"internalType":"address","name":"_userAddress","type":"address"}],"name":"getIsValidUser","outputs":[{"internalType":"bool","name":"","type":"bool"}],"stateMutability":"view","type":"function"},{"inputs":[{"internalType":"address","name":"_userAddress","type":"address"}],"name":"getNumBorrowing","outputs":[{"internalType":"uint256","name":"","type":"uint256"}],"stateMutability":"view","type":"function"},{"inputs":[],"name":"getNumStaff","outputs":[{"internalType":"uint256","name":"","type":"uint256"}],"stateMutability":"view","type":"function"},{"inputs":[{"internalType":"address","name":"_staffAddress","type":"address"}],"name":"inviteStaff","outputs":[],"stateMutability":"nonpayable","type":"function"},{"inputs":[{"internalType":"address","name":"","type":"address"},{"internalType":"uint256","name":"","type":"uint256"}],"name":"isBorrowingTable","outputs":[{"internalType":"bool","name":"","type":"bool"}],"stateMutability":"view","type":"function"},{"inputs":[{"internalType":"address","name":"","type":"address"}],"name":"isValidUser","outputs":[{"internalType":"bool","name":"","type":"bool"}],"stateMutability":"view","type":"function"},{"inputs":[],"name":"numUser","outputs":[{"internalType":"uint256","name":"","type":"uint256"}],"stateMutability":"view","type":"function"},{"inputs":[],"name":"owner","outputs":[{"internalType":"address","name":"","type":"address"}],"stateMutability":"view","type":"function"},{"inputs":[{"internalType":"address","name":"_sender","type":"address"},{"internalType":"uint256","name":"_tokenId","type":"uint256"}],"name":"purchased","outputs":[],"stateMutability":"nonpayable","type":"function"},{"inputs":[{"internalType":"address","name":"_sender","type":"address"}],"name":"register","outputs":[],"stateMutability":"nonpayable","type":"function"},{"inputs":[{"internalType":"address","name":"_staffAddress","type":"address"}],"name":"resignStaff","outputs":[],"stateMutability":"nonpayable","type":"function"},{"inputs":[{"internalType":"address","name":"_sender","type":"address"},{"internalType":"uint256","name":"_tokenId","type":"uint256"}],"name":"returned","outputs":[],"stateMutability":"nonpayable","type":"function"},{"inputs":[{"internalType":"address","name":"","type":"address"}],"name":"users","outputs":[{"internalType":"address","name":"userAddress","type":"address"},{"internalType":"uint256","name":"userId","type":"uint256"},{"internalType":"uint256","name":"numBorrowing","type":"uint256"},{"internalType":"uint256","name":"numBorrowed","type":"uint256"},{"internalType":"uint256","name":"numPurchased","type":"uint256"}],"stateMutability":"view","type":"function"}],"devdoc":{"kind":"dev","methods":{},"version":1},"evm":{"assembly":"    /* \"devs/UserManager.sol\":788:3645   */\n  mstore(0x40, 0x80)\n    /* \"devs/UserManager.sol\":1310:1421   */\n  callvalue\n  dup1\n  iszero\n  tag_1\n  jumpi\n  0x00\n  dup1\n  revert\ntag_1:\n  pop\n  mload(0x40)\n  sub(codesize, bytecodeSize)\n  dup1\n  bytecodeSize\n  dup4\n  codecopy\n  dup2\n  dup2\n  add\n  0x40\n  mstore\n  dup2\n  add\n  swap1\n  tag_2\n  swap2\n  swap1\n  tag_3\n  jump\t// in\ntag_2:\n    /* \"devs/UserManager.sol\":1363:1376   */\n  dup1\n    /* \"devs/UserManager.sol\":1355:1360   */\n  0x00\n  dup1\n    /* \"devs/UserManager.sol\":1355:1376   */\n  0x0100\n  exp\n  dup2\n  sload\n  dup2\n  0xffffffffffffffffffffffffffffffffffffffff\n  mul\n  not\n  and\n  swap1\n  dup4\n  0xffffffffffffffffffffffffffffffffffffffff\n  and\n  mul\n  or\n  swap1\n  sstore\n  pop\n    /* \"devs/UserManager.sol\":1404:1414   */\n  caller\n    /* \"devs/UserManager.sol\":1386:1401   */\n  0x01\n  0x00\n    /* \"devs/UserManager.sol\":1386:1414   */\n  0x0100\n  exp\n  dup2\n  sload\n  dup2\n  0xffffffffffffffffffffffffffffffffffffffff\n  mul\n  not\n  and\n  swap1\n  dup4\n  0xffffffffffffffffffffffffffffffffffffffff\n  and\n  mul\n  or\n  swap1\n  sstore\n  pop\n    /* \"devs/UserManager.sol\":1310:1421   */\n  pop\n    /* \"devs/UserManager.sol\":788:3645   */\n  jump(tag_6)\n    /* \"#utility.yul\":88:205   */\ntag_8:\n    /* \"#utility.yul\":197:198   */\n  0x00\n    /* \"#utility.yul\":194:195   */\n  dup1\n    /* \"#utility.yul\":187:199   */\n  revert\n    /* \"#utility.yul\":334:460   */\ntag_10:\n    /* \"#utility.yul\":371:378   */\n  0x00\n    /* \"#utility.yul\":411:453   */\n  0xffffffffffffffffffffffffffffffffffffffff\n    /* \"#utility.yul\":404:409   */\n  dup3\n    /* \"#utility.yul\":400:454   */\n  and\n    /* \"#utility.yul\":389:454   */\n  swap1\n  pop\n    /* \"#utility.yul\":334:460   */\n  swap2\n  swap1\n  pop\n  jump\t// out\n    /* \"#utility.yul\":466:562   */\ntag_11:\n    /* \"#utility.yul\":503:510   */\n  0x00\n    /* \"#utility.yul\":532:556   */\n  tag_20\n    /* \"#utility.yul\":550:555   */\n  dup3\n    /* \"#utility.yul\":532:556   */\n  tag_10\n  jump\t// in\ntag_20:\n    /* \"#utility.yul\":521:556   */\n  swap1\n  pop\n    /* \"#utility.yul\":466:562   */\n  swap2\n  swap1\n  pop\n  jump\t// out\n    /* \"#utility.yul\":568:690   */\ntag_12:\n    /* \"#utility.yul\":641:665   */\n  tag_22\n    /* \"#utility.yul\":659:664   */\n  dup2\n    /* \"#utility.yul\":641:665   */\n  tag_11\n  jump\t// in\ntag_22:\n    /* \"#utility.yul\":634:639   */\n  dup2\n    /* \"#utility.yul\":631:666   */\n  eq\n    /* \"#utility.yul\":621:684   */\n  tag_23\n  jumpi\n    /* \"#utility.yul\":680:681   */\n  0x00\n    /* \"#utility.yul\":677:678   */\n  dup1\n    /* \"#utility.yul\":670:682   */\n  revert\n    /* \"#utility.yul\":621:684   */\ntag_23:\n    /* \"#utility.yul\":568:690   */\n  pop\n  jump\t// out\n    /* \"#utility.yul\":696:839   */\ntag_13:\n    /* \"#utility.yul\":753:758   */\n  0x00\n    /* \"#utility.yul\":784:790   */\n  dup2\n    /* \"#utility.yul\":778:791   */\n  mload\n    /* \"#utility.yul\":769:791   */\n  swap1\n  pop\n    /* \"#utility.yul\":800:833   */\n  tag_25\n    /* \"#utility.yul\":827:832   */\n  dup2\n    /* \"#utility.yul\":800:833   */\n  tag_12\n  jump\t// in\ntag_25:\n    /* \"#utility.yul\":696:839   */\n  swap3\n  swap2\n  pop\n  pop\n  jump\t// out\n    /* \"#utility.yul\":845:1196   */\ntag_3:\n    /* \"#utility.yul\":915:921   */\n  0x00\n    /* \"#utility.yul\":964:966   */\n  0x20\n    /* \"#utility.yul\":952:961   */\n  dup3\n    /* \"#utility.yul\":943:950   */\n  dup5\n    /* \"#utility.yul\":939:962   */\n  sub\n    /* \"#utility.yul\":935:967   */\n  slt\n    /* \"#utility.yul\":932:1051   */\n  iszero\n  tag_27\n  jumpi\n    /* \"#utility.yul\":970:1049   */\n  tag_28\n  tag_8\n  jump\t// in\ntag_28:\n    /* \"#utility.yul\":932:1051   */\ntag_27:\n    /* \"#utility.yul\":1090:1091   */\n  0x00\n    /* \"#utility.yul\":1115:1179   */\n  tag_29\n    /* \"#utility.yul\":1171:1178   */\n  dup5\n    /* \"#utility.yul\":1162:1168   */\n  dup3\n    /* \"#utility.yul\":1151:1160   */\n  dup6\n    /* \"#utility.yul\":1147:1169   */\n  add\n    /* \"#utility.yul\":1115:1179   */\n  tag_13\n  jump\t// in\ntag_29:\n    /* \"#utility.yul\":1105:1179   */\n  swap2\n  pop\n    /* \"#utility.yul\":1061:1189   */\n  pop\n    /* \"#utility.yul\":845:1196   */\n  swap3\n  swap2\n  pop\n  pop\n  jump\t// out\n    /* \"devs/UserManager.sol\":788:3645   */\ntag_6:\n  dataSize(sub_0)\n  dup1\n  dataOffset(sub_0)\n  0x00\n  codecopy\n  0x00\n  return\nstop\n\nsub_0: assembly {\n        /* \"devs/UserManager.sol\":788:3645   */\n      mstore(0x40, 0x80)\n      callvalue\n      dup1\n      iszero\n      tag_1\n      jumpi\n      0x00\n      dup1\n      revert\n    tag_1:\n      pop\n      jumpi(tag_2, lt(calldatasize, 0x04))\n      shr(0xe0, calldataload(0x00))\n      dup1\n      0xa5a9c518\n      gt\n      tag_19\n      jumpi\n      dup1\n      0xe597ef12\n      gt\n      tag_20\n      jumpi\n      dup1\n      0xe597ef12\n      eq\n      tag_15\n      jumpi\n      dup1\n      0xecded204\n      eq\n      tag_16\n      jumpi\n      dup1\n      0xf3c95c60\n      eq\n      tag_17\n      jumpi\n      dup1\n      0xfe69494b\n      eq\n      tag_18\n      jumpi\n      jump(tag_2)\n    tag_20:\n      dup1\n      0xa5a9c518\n      eq\n      tag_11\n      jumpi\n      dup1\n      0xa87430ba\n      eq\n      tag_12\n      jumpi\n      dup1\n      0xcbaf3186\n      eq\n      tag_13\n      jumpi\n      dup1\n      0xe3e1f001\n      eq\n      tag_14\n      jumpi\n      jump(tag_2)\n    tag_19:\n      dup1\n      0x4420e486\n      gt\n      tag_21\n      jumpi\n      dup1\n      0x4420e486\n      eq\n      tag_7\n      jumpi\n      dup1\n      0x4a09db4f\n      eq\n      tag_8\n      jumpi\n      dup1\n      0x8da5cb5b\n      eq\n      tag_9\n      jumpi\n      dup1\n      0xa1cb5cf2\n      eq\n      tag_10\n      jumpi\n      jump(tag_2)\n    tag_21:\n      dup1\n      0x19aa98a3\n      eq\n      tag_3\n      jumpi\n      dup1\n      0x371e91ca\n      eq\n      tag_4\n      jumpi\n      dup1\n      0x3cbdec03\n      eq\n      tag_5\n      jumpi\n      dup1\n      0x4172fb89\n      eq\n      tag_6\n      jumpi\n    tag_2:\n      0x00\n      dup1\n      revert\n        /* \"devs/UserManager.sol\":3320:3484   */\n    tag_3:\n      tag_22\n      0x04\n      dup1\n      calldatasize\n      sub\n      dup2\n      add\n      swap1\n      tag_23\n      swap2\n      swap1\n      tag_24\n      jump\t// in\n    tag_23:\n      tag_25\n      jump\t// in\n    tag_22:\n      mload(0x40)\n      tag_26\n      swap2\n      swap1\n      tag_27\n      jump\t// in\n    tag_26:\n      mload(0x40)\n      dup1\n      swap2\n      sub\n      swap1\n      return\n        /* \"devs/UserManager.sol\":3490:3642   */\n    tag_4:\n      tag_28\n      0x04\n      dup1\n      calldatasize\n      sub\n      dup2\n      add\n      swap1\n      tag_29\n      swap2\n      swap1\n      tag_30\n      jump\t// in\n    tag_29:\n      tag_31\n      jump\t// in\n    tag_28:\n      mload(0x40)\n      tag_32\n      swap2\n      swap1\n      tag_33\n      jump\t// in\n    tag_32:\n      mload(0x40)\n      dup1\n      swap2\n      sub\n      swap1\n      return\n        /* \"devs/UserManager.sol\":1066:1131   */\n    tag_5:\n      tag_34\n      0x04\n      dup1\n      calldatasize\n      sub\n      dup2\n      add\n      swap1\n      tag_35\n      swap2\n      swap1\n      tag_30\n      jump\t// in\n    tag_35:\n      tag_36\n      jump\t// in\n    tag_34:\n      mload(0x40)\n      tag_37\n      swap2\n      swap1\n      tag_33\n      jump\t// in\n    tag_37:\n      mload(0x40)\n      dup1\n      swap2\n      sub\n      swap1\n      return\n        /* \"devs/UserManager.sol\":3110:3226   */\n    tag_6:\n      tag_38\n      0x04\n      dup1\n      calldatasize\n      sub\n      dup2\n      add\n      swap1\n      tag_39\n      swap2\n      swap1\n      tag_24\n      jump\t// in\n    tag_39:\n      tag_40\n      jump\t// in\n    tag_38:\n      mload(0x40)\n      tag_41\n      swap2\n      swap1\n      tag_33\n      jump\t// in\n    tag_41:\n      mload(0x40)\n      dup1\n      swap2\n      sub\n      swap1\n      return\n        /* \"devs/UserManager.sol\":1427:1737   */\n    tag_7:\n      tag_42\n      0x04\n      dup1\n      calldatasize\n      sub\n      dup2\n      add\n      swap1\n      tag_43\n      swap2\n      swap1\n      tag_24\n      jump\t// in\n    tag_43:\n      tag_44\n      jump\t// in\n    tag_42:\n      stop\n        /* \"devs/UserManager.sol\":2402:2641   */\n    tag_8:\n      tag_45\n      0x04\n      dup1\n      calldatasize\n      sub\n      dup2\n      add\n      swap1\n      tag_46\n      swap2\n      swap1\n      tag_30\n      jump\t// in\n    tag_46:\n      tag_47\n      jump\t// in\n    tag_45:\n      stop\n        /* \"devs/UserManager.sol\":838:858   */\n    tag_9:\n      tag_48\n      tag_49\n      jump\t// in\n    tag_48:\n      mload(0x40)\n      tag_50\n      swap2\n      swap1\n      tag_51\n      jump\t// in\n    tag_50:\n      mload(0x40)\n      dup1\n      swap2\n      sub\n      swap1\n      return\n        /* \"devs/UserManager.sol\":3232:3314   */\n    tag_10:\n      tag_52\n      tag_53\n      jump\t// in\n    tag_52:\n      mload(0x40)\n      tag_54\n      swap2\n      swap1\n      tag_27\n      jump\t// in\n    tag_54:\n      mload(0x40)\n      dup1\n      swap2\n      sub\n      swap1\n      return\n        /* \"devs/UserManager.sol\":2129:2396   */\n    tag_11:\n      tag_55\n      0x04\n      dup1\n      calldatasize\n      sub\n      dup2\n      add\n      swap1\n      tag_56\n      swap2\n      swap1\n      tag_30\n      jump\t// in\n    tag_56:\n      tag_57\n      jump\t// in\n    tag_55:\n      stop\n        /* \"devs/UserManager.sol\":927:964   */\n    tag_12:\n      tag_58\n      0x04\n      dup1\n      calldatasize\n      sub\n      dup2\n      add\n      swap1\n      tag_59\n      swap2\n      swap1\n      tag_24\n      jump\t// in\n    tag_59:\n      tag_60\n      jump\t// in\n    tag_58:\n      mload(0x40)\n      tag_61\n      swap6\n      swap5\n      swap4\n      swap3\n      swap2\n      swap1\n      tag_62\n      jump\t// in\n    tag_61:\n      mload(0x40)\n      dup1\n      swap2\n      sub\n      swap1\n      return\n        /* \"devs/UserManager.sol\":1912:2041   */\n    tag_13:\n      tag_63\n      0x04\n      dup1\n      calldatasize\n      sub\n      dup2\n      add\n      swap1\n      tag_64\n      swap2\n      swap1\n      tag_24\n      jump\t// in\n    tag_64:\n      tag_65\n      jump\t// in\n    tag_63:\n      stop\n        /* \"devs/UserManager.sol\":902:921   */\n    tag_14:\n      tag_66\n      tag_67\n      jump\t// in\n    tag_66:\n      mload(0x40)\n      tag_68\n      swap2\n      swap1\n      tag_27\n      jump\t// in\n    tag_68:\n      mload(0x40)\n      dup1\n      swap2\n      sub\n      swap1\n      return\n        /* \"devs/UserManager.sol\":2647:2950   */\n    tag_15:\n      tag_69\n      0x04\n      dup1\n      calldatasize\n      sub\n      dup2\n      add\n      swap1\n      tag_70\n      swap2\n      swap1\n      tag_30\n      jump\t// in\n    tag_70:\n      tag_71\n      jump\t// in\n    tag_69:\n      stop\n        /* \"devs/UserManager.sol\":2982:3104   */\n    tag_16:\n      tag_72\n      0x04\n      dup1\n      calldatasize\n      sub\n      dup2\n      add\n      swap1\n      tag_73\n      swap2\n      swap1\n      tag_24\n      jump\t// in\n    tag_73:\n      tag_74\n      jump\t// in\n    tag_72:\n      mload(0x40)\n      tag_75\n      swap2\n      swap1\n      tag_33\n      jump\t// in\n    tag_75:\n      mload(0x40)\n      dup1\n      swap2\n      sub\n      swap1\n      return\n        /* \"devs/UserManager.sol\":970:1013   */\n    tag_17:\n      tag_76\n      0x04\n      dup1\n      calldatasize\n      sub\n      dup2\n      add\n      swap1\n      tag_77\n      swap2\n      swap1\n      tag_24\n      jump\t// in\n    tag_77:\n      tag_78\n      jump\t// in\n    tag_76:\n      mload(0x40)\n      tag_79\n      swap2\n      swap1\n      tag_33\n      jump\t// in\n    tag_79:\n      mload(0x40)\n      dup1\n      swap2\n      sub\n      swap1\n      return\n        /* \"devs/UserManager.sol\":1743:1906   */\n    tag_18:\n      tag_80\n      0x04\n      dup1\n      calldatasize\n      sub\n      dup2\n      add\n      swap1\n      tag_81\n      swap2\n      swap1\n      tag_24\n      jump\t// in\n    tag_81:\n      tag_82\n      jump\t// in\n    tag_80:\n      stop\n        /* \"devs/UserManager.sol\":3320:3484   */\n    tag_25:\n        /* \"devs/UserManager.sol\":3389:3393   */\n      0x00\n        /* \"devs/UserManager.sol\":3404:3421   */\n      dup1\n        /* \"devs/UserManager.sol\":3424:3429   */\n      0x03\n        /* \"devs/UserManager.sol\":3424:3443   */\n      0x00\n        /* \"devs/UserManager.sol\":3430:3442   */\n      dup5\n        /* \"devs/UserManager.sol\":3424:3443   */\n      0xffffffffffffffffffffffffffffffffffffffff\n      and\n      0xffffffffffffffffffffffffffffffffffffffff\n      and\n      dup2\n      mstore\n      0x20\n      add\n      swap1\n      dup2\n      mstore\n      0x20\n      add\n      0x00\n      keccak256\n        /* \"devs/UserManager.sol\":3404:3443   */\n      swap1\n      pop\n        /* \"devs/UserManager.sol\":3460:3464   */\n      dup1\n        /* \"devs/UserManager.sol\":3460:3477   */\n      0x02\n      add\n      sload\n        /* \"devs/UserManager.sol\":3453:3477   */\n      swap2\n      pop\n      pop\n        /* \"devs/UserManager.sol\":3320:3484   */\n      swap2\n      swap1\n      pop\n      jump\t// out\n        /* \"devs/UserManager.sol\":3490:3642   */\n    tag_31:\n        /* \"devs/UserManager.sol\":3573:3577   */\n      0x00\n        /* \"devs/UserManager.sol\":3595:3611   */\n      0x05\n        /* \"devs/UserManager.sol\":3595:3625   */\n      0x00\n        /* \"devs/UserManager.sol\":3612:3624   */\n      dup5\n        /* \"devs/UserManager.sol\":3595:3625   */\n      0xffffffffffffffffffffffffffffffffffffffff\n      and\n      0xffffffffffffffffffffffffffffffffffffffff\n      and\n      dup2\n      mstore\n      0x20\n      add\n      swap1\n      dup2\n      mstore\n      0x20\n      add\n      0x00\n      keccak256\n        /* \"devs/UserManager.sol\":3595:3635   */\n      0x00\n        /* \"devs/UserManager.sol\":3626:3634   */\n      dup4\n        /* \"devs/UserManager.sol\":3595:3635   */\n      dup2\n      mstore\n      0x20\n      add\n      swap1\n      dup2\n      mstore\n      0x20\n      add\n      0x00\n      keccak256\n      0x00\n      swap1\n      sload\n      swap1\n      0x0100\n      exp\n      swap1\n      div\n      0xff\n      and\n        /* \"devs/UserManager.sol\":3588:3635   */\n      swap1\n      pop\n        /* \"devs/UserManager.sol\":3490:3642   */\n      swap3\n      swap2\n      pop\n      pop\n      jump\t// out\n        /* \"devs/UserManager.sol\":1066:1131   */\n    tag_36:\n      mstore(0x20, 0x05)\n      dup2\n      0x00\n      mstore\n      mstore(0x20, keccak256(0x00, 0x40))\n      dup1\n      0x00\n      mstore\n      keccak256(0x00, 0x40)\n      0x00\n      swap2\n      pop\n      swap2\n      pop\n      swap1\n      sload\n      swap1\n      0x0100\n      exp\n      swap1\n      div\n      0xff\n      and\n      dup2\n      jump\t// out\n        /* \"devs/UserManager.sol\":3110:3226   */\n    tag_40:\n        /* \"devs/UserManager.sol\":3175:3179   */\n      0x00\n        /* \"devs/UserManager.sol\":3197:3204   */\n      0x07\n        /* \"devs/UserManager.sol\":3197:3219   */\n      0x00\n        /* \"devs/UserManager.sol\":3205:3218   */\n      dup4\n        /* \"devs/UserManager.sol\":3197:3219   */\n      0xffffffffffffffffffffffffffffffffffffffff\n      and\n      0xffffffffffffffffffffffffffffffffffffffff\n      and\n      dup2\n      mstore\n      0x20\n      add\n      swap1\n      dup2\n      mstore\n      0x20\n      add\n      0x00\n      keccak256\n      0x00\n      swap1\n      sload\n      swap1\n      0x0100\n      exp\n      swap1\n      div\n      0xff\n      and\n        /* \"devs/UserManager.sol\":3190:3219   */\n      swap1\n      pop\n        /* \"devs/UserManager.sol\":3110:3226   */\n      swap2\n      swap1\n      pop\n      jump\t// out\n        /* \"devs/UserManager.sol\":1427:1737   */\n    tag_44:\n        /* \"devs/UserManager.sol\":1275:1285   */\n      caller\n        /* \"devs/UserManager.sol\":1256:1285   */\n      0xffffffffffffffffffffffffffffffffffffffff\n      and\n        /* \"devs/UserManager.sol\":1256:1271   */\n      0x01\n      0x00\n      swap1\n      sload\n      swap1\n      0x0100\n      exp\n      swap1\n      div\n      0xffffffffffffffffffffffffffffffffffffffff\n      and\n        /* \"devs/UserManager.sol\":1256:1285   */\n      0xffffffffffffffffffffffffffffffffffffffff\n      and\n      eq\n        /* \"devs/UserManager.sol\":1248:1286   */\n      tag_87\n      jumpi\n      0x00\n      dup1\n      revert\n    tag_87:\n        /* \"devs/UserManager.sol\":1499:1510   */\n      0x04\n        /* \"devs/UserManager.sol\":1499:1519   */\n      0x00\n        /* \"devs/UserManager.sol\":1511:1518   */\n      dup3\n        /* \"devs/UserManager.sol\":1499:1519   */\n      0xffffffffffffffffffffffffffffffffffffffff\n      and\n      0xffffffffffffffffffffffffffffffffffffffff\n      and\n      dup2\n      mstore\n      0x20\n      add\n      swap1\n      dup2\n      mstore\n      0x20\n      add\n      0x00\n      keccak256\n      0x00\n      swap1\n      sload\n      swap1\n      0x0100\n      exp\n      swap1\n      div\n      0xff\n      and\n        /* \"devs/UserManager.sol\":1498:1519   */\n      iszero\n        /* \"devs/UserManager.sol\":1490:1520   */\n      tag_89\n      jumpi\n      0x00\n      dup1\n      revert\n    tag_89:\n        /* \"devs/UserManager.sol\":1553:1557   */\n      0x01\n        /* \"devs/UserManager.sol\":1530:1541   */\n      0x04\n        /* \"devs/UserManager.sol\":1530:1550   */\n      0x00\n        /* \"devs/UserManager.sol\":1542:1549   */\n      dup4\n        /* \"devs/UserManager.sol\":1530:1550   */\n      0xffffffffffffffffffffffffffffffffffffffff\n      and\n      0xffffffffffffffffffffffffffffffffffffffff\n      and\n      dup2\n      mstore\n      0x20\n      add\n      swap1\n      dup2\n      mstore\n      0x20\n      add\n      0x00\n      keccak256\n      0x00\n        /* \"devs/UserManager.sol\":1530:1557   */\n      0x0100\n      exp\n      dup2\n      sload\n      dup2\n      0xff\n      mul\n      not\n      and\n      swap1\n      dup4\n      iszero\n      iszero\n      mul\n      or\n      swap1\n      sstore\n      pop\n        /* \"devs/UserManager.sol\":1567:1584   */\n      0x00\n        /* \"devs/UserManager.sol\":1587:1592   */\n      0x03\n        /* \"devs/UserManager.sol\":1587:1601   */\n      0x00\n        /* \"devs/UserManager.sol\":1593:1600   */\n      dup4\n        /* \"devs/UserManager.sol\":1587:1601   */\n      0xffffffffffffffffffffffffffffffffffffffff\n      and\n      0xffffffffffffffffffffffffffffffffffffffff\n      and\n      dup2\n      mstore\n      0x20\n      add\n      swap1\n      dup2\n      mstore\n      0x20\n      add\n      0x00\n      keccak256\n        /* \"devs/UserManager.sol\":1567:1601   */\n      swap1\n      pop\n        /* \"devs/UserManager.sol\":1630:1637   */\n      dup2\n        /* \"devs/UserManager.sol\":1611:1615   */\n      dup2\n        /* \"devs/UserManager.sol\":1611:1627   */\n      0x00\n      add\n      0x00\n        /* \"devs/UserManager.sol\":1611:1637   */\n      0x0100\n      exp\n      dup2\n      sload\n      dup2\n      0xffffffffffffffffffffffffffffffffffffffff\n      mul\n      not\n      and\n      swap1\n      dup4\n      0xffffffffffffffffffffffffffffffffffffffff\n      and\n      mul\n      or\n      swap1\n      sstore\n      pop\n        /* \"devs/UserManager.sol\":1667:1668   */\n      0x00\n        /* \"devs/UserManager.sol\":1647:1651   */\n      dup2\n        /* \"devs/UserManager.sol\":1647:1664   */\n      0x02\n      add\n        /* \"devs/UserManager.sol\":1647:1668   */\n      dup2\n      swap1\n      sstore\n      pop\n        /* \"devs/UserManager.sol\":1698:1699   */\n      0x00\n        /* \"devs/UserManager.sol\":1678:1682   */\n      dup2\n        /* \"devs/UserManager.sol\":1678:1694   */\n      0x03\n      add\n        /* \"devs/UserManager.sol\":1678:1699   */\n      dup2\n      swap1\n      sstore\n      pop\n        /* \"devs/UserManager.sol\":1729:1730   */\n      0x00\n        /* \"devs/UserManager.sol\":1709:1713   */\n      dup2\n        /* \"devs/UserManager.sol\":1709:1726   */\n      0x05\n      add\n        /* \"devs/UserManager.sol\":1709:1730   */\n      dup2\n      swap1\n      sstore\n      pop\n        /* \"devs/UserManager.sol\":1480:1737   */\n      pop\n        /* \"devs/UserManager.sol\":1427:1737   */\n      pop\n      jump\t// out\n        /* \"devs/UserManager.sol\":2402:2641   */\n    tag_47:\n        /* \"devs/UserManager.sol\":1275:1285   */\n      caller\n        /* \"devs/UserManager.sol\":1256:1285   */\n      0xffffffffffffffffffffffffffffffffffffffff\n      and\n        /* \"devs/UserManager.sol\":1256:1271   */\n      0x01\n      0x00\n      swap1\n      sload\n      swap1\n      0x0100\n      exp\n      swap1\n      div\n      0xffffffffffffffffffffffffffffffffffffffff\n      and\n        /* \"devs/UserManager.sol\":1256:1285   */\n      0xffffffffffffffffffffffffffffffffffffffff\n      and\n      eq\n        /* \"devs/UserManager.sol\":1248:1286   */\n      tag_91\n      jumpi\n      0x00\n      dup1\n      revert\n    tag_91:\n        /* \"devs/UserManager.sol\":2487:2498   */\n      0x04\n        /* \"devs/UserManager.sol\":2487:2507   */\n      0x00\n        /* \"devs/UserManager.sol\":2499:2506   */\n      dup4\n        /* \"devs/UserManager.sol\":2487:2507   */\n      0xffffffffffffffffffffffffffffffffffffffff\n      and\n      0xffffffffffffffffffffffffffffffffffffffff\n      and\n      dup2\n      mstore\n      0x20\n      add\n      swap1\n      dup2\n      mstore\n      0x20\n      add\n      0x00\n      keccak256\n      0x00\n      swap1\n      sload\n      swap1\n      0x0100\n      exp\n      swap1\n      div\n      0xff\n      and\n        /* \"devs/UserManager.sol\":2479:2508   */\n      tag_93\n      jumpi\n      0x00\n      dup1\n      revert\n    tag_93:\n        /* \"devs/UserManager.sol\":2518:2535   */\n      0x00\n        /* \"devs/UserManager.sol\":2538:2543   */\n      0x03\n        /* \"devs/UserManager.sol\":2538:2552   */\n      0x00\n        /* \"devs/UserManager.sol\":2544:2551   */\n      dup5\n        /* \"devs/UserManager.sol\":2538:2552   */\n      0xffffffffffffffffffffffffffffffffffffffff\n      and\n      0xffffffffffffffffffffffffffffffffffffffff\n      and\n      dup2\n      mstore\n      0x20\n      add\n      swap1\n      dup2\n      mstore\n      0x20\n      add\n      0x00\n      keccak256\n        /* \"devs/UserManager.sol\":2518:2552   */\n      swap1\n      pop\n        /* \"devs/UserManager.sol\":2600:2605   */\n      0x00\n        /* \"devs/UserManager.sol\":2562:2578   */\n      0x05\n        /* \"devs/UserManager.sol\":2562:2587   */\n      0x00\n        /* \"devs/UserManager.sol\":2579:2586   */\n      dup6\n        /* \"devs/UserManager.sol\":2562:2587   */\n      0xffffffffffffffffffffffffffffffffffffffff\n      and\n      0xffffffffffffffffffffffffffffffffffffffff\n      and\n      dup2\n      mstore\n      0x20\n      add\n      swap1\n      dup2\n      mstore\n      0x20\n      add\n      0x00\n      keccak256\n        /* \"devs/UserManager.sol\":2562:2597   */\n      0x00\n        /* \"devs/UserManager.sol\":2588:2596   */\n      dup5\n        /* \"devs/UserManager.sol\":2562:2597   */\n      dup2\n      mstore\n      0x20\n      add\n      swap1\n      dup2\n      mstore\n      0x20\n      add\n      0x00\n      keccak256\n      0x00\n        /* \"devs/UserManager.sol\":2562:2605   */\n      0x0100\n      exp\n      dup2\n      sload\n      dup2\n      0xff\n      mul\n      not\n      and\n      swap1\n      dup4\n      iszero\n      iszero\n      mul\n      or\n      swap1\n      sstore\n      pop\n        /* \"devs/UserManager.sol\":2615:2619   */\n      dup1\n        /* \"devs/UserManager.sol\":2615:2632   */\n      0x02\n      add\n      0x00\n        /* \"devs/UserManager.sol\":2615:2634   */\n      dup2\n      sload\n      dup1\n      swap3\n      swap2\n      swap1\n      tag_94\n      swap1\n      tag_95\n      jump\t// in\n    tag_94:\n      swap2\n      swap1\n      pop\n      sstore\n      pop\n        /* \"devs/UserManager.sol\":2469:2641   */\n      pop\n        /* \"devs/UserManager.sol\":2402:2641   */\n      pop\n      pop\n      jump\t// out\n        /* \"devs/UserManager.sol\":838:858   */\n    tag_49:\n      0x00\n      dup1\n      sload\n      swap1\n      0x0100\n      exp\n      swap1\n      div\n      0xffffffffffffffffffffffffffffffffffffffff\n      and\n      dup2\n      jump\t// out\n        /* \"devs/UserManager.sol\":3232:3314   */\n    tag_53:\n        /* \"devs/UserManager.sol\":3277:3281   */\n      0x00\n        /* \"devs/UserManager.sol\":3299:3307   */\n      sload(0x06)\n        /* \"devs/UserManager.sol\":3292:3307   */\n      swap1\n      pop\n        /* \"devs/UserManager.sol\":3232:3314   */\n      swap1\n      jump\t// out\n        /* \"devs/UserManager.sol\":2129:2396   */\n    tag_57:\n        /* \"devs/UserManager.sol\":1275:1285   */\n      caller\n        /* \"devs/UserManager.sol\":1256:1285   */\n      0xffffffffffffffffffffffffffffffffffffffff\n      and\n        /* \"devs/UserManager.sol\":1256:1271   */\n      0x01\n      0x00\n      swap1\n      sload\n      swap1\n      0x0100\n      exp\n      swap1\n      div\n      0xffffffffffffffffffffffffffffffffffffffff\n      and\n        /* \"devs/UserManager.sol\":1256:1285   */\n      0xffffffffffffffffffffffffffffffffffffffff\n      and\n      eq\n        /* \"devs/UserManager.sol\":1248:1286   */\n      tag_98\n      jumpi\n      0x00\n      dup1\n      revert\n    tag_98:\n        /* \"devs/UserManager.sol\":2214:2225   */\n      0x04\n        /* \"devs/UserManager.sol\":2214:2234   */\n      0x00\n        /* \"devs/UserManager.sol\":2226:2233   */\n      dup4\n        /* \"devs/UserManager.sol\":2214:2234   */\n      0xffffffffffffffffffffffffffffffffffffffff\n      and\n      0xffffffffffffffffffffffffffffffffffffffff\n      and\n      dup2\n      mstore\n      0x20\n      add\n      swap1\n      dup2\n      mstore\n      0x20\n      add\n      0x00\n      keccak256\n      0x00\n      swap1\n      sload\n      swap1\n      0x0100\n      exp\n      swap1\n      div\n      0xff\n      and\n        /* \"devs/UserManager.sol\":2206:2235   */\n      tag_100\n      jumpi\n      0x00\n      dup1\n      revert\n    tag_100:\n        /* \"devs/UserManager.sol\":2246:2263   */\n      0x00\n        /* \"devs/UserManager.sol\":2266:2271   */\n      0x03\n        /* \"devs/UserManager.sol\":2266:2280   */\n      0x00\n        /* \"devs/UserManager.sol\":2272:2279   */\n      dup5\n        /* \"devs/UserManager.sol\":2266:2280   */\n      0xffffffffffffffffffffffffffffffffffffffff\n      and\n      0xffffffffffffffffffffffffffffffffffffffff\n      and\n      dup2\n      mstore\n      0x20\n      add\n      swap1\n      dup2\n      mstore\n      0x20\n      add\n      0x00\n      keccak256\n        /* \"devs/UserManager.sol\":2246:2280   */\n      swap1\n      pop\n        /* \"devs/UserManager.sol\":2328:2332   */\n      0x01\n        /* \"devs/UserManager.sol\":2290:2306   */\n      0x05\n        /* \"devs/UserManager.sol\":2290:2315   */\n      0x00\n        /* \"devs/UserManager.sol\":2307:2314   */\n      dup6\n        /* \"devs/UserManager.sol\":2290:2315   */\n      0xffffffffffffffffffffffffffffffffffffffff\n      and\n      0xffffffffffffffffffffffffffffffffffffffff\n      and\n      dup2\n      mstore\n      0x20\n      add\n      swap1\n      dup2\n      mstore\n      0x20\n      add\n      0x00\n      keccak256\n        /* \"devs/UserManager.sol\":2290:2325   */\n      0x00\n        /* \"devs/UserManager.sol\":2316:2324   */\n      dup5\n        /* \"devs/UserManager.sol\":2290:2325   */\n      dup2\n      mstore\n      0x20\n      add\n      swap1\n      dup2\n      mstore\n      0x20\n      add\n      0x00\n      keccak256\n      0x00\n        /* \"devs/UserManager.sol\":2290:2332   */\n      0x0100\n      exp\n      dup2\n      sload\n      dup2\n      0xff\n      mul\n      not\n      and\n      swap1\n      dup4\n      iszero\n      iszero\n      mul\n      or\n      swap1\n      sstore\n      pop\n        /* \"devs/UserManager.sol\":2342:2346   */\n      dup1\n        /* \"devs/UserManager.sol\":2342:2359   */\n      0x02\n      add\n      0x00\n        /* \"devs/UserManager.sol\":2342:2361   */\n      dup2\n      sload\n      dup1\n      swap3\n      swap2\n      swap1\n      tag_101\n      swap1\n      tag_102\n      jump\t// in\n    tag_101:\n      swap2\n      swap1\n      pop\n      sstore\n      pop\n        /* \"devs/UserManager.sol\":2371:2375   */\n      dup1\n        /* \"devs/UserManager.sol\":2371:2387   */\n      0x03\n      add\n      0x00\n        /* \"devs/UserManager.sol\":2371:2389   */\n      dup2\n      sload\n      dup1\n      swap3\n      swap2\n      swap1\n      tag_103\n      swap1\n      tag_102\n      jump\t// in\n    tag_103:\n      swap2\n      swap1\n      pop\n      sstore\n      pop\n        /* \"devs/UserManager.sol\":2196:2396   */\n      pop\n        /* \"devs/UserManager.sol\":2129:2396   */\n      pop\n      pop\n      jump\t// out\n        /* \"devs/UserManager.sol\":927:964   */\n    tag_60:\n      mstore(0x20, 0x03)\n      dup1\n      0x00\n      mstore\n      keccak256(0x00, 0x40)\n      0x00\n      swap2\n      pop\n      swap1\n      pop\n      dup1\n      0x00\n      add\n      0x00\n      swap1\n      sload\n      swap1\n      0x0100\n      exp\n      swap1\n      div\n      0xffffffffffffffffffffffffffffffffffffffff\n      and\n      swap1\n      dup1\n      0x01\n      add\n      sload\n      swap1\n      dup1\n      0x02\n      add\n      sload\n      swap1\n      dup1\n      0x03\n      add\n      sload\n      swap1\n      dup1\n      0x05\n      add\n      sload\n      swap1\n      pop\n      dup6\n      jump\t// out\n        /* \"devs/UserManager.sol\":1912:2041   */\n    tag_65:\n        /* \"devs/UserManager.sol\":1275:1285   */\n      caller\n        /* \"devs/UserManager.sol\":1256:1285   */\n      0xffffffffffffffffffffffffffffffffffffffff\n      and\n        /* \"devs/UserManager.sol\":1256:1271   */\n      0x01\n      0x00\n      swap1\n      sload\n      swap1\n      0x0100\n      exp\n      swap1\n      div\n      0xffffffffffffffffffffffffffffffffffffffff\n      and\n        /* \"devs/UserManager.sol\":1256:1285   */\n      0xffffffffffffffffffffffffffffffffffffffff\n      and\n      eq\n        /* \"devs/UserManager.sol\":1248:1286   */\n      tag_105\n      jumpi\n      0x00\n      dup1\n      revert\n    tag_105:\n        /* \"devs/UserManager.sol\":2009:2014   */\n      0x00\n        /* \"devs/UserManager.sol\":1984:1991   */\n      0x07\n        /* \"devs/UserManager.sol\":1984:2006   */\n      0x00\n        /* \"devs/UserManager.sol\":1992:2005   */\n      dup4\n        /* \"devs/UserManager.sol\":1984:2006   */\n      0xffffffffffffffffffffffffffffffffffffffff\n      and\n      0xffffffffffffffffffffffffffffffffffffffff\n      and\n      dup2\n      mstore\n      0x20\n      add\n      swap1\n      dup2\n      mstore\n      0x20\n      add\n      0x00\n      keccak256\n      0x00\n        /* \"devs/UserManager.sol\":1984:2014   */\n      0x0100\n      exp\n      dup2\n      sload\n      dup2\n      0xff\n      mul\n      not\n      and\n      swap1\n      dup4\n      iszero\n      iszero\n      mul\n      or\n      swap1\n      sstore\n      pop\n        /* \"devs/UserManager.sol\":2024:2032   */\n      0x06\n      0x00\n        /* \"devs/UserManager.sol\":2024:2034   */\n      dup2\n      sload\n      dup1\n      swap3\n      swap2\n      swap1\n      tag_107\n      swap1\n      tag_95\n      jump\t// in\n    tag_107:\n      swap2\n      swap1\n      pop\n      sstore\n      pop\n        /* \"devs/UserManager.sol\":1912:2041   */\n      pop\n      jump\t// out\n        /* \"devs/UserManager.sol\":902:921   */\n    tag_67:\n      sload(0x02)\n      dup2\n      jump\t// out\n        /* \"devs/UserManager.sol\":2647:2950   */\n    tag_71:\n        /* \"devs/UserManager.sol\":1275:1285   */\n      caller\n        /* \"devs/UserManager.sol\":1256:1285   */\n      0xffffffffffffffffffffffffffffffffffffffff\n      and\n        /* \"devs/UserManager.sol\":1256:1271   */\n      0x01\n      0x00\n      swap1\n      sload\n      swap1\n      0x0100\n      exp\n      swap1\n      div\n      0xffffffffffffffffffffffffffffffffffffffff\n      and\n        /* \"devs/UserManager.sol\":1256:1285   */\n      0xffffffffffffffffffffffffffffffffffffffff\n      and\n      eq\n        /* \"devs/UserManager.sol\":1248:1286   */\n      tag_109\n      jumpi\n      0x00\n      dup1\n      revert\n    tag_109:\n        /* \"devs/UserManager.sol\":2733:2744   */\n      0x04\n        /* \"devs/UserManager.sol\":2733:2753   */\n      0x00\n        /* \"devs/UserManager.sol\":2745:2752   */\n      dup4\n        /* \"devs/UserManager.sol\":2733:2753   */\n      0xffffffffffffffffffffffffffffffffffffffff\n      and\n      0xffffffffffffffffffffffffffffffffffffffff\n      and\n      dup2\n      mstore\n      0x20\n      add\n      swap1\n      dup2\n      mstore\n      0x20\n      add\n      0x00\n      keccak256\n      0x00\n      swap1\n      sload\n      swap1\n      0x0100\n      exp\n      swap1\n      div\n      0xff\n      and\n        /* \"devs/UserManager.sol\":2725:2754   */\n      tag_111\n      jumpi\n      0x00\n      dup1\n      revert\n    tag_111:\n        /* \"devs/UserManager.sol\":2765:2782   */\n      0x00\n        /* \"devs/UserManager.sol\":2785:2790   */\n      0x03\n        /* \"devs/UserManager.sol\":2785:2799   */\n      0x00\n        /* \"devs/UserManager.sol\":2791:2798   */\n      dup5\n        /* \"devs/UserManager.sol\":2785:2799   */\n      0xffffffffffffffffffffffffffffffffffffffff\n      and\n      0xffffffffffffffffffffffffffffffffffffffff\n      and\n      dup2\n      mstore\n      0x20\n      add\n      swap1\n      dup2\n      mstore\n      0x20\n      add\n      0x00\n      keccak256\n        /* \"devs/UserManager.sol\":2765:2799   */\n      swap1\n      pop\n        /* \"devs/UserManager.sol\":2809:2813   */\n      dup1\n        /* \"devs/UserManager.sol\":2809:2830   */\n      0x06\n      add\n        /* \"devs/UserManager.sol\":2836:2844   */\n      dup3\n        /* \"devs/UserManager.sol\":2809:2845   */\n      swap1\n      dup1\n      0x01\n      dup2\n      sload\n      add\n      dup1\n      dup3\n      sstore\n      dup1\n      swap2\n      pop\n      pop\n      0x01\n      swap1\n      sub\n      swap1\n      0x00\n      mstore\n      keccak256(0x00, 0x20)\n      add\n      0x00\n      swap1\n      swap2\n      swap1\n      swap2\n      swap1\n      swap2\n      pop\n      sstore\n        /* \"devs/UserManager.sol\":2897:2901   */\n      dup1\n        /* \"devs/UserManager.sol\":2897:2914   */\n      0x05\n      add\n      sload\n        /* \"devs/UserManager.sol\":2855:2859   */\n      dup2\n        /* \"devs/UserManager.sol\":2855:2884   */\n      0x07\n      add\n        /* \"devs/UserManager.sol\":2855:2894   */\n      0x00\n        /* \"devs/UserManager.sol\":2885:2893   */\n      dup5\n        /* \"devs/UserManager.sol\":2855:2894   */\n      dup2\n      mstore\n      0x20\n      add\n      swap1\n      dup2\n      mstore\n      0x20\n      add\n      0x00\n      keccak256\n        /* \"devs/UserManager.sol\":2855:2914   */\n      dup2\n      swap1\n      sstore\n      pop\n        /* \"devs/UserManager.sol\":2924:2928   */\n      dup1\n        /* \"devs/UserManager.sol\":2924:2941   */\n      0x05\n      add\n      0x00\n        /* \"devs/UserManager.sol\":2924:2943   */\n      dup2\n      sload\n      dup1\n      swap3\n      swap2\n      swap1\n      tag_113\n      swap1\n      tag_102\n      jump\t// in\n    tag_113:\n      swap2\n      swap1\n      pop\n      sstore\n      pop\n        /* \"devs/UserManager.sol\":2715:2950   */\n      pop\n        /* \"devs/UserManager.sol\":2647:2950   */\n      pop\n      pop\n      jump\t// out\n        /* \"devs/UserManager.sol\":2982:3104   */\n    tag_74:\n        /* \"devs/UserManager.sol\":3050:3054   */\n      0x00\n        /* \"devs/UserManager.sol\":3072:3083   */\n      0x04\n        /* \"devs/UserManager.sol\":3072:3097   */\n      0x00\n        /* \"devs/UserManager.sol\":3084:3096   */\n      dup4\n        /* \"devs/UserManager.sol\":3072:3097   */\n      0xffffffffffffffffffffffffffffffffffffffff\n      and\n      0xffffffffffffffffffffffffffffffffffffffff\n      and\n      dup2\n      mstore\n      0x20\n      add\n      swap1\n      dup2\n      mstore\n      0x20\n      add\n      0x00\n      keccak256\n      0x00\n      swap1\n      sload\n      swap1\n      0x0100\n      exp\n      swap1\n      div\n      0xff\n      and\n        /* \"devs/UserManager.sol\":3065:3097   */\n      swap1\n      pop\n        /* \"devs/UserManager.sol\":2982:3104   */\n      swap2\n      swap1\n      pop\n      jump\t// out\n        /* \"devs/UserManager.sol\":970:1013   */\n    tag_78:\n      mstore(0x20, 0x04)\n      dup1\n      0x00\n      mstore\n      keccak256(0x00, 0x40)\n      0x00\n      swap2\n      pop\n      sload\n      swap1\n      0x0100\n      exp\n      swap1\n      div\n      0xff\n      and\n      dup2\n      jump\t// out\n        /* \"devs/UserManager.sol\":1743:1906   */\n    tag_82:\n        /* \"devs/UserManager.sol\":1275:1285   */\n      caller\n        /* \"devs/UserManager.sol\":1256:1285   */\n      0xffffffffffffffffffffffffffffffffffffffff\n      and\n        /* \"devs/UserManager.sol\":1256:1271   */\n      0x01\n      0x00\n      swap1\n      sload\n      swap1\n      0x0100\n      exp\n      swap1\n      div\n      0xffffffffffffffffffffffffffffffffffffffff\n      and\n        /* \"devs/UserManager.sol\":1256:1285   */\n      0xffffffffffffffffffffffffffffffffffffffff\n      and\n      eq\n        /* \"devs/UserManager.sol\":1248:1286   */\n      tag_116\n      jumpi\n      0x00\n      dup1\n      revert\n    tag_116:\n        /* \"devs/UserManager.sol\":1840:1844   */\n      0x01\n        /* \"devs/UserManager.sol\":1815:1822   */\n      0x07\n        /* \"devs/UserManager.sol\":1815:1837   */\n      0x00\n        /* \"devs/UserManager.sol\":1823:1836   */\n      dup4\n        /* \"devs/UserManager.sol\":1815:1837   */\n      0xffffffffffffffffffffffffffffffffffffffff\n      and\n      0xffffffffffffffffffffffffffffffffffffffff\n      and\n      dup2\n      mstore\n      0x20\n      add\n      swap1\n      dup2\n      mstore\n      0x20\n      add\n      0x00\n      keccak256\n      0x00\n        /* \"devs/UserManager.sol\":1815:1844   */\n      0x0100\n      exp\n      dup2\n      sload\n      dup2\n      0xff\n      mul\n      not\n      and\n      swap1\n      dup4\n      iszero\n      iszero\n      mul\n      or\n      swap1\n      sstore\n      pop\n        /* \"devs/UserManager.sol\":1854:1859   */\n      0x08\n        /* \"devs/UserManager.sol\":1865:1878   */\n      dup2\n        /* \"devs/UserManager.sol\":1854:1879   */\n      swap1\n      dup1\n      0x01\n      dup2\n      sload\n      add\n      dup1\n      dup3\n      sstore\n      dup1\n      swap2\n      pop\n      pop\n      0x01\n      swap1\n      sub\n      swap1\n      0x00\n      mstore\n      keccak256(0x00, 0x20)\n      add\n      0x00\n      swap1\n      swap2\n      swap1\n      swap2\n      swap1\n      swap2\n      0x0100\n      exp\n      dup2\n      sload\n      dup2\n      0xffffffffffffffffffffffffffffffffffffffff\n      mul\n      not\n      and\n      swap1\n      dup4\n      0xffffffffffffffffffffffffffffffffffffffff\n      and\n      mul\n      or\n      swap1\n      sstore\n      pop\n        /* \"devs/UserManager.sol\":1889:1897   */\n      0x06\n      0x00\n        /* \"devs/UserManager.sol\":1889:1899   */\n      dup2\n      sload\n      dup1\n      swap3\n      swap2\n      swap1\n      tag_119\n      swap1\n      tag_102\n      jump\t// in\n    tag_119:\n      swap2\n      swap1\n      pop\n      sstore\n      pop\n        /* \"devs/UserManager.sol\":1743:1906   */\n      pop\n      jump\t// out\n        /* \"#utility.yul\":88:205   */\n    tag_121:\n        /* \"#utility.yul\":197:198   */\n      0x00\n        /* \"#utility.yul\":194:195   */\n      dup1\n        /* \"#utility.yul\":187:199   */\n      revert\n        /* \"#utility.yul\":334:460   */\n    tag_123:\n        /* \"#utility.yul\":371:378   */\n      0x00\n        /* \"#utility.yul\":411:453   */\n      0xffffffffffffffffffffffffffffffffffffffff\n        /* \"#utility.yul\":404:409   */\n      dup3\n        /* \"#utility.yul\":400:454   */\n      and\n        /* \"#utility.yul\":389:454   */\n      swap1\n      pop\n        /* \"#utility.yul\":334:460   */\n      swap2\n      swap1\n      pop\n      jump\t// out\n        /* \"#utility.yul\":466:562   */\n    tag_124:\n        /* \"#utility.yul\":503:510   */\n      0x00\n        /* \"#utility.yul\":532:556   */\n      tag_141\n        /* \"#utility.yul\":550:555   */\n      dup3\n        /* \"#utility.yul\":532:556   */\n      tag_123\n      jump\t// in\n    tag_141:\n        /* \"#utility.yul\":521:556   */\n      swap1\n      pop\n        /* \"#utility.yul\":466:562   */\n      swap2\n      swap1\n      pop\n      jump\t// out\n        /* \"#utility.yul\":568:690   */\n    tag_125:\n        /* \"#utility.yul\":641:665   */\n      tag_143\n        /* \"#utility.yul\":659:664   */\n      dup2\n        /* \"#utility.yul\":641:665   */\n      tag_124\n      jump\t// in\n    tag_143:\n        /* \"#utility.yul\":634:639   */\n      dup2\n        /* \"#utility.yul\":631:666   */\n      eq\n        /* \"#utility.yul\":621:684   */\n      tag_144\n      jumpi\n        /* \"#utility.yul\":680:681   */\n      0x00\n        /* \"#utility.yul\":677:678   */\n      dup1\n        /* \"#utility.yul\":670:682   */\n      revert\n        /* \"#utility.yul\":621:684   */\n    tag_144:\n        /* \"#utility.yul\":568:690   */\n      pop\n      jump\t// out\n        /* \"#utility.yul\":696:835   */\n    tag_126:\n        /* \"#utility.yul\":742:747   */\n      0x00\n        /* \"#utility.yul\":780:786   */\n      dup2\n        /* \"#utility.yul\":767:787   */\n      calldataload\n        /* \"#utility.yul\":758:787   */\n      swap1\n      pop\n        /* \"#utility.yul\":796:829   */\n      tag_146\n        /* \"#utility.yul\":823:828   */\n      dup2\n        /* \"#utility.yul\":796:829   */\n      tag_125\n      jump\t// in\n    tag_146:\n        /* \"#utility.yul\":696:835   */\n      swap3\n      swap2\n      pop\n      pop\n      jump\t// out\n        /* \"#utility.yul\":841:1170   */\n    tag_24:\n        /* \"#utility.yul\":900:906   */\n      0x00\n        /* \"#utility.yul\":949:951   */\n      0x20\n        /* \"#utility.yul\":937:946   */\n      dup3\n        /* \"#utility.yul\":928:935   */\n      dup5\n        /* \"#utility.yul\":924:947   */\n      sub\n        /* \"#utility.yul\":920:952   */\n      slt\n        /* \"#utility.yul\":917:1036   */\n      iszero\n      tag_148\n      jumpi\n        /* \"#utility.yul\":955:1034   */\n      tag_149\n      tag_121\n      jump\t// in\n    tag_149:\n        /* \"#utility.yul\":917:1036   */\n    tag_148:\n        /* \"#utility.yul\":1075:1076   */\n      0x00\n        /* \"#utility.yul\":1100:1153   */\n      tag_150\n        /* \"#utility.yul\":1145:1152   */\n      dup5\n        /* \"#utility.yul\":1136:1142   */\n      dup3\n        /* \"#utility.yul\":1125:1134   */\n      dup6\n        /* \"#utility.yul\":1121:1143   */\n      add\n        /* \"#utility.yul\":1100:1153   */\n      tag_126\n      jump\t// in\n    tag_150:\n        /* \"#utility.yul\":1090:1153   */\n      swap2\n      pop\n        /* \"#utility.yul\":1046:1163   */\n      pop\n        /* \"#utility.yul\":841:1170   */\n      swap3\n      swap2\n      pop\n      pop\n      jump\t// out\n        /* \"#utility.yul\":1176:1253   */\n    tag_127:\n        /* \"#utility.yul\":1213:1220   */\n      0x00\n        /* \"#utility.yul\":1242:1247   */\n      dup2\n        /* \"#utility.yul\":1231:1247   */\n      swap1\n      pop\n        /* \"#utility.yul\":1176:1253   */\n      swap2\n      swap1\n      pop\n      jump\t// out\n        /* \"#utility.yul\":1259:1377   */\n    tag_128:\n        /* \"#utility.yul\":1346:1370   */\n      tag_153\n        /* \"#utility.yul\":1364:1369   */\n      dup2\n        /* \"#utility.yul\":1346:1370   */\n      tag_127\n      jump\t// in\n    tag_153:\n        /* \"#utility.yul\":1341:1344   */\n      dup3\n        /* \"#utility.yul\":1334:1371   */\n      mstore\n        /* \"#utility.yul\":1259:1377   */\n      pop\n      pop\n      jump\t// out\n        /* \"#utility.yul\":1383:1605   */\n    tag_27:\n        /* \"#utility.yul\":1476:1480   */\n      0x00\n        /* \"#utility.yul\":1514:1516   */\n      0x20\n        /* \"#utility.yul\":1503:1512   */\n      dup3\n        /* \"#utility.yul\":1499:1517   */\n      add\n        /* \"#utility.yul\":1491:1517   */\n      swap1\n      pop\n        /* \"#utility.yul\":1527:1598   */\n      tag_155\n        /* \"#utility.yul\":1595:1596   */\n      0x00\n        /* \"#utility.yul\":1584:1593   */\n      dup4\n        /* \"#utility.yul\":1580:1597   */\n      add\n        /* \"#utility.yul\":1571:1577   */\n      dup5\n        /* \"#utility.yul\":1527:1598   */\n      tag_128\n      jump\t// in\n    tag_155:\n        /* \"#utility.yul\":1383:1605   */\n      swap3\n      swap2\n      pop\n      pop\n      jump\t// out\n        /* \"#utility.yul\":1611:1733   */\n    tag_129:\n        /* \"#utility.yul\":1684:1708   */\n      tag_157\n        /* \"#utility.yul\":1702:1707   */\n      dup2\n        /* \"#utility.yul\":1684:1708   */\n      tag_127\n      jump\t// in\n    tag_157:\n        /* \"#utility.yul\":1677:1682   */\n      dup2\n        /* \"#utility.yul\":1674:1709   */\n      eq\n        /* \"#utility.yul\":1664:1727   */\n      tag_158\n      jumpi\n        /* \"#utility.yul\":1723:1724   */\n      0x00\n        /* \"#utility.yul\":1720:1721   */\n      dup1\n        /* \"#utility.yul\":1713:1725   */\n      revert\n        /* \"#utility.yul\":1664:1727   */\n    tag_158:\n        /* \"#utility.yul\":1611:1733   */\n      pop\n      jump\t// out\n        /* \"#utility.yul\":1739:1878   */\n    tag_130:\n        /* \"#utility.yul\":1785:1790   */\n      0x00\n        /* \"#utility.yul\":1823:1829   */\n      dup2\n        /* \"#utility.yul\":1810:1830   */\n      calldataload\n        /* \"#utility.yul\":1801:1830   */\n      swap1\n      pop\n        /* \"#utility.yul\":1839:1872   */\n      tag_160\n        /* \"#utility.yul\":1866:1871   */\n      dup2\n        /* \"#utility.yul\":1839:1872   */\n      tag_129\n      jump\t// in\n    tag_160:\n        /* \"#utility.yul\":1739:1878   */\n      swap3\n      swap2\n      pop\n      pop\n      jump\t// out\n        /* \"#utility.yul\":1884:2358   */\n    tag_30:\n        /* \"#utility.yul\":1952:1958   */\n      0x00\n        /* \"#utility.yul\":1960:1966   */\n      dup1\n        /* \"#utility.yul\":2009:2011   */\n      0x40\n        /* \"#utility.yul\":1997:2006   */\n      dup4\n        /* \"#utility.yul\":1988:1995   */\n      dup6\n        /* \"#utility.yul\":1984:2007   */\n      sub\n        /* \"#utility.yul\":1980:2012   */\n      slt\n        /* \"#utility.yul\":1977:2096   */\n      iszero\n      tag_162\n      jumpi\n        /* \"#utility.yul\":2015:2094   */\n      tag_163\n      tag_121\n      jump\t// in\n    tag_163:\n        /* \"#utility.yul\":1977:2096   */\n    tag_162:\n        /* \"#utility.yul\":2135:2136   */\n      0x00\n        /* \"#utility.yul\":2160:2213   */\n      tag_164\n        /* \"#utility.yul\":2205:2212   */\n      dup6\n        /* \"#utility.yul\":2196:2202   */\n      dup3\n        /* \"#utility.yul\":2185:2194   */\n      dup7\n        /* \"#utility.yul\":2181:2203   */\n      add\n        /* \"#utility.yul\":2160:2213   */\n      tag_126\n      jump\t// in\n    tag_164:\n        /* \"#utility.yul\":2150:2213   */\n      swap3\n      pop\n        /* \"#utility.yul\":2106:2223   */\n      pop\n        /* \"#utility.yul\":2262:2264   */\n      0x20\n        /* \"#utility.yul\":2288:2341   */\n      tag_165\n        /* \"#utility.yul\":2333:2340   */\n      dup6\n        /* \"#utility.yul\":2324:2330   */\n      dup3\n        /* \"#utility.yul\":2313:2322   */\n      dup7\n        /* \"#utility.yul\":2309:2331   */\n      add\n        /* \"#utility.yul\":2288:2341   */\n      tag_130\n      jump\t// in\n    tag_165:\n        /* \"#utility.yul\":2278:2341   */\n      swap2\n      pop\n        /* \"#utility.yul\":2233:2351   */\n      pop\n        /* \"#utility.yul\":1884:2358   */\n      swap3\n      pop\n      swap3\n      swap1\n      pop\n      jump\t// out\n        /* \"#utility.yul\":2364:2454   */\n    tag_131:\n        /* \"#utility.yul\":2398:2405   */\n      0x00\n        /* \"#utility.yul\":2441:2446   */\n      dup2\n        /* \"#utility.yul\":2434:2447   */\n      iszero\n        /* \"#utility.yul\":2427:2448   */\n      iszero\n        /* \"#utility.yul\":2416:2448   */\n      swap1\n      pop\n        /* \"#utility.yul\":2364:2454   */\n      swap2\n      swap1\n      pop\n      jump\t// out\n        /* \"#utility.yul\":2460:2569   */\n    tag_132:\n        /* \"#utility.yul\":2541:2562   */\n      tag_168\n        /* \"#utility.yul\":2556:2561   */\n      dup2\n        /* \"#utility.yul\":2541:2562   */\n      tag_131\n      jump\t// in\n    tag_168:\n        /* \"#utility.yul\":2536:2539   */\n      dup3\n        /* \"#utility.yul\":2529:2563   */\n      mstore\n        /* \"#utility.yul\":2460:2569   */\n      pop\n      pop\n      jump\t// out\n        /* \"#utility.yul\":2575:2785   */\n    tag_33:\n        /* \"#utility.yul\":2662:2666   */\n      0x00\n        /* \"#utility.yul\":2700:2702   */\n      0x20\n        /* \"#utility.yul\":2689:2698   */\n      dup3\n        /* \"#utility.yul\":2685:2703   */\n      add\n        /* \"#utility.yul\":2677:2703   */\n      swap1\n      pop\n        /* \"#utility.yul\":2713:2778   */\n      tag_170\n        /* \"#utility.yul\":2775:2776   */\n      0x00\n        /* \"#utility.yul\":2764:2773   */\n      dup4\n        /* \"#utility.yul\":2760:2777   */\n      add\n        /* \"#utility.yul\":2751:2757   */\n      dup5\n        /* \"#utility.yul\":2713:2778   */\n      tag_132\n      jump\t// in\n    tag_170:\n        /* \"#utility.yul\":2575:2785   */\n      swap3\n      swap2\n      pop\n      pop\n      jump\t// out\n        /* \"#utility.yul\":2791:2909   */\n    tag_133:\n        /* \"#utility.yul\":2878:2902   */\n      tag_172\n        /* \"#utility.yul\":2896:2901   */\n      dup2\n        /* \"#utility.yul\":2878:2902   */\n      tag_124\n      jump\t// in\n    tag_172:\n        /* \"#utility.yul\":2873:2876   */\n      dup3\n        /* \"#utility.yul\":2866:2903   */\n      mstore\n        /* \"#utility.yul\":2791:2909   */\n      pop\n      pop\n      jump\t// out\n        /* \"#utility.yul\":2915:3137   */\n    tag_51:\n        /* \"#utility.yul\":3008:3012   */\n      0x00\n        /* \"#utility.yul\":3046:3048   */\n      0x20\n        /* \"#utility.yul\":3035:3044   */\n      dup3\n        /* \"#utility.yul\":3031:3049   */\n      add\n        /* \"#utility.yul\":3023:3049   */\n      swap1\n      pop\n        /* \"#utility.yul\":3059:3130   */\n      tag_174\n        /* \"#utility.yul\":3127:3128   */\n      0x00\n        /* \"#utility.yul\":3116:3125   */\n      dup4\n        /* \"#utility.yul\":3112:3129   */\n      add\n        /* \"#utility.yul\":3103:3109   */\n      dup5\n        /* \"#utility.yul\":3059:3130   */\n      tag_133\n      jump\t// in\n    tag_174:\n        /* \"#utility.yul\":2915:3137   */\n      swap3\n      swap2\n      pop\n      pop\n      jump\t// out\n        /* \"#utility.yul\":3143:3807   */\n    tag_62:\n        /* \"#utility.yul\":3348:3352   */\n      0x00\n        /* \"#utility.yul\":3386:3389   */\n      0xa0\n        /* \"#utility.yul\":3375:3384   */\n      dup3\n        /* \"#utility.yul\":3371:3390   */\n      add\n        /* \"#utility.yul\":3363:3390   */\n      swap1\n      pop\n        /* \"#utility.yul\":3400:3471   */\n      tag_176\n        /* \"#utility.yul\":3468:3469   */\n      0x00\n        /* \"#utility.yul\":3457:3466   */\n      dup4\n        /* \"#utility.yul\":3453:3470   */\n      add\n        /* \"#utility.yul\":3444:3450   */\n      dup9\n        /* \"#utility.yul\":3400:3471   */\n      tag_133\n      jump\t// in\n    tag_176:\n        /* \"#utility.yul\":3481:3553   */\n      tag_177\n        /* \"#utility.yul\":3549:3551   */\n      0x20\n        /* \"#utility.yul\":3538:3547   */\n      dup4\n        /* \"#utility.yul\":3534:3552   */\n      add\n        /* \"#utility.yul\":3525:3531   */\n      dup8\n        /* \"#utility.yul\":3481:3553   */\n      tag_128\n      jump\t// in\n    tag_177:\n        /* \"#utility.yul\":3563:3635   */\n      tag_178\n        /* \"#utility.yul\":3631:3633   */\n      0x40\n        /* \"#utility.yul\":3620:3629   */\n      dup4\n        /* \"#utility.yul\":3616:3634   */\n      add\n        /* \"#utility.yul\":3607:3613   */\n      dup7\n        /* \"#utility.yul\":3563:3635   */\n      tag_128\n      jump\t// in\n    tag_178:\n        /* \"#utility.yul\":3645:3717   */\n      tag_179\n        /* \"#utility.yul\":3713:3715   */\n      0x60\n        /* \"#utility.yul\":3702:3711   */\n      dup4\n        /* \"#utility.yul\":3698:3716   */\n      add\n        /* \"#utility.yul\":3689:3695   */\n      dup6\n        /* \"#utility.yul\":3645:3717   */\n      tag_128\n      jump\t// in\n    tag_179:\n        /* \"#utility.yul\":3727:3800   */\n      tag_180\n        /* \"#utility.yul\":3795:3798   */\n      0x80\n        /* \"#utility.yul\":3784:3793   */\n      dup4\n        /* \"#utility.yul\":3780:3799   */\n      add\n        /* \"#utility.yul\":3771:3777   */\n      dup5\n        /* \"#utility.yul\":3727:3800   */\n      tag_128\n      jump\t// in\n    tag_180:\n        /* \"#utility.yul\":3143:3807   */\n      swap7\n      swap6\n      pop\n      pop\n      pop\n      pop\n      pop\n      pop\n      jump\t// out\n        /* \"#utility.yul\":3813:3993   */\n    tag_134:\n        /* \"#utility.yul\":3861:3938   */\n      0x4e487b7100000000000000000000000000000000000000000000000000000000\n        /* \"#utility.yul\":3858:3859   */\n      0x00\n        /* \"#utility.yul\":3851:3939   */\n      mstore\n        /* \"#utility.yul\":3958:3962   */\n      0x11\n        /* \"#utility.yul\":3955:3956   */\n      0x04\n        /* \"#utility.yul\":3948:3963   */\n      mstore\n        /* \"#utility.yul\":3982:3986   */\n      0x24\n        /* \"#utility.yul\":3979:3980   */\n      0x00\n        /* \"#utility.yul\":3972:3987   */\n      revert\n        /* \"#utility.yul\":3999:4170   */\n    tag_95:\n        /* \"#utility.yul\":4038:4041   */\n      0x00\n        /* \"#utility.yul\":4061:4085   */\n      tag_183\n        /* \"#utility.yul\":4079:4084   */\n      dup3\n        /* \"#utility.yul\":4061:4085   */\n      tag_127\n      jump\t// in\n    tag_183:\n        /* \"#utility.yul\":4052:4085   */\n      swap2\n      pop\n        /* \"#utility.yul\":4107:4111   */\n      0x00\n        /* \"#utility.yul\":4100:4105   */\n      dup3\n        /* \"#utility.yul\":4097:4112   */\n      eq\n        /* \"#utility.yul\":4094:4135   */\n      iszero\n      tag_184\n      jumpi\n        /* \"#utility.yul\":4115:4133   */\n      tag_185\n      tag_134\n      jump\t// in\n    tag_185:\n        /* \"#utility.yul\":4094:4135   */\n    tag_184:\n        /* \"#utility.yul\":4162:4163   */\n      0x01\n        /* \"#utility.yul\":4155:4160   */\n      dup3\n        /* \"#utility.yul\":4151:4164   */\n      sub\n        /* \"#utility.yul\":4144:4164   */\n      swap1\n      pop\n        /* \"#utility.yul\":3999:4170   */\n      swap2\n      swap1\n      pop\n      jump\t// out\n        /* \"#utility.yul\":4176:4409   */\n    tag_102:\n        /* \"#utility.yul\":4215:4218   */\n      0x00\n        /* \"#utility.yul\":4238:4262   */\n      tag_187\n        /* \"#utility.yul\":4256:4261   */\n      dup3\n        /* \"#utility.yul\":4238:4262   */\n      tag_127\n      jump\t// in\n    tag_187:\n        /* \"#utility.yul\":4229:4262   */\n      swap2\n      pop\n        /* \"#utility.yul\":4284:4350   */\n      0xffffffffffffffffffffffffffffffffffffffffffffffffffffffffffffffff\n        /* \"#utility.yul\":4277:4282   */\n      dup3\n        /* \"#utility.yul\":4274:4351   */\n      eq\n        /* \"#utility.yul\":4271:4374   */\n      iszero\n      tag_188\n      jumpi\n        /* \"#utility.yul\":4354:4372   */\n      tag_189\n      tag_134\n      jump\t// in\n    tag_189:\n        /* \"#utility.yul\":4271:4374   */\n    tag_188:\n        /* \"#utility.yul\":4401:4402   */\n      0x01\n        /* \"#utility.yul\":4394:4399   */\n      dup3\n        /* \"#utility.yul\":4390:4403   */\n      add\n        /* \"#utility.yul\":4383:4403   */\n      swap1\n      pop\n        /* \"#utility.yul\":4176:4409   */\n      swap2\n      swap1\n      pop\n      jump\t// out\n\n    auxdata: 0xa264697066735822122098e8efead580d0c3c8c89f5c04b47782a08cd2a282ee98dd25f982512491857664736f6c634300080a0033\n}\n","bytecode":{"linkReferences":{},"object":"60806040523480156200001157600080fd5b50604051620011d8380380620011d8833981810160405281019062000037919062000129565b806000806101000a81548173ffffffffffffffffffffffffffffffffffffffff021916908373ffffffffffffffffffffffffffffffffffffffff16021790555033600160006101000a81548173ffffffffffffffffffffffffffffffffffffffff021916908373ffffffffffffffffffffffffffffffffffffffff160217905550506200015b565b600080fd5b600073ffffffffffffffffffffffffffffffffffffffff82169050919050565b6000620000f182620000c4565b9050919050565b6200010381620000e4565b81146200010f57600080fd5b50565b6000815190506200012381620000f8565b92915050565b600060208284031215620001425762000141620000bf565b5b6000620001528482850162000112565b91505092915050565b61106d806200016b6000396000f3fe608060405234801561001057600080fd5b50600436106101005760003560e01c8063a5a9c51811610097578063e597ef1211610066578063e597ef12146102c3578063ecded204146102df578063f3c95c601461030f578063fe69494b1461033f57610100565b8063a5a9c51814610239578063a87430ba14610255578063cbaf318614610289578063e3e1f001146102a557610100565b80634420e486116100d35780634420e486146101c55780634a09db4f146101e15780638da5cb5b146101fd578063a1cb5cf21461021b57610100565b806319aa98a314610105578063371e91ca146101355780633cbdec03146101655780634172fb8914610195575b600080fd5b61011f600480360381019061011a9190610e15565b61035b565b60405161012c9190610e5b565b60405180910390f35b61014f600480360381019061014a9190610ea2565b6103ac565b60405161015c9190610efd565b60405180910390f35b61017f600480360381019061017a9190610ea2565b610414565b60405161018c9190610efd565b60405180910390f35b6101af60048036038101906101aa9190610e15565b610443565b6040516101bc9190610efd565b60405180910390f35b6101df60048036038101906101da9190610e15565b610499565b005b6101fb60048036038101906101f69190610ea2565b61064a565b005b6102056107c5565b6040516102129190610f27565b60405180910390f35b6102236107e9565b6040516102309190610e5b565b60405180910390f35b610253600480360381019061024e9190610ea2565b6107f3565b005b61026f600480360381019061026a9190610e15565b610988565b604051610280959493929190610f42565b60405180910390f35b6102a3600480360381019061029e9190610e15565b6109de565b005b6102ad610aab565b6040516102ba9190610e5b565b60405180910390f35b6102dd60048036038101906102d89190610ea2565b610ab1565b005b6102f960048036038101906102f49190610e15565b610c0c565b6040516103069190610efd565b60405180910390f35b61032960048036038101906103249190610e15565b610c62565b6040516103369190610efd565b60405180910390f35b61035960048036038101906103549190610e15565b610c82565b005b600080600360008473ffffffffffffffffffffffffffffffffffffffff1673ffffffffffffffffffffffffffffffffffffffff16815260200190815260200160002090508060020154915050919050565b6000600560008473ffffffffffffffffffffffffffffffffffffffff1673ffffffffffffffffffffffffffffffffffffffff168152602001908152602001600020600083815260200190815260200160002060009054906101000a900460ff16905092915050565b60056020528160005260406000206020528060005260406000206000915091509054906101000a900460ff1681565b6000600760008373ffffffffffffffffffffffffffffffffffffffff1673ffffffffffffffffffffffffffffffffffffffff16815260200190815260200160002060009054906101000a900460ff169050919050565b3373ffffffffffffffffffffffffffffffffffffffff16600160009054906101000a900473ffffffffffffffffffffffffffffffffffffffff1673ffffffffffffffffffffffffffffffffffffffff16146104f357600080fd5b600460008273ffffffffffffffffffffffffffffffffffffffff1673ffffffffffffffffffffffffffffffffffffffff16815260200190815260200160002060009054906101000a900460ff161561054a57600080fd5b6001600460008373ffffffffffffffffffffffffffffffffffffffff1673ffffffffffffffffffffffffffffffffffffffff16815260200190815260200160002060006101000a81548160ff0219169083151502179055506000600360008373ffffffffffffffffffffffffffffffffffffffff1673ffffffffffffffffffffffffffffffffffffffff1681526020019081526020016000209050818160000160006101000a81548173ffffffffffffffffffffffffffffffffffffffff021916908373ffffffffffffffffffffffffffffffffffffffff1602179055506000816002018190555060008160030181905550600081600501819055505050565b3373ffffffffffffffffffffffffffffffffffffffff16600160009054906101000a900473ffffffffffffffffffffffffffffffffffffffff1673ffffffffffffffffffffffffffffffffffffffff16146106a457600080fd5b600460008373ffffffffffffffffffffffffffffffffffffffff1673ffffffffffffffffffffffffffffffffffffffff16815260200190815260200160002060009054906101000a900460ff166106fa57600080fd5b6000600360008473ffffffffffffffffffffffffffffffffffffffff1673ffffffffffffffffffffffffffffffffffffffff16815260200190815260200160002090506000600560008573ffffffffffffffffffffffffffffffffffffffff1673ffffffffffffffffffffffffffffffffffffffff168152602001908152602001600020600084815260200190815260200160002060006101000a81548160ff0219169083151502179055508060020160008154809291906107bb90610fc4565b9190505550505050565b60008054906101000a900473ffffffffffffffffffffffffffffffffffffffff1681565b6000600654905090565b3373ffffffffffffffffffffffffffffffffffffffff16600160009054906101000a900473ffffffffffffffffffffffffffffffffffffffff1673ffffffffffffffffffffffffffffffffffffffff161461084d57600080fd5b600460008373ffffffffffffffffffffffffffffffffffffffff1673ffffffffffffffffffffffffffffffffffffffff16815260200190815260200160002060009054906101000a900460ff166108a357600080fd5b6000600360008473ffffffffffffffffffffffffffffffffffffffff1673ffffffffffffffffffffffffffffffffffffffff16815260200190815260200160002090506001600560008573ffffffffffffffffffffffffffffffffffffffff1673ffffffffffffffffffffffffffffffffffffffff168152602001908152602001600020600084815260200190815260200160002060006101000a81548160ff02191690831515021790555080600201600081548092919061096490610fee565b919050555080600301600081548092919061097e90610fee565b9190505550505050565b60036020528060005260406000206000915090508060000160009054906101000a900473ffffffffffffffffffffffffffffffffffffffff16908060010154908060020154908060030154908060050154905085565b3373ffffffffffffffffffffffffffffffffffffffff16600160009054906101000a900473ffffffffffffffffffffffffffffffffffffffff1673ffffffffffffffffffffffffffffffffffffffff1614610a3857600080fd5b6000600760008373ffffffffffffffffffffffffffffffffffffffff1673ffffffffffffffffffffffffffffffffffffffff16815260200190815260200160002060006101000a81548160ff02191690831515021790555060066000815480929190610aa390610fc4565b919050555050565b60025481565b3373ffffffffffffffffffffffffffffffffffffffff16600160009054906101000a900473ffffffffffffffffffffffffffffffffffffffff1673ffffffffffffffffffffffffffffffffffffffff1614610b0b57600080fd5b600460008373ffffffffffffffffffffffffffffffffffffffff1673ffffffffffffffffffffffffffffffffffffffff16815260200190815260200160002060009054906101000a900460ff16610b6157600080fd5b6000600360008473ffffffffffffffffffffffffffffffffffffffff1673ffffffffffffffffffffffffffffffffffffffff168152602001908152602001600020905080600601829080600181540180825580915050600190039060005260206000200160009091909190915055806005015481600701600084815260200190815260200160002081905550806005016000815480929190610c0290610fee565b9190505550505050565b6000600460008373ffffffffffffffffffffffffffffffffffffffff1673ffffffffffffffffffffffffffffffffffffffff16815260200190815260200160002060009054906101000a900460ff169050919050565b60046020528060005260406000206000915054906101000a900460ff1681565b3373ffffffffffffffffffffffffffffffffffffffff16600160009054906101000a900473ffffffffffffffffffffffffffffffffffffffff1673ffffffffffffffffffffffffffffffffffffffff1614610cdc57600080fd5b6001600760008373ffffffffffffffffffffffffffffffffffffffff1673ffffffffffffffffffffffffffffffffffffffff16815260200190815260200160002060006101000a81548160ff0219169083151502179055506008819080600181540180825580915050600190039060005260206000200160009091909190916101000a81548173ffffffffffffffffffffffffffffffffffffffff021916908373ffffffffffffffffffffffffffffffffffffffff16021790555060066000815480929190610daa90610fee565b919050555050565b600080fd5b600073ffffffffffffffffffffffffffffffffffffffff82169050919050565b6000610de282610db7565b9050919050565b610df281610dd7565b8114610dfd57600080fd5b50565b600081359050610e0f81610de9565b92915050565b600060208284031215610e2b57610e2a610db2565b5b6000610e3984828501610e00565b91505092915050565b6000819050919050565b610e5581610e42565b82525050565b6000602082019050610e706000830184610e4c565b92915050565b610e7f81610e42565b8114610e8a57600080fd5b50565b600081359050610e9c81610e76565b92915050565b60008060408385031215610eb957610eb8610db2565b5b6000610ec785828601610e00565b9250506020610ed885828601610e8d565b9150509250929050565b60008115159050919050565b610ef781610ee2565b82525050565b6000602082019050610f126000830184610eee565b92915050565b610f2181610dd7565b82525050565b6000602082019050610f3c6000830184610f18565b92915050565b600060a082019050610f576000830188610f18565b610f646020830187610e4c565b610f716040830186610e4c565b610f7e6060830185610e4c565b610f8b6080830184610e4c565b9695505050505050565b7f4e487b7100000000000000000000000000000000000000000000000000000000600052601160045260246000fd5b6000610fcf82610e42565b91506000821415610fe357610fe2610f95565b5b600182039050919050565b6000610ff982610e42565b91507fffffffffffffffffffffffffffffffffffffffffffffffffffffffffffffffff82141561102c5761102b610f95565b5b60018201905091905056fea264697066735822122098e8efead580d0c3c8c89f5c04b47782a08cd2a282ee98dd25f982512491857664736f6c634300080a0033","opcodes":"PUSH1 0x80 PUSH1 0x40 MSTORE CALLVALUE DUP1 ISZERO PUSH3 0x11 JUMPI PUSH1 0x0 DUP1 REVERT JUMPDEST POP PUSH1 0x40 MLOAD PUSH3 0x11D8 CODESIZE SUB DUP1 PUSH3 0x11D8 DUP4 CODECOPY DUP2 DUP2 ADD PUSH1 0x40 MSTORE DUP2 ADD SWAP1 PUSH3 0x37 SWAP2 SWAP1 PUSH3 0x129 JUMP JUMPDEST DUP1 PUSH1 0x0 DUP1 PUSH2 0x100 EXP DUP2 SLOAD DUP2 PUSH20 0xFFFFFFFFFFFFFFFFFFFFFFFFFFFFFFFFFFFFFFFF MUL NOT AND SWAP1 DUP4 PUSH20 0xFFFFFFFFFFFFFFFFFFFFFFFFFFFFFFFFFFFFFFFF AND MUL OR SWAP1 SSTORE POP CALLER PUSH1 0x1 PUSH1 0x0 PUSH2 0x100 EXP DUP2 SLOAD DUP2 PUSH20 0xFFFFFFFFFFFFFFFFFFFFFFFFFFFFFFFFFFFFFFFF MUL NOT AND SWAP1 DUP4 PUSH20 0xFFFFFFFFFFFFFFFFFFFFFFFFFFFFFFFFFFFFFFFF AND MUL OR SWAP1 SSTORE POP POP PUSH3 0x15B JUMP JUMPDEST PUSH1 0x0 DUP1 REVERT JUMPDEST PUSH1 0x0 PUSH20 0xFFFFFFFFFFFFFFFFFFFFFFFFFFFFFFFFFFFFFFFF DUP3 AND SWAP1 POP SWAP2 SWAP1 POP JUMP JUMPDEST PUSH1 0x0 PUSH3 0xF1 DUP3 PUSH3 0xC4 JUMP JUMPDEST SWAP1 POP SWAP2 SWAP1 POP JUMP JUMPDEST PUSH3 0x103 DUP2 PUSH3 0xE4 JUMP JUMPDEST DUP2 EQ PUSH3 0x10F JUMPI PUSH1 0x0 DUP1 REVERT JUMPDEST POP JUMP JUMPDEST PUSH1 0x0 DUP2 MLOAD SWAP1 POP PUSH3 0x123 DUP2 PUSH3 0xF8 JUMP JUMPDEST SWAP3 SWAP2 POP POP JUMP JUMPDEST PUSH1 0x0 PUSH1 0x20 DUP3 DUP5 SUB SLT ISZERO PUSH3 0x142 JUMPI PUSH3 0x141 PUSH3 0xBF JUMP JUMPDEST JUMPDEST PUSH1 0x0 PUSH3 0x152 DUP5 DUP3 DUP6 ADD PUSH3 0x112 JUMP JUMPDEST SWAP2 POP POP SWAP3 SWAP2 POP POP JUMP JUMPDEST PUSH2 0x106D DUP1 PUSH3 0x16B PUSH1 0x0 CODECOPY PUSH1 0x0 RETURN INVALID PUSH1 0x80 PUSH1 0x40 MSTORE CALLVALUE DUP1 ISZERO PUSH2 0x10 JUMPI PUSH1 0x0 DUP1 REVERT JUMPDEST POP PUSH1 0x4 CALLDATASIZE LT PUSH2 0x100 JUMPI PUSH1 0x0 CALLDATALOAD PUSH1 0xE0 SHR DUP1 PUSH4 0xA5A9C518 GT PUSH2 0x97 JUMPI DUP1 PUSH4 0xE597EF12 GT PUSH2 0x66 JUMPI DUP1 PUSH4 0xE597EF12 EQ PUSH2 0x2C3 JUMPI DUP1 PUSH4 0xECDED204 EQ PUSH2 0x2DF JUMPI DUP1 PUSH4 0xF3C95C60 EQ PUSH2 0x30F JUMPI DUP1 PUSH4 0xFE69494B EQ PUSH2 0x33F JUMPI PUSH2 0x100 JUMP JUMPDEST DUP1 PUSH4 0xA5A9C518 EQ PUSH2 0x239 JUMPI DUP1 PUSH4 0xA87430BA EQ PUSH2 0x255 JUMPI DUP1 PUSH4 0xCBAF3186 EQ PUSH2 0x289 JUMPI DUP1 PUSH4 0xE3E1F001 EQ PUSH2 0x2A5 JUMPI PUSH2 0x100 JUMP JUMPDEST DUP1 PUSH4 0x4420E486 GT PUSH2 0xD3 JUMPI DUP1 PUSH4 0x4420E486 EQ PUSH2 0x1C5 JUMPI DUP1 PUSH4 0x4A09DB4F EQ PUSH2 0x1E1 JUMPI DUP1 PUSH4 0x8DA5CB5B EQ PUSH2 0x1FD JUMPI DUP1 PUSH4 0xA1CB5CF2 EQ PUSH2 0x21B JUMPI PUSH2 0x100 JUMP JUMPDEST DUP1 PUSH4 0x19AA98A3 EQ PUSH2 0x105 JUMPI DUP1 PUSH4 0x371E91CA EQ PUSH2 0x135 JUMPI DUP1 PUSH4 0x3CBDEC03 EQ PUSH2 0x165 JUMPI DUP1 PUSH4 0x4172FB89 EQ PUSH2 0x195 JUMPI JUMPDEST PUSH1 0x0 DUP1 REVERT JUMPDEST PUSH2 0x11F PUSH1 0x4 DUP1 CALLDATASIZE SUB DUP2 ADD SWAP1 PUSH2 0x11A SWAP2 SWAP1 PUSH2 0xE15 JUMP JUMPDEST PUSH2 0x35B JUMP JUMPDEST PUSH1 0x40 MLOAD PUSH2 0x12C SWAP2 SWAP1 PUSH2 0xE5B JUMP JUMPDEST PUSH1 0x40 MLOAD DUP1 SWAP2 SUB SWAP1 RETURN JUMPDEST PUSH2 0x14F PUSH1 0x4 DUP1 CALLDATASIZE SUB DUP2 ADD SWAP1 PUSH2 0x14A SWAP2 SWAP1 PUSH2 0xEA2 JUMP JUMPDEST PUSH2 0x3AC JUMP JUMPDEST PUSH1 0x40 MLOAD PUSH2 0x15C SWAP2 SWAP1 PUSH2 0xEFD JUMP JUMPDEST PUSH1 0x40 MLOAD DUP1 SWAP2 SUB SWAP1 RETURN JUMPDEST PUSH2 0x17F PUSH1 0x4 DUP1 CALLDATASIZE SUB DUP2 ADD SWAP1 PUSH2 0x17A SWAP2 SWAP1 PUSH2 0xEA2 JUMP JUMPDEST PUSH2 0x414 JUMP JUMPDEST PUSH1 0x40 MLOAD PUSH2 0x18C SWAP2 SWAP1 PUSH2 0xEFD JUMP JUMPDEST PUSH1 0x40 MLOAD DUP1 SWAP2 SUB SWAP1 RETURN JUMPDEST PUSH2 0x1AF PUSH1 0x4 DUP1 CALLDATASIZE SUB DUP2 ADD SWAP1 PUSH2 0x1AA SWAP2 SWAP1 PUSH2 0xE15 JUMP JUMPDEST PUSH2 0x443 JUMP JUMPDEST PUSH1 0x40 MLOAD PUSH2 0x1BC SWAP2 SWAP1 PUSH2 0xEFD JUMP JUMPDEST PUSH1 0x40 MLOAD DUP1 SWAP2 SUB SWAP1 RETURN JUMPDEST PUSH2 0x1DF PUSH1 0x4 DUP1 CALLDATASIZE SUB DUP2 ADD SWAP1 PUSH2 0x1DA SWAP2 SWAP1 PUSH2 0xE15 JUMP JUMPDEST PUSH2 0x499 JUMP JUMPDEST STOP JUMPDEST PUSH2 0x1FB PUSH1 0x4 DUP1 CALLDATASIZE SUB DUP2 ADD SWAP1 PUSH2 0x1F6 SWAP2 SWAP1 PUSH2 0xEA2 JUMP JUMPDEST PUSH2 0x64A JUMP JUMPDEST STOP JUMPDEST PUSH2 0x205 PUSH2 0x7C5 JUMP JUMPDEST PUSH1 0x40 MLOAD PUSH2 0x212 SWAP2 SWAP1 PUSH2 0xF27 JUMP JUMPDEST PUSH1 0x40 MLOAD DUP1 SWAP2 SUB SWAP1 RETURN JUMPDEST PUSH2 0x223 PUSH2 0x7E9 JUMP JUMPDEST PUSH1 0x40 MLOAD PUSH2 0x230 SWAP2 SWAP1 PUSH2 0xE5B JUMP JUMPDEST PUSH1 0x40 MLOAD DUP1 SWAP2 SUB SWAP1 RETURN JUMPDEST PUSH2 0x253 PUSH1 0x4 DUP1 CALLDATASIZE SUB DUP2 ADD SWAP1 PUSH2 0x24E SWAP2 SWAP1 PUSH2 0xEA2 JUMP JUMPDEST PUSH2 0x7F3 JUMP JUMPDEST STOP JUMPDEST PUSH2 0x26F PUSH1 0x4 DUP1 CALLDATASIZE SUB DUP2 ADD SWAP1 PUSH2 0x26A SWAP2 SWAP1 PUSH2 0xE15 JUMP JUMPDEST PUSH2 0x988 JUMP JUMPDEST PUSH1 0x40 MLOAD PUSH2 0x280 SWAP6 SWAP5 SWAP4 SWAP3 SWAP2 SWAP1 PUSH2 0xF42 JUMP JUMPDEST PUSH1 0x40 MLOAD DUP1 SWAP2 SUB SWAP1 RETURN JUMPDEST PUSH2 0x2A3 PUSH1 0x4 DUP1 CALLDATASIZE SUB DUP2 ADD SWAP1 PUSH2 0x29E SWAP2 SWAP1 PUSH2 0xE15 JUMP JUMPDEST PUSH2 0x9DE JUMP JUMPDEST STOP JUMPDEST PUSH2 0x2AD PUSH2 0xAAB JUMP JUMPDEST PUSH1 0x40 MLOAD PUSH2 0x2BA SWAP2 SWAP1 PUSH2 0xE5B JUMP JUMPDEST PUSH1 0x40 MLOAD DUP1 SWAP2 SUB SWAP1 RETURN JUMPDEST PUSH2 0x2DD PUSH1 0x4 DUP1 CALLDATASIZE SUB DUP2 ADD SWAP1 PUSH2 0x2D8 SWAP2 SWAP1 PUSH2 0xEA2 JUMP JUMPDEST PUSH2 0xAB1 JUMP JUMPDEST STOP JUMPDEST PUSH2 0x2F9 PUSH1 0x4 DUP1 CALLDATASIZE SUB DUP2 ADD SWAP1 PUSH2 0x2F4 SWAP2 SWAP1 PUSH2 0xE15 JUMP JUMPDEST PUSH2 0xC0C JUMP JUMPDEST PUSH1 0x40 MLOAD PUSH2 0x306 SWAP2 SWAP1 PUSH2 0xEFD JUMP JUMPDEST PUSH1 0x40 MLOAD DUP1 SWAP2 SUB SWAP1 RETURN JUMPDEST PUSH2 0x329 PUSH1 0x4 DUP1 CALLDATASIZE SUB DUP2 ADD SWAP1 PUSH2 0x324 SWAP2 SWAP1 PUSH2 0xE15 JUMP JUMPDEST PUSH2 0xC62 JUMP JUMPDEST PUSH1 0x40 MLOAD PUSH2 0x336 SWAP2 SWAP1 PUSH2 0xEFD JUMP JUMPDEST PUSH1 0x40 MLOAD DUP1 SWAP2 SUB SWAP1 RETURN JUMPDEST PUSH2 0x359 PUSH1 0x4 DUP1 CALLDATASIZE SUB DUP2 ADD SWAP1 PUSH2 0x354 SWAP2 SWAP1 PUSH2 0xE15 JUMP JUMPDEST PUSH2 0xC82 JUMP JUMPDEST STOP JUMPDEST PUSH1 0x0 DUP1 PUSH1 0x3 PUSH1 0x0 DUP5 PUSH20 0xFFFFFFFFFFFFFFFFFFFFFFFFFFFFFFFFFFFFFFFF AND PUSH20 0xFFFFFFFFFFFFFFFFFFFFFFFFFFFFFFFFFFFFFFFF AND DUP2 MSTORE PUSH1 0x20 ADD SWAP1 DUP2 MSTORE PUSH1 0x20 ADD PUSH1 0x0 KECCAK256 SWAP1 POP DUP1 PUSH1 0x2 ADD SLOAD SWAP2 POP POP SWAP2 SWAP1 POP JUMP JUMPDEST PUSH1 0x0 PUSH1 0x5 PUSH1 0x0 DUP5 PUSH20 0xFFFFFFFFFFFFFFFFFFFFFFFFFFFFFFFFFFFFFFFF AND PUSH20 0xFFFFFFFFFFFFFFFFFFFFFFFFFFFFFFFFFFFFFFFF AND DUP2 MSTORE PUSH1 0x20 ADD SWAP1 DUP2 MSTORE PUSH1 0x20 ADD PUSH1 0x0 KECCAK256 PUSH1 0x0 DUP4 DUP2 MSTORE PUSH1 0x20 ADD SWAP1 DUP2 MSTORE PUSH1 0x20 ADD PUSH1 0x0 KECCAK256 PUSH1 0x0 SWAP1 SLOAD SWAP1 PUSH2 0x100 EXP SWAP1 DIV PUSH1 0xFF AND SWAP1 POP SWAP3 SWAP2 POP POP JUMP JUMPDEST PUSH1 0x5 PUSH1 0x20 MSTORE DUP2 PUSH1 0x0 MSTORE PUSH1 0x40 PUSH1 0x0 KECCAK256 PUSH1 0x20 MSTORE DUP1 PUSH1 0x0 MSTORE PUSH1 0x40 PUSH1 0x0 KECCAK256 PUSH1 0x0 SWAP2 POP SWAP2 POP SWAP1 SLOAD SWAP1 PUSH2 0x100 EXP SWAP1 DIV PUSH1 0xFF AND DUP2 JUMP JUMPDEST PUSH1 0x0 PUSH1 0x7 PUSH1 0x0 DUP4 PUSH20 0xFFFFFFFFFFFFFFFFFFFFFFFFFFFFFFFFFFFFFFFF AND PUSH20 0xFFFFFFFFFFFFFFFFFFFFFFFFFFFFFFFFFFFFFFFF AND DUP2 MSTORE PUSH1 0x20 ADD SWAP1 DUP2 MSTORE PUSH1 0x20 ADD PUSH1 0x0 KECCAK256 PUSH1 0x0 SWAP1 SLOAD SWAP1 PUSH2 0x100 EXP SWAP1 DIV PUSH1 0xFF AND SWAP1 POP SWAP2 SWAP1 POP JUMP JUMPDEST CALLER PUSH20 0xFFFFFFFFFFFFFFFFFFFFFFFFFFFFFFFFFFFFFFFF AND PUSH1 0x1 PUSH1 0x0 SWAP1 SLOAD SWAP1 PUSH2 0x100 EXP SWAP1 DIV PUSH20 0xFFFFFFFFFFFFFFFFFFFFFFFFFFFFFFFFFFFFFFFF AND PUSH20 0xFFFFFFFFFFFFFFFFFFFFFFFFFFFFFFFFFFFFFFFF AND EQ PUSH2 0x4F3 JUMPI PUSH1 0x0 DUP1 REVERT JUMPDEST PUSH1 0x4 PUSH1 0x0 DUP3 PUSH20 0xFFFFFFFFFFFFFFFFFFFFFFFFFFFFFFFFFFFFFFFF AND PUSH20 0xFFFFFFFFFFFFFFFFFFFFFFFFFFFFFFFFFFFFFFFF AND DUP2 MSTORE PUSH1 0x20 ADD SWAP1 DUP2 MSTORE PUSH1 0x20 ADD PUSH1 0x0 KECCAK256 PUSH1 0x0 SWAP1 SLOAD SWAP1 PUSH2 0x100 EXP SWAP1 DIV PUSH1 0xFF AND ISZERO PUSH2 0x54A JUMPI PUSH1 0x0 DUP1 REVERT JUMPDEST PUSH1 0x1 PUSH1 0x4 PUSH1 0x0 DUP4 PUSH20 0xFFFFFFFFFFFFFFFFFFFFFFFFFFFFFFFFFFFFFFFF AND PUSH20 0xFFFFFFFFFFFFFFFFFFFFFFFFFFFFFFFFFFFFFFFF AND DUP2 MSTORE PUSH1 0x20 ADD SWAP1 DUP2 MSTORE PUSH1 0x20 ADD PUSH1 0x0 KECCAK256 PUSH1 0x0 PUSH2 0x100 EXP DUP2 SLOAD DUP2 PUSH1 0xFF MUL NOT AND SWAP1 DUP4 ISZERO ISZERO MUL OR SWAP1 SSTORE POP PUSH1 0x0 PUSH1 0x3 PUSH1 0x0 DUP4 PUSH20 0xFFFFFFFFFFFFFFFFFFFFFFFFFFFFFFFFFFFFFFFF AND PUSH20 0xFFFFFFFFFFFFFFFFFFFFFFFFFFFFFFFFFFFFFFFF AND DUP2 MSTORE PUSH1 0x20 ADD SWAP1 DUP2 MSTORE PUSH1 0x20 ADD PUSH1 0x0 KECCAK256 SWAP1 POP DUP2 DUP2 PUSH1 0x0 ADD PUSH1 0x0 PUSH2 0x100 EXP DUP2 SLOAD DUP2 PUSH20 0xFFFFFFFFFFFFFFFFFFFFFFFFFFFFFFFFFFFFFFFF MUL NOT AND SWAP1 DUP4 PUSH20 0xFFFFFFFFFFFFFFFFFFFFFFFFFFFFFFFFFFFFFFFF AND MUL OR SWAP1 SSTORE POP PUSH1 0x0 DUP2 PUSH1 0x2 ADD DUP2 SWAP1 SSTORE POP PUSH1 0x0 DUP2 PUSH1 0x3 ADD DUP2 SWAP1 SSTORE POP PUSH1 0x0 DUP2 PUSH1 0x5 ADD DUP2 SWAP1 SSTORE POP POP POP JUMP JUMPDEST CALLER PUSH20 0xFFFFFFFFFFFFFFFFFFFFFFFFFFFFFFFFFFFFFFFF AND PUSH1 0x1 PUSH1 0x0 SWAP1 SLOAD SWAP1 PUSH2 0x100 EXP SWAP1 DIV PUSH20 0xFFFFFFFFFFFFFFFFFFFFFFFFFFFFFFFFFFFFFFFF AND PUSH20 0xFFFFFFFFFFFFFFFFFFFFFFFFFFFFFFFFFFFFFFFF AND EQ PUSH2 0x6A4 JUMPI PUSH1 0x0 DUP1 REVERT JUMPDEST PUSH1 0x4 PUSH1 0x0 DUP4 PUSH20 0xFFFFFFFFFFFFFFFFFFFFFFFFFFFFFFFFFFFFFFFF AND PUSH20 0xFFFFFFFFFFFFFFFFFFFFFFFFFFFFFFFFFFFFFFFF AND DUP2 MSTORE PUSH1 0x20 ADD SWAP1 DUP2 MSTORE PUSH1 0x20 ADD PUSH1 0x0 KECCAK256 PUSH1 0x0 SWAP1 SLOAD SWAP1 PUSH2 0x100 EXP SWAP1 DIV PUSH1 0xFF AND PUSH2 0x6FA JUMPI PUSH1 0x0 DUP1 REVERT JUMPDEST PUSH1 0x0 PUSH1 0x3 PUSH1 0x0 DUP5 PUSH20 0xFFFFFFFFFFFFFFFFFFFFFFFFFFFFFFFFFFFFFFFF AND PUSH20 0xFFFFFFFFFFFFFFFFFFFFFFFFFFFFFFFFFFFFFFFF AND DUP2 MSTORE PUSH1 0x20 ADD SWAP1 DUP2 MSTORE PUSH1 0x20 ADD PUSH1 0x0 KECCAK256 SWAP1 POP PUSH1 0x0 PUSH1 0x5 PUSH1 0x0 DUP6 PUSH20 0xFFFFFFFFFFFFFFFFFFFFFFFFFFFFFFFFFFFFFFFF AND PUSH20 0xFFFFFFFFFFFFFFFFFFFFFFFFFFFFFFFFFFFFFFFF AND DUP2 MSTORE PUSH1 0x20 ADD SWAP1 DUP2 MSTORE PUSH1 0x20 ADD PUSH1 0x0 KECCAK256 PUSH1 0x0 DUP5 DUP2 MSTORE PUSH1 0x20 ADD SWAP1 DUP2 MSTORE PUSH1 0x20 ADD PUSH1 0x0 KECCAK256 PUSH1 0x0 PUSH2 0x100 EXP DUP2 SLOAD DUP2 PUSH1 0xFF MUL NOT AND SWAP1 DUP4 ISZERO ISZERO MUL OR SWAP1 SSTORE POP DUP1 PUSH1 0x2 ADD PUSH1 0x0 DUP2 SLOAD DUP1 SWAP3 SWAP2 SWAP1 PUSH2 0x7BB SWAP1 PUSH2 0xFC4 JUMP JUMPDEST SWAP2 SWAP1 POP SSTORE POP POP POP POP JUMP JUMPDEST PUSH1 0x0 DUP1 SLOAD SWAP1 PUSH2 0x100 EXP SWAP1 DIV PUSH20 0xFFFFFFFFFFFFFFFFFFFFFFFFFFFFFFFFFFFFFFFF AND DUP2 JUMP JUMPDEST PUSH1 0x0 PUSH1 0x6 SLOAD SWAP1 POP SWAP1 JUMP JUMPDEST CALLER PUSH20 0xFFFFFFFFFFFFFFFFFFFFFFFFFFFFFFFFFFFFFFFF AND PUSH1 0x1 PUSH1 0x0 SWAP1 SLOAD SWAP1 PUSH2 0x100 EXP SWAP1 DIV PUSH20 0xFFFFFFFFFFFFFFFFFFFFFFFFFFFFFFFFFFFFFFFF AND PUSH20 0xFFFFFFFFFFFFFFFFFFFFFFFFFFFFFFFFFFFFFFFF AND EQ PUSH2 0x84D JUMPI PUSH1 0x0 DUP1 REVERT JUMPDEST PUSH1 0x4 PUSH1 0x0 DUP4 PUSH20 0xFFFFFFFFFFFFFFFFFFFFFFFFFFFFFFFFFFFFFFFF AND PUSH20 0xFFFFFFFFFFFFFFFFFFFFFFFFFFFFFFFFFFFFFFFF AND DUP2 MSTORE PUSH1 0x20 ADD SWAP1 DUP2 MSTORE PUSH1 0x20 ADD PUSH1 0x0 KECCAK256 PUSH1 0x0 SWAP1 SLOAD SWAP1 PUSH2 0x100 EXP SWAP1 DIV PUSH1 0xFF AND PUSH2 0x8A3 JUMPI PUSH1 0x0 DUP1 REVERT JUMPDEST PUSH1 0x0 PUSH1 0x3 PUSH1 0x0 DUP5 PUSH20 0xFFFFFFFFFFFFFFFFFFFFFFFFFFFFFFFFFFFFFFFF AND PUSH20 0xFFFFFFFFFFFFFFFFFFFFFFFFFFFFFFFFFFFFFFFF AND DUP2 MSTORE PUSH1 0x20 ADD SWAP1 DUP2 MSTORE PUSH1 0x20 ADD PUSH1 0x0 KECCAK256 SWAP1 POP PUSH1 0x1 PUSH1 0x5 PUSH1 0x0 DUP6 PUSH20 0xFFFFFFFFFFFFFFFFFFFFFFFFFFFFFFFFFFFFFFFF AND PUSH20 0xFFFFFFFFFFFFFFFFFFFFFFFFFFFFFFFFFFFFFFFF AND DUP2 MSTORE PUSH1 0x20 ADD SWAP1 DUP2 MSTORE PUSH1 0x20 ADD PUSH1 0x0 KECCAK256 PUSH1 0x0 DUP5 DUP2 MSTORE PUSH1 0x20 ADD SWAP1 DUP2 MSTORE PUSH1 0x20 ADD PUSH1 0x0 KECCAK256 PUSH1 0x0 PUSH2 0x100 EXP DUP2 SLOAD DUP2 PUSH1 0xFF MUL NOT AND SWAP1 DUP4 ISZERO ISZERO MUL OR SWAP1 SSTORE POP DUP1 PUSH1 0x2 ADD PUSH1 0x0 DUP2 SLOAD DUP1 SWAP3 SWAP2 SWAP1 PUSH2 0x964 SWAP1 PUSH2 0xFEE JUMP JUMPDEST SWAP2 SWAP1 POP SSTORE POP DUP1 PUSH1 0x3 ADD PUSH1 0x0 DUP2 SLOAD DUP1 SWAP3 SWAP2 SWAP1 PUSH2 0x97E SWAP1 PUSH2 0xFEE JUMP JUMPDEST SWAP2 SWAP1 POP SSTORE POP POP POP POP JUMP JUMPDEST PUSH1 0x3 PUSH1 0x20 MSTORE DUP1 PUSH1 0x0 MSTORE PUSH1 0x40 PUSH1 0x0 KECCAK256 PUSH1 0x0 SWAP2 POP SWAP1 POP DUP1 PUSH1 0x0 ADD PUSH1 0x0 SWAP1 SLOAD SWAP1 PUSH2 0x100 EXP SWAP1 DIV PUSH20 0xFFFFFFFFFFFFFFFFFFFFFFFFFFFFFFFFFFFFFFFF AND SWAP1 DUP1 PUSH1 0x1 ADD SLOAD SWAP1 DUP1 PUSH1 0x2 ADD SLOAD SWAP1 DUP1 PUSH1 0x3 ADD SLOAD SWAP1 DUP1 PUSH1 0x5 ADD SLOAD SWAP1 POP DUP6 JUMP JUMPDEST CALLER PUSH20 0xFFFFFFFFFFFFFFFFFFFFFFFFFFFFFFFFFFFFFFFF AND PUSH1 0x1 PUSH1 0x0 SWAP1 SLOAD SWAP1 PUSH2 0x100 EXP SWAP1 DIV PUSH20 0xFFFFFFFFFFFFFFFFFFFFFFFFFFFFFFFFFFFFFFFF AND PUSH20 0xFFFFFFFFFFFFFFFFFFFFFFFFFFFFFFFFFFFFFFFF AND EQ PUSH2 0xA38 JUMPI PUSH1 0x0 DUP1 REVERT JUMPDEST PUSH1 0x0 PUSH1 0x7 PUSH1 0x0 DUP4 PUSH20 0xFFFFFFFFFFFFFFFFFFFFFFFFFFFFFFFFFFFFFFFF AND PUSH20 0xFFFFFFFFFFFFFFFFFFFFFFFFFFFFFFFFFFFFFFFF AND DUP2 MSTORE PUSH1 0x20 ADD SWAP1 DUP2 MSTORE PUSH1 0x20 ADD PUSH1 0x0 KECCAK256 PUSH1 0x0 PUSH2 0x100 EXP DUP2 SLOAD DUP2 PUSH1 0xFF MUL NOT AND SWAP1 DUP4 ISZERO ISZERO MUL OR SWAP1 SSTORE POP PUSH1 0x6 PUSH1 0x0 DUP2 SLOAD DUP1 SWAP3 SWAP2 SWAP1 PUSH2 0xAA3 SWAP1 PUSH2 0xFC4 JUMP JUMPDEST SWAP2 SWAP1 POP SSTORE POP POP JUMP JUMPDEST PUSH1 0x2 SLOAD DUP2 JUMP JUMPDEST CALLER PUSH20 0xFFFFFFFFFFFFFFFFFFFFFFFFFFFFFFFFFFFFFFFF AND PUSH1 0x1 PUSH1 0x0 SWAP1 SLOAD SWAP1 PUSH2 0x100 EXP SWAP1 DIV PUSH20 0xFFFFFFFFFFFFFFFFFFFFFFFFFFFFFFFFFFFFFFFF AND PUSH20 0xFFFFFFFFFFFFFFFFFFFFFFFFFFFFFFFFFFFFFFFF AND EQ PUSH2 0xB0B JUMPI PUSH1 0x0 DUP1 REVERT JUMPDEST PUSH1 0x4 PUSH1 0x0 DUP4 PUSH20 0xFFFFFFFFFFFFFFFFFFFFFFFFFFFFFFFFFFFFFFFF AND PUSH20 0xFFFFFFFFFFFFFFFFFFFFFFFFFFFFFFFFFFFFFFFF AND DUP2 MSTORE PUSH1 0x20 ADD SWAP1 DUP2 MSTORE PUSH1 0x20 ADD PUSH1 0x0 KECCAK256 PUSH1 0x0 SWAP1 SLOAD SWAP1 PUSH2 0x100 EXP SWAP1 DIV PUSH1 0xFF AND PUSH2 0xB61 JUMPI PUSH1 0x0 DUP1 REVERT JUMPDEST PUSH1 0x0 PUSH1 0x3 PUSH1 0x0 DUP5 PUSH20 0xFFFFFFFFFFFFFFFFFFFFFFFFFFFFFFFFFFFFFFFF AND PUSH20 0xFFFFFFFFFFFFFFFFFFFFFFFFFFFFFFFFFFFFFFFF AND DUP2 MSTORE PUSH1 0x20 ADD SWAP1 DUP2 MSTORE PUSH1 0x20 ADD PUSH1 0x0 KECCAK256 SWAP1 POP DUP1 PUSH1 0x6 ADD DUP3 SWAP1 DUP1 PUSH1 0x1 DUP2 SLOAD ADD DUP1 DUP3 SSTORE DUP1 SWAP2 POP POP PUSH1 0x1 SWAP1 SUB SWAP1 PUSH1 0x0 MSTORE PUSH1 0x20 PUSH1 0x0 KECCAK256 ADD PUSH1 0x0 SWAP1 SWAP2 SWAP1 SWAP2 SWAP1 SWAP2 POP SSTORE DUP1 PUSH1 0x5 ADD SLOAD DUP2 PUSH1 0x7 ADD PUSH1 0x0 DUP5 DUP2 MSTORE PUSH1 0x20 ADD SWAP1 DUP2 MSTORE PUSH1 0x20 ADD PUSH1 0x0 KECCAK256 DUP2 SWAP1 SSTORE POP DUP1 PUSH1 0x5 ADD PUSH1 0x0 DUP2 SLOAD DUP1 SWAP3 SWAP2 SWAP1 PUSH2 0xC02 SWAP1 PUSH2 0xFEE JUMP JUMPDEST SWAP2 SWAP1 POP SSTORE POP POP POP POP JUMP JUMPDEST PUSH1 0x0 PUSH1 0x4 PUSH1 0x0 DUP4 PUSH20 0xFFFFFFFFFFFFFFFFFFFFFFFFFFFFFFFFFFFFFFFF AND PUSH20 0xFFFFFFFFFFFFFFFFFFFFFFFFFFFFFFFFFFFFFFFF AND DUP2 MSTORE PUSH1 0x20 ADD SWAP1 DUP2 MSTORE PUSH1 0x20 ADD PUSH1 0x0 KECCAK256 PUSH1 0x0 SWAP1 SLOAD SWAP1 PUSH2 0x100 EXP SWAP1 DIV PUSH1 0xFF AND SWAP1 POP SWAP2 SWAP1 POP JUMP JUMPDEST PUSH1 0x4 PUSH1 0x20 MSTORE DUP1 PUSH1 0x0 MSTORE PUSH1 0x40 PUSH1 0x0 KECCAK256 PUSH1 0x0 SWAP2 POP SLOAD SWAP1 PUSH2 0x100 EXP SWAP1 DIV PUSH1 0xFF AND DUP2 JUMP JUMPDEST CALLER PUSH20 0xFFFFFFFFFFFFFFFFFFFFFFFFFFFFFFFFFFFFFFFF AND PUSH1 0x1 PUSH1 0x0 SWAP1 SLOAD SWAP1 PUSH2 0x100 EXP SWAP1 DIV PUSH20 0xFFFFFFFFFFFFFFFFFFFFFFFFFFFFFFFFFFFFFFFF AND PUSH20 0xFFFFFFFFFFFFFFFFFFFFFFFFFFFFFFFFFFFFFFFF AND EQ PUSH2 0xCDC JUMPI PUSH1 0x0 DUP1 REVERT JUMPDEST PUSH1 0x1 PUSH1 0x7 PUSH1 0x0 DUP4 PUSH20 0xFFFFFFFFFFFFFFFFFFFFFFFFFFFFFFFFFFFFFFFF AND PUSH20 0xFFFFFFFFFFFFFFFFFFFFFFFFFFFFFFFFFFFFFFFF AND DUP2 MSTORE PUSH1 0x20 ADD SWAP1 DUP2 MSTORE PUSH1 0x20 ADD PUSH1 0x0 KECCAK256 PUSH1 0x0 PUSH2 0x100 EXP DUP2 SLOAD DUP2 PUSH1 0xFF MUL NOT AND SWAP1 DUP4 ISZERO ISZERO MUL OR SWAP1 SSTORE POP PUSH1 0x8 DUP2 SWAP1 DUP1 PUSH1 0x1 DUP2 SLOAD ADD DUP1 DUP3 SSTORE DUP1 SWAP2 POP POP PUSH1 0x1 SWAP1 SUB SWAP1 PUSH1 0x0 MSTORE PUSH1 0x20 PUSH1 0x0 KECCAK256 ADD PUSH1 0x0 SWAP1 SWAP2 SWAP1 SWAP2 SWAP1 SWAP2 PUSH2 0x100 EXP DUP2 SLOAD DUP2 PUSH20 0xFFFFFFFFFFFFFFFFFFFFFFFFFFFFFFFFFFFFFFFF MUL NOT AND SWAP1 DUP4 PUSH20 0xFFFFFFFFFFFFFFFFFFFFFFFFFFFFFFFFFFFFFFFF AND MUL OR SWAP1 SSTORE POP PUSH1 0x6 PUSH1 0x0 DUP2 SLOAD DUP1 SWAP3 SWAP2 SWAP1 PUSH2 0xDAA SWAP1 PUSH2 0xFEE JUMP JUMPDEST SWAP2 SWAP1 POP SSTORE POP POP JUMP JUMPDEST PUSH1 0x0 DUP1 REVERT JUMPDEST PUSH1 0x0 PUSH20 0xFFFFFFFFFFFFFFFFFFFFFFFFFFFFFFFFFFFFFFFF DUP3 AND SWAP1 POP SWAP2 SWAP1 POP JUMP JUMPDEST PUSH1 0x0 PUSH2 0xDE2 DUP3 PUSH2 0xDB7 JUMP JUMPDEST SWAP1 POP SWAP2 SWAP1 POP JUMP JUMPDEST PUSH2 0xDF2 DUP2 PUSH2 0xDD7 JUMP JUMPDEST DUP2 EQ PUSH2 0xDFD JUMPI PUSH1 0x0 DUP1 REVERT JUMPDEST POP JUMP JUMPDEST PUSH1 0x0 DUP2 CALLDATALOAD SWAP1 POP PUSH2 0xE0F DUP2 PUSH2 0xDE9 JUMP JUMPDEST SWAP3 SWAP2 POP POP JUMP JUMPDEST PUSH1 0x0 PUSH1 0x20 DUP3 DUP5 SUB SLT ISZERO PUSH2 0xE2B JUMPI PUSH2 0xE2A PUSH2 0xDB2 JUMP JUMPDEST JUMPDEST PUSH1 0x0 PUSH2 0xE39 DUP5 DUP3 DUP6 ADD PUSH2 0xE00 JUMP JUMPDEST SWAP2 POP POP SWAP3 SWAP2 POP POP JUMP JUMPDEST PUSH1 0x0 DUP2 SWAP1 POP SWAP2 SWAP1 POP JUMP JUMPDEST PUSH2 0xE55 DUP2 PUSH2 0xE42 JUMP JUMPDEST DUP3 MSTORE POP POP JUMP JUMPDEST PUSH1 0x0 PUSH1 0x20 DUP3 ADD SWAP1 POP PUSH2 0xE70 PUSH1 0x0 DUP4 ADD DUP5 PUSH2 0xE4C JUMP JUMPDEST SWAP3 SWAP2 POP POP JUMP JUMPDEST PUSH2 0xE7F DUP2 PUSH2 0xE42 JUMP JUMPDEST DUP2 EQ PUSH2 0xE8A JUMPI PUSH1 0x0 DUP1 REVERT JUMPDEST POP JUMP JUMPDEST PUSH1 0x0 DUP2 CALLDATALOAD SWAP1 POP PUSH2 0xE9C DUP2 PUSH2 0xE76 JUMP JUMPDEST SWAP3 SWAP2 POP POP JUMP JUMPDEST PUSH1 0x0 DUP1 PUSH1 0x40 DUP4 DUP6 SUB SLT ISZERO PUSH2 0xEB9 JUMPI PUSH2 0xEB8 PUSH2 0xDB2 JUMP JUMPDEST JUMPDEST PUSH1 0x0 PUSH2 0xEC7 DUP6 DUP3 DUP7 ADD PUSH2 0xE00 JUMP JUMPDEST SWAP3 POP POP PUSH1 0x20 PUSH2 0xED8 DUP6 DUP3 DUP7 ADD PUSH2 0xE8D JUMP JUMPDEST SWAP2 POP POP SWAP3 POP SWAP3 SWAP1 POP JUMP JUMPDEST PUSH1 0x0 DUP2 ISZERO ISZERO SWAP1 POP SWAP2 SWAP1 POP JUMP JUMPDEST PUSH2 0xEF7 DUP2 PUSH2 0xEE2 JUMP JUMPDEST DUP3 MSTORE POP POP JUMP JUMPDEST PUSH1 0x0 PUSH1 0x20 DUP3 ADD SWAP1 POP PUSH2 0xF12 PUSH1 0x0 DUP4 ADD DUP5 PUSH2 0xEEE JUMP JUMPDEST SWAP3 SWAP2 POP POP JUMP JUMPDEST PUSH2 0xF21 DUP2 PUSH2 0xDD7 JUMP JUMPDEST DUP3 MSTORE POP POP JUMP JUMPDEST PUSH1 0x0 PUSH1 0x20 DUP3 ADD SWAP1 POP PUSH2 0xF3C PUSH1 0x0 DUP4 ADD DUP5 PUSH2 0xF18 JUMP JUMPDEST SWAP3 SWAP2 POP POP JUMP JUMPDEST PUSH1 0x0 PUSH1 0xA0 DUP3 ADD SWAP1 POP PUSH2 0xF57 PUSH1 0x0 DUP4 ADD DUP9 PUSH2 0xF18 JUMP JUMPDEST PUSH2 0xF64 PUSH1 0x20 DUP4 ADD DUP8 PUSH2 0xE4C JUMP JUMPDEST PUSH2 0xF71 PUSH1 0x40 DUP4 ADD DUP7 PUSH2 0xE4C JUMP JUMPDEST PUSH2 0xF7E PUSH1 0x60 DUP4 ADD DUP6 PUSH2 0xE4C JUMP JUMPDEST PUSH2 0xF8B PUSH1 0x80 DUP4 ADD DUP5 PUSH2 0xE4C JUMP JUMPDEST SWAP7 SWAP6 POP POP POP POP POP POP JUMP JUMPDEST PUSH32 0x4E487B7100000000000000000000000000000000000000000000000000000000 PUSH1 0x0 MSTORE PUSH1 0x11 PUSH1 0x4 MSTORE PUSH1 0x24 PUSH1 0x0 REVERT JUMPDEST PUSH1 0x0 PUSH2 0xFCF DUP3 PUSH2 0xE42 JUMP JUMPDEST SWAP2 POP PUSH1 0x0 DUP3 EQ ISZERO PUSH2 0xFE3 JUMPI PUSH2 0xFE2 PUSH2 0xF95 JUMP JUMPDEST JUMPDEST PUSH1 0x1 DUP3 SUB SWAP1 POP SWAP2 SWAP1 POP JUMP JUMPDEST PUSH1 0x0 PUSH2 0xFF9 DUP3 PUSH2 0xE42 JUMP JUMPDEST SWAP2 POP PUSH32 0xFFFFFFFFFFFFFFFFFFFFFFFFFFFFFFFFFFFFFFFFFFFFFFFFFFFFFFFFFFFFFFFF DUP3 EQ ISZERO PUSH2 0x102C JUMPI PUSH2 0x102B PUSH2 0xF95 JUMP JUMPDEST JUMPDEST PUSH1 0x1 DUP3 ADD SWAP1 POP SWAP2 SWAP1 POP JUMP INVALID LOG2 PUSH5 0x6970667358 0x22 SLT KECCAK256 SWAP9 0xE8 0xEF 0xEA 0xD5 DUP1 0xD0 0xC3 0xC8 0xC8 SWAP16 0x5C DIV 0xB4 PUSH24 0x82A08CD2A282EE98DD25F982512491857664736F6C634300 ADDMOD EXP STOP CALLER "},"gasEstimates":{"creation":{"codeDepositCost":"841000","executionCost":"infinite","totalCost":"infinite"},"external":{"borrowed(address,uint256)":"infinite","getIsBorrowing(address,uint256)":"3180","getIsStaff(address)":"2973","getIsValidUser(address)":"2927","getNumBorrowing(address)":"2884","getNumStaff()":"2526","inviteStaff(address)":"100009","isBorrowingTable(address,uint256)":"3155","isValidUser(address)":"2911","numUser()":"2518","owner()":"2578","purchased(address,uint256)":"infinite","register(address)":"68687","resignStaff(address)":"51409","returned(address,uint256)":"infinite","users(address)":"infinite"}},"methodIdentifiers":{"borrowed(address,uint256)":"a5a9c518","getIsBorrowing(address,uint256)":"371e91ca","getIsStaff(address)":"4172fb89","getIsValidUser(address)":"ecded204","getNumBorrowing(address)":"19aa98a3","getNumStaff()":"a1cb5cf2","inviteStaff(address)":"fe69494b","isBorrowingTable(address,uint256)":"3cbdec03","isValidUser(address)":"f3c95c60","numUser()":"e3e1f001","owner()":"8da5cb5b","purchased(address,uint256)":"e597ef12","register(address)":"4420e486","resignStaff(address)":"cbaf3186","returned(address,uint256)":"4a09db4f","users(address)":"a87430ba"}},"storageLayout":{"storage":[{"astId":1179,"contract":"devs/UserManager.sol:UserManager","label":"owner","offset":0,"slot":"0","type":"t_address"},{"astId":1181,"contract":"devs/UserManager.sol:UserManager","label":"contractAddress","offset":0,"slot":"1","type":"t_address"},{"astId":1183,"contract":"devs/UserManager.sol:UserManager","label":"numUser","offset":0,"slot":"2","type":"t_uint256"},{"astId":1188,"contract":"devs/UserManager.sol:UserManager","label":"users","offset":0,"slot":"3","type":"t_mapping(t_address,t_struct(User)1148_storage)"},{"astId":1192,"contract":"devs/UserManager.sol:UserManager","label":"isValidUser","offset":0,"slot":"4","type":"t_mapping(t_address,t_bool)"},{"astId":1198,"contract":"devs/UserManager.sol:UserManager","label":"isBorrowingTable","offset":0,"slot":"5","type":"t_mapping(t_address,t_mapping(t_uint256,t_bool))"},{"astId":1200,"contract":"devs/UserManager.sol:UserManager","label":"numStaff","offset":0,"slot":"6","type":"t_uint256"},{"astId":1204,"contract":"devs/UserManager.sol:UserManager","label":"isStaff","offset":0,"slot":"7","type":"t_mapping(t_address,t_bool)"},{"astId":1207,"contract":"devs/UserManager.sol:UserManager","label":"staff","offset":0,"slot":"8","type":"t_array(t_address)dyn_storage"}],"types":{"t_address":{"encoding":"inplace","label":"address","numberOfBytes":"20"},"t_array(t_address)dyn_storage":{"base":"t_address","encoding":"dynamic_array","label":"address[]","numberOfBytes":"32"},"t_array(t_uint256)dyn_storage":{"base":"t_uint256","encoding":"dynamic_array","label":"uint256[]","numberOfBytes":"32"},"t_bool":{"encoding":"inplace","label":"bool","numberOfBytes":"1"},"t_mapping(t_address,t_bool)":{"encoding":"mapping","key":"t_address","label":"mapping(address => bool)","numberOfBytes":"32","value":"t_bool"},"t_mapping(t_address,t_mapping(t_uint256,t_bool))":{"encoding":"mapping","key":"t_address","label":"mapping(address => mapping(uint256 => bool))","numberOfBytes":"32","value":"t_mapping(t_uint256,t_bool)"},"t_mapping(t_address,t_struct(User)1148_storage)":{"encoding":"mapping","key":"t_address","label":"mapping(address => struct UserManagerInterface.User)","numberOfBytes":"32","value":"t_struct(User)1148_storage"},"t_mapping(t_uint256,t_bool)":{"encoding":"mapping","key":"t_uint256","label":"mapping(uint256 => bool)","numberOfBytes":"32","value":"t_bool"},"t_mapping(t_uint256,t_uint256)":{"encoding":"mapping","key":"t_uint256","label":"mapping(uint256 => uint256)","numberOfBytes":"32","value":"t_uint256"},"t_struct(User)1148_storage":{"encoding":"inplace","label":"struct UserManagerInterface.User","members":[{"astId":1128,"contract":"devs/UserManager.sol:UserManager","label":"userAddress","offset":0,"slot":"0","type":"t_address"},{"astId":1130,"contract":"devs/UserManager.sol:UserManager","label":"userId","offset":0,"slot":"1","type":"t_uint256"},{"astId":1132,"contract":"devs/UserManager.sol:UserManager","label":"numBorrowing","offset":0,"slot":"2","type":"t_uint256"},{"astId":1134,"contract":"devs/UserManager.sol:UserManager","label":"numBorrowed","offset":0,"slot":"3","type":"t_uint256"},{"astId":1138,"contract":"devs/UserManager.sol:UserManager","label":"isBorrowedTable","offset":0,"slot":"4","type":"t_mapping(t_uint256,t_uint256)"},{"astId":1140,"contract":"devs/UserManager.sol:UserManager","label":"numPurchased","offset":0,"slot":"5","type":"t_uint256"},{"astId":1143,"contract":"devs/UserManager.sol:UserManager","label":"purchasedBooksId","offset":0,"slot":"6","type":"t_array(t_uint256)dyn_storage"},{"astId":1147,"contract":"devs/UserManager.sol:UserManager","label":"searchPurchasedBookIndex","offset":0,"slot":"7","type":"t_mapping(t_uint256,t_uint256)"}],"numberOfBytes":"256"},"t_uint256":{"encoding":"inplace","label":"uint256","numberOfBytes":"32"}}},"userdoc":{"kind":"user","methods":{},"version":1}}