{
  "contractName": "BookManager",
  "abi": [
    {
      "inputs": [
        {
          "internalType": "uint256",
          "name": "_bookId",
          "type": "uint256"
        }
      ],
      "name": "getPurchaser",
      "outputs": [
        {
          "internalType": "address[]",
          "name": "",
          "type": "address[]"
        }
      ],
      "stateMutability": "view",
      "type": "function"
    },
    {
      "inputs": [],
      "name": "getTotalBook",
      "outputs": [
        {
          "internalType": "uint256",
          "name": "",
          "type": "uint256"
        }
      ],
      "stateMutability": "view",
      "type": "function"
    },
    {
      "inputs": [
        {
          "internalType": "uint256",
          "name": "_bookId",
          "type": "uint256"
        }
      ],
      "name": "getBookData",
      "outputs": [
        {
          "components": [
            {
              "internalType": "address",
              "name": "author",
              "type": "address"
            },
            {
              "internalType": "uint256",
              "name": "price",
              "type": "uint256"
            },
            {
              "components": [
                {
                  "internalType": "uint256",
                  "name": "_value",
                  "type": "uint256"
                }
              ],
              "internalType": "struct Counters.Counter",
              "name": "purchasedIds",
              "type": "tuple"
            },
            {
              "internalType": "address[]",
              "name": "purchaser",
              "type": "address[]"
            }
          ],
          "internalType": "struct BookManager.Book",
          "name": "",
          "type": "tuple"
        }
      ],
      "stateMutability": "view",
      "type": "function"
    }
  ],
  "bytecode": "0x608060405234801561001057600080fd5b506106c7806100206000396000f3fe608060405234801561001057600080fd5b50600436106100415760003560e01c806349257f4e146100465780639d4b35a714610076578063d2ce216b146100a6575b600080fd5b610060600480360381019061005b9190610409565b6100c4565b60405161006d9190610526565b60405180910390f35b610090600480360381019061008b9190610409565b610219565b60405161009d9190610645565b60405180910390f35b6100ae610358565b6040516100bb9190610676565b60405180910390f35b6060816100d16000610369565b8111156100dd57600080fd5b6000600160008581526020019081526020016000206040518060800160405290816000820160009054906101000a900473ffffffffffffffffffffffffffffffffffffffff1673ffffffffffffffffffffffffffffffffffffffff1673ffffffffffffffffffffffffffffffffffffffff168152602001600182015481526020016002820160405180602001604052908160008201548152505081526020016003820180548060200260200160405190810160405280929190818152602001828054801561020057602002820191906000526020600020905b8160009054906101000a900473ffffffffffffffffffffffffffffffffffffffff1673ffffffffffffffffffffffffffffffffffffffff16815260200190600101908083116101b6575b5050505050815250509050806060015192505050919050565b610221610377565b6000600160008481526020019081526020016000206040518060800160405290816000820160009054906101000a900473ffffffffffffffffffffffffffffffffffffffff1673ffffffffffffffffffffffffffffffffffffffff1673ffffffffffffffffffffffffffffffffffffffff168152602001600182015481526020016002820160405180602001604052908160008201548152505081526020016003820180548060200260200160405190810160405280929190818152602001828054801561034457602002820191906000526020600020905b8160009054906101000a900473ffffffffffffffffffffffffffffffffffffffff1673ffffffffffffffffffffffffffffffffffffffff16815260200190600101908083116102fa575b505050505081525050905080915050919050565b60006103646000610369565b905090565b600081600001549050919050565b6040518060800160405280600073ffffffffffffffffffffffffffffffffffffffff168152602001600081526020016103ae6103bb565b8152602001606081525090565b6040518060200160405280600081525090565b600080fd5b6000819050919050565b6103e6816103d3565b81146103f157600080fd5b50565b600081359050610403816103dd565b92915050565b60006020828403121561041f5761041e6103ce565b5b600061042d848285016103f4565b91505092915050565b600081519050919050565b600082825260208201905092915050565b6000819050602082019050919050565b600073ffffffffffffffffffffffffffffffffffffffff82169050919050565b600061048d82610462565b9050919050565b61049d81610482565b82525050565b60006104af8383610494565b60208301905092915050565b6000602082019050919050565b60006104d382610436565b6104dd8185610441565b93506104e883610452565b8060005b8381101561051957815161050088826104a3565b975061050b836104bb565b9250506001810190506104ec565b5085935050505092915050565b6000602082019050818103600083015261054081846104c8565b905092915050565b610551816103d3565b82525050565b60208201600082015161056d6000850182610548565b50505050565b600082825260208201905092915050565b600061058f82610436565b6105998185610573565b93506105a483610452565b8060005b838110156105d55781516105bc88826104a3565b97506105c7836104bb565b9250506001810190506105a8565b5085935050505092915050565b60006080830160008301516105fa6000860182610494565b50602083015161060d6020860182610548565b5060408301516106206040860182610557565b50606083015184820360608601526106388282610584565b9150508091505092915050565b6000602082019050818103600083015261065f81846105e2565b905092915050565b610670816103d3565b82525050565b600060208201905061068b6000830184610667565b9291505056fea2646970667358221220ffe6175064b55ea99ee7c2addb1bd1e88a2473cd121365caa84438e8200c05fd64736f6c634300080b0033",
  "immutableReferences": {},
  "source": "// SPDX-License-Identifier: MIT\npragma solidity 0.8.11;\n\nimport \"@openzeppelin/contracts/utils/Counters.sol\";\n\n// Book Manager\ncontract BookManager {\n    using Counters for Counters.Counter;\n    Counters.Counter private _bookIds;\n\n    struct Book{\n        address author;\n        uint price;\n        Counters.Counter purchasedIds;\n        address[] purchaser;\n    }\n    mapping(uint => Book) Books;\n\n    modifier bookIsExist(uint _bookId) {\n        require(_bookId <= _bookIds.current());\n        _;\n    }\n\n    function _purchaseRequirement(Book memory book, uint _payment) internal pure{\n        require(book.price == _payment);\n    }\n\n    function _addBook(address _author, uint _price) internal {\n        _bookIds.increment();\n        Book storage book = Books[_bookIds.current()];\n        book.author = _author;\n        book.price = _price;\n    }\n\n    function _modifyBook(uint _bookId,address _author, uint _price) internal {\n        Book storage book = Books[_bookId];\n        book.author = _author;\n        book.price = _price;\n    }\n\n    function getPurchaser(uint _bookId) external bookIsExist(_bookId) view returns(address[] memory) {\n        Book memory book = Books[_bookId];\n        return book.purchaser;\n    }\n\n    function getTotalBook() external view returns(uint){\n        return _bookIds.current();\n    }\n\n    function getBookData(uint _bookId) external view returns(Book memory) {\n        Book memory book = Books[_bookId];\n        return book;\n    }\n\n\n    function _purchaseBook(uint _bookId, address _purchaser, uint _payment) internal virtual bookIsExist(_bookId){\n        Book storage book = Books[_bookId];\n        _purchaseRequirement(book, _payment);\n        book.purchaser.push(_purchaser);\n    }\n\n}",
  "sourcePath": "/Users/jin/workplace/ethereum/library/contracts/devs/BookManager.sol",
  "compiler": {
    "name": "solc",
    "version": "0.8.11+commit.d7f03943.Emscripten.clang"
  },
  "schemaVersion": "3.4.4",
  "updatedAt": "2021-12-25T13:07:37.090Z",
  "devdoc": {
    "kind": "dev",
    "methods": {},
    "version": 1
  },
  "userdoc": {
    "kind": "user",
    "methods": {},
    "version": 1
  }
}