{
  "contractName": "BookManager",
  "abi": [
    {
      "inputs": [
        {
          "internalType": "uint256",
          "name": "_bookId",
          "type": "uint256"
        }
      ],
      "name": "getPurchaser",
      "outputs": [
        {
          "internalType": "address[]",
          "name": "",
          "type": "address[]"
        }
      ],
      "stateMutability": "view",
      "type": "function"
    },
    {
      "inputs": [],
      "name": "getTotalBook",
      "outputs": [
        {
          "internalType": "uint256",
          "name": "",
          "type": "uint256"
        }
      ],
      "stateMutability": "view",
      "type": "function"
    },
    {
      "inputs": [
        {
          "internalType": "uint256",
          "name": "_bookId",
          "type": "uint256"
        }
      ],
      "name": "getBookData",
      "outputs": [
        {
          "components": [
            {
              "internalType": "address",
              "name": "author",
              "type": "address"
            },
            {
              "internalType": "uint256",
              "name": "price",
              "type": "uint256"
            },
            {
              "internalType": "string",
              "name": "title",
              "type": "string"
            },
            {
              "components": [
                {
                  "internalType": "uint256",
                  "name": "_value",
                  "type": "uint256"
                }
              ],
              "internalType": "struct Counters.Counter",
              "name": "purchasedIds",
              "type": "tuple"
            },
            {
              "internalType": "address[]",
              "name": "purchaser",
              "type": "address[]"
            }
          ],
          "internalType": "struct BookManager.Book",
          "name": "",
          "type": "tuple"
        }
      ],
      "stateMutability": "view",
      "type": "function"
    }
  ],
  "bytecode": "0x608060405234801561001057600080fd5b50610900806100206000396000f3fe608060405234801561001057600080fd5b50600436106100415760003560e01c806349257f4e146100465780639d4b35a714610076578063d2ce216b146100a6575b600080fd5b610060600480360381019061005b919061052e565b6100c4565b60405161006d919061064b565b60405180910390f35b610090600480360381019061008b919061052e565b6102ab565b60405161009d919061081d565b60405180910390f35b6100ae610476565b6040516100bb919061084e565b60405180910390f35b6060816100d16000610487565b8111156100dd57600080fd5b6000600160008581526020019081526020016000206040518060a00160405290816000820160009054906101000a900473ffffffffffffffffffffffffffffffffffffffff1673ffffffffffffffffffffffffffffffffffffffff1673ffffffffffffffffffffffffffffffffffffffff1681526020016001820154815260200160028201805461016d90610898565b80601f016020809104026020016040519081016040528092919081815260200182805461019990610898565b80156101e65780601f106101bb576101008083540402835291602001916101e6565b820191906000526020600020905b8154815290600101906020018083116101c957829003601f168201915b505050505081526020016003820160405180602001604052908160008201548152505081526020016004820180548060200260200160405190810160405280929190818152602001828054801561029257602002820191906000526020600020905b8160009054906101000a900473ffffffffffffffffffffffffffffffffffffffff1673ffffffffffffffffffffffffffffffffffffffff1681526020019060010190808311610248575b5050505050815250509050806080015192505050919050565b6102b3610495565b600160008381526020019081526020016000206040518060a00160405290816000820160009054906101000a900473ffffffffffffffffffffffffffffffffffffffff1673ffffffffffffffffffffffffffffffffffffffff1673ffffffffffffffffffffffffffffffffffffffff1681526020016001820154815260200160028201805461034190610898565b80601f016020809104026020016040519081016040528092919081815260200182805461036d90610898565b80156103ba5780601f1061038f576101008083540402835291602001916103ba565b820191906000526020600020905b81548152906001019060200180831161039d57829003601f168201915b505050505081526020016003820160405180602001604052908160008201548152505081526020016004820180548060200260200160405190810160405280929190818152602001828054801561046657602002820191906000526020600020905b8160009054906101000a900473ffffffffffffffffffffffffffffffffffffffff1673ffffffffffffffffffffffffffffffffffffffff168152602001906001019080831161041c575b5050505050815250509050919050565b60006104826000610487565b905090565b600081600001549050919050565b6040518060a00160405280600073ffffffffffffffffffffffffffffffffffffffff16815260200160008152602001606081526020016104d36104e0565b8152602001606081525090565b6040518060200160405280600081525090565b600080fd5b6000819050919050565b61050b816104f8565b811461051657600080fd5b50565b60008135905061052881610502565b92915050565b600060208284031215610544576105436104f3565b5b600061055284828501610519565b91505092915050565b600081519050919050565b600082825260208201905092915050565b6000819050602082019050919050565b600073ffffffffffffffffffffffffffffffffffffffff82169050919050565b60006105b282610587565b9050919050565b6105c2816105a7565b82525050565b60006105d483836105b9565b60208301905092915050565b6000602082019050919050565b60006105f88261055b565b6106028185610566565b935061060d83610577565b8060005b8381101561063e57815161062588826105c8565b9750610630836105e0565b925050600181019050610611565b5085935050505092915050565b6000602082019050818103600083015261066581846105ed565b905092915050565b610676816104f8565b82525050565b600081519050919050565b600082825260208201905092915050565b60005b838110156106b657808201518184015260208101905061069b565b838111156106c5576000848401525b50505050565b6000601f19601f8301169050919050565b60006106e78261067c565b6106f18185610687565b9350610701818560208601610698565b61070a816106cb565b840191505092915050565b60208201600082015161072b600085018261066d565b50505050565b600082825260208201905092915050565b600061074d8261055b565b6107578185610731565b935061076283610577565b8060005b8381101561079357815161077a88826105c8565b9750610785836105e0565b925050600181019050610766565b5085935050505092915050565b600060a0830160008301516107b860008601826105b9565b5060208301516107cb602086018261066d565b50604083015184820360408601526107e382826106dc565b91505060608301516107f86060860182610715565b50608083015184820360808601526108108282610742565b9150508091505092915050565b6000602082019050818103600083015261083781846107a0565b905092915050565b610848816104f8565b82525050565b6000602082019050610863600083018461083f565b92915050565b7f4e487b7100000000000000000000000000000000000000000000000000000000600052602260045260246000fd5b600060028204905060018216806108b057607f821691505b602082108114156108c4576108c3610869565b5b5091905056fea2646970667358221220bf2b7d4ee422647c77b062aa3667134087841207c517ae3035f8f9036fb8547e64736f6c634300080b0033",
  "immutableReferences": {},
  "source": "// SPDX-License-Identifier: MIT\npragma solidity 0.8.11;\n\nimport \"@openzeppelin/contracts/utils/Counters.sol\";\n\n// Book Manager\ncontract BookManager {\n    using Counters for Counters.Counter;\n    Counters.Counter private _bookIds;\n\n    struct Book{\n        address author;\n        uint price;\n        string title;\n        Counters.Counter purchasedIds;\n        address[] purchaser;\n    }\n    mapping(uint => Book) Books;\n\n    modifier bookIsExist(uint _bookId) {\n        require(_bookId <= _bookIds.current());\n        _;\n    }\n\n    function _purchaseRequirement(Book memory book, uint _payment) internal pure{\n        require(book.price == _payment);\n    }\n\n    function _addBook(address _author, uint _price, string memory _title) internal {\n        _bookIds.increment();\n        Book storage book = Books[_bookIds.current()];\n        book.title = _title;\n        book.author = _author;\n        book.price = _price;\n    }\n\n    function _modifyBook(uint _bookId,address _author, uint _price, string memory _title) internal {\n        Book storage book = Books[_bookId];\n        book.title = _title;\n        book.author = _author;\n        book.price = _price;\n    }\n\n    function getPurchaser(uint _bookId) external bookIsExist(_bookId) view returns(address[] memory) {\n        Book memory book = Books[_bookId];\n        return book.purchaser;\n    }\n\n    function getTotalBook() external view returns(uint){\n        return _bookIds.current();\n    }\n\n    function getBookData(uint _bookId) external view returns(Book memory) {\n        return Books[_bookId];\n    }\n\n\n    function _purchaseBook(uint _bookId, address _purchaser, uint _payment) internal virtual bookIsExist(_bookId){\n        Book storage book = Books[_bookId];\n        _purchaseRequirement(book, _payment);\n        book.purchaser.push(_purchaser);\n    }\n\n}",
  "sourcePath": "/Users/jin/workplace/ethereum/library/contracts/devs/BookManager.sol",
  "compiler": {
    "name": "solc",
    "version": "0.8.11+commit.d7f03943.Emscripten.clang"
  },
  "schemaVersion": "3.4.4",
  "updatedAt": "2021-12-28T13:31:31.064Z",
  "devdoc": {
    "kind": "dev",
    "methods": {},
    "version": 1
  },
  "userdoc": {
    "kind": "user",
    "methods": {},
    "version": 1
  }
}