{
  "contractName": "BookManager",
  "abi": [
    {
      "inputs": [
        {
          "internalType": "uint256",
          "name": "_bookId",
          "type": "uint256"
        }
      ],
      "name": "getPurchaser",
      "outputs": [
        {
          "internalType": "address[]",
          "name": "",
          "type": "address[]"
        }
      ],
      "stateMutability": "view",
      "type": "function"
    },
    {
      "inputs": [],
      "name": "getTotalBook",
      "outputs": [
        {
          "internalType": "uint256",
          "name": "",
          "type": "uint256"
        }
      ],
      "stateMutability": "view",
      "type": "function"
    }
  ],
  "bytecode": "0x608060405234801561001057600080fd5b506103d7806100206000396000f3fe608060405234801561001057600080fd5b50600436106100365760003560e01c806349257f4e1461003b578063d2ce216b1461006b575b600080fd5b61005560048036038101906100509190610238565b610089565b6040516100629190610355565b60405180910390f35b6100736101de565b6040516100809190610386565b60405180910390f35b60608161009660006101ef565b8111156100a257600080fd5b6000600160008581526020019081526020016000206040518060800160405290816000820160009054906101000a900473ffffffffffffffffffffffffffffffffffffffff1673ffffffffffffffffffffffffffffffffffffffff1673ffffffffffffffffffffffffffffffffffffffff16815260200160018201548152602001600282016040518060200160405290816000820154815250508152602001600382018054806020026020016040519081016040528092919081815260200182805480156101c557602002820191906000526020600020905b8160009054906101000a900473ffffffffffffffffffffffffffffffffffffffff1673ffffffffffffffffffffffffffffffffffffffff168152602001906001019080831161017b575b5050505050815250509050806060015192505050919050565b60006101ea60006101ef565b905090565b600081600001549050919050565b600080fd5b6000819050919050565b61021581610202565b811461022057600080fd5b50565b6000813590506102328161020c565b92915050565b60006020828403121561024e5761024d6101fd565b5b600061025c84828501610223565b91505092915050565b600081519050919050565b600082825260208201905092915050565b6000819050602082019050919050565b600073ffffffffffffffffffffffffffffffffffffffff82169050919050565b60006102bc82610291565b9050919050565b6102cc816102b1565b82525050565b60006102de83836102c3565b60208301905092915050565b6000602082019050919050565b600061030282610265565b61030c8185610270565b935061031783610281565b8060005b8381101561034857815161032f88826102d2565b975061033a836102ea565b92505060018101905061031b565b5085935050505092915050565b6000602082019050818103600083015261036f81846102f7565b905092915050565b61038081610202565b82525050565b600060208201905061039b6000830184610377565b9291505056fea26469706673582212205b8d3cb2a33a8c8a114da222f52c52c97d1915a814c8425d4e4341adda68be2864736f6c634300080b0033",
  "immutableReferences": {},
  "source": "// SPDX-License-Identifier: MIT\npragma solidity 0.8.11;\n\nimport \"@openzeppelin/contracts/utils/Counters.sol\";\n\n// Book Manager\ncontract BookManager {\n    using Counters for Counters.Counter;\n    Counters.Counter private _bookIds;\n\n    struct Book{\n        address author;\n        uint price;\n        Counters.Counter purchasedIds;\n        address[] purchaser;\n    }\n    mapping(uint => Book) Books;\n\n    modifier bookIsExist(uint _bookId) {\n        require(_bookId <= _bookIds.current());\n        _;\n    }\n\n    function _purchaseRequirement(Book memory book, uint _payment) internal pure{\n        require(book.price == _payment);\n    }\n\n    function _addBook(address _author, uint _price) internal {\n        _bookIds.increment();\n        Book storage book = Books[_bookIds.current()];\n        book.author = _author;\n        book.price = _price;\n    }\n\n    function getPurchaser(uint _bookId) external bookIsExist(_bookId) view returns(address[] memory) {\n        Book memory book = Books[_bookId];\n        return book.purchaser;\n    }\n\n    function getTotalBook() external view returns(uint){\n        return _bookIds.current();\n    }\n\n\n    function _purchaseBook(uint _bookId, address _purchaser, uint _payment) internal virtual bookIsExist(_bookId){\n        Book storage book = Books[_bookId];\n        _purchaseRequirement(book, _payment);\n        book.purchaser.push(_purchaser);\n    }\n\n}",
  "sourcePath": "/Users/jin/workplace/ethereum/library/contracts/devs/BookManager.sol",
  "compiler": {
    "name": "solc",
    "version": "0.8.11+commit.d7f03943.Emscripten.clang"
  },
  "schemaVersion": "3.4.4",
  "updatedAt": "2021-12-24T07:25:01.232Z",
  "devdoc": {
    "kind": "dev",
    "methods": {},
    "version": 1
  },
  "userdoc": {
    "kind": "user",
    "methods": {},
    "version": 1
  }
}