{
  "contractName": "BorrowTokenManager",
  "abi": [
    {
      "inputs": [
        {
          "internalType": "uint256",
          "name": "_tokenId",
          "type": "uint256"
        }
      ],
      "name": "getTokenData",
      "outputs": [
        {
          "components": [
            {
              "internalType": "address",
              "name": "borrower",
              "type": "address"
            },
            {
              "internalType": "uint256",
              "name": "bookId",
              "type": "uint256"
            },
            {
              "internalType": "bool",
              "name": "allowToContract",
              "type": "bool"
            },
            {
              "internalType": "uint256",
              "name": "period",
              "type": "uint256"
            },
            {
              "internalType": "uint256",
              "name": "cost",
              "type": "uint256"
            },
            {
              "internalType": "uint256",
              "name": "start",
              "type": "uint256"
            }
          ],
          "internalType": "struct BorrowTokenManager.BorrowToken",
          "name": "",
          "type": "tuple"
        }
      ],
      "stateMutability": "view",
      "type": "function"
    },
    {
      "inputs": [
        {
          "internalType": "uint256",
          "name": "_tokenId",
          "type": "uint256"
        }
      ],
      "name": "getTokenBorrower",
      "outputs": [
        {
          "internalType": "address",
          "name": "",
          "type": "address"
        }
      ],
      "stateMutability": "view",
      "type": "function"
    }
  ],
  "bytecode": "0x608060405234801561001057600080fd5b5061043f806100206000396000f3fe608060405234801561001057600080fd5b50600436106100365760003560e01c8063a38ec0011461003b578063b09afec11461006b575b600080fd5b610055600480360381019061005091906102b1565b61009b565b604051610062919061031f565b60405180910390f35b610085600480360381019061008091906102b1565b610163565b60405161009291906103ee565b60405180910390f35b6000806000808481526020019081526020016000206040518060c00160405290816000820160009054906101000a900473ffffffffffffffffffffffffffffffffffffffff1673ffffffffffffffffffffffffffffffffffffffff1673ffffffffffffffffffffffffffffffffffffffff168152602001600182015481526020016002820160009054906101000a900460ff16151515158152602001600382015481526020016004820154815260200160058201548152505090508060000151915050919050565b61016b610228565b6000808381526020019081526020016000206040518060c00160405290816000820160009054906101000a900473ffffffffffffffffffffffffffffffffffffffff1673ffffffffffffffffffffffffffffffffffffffff1673ffffffffffffffffffffffffffffffffffffffff168152602001600182015481526020016002820160009054906101000a900460ff1615151515815260200160038201548152602001600482015481526020016005820154815250509050919050565b6040518060c00160405280600073ffffffffffffffffffffffffffffffffffffffff168152602001600081526020016000151581526020016000815260200160008152602001600081525090565b600080fd5b6000819050919050565b61028e8161027b565b811461029957600080fd5b50565b6000813590506102ab81610285565b92915050565b6000602082840312156102c7576102c6610276565b5b60006102d58482850161029c565b91505092915050565b600073ffffffffffffffffffffffffffffffffffffffff82169050919050565b6000610309826102de565b9050919050565b610319816102fe565b82525050565b60006020820190506103346000830184610310565b92915050565b610343816102fe565b82525050565b6103528161027b565b82525050565b60008115159050919050565b61036d81610358565b82525050565b60c082016000820151610389600085018261033a565b50602082015161039c6020850182610349565b5060408201516103af6040850182610364565b5060608201516103c26060850182610349565b5060808201516103d56080850182610349565b5060a08201516103e860a0850182610349565b50505050565b600060c0820190506104036000830184610373565b9291505056fea26469706673582212200c334be8b46081b1b1aa1de9956f3595cb77e338ddf3e21b3376c39ab5cdfddd64736f6c634300080b0033",
  "immutableReferences": {},
  "source": "// SPDX-License-Identifier: MIT\npragma solidity 0.8.11;\n\ncontract BorrowTokenManager {\n    struct BorrowToken{\n        address borrower;\n        uint bookId;\n        bool allowToContract;\n\n        uint period;\n        uint cost;\n        uint start;\n    }\n\n    mapping(uint => BorrowToken) tokenData;\n\n    function getTokenData(uint _tokenId) external  view returns(BorrowToken memory){\n        return tokenData[_tokenId];\n    }\n\n    function getTokenBorrower(uint _tokenId) external  view returns(address){\n        BorrowToken memory token = tokenData[_tokenId];\n        return token.borrower;\n    }\n\n    function _borrowRequirement(BorrowToken memory _token, address _owner, uint _payment) internal virtual pure {\n        require(_token.borrower == _owner);\n        require(_token.cost == _payment);\n    }\n\n    function _returnRequirement(BorrowToken memory _token, address _tokenOwner, address _sender) internal virtual {\n        if(block.timestamp >= _token.start + _token.period * 1 seconds){\n            require(_token.borrower == _sender || _tokenOwner == _sender);\n        } else require(_token.borrower == _sender);\n    }\n\n    function _initializeToken(uint _tokenId,address _tokenOwner, uint _bookId) internal virtual {\n        BorrowToken storage token = tokenData[_tokenId];\n        token.borrower = _tokenOwner;\n        token.bookId = _bookId;\n        token.allowToContract=false;\n        token.period = 1;\n        token.cost = 0;\n        token.start = 0;\n    }\n\n    function _borrowToken(uint _tokenId, address _owner, address _borrower, uint _payment) internal virtual{\n        BorrowToken storage token = tokenData[_tokenId];\n        _borrowRequirement(token, _owner, _payment );\n        token.borrower = _borrower;\n        token.start = block.timestamp;\n    }\n\n    function _returnToken(uint _tokenId, address _tokenOwner) internal virtual {\n        BorrowToken storage token = tokenData[_tokenId];\n        _returnRequirement(token, _tokenOwner, msg.sender);\n\n        token.borrower = _tokenOwner;\n        token.start = 0;\n    }\n\n    function _configBorrow(uint _tokenId, uint _period, uint _cost) internal  {\n        BorrowToken storage token = tokenData[_tokenId];\n        token.period = _period;\n        token.cost = _cost;\n    }\n\n    function _changeBorrowAllowance(uint _tokenId, bool _isAllow) internal  {\n        BorrowToken storage token = tokenData[_tokenId];\n        token.allowToContract = _isAllow;\n    }\n}",
  "sourcePath": "/Users/jin/workplace/ethereum/library/contracts/devs/BorrowTokenManager.sol",
  "compiler": {
    "name": "solc",
    "version": "0.8.11+commit.d7f03943.Emscripten.clang"
  },
  "schemaVersion": "3.4.4",
  "updatedAt": "2021-12-25T04:34:22.461Z",
  "devdoc": {
    "kind": "dev",
    "methods": {},
    "version": 1
  },
  "userdoc": {
    "kind": "user",
    "methods": {},
    "version": 1
  }
}