{
  "contractName": "Library",
  "abi": [
    {
      "inputs": [
        {
          "internalType": "uint256",
          "name": "_maxBorrowing",
          "type": "uint256"
        }
      ],
      "stateMutability": "nonpayable",
      "type": "constructor"
    },
    {
      "anonymous": false,
      "inputs": [
        {
          "indexed": true,
          "internalType": "address",
          "name": "owner",
          "type": "address"
        },
        {
          "indexed": true,
          "internalType": "address",
          "name": "approved",
          "type": "address"
        },
        {
          "indexed": true,
          "internalType": "uint256",
          "name": "tokenId",
          "type": "uint256"
        }
      ],
      "name": "Approval",
      "type": "event"
    },
    {
      "anonymous": false,
      "inputs": [
        {
          "indexed": true,
          "internalType": "address",
          "name": "owner",
          "type": "address"
        },
        {
          "indexed": true,
          "internalType": "address",
          "name": "operator",
          "type": "address"
        },
        {
          "indexed": false,
          "internalType": "bool",
          "name": "approved",
          "type": "bool"
        }
      ],
      "name": "ApprovalForAll",
      "type": "event"
    },
    {
      "anonymous": false,
      "inputs": [
        {
          "indexed": true,
          "internalType": "address",
          "name": "previousOwner",
          "type": "address"
        },
        {
          "indexed": true,
          "internalType": "address",
          "name": "newOwner",
          "type": "address"
        }
      ],
      "name": "OwnershipTransferred",
      "type": "event"
    },
    {
      "anonymous": false,
      "inputs": [
        {
          "indexed": true,
          "internalType": "address",
          "name": "from",
          "type": "address"
        },
        {
          "indexed": true,
          "internalType": "address",
          "name": "to",
          "type": "address"
        },
        {
          "indexed": true,
          "internalType": "uint256",
          "name": "tokenId",
          "type": "uint256"
        }
      ],
      "name": "Transfer",
      "type": "event"
    },
    {
      "inputs": [
        {
          "internalType": "address",
          "name": "to",
          "type": "address"
        },
        {
          "internalType": "uint256",
          "name": "tokenId",
          "type": "uint256"
        }
      ],
      "name": "approve",
      "outputs": [],
      "stateMutability": "nonpayable",
      "type": "function"
    },
    {
      "inputs": [
        {
          "internalType": "address",
          "name": "owner",
          "type": "address"
        }
      ],
      "name": "balanceOf",
      "outputs": [
        {
          "internalType": "uint256",
          "name": "",
          "type": "uint256"
        }
      ],
      "stateMutability": "view",
      "type": "function"
    },
    {
      "inputs": [
        {
          "internalType": "uint256",
          "name": "tokenId",
          "type": "uint256"
        }
      ],
      "name": "getApproved",
      "outputs": [
        {
          "internalType": "address",
          "name": "",
          "type": "address"
        }
      ],
      "stateMutability": "view",
      "type": "function"
    },
    {
      "inputs": [
        {
          "internalType": "uint256",
          "name": "_bookId",
          "type": "uint256"
        }
      ],
      "name": "getBookData",
      "outputs": [
        {
          "components": [
            {
              "internalType": "address",
              "name": "author",
              "type": "address"
            },
            {
              "internalType": "uint256",
              "name": "price",
              "type": "uint256"
            },
            {
              "components": [
                {
                  "internalType": "uint256",
                  "name": "_value",
                  "type": "uint256"
                }
              ],
              "internalType": "struct Counters.Counter",
              "name": "purchasedIds",
              "type": "tuple"
            },
            {
              "internalType": "address[]",
              "name": "purchaser",
              "type": "address[]"
            }
          ],
          "internalType": "struct BookManager.Book",
          "name": "",
          "type": "tuple"
        }
      ],
      "stateMutability": "view",
      "type": "function"
    },
    {
      "inputs": [
        {
          "internalType": "address",
          "name": "_user",
          "type": "address"
        }
      ],
      "name": "getBorrowingNum",
      "outputs": [
        {
          "internalType": "uint256",
          "name": "",
          "type": "uint256"
        }
      ],
      "stateMutability": "view",
      "type": "function"
    },
    {
      "inputs": [
        {
          "internalType": "uint256",
          "name": "_bookId",
          "type": "uint256"
        }
      ],
      "name": "getPurchaser",
      "outputs": [
        {
          "internalType": "address[]",
          "name": "",
          "type": "address[]"
        }
      ],
      "stateMutability": "view",
      "type": "function"
    },
    {
      "inputs": [
        {
          "internalType": "uint256",
          "name": "_tokenId",
          "type": "uint256"
        }
      ],
      "name": "getTokenBorrower",
      "outputs": [
        {
          "internalType": "address",
          "name": "",
          "type": "address"
        }
      ],
      "stateMutability": "view",
      "type": "function"
    },
    {
      "inputs": [
        {
          "internalType": "uint256",
          "name": "_tokenId",
          "type": "uint256"
        }
      ],
      "name": "getTokenData",
      "outputs": [
        {
          "components": [
            {
              "internalType": "address",
              "name": "borrower",
              "type": "address"
            },
            {
              "internalType": "uint256",
              "name": "bookId",
              "type": "uint256"
            },
            {
              "internalType": "bool",
              "name": "allowToContract",
              "type": "bool"
            },
            {
              "internalType": "uint256",
              "name": "period",
              "type": "uint256"
            },
            {
              "internalType": "uint256",
              "name": "cost",
              "type": "uint256"
            },
            {
              "internalType": "uint256",
              "name": "start",
              "type": "uint256"
            }
          ],
          "internalType": "struct BorrowTokenManager.BorrowToken",
          "name": "",
          "type": "tuple"
        }
      ],
      "stateMutability": "view",
      "type": "function"
    },
    {
      "inputs": [],
      "name": "getTotalBook",
      "outputs": [
        {
          "internalType": "uint256",
          "name": "",
          "type": "uint256"
        }
      ],
      "stateMutability": "view",
      "type": "function"
    },
    {
      "inputs": [
        {
          "internalType": "address",
          "name": "owner",
          "type": "address"
        },
        {
          "internalType": "address",
          "name": "operator",
          "type": "address"
        }
      ],
      "name": "isApprovedForAll",
      "outputs": [
        {
          "internalType": "bool",
          "name": "",
          "type": "bool"
        }
      ],
      "stateMutability": "view",
      "type": "function"
    },
    {
      "inputs": [],
      "name": "maxBorrowing",
      "outputs": [
        {
          "internalType": "uint256",
          "name": "",
          "type": "uint256"
        }
      ],
      "stateMutability": "view",
      "type": "function"
    },
    {
      "inputs": [],
      "name": "name",
      "outputs": [
        {
          "internalType": "string",
          "name": "",
          "type": "string"
        }
      ],
      "stateMutability": "view",
      "type": "function"
    },
    {
      "inputs": [],
      "name": "owner",
      "outputs": [
        {
          "internalType": "address",
          "name": "",
          "type": "address"
        }
      ],
      "stateMutability": "view",
      "type": "function"
    },
    {
      "inputs": [
        {
          "internalType": "uint256",
          "name": "tokenId",
          "type": "uint256"
        }
      ],
      "name": "ownerOf",
      "outputs": [
        {
          "internalType": "address",
          "name": "",
          "type": "address"
        }
      ],
      "stateMutability": "view",
      "type": "function"
    },
    {
      "inputs": [],
      "name": "renounceOwnership",
      "outputs": [],
      "stateMutability": "nonpayable",
      "type": "function"
    },
    {
      "inputs": [
        {
          "internalType": "address",
          "name": "from",
          "type": "address"
        },
        {
          "internalType": "address",
          "name": "to",
          "type": "address"
        },
        {
          "internalType": "uint256",
          "name": "tokenId",
          "type": "uint256"
        }
      ],
      "name": "safeTransferFrom",
      "outputs": [],
      "stateMutability": "nonpayable",
      "type": "function"
    },
    {
      "inputs": [
        {
          "internalType": "address",
          "name": "from",
          "type": "address"
        },
        {
          "internalType": "address",
          "name": "to",
          "type": "address"
        },
        {
          "internalType": "uint256",
          "name": "tokenId",
          "type": "uint256"
        },
        {
          "internalType": "bytes",
          "name": "_data",
          "type": "bytes"
        }
      ],
      "name": "safeTransferFrom",
      "outputs": [],
      "stateMutability": "nonpayable",
      "type": "function"
    },
    {
      "inputs": [
        {
          "internalType": "address",
          "name": "operator",
          "type": "address"
        },
        {
          "internalType": "bool",
          "name": "approved",
          "type": "bool"
        }
      ],
      "name": "setApprovalForAll",
      "outputs": [],
      "stateMutability": "nonpayable",
      "type": "function"
    },
    {
      "inputs": [
        {
          "internalType": "bytes4",
          "name": "interfaceId",
          "type": "bytes4"
        }
      ],
      "name": "supportsInterface",
      "outputs": [
        {
          "internalType": "bool",
          "name": "",
          "type": "bool"
        }
      ],
      "stateMutability": "view",
      "type": "function"
    },
    {
      "inputs": [],
      "name": "symbol",
      "outputs": [
        {
          "internalType": "string",
          "name": "",
          "type": "string"
        }
      ],
      "stateMutability": "view",
      "type": "function"
    },
    {
      "inputs": [
        {
          "internalType": "uint256",
          "name": "index",
          "type": "uint256"
        }
      ],
      "name": "tokenByIndex",
      "outputs": [
        {
          "internalType": "uint256",
          "name": "",
          "type": "uint256"
        }
      ],
      "stateMutability": "view",
      "type": "function"
    },
    {
      "inputs": [
        {
          "internalType": "address",
          "name": "owner",
          "type": "address"
        },
        {
          "internalType": "uint256",
          "name": "index",
          "type": "uint256"
        }
      ],
      "name": "tokenOfOwnerByIndex",
      "outputs": [
        {
          "internalType": "uint256",
          "name": "",
          "type": "uint256"
        }
      ],
      "stateMutability": "view",
      "type": "function"
    },
    {
      "inputs": [
        {
          "internalType": "uint256",
          "name": "tokenId",
          "type": "uint256"
        }
      ],
      "name": "tokenURI",
      "outputs": [
        {
          "internalType": "string",
          "name": "",
          "type": "string"
        }
      ],
      "stateMutability": "view",
      "type": "function"
    },
    {
      "inputs": [],
      "name": "totalSupply",
      "outputs": [
        {
          "internalType": "uint256",
          "name": "",
          "type": "uint256"
        }
      ],
      "stateMutability": "view",
      "type": "function"
    },
    {
      "inputs": [
        {
          "internalType": "address",
          "name": "from",
          "type": "address"
        },
        {
          "internalType": "address",
          "name": "to",
          "type": "address"
        },
        {
          "internalType": "uint256",
          "name": "tokenId",
          "type": "uint256"
        }
      ],
      "name": "transferFrom",
      "outputs": [],
      "stateMutability": "nonpayable",
      "type": "function"
    },
    {
      "inputs": [
        {
          "internalType": "address",
          "name": "newOwner",
          "type": "address"
        }
      ],
      "name": "transferOwnership",
      "outputs": [],
      "stateMutability": "nonpayable",
      "type": "function"
    },
    {
      "inputs": [
        {
          "internalType": "uint256",
          "name": "_maxBorrowing",
          "type": "uint256"
        }
      ],
      "name": "changeMaxBorrowing",
      "outputs": [],
      "stateMutability": "nonpayable",
      "type": "function"
    },
    {
      "inputs": [
        {
          "internalType": "address",
          "name": "_author",
          "type": "address"
        },
        {
          "internalType": "uint256",
          "name": "_price",
          "type": "uint256"
        }
      ],
      "name": "addBook",
      "outputs": [],
      "stateMutability": "nonpayable",
      "type": "function"
    },
    {
      "inputs": [
        {
          "internalType": "uint256",
          "name": "_bookId",
          "type": "uint256"
        },
        {
          "internalType": "address",
          "name": "_author",
          "type": "address"
        },
        {
          "internalType": "uint256",
          "name": "_price",
          "type": "uint256"
        }
      ],
      "name": "modifyBook",
      "outputs": [],
      "stateMutability": "nonpayable",
      "type": "function"
    },
    {
      "inputs": [
        {
          "internalType": "uint256",
          "name": "_bookId",
          "type": "uint256"
        }
      ],
      "name": "purchaseBook",
      "outputs": [],
      "stateMutability": "payable",
      "type": "function"
    },
    {
      "inputs": [
        {
          "internalType": "uint256",
          "name": "_tokenId",
          "type": "uint256"
        }
      ],
      "name": "borrowBook",
      "outputs": [],
      "stateMutability": "payable",
      "type": "function"
    },
    {
      "inputs": [
        {
          "internalType": "uint256",
          "name": "_tokenId",
          "type": "uint256"
        }
      ],
      "name": "returnBook",
      "outputs": [],
      "stateMutability": "nonpayable",
      "type": "function"
    },
    {
      "inputs": [
        {
          "internalType": "uint256",
          "name": "_tokenId",
          "type": "uint256"
        },
        {
          "internalType": "uint256",
          "name": "_period",
          "type": "uint256"
        },
        {
          "internalType": "uint256",
          "name": "_cost",
          "type": "uint256"
        }
      ],
      "name": "configBorrow",
      "outputs": [],
      "stateMutability": "nonpayable",
      "type": "function"
    },
    {
      "inputs": [
        {
          "internalType": "uint256",
          "name": "_tokenId",
          "type": "uint256"
        },
        {
          "internalType": "bool",
          "name": "_isAllow",
          "type": "bool"
        }
      ],
      "name": "changeBorrowAllowance",
      "outputs": [],
      "stateMutability": "nonpayable",
      "type": "function"
    }
  ],
  "bytecode": "0x60806040523480156200001157600080fd5b5060405162004f1d38038062004f1d8339818101604052810190620000379190620002c3565b6040518060400160405280601081526020017f4c696272617279426f6f6b546f6b656e000000000000000000000000000000008152506040518060400160405280600381526020017f4c425400000000000000000000000000000000000000000000000000000000008152508160009080519060200190620000bb929190620001d3565b508060019080519060200190620000d4929190620001d3565b505050620000f7620000eb6200010560201b60201c565b6200010d60201b60201c565b80601081905550506200035a565b600033905090565b6000600f60009054906101000a900473ffffffffffffffffffffffffffffffffffffffff16905081600f60006101000a81548173ffffffffffffffffffffffffffffffffffffffff021916908373ffffffffffffffffffffffffffffffffffffffff1602179055508173ffffffffffffffffffffffffffffffffffffffff168173ffffffffffffffffffffffffffffffffffffffff167f8be0079c531659141344cd1fd0a4f28419497f9722a3daafe3b4186f6b6457e060405160405180910390a35050565b828054620001e19062000324565b90600052602060002090601f01602090048101928262000205576000855562000251565b82601f106200022057805160ff191683800117855562000251565b8280016001018555821562000251579182015b828111156200025057825182559160200191906001019062000233565b5b50905062000260919062000264565b5090565b5b808211156200027f57600081600090555060010162000265565b5090565b600080fd5b6000819050919050565b6200029d8162000288565b8114620002a957600080fd5b50565b600081519050620002bd8162000292565b92915050565b600060208284031215620002dc57620002db62000283565b5b6000620002ec84828501620002ac565b91505092915050565b7f4e487b7100000000000000000000000000000000000000000000000000000000600052602260045260246000fd5b600060028204905060018216806200033d57607f821691505b60208210811415620003545762000353620002f5565b5b50919050565b614bb3806200036a6000396000f3fe6080604052600436106101f95760003560e01c8063715018a61161010d578063b09afec1116100a0578063ca5140c91161006f578063ca5140c914610771578063d18787941461079a578063d2ce216b146107c3578063e985e9c5146107ee578063f2fde38b1461082b576101f9565b8063b09afec1146106a5578063b870c693146106e2578063b88d4fde1461070b578063c87b56dd14610734576101f9565b806395d89b41116100dc57806395d89b41146105d75780639d4b35a714610602578063a22cb4651461063f578063a38ec00114610668576101f9565b8063715018a61461054e5780637e490a9e146105655780638da5cb5b1461058157806390272dff146105ac576101f9565b80632b2679bb1161019057806349257f4e1161015f57806349257f4e146104315780634f6ccce71461046e578063564a89fe146104ab5780636352211e146104d457806370a0823114610511576101f9565b80632b2679bb146103655780632f745c591461038e5780633646951a146103cb57806342842e0e14610408576101f9565b80630b85eb4a116101cc5780630b85eb4a146102cc57806318160ddd146102f55780631c555f471461032057806323b872dd1461033c576101f9565b806301ffc9a7146101fe57806306fdde031461023b578063081812fc14610266578063095ea7b3146102a3575b600080fd5b34801561020a57600080fd5b50610225600480360381019061022091906134d7565b610854565b604051610232919061351f565b60405180910390f35b34801561024757600080fd5b506102506108ce565b60405161025d91906135d3565b60405180910390f35b34801561027257600080fd5b5061028d6004803603810190610288919061362b565b610960565b60405161029a9190613699565b60405180910390f35b3480156102af57600080fd5b506102ca60048036038101906102c591906136e0565b6109e5565b005b3480156102d857600080fd5b506102f360048036038101906102ee919061362b565b610afd565b005b34801561030157600080fd5b5061030a610b83565b604051610317919061372f565b60405180910390f35b61033a6004803603810190610335919061362b565b610b90565b005b34801561034857600080fd5b50610363600480360381019061035e919061374a565b610ba9565b005b34801561037157600080fd5b5061038c600480360381019061038791906137c9565b610c09565b005b34801561039a57600080fd5b506103b560048036038101906103b091906136e0565b610c5d565b6040516103c2919061372f565b60405180910390f35b3480156103d757600080fd5b506103f260048036038101906103ed9190613809565b610d02565b6040516103ff919061372f565b60405180910390f35b34801561041457600080fd5b5061042f600480360381019061042a919061374a565b610d68565b005b34801561043d57600080fd5b506104586004803603810190610453919061362b565b610d88565b60405161046591906138f4565b60405180910390f35b34801561047a57600080fd5b506104956004803603810190610490919061362b565b610edd565b6040516104a2919061372f565b60405180910390f35b3480156104b757600080fd5b506104d260048036038101906104cd9190613916565b610f4e565b005b3480156104e057600080fd5b506104fb60048036038101906104f6919061362b565b610fda565b6040516105089190613699565b60405180910390f35b34801561051d57600080fd5b5061053860048036038101906105339190613809565b61108c565b604051610545919061372f565b60405180910390f35b34801561055a57600080fd5b50610563611144565b005b61057f600480360381019061057a919061362b565b6111cc565b005b34801561058d57600080fd5b50610596611261565b6040516105a39190613699565b60405180910390f35b3480156105b857600080fd5b506105c161128b565b6040516105ce919061372f565b60405180910390f35b3480156105e357600080fd5b506105ec611291565b6040516105f991906135d3565b60405180910390f35b34801561060e57600080fd5b506106296004803603810190610624919061362b565b611323565b6040516106369190613a66565b60405180910390f35b34801561064b57600080fd5b5061066660048036038101906106619190613a88565b611462565b005b34801561067457600080fd5b5061068f600480360381019061068a919061362b565b611478565b60405161069c9190613699565b60405180910390f35b3480156106b157600080fd5b506106cc60048036038101906106c7919061362b565b611541565b6040516106d99190613b52565b60405180910390f35b3480156106ee57600080fd5b5061070960048036038101906107049190613b6d565b611607565b005b34801561071757600080fd5b50610732600480360381019061072d9190613cf5565b61165d565b005b34801561074057600080fd5b5061075b6004803603810190610756919061362b565b6116bf565b60405161076891906135d3565b60405180910390f35b34801561077d57600080fd5b506107986004803603810190610793919061362b565b611766565b005b3480156107a657600080fd5b506107c160048036038101906107bc91906136e0565b611798565b005b3480156107cf57600080fd5b506107d8611822565b6040516107e5919061372f565b60405180910390f35b3480156107fa57600080fd5b5061081560048036038101906108109190613d78565b611833565b604051610822919061351f565b60405180910390f35b34801561083757600080fd5b50610852600480360381019061084d9190613809565b6118c7565b005b60007f780e9d63000000000000000000000000000000000000000000000000000000007bffffffffffffffffffffffffffffffffffffffffffffffffffffffff1916827bffffffffffffffffffffffffffffffffffffffffffffffffffffffff191614806108c757506108c6826119bf565b5b9050919050565b6060600080546108dd90613de7565b80601f016020809104026020016040519081016040528092919081815260200182805461090990613de7565b80156109565780601f1061092b57610100808354040283529160200191610956565b820191906000526020600020905b81548152906001019060200180831161093957829003601f168201915b5050505050905090565b600061096b82611aa1565b6109aa576040517f08c379a00000000000000000000000000000000000000000000000000000000081526004016109a190613e8b565b60405180910390fd5b6004600083815260200190815260200160002060009054906101000a900473ffffffffffffffffffffffffffffffffffffffff169050919050565b60006109f082610fda565b90508073ffffffffffffffffffffffffffffffffffffffff168373ffffffffffffffffffffffffffffffffffffffff161415610a61576040517f08c379a0000000000000000000000000000000000000000000000000000000008152600401610a5890613f1d565b60405180910390fd5b8073ffffffffffffffffffffffffffffffffffffffff16610a80611b0d565b73ffffffffffffffffffffffffffffffffffffffff161480610aaf5750610aae81610aa9611b0d565b611833565b5b610aee576040517f08c379a0000000000000000000000000000000000000000000000000000000008152600401610ae590613faf565b60405180910390fd5b610af88383611b15565b505050565b610b05611b0d565b73ffffffffffffffffffffffffffffffffffffffff16610b23611261565b73ffffffffffffffffffffffffffffffffffffffff1614610b79576040517f08c379a0000000000000000000000000000000000000000000000000000000008152600401610b709061401b565b60405180910390fd5b8060108190555050565b6000600880549050905090565b610b9b813334611bce565b610ba58133611d89565b5050565b610bba610bb4611b0d565b82611dc2565b610bf9576040517f08c379a0000000000000000000000000000000000000000000000000000000008152600401610bf0906140ad565b60405180910390fd5b610c04838383611ea0565b505050565b6000610c1483610fda565b90503373ffffffffffffffffffffffffffffffffffffffff168173ffffffffffffffffffffffffffffffffffffffff1614610c4e57600080fd5b610c5883836120fc565b505050565b6000610c688361108c565b8210610ca9576040517f08c379a0000000000000000000000000000000000000000000000000000000008152600401610ca09061413f565b60405180910390fd5b600660008473ffffffffffffffffffffffffffffffffffffffff1673ffffffffffffffffffffffffffffffffffffffff168152602001908152602001600020600083815260200190815260200160002054905092915050565b600080600e60008473ffffffffffffffffffffffffffffffffffffffff1673ffffffffffffffffffffffffffffffffffffffff16815260200190815260200160002060405180602001604052908160008201548152505090508060000151915050919050565b610d838383836040518060200160405280600081525061165d565b505050565b606081610d95600c612134565b811115610da157600080fd5b6000600d60008581526020019081526020016000206040518060800160405290816000820160009054906101000a900473ffffffffffffffffffffffffffffffffffffffff1673ffffffffffffffffffffffffffffffffffffffff1673ffffffffffffffffffffffffffffffffffffffff1681526020016001820154815260200160028201604051806020016040529081600082015481525050815260200160038201805480602002602001604051908101604052809291908181526020018280548015610ec457602002820191906000526020600020905b8160009054906101000a900473ffffffffffffffffffffffffffffffffffffffff1673ffffffffffffffffffffffffffffffffffffffff1681526020019060010190808311610e7a575b5050505050815250509050806060015192505050919050565b6000610ee7610b83565b8210610f28576040517f08c379a0000000000000000000000000000000000000000000000000000000008152600401610f1f906141d1565b60405180910390fd5b60088281548110610f3c57610f3b6141f1565b5b90600052602060002001549050919050565b610f56611b0d565b73ffffffffffffffffffffffffffffffffffffffff16610f74611261565b73ffffffffffffffffffffffffffffffffffffffff1614610fca576040517f08c379a0000000000000000000000000000000000000000000000000000000008152600401610fc19061401b565b60405180910390fd5b610fd5838383612142565b505050565b6000806002600084815260200190815260200160002060009054906101000a900473ffffffffffffffffffffffffffffffffffffffff169050600073ffffffffffffffffffffffffffffffffffffffff168173ffffffffffffffffffffffffffffffffffffffff161415611083576040517f08c379a000000000000000000000000000000000000000000000000000000000815260040161107a90614292565b60405180910390fd5b80915050919050565b60008073ffffffffffffffffffffffffffffffffffffffff168273ffffffffffffffffffffffffffffffffffffffff1614156110fd576040517f08c379a00000000000000000000000000000000000000000000000000000000081526004016110f490614324565b60405180910390fd5b600360008373ffffffffffffffffffffffffffffffffffffffff1673ffffffffffffffffffffffffffffffffffffffff168152602001908152602001600020549050919050565b61114c611b0d565b73ffffffffffffffffffffffffffffffffffffffff1661116a611261565b73ffffffffffffffffffffffffffffffffffffffff16146111c0576040517f08c379a00000000000000000000000000000000000000000000000000000000081526004016111b79061401b565b60405180910390fd5b6111ca60006121ab565b565b336010546000600e60008473ffffffffffffffffffffffffffffffffffffffff1673ffffffffffffffffffffffffffffffffffffffff16815260200190815260200160002060405180602001604052908160008201548152505090508060000151821161123857600080fd5b600061124385610fda565b905061125185823334612271565b61125a3361238a565b5050505050565b6000600f60009054906101000a900473ffffffffffffffffffffffffffffffffffffffff16905090565b60105481565b6060600180546112a090613de7565b80601f01602080910402602001604051908101604052809291908181526020018280546112cc90613de7565b80156113195780601f106112ee57610100808354040283529160200191611319565b820191906000526020600020905b8154815290600101906020018083116112fc57829003601f168201915b5050505050905090565b61132b6133c6565b6000600d60008481526020019081526020016000206040518060800160405290816000820160009054906101000a900473ffffffffffffffffffffffffffffffffffffffff1673ffffffffffffffffffffffffffffffffffffffff1673ffffffffffffffffffffffffffffffffffffffff168152602001600182015481526020016002820160405180602001604052908160008201548152505081526020016003820180548060200260200160405190810160405280929190818152602001828054801561144e57602002820191906000526020600020905b8160009054906101000a900473ffffffffffffffffffffffffffffffffffffffff1673ffffffffffffffffffffffffffffffffffffffff1681526020019060010190808311611404575b505050505081525050905080915050919050565b61147461146d611b0d565b83836123eb565b5050565b600080600a60008481526020019081526020016000206040518060c00160405290816000820160009054906101000a900473ffffffffffffffffffffffffffffffffffffffff1673ffffffffffffffffffffffffffffffffffffffff1673ffffffffffffffffffffffffffffffffffffffff168152602001600182015481526020016002820160009054906101000a900460ff16151515158152602001600382015481526020016004820154815260200160058201548152505090508060000151915050919050565b61154961340a565b600a60008381526020019081526020016000206040518060c00160405290816000820160009054906101000a900473ffffffffffffffffffffffffffffffffffffffff1673ffffffffffffffffffffffffffffffffffffffff1673ffffffffffffffffffffffffffffffffffffffff168152602001600182015481526020016002820160009054906101000a900460ff1615151515815260200160038201548152602001600482015481526020016005820154815250509050919050565b600061161284610fda565b90503373ffffffffffffffffffffffffffffffffffffffff168173ffffffffffffffffffffffffffffffffffffffff161461164c57600080fd5b611657848484612558565b50505050565b61166e611668611b0d565b83611dc2565b6116ad576040517f08c379a00000000000000000000000000000000000000000000000000000000081526004016116a4906140ad565b60405180910390fd5b6116b984848484612587565b50505050565b60606116ca82611aa1565b611709576040517f08c379a0000000000000000000000000000000000000000000000000000000008152600401611700906143b6565b60405180910390fd5b60006117136125e3565b90506000815111611733576040518060200160405280600081525061175e565b8061173d846125fa565b60405160200161174e929190614412565b6040516020818303038152906040525b915050919050565b600061177182610fda565b9050600061177e83611478565b905061178a838361275b565b61179381612873565b505050565b6117a0611b0d565b73ffffffffffffffffffffffffffffffffffffffff166117be611261565b73ffffffffffffffffffffffffffffffffffffffff1614611814576040517f08c379a000000000000000000000000000000000000000000000000000000000815260040161180b9061401b565b60405180910390fd5b61181e82826128d4565b5050565b600061182e600c612134565b905090565b6000600560008473ffffffffffffffffffffffffffffffffffffffff1673ffffffffffffffffffffffffffffffffffffffff16815260200190815260200160002060008373ffffffffffffffffffffffffffffffffffffffff1673ffffffffffffffffffffffffffffffffffffffff16815260200190815260200160002060009054906101000a900460ff16905092915050565b6118cf611b0d565b73ffffffffffffffffffffffffffffffffffffffff166118ed611261565b73ffffffffffffffffffffffffffffffffffffffff1614611943576040517f08c379a000000000000000000000000000000000000000000000000000000000815260040161193a9061401b565b60405180910390fd5b600073ffffffffffffffffffffffffffffffffffffffff168173ffffffffffffffffffffffffffffffffffffffff1614156119b3576040517f08c379a00000000000000000000000000000000000000000000000000000000081526004016119aa906144a8565b60405180910390fd5b6119bc816121ab565b50565b60007f80ac58cd000000000000000000000000000000000000000000000000000000007bffffffffffffffffffffffffffffffffffffffffffffffffffffffff1916827bffffffffffffffffffffffffffffffffffffffffffffffffffffffff19161480611a8a57507f5b5e139f000000000000000000000000000000000000000000000000000000007bffffffffffffffffffffffffffffffffffffffffffffffffffffffff1916827bffffffffffffffffffffffffffffffffffffffffffffffffffffffff1916145b80611a9a5750611a998261294f565b5b9050919050565b60008073ffffffffffffffffffffffffffffffffffffffff166002600084815260200190815260200160002060009054906101000a900473ffffffffffffffffffffffffffffffffffffffff1673ffffffffffffffffffffffffffffffffffffffff1614159050919050565b600033905090565b816004600083815260200190815260200160002060006101000a81548173ffffffffffffffffffffffffffffffffffffffff021916908373ffffffffffffffffffffffffffffffffffffffff160217905550808273ffffffffffffffffffffffffffffffffffffffff16611b8883610fda565b73ffffffffffffffffffffffffffffffffffffffff167f8c5be1e5ebec7d5bd14f71427d1e84f3dd0314c0f7b2291e5b200ac8c7c3b92560405160405180910390a45050565b82611bd9600c612134565b811115611be557600080fd5b6000600d60008681526020019081526020016000209050611d1d816040518060800160405290816000820160009054906101000a900473ffffffffffffffffffffffffffffffffffffffff1673ffffffffffffffffffffffffffffffffffffffff1673ffffffffffffffffffffffffffffffffffffffff1681526020016001820154815260200160028201604051806020016040529081600082015481525050815260200160038201805480602002602001604051908101604052809291908181526020018280548015611d0e57602002820191906000526020600020905b8160009054906101000a900473ffffffffffffffffffffffffffffffffffffffff1673ffffffffffffffffffffffffffffffffffffffff1681526020019060010190808311611cc4575b505050505081525050846129b9565b80600301849080600181540180825580915050600190039060005260206000200160009091909190916101000a81548173ffffffffffffffffffffffffffffffffffffffff021916908373ffffffffffffffffffffffffffffffffffffffff1602179055505050505050565b6000611d95600b6129cd565b6000611da1600b612134565b9050611dad83826129e3565b611db8818486612a01565b8091505092915050565b6000611dcd82611aa1565b611e0c576040517f08c379a0000000000000000000000000000000000000000000000000000000008152600401611e039061453a565b60405180910390fd5b6000611e1783610fda565b90508073ffffffffffffffffffffffffffffffffffffffff168473ffffffffffffffffffffffffffffffffffffffff161480611e8657508373ffffffffffffffffffffffffffffffffffffffff16611e6e84610960565b73ffffffffffffffffffffffffffffffffffffffff16145b80611e975750611e968185611833565b5b91505092915050565b8273ffffffffffffffffffffffffffffffffffffffff16611ec082610fda565b73ffffffffffffffffffffffffffffffffffffffff1614611f16576040517f08c379a0000000000000000000000000000000000000000000000000000000008152600401611f0d906145cc565b60405180910390fd5b600073ffffffffffffffffffffffffffffffffffffffff168273ffffffffffffffffffffffffffffffffffffffff161415611f86576040517f08c379a0000000000000000000000000000000000000000000000000000000008152600401611f7d9061465e565b60405180910390fd5b611f91838383612aa5565b611f9c600082611b15565b6001600360008573ffffffffffffffffffffffffffffffffffffffff1673ffffffffffffffffffffffffffffffffffffffff1681526020019081526020016000206000828254611fec91906146ad565b925050819055506001600360008473ffffffffffffffffffffffffffffffffffffffff1673ffffffffffffffffffffffffffffffffffffffff168152602001908152602001600020600082825461204391906146e1565b92505081905550816002600083815260200190815260200160002060006101000a81548173ffffffffffffffffffffffffffffffffffffffff021916908373ffffffffffffffffffffffffffffffffffffffff160217905550808273ffffffffffffffffffffffffffffffffffffffff168473ffffffffffffffffffffffffffffffffffffffff167fddf252ad1be2c89b69c2b068fc378daa952ba7f163c4a11628f55a4df523b3ef60405160405180910390a4505050565b6000600a60008481526020019081526020016000209050818160020160006101000a81548160ff021916908315150217905550505050565b600081600001549050919050565b6000600d60008581526020019081526020016000209050828160000160006101000a81548173ffffffffffffffffffffffffffffffffffffffff021916908373ffffffffffffffffffffffffffffffffffffffff16021790555081816001018190555050505050565b6000600f60009054906101000a900473ffffffffffffffffffffffffffffffffffffffff16905081600f60006101000a81548173ffffffffffffffffffffffffffffffffffffffff021916908373ffffffffffffffffffffffffffffffffffffffff1602179055508173ffffffffffffffffffffffffffffffffffffffff168173ffffffffffffffffffffffffffffffffffffffff167f8be0079c531659141344cd1fd0a4f28419497f9722a3daafe3b4186f6b6457e060405160405180910390a35050565b6000600a60008681526020019081526020016000209050612337816040518060c00160405290816000820160009054906101000a900473ffffffffffffffffffffffffffffffffffffffff1673ffffffffffffffffffffffffffffffffffffffff1673ffffffffffffffffffffffffffffffffffffffff168152602001600182015481526020016002820160009054906101000a900460ff1615151515815260200160038201548152602001600482015481526020016005820154815250508584612bb9565b828160000160006101000a81548173ffffffffffffffffffffffffffffffffffffffff021916908373ffffffffffffffffffffffffffffffffffffffff1602179055504281600501819055505050505050565b6000600e60008373ffffffffffffffffffffffffffffffffffffffff1673ffffffffffffffffffffffffffffffffffffffff16815260200190815260200160002090508060000160008154809291906123e290614737565b91905055505050565b8173ffffffffffffffffffffffffffffffffffffffff168373ffffffffffffffffffffffffffffffffffffffff16141561245a576040517f08c379a0000000000000000000000000000000000000000000000000000000008152600401612451906147cc565b60405180910390fd5b80600560008573ffffffffffffffffffffffffffffffffffffffff1673ffffffffffffffffffffffffffffffffffffffff16815260200190815260200160002060008473ffffffffffffffffffffffffffffffffffffffff1673ffffffffffffffffffffffffffffffffffffffff16815260200190815260200160002060006101000a81548160ff0219169083151502179055508173ffffffffffffffffffffffffffffffffffffffff168373ffffffffffffffffffffffffffffffffffffffff167f17307eab39ab6107e8899845ad3d59bd9653f200f220920489ca2b5937696c318360405161254b919061351f565b60405180910390a3505050565b6000600a6000858152602001908152602001600020905082816003018190555081816004018190555050505050565b612592848484611ea0565b61259e84848484612c18565b6125dd576040517f08c379a00000000000000000000000000000000000000000000000000000000081526004016125d49061485e565b60405180910390fd5b50505050565b606060405180602001604052806000815250905090565b60606000821415612642576040518060400160405280600181526020017f30000000000000000000000000000000000000000000000000000000000000008152509050612756565b600082905060005b6000821461267457808061265d90614737565b915050600a8261266d91906148ad565b915061264a565b60008167ffffffffffffffff8111156126905761268f613bca565b5b6040519080825280601f01601f1916602001820160405280156126c25781602001600182028036833780820191505090505b5090505b6000851461274f576001826126db91906146ad565b9150600a856126ea91906148de565b60306126f691906146e1565b60f81b81838151811061270c5761270b6141f1565b5b60200101907effffffffffffffffffffffffffffffffffffffffffffffffffffffffffffff1916908160001a905350600a8561274891906148ad565b94506126c6565b8093505050505b919050565b6000600a60008481526020019081526020016000209050612821816040518060c00160405290816000820160009054906101000a900473ffffffffffffffffffffffffffffffffffffffff1673ffffffffffffffffffffffffffffffffffffffff1673ffffffffffffffffffffffffffffffffffffffff168152602001600182015481526020016002820160009054906101000a900460ff1615151515815260200160038201548152602001600482015481526020016005820154815250508333612da0565b818160000160006101000a81548173ffffffffffffffffffffffffffffffffffffffff021916908373ffffffffffffffffffffffffffffffffffffffff16021790555060008160050181905550505050565b6000600e60008373ffffffffffffffffffffffffffffffffffffffff1673ffffffffffffffffffffffffffffffffffffffff16815260200190815260200160002090508060000160008154809291906128cb9061490f565b91905055505050565b6128de600c6129cd565b6000600d60006128ee600c612134565b81526020019081526020016000209050828160000160006101000a81548173ffffffffffffffffffffffffffffffffffffffff021916908373ffffffffffffffffffffffffffffffffffffffff160217905550818160010181905550505050565b60007f01ffc9a7000000000000000000000000000000000000000000000000000000007bffffffffffffffffffffffffffffffffffffffffffffffffffffffff1916827bffffffffffffffffffffffffffffffffffffffffffffffffffffffff1916149050919050565b808260200151146129c957600080fd5b5050565b6001816000016000828254019250508190555050565b6129fd828260405180602001604052806000815250612e7f565b5050565b6000600a60008581526020019081526020016000209050828160000160006101000a81548173ffffffffffffffffffffffffffffffffffffffff021916908373ffffffffffffffffffffffffffffffffffffffff16021790555081816001018190555060018160020160006101000a81548160ff02191690831515021790555060018160030181905550600081600401819055506000816005018190555050505050565b612ab0838383612eda565b600073ffffffffffffffffffffffffffffffffffffffff168373ffffffffffffffffffffffffffffffffffffffff161415612af357612aee81612edf565b612b32565b8173ffffffffffffffffffffffffffffffffffffffff168373ffffffffffffffffffffffffffffffffffffffff1614612b3157612b308382612f28565b5b5b600073ffffffffffffffffffffffffffffffffffffffff168273ffffffffffffffffffffffffffffffffffffffff161415612b7557612b7081613095565b612bb4565b8273ffffffffffffffffffffffffffffffffffffffff168273ffffffffffffffffffffffffffffffffffffffff1614612bb357612bb28282613166565b5b5b505050565b8173ffffffffffffffffffffffffffffffffffffffff16836000015173ffffffffffffffffffffffffffffffffffffffff1614612bf557600080fd5b80836080015114612c0557600080fd5b8260400151612c1357600080fd5b505050565b6000612c398473ffffffffffffffffffffffffffffffffffffffff166131e5565b15612d93578373ffffffffffffffffffffffffffffffffffffffff1663150b7a02612c62611b0d565b8786866040518563ffffffff1660e01b8152600401612c84949392919061498e565b6020604051808303816000875af1925050508015612cc057506040513d601f19601f82011682018060405250810190612cbd91906149ef565b60015b612d43573d8060008114612cf0576040519150601f19603f3d011682016040523d82523d6000602084013e612cf5565b606091505b50600081511415612d3b576040517f08c379a0000000000000000000000000000000000000000000000000000000008152600401612d329061485e565b60405180910390fd5b805181602001fd5b63150b7a0260e01b7bffffffffffffffffffffffffffffffffffffffffffffffffffffffff1916817bffffffffffffffffffffffffffffffffffffffffffffffffffffffff191614915050612d98565b600190505b949350505050565b60018360600151612db19190614a1c565b8360a00151612dc091906146e1565b4210612e3d578073ffffffffffffffffffffffffffffffffffffffff16836000015173ffffffffffffffffffffffffffffffffffffffff161480612e2f57508073ffffffffffffffffffffffffffffffffffffffff168273ffffffffffffffffffffffffffffffffffffffff16145b612e3857600080fd5b612e7a565b8073ffffffffffffffffffffffffffffffffffffffff16836000015173ffffffffffffffffffffffffffffffffffffffff1614612e7957600080fd5b5b505050565b612e8983836131f8565b612e966000848484612c18565b612ed5576040517f08c379a0000000000000000000000000000000000000000000000000000000008152600401612ecc9061485e565b60405180910390fd5b505050565b505050565b6008805490506009600083815260200190815260200160002081905550600881908060018154018082558091505060019003906000526020600020016000909190919091505550565b60006001612f358461108c565b612f3f91906146ad565b9050600060076000848152602001908152602001600020549050818114613024576000600660008673ffffffffffffffffffffffffffffffffffffffff1673ffffffffffffffffffffffffffffffffffffffff168152602001908152602001600020600084815260200190815260200160002054905080600660008773ffffffffffffffffffffffffffffffffffffffff1673ffffffffffffffffffffffffffffffffffffffff168152602001908152602001600020600084815260200190815260200160002081905550816007600083815260200190815260200160002081905550505b6007600084815260200190815260200160002060009055600660008573ffffffffffffffffffffffffffffffffffffffff1673ffffffffffffffffffffffffffffffffffffffff16815260200190815260200160002060008381526020019081526020016000206000905550505050565b600060016008805490506130a991906146ad565b90506000600960008481526020019081526020016000205490506000600883815481106130d9576130d86141f1565b5b9060005260206000200154905080600883815481106130fb576130fa6141f1565b5b90600052602060002001819055508160096000838152602001908152602001600020819055506009600085815260200190815260200160002060009055600880548061314a57613149614a76565b5b6001900381819060005260206000200160009055905550505050565b60006131718361108c565b905081600660008573ffffffffffffffffffffffffffffffffffffffff1673ffffffffffffffffffffffffffffffffffffffff168152602001908152602001600020600083815260200190815260200160002081905550806007600084815260200190815260200160002081905550505050565b600080823b905060008111915050919050565b600073ffffffffffffffffffffffffffffffffffffffff168273ffffffffffffffffffffffffffffffffffffffff161415613268576040517f08c379a000000000000000000000000000000000000000000000000000000000815260040161325f90614af1565b60405180910390fd5b61327181611aa1565b156132b1576040517f08c379a00000000000000000000000000000000000000000000000000000000081526004016132a890614b5d565b60405180910390fd5b6132bd60008383612aa5565b6001600360008473ffffffffffffffffffffffffffffffffffffffff1673ffffffffffffffffffffffffffffffffffffffff168152602001908152602001600020600082825461330d91906146e1565b92505081905550816002600083815260200190815260200160002060006101000a81548173ffffffffffffffffffffffffffffffffffffffff021916908373ffffffffffffffffffffffffffffffffffffffff160217905550808273ffffffffffffffffffffffffffffffffffffffff16600073ffffffffffffffffffffffffffffffffffffffff167fddf252ad1be2c89b69c2b068fc378daa952ba7f163c4a11628f55a4df523b3ef60405160405180910390a45050565b6040518060800160405280600073ffffffffffffffffffffffffffffffffffffffff168152602001600081526020016133fd613458565b8152602001606081525090565b6040518060c00160405280600073ffffffffffffffffffffffffffffffffffffffff168152602001600081526020016000151581526020016000815260200160008152602001600081525090565b6040518060200160405280600081525090565b6000604051905090565b600080fd5b600080fd5b60007fffffffff0000000000000000000000000000000000000000000000000000000082169050919050565b6134b48161347f565b81146134bf57600080fd5b50565b6000813590506134d1816134ab565b92915050565b6000602082840312156134ed576134ec613475565b5b60006134fb848285016134c2565b91505092915050565b60008115159050919050565b61351981613504565b82525050565b60006020820190506135346000830184613510565b92915050565b600081519050919050565b600082825260208201905092915050565b60005b83811015613574578082015181840152602081019050613559565b83811115613583576000848401525b50505050565b6000601f19601f8301169050919050565b60006135a58261353a565b6135af8185613545565b93506135bf818560208601613556565b6135c881613589565b840191505092915050565b600060208201905081810360008301526135ed818461359a565b905092915050565b6000819050919050565b613608816135f5565b811461361357600080fd5b50565b600081359050613625816135ff565b92915050565b60006020828403121561364157613640613475565b5b600061364f84828501613616565b91505092915050565b600073ffffffffffffffffffffffffffffffffffffffff82169050919050565b600061368382613658565b9050919050565b61369381613678565b82525050565b60006020820190506136ae600083018461368a565b92915050565b6136bd81613678565b81146136c857600080fd5b50565b6000813590506136da816136b4565b92915050565b600080604083850312156136f7576136f6613475565b5b6000613705858286016136cb565b925050602061371685828601613616565b9150509250929050565b613729816135f5565b82525050565b60006020820190506137446000830184613720565b92915050565b60008060006060848603121561376357613762613475565b5b6000613771868287016136cb565b9350506020613782868287016136cb565b925050604061379386828701613616565b9150509250925092565b6137a681613504565b81146137b157600080fd5b50565b6000813590506137c38161379d565b92915050565b600080604083850312156137e0576137df613475565b5b60006137ee85828601613616565b92505060206137ff858286016137b4565b9150509250929050565b60006020828403121561381f5761381e613475565b5b600061382d848285016136cb565b91505092915050565b600081519050919050565b600082825260208201905092915050565b6000819050602082019050919050565b61386b81613678565b82525050565b600061387d8383613862565b60208301905092915050565b6000602082019050919050565b60006138a182613836565b6138ab8185613841565b93506138b683613852565b8060005b838110156138e75781516138ce8882613871565b97506138d983613889565b9250506001810190506138ba565b5085935050505092915050565b6000602082019050818103600083015261390e8184613896565b905092915050565b60008060006060848603121561392f5761392e613475565b5b600061393d86828701613616565b935050602061394e868287016136cb565b925050604061395f86828701613616565b9150509250925092565b613972816135f5565b82525050565b60208201600082015161398e6000850182613969565b50505050565b600082825260208201905092915050565b60006139b082613836565b6139ba8185613994565b93506139c583613852565b8060005b838110156139f65781516139dd8882613871565b97506139e883613889565b9250506001810190506139c9565b5085935050505092915050565b6000608083016000830151613a1b6000860182613862565b506020830151613a2e6020860182613969565b506040830151613a416040860182613978565b5060608301518482036060860152613a5982826139a5565b9150508091505092915050565b60006020820190508181036000830152613a808184613a03565b905092915050565b60008060408385031215613a9f57613a9e613475565b5b6000613aad858286016136cb565b9250506020613abe858286016137b4565b9150509250929050565b613ad181613504565b82525050565b60c082016000820151613aed6000850182613862565b506020820151613b006020850182613969565b506040820151613b136040850182613ac8565b506060820151613b266060850182613969565b506080820151613b396080850182613969565b5060a0820151613b4c60a0850182613969565b50505050565b600060c082019050613b676000830184613ad7565b92915050565b600080600060608486031215613b8657613b85613475565b5b6000613b9486828701613616565b9350506020613ba586828701613616565b9250506040613bb686828701613616565b9150509250925092565b600080fd5b600080fd5b7f4e487b7100000000000000000000000000000000000000000000000000000000600052604160045260246000fd5b613c0282613589565b810181811067ffffffffffffffff82111715613c2157613c20613bca565b5b80604052505050565b6000613c3461346b565b9050613c408282613bf9565b919050565b600067ffffffffffffffff821115613c6057613c5f613bca565b5b613c6982613589565b9050602081019050919050565b82818337600083830152505050565b6000613c98613c9384613c45565b613c2a565b905082815260208101848484011115613cb457613cb3613bc5565b5b613cbf848285613c76565b509392505050565b600082601f830112613cdc57613cdb613bc0565b5b8135613cec848260208601613c85565b91505092915050565b60008060008060808587031215613d0f57613d0e613475565b5b6000613d1d878288016136cb565b9450506020613d2e878288016136cb565b9350506040613d3f87828801613616565b925050606085013567ffffffffffffffff811115613d6057613d5f61347a565b5b613d6c87828801613cc7565b91505092959194509250565b60008060408385031215613d8f57613d8e613475565b5b6000613d9d858286016136cb565b9250506020613dae858286016136cb565b9150509250929050565b7f4e487b7100000000000000000000000000000000000000000000000000000000600052602260045260246000fd5b60006002820490506001821680613dff57607f821691505b60208210811415613e1357613e12613db8565b5b50919050565b7f4552433732313a20617070726f76656420717565727920666f72206e6f6e657860008201527f697374656e7420746f6b656e0000000000000000000000000000000000000000602082015250565b6000613e75602c83613545565b9150613e8082613e19565b604082019050919050565b60006020820190508181036000830152613ea481613e68565b9050919050565b7f4552433732313a20617070726f76616c20746f2063757272656e74206f776e6560008201527f7200000000000000000000000000000000000000000000000000000000000000602082015250565b6000613f07602183613545565b9150613f1282613eab565b604082019050919050565b60006020820190508181036000830152613f3681613efa565b9050919050565b7f4552433732313a20617070726f76652063616c6c6572206973206e6f74206f7760008201527f6e6572206e6f7220617070726f76656420666f7220616c6c0000000000000000602082015250565b6000613f99603883613545565b9150613fa482613f3d565b604082019050919050565b60006020820190508181036000830152613fc881613f8c565b9050919050565b7f4f776e61626c653a2063616c6c6572206973206e6f7420746865206f776e6572600082015250565b6000614005602083613545565b915061401082613fcf565b602082019050919050565b6000602082019050818103600083015261403481613ff8565b9050919050565b7f4552433732313a207472616e736665722063616c6c6572206973206e6f74206f60008201527f776e6572206e6f7220617070726f766564000000000000000000000000000000602082015250565b6000614097603183613545565b91506140a28261403b565b604082019050919050565b600060208201905081810360008301526140c68161408a565b9050919050565b7f455243373231456e756d657261626c653a206f776e657220696e646578206f7560008201527f74206f6620626f756e6473000000000000000000000000000000000000000000602082015250565b6000614129602b83613545565b9150614134826140cd565b604082019050919050565b600060208201905081810360008301526141588161411c565b9050919050565b7f455243373231456e756d657261626c653a20676c6f62616c20696e646578206f60008201527f7574206f6620626f756e64730000000000000000000000000000000000000000602082015250565b60006141bb602c83613545565b91506141c68261415f565b604082019050919050565b600060208201905081810360008301526141ea816141ae565b9050919050565b7f4e487b7100000000000000000000000000000000000000000000000000000000600052603260045260246000fd5b7f4552433732313a206f776e657220717565727920666f72206e6f6e657869737460008201527f656e7420746f6b656e0000000000000000000000000000000000000000000000602082015250565b600061427c602983613545565b915061428782614220565b604082019050919050565b600060208201905081810360008301526142ab8161426f565b9050919050565b7f4552433732313a2062616c616e636520717565727920666f7220746865207a6560008201527f726f206164647265737300000000000000000000000000000000000000000000602082015250565b600061430e602a83613545565b9150614319826142b2565b604082019050919050565b6000602082019050818103600083015261433d81614301565b9050919050565b7f4552433732314d657461646174613a2055524920717565727920666f72206e6f60008201527f6e6578697374656e7420746f6b656e0000000000000000000000000000000000602082015250565b60006143a0602f83613545565b91506143ab82614344565b604082019050919050565b600060208201905081810360008301526143cf81614393565b9050919050565b600081905092915050565b60006143ec8261353a565b6143f681856143d6565b9350614406818560208601613556565b80840191505092915050565b600061441e82856143e1565b915061442a82846143e1565b91508190509392505050565b7f4f776e61626c653a206e6577206f776e657220697320746865207a65726f206160008201527f6464726573730000000000000000000000000000000000000000000000000000602082015250565b6000614492602683613545565b915061449d82614436565b604082019050919050565b600060208201905081810360008301526144c181614485565b9050919050565b7f4552433732313a206f70657261746f7220717565727920666f72206e6f6e657860008201527f697374656e7420746f6b656e0000000000000000000000000000000000000000602082015250565b6000614524602c83613545565b915061452f826144c8565b604082019050919050565b6000602082019050818103600083015261455381614517565b9050919050565b7f4552433732313a207472616e73666572206f6620746f6b656e2074686174206960008201527f73206e6f74206f776e0000000000000000000000000000000000000000000000602082015250565b60006145b6602983613545565b91506145c18261455a565b604082019050919050565b600060208201905081810360008301526145e5816145a9565b9050919050565b7f4552433732313a207472616e7366657220746f20746865207a65726f2061646460008201527f7265737300000000000000000000000000000000000000000000000000000000602082015250565b6000614648602483613545565b9150614653826145ec565b604082019050919050565b600060208201905081810360008301526146778161463b565b9050919050565b7f4e487b7100000000000000000000000000000000000000000000000000000000600052601160045260246000fd5b60006146b8826135f5565b91506146c3836135f5565b9250828210156146d6576146d561467e565b5b828203905092915050565b60006146ec826135f5565b91506146f7836135f5565b9250827fffffffffffffffffffffffffffffffffffffffffffffffffffffffffffffffff0382111561472c5761472b61467e565b5b828201905092915050565b6000614742826135f5565b91507fffffffffffffffffffffffffffffffffffffffffffffffffffffffffffffffff8214156147755761477461467e565b5b600182019050919050565b7f4552433732313a20617070726f766520746f2063616c6c657200000000000000600082015250565b60006147b6601983613545565b91506147c182614780565b602082019050919050565b600060208201905081810360008301526147e5816147a9565b9050919050565b7f4552433732313a207472616e7366657220746f206e6f6e20455243373231526560008201527f63656976657220696d706c656d656e7465720000000000000000000000000000602082015250565b6000614848603283613545565b9150614853826147ec565b604082019050919050565b600060208201905081810360008301526148778161483b565b9050919050565b7f4e487b7100000000000000000000000000000000000000000000000000000000600052601260045260246000fd5b60006148b8826135f5565b91506148c3836135f5565b9250826148d3576148d261487e565b5b828204905092915050565b60006148e9826135f5565b91506148f4836135f5565b9250826149045761490361487e565b5b828206905092915050565b600061491a826135f5565b9150600082141561492e5761492d61467e565b5b600182039050919050565b600081519050919050565b600082825260208201905092915050565b600061496082614939565b61496a8185614944565b935061497a818560208601613556565b61498381613589565b840191505092915050565b60006080820190506149a3600083018761368a565b6149b0602083018661368a565b6149bd6040830185613720565b81810360608301526149cf8184614955565b905095945050505050565b6000815190506149e9816134ab565b92915050565b600060208284031215614a0557614a04613475565b5b6000614a13848285016149da565b91505092915050565b6000614a27826135f5565b9150614a32836135f5565b9250817fffffffffffffffffffffffffffffffffffffffffffffffffffffffffffffffff0483118215151615614a6b57614a6a61467e565b5b828202905092915050565b7f4e487b7100000000000000000000000000000000000000000000000000000000600052603160045260246000fd5b7f4552433732313a206d696e7420746f20746865207a65726f2061646472657373600082015250565b6000614adb602083613545565b9150614ae682614aa5565b602082019050919050565b60006020820190508181036000830152614b0a81614ace565b9050919050565b7f4552433732313a20746f6b656e20616c7265616479206d696e74656400000000600082015250565b6000614b47601c83613545565b9150614b5282614b11565b602082019050919050565b60006020820190508181036000830152614b7681614b3a565b905091905056fea2646970667358221220b42d60f6f10fedf7a48a8816f85a2aaa527174555b09e6c097894dd8c6b1552164736f6c634300080b0033",
  "immutableReferences": {},
  "source": "// SPDX-License-Identifier: MIT\npragma solidity 0.8.11;\n\nimport \"@openzeppelin/contracts/access/Ownable.sol\";\n\nimport './devs/TokenManager.sol';\nimport './devs/BookManager.sol';\nimport './devs/UserManager.sol';\n\n// all payable functions are to implement here\ncontract Library is TokenManager, BookManager, UserManager, Ownable{\n    uint public maxBorrowing;\n    constructor(uint _maxBorrowing){\n        maxBorrowing = _maxBorrowing;\n    }\n\n    // change max Borrowing number\n    function changeMaxBorrowing(uint _maxBorrowing) external onlyOwner {\n        maxBorrowing = _maxBorrowing;\n    }\n\n    // add book\n    function addBook(address _author, uint _price) external onlyOwner {\n        _addBook(_author, _price);\n    }\n\n    // modify book\n    function modifyBook(uint _bookId,address _author, uint _price) external onlyOwner {\n        _modifyBook(_bookId,_author, _price);\n    }\n\n    // purchase Book\n    function purchaseBook(uint _bookId) external payable {\n        _purchaseBook(_bookId, msg.sender , msg.value);\n        _purchaseToken(_bookId, msg.sender);\n    }\n\n    // borrow Book\n    function borrowBook(uint _tokenId ) external restrictedBorrow(msg.sender, maxBorrowing) payable{\n        address owner = ownerOf(_tokenId);\n        _borrowToken(_tokenId, owner, msg.sender, msg.value);\n        _userBorrow(msg.sender);\n    }\n\n    // return Book\n    function returnBook(uint _tokenId) external {\n        address owner = ownerOf(_tokenId);\n        address borrower = getTokenBorrower(_tokenId);\n        _returnToken(_tokenId, owner);\n        _userReturn(borrower);\n    }\n\n    // configure token\n    function configBorrow(uint _tokenId, uint _period, uint _cost) external {\n        address owner = ownerOf(_tokenId);\n        require(owner == msg.sender);\n        _configBorrow(_tokenId, _period, _cost);\n    }\n    function changeBorrowAllowance(uint _tokenId, bool _isAllow) external {\n        address owner = ownerOf(_tokenId);\n        require(owner == msg.sender);\n        _changeBorrowAllowance(_tokenId, _isAllow);\n    }\n\n}",
  "sourcePath": "/Users/jin/workplace/ethereum/library/contracts/Library.sol",
  "compiler": {
    "name": "solc",
    "version": "0.8.11+commit.d7f03943.Emscripten.clang"
  },
  "schemaVersion": "3.4.4",
  "updatedAt": "2021-12-25T13:07:37.074Z",
  "devdoc": {
    "kind": "dev",
    "methods": {
      "approve(address,uint256)": {
        "details": "See {IERC721-approve}."
      },
      "balanceOf(address)": {
        "details": "See {IERC721-balanceOf}."
      },
      "getApproved(uint256)": {
        "details": "See {IERC721-getApproved}."
      },
      "isApprovedForAll(address,address)": {
        "details": "See {IERC721-isApprovedForAll}."
      },
      "name()": {
        "details": "See {IERC721Metadata-name}."
      },
      "owner()": {
        "details": "Returns the address of the current owner."
      },
      "ownerOf(uint256)": {
        "details": "See {IERC721-ownerOf}."
      },
      "renounceOwnership()": {
        "details": "Leaves the contract without owner. It will not be possible to call `onlyOwner` functions anymore. Can only be called by the current owner. NOTE: Renouncing ownership will leave the contract without an owner, thereby removing any functionality that is only available to the owner."
      },
      "safeTransferFrom(address,address,uint256)": {
        "details": "See {IERC721-safeTransferFrom}."
      },
      "safeTransferFrom(address,address,uint256,bytes)": {
        "details": "See {IERC721-safeTransferFrom}."
      },
      "setApprovalForAll(address,bool)": {
        "details": "See {IERC721-setApprovalForAll}."
      },
      "supportsInterface(bytes4)": {
        "details": "See {IERC165-supportsInterface}."
      },
      "symbol()": {
        "details": "See {IERC721Metadata-symbol}."
      },
      "tokenByIndex(uint256)": {
        "details": "See {IERC721Enumerable-tokenByIndex}."
      },
      "tokenOfOwnerByIndex(address,uint256)": {
        "details": "See {IERC721Enumerable-tokenOfOwnerByIndex}."
      },
      "tokenURI(uint256)": {
        "details": "See {IERC721Metadata-tokenURI}."
      },
      "totalSupply()": {
        "details": "See {IERC721Enumerable-totalSupply}."
      },
      "transferFrom(address,address,uint256)": {
        "details": "See {IERC721-transferFrom}."
      },
      "transferOwnership(address)": {
        "details": "Transfers ownership of the contract to a new account (`newOwner`). Can only be called by the current owner."
      }
    },
    "version": 1
  },
  "userdoc": {
    "kind": "user",
    "methods": {},
    "version": 1
  }
}