{
  "contractName": "Library",
  "abi": [
    {
      "anonymous": false,
      "inputs": [
        {
          "indexed": true,
          "internalType": "address",
          "name": "owner",
          "type": "address"
        },
        {
          "indexed": true,
          "internalType": "address",
          "name": "approved",
          "type": "address"
        },
        {
          "indexed": true,
          "internalType": "uint256",
          "name": "tokenId",
          "type": "uint256"
        }
      ],
      "name": "Approval",
      "type": "event"
    },
    {
      "anonymous": false,
      "inputs": [
        {
          "indexed": true,
          "internalType": "address",
          "name": "owner",
          "type": "address"
        },
        {
          "indexed": true,
          "internalType": "address",
          "name": "operator",
          "type": "address"
        },
        {
          "indexed": false,
          "internalType": "bool",
          "name": "approved",
          "type": "bool"
        }
      ],
      "name": "ApprovalForAll",
      "type": "event"
    },
    {
      "anonymous": false,
      "inputs": [
        {
          "indexed": true,
          "internalType": "address",
          "name": "previousOwner",
          "type": "address"
        },
        {
          "indexed": true,
          "internalType": "address",
          "name": "newOwner",
          "type": "address"
        }
      ],
      "name": "OwnershipTransferred",
      "type": "event"
    },
    {
      "anonymous": false,
      "inputs": [
        {
          "indexed": true,
          "internalType": "address",
          "name": "from",
          "type": "address"
        },
        {
          "indexed": true,
          "internalType": "address",
          "name": "to",
          "type": "address"
        },
        {
          "indexed": true,
          "internalType": "uint256",
          "name": "tokenId",
          "type": "uint256"
        }
      ],
      "name": "Transfer",
      "type": "event"
    },
    {
      "inputs": [
        {
          "internalType": "address",
          "name": "to",
          "type": "address"
        },
        {
          "internalType": "uint256",
          "name": "tokenId",
          "type": "uint256"
        }
      ],
      "name": "approve",
      "outputs": [],
      "stateMutability": "nonpayable",
      "type": "function"
    },
    {
      "inputs": [
        {
          "internalType": "address",
          "name": "owner",
          "type": "address"
        }
      ],
      "name": "balanceOf",
      "outputs": [
        {
          "internalType": "uint256",
          "name": "",
          "type": "uint256"
        }
      ],
      "stateMutability": "view",
      "type": "function"
    },
    {
      "inputs": [
        {
          "internalType": "uint256",
          "name": "tokenId",
          "type": "uint256"
        }
      ],
      "name": "getApproved",
      "outputs": [
        {
          "internalType": "address",
          "name": "",
          "type": "address"
        }
      ],
      "stateMutability": "view",
      "type": "function"
    },
    {
      "inputs": [
        {
          "internalType": "uint256",
          "name": "_bookId",
          "type": "uint256"
        }
      ],
      "name": "getPurchaser",
      "outputs": [
        {
          "internalType": "address[]",
          "name": "",
          "type": "address[]"
        }
      ],
      "stateMutability": "view",
      "type": "function"
    },
    {
      "inputs": [
        {
          "internalType": "uint256",
          "name": "_tokenId",
          "type": "uint256"
        }
      ],
      "name": "getTokenBorrower",
      "outputs": [
        {
          "internalType": "address",
          "name": "",
          "type": "address"
        }
      ],
      "stateMutability": "view",
      "type": "function"
    },
    {
      "inputs": [
        {
          "internalType": "uint256",
          "name": "_tokenId",
          "type": "uint256"
        }
      ],
      "name": "getTokenData",
      "outputs": [
        {
          "components": [
            {
              "internalType": "address",
              "name": "borrower",
              "type": "address"
            },
            {
              "internalType": "uint256",
              "name": "bookId",
              "type": "uint256"
            },
            {
              "internalType": "bool",
              "name": "allowToContract",
              "type": "bool"
            },
            {
              "internalType": "uint256",
              "name": "period",
              "type": "uint256"
            },
            {
              "internalType": "uint256",
              "name": "cost",
              "type": "uint256"
            },
            {
              "internalType": "uint256",
              "name": "start",
              "type": "uint256"
            }
          ],
          "internalType": "struct BorrowTokenManager.BorrowToken",
          "name": "",
          "type": "tuple"
        }
      ],
      "stateMutability": "view",
      "type": "function"
    },
    {
      "inputs": [],
      "name": "getTotalBook",
      "outputs": [
        {
          "internalType": "uint256",
          "name": "",
          "type": "uint256"
        }
      ],
      "stateMutability": "view",
      "type": "function"
    },
    {
      "inputs": [
        {
          "internalType": "address",
          "name": "owner",
          "type": "address"
        },
        {
          "internalType": "address",
          "name": "operator",
          "type": "address"
        }
      ],
      "name": "isApprovedForAll",
      "outputs": [
        {
          "internalType": "bool",
          "name": "",
          "type": "bool"
        }
      ],
      "stateMutability": "view",
      "type": "function"
    },
    {
      "inputs": [],
      "name": "name",
      "outputs": [
        {
          "internalType": "string",
          "name": "",
          "type": "string"
        }
      ],
      "stateMutability": "view",
      "type": "function"
    },
    {
      "inputs": [],
      "name": "owner",
      "outputs": [
        {
          "internalType": "address",
          "name": "",
          "type": "address"
        }
      ],
      "stateMutability": "view",
      "type": "function"
    },
    {
      "inputs": [
        {
          "internalType": "uint256",
          "name": "tokenId",
          "type": "uint256"
        }
      ],
      "name": "ownerOf",
      "outputs": [
        {
          "internalType": "address",
          "name": "",
          "type": "address"
        }
      ],
      "stateMutability": "view",
      "type": "function"
    },
    {
      "inputs": [],
      "name": "renounceOwnership",
      "outputs": [],
      "stateMutability": "nonpayable",
      "type": "function"
    },
    {
      "inputs": [
        {
          "internalType": "address",
          "name": "from",
          "type": "address"
        },
        {
          "internalType": "address",
          "name": "to",
          "type": "address"
        },
        {
          "internalType": "uint256",
          "name": "tokenId",
          "type": "uint256"
        }
      ],
      "name": "safeTransferFrom",
      "outputs": [],
      "stateMutability": "nonpayable",
      "type": "function"
    },
    {
      "inputs": [
        {
          "internalType": "address",
          "name": "from",
          "type": "address"
        },
        {
          "internalType": "address",
          "name": "to",
          "type": "address"
        },
        {
          "internalType": "uint256",
          "name": "tokenId",
          "type": "uint256"
        },
        {
          "internalType": "bytes",
          "name": "_data",
          "type": "bytes"
        }
      ],
      "name": "safeTransferFrom",
      "outputs": [],
      "stateMutability": "nonpayable",
      "type": "function"
    },
    {
      "inputs": [
        {
          "internalType": "address",
          "name": "operator",
          "type": "address"
        },
        {
          "internalType": "bool",
          "name": "approved",
          "type": "bool"
        }
      ],
      "name": "setApprovalForAll",
      "outputs": [],
      "stateMutability": "nonpayable",
      "type": "function"
    },
    {
      "inputs": [
        {
          "internalType": "bytes4",
          "name": "interfaceId",
          "type": "bytes4"
        }
      ],
      "name": "supportsInterface",
      "outputs": [
        {
          "internalType": "bool",
          "name": "",
          "type": "bool"
        }
      ],
      "stateMutability": "view",
      "type": "function"
    },
    {
      "inputs": [],
      "name": "symbol",
      "outputs": [
        {
          "internalType": "string",
          "name": "",
          "type": "string"
        }
      ],
      "stateMutability": "view",
      "type": "function"
    },
    {
      "inputs": [
        {
          "internalType": "uint256",
          "name": "index",
          "type": "uint256"
        }
      ],
      "name": "tokenByIndex",
      "outputs": [
        {
          "internalType": "uint256",
          "name": "",
          "type": "uint256"
        }
      ],
      "stateMutability": "view",
      "type": "function"
    },
    {
      "inputs": [
        {
          "internalType": "address",
          "name": "owner",
          "type": "address"
        },
        {
          "internalType": "uint256",
          "name": "index",
          "type": "uint256"
        }
      ],
      "name": "tokenOfOwnerByIndex",
      "outputs": [
        {
          "internalType": "uint256",
          "name": "",
          "type": "uint256"
        }
      ],
      "stateMutability": "view",
      "type": "function"
    },
    {
      "inputs": [
        {
          "internalType": "uint256",
          "name": "tokenId",
          "type": "uint256"
        }
      ],
      "name": "tokenURI",
      "outputs": [
        {
          "internalType": "string",
          "name": "",
          "type": "string"
        }
      ],
      "stateMutability": "view",
      "type": "function"
    },
    {
      "inputs": [],
      "name": "totalSupply",
      "outputs": [
        {
          "internalType": "uint256",
          "name": "",
          "type": "uint256"
        }
      ],
      "stateMutability": "view",
      "type": "function"
    },
    {
      "inputs": [
        {
          "internalType": "address",
          "name": "from",
          "type": "address"
        },
        {
          "internalType": "address",
          "name": "to",
          "type": "address"
        },
        {
          "internalType": "uint256",
          "name": "tokenId",
          "type": "uint256"
        }
      ],
      "name": "transferFrom",
      "outputs": [],
      "stateMutability": "nonpayable",
      "type": "function"
    },
    {
      "inputs": [
        {
          "internalType": "address",
          "name": "newOwner",
          "type": "address"
        }
      ],
      "name": "transferOwnership",
      "outputs": [],
      "stateMutability": "nonpayable",
      "type": "function"
    },
    {
      "inputs": [
        {
          "internalType": "address",
          "name": "_author",
          "type": "address"
        },
        {
          "internalType": "uint256",
          "name": "_price",
          "type": "uint256"
        }
      ],
      "name": "addBook",
      "outputs": [],
      "stateMutability": "nonpayable",
      "type": "function"
    },
    {
      "inputs": [
        {
          "internalType": "uint256",
          "name": "_bookId",
          "type": "uint256"
        }
      ],
      "name": "purchaseBook",
      "outputs": [],
      "stateMutability": "payable",
      "type": "function"
    },
    {
      "inputs": [
        {
          "internalType": "uint256",
          "name": "_tokenId",
          "type": "uint256"
        }
      ],
      "name": "borrowBook",
      "outputs": [],
      "stateMutability": "payable",
      "type": "function"
    },
    {
      "inputs": [
        {
          "internalType": "uint256",
          "name": "_tokenId",
          "type": "uint256"
        }
      ],
      "name": "returnBook",
      "outputs": [],
      "stateMutability": "nonpayable",
      "type": "function"
    },
    {
      "inputs": [
        {
          "internalType": "uint256",
          "name": "_tokenId",
          "type": "uint256"
        },
        {
          "internalType": "uint256",
          "name": "_period",
          "type": "uint256"
        },
        {
          "internalType": "uint256",
          "name": "_cost",
          "type": "uint256"
        }
      ],
      "name": "configBorrow",
      "outputs": [],
      "stateMutability": "nonpayable",
      "type": "function"
    }
  ],
  "bytecode": "0x60806040523480156200001157600080fd5b506040518060400160405280601081526020017f4c696272617279426f6f6b546f6b656e000000000000000000000000000000008152506040518060400160405280600381526020017f4c42540000000000000000000000000000000000000000000000000000000000815250816000908051906020019062000096929190620001a6565b508060019080519060200190620000af929190620001a6565b505050620000d2620000c6620000d860201b60201c565b620000e060201b60201c565b620002bb565b600033905090565b6000600e60009054906101000a900473ffffffffffffffffffffffffffffffffffffffff16905081600e60006101000a81548173ffffffffffffffffffffffffffffffffffffffff021916908373ffffffffffffffffffffffffffffffffffffffff1602179055508173ffffffffffffffffffffffffffffffffffffffff168173ffffffffffffffffffffffffffffffffffffffff167f8be0079c531659141344cd1fd0a4f28419497f9722a3daafe3b4186f6b6457e060405160405180910390a35050565b828054620001b49062000285565b90600052602060002090601f016020900481019282620001d8576000855562000224565b82601f10620001f357805160ff191683800117855562000224565b8280016001018555821562000224579182015b828111156200022357825182559160200191906001019062000206565b5b50905062000233919062000237565b5090565b5b808211156200025257600081600090555060010162000238565b5090565b7f4e487b7100000000000000000000000000000000000000000000000000000000600052602260045260246000fd5b600060028204905060018216806200029e57607f821691505b60208210811415620002b557620002b462000256565b5b50919050565b61431c80620002cb6000396000f3fe6080604052600436106101b75760003560e01c80637e490a9e116100ec578063b88d4fde1161008a578063d187879411610064578063d187879414610638578063d2ce216b14610661578063e985e9c51461068c578063f2fde38b146106c9576101b7565b8063b88d4fde146105a9578063c87b56dd146105d2578063ca5140c91461060f576101b7565b8063a22cb465116100c6578063a22cb465146104dd578063a38ec00114610506578063b09afec114610543578063b870c69314610580576101b7565b80637e490a9e1461046b5780638da5cb5b1461048757806395d89b41146104b2576101b7565b80632f745c59116101595780634f6ccce7116101335780634f6ccce71461039d5780636352211e146103da57806370a0823114610417578063715018a614610454576101b7565b80632f745c59146102fa57806342842e0e1461033757806349257f4e14610360576101b7565b8063095ea7b311610195578063095ea7b31461026157806318160ddd1461028a5780631c555f47146102b557806323b872dd146102d1576101b7565b806301ffc9a7146101bc57806306fdde03146101f9578063081812fc14610224575b600080fd5b3480156101c857600080fd5b506101e360048036038101906101de9190612e0d565b6106f2565b6040516101f09190612e55565b60405180910390f35b34801561020557600080fd5b5061020e61076c565b60405161021b9190612f09565b60405180910390f35b34801561023057600080fd5b5061024b60048036038101906102469190612f61565b6107fe565b6040516102589190612fcf565b60405180910390f35b34801561026d57600080fd5b5061028860048036038101906102839190613016565b610883565b005b34801561029657600080fd5b5061029f61099b565b6040516102ac9190613065565b60405180910390f35b6102cf60048036038101906102ca9190612f61565b6109a8565b005b3480156102dd57600080fd5b506102f860048036038101906102f39190613080565b6109c1565b005b34801561030657600080fd5b50610321600480360381019061031c9190613016565b610a21565b60405161032e9190613065565b60405180910390f35b34801561034357600080fd5b5061035e60048036038101906103599190613080565b610ac6565b005b34801561036c57600080fd5b5061038760048036038101906103829190612f61565b610ae6565b6040516103949190613191565b60405180910390f35b3480156103a957600080fd5b506103c460048036038101906103bf9190612f61565b610c3b565b6040516103d19190613065565b60405180910390f35b3480156103e657600080fd5b5061040160048036038101906103fc9190612f61565b610cac565b60405161040e9190612fcf565b60405180910390f35b34801561042357600080fd5b5061043e600480360381019061043991906131b3565b610d5e565b60405161044b9190613065565b60405180910390f35b34801561046057600080fd5b50610469610e16565b005b61048560048036038101906104809190612f61565b610e9e565b005b34801561049357600080fd5b5061049c610ebb565b6040516104a99190612fcf565b60405180910390f35b3480156104be57600080fd5b506104c7610ee5565b6040516104d49190612f09565b60405180910390f35b3480156104e957600080fd5b5061050460048036038101906104ff919061320c565b610f77565b005b34801561051257600080fd5b5061052d60048036038101906105289190612f61565b610f8d565b60405161053a9190612fcf565b60405180910390f35b34801561054f57600080fd5b5061056a60048036038101906105659190612f61565b611056565b60405161057791906132e5565b60405180910390f35b34801561058c57600080fd5b506105a760048036038101906105a29190613300565b61111c565b005b3480156105b557600080fd5b506105d060048036038101906105cb9190613488565b611172565b005b3480156105de57600080fd5b506105f960048036038101906105f49190612f61565b6111d4565b6040516106069190612f09565b60405180910390f35b34801561061b57600080fd5b5061063660048036038101906106319190612f61565b61127b565b005b34801561064457600080fd5b5061065f600480360381019061065a9190613016565b611296565b005b34801561066d57600080fd5b50610676611320565b6040516106839190613065565b60405180910390f35b34801561069857600080fd5b506106b360048036038101906106ae919061350b565b611331565b6040516106c09190612e55565b60405180910390f35b3480156106d557600080fd5b506106f060048036038101906106eb91906131b3565b6113c5565b005b60007f780e9d63000000000000000000000000000000000000000000000000000000007bffffffffffffffffffffffffffffffffffffffffffffffffffffffff1916827bffffffffffffffffffffffffffffffffffffffffffffffffffffffff191614806107655750610764826114bd565b5b9050919050565b60606000805461077b9061357a565b80601f01602080910402602001604051908101604052809291908181526020018280546107a79061357a565b80156107f45780601f106107c9576101008083540402835291602001916107f4565b820191906000526020600020905b8154815290600101906020018083116107d757829003601f168201915b5050505050905090565b60006108098261159f565b610848576040517f08c379a000000000000000000000000000000000000000000000000000000000815260040161083f9061361e565b60405180910390fd5b6004600083815260200190815260200160002060009054906101000a900473ffffffffffffffffffffffffffffffffffffffff169050919050565b600061088e82610cac565b90508073ffffffffffffffffffffffffffffffffffffffff168373ffffffffffffffffffffffffffffffffffffffff1614156108ff576040517f08c379a00000000000000000000000000000000000000000000000000000000081526004016108f6906136b0565b60405180910390fd5b8073ffffffffffffffffffffffffffffffffffffffff1661091e61160b565b73ffffffffffffffffffffffffffffffffffffffff16148061094d575061094c8161094761160b565b611331565b5b61098c576040517f08c379a000000000000000000000000000000000000000000000000000000000815260040161098390613742565b60405180910390fd5b6109968383611613565b505050565b6000600880549050905090565b6109b38133346116cc565b6109bd8133611887565b5050565b6109d26109cc61160b565b826118c0565b610a11576040517f08c379a0000000000000000000000000000000000000000000000000000000008152600401610a08906137d4565b60405180910390fd5b610a1c83838361199e565b505050565b6000610a2c83610d5e565b8210610a6d576040517f08c379a0000000000000000000000000000000000000000000000000000000008152600401610a6490613866565b60405180910390fd5b600660008473ffffffffffffffffffffffffffffffffffffffff1673ffffffffffffffffffffffffffffffffffffffff168152602001908152602001600020600083815260200190815260200160002054905092915050565b610ae183838360405180602001604052806000815250611172565b505050565b606081610af3600c611bfa565b811115610aff57600080fd5b6000600d60008581526020019081526020016000206040518060800160405290816000820160009054906101000a900473ffffffffffffffffffffffffffffffffffffffff1673ffffffffffffffffffffffffffffffffffffffff1673ffffffffffffffffffffffffffffffffffffffff1681526020016001820154815260200160028201604051806020016040529081600082015481525050815260200160038201805480602002602001604051908101604052809291908181526020018280548015610c2257602002820191906000526020600020905b8160009054906101000a900473ffffffffffffffffffffffffffffffffffffffff1673ffffffffffffffffffffffffffffffffffffffff1681526020019060010190808311610bd8575b5050505050815250509050806060015192505050919050565b6000610c4561099b565b8210610c86576040517f08c379a0000000000000000000000000000000000000000000000000000000008152600401610c7d906138f8565b60405180910390fd5b60088281548110610c9a57610c99613918565b5b90600052602060002001549050919050565b6000806002600084815260200190815260200160002060009054906101000a900473ffffffffffffffffffffffffffffffffffffffff169050600073ffffffffffffffffffffffffffffffffffffffff168173ffffffffffffffffffffffffffffffffffffffff161415610d55576040517f08c379a0000000000000000000000000000000000000000000000000000000008152600401610d4c906139b9565b60405180910390fd5b80915050919050565b60008073ffffffffffffffffffffffffffffffffffffffff168273ffffffffffffffffffffffffffffffffffffffff161415610dcf576040517f08c379a0000000000000000000000000000000000000000000000000000000008152600401610dc690613a4b565b60405180910390fd5b600360008373ffffffffffffffffffffffffffffffffffffffff1673ffffffffffffffffffffffffffffffffffffffff168152602001908152602001600020549050919050565b610e1e61160b565b73ffffffffffffffffffffffffffffffffffffffff16610e3c610ebb565b73ffffffffffffffffffffffffffffffffffffffff1614610e92576040517f08c379a0000000000000000000000000000000000000000000000000000000008152600401610e8990613ab7565b60405180910390fd5b610e9c6000611c08565b565b6000610ea982610cac565b9050610eb782823334611cce565b5050565b6000600e60009054906101000a900473ffffffffffffffffffffffffffffffffffffffff16905090565b606060018054610ef49061357a565b80601f0160208091040260200160405190810160405280929190818152602001828054610f209061357a565b8015610f6d5780601f10610f4257610100808354040283529160200191610f6d565b820191906000526020600020905b815481529060010190602001808311610f5057829003601f168201915b5050505050905090565b610f89610f8261160b565b8383611de7565b5050565b600080600a60008481526020019081526020016000206040518060c00160405290816000820160009054906101000a900473ffffffffffffffffffffffffffffffffffffffff1673ffffffffffffffffffffffffffffffffffffffff1673ffffffffffffffffffffffffffffffffffffffff168152602001600182015481526020016002820160009054906101000a900460ff16151515158152602001600382015481526020016004820154815260200160058201548152505090508060000151915050919050565b61105e612d53565b600a60008381526020019081526020016000206040518060c00160405290816000820160009054906101000a900473ffffffffffffffffffffffffffffffffffffffff1673ffffffffffffffffffffffffffffffffffffffff1673ffffffffffffffffffffffffffffffffffffffff168152602001600182015481526020016002820160009054906101000a900460ff1615151515815260200160038201548152602001600482015481526020016005820154815250509050919050565b600061112784610cac565b90503373ffffffffffffffffffffffffffffffffffffffff168173ffffffffffffffffffffffffffffffffffffffff161461116157600080fd5b61116c848484611f54565b50505050565b61118361117d61160b565b836118c0565b6111c2576040517f08c379a00000000000000000000000000000000000000000000000000000000081526004016111b9906137d4565b60405180910390fd5b6111ce84848484611f83565b50505050565b60606111df8261159f565b61121e576040517f08c379a000000000000000000000000000000000000000000000000000000000815260040161121590613b49565b60405180910390fd5b6000611228611fdf565b905060008151116112485760405180602001604052806000815250611273565b8061125284611ff6565b604051602001611263929190613ba5565b6040516020818303038152906040525b915050919050565b600061128682610cac565b90506112928282612157565b5050565b61129e61160b565b73ffffffffffffffffffffffffffffffffffffffff166112bc610ebb565b73ffffffffffffffffffffffffffffffffffffffff1614611312576040517f08c379a000000000000000000000000000000000000000000000000000000000815260040161130990613ab7565b60405180910390fd5b61131c828261226f565b5050565b600061132c600c611bfa565b905090565b6000600560008473ffffffffffffffffffffffffffffffffffffffff1673ffffffffffffffffffffffffffffffffffffffff16815260200190815260200160002060008373ffffffffffffffffffffffffffffffffffffffff1673ffffffffffffffffffffffffffffffffffffffff16815260200190815260200160002060009054906101000a900460ff16905092915050565b6113cd61160b565b73ffffffffffffffffffffffffffffffffffffffff166113eb610ebb565b73ffffffffffffffffffffffffffffffffffffffff1614611441576040517f08c379a000000000000000000000000000000000000000000000000000000000815260040161143890613ab7565b60405180910390fd5b600073ffffffffffffffffffffffffffffffffffffffff168173ffffffffffffffffffffffffffffffffffffffff1614156114b1576040517f08c379a00000000000000000000000000000000000000000000000000000000081526004016114a890613c3b565b60405180910390fd5b6114ba81611c08565b50565b60007f80ac58cd000000000000000000000000000000000000000000000000000000007bffffffffffffffffffffffffffffffffffffffffffffffffffffffff1916827bffffffffffffffffffffffffffffffffffffffffffffffffffffffff1916148061158857507f5b5e139f000000000000000000000000000000000000000000000000000000007bffffffffffffffffffffffffffffffffffffffffffffffffffffffff1916827bffffffffffffffffffffffffffffffffffffffffffffffffffffffff1916145b806115985750611597826122ea565b5b9050919050565b60008073ffffffffffffffffffffffffffffffffffffffff166002600084815260200190815260200160002060009054906101000a900473ffffffffffffffffffffffffffffffffffffffff1673ffffffffffffffffffffffffffffffffffffffff1614159050919050565b600033905090565b816004600083815260200190815260200160002060006101000a81548173ffffffffffffffffffffffffffffffffffffffff021916908373ffffffffffffffffffffffffffffffffffffffff160217905550808273ffffffffffffffffffffffffffffffffffffffff1661168683610cac565b73ffffffffffffffffffffffffffffffffffffffff167f8c5be1e5ebec7d5bd14f71427d1e84f3dd0314c0f7b2291e5b200ac8c7c3b92560405160405180910390a45050565b826116d7600c611bfa565b8111156116e357600080fd5b6000600d6000868152602001908152602001600020905061181b816040518060800160405290816000820160009054906101000a900473ffffffffffffffffffffffffffffffffffffffff1673ffffffffffffffffffffffffffffffffffffffff1673ffffffffffffffffffffffffffffffffffffffff168152602001600182015481526020016002820160405180602001604052908160008201548152505081526020016003820180548060200260200160405190810160405280929190818152602001828054801561180c57602002820191906000526020600020905b8160009054906101000a900473ffffffffffffffffffffffffffffffffffffffff1673ffffffffffffffffffffffffffffffffffffffff16815260200190600101908083116117c2575b50505050508152505084612354565b80600301849080600181540180825580915050600190039060005260206000200160009091909190916101000a81548173ffffffffffffffffffffffffffffffffffffffff021916908373ffffffffffffffffffffffffffffffffffffffff1602179055505050505050565b6000611893600b612368565b600061189f600b611bfa565b90506118ab838261237e565b6118b681848661239c565b8091505092915050565b60006118cb8261159f565b61190a576040517f08c379a000000000000000000000000000000000000000000000000000000000815260040161190190613ccd565b60405180910390fd5b600061191583610cac565b90508073ffffffffffffffffffffffffffffffffffffffff168473ffffffffffffffffffffffffffffffffffffffff16148061198457508373ffffffffffffffffffffffffffffffffffffffff1661196c846107fe565b73ffffffffffffffffffffffffffffffffffffffff16145b8061199557506119948185611331565b5b91505092915050565b8273ffffffffffffffffffffffffffffffffffffffff166119be82610cac565b73ffffffffffffffffffffffffffffffffffffffff1614611a14576040517f08c379a0000000000000000000000000000000000000000000000000000000008152600401611a0b90613d5f565b60405180910390fd5b600073ffffffffffffffffffffffffffffffffffffffff168273ffffffffffffffffffffffffffffffffffffffff161415611a84576040517f08c379a0000000000000000000000000000000000000000000000000000000008152600401611a7b90613df1565b60405180910390fd5b611a8f838383612440565b611a9a600082611613565b6001600360008573ffffffffffffffffffffffffffffffffffffffff1673ffffffffffffffffffffffffffffffffffffffff1681526020019081526020016000206000828254611aea9190613e40565b925050819055506001600360008473ffffffffffffffffffffffffffffffffffffffff1673ffffffffffffffffffffffffffffffffffffffff1681526020019081526020016000206000828254611b419190613e74565b92505081905550816002600083815260200190815260200160002060006101000a81548173ffffffffffffffffffffffffffffffffffffffff021916908373ffffffffffffffffffffffffffffffffffffffff160217905550808273ffffffffffffffffffffffffffffffffffffffff168473ffffffffffffffffffffffffffffffffffffffff167fddf252ad1be2c89b69c2b068fc378daa952ba7f163c4a11628f55a4df523b3ef60405160405180910390a4505050565b600081600001549050919050565b6000600e60009054906101000a900473ffffffffffffffffffffffffffffffffffffffff16905081600e60006101000a81548173ffffffffffffffffffffffffffffffffffffffff021916908373ffffffffffffffffffffffffffffffffffffffff1602179055508173ffffffffffffffffffffffffffffffffffffffff168173ffffffffffffffffffffffffffffffffffffffff167f8be0079c531659141344cd1fd0a4f28419497f9722a3daafe3b4186f6b6457e060405160405180910390a35050565b6000600a60008681526020019081526020016000209050611d94816040518060c00160405290816000820160009054906101000a900473ffffffffffffffffffffffffffffffffffffffff1673ffffffffffffffffffffffffffffffffffffffff1673ffffffffffffffffffffffffffffffffffffffff168152602001600182015481526020016002820160009054906101000a900460ff1615151515815260200160038201548152602001600482015481526020016005820154815250508584612554565b828160000160006101000a81548173ffffffffffffffffffffffffffffffffffffffff021916908373ffffffffffffffffffffffffffffffffffffffff1602179055504281600501819055505050505050565b8173ffffffffffffffffffffffffffffffffffffffff168373ffffffffffffffffffffffffffffffffffffffff161415611e56576040517f08c379a0000000000000000000000000000000000000000000000000000000008152600401611e4d90613f16565b60405180910390fd5b80600560008573ffffffffffffffffffffffffffffffffffffffff1673ffffffffffffffffffffffffffffffffffffffff16815260200190815260200160002060008473ffffffffffffffffffffffffffffffffffffffff1673ffffffffffffffffffffffffffffffffffffffff16815260200190815260200160002060006101000a81548160ff0219169083151502179055508173ffffffffffffffffffffffffffffffffffffffff168373ffffffffffffffffffffffffffffffffffffffff167f17307eab39ab6107e8899845ad3d59bd9653f200f220920489ca2b5937696c3183604051611f479190612e55565b60405180910390a3505050565b6000600a6000858152602001908152602001600020905082816003018190555081816004018190555050505050565b611f8e84848461199e565b611f9a848484846125a5565b611fd9576040517f08c379a0000000000000000000000000000000000000000000000000000000008152600401611fd090613fa8565b60405180910390fd5b50505050565b606060405180602001604052806000815250905090565b6060600082141561203e576040518060400160405280600181526020017f30000000000000000000000000000000000000000000000000000000000000008152509050612152565b600082905060005b6000821461207057808061205990613fc8565b915050600a826120699190614040565b9150612046565b60008167ffffffffffffffff81111561208c5761208b61335d565b5b6040519080825280601f01601f1916602001820160405280156120be5781602001600182028036833780820191505090505b5090505b6000851461214b576001826120d79190613e40565b9150600a856120e69190614071565b60306120f29190613e74565b60f81b81838151811061210857612107613918565b5b60200101907effffffffffffffffffffffffffffffffffffffffffffffffffffffffffffff1916908160001a905350600a856121449190614040565b94506120c2565b8093505050505b919050565b6000600a6000848152602001908152602001600020905061221d816040518060c00160405290816000820160009054906101000a900473ffffffffffffffffffffffffffffffffffffffff1673ffffffffffffffffffffffffffffffffffffffff1673ffffffffffffffffffffffffffffffffffffffff168152602001600182015481526020016002820160009054906101000a900460ff161515151581526020016003820154815260200160048201548152602001600582015481525050833361272d565b818160000160006101000a81548173ffffffffffffffffffffffffffffffffffffffff021916908373ffffffffffffffffffffffffffffffffffffffff16021790555060008160050181905550505050565b612279600c612368565b6000600d6000612289600c611bfa565b81526020019081526020016000209050828160000160006101000a81548173ffffffffffffffffffffffffffffffffffffffff021916908373ffffffffffffffffffffffffffffffffffffffff160217905550818160010181905550505050565b60007f01ffc9a7000000000000000000000000000000000000000000000000000000007bffffffffffffffffffffffffffffffffffffffffffffffffffffffff1916827bffffffffffffffffffffffffffffffffffffffffffffffffffffffff1916149050919050565b8082602001511461236457600080fd5b5050565b6001816000016000828254019250508190555050565b61239882826040518060200160405280600081525061280c565b5050565b6000600a60008581526020019081526020016000209050828160000160006101000a81548173ffffffffffffffffffffffffffffffffffffffff021916908373ffffffffffffffffffffffffffffffffffffffff16021790555081816001018190555060008160020160006101000a81548160ff02191690831515021790555060018160030181905550600081600401819055506000816005018190555050505050565b61244b838383612867565b600073ffffffffffffffffffffffffffffffffffffffff168373ffffffffffffffffffffffffffffffffffffffff16141561248e576124898161286c565b6124cd565b8173ffffffffffffffffffffffffffffffffffffffff168373ffffffffffffffffffffffffffffffffffffffff16146124cc576124cb83826128b5565b5b5b600073ffffffffffffffffffffffffffffffffffffffff168273ffffffffffffffffffffffffffffffffffffffff1614156125105761250b81612a22565b61254f565b8273ffffffffffffffffffffffffffffffffffffffff168273ffffffffffffffffffffffffffffffffffffffff161461254e5761254d8282612af3565b5b5b505050565b8173ffffffffffffffffffffffffffffffffffffffff16836000015173ffffffffffffffffffffffffffffffffffffffff161461259057600080fd5b808360800151146125a057600080fd5b505050565b60006125c68473ffffffffffffffffffffffffffffffffffffffff16612b72565b15612720578373ffffffffffffffffffffffffffffffffffffffff1663150b7a026125ef61160b565b8786866040518563ffffffff1660e01b815260040161261194939291906140f7565b6020604051808303816000875af192505050801561264d57506040513d601f19601f8201168201806040525081019061264a9190614158565b60015b6126d0573d806000811461267d576040519150601f19603f3d011682016040523d82523d6000602084013e612682565b606091505b506000815114156126c8576040517f08c379a00000000000000000000000000000000000000000000000000000000081526004016126bf90613fa8565b60405180910390fd5b805181602001fd5b63150b7a0260e01b7bffffffffffffffffffffffffffffffffffffffffffffffffffffffff1916817bffffffffffffffffffffffffffffffffffffffffffffffffffffffff191614915050612725565b600190505b949350505050565b6001836060015161273e9190614185565b8360a0015161274d9190613e74565b42106127ca578073ffffffffffffffffffffffffffffffffffffffff16836000015173ffffffffffffffffffffffffffffffffffffffff1614806127bc57508073ffffffffffffffffffffffffffffffffffffffff168273ffffffffffffffffffffffffffffffffffffffff16145b6127c557600080fd5b612807565b8073ffffffffffffffffffffffffffffffffffffffff16836000015173ffffffffffffffffffffffffffffffffffffffff161461280657600080fd5b5b505050565b6128168383612b85565b61282360008484846125a5565b612862576040517f08c379a000000000000000000000000000000000000000000000000000000000815260040161285990613fa8565b60405180910390fd5b505050565b505050565b6008805490506009600083815260200190815260200160002081905550600881908060018154018082558091505060019003906000526020600020016000909190919091505550565b600060016128c284610d5e565b6128cc9190613e40565b90506000600760008481526020019081526020016000205490508181146129b1576000600660008673ffffffffffffffffffffffffffffffffffffffff1673ffffffffffffffffffffffffffffffffffffffff168152602001908152602001600020600084815260200190815260200160002054905080600660008773ffffffffffffffffffffffffffffffffffffffff1673ffffffffffffffffffffffffffffffffffffffff168152602001908152602001600020600084815260200190815260200160002081905550816007600083815260200190815260200160002081905550505b6007600084815260200190815260200160002060009055600660008573ffffffffffffffffffffffffffffffffffffffff1673ffffffffffffffffffffffffffffffffffffffff16815260200190815260200160002060008381526020019081526020016000206000905550505050565b60006001600880549050612a369190613e40565b9050600060096000848152602001908152602001600020549050600060088381548110612a6657612a65613918565b5b906000526020600020015490508060088381548110612a8857612a87613918565b5b906000526020600020018190555081600960008381526020019081526020016000208190555060096000858152602001908152602001600020600090556008805480612ad757612ad66141df565b5b6001900381819060005260206000200160009055905550505050565b6000612afe83610d5e565b905081600660008573ffffffffffffffffffffffffffffffffffffffff1673ffffffffffffffffffffffffffffffffffffffff168152602001908152602001600020600083815260200190815260200160002081905550806007600084815260200190815260200160002081905550505050565b600080823b905060008111915050919050565b600073ffffffffffffffffffffffffffffffffffffffff168273ffffffffffffffffffffffffffffffffffffffff161415612bf5576040517f08c379a0000000000000000000000000000000000000000000000000000000008152600401612bec9061425a565b60405180910390fd5b612bfe8161159f565b15612c3e576040517f08c379a0000000000000000000000000000000000000000000000000000000008152600401612c35906142c6565b60405180910390fd5b612c4a60008383612440565b6001600360008473ffffffffffffffffffffffffffffffffffffffff1673ffffffffffffffffffffffffffffffffffffffff1681526020019081526020016000206000828254612c9a9190613e74565b92505081905550816002600083815260200190815260200160002060006101000a81548173ffffffffffffffffffffffffffffffffffffffff021916908373ffffffffffffffffffffffffffffffffffffffff160217905550808273ffffffffffffffffffffffffffffffffffffffff16600073ffffffffffffffffffffffffffffffffffffffff167fddf252ad1be2c89b69c2b068fc378daa952ba7f163c4a11628f55a4df523b3ef60405160405180910390a45050565b6040518060c00160405280600073ffffffffffffffffffffffffffffffffffffffff168152602001600081526020016000151581526020016000815260200160008152602001600081525090565b6000604051905090565b600080fd5b600080fd5b60007fffffffff0000000000000000000000000000000000000000000000000000000082169050919050565b612dea81612db5565b8114612df557600080fd5b50565b600081359050612e0781612de1565b92915050565b600060208284031215612e2357612e22612dab565b5b6000612e3184828501612df8565b91505092915050565b60008115159050919050565b612e4f81612e3a565b82525050565b6000602082019050612e6a6000830184612e46565b92915050565b600081519050919050565b600082825260208201905092915050565b60005b83811015612eaa578082015181840152602081019050612e8f565b83811115612eb9576000848401525b50505050565b6000601f19601f8301169050919050565b6000612edb82612e70565b612ee58185612e7b565b9350612ef5818560208601612e8c565b612efe81612ebf565b840191505092915050565b60006020820190508181036000830152612f238184612ed0565b905092915050565b6000819050919050565b612f3e81612f2b565b8114612f4957600080fd5b50565b600081359050612f5b81612f35565b92915050565b600060208284031215612f7757612f76612dab565b5b6000612f8584828501612f4c565b91505092915050565b600073ffffffffffffffffffffffffffffffffffffffff82169050919050565b6000612fb982612f8e565b9050919050565b612fc981612fae565b82525050565b6000602082019050612fe46000830184612fc0565b92915050565b612ff381612fae565b8114612ffe57600080fd5b50565b60008135905061301081612fea565b92915050565b6000806040838503121561302d5761302c612dab565b5b600061303b85828601613001565b925050602061304c85828601612f4c565b9150509250929050565b61305f81612f2b565b82525050565b600060208201905061307a6000830184613056565b92915050565b60008060006060848603121561309957613098612dab565b5b60006130a786828701613001565b93505060206130b886828701613001565b92505060406130c986828701612f4c565b9150509250925092565b600081519050919050565b600082825260208201905092915050565b6000819050602082019050919050565b61310881612fae565b82525050565b600061311a83836130ff565b60208301905092915050565b6000602082019050919050565b600061313e826130d3565b61314881856130de565b9350613153836130ef565b8060005b8381101561318457815161316b888261310e565b975061317683613126565b925050600181019050613157565b5085935050505092915050565b600060208201905081810360008301526131ab8184613133565b905092915050565b6000602082840312156131c9576131c8612dab565b5b60006131d784828501613001565b91505092915050565b6131e981612e3a565b81146131f457600080fd5b50565b600081359050613206816131e0565b92915050565b6000806040838503121561322357613222612dab565b5b600061323185828601613001565b9250506020613242858286016131f7565b9150509250929050565b61325581612f2b565b82525050565b61326481612e3a565b82525050565b60c08201600082015161328060008501826130ff565b506020820151613293602085018261324c565b5060408201516132a6604085018261325b565b5060608201516132b9606085018261324c565b5060808201516132cc608085018261324c565b5060a08201516132df60a085018261324c565b50505050565b600060c0820190506132fa600083018461326a565b92915050565b60008060006060848603121561331957613318612dab565b5b600061332786828701612f4c565b935050602061333886828701612f4c565b925050604061334986828701612f4c565b9150509250925092565b600080fd5b600080fd5b7f4e487b7100000000000000000000000000000000000000000000000000000000600052604160045260246000fd5b61339582612ebf565b810181811067ffffffffffffffff821117156133b4576133b361335d565b5b80604052505050565b60006133c7612da1565b90506133d3828261338c565b919050565b600067ffffffffffffffff8211156133f3576133f261335d565b5b6133fc82612ebf565b9050602081019050919050565b82818337600083830152505050565b600061342b613426846133d8565b6133bd565b90508281526020810184848401111561344757613446613358565b5b613452848285613409565b509392505050565b600082601f83011261346f5761346e613353565b5b813561347f848260208601613418565b91505092915050565b600080600080608085870312156134a2576134a1612dab565b5b60006134b087828801613001565b94505060206134c187828801613001565b93505060406134d287828801612f4c565b925050606085013567ffffffffffffffff8111156134f3576134f2612db0565b5b6134ff8782880161345a565b91505092959194509250565b6000806040838503121561352257613521612dab565b5b600061353085828601613001565b925050602061354185828601613001565b9150509250929050565b7f4e487b7100000000000000000000000000000000000000000000000000000000600052602260045260246000fd5b6000600282049050600182168061359257607f821691505b602082108114156135a6576135a561354b565b5b50919050565b7f4552433732313a20617070726f76656420717565727920666f72206e6f6e657860008201527f697374656e7420746f6b656e0000000000000000000000000000000000000000602082015250565b6000613608602c83612e7b565b9150613613826135ac565b604082019050919050565b60006020820190508181036000830152613637816135fb565b9050919050565b7f4552433732313a20617070726f76616c20746f2063757272656e74206f776e6560008201527f7200000000000000000000000000000000000000000000000000000000000000602082015250565b600061369a602183612e7b565b91506136a58261363e565b604082019050919050565b600060208201905081810360008301526136c98161368d565b9050919050565b7f4552433732313a20617070726f76652063616c6c6572206973206e6f74206f7760008201527f6e6572206e6f7220617070726f76656420666f7220616c6c0000000000000000602082015250565b600061372c603883612e7b565b9150613737826136d0565b604082019050919050565b6000602082019050818103600083015261375b8161371f565b9050919050565b7f4552433732313a207472616e736665722063616c6c6572206973206e6f74206f60008201527f776e6572206e6f7220617070726f766564000000000000000000000000000000602082015250565b60006137be603183612e7b565b91506137c982613762565b604082019050919050565b600060208201905081810360008301526137ed816137b1565b9050919050565b7f455243373231456e756d657261626c653a206f776e657220696e646578206f7560008201527f74206f6620626f756e6473000000000000000000000000000000000000000000602082015250565b6000613850602b83612e7b565b915061385b826137f4565b604082019050919050565b6000602082019050818103600083015261387f81613843565b9050919050565b7f455243373231456e756d657261626c653a20676c6f62616c20696e646578206f60008201527f7574206f6620626f756e64730000000000000000000000000000000000000000602082015250565b60006138e2602c83612e7b565b91506138ed82613886565b604082019050919050565b60006020820190508181036000830152613911816138d5565b9050919050565b7f4e487b7100000000000000000000000000000000000000000000000000000000600052603260045260246000fd5b7f4552433732313a206f776e657220717565727920666f72206e6f6e657869737460008201527f656e7420746f6b656e0000000000000000000000000000000000000000000000602082015250565b60006139a3602983612e7b565b91506139ae82613947565b604082019050919050565b600060208201905081810360008301526139d281613996565b9050919050565b7f4552433732313a2062616c616e636520717565727920666f7220746865207a6560008201527f726f206164647265737300000000000000000000000000000000000000000000602082015250565b6000613a35602a83612e7b565b9150613a40826139d9565b604082019050919050565b60006020820190508181036000830152613a6481613a28565b9050919050565b7f4f776e61626c653a2063616c6c6572206973206e6f7420746865206f776e6572600082015250565b6000613aa1602083612e7b565b9150613aac82613a6b565b602082019050919050565b60006020820190508181036000830152613ad081613a94565b9050919050565b7f4552433732314d657461646174613a2055524920717565727920666f72206e6f60008201527f6e6578697374656e7420746f6b656e0000000000000000000000000000000000602082015250565b6000613b33602f83612e7b565b9150613b3e82613ad7565b604082019050919050565b60006020820190508181036000830152613b6281613b26565b9050919050565b600081905092915050565b6000613b7f82612e70565b613b898185613b69565b9350613b99818560208601612e8c565b80840191505092915050565b6000613bb18285613b74565b9150613bbd8284613b74565b91508190509392505050565b7f4f776e61626c653a206e6577206f776e657220697320746865207a65726f206160008201527f6464726573730000000000000000000000000000000000000000000000000000602082015250565b6000613c25602683612e7b565b9150613c3082613bc9565b604082019050919050565b60006020820190508181036000830152613c5481613c18565b9050919050565b7f4552433732313a206f70657261746f7220717565727920666f72206e6f6e657860008201527f697374656e7420746f6b656e0000000000000000000000000000000000000000602082015250565b6000613cb7602c83612e7b565b9150613cc282613c5b565b604082019050919050565b60006020820190508181036000830152613ce681613caa565b9050919050565b7f4552433732313a207472616e73666572206f6620746f6b656e2074686174206960008201527f73206e6f74206f776e0000000000000000000000000000000000000000000000602082015250565b6000613d49602983612e7b565b9150613d5482613ced565b604082019050919050565b60006020820190508181036000830152613d7881613d3c565b9050919050565b7f4552433732313a207472616e7366657220746f20746865207a65726f2061646460008201527f7265737300000000000000000000000000000000000000000000000000000000602082015250565b6000613ddb602483612e7b565b9150613de682613d7f565b604082019050919050565b60006020820190508181036000830152613e0a81613dce565b9050919050565b7f4e487b7100000000000000000000000000000000000000000000000000000000600052601160045260246000fd5b6000613e4b82612f2b565b9150613e5683612f2b565b925082821015613e6957613e68613e11565b5b828203905092915050565b6000613e7f82612f2b565b9150613e8a83612f2b565b9250827fffffffffffffffffffffffffffffffffffffffffffffffffffffffffffffffff03821115613ebf57613ebe613e11565b5b828201905092915050565b7f4552433732313a20617070726f766520746f2063616c6c657200000000000000600082015250565b6000613f00601983612e7b565b9150613f0b82613eca565b602082019050919050565b60006020820190508181036000830152613f2f81613ef3565b9050919050565b7f4552433732313a207472616e7366657220746f206e6f6e20455243373231526560008201527f63656976657220696d706c656d656e7465720000000000000000000000000000602082015250565b6000613f92603283612e7b565b9150613f9d82613f36565b604082019050919050565b60006020820190508181036000830152613fc181613f85565b9050919050565b6000613fd382612f2b565b91507fffffffffffffffffffffffffffffffffffffffffffffffffffffffffffffffff82141561400657614005613e11565b5b600182019050919050565b7f4e487b7100000000000000000000000000000000000000000000000000000000600052601260045260246000fd5b600061404b82612f2b565b915061405683612f2b565b92508261406657614065614011565b5b828204905092915050565b600061407c82612f2b565b915061408783612f2b565b92508261409757614096614011565b5b828206905092915050565b600081519050919050565b600082825260208201905092915050565b60006140c9826140a2565b6140d381856140ad565b93506140e3818560208601612e8c565b6140ec81612ebf565b840191505092915050565b600060808201905061410c6000830187612fc0565b6141196020830186612fc0565b6141266040830185613056565b818103606083015261413881846140be565b905095945050505050565b60008151905061415281612de1565b92915050565b60006020828403121561416e5761416d612dab565b5b600061417c84828501614143565b91505092915050565b600061419082612f2b565b915061419b83612f2b565b9250817fffffffffffffffffffffffffffffffffffffffffffffffffffffffffffffffff04831182151516156141d4576141d3613e11565b5b828202905092915050565b7f4e487b7100000000000000000000000000000000000000000000000000000000600052603160045260246000fd5b7f4552433732313a206d696e7420746f20746865207a65726f2061646472657373600082015250565b6000614244602083612e7b565b915061424f8261420e565b602082019050919050565b6000602082019050818103600083015261427381614237565b9050919050565b7f4552433732313a20746f6b656e20616c7265616479206d696e74656400000000600082015250565b60006142b0601c83612e7b565b91506142bb8261427a565b602082019050919050565b600060208201905081810360008301526142df816142a3565b905091905056fea2646970667358221220c3e0a9adcbaad6ce7cd867955bcf3e6ca773080c880e573510aaec444d93ea1664736f6c634300080b0033",
  "immutableReferences": {},
  "source": "// SPDX-License-Identifier: MIT\npragma solidity 0.8.11;\n\nimport \"@openzeppelin/contracts/access/Ownable.sol\";\n\nimport './devs/TokenManager.sol';\nimport './devs/BookManager.sol';\n\n// all payable functions are to implement here\ncontract Library is TokenManager, BookManager, Ownable{\n\n    // add book\n    function addBook(address _author, uint _price) external onlyOwner {\n        _addBook(_author, _price);\n    }\n\n    // purchase Book\n    function purchaseBook(uint _bookId) external payable {\n        _purchaseBook(_bookId, msg.sender , msg.value);\n        _purchaseToken(_bookId, msg.sender);\n    }\n\n    // borrow Book\n    function borrowBook(uint _tokenId ) external payable{\n        address owner = ownerOf(_tokenId);\n        _borrowToken(_tokenId, owner, msg.sender, msg.value);\n    }\n\n    // return Book\n    function returnBook(uint _tokenId) external {\n        address owner = ownerOf(_tokenId);\n        _returnToken(_tokenId, owner);\n    }\n\n    // configure token\n    function configBorrow(uint _tokenId, uint _period, uint _cost) external {\n        address owner = ownerOf(_tokenId);\n        require(owner == msg.sender);\n        _configBorrow(_tokenId, _period, _cost);\n    }\n\n}",
  "sourcePath": "/Users/jin/workplace/ethereum/library/contracts/Library.sol",
  "compiler": {
    "name": "solc",
    "version": "0.8.11+commit.d7f03943.Emscripten.clang"
  },
  "schemaVersion": "3.4.4",
  "updatedAt": "2021-12-25T04:34:22.447Z",
  "devdoc": {
    "kind": "dev",
    "methods": {
      "approve(address,uint256)": {
        "details": "See {IERC721-approve}."
      },
      "balanceOf(address)": {
        "details": "See {IERC721-balanceOf}."
      },
      "getApproved(uint256)": {
        "details": "See {IERC721-getApproved}."
      },
      "isApprovedForAll(address,address)": {
        "details": "See {IERC721-isApprovedForAll}."
      },
      "name()": {
        "details": "See {IERC721Metadata-name}."
      },
      "owner()": {
        "details": "Returns the address of the current owner."
      },
      "ownerOf(uint256)": {
        "details": "See {IERC721-ownerOf}."
      },
      "renounceOwnership()": {
        "details": "Leaves the contract without owner. It will not be possible to call `onlyOwner` functions anymore. Can only be called by the current owner. NOTE: Renouncing ownership will leave the contract without an owner, thereby removing any functionality that is only available to the owner."
      },
      "safeTransferFrom(address,address,uint256)": {
        "details": "See {IERC721-safeTransferFrom}."
      },
      "safeTransferFrom(address,address,uint256,bytes)": {
        "details": "See {IERC721-safeTransferFrom}."
      },
      "setApprovalForAll(address,bool)": {
        "details": "See {IERC721-setApprovalForAll}."
      },
      "supportsInterface(bytes4)": {
        "details": "See {IERC165-supportsInterface}."
      },
      "symbol()": {
        "details": "See {IERC721Metadata-symbol}."
      },
      "tokenByIndex(uint256)": {
        "details": "See {IERC721Enumerable-tokenByIndex}."
      },
      "tokenOfOwnerByIndex(address,uint256)": {
        "details": "See {IERC721Enumerable-tokenOfOwnerByIndex}."
      },
      "tokenURI(uint256)": {
        "details": "See {IERC721Metadata-tokenURI}."
      },
      "totalSupply()": {
        "details": "See {IERC721Enumerable-totalSupply}."
      },
      "transferFrom(address,address,uint256)": {
        "details": "See {IERC721-transferFrom}."
      },
      "transferOwnership(address)": {
        "details": "Transfers ownership of the contract to a new account (`newOwner`). Can only be called by the current owner."
      }
    },
    "version": 1
  },
  "userdoc": {
    "kind": "user",
    "methods": {},
    "version": 1
  }
}