{
  "contractName": "Library",
  "abi": [
    {
      "anonymous": false,
      "inputs": [
        {
          "indexed": true,
          "internalType": "address",
          "name": "owner",
          "type": "address"
        },
        {
          "indexed": true,
          "internalType": "address",
          "name": "approved",
          "type": "address"
        },
        {
          "indexed": true,
          "internalType": "uint256",
          "name": "tokenId",
          "type": "uint256"
        }
      ],
      "name": "Approval",
      "type": "event"
    },
    {
      "anonymous": false,
      "inputs": [
        {
          "indexed": true,
          "internalType": "address",
          "name": "owner",
          "type": "address"
        },
        {
          "indexed": true,
          "internalType": "address",
          "name": "operator",
          "type": "address"
        },
        {
          "indexed": false,
          "internalType": "bool",
          "name": "approved",
          "type": "bool"
        }
      ],
      "name": "ApprovalForAll",
      "type": "event"
    },
    {
      "anonymous": false,
      "inputs": [
        {
          "indexed": true,
          "internalType": "address",
          "name": "previousOwner",
          "type": "address"
        },
        {
          "indexed": true,
          "internalType": "address",
          "name": "newOwner",
          "type": "address"
        }
      ],
      "name": "OwnershipTransferred",
      "type": "event"
    },
    {
      "anonymous": false,
      "inputs": [
        {
          "indexed": true,
          "internalType": "address",
          "name": "from",
          "type": "address"
        },
        {
          "indexed": true,
          "internalType": "address",
          "name": "to",
          "type": "address"
        },
        {
          "indexed": true,
          "internalType": "uint256",
          "name": "tokenId",
          "type": "uint256"
        }
      ],
      "name": "Transfer",
      "type": "event"
    },
    {
      "inputs": [
        {
          "internalType": "address",
          "name": "to",
          "type": "address"
        },
        {
          "internalType": "uint256",
          "name": "tokenId",
          "type": "uint256"
        }
      ],
      "name": "approve",
      "outputs": [],
      "stateMutability": "nonpayable",
      "type": "function"
    },
    {
      "inputs": [
        {
          "internalType": "address",
          "name": "owner",
          "type": "address"
        }
      ],
      "name": "balanceOf",
      "outputs": [
        {
          "internalType": "uint256",
          "name": "",
          "type": "uint256"
        }
      ],
      "stateMutability": "view",
      "type": "function"
    },
    {
      "inputs": [
        {
          "internalType": "uint256",
          "name": "tokenId",
          "type": "uint256"
        }
      ],
      "name": "getApproved",
      "outputs": [
        {
          "internalType": "address",
          "name": "",
          "type": "address"
        }
      ],
      "stateMutability": "view",
      "type": "function"
    },
    {
      "inputs": [
        {
          "internalType": "uint256",
          "name": "_bookId",
          "type": "uint256"
        }
      ],
      "name": "getBookData",
      "outputs": [
        {
          "components": [
            {
              "internalType": "address",
              "name": "author",
              "type": "address"
            },
            {
              "internalType": "uint256",
              "name": "price",
              "type": "uint256"
            },
            {
              "components": [
                {
                  "internalType": "uint256",
                  "name": "_value",
                  "type": "uint256"
                }
              ],
              "internalType": "struct Counters.Counter",
              "name": "purchasedIds",
              "type": "tuple"
            },
            {
              "internalType": "address[]",
              "name": "purchaser",
              "type": "address[]"
            }
          ],
          "internalType": "struct BookManager.Book",
          "name": "",
          "type": "tuple"
        }
      ],
      "stateMutability": "view",
      "type": "function"
    },
    {
      "inputs": [
        {
          "internalType": "uint256",
          "name": "_bookId",
          "type": "uint256"
        }
      ],
      "name": "getPurchaser",
      "outputs": [
        {
          "internalType": "address[]",
          "name": "",
          "type": "address[]"
        }
      ],
      "stateMutability": "view",
      "type": "function"
    },
    {
      "inputs": [
        {
          "internalType": "uint256",
          "name": "_tokenId",
          "type": "uint256"
        }
      ],
      "name": "getTokenBorrower",
      "outputs": [
        {
          "internalType": "address",
          "name": "",
          "type": "address"
        }
      ],
      "stateMutability": "view",
      "type": "function"
    },
    {
      "inputs": [
        {
          "internalType": "uint256",
          "name": "_tokenId",
          "type": "uint256"
        }
      ],
      "name": "getTokenData",
      "outputs": [
        {
          "components": [
            {
              "internalType": "address",
              "name": "borrower",
              "type": "address"
            },
            {
              "internalType": "uint256",
              "name": "bookId",
              "type": "uint256"
            },
            {
              "internalType": "bool",
              "name": "allowToContract",
              "type": "bool"
            },
            {
              "internalType": "uint256",
              "name": "period",
              "type": "uint256"
            },
            {
              "internalType": "uint256",
              "name": "cost",
              "type": "uint256"
            },
            {
              "internalType": "uint256",
              "name": "start",
              "type": "uint256"
            }
          ],
          "internalType": "struct BorrowTokenManager.BorrowToken",
          "name": "",
          "type": "tuple"
        }
      ],
      "stateMutability": "view",
      "type": "function"
    },
    {
      "inputs": [],
      "name": "getTotalBook",
      "outputs": [
        {
          "internalType": "uint256",
          "name": "",
          "type": "uint256"
        }
      ],
      "stateMutability": "view",
      "type": "function"
    },
    {
      "inputs": [
        {
          "internalType": "address",
          "name": "owner",
          "type": "address"
        },
        {
          "internalType": "address",
          "name": "operator",
          "type": "address"
        }
      ],
      "name": "isApprovedForAll",
      "outputs": [
        {
          "internalType": "bool",
          "name": "",
          "type": "bool"
        }
      ],
      "stateMutability": "view",
      "type": "function"
    },
    {
      "inputs": [],
      "name": "name",
      "outputs": [
        {
          "internalType": "string",
          "name": "",
          "type": "string"
        }
      ],
      "stateMutability": "view",
      "type": "function"
    },
    {
      "inputs": [],
      "name": "owner",
      "outputs": [
        {
          "internalType": "address",
          "name": "",
          "type": "address"
        }
      ],
      "stateMutability": "view",
      "type": "function"
    },
    {
      "inputs": [
        {
          "internalType": "uint256",
          "name": "tokenId",
          "type": "uint256"
        }
      ],
      "name": "ownerOf",
      "outputs": [
        {
          "internalType": "address",
          "name": "",
          "type": "address"
        }
      ],
      "stateMutability": "view",
      "type": "function"
    },
    {
      "inputs": [],
      "name": "renounceOwnership",
      "outputs": [],
      "stateMutability": "nonpayable",
      "type": "function"
    },
    {
      "inputs": [
        {
          "internalType": "address",
          "name": "from",
          "type": "address"
        },
        {
          "internalType": "address",
          "name": "to",
          "type": "address"
        },
        {
          "internalType": "uint256",
          "name": "tokenId",
          "type": "uint256"
        }
      ],
      "name": "safeTransferFrom",
      "outputs": [],
      "stateMutability": "nonpayable",
      "type": "function"
    },
    {
      "inputs": [
        {
          "internalType": "address",
          "name": "from",
          "type": "address"
        },
        {
          "internalType": "address",
          "name": "to",
          "type": "address"
        },
        {
          "internalType": "uint256",
          "name": "tokenId",
          "type": "uint256"
        },
        {
          "internalType": "bytes",
          "name": "_data",
          "type": "bytes"
        }
      ],
      "name": "safeTransferFrom",
      "outputs": [],
      "stateMutability": "nonpayable",
      "type": "function"
    },
    {
      "inputs": [
        {
          "internalType": "address",
          "name": "operator",
          "type": "address"
        },
        {
          "internalType": "bool",
          "name": "approved",
          "type": "bool"
        }
      ],
      "name": "setApprovalForAll",
      "outputs": [],
      "stateMutability": "nonpayable",
      "type": "function"
    },
    {
      "inputs": [
        {
          "internalType": "bytes4",
          "name": "interfaceId",
          "type": "bytes4"
        }
      ],
      "name": "supportsInterface",
      "outputs": [
        {
          "internalType": "bool",
          "name": "",
          "type": "bool"
        }
      ],
      "stateMutability": "view",
      "type": "function"
    },
    {
      "inputs": [],
      "name": "symbol",
      "outputs": [
        {
          "internalType": "string",
          "name": "",
          "type": "string"
        }
      ],
      "stateMutability": "view",
      "type": "function"
    },
    {
      "inputs": [
        {
          "internalType": "uint256",
          "name": "index",
          "type": "uint256"
        }
      ],
      "name": "tokenByIndex",
      "outputs": [
        {
          "internalType": "uint256",
          "name": "",
          "type": "uint256"
        }
      ],
      "stateMutability": "view",
      "type": "function"
    },
    {
      "inputs": [
        {
          "internalType": "address",
          "name": "owner",
          "type": "address"
        },
        {
          "internalType": "uint256",
          "name": "index",
          "type": "uint256"
        }
      ],
      "name": "tokenOfOwnerByIndex",
      "outputs": [
        {
          "internalType": "uint256",
          "name": "",
          "type": "uint256"
        }
      ],
      "stateMutability": "view",
      "type": "function"
    },
    {
      "inputs": [
        {
          "internalType": "uint256",
          "name": "tokenId",
          "type": "uint256"
        }
      ],
      "name": "tokenURI",
      "outputs": [
        {
          "internalType": "string",
          "name": "",
          "type": "string"
        }
      ],
      "stateMutability": "view",
      "type": "function"
    },
    {
      "inputs": [],
      "name": "totalSupply",
      "outputs": [
        {
          "internalType": "uint256",
          "name": "",
          "type": "uint256"
        }
      ],
      "stateMutability": "view",
      "type": "function"
    },
    {
      "inputs": [
        {
          "internalType": "address",
          "name": "from",
          "type": "address"
        },
        {
          "internalType": "address",
          "name": "to",
          "type": "address"
        },
        {
          "internalType": "uint256",
          "name": "tokenId",
          "type": "uint256"
        }
      ],
      "name": "transferFrom",
      "outputs": [],
      "stateMutability": "nonpayable",
      "type": "function"
    },
    {
      "inputs": [
        {
          "internalType": "address",
          "name": "newOwner",
          "type": "address"
        }
      ],
      "name": "transferOwnership",
      "outputs": [],
      "stateMutability": "nonpayable",
      "type": "function"
    },
    {
      "inputs": [
        {
          "internalType": "address",
          "name": "_author",
          "type": "address"
        },
        {
          "internalType": "uint256",
          "name": "_price",
          "type": "uint256"
        }
      ],
      "name": "addBook",
      "outputs": [],
      "stateMutability": "nonpayable",
      "type": "function"
    },
    {
      "inputs": [
        {
          "internalType": "uint256",
          "name": "_bookId",
          "type": "uint256"
        },
        {
          "internalType": "address",
          "name": "_author",
          "type": "address"
        },
        {
          "internalType": "uint256",
          "name": "_price",
          "type": "uint256"
        }
      ],
      "name": "modifyBook",
      "outputs": [],
      "stateMutability": "nonpayable",
      "type": "function"
    },
    {
      "inputs": [
        {
          "internalType": "uint256",
          "name": "_bookId",
          "type": "uint256"
        }
      ],
      "name": "purchaseBook",
      "outputs": [],
      "stateMutability": "payable",
      "type": "function"
    },
    {
      "inputs": [
        {
          "internalType": "uint256",
          "name": "_tokenId",
          "type": "uint256"
        }
      ],
      "name": "borrowBook",
      "outputs": [],
      "stateMutability": "payable",
      "type": "function"
    },
    {
      "inputs": [
        {
          "internalType": "uint256",
          "name": "_tokenId",
          "type": "uint256"
        }
      ],
      "name": "returnBook",
      "outputs": [],
      "stateMutability": "nonpayable",
      "type": "function"
    },
    {
      "inputs": [
        {
          "internalType": "uint256",
          "name": "_tokenId",
          "type": "uint256"
        },
        {
          "internalType": "uint256",
          "name": "_period",
          "type": "uint256"
        },
        {
          "internalType": "uint256",
          "name": "_cost",
          "type": "uint256"
        }
      ],
      "name": "configBorrow",
      "outputs": [],
      "stateMutability": "nonpayable",
      "type": "function"
    },
    {
      "inputs": [
        {
          "internalType": "uint256",
          "name": "_tokenId",
          "type": "uint256"
        },
        {
          "internalType": "bool",
          "name": "_isAllow",
          "type": "bool"
        }
      ],
      "name": "changeBorrowAllowance",
      "outputs": [],
      "stateMutability": "nonpayable",
      "type": "function"
    }
  ],
  "bytecode": "0x60806040523480156200001157600080fd5b506040518060400160405280601081526020017f4c696272617279426f6f6b546f6b656e000000000000000000000000000000008152506040518060400160405280600381526020017f4c42540000000000000000000000000000000000000000000000000000000000815250816000908051906020019062000096929190620001a6565b508060019080519060200190620000af929190620001a6565b505050620000d2620000c6620000d860201b60201c565b620000e060201b60201c565b620002bb565b600033905090565b6000600e60009054906101000a900473ffffffffffffffffffffffffffffffffffffffff16905081600e60006101000a81548173ffffffffffffffffffffffffffffffffffffffff021916908373ffffffffffffffffffffffffffffffffffffffff1602179055508173ffffffffffffffffffffffffffffffffffffffff168173ffffffffffffffffffffffffffffffffffffffff167f8be0079c531659141344cd1fd0a4f28419497f9722a3daafe3b4186f6b6457e060405160405180910390a35050565b828054620001b49062000285565b90600052602060002090601f016020900481019282620001d8576000855562000224565b82601f10620001f357805160ff191683800117855562000224565b8280016001018555821562000224579182015b828111156200022357825182559160200191906001019062000206565b5b50905062000233919062000237565b5090565b5b808211156200025257600081600090555060010162000238565b5090565b7f4e487b7100000000000000000000000000000000000000000000000000000000600052602260045260246000fd5b600060028204905060018216806200029e57607f821691505b60208210811415620002b557620002b462000256565b5b50919050565b61489480620002cb6000396000f3fe6080604052600436106101d85760003560e01c8063715018a611610102578063b870c69311610095578063d187879411610064578063d1878794146106e8578063d2ce216b14610711578063e985e9c51461073c578063f2fde38b14610779576101d8565b8063b870c69314610630578063b88d4fde14610659578063c87b56dd14610682578063ca5140c9146106bf576101d8565b80639d4b35a7116100d15780639d4b35a714610550578063a22cb4651461058d578063a38ec001146105b6578063b09afec1146105f3576101d8565b8063715018a6146104c75780637e490a9e146104de5780638da5cb5b146104fa57806395d89b4114610525576101d8565b80632b2679bb1161017a5780634f6ccce7116101495780634f6ccce7146103e7578063564a89fe146104245780636352211e1461044d57806370a082311461048a576101d8565b80632b2679bb1461031b5780632f745c591461034457806342842e0e1461038157806349257f4e146103aa576101d8565b8063095ea7b3116101b6578063095ea7b31461028257806318160ddd146102ab5780631c555f47146102d657806323b872dd146102f2576101d8565b806301ffc9a7146101dd57806306fdde031461021a578063081812fc14610245575b600080fd5b3480156101e957600080fd5b5061020460048036038101906101ff91906131e2565b6107a2565b604051610211919061322a565b60405180910390f35b34801561022657600080fd5b5061022f61081c565b60405161023c91906132de565b60405180910390f35b34801561025157600080fd5b5061026c60048036038101906102679190613336565b6108ae565b60405161027991906133a4565b60405180910390f35b34801561028e57600080fd5b506102a960048036038101906102a491906133eb565b610933565b005b3480156102b757600080fd5b506102c0610a4b565b6040516102cd919061343a565b60405180910390f35b6102f060048036038101906102eb9190613336565b610a58565b005b3480156102fe57600080fd5b5061031960048036038101906103149190613455565b610a71565b005b34801561032757600080fd5b50610342600480360381019061033d91906134d4565b610ad1565b005b34801561035057600080fd5b5061036b600480360381019061036691906133eb565b610b25565b604051610378919061343a565b60405180910390f35b34801561038d57600080fd5b506103a860048036038101906103a39190613455565b610bca565b005b3480156103b657600080fd5b506103d160048036038101906103cc9190613336565b610bea565b6040516103de91906135d2565b60405180910390f35b3480156103f357600080fd5b5061040e60048036038101906104099190613336565b610d3f565b60405161041b919061343a565b60405180910390f35b34801561043057600080fd5b5061044b600480360381019061044691906135f4565b610db0565b005b34801561045957600080fd5b50610474600480360381019061046f9190613336565b610e3c565b60405161048191906133a4565b60405180910390f35b34801561049657600080fd5b506104b160048036038101906104ac9190613647565b610eee565b6040516104be919061343a565b60405180910390f35b3480156104d357600080fd5b506104dc610fa6565b005b6104f860048036038101906104f39190613336565b61102e565b005b34801561050657600080fd5b5061050f61104b565b60405161051c91906133a4565b60405180910390f35b34801561053157600080fd5b5061053a611075565b60405161054791906132de565b60405180910390f35b34801561055c57600080fd5b5061057760048036038101906105729190613336565b611107565b6040516105849190613771565b60405180910390f35b34801561059957600080fd5b506105b460048036038101906105af9190613793565b611246565b005b3480156105c257600080fd5b506105dd60048036038101906105d89190613336565b61125c565b6040516105ea91906133a4565b60405180910390f35b3480156105ff57600080fd5b5061061a60048036038101906106159190613336565b611325565b604051610627919061385d565b60405180910390f35b34801561063c57600080fd5b5061065760048036038101906106529190613878565b6113eb565b005b34801561066557600080fd5b50610680600480360381019061067b9190613a00565b611441565b005b34801561068e57600080fd5b506106a960048036038101906106a49190613336565b6114a3565b6040516106b691906132de565b60405180910390f35b3480156106cb57600080fd5b506106e660048036038101906106e19190613336565b61154a565b005b3480156106f457600080fd5b5061070f600480360381019061070a91906133eb565b611565565b005b34801561071d57600080fd5b506107266115ef565b604051610733919061343a565b60405180910390f35b34801561074857600080fd5b50610763600480360381019061075e9190613a83565b611600565b604051610770919061322a565b60405180910390f35b34801561078557600080fd5b506107a0600480360381019061079b9190613647565b611694565b005b60007f780e9d63000000000000000000000000000000000000000000000000000000007bffffffffffffffffffffffffffffffffffffffffffffffffffffffff1916827bffffffffffffffffffffffffffffffffffffffffffffffffffffffff1916148061081557506108148261178c565b5b9050919050565b60606000805461082b90613af2565b80601f016020809104026020016040519081016040528092919081815260200182805461085790613af2565b80156108a45780601f10610879576101008083540402835291602001916108a4565b820191906000526020600020905b81548152906001019060200180831161088757829003601f168201915b5050505050905090565b60006108b98261186e565b6108f8576040517f08c379a00000000000000000000000000000000000000000000000000000000081526004016108ef90613b96565b60405180910390fd5b6004600083815260200190815260200160002060009054906101000a900473ffffffffffffffffffffffffffffffffffffffff169050919050565b600061093e82610e3c565b90508073ffffffffffffffffffffffffffffffffffffffff168373ffffffffffffffffffffffffffffffffffffffff1614156109af576040517f08c379a00000000000000000000000000000000000000000000000000000000081526004016109a690613c28565b60405180910390fd5b8073ffffffffffffffffffffffffffffffffffffffff166109ce6118da565b73ffffffffffffffffffffffffffffffffffffffff1614806109fd57506109fc816109f76118da565b611600565b5b610a3c576040517f08c379a0000000000000000000000000000000000000000000000000000000008152600401610a3390613cba565b60405180910390fd5b610a4683836118e2565b505050565b6000600880549050905090565b610a6381333461199b565b610a6d8133611b56565b5050565b610a82610a7c6118da565b82611b8f565b610ac1576040517f08c379a0000000000000000000000000000000000000000000000000000000008152600401610ab890613d4c565b60405180910390fd5b610acc838383611c6d565b505050565b6000610adc83610e3c565b90503373ffffffffffffffffffffffffffffffffffffffff168173ffffffffffffffffffffffffffffffffffffffff1614610b1657600080fd5b610b208383611ec9565b505050565b6000610b3083610eee565b8210610b71576040517f08c379a0000000000000000000000000000000000000000000000000000000008152600401610b6890613dde565b60405180910390fd5b600660008473ffffffffffffffffffffffffffffffffffffffff1673ffffffffffffffffffffffffffffffffffffffff168152602001908152602001600020600083815260200190815260200160002054905092915050565b610be583838360405180602001604052806000815250611441565b505050565b606081610bf7600c611f01565b811115610c0357600080fd5b6000600d60008581526020019081526020016000206040518060800160405290816000820160009054906101000a900473ffffffffffffffffffffffffffffffffffffffff1673ffffffffffffffffffffffffffffffffffffffff1673ffffffffffffffffffffffffffffffffffffffff1681526020016001820154815260200160028201604051806020016040529081600082015481525050815260200160038201805480602002602001604051908101604052809291908181526020018280548015610d2657602002820191906000526020600020905b8160009054906101000a900473ffffffffffffffffffffffffffffffffffffffff1673ffffffffffffffffffffffffffffffffffffffff1681526020019060010190808311610cdc575b5050505050815250509050806060015192505050919050565b6000610d49610a4b565b8210610d8a576040517f08c379a0000000000000000000000000000000000000000000000000000000008152600401610d8190613e70565b60405180910390fd5b60088281548110610d9e57610d9d613e90565b5b90600052602060002001549050919050565b610db86118da565b73ffffffffffffffffffffffffffffffffffffffff16610dd661104b565b73ffffffffffffffffffffffffffffffffffffffff1614610e2c576040517f08c379a0000000000000000000000000000000000000000000000000000000008152600401610e2390613f0b565b60405180910390fd5b610e37838383611f0f565b505050565b6000806002600084815260200190815260200160002060009054906101000a900473ffffffffffffffffffffffffffffffffffffffff169050600073ffffffffffffffffffffffffffffffffffffffff168173ffffffffffffffffffffffffffffffffffffffff161415610ee5576040517f08c379a0000000000000000000000000000000000000000000000000000000008152600401610edc90613f9d565b60405180910390fd5b80915050919050565b60008073ffffffffffffffffffffffffffffffffffffffff168273ffffffffffffffffffffffffffffffffffffffff161415610f5f576040517f08c379a0000000000000000000000000000000000000000000000000000000008152600401610f569061402f565b60405180910390fd5b600360008373ffffffffffffffffffffffffffffffffffffffff1673ffffffffffffffffffffffffffffffffffffffff168152602001908152602001600020549050919050565b610fae6118da565b73ffffffffffffffffffffffffffffffffffffffff16610fcc61104b565b73ffffffffffffffffffffffffffffffffffffffff1614611022576040517f08c379a000000000000000000000000000000000000000000000000000000000815260040161101990613f0b565b60405180910390fd5b61102c6000611f78565b565b600061103982610e3c565b90506110478282333461203e565b5050565b6000600e60009054906101000a900473ffffffffffffffffffffffffffffffffffffffff16905090565b60606001805461108490613af2565b80601f01602080910402602001604051908101604052809291908181526020018280546110b090613af2565b80156110fd5780601f106110d2576101008083540402835291602001916110fd565b820191906000526020600020905b8154815290600101906020018083116110e057829003601f168201915b5050505050905090565b61110f6130d1565b6000600d60008481526020019081526020016000206040518060800160405290816000820160009054906101000a900473ffffffffffffffffffffffffffffffffffffffff1673ffffffffffffffffffffffffffffffffffffffff1673ffffffffffffffffffffffffffffffffffffffff168152602001600182015481526020016002820160405180602001604052908160008201548152505081526020016003820180548060200260200160405190810160405280929190818152602001828054801561123257602002820191906000526020600020905b8160009054906101000a900473ffffffffffffffffffffffffffffffffffffffff1673ffffffffffffffffffffffffffffffffffffffff16815260200190600101908083116111e8575b505050505081525050905080915050919050565b6112586112516118da565b8383612157565b5050565b600080600a60008481526020019081526020016000206040518060c00160405290816000820160009054906101000a900473ffffffffffffffffffffffffffffffffffffffff1673ffffffffffffffffffffffffffffffffffffffff1673ffffffffffffffffffffffffffffffffffffffff168152602001600182015481526020016002820160009054906101000a900460ff16151515158152602001600382015481526020016004820154815260200160058201548152505090508060000151915050919050565b61132d613115565b600a60008381526020019081526020016000206040518060c00160405290816000820160009054906101000a900473ffffffffffffffffffffffffffffffffffffffff1673ffffffffffffffffffffffffffffffffffffffff1673ffffffffffffffffffffffffffffffffffffffff168152602001600182015481526020016002820160009054906101000a900460ff1615151515815260200160038201548152602001600482015481526020016005820154815250509050919050565b60006113f684610e3c565b90503373ffffffffffffffffffffffffffffffffffffffff168173ffffffffffffffffffffffffffffffffffffffff161461143057600080fd5b61143b8484846122c4565b50505050565b61145261144c6118da565b83611b8f565b611491576040517f08c379a000000000000000000000000000000000000000000000000000000000815260040161148890613d4c565b60405180910390fd5b61149d848484846122f3565b50505050565b60606114ae8261186e565b6114ed576040517f08c379a00000000000000000000000000000000000000000000000000000000081526004016114e4906140c1565b60405180910390fd5b60006114f761234f565b905060008151116115175760405180602001604052806000815250611542565b8061152184612366565b60405160200161153292919061411d565b6040516020818303038152906040525b915050919050565b600061155582610e3c565b905061156182826124c7565b5050565b61156d6118da565b73ffffffffffffffffffffffffffffffffffffffff1661158b61104b565b73ffffffffffffffffffffffffffffffffffffffff16146115e1576040517f08c379a00000000000000000000000000000000000000000000000000000000081526004016115d890613f0b565b60405180910390fd5b6115eb82826125df565b5050565b60006115fb600c611f01565b905090565b6000600560008473ffffffffffffffffffffffffffffffffffffffff1673ffffffffffffffffffffffffffffffffffffffff16815260200190815260200160002060008373ffffffffffffffffffffffffffffffffffffffff1673ffffffffffffffffffffffffffffffffffffffff16815260200190815260200160002060009054906101000a900460ff16905092915050565b61169c6118da565b73ffffffffffffffffffffffffffffffffffffffff166116ba61104b565b73ffffffffffffffffffffffffffffffffffffffff1614611710576040517f08c379a000000000000000000000000000000000000000000000000000000000815260040161170790613f0b565b60405180910390fd5b600073ffffffffffffffffffffffffffffffffffffffff168173ffffffffffffffffffffffffffffffffffffffff161415611780576040517f08c379a0000000000000000000000000000000000000000000000000000000008152600401611777906141b3565b60405180910390fd5b61178981611f78565b50565b60007f80ac58cd000000000000000000000000000000000000000000000000000000007bffffffffffffffffffffffffffffffffffffffffffffffffffffffff1916827bffffffffffffffffffffffffffffffffffffffffffffffffffffffff1916148061185757507f5b5e139f000000000000000000000000000000000000000000000000000000007bffffffffffffffffffffffffffffffffffffffffffffffffffffffff1916827bffffffffffffffffffffffffffffffffffffffffffffffffffffffff1916145b8061186757506118668261265a565b5b9050919050565b60008073ffffffffffffffffffffffffffffffffffffffff166002600084815260200190815260200160002060009054906101000a900473ffffffffffffffffffffffffffffffffffffffff1673ffffffffffffffffffffffffffffffffffffffff1614159050919050565b600033905090565b816004600083815260200190815260200160002060006101000a81548173ffffffffffffffffffffffffffffffffffffffff021916908373ffffffffffffffffffffffffffffffffffffffff160217905550808273ffffffffffffffffffffffffffffffffffffffff1661195583610e3c565b73ffffffffffffffffffffffffffffffffffffffff167f8c5be1e5ebec7d5bd14f71427d1e84f3dd0314c0f7b2291e5b200ac8c7c3b92560405160405180910390a45050565b826119a6600c611f01565b8111156119b257600080fd5b6000600d60008681526020019081526020016000209050611aea816040518060800160405290816000820160009054906101000a900473ffffffffffffffffffffffffffffffffffffffff1673ffffffffffffffffffffffffffffffffffffffff1673ffffffffffffffffffffffffffffffffffffffff1681526020016001820154815260200160028201604051806020016040529081600082015481525050815260200160038201805480602002602001604051908101604052809291908181526020018280548015611adb57602002820191906000526020600020905b8160009054906101000a900473ffffffffffffffffffffffffffffffffffffffff1673ffffffffffffffffffffffffffffffffffffffff1681526020019060010190808311611a91575b505050505081525050846126c4565b80600301849080600181540180825580915050600190039060005260206000200160009091909190916101000a81548173ffffffffffffffffffffffffffffffffffffffff021916908373ffffffffffffffffffffffffffffffffffffffff1602179055505050505050565b6000611b62600b6126d8565b6000611b6e600b611f01565b9050611b7a83826126ee565b611b8581848661270c565b8091505092915050565b6000611b9a8261186e565b611bd9576040517f08c379a0000000000000000000000000000000000000000000000000000000008152600401611bd090614245565b60405180910390fd5b6000611be483610e3c565b90508073ffffffffffffffffffffffffffffffffffffffff168473ffffffffffffffffffffffffffffffffffffffff161480611c5357508373ffffffffffffffffffffffffffffffffffffffff16611c3b846108ae565b73ffffffffffffffffffffffffffffffffffffffff16145b80611c645750611c638185611600565b5b91505092915050565b8273ffffffffffffffffffffffffffffffffffffffff16611c8d82610e3c565b73ffffffffffffffffffffffffffffffffffffffff1614611ce3576040517f08c379a0000000000000000000000000000000000000000000000000000000008152600401611cda906142d7565b60405180910390fd5b600073ffffffffffffffffffffffffffffffffffffffff168273ffffffffffffffffffffffffffffffffffffffff161415611d53576040517f08c379a0000000000000000000000000000000000000000000000000000000008152600401611d4a90614369565b60405180910390fd5b611d5e8383836127b0565b611d696000826118e2565b6001600360008573ffffffffffffffffffffffffffffffffffffffff1673ffffffffffffffffffffffffffffffffffffffff1681526020019081526020016000206000828254611db991906143b8565b925050819055506001600360008473ffffffffffffffffffffffffffffffffffffffff1673ffffffffffffffffffffffffffffffffffffffff1681526020019081526020016000206000828254611e1091906143ec565b92505081905550816002600083815260200190815260200160002060006101000a81548173ffffffffffffffffffffffffffffffffffffffff021916908373ffffffffffffffffffffffffffffffffffffffff160217905550808273ffffffffffffffffffffffffffffffffffffffff168473ffffffffffffffffffffffffffffffffffffffff167fddf252ad1be2c89b69c2b068fc378daa952ba7f163c4a11628f55a4df523b3ef60405160405180910390a4505050565b6000600a60008481526020019081526020016000209050818160020160006101000a81548160ff021916908315150217905550505050565b600081600001549050919050565b6000600d60008581526020019081526020016000209050828160000160006101000a81548173ffffffffffffffffffffffffffffffffffffffff021916908373ffffffffffffffffffffffffffffffffffffffff16021790555081816001018190555050505050565b6000600e60009054906101000a900473ffffffffffffffffffffffffffffffffffffffff16905081600e60006101000a81548173ffffffffffffffffffffffffffffffffffffffff021916908373ffffffffffffffffffffffffffffffffffffffff1602179055508173ffffffffffffffffffffffffffffffffffffffff168173ffffffffffffffffffffffffffffffffffffffff167f8be0079c531659141344cd1fd0a4f28419497f9722a3daafe3b4186f6b6457e060405160405180910390a35050565b6000600a60008681526020019081526020016000209050612104816040518060c00160405290816000820160009054906101000a900473ffffffffffffffffffffffffffffffffffffffff1673ffffffffffffffffffffffffffffffffffffffff1673ffffffffffffffffffffffffffffffffffffffff168152602001600182015481526020016002820160009054906101000a900460ff16151515158152602001600382015481526020016004820154815260200160058201548152505085846128c4565b828160000160006101000a81548173ffffffffffffffffffffffffffffffffffffffff021916908373ffffffffffffffffffffffffffffffffffffffff1602179055504281600501819055505050505050565b8173ffffffffffffffffffffffffffffffffffffffff168373ffffffffffffffffffffffffffffffffffffffff1614156121c6576040517f08c379a00000000000000000000000000000000000000000000000000000000081526004016121bd9061448e565b60405180910390fd5b80600560008573ffffffffffffffffffffffffffffffffffffffff1673ffffffffffffffffffffffffffffffffffffffff16815260200190815260200160002060008473ffffffffffffffffffffffffffffffffffffffff1673ffffffffffffffffffffffffffffffffffffffff16815260200190815260200160002060006101000a81548160ff0219169083151502179055508173ffffffffffffffffffffffffffffffffffffffff168373ffffffffffffffffffffffffffffffffffffffff167f17307eab39ab6107e8899845ad3d59bd9653f200f220920489ca2b5937696c31836040516122b7919061322a565b60405180910390a3505050565b6000600a6000858152602001908152602001600020905082816003018190555081816004018190555050505050565b6122fe848484611c6d565b61230a84848484612923565b612349576040517f08c379a000000000000000000000000000000000000000000000000000000000815260040161234090614520565b60405180910390fd5b50505050565b606060405180602001604052806000815250905090565b606060008214156123ae576040518060400160405280600181526020017f300000000000000000000000000000000000000000000000000000000000000081525090506124c2565b600082905060005b600082146123e05780806123c990614540565b915050600a826123d991906145b8565b91506123b6565b60008167ffffffffffffffff8111156123fc576123fb6138d5565b5b6040519080825280601f01601f19166020018201604052801561242e5781602001600182028036833780820191505090505b5090505b600085146124bb5760018261244791906143b8565b9150600a8561245691906145e9565b603061246291906143ec565b60f81b81838151811061247857612477613e90565b5b60200101907effffffffffffffffffffffffffffffffffffffffffffffffffffffffffffff1916908160001a905350600a856124b491906145b8565b9450612432565b8093505050505b919050565b6000600a6000848152602001908152602001600020905061258d816040518060c00160405290816000820160009054906101000a900473ffffffffffffffffffffffffffffffffffffffff1673ffffffffffffffffffffffffffffffffffffffff1673ffffffffffffffffffffffffffffffffffffffff168152602001600182015481526020016002820160009054906101000a900460ff1615151515815260200160038201548152602001600482015481526020016005820154815250508333612aab565b818160000160006101000a81548173ffffffffffffffffffffffffffffffffffffffff021916908373ffffffffffffffffffffffffffffffffffffffff16021790555060008160050181905550505050565b6125e9600c6126d8565b6000600d60006125f9600c611f01565b81526020019081526020016000209050828160000160006101000a81548173ffffffffffffffffffffffffffffffffffffffff021916908373ffffffffffffffffffffffffffffffffffffffff160217905550818160010181905550505050565b60007f01ffc9a7000000000000000000000000000000000000000000000000000000007bffffffffffffffffffffffffffffffffffffffffffffffffffffffff1916827bffffffffffffffffffffffffffffffffffffffffffffffffffffffff1916149050919050565b808260200151146126d457600080fd5b5050565b6001816000016000828254019250508190555050565b612708828260405180602001604052806000815250612b8a565b5050565b6000600a60008581526020019081526020016000209050828160000160006101000a81548173ffffffffffffffffffffffffffffffffffffffff021916908373ffffffffffffffffffffffffffffffffffffffff16021790555081816001018190555060018160020160006101000a81548160ff02191690831515021790555060018160030181905550600081600401819055506000816005018190555050505050565b6127bb838383612be5565b600073ffffffffffffffffffffffffffffffffffffffff168373ffffffffffffffffffffffffffffffffffffffff1614156127fe576127f981612bea565b61283d565b8173ffffffffffffffffffffffffffffffffffffffff168373ffffffffffffffffffffffffffffffffffffffff161461283c5761283b8382612c33565b5b5b600073ffffffffffffffffffffffffffffffffffffffff168273ffffffffffffffffffffffffffffffffffffffff1614156128805761287b81612da0565b6128bf565b8273ffffffffffffffffffffffffffffffffffffffff168273ffffffffffffffffffffffffffffffffffffffff16146128be576128bd8282612e71565b5b5b505050565b8173ffffffffffffffffffffffffffffffffffffffff16836000015173ffffffffffffffffffffffffffffffffffffffff161461290057600080fd5b8083608001511461291057600080fd5b826040015161291e57600080fd5b505050565b60006129448473ffffffffffffffffffffffffffffffffffffffff16612ef0565b15612a9e578373ffffffffffffffffffffffffffffffffffffffff1663150b7a0261296d6118da565b8786866040518563ffffffff1660e01b815260040161298f949392919061466f565b6020604051808303816000875af19250505080156129cb57506040513d601f19601f820116820180604052508101906129c891906146d0565b60015b612a4e573d80600081146129fb576040519150601f19603f3d011682016040523d82523d6000602084013e612a00565b606091505b50600081511415612a46576040517f08c379a0000000000000000000000000000000000000000000000000000000008152600401612a3d90614520565b60405180910390fd5b805181602001fd5b63150b7a0260e01b7bffffffffffffffffffffffffffffffffffffffffffffffffffffffff1916817bffffffffffffffffffffffffffffffffffffffffffffffffffffffff191614915050612aa3565b600190505b949350505050565b60018360600151612abc91906146fd565b8360a00151612acb91906143ec565b4210612b48578073ffffffffffffffffffffffffffffffffffffffff16836000015173ffffffffffffffffffffffffffffffffffffffff161480612b3a57508073ffffffffffffffffffffffffffffffffffffffff168273ffffffffffffffffffffffffffffffffffffffff16145b612b4357600080fd5b612b85565b8073ffffffffffffffffffffffffffffffffffffffff16836000015173ffffffffffffffffffffffffffffffffffffffff1614612b8457600080fd5b5b505050565b612b948383612f03565b612ba16000848484612923565b612be0576040517f08c379a0000000000000000000000000000000000000000000000000000000008152600401612bd790614520565b60405180910390fd5b505050565b505050565b6008805490506009600083815260200190815260200160002081905550600881908060018154018082558091505060019003906000526020600020016000909190919091505550565b60006001612c4084610eee565b612c4a91906143b8565b9050600060076000848152602001908152602001600020549050818114612d2f576000600660008673ffffffffffffffffffffffffffffffffffffffff1673ffffffffffffffffffffffffffffffffffffffff168152602001908152602001600020600084815260200190815260200160002054905080600660008773ffffffffffffffffffffffffffffffffffffffff1673ffffffffffffffffffffffffffffffffffffffff168152602001908152602001600020600084815260200190815260200160002081905550816007600083815260200190815260200160002081905550505b6007600084815260200190815260200160002060009055600660008573ffffffffffffffffffffffffffffffffffffffff1673ffffffffffffffffffffffffffffffffffffffff16815260200190815260200160002060008381526020019081526020016000206000905550505050565b60006001600880549050612db491906143b8565b9050600060096000848152602001908152602001600020549050600060088381548110612de457612de3613e90565b5b906000526020600020015490508060088381548110612e0657612e05613e90565b5b906000526020600020018190555081600960008381526020019081526020016000208190555060096000858152602001908152602001600020600090556008805480612e5557612e54614757565b5b6001900381819060005260206000200160009055905550505050565b6000612e7c83610eee565b905081600660008573ffffffffffffffffffffffffffffffffffffffff1673ffffffffffffffffffffffffffffffffffffffff168152602001908152602001600020600083815260200190815260200160002081905550806007600084815260200190815260200160002081905550505050565b600080823b905060008111915050919050565b600073ffffffffffffffffffffffffffffffffffffffff168273ffffffffffffffffffffffffffffffffffffffff161415612f73576040517f08c379a0000000000000000000000000000000000000000000000000000000008152600401612f6a906147d2565b60405180910390fd5b612f7c8161186e565b15612fbc576040517f08c379a0000000000000000000000000000000000000000000000000000000008152600401612fb39061483e565b60405180910390fd5b612fc8600083836127b0565b6001600360008473ffffffffffffffffffffffffffffffffffffffff1673ffffffffffffffffffffffffffffffffffffffff168152602001908152602001600020600082825461301891906143ec565b92505081905550816002600083815260200190815260200160002060006101000a81548173ffffffffffffffffffffffffffffffffffffffff021916908373ffffffffffffffffffffffffffffffffffffffff160217905550808273ffffffffffffffffffffffffffffffffffffffff16600073ffffffffffffffffffffffffffffffffffffffff167fddf252ad1be2c89b69c2b068fc378daa952ba7f163c4a11628f55a4df523b3ef60405160405180910390a45050565b6040518060800160405280600073ffffffffffffffffffffffffffffffffffffffff16815260200160008152602001613108613163565b8152602001606081525090565b6040518060c00160405280600073ffffffffffffffffffffffffffffffffffffffff168152602001600081526020016000151581526020016000815260200160008152602001600081525090565b6040518060200160405280600081525090565b6000604051905090565b600080fd5b600080fd5b60007fffffffff0000000000000000000000000000000000000000000000000000000082169050919050565b6131bf8161318a565b81146131ca57600080fd5b50565b6000813590506131dc816131b6565b92915050565b6000602082840312156131f8576131f7613180565b5b6000613206848285016131cd565b91505092915050565b60008115159050919050565b6132248161320f565b82525050565b600060208201905061323f600083018461321b565b92915050565b600081519050919050565b600082825260208201905092915050565b60005b8381101561327f578082015181840152602081019050613264565b8381111561328e576000848401525b50505050565b6000601f19601f8301169050919050565b60006132b082613245565b6132ba8185613250565b93506132ca818560208601613261565b6132d381613294565b840191505092915050565b600060208201905081810360008301526132f881846132a5565b905092915050565b6000819050919050565b61331381613300565b811461331e57600080fd5b50565b6000813590506133308161330a565b92915050565b60006020828403121561334c5761334b613180565b5b600061335a84828501613321565b91505092915050565b600073ffffffffffffffffffffffffffffffffffffffff82169050919050565b600061338e82613363565b9050919050565b61339e81613383565b82525050565b60006020820190506133b96000830184613395565b92915050565b6133c881613383565b81146133d357600080fd5b50565b6000813590506133e5816133bf565b92915050565b6000806040838503121561340257613401613180565b5b6000613410858286016133d6565b925050602061342185828601613321565b9150509250929050565b61343481613300565b82525050565b600060208201905061344f600083018461342b565b92915050565b60008060006060848603121561346e5761346d613180565b5b600061347c868287016133d6565b935050602061348d868287016133d6565b925050604061349e86828701613321565b9150509250925092565b6134b18161320f565b81146134bc57600080fd5b50565b6000813590506134ce816134a8565b92915050565b600080604083850312156134eb576134ea613180565b5b60006134f985828601613321565b925050602061350a858286016134bf565b9150509250929050565b600081519050919050565b600082825260208201905092915050565b6000819050602082019050919050565b61354981613383565b82525050565b600061355b8383613540565b60208301905092915050565b6000602082019050919050565b600061357f82613514565b613589818561351f565b935061359483613530565b8060005b838110156135c55781516135ac888261354f565b97506135b783613567565b925050600181019050613598565b5085935050505092915050565b600060208201905081810360008301526135ec8184613574565b905092915050565b60008060006060848603121561360d5761360c613180565b5b600061361b86828701613321565b935050602061362c868287016133d6565b925050604061363d86828701613321565b9150509250925092565b60006020828403121561365d5761365c613180565b5b600061366b848285016133d6565b91505092915050565b61367d81613300565b82525050565b6020820160008201516136996000850182613674565b50505050565b600082825260208201905092915050565b60006136bb82613514565b6136c5818561369f565b93506136d083613530565b8060005b838110156137015781516136e8888261354f565b97506136f383613567565b9250506001810190506136d4565b5085935050505092915050565b60006080830160008301516137266000860182613540565b5060208301516137396020860182613674565b50604083015161374c6040860182613683565b506060830151848203606086015261376482826136b0565b9150508091505092915050565b6000602082019050818103600083015261378b818461370e565b905092915050565b600080604083850312156137aa576137a9613180565b5b60006137b8858286016133d6565b92505060206137c9858286016134bf565b9150509250929050565b6137dc8161320f565b82525050565b60c0820160008201516137f86000850182613540565b50602082015161380b6020850182613674565b50604082015161381e60408501826137d3565b5060608201516138316060850182613674565b5060808201516138446080850182613674565b5060a082015161385760a0850182613674565b50505050565b600060c08201905061387260008301846137e2565b92915050565b60008060006060848603121561389157613890613180565b5b600061389f86828701613321565b93505060206138b086828701613321565b92505060406138c186828701613321565b9150509250925092565b600080fd5b600080fd5b7f4e487b7100000000000000000000000000000000000000000000000000000000600052604160045260246000fd5b61390d82613294565b810181811067ffffffffffffffff8211171561392c5761392b6138d5565b5b80604052505050565b600061393f613176565b905061394b8282613904565b919050565b600067ffffffffffffffff82111561396b5761396a6138d5565b5b61397482613294565b9050602081019050919050565b82818337600083830152505050565b60006139a361399e84613950565b613935565b9050828152602081018484840111156139bf576139be6138d0565b5b6139ca848285613981565b509392505050565b600082601f8301126139e7576139e66138cb565b5b81356139f7848260208601613990565b91505092915050565b60008060008060808587031215613a1a57613a19613180565b5b6000613a28878288016133d6565b9450506020613a39878288016133d6565b9350506040613a4a87828801613321565b925050606085013567ffffffffffffffff811115613a6b57613a6a613185565b5b613a77878288016139d2565b91505092959194509250565b60008060408385031215613a9a57613a99613180565b5b6000613aa8858286016133d6565b9250506020613ab9858286016133d6565b9150509250929050565b7f4e487b7100000000000000000000000000000000000000000000000000000000600052602260045260246000fd5b60006002820490506001821680613b0a57607f821691505b60208210811415613b1e57613b1d613ac3565b5b50919050565b7f4552433732313a20617070726f76656420717565727920666f72206e6f6e657860008201527f697374656e7420746f6b656e0000000000000000000000000000000000000000602082015250565b6000613b80602c83613250565b9150613b8b82613b24565b604082019050919050565b60006020820190508181036000830152613baf81613b73565b9050919050565b7f4552433732313a20617070726f76616c20746f2063757272656e74206f776e6560008201527f7200000000000000000000000000000000000000000000000000000000000000602082015250565b6000613c12602183613250565b9150613c1d82613bb6565b604082019050919050565b60006020820190508181036000830152613c4181613c05565b9050919050565b7f4552433732313a20617070726f76652063616c6c6572206973206e6f74206f7760008201527f6e6572206e6f7220617070726f76656420666f7220616c6c0000000000000000602082015250565b6000613ca4603883613250565b9150613caf82613c48565b604082019050919050565b60006020820190508181036000830152613cd381613c97565b9050919050565b7f4552433732313a207472616e736665722063616c6c6572206973206e6f74206f60008201527f776e6572206e6f7220617070726f766564000000000000000000000000000000602082015250565b6000613d36603183613250565b9150613d4182613cda565b604082019050919050565b60006020820190508181036000830152613d6581613d29565b9050919050565b7f455243373231456e756d657261626c653a206f776e657220696e646578206f7560008201527f74206f6620626f756e6473000000000000000000000000000000000000000000602082015250565b6000613dc8602b83613250565b9150613dd382613d6c565b604082019050919050565b60006020820190508181036000830152613df781613dbb565b9050919050565b7f455243373231456e756d657261626c653a20676c6f62616c20696e646578206f60008201527f7574206f6620626f756e64730000000000000000000000000000000000000000602082015250565b6000613e5a602c83613250565b9150613e6582613dfe565b604082019050919050565b60006020820190508181036000830152613e8981613e4d565b9050919050565b7f4e487b7100000000000000000000000000000000000000000000000000000000600052603260045260246000fd5b7f4f776e61626c653a2063616c6c6572206973206e6f7420746865206f776e6572600082015250565b6000613ef5602083613250565b9150613f0082613ebf565b602082019050919050565b60006020820190508181036000830152613f2481613ee8565b9050919050565b7f4552433732313a206f776e657220717565727920666f72206e6f6e657869737460008201527f656e7420746f6b656e0000000000000000000000000000000000000000000000602082015250565b6000613f87602983613250565b9150613f9282613f2b565b604082019050919050565b60006020820190508181036000830152613fb681613f7a565b9050919050565b7f4552433732313a2062616c616e636520717565727920666f7220746865207a6560008201527f726f206164647265737300000000000000000000000000000000000000000000602082015250565b6000614019602a83613250565b915061402482613fbd565b604082019050919050565b600060208201905081810360008301526140488161400c565b9050919050565b7f4552433732314d657461646174613a2055524920717565727920666f72206e6f60008201527f6e6578697374656e7420746f6b656e0000000000000000000000000000000000602082015250565b60006140ab602f83613250565b91506140b68261404f565b604082019050919050565b600060208201905081810360008301526140da8161409e565b9050919050565b600081905092915050565b60006140f782613245565b61410181856140e1565b9350614111818560208601613261565b80840191505092915050565b600061412982856140ec565b915061413582846140ec565b91508190509392505050565b7f4f776e61626c653a206e6577206f776e657220697320746865207a65726f206160008201527f6464726573730000000000000000000000000000000000000000000000000000602082015250565b600061419d602683613250565b91506141a882614141565b604082019050919050565b600060208201905081810360008301526141cc81614190565b9050919050565b7f4552433732313a206f70657261746f7220717565727920666f72206e6f6e657860008201527f697374656e7420746f6b656e0000000000000000000000000000000000000000602082015250565b600061422f602c83613250565b915061423a826141d3565b604082019050919050565b6000602082019050818103600083015261425e81614222565b9050919050565b7f4552433732313a207472616e73666572206f6620746f6b656e2074686174206960008201527f73206e6f74206f776e0000000000000000000000000000000000000000000000602082015250565b60006142c1602983613250565b91506142cc82614265565b604082019050919050565b600060208201905081810360008301526142f0816142b4565b9050919050565b7f4552433732313a207472616e7366657220746f20746865207a65726f2061646460008201527f7265737300000000000000000000000000000000000000000000000000000000602082015250565b6000614353602483613250565b915061435e826142f7565b604082019050919050565b6000602082019050818103600083015261438281614346565b9050919050565b7f4e487b7100000000000000000000000000000000000000000000000000000000600052601160045260246000fd5b60006143c382613300565b91506143ce83613300565b9250828210156143e1576143e0614389565b5b828203905092915050565b60006143f782613300565b915061440283613300565b9250827fffffffffffffffffffffffffffffffffffffffffffffffffffffffffffffffff0382111561443757614436614389565b5b828201905092915050565b7f4552433732313a20617070726f766520746f2063616c6c657200000000000000600082015250565b6000614478601983613250565b915061448382614442565b602082019050919050565b600060208201905081810360008301526144a78161446b565b9050919050565b7f4552433732313a207472616e7366657220746f206e6f6e20455243373231526560008201527f63656976657220696d706c656d656e7465720000000000000000000000000000602082015250565b600061450a603283613250565b9150614515826144ae565b604082019050919050565b60006020820190508181036000830152614539816144fd565b9050919050565b600061454b82613300565b91507fffffffffffffffffffffffffffffffffffffffffffffffffffffffffffffffff82141561457e5761457d614389565b5b600182019050919050565b7f4e487b7100000000000000000000000000000000000000000000000000000000600052601260045260246000fd5b60006145c382613300565b91506145ce83613300565b9250826145de576145dd614589565b5b828204905092915050565b60006145f482613300565b91506145ff83613300565b92508261460f5761460e614589565b5b828206905092915050565b600081519050919050565b600082825260208201905092915050565b60006146418261461a565b61464b8185614625565b935061465b818560208601613261565b61466481613294565b840191505092915050565b60006080820190506146846000830187613395565b6146916020830186613395565b61469e604083018561342b565b81810360608301526146b08184614636565b905095945050505050565b6000815190506146ca816131b6565b92915050565b6000602082840312156146e6576146e5613180565b5b60006146f4848285016146bb565b91505092915050565b600061470882613300565b915061471383613300565b9250817fffffffffffffffffffffffffffffffffffffffffffffffffffffffffffffffff048311821515161561474c5761474b614389565b5b828202905092915050565b7f4e487b7100000000000000000000000000000000000000000000000000000000600052603160045260246000fd5b7f4552433732313a206d696e7420746f20746865207a65726f2061646472657373600082015250565b60006147bc602083613250565b91506147c782614786565b602082019050919050565b600060208201905081810360008301526147eb816147af565b9050919050565b7f4552433732313a20746f6b656e20616c7265616479206d696e74656400000000600082015250565b6000614828601c83613250565b9150614833826147f2565b602082019050919050565b600060208201905081810360008301526148578161481b565b905091905056fea26469706673582212209c7ed9033f7921b7db46d3758245527d9fad5e76457fef69cdb368808867e7ab64736f6c634300080b0033",
  "immutableReferences": {},
  "source": "// SPDX-License-Identifier: MIT\npragma solidity 0.8.11;\n\nimport \"@openzeppelin/contracts/access/Ownable.sol\";\n\nimport './devs/TokenManager.sol';\nimport './devs/BookManager.sol';\n\n// all payable functions are to implement here\ncontract Library is TokenManager, BookManager, Ownable{\n\n    // add book\n    function addBook(address _author, uint _price) external onlyOwner {\n        _addBook(_author, _price);\n    }\n\n    // modify book\n    function modifyBook(uint _bookId,address _author, uint _price) external onlyOwner {\n        _modifyBook(_bookId,_author, _price);\n    }\n\n    // purchase Book\n    function purchaseBook(uint _bookId) external payable {\n        _purchaseBook(_bookId, msg.sender , msg.value);\n        _purchaseToken(_bookId, msg.sender);\n    }\n\n    // borrow Book\n    function borrowBook(uint _tokenId ) external payable{\n        address owner = ownerOf(_tokenId);\n        _borrowToken(_tokenId, owner, msg.sender, msg.value);\n    }\n\n    // return Book\n    function returnBook(uint _tokenId) external {\n        address owner = ownerOf(_tokenId);\n        _returnToken(_tokenId, owner);\n    }\n\n    // configure token\n    function configBorrow(uint _tokenId, uint _period, uint _cost) external {\n        address owner = ownerOf(_tokenId);\n        require(owner == msg.sender);\n        _configBorrow(_tokenId, _period, _cost);\n    }\n    function changeBorrowAllowance(uint _tokenId, bool _isAllow) external {\n        address owner = ownerOf(_tokenId);\n        require(owner == msg.sender);\n        _changeBorrowAllowance(_tokenId, _isAllow);\n    }\n\n}",
  "sourcePath": "/Users/jin/workplace/ethereum/library/contracts/Library.sol",
  "compiler": {
    "name": "solc",
    "version": "0.8.11+commit.d7f03943.Emscripten.clang"
  },
  "schemaVersion": "3.4.4",
  "updatedAt": "2021-12-25T06:45:19.529Z",
  "devdoc": {
    "kind": "dev",
    "methods": {
      "approve(address,uint256)": {
        "details": "See {IERC721-approve}."
      },
      "balanceOf(address)": {
        "details": "See {IERC721-balanceOf}."
      },
      "getApproved(uint256)": {
        "details": "See {IERC721-getApproved}."
      },
      "isApprovedForAll(address,address)": {
        "details": "See {IERC721-isApprovedForAll}."
      },
      "name()": {
        "details": "See {IERC721Metadata-name}."
      },
      "owner()": {
        "details": "Returns the address of the current owner."
      },
      "ownerOf(uint256)": {
        "details": "See {IERC721-ownerOf}."
      },
      "renounceOwnership()": {
        "details": "Leaves the contract without owner. It will not be possible to call `onlyOwner` functions anymore. Can only be called by the current owner. NOTE: Renouncing ownership will leave the contract without an owner, thereby removing any functionality that is only available to the owner."
      },
      "safeTransferFrom(address,address,uint256)": {
        "details": "See {IERC721-safeTransferFrom}."
      },
      "safeTransferFrom(address,address,uint256,bytes)": {
        "details": "See {IERC721-safeTransferFrom}."
      },
      "setApprovalForAll(address,bool)": {
        "details": "See {IERC721-setApprovalForAll}."
      },
      "supportsInterface(bytes4)": {
        "details": "See {IERC165-supportsInterface}."
      },
      "symbol()": {
        "details": "See {IERC721Metadata-symbol}."
      },
      "tokenByIndex(uint256)": {
        "details": "See {IERC721Enumerable-tokenByIndex}."
      },
      "tokenOfOwnerByIndex(address,uint256)": {
        "details": "See {IERC721Enumerable-tokenOfOwnerByIndex}."
      },
      "tokenURI(uint256)": {
        "details": "See {IERC721Metadata-tokenURI}."
      },
      "totalSupply()": {
        "details": "See {IERC721Enumerable-totalSupply}."
      },
      "transferFrom(address,address,uint256)": {
        "details": "See {IERC721-transferFrom}."
      },
      "transferOwnership(address)": {
        "details": "Transfers ownership of the contract to a new account (`newOwner`). Can only be called by the current owner."
      }
    },
    "version": 1
  },
  "userdoc": {
    "kind": "user",
    "methods": {},
    "version": 1
  }
}