{
  "contractName": "Library",
  "abi": [
    {
      "inputs": [
        {
          "internalType": "uint256",
          "name": "_maxBorrowing",
          "type": "uint256"
        }
      ],
      "stateMutability": "nonpayable",
      "type": "constructor"
    },
    {
      "anonymous": false,
      "inputs": [
        {
          "indexed": true,
          "internalType": "address",
          "name": "owner",
          "type": "address"
        },
        {
          "indexed": true,
          "internalType": "address",
          "name": "approved",
          "type": "address"
        },
        {
          "indexed": true,
          "internalType": "uint256",
          "name": "tokenId",
          "type": "uint256"
        }
      ],
      "name": "Approval",
      "type": "event"
    },
    {
      "anonymous": false,
      "inputs": [
        {
          "indexed": true,
          "internalType": "address",
          "name": "owner",
          "type": "address"
        },
        {
          "indexed": true,
          "internalType": "address",
          "name": "operator",
          "type": "address"
        },
        {
          "indexed": false,
          "internalType": "bool",
          "name": "approved",
          "type": "bool"
        }
      ],
      "name": "ApprovalForAll",
      "type": "event"
    },
    {
      "anonymous": false,
      "inputs": [
        {
          "indexed": true,
          "internalType": "address",
          "name": "previousOwner",
          "type": "address"
        },
        {
          "indexed": true,
          "internalType": "address",
          "name": "newOwner",
          "type": "address"
        }
      ],
      "name": "OwnershipTransferred",
      "type": "event"
    },
    {
      "anonymous": false,
      "inputs": [
        {
          "indexed": true,
          "internalType": "address",
          "name": "from",
          "type": "address"
        },
        {
          "indexed": true,
          "internalType": "address",
          "name": "to",
          "type": "address"
        },
        {
          "indexed": true,
          "internalType": "uint256",
          "name": "tokenId",
          "type": "uint256"
        }
      ],
      "name": "Transfer",
      "type": "event"
    },
    {
      "inputs": [
        {
          "internalType": "address",
          "name": "to",
          "type": "address"
        },
        {
          "internalType": "uint256",
          "name": "tokenId",
          "type": "uint256"
        }
      ],
      "name": "approve",
      "outputs": [],
      "stateMutability": "nonpayable",
      "type": "function"
    },
    {
      "inputs": [
        {
          "internalType": "address",
          "name": "owner",
          "type": "address"
        }
      ],
      "name": "balanceOf",
      "outputs": [
        {
          "internalType": "uint256",
          "name": "",
          "type": "uint256"
        }
      ],
      "stateMutability": "view",
      "type": "function"
    },
    {
      "inputs": [
        {
          "internalType": "uint256",
          "name": "tokenId",
          "type": "uint256"
        }
      ],
      "name": "getApproved",
      "outputs": [
        {
          "internalType": "address",
          "name": "",
          "type": "address"
        }
      ],
      "stateMutability": "view",
      "type": "function"
    },
    {
      "inputs": [
        {
          "internalType": "uint256",
          "name": "_bookId",
          "type": "uint256"
        }
      ],
      "name": "getBookData",
      "outputs": [
        {
          "components": [
            {
              "internalType": "address",
              "name": "author",
              "type": "address"
            },
            {
              "internalType": "uint256",
              "name": "price",
              "type": "uint256"
            },
            {
              "internalType": "string",
              "name": "title",
              "type": "string"
            },
            {
              "components": [
                {
                  "internalType": "uint256",
                  "name": "_value",
                  "type": "uint256"
                }
              ],
              "internalType": "struct Counters.Counter",
              "name": "purchasedIds",
              "type": "tuple"
            },
            {
              "internalType": "address[]",
              "name": "purchaser",
              "type": "address[]"
            }
          ],
          "internalType": "struct BookManager.Book",
          "name": "",
          "type": "tuple"
        }
      ],
      "stateMutability": "view",
      "type": "function"
    },
    {
      "inputs": [
        {
          "internalType": "address",
          "name": "_user",
          "type": "address"
        }
      ],
      "name": "getBorrowingNum",
      "outputs": [
        {
          "internalType": "uint256",
          "name": "",
          "type": "uint256"
        }
      ],
      "stateMutability": "view",
      "type": "function"
    },
    {
      "inputs": [
        {
          "internalType": "uint256",
          "name": "_bookId",
          "type": "uint256"
        }
      ],
      "name": "getPurchaser",
      "outputs": [
        {
          "internalType": "address[]",
          "name": "",
          "type": "address[]"
        }
      ],
      "stateMutability": "view",
      "type": "function"
    },
    {
      "inputs": [],
      "name": "getPurchasersAddress",
      "outputs": [
        {
          "internalType": "address[]",
          "name": "",
          "type": "address[]"
        }
      ],
      "stateMutability": "view",
      "type": "function"
    },
    {
      "inputs": [
        {
          "internalType": "uint256",
          "name": "_tokenId",
          "type": "uint256"
        }
      ],
      "name": "getTokenBorrower",
      "outputs": [
        {
          "internalType": "address",
          "name": "",
          "type": "address"
        }
      ],
      "stateMutability": "view",
      "type": "function"
    },
    {
      "inputs": [
        {
          "internalType": "uint256",
          "name": "_tokenId",
          "type": "uint256"
        }
      ],
      "name": "getTokenData",
      "outputs": [
        {
          "components": [
            {
              "internalType": "address",
              "name": "borrower",
              "type": "address"
            },
            {
              "internalType": "uint256",
              "name": "bookId",
              "type": "uint256"
            },
            {
              "internalType": "bool",
              "name": "allowToContract",
              "type": "bool"
            },
            {
              "internalType": "uint256",
              "name": "period",
              "type": "uint256"
            },
            {
              "internalType": "uint256",
              "name": "cost",
              "type": "uint256"
            },
            {
              "internalType": "uint256",
              "name": "start",
              "type": "uint256"
            }
          ],
          "internalType": "struct BorrowTokenManager.BorrowToken",
          "name": "",
          "type": "tuple"
        }
      ],
      "stateMutability": "view",
      "type": "function"
    },
    {
      "inputs": [],
      "name": "getTotalBook",
      "outputs": [
        {
          "internalType": "uint256",
          "name": "",
          "type": "uint256"
        }
      ],
      "stateMutability": "view",
      "type": "function"
    },
    {
      "inputs": [
        {
          "internalType": "address",
          "name": "_user",
          "type": "address"
        }
      ],
      "name": "getUserData",
      "outputs": [
        {
          "components": [
            {
              "internalType": "uint256",
              "name": "numBorrowing",
              "type": "uint256"
            },
            {
              "internalType": "uint256[]",
              "name": "tokenIds",
              "type": "uint256[]"
            }
          ],
          "internalType": "struct UserManager.User",
          "name": "",
          "type": "tuple"
        }
      ],
      "stateMutability": "view",
      "type": "function"
    },
    {
      "inputs": [
        {
          "internalType": "address",
          "name": "",
          "type": "address"
        }
      ],
      "name": "isAlreadyPurchased",
      "outputs": [
        {
          "internalType": "bool",
          "name": "",
          "type": "bool"
        }
      ],
      "stateMutability": "view",
      "type": "function"
    },
    {
      "inputs": [
        {
          "internalType": "address",
          "name": "owner",
          "type": "address"
        },
        {
          "internalType": "address",
          "name": "operator",
          "type": "address"
        }
      ],
      "name": "isApprovedForAll",
      "outputs": [
        {
          "internalType": "bool",
          "name": "",
          "type": "bool"
        }
      ],
      "stateMutability": "view",
      "type": "function"
    },
    {
      "inputs": [],
      "name": "maxBorrowing",
      "outputs": [
        {
          "internalType": "uint256",
          "name": "",
          "type": "uint256"
        }
      ],
      "stateMutability": "view",
      "type": "function"
    },
    {
      "inputs": [],
      "name": "name",
      "outputs": [
        {
          "internalType": "string",
          "name": "",
          "type": "string"
        }
      ],
      "stateMutability": "view",
      "type": "function"
    },
    {
      "inputs": [],
      "name": "owner",
      "outputs": [
        {
          "internalType": "address",
          "name": "",
          "type": "address"
        }
      ],
      "stateMutability": "view",
      "type": "function"
    },
    {
      "inputs": [
        {
          "internalType": "uint256",
          "name": "tokenId",
          "type": "uint256"
        }
      ],
      "name": "ownerOf",
      "outputs": [
        {
          "internalType": "address",
          "name": "",
          "type": "address"
        }
      ],
      "stateMutability": "view",
      "type": "function"
    },
    {
      "inputs": [
        {
          "internalType": "uint256",
          "name": "",
          "type": "uint256"
        }
      ],
      "name": "purchaserAddresses",
      "outputs": [
        {
          "internalType": "address",
          "name": "",
          "type": "address"
        }
      ],
      "stateMutability": "view",
      "type": "function"
    },
    {
      "inputs": [],
      "name": "renounceOwnership",
      "outputs": [],
      "stateMutability": "nonpayable",
      "type": "function"
    },
    {
      "inputs": [
        {
          "internalType": "address",
          "name": "from",
          "type": "address"
        },
        {
          "internalType": "address",
          "name": "to",
          "type": "address"
        },
        {
          "internalType": "uint256",
          "name": "tokenId",
          "type": "uint256"
        }
      ],
      "name": "safeTransferFrom",
      "outputs": [],
      "stateMutability": "nonpayable",
      "type": "function"
    },
    {
      "inputs": [
        {
          "internalType": "address",
          "name": "from",
          "type": "address"
        },
        {
          "internalType": "address",
          "name": "to",
          "type": "address"
        },
        {
          "internalType": "uint256",
          "name": "tokenId",
          "type": "uint256"
        },
        {
          "internalType": "bytes",
          "name": "_data",
          "type": "bytes"
        }
      ],
      "name": "safeTransferFrom",
      "outputs": [],
      "stateMutability": "nonpayable",
      "type": "function"
    },
    {
      "inputs": [
        {
          "internalType": "address",
          "name": "operator",
          "type": "address"
        },
        {
          "internalType": "bool",
          "name": "approved",
          "type": "bool"
        }
      ],
      "name": "setApprovalForAll",
      "outputs": [],
      "stateMutability": "nonpayable",
      "type": "function"
    },
    {
      "inputs": [
        {
          "internalType": "bytes4",
          "name": "interfaceId",
          "type": "bytes4"
        }
      ],
      "name": "supportsInterface",
      "outputs": [
        {
          "internalType": "bool",
          "name": "",
          "type": "bool"
        }
      ],
      "stateMutability": "view",
      "type": "function"
    },
    {
      "inputs": [],
      "name": "symbol",
      "outputs": [
        {
          "internalType": "string",
          "name": "",
          "type": "string"
        }
      ],
      "stateMutability": "view",
      "type": "function"
    },
    {
      "inputs": [
        {
          "internalType": "uint256",
          "name": "index",
          "type": "uint256"
        }
      ],
      "name": "tokenByIndex",
      "outputs": [
        {
          "internalType": "uint256",
          "name": "",
          "type": "uint256"
        }
      ],
      "stateMutability": "view",
      "type": "function"
    },
    {
      "inputs": [
        {
          "internalType": "address",
          "name": "owner",
          "type": "address"
        },
        {
          "internalType": "uint256",
          "name": "index",
          "type": "uint256"
        }
      ],
      "name": "tokenOfOwnerByIndex",
      "outputs": [
        {
          "internalType": "uint256",
          "name": "",
          "type": "uint256"
        }
      ],
      "stateMutability": "view",
      "type": "function"
    },
    {
      "inputs": [
        {
          "internalType": "uint256",
          "name": "tokenId",
          "type": "uint256"
        }
      ],
      "name": "tokenURI",
      "outputs": [
        {
          "internalType": "string",
          "name": "",
          "type": "string"
        }
      ],
      "stateMutability": "view",
      "type": "function"
    },
    {
      "inputs": [],
      "name": "totalSupply",
      "outputs": [
        {
          "internalType": "uint256",
          "name": "",
          "type": "uint256"
        }
      ],
      "stateMutability": "view",
      "type": "function"
    },
    {
      "inputs": [
        {
          "internalType": "address",
          "name": "from",
          "type": "address"
        },
        {
          "internalType": "address",
          "name": "to",
          "type": "address"
        },
        {
          "internalType": "uint256",
          "name": "tokenId",
          "type": "uint256"
        }
      ],
      "name": "transferFrom",
      "outputs": [],
      "stateMutability": "nonpayable",
      "type": "function"
    },
    {
      "inputs": [
        {
          "internalType": "address",
          "name": "newOwner",
          "type": "address"
        }
      ],
      "name": "transferOwnership",
      "outputs": [],
      "stateMutability": "nonpayable",
      "type": "function"
    },
    {
      "inputs": [
        {
          "internalType": "address",
          "name": "",
          "type": "address"
        }
      ],
      "name": "users",
      "outputs": [
        {
          "internalType": "uint256",
          "name": "numBorrowing",
          "type": "uint256"
        }
      ],
      "stateMutability": "view",
      "type": "function"
    },
    {
      "inputs": [
        {
          "internalType": "uint256",
          "name": "_maxBorrowing",
          "type": "uint256"
        }
      ],
      "name": "changeMaxBorrowing",
      "outputs": [],
      "stateMutability": "nonpayable",
      "type": "function"
    },
    {
      "inputs": [
        {
          "internalType": "address",
          "name": "_author",
          "type": "address"
        },
        {
          "internalType": "uint256",
          "name": "_price",
          "type": "uint256"
        },
        {
          "internalType": "string",
          "name": "_title",
          "type": "string"
        }
      ],
      "name": "addBook",
      "outputs": [],
      "stateMutability": "nonpayable",
      "type": "function"
    },
    {
      "inputs": [
        {
          "internalType": "uint256",
          "name": "_bookId",
          "type": "uint256"
        },
        {
          "internalType": "address",
          "name": "_author",
          "type": "address"
        },
        {
          "internalType": "uint256",
          "name": "_price",
          "type": "uint256"
        },
        {
          "internalType": "string",
          "name": "_title",
          "type": "string"
        }
      ],
      "name": "modifyBook",
      "outputs": [],
      "stateMutability": "nonpayable",
      "type": "function"
    },
    {
      "inputs": [
        {
          "internalType": "uint256",
          "name": "_bookId",
          "type": "uint256"
        }
      ],
      "name": "purchaseBook",
      "outputs": [],
      "stateMutability": "payable",
      "type": "function"
    },
    {
      "inputs": [
        {
          "internalType": "uint256",
          "name": "_tokenId",
          "type": "uint256"
        }
      ],
      "name": "borrowBook",
      "outputs": [],
      "stateMutability": "payable",
      "type": "function"
    },
    {
      "inputs": [
        {
          "internalType": "uint256",
          "name": "_tokenId",
          "type": "uint256"
        }
      ],
      "name": "returnBook",
      "outputs": [],
      "stateMutability": "nonpayable",
      "type": "function"
    },
    {
      "inputs": [
        {
          "internalType": "uint256",
          "name": "_tokenId",
          "type": "uint256"
        },
        {
          "internalType": "uint256",
          "name": "_period",
          "type": "uint256"
        },
        {
          "internalType": "uint256",
          "name": "_cost",
          "type": "uint256"
        }
      ],
      "name": "configBorrow",
      "outputs": [],
      "stateMutability": "nonpayable",
      "type": "function"
    },
    {
      "inputs": [
        {
          "internalType": "uint256",
          "name": "_tokenId",
          "type": "uint256"
        },
        {
          "internalType": "bool",
          "name": "_isAllow",
          "type": "bool"
        }
      ],
      "name": "changeBorrowAllowance",
      "outputs": [],
      "stateMutability": "nonpayable",
      "type": "function"
    }
  ],
  "bytecode": "0x60806040523480156200001157600080fd5b50604051620059e4380380620059e48339818101604052810190620000379190620002c3565b6040518060400160405280601081526020017f4c696272617279426f6f6b546f6b656e000000000000000000000000000000008152506040518060400160405280600381526020017f4c425400000000000000000000000000000000000000000000000000000000008152508160009080519060200190620000bb929190620001d3565b508060019080519060200190620000d4929190620001d3565b505050620000f7620000eb6200010560201b60201c565b6200010d60201b60201c565b80601281905550506200035a565b600033905090565b6000601160009054906101000a900473ffffffffffffffffffffffffffffffffffffffff16905081601160006101000a81548173ffffffffffffffffffffffffffffffffffffffff021916908373ffffffffffffffffffffffffffffffffffffffff1602179055508173ffffffffffffffffffffffffffffffffffffffff168173ffffffffffffffffffffffffffffffffffffffff167f8be0079c531659141344cd1fd0a4f28419497f9722a3daafe3b4186f6b6457e060405160405180910390a35050565b828054620001e19062000324565b90600052602060002090601f01602090048101928262000205576000855562000251565b82601f106200022057805160ff191683800117855562000251565b8280016001018555821562000251579182015b828111156200025057825182559160200191906001019062000233565b5b50905062000260919062000264565b5090565b5b808211156200027f57600081600090555060010162000265565b5090565b600080fd5b6000819050919050565b6200029d8162000288565b8114620002a957600080fd5b50565b600081519050620002bd8162000292565b92915050565b600060208284031215620002dc57620002db62000283565b5b6000620002ec84828501620002ac565b91505092915050565b7f4e487b7100000000000000000000000000000000000000000000000000000000600052602260045260246000fd5b600060028204905060018216806200033d57607f821691505b60208210811415620003545762000353620002f5565b5b50919050565b61567a806200036a6000396000f3fe6080604052600436106102305760003560e01c80637e490a9e1161012e578063b09afec1116100ab578063d2ce216b1161006f578063d2ce216b146108b3578063e985e9c5146108de578063f2985b3c1461091b578063f2fde38b14610944578063ffc9896b1461096d57610230565b8063b09afec1146107be578063b870c693146107fb578063b88d4fde14610824578063c87b56dd1461084d578063ca5140c91461088a57610230565b80639cbf73a9116100f25780639cbf73a9146106a15780639d4b35a7146106de578063a22cb4651461071b578063a38ec00114610744578063a87430ba1461078157610230565b80637e490a9e146105db5780638da5cb5b146105f757806390272dff1461062257806395d89b411461064d57806399c693121461067857610230565b80632f745c59116101bc57806349257f4e1161018057806349257f4e146104d05780634f6ccce71461050d5780636352211e1461054a57806370a0823114610587578063715018a6146105c457610230565b80632f745c59146103c557806332b9339c146104025780633646951a1461043f5780634067fd941461047c57806342842e0e146104a757610230565b80630b85eb4a116102035780630b85eb4a1461030357806318160ddd1461032c5780631c555f471461035757806323b872dd146103735780632b2679bb1461039c57610230565b806301ffc9a71461023557806306fdde0314610272578063081812fc1461029d578063095ea7b3146102da575b600080fd5b34801561024157600080fd5b5061025c60048036038101906102579190613cec565b6109aa565b6040516102699190613d34565b60405180910390f35b34801561027e57600080fd5b50610287610a24565b6040516102949190613de8565b60405180910390f35b3480156102a957600080fd5b506102c460048036038101906102bf9190613e40565b610ab6565b6040516102d19190613eae565b60405180910390f35b3480156102e657600080fd5b5061030160048036038101906102fc9190613ef5565b610b3b565b005b34801561030f57600080fd5b5061032a60048036038101906103259190613e40565b610c53565b005b34801561033857600080fd5b50610341610cd9565b60405161034e9190613f44565b60405180910390f35b610371600480360381019061036c9190613e40565b610ce6565b005b34801561037f57600080fd5b5061039a60048036038101906103959190613f5f565b610d16565b005b3480156103a857600080fd5b506103c360048036038101906103be9190613fde565b610d76565b005b3480156103d157600080fd5b506103ec60048036038101906103e79190613ef5565b610dca565b6040516103f99190613f44565b60405180910390f35b34801561040e57600080fd5b506104296004803603810190610424919061401e565b610e6f565b6040516104369190613d34565b60405180910390f35b34801561044b57600080fd5b506104666004803603810190610461919061401e565b610e8f565b6040516104739190613f44565b60405180910390f35b34801561048857600080fd5b50610491610f4d565b60405161049e9190614109565b60405180910390f35b3480156104b357600080fd5b506104ce60048036038101906104c99190613f5f565b610fdb565b005b3480156104dc57600080fd5b506104f760048036038101906104f29190613e40565b610ffb565b6040516105049190614109565b60405180910390f35b34801561051957600080fd5b50610534600480360381019061052f9190613e40565b6111e2565b6040516105419190613f44565b60405180910390f35b34801561055657600080fd5b50610571600480360381019061056c9190613e40565b611253565b60405161057e9190613eae565b60405180910390f35b34801561059357600080fd5b506105ae60048036038101906105a9919061401e565b611305565b6040516105bb9190613f44565b60405180910390f35b3480156105d057600080fd5b506105d96113bd565b005b6105f560048036038101906105f09190613e40565b611445565b005b34801561060357600080fd5b5061060c611532565b6040516106199190613eae565b60405180910390f35b34801561062e57600080fd5b5061063761155c565b6040516106449190613f44565b60405180910390f35b34801561065957600080fd5b50610662611562565b60405161066f9190613de8565b60405180910390f35b34801561068457600080fd5b5061069f600480360381019061069a9190614260565b6115f4565b005b3480156106ad57600080fd5b506106c860048036038101906106c39190613e40565b611680565b6040516106d59190613eae565b60405180910390f35b3480156106ea57600080fd5b5061070560048036038101906107009190613e40565b6116bf565b6040516107129190614430565b60405180910390f35b34801561072757600080fd5b50610742600480360381019061073d9190614452565b61188a565b005b34801561075057600080fd5b5061076b60048036038101906107669190613e40565b6118a0565b6040516107789190613eae565b60405180910390f35b34801561078d57600080fd5b506107a860048036038101906107a3919061401e565b611969565b6040516107b59190613f44565b60405180910390f35b3480156107ca57600080fd5b506107e560048036038101906107e09190613e40565b611987565b6040516107f2919061451c565b60405180910390f35b34801561080757600080fd5b50610822600480360381019061081d9190614537565b611a4d565b005b34801561083057600080fd5b5061084b6004803603810190610846919061462b565b611aa3565b005b34801561085957600080fd5b50610874600480360381019061086f9190613e40565b611b05565b6040516108819190613de8565b60405180910390f35b34801561089657600080fd5b506108b160048036038101906108ac9190613e40565b611bac565b005b3480156108bf57600080fd5b506108c8611bde565b6040516108d59190613f44565b60405180910390f35b3480156108ea57600080fd5b50610905600480360381019061090091906146ae565b611bef565b6040516109129190613d34565b60405180910390f35b34801561092757600080fd5b50610942600480360381019061093d91906146ee565b611c83565b005b34801561095057600080fd5b5061096b6004803603810190610966919061401e565b611d11565b005b34801561097957600080fd5b50610994600480360381019061098f919061401e565b611e09565b6040516109a1919061485d565b60405180910390f35b60007f780e9d63000000000000000000000000000000000000000000000000000000007bffffffffffffffffffffffffffffffffffffffffffffffffffffffff1916827bffffffffffffffffffffffffffffffffffffffffffffffffffffffff19161480610a1d5750610a1c82611eca565b5b9050919050565b606060008054610a33906148ae565b80601f0160208091040260200160405190810160405280929190818152602001828054610a5f906148ae565b8015610aac5780601f10610a8157610100808354040283529160200191610aac565b820191906000526020600020905b815481529060010190602001808311610a8f57829003601f168201915b5050505050905090565b6000610ac182611fac565b610b00576040517f08c379a0000000000000000000000000000000000000000000000000000000008152600401610af790614952565b60405180910390fd5b6004600083815260200190815260200160002060009054906101000a900473ffffffffffffffffffffffffffffffffffffffff169050919050565b6000610b4682611253565b90508073ffffffffffffffffffffffffffffffffffffffff168373ffffffffffffffffffffffffffffffffffffffff161415610bb7576040517f08c379a0000000000000000000000000000000000000000000000000000000008152600401610bae906149e4565b60405180910390fd5b8073ffffffffffffffffffffffffffffffffffffffff16610bd6612018565b73ffffffffffffffffffffffffffffffffffffffff161480610c055750610c0481610bff612018565b611bef565b5b610c44576040517f08c379a0000000000000000000000000000000000000000000000000000000008152600401610c3b90614a76565b60405180910390fd5b610c4e8383612020565b505050565b610c5b612018565b73ffffffffffffffffffffffffffffffffffffffff16610c79611532565b73ffffffffffffffffffffffffffffffffffffffff1614610ccf576040517f08c379a0000000000000000000000000000000000000000000000000000000008152600401610cc690614ae2565b60405180910390fd5b8060128190555050565b6000600880549050905090565b610cf18133346120d9565b610cfb8133612326565b506000610d06610cd9565b9050610d12338261235f565b5050565b610d27610d21612018565b826124df565b610d66576040517f08c379a0000000000000000000000000000000000000000000000000000000008152600401610d5d90614b74565b60405180910390fd5b610d718383836125bd565b505050565b6000610d8183611253565b90503373ffffffffffffffffffffffffffffffffffffffff168173ffffffffffffffffffffffffffffffffffffffff1614610dbb57600080fd5b610dc58383612819565b505050565b6000610dd583611305565b8210610e16576040517f08c379a0000000000000000000000000000000000000000000000000000000008152600401610e0d90614c06565b60405180910390fd5b600660008473ffffffffffffffffffffffffffffffffffffffff1673ffffffffffffffffffffffffffffffffffffffff168152602001908152602001600020600083815260200190815260200160002054905092915050565b600e6020528060005260406000206000915054906101000a900460ff1681565b600080601060008473ffffffffffffffffffffffffffffffffffffffff1673ffffffffffffffffffffffffffffffffffffffff1681526020019081526020016000206040518060400160405290816000820154815260200160018201805480602002602001604051908101604052809291908181526020018280548015610f3557602002820191906000526020600020905b815481526020019060010190808311610f21575b50505050508152505090508060000151915050919050565b6060600f805480602002602001604051908101604052809291908181526020018280548015610fd157602002820191906000526020600020905b8160009054906101000a900473ffffffffffffffffffffffffffffffffffffffff1673ffffffffffffffffffffffffffffffffffffffff1681526020019060010190808311610f87575b5050505050905090565b610ff683838360405180602001604052806000815250611aa3565b505050565b606081611008600c612851565b81111561101457600080fd5b6000600d60008581526020019081526020016000206040518060a00160405290816000820160009054906101000a900473ffffffffffffffffffffffffffffffffffffffff1673ffffffffffffffffffffffffffffffffffffffff1673ffffffffffffffffffffffffffffffffffffffff168152602001600182015481526020016002820180546110a4906148ae565b80601f01602080910402602001604051908101604052809291908181526020018280546110d0906148ae565b801561111d5780601f106110f25761010080835404028352916020019161111d565b820191906000526020600020905b81548152906001019060200180831161110057829003601f168201915b50505050508152602001600382016040518060200160405290816000820154815250508152602001600482018054806020026020016040519081016040528092919081815260200182805480156111c957602002820191906000526020600020905b8160009054906101000a900473ffffffffffffffffffffffffffffffffffffffff1673ffffffffffffffffffffffffffffffffffffffff168152602001906001019080831161117f575b5050505050815250509050806080015192505050919050565b60006111ec610cd9565b821061122d576040517f08c379a000000000000000000000000000000000000000000000000000000000815260040161122490614c98565b60405180910390fd5b6008828154811061124157611240614cb8565b5b90600052602060002001549050919050565b6000806002600084815260200190815260200160002060009054906101000a900473ffffffffffffffffffffffffffffffffffffffff169050600073ffffffffffffffffffffffffffffffffffffffff168173ffffffffffffffffffffffffffffffffffffffff1614156112fc576040517f08c379a00000000000000000000000000000000000000000000000000000000081526004016112f390614d59565b60405180910390fd5b80915050919050565b60008073ffffffffffffffffffffffffffffffffffffffff168273ffffffffffffffffffffffffffffffffffffffff161415611376576040517f08c379a000000000000000000000000000000000000000000000000000000000815260040161136d90614deb565b60405180910390fd5b600360008373ffffffffffffffffffffffffffffffffffffffff1673ffffffffffffffffffffffffffffffffffffffff168152602001908152602001600020549050919050565b6113c5612018565b73ffffffffffffffffffffffffffffffffffffffff166113e3611532565b73ffffffffffffffffffffffffffffffffffffffff1614611439576040517f08c379a000000000000000000000000000000000000000000000000000000000815260040161143090614ae2565b60405180910390fd5b611443600061285f565b565b336012546000601060008473ffffffffffffffffffffffffffffffffffffffff1673ffffffffffffffffffffffffffffffffffffffff16815260200190815260200160002060405180604001604052908160008201548152602001600182018054806020026020016040519081016040528092919081815260200182805480156114ee57602002820191906000526020600020905b8154815260200190600101908083116114da575b50505050508152505090508060000151821161150957600080fd5b600061151485611253565b905061152285823334612925565b61152b33612a3e565b5050505050565b6000601160009054906101000a900473ffffffffffffffffffffffffffffffffffffffff16905090565b60125481565b606060018054611571906148ae565b80601f016020809104026020016040519081016040528092919081815260200182805461159d906148ae565b80156115ea5780601f106115bf576101008083540402835291602001916115ea565b820191906000526020600020905b8154815290600101906020018083116115cd57829003601f168201915b5050505050905090565b6115fc612018565b73ffffffffffffffffffffffffffffffffffffffff1661161a611532565b73ffffffffffffffffffffffffffffffffffffffff1614611670576040517f08c379a000000000000000000000000000000000000000000000000000000000815260040161166790614ae2565b60405180910390fd5b61167b838383612a9f565b505050565b600f818154811061169057600080fd5b906000526020600020016000915054906101000a900473ffffffffffffffffffffffffffffffffffffffff1681565b6116c7613b17565b600d60008381526020019081526020016000206040518060a00160405290816000820160009054906101000a900473ffffffffffffffffffffffffffffffffffffffff1673ffffffffffffffffffffffffffffffffffffffff1673ffffffffffffffffffffffffffffffffffffffff16815260200160018201548152602001600282018054611755906148ae565b80601f0160208091040260200160405190810160405280929190818152602001828054611781906148ae565b80156117ce5780601f106117a3576101008083540402835291602001916117ce565b820191906000526020600020905b8154815290600101906020018083116117b157829003601f168201915b505050505081526020016003820160405180602001604052908160008201548152505081526020016004820180548060200260200160405190810160405280929190818152602001828054801561187a57602002820191906000526020600020905b8160009054906101000a900473ffffffffffffffffffffffffffffffffffffffff1673ffffffffffffffffffffffffffffffffffffffff1681526020019060010190808311611830575b5050505050815250509050919050565b61189c611895612018565b8383612b34565b5050565b600080600a60008481526020019081526020016000206040518060c00160405290816000820160009054906101000a900473ffffffffffffffffffffffffffffffffffffffff1673ffffffffffffffffffffffffffffffffffffffff1673ffffffffffffffffffffffffffffffffffffffff168152602001600182015481526020016002820160009054906101000a900460ff16151515158152602001600382015481526020016004820154815260200160058201548152505090508060000151915050919050565b60106020528060005260406000206000915090508060000154905081565b61198f613b62565b600a60008381526020019081526020016000206040518060c00160405290816000820160009054906101000a900473ffffffffffffffffffffffffffffffffffffffff1673ffffffffffffffffffffffffffffffffffffffff1673ffffffffffffffffffffffffffffffffffffffff168152602001600182015481526020016002820160009054906101000a900460ff1615151515815260200160038201548152602001600482015481526020016005820154815250509050919050565b6000611a5884611253565b90503373ffffffffffffffffffffffffffffffffffffffff168173ffffffffffffffffffffffffffffffffffffffff1614611a9257600080fd5b611a9d848484612ca1565b50505050565b611ab4611aae612018565b836124df565b611af3576040517f08c379a0000000000000000000000000000000000000000000000000000000008152600401611aea90614b74565b60405180910390fd5b611aff84848484612cd0565b50505050565b6060611b1082611fac565b611b4f576040517f08c379a0000000000000000000000000000000000000000000000000000000008152600401611b4690614e7d565b60405180910390fd5b6000611b59612d2c565b90506000815111611b795760405180602001604052806000815250611ba4565b80611b8384612d43565b604051602001611b94929190614ed9565b6040516020818303038152906040525b915050919050565b6000611bb782611253565b90506000611bc4836118a0565b9050611bd08383612ea4565b611bd981612fbc565b505050565b6000611bea600c612851565b905090565b6000600560008473ffffffffffffffffffffffffffffffffffffffff1673ffffffffffffffffffffffffffffffffffffffff16815260200190815260200160002060008373ffffffffffffffffffffffffffffffffffffffff1673ffffffffffffffffffffffffffffffffffffffff16815260200190815260200160002060009054906101000a900460ff16905092915050565b611c8b612018565b73ffffffffffffffffffffffffffffffffffffffff16611ca9611532565b73ffffffffffffffffffffffffffffffffffffffff1614611cff576040517f08c379a0000000000000000000000000000000000000000000000000000000008152600401611cf690614ae2565b60405180910390fd5b611d0b8484848461301d565b50505050565b611d19612018565b73ffffffffffffffffffffffffffffffffffffffff16611d37611532565b73ffffffffffffffffffffffffffffffffffffffff1614611d8d576040517f08c379a0000000000000000000000000000000000000000000000000000000008152600401611d8490614ae2565b60405180910390fd5b600073ffffffffffffffffffffffffffffffffffffffff168173ffffffffffffffffffffffffffffffffffffffff161415611dfd576040517f08c379a0000000000000000000000000000000000000000000000000000000008152600401611df490614f6f565b60405180910390fd5b611e068161285f565b50565b611e11613bb0565b6000601060008473ffffffffffffffffffffffffffffffffffffffff1673ffffffffffffffffffffffffffffffffffffffff1681526020019081526020016000206040518060400160405290816000820154815260200160018201805480602002602001604051908101604052809291908181526020018280548015611eb657602002820191906000526020600020905b815481526020019060010190808311611ea2575b505050505081525050905080915050919050565b60007f80ac58cd000000000000000000000000000000000000000000000000000000007bffffffffffffffffffffffffffffffffffffffffffffffffffffffff1916827bffffffffffffffffffffffffffffffffffffffffffffffffffffffff19161480611f9557507f5b5e139f000000000000000000000000000000000000000000000000000000007bffffffffffffffffffffffffffffffffffffffffffffffffffffffff1916827bffffffffffffffffffffffffffffffffffffffffffffffffffffffff1916145b80611fa55750611fa4826130a0565b5b9050919050565b60008073ffffffffffffffffffffffffffffffffffffffff166002600084815260200190815260200160002060009054906101000a900473ffffffffffffffffffffffffffffffffffffffff1673ffffffffffffffffffffffffffffffffffffffff1614159050919050565b600033905090565b816004600083815260200190815260200160002060006101000a81548173ffffffffffffffffffffffffffffffffffffffff021916908373ffffffffffffffffffffffffffffffffffffffff160217905550808273ffffffffffffffffffffffffffffffffffffffff1661209383611253565b73ffffffffffffffffffffffffffffffffffffffff167f8c5be1e5ebec7d5bd14f71427d1e84f3dd0314c0f7b2291e5b200ac8c7c3b92560405160405180910390a45050565b826120e4600c612851565b8111156120f057600080fd5b6000600d600086815260200190815260200160002090506122ba816040518060a00160405290816000820160009054906101000a900473ffffffffffffffffffffffffffffffffffffffff1673ffffffffffffffffffffffffffffffffffffffff1673ffffffffffffffffffffffffffffffffffffffff16815260200160018201548152602001600282018054612186906148ae565b80601f01602080910402602001604051908101604052809291908181526020018280546121b2906148ae565b80156121ff5780601f106121d4576101008083540402835291602001916121ff565b820191906000526020600020905b8154815290600101906020018083116121e257829003601f168201915b50505050508152602001600382016040518060200160405290816000820154815250508152602001600482018054806020026020016040519081016040528092919081815260200182805480156122ab57602002820191906000526020600020905b8160009054906101000a900473ffffffffffffffffffffffffffffffffffffffff1673ffffffffffffffffffffffffffffffffffffffff1681526020019060010190808311612261575b5050505050815250508461310a565b80600401849080600181540180825580915050600190039060005260206000200160009091909190916101000a81548173ffffffffffffffffffffffffffffffffffffffff021916908373ffffffffffffffffffffffffffffffffffffffff1602179055505050505050565b6000612332600b61311e565b600061233e600b612851565b905061234a8382613134565b612355818486613152565b8091505092915050565b600e60008373ffffffffffffffffffffffffffffffffffffffff1673ffffffffffffffffffffffffffffffffffffffff16815260200190815260200160002060009054906101000a900460ff1661246c57600f829080600181540180825580915050600190039060005260206000200160009091909190916101000a81548173ffffffffffffffffffffffffffffffffffffffff021916908373ffffffffffffffffffffffffffffffffffffffff1602179055506001600e60008473ffffffffffffffffffffffffffffffffffffffff1673ffffffffffffffffffffffffffffffffffffffff16815260200190815260200160002060006101000a81548160ff0219169083151502179055505b6000601060008473ffffffffffffffffffffffffffffffffffffffff1673ffffffffffffffffffffffffffffffffffffffff168152602001908152602001600020905080600101829080600181540180825580915050600190039060005260206000200160009091909190915055505050565b60006124ea82611fac565b612529576040517f08c379a000000000000000000000000000000000000000000000000000000000815260040161252090615001565b60405180910390fd5b600061253483611253565b90508073ffffffffffffffffffffffffffffffffffffffff168473ffffffffffffffffffffffffffffffffffffffff1614806125a357508373ffffffffffffffffffffffffffffffffffffffff1661258b84610ab6565b73ffffffffffffffffffffffffffffffffffffffff16145b806125b457506125b38185611bef565b5b91505092915050565b8273ffffffffffffffffffffffffffffffffffffffff166125dd82611253565b73ffffffffffffffffffffffffffffffffffffffff1614612633576040517f08c379a000000000000000000000000000000000000000000000000000000000815260040161262a90615093565b60405180910390fd5b600073ffffffffffffffffffffffffffffffffffffffff168273ffffffffffffffffffffffffffffffffffffffff1614156126a3576040517f08c379a000000000000000000000000000000000000000000000000000000000815260040161269a90615125565b60405180910390fd5b6126ae8383836131f6565b6126b9600082612020565b6001600360008573ffffffffffffffffffffffffffffffffffffffff1673ffffffffffffffffffffffffffffffffffffffff16815260200190815260200160002060008282546127099190615174565b925050819055506001600360008473ffffffffffffffffffffffffffffffffffffffff1673ffffffffffffffffffffffffffffffffffffffff168152602001908152602001600020600082825461276091906151a8565b92505081905550816002600083815260200190815260200160002060006101000a81548173ffffffffffffffffffffffffffffffffffffffff021916908373ffffffffffffffffffffffffffffffffffffffff160217905550808273ffffffffffffffffffffffffffffffffffffffff168473ffffffffffffffffffffffffffffffffffffffff167fddf252ad1be2c89b69c2b068fc378daa952ba7f163c4a11628f55a4df523b3ef60405160405180910390a4505050565b6000600a60008481526020019081526020016000209050818160020160006101000a81548160ff021916908315150217905550505050565b600081600001549050919050565b6000601160009054906101000a900473ffffffffffffffffffffffffffffffffffffffff16905081601160006101000a81548173ffffffffffffffffffffffffffffffffffffffff021916908373ffffffffffffffffffffffffffffffffffffffff1602179055508173ffffffffffffffffffffffffffffffffffffffff168173ffffffffffffffffffffffffffffffffffffffff167f8be0079c531659141344cd1fd0a4f28419497f9722a3daafe3b4186f6b6457e060405160405180910390a35050565b6000600a600086815260200190815260200160002090506129eb816040518060c00160405290816000820160009054906101000a900473ffffffffffffffffffffffffffffffffffffffff1673ffffffffffffffffffffffffffffffffffffffff1673ffffffffffffffffffffffffffffffffffffffff168152602001600182015481526020016002820160009054906101000a900460ff161515151581526020016003820154815260200160048201548152602001600582015481525050858461330a565b828160000160006101000a81548173ffffffffffffffffffffffffffffffffffffffff021916908373ffffffffffffffffffffffffffffffffffffffff1602179055504281600501819055505050505050565b6000601060008373ffffffffffffffffffffffffffffffffffffffff1673ffffffffffffffffffffffffffffffffffffffff1681526020019081526020016000209050806000016000815480929190612a96906151fe565b91905055505050565b612aa9600c61311e565b6000600d6000612ab9600c612851565b8152602001908152602001600020905081816002019080519060200190612ae1929190613bca565b50838160000160006101000a81548173ffffffffffffffffffffffffffffffffffffffff021916908373ffffffffffffffffffffffffffffffffffffffff16021790555082816001018190555050505050565b8173ffffffffffffffffffffffffffffffffffffffff168373ffffffffffffffffffffffffffffffffffffffff161415612ba3576040517f08c379a0000000000000000000000000000000000000000000000000000000008152600401612b9a90615293565b60405180910390fd5b80600560008573ffffffffffffffffffffffffffffffffffffffff1673ffffffffffffffffffffffffffffffffffffffff16815260200190815260200160002060008473ffffffffffffffffffffffffffffffffffffffff1673ffffffffffffffffffffffffffffffffffffffff16815260200190815260200160002060006101000a81548160ff0219169083151502179055508173ffffffffffffffffffffffffffffffffffffffff168373ffffffffffffffffffffffffffffffffffffffff167f17307eab39ab6107e8899845ad3d59bd9653f200f220920489ca2b5937696c3183604051612c949190613d34565b60405180910390a3505050565b6000600a6000858152602001908152602001600020905082816003018190555081816004018190555050505050565b612cdb8484846125bd565b612ce784848484613369565b612d26576040517f08c379a0000000000000000000000000000000000000000000000000000000008152600401612d1d90615325565b60405180910390fd5b50505050565b606060405180602001604052806000815250905090565b60606000821415612d8b576040518060400160405280600181526020017f30000000000000000000000000000000000000000000000000000000000000008152509050612e9f565b600082905060005b60008214612dbd578080612da6906151fe565b915050600a82612db69190615374565b9150612d93565b60008167ffffffffffffffff811115612dd957612dd8614135565b5b6040519080825280601f01601f191660200182016040528015612e0b5781602001600182028036833780820191505090505b5090505b60008514612e9857600182612e249190615174565b9150600a85612e3391906153a5565b6030612e3f91906151a8565b60f81b818381518110612e5557612e54614cb8565b5b60200101907effffffffffffffffffffffffffffffffffffffffffffffffffffffffffffff1916908160001a905350600a85612e919190615374565b9450612e0f565b8093505050505b919050565b6000600a60008481526020019081526020016000209050612f6a816040518060c00160405290816000820160009054906101000a900473ffffffffffffffffffffffffffffffffffffffff1673ffffffffffffffffffffffffffffffffffffffff1673ffffffffffffffffffffffffffffffffffffffff168152602001600182015481526020016002820160009054906101000a900460ff16151515158152602001600382015481526020016004820154815260200160058201548152505083336134f1565b818160000160006101000a81548173ffffffffffffffffffffffffffffffffffffffff021916908373ffffffffffffffffffffffffffffffffffffffff16021790555060008160050181905550505050565b6000601060008373ffffffffffffffffffffffffffffffffffffffff1673ffffffffffffffffffffffffffffffffffffffff1681526020019081526020016000209050806000016000815480929190613014906153d6565b91905055505050565b6000600d600086815260200190815260200160002090508181600201908051906020019061304c929190613bca565b50838160000160006101000a81548173ffffffffffffffffffffffffffffffffffffffff021916908373ffffffffffffffffffffffffffffffffffffffff1602179055508281600101819055505050505050565b60007f01ffc9a7000000000000000000000000000000000000000000000000000000007bffffffffffffffffffffffffffffffffffffffffffffffffffffffff1916827bffffffffffffffffffffffffffffffffffffffffffffffffffffffff1916149050919050565b8082602001511461311a57600080fd5b5050565b6001816000016000828254019250508190555050565b61314e8282604051806020016040528060008152506135d0565b5050565b6000600a60008581526020019081526020016000209050828160000160006101000a81548173ffffffffffffffffffffffffffffffffffffffff021916908373ffffffffffffffffffffffffffffffffffffffff16021790555081816001018190555060018160020160006101000a81548160ff02191690831515021790555060018160030181905550600081600401819055506000816005018190555050505050565b61320183838361362b565b600073ffffffffffffffffffffffffffffffffffffffff168373ffffffffffffffffffffffffffffffffffffffff1614156132445761323f81613630565b613283565b8173ffffffffffffffffffffffffffffffffffffffff168373ffffffffffffffffffffffffffffffffffffffff1614613282576132818382613679565b5b5b600073ffffffffffffffffffffffffffffffffffffffff168273ffffffffffffffffffffffffffffffffffffffff1614156132c6576132c1816137e6565b613305565b8273ffffffffffffffffffffffffffffffffffffffff168273ffffffffffffffffffffffffffffffffffffffff16146133045761330382826138b7565b5b5b505050565b8173ffffffffffffffffffffffffffffffffffffffff16836000015173ffffffffffffffffffffffffffffffffffffffff161461334657600080fd5b8083608001511461335657600080fd5b826040015161336457600080fd5b505050565b600061338a8473ffffffffffffffffffffffffffffffffffffffff16613936565b156134e4578373ffffffffffffffffffffffffffffffffffffffff1663150b7a026133b3612018565b8786866040518563ffffffff1660e01b81526004016133d59493929190615455565b6020604051808303816000875af192505050801561341157506040513d601f19601f8201168201806040525081019061340e91906154b6565b60015b613494573d8060008114613441576040519150601f19603f3d011682016040523d82523d6000602084013e613446565b606091505b5060008151141561348c576040517f08c379a000000000000000000000000000000000000000000000000000000000815260040161348390615325565b60405180910390fd5b805181602001fd5b63150b7a0260e01b7bffffffffffffffffffffffffffffffffffffffffffffffffffffffff1916817bffffffffffffffffffffffffffffffffffffffffffffffffffffffff1916149150506134e9565b600190505b949350505050565b6001836060015161350291906154e3565b8360a0015161351191906151a8565b421061358e578073ffffffffffffffffffffffffffffffffffffffff16836000015173ffffffffffffffffffffffffffffffffffffffff16148061358057508073ffffffffffffffffffffffffffffffffffffffff168273ffffffffffffffffffffffffffffffffffffffff16145b61358957600080fd5b6135cb565b8073ffffffffffffffffffffffffffffffffffffffff16836000015173ffffffffffffffffffffffffffffffffffffffff16146135ca57600080fd5b5b505050565b6135da8383613949565b6135e76000848484613369565b613626576040517f08c379a000000000000000000000000000000000000000000000000000000000815260040161361d90615325565b60405180910390fd5b505050565b505050565b6008805490506009600083815260200190815260200160002081905550600881908060018154018082558091505060019003906000526020600020016000909190919091505550565b6000600161368684611305565b6136909190615174565b9050600060076000848152602001908152602001600020549050818114613775576000600660008673ffffffffffffffffffffffffffffffffffffffff1673ffffffffffffffffffffffffffffffffffffffff168152602001908152602001600020600084815260200190815260200160002054905080600660008773ffffffffffffffffffffffffffffffffffffffff1673ffffffffffffffffffffffffffffffffffffffff168152602001908152602001600020600084815260200190815260200160002081905550816007600083815260200190815260200160002081905550505b6007600084815260200190815260200160002060009055600660008573ffffffffffffffffffffffffffffffffffffffff1673ffffffffffffffffffffffffffffffffffffffff16815260200190815260200160002060008381526020019081526020016000206000905550505050565b600060016008805490506137fa9190615174565b905060006009600084815260200190815260200160002054905060006008838154811061382a57613829614cb8565b5b90600052602060002001549050806008838154811061384c5761384b614cb8565b5b90600052602060002001819055508160096000838152602001908152602001600020819055506009600085815260200190815260200160002060009055600880548061389b5761389a61553d565b5b6001900381819060005260206000200160009055905550505050565b60006138c283611305565b905081600660008573ffffffffffffffffffffffffffffffffffffffff1673ffffffffffffffffffffffffffffffffffffffff168152602001908152602001600020600083815260200190815260200160002081905550806007600084815260200190815260200160002081905550505050565b600080823b905060008111915050919050565b600073ffffffffffffffffffffffffffffffffffffffff168273ffffffffffffffffffffffffffffffffffffffff1614156139b9576040517f08c379a00000000000000000000000000000000000000000000000000000000081526004016139b0906155b8565b60405180910390fd5b6139c281611fac565b15613a02576040517f08c379a00000000000000000000000000000000000000000000000000000000081526004016139f990615624565b60405180910390fd5b613a0e600083836131f6565b6001600360008473ffffffffffffffffffffffffffffffffffffffff1673ffffffffffffffffffffffffffffffffffffffff1681526020019081526020016000206000828254613a5e91906151a8565b92505081905550816002600083815260200190815260200160002060006101000a81548173ffffffffffffffffffffffffffffffffffffffff021916908373ffffffffffffffffffffffffffffffffffffffff160217905550808273ffffffffffffffffffffffffffffffffffffffff16600073ffffffffffffffffffffffffffffffffffffffff167fddf252ad1be2c89b69c2b068fc378daa952ba7f163c4a11628f55a4df523b3ef60405160405180910390a45050565b6040518060a00160405280600073ffffffffffffffffffffffffffffffffffffffff1681526020016000815260200160608152602001613b55613c50565b8152602001606081525090565b6040518060c00160405280600073ffffffffffffffffffffffffffffffffffffffff168152602001600081526020016000151581526020016000815260200160008152602001600081525090565b604051806040016040528060008152602001606081525090565b828054613bd6906148ae565b90600052602060002090601f016020900481019282613bf85760008555613c3f565b82601f10613c1157805160ff1916838001178555613c3f565b82800160010185558215613c3f579182015b82811115613c3e578251825591602001919060010190613c23565b5b509050613c4c9190613c63565b5090565b6040518060200160405280600081525090565b5b80821115613c7c576000816000905550600101613c64565b5090565b6000604051905090565b600080fd5b600080fd5b60007fffffffff0000000000000000000000000000000000000000000000000000000082169050919050565b613cc981613c94565b8114613cd457600080fd5b50565b600081359050613ce681613cc0565b92915050565b600060208284031215613d0257613d01613c8a565b5b6000613d1084828501613cd7565b91505092915050565b60008115159050919050565b613d2e81613d19565b82525050565b6000602082019050613d496000830184613d25565b92915050565b600081519050919050565b600082825260208201905092915050565b60005b83811015613d89578082015181840152602081019050613d6e565b83811115613d98576000848401525b50505050565b6000601f19601f8301169050919050565b6000613dba82613d4f565b613dc48185613d5a565b9350613dd4818560208601613d6b565b613ddd81613d9e565b840191505092915050565b60006020820190508181036000830152613e028184613daf565b905092915050565b6000819050919050565b613e1d81613e0a565b8114613e2857600080fd5b50565b600081359050613e3a81613e14565b92915050565b600060208284031215613e5657613e55613c8a565b5b6000613e6484828501613e2b565b91505092915050565b600073ffffffffffffffffffffffffffffffffffffffff82169050919050565b6000613e9882613e6d565b9050919050565b613ea881613e8d565b82525050565b6000602082019050613ec36000830184613e9f565b92915050565b613ed281613e8d565b8114613edd57600080fd5b50565b600081359050613eef81613ec9565b92915050565b60008060408385031215613f0c57613f0b613c8a565b5b6000613f1a85828601613ee0565b9250506020613f2b85828601613e2b565b9150509250929050565b613f3e81613e0a565b82525050565b6000602082019050613f596000830184613f35565b92915050565b600080600060608486031215613f7857613f77613c8a565b5b6000613f8686828701613ee0565b9350506020613f9786828701613ee0565b9250506040613fa886828701613e2b565b9150509250925092565b613fbb81613d19565b8114613fc657600080fd5b50565b600081359050613fd881613fb2565b92915050565b60008060408385031215613ff557613ff4613c8a565b5b600061400385828601613e2b565b925050602061401485828601613fc9565b9150509250929050565b60006020828403121561403457614033613c8a565b5b600061404284828501613ee0565b91505092915050565b600081519050919050565b600082825260208201905092915050565b6000819050602082019050919050565b61408081613e8d565b82525050565b60006140928383614077565b60208301905092915050565b6000602082019050919050565b60006140b68261404b565b6140c08185614056565b93506140cb83614067565b8060005b838110156140fc5781516140e38882614086565b97506140ee8361409e565b9250506001810190506140cf565b5085935050505092915050565b6000602082019050818103600083015261412381846140ab565b905092915050565b600080fd5b600080fd5b7f4e487b7100000000000000000000000000000000000000000000000000000000600052604160045260246000fd5b61416d82613d9e565b810181811067ffffffffffffffff8211171561418c5761418b614135565b5b80604052505050565b600061419f613c80565b90506141ab8282614164565b919050565b600067ffffffffffffffff8211156141cb576141ca614135565b5b6141d482613d9e565b9050602081019050919050565b82818337600083830152505050565b60006142036141fe846141b0565b614195565b90508281526020810184848401111561421f5761421e614130565b5b61422a8482856141e1565b509392505050565b600082601f8301126142475761424661412b565b5b81356142578482602086016141f0565b91505092915050565b60008060006060848603121561427957614278613c8a565b5b600061428786828701613ee0565b935050602061429886828701613e2b565b925050604084013567ffffffffffffffff8111156142b9576142b8613c8f565b5b6142c586828701614232565b9150509250925092565b6142d881613e0a565b82525050565b600082825260208201905092915050565b60006142fa82613d4f565b61430481856142de565b9350614314818560208601613d6b565b61431d81613d9e565b840191505092915050565b60208201600082015161433e60008501826142cf565b50505050565b600082825260208201905092915050565b60006143608261404b565b61436a8185614344565b935061437583614067565b8060005b838110156143a657815161438d8882614086565b97506143988361409e565b925050600181019050614379565b5085935050505092915050565b600060a0830160008301516143cb6000860182614077565b5060208301516143de60208601826142cf565b50604083015184820360408601526143f682826142ef565b915050606083015161440b6060860182614328565b50608083015184820360808601526144238282614355565b9150508091505092915050565b6000602082019050818103600083015261444a81846143b3565b905092915050565b6000806040838503121561446957614468613c8a565b5b600061447785828601613ee0565b925050602061448885828601613fc9565b9150509250929050565b61449b81613d19565b82525050565b60c0820160008201516144b76000850182614077565b5060208201516144ca60208501826142cf565b5060408201516144dd6040850182614492565b5060608201516144f060608501826142cf565b50608082015161450360808501826142cf565b5060a082015161451660a08501826142cf565b50505050565b600060c08201905061453160008301846144a1565b92915050565b6000806000606084860312156145505761454f613c8a565b5b600061455e86828701613e2b565b935050602061456f86828701613e2b565b925050604061458086828701613e2b565b9150509250925092565b600067ffffffffffffffff8211156145a5576145a4614135565b5b6145ae82613d9e565b9050602081019050919050565b60006145ce6145c98461458a565b614195565b9050828152602081018484840111156145ea576145e9614130565b5b6145f58482856141e1565b509392505050565b600082601f8301126146125761461161412b565b5b81356146228482602086016145bb565b91505092915050565b6000806000806080858703121561464557614644613c8a565b5b600061465387828801613ee0565b945050602061466487828801613ee0565b935050604061467587828801613e2b565b925050606085013567ffffffffffffffff81111561469657614695613c8f565b5b6146a2878288016145fd565b91505092959194509250565b600080604083850312156146c5576146c4613c8a565b5b60006146d385828601613ee0565b92505060206146e485828601613ee0565b9150509250929050565b6000806000806080858703121561470857614707613c8a565b5b600061471687828801613e2b565b945050602061472787828801613ee0565b935050604061473887828801613e2b565b925050606085013567ffffffffffffffff81111561475957614758613c8f565b5b61476587828801614232565b91505092959194509250565b600081519050919050565b600082825260208201905092915050565b6000819050602082019050919050565b60006147a983836142cf565b60208301905092915050565b6000602082019050919050565b60006147cd82614771565b6147d7818561477c565b93506147e28361478d565b8060005b838110156148135781516147fa888261479d565b9750614805836147b5565b9250506001810190506147e6565b5085935050505092915050565b600060408301600083015161483860008601826142cf565b506020830151848203602086015261485082826147c2565b9150508091505092915050565b600060208201905081810360008301526148778184614820565b905092915050565b7f4e487b7100000000000000000000000000000000000000000000000000000000600052602260045260246000fd5b600060028204905060018216806148c657607f821691505b602082108114156148da576148d961487f565b5b50919050565b7f4552433732313a20617070726f76656420717565727920666f72206e6f6e657860008201527f697374656e7420746f6b656e0000000000000000000000000000000000000000602082015250565b600061493c602c83613d5a565b9150614947826148e0565b604082019050919050565b6000602082019050818103600083015261496b8161492f565b9050919050565b7f4552433732313a20617070726f76616c20746f2063757272656e74206f776e6560008201527f7200000000000000000000000000000000000000000000000000000000000000602082015250565b60006149ce602183613d5a565b91506149d982614972565b604082019050919050565b600060208201905081810360008301526149fd816149c1565b9050919050565b7f4552433732313a20617070726f76652063616c6c6572206973206e6f74206f7760008201527f6e6572206e6f7220617070726f76656420666f7220616c6c0000000000000000602082015250565b6000614a60603883613d5a565b9150614a6b82614a04565b604082019050919050565b60006020820190508181036000830152614a8f81614a53565b9050919050565b7f4f776e61626c653a2063616c6c6572206973206e6f7420746865206f776e6572600082015250565b6000614acc602083613d5a565b9150614ad782614a96565b602082019050919050565b60006020820190508181036000830152614afb81614abf565b9050919050565b7f4552433732313a207472616e736665722063616c6c6572206973206e6f74206f60008201527f776e6572206e6f7220617070726f766564000000000000000000000000000000602082015250565b6000614b5e603183613d5a565b9150614b6982614b02565b604082019050919050565b60006020820190508181036000830152614b8d81614b51565b9050919050565b7f455243373231456e756d657261626c653a206f776e657220696e646578206f7560008201527f74206f6620626f756e6473000000000000000000000000000000000000000000602082015250565b6000614bf0602b83613d5a565b9150614bfb82614b94565b604082019050919050565b60006020820190508181036000830152614c1f81614be3565b9050919050565b7f455243373231456e756d657261626c653a20676c6f62616c20696e646578206f60008201527f7574206f6620626f756e64730000000000000000000000000000000000000000602082015250565b6000614c82602c83613d5a565b9150614c8d82614c26565b604082019050919050565b60006020820190508181036000830152614cb181614c75565b9050919050565b7f4e487b7100000000000000000000000000000000000000000000000000000000600052603260045260246000fd5b7f4552433732313a206f776e657220717565727920666f72206e6f6e657869737460008201527f656e7420746f6b656e0000000000000000000000000000000000000000000000602082015250565b6000614d43602983613d5a565b9150614d4e82614ce7565b604082019050919050565b60006020820190508181036000830152614d7281614d36565b9050919050565b7f4552433732313a2062616c616e636520717565727920666f7220746865207a6560008201527f726f206164647265737300000000000000000000000000000000000000000000602082015250565b6000614dd5602a83613d5a565b9150614de082614d79565b604082019050919050565b60006020820190508181036000830152614e0481614dc8565b9050919050565b7f4552433732314d657461646174613a2055524920717565727920666f72206e6f60008201527f6e6578697374656e7420746f6b656e0000000000000000000000000000000000602082015250565b6000614e67602f83613d5a565b9150614e7282614e0b565b604082019050919050565b60006020820190508181036000830152614e9681614e5a565b9050919050565b600081905092915050565b6000614eb382613d4f565b614ebd8185614e9d565b9350614ecd818560208601613d6b565b80840191505092915050565b6000614ee58285614ea8565b9150614ef18284614ea8565b91508190509392505050565b7f4f776e61626c653a206e6577206f776e657220697320746865207a65726f206160008201527f6464726573730000000000000000000000000000000000000000000000000000602082015250565b6000614f59602683613d5a565b9150614f6482614efd565b604082019050919050565b60006020820190508181036000830152614f8881614f4c565b9050919050565b7f4552433732313a206f70657261746f7220717565727920666f72206e6f6e657860008201527f697374656e7420746f6b656e0000000000000000000000000000000000000000602082015250565b6000614feb602c83613d5a565b9150614ff682614f8f565b604082019050919050565b6000602082019050818103600083015261501a81614fde565b9050919050565b7f4552433732313a207472616e73666572206f6620746f6b656e2074686174206960008201527f73206e6f74206f776e0000000000000000000000000000000000000000000000602082015250565b600061507d602983613d5a565b915061508882615021565b604082019050919050565b600060208201905081810360008301526150ac81615070565b9050919050565b7f4552433732313a207472616e7366657220746f20746865207a65726f2061646460008201527f7265737300000000000000000000000000000000000000000000000000000000602082015250565b600061510f602483613d5a565b915061511a826150b3565b604082019050919050565b6000602082019050818103600083015261513e81615102565b9050919050565b7f4e487b7100000000000000000000000000000000000000000000000000000000600052601160045260246000fd5b600061517f82613e0a565b915061518a83613e0a565b92508282101561519d5761519c615145565b5b828203905092915050565b60006151b382613e0a565b91506151be83613e0a565b9250827fffffffffffffffffffffffffffffffffffffffffffffffffffffffffffffffff038211156151f3576151f2615145565b5b828201905092915050565b600061520982613e0a565b91507fffffffffffffffffffffffffffffffffffffffffffffffffffffffffffffffff82141561523c5761523b615145565b5b600182019050919050565b7f4552433732313a20617070726f766520746f2063616c6c657200000000000000600082015250565b600061527d601983613d5a565b915061528882615247565b602082019050919050565b600060208201905081810360008301526152ac81615270565b9050919050565b7f4552433732313a207472616e7366657220746f206e6f6e20455243373231526560008201527f63656976657220696d706c656d656e7465720000000000000000000000000000602082015250565b600061530f603283613d5a565b915061531a826152b3565b604082019050919050565b6000602082019050818103600083015261533e81615302565b9050919050565b7f4e487b7100000000000000000000000000000000000000000000000000000000600052601260045260246000fd5b600061537f82613e0a565b915061538a83613e0a565b92508261539a57615399615345565b5b828204905092915050565b60006153b082613e0a565b91506153bb83613e0a565b9250826153cb576153ca615345565b5b828206905092915050565b60006153e182613e0a565b915060008214156153f5576153f4615145565b5b600182039050919050565b600081519050919050565b600082825260208201905092915050565b600061542782615400565b615431818561540b565b9350615441818560208601613d6b565b61544a81613d9e565b840191505092915050565b600060808201905061546a6000830187613e9f565b6154776020830186613e9f565b6154846040830185613f35565b8181036060830152615496818461541c565b905095945050505050565b6000815190506154b081613cc0565b92915050565b6000602082840312156154cc576154cb613c8a565b5b60006154da848285016154a1565b91505092915050565b60006154ee82613e0a565b91506154f983613e0a565b9250817fffffffffffffffffffffffffffffffffffffffffffffffffffffffffffffffff048311821515161561553257615531615145565b5b828202905092915050565b7f4e487b7100000000000000000000000000000000000000000000000000000000600052603160045260246000fd5b7f4552433732313a206d696e7420746f20746865207a65726f2061646472657373600082015250565b60006155a2602083613d5a565b91506155ad8261556c565b602082019050919050565b600060208201905081810360008301526155d181615595565b9050919050565b7f4552433732313a20746f6b656e20616c7265616479206d696e74656400000000600082015250565b600061560e601c83613d5a565b9150615619826155d8565b602082019050919050565b6000602082019050818103600083015261563d81615601565b905091905056fea26469706673582212209cc3fba9f041d007830a498e7180ca04e101e8142c80adbc85cf57e5ff939b9e64736f6c634300080b0033",
  "immutableReferences": {},
  "source": "// SPDX-License-Identifier: MIT\npragma solidity 0.8.11;\n\nimport \"@openzeppelin/contracts/access/Ownable.sol\";\n\nimport './devs/TokenManager.sol';\nimport './devs/BookManager.sol';\nimport './devs/UserManager.sol';\n\n// all payable functions are to implement here\ncontract Library is TokenManager, BookManager, UserManager, Ownable{\n    uint public maxBorrowing;\n    constructor(uint _maxBorrowing){\n        maxBorrowing = _maxBorrowing;\n    }\n\n    // change max Borrowing number\n    function changeMaxBorrowing(uint _maxBorrowing) external onlyOwner {\n        maxBorrowing = _maxBorrowing;\n    }\n\n    // add book\n    function addBook(address _author, uint _price, string memory _title) external onlyOwner {\n        _addBook(_author, _price, _title);\n    }\n\n    // modify book\n    function modifyBook(uint _bookId,address _author, uint _price, string memory _title) external onlyOwner {\n        _modifyBook(_bookId,_author, _price, _title);\n    }\n\n    // purchase Book\n    function purchaseBook(uint _bookId) external payable {\n        _purchaseBook(_bookId, msg.sender , msg.value);\n        _purchaseToken(_bookId, msg.sender);\n        uint tokenId = totalSupply();\n        _userPurchase(msg.sender, tokenId);\n    }\n\n    // borrow Book\n    function borrowBook(uint _tokenId ) external restrictedBorrow(msg.sender, maxBorrowing) payable{\n        address owner = ownerOf(_tokenId);\n        _borrowToken(_tokenId, owner, msg.sender, msg.value);\n        _userBorrow(msg.sender);\n    }\n\n    // return Book\n    function returnBook(uint _tokenId) external {\n        address owner = ownerOf(_tokenId);\n        address borrower = getTokenBorrower(_tokenId);\n        _returnToken(_tokenId, owner);\n        _userReturn(borrower);\n    }\n\n    // configure token\n    function configBorrow(uint _tokenId, uint _period, uint _cost) external {\n        address owner = ownerOf(_tokenId);\n        require(owner == msg.sender);\n        _configBorrow(_tokenId, _period, _cost);\n    }\n    function changeBorrowAllowance(uint _tokenId, bool _isAllow) external {\n        address owner = ownerOf(_tokenId);\n        require(owner == msg.sender);\n        _changeBorrowAllowance(_tokenId, _isAllow);\n    }\n\n}",
  "sourcePath": "/Users/jin/workplace/ethereum/library/contracts/Library.sol",
  "compiler": {
    "name": "solc",
    "version": "0.8.11+commit.d7f03943.Emscripten.clang"
  },
  "schemaVersion": "3.4.4",
  "updatedAt": "2021-12-28T13:31:31.029Z",
  "devdoc": {
    "kind": "dev",
    "methods": {
      "approve(address,uint256)": {
        "details": "See {IERC721-approve}."
      },
      "balanceOf(address)": {
        "details": "See {IERC721-balanceOf}."
      },
      "getApproved(uint256)": {
        "details": "See {IERC721-getApproved}."
      },
      "isApprovedForAll(address,address)": {
        "details": "See {IERC721-isApprovedForAll}."
      },
      "name()": {
        "details": "See {IERC721Metadata-name}."
      },
      "owner()": {
        "details": "Returns the address of the current owner."
      },
      "ownerOf(uint256)": {
        "details": "See {IERC721-ownerOf}."
      },
      "renounceOwnership()": {
        "details": "Leaves the contract without owner. It will not be possible to call `onlyOwner` functions anymore. Can only be called by the current owner. NOTE: Renouncing ownership will leave the contract without an owner, thereby removing any functionality that is only available to the owner."
      },
      "safeTransferFrom(address,address,uint256)": {
        "details": "See {IERC721-safeTransferFrom}."
      },
      "safeTransferFrom(address,address,uint256,bytes)": {
        "details": "See {IERC721-safeTransferFrom}."
      },
      "setApprovalForAll(address,bool)": {
        "details": "See {IERC721-setApprovalForAll}."
      },
      "supportsInterface(bytes4)": {
        "details": "See {IERC165-supportsInterface}."
      },
      "symbol()": {
        "details": "See {IERC721Metadata-symbol}."
      },
      "tokenByIndex(uint256)": {
        "details": "See {IERC721Enumerable-tokenByIndex}."
      },
      "tokenOfOwnerByIndex(address,uint256)": {
        "details": "See {IERC721Enumerable-tokenOfOwnerByIndex}."
      },
      "tokenURI(uint256)": {
        "details": "See {IERC721Metadata-tokenURI}."
      },
      "totalSupply()": {
        "details": "See {IERC721Enumerable-totalSupply}."
      },
      "transferFrom(address,address,uint256)": {
        "details": "See {IERC721-transferFrom}."
      },
      "transferOwnership(address)": {
        "details": "Transfers ownership of the contract to a new account (`newOwner`). Can only be called by the current owner."
      }
    },
    "version": 1
  },
  "userdoc": {
    "kind": "user",
    "methods": {},
    "version": 1
  }
}