{
  "contractName": "Library",
  "abi": [
    {
      "inputs": [
        {
          "internalType": "uint256",
          "name": "_maxBorrowing",
          "type": "uint256"
        }
      ],
      "stateMutability": "nonpayable",
      "type": "constructor"
    },
    {
      "anonymous": false,
      "inputs": [
        {
          "indexed": true,
          "internalType": "address",
          "name": "owner",
          "type": "address"
        },
        {
          "indexed": true,
          "internalType": "address",
          "name": "approved",
          "type": "address"
        },
        {
          "indexed": true,
          "internalType": "uint256",
          "name": "tokenId",
          "type": "uint256"
        }
      ],
      "name": "Approval",
      "type": "event"
    },
    {
      "anonymous": false,
      "inputs": [
        {
          "indexed": true,
          "internalType": "address",
          "name": "owner",
          "type": "address"
        },
        {
          "indexed": true,
          "internalType": "address",
          "name": "operator",
          "type": "address"
        },
        {
          "indexed": false,
          "internalType": "bool",
          "name": "approved",
          "type": "bool"
        }
      ],
      "name": "ApprovalForAll",
      "type": "event"
    },
    {
      "anonymous": false,
      "inputs": [
        {
          "indexed": true,
          "internalType": "address",
          "name": "previousOwner",
          "type": "address"
        },
        {
          "indexed": true,
          "internalType": "address",
          "name": "newOwner",
          "type": "address"
        }
      ],
      "name": "OwnershipTransferred",
      "type": "event"
    },
    {
      "anonymous": false,
      "inputs": [
        {
          "indexed": true,
          "internalType": "address",
          "name": "from",
          "type": "address"
        },
        {
          "indexed": true,
          "internalType": "address",
          "name": "to",
          "type": "address"
        },
        {
          "indexed": true,
          "internalType": "uint256",
          "name": "tokenId",
          "type": "uint256"
        }
      ],
      "name": "Transfer",
      "type": "event"
    },
    {
      "inputs": [
        {
          "internalType": "address",
          "name": "to",
          "type": "address"
        },
        {
          "internalType": "uint256",
          "name": "tokenId",
          "type": "uint256"
        }
      ],
      "name": "approve",
      "outputs": [],
      "stateMutability": "nonpayable",
      "type": "function"
    },
    {
      "inputs": [
        {
          "internalType": "address",
          "name": "owner",
          "type": "address"
        }
      ],
      "name": "balanceOf",
      "outputs": [
        {
          "internalType": "uint256",
          "name": "",
          "type": "uint256"
        }
      ],
      "stateMutability": "view",
      "type": "function"
    },
    {
      "inputs": [
        {
          "internalType": "uint256",
          "name": "tokenId",
          "type": "uint256"
        }
      ],
      "name": "getApproved",
      "outputs": [
        {
          "internalType": "address",
          "name": "",
          "type": "address"
        }
      ],
      "stateMutability": "view",
      "type": "function"
    },
    {
      "inputs": [
        {
          "internalType": "uint256",
          "name": "_bookId",
          "type": "uint256"
        }
      ],
      "name": "getBookData",
      "outputs": [
        {
          "components": [
            {
              "internalType": "address",
              "name": "author",
              "type": "address"
            },
            {
              "internalType": "uint256",
              "name": "price",
              "type": "uint256"
            },
            {
              "internalType": "string",
              "name": "title",
              "type": "string"
            },
            {
              "components": [
                {
                  "internalType": "uint256",
                  "name": "_value",
                  "type": "uint256"
                }
              ],
              "internalType": "struct Counters.Counter",
              "name": "purchasedIds",
              "type": "tuple"
            },
            {
              "internalType": "address[]",
              "name": "purchaser",
              "type": "address[]"
            }
          ],
          "internalType": "struct BookManager.Book",
          "name": "",
          "type": "tuple"
        }
      ],
      "stateMutability": "view",
      "type": "function"
    },
    {
      "inputs": [
        {
          "internalType": "address",
          "name": "_user",
          "type": "address"
        }
      ],
      "name": "getBorrowingNum",
      "outputs": [
        {
          "internalType": "uint256",
          "name": "",
          "type": "uint256"
        }
      ],
      "stateMutability": "view",
      "type": "function"
    },
    {
      "inputs": [
        {
          "internalType": "uint256",
          "name": "_bookId",
          "type": "uint256"
        }
      ],
      "name": "getPurchaser",
      "outputs": [
        {
          "internalType": "address[]",
          "name": "",
          "type": "address[]"
        }
      ],
      "stateMutability": "view",
      "type": "function"
    },
    {
      "inputs": [
        {
          "internalType": "uint256",
          "name": "_tokenId",
          "type": "uint256"
        }
      ],
      "name": "getTokenBorrower",
      "outputs": [
        {
          "internalType": "address",
          "name": "",
          "type": "address"
        }
      ],
      "stateMutability": "view",
      "type": "function"
    },
    {
      "inputs": [
        {
          "internalType": "uint256",
          "name": "_tokenId",
          "type": "uint256"
        }
      ],
      "name": "getTokenData",
      "outputs": [
        {
          "components": [
            {
              "internalType": "address",
              "name": "borrower",
              "type": "address"
            },
            {
              "internalType": "uint256",
              "name": "bookId",
              "type": "uint256"
            },
            {
              "internalType": "bool",
              "name": "allowToContract",
              "type": "bool"
            },
            {
              "internalType": "uint256",
              "name": "period",
              "type": "uint256"
            },
            {
              "internalType": "uint256",
              "name": "cost",
              "type": "uint256"
            },
            {
              "internalType": "uint256",
              "name": "start",
              "type": "uint256"
            }
          ],
          "internalType": "struct BorrowTokenManager.BorrowToken",
          "name": "",
          "type": "tuple"
        }
      ],
      "stateMutability": "view",
      "type": "function"
    },
    {
      "inputs": [],
      "name": "getTotalBook",
      "outputs": [
        {
          "internalType": "uint256",
          "name": "",
          "type": "uint256"
        }
      ],
      "stateMutability": "view",
      "type": "function"
    },
    {
      "inputs": [
        {
          "internalType": "address",
          "name": "owner",
          "type": "address"
        },
        {
          "internalType": "address",
          "name": "operator",
          "type": "address"
        }
      ],
      "name": "isApprovedForAll",
      "outputs": [
        {
          "internalType": "bool",
          "name": "",
          "type": "bool"
        }
      ],
      "stateMutability": "view",
      "type": "function"
    },
    {
      "inputs": [],
      "name": "maxBorrowing",
      "outputs": [
        {
          "internalType": "uint256",
          "name": "",
          "type": "uint256"
        }
      ],
      "stateMutability": "view",
      "type": "function"
    },
    {
      "inputs": [],
      "name": "name",
      "outputs": [
        {
          "internalType": "string",
          "name": "",
          "type": "string"
        }
      ],
      "stateMutability": "view",
      "type": "function"
    },
    {
      "inputs": [],
      "name": "owner",
      "outputs": [
        {
          "internalType": "address",
          "name": "",
          "type": "address"
        }
      ],
      "stateMutability": "view",
      "type": "function"
    },
    {
      "inputs": [
        {
          "internalType": "uint256",
          "name": "tokenId",
          "type": "uint256"
        }
      ],
      "name": "ownerOf",
      "outputs": [
        {
          "internalType": "address",
          "name": "",
          "type": "address"
        }
      ],
      "stateMutability": "view",
      "type": "function"
    },
    {
      "inputs": [],
      "name": "renounceOwnership",
      "outputs": [],
      "stateMutability": "nonpayable",
      "type": "function"
    },
    {
      "inputs": [
        {
          "internalType": "address",
          "name": "from",
          "type": "address"
        },
        {
          "internalType": "address",
          "name": "to",
          "type": "address"
        },
        {
          "internalType": "uint256",
          "name": "tokenId",
          "type": "uint256"
        }
      ],
      "name": "safeTransferFrom",
      "outputs": [],
      "stateMutability": "nonpayable",
      "type": "function"
    },
    {
      "inputs": [
        {
          "internalType": "address",
          "name": "from",
          "type": "address"
        },
        {
          "internalType": "address",
          "name": "to",
          "type": "address"
        },
        {
          "internalType": "uint256",
          "name": "tokenId",
          "type": "uint256"
        },
        {
          "internalType": "bytes",
          "name": "_data",
          "type": "bytes"
        }
      ],
      "name": "safeTransferFrom",
      "outputs": [],
      "stateMutability": "nonpayable",
      "type": "function"
    },
    {
      "inputs": [
        {
          "internalType": "address",
          "name": "operator",
          "type": "address"
        },
        {
          "internalType": "bool",
          "name": "approved",
          "type": "bool"
        }
      ],
      "name": "setApprovalForAll",
      "outputs": [],
      "stateMutability": "nonpayable",
      "type": "function"
    },
    {
      "inputs": [
        {
          "internalType": "bytes4",
          "name": "interfaceId",
          "type": "bytes4"
        }
      ],
      "name": "supportsInterface",
      "outputs": [
        {
          "internalType": "bool",
          "name": "",
          "type": "bool"
        }
      ],
      "stateMutability": "view",
      "type": "function"
    },
    {
      "inputs": [],
      "name": "symbol",
      "outputs": [
        {
          "internalType": "string",
          "name": "",
          "type": "string"
        }
      ],
      "stateMutability": "view",
      "type": "function"
    },
    {
      "inputs": [
        {
          "internalType": "uint256",
          "name": "index",
          "type": "uint256"
        }
      ],
      "name": "tokenByIndex",
      "outputs": [
        {
          "internalType": "uint256",
          "name": "",
          "type": "uint256"
        }
      ],
      "stateMutability": "view",
      "type": "function"
    },
    {
      "inputs": [
        {
          "internalType": "address",
          "name": "owner",
          "type": "address"
        },
        {
          "internalType": "uint256",
          "name": "index",
          "type": "uint256"
        }
      ],
      "name": "tokenOfOwnerByIndex",
      "outputs": [
        {
          "internalType": "uint256",
          "name": "",
          "type": "uint256"
        }
      ],
      "stateMutability": "view",
      "type": "function"
    },
    {
      "inputs": [
        {
          "internalType": "uint256",
          "name": "tokenId",
          "type": "uint256"
        }
      ],
      "name": "tokenURI",
      "outputs": [
        {
          "internalType": "string",
          "name": "",
          "type": "string"
        }
      ],
      "stateMutability": "view",
      "type": "function"
    },
    {
      "inputs": [],
      "name": "totalSupply",
      "outputs": [
        {
          "internalType": "uint256",
          "name": "",
          "type": "uint256"
        }
      ],
      "stateMutability": "view",
      "type": "function"
    },
    {
      "inputs": [
        {
          "internalType": "address",
          "name": "from",
          "type": "address"
        },
        {
          "internalType": "address",
          "name": "to",
          "type": "address"
        },
        {
          "internalType": "uint256",
          "name": "tokenId",
          "type": "uint256"
        }
      ],
      "name": "transferFrom",
      "outputs": [],
      "stateMutability": "nonpayable",
      "type": "function"
    },
    {
      "inputs": [
        {
          "internalType": "address",
          "name": "newOwner",
          "type": "address"
        }
      ],
      "name": "transferOwnership",
      "outputs": [],
      "stateMutability": "nonpayable",
      "type": "function"
    },
    {
      "inputs": [
        {
          "internalType": "uint256",
          "name": "_maxBorrowing",
          "type": "uint256"
        }
      ],
      "name": "changeMaxBorrowing",
      "outputs": [],
      "stateMutability": "nonpayable",
      "type": "function"
    },
    {
      "inputs": [
        {
          "internalType": "address",
          "name": "_author",
          "type": "address"
        },
        {
          "internalType": "uint256",
          "name": "_price",
          "type": "uint256"
        },
        {
          "internalType": "string",
          "name": "_title",
          "type": "string"
        }
      ],
      "name": "addBook",
      "outputs": [],
      "stateMutability": "nonpayable",
      "type": "function"
    },
    {
      "inputs": [
        {
          "internalType": "uint256",
          "name": "_bookId",
          "type": "uint256"
        },
        {
          "internalType": "address",
          "name": "_author",
          "type": "address"
        },
        {
          "internalType": "uint256",
          "name": "_price",
          "type": "uint256"
        },
        {
          "internalType": "string",
          "name": "_title",
          "type": "string"
        }
      ],
      "name": "modifyBook",
      "outputs": [],
      "stateMutability": "nonpayable",
      "type": "function"
    },
    {
      "inputs": [
        {
          "internalType": "uint256",
          "name": "_bookId",
          "type": "uint256"
        }
      ],
      "name": "purchaseBook",
      "outputs": [],
      "stateMutability": "payable",
      "type": "function"
    },
    {
      "inputs": [
        {
          "internalType": "uint256",
          "name": "_tokenId",
          "type": "uint256"
        }
      ],
      "name": "borrowBook",
      "outputs": [],
      "stateMutability": "payable",
      "type": "function"
    },
    {
      "inputs": [
        {
          "internalType": "uint256",
          "name": "_tokenId",
          "type": "uint256"
        }
      ],
      "name": "returnBook",
      "outputs": [],
      "stateMutability": "nonpayable",
      "type": "function"
    },
    {
      "inputs": [
        {
          "internalType": "uint256",
          "name": "_tokenId",
          "type": "uint256"
        },
        {
          "internalType": "uint256",
          "name": "_period",
          "type": "uint256"
        },
        {
          "internalType": "uint256",
          "name": "_cost",
          "type": "uint256"
        }
      ],
      "name": "configBorrow",
      "outputs": [],
      "stateMutability": "nonpayable",
      "type": "function"
    },
    {
      "inputs": [
        {
          "internalType": "uint256",
          "name": "_tokenId",
          "type": "uint256"
        },
        {
          "internalType": "bool",
          "name": "_isAllow",
          "type": "bool"
        }
      ],
      "name": "changeBorrowAllowance",
      "outputs": [],
      "stateMutability": "nonpayable",
      "type": "function"
    }
  ],
  "bytecode": "0x60806040523480156200001157600080fd5b5060405162005353380380620053538339818101604052810190620000379190620002c3565b6040518060400160405280601081526020017f4c696272617279426f6f6b546f6b656e000000000000000000000000000000008152506040518060400160405280600381526020017f4c425400000000000000000000000000000000000000000000000000000000008152508160009080519060200190620000bb929190620001d3565b508060019080519060200190620000d4929190620001d3565b505050620000f7620000eb6200010560201b60201c565b6200010d60201b60201c565b80601081905550506200035a565b600033905090565b6000600f60009054906101000a900473ffffffffffffffffffffffffffffffffffffffff16905081600f60006101000a81548173ffffffffffffffffffffffffffffffffffffffff021916908373ffffffffffffffffffffffffffffffffffffffff1602179055508173ffffffffffffffffffffffffffffffffffffffff168173ffffffffffffffffffffffffffffffffffffffff167f8be0079c531659141344cd1fd0a4f28419497f9722a3daafe3b4186f6b6457e060405160405180910390a35050565b828054620001e19062000324565b90600052602060002090601f01602090048101928262000205576000855562000251565b82601f106200022057805160ff191683800117855562000251565b8280016001018555821562000251579182015b828111156200025057825182559160200191906001019062000233565b5b50905062000260919062000264565b5090565b5b808211156200027f57600081600090555060010162000265565b5090565b600080fd5b6000819050919050565b6200029d8162000288565b8114620002a957600080fd5b50565b600081519050620002bd8162000292565b92915050565b600060208284031215620002dc57620002db62000283565b5b6000620002ec84828501620002ac565b91505092915050565b7f4e487b7100000000000000000000000000000000000000000000000000000000600052602260045260246000fd5b600060028204905060018216806200033d57607f821691505b60208210811415620003545762000353620002f5565b5b50919050565b614fe9806200036a6000396000f3fe6080604052600436106101f95760003560e01c80637e490a9e1161010d578063b09afec1116100a0578063ca5140c91161006f578063ca5140c914610771578063d2ce216b1461079a578063e985e9c5146107c5578063f2985b3c14610802578063f2fde38b1461082b576101f9565b8063b09afec1146106a5578063b870c693146106e2578063b88d4fde1461070b578063c87b56dd14610734576101f9565b806399c69312116100dc57806399c69312146105d95780639d4b35a714610602578063a22cb4651461063f578063a38ec00114610668576101f9565b80637e490a9e1461053c5780638da5cb5b1461055857806390272dff1461058357806395d89b41146105ae576101f9565b80632b2679bb1161019057806349257f4e1161015f57806349257f4e146104315780634f6ccce71461046e5780636352211e146104ab57806370a08231146104e8578063715018a614610525576101f9565b80632b2679bb146103655780632f745c591461038e5780633646951a146103cb57806342842e0e14610408576101f9565b80630b85eb4a116101cc5780630b85eb4a146102cc57806318160ddd146102f55780631c555f471461032057806323b872dd1461033c576101f9565b806301ffc9a7146101fe57806306fdde031461023b578063081812fc14610266578063095ea7b3146102a3575b600080fd5b34801561020a57600080fd5b5061022560048036038101906102209190613769565b610854565b60405161023291906137b1565b60405180910390f35b34801561024757600080fd5b506102506108ce565b60405161025d9190613865565b60405180910390f35b34801561027257600080fd5b5061028d600480360381019061028891906138bd565b610960565b60405161029a919061392b565b60405180910390f35b3480156102af57600080fd5b506102ca60048036038101906102c59190613972565b6109e5565b005b3480156102d857600080fd5b506102f360048036038101906102ee91906138bd565b610afd565b005b34801561030157600080fd5b5061030a610b83565b60405161031791906139c1565b60405180910390f35b61033a600480360381019061033591906138bd565b610b90565b005b34801561034857600080fd5b50610363600480360381019061035e91906139dc565b610ba9565b005b34801561037157600080fd5b5061038c60048036038101906103879190613a5b565b610c09565b005b34801561039a57600080fd5b506103b560048036038101906103b09190613972565b610c5d565b6040516103c291906139c1565b60405180910390f35b3480156103d757600080fd5b506103f260048036038101906103ed9190613a9b565b610d02565b6040516103ff91906139c1565b60405180910390f35b34801561041457600080fd5b5061042f600480360381019061042a91906139dc565b610d68565b005b34801561043d57600080fd5b50610458600480360381019061045391906138bd565b610d88565b6040516104659190613b86565b60405180910390f35b34801561047a57600080fd5b50610495600480360381019061049091906138bd565b610f6f565b6040516104a291906139c1565b60405180910390f35b3480156104b757600080fd5b506104d260048036038101906104cd91906138bd565b610fe0565b6040516104df919061392b565b60405180910390f35b3480156104f457600080fd5b5061050f600480360381019061050a9190613a9b565b611092565b60405161051c91906139c1565b60405180910390f35b34801561053157600080fd5b5061053a61114a565b005b610556600480360381019061055191906138bd565b6111d2565b005b34801561056457600080fd5b5061056d611267565b60405161057a919061392b565b60405180910390f35b34801561058f57600080fd5b50610598611291565b6040516105a591906139c1565b60405180910390f35b3480156105ba57600080fd5b506105c3611297565b6040516105d09190613865565b60405180910390f35b3480156105e557600080fd5b5061060060048036038101906105fb9190613cdd565b611329565b005b34801561060e57600080fd5b50610629600480360381019061062491906138bd565b6113b5565b6040516106369190613ead565b60405180910390f35b34801561064b57600080fd5b5061066660048036038101906106619190613ecf565b611580565b005b34801561067457600080fd5b5061068f600480360381019061068a91906138bd565b611596565b60405161069c919061392b565b60405180910390f35b3480156106b157600080fd5b506106cc60048036038101906106c791906138bd565b61165f565b6040516106d99190613f99565b60405180910390f35b3480156106ee57600080fd5b5061070960048036038101906107049190613fb4565b611725565b005b34801561071757600080fd5b50610732600480360381019061072d91906140a8565b61177b565b005b34801561074057600080fd5b5061075b600480360381019061075691906138bd565b6117dd565b6040516107689190613865565b60405180910390f35b34801561077d57600080fd5b50610798600480360381019061079391906138bd565b611884565b005b3480156107a657600080fd5b506107af6118b6565b6040516107bc91906139c1565b60405180910390f35b3480156107d157600080fd5b506107ec60048036038101906107e7919061412b565b6118c7565b6040516107f991906137b1565b60405180910390f35b34801561080e57600080fd5b506108296004803603810190610824919061416b565b61195b565b005b34801561083757600080fd5b50610852600480360381019061084d9190613a9b565b6119e9565b005b60007f780e9d63000000000000000000000000000000000000000000000000000000007bffffffffffffffffffffffffffffffffffffffffffffffffffffffff1916827bffffffffffffffffffffffffffffffffffffffffffffffffffffffff191614806108c757506108c682611ae1565b5b9050919050565b6060600080546108dd9061421d565b80601f01602080910402602001604051908101604052809291908181526020018280546109099061421d565b80156109565780601f1061092b57610100808354040283529160200191610956565b820191906000526020600020905b81548152906001019060200180831161093957829003601f168201915b5050505050905090565b600061096b82611bc3565b6109aa576040517f08c379a00000000000000000000000000000000000000000000000000000000081526004016109a1906142c1565b60405180910390fd5b6004600083815260200190815260200160002060009054906101000a900473ffffffffffffffffffffffffffffffffffffffff169050919050565b60006109f082610fe0565b90508073ffffffffffffffffffffffffffffffffffffffff168373ffffffffffffffffffffffffffffffffffffffff161415610a61576040517f08c379a0000000000000000000000000000000000000000000000000000000008152600401610a5890614353565b60405180910390fd5b8073ffffffffffffffffffffffffffffffffffffffff16610a80611c2f565b73ffffffffffffffffffffffffffffffffffffffff161480610aaf5750610aae81610aa9611c2f565b6118c7565b5b610aee576040517f08c379a0000000000000000000000000000000000000000000000000000000008152600401610ae5906143e5565b60405180910390fd5b610af88383611c37565b505050565b610b05611c2f565b73ffffffffffffffffffffffffffffffffffffffff16610b23611267565b73ffffffffffffffffffffffffffffffffffffffff1614610b79576040517f08c379a0000000000000000000000000000000000000000000000000000000008152600401610b7090614451565b60405180910390fd5b8060108190555050565b6000600880549050905090565b610b9b813334611cf0565b610ba58133611f3d565b5050565b610bba610bb4611c2f565b82611f76565b610bf9576040517f08c379a0000000000000000000000000000000000000000000000000000000008152600401610bf0906144e3565b60405180910390fd5b610c04838383612054565b505050565b6000610c1483610fe0565b90503373ffffffffffffffffffffffffffffffffffffffff168173ffffffffffffffffffffffffffffffffffffffff1614610c4e57600080fd5b610c5883836122b0565b505050565b6000610c6883611092565b8210610ca9576040517f08c379a0000000000000000000000000000000000000000000000000000000008152600401610ca090614575565b60405180910390fd5b600660008473ffffffffffffffffffffffffffffffffffffffff1673ffffffffffffffffffffffffffffffffffffffff168152602001908152602001600020600083815260200190815260200160002054905092915050565b600080600e60008473ffffffffffffffffffffffffffffffffffffffff1673ffffffffffffffffffffffffffffffffffffffff16815260200190815260200160002060405180602001604052908160008201548152505090508060000151915050919050565b610d838383836040518060200160405280600081525061177b565b505050565b606081610d95600c6122e8565b811115610da157600080fd5b6000600d60008581526020019081526020016000206040518060a00160405290816000820160009054906101000a900473ffffffffffffffffffffffffffffffffffffffff1673ffffffffffffffffffffffffffffffffffffffff1673ffffffffffffffffffffffffffffffffffffffff16815260200160018201548152602001600282018054610e319061421d565b80601f0160208091040260200160405190810160405280929190818152602001828054610e5d9061421d565b8015610eaa5780601f10610e7f57610100808354040283529160200191610eaa565b820191906000526020600020905b815481529060010190602001808311610e8d57829003601f168201915b5050505050815260200160038201604051806020016040529081600082015481525050815260200160048201805480602002602001604051908101604052809291908181526020018280548015610f5657602002820191906000526020600020905b8160009054906101000a900473ffffffffffffffffffffffffffffffffffffffff1673ffffffffffffffffffffffffffffffffffffffff1681526020019060010190808311610f0c575b5050505050815250509050806080015192505050919050565b6000610f79610b83565b8210610fba576040517f08c379a0000000000000000000000000000000000000000000000000000000008152600401610fb190614607565b60405180910390fd5b60088281548110610fce57610fcd614627565b5b90600052602060002001549050919050565b6000806002600084815260200190815260200160002060009054906101000a900473ffffffffffffffffffffffffffffffffffffffff169050600073ffffffffffffffffffffffffffffffffffffffff168173ffffffffffffffffffffffffffffffffffffffff161415611089576040517f08c379a0000000000000000000000000000000000000000000000000000000008152600401611080906146c8565b60405180910390fd5b80915050919050565b60008073ffffffffffffffffffffffffffffffffffffffff168273ffffffffffffffffffffffffffffffffffffffff161415611103576040517f08c379a00000000000000000000000000000000000000000000000000000000081526004016110fa9061475a565b60405180910390fd5b600360008373ffffffffffffffffffffffffffffffffffffffff1673ffffffffffffffffffffffffffffffffffffffff168152602001908152602001600020549050919050565b611152611c2f565b73ffffffffffffffffffffffffffffffffffffffff16611170611267565b73ffffffffffffffffffffffffffffffffffffffff16146111c6576040517f08c379a00000000000000000000000000000000000000000000000000000000081526004016111bd90614451565b60405180910390fd5b6111d060006122f6565b565b336010546000600e60008473ffffffffffffffffffffffffffffffffffffffff1673ffffffffffffffffffffffffffffffffffffffff16815260200190815260200160002060405180602001604052908160008201548152505090508060000151821161123e57600080fd5b600061124985610fe0565b9050611257858233346123bc565b611260336124d5565b5050505050565b6000600f60009054906101000a900473ffffffffffffffffffffffffffffffffffffffff16905090565b60105481565b6060600180546112a69061421d565b80601f01602080910402602001604051908101604052809291908181526020018280546112d29061421d565b801561131f5780601f106112f45761010080835404028352916020019161131f565b820191906000526020600020905b81548152906001019060200180831161130257829003601f168201915b5050505050905090565b611331611c2f565b73ffffffffffffffffffffffffffffffffffffffff1661134f611267565b73ffffffffffffffffffffffffffffffffffffffff16146113a5576040517f08c379a000000000000000000000000000000000000000000000000000000000815260040161139c90614451565b60405180910390fd5b6113b0838383612536565b505050565b6113bd6135ae565b600d60008381526020019081526020016000206040518060a00160405290816000820160009054906101000a900473ffffffffffffffffffffffffffffffffffffffff1673ffffffffffffffffffffffffffffffffffffffff1673ffffffffffffffffffffffffffffffffffffffff1681526020016001820154815260200160028201805461144b9061421d565b80601f01602080910402602001604051908101604052809291908181526020018280546114779061421d565b80156114c45780601f10611499576101008083540402835291602001916114c4565b820191906000526020600020905b8154815290600101906020018083116114a757829003601f168201915b505050505081526020016003820160405180602001604052908160008201548152505081526020016004820180548060200260200160405190810160405280929190818152602001828054801561157057602002820191906000526020600020905b8160009054906101000a900473ffffffffffffffffffffffffffffffffffffffff1673ffffffffffffffffffffffffffffffffffffffff1681526020019060010190808311611526575b5050505050815250509050919050565b61159261158b611c2f565b83836125cb565b5050565b600080600a60008481526020019081526020016000206040518060c00160405290816000820160009054906101000a900473ffffffffffffffffffffffffffffffffffffffff1673ffffffffffffffffffffffffffffffffffffffff1673ffffffffffffffffffffffffffffffffffffffff168152602001600182015481526020016002820160009054906101000a900460ff16151515158152602001600382015481526020016004820154815260200160058201548152505090508060000151915050919050565b6116676135f9565b600a60008381526020019081526020016000206040518060c00160405290816000820160009054906101000a900473ffffffffffffffffffffffffffffffffffffffff1673ffffffffffffffffffffffffffffffffffffffff1673ffffffffffffffffffffffffffffffffffffffff168152602001600182015481526020016002820160009054906101000a900460ff1615151515815260200160038201548152602001600482015481526020016005820154815250509050919050565b600061173084610fe0565b90503373ffffffffffffffffffffffffffffffffffffffff168173ffffffffffffffffffffffffffffffffffffffff161461176a57600080fd5b611775848484612738565b50505050565b61178c611786611c2f565b83611f76565b6117cb576040517f08c379a00000000000000000000000000000000000000000000000000000000081526004016117c2906144e3565b60405180910390fd5b6117d784848484612767565b50505050565b60606117e882611bc3565b611827576040517f08c379a000000000000000000000000000000000000000000000000000000000815260040161181e906147ec565b60405180910390fd5b60006118316127c3565b90506000815111611851576040518060200160405280600081525061187c565b8061185b846127da565b60405160200161186c929190614848565b6040516020818303038152906040525b915050919050565b600061188f82610fe0565b9050600061189c83611596565b90506118a8838361293b565b6118b181612a53565b505050565b60006118c2600c6122e8565b905090565b6000600560008473ffffffffffffffffffffffffffffffffffffffff1673ffffffffffffffffffffffffffffffffffffffff16815260200190815260200160002060008373ffffffffffffffffffffffffffffffffffffffff1673ffffffffffffffffffffffffffffffffffffffff16815260200190815260200160002060009054906101000a900460ff16905092915050565b611963611c2f565b73ffffffffffffffffffffffffffffffffffffffff16611981611267565b73ffffffffffffffffffffffffffffffffffffffff16146119d7576040517f08c379a00000000000000000000000000000000000000000000000000000000081526004016119ce90614451565b60405180910390fd5b6119e384848484612ab4565b50505050565b6119f1611c2f565b73ffffffffffffffffffffffffffffffffffffffff16611a0f611267565b73ffffffffffffffffffffffffffffffffffffffff1614611a65576040517f08c379a0000000000000000000000000000000000000000000000000000000008152600401611a5c90614451565b60405180910390fd5b600073ffffffffffffffffffffffffffffffffffffffff168173ffffffffffffffffffffffffffffffffffffffff161415611ad5576040517f08c379a0000000000000000000000000000000000000000000000000000000008152600401611acc906148de565b60405180910390fd5b611ade816122f6565b50565b60007f80ac58cd000000000000000000000000000000000000000000000000000000007bffffffffffffffffffffffffffffffffffffffffffffffffffffffff1916827bffffffffffffffffffffffffffffffffffffffffffffffffffffffff19161480611bac57507f5b5e139f000000000000000000000000000000000000000000000000000000007bffffffffffffffffffffffffffffffffffffffffffffffffffffffff1916827bffffffffffffffffffffffffffffffffffffffffffffffffffffffff1916145b80611bbc5750611bbb82612b37565b5b9050919050565b60008073ffffffffffffffffffffffffffffffffffffffff166002600084815260200190815260200160002060009054906101000a900473ffffffffffffffffffffffffffffffffffffffff1673ffffffffffffffffffffffffffffffffffffffff1614159050919050565b600033905090565b816004600083815260200190815260200160002060006101000a81548173ffffffffffffffffffffffffffffffffffffffff021916908373ffffffffffffffffffffffffffffffffffffffff160217905550808273ffffffffffffffffffffffffffffffffffffffff16611caa83610fe0565b73ffffffffffffffffffffffffffffffffffffffff167f8c5be1e5ebec7d5bd14f71427d1e84f3dd0314c0f7b2291e5b200ac8c7c3b92560405160405180910390a45050565b82611cfb600c6122e8565b811115611d0757600080fd5b6000600d60008681526020019081526020016000209050611ed1816040518060a00160405290816000820160009054906101000a900473ffffffffffffffffffffffffffffffffffffffff1673ffffffffffffffffffffffffffffffffffffffff1673ffffffffffffffffffffffffffffffffffffffff16815260200160018201548152602001600282018054611d9d9061421d565b80601f0160208091040260200160405190810160405280929190818152602001828054611dc99061421d565b8015611e165780601f10611deb57610100808354040283529160200191611e16565b820191906000526020600020905b815481529060010190602001808311611df957829003601f168201915b5050505050815260200160038201604051806020016040529081600082015481525050815260200160048201805480602002602001604051908101604052809291908181526020018280548015611ec257602002820191906000526020600020905b8160009054906101000a900473ffffffffffffffffffffffffffffffffffffffff1673ffffffffffffffffffffffffffffffffffffffff1681526020019060010190808311611e78575b50505050508152505084612ba1565b80600401849080600181540180825580915050600190039060005260206000200160009091909190916101000a81548173ffffffffffffffffffffffffffffffffffffffff021916908373ffffffffffffffffffffffffffffffffffffffff1602179055505050505050565b6000611f49600b612bb5565b6000611f55600b6122e8565b9050611f618382612bcb565b611f6c818486612be9565b8091505092915050565b6000611f8182611bc3565b611fc0576040517f08c379a0000000000000000000000000000000000000000000000000000000008152600401611fb790614970565b60405180910390fd5b6000611fcb83610fe0565b90508073ffffffffffffffffffffffffffffffffffffffff168473ffffffffffffffffffffffffffffffffffffffff16148061203a57508373ffffffffffffffffffffffffffffffffffffffff1661202284610960565b73ffffffffffffffffffffffffffffffffffffffff16145b8061204b575061204a81856118c7565b5b91505092915050565b8273ffffffffffffffffffffffffffffffffffffffff1661207482610fe0565b73ffffffffffffffffffffffffffffffffffffffff16146120ca576040517f08c379a00000000000000000000000000000000000000000000000000000000081526004016120c190614a02565b60405180910390fd5b600073ffffffffffffffffffffffffffffffffffffffff168273ffffffffffffffffffffffffffffffffffffffff16141561213a576040517f08c379a000000000000000000000000000000000000000000000000000000000815260040161213190614a94565b60405180910390fd5b612145838383612c8d565b612150600082611c37565b6001600360008573ffffffffffffffffffffffffffffffffffffffff1673ffffffffffffffffffffffffffffffffffffffff16815260200190815260200160002060008282546121a09190614ae3565b925050819055506001600360008473ffffffffffffffffffffffffffffffffffffffff1673ffffffffffffffffffffffffffffffffffffffff16815260200190815260200160002060008282546121f79190614b17565b92505081905550816002600083815260200190815260200160002060006101000a81548173ffffffffffffffffffffffffffffffffffffffff021916908373ffffffffffffffffffffffffffffffffffffffff160217905550808273ffffffffffffffffffffffffffffffffffffffff168473ffffffffffffffffffffffffffffffffffffffff167fddf252ad1be2c89b69c2b068fc378daa952ba7f163c4a11628f55a4df523b3ef60405160405180910390a4505050565b6000600a60008481526020019081526020016000209050818160020160006101000a81548160ff021916908315150217905550505050565b600081600001549050919050565b6000600f60009054906101000a900473ffffffffffffffffffffffffffffffffffffffff16905081600f60006101000a81548173ffffffffffffffffffffffffffffffffffffffff021916908373ffffffffffffffffffffffffffffffffffffffff1602179055508173ffffffffffffffffffffffffffffffffffffffff168173ffffffffffffffffffffffffffffffffffffffff167f8be0079c531659141344cd1fd0a4f28419497f9722a3daafe3b4186f6b6457e060405160405180910390a35050565b6000600a60008681526020019081526020016000209050612482816040518060c00160405290816000820160009054906101000a900473ffffffffffffffffffffffffffffffffffffffff1673ffffffffffffffffffffffffffffffffffffffff1673ffffffffffffffffffffffffffffffffffffffff168152602001600182015481526020016002820160009054906101000a900460ff1615151515815260200160038201548152602001600482015481526020016005820154815250508584612da1565b828160000160006101000a81548173ffffffffffffffffffffffffffffffffffffffff021916908373ffffffffffffffffffffffffffffffffffffffff1602179055504281600501819055505050505050565b6000600e60008373ffffffffffffffffffffffffffffffffffffffff1673ffffffffffffffffffffffffffffffffffffffff168152602001908152602001600020905080600001600081548092919061252d90614b6d565b91905055505050565b612540600c612bb5565b6000600d6000612550600c6122e8565b8152602001908152602001600020905081816002019080519060200190612578929190613647565b50838160000160006101000a81548173ffffffffffffffffffffffffffffffffffffffff021916908373ffffffffffffffffffffffffffffffffffffffff16021790555082816001018190555050505050565b8173ffffffffffffffffffffffffffffffffffffffff168373ffffffffffffffffffffffffffffffffffffffff16141561263a576040517f08c379a000000000000000000000000000000000000000000000000000000000815260040161263190614c02565b60405180910390fd5b80600560008573ffffffffffffffffffffffffffffffffffffffff1673ffffffffffffffffffffffffffffffffffffffff16815260200190815260200160002060008473ffffffffffffffffffffffffffffffffffffffff1673ffffffffffffffffffffffffffffffffffffffff16815260200190815260200160002060006101000a81548160ff0219169083151502179055508173ffffffffffffffffffffffffffffffffffffffff168373ffffffffffffffffffffffffffffffffffffffff167f17307eab39ab6107e8899845ad3d59bd9653f200f220920489ca2b5937696c318360405161272b91906137b1565b60405180910390a3505050565b6000600a6000858152602001908152602001600020905082816003018190555081816004018190555050505050565b612772848484612054565b61277e84848484612e00565b6127bd576040517f08c379a00000000000000000000000000000000000000000000000000000000081526004016127b490614c94565b60405180910390fd5b50505050565b606060405180602001604052806000815250905090565b60606000821415612822576040518060400160405280600181526020017f30000000000000000000000000000000000000000000000000000000000000008152509050612936565b600082905060005b6000821461285457808061283d90614b6d565b915050600a8261284d9190614ce3565b915061282a565b60008167ffffffffffffffff8111156128705761286f613bb2565b5b6040519080825280601f01601f1916602001820160405280156128a25781602001600182028036833780820191505090505b5090505b6000851461292f576001826128bb9190614ae3565b9150600a856128ca9190614d14565b60306128d69190614b17565b60f81b8183815181106128ec576128eb614627565b5b60200101907effffffffffffffffffffffffffffffffffffffffffffffffffffffffffffff1916908160001a905350600a856129289190614ce3565b94506128a6565b8093505050505b919050565b6000600a60008481526020019081526020016000209050612a01816040518060c00160405290816000820160009054906101000a900473ffffffffffffffffffffffffffffffffffffffff1673ffffffffffffffffffffffffffffffffffffffff1673ffffffffffffffffffffffffffffffffffffffff168152602001600182015481526020016002820160009054906101000a900460ff1615151515815260200160038201548152602001600482015481526020016005820154815250508333612f88565b818160000160006101000a81548173ffffffffffffffffffffffffffffffffffffffff021916908373ffffffffffffffffffffffffffffffffffffffff16021790555060008160050181905550505050565b6000600e60008373ffffffffffffffffffffffffffffffffffffffff1673ffffffffffffffffffffffffffffffffffffffff1681526020019081526020016000209050806000016000815480929190612aab90614d45565b91905055505050565b6000600d6000868152602001908152602001600020905081816002019080519060200190612ae3929190613647565b50838160000160006101000a81548173ffffffffffffffffffffffffffffffffffffffff021916908373ffffffffffffffffffffffffffffffffffffffff1602179055508281600101819055505050505050565b60007f01ffc9a7000000000000000000000000000000000000000000000000000000007bffffffffffffffffffffffffffffffffffffffffffffffffffffffff1916827bffffffffffffffffffffffffffffffffffffffffffffffffffffffff1916149050919050565b80826020015114612bb157600080fd5b5050565b6001816000016000828254019250508190555050565b612be5828260405180602001604052806000815250613067565b5050565b6000600a60008581526020019081526020016000209050828160000160006101000a81548173ffffffffffffffffffffffffffffffffffffffff021916908373ffffffffffffffffffffffffffffffffffffffff16021790555081816001018190555060018160020160006101000a81548160ff02191690831515021790555060018160030181905550600081600401819055506000816005018190555050505050565b612c988383836130c2565b600073ffffffffffffffffffffffffffffffffffffffff168373ffffffffffffffffffffffffffffffffffffffff161415612cdb57612cd6816130c7565b612d1a565b8173ffffffffffffffffffffffffffffffffffffffff168373ffffffffffffffffffffffffffffffffffffffff1614612d1957612d188382613110565b5b5b600073ffffffffffffffffffffffffffffffffffffffff168273ffffffffffffffffffffffffffffffffffffffff161415612d5d57612d588161327d565b612d9c565b8273ffffffffffffffffffffffffffffffffffffffff168273ffffffffffffffffffffffffffffffffffffffff1614612d9b57612d9a828261334e565b5b5b505050565b8173ffffffffffffffffffffffffffffffffffffffff16836000015173ffffffffffffffffffffffffffffffffffffffff1614612ddd57600080fd5b80836080015114612ded57600080fd5b8260400151612dfb57600080fd5b505050565b6000612e218473ffffffffffffffffffffffffffffffffffffffff166133cd565b15612f7b578373ffffffffffffffffffffffffffffffffffffffff1663150b7a02612e4a611c2f565b8786866040518563ffffffff1660e01b8152600401612e6c9493929190614dc4565b6020604051808303816000875af1925050508015612ea857506040513d601f19601f82011682018060405250810190612ea59190614e25565b60015b612f2b573d8060008114612ed8576040519150601f19603f3d011682016040523d82523d6000602084013e612edd565b606091505b50600081511415612f23576040517f08c379a0000000000000000000000000000000000000000000000000000000008152600401612f1a90614c94565b60405180910390fd5b805181602001fd5b63150b7a0260e01b7bffffffffffffffffffffffffffffffffffffffffffffffffffffffff1916817bffffffffffffffffffffffffffffffffffffffffffffffffffffffff191614915050612f80565b600190505b949350505050565b60018360600151612f999190614e52565b8360a00151612fa89190614b17565b4210613025578073ffffffffffffffffffffffffffffffffffffffff16836000015173ffffffffffffffffffffffffffffffffffffffff16148061301757508073ffffffffffffffffffffffffffffffffffffffff168273ffffffffffffffffffffffffffffffffffffffff16145b61302057600080fd5b613062565b8073ffffffffffffffffffffffffffffffffffffffff16836000015173ffffffffffffffffffffffffffffffffffffffff161461306157600080fd5b5b505050565b61307183836133e0565b61307e6000848484612e00565b6130bd576040517f08c379a00000000000000000000000000000000000000000000000000000000081526004016130b490614c94565b60405180910390fd5b505050565b505050565b6008805490506009600083815260200190815260200160002081905550600881908060018154018082558091505060019003906000526020600020016000909190919091505550565b6000600161311d84611092565b6131279190614ae3565b905060006007600084815260200190815260200160002054905081811461320c576000600660008673ffffffffffffffffffffffffffffffffffffffff1673ffffffffffffffffffffffffffffffffffffffff168152602001908152602001600020600084815260200190815260200160002054905080600660008773ffffffffffffffffffffffffffffffffffffffff1673ffffffffffffffffffffffffffffffffffffffff168152602001908152602001600020600084815260200190815260200160002081905550816007600083815260200190815260200160002081905550505b6007600084815260200190815260200160002060009055600660008573ffffffffffffffffffffffffffffffffffffffff1673ffffffffffffffffffffffffffffffffffffffff16815260200190815260200160002060008381526020019081526020016000206000905550505050565b600060016008805490506132919190614ae3565b90506000600960008481526020019081526020016000205490506000600883815481106132c1576132c0614627565b5b9060005260206000200154905080600883815481106132e3576132e2614627565b5b90600052602060002001819055508160096000838152602001908152602001600020819055506009600085815260200190815260200160002060009055600880548061333257613331614eac565b5b6001900381819060005260206000200160009055905550505050565b600061335983611092565b905081600660008573ffffffffffffffffffffffffffffffffffffffff1673ffffffffffffffffffffffffffffffffffffffff168152602001908152602001600020600083815260200190815260200160002081905550806007600084815260200190815260200160002081905550505050565b600080823b905060008111915050919050565b600073ffffffffffffffffffffffffffffffffffffffff168273ffffffffffffffffffffffffffffffffffffffff161415613450576040517f08c379a000000000000000000000000000000000000000000000000000000000815260040161344790614f27565b60405180910390fd5b61345981611bc3565b15613499576040517f08c379a000000000000000000000000000000000000000000000000000000000815260040161349090614f93565b60405180910390fd5b6134a560008383612c8d565b6001600360008473ffffffffffffffffffffffffffffffffffffffff1673ffffffffffffffffffffffffffffffffffffffff16815260200190815260200160002060008282546134f59190614b17565b92505081905550816002600083815260200190815260200160002060006101000a81548173ffffffffffffffffffffffffffffffffffffffff021916908373ffffffffffffffffffffffffffffffffffffffff160217905550808273ffffffffffffffffffffffffffffffffffffffff16600073ffffffffffffffffffffffffffffffffffffffff167fddf252ad1be2c89b69c2b068fc378daa952ba7f163c4a11628f55a4df523b3ef60405160405180910390a45050565b6040518060a00160405280600073ffffffffffffffffffffffffffffffffffffffff16815260200160008152602001606081526020016135ec6136cd565b8152602001606081525090565b6040518060c00160405280600073ffffffffffffffffffffffffffffffffffffffff168152602001600081526020016000151581526020016000815260200160008152602001600081525090565b8280546136539061421d565b90600052602060002090601f01602090048101928261367557600085556136bc565b82601f1061368e57805160ff19168380011785556136bc565b828001600101855582156136bc579182015b828111156136bb5782518255916020019190600101906136a0565b5b5090506136c991906136e0565b5090565b6040518060200160405280600081525090565b5b808211156136f95760008160009055506001016136e1565b5090565b6000604051905090565b600080fd5b600080fd5b60007fffffffff0000000000000000000000000000000000000000000000000000000082169050919050565b61374681613711565b811461375157600080fd5b50565b6000813590506137638161373d565b92915050565b60006020828403121561377f5761377e613707565b5b600061378d84828501613754565b91505092915050565b60008115159050919050565b6137ab81613796565b82525050565b60006020820190506137c660008301846137a2565b92915050565b600081519050919050565b600082825260208201905092915050565b60005b838110156138065780820151818401526020810190506137eb565b83811115613815576000848401525b50505050565b6000601f19601f8301169050919050565b6000613837826137cc565b61384181856137d7565b93506138518185602086016137e8565b61385a8161381b565b840191505092915050565b6000602082019050818103600083015261387f818461382c565b905092915050565b6000819050919050565b61389a81613887565b81146138a557600080fd5b50565b6000813590506138b781613891565b92915050565b6000602082840312156138d3576138d2613707565b5b60006138e1848285016138a8565b91505092915050565b600073ffffffffffffffffffffffffffffffffffffffff82169050919050565b6000613915826138ea565b9050919050565b6139258161390a565b82525050565b6000602082019050613940600083018461391c565b92915050565b61394f8161390a565b811461395a57600080fd5b50565b60008135905061396c81613946565b92915050565b6000806040838503121561398957613988613707565b5b60006139978582860161395d565b92505060206139a8858286016138a8565b9150509250929050565b6139bb81613887565b82525050565b60006020820190506139d660008301846139b2565b92915050565b6000806000606084860312156139f5576139f4613707565b5b6000613a038682870161395d565b9350506020613a148682870161395d565b9250506040613a25868287016138a8565b9150509250925092565b613a3881613796565b8114613a4357600080fd5b50565b600081359050613a5581613a2f565b92915050565b60008060408385031215613a7257613a71613707565b5b6000613a80858286016138a8565b9250506020613a9185828601613a46565b9150509250929050565b600060208284031215613ab157613ab0613707565b5b6000613abf8482850161395d565b91505092915050565b600081519050919050565b600082825260208201905092915050565b6000819050602082019050919050565b613afd8161390a565b82525050565b6000613b0f8383613af4565b60208301905092915050565b6000602082019050919050565b6000613b3382613ac8565b613b3d8185613ad3565b9350613b4883613ae4565b8060005b83811015613b79578151613b608882613b03565b9750613b6b83613b1b565b925050600181019050613b4c565b5085935050505092915050565b60006020820190508181036000830152613ba08184613b28565b905092915050565b600080fd5b600080fd5b7f4e487b7100000000000000000000000000000000000000000000000000000000600052604160045260246000fd5b613bea8261381b565b810181811067ffffffffffffffff82111715613c0957613c08613bb2565b5b80604052505050565b6000613c1c6136fd565b9050613c288282613be1565b919050565b600067ffffffffffffffff821115613c4857613c47613bb2565b5b613c518261381b565b9050602081019050919050565b82818337600083830152505050565b6000613c80613c7b84613c2d565b613c12565b905082815260208101848484011115613c9c57613c9b613bad565b5b613ca7848285613c5e565b509392505050565b600082601f830112613cc457613cc3613ba8565b5b8135613cd4848260208601613c6d565b91505092915050565b600080600060608486031215613cf657613cf5613707565b5b6000613d048682870161395d565b9350506020613d15868287016138a8565b925050604084013567ffffffffffffffff811115613d3657613d3561370c565b5b613d4286828701613caf565b9150509250925092565b613d5581613887565b82525050565b600082825260208201905092915050565b6000613d77826137cc565b613d818185613d5b565b9350613d918185602086016137e8565b613d9a8161381b565b840191505092915050565b602082016000820151613dbb6000850182613d4c565b50505050565b600082825260208201905092915050565b6000613ddd82613ac8565b613de78185613dc1565b9350613df283613ae4565b8060005b83811015613e23578151613e0a8882613b03565b9750613e1583613b1b565b925050600181019050613df6565b5085935050505092915050565b600060a083016000830151613e486000860182613af4565b506020830151613e5b6020860182613d4c565b5060408301518482036040860152613e738282613d6c565b9150506060830151613e886060860182613da5565b5060808301518482036080860152613ea08282613dd2565b9150508091505092915050565b60006020820190508181036000830152613ec78184613e30565b905092915050565b60008060408385031215613ee657613ee5613707565b5b6000613ef48582860161395d565b9250506020613f0585828601613a46565b9150509250929050565b613f1881613796565b82525050565b60c082016000820151613f346000850182613af4565b506020820151613f476020850182613d4c565b506040820151613f5a6040850182613f0f565b506060820151613f6d6060850182613d4c565b506080820151613f806080850182613d4c565b5060a0820151613f9360a0850182613d4c565b50505050565b600060c082019050613fae6000830184613f1e565b92915050565b600080600060608486031215613fcd57613fcc613707565b5b6000613fdb868287016138a8565b9350506020613fec868287016138a8565b9250506040613ffd868287016138a8565b9150509250925092565b600067ffffffffffffffff82111561402257614021613bb2565b5b61402b8261381b565b9050602081019050919050565b600061404b61404684614007565b613c12565b90508281526020810184848401111561406757614066613bad565b5b614072848285613c5e565b509392505050565b600082601f83011261408f5761408e613ba8565b5b813561409f848260208601614038565b91505092915050565b600080600080608085870312156140c2576140c1613707565b5b60006140d08782880161395d565b94505060206140e18782880161395d565b93505060406140f2878288016138a8565b925050606085013567ffffffffffffffff8111156141135761411261370c565b5b61411f8782880161407a565b91505092959194509250565b6000806040838503121561414257614141613707565b5b60006141508582860161395d565b92505060206141618582860161395d565b9150509250929050565b6000806000806080858703121561418557614184613707565b5b6000614193878288016138a8565b94505060206141a48782880161395d565b93505060406141b5878288016138a8565b925050606085013567ffffffffffffffff8111156141d6576141d561370c565b5b6141e287828801613caf565b91505092959194509250565b7f4e487b7100000000000000000000000000000000000000000000000000000000600052602260045260246000fd5b6000600282049050600182168061423557607f821691505b60208210811415614249576142486141ee565b5b50919050565b7f4552433732313a20617070726f76656420717565727920666f72206e6f6e657860008201527f697374656e7420746f6b656e0000000000000000000000000000000000000000602082015250565b60006142ab602c836137d7565b91506142b68261424f565b604082019050919050565b600060208201905081810360008301526142da8161429e565b9050919050565b7f4552433732313a20617070726f76616c20746f2063757272656e74206f776e6560008201527f7200000000000000000000000000000000000000000000000000000000000000602082015250565b600061433d6021836137d7565b9150614348826142e1565b604082019050919050565b6000602082019050818103600083015261436c81614330565b9050919050565b7f4552433732313a20617070726f76652063616c6c6572206973206e6f74206f7760008201527f6e6572206e6f7220617070726f76656420666f7220616c6c0000000000000000602082015250565b60006143cf6038836137d7565b91506143da82614373565b604082019050919050565b600060208201905081810360008301526143fe816143c2565b9050919050565b7f4f776e61626c653a2063616c6c6572206973206e6f7420746865206f776e6572600082015250565b600061443b6020836137d7565b915061444682614405565b602082019050919050565b6000602082019050818103600083015261446a8161442e565b9050919050565b7f4552433732313a207472616e736665722063616c6c6572206973206e6f74206f60008201527f776e6572206e6f7220617070726f766564000000000000000000000000000000602082015250565b60006144cd6031836137d7565b91506144d882614471565b604082019050919050565b600060208201905081810360008301526144fc816144c0565b9050919050565b7f455243373231456e756d657261626c653a206f776e657220696e646578206f7560008201527f74206f6620626f756e6473000000000000000000000000000000000000000000602082015250565b600061455f602b836137d7565b915061456a82614503565b604082019050919050565b6000602082019050818103600083015261458e81614552565b9050919050565b7f455243373231456e756d657261626c653a20676c6f62616c20696e646578206f60008201527f7574206f6620626f756e64730000000000000000000000000000000000000000602082015250565b60006145f1602c836137d7565b91506145fc82614595565b604082019050919050565b60006020820190508181036000830152614620816145e4565b9050919050565b7f4e487b7100000000000000000000000000000000000000000000000000000000600052603260045260246000fd5b7f4552433732313a206f776e657220717565727920666f72206e6f6e657869737460008201527f656e7420746f6b656e0000000000000000000000000000000000000000000000602082015250565b60006146b26029836137d7565b91506146bd82614656565b604082019050919050565b600060208201905081810360008301526146e1816146a5565b9050919050565b7f4552433732313a2062616c616e636520717565727920666f7220746865207a6560008201527f726f206164647265737300000000000000000000000000000000000000000000602082015250565b6000614744602a836137d7565b915061474f826146e8565b604082019050919050565b6000602082019050818103600083015261477381614737565b9050919050565b7f4552433732314d657461646174613a2055524920717565727920666f72206e6f60008201527f6e6578697374656e7420746f6b656e0000000000000000000000000000000000602082015250565b60006147d6602f836137d7565b91506147e18261477a565b604082019050919050565b60006020820190508181036000830152614805816147c9565b9050919050565b600081905092915050565b6000614822826137cc565b61482c818561480c565b935061483c8185602086016137e8565b80840191505092915050565b60006148548285614817565b91506148608284614817565b91508190509392505050565b7f4f776e61626c653a206e6577206f776e657220697320746865207a65726f206160008201527f6464726573730000000000000000000000000000000000000000000000000000602082015250565b60006148c86026836137d7565b91506148d38261486c565b604082019050919050565b600060208201905081810360008301526148f7816148bb565b9050919050565b7f4552433732313a206f70657261746f7220717565727920666f72206e6f6e657860008201527f697374656e7420746f6b656e0000000000000000000000000000000000000000602082015250565b600061495a602c836137d7565b9150614965826148fe565b604082019050919050565b600060208201905081810360008301526149898161494d565b9050919050565b7f4552433732313a207472616e73666572206f6620746f6b656e2074686174206960008201527f73206e6f74206f776e0000000000000000000000000000000000000000000000602082015250565b60006149ec6029836137d7565b91506149f782614990565b604082019050919050565b60006020820190508181036000830152614a1b816149df565b9050919050565b7f4552433732313a207472616e7366657220746f20746865207a65726f2061646460008201527f7265737300000000000000000000000000000000000000000000000000000000602082015250565b6000614a7e6024836137d7565b9150614a8982614a22565b604082019050919050565b60006020820190508181036000830152614aad81614a71565b9050919050565b7f4e487b7100000000000000000000000000000000000000000000000000000000600052601160045260246000fd5b6000614aee82613887565b9150614af983613887565b925082821015614b0c57614b0b614ab4565b5b828203905092915050565b6000614b2282613887565b9150614b2d83613887565b9250827fffffffffffffffffffffffffffffffffffffffffffffffffffffffffffffffff03821115614b6257614b61614ab4565b5b828201905092915050565b6000614b7882613887565b91507fffffffffffffffffffffffffffffffffffffffffffffffffffffffffffffffff821415614bab57614baa614ab4565b5b600182019050919050565b7f4552433732313a20617070726f766520746f2063616c6c657200000000000000600082015250565b6000614bec6019836137d7565b9150614bf782614bb6565b602082019050919050565b60006020820190508181036000830152614c1b81614bdf565b9050919050565b7f4552433732313a207472616e7366657220746f206e6f6e20455243373231526560008201527f63656976657220696d706c656d656e7465720000000000000000000000000000602082015250565b6000614c7e6032836137d7565b9150614c8982614c22565b604082019050919050565b60006020820190508181036000830152614cad81614c71565b9050919050565b7f4e487b7100000000000000000000000000000000000000000000000000000000600052601260045260246000fd5b6000614cee82613887565b9150614cf983613887565b925082614d0957614d08614cb4565b5b828204905092915050565b6000614d1f82613887565b9150614d2a83613887565b925082614d3a57614d39614cb4565b5b828206905092915050565b6000614d5082613887565b91506000821415614d6457614d63614ab4565b5b600182039050919050565b600081519050919050565b600082825260208201905092915050565b6000614d9682614d6f565b614da08185614d7a565b9350614db08185602086016137e8565b614db98161381b565b840191505092915050565b6000608082019050614dd9600083018761391c565b614de6602083018661391c565b614df360408301856139b2565b8181036060830152614e058184614d8b565b905095945050505050565b600081519050614e1f8161373d565b92915050565b600060208284031215614e3b57614e3a613707565b5b6000614e4984828501614e10565b91505092915050565b6000614e5d82613887565b9150614e6883613887565b9250817fffffffffffffffffffffffffffffffffffffffffffffffffffffffffffffffff0483118215151615614ea157614ea0614ab4565b5b828202905092915050565b7f4e487b7100000000000000000000000000000000000000000000000000000000600052603160045260246000fd5b7f4552433732313a206d696e7420746f20746865207a65726f2061646472657373600082015250565b6000614f116020836137d7565b9150614f1c82614edb565b602082019050919050565b60006020820190508181036000830152614f4081614f04565b9050919050565b7f4552433732313a20746f6b656e20616c7265616479206d696e74656400000000600082015250565b6000614f7d601c836137d7565b9150614f8882614f47565b602082019050919050565b60006020820190508181036000830152614fac81614f70565b905091905056fea2646970667358221220d5b58f2d2b57b3b1998dd5701ed16c0fc48bc58fa960e0b124604226a2417ee064736f6c634300080b0033",
  "immutableReferences": {},
  "source": "// SPDX-License-Identifier: MIT\npragma solidity 0.8.11;\n\nimport \"@openzeppelin/contracts/access/Ownable.sol\";\n\nimport './devs/TokenManager.sol';\nimport './devs/BookManager.sol';\nimport './devs/UserManager.sol';\n\n// all payable functions are to implement here\ncontract Library is TokenManager, BookManager, UserManager, Ownable{\n    uint public maxBorrowing;\n    constructor(uint _maxBorrowing){\n        maxBorrowing = _maxBorrowing;\n    }\n\n    // change max Borrowing number\n    function changeMaxBorrowing(uint _maxBorrowing) external onlyOwner {\n        maxBorrowing = _maxBorrowing;\n    }\n\n    // add book\n    function addBook(address _author, uint _price, string memory _title) external onlyOwner {\n        _addBook(_author, _price, _title);\n    }\n\n    // modify book\n    function modifyBook(uint _bookId,address _author, uint _price, string memory _title) external onlyOwner {\n        _modifyBook(_bookId,_author, _price, _title);\n    }\n\n    // purchase Book\n    function purchaseBook(uint _bookId) external payable {\n        _purchaseBook(_bookId, msg.sender , msg.value);\n        _purchaseToken(_bookId, msg.sender);\n    }\n\n    // borrow Book\n    function borrowBook(uint _tokenId ) external restrictedBorrow(msg.sender, maxBorrowing) payable{\n        address owner = ownerOf(_tokenId);\n        _borrowToken(_tokenId, owner, msg.sender, msg.value);\n        _userBorrow(msg.sender);\n    }\n\n    // return Book\n    function returnBook(uint _tokenId) external {\n        address owner = ownerOf(_tokenId);\n        address borrower = getTokenBorrower(_tokenId);\n        _returnToken(_tokenId, owner);\n        _userReturn(borrower);\n    }\n\n    // configure token\n    function configBorrow(uint _tokenId, uint _period, uint _cost) external {\n        address owner = ownerOf(_tokenId);\n        require(owner == msg.sender);\n        _configBorrow(_tokenId, _period, _cost);\n    }\n    function changeBorrowAllowance(uint _tokenId, bool _isAllow) external {\n        address owner = ownerOf(_tokenId);\n        require(owner == msg.sender);\n        _changeBorrowAllowance(_tokenId, _isAllow);\n    }\n\n}",
  "sourcePath": "/Users/jin/workplace/ethereum/library/contracts/Library.sol",
  "compiler": {
    "name": "solc",
    "version": "0.8.11+commit.d7f03943.Emscripten.clang"
  },
  "schemaVersion": "3.4.4",
  "updatedAt": "2021-12-25T16:27:33.782Z",
  "devdoc": {
    "kind": "dev",
    "methods": {
      "approve(address,uint256)": {
        "details": "See {IERC721-approve}."
      },
      "balanceOf(address)": {
        "details": "See {IERC721-balanceOf}."
      },
      "getApproved(uint256)": {
        "details": "See {IERC721-getApproved}."
      },
      "isApprovedForAll(address,address)": {
        "details": "See {IERC721-isApprovedForAll}."
      },
      "name()": {
        "details": "See {IERC721Metadata-name}."
      },
      "owner()": {
        "details": "Returns the address of the current owner."
      },
      "ownerOf(uint256)": {
        "details": "See {IERC721-ownerOf}."
      },
      "renounceOwnership()": {
        "details": "Leaves the contract without owner. It will not be possible to call `onlyOwner` functions anymore. Can only be called by the current owner. NOTE: Renouncing ownership will leave the contract without an owner, thereby removing any functionality that is only available to the owner."
      },
      "safeTransferFrom(address,address,uint256)": {
        "details": "See {IERC721-safeTransferFrom}."
      },
      "safeTransferFrom(address,address,uint256,bytes)": {
        "details": "See {IERC721-safeTransferFrom}."
      },
      "setApprovalForAll(address,bool)": {
        "details": "See {IERC721-setApprovalForAll}."
      },
      "supportsInterface(bytes4)": {
        "details": "See {IERC165-supportsInterface}."
      },
      "symbol()": {
        "details": "See {IERC721Metadata-symbol}."
      },
      "tokenByIndex(uint256)": {
        "details": "See {IERC721Enumerable-tokenByIndex}."
      },
      "tokenOfOwnerByIndex(address,uint256)": {
        "details": "See {IERC721Enumerable-tokenOfOwnerByIndex}."
      },
      "tokenURI(uint256)": {
        "details": "See {IERC721Metadata-tokenURI}."
      },
      "totalSupply()": {
        "details": "See {IERC721Enumerable-totalSupply}."
      },
      "transferFrom(address,address,uint256)": {
        "details": "See {IERC721-transferFrom}."
      },
      "transferOwnership(address)": {
        "details": "Transfers ownership of the contract to a new account (`newOwner`). Can only be called by the current owner."
      }
    },
    "version": 1
  },
  "userdoc": {
    "kind": "user",
    "methods": {},
    "version": 1
  }
}