{
  "contractName": "Library",
  "abi": [
    {
      "anonymous": false,
      "inputs": [
        {
          "indexed": true,
          "internalType": "address",
          "name": "owner",
          "type": "address"
        },
        {
          "indexed": true,
          "internalType": "address",
          "name": "approved",
          "type": "address"
        },
        {
          "indexed": true,
          "internalType": "uint256",
          "name": "tokenId",
          "type": "uint256"
        }
      ],
      "name": "Approval",
      "type": "event"
    },
    {
      "anonymous": false,
      "inputs": [
        {
          "indexed": true,
          "internalType": "address",
          "name": "owner",
          "type": "address"
        },
        {
          "indexed": true,
          "internalType": "address",
          "name": "operator",
          "type": "address"
        },
        {
          "indexed": false,
          "internalType": "bool",
          "name": "approved",
          "type": "bool"
        }
      ],
      "name": "ApprovalForAll",
      "type": "event"
    },
    {
      "anonymous": false,
      "inputs": [
        {
          "indexed": true,
          "internalType": "address",
          "name": "previousOwner",
          "type": "address"
        },
        {
          "indexed": true,
          "internalType": "address",
          "name": "newOwner",
          "type": "address"
        }
      ],
      "name": "OwnershipTransferred",
      "type": "event"
    },
    {
      "anonymous": false,
      "inputs": [
        {
          "indexed": true,
          "internalType": "address",
          "name": "from",
          "type": "address"
        },
        {
          "indexed": true,
          "internalType": "address",
          "name": "to",
          "type": "address"
        },
        {
          "indexed": true,
          "internalType": "uint256",
          "name": "tokenId",
          "type": "uint256"
        }
      ],
      "name": "Transfer",
      "type": "event"
    },
    {
      "inputs": [
        {
          "internalType": "address",
          "name": "to",
          "type": "address"
        },
        {
          "internalType": "uint256",
          "name": "tokenId",
          "type": "uint256"
        }
      ],
      "name": "approve",
      "outputs": [],
      "stateMutability": "nonpayable",
      "type": "function"
    },
    {
      "inputs": [
        {
          "internalType": "address",
          "name": "owner",
          "type": "address"
        }
      ],
      "name": "balanceOf",
      "outputs": [
        {
          "internalType": "uint256",
          "name": "",
          "type": "uint256"
        }
      ],
      "stateMutability": "view",
      "type": "function"
    },
    {
      "inputs": [
        {
          "internalType": "uint256",
          "name": "tokenId",
          "type": "uint256"
        }
      ],
      "name": "getApproved",
      "outputs": [
        {
          "internalType": "address",
          "name": "",
          "type": "address"
        }
      ],
      "stateMutability": "view",
      "type": "function"
    },
    {
      "inputs": [
        {
          "internalType": "uint256",
          "name": "_bookId",
          "type": "uint256"
        }
      ],
      "name": "getPurchaser",
      "outputs": [
        {
          "internalType": "address[]",
          "name": "",
          "type": "address[]"
        }
      ],
      "stateMutability": "view",
      "type": "function"
    },
    {
      "inputs": [
        {
          "internalType": "uint256",
          "name": "_tokenId",
          "type": "uint256"
        }
      ],
      "name": "getTokenBorrower",
      "outputs": [
        {
          "internalType": "address",
          "name": "",
          "type": "address"
        }
      ],
      "stateMutability": "view",
      "type": "function"
    },
    {
      "inputs": [
        {
          "internalType": "uint256",
          "name": "_tokenId",
          "type": "uint256"
        }
      ],
      "name": "getTokenData",
      "outputs": [
        {
          "components": [
            {
              "internalType": "address",
              "name": "borrower",
              "type": "address"
            },
            {
              "internalType": "uint256",
              "name": "bookId",
              "type": "uint256"
            },
            {
              "internalType": "bool",
              "name": "allowToContract",
              "type": "bool"
            },
            {
              "internalType": "uint256",
              "name": "period",
              "type": "uint256"
            },
            {
              "internalType": "uint256",
              "name": "cost",
              "type": "uint256"
            },
            {
              "internalType": "uint256",
              "name": "start",
              "type": "uint256"
            }
          ],
          "internalType": "struct BorrowTokenManager.BorrowToken",
          "name": "",
          "type": "tuple"
        }
      ],
      "stateMutability": "view",
      "type": "function"
    },
    {
      "inputs": [],
      "name": "getTotalBook",
      "outputs": [
        {
          "internalType": "uint256",
          "name": "",
          "type": "uint256"
        }
      ],
      "stateMutability": "view",
      "type": "function"
    },
    {
      "inputs": [
        {
          "internalType": "address",
          "name": "owner",
          "type": "address"
        },
        {
          "internalType": "address",
          "name": "operator",
          "type": "address"
        }
      ],
      "name": "isApprovedForAll",
      "outputs": [
        {
          "internalType": "bool",
          "name": "",
          "type": "bool"
        }
      ],
      "stateMutability": "view",
      "type": "function"
    },
    {
      "inputs": [],
      "name": "name",
      "outputs": [
        {
          "internalType": "string",
          "name": "",
          "type": "string"
        }
      ],
      "stateMutability": "view",
      "type": "function"
    },
    {
      "inputs": [],
      "name": "owner",
      "outputs": [
        {
          "internalType": "address",
          "name": "",
          "type": "address"
        }
      ],
      "stateMutability": "view",
      "type": "function"
    },
    {
      "inputs": [
        {
          "internalType": "uint256",
          "name": "tokenId",
          "type": "uint256"
        }
      ],
      "name": "ownerOf",
      "outputs": [
        {
          "internalType": "address",
          "name": "",
          "type": "address"
        }
      ],
      "stateMutability": "view",
      "type": "function"
    },
    {
      "inputs": [],
      "name": "renounceOwnership",
      "outputs": [],
      "stateMutability": "nonpayable",
      "type": "function"
    },
    {
      "inputs": [
        {
          "internalType": "address",
          "name": "from",
          "type": "address"
        },
        {
          "internalType": "address",
          "name": "to",
          "type": "address"
        },
        {
          "internalType": "uint256",
          "name": "tokenId",
          "type": "uint256"
        }
      ],
      "name": "safeTransferFrom",
      "outputs": [],
      "stateMutability": "nonpayable",
      "type": "function"
    },
    {
      "inputs": [
        {
          "internalType": "address",
          "name": "from",
          "type": "address"
        },
        {
          "internalType": "address",
          "name": "to",
          "type": "address"
        },
        {
          "internalType": "uint256",
          "name": "tokenId",
          "type": "uint256"
        },
        {
          "internalType": "bytes",
          "name": "_data",
          "type": "bytes"
        }
      ],
      "name": "safeTransferFrom",
      "outputs": [],
      "stateMutability": "nonpayable",
      "type": "function"
    },
    {
      "inputs": [
        {
          "internalType": "address",
          "name": "operator",
          "type": "address"
        },
        {
          "internalType": "bool",
          "name": "approved",
          "type": "bool"
        }
      ],
      "name": "setApprovalForAll",
      "outputs": [],
      "stateMutability": "nonpayable",
      "type": "function"
    },
    {
      "inputs": [
        {
          "internalType": "bytes4",
          "name": "interfaceId",
          "type": "bytes4"
        }
      ],
      "name": "supportsInterface",
      "outputs": [
        {
          "internalType": "bool",
          "name": "",
          "type": "bool"
        }
      ],
      "stateMutability": "view",
      "type": "function"
    },
    {
      "inputs": [],
      "name": "symbol",
      "outputs": [
        {
          "internalType": "string",
          "name": "",
          "type": "string"
        }
      ],
      "stateMutability": "view",
      "type": "function"
    },
    {
      "inputs": [
        {
          "internalType": "uint256",
          "name": "index",
          "type": "uint256"
        }
      ],
      "name": "tokenByIndex",
      "outputs": [
        {
          "internalType": "uint256",
          "name": "",
          "type": "uint256"
        }
      ],
      "stateMutability": "view",
      "type": "function"
    },
    {
      "inputs": [
        {
          "internalType": "address",
          "name": "owner",
          "type": "address"
        },
        {
          "internalType": "uint256",
          "name": "index",
          "type": "uint256"
        }
      ],
      "name": "tokenOfOwnerByIndex",
      "outputs": [
        {
          "internalType": "uint256",
          "name": "",
          "type": "uint256"
        }
      ],
      "stateMutability": "view",
      "type": "function"
    },
    {
      "inputs": [
        {
          "internalType": "uint256",
          "name": "tokenId",
          "type": "uint256"
        }
      ],
      "name": "tokenURI",
      "outputs": [
        {
          "internalType": "string",
          "name": "",
          "type": "string"
        }
      ],
      "stateMutability": "view",
      "type": "function"
    },
    {
      "inputs": [],
      "name": "totalSupply",
      "outputs": [
        {
          "internalType": "uint256",
          "name": "",
          "type": "uint256"
        }
      ],
      "stateMutability": "view",
      "type": "function"
    },
    {
      "inputs": [
        {
          "internalType": "address",
          "name": "from",
          "type": "address"
        },
        {
          "internalType": "address",
          "name": "to",
          "type": "address"
        },
        {
          "internalType": "uint256",
          "name": "tokenId",
          "type": "uint256"
        }
      ],
      "name": "transferFrom",
      "outputs": [],
      "stateMutability": "nonpayable",
      "type": "function"
    },
    {
      "inputs": [
        {
          "internalType": "address",
          "name": "newOwner",
          "type": "address"
        }
      ],
      "name": "transferOwnership",
      "outputs": [],
      "stateMutability": "nonpayable",
      "type": "function"
    },
    {
      "inputs": [
        {
          "internalType": "address",
          "name": "_author",
          "type": "address"
        },
        {
          "internalType": "uint256",
          "name": "_price",
          "type": "uint256"
        }
      ],
      "name": "addBook",
      "outputs": [],
      "stateMutability": "nonpayable",
      "type": "function"
    },
    {
      "inputs": [
        {
          "internalType": "uint256",
          "name": "_bookId",
          "type": "uint256"
        },
        {
          "internalType": "address",
          "name": "_purchaser",
          "type": "address"
        }
      ],
      "name": "purchaseBook",
      "outputs": [],
      "stateMutability": "payable",
      "type": "function"
    },
    {
      "inputs": [
        {
          "internalType": "uint256",
          "name": "_tokenId",
          "type": "uint256"
        },
        {
          "internalType": "address",
          "name": "_tokenOwner",
          "type": "address"
        },
        {
          "internalType": "address",
          "name": "_borrower",
          "type": "address"
        }
      ],
      "name": "borrowBook",
      "outputs": [],
      "stateMutability": "payable",
      "type": "function"
    },
    {
      "inputs": [
        {
          "internalType": "uint256",
          "name": "_tokenId",
          "type": "uint256"
        },
        {
          "internalType": "address",
          "name": "_tokenOwner",
          "type": "address"
        }
      ],
      "name": "returnBook",
      "outputs": [],
      "stateMutability": "nonpayable",
      "type": "function"
    }
  ],
  "bytecode": "0x60806040523480156200001157600080fd5b506040518060400160405280601081526020017f4c696272617279426f6f6b546f6b656e000000000000000000000000000000008152506040518060400160405280600381526020017f4c42540000000000000000000000000000000000000000000000000000000000815250816000908051906020019062000096929190620001a6565b508060019080519060200190620000af929190620001a6565b505050620000d2620000c6620000d860201b60201c565b620000e060201b60201c565b620002bb565b600033905090565b6000600e60009054906101000a900473ffffffffffffffffffffffffffffffffffffffff16905081600e60006101000a81548173ffffffffffffffffffffffffffffffffffffffff021916908373ffffffffffffffffffffffffffffffffffffffff1602179055508173ffffffffffffffffffffffffffffffffffffffff168173ffffffffffffffffffffffffffffffffffffffff167f8be0079c531659141344cd1fd0a4f28419497f9722a3daafe3b4186f6b6457e060405160405180910390a35050565b828054620001b49062000285565b90600052602060002090601f016020900481019282620001d8576000855562000224565b82601f10620001f357805160ff191683800117855562000224565b8280016001018555821562000224579182015b828111156200022357825182559160200191906001019062000206565b5b50905062000233919062000237565b5090565b5b808211156200025257600081600090555060010162000238565b5090565b7f4e487b7100000000000000000000000000000000000000000000000000000000600052602260045260246000fd5b600060028204905060018216806200029e57607f821691505b60208210811415620002b557620002b462000256565b5b50919050565b61433380620002cb6000396000f3fe60806040526004361061019c5760003560e01c80638da5cb5b116100ec578063c87b56dd1161008a578063e985e9c511610064578063e985e9c514610610578063f0dd7a5d1461064d578063f2fde38b14610669578063f9e7d31f146106925761019c565b8063c87b56dd1461057f578063d1878794146105bc578063d2ce216b146105e55761019c565b8063a22cb465116100c6578063a22cb465146104b3578063a38ec001146104dc578063b09afec114610519578063b88d4fde146105565761019c565b80638da5cb5b146104345780638e2132681461045f57806395d89b41146104885761019c565b80632f745c59116101595780634f6ccce7116101335780634f6ccce7146103665780636352211e146103a357806370a08231146103e0578063715018a61461041d5761019c565b80632f745c59146102c357806342842e0e1461030057806349257f4e146103295761019c565b806301ffc9a7146101a157806306fdde03146101de578063081812fc14610209578063095ea7b31461024657806318160ddd1461026f57806323b872dd1461029a575b600080fd5b3480156101ad57600080fd5b506101c860048036038101906101c39190612de4565b6106ae565b6040516101d59190612e2c565b60405180910390f35b3480156101ea57600080fd5b506101f3610728565b6040516102009190612ee0565b60405180910390f35b34801561021557600080fd5b50610230600480360381019061022b9190612f38565b6107ba565b60405161023d9190612fa6565b60405180910390f35b34801561025257600080fd5b5061026d60048036038101906102689190612fed565b61083f565b005b34801561027b57600080fd5b50610284610957565b604051610291919061303c565b60405180910390f35b3480156102a657600080fd5b506102c160048036038101906102bc9190613057565b610964565b005b3480156102cf57600080fd5b506102ea60048036038101906102e59190612fed565b6109c4565b6040516102f7919061303c565b60405180910390f35b34801561030c57600080fd5b5061032760048036038101906103229190613057565b610a69565b005b34801561033557600080fd5b50610350600480360381019061034b9190612f38565b610a89565b60405161035d9190613168565b60405180910390f35b34801561037257600080fd5b5061038d60048036038101906103889190612f38565b610bde565b60405161039a919061303c565b60405180910390f35b3480156103af57600080fd5b506103ca60048036038101906103c59190612f38565b610c4f565b6040516103d79190612fa6565b60405180910390f35b3480156103ec57600080fd5b506104076004803603810190610402919061318a565b610d01565b604051610414919061303c565b60405180910390f35b34801561042957600080fd5b50610432610db9565b005b34801561044057600080fd5b50610449610e41565b6040516104569190612fa6565b60405180910390f35b34801561046b57600080fd5b50610486600480360381019061048191906131b7565b610e6b565b005b34801561049457600080fd5b5061049d610ebf565b6040516104aa9190612ee0565b60405180910390f35b3480156104bf57600080fd5b506104da60048036038101906104d59190613223565b610f51565b005b3480156104e857600080fd5b5061050360048036038101906104fe9190612f38565b610f67565b6040516105109190612fa6565b60405180910390f35b34801561052557600080fd5b50610540600480360381019061053b9190612f38565b611030565b60405161054d91906132fc565b60405180910390f35b34801561056257600080fd5b5061057d6004803603810190610578919061344c565b6110f6565b005b34801561058b57600080fd5b506105a660048036038101906105a19190612f38565b611158565b6040516105b39190612ee0565b60405180910390f35b3480156105c857600080fd5b506105e360048036038101906105de9190612fed565b6111ff565b005b3480156105f157600080fd5b506105fa611289565b604051610607919061303c565b60405180910390f35b34801561061c57600080fd5b50610637600480360381019061063291906134cf565b61129a565b6040516106449190612e2c565b60405180910390f35b6106676004803603810190610662919061350f565b61132e565b005b34801561067557600080fd5b50610690600480360381019061068b919061318a565b611377565b005b6106ac60048036038101906106a791906131b7565b61146f565b005b60007f780e9d63000000000000000000000000000000000000000000000000000000007bffffffffffffffffffffffffffffffffffffffffffffffffffffffff1916827bffffffffffffffffffffffffffffffffffffffffffffffffffffffff191614806107215750610720826114c1565b5b9050919050565b60606000805461073790613591565b80601f016020809104026020016040519081016040528092919081815260200182805461076390613591565b80156107b05780601f10610785576101008083540402835291602001916107b0565b820191906000526020600020905b81548152906001019060200180831161079357829003601f168201915b5050505050905090565b60006107c5826115a3565b610804576040517f08c379a00000000000000000000000000000000000000000000000000000000081526004016107fb90613635565b60405180910390fd5b6004600083815260200190815260200160002060009054906101000a900473ffffffffffffffffffffffffffffffffffffffff169050919050565b600061084a82610c4f565b90508073ffffffffffffffffffffffffffffffffffffffff168373ffffffffffffffffffffffffffffffffffffffff1614156108bb576040517f08c379a00000000000000000000000000000000000000000000000000000000081526004016108b2906136c7565b60405180910390fd5b8073ffffffffffffffffffffffffffffffffffffffff166108da61160f565b73ffffffffffffffffffffffffffffffffffffffff16148061090957506109088161090361160f565b61129a565b5b610948576040517f08c379a000000000000000000000000000000000000000000000000000000000815260040161093f90613759565b60405180910390fd5b6109528383611617565b505050565b6000600880549050905090565b61097561096f61160f565b826116d0565b6109b4576040517f08c379a00000000000000000000000000000000000000000000000000000000081526004016109ab906137eb565b60405180910390fd5b6109bf8383836117ae565b505050565b60006109cf83610d01565b8210610a10576040517f08c379a0000000000000000000000000000000000000000000000000000000008152600401610a079061387d565b60405180910390fd5b600660008473ffffffffffffffffffffffffffffffffffffffff1673ffffffffffffffffffffffffffffffffffffffff168152602001908152602001600020600083815260200190815260200160002054905092915050565b610a84838383604051806020016040528060008152506110f6565b505050565b606081610a96600c611a0a565b811115610aa257600080fd5b6000600d60008581526020019081526020016000206040518060800160405290816000820160009054906101000a900473ffffffffffffffffffffffffffffffffffffffff1673ffffffffffffffffffffffffffffffffffffffff1673ffffffffffffffffffffffffffffffffffffffff1681526020016001820154815260200160028201604051806020016040529081600082015481525050815260200160038201805480602002602001604051908101604052809291908181526020018280548015610bc557602002820191906000526020600020905b8160009054906101000a900473ffffffffffffffffffffffffffffffffffffffff1673ffffffffffffffffffffffffffffffffffffffff1681526020019060010190808311610b7b575b5050505050815250509050806060015192505050919050565b6000610be8610957565b8210610c29576040517f08c379a0000000000000000000000000000000000000000000000000000000008152600401610c209061390f565b60405180910390fd5b60088281548110610c3d57610c3c61392f565b5b90600052602060002001549050919050565b6000806002600084815260200190815260200160002060009054906101000a900473ffffffffffffffffffffffffffffffffffffffff169050600073ffffffffffffffffffffffffffffffffffffffff168173ffffffffffffffffffffffffffffffffffffffff161415610cf8576040517f08c379a0000000000000000000000000000000000000000000000000000000008152600401610cef906139d0565b60405180910390fd5b80915050919050565b60008073ffffffffffffffffffffffffffffffffffffffff168273ffffffffffffffffffffffffffffffffffffffff161415610d72576040517f08c379a0000000000000000000000000000000000000000000000000000000008152600401610d6990613a62565b60405180910390fd5b600360008373ffffffffffffffffffffffffffffffffffffffff1673ffffffffffffffffffffffffffffffffffffffff168152602001908152602001600020549050919050565b610dc161160f565b73ffffffffffffffffffffffffffffffffffffffff16610ddf610e41565b73ffffffffffffffffffffffffffffffffffffffff1614610e35576040517f08c379a0000000000000000000000000000000000000000000000000000000008152600401610e2c90613ace565b60405180910390fd5b610e3f6000611a18565b565b6000600e60009054906101000a900473ffffffffffffffffffffffffffffffffffffffff16905090565b6000610e7683610c4f565b90508173ffffffffffffffffffffffffffffffffffffffff168173ffffffffffffffffffffffffffffffffffffffff1614610eb057600080fd5b610eba8383611ade565b505050565b606060018054610ece90613591565b80601f0160208091040260200160405190810160405280929190818152602001828054610efa90613591565b8015610f475780601f10610f1c57610100808354040283529160200191610f47565b820191906000526020600020905b815481529060010190602001808311610f2a57829003601f168201915b5050505050905090565b610f63610f5c61160f565b8383611bf6565b5050565b600080600a60008481526020019081526020016000206040518060c00160405290816000820160009054906101000a900473ffffffffffffffffffffffffffffffffffffffff1673ffffffffffffffffffffffffffffffffffffffff1673ffffffffffffffffffffffffffffffffffffffff168152602001600182015481526020016002820160009054906101000a900460ff16151515158152602001600382015481526020016004820154815260200160058201548152505090508060000151915050919050565b611038612d2a565b600a60008381526020019081526020016000206040518060c00160405290816000820160009054906101000a900473ffffffffffffffffffffffffffffffffffffffff1673ffffffffffffffffffffffffffffffffffffffff1673ffffffffffffffffffffffffffffffffffffffff168152602001600182015481526020016002820160009054906101000a900460ff1615151515815260200160038201548152602001600482015481526020016005820154815250509050919050565b61110761110161160f565b836116d0565b611146576040517f08c379a000000000000000000000000000000000000000000000000000000000815260040161113d906137eb565b60405180910390fd5b61115284848484611d63565b50505050565b6060611163826115a3565b6111a2576040517f08c379a000000000000000000000000000000000000000000000000000000000815260040161119990613b60565b60405180910390fd5b60006111ac611dbf565b905060008151116111cc57604051806020016040528060008152506111f7565b806111d684611dd6565b6040516020016111e7929190613bbc565b6040516020818303038152906040525b915050919050565b61120761160f565b73ffffffffffffffffffffffffffffffffffffffff16611225610e41565b73ffffffffffffffffffffffffffffffffffffffff161461127b576040517f08c379a000000000000000000000000000000000000000000000000000000000815260040161127290613ace565b60405180910390fd5b6112858282611f37565b5050565b6000611295600c611a0a565b905090565b6000600560008473ffffffffffffffffffffffffffffffffffffffff1673ffffffffffffffffffffffffffffffffffffffff16815260200190815260200160002060008373ffffffffffffffffffffffffffffffffffffffff1673ffffffffffffffffffffffffffffffffffffffff16815260200190815260200160002060009054906101000a900460ff16905092915050565b8073ffffffffffffffffffffffffffffffffffffffff163373ffffffffffffffffffffffffffffffffffffffff161461136657600080fd5b61137283838334611fb2565b505050565b61137f61160f565b73ffffffffffffffffffffffffffffffffffffffff1661139d610e41565b73ffffffffffffffffffffffffffffffffffffffff16146113f3576040517f08c379a00000000000000000000000000000000000000000000000000000000081526004016113ea90613ace565b60405180910390fd5b600073ffffffffffffffffffffffffffffffffffffffff168173ffffffffffffffffffffffffffffffffffffffff161415611463576040517f08c379a000000000000000000000000000000000000000000000000000000000815260040161145a90613c52565b60405180910390fd5b61146c81611a18565b50565b8073ffffffffffffffffffffffffffffffffffffffff163373ffffffffffffffffffffffffffffffffffffffff16146114a757600080fd5b6114b28282346120cb565b6114bc8282612286565b505050565b60007f80ac58cd000000000000000000000000000000000000000000000000000000007bffffffffffffffffffffffffffffffffffffffffffffffffffffffff1916827bffffffffffffffffffffffffffffffffffffffffffffffffffffffff1916148061158c57507f5b5e139f000000000000000000000000000000000000000000000000000000007bffffffffffffffffffffffffffffffffffffffffffffffffffffffff1916827bffffffffffffffffffffffffffffffffffffffffffffffffffffffff1916145b8061159c575061159b826122bf565b5b9050919050565b60008073ffffffffffffffffffffffffffffffffffffffff166002600084815260200190815260200160002060009054906101000a900473ffffffffffffffffffffffffffffffffffffffff1673ffffffffffffffffffffffffffffffffffffffff1614159050919050565b600033905090565b816004600083815260200190815260200160002060006101000a81548173ffffffffffffffffffffffffffffffffffffffff021916908373ffffffffffffffffffffffffffffffffffffffff160217905550808273ffffffffffffffffffffffffffffffffffffffff1661168a83610c4f565b73ffffffffffffffffffffffffffffffffffffffff167f8c5be1e5ebec7d5bd14f71427d1e84f3dd0314c0f7b2291e5b200ac8c7c3b92560405160405180910390a45050565b60006116db826115a3565b61171a576040517f08c379a000000000000000000000000000000000000000000000000000000000815260040161171190613ce4565b60405180910390fd5b600061172583610c4f565b90508073ffffffffffffffffffffffffffffffffffffffff168473ffffffffffffffffffffffffffffffffffffffff16148061179457508373ffffffffffffffffffffffffffffffffffffffff1661177c846107ba565b73ffffffffffffffffffffffffffffffffffffffff16145b806117a557506117a4818561129a565b5b91505092915050565b8273ffffffffffffffffffffffffffffffffffffffff166117ce82610c4f565b73ffffffffffffffffffffffffffffffffffffffff1614611824576040517f08c379a000000000000000000000000000000000000000000000000000000000815260040161181b90613d76565b60405180910390fd5b600073ffffffffffffffffffffffffffffffffffffffff168273ffffffffffffffffffffffffffffffffffffffff161415611894576040517f08c379a000000000000000000000000000000000000000000000000000000000815260040161188b90613e08565b60405180910390fd5b61189f838383612329565b6118aa600082611617565b6001600360008573ffffffffffffffffffffffffffffffffffffffff1673ffffffffffffffffffffffffffffffffffffffff16815260200190815260200160002060008282546118fa9190613e57565b925050819055506001600360008473ffffffffffffffffffffffffffffffffffffffff1673ffffffffffffffffffffffffffffffffffffffff16815260200190815260200160002060008282546119519190613e8b565b92505081905550816002600083815260200190815260200160002060006101000a81548173ffffffffffffffffffffffffffffffffffffffff021916908373ffffffffffffffffffffffffffffffffffffffff160217905550808273ffffffffffffffffffffffffffffffffffffffff168473ffffffffffffffffffffffffffffffffffffffff167fddf252ad1be2c89b69c2b068fc378daa952ba7f163c4a11628f55a4df523b3ef60405160405180910390a4505050565b600081600001549050919050565b6000600e60009054906101000a900473ffffffffffffffffffffffffffffffffffffffff16905081600e60006101000a81548173ffffffffffffffffffffffffffffffffffffffff021916908373ffffffffffffffffffffffffffffffffffffffff1602179055508173ffffffffffffffffffffffffffffffffffffffff168173ffffffffffffffffffffffffffffffffffffffff167f8be0079c531659141344cd1fd0a4f28419497f9722a3daafe3b4186f6b6457e060405160405180910390a35050565b6000600a60008481526020019081526020016000209050611ba4816040518060c00160405290816000820160009054906101000a900473ffffffffffffffffffffffffffffffffffffffff1673ffffffffffffffffffffffffffffffffffffffff1673ffffffffffffffffffffffffffffffffffffffff168152602001600182015481526020016002820160009054906101000a900460ff161515151581526020016003820154815260200160048201548152602001600582015481525050833361243d565b818160000160006101000a81548173ffffffffffffffffffffffffffffffffffffffff021916908373ffffffffffffffffffffffffffffffffffffffff16021790555060008160050181905550505050565b8173ffffffffffffffffffffffffffffffffffffffff168373ffffffffffffffffffffffffffffffffffffffff161415611c65576040517f08c379a0000000000000000000000000000000000000000000000000000000008152600401611c5c90613f2d565b60405180910390fd5b80600560008573ffffffffffffffffffffffffffffffffffffffff1673ffffffffffffffffffffffffffffffffffffffff16815260200190815260200160002060008473ffffffffffffffffffffffffffffffffffffffff1673ffffffffffffffffffffffffffffffffffffffff16815260200190815260200160002060006101000a81548160ff0219169083151502179055508173ffffffffffffffffffffffffffffffffffffffff168373ffffffffffffffffffffffffffffffffffffffff167f17307eab39ab6107e8899845ad3d59bd9653f200f220920489ca2b5937696c3183604051611d569190612e2c565b60405180910390a3505050565b611d6e8484846117ae565b611d7a8484848461251e565b611db9576040517f08c379a0000000000000000000000000000000000000000000000000000000008152600401611db090613fbf565b60405180910390fd5b50505050565b606060405180602001604052806000815250905090565b60606000821415611e1e576040518060400160405280600181526020017f30000000000000000000000000000000000000000000000000000000000000008152509050611f32565b600082905060005b60008214611e50578080611e3990613fdf565b915050600a82611e499190614057565b9150611e26565b60008167ffffffffffffffff811115611e6c57611e6b613321565b5b6040519080825280601f01601f191660200182016040528015611e9e5781602001600182028036833780820191505090505b5090505b60008514611f2b57600182611eb79190613e57565b9150600a85611ec69190614088565b6030611ed29190613e8b565b60f81b818381518110611ee857611ee761392f565b5b60200101907effffffffffffffffffffffffffffffffffffffffffffffffffffffffffffff1916908160001a905350600a85611f249190614057565b9450611ea2565b8093505050505b919050565b611f41600c6126a6565b6000600d6000611f51600c611a0a565b81526020019081526020016000209050828160000160006101000a81548173ffffffffffffffffffffffffffffffffffffffff021916908373ffffffffffffffffffffffffffffffffffffffff160217905550818160010181905550505050565b6000600a60008681526020019081526020016000209050612078816040518060c00160405290816000820160009054906101000a900473ffffffffffffffffffffffffffffffffffffffff1673ffffffffffffffffffffffffffffffffffffffff1673ffffffffffffffffffffffffffffffffffffffff168152602001600182015481526020016002820160009054906101000a900460ff16151515158152602001600382015481526020016004820154815260200160058201548152505085846126bc565b828160000160006101000a81548173ffffffffffffffffffffffffffffffffffffffff021916908373ffffffffffffffffffffffffffffffffffffffff1602179055504281600501819055505050505050565b826120d6600c611a0a565b8111156120e257600080fd5b6000600d6000868152602001908152602001600020905061221a816040518060800160405290816000820160009054906101000a900473ffffffffffffffffffffffffffffffffffffffff1673ffffffffffffffffffffffffffffffffffffffff1673ffffffffffffffffffffffffffffffffffffffff168152602001600182015481526020016002820160405180602001604052908160008201548152505081526020016003820180548060200260200160405190810160405280929190818152602001828054801561220b57602002820191906000526020600020905b8160009054906101000a900473ffffffffffffffffffffffffffffffffffffffff1673ffffffffffffffffffffffffffffffffffffffff16815260200190600101908083116121c1575b5050505050815250508461270d565b80600301849080600181540180825580915050600190039060005260206000200160009091909190916101000a81548173ffffffffffffffffffffffffffffffffffffffff021916908373ffffffffffffffffffffffffffffffffffffffff1602179055505050505050565b6000612292600b6126a6565b600061229e600b611a0a565b90506122aa8382612721565b6122b581848661273f565b8091505092915050565b60007f01ffc9a7000000000000000000000000000000000000000000000000000000007bffffffffffffffffffffffffffffffffffffffffffffffffffffffff1916827bffffffffffffffffffffffffffffffffffffffffffffffffffffffff1916149050919050565b6123348383836127e3565b600073ffffffffffffffffffffffffffffffffffffffff168373ffffffffffffffffffffffffffffffffffffffff16141561237757612372816127e8565b6123b6565b8173ffffffffffffffffffffffffffffffffffffffff168373ffffffffffffffffffffffffffffffffffffffff16146123b5576123b48382612831565b5b5b600073ffffffffffffffffffffffffffffffffffffffff168273ffffffffffffffffffffffffffffffffffffffff1614156123f9576123f48161299e565b612438565b8273ffffffffffffffffffffffffffffffffffffffff168273ffffffffffffffffffffffffffffffffffffffff1614612437576124368282612a6f565b5b5b505050565b62015180836060015161245091906140b9565b8360a0015161245f9190613e8b565b42106124dc578073ffffffffffffffffffffffffffffffffffffffff16836000015173ffffffffffffffffffffffffffffffffffffffff1614806124ce57508073ffffffffffffffffffffffffffffffffffffffff168273ffffffffffffffffffffffffffffffffffffffff16145b6124d757600080fd5b612519565b8073ffffffffffffffffffffffffffffffffffffffff16836000015173ffffffffffffffffffffffffffffffffffffffff161461251857600080fd5b5b505050565b600061253f8473ffffffffffffffffffffffffffffffffffffffff16612aee565b15612699578373ffffffffffffffffffffffffffffffffffffffff1663150b7a0261256861160f565b8786866040518563ffffffff1660e01b815260040161258a9493929190614168565b6020604051808303816000875af19250505080156125c657506040513d601f19601f820116820180604052508101906125c391906141c9565b60015b612649573d80600081146125f6576040519150601f19603f3d011682016040523d82523d6000602084013e6125fb565b606091505b50600081511415612641576040517f08c379a000000000000000000000000000000000000000000000000000000000815260040161263890613fbf565b60405180910390fd5b805181602001fd5b63150b7a0260e01b7bffffffffffffffffffffffffffffffffffffffffffffffffffffffff1916817bffffffffffffffffffffffffffffffffffffffffffffffffffffffff19161491505061269e565b600190505b949350505050565b6001816000016000828254019250508190555050565b808360800151146126cc57600080fd5b8173ffffffffffffffffffffffffffffffffffffffff16836000015173ffffffffffffffffffffffffffffffffffffffff161461270857600080fd5b505050565b8082602001511461271d57600080fd5b5050565b61273b828260405180602001604052806000815250612b01565b5050565b6000600a60008581526020019081526020016000209050828160000160006101000a81548173ffffffffffffffffffffffffffffffffffffffff021916908373ffffffffffffffffffffffffffffffffffffffff16021790555081816001018190555060008160020160006101000a81548160ff02191690831515021790555060018160030181905550600081600401819055506000816005018190555050505050565b505050565b6008805490506009600083815260200190815260200160002081905550600881908060018154018082558091505060019003906000526020600020016000909190919091505550565b6000600161283e84610d01565b6128489190613e57565b905060006007600084815260200190815260200160002054905081811461292d576000600660008673ffffffffffffffffffffffffffffffffffffffff1673ffffffffffffffffffffffffffffffffffffffff168152602001908152602001600020600084815260200190815260200160002054905080600660008773ffffffffffffffffffffffffffffffffffffffff1673ffffffffffffffffffffffffffffffffffffffff168152602001908152602001600020600084815260200190815260200160002081905550816007600083815260200190815260200160002081905550505b6007600084815260200190815260200160002060009055600660008573ffffffffffffffffffffffffffffffffffffffff1673ffffffffffffffffffffffffffffffffffffffff16815260200190815260200160002060008381526020019081526020016000206000905550505050565b600060016008805490506129b29190613e57565b90506000600960008481526020019081526020016000205490506000600883815481106129e2576129e161392f565b5b906000526020600020015490508060088381548110612a0457612a0361392f565b5b906000526020600020018190555081600960008381526020019081526020016000208190555060096000858152602001908152602001600020600090556008805480612a5357612a526141f6565b5b6001900381819060005260206000200160009055905550505050565b6000612a7a83610d01565b905081600660008573ffffffffffffffffffffffffffffffffffffffff1673ffffffffffffffffffffffffffffffffffffffff168152602001908152602001600020600083815260200190815260200160002081905550806007600084815260200190815260200160002081905550505050565b600080823b905060008111915050919050565b612b0b8383612b5c565b612b18600084848461251e565b612b57576040517f08c379a0000000000000000000000000000000000000000000000000000000008152600401612b4e90613fbf565b60405180910390fd5b505050565b600073ffffffffffffffffffffffffffffffffffffffff168273ffffffffffffffffffffffffffffffffffffffff161415612bcc576040517f08c379a0000000000000000000000000000000000000000000000000000000008152600401612bc390614271565b60405180910390fd5b612bd5816115a3565b15612c15576040517f08c379a0000000000000000000000000000000000000000000000000000000008152600401612c0c906142dd565b60405180910390fd5b612c2160008383612329565b6001600360008473ffffffffffffffffffffffffffffffffffffffff1673ffffffffffffffffffffffffffffffffffffffff1681526020019081526020016000206000828254612c719190613e8b565b92505081905550816002600083815260200190815260200160002060006101000a81548173ffffffffffffffffffffffffffffffffffffffff021916908373ffffffffffffffffffffffffffffffffffffffff160217905550808273ffffffffffffffffffffffffffffffffffffffff16600073ffffffffffffffffffffffffffffffffffffffff167fddf252ad1be2c89b69c2b068fc378daa952ba7f163c4a11628f55a4df523b3ef60405160405180910390a45050565b6040518060c00160405280600073ffffffffffffffffffffffffffffffffffffffff168152602001600081526020016000151581526020016000815260200160008152602001600081525090565b6000604051905090565b600080fd5b600080fd5b60007fffffffff0000000000000000000000000000000000000000000000000000000082169050919050565b612dc181612d8c565b8114612dcc57600080fd5b50565b600081359050612dde81612db8565b92915050565b600060208284031215612dfa57612df9612d82565b5b6000612e0884828501612dcf565b91505092915050565b60008115159050919050565b612e2681612e11565b82525050565b6000602082019050612e416000830184612e1d565b92915050565b600081519050919050565b600082825260208201905092915050565b60005b83811015612e81578082015181840152602081019050612e66565b83811115612e90576000848401525b50505050565b6000601f19601f8301169050919050565b6000612eb282612e47565b612ebc8185612e52565b9350612ecc818560208601612e63565b612ed581612e96565b840191505092915050565b60006020820190508181036000830152612efa8184612ea7565b905092915050565b6000819050919050565b612f1581612f02565b8114612f2057600080fd5b50565b600081359050612f3281612f0c565b92915050565b600060208284031215612f4e57612f4d612d82565b5b6000612f5c84828501612f23565b91505092915050565b600073ffffffffffffffffffffffffffffffffffffffff82169050919050565b6000612f9082612f65565b9050919050565b612fa081612f85565b82525050565b6000602082019050612fbb6000830184612f97565b92915050565b612fca81612f85565b8114612fd557600080fd5b50565b600081359050612fe781612fc1565b92915050565b6000806040838503121561300457613003612d82565b5b600061301285828601612fd8565b925050602061302385828601612f23565b9150509250929050565b61303681612f02565b82525050565b6000602082019050613051600083018461302d565b92915050565b6000806000606084860312156130705761306f612d82565b5b600061307e86828701612fd8565b935050602061308f86828701612fd8565b92505060406130a086828701612f23565b9150509250925092565b600081519050919050565b600082825260208201905092915050565b6000819050602082019050919050565b6130df81612f85565b82525050565b60006130f183836130d6565b60208301905092915050565b6000602082019050919050565b6000613115826130aa565b61311f81856130b5565b935061312a836130c6565b8060005b8381101561315b57815161314288826130e5565b975061314d836130fd565b92505060018101905061312e565b5085935050505092915050565b60006020820190508181036000830152613182818461310a565b905092915050565b6000602082840312156131a05761319f612d82565b5b60006131ae84828501612fd8565b91505092915050565b600080604083850312156131ce576131cd612d82565b5b60006131dc85828601612f23565b92505060206131ed85828601612fd8565b9150509250929050565b61320081612e11565b811461320b57600080fd5b50565b60008135905061321d816131f7565b92915050565b6000806040838503121561323a57613239612d82565b5b600061324885828601612fd8565b92505060206132598582860161320e565b9150509250929050565b61326c81612f02565b82525050565b61327b81612e11565b82525050565b60c08201600082015161329760008501826130d6565b5060208201516132aa6020850182613263565b5060408201516132bd6040850182613272565b5060608201516132d06060850182613263565b5060808201516132e36080850182613263565b5060a08201516132f660a0850182613263565b50505050565b600060c0820190506133116000830184613281565b92915050565b600080fd5b600080fd5b7f4e487b7100000000000000000000000000000000000000000000000000000000600052604160045260246000fd5b61335982612e96565b810181811067ffffffffffffffff8211171561337857613377613321565b5b80604052505050565b600061338b612d78565b90506133978282613350565b919050565b600067ffffffffffffffff8211156133b7576133b6613321565b5b6133c082612e96565b9050602081019050919050565b82818337600083830152505050565b60006133ef6133ea8461339c565b613381565b90508281526020810184848401111561340b5761340a61331c565b5b6134168482856133cd565b509392505050565b600082601f83011261343357613432613317565b5b81356134438482602086016133dc565b91505092915050565b6000806000806080858703121561346657613465612d82565b5b600061347487828801612fd8565b945050602061348587828801612fd8565b935050604061349687828801612f23565b925050606085013567ffffffffffffffff8111156134b7576134b6612d87565b5b6134c38782880161341e565b91505092959194509250565b600080604083850312156134e6576134e5612d82565b5b60006134f485828601612fd8565b925050602061350585828601612fd8565b9150509250929050565b60008060006060848603121561352857613527612d82565b5b600061353686828701612f23565b935050602061354786828701612fd8565b925050604061355886828701612fd8565b9150509250925092565b7f4e487b7100000000000000000000000000000000000000000000000000000000600052602260045260246000fd5b600060028204905060018216806135a957607f821691505b602082108114156135bd576135bc613562565b5b50919050565b7f4552433732313a20617070726f76656420717565727920666f72206e6f6e657860008201527f697374656e7420746f6b656e0000000000000000000000000000000000000000602082015250565b600061361f602c83612e52565b915061362a826135c3565b604082019050919050565b6000602082019050818103600083015261364e81613612565b9050919050565b7f4552433732313a20617070726f76616c20746f2063757272656e74206f776e6560008201527f7200000000000000000000000000000000000000000000000000000000000000602082015250565b60006136b1602183612e52565b91506136bc82613655565b604082019050919050565b600060208201905081810360008301526136e0816136a4565b9050919050565b7f4552433732313a20617070726f76652063616c6c6572206973206e6f74206f7760008201527f6e6572206e6f7220617070726f76656420666f7220616c6c0000000000000000602082015250565b6000613743603883612e52565b915061374e826136e7565b604082019050919050565b6000602082019050818103600083015261377281613736565b9050919050565b7f4552433732313a207472616e736665722063616c6c6572206973206e6f74206f60008201527f776e6572206e6f7220617070726f766564000000000000000000000000000000602082015250565b60006137d5603183612e52565b91506137e082613779565b604082019050919050565b60006020820190508181036000830152613804816137c8565b9050919050565b7f455243373231456e756d657261626c653a206f776e657220696e646578206f7560008201527f74206f6620626f756e6473000000000000000000000000000000000000000000602082015250565b6000613867602b83612e52565b91506138728261380b565b604082019050919050565b600060208201905081810360008301526138968161385a565b9050919050565b7f455243373231456e756d657261626c653a20676c6f62616c20696e646578206f60008201527f7574206f6620626f756e64730000000000000000000000000000000000000000602082015250565b60006138f9602c83612e52565b91506139048261389d565b604082019050919050565b60006020820190508181036000830152613928816138ec565b9050919050565b7f4e487b7100000000000000000000000000000000000000000000000000000000600052603260045260246000fd5b7f4552433732313a206f776e657220717565727920666f72206e6f6e657869737460008201527f656e7420746f6b656e0000000000000000000000000000000000000000000000602082015250565b60006139ba602983612e52565b91506139c58261395e565b604082019050919050565b600060208201905081810360008301526139e9816139ad565b9050919050565b7f4552433732313a2062616c616e636520717565727920666f7220746865207a6560008201527f726f206164647265737300000000000000000000000000000000000000000000602082015250565b6000613a4c602a83612e52565b9150613a57826139f0565b604082019050919050565b60006020820190508181036000830152613a7b81613a3f565b9050919050565b7f4f776e61626c653a2063616c6c6572206973206e6f7420746865206f776e6572600082015250565b6000613ab8602083612e52565b9150613ac382613a82565b602082019050919050565b60006020820190508181036000830152613ae781613aab565b9050919050565b7f4552433732314d657461646174613a2055524920717565727920666f72206e6f60008201527f6e6578697374656e7420746f6b656e0000000000000000000000000000000000602082015250565b6000613b4a602f83612e52565b9150613b5582613aee565b604082019050919050565b60006020820190508181036000830152613b7981613b3d565b9050919050565b600081905092915050565b6000613b9682612e47565b613ba08185613b80565b9350613bb0818560208601612e63565b80840191505092915050565b6000613bc88285613b8b565b9150613bd48284613b8b565b91508190509392505050565b7f4f776e61626c653a206e6577206f776e657220697320746865207a65726f206160008201527f6464726573730000000000000000000000000000000000000000000000000000602082015250565b6000613c3c602683612e52565b9150613c4782613be0565b604082019050919050565b60006020820190508181036000830152613c6b81613c2f565b9050919050565b7f4552433732313a206f70657261746f7220717565727920666f72206e6f6e657860008201527f697374656e7420746f6b656e0000000000000000000000000000000000000000602082015250565b6000613cce602c83612e52565b9150613cd982613c72565b604082019050919050565b60006020820190508181036000830152613cfd81613cc1565b9050919050565b7f4552433732313a207472616e73666572206f6620746f6b656e2074686174206960008201527f73206e6f74206f776e0000000000000000000000000000000000000000000000602082015250565b6000613d60602983612e52565b9150613d6b82613d04565b604082019050919050565b60006020820190508181036000830152613d8f81613d53565b9050919050565b7f4552433732313a207472616e7366657220746f20746865207a65726f2061646460008201527f7265737300000000000000000000000000000000000000000000000000000000602082015250565b6000613df2602483612e52565b9150613dfd82613d96565b604082019050919050565b60006020820190508181036000830152613e2181613de5565b9050919050565b7f4e487b7100000000000000000000000000000000000000000000000000000000600052601160045260246000fd5b6000613e6282612f02565b9150613e6d83612f02565b925082821015613e8057613e7f613e28565b5b828203905092915050565b6000613e9682612f02565b9150613ea183612f02565b9250827fffffffffffffffffffffffffffffffffffffffffffffffffffffffffffffffff03821115613ed657613ed5613e28565b5b828201905092915050565b7f4552433732313a20617070726f766520746f2063616c6c657200000000000000600082015250565b6000613f17601983612e52565b9150613f2282613ee1565b602082019050919050565b60006020820190508181036000830152613f4681613f0a565b9050919050565b7f4552433732313a207472616e7366657220746f206e6f6e20455243373231526560008201527f63656976657220696d706c656d656e7465720000000000000000000000000000602082015250565b6000613fa9603283612e52565b9150613fb482613f4d565b604082019050919050565b60006020820190508181036000830152613fd881613f9c565b9050919050565b6000613fea82612f02565b91507fffffffffffffffffffffffffffffffffffffffffffffffffffffffffffffffff82141561401d5761401c613e28565b5b600182019050919050565b7f4e487b7100000000000000000000000000000000000000000000000000000000600052601260045260246000fd5b600061406282612f02565b915061406d83612f02565b92508261407d5761407c614028565b5b828204905092915050565b600061409382612f02565b915061409e83612f02565b9250826140ae576140ad614028565b5b828206905092915050565b60006140c482612f02565b91506140cf83612f02565b9250817fffffffffffffffffffffffffffffffffffffffffffffffffffffffffffffffff048311821515161561410857614107613e28565b5b828202905092915050565b600081519050919050565b600082825260208201905092915050565b600061413a82614113565b614144818561411e565b9350614154818560208601612e63565b61415d81612e96565b840191505092915050565b600060808201905061417d6000830187612f97565b61418a6020830186612f97565b614197604083018561302d565b81810360608301526141a9818461412f565b905095945050505050565b6000815190506141c381612db8565b92915050565b6000602082840312156141df576141de612d82565b5b60006141ed848285016141b4565b91505092915050565b7f4e487b7100000000000000000000000000000000000000000000000000000000600052603160045260246000fd5b7f4552433732313a206d696e7420746f20746865207a65726f2061646472657373600082015250565b600061425b602083612e52565b915061426682614225565b602082019050919050565b6000602082019050818103600083015261428a8161424e565b9050919050565b7f4552433732313a20746f6b656e20616c7265616479206d696e74656400000000600082015250565b60006142c7601c83612e52565b91506142d282614291565b602082019050919050565b600060208201905081810360008301526142f6816142ba565b905091905056fea2646970667358221220faf80c2381a6e8be99a5c3a6629f6bb93517b17e2b68a817c3bc79546076974964736f6c634300080b0033",
  "immutableReferences": {},
  "source": "// SPDX-License-Identifier: MIT\npragma solidity 0.8.11;\n\nimport \"@openzeppelin/contracts/access/Ownable.sol\";\n\nimport './devs/TokenManager.sol';\nimport './devs/BookManager.sol';\n\n// all payable functions are to implement here\ncontract Library is TokenManager, BookManager, Ownable{\n\n    // add book\n    function addBook(address _author, uint _price) external onlyOwner {\n        _addBook(_author, _price);\n    }\n\n    // purchase Book\n    function purchaseBook(uint _bookId, address _purchaser) external payable {\n        require(msg.sender == _purchaser);\n        _purchaseBook(_bookId, _purchaser, msg.value);\n        _purchaseToken(_bookId, _purchaser);\n    }\n\n    // borrow Book\n    function borrowBook(uint _tokenId, address _tokenOwner, address _borrower) external payable{\n        require(msg.sender == _borrower);\n        _borrowToken(_tokenId, _tokenOwner, _borrower, msg.value);\n    }\n\n    // return Book\n    function returnBook(uint _tokenId, address _tokenOwner) external {\n        address owner = ownerOf(_tokenId);\n        require(owner == _tokenOwner);\n        _returnToken(_tokenId, _tokenOwner);\n    }\n}",
  "sourcePath": "/Users/jin/workplace/ethereum/library/contracts/Library.sol",
  "compiler": {
    "name": "solc",
    "version": "0.8.11+commit.d7f03943.Emscripten.clang"
  },
  "schemaVersion": "3.4.4",
  "updatedAt": "2021-12-24T07:39:41.589Z",
  "devdoc": {
    "kind": "dev",
    "methods": {
      "approve(address,uint256)": {
        "details": "See {IERC721-approve}."
      },
      "balanceOf(address)": {
        "details": "See {IERC721-balanceOf}."
      },
      "getApproved(uint256)": {
        "details": "See {IERC721-getApproved}."
      },
      "isApprovedForAll(address,address)": {
        "details": "See {IERC721-isApprovedForAll}."
      },
      "name()": {
        "details": "See {IERC721Metadata-name}."
      },
      "owner()": {
        "details": "Returns the address of the current owner."
      },
      "ownerOf(uint256)": {
        "details": "See {IERC721-ownerOf}."
      },
      "renounceOwnership()": {
        "details": "Leaves the contract without owner. It will not be possible to call `onlyOwner` functions anymore. Can only be called by the current owner. NOTE: Renouncing ownership will leave the contract without an owner, thereby removing any functionality that is only available to the owner."
      },
      "safeTransferFrom(address,address,uint256)": {
        "details": "See {IERC721-safeTransferFrom}."
      },
      "safeTransferFrom(address,address,uint256,bytes)": {
        "details": "See {IERC721-safeTransferFrom}."
      },
      "setApprovalForAll(address,bool)": {
        "details": "See {IERC721-setApprovalForAll}."
      },
      "supportsInterface(bytes4)": {
        "details": "See {IERC165-supportsInterface}."
      },
      "symbol()": {
        "details": "See {IERC721Metadata-symbol}."
      },
      "tokenByIndex(uint256)": {
        "details": "See {IERC721Enumerable-tokenByIndex}."
      },
      "tokenOfOwnerByIndex(address,uint256)": {
        "details": "See {IERC721Enumerable-tokenOfOwnerByIndex}."
      },
      "tokenURI(uint256)": {
        "details": "See {IERC721Metadata-tokenURI}."
      },
      "totalSupply()": {
        "details": "See {IERC721Enumerable-totalSupply}."
      },
      "transferFrom(address,address,uint256)": {
        "details": "See {IERC721-transferFrom}."
      },
      "transferOwnership(address)": {
        "details": "Transfers ownership of the contract to a new account (`newOwner`). Can only be called by the current owner."
      }
    },
    "version": 1
  },
  "userdoc": {
    "kind": "user",
    "methods": {},
    "version": 1
  }
}