{
  "contractName": "UserManager",
  "abi": [
    {
      "inputs": [
        {
          "internalType": "address",
          "name": "",
          "type": "address"
        }
      ],
      "name": "isAlreadyPurchased",
      "outputs": [
        {
          "internalType": "bool",
          "name": "",
          "type": "bool"
        }
      ],
      "stateMutability": "view",
      "type": "function"
    },
    {
      "inputs": [
        {
          "internalType": "uint256",
          "name": "",
          "type": "uint256"
        }
      ],
      "name": "purchaserAddresses",
      "outputs": [
        {
          "internalType": "address",
          "name": "",
          "type": "address"
        }
      ],
      "stateMutability": "view",
      "type": "function"
    },
    {
      "inputs": [
        {
          "internalType": "address",
          "name": "",
          "type": "address"
        }
      ],
      "name": "users",
      "outputs": [
        {
          "internalType": "uint256",
          "name": "numBorrowing",
          "type": "uint256"
        }
      ],
      "stateMutability": "view",
      "type": "function"
    },
    {
      "inputs": [
        {
          "internalType": "address",
          "name": "_user",
          "type": "address"
        }
      ],
      "name": "getBorrowingNum",
      "outputs": [
        {
          "internalType": "uint256",
          "name": "",
          "type": "uint256"
        }
      ],
      "stateMutability": "view",
      "type": "function"
    },
    {
      "inputs": [
        {
          "internalType": "address",
          "name": "_user",
          "type": "address"
        }
      ],
      "name": "getUserData",
      "outputs": [
        {
          "components": [
            {
              "internalType": "uint256",
              "name": "numBorrowing",
              "type": "uint256"
            },
            {
              "internalType": "uint256[]",
              "name": "tokenIds",
              "type": "uint256[]"
            }
          ],
          "internalType": "struct UserManager.User",
          "name": "",
          "type": "tuple"
        }
      ],
      "stateMutability": "view",
      "type": "function"
    },
    {
      "inputs": [],
      "name": "getPurchasersAddress",
      "outputs": [
        {
          "internalType": "address[]",
          "name": "",
          "type": "address[]"
        }
      ],
      "stateMutability": "view",
      "type": "function"
    }
  ],
  "bytecode": "0x608060405234801561001057600080fd5b506107c9806100206000396000f3fe608060405234801561001057600080fd5b50600436106100625760003560e01c806332b9339c146100675780633646951a146100975780634067fd94146100c75780639cbf73a9146100e5578063a87430ba14610115578063ffc9896b14610145575b600080fd5b610081600480360381019061007c919061047c565b610175565b60405161008e91906104c4565b60405180910390f35b6100b160048036038101906100ac919061047c565b610195565b6040516100be91906104f8565b60405180910390f35b6100cf610253565b6040516100dc91906105d1565b60405180910390f35b6100ff60048036038101906100fa919061061f565b6102e1565b60405161010c919061065b565b60405180910390f35b61012f600480360381019061012a919061047c565b610320565b60405161013c91906104f8565b60405180910390f35b61015f600480360381019061015a919061047c565b61033e565b60405161016c9190610771565b60405180910390f35b60006020528060005260406000206000915054906101000a900460ff1681565b600080600260008473ffffffffffffffffffffffffffffffffffffffff1673ffffffffffffffffffffffffffffffffffffffff168152602001908152602001600020604051806040016040529081600082015481526020016001820180548060200260200160405190810160405280929190818152602001828054801561023b57602002820191906000526020600020905b815481526020019060010190808311610227575b50505050508152505090508060000151915050919050565b606060018054806020026020016040519081016040528092919081815260200182805480156102d757602002820191906000526020600020905b8160009054906101000a900473ffffffffffffffffffffffffffffffffffffffff1673ffffffffffffffffffffffffffffffffffffffff168152602001906001019080831161028d575b5050505050905090565b600181815481106102f157600080fd5b906000526020600020016000915054906101000a900473ffffffffffffffffffffffffffffffffffffffff1681565b60026020528060005260406000206000915090508060000154905081565b6103466103ff565b6000600260008473ffffffffffffffffffffffffffffffffffffffff1673ffffffffffffffffffffffffffffffffffffffff16815260200190815260200160002060405180604001604052908160008201548152602001600182018054806020026020016040519081016040528092919081815260200182805480156103eb57602002820191906000526020600020905b8154815260200190600101908083116103d7575b505050505081525050905080915050919050565b604051806040016040528060008152602001606081525090565b600080fd5b600073ffffffffffffffffffffffffffffffffffffffff82169050919050565b60006104498261041e565b9050919050565b6104598161043e565b811461046457600080fd5b50565b60008135905061047681610450565b92915050565b60006020828403121561049257610491610419565b5b60006104a084828501610467565b91505092915050565b60008115159050919050565b6104be816104a9565b82525050565b60006020820190506104d960008301846104b5565b92915050565b6000819050919050565b6104f2816104df565b82525050565b600060208201905061050d60008301846104e9565b92915050565b600081519050919050565b600082825260208201905092915050565b6000819050602082019050919050565b6105488161043e565b82525050565b600061055a838361053f565b60208301905092915050565b6000602082019050919050565b600061057e82610513565b610588818561051e565b93506105938361052f565b8060005b838110156105c45781516105ab888261054e565b97506105b683610566565b925050600181019050610597565b5085935050505092915050565b600060208201905081810360008301526105eb8184610573565b905092915050565b6105fc816104df565b811461060757600080fd5b50565b600081359050610619816105f3565b92915050565b60006020828403121561063557610634610419565b5b60006106438482850161060a565b91505092915050565b6106558161043e565b82525050565b6000602082019050610670600083018461064c565b92915050565b61067f816104df565b82525050565b600081519050919050565b600082825260208201905092915050565b6000819050602082019050919050565b60006106bd8383610676565b60208301905092915050565b6000602082019050919050565b60006106e182610685565b6106eb8185610690565b93506106f6836106a1565b8060005b8381101561072757815161070e88826106b1565b9750610719836106c9565b9250506001810190506106fa565b5085935050505092915050565b600060408301600083015161074c6000860182610676565b506020830151848203602086015261076482826106d6565b9150508091505092915050565b6000602082019050818103600083015261078b8184610734565b90509291505056fea2646970667358221220b0a482a872cd82ea188f8f598c557f1f8f7e3d034c8772ad77136f3be854e81564736f6c634300080b0033",
  "immutableReferences": {},
  "source": "// SPDX-License-Identifier: MIT\npragma solidity 0.8.11;\n\ncontract UserManager {\n    struct User {\n        uint numBorrowing;\n        uint[] tokenIds;\n    }\n\n    mapping(address => bool) public isAlreadyPurchased;\n    address[] public purchaserAddresses;\n    mapping(address => User) public users;\n\n\n    modifier restrictedBorrow(address _user, uint _maxBorrowing){\n        User memory user = users[_user];\n        require(_maxBorrowing >user.numBorrowing);\n        _;\n    }\n    \n    function getBorrowingNum(address _user) external view returns(uint){\n        User memory user = users[_user];\n        return user.numBorrowing;\n    }\n\n    function getUserData(address _user) external view returns(User memory) {\n        User memory user = users[_user];\n        return user;\n    }\n\n    function getPurchasersAddress() external view returns(address[] memory){\n        return purchaserAddresses;\n    }\n\n    function _userPurchase(address _user, uint _tokenId) internal {\n        if(!isAlreadyPurchased[_user]){\n            purchaserAddresses.push(_user);\n            isAlreadyPurchased[_user] = true;\n        }\n        User storage user = users[_user];\n        user.tokenIds.push(_tokenId);\n    }\n\n    function _userBorrow(address _user) internal {\n        User storage user = users[_user];\n        user.numBorrowing++;\n    }\n\n    function _userReturn(address _user) internal {\n        User storage user = users[_user];\n        user.numBorrowing--;\n    }\n}",
  "sourcePath": "/Users/jin/workplace/ethereum/library/contracts/devs/UserManager.sol",
  "compiler": {
    "name": "solc",
    "version": "0.8.11+commit.d7f03943.Emscripten.clang"
  },
  "schemaVersion": "3.4.4",
  "updatedAt": "2021-12-28T13:31:31.084Z",
  "devdoc": {
    "kind": "dev",
    "methods": {},
    "version": 1
  },
  "userdoc": {
    "kind": "user",
    "methods": {},
    "version": 1
  }
}