{
  "contractName": "UserManager",
  "abi": [
    {
      "inputs": [
        {
          "internalType": "address",
          "name": "_user",
          "type": "address"
        }
      ],
      "name": "getBorrowingNum",
      "outputs": [
        {
          "internalType": "uint256",
          "name": "",
          "type": "uint256"
        }
      ],
      "stateMutability": "view",
      "type": "function"
    }
  ],
  "bytecode": "0x608060405234801561001057600080fd5b506101bf806100206000396000f3fe608060405234801561001057600080fd5b506004361061002b5760003560e01c80633646951a14610030575b600080fd5b61004a60048036038101906100459190610128565b610060565b604051610057919061016e565b60405180910390f35b6000806000808473ffffffffffffffffffffffffffffffffffffffff1673ffffffffffffffffffffffffffffffffffffffff16815260200190815260200160002060405180602001604052908160008201548152505090508060000151915050919050565b600080fd5b600073ffffffffffffffffffffffffffffffffffffffff82169050919050565b60006100f5826100ca565b9050919050565b610105816100ea565b811461011057600080fd5b50565b600081359050610122816100fc565b92915050565b60006020828403121561013e5761013d6100c5565b5b600061014c84828501610113565b91505092915050565b6000819050919050565b61016881610155565b82525050565b6000602082019050610183600083018461015f565b9291505056fea2646970667358221220be28e22cb50e4a24f3256e775b9eaf3eccb8bc64260911c99dd5df0853ebb3b864736f6c634300080b0033",
  "immutableReferences": {},
  "source": "// SPDX-License-Identifier: MIT\npragma solidity 0.8.11;\n\ncontract UserManager {\n    struct User {\n        uint numBorrowing;\n    }\n\n    modifier restrictedBorrow(address _user, uint _maxBorrowing){\n        User memory user = users[_user];\n        require(_maxBorrowing >user.numBorrowing);\n        _;\n    }\n    \n    mapping(address => User) users;\n\n    function getBorrowingNum(address _user) external view returns(uint){\n        User memory user = users[_user];\n        return user.numBorrowing;\n    }\n\n    function _userBorrow(address _user) internal {\n        User storage user = users[_user];\n        user.numBorrowing++;\n    }\n\n    function _userReturn(address _user) internal {\n        User storage user = users[_user];\n        user.numBorrowing--;\n    }\n}",
  "sourcePath": "/Users/jin/workplace/ethereum/library/contracts/devs/UserManager.sol",
  "compiler": {
    "name": "solc",
    "version": "0.8.11+commit.d7f03943.Emscripten.clang"
  },
  "schemaVersion": "3.4.4",
  "updatedAt": "2021-12-25T16:27:33.821Z",
  "devdoc": {
    "kind": "dev",
    "methods": {},
    "version": 1
  },
  "userdoc": {
    "kind": "user",
    "methods": {},
    "version": 1
  }
}